{
  "_format": "hh-sol-artifact-1",
  "contractName": "mockOVM_BondManager",
  "sourceName": "contracts/optimistic-ethereum/mockOVM/verification/mockOVM_BondManager.sol",
  "abi": [
    {
      "inputs": [
        {
          "internalType": "address",
          "name": "_libAddressManager",
          "type": "address"
        }
      ],
      "stateMutability": "nonpayable",
      "type": "constructor"
    },
    {
      "inputs": [
        {
          "internalType": "address",
          "name": "_who",
          "type": "address"
        }
      ],
      "name": "claim",
      "outputs": [],
      "stateMutability": "nonpayable",
      "type": "function"
    },
    {
      "inputs": [],
      "name": "deposit",
      "outputs": [],
      "stateMutability": "nonpayable",
      "type": "function"
    },
    {
      "inputs": [
        {
          "internalType": "bytes32",
          "name": "_preStateRoot",
          "type": "bytes32"
        },
        {
          "internalType": "address",
          "name": "_publisher",
          "type": "address"
        },
        {
          "internalType": "uint256",
          "name": "_timestamp",
          "type": "uint256"
        }
      ],
      "name": "finalize",
      "outputs": [],
      "stateMutability": "nonpayable",
      "type": "function"
    },
    {
      "inputs": [],
      "name": "finalizeWithdrawal",
      "outputs": [],
      "stateMutability": "nonpayable",
      "type": "function"
    },
    {
      "inputs": [
        {
          "internalType": "bytes32",
          "name": "",
          "type": "bytes32"
        },
        {
          "internalType": "address",
          "name": "",
          "type": "address"
        }
      ],
      "name": "getGasSpent",
      "outputs": [
        {
          "internalType": "uint256",
          "name": "",
          "type": "uint256"
        }
      ],
      "stateMutability": "pure",
      "type": "function"
    },
    {
      "inputs": [
        {
          "internalType": "address",
          "name": "_who",
          "type": "address"
        }
      ],
      "name": "isCollateralized",
      "outputs": [
        {
          "internalType": "bool",
          "name": "",
          "type": "bool"
        }
      ],
      "stateMutability": "view",
      "type": "function"
    },
    {
      "inputs": [],
      "name": "libAddressManager",
      "outputs": [
        {
          "internalType": "contract Lib_AddressManager",
          "name": "",
          "type": "address"
        }
      ],
      "stateMutability": "view",
      "type": "function"
    },
    {
      "inputs": [
        {
          "internalType": "bytes32",
          "name": "_preStateRoot",
          "type": "bytes32"
        },
        {
          "internalType": "bytes32",
          "name": "_txHash",
          "type": "bytes32"
        },
        {
          "internalType": "address",
          "name": "_who",
          "type": "address"
        },
        {
          "internalType": "uint256",
          "name": "_gasSpent",
          "type": "uint256"
        }
      ],
      "name": "recordGasSpent",
      "outputs": [],
      "stateMutability": "nonpayable",
      "type": "function"
    },
    {
      "inputs": [
        {
          "internalType": "string",
          "name": "_name",
          "type": "string"
        }
      ],
      "name": "resolve",
      "outputs": [
        {
          "internalType": "address",
          "name": "",
          "type": "address"
        }
      ],
      "stateMutability": "view",
      "type": "function"
    },
    {
      "inputs": [],
      "name": "startWithdrawal",
      "outputs": [],
      "stateMutability": "nonpayable",
      "type": "function"
    }
  ],
  "bytecode": "0x60806040525a61000d610094565b80156100215760008061001e6100ee565b50505b506040516108d53803806108d58339818101604052602081101561004d5760008061004a6100ee565b50505b81019080805192508291508190506000600181610068610159565b816001600160a01b0302191690836001600160a01b031602179061008a6101a5565b50505050506101f3565b63a8c4c5ec598160e01b8152602081600483336000905af158600e01573d6000803e3d6000fd5b3d6001141558600a015760016000f35b8051935060005b60408110156100e9576000828201526020016100d2565b505050565b632a2a7adb598160e01b8152600481016020815285602082015260005b8681101561012657808601518282016040015260200161010b565b506020828760640184336000905af158600e01573d6000803e3d6000fd5b3d6001141558600a015760016000f35b505050565b6303daa959598160e01b8152836004820152602081602483336000905af158600e01573d6000803e3d6000fd5b3d6001141558600a015760016000f35b805160008252935060206100d2565b6322bd64c0598160e01b8152836004820152846024820152600081604483336000905af158600e01573d6000803e3d6000fd5b3d6001141558600a015760016000f35b6000815260206100d2565b6106d3806102026000396000f3fe60806040525a61000d610490565b80156100215760008061001e6104e5565b50505b50600436106100af5760003560e01c8063abfbbe1311610077578063abfbbe131461025f578063bc2f8dd81461029a578063c5b6aa2f1461029a578063d0e30db01461029a578063dc6453dc146102a2576100af565b806302ad4d2a146100bd5780631e16e92f146101005780631e83409a14610143578063299ca47814610172578063461a447814610196575b6000806100ba6104e5565b50505b6100ec600480360360208110156100dc576000806100d96104e5565b50505b50356001600160a01b03166102e9565b604051901515815260200160405180910390f35b6101416004803603608081101561011f5760008061011c6104e5565b50505b508035906020810135906001600160a01b036040820135169060600135610331565b005b610141600480360360208110156101625760008061015f6104e5565b50505b50356001600160a01b0316610337565b61017a61033a565b6040516001600160a01b03909116815260200160405180910390f35b61017a600480360360208110156101b5576000806101b26104e5565b50505b8101906020810181356401000000008111156101d9576000806101d66104e5565b50505b8201836020820111156101f4576000806101f16104e5565b50505b8035906020019184600183028401116401000000008311171561021f5760008061021c6104e5565b50505b91908080601f0160208091040260200160405190810160405281815292919060208401838380828437600092019190915250929550610358945050505050565b6101416004803603606081101561027e5760008061027b6104e5565b50505b508035906001600160a01b036020820135169060400135610480565b610141610485565b6102d7600480360360408110156102c1576000806102be6104e5565b50505b50803590602001356001600160a01b0316610487565b60405190815260200160405180910390f35b600061031660405160408082019052600c81526b27ab26afa83937b837b9b2b960a11b6020820152610358565b6001600160a01b0316826001600160a01b0316149050919050565b50505050565b50565b600080610345610550565b906101000a90046001600160a01b031681565b60008080610364610550565b906101000a90046001600160a01b03166001600160a01b031663bf40fac1836040518263ffffffff1660e01b81526004018080602001828103825283818151815260200191508051906020019080838360005b838110156103cf5780820151838201526020016103b7565b50505050905090810190601f1680156103fc5780820380516001836020036101000a031916815260200191505b5092505050602060405180830381868061041461059c565b158015610429576000806104266104e5565b50505b505a6104336105e8565b5050505050158015610452573d6000803e3d600061044f6104e5565b50505b505050506040513d60208110156104715760008061046e6104e5565b50505b81019080805195945050505050565b505050565b565b60005b92915050565b63a8c4c5ec598160e01b8152602081600483336000905af158600e01573d6000803e3d6000fd5b3d6001141558600a015760016000f35b8051935060005b6040811015610480576000828201526020016104ce565b632a2a7adb598160e01b8152600481016020815285602082015260005b8681101561051d578086015182820160400152602001610502565b506020828760640184336000905af158600e01573d6000803e3d6000fd5b3d6001141558600a015760016000f35b505050565b6303daa959598160e01b8152836004820152602081602483336000905af158600e01573d6000803e3d6000fd5b3d6001141558600a015760016000f35b805160008252935060206104ce565b638435035b598160e01b8152836004820152602081602483336000905af158600e01573d6000803e3d6000fd5b3d6001141558600a015760016000f35b805160008252935060206104ce565b638540661f598160e01b8152610619565b808083111561048a575090919050565b808083101561048a575090919050565b836004820152846024820152606060448201528660648201526084810160005b88811015610651578088015182820152602001610639565b506060828960a40184336000905af158600e01573d6000803e3d6000fd5b3d6001141558600a015760016000f35b815160408301513d6000853e8b8b82606087013350600060045af150596106a68d3d610609565b8c016106b281876105f9565b5b828110156106c757600081526020016106b3565b50929c5050505050505056",
  "linkReferences": {},
  "deployedLinkReferences": {}
}