{
  "_format": "hh-sol-artifact-1",
  "contractName": "CanonicalTransactionChain",
  "sourceName": "contracts/L1/rollup/CanonicalTransactionChain.sol",
  "abi": [
    {
      "inputs": [
        {
          "internalType": "address",
          "name": "_libAddressManager",
          "type": "address"
        },
        {
          "internalType": "uint256",
          "name": "_maxTransactionGasLimit",
          "type": "uint256"
        },
        {
          "internalType": "uint256",
          "name": "_l2GasDiscountDivisor",
          "type": "uint256"
        },
        {
          "internalType": "uint256",
          "name": "_enqueueGasCost",
          "type": "uint256"
        }
      ],
      "stateMutability": "nonpayable",
      "type": "constructor"
    },
    {
      "anonymous": false,
      "inputs": [
        {
          "indexed": false,
          "internalType": "uint256",
          "name": "l2GasDiscountDivisor",
          "type": "uint256"
        },
        {
          "indexed": false,
          "internalType": "uint256",
          "name": "enqueueGasCost",
          "type": "uint256"
        },
        {
          "indexed": false,
          "internalType": "uint256",
          "name": "enqueueL2GasPrepaid",
          "type": "uint256"
        }
      ],
      "name": "L2GasParamsUpdated",
      "type": "event"
    },
    {
      "anonymous": false,
      "inputs": [
        {
          "indexed": false,
          "internalType": "uint256",
          "name": "_startingQueueIndex",
          "type": "uint256"
        },
        {
          "indexed": false,
          "internalType": "uint256",
          "name": "_numQueueElements",
          "type": "uint256"
        },
        {
          "indexed": false,
          "internalType": "uint256",
          "name": "_totalElements",
          "type": "uint256"
        }
      ],
      "name": "QueueBatchAppended",
      "type": "event"
    },
    {
      "anonymous": false,
      "inputs": [
        {
          "indexed": false,
          "internalType": "uint256",
          "name": "_startingQueueIndex",
          "type": "uint256"
        },
        {
          "indexed": false,
          "internalType": "uint256",
          "name": "_numQueueElements",
          "type": "uint256"
        },
        {
          "indexed": false,
          "internalType": "uint256",
          "name": "_totalElements",
          "type": "uint256"
        }
      ],
      "name": "SequencerBatchAppended",
      "type": "event"
    },
    {
      "anonymous": false,
      "inputs": [
        {
          "indexed": true,
          "internalType": "uint256",
          "name": "_batchIndex",
          "type": "uint256"
        },
        {
          "indexed": false,
          "internalType": "bytes32",
          "name": "_batchRoot",
          "type": "bytes32"
        },
        {
          "indexed": false,
          "internalType": "uint256",
          "name": "_batchSize",
          "type": "uint256"
        },
        {
          "indexed": false,
          "internalType": "uint256",
          "name": "_prevTotalElements",
          "type": "uint256"
        },
        {
          "indexed": false,
          "internalType": "bytes",
          "name": "_extraData",
          "type": "bytes"
        }
      ],
      "name": "TransactionBatchAppended",
      "type": "event"
    },
    {
      "anonymous": false,
      "inputs": [
        {
          "indexed": true,
          "internalType": "address",
          "name": "_l1TxOrigin",
          "type": "address"
        },
        {
          "indexed": true,
          "internalType": "address",
          "name": "_target",
          "type": "address"
        },
        {
          "indexed": false,
          "internalType": "uint256",
          "name": "_gasLimit",
          "type": "uint256"
        },
        {
          "indexed": false,
          "internalType": "bytes",
          "name": "_data",
          "type": "bytes"
        },
        {
          "indexed": true,
          "internalType": "uint256",
          "name": "_queueIndex",
          "type": "uint256"
        },
        {
          "indexed": false,
          "internalType": "uint256",
          "name": "_timestamp",
          "type": "uint256"
        }
      ],
      "name": "TransactionEnqueued",
      "type": "event"
    },
    {
      "inputs": [],
      "name": "MAX_ROLLUP_TX_SIZE",
      "outputs": [
        {
          "internalType": "uint256",
          "name": "",
          "type": "uint256"
        }
      ],
      "stateMutability": "view",
      "type": "function"
    },
    {
      "inputs": [],
      "name": "MIN_ROLLUP_TX_GAS",
      "outputs": [
        {
          "internalType": "uint256",
          "name": "",
          "type": "uint256"
        }
      ],
      "stateMutability": "view",
      "type": "function"
    },
    {
      "inputs": [],
      "name": "appendSequencerBatch",
      "outputs": [],
      "stateMutability": "nonpayable",
      "type": "function"
    },
    {
      "inputs": [],
      "name": "batches",
      "outputs": [
        {
          "internalType": "contract IChainStorageContainer",
          "name": "",
          "type": "address"
        }
      ],
      "stateMutability": "view",
      "type": "function"
    },
    {
      "inputs": [
        {
          "internalType": "address",
          "name": "_target",
          "type": "address"
        },
        {
          "internalType": "uint256",
          "name": "_gasLimit",
          "type": "uint256"
        },
        {
          "internalType": "bytes",
          "name": "_data",
          "type": "bytes"
        }
      ],
      "name": "enqueue",
      "outputs": [],
      "stateMutability": "nonpayable",
      "type": "function"
    },
    {
      "inputs": [],
      "name": "enqueueGasCost",
      "outputs": [
        {
          "internalType": "uint256",
          "name": "",
          "type": "uint256"
        }
      ],
      "stateMutability": "view",
      "type": "function"
    },
    {
      "inputs": [],
      "name": "enqueueL2GasPrepaid",
      "outputs": [
        {
          "internalType": "uint256",
          "name": "",
          "type": "uint256"
        }
      ],
      "stateMutability": "view",
      "type": "function"
    },
    {
      "inputs": [],
      "name": "getLastBlockNumber",
      "outputs": [
        {
          "internalType": "uint40",
          "name": "",
          "type": "uint40"
        }
      ],
      "stateMutability": "view",
      "type": "function"
    },
    {
      "inputs": [],
      "name": "getLastTimestamp",
      "outputs": [
        {
          "internalType": "uint40",
          "name": "",
          "type": "uint40"
        }
      ],
      "stateMutability": "view",
      "type": "function"
    },
    {
      "inputs": [],
      "name": "getNextQueueIndex",
      "outputs": [
        {
          "internalType": "uint40",
          "name": "",
          "type": "uint40"
        }
      ],
      "stateMutability": "view",
      "type": "function"
    },
    {
      "inputs": [],
      "name": "getNumPendingQueueElements",
      "outputs": [
        {
          "internalType": "uint40",
          "name": "",
          "type": "uint40"
        }
      ],
      "stateMutability": "view",
      "type": "function"
    },
    {
      "inputs": [
        {
          "internalType": "uint256",
          "name": "_index",
          "type": "uint256"
        }
      ],
      "name": "getQueueElement",
      "outputs": [
        {
          "components": [
            {
              "internalType": "bytes32",
              "name": "transactionHash",
              "type": "bytes32"
            },
            {
              "internalType": "uint40",
              "name": "timestamp",
              "type": "uint40"
            },
            {
              "internalType": "uint40",
              "name": "blockNumber",
              "type": "uint40"
            }
          ],
          "internalType": "struct Lib_OVMCodec.QueueElement",
          "name": "_element",
          "type": "tuple"
        }
      ],
      "stateMutability": "view",
      "type": "function"
    },
    {
      "inputs": [],
      "name": "getQueueLength",
      "outputs": [
        {
          "internalType": "uint40",
          "name": "",
          "type": "uint40"
        }
      ],
      "stateMutability": "view",
      "type": "function"
    },
    {
      "inputs": [],
      "name": "getTotalBatches",
      "outputs": [
        {
          "internalType": "uint256",
          "name": "_totalBatches",
          "type": "uint256"
        }
      ],
      "stateMutability": "view",
      "type": "function"
    },
    {
      "inputs": [],
      "name": "getTotalElements",
      "outputs": [
        {
          "internalType": "uint256",
          "name": "_totalElements",
          "type": "uint256"
        }
      ],
      "stateMutability": "view",
      "type": "function"
    },
    {
      "inputs": [],
      "name": "l2GasDiscountDivisor",
      "outputs": [
        {
          "internalType": "uint256",
          "name": "",
          "type": "uint256"
        }
      ],
      "stateMutability": "view",
      "type": "function"
    },
    {
      "inputs": [],
      "name": "libAddressManager",
      "outputs": [
        {
          "internalType": "contract Lib_AddressManager",
          "name": "",
          "type": "address"
        }
      ],
      "stateMutability": "view",
      "type": "function"
    },
    {
      "inputs": [],
      "name": "maxTransactionGasLimit",
      "outputs": [
        {
          "internalType": "uint256",
          "name": "",
          "type": "uint256"
        }
      ],
      "stateMutability": "view",
      "type": "function"
    },
    {
      "inputs": [],
      "name": "queue",
      "outputs": [
        {
          "internalType": "contract IChainStorageContainer",
          "name": "",
          "type": "address"
        }
      ],
      "stateMutability": "view",
      "type": "function"
    },
    {
      "inputs": [
        {
          "internalType": "string",
          "name": "_name",
          "type": "string"
        }
      ],
      "name": "resolve",
      "outputs": [
        {
          "internalType": "address",
          "name": "",
          "type": "address"
        }
      ],
      "stateMutability": "view",
      "type": "function"
    },
    {
      "inputs": [
        {
          "internalType": "uint256",
          "name": "_l2GasDiscountDivisor",
          "type": "uint256"
        },
        {
          "internalType": "uint256",
          "name": "_enqueueGasCost",
          "type": "uint256"
        }
      ],
      "name": "setGasParams",
      "outputs": [],
      "stateMutability": "nonpayable",
      "type": "function"
    }
  ],
  "bytecode": "0x608060405234801561001057600080fd5b5060405162001ac238038062001ac283398101604081905261003191610072565b600080546001600160a01b0319166001600160a01b03861617905560048390556002829055600181905561006581836100bd565b600355506100ea92505050565b6000806000806080858703121561008857600080fd5b84516001600160a01b038116811461009f57600080fd5b60208601516040870151606090970151919890975090945092505050565b60008160001904831182151516156100e557634e487b7160e01b600052601160045260246000fd5b500290565b6119c880620000fa6000396000f3fe608060405234801561001057600080fd5b50600436106101775760003560e01c8063876ed5cb116100d8578063d0f893441161008c578063e654b1fb11610066578063e654b1fb146102d3578063edcc4a45146102dc578063f722b41a146102ef57600080fd5b8063d0f89344146102bb578063e10d29ee146102c3578063e561dddc146102cb57600080fd5b8063b8f77005116100bd578063b8f77005146102a2578063ccf987c8146102aa578063cfdf677e146102b357600080fd5b8063876ed5cb146102905780638d38c6c11461029957600080fd5b80635ae6256d1161012f57806378f4b2f21161011457806378f4b2f21461026f5780637a167a8a146102795780637aa63a861461028857600080fd5b80635ae6256d146102525780636fee07e01461025a57600080fd5b80632a7f18be116101605780632a7f18be146101dd5780633789977014610221578063461a44781461023f57600080fd5b80630b3dfa971461017c578063299ca47814610198575b600080fd5b61018560035481565b6040519081526020015b60405180910390f35b6000546101b89073ffffffffffffffffffffffffffffffffffffffff1681565b60405173ffffffffffffffffffffffffffffffffffffffff909116815260200161018f565b6101f06101eb366004611438565b6102f7565b604080518251815260208084015164ffffffffff90811691830191909152928201519092169082015260600161018f565b610229610375565b60405164ffffffffff909116815260200161018f565b6101b861024d366004611514565b610389565b610229610436565b61026d61026836600461158a565b61044a565b005b610185620186a081565b60055464ffffffffff16610229565b6101856108ac565b61018561c35081565b61018560045481565b600654610229565b61018560025481565b6101b86108c7565b61026d6108ef565b6101b8610e0b565b610185610e4b565b61018560015481565b61026d6102ea3660046115f7565b610ed2565b610229611069565b60408051606081018252600080825260208201819052918101919091526006828154811061032757610327611619565b6000918252602091829020604080516060810182526002909302909101805483526001015464ffffffffff808216948401949094526501000000000090049092169181019190915292915050565b600080610380611085565b50949350505050565b600080546040517fbf40fac100000000000000000000000000000000000000000000000000000000815273ffffffffffffffffffffffffffffffffffffffff9091169063bf40fac1906103e09085906004016116b3565b60206040518083038186803b1580156103f857600080fd5b505afa15801561040c573d6000803e3d6000fd5b505050506040513d601f19601f8201168201806040525081019061043091906116cd565b92915050565b600080610441611085565b95945050505050565b61c350815111156104e2576040517f08c379a000000000000000000000000000000000000000000000000000000000815260206004820152603d60248201527f5472616e73616374696f6e20646174612073697a652065786365656473206d6160448201527f78696d756d20666f7220726f6c6c7570207472616e73616374696f6e2e00000060648201526084015b60405180910390fd5b600454821115610574576040517f08c379a000000000000000000000000000000000000000000000000000000000815260206004820152603d60248201527f5472616e73616374696f6e20676173206c696d69742065786365656473206d6160448201527f78696d756d20666f7220726f6c6c7570207472616e73616374696f6e2e00000060648201526084016104d9565b620186a0821015610607576040517f08c379a000000000000000000000000000000000000000000000000000000000815260206004820152602960248201527f5472616e73616374696f6e20676173206c696d697420746f6f206c6f7720746f60448201527f20656e71756575652e000000000000000000000000000000000000000000000060648201526084016104d9565b6003548211156106ef576000600254600354846106249190611719565b61062e9190611730565b905060005a90508181116106c4576040517f08c379a000000000000000000000000000000000000000000000000000000000815260206004820152602b60248201527f496e73756666696369656e742067617320666f72204c322072617465206c696d60448201527f6974696e67206275726e2e00000000000000000000000000000000000000000060648201526084016104d9565b60005b825a6106d39084611719565b10156106eb57806106e38161176b565b9150506106c7565b5050505b600033321415610700575033610719565b5033731111000000000000000000000000000000001111015b60008185858560405160200161073294939291906117a4565b604080517fffffffffffffffffffffffffffffffffffffffffffffffffffffffffffffffe0818403018152828252805160209182012060608401835280845264ffffffffff42811692850192835243811693850193845260068054600181810183556000838152975160029092027ff652222313e28459528d920b65115c16c04f3efc82aaedc97be59f3f377c0d3f81019290925594517ff652222313e28459528d920b65115c16c04f3efc82aaedc97be59f3f377c0d4090910180549651841665010000000000027fffffffffffffffffffffffffffffffffffffffffffff000000000000000000009097169190931617949094179055915491935061083891611719565b9050808673ffffffffffffffffffffffffffffffffffffffff168473ffffffffffffffffffffffffffffffffffffffff167f4b388aecf9fa6cc92253704e5975a6129a4f735bdbd99567df4ed0094ee4ceb588884260405161089c939291906117ed565b60405180910390a4505050505050565b6000806108b7611085565b50505064ffffffffff1692915050565b60006108ea60405180606001604052806021815260200161199b60219139610389565b905090565b60043560d81c60093560e890811c90600c35901c61090b6108ac565b8364ffffffffff16146109a0576040517f08c379a000000000000000000000000000000000000000000000000000000000815260206004820152603d60248201527f41637475616c20626174636820737461727420696e64657820646f6573206e6f60448201527f74206d6174636820657870656374656420737461727420696e6465782e00000060648201526084016104d9565b6109de6040518060400160405280600d81526020017f4f564d5f53657175656e63657200000000000000000000000000000000000000815250610389565b73ffffffffffffffffffffffffffffffffffffffff163373ffffffffffffffffffffffffffffffffffffffff1614610a98576040517f08c379a000000000000000000000000000000000000000000000000000000000815260206004820152602d60248201527f46756e6374696f6e2063616e206f6e6c792062652063616c6c6564206279207460448201527f68652053657175656e6365722e0000000000000000000000000000000000000060648201526084016104d9565b6000610aaa62ffffff83166010611816565b610ab590600f611853565b905064ffffffffff8116361015610b4e576040517f08c379a000000000000000000000000000000000000000000000000000000000815260206004820152602260248201527f4e6f7420656e6f756768204261746368436f6e74657874732070726f7669646560448201527f642e00000000000000000000000000000000000000000000000000000000000060648201526084016104d9565b6005546040805160808101825260008082526020820181905291810182905260608101829052909164ffffffffff169060005b8562ffffff168163ffffffff161015610bdf576000610ba58263ffffffff16611140565b8051909350839150610bb7908661186b565b9450826020015184610bc99190611893565b9350508080610bd7906118b3565b915050610b81565b5060065464ffffffffff83161115610c9f576040517f08c379a000000000000000000000000000000000000000000000000000000000815260206004820152604260248201527f417474656d7074656420746f20617070656e64206d6f726520656c656d656e7460448201527f73207468616e2061726520617661696c61626c6520696e20746865207175657560648201527f652e000000000000000000000000000000000000000000000000000000000000608482015260a4016104d9565b6000610cb08462ffffff89166118d7565b63ffffffff169050600080836020015160001415610cd957505060408201516060830151610d4a565b60006006610ce86001886118fc565b64ffffffffff1681548110610cff57610cff611619565b6000918252602091829020604080516060810182526002909302909101805483526001015464ffffffffff808216948401859052650100000000009091041691018190529093509150505b610d6e610d58600143611719565b408a62ffffff168564ffffffffff1685856111c7565b7f602f1aeac0ca2e7a13e281a9ef0ad7838542712ce16780fa2ecffd351f05f899610d9984876118fc565b84610da26108ac565b6040805164ffffffffff94851681529390921660208401529082015260600160405180910390a15050600580547fffffffffffffffffffffffffffffffffffffffffffffffffffffff00000000001664ffffffffff949094169390931790925550505050505050565b60006108ea6040518060400160405280601f81526020017f436861696e53746f72616765436f6e7461696e65722d4354432d717565756500815250610389565b6000610e556108c7565b73ffffffffffffffffffffffffffffffffffffffff16631f7b6d326040518163ffffffff1660e01b815260040160206040518083038186803b158015610e9a57600080fd5b505afa158015610eae573d6000803e3d6000fd5b505050506040513d601f19601f820116820180604052508101906108ea919061191a565b60008054906101000a900473ffffffffffffffffffffffffffffffffffffffff1673ffffffffffffffffffffffffffffffffffffffff16638da5cb5b6040518163ffffffff1660e01b815260040160206040518083038186803b158015610f3857600080fd5b505afa158015610f4c573d6000803e3d6000fd5b505050506040513d601f19601f82011682018060405250810190610f7091906116cd565b73ffffffffffffffffffffffffffffffffffffffff163373ffffffffffffffffffffffffffffffffffffffff1614611004576040517f08c379a000000000000000000000000000000000000000000000000000000000815260206004820181905260248201527f4f6e6c792063616c6c61626c6520627920746865204275726e2041646d696e2e60448201526064016104d9565b600181905560028290556110188183611816565b60038190556002546001546040805192835260208301919091528101919091527fc6ed75e96b8b18b71edc1a6e82a9d677f8268c774a262c624eeb2cf0a8b3e07e9060600160405180910390a15050565b6005546006546000916108ea9164ffffffffff909116906118fc565b60008060008060006110956108c7565b73ffffffffffffffffffffffffffffffffffffffff1663ccf8f9696040518163ffffffff1660e01b815260040160206040518083038186803b1580156110da57600080fd5b505afa1580156110ee573d6000803e3d6000fd5b505050506040513d601f19601f820116820180604052508101906111129190611933565b64ffffffffff602882901c811697605083901c82169750607883901c8216965060a09290921c169350915050565b61116b6040518060800160405280600081526020016000815260200160008152602001600081525090565b6000611178601084611816565b61118390600f611853565b60408051608081018252823560e890811c82526003840135901c6020820152600683013560d890811c92820192909252600b90920135901c60608201529392505050565b60006111d16108c7565b90506000806111de611085565b50509150915060006040518060a001604052808573ffffffffffffffffffffffffffffffffffffffff16631f7b6d326040518163ffffffff1660e01b815260040160206040518083038186803b15801561123757600080fd5b505afa15801561124b573d6000803e3d6000fd5b505050506040513d601f19601f8201168201806040525081019061126f919061191a565b81526020018a81526020018981526020018464ffffffffff16815260200160405180602001604052806000815250815250905080600001517f127186556e7be68c7e31263195225b4de02820707889540969f62c05cf73525e82602001518360400151846060015185608001516040516112ec9493929190611975565b60405180910390a260006112ff826113f2565b9050600061133a8360400151866113169190611893565b6113208b87611893565b602890811b9190911760508b901b1760788a901b17901b90565b6040517f2015276c000000000000000000000000000000000000000000000000000000008152600481018490527fffffffffffffffffffffffffffffffffffffffffffffffffffffff00000000008216602482015290915073ffffffffffffffffffffffffffffffffffffffff871690632015276c90604401600060405180830381600087803b1580156113cd57600080fd5b505af11580156113e1573d6000803e3d6000fd5b505050505050505050505050505050565b6000816020015182604001518360600151846080015160405160200161141b9493929190611975565b604051602081830303815290604052805190602001209050919050565b60006020828403121561144a57600080fd5b5035919050565b7f4e487b7100000000000000000000000000000000000000000000000000000000600052604160045260246000fd5b600067ffffffffffffffff8084111561149b5761149b611451565b604051601f85017fffffffffffffffffffffffffffffffffffffffffffffffffffffffffffffffe0908116603f011681019082821181831017156114e1576114e1611451565b816040528093508581528686860111156114fa57600080fd5b858560208301376000602087830101525050509392505050565b60006020828403121561152657600080fd5b813567ffffffffffffffff81111561153d57600080fd5b8201601f8101841361154e57600080fd5b61155d84823560208401611480565b949350505050565b73ffffffffffffffffffffffffffffffffffffffff8116811461158757600080fd5b50565b60008060006060848603121561159f57600080fd5b83356115aa81611565565b925060208401359150604084013567ffffffffffffffff8111156115cd57600080fd5b8401601f810186136115de57600080fd5b6115ed86823560208401611480565b9150509250925092565b6000806040838503121561160a57600080fd5b50508035926020909101359150565b7f4e487b7100000000000000000000000000000000000000000000000000000000600052603260045260246000fd5b6000815180845260005b8181101561166e57602081850181015186830182015201611652565b81811115611680576000602083870101525b50601f017fffffffffffffffffffffffffffffffffffffffffffffffffffffffffffffffe0169290920160200192915050565b6020815260006116c66020830184611648565b9392505050565b6000602082840312156116df57600080fd5b81516116c681611565565b7f4e487b7100000000000000000000000000000000000000000000000000000000600052601160045260246000fd5b60008282101561172b5761172b6116ea565b500390565b600082611766577f4e487b7100000000000000000000000000000000000000000000000000000000600052601260045260246000fd5b500490565b60007fffffffffffffffffffffffffffffffffffffffffffffffffffffffffffffffff82141561179d5761179d6116ea565b5060010190565b600073ffffffffffffffffffffffffffffffffffffffff8087168352808616602084015250836040830152608060608301526117e36080830184611648565b9695505050505050565b8381526060602082015260006118066060830185611648565b9050826040830152949350505050565b6000817fffffffffffffffffffffffffffffffffffffffffffffffffffffffffffffffff048311821515161561184e5761184e6116ea565b500290565b60008219821115611866576118666116ea565b500190565b600063ffffffff80831681851680830382111561188a5761188a6116ea565b01949350505050565b600064ffffffffff80831681851680830382111561188a5761188a6116ea565b600063ffffffff808316818114156118cd576118cd6116ea565b6001019392505050565b600063ffffffff838116908316818110156118f4576118f46116ea565b039392505050565b600064ffffffffff838116908316818110156118f4576118f46116ea565b60006020828403121561192c57600080fd5b5051919050565b60006020828403121561194557600080fd5b81517fffffffffffffffffffffffffffffffffffffffffffffffffffffff0000000000811681146116c657600080fd5b8481528360208201528260408201526080606082015260006117e3608083018461164856fe436861696e53746f72616765436f6e7461696e65722d4354432d62617463686573a164736f6c6343000809000a",
  "linkReferences": {},
  "deployedLinkReferences": {}
}