{
  "_format": "hh-sol-artifact-1",
  "contractName": "ERC721Genesis",
  "sourceName": "contracts/ERC721Genesis.sol",
  "abi": [
    {
      "inputs": [
        {
          "internalType": "string",
          "name": "name",
          "type": "string"
        },
        {
          "internalType": "string",
          "name": "symbol",
          "type": "string"
        },
        {
          "internalType": "uint256",
          "name": "tID_start",
          "type": "uint256"
        },
        {
          "internalType": "address",
          "name": "origin_cAddress",
          "type": "address"
        },
        {
          "internalType": "string",
          "name": "origin_id",
          "type": "string"
        },
        {
          "internalType": "string",
          "name": "origin_chain",
          "type": "string"
        }
      ],
      "stateMutability": "nonpayable",
      "type": "constructor"
    },
    {
      "anonymous": false,
      "inputs": [
        {
          "indexed": true,
          "internalType": "address",
          "name": "owner",
          "type": "address"
        },
        {
          "indexed": true,
          "internalType": "address",
          "name": "approved",
          "type": "address"
        },
        {
          "indexed": true,
          "internalType": "uint256",
          "name": "tokenId",
          "type": "uint256"
        }
      ],
      "name": "Approval",
      "type": "event"
    },
    {
      "anonymous": false,
      "inputs": [
        {
          "indexed": true,
          "internalType": "address",
          "name": "owner",
          "type": "address"
        },
        {
          "indexed": true,
          "internalType": "address",
          "name": "operator",
          "type": "address"
        },
        {
          "indexed": false,
          "internalType": "bool",
          "name": "approved",
          "type": "bool"
        }
      ],
      "name": "ApprovalForAll",
      "type": "event"
    },
    {
      "anonymous": false,
      "inputs": [
        {
          "indexed": true,
          "internalType": "address",
          "name": "previousOwner",
          "type": "address"
        },
        {
          "indexed": true,
          "internalType": "address",
          "name": "newOwner",
          "type": "address"
        }
      ],
      "name": "OwnershipTransferred",
      "type": "event"
    },
    {
      "anonymous": false,
      "inputs": [
        {
          "indexed": true,
          "internalType": "address",
          "name": "from",
          "type": "address"
        },
        {
          "indexed": true,
          "internalType": "address",
          "name": "to",
          "type": "address"
        },
        {
          "indexed": true,
          "internalType": "uint256",
          "name": "tokenId",
          "type": "uint256"
        }
      ],
      "name": "Transfer",
      "type": "event"
    },
    {
      "inputs": [
        {
          "internalType": "address",
          "name": "to",
          "type": "address"
        },
        {
          "internalType": "uint256",
          "name": "tokenId",
          "type": "uint256"
        }
      ],
      "name": "approve",
      "outputs": [],
      "stateMutability": "nonpayable",
      "type": "function"
    },
    {
      "inputs": [
        {
          "internalType": "address",
          "name": "owner",
          "type": "address"
        }
      ],
      "name": "balanceOf",
      "outputs": [
        {
          "internalType": "uint256",
          "name": "",
          "type": "uint256"
        }
      ],
      "stateMutability": "view",
      "type": "function"
    },
    {
      "inputs": [],
      "name": "baseURI",
      "outputs": [
        {
          "internalType": "string",
          "name": "",
          "type": "string"
        }
      ],
      "stateMutability": "view",
      "type": "function"
    },
    {
      "inputs": [
        {
          "internalType": "uint256",
          "name": "tokenId",
          "type": "uint256"
        }
      ],
      "name": "burn",
      "outputs": [],
      "stateMutability": "nonpayable",
      "type": "function"
    },
    {
      "inputs": [
        {
          "internalType": "uint256",
          "name": "tokenId",
          "type": "uint256"
        }
      ],
      "name": "exists",
      "outputs": [
        {
          "internalType": "bool",
          "name": "",
          "type": "bool"
        }
      ],
      "stateMutability": "view",
      "type": "function"
    },
    {
      "inputs": [
        {
          "internalType": "uint256",
          "name": "tokenId",
          "type": "uint256"
        }
      ],
      "name": "getApproved",
      "outputs": [
        {
          "internalType": "address",
          "name": "",
          "type": "address"
        }
      ],
      "stateMutability": "view",
      "type": "function"
    },
    {
      "inputs": [],
      "name": "getGenesis",
      "outputs": [
        {
          "internalType": "address",
          "name": "",
          "type": "address"
        },
        {
          "internalType": "string",
          "name": "",
          "type": "string"
        },
        {
          "internalType": "string",
          "name": "",
          "type": "string"
        }
      ],
      "stateMutability": "view",
      "type": "function"
    },
    {
      "inputs": [],
      "name": "getLastTID",
      "outputs": [
        {
          "internalType": "uint256",
          "name": "",
          "type": "uint256"
        }
      ],
      "stateMutability": "view",
      "type": "function"
    },
    {
      "inputs": [
        {
          "internalType": "uint256",
          "name": "tokenId",
          "type": "uint256"
        }
      ],
      "name": "getTokenURI",
      "outputs": [
        {
          "internalType": "string",
          "name": "",
          "type": "string"
        }
      ],
      "stateMutability": "view",
      "type": "function"
    },
    {
      "inputs": [
        {
          "internalType": "address",
          "name": "owner",
          "type": "address"
        },
        {
          "internalType": "address",
          "name": "operator",
          "type": "address"
        }
      ],
      "name": "isApprovedForAll",
      "outputs": [
        {
          "internalType": "bool",
          "name": "",
          "type": "bool"
        }
      ],
      "stateMutability": "view",
      "type": "function"
    },
    {
      "inputs": [
        {
          "internalType": "address",
          "name": "to",
          "type": "address"
        },
        {
          "internalType": "uint256",
          "name": "tokenId",
          "type": "uint256"
        }
      ],
      "name": "mint",
      "outputs": [],
      "stateMutability": "nonpayable",
      "type": "function"
    },
    {
      "inputs": [
        {
          "internalType": "address",
          "name": "recipient",
          "type": "address"
        },
        {
          "internalType": "string",
          "name": "tokenURI",
          "type": "string"
        }
      ],
      "name": "mintNFT",
      "outputs": [
        {
          "internalType": "uint256",
          "name": "",
          "type": "uint256"
        }
      ],
      "stateMutability": "nonpayable",
      "type": "function"
    },
    {
      "inputs": [],
      "name": "name",
      "outputs": [
        {
          "internalType": "string",
          "name": "",
          "type": "string"
        }
      ],
      "stateMutability": "view",
      "type": "function"
    },
    {
      "inputs": [],
      "name": "owner",
      "outputs": [
        {
          "internalType": "address",
          "name": "",
          "type": "address"
        }
      ],
      "stateMutability": "view",
      "type": "function"
    },
    {
      "inputs": [
        {
          "internalType": "uint256",
          "name": "tokenId",
          "type": "uint256"
        }
      ],
      "name": "ownerOf",
      "outputs": [
        {
          "internalType": "address",
          "name": "",
          "type": "address"
        }
      ],
      "stateMutability": "view",
      "type": "function"
    },
    {
      "inputs": [],
      "name": "renounceOwnership",
      "outputs": [],
      "stateMutability": "nonpayable",
      "type": "function"
    },
    {
      "inputs": [
        {
          "internalType": "address",
          "name": "to",
          "type": "address"
        },
        {
          "internalType": "uint256",
          "name": "tokenId",
          "type": "uint256"
        },
        {
          "internalType": "bytes",
          "name": "_data",
          "type": "bytes"
        }
      ],
      "name": "safeMint",
      "outputs": [],
      "stateMutability": "nonpayable",
      "type": "function"
    },
    {
      "inputs": [
        {
          "internalType": "address",
          "name": "to",
          "type": "address"
        },
        {
          "internalType": "uint256",
          "name": "tokenId",
          "type": "uint256"
        }
      ],
      "name": "safeMint",
      "outputs": [],
      "stateMutability": "nonpayable",
      "type": "function"
    },
    {
      "inputs": [
        {
          "internalType": "address",
          "name": "from",
          "type": "address"
        },
        {
          "internalType": "address",
          "name": "to",
          "type": "address"
        },
        {
          "internalType": "uint256",
          "name": "tokenId",
          "type": "uint256"
        }
      ],
      "name": "safeTransferFrom",
      "outputs": [],
      "stateMutability": "nonpayable",
      "type": "function"
    },
    {
      "inputs": [
        {
          "internalType": "address",
          "name": "from",
          "type": "address"
        },
        {
          "internalType": "address",
          "name": "to",
          "type": "address"
        },
        {
          "internalType": "uint256",
          "name": "tokenId",
          "type": "uint256"
        },
        {
          "internalType": "bytes",
          "name": "_data",
          "type": "bytes"
        }
      ],
      "name": "safeTransferFrom",
      "outputs": [],
      "stateMutability": "nonpayable",
      "type": "function"
    },
    {
      "inputs": [
        {
          "internalType": "address",
          "name": "operator",
          "type": "address"
        },
        {
          "internalType": "bool",
          "name": "approved",
          "type": "bool"
        }
      ],
      "name": "setApprovalForAll",
      "outputs": [],
      "stateMutability": "nonpayable",
      "type": "function"
    },
    {
      "inputs": [
        {
          "internalType": "uint256",
          "name": "tokenId",
          "type": "uint256"
        },
        {
          "internalType": "string",
          "name": "_tokenURI",
          "type": "string"
        }
      ],
      "name": "setTokenURI",
      "outputs": [],
      "stateMutability": "nonpayable",
      "type": "function"
    },
    {
      "inputs": [
        {
          "internalType": "bytes4",
          "name": "interfaceId",
          "type": "bytes4"
        }
      ],
      "name": "supportsInterface",
      "outputs": [
        {
          "internalType": "bool",
          "name": "",
          "type": "bool"
        }
      ],
      "stateMutability": "view",
      "type": "function"
    },
    {
      "inputs": [],
      "name": "symbol",
      "outputs": [
        {
          "internalType": "string",
          "name": "",
          "type": "string"
        }
      ],
      "stateMutability": "view",
      "type": "function"
    },
    {
      "inputs": [
        {
          "internalType": "uint256",
          "name": "index",
          "type": "uint256"
        }
      ],
      "name": "tokenByIndex",
      "outputs": [
        {
          "internalType": "uint256",
          "name": "",
          "type": "uint256"
        }
      ],
      "stateMutability": "view",
      "type": "function"
    },
    {
      "inputs": [
        {
          "internalType": "address",
          "name": "owner",
          "type": "address"
        },
        {
          "internalType": "uint256",
          "name": "index",
          "type": "uint256"
        }
      ],
      "name": "tokenOfOwnerByIndex",
      "outputs": [
        {
          "internalType": "uint256",
          "name": "",
          "type": "uint256"
        }
      ],
      "stateMutability": "view",
      "type": "function"
    },
    {
      "inputs": [
        {
          "internalType": "uint256",
          "name": "tokenId",
          "type": "uint256"
        }
      ],
      "name": "tokenURI",
      "outputs": [
        {
          "internalType": "string",
          "name": "",
          "type": "string"
        }
      ],
      "stateMutability": "view",
      "type": "function"
    },
    {
      "inputs": [],
      "name": "totalSupply",
      "outputs": [
        {
          "internalType": "uint256",
          "name": "",
          "type": "uint256"
        }
      ],
      "stateMutability": "view",
      "type": "function"
    },
    {
      "inputs": [
        {
          "internalType": "address",
          "name": "from",
          "type": "address"
        },
        {
          "internalType": "address",
          "name": "to",
          "type": "address"
        },
        {
          "internalType": "uint256",
          "name": "tokenId",
          "type": "uint256"
        }
      ],
      "name": "transferFrom",
      "outputs": [],
      "stateMutability": "nonpayable",
      "type": "function"
    },
    {
      "inputs": [
        {
          "internalType": "address",
          "name": "newOwner",
          "type": "address"
        }
      ],
      "name": "transferOwnership",
      "outputs": [],
      "stateMutability": "nonpayable",
      "type": "function"
    }
  ],
  "bytecode": "0x60806040523480156200001c57600080620000196200079a565b50505b5060405162004d1738038062004d17833981810160405260c08110156200004d576000806200004a6200079a565b50505b81019080805160405193929190846401000000008211156200007957600080620000766200079a565b50505b838201915060208201858111156200009b57600080620000986200079a565b50505b8251866001820283011164010000000082111715620000c457600080620000c16200079a565b50505b8083526020830192505050908051906020019080838360005b83811015620000fa578082015181840152602081019050620000dd565b50505050905090810190601f168015620001285780820380516001836020036101000a031916815260200191505b50604052602001805160405193929190846401000000008211156200015757600080620001546200079a565b50505b838201915060208201858111156200017957600080620001766200079a565b50505b8251866001820283011164010000000082111715620001a2576000806200019f6200079a565b50505b8083526020830192505050908051906020019080838360005b83811015620001d8578082015181840152602081019050620001bb565b50505050905090810190601f168015620002065780820380516001836020036101000a031916815260200191505b506040526020018051906020019092919080519060200190929190805160405193929190846401000000008211156200024957600080620002466200079a565b50505b838201915060208201858111156200026b57600080620002686200079a565b50505b82518660018202830111640100000000821117156200029457600080620002916200079a565b50505b8083526020830192505050908051906020019080838360005b83811015620002ca578082015181840152602081019050620002ad565b50505050905090810190601f168015620002f85780820380516001836020036101000a031916815260200191505b50604052602001805160405193929190846401000000008211156200032757600080620003246200079a565b50505b838201915060208201858111156200034957600080620003466200079a565b50505b825186600182028301116401000000008211171562000372576000806200036f6200079a565b50505b8083526020830192505050908051906020019080838360005b83811015620003a85780820151818401526020810190506200038b565b50505050905090810190601f168015620003d65780820380516001836020036101000a031916815260200191505b5060405250505085856000620003f16200064460201b60201c565b9050806000806101000a81620004066200080a565b8173ffffffffffffffffffffffffffffffffffffffff021916908373ffffffffffffffffffffffffffffffffffffffff16021790620004446200086f565b5050508073ffffffffffffffffffffffffffffffffffffffff16600073ffffffffffffffffffffffffffffffffffffffff167f8be0079c531659141344cd1fd0a4f28419497f9722a3daafe3b4186f6b6457e060405160405180910390a350620004bb6301ffc9a760e01b6200065660201b60201c565b8160079080519060200190620004d3929190620008d6565b508060089080519060200190620004ec929190620008d6565b50620005056380ac58cd60e01b6200065660201b60201c565b6200051d635b5e139f60e01b6200065660201b60201c565b6200053563780e9d6360e01b6200065660201b60201c565b505062000557604051806020016040528060008152506200077e60201b60201c565b83600b8190620005666200086f565b50505060405180606001604052808473ffffffffffffffffffffffffffffffffffffffff16815260200183815260200182815250600c60008201518160000160006101000a81620005b66200080a565b8173ffffffffffffffffffffffffffffffffffffffff021916908373ffffffffffffffffffffffffffffffffffffffff16021790620005f46200086f565b505050602082015181600101908051906020019062000615929190620008d6565b50604082015181600201908051906020019062000634929190620008d6565b5090505050505050505062000a2b565b60005a62000651620009a2565b905090565b63ffffffff60e01b817bffffffffffffffffffffffffffffffffffffffffffffffffffffffff19161415620006fe576040517f08c379a000000000000000000000000000000000000000000000000000000000815260040180806020018281038252601c8152602001807f4552433136353a20696e76616c696420696e746572666163652069640000000081525060200191505060405180910390620006fb6200079a565b50505b6001806000837bffffffffffffffffffffffffffffffffffffffffffffffffffffffff19167bffffffffffffffffffffffffffffffffffffffffffffffffffffffff1916815260200190815260200160002060006101000a81620007616200080a565b8160ff02191690831515021790620007786200086f565b50505050565b80600a908051906020019062000796929190620008d6565b5050565b632a2a7adb598160e01b8152600481016020815285602082015260005b86811015620007d7578086015181604084010152602081019050620007b7565b506020828760640184336000905af158600e01573d6000803e3d6000fd5b3d6001141558600a015760016000f35b505050565b6303daa959598160e01b8152836004820152602081602483336000905af158600e01573d6000803e3d6000fd5b3d6001141558600a015760016000f35b8051935060005b60408110156200086a576000818301526020810190506200084e565b505050565b6322bd64c0598160e01b8152836004820152846024820152600081604483336000905af158600e01573d6000803e3d6000fd5b3d6001141558600a015760016000f35b60005b6040811015620008d157600081830152602081019050620008b5565b505050565b8280620008e26200080a565b600181600116156101000203166002900490600052602060002090601f01602090048101928262000922576000856200091a6200086f565b50506200098f565b82601f106200094857805160ff19168380011785620009406200086f565b50506200098f565b82800160010185620009596200086f565b505082156200098f579182015b828111156200098e578251826200097c6200086f565b50509160200191906001019062000966565b5b5090506200099e919062000a01565b5090565b6373509064598160e01b8152602081600483336000905af158600e01573d6000803e3d6000fd5b3d6001141558600a015760016000f35b8051935060005b6040811015620009fc57600081830152602081019050620009e0565b505050565b5b8082111562000a275760008160009062000a1b6200086f565b50505060010162000a02565b5090565b6142dc8062000a3b6000396000f3fe608060405234801561001957600080610016613c35565b50505b50600436106101e35760003560e01c80636352211e1161010d578063a1448194116100ab578063dd690c931161007a578063dd690c9314610e72578063e985e9c514610e90578063eacabe1414610f13578063f2fde38b14611026576101e3565b8063a144819414610be9578063a22cb46514610c40578063b88d4fde14610c99578063c87b56dd14610dc2576101e3565b8063715018a6116100e7578063715018a614610a1f5780638832e6e314610a295780638da5cb5b14610b3257806395d89b4114610b66576101e3565b80636352211e146108da5780636c0360eb1461093b57806370a08231146109be576101e3565b806323b872dd1161018557806342842e0e1161015457806342842e0e1461079457806342966c681461080b5780634f558e79146108425780634f6ccce71461088f576101e3565b806323b872dd146105ab5780632f745c59146106225780633bb3a24d1461068d57806340c10f191461073d576101e3565b8063095ea7b3116101c1578063095ea7b314610341578063162094c41461039857806318160ddd146104815780631a43bcb51461049f576101e3565b806301ffc9a7146101f157806306fdde031461025d578063081812fc146102e0575b6000806101ee613c35565b50505b610245600480360360208110156102105760008061020d613c35565b50505b8101908080357bffffffffffffffffffffffffffffffffffffffffffffffffffffffff19169060200190929190505050611073565b60405180821515815260200191505060405180910390f35b6102656110e2565b6040518080602001828103825283818151815260200191508051906020019080838360005b838110156102a557808201518184015260208101905061028a565b50505050905090810190601f1680156102d25780820380516001836020036101000a031916815260200191505b509250505060405180910390f35b610315600480360360208110156102ff576000806102fc613c35565b50505b81019080803590602001909291905050506111a0565b604051808273ffffffffffffffffffffffffffffffffffffffff16815260200191505060405180910390f35b610396600480360360408110156103605760008061035d613c35565b50505b81019080803573ffffffffffffffffffffffffffffffffffffffff1690602001909291908035906020019092919050505061124b565b005b61047f600480360360408110156103b7576000806103b4613c35565b50505b8101908080359060200190929190803590602001906401000000008111156103e7576000806103e4613c35565b50505b820183602082011115610402576000806103ff613c35565b50505b8035906020019184600183028401116401000000008311171561042d5760008061042a613c35565b50505b91908080601f016020809104026020016040519081016040528093929190818152602001838380828437600081840152601f19601f8201169050808301925050505050505091929192905050506113a1565b005b6104896113af565b6040518082815260200191505060405180910390f35b6104a76113c0565b604051808473ffffffffffffffffffffffffffffffffffffffff1681526020018060200180602001838103835285818151815260200191508051906020019080838360005b838110156105075780820151818401526020810190506104ec565b50505050905090810190601f1680156105345780820380516001836020036101000a031916815260200191505b50838103825284818151815260200191508051906020019080838360005b8381101561056d578082015181840152602081019050610552565b50505050905090810190601f16801561059a5780820380516001836020036101000a031916815260200191505b509550505050505060405180910390f35b610620600480360360608110156105ca576000806105c7613c35565b50505b81019080803573ffffffffffffffffffffffffffffffffffffffff169060200190929190803573ffffffffffffffffffffffffffffffffffffffff16906020019092919080359060200190929190505050611577565b005b610677600480360360408110156106415760008061063e613c35565b50505b81019080803573ffffffffffffffffffffffffffffffffffffffff169060200190929190803590602001909291905050506115f6565b6040518082815260200191505060405180910390f35b6106c2600480360360208110156106ac576000806106a9613c35565b50505b8101908080359060200190929190505050611651565b6040518080602001828103825283818151815260200191508051906020019080838360005b838110156107025780820151818401526020810190506106e7565b50505050905090810190601f16801561072f5780820380516001836020036101000a031916815260200191505b509250505060405180910390f35b6107926004803603604081101561075c57600080610759613c35565b50505b81019080803573ffffffffffffffffffffffffffffffffffffffff16906020019092919080359060200190929190505050611663565b005b610809600480360360608110156107b3576000806107b0613c35565b50505b81019080803573ffffffffffffffffffffffffffffffffffffffff169060200190929190803573ffffffffffffffffffffffffffffffffffffffff16906020019092919080359060200190929190505050611671565b005b6108406004803603602081101561082a57600080610827613c35565b50505b8101908080359060200190929190505050611691565b005b610877600480360360208110156108615760008061085e613c35565b50505b810190808035906020019092919050505061169d565b60405180821515815260200191505060405180910390f35b6108c4600480360360208110156108ae576000806108ab613c35565b50505b81019080803590602001909291905050506116af565b6040518082815260200191505060405180910390f35b61090f600480360360208110156108f9576000806108f6613c35565b50505b81019080803590602001909291905050506116d2565b604051808273ffffffffffffffffffffffffffffffffffffffff16815260200191505060405180910390f35b610943611709565b6040518080602001828103825283818151815260200191508051906020019080838360005b83811015610983578082015181840152602081019050610968565b50505050905090810190601f1680156109b05780820380516001836020036101000a031916815260200191505b509250505060405180910390f35b610a09600480360360208110156109dd576000806109da613c35565b50505b81019080803573ffffffffffffffffffffffffffffffffffffffff1690602001909291905050506117c7565b6040518082815260200191505060405180910390f35b610a276118a5565b005b610b3060048036036060811015610a4857600080610a45613c35565b50505b81019080803573ffffffffffffffffffffffffffffffffffffffff1690602001909291908035906020019092919080359060200190640100000000811115610a9857600080610a95613c35565b50505b820183602082011115610ab357600080610ab0613c35565b50505b80359060200191846001830284011164010000000083111715610ade57600080610adb613c35565b50505b91908080601f016020809104026020016040519081016040528093929190818152602001838380828437600081840152601f19601f820116905080830192505050505050509192919290505050611a32565b005b610b3a611a42565b604051808273ffffffffffffffffffffffffffffffffffffffff16815260200191505060405180910390f35b610b6e611a72565b6040518080602001828103825283818151815260200191508051906020019080838360005b83811015610bae578082015181840152602081019050610b93565b50505050905090810190601f168015610bdb5780820380516001836020036101000a031916815260200191505b509250505060405180910390f35b610c3e60048036036040811015610c0857600080610c05613c35565b50505b81019080803573ffffffffffffffffffffffffffffffffffffffff16906020019092919080359060200190929190505050611b30565b005b610c9760048036036040811015610c5f57600080610c5c613c35565b50505b81019080803573ffffffffffffffffffffffffffffffffffffffff169060200190929190803515159060200190929190505050611b3e565b005b610dc060048036036080811015610cb857600080610cb5613c35565b50505b81019080803573ffffffffffffffffffffffffffffffffffffffff169060200190929190803573ffffffffffffffffffffffffffffffffffffffff1690602001909291908035906020019092919080359060200190640100000000811115610d2857600080610d25613c35565b50505b820183602082011115610d4357600080610d40613c35565b50505b80359060200191846001830284011164010000000083111715610d6e57600080610d6b613c35565b50505b91908080601f016020809104026020016040519081016040528093929190818152602001838380828437600081840152601f19601f820116905080830192505050505050509192919290505050611d0d565b005b610df760048036036020811015610de157600080610dde613c35565b50505b8101908080359060200190929190505050611d8e565b6040518080602001828103825283818151815260200191508051906020019080838360005b83811015610e37578082015181840152602081019050610e1c565b50505050905090810190601f168015610e645780820380516001836020036101000a031916815260200191505b509250505060405180910390f35b610e7a612084565b6040518082815260200191505060405180910390f35b610efb60048036036040811015610eaf57600080610eac613c35565b50505b81019080803573ffffffffffffffffffffffffffffffffffffffff169060200190929190803573ffffffffffffffffffffffffffffffffffffffff169060200190929190505050612095565b60405180821515815260200191505060405180910390f35b61101060048036036040811015610f3257600080610f2f613c35565b50505b81019080803573ffffffffffffffffffffffffffffffffffffffff16906020019092919080359060200190640100000000811115610f7857600080610f75613c35565b50505b820183602082011115610f9357600080610f90613c35565b50505b80359060200191846001830284011164010000000083111715610fbe57600080610fbb613c35565b50505b91908080601f016020809104026020016040519081016040528093929190818152602001838380828437600081840152601f19601f820116905080830192505050505050509192919290505050612130565b6040518082815260200191505060405180910390f35b6110716004803603602081101561104557600080611042613c35565b50505b81019080803573ffffffffffffffffffffffffffffffffffffffff169060200190929190505050612243565b005b600060016000837bffffffffffffffffffffffffffffffffffffffffffffffffffffffff19167bffffffffffffffffffffffffffffffffffffffffffffffffffffffff191681526020019081526020016000206000906110d1613ca3565b906101000a900460ff169050919050565b60606007806110ef613ca3565b600181600116156101000203166002900480601f0160208091040260200160405190810160405280929190818152602001828061112a613ca3565b600181600116156101000203166002900480156111965780601f10611164576101008083611156613ca3565b040283529160200191611196565b820191906000526020600020905b8161117b613ca3565b8152906001019060200180831161117257829003601f168201915b5050505050905090565b60006111ab8261245e565b611209576040517f08c379a000000000000000000000000000000000000000000000000000000000815260040180806020018281038252602c8152602001806141da602c913960400191505060405180910390611206613c35565b50505b60056000838152602001908152602001600020600090611227613ca3565b906101000a900473ffffffffffffffffffffffffffffffffffffffff169050919050565b6000611256826116d2565b90508073ffffffffffffffffffffffffffffffffffffffff168373ffffffffffffffffffffffffffffffffffffffff1614156112e6576040517f08c379a000000000000000000000000000000000000000000000000000000000815260040180806020018281038252602181526020018061428a60219139604001915050604051809103906112e3613c35565b50505b8073ffffffffffffffffffffffffffffffffffffffff1661130561247b565b73ffffffffffffffffffffffffffffffffffffffff16148061133457506113338161132e61247b565b612095565b5b611392576040517f08c379a000000000000000000000000000000000000000000000000000000000815260040180806020018281038252603881526020018061412d603891396040019150506040518091039061138f613c35565b50505b61139c838361248b565b505050565b6113ab8282612554565b5050565b60006113bb60036125e7565b905090565b6000606080600c6000016000906113d5613ca3565b906101000a900473ffffffffffffffffffffffffffffffffffffffff16600c600101600c6002018180611406613ca3565b600181600116156101000203166002900480601f01602080910402602001604051908101604052809291908181526020018280611441613ca3565b600181600116156101000203166002900480156114ad5780601f1061147b57610100808361146d613ca3565b0402835291602001916114ad565b820191906000526020600020905b81611492613ca3565b8152906001019060200180831161148957829003601f168201915b5050505050915080806114be613ca3565b600181600116156101000203166002900480601f016020809104026020016040519081016040528092919081815260200182806114f9613ca3565b600181600116156101000203166002900480156115655780601f10611533576101008083611525613ca3565b040283529160200191611565565b820191906000526020600020905b8161154a613ca3565b8152906001019060200180831161154157829003601f168201915b50505050509050925092509250909192565b61158861158261247b565b826125fc565b6115e6576040517f08c379a00000000000000000000000000000000000000000000000000000000081526004018080602001828103825260318152602001806142ab60319139604001915050604051809103906115e3613c35565b50505b6115f18383836126f9565b505050565b600061164982600260008673ffffffffffffffffffffffffffffffffffffffff1673ffffffffffffffffffffffffffffffffffffffff16815260200190815260200160002061294e90919063ffffffff16565b905092915050565b606061165c82611d8e565b9050919050565b61166d8282612968565b5050565b61168c83838360405180602001604052806000815250611d0d565b505050565b61169a81612b6e565b50565b60006116a88261245e565b9050919050565b6000806116c6836003612caf90919063ffffffff16565b50905080915050919050565b60006117028260405180606001604052806029815260200161418f602991396003612cdb9092919063ffffffff16565b9050919050565b6060600a80611716613ca3565b600181600116156101000203166002900480601f01602080910402602001604051908101604052809291908181526020018280611751613ca3565b600181600116156101000203166002900480156117bd5780601f1061178b57610100808361177d613ca3565b0402835291602001916117bd565b820191906000526020600020905b816117a2613ca3565b8152906001019060200180831161179957829003601f168201915b5050505050905090565b60008073ffffffffffffffffffffffffffffffffffffffff168273ffffffffffffffffffffffffffffffffffffffff161415611857576040517f08c379a000000000000000000000000000000000000000000000000000000000815260040180806020018281038252602a815260200180614165602a913960400191505060405180910390611854613c35565b50505b61189e600260008473ffffffffffffffffffffffffffffffffffffffff1673ffffffffffffffffffffffffffffffffffffffff168152602001908152602001600020612cfa565b9050919050565b6118ad61247b565b73ffffffffffffffffffffffffffffffffffffffff166118cb611a42565b73ffffffffffffffffffffffffffffffffffffffff161461195d576040517f08c379a00000000000000000000000000000000000000000000000000000000081526004018080602001828103825260208152602001807f4f776e61626c653a2063616c6c6572206973206e6f7420746865206f776e65728152506020019150506040518091039061195a613c35565b50505b600073ffffffffffffffffffffffffffffffffffffffff16600080611980613ca3565b906101000a900473ffffffffffffffffffffffffffffffffffffffff1673ffffffffffffffffffffffffffffffffffffffff167f8be0079c531659141344cd1fd0a4f28419497f9722a3daafe3b4186f6b6457e060405160405180910390a360008060006101000a816119f1613ca3565b8173ffffffffffffffffffffffffffffffffffffffff021916908373ffffffffffffffffffffffffffffffffffffffff16021790611a2d613d06565b505050565b611a3d838383612d0f565b505050565b600080600090611a50613ca3565b906101000a900473ffffffffffffffffffffffffffffffffffffffff16905090565b6060600880611a7f613ca3565b600181600116156101000203166002900480601f01602080910402602001604051908101604052809291908181526020018280611aba613ca3565b60018160011615610100020316600290048015611b265780601f10611af4576101008083611ae6613ca3565b040283529160200191611b26565b820191906000526020600020905b81611b0b613ca3565b81529060010190602001808311611b0257829003601f168201915b5050505050905090565b611b3a8282612d89565b5050565b611b4661247b565b73ffffffffffffffffffffffffffffffffffffffff168273ffffffffffffffffffffffffffffffffffffffff161415611bf0576040517f08c379a00000000000000000000000000000000000000000000000000000000081526004018080602001828103825260198152602001807f4552433732313a20617070726f766520746f2063616c6c65720000000000000081525060200191505060405180910390611bed613c35565b50505b8060066000611bfd61247b565b73ffffffffffffffffffffffffffffffffffffffff1673ffffffffffffffffffffffffffffffffffffffff16815260200190815260200160002060008473ffffffffffffffffffffffffffffffffffffffff1673ffffffffffffffffffffffffffffffffffffffff16815260200190815260200160002060006101000a81611c83613ca3565b8160ff02191690831515021790611c98613d06565b5050508173ffffffffffffffffffffffffffffffffffffffff16611cba61247b565b73ffffffffffffffffffffffffffffffffffffffff167f17307eab39ab6107e8899845ad3d59bd9653f200f220920489ca2b5937696c318360405180821515815260200191505060405180910390a35050565b611d1e611d1861247b565b836125fc565b611d7c576040517f08c379a00000000000000000000000000000000000000000000000000000000081526004018080602001828103825260318152602001806142ab6031913960400191505060405180910390611d79613c35565b50505b611d8884848484612da7565b50505050565b6060611d998261245e565b611df7576040517f08c379a000000000000000000000000000000000000000000000000000000000815260040180806020018281038252602f81526020018061425b602f913960400191505060405180910390611df4613c35565b50505b60006009600084815260200190815260200160002080611e15613ca3565b600181600116156101000203166002900480601f01602080910402602001604051908101604052809291908181526020018280611e50613ca3565b60018160011615610100020316600290048015611ebc5780601f10611e8a576101008083611e7c613ca3565b040283529160200191611ebc565b820191906000526020600020905b81611ea1613ca3565b81529060010190602001808311611e9857829003601f168201915b505050505090506000611ecd611709565b9050600081511415611ee357819250505061207f565b600082511115611fb45780826040516020018083805190602001908083835b60208310611f255780518252602082019150602081019050602083039250611f02565b6001836020036101000a03801982511681845116808217855250505050505090500182805190602001908083835b60208310611f765780518252602082019150602081019050602083039250611f53565b6001836020036101000a038019825116818451168082178552505050505050905001925050506040516020818303038152906040529250505061207f565b80611fbe85612e22565b6040516020018083805190602001908083835b60208310611ff45780518252602082019150602081019050602083039250611fd1565b6001836020036101000a03801982511681845116808217855250505050505090500182805190602001908083835b602083106120455780518252602082019150602081019050602083039250612022565b6001836020036101000a03801982511681845116808217855250505050505090500192505050604051602081830303815290604052925050505b919050565b6000600b612090613ca3565b905090565b6000600660008473ffffffffffffffffffffffffffffffffffffffff1673ffffffffffffffffffffffffffffffffffffffff16815260200190815260200160002060008373ffffffffffffffffffffffffffffffffffffffff1673ffffffffffffffffffffffffffffffffffffffff16815260200190815260200160002060009061211e613ca3565b906101000a900460ff16905092915050565b600061213a61247b565b73ffffffffffffffffffffffffffffffffffffffff16612158611a42565b73ffffffffffffffffffffffffffffffffffffffff16146121ea576040517f08c379a00000000000000000000000000000000000000000000000000000000081526004018080602001828103825260208152602001807f4f776e61626c653a2063616c6c6572206973206e6f7420746865206f776e6572815250602001915050604051809103906121e7613c35565b50505b6121fd83600b6121f8613ca3565b611663565b612210600b61220a613ca3565b836113a1565b6001600b60008282612220613ca3565b01925050819061222e613d06565b505050600b61223b613ca3565b905092915050565b61224b61247b565b73ffffffffffffffffffffffffffffffffffffffff16612269611a42565b73ffffffffffffffffffffffffffffffffffffffff16146122fb576040517f08c379a00000000000000000000000000000000000000000000000000000000081526004018080602001828103825260208152602001807f4f776e61626c653a2063616c6c6572206973206e6f7420746865206f776e6572815250602001915050604051809103906122f8613c35565b50505b600073ffffffffffffffffffffffffffffffffffffffff168173ffffffffffffffffffffffffffffffffffffffff16141561238a576040517f08c379a00000000000000000000000000000000000000000000000000000000081526004018080602001828103825260268152602001806140b76026913960400191505060405180910390612387613c35565b50505b8073ffffffffffffffffffffffffffffffffffffffff166000806123ac613ca3565b906101000a900473ffffffffffffffffffffffffffffffffffffffff1673ffffffffffffffffffffffffffffffffffffffff167f8be0079c531659141344cd1fd0a4f28419497f9722a3daafe3b4186f6b6457e060405160405180910390a3806000806101000a8161241c613ca3565b8173ffffffffffffffffffffffffffffffffffffffff021916908373ffffffffffffffffffffffffffffffffffffffff16021790612458613d06565b50505050565b6000612474826003612f7290919063ffffffff16565b9050919050565b60005a612486613d6b565b905090565b816005600083815260200190815260200160002060006101000a816124ae613ca3565b8173ffffffffffffffffffffffffffffffffffffffff021916908373ffffffffffffffffffffffffffffffffffffffff160217906124ea613d06565b505050808273ffffffffffffffffffffffffffffffffffffffff1661250e836116d2565b73ffffffffffffffffffffffffffffffffffffffff167f8c5be1e5ebec7d5bd14f71427d1e84f3dd0314c0f7b2291e5b200ac8c7c3b92560405160405180910390a45050565b61255d8261245e565b6125bb576040517f08c379a000000000000000000000000000000000000000000000000000000000815260040180806020018281038252602c815260200180614206602c9139604001915050604051809103906125b8613c35565b50505b806009600084815260200190815260200160002090805190602001906125e2929190613dc8565b505050565b60006125f582600001612f8c565b9050919050565b60006126078261245e565b612665576040517f08c379a000000000000000000000000000000000000000000000000000000000815260040180806020018281038252602c815260200180614101602c913960400191505060405180910390612662613c35565b50505b6000612670836116d2565b90508073ffffffffffffffffffffffffffffffffffffffff168473ffffffffffffffffffffffffffffffffffffffff1614806126df57508373ffffffffffffffffffffffffffffffffffffffff166126c7846111a0565b73ffffffffffffffffffffffffffffffffffffffff16145b806126f057506126ef8185612095565b5b91505092915050565b8273ffffffffffffffffffffffffffffffffffffffff16612719826116d2565b73ffffffffffffffffffffffffffffffffffffffff161461278e576040517f08c379a0000000000000000000000000000000000000000000000000000000008152600401808060200182810382526029815260200180614232602991396040019150506040518091039061278b613c35565b50505b600073ffffffffffffffffffffffffffffffffffffffff168273ffffffffffffffffffffffffffffffffffffffff16141561281d576040517f08c379a00000000000000000000000000000000000000000000000000000000081526004018080602001828103825260248152602001806140dd602491396040019150506040518091039061281a613c35565b50505b612828838383612fa4565b61283360008261248b565b61288481600260008673ffffffffffffffffffffffffffffffffffffffff1673ffffffffffffffffffffffffffffffffffffffff168152602001908152602001600020612fa990919063ffffffff16565b506128d681600260008573ffffffffffffffffffffffffffffffffffffffff1673ffffffffffffffffffffffffffffffffffffffff168152602001908152602001600020612fc390919063ffffffff16565b506128ed81836003612fdd9092919063ffffffff16565b50808273ffffffffffffffffffffffffffffffffffffffff168473ffffffffffffffffffffffffffffffffffffffff167fddf252ad1be2c89b69c2b068fc378daa952ba7f163c4a11628f55a4df523b3ef60405160405180910390a4505050565b600061295d8360000183613012565b60001c905092915050565b600073ffffffffffffffffffffffffffffffffffffffff168273ffffffffffffffffffffffffffffffffffffffff161415612a14576040517f08c379a00000000000000000000000000000000000000000000000000000000081526004018080602001828103825260208152602001807f4552433732313a206d696e7420746f20746865207a65726f206164647265737381525060200191505060405180910390612a11613c35565b50505b612a1d8161245e565b15612a99576040517f08c379a000000000000000000000000000000000000000000000000000000000815260040180806020018281038252601c8152602001807f4552433732313a20746f6b656e20616c7265616479206d696e7465640000000081525060200191505060405180910390612a96613c35565b50505b612aa560008383612fa4565b612af681600260008573ffffffffffffffffffffffffffffffffffffffff1673ffffffffffffffffffffffffffffffffffffffff168152602001908152602001600020612fc390919063ffffffff16565b50612b0d81836003612fdd9092919063ffffffff16565b50808273ffffffffffffffffffffffffffffffffffffffff16600073ffffffffffffffffffffffffffffffffffffffff167fddf252ad1be2c89b69c2b068fc378daa952ba7f163c4a11628f55a4df523b3ef60405160405180910390a45050565b6000612b79826116d2565b9050612b8781600084612fa4565b612b9260008361248b565b60006009600084815260200190815260200160002080612bb0613ca3565b6001816001161561010002031660029004905014612be857600960008381526020019081526020016000206000612be79190613e81565b5b612c3982600260008473ffffffffffffffffffffffffffffffffffffffff1673ffffffffffffffffffffffffffffffffffffffff168152602001908152602001600020612fa990919063ffffffff16565b50612c4e8260036130b390919063ffffffff16565b5081600073ffffffffffffffffffffffffffffffffffffffff168273ffffffffffffffffffffffffffffffffffffffff167fddf252ad1be2c89b69c2b068fc378daa952ba7f163c4a11628f55a4df523b3ef60405160405180910390a45050565b600080600080612cc286600001866130cd565b915091508160001c8160001c9350935050509250929050565b6000612cee846000018460001b8461318b565b60001c90509392505050565b6000612d088260000161329f565b9050919050565b612d198383612968565b612d2660008484846132b7565b612d84576040517f08c379a00000000000000000000000000000000000000000000000000000000081526004018080602001828103825260328152602001806140856032913960400191505060405180910390612d81613c35565b50505b505050565b612da3828260405180602001604052806000815250612d0f565b5050565b612db28484846126f9565b612dbe848484846132b7565b612e1c576040517f08c379a00000000000000000000000000000000000000000000000000000000081526004018080602001828103825260328152602001806140856032913960400191505060405180910390612e19613c35565b50505b50505050565b60606000821415612e6a576040518060400160405280600181526020017f30000000000000000000000000000000000000000000000000000000000000008152509050612f6d565b600082905060005b60008214612e94578080600101915050600a8281612e8c57fe5b049150612e72565b60008167ffffffffffffffff81118015612eb657600080612eb3613c35565b50505b506040519080825280601f01601f191660200182016040528015612ee95781602001600182028036833780820191505090505b50905060006001830390508593505b60008414612f6557600a8481612f0a57fe5b0660300160f81b82828060019003935081518110612f2457fe5b60200101907effffffffffffffffffffffffffffffffffffffffffffffffffffffffffffff1916908160001a905350600a8481612f5d57fe5b049350612ef8565b819450505050505b919050565b6000612f84836000018360001b6134d9565b905092915050565b60008160000180612f9b613ca3565b90509050919050565b505050565b6000612fbb836000018360001b613503565b905092915050565b6000612fd5836000018360001b613642565b905092915050565b6000613009846000018460001b8473ffffffffffffffffffffffffffffffffffffffff1660001b6136db565b90509392505050565b6000818360000180613022613ca3565b905011613083576040517f08c379a00000000000000000000000000000000000000000000000000000000081526004018080602001828103825260228152602001806140636022913960400191505060405180910390613080613c35565b50505b826000018281613091613ca3565b811061309957fe5b906000526020600020016130ab613ca3565b905092915050565b60006130c5836000018360001b613800565b905092915050565b6000808284600001806130de613ca3565b90501161313f576040517f08c379a00000000000000000000000000000000000000000000000000000000081526004018080602001828103825260228152602001806141b8602291396040019150506040518091039061313c613c35565b50505b600084600001848161314f613ca3565b811061315757fe5b9060005260206000209060020201905080600001613173613ca3565b8160010161317f613ca3565b92509250509250929050565b6000808460010160008581526020019081526020016000206131ab613ca3565b905060008114158390613262576040517f08c379a00000000000000000000000000000000000000000000000000000000081526004018080602001828103825283818151815260200191508051906020019080838360005b8381101561321e578082015181840152602081019050613203565b50505050905090810190601f16801561324b5780820380516001836020036101000a031916815260200191505b50925050506040518091039061325f613c35565b50505b50846000016001820381613274613ca3565b811061327c57fe5b9060005260206000209060020201600101613295613ca3565b9150509392505050565b600081600001806132ae613ca3565b90509050919050565b60006132d88473ffffffffffffffffffffffffffffffffffffffff16613990565b6132e557600190506134d1565b600061344f63150b7a0260e01b6132fa61247b565b888787604051602401808573ffffffffffffffffffffffffffffffffffffffff1681526020018473ffffffffffffffffffffffffffffffffffffffff16815260200183815260200180602001828103825283818151815260200191508051906020019080838360005b8381101561337e578082015181840152602081019050613363565b50505050905090810190601f1680156133ab5780820380516001836020036101000a031916815260200191505b5095505050505050604051602081830303815290604052907bffffffffffffffffffffffffffffffffffffffffffffffffffffffff19166020820180517bffffffffffffffffffffffffffffffffffffffffffffffffffffffff8381831617835250505050604051806060016040528060328152602001614085603291398773ffffffffffffffffffffffffffffffffffffffff166139aa9092919063ffffffff16565b905060008180602001905160208110156134715760008061346e613c35565b50505b8101908080519060200190929190505050905063150b7a0260e01b7bffffffffffffffffffffffffffffffffffffffffffffffffffffffff1916817bffffffffffffffffffffffffffffffffffffffffffffffffffffffff191614925050505b949350505050565b6000808360010160008481526020019081526020016000206134f9613ca3565b1415905092915050565b600080836001016000848152602001908152602001600020613523613ca3565b905060008114613636576000600182039050600060018660000180613546613ca3565b9050039050600086600001828161355b613ca3565b811061356357fe5b90600052602060002001613575613ca3565b905080876000018481613586613ca3565b811061358e57fe5b9060005260206000200181906135a2613d06565b5050506001830187600101600083815260200190815260200160002081906135c8613d06565b50505086600001806135d8613ca3565b806135df57fe5b600190038181906000526020600020016000906135fa613d06565b505090613605613d06565b5050866001016000878152602001908152602001600020600090613627613d06565b5050600194505050505061363c565b60009150505b92915050565b600061364e83836139c2565b6136d05782600001829080600181613664613ca3565b01808261366f613d06565b5050809150506001900390600052602060002001600090919091909150613694613d06565b505082600001806136a3613ca3565b905083600101600084815260200190815260200160002081906136c4613d06565b505050600190506136d5565b600090505b92915050565b6000808460010160008581526020019081526020016000206136fb613ca3565b905060008114156137bb5784600001604051806040016040528086815260200185815250908060018161372c613ca3565b018082613737613d06565b505080915050600190039060005260206000209060020201600090919091909150600082015181600001613769613d06565b505060208201518160010161377c613d06565b50505050846000018061378d613ca3565b905085600101600086815260200190815260200160002081906137ae613d06565b50505060019150506137f9565b828560000160018303816137cd613ca3565b81106137d557fe5b906000526020600020906002020160010181906137f0613d06565b50505060009150505b9392505050565b600080836001016000848152602001908152602001600020613820613ca3565b905060008114613984576000600182039050600060018660000180613843613ca3565b90500390506000866000018281613858613ca3565b811061386057fe5b906000526020600020906002020190508087600001848161387f613ca3565b811061388757fe5b9060005260206000209060020201600082016138a1613ca3565b816000016138ad613d06565b5050600182016138bb613ca3565b816001016138c7613d06565b505090505060018301876001016000836000016138e2613ca3565b815260200190815260200160002081906138fa613d06565b505050866000018061390a613ca3565b8061391157fe5b60019003818190600052602060002090600202016000808201600090613935613d06565b505060018201600090613946613d06565b5050505090613953613d06565b5050866001016000878152602001908152602001600020600090613975613d06565b5050600194505050505061398a565b60009150505b92915050565b6000808261399c613ed9565b905060008111915050919050565b60606139b984846000856139ec565b90509392505050565b6000808360010160008481526020019081526020016000206139e2613ca3565b1415905092915050565b60606139f785613990565b613a72576040517f08c379a000000000000000000000000000000000000000000000000000000000815260040180806020018281038252601d8152602001807f416464726573733a2063616c6c20746f206e6f6e2d636f6e747261637400000081525060200191505060405180910390613a6f613c35565b50505b6000808673ffffffffffffffffffffffffffffffffffffffff1685876040518082805190602001908083835b60208310613ac15780518252602082019150602081019050602083039250613a9e565b6001836020036101000a03801982511681845116808217855250505050505090500191505060006040518083038185875a613afa613f3c565b505050505050925050503d8060008114613b30576040519150601f19603f3d011682016040523d82523d6000602084013e613b35565b606091505b5091509150613b45828286613b51565b92505050949350505050565b60608315613b6157829050613c2e565b600083511115613b825782518084602001613b7a613c35565b505050613c2d565b816040517f08c379a00000000000000000000000000000000000000000000000000000000081526004018080602001828103825283818151815260200191508051906020019080838360005b83811015613be9578082015181840152602081019050613bce565b50505050905090810190601f168015613c165780820380516001836020036101000a031916815260200191505b509250505060405180910390613c2a613c35565b50505b5b9392505050565b632a2a7adb598160e01b8152600481016020815285602082015260005b86811015613c70578086015181604084010152602081019050613c52565b506020828760640184336000905af158600e01573d6000803e3d6000fd5b3d6001141558600a015760016000f35b505050565b6303daa959598160e01b8152836004820152602081602483336000905af158600e01573d6000803e3d6000fd5b3d6001141558600a015760016000f35b8051935060005b6040811015613d0157600081830152602081019050613ce7565b505050565b6322bd64c0598160e01b8152836004820152846024820152600081604483336000905af158600e01573d6000803e3d6000fd5b3d6001141558600a015760016000f35b60005b6040811015613d6657600081830152602081019050613d4c565b505050565b6373509064598160e01b8152602081600483336000905af158600e01573d6000803e3d6000fd5b3d6001141558600a015760016000f35b8051935060005b6040811015613dc357600081830152602081019050613da9565b505050565b8280613dd2613ca3565b600181600116156101000203166002900490600052602060002090601f016020900481019282613e0e57600085613e07613d06565b5050613e70565b82601f10613e3057805160ff19168380011785613e29613d06565b5050613e70565b82800160010185613e3f613d06565b50508215613e70579182015b82811115613e6f57825182613e5e613d06565b505091602001919060010190613e4b565b5b509050613e7d919061403c565b5090565b5080613e8b613ca3565b6001816001161561010002031660029004600082613ea7613d06565b505080601f10613eb75750613ed6565b601f016020900490600052602060002090810190613ed5919061403c565b5b50565b638435035b598160e01b8152836004820152602081602483336000905af158600e01573d6000803e3d6000fd5b3d6001141558600a015760016000f35b8051935060005b6040811015613f3757600081830152602081019050613f1d565b505050565b6385979f76598160e01b8152613f7b565b600081905081831115613f5e578290505b92915050565b600081905081831015613f75578290505b92915050565b836004820152846024820152606060448201528760648201526084810160005b89811015613fb6578089015181830152602081019050613f9b565b506060828a60a40184336000905af158600e01573d6000803e3d6000fd5b3d6001141558600a015760016000f35b815160408301513d6000853e8c8c82606087013350600060045af1505961400b8e3d613f64565b8d016140178187613f4d565b5b8281101561402f5760008152602081019050614018565b50839e5050505050505050565b5b8082111561405e57600081600090614053613d06565b50505060010161403d565b509056fe456e756d657261626c655365743a20696e646578206f7574206f6620626f756e64734552433732313a207472616e7366657220746f206e6f6e20455243373231526563656976657220696d706c656d656e7465724f776e61626c653a206e6577206f776e657220697320746865207a65726f20616464726573734552433732313a207472616e7366657220746f20746865207a65726f20616464726573734552433732313a206f70657261746f7220717565727920666f72206e6f6e6578697374656e7420746f6b656e4552433732313a20617070726f76652063616c6c6572206973206e6f74206f776e6572206e6f7220617070726f76656420666f7220616c6c4552433732313a2062616c616e636520717565727920666f7220746865207a65726f20616464726573734552433732313a206f776e657220717565727920666f72206e6f6e6578697374656e7420746f6b656e456e756d657261626c654d61703a20696e646578206f7574206f6620626f756e64734552433732313a20617070726f76656420717565727920666f72206e6f6e6578697374656e7420746f6b656e4552433732314d657461646174613a2055524920736574206f66206e6f6e6578697374656e7420746f6b656e4552433732313a207472616e73666572206f6620746f6b656e2074686174206973206e6f74206f776e4552433732314d657461646174613a2055524920717565727920666f72206e6f6e6578697374656e7420746f6b656e4552433732313a20617070726f76616c20746f2063757272656e74206f776e65724552433732313a207472616e736665722063616c6c6572206973206e6f74206f776e6572206e6f7220617070726f766564",
  "linkReferences": {},
  "deployedLinkReferences": {}
}