{
    "_format": "hh-sol-artifact-1",
    "contractName": "L1NFTBridge",
    "sourceName": "contracts/bridges/L1NFTBridge.sol",
    "abi": [
        {
            "inputs": [],
            "stateMutability": "nonpayable",
            "type": "constructor"
        },
        {
            "anonymous": false,
            "inputs": [
                {
                    "indexed": true,
                    "internalType": "address",
                    "name": "_l1Contract",
                    "type": "address"
                },
                {
                    "indexed": true,
                    "internalType": "address",
                    "name": "_l2Contract",
                    "type": "address"
                },
                {
                    "indexed": true,
                    "internalType": "address",
                    "name": "_from",
                    "type": "address"
                },
                {
                    "indexed": false,
                    "internalType": "address",
                    "name": "_to",
                    "type": "address"
                },
                {
                    "indexed": false,
                    "internalType": "uint256",
                    "name": "_tokenId",
                    "type": "uint256"
                },
                {
                    "indexed": false,
                    "internalType": "bytes",
                    "name": "_data",
                    "type": "bytes"
                }
            ],
            "name": "NFTDepositInitiated",
            "type": "event"
        },
        {
            "anonymous": false,
            "inputs": [
                {
                    "indexed": true,
                    "internalType": "address",
                    "name": "_l1Contract",
                    "type": "address"
                },
                {
                    "indexed": true,
                    "internalType": "address",
                    "name": "_l2Contract",
                    "type": "address"
                },
                {
                    "indexed": true,
                    "internalType": "address",
                    "name": "_from",
                    "type": "address"
                },
                {
                    "indexed": false,
                    "internalType": "address",
                    "name": "_to",
                    "type": "address"
                },
                {
                    "indexed": false,
                    "internalType": "uint256",
                    "name": "_tokenId",
                    "type": "uint256"
                },
                {
                    "indexed": false,
                    "internalType": "bytes",
                    "name": "_data",
                    "type": "bytes"
                }
            ],
            "name": "NFTWithdrawalFailed",
            "type": "event"
        },
        {
            "anonymous": false,
            "inputs": [
                {
                    "indexed": true,
                    "internalType": "address",
                    "name": "_l1Contract",
                    "type": "address"
                },
                {
                    "indexed": true,
                    "internalType": "address",
                    "name": "_l2Contract",
                    "type": "address"
                },
                {
                    "indexed": true,
                    "internalType": "address",
                    "name": "_from",
                    "type": "address"
                },
                {
                    "indexed": false,
                    "internalType": "address",
                    "name": "_to",
                    "type": "address"
                },
                {
                    "indexed": false,
                    "internalType": "uint256",
                    "name": "_tokenId",
                    "type": "uint256"
                },
                {
                    "indexed": false,
                    "internalType": "bytes",
                    "name": "_data",
                    "type": "bytes"
                }
            ],
            "name": "NFTWithdrawalFinalized",
            "type": "event"
        },
        {
            "anonymous": false,
            "inputs": [
                {
                    "indexed": false,
                    "internalType": "address",
                    "name": "account",
                    "type": "address"
                }
            ],
            "name": "Paused",
            "type": "event"
        },
        {
            "anonymous": false,
            "inputs": [
                {
                    "indexed": false,
                    "internalType": "address",
                    "name": "account",
                    "type": "address"
                }
            ],
            "name": "Unpaused",
            "type": "event"
        },
        {
            "inputs": [
                {
                    "internalType": "uint32",
                    "name": "_depositL2Gas",
                    "type": "uint32"
                }
            ],
            "name": "configureGas",
            "outputs": [],
            "stateMutability": "nonpayable",
            "type": "function"
        },
        {
            "inputs": [],
            "name": "depositL2Gas",
            "outputs": [
                {
                    "internalType": "uint32",
                    "name": "",
                    "type": "uint32"
                }
            ],
            "stateMutability": "view",
            "type": "function"
        },
        {
            "inputs": [
                {
                    "internalType": "address",
                    "name": "_l1Contract",
                    "type": "address"
                },
                {
                    "internalType": "uint256",
                    "name": "_tokenId",
                    "type": "uint256"
                },
                {
                    "internalType": "uint32",
                    "name": "_l2Gas",
                    "type": "uint32"
                },
                {
                    "internalType": "bytes",
                    "name": "_data",
                    "type": "bytes"
                }
            ],
            "name": "depositNFT",
            "outputs": [],
            "stateMutability": "nonpayable",
            "type": "function"
        },
        {
            "inputs": [
                {
                    "internalType": "address",
                    "name": "_l1Contract",
                    "type": "address"
                },
                {
                    "internalType": "address",
                    "name": "_to",
                    "type": "address"
                },
                {
                    "internalType": "uint256",
                    "name": "_tokenId",
                    "type": "uint256"
                },
                {
                    "internalType": "uint32",
                    "name": "_l2Gas",
                    "type": "uint32"
                },
                {
                    "internalType": "bytes",
                    "name": "_data",
                    "type": "bytes"
                }
            ],
            "name": "depositNFTTo",
            "outputs": [],
            "stateMutability": "nonpayable",
            "type": "function"
        },
        {
            "inputs": [
                {
                    "internalType": "address",
                    "name": "",
                    "type": "address"
                },
                {
                    "internalType": "uint256",
                    "name": "",
                    "type": "uint256"
                }
            ],
            "name": "deposits",
            "outputs": [
                {
                    "internalType": "address",
                    "name": "",
                    "type": "address"
                }
            ],
            "stateMutability": "view",
            "type": "function"
        },
        {
            "inputs": [
                {
                    "internalType": "address",
                    "name": "_l1Contract",
                    "type": "address"
                },
                {
                    "internalType": "address",
                    "name": "_l2Contract",
                    "type": "address"
                },
                {
                    "internalType": "address",
                    "name": "_from",
                    "type": "address"
                },
                {
                    "internalType": "address",
                    "name": "_to",
                    "type": "address"
                },
                {
                    "internalType": "uint256",
                    "name": "_tokenId",
                    "type": "uint256"
                },
                {
                    "internalType": "bytes",
                    "name": "_data",
                    "type": "bytes"
                }
            ],
            "name": "finalizeNFTWithdrawal",
            "outputs": [],
            "stateMutability": "nonpayable",
            "type": "function"
        },
        {
            "inputs": [
                {
                    "internalType": "address",
                    "name": "_l1messenger",
                    "type": "address"
                },
                {
                    "internalType": "address",
                    "name": "_l2NFTBridge",
                    "type": "address"
                }
            ],
            "name": "initialize",
            "outputs": [],
            "stateMutability": "nonpayable",
            "type": "function"
        },
        {
            "inputs": [],
            "name": "l2NFTBridge",
            "outputs": [
                {
                    "internalType": "address",
                    "name": "",
                    "type": "address"
                }
            ],
            "stateMutability": "view",
            "type": "function"
        },
        {
            "inputs": [],
            "name": "messenger",
            "outputs": [
                {
                    "internalType": "address",
                    "name": "",
                    "type": "address"
                }
            ],
            "stateMutability": "view",
            "type": "function"
        },
        {
            "inputs": [
                {
                    "internalType": "address",
                    "name": "",
                    "type": "address"
                },
                {
                    "internalType": "address",
                    "name": "",
                    "type": "address"
                },
                {
                    "internalType": "uint256",
                    "name": "",
                    "type": "uint256"
                },
                {
                    "internalType": "bytes",
                    "name": "",
                    "type": "bytes"
                }
            ],
            "name": "onERC721Received",
            "outputs": [
                {
                    "internalType": "bytes4",
                    "name": "",
                    "type": "bytes4"
                }
            ],
            "stateMutability": "nonpayable",
            "type": "function"
        },
        {
            "inputs": [],
            "name": "owner",
            "outputs": [
                {
                    "internalType": "address",
                    "name": "",
                    "type": "address"
                }
            ],
            "stateMutability": "view",
            "type": "function"
        },
        {
            "inputs": [
                {
                    "internalType": "address",
                    "name": "",
                    "type": "address"
                }
            ],
            "name": "pairNFTInfo",
            "outputs": [
                {
                    "internalType": "address",
                    "name": "l1Contract",
                    "type": "address"
                },
                {
                    "internalType": "address",
                    "name": "l2Contract",
                    "type": "address"
                },
                {
                    "internalType": "enum L1NFTBridge.Network",
                    "name": "baseNetwork",
                    "type": "uint8"
                }
            ],
            "stateMutability": "view",
            "type": "function"
        },
        {
            "inputs": [],
            "name": "pause",
            "outputs": [],
            "stateMutability": "nonpayable",
            "type": "function"
        },
        {
            "inputs": [],
            "name": "paused",
            "outputs": [
                {
                    "internalType": "bool",
                    "name": "",
                    "type": "bool"
                }
            ],
            "stateMutability": "view",
            "type": "function"
        },
        {
            "inputs": [
                {
                    "internalType": "address",
                    "name": "_l1Contract",
                    "type": "address"
                },
                {
                    "internalType": "address",
                    "name": "_l2Contract",
                    "type": "address"
                },
                {
                    "internalType": "string",
                    "name": "_baseNetwork",
                    "type": "string"
                }
            ],
            "name": "registerNFTPair",
            "outputs": [],
            "stateMutability": "nonpayable",
            "type": "function"
        },
        {
            "inputs": [
                {
                    "internalType": "address",
                    "name": "_newOwner",
                    "type": "address"
                }
            ],
            "name": "transferOwnership",
            "outputs": [],
            "stateMutability": "nonpayable",
            "type": "function"
        },
        {
            "inputs": [],
            "name": "unpause",
            "outputs": [],
            "stateMutability": "nonpayable",
            "type": "function"
        }
    ],
    "bytecode": "0x608060405234801561001057600080fd5b50600080546001600160a01b031916905561282a806100306000396000f3fe608060405234801561001057600080fd5b506004361061011b5760003560e01c80635c975abb116100b2578063863081dd11610081578063d6d6817711610066578063d6d6817714610302578063e9b4409f14610336578063f2fde38b1461034957600080fd5b8063863081dd1461028f5780638da5cb5b146102ef57600080fd5b80635c975abb1461024b57806363e05d9b146102615780638456cb591461027457806384d904881461027c57600080fd5b806334636648116100ee578063346366481461020a5780633cb747bf1461021d5780633f4ba83a14610230578063485cc9551461023857600080fd5b8063150b7a021461012057806324f036ae1461018d5780632ecef742146101a25780632f1eddae146101df575b600080fd5b61015761012e366004612289565b7f150b7a0200000000000000000000000000000000000000000000000000000000949350505050565b6040517fffffffff0000000000000000000000000000000000000000000000000000000090911681526020015b60405180910390f35b6101a061019b36600461236b565b61035c565b005b6098546101ca9074010000000000000000000000000000000000000000900463ffffffff1681565b60405163ffffffff9091168152602001610184565b6098546101f2906001600160a01b031681565b6040516001600160a01b039091168152602001610184565b6101a06102183660046123ee565b610427565b6000546101f2906001600160a01b031681565b6101a061054e565b6101a0610246366004612409565b6105b2565b60655460ff166040519015158152602001610184565b6101a061026f366004612442565b6107e7565b6101a0610d70565b6101a061028a3660046124da565b610dd2565b6102e061029d366004612550565b609a60205260009081526040902080546001909101546001600160a01b039182169181169074010000000000000000000000000000000000000000900460ff1683565b604051610184939291906125a3565b6097546101f2906001600160a01b031681565b6101f2610310366004612600565b60996020908152600092835260408084209091529082529020546001600160a01b031681565b6101a061034436600461262c565b611169565b6101a0610357366004612550565b61122e565b600260015414156103b45760405162461bcd60e51b815260206004820152601f60248201527f5265656e7472616e637947756172643a207265656e7472616e742063616c6c0060448201526064015b60405180910390fd5b600260015560655460ff161561040c5760405162461bcd60e51b815260206004820152601060248201527f5061757361626c653a207061757365640000000000000000000000000000000060448201526064016103ab565b61041b86338787878787611340565b50506001805550505050565b6097546001600160a01b031633146104815760405162461bcd60e51b815260206004820152601760248201527f43616c6c6572206973206e6f7420746865206f776e657200000000000000000060448201526064016103ab565b6000546001600160a01b03166104ff5760405162461bcd60e51b815260206004820152602560248201527f436f6e747261637420686173206e6f7420796574206265656e20696e6974696160448201527f6c697a656400000000000000000000000000000000000000000000000000000060648201526084016103ab565b6098805463ffffffff90921674010000000000000000000000000000000000000000027fffffffffffffffff00000000ffffffffffffffffffffffffffffffffffffffff909216919091179055565b6097546001600160a01b031633146105a85760405162461bcd60e51b815260206004820152601760248201527f43616c6c6572206973206e6f7420746865206f776e657200000000000000000060448201526064016103ab565b6105b0611a19565b565b6000547501000000000000000000000000000000000000000000900460ff16806105f7575060005474010000000000000000000000000000000000000000900460ff16155b6106695760405162461bcd60e51b815260206004820152602e60248201527f496e697469616c697a61626c653a20636f6e747261637420697320616c72656160448201527f647920696e697469616c697a656400000000000000000000000000000000000060648201526084016103ab565b6000547501000000000000000000000000000000000000000000900460ff161580156106d057600080547fffffffffffffffffffff0000ffffffffffffffffffffffffffffffffffffffff1675010100000000000000000000000000000000000000001790555b6001600160a01b038316158015906106f057506001600160a01b03821615155b61073c5760405162461bcd60e51b815260206004820152601860248201527f7a65726f2061646472657373206e6f7420616c6c6f776564000000000000000060448201526064016103ab565b600080546001600160a01b038086167fffffffffffffffffffffffff0000000000000000000000000000000000000000928316179092556098805492851692821692909217909155609780549091163317905561079b62155cc0610427565b6107a3611ad3565b6107ab611c23565b6107b3611d9a565b80156107e257600080547fffffffffffffffffffff00ffffffffffffffffffffffffffffffffffffffffff1690555b505050565b6098546001600160a01b03166108056000546001600160a01b031690565b6001600160a01b0316336001600160a01b03161461088b5760405162461bcd60e51b815260206004820152602e60248201527f4f564d5f58434841494e3a206d657373656e67657220636f6e7472616374207560448201527f6e61757468656e7469636174656400000000000000000000000000000000000060648201526084016103ab565b806001600160a01b03166108a76000546001600160a01b031690565b6001600160a01b0316636e296e456040518163ffffffff1660e01b815260040160206040518083038186803b1580156108df57600080fd5b505afa1580156108f3573d6000803e3d6000fd5b505050506040513d601f19601f82011682018060405250810190610917919061269d565b6001600160a01b0316146109935760405162461bcd60e51b815260206004820152603060248201527f4f564d5f58434841494e3a2077726f6e672073656e646572206f662063726f7360448201527f732d646f6d61696e206d6573736167650000000000000000000000000000000060648201526084016103ab565b6001600160a01b0388166000908152609a602052604081209060018281015474010000000000000000000000000000000000000000900460ff16908111156109dd576109dd612574565b1415610b3c576001600160a01b038981166000908152609960209081526040808320898452909152902054811690891614610a5a5760405162461bcd60e51b815260206004820152600e60248201527f496e636f7272656374204275726e00000000000000000000000000000000000060448201526064016103ab565b6040517f42842e0e0000000000000000000000000000000000000000000000000000000081523060048201526001600160a01b038781166024830152604482018790528a16906342842e0e906064015b600060405180830381600087803b158015610ac457600080fd5b505af1158015610ad8573d6000803e3d6000fd5b50505050866001600160a01b0316886001600160a01b03168a6001600160a01b03167fa8fc058dbc32a74bc50223d04151a850089427ff0a88781cb37b7b47649398b089898989604051610b2f94939291906126e5565b60405180910390a4610d65565b610b66897f3899b23800000000000000000000000000000000000000000000000000000000611eed565b8015610bf55750886001600160a01b0316633aced1496040518163ffffffff1660e01b8152600401602060405180830381600087803b158015610ba857600080fd5b505af1158015610bbc573d6000803e3d6000fd5b505050506040513d601f19601f82011682018060405250810190610be0919061269d565b6001600160a01b0316886001600160a01b0316145b15610c48576040517f40c10f190000000000000000000000000000000000000000000000000000000081526001600160a01b038781166004830152602482018790528a16906340c10f1990604401610aaa565b600063662a633a60e01b8a8a898b8a8a8a604051602401610c6f979695949392919061270e565b60408051601f198184030181529190526020810180517bffffffffffffffffffffffffffffffffffffffffffffffffffffffff167fffffffff0000000000000000000000000000000000000000000000000000000090931692909217909152609854909150610d08906001600160a01b0381169063ffffffff740100000000000000000000000000000000000000009091041683611f12565b876001600160a01b0316896001600160a01b03168b6001600160a01b03167f0827c8c54f3afb487c77436375971699d52dcbb2fcc5444d5aa7ca8ebe38279c8a8a8a8a604051610d5b94939291906126e5565b60405180910390a4505b505050505050505050565b6097546001600160a01b03163314610dca5760405162461bcd60e51b815260206004820152601760248201527f43616c6c6572206973206e6f7420746865206f776e657200000000000000000060448201526064016103ab565b6105b0611f96565b6097546001600160a01b03163314610e2c5760405162461bcd60e51b815260206004820152601760248201527f43616c6c6572206973206e6f7420746865206f776e657200000000000000000060448201526064016103ab565b6001600160a01b038084166000908152609a60205260409020600181015490911615610ec05760405162461bcd60e51b815260206004820152602160248201527f4c32204e4654204164647265737320416c72656164792052656769737465726560448201527f640000000000000000000000000000000000000000000000000000000000000060648201526084016103ab565b6040517f4c3100000000000000000000000000000000000000000000000000000000000060208201526022016040516020818303038152906040528051906020012082604051602001610f13919061278e565b604051602081830303815290604052805190602001201480610f9b57506040517f4c3200000000000000000000000000000000000000000000000000000000000060208201526022016040516020818303038152906040528051906020012082604051602001610f83919061278e565b60405160208183030381529060405280519060200120145b610fe75760405162461bcd60e51b815260206004820152600f60248201527f496e76616c6964204e6574776f726b000000000000000000000000000000000060448201526064016103ab565b6040517f4c310000000000000000000000000000000000000000000000000000000000006020820152600090602201604051602081830303815290604052805190602001208360405160200161103d919061278e565b60405160208183030381529060405280519060200120141561106157506000611065565b5060015b6040518060600160405280866001600160a01b03168152602001856001600160a01b031681526020018260018111156110a0576110a0612574565b90526001600160a01b038087166000908152609a6020908152604091829020845181549085167fffffffffffffffffffffffff000000000000000000000000000000000000000091821617825591850151600180830180549290961693821684178655938601519194919391927fffffffffffffffffffffff00000000000000000000000000000000000000000090911617907401000000000000000000000000000000000000000090849081111561115b5761115b612574565b021790555050505050505050565b600260015414156111bc5760405162461bcd60e51b815260206004820152601f60248201527f5265656e7472616e637947756172643a207265656e7472616e742063616c6c0060448201526064016103ab565b600260015560655460ff16156112145760405162461bcd60e51b815260206004820152601060248201527f5061757361626c653a207061757365640000000000000000000000000000000060448201526064016103ab565b61122385333387878787611340565b505060018055505050565b6097546001600160a01b031633146112885760405162461bcd60e51b815260206004820152601760248201527f43616c6c6572206973206e6f7420746865206f776e657200000000000000000060448201526064016103ab565b6000546001600160a01b03166113065760405162461bcd60e51b815260206004820152602560248201527f436f6e747261637420686173206e6f7420796574206265656e20696e6974696160448201527f6c697a656400000000000000000000000000000000000000000000000000000060648201526084016103ab565b609780547fffffffffffffffffffffffff0000000000000000000000000000000000000000166001600160a01b0392909216919091179055565b6001600160a01b038088166000908152609a6020526040902060018101549091166113ad5760405162461bcd60e51b815260206004820152601a60248201527f43616e27742046696e64204c32204e465420436f6e747261637400000000000060448201526064016103ab565b600060018281015474010000000000000000000000000000000000000000900460ff16908111156113e0576113e0612574565b14156115d857333b156114355760405162461bcd60e51b815260206004820152600f60248201527f4163636f756e74206e6f7420454f41000000000000000000000000000000000060448201526064016103ab565b6040517f42842e0e0000000000000000000000000000000000000000000000000000000081526001600160a01b038881166004830152306024830152604482018790528916906342842e0e90606401600060405180830381600087803b15801561149e57600080fd5b505af11580156114b2573d6000803e3d6000fd5b5050506001820154604051600092507f662a633a0000000000000000000000000000000000000000000000000000000091611505918c916001600160a01b0316908c908c908c908b908b9060240161270e565b60408051601f198184030181529190526020810180517bffffffffffffffffffffffffffffffffffffffffffffffffffffffff167fffffffff000000000000000000000000000000000000000000000000000000009093169290921790915260985490915061157e906001600160a01b03168683611f12565b5060018101546001600160a01b0389811660009081526099602090815260408083208a8452909152902080547fffffffffffffffffffffffff000000000000000000000000000000000000000016919092161790556119b9565b6000886001600160a01b0316633aced1496040518163ffffffff1660e01b8152600401602060405180830381600087803b15801561161557600080fd5b505af1158015611629573d6000803e3d6000fd5b505050506040513d601f19601f8201168201806040525081019061164d919061269d565b60018301549091506001600160a01b038083169116146116af5760405162461bcd60e51b815260206004820152601d60248201527f4c32204e465420436f6e74726163742041646472657373204572726f7200000060448201526064016103ab565b6040517f6352211e000000000000000000000000000000000000000000000000000000008152600481018790526000906001600160a01b038b1690636352211e9060240160206040518083038186803b15801561170b57600080fd5b505afa15801561171f573d6000803e3d6000fd5b505050506040513d601f19601f82011682018060405250810190611743919061269d565b9050336001600160a01b03821614806117f557506040517f081812fc0000000000000000000000000000000000000000000000000000000081526004810188905233906001600160a01b038c169063081812fc9060240160206040518083038186803b1580156117b257600080fd5b505afa1580156117c6573d6000803e3d6000fd5b505050506040513d601f19601f820116820180604052508101906117ea919061269d565b6001600160a01b0316145b80611899575060018301546040517fe985e9c50000000000000000000000000000000000000000000000000000000081526001600160a01b0383811660048301523360248301529091169063e985e9c59060440160206040518083038186803b15801561186157600080fd5b505afa158015611875573d6000803e3d6000fd5b505050506040513d601f19601f8201168201806040525081019061189991906127aa565b6118a257600080fd5b6040517f42966c68000000000000000000000000000000000000000000000000000000008152600481018890526001600160a01b038b16906342966c6890602401600060405180830381600087803b1580156118fd57600080fd5b505af1158015611911573d6000803e3d6000fd5b50505050606063662a633a60e01b8b848c8c8c8b8b60405160240161193c979695949392919061270e565b60408051601f198184030181529190526020810180517bffffffffffffffffffffffffffffffffffffffffffffffffffffffff167fffffffff00000000000000000000000000000000000000000000000000000000909316929092179091526098549091506119b5906001600160a01b03168883611f12565b5050505b60018101546040516001600160a01b03808a1692811691908b16907fdd3575932b39da2c2d3bcf8e7d48d27ccd25839997780073277f46760bc15cac90611a07908b908b908a908a906126e5565b60405180910390a45050505050505050565b60655460ff16611a6b5760405162461bcd60e51b815260206004820152601460248201527f5061757361626c653a206e6f742070617573656400000000000000000000000060448201526064016103ab565b606580547fffffffffffffffffffffffffffffffffffffffffffffffffffffffffffffff001690557f5db9ee0a495bf2e6ff9c91a7834c1ba4fdd244a5e8aa4e537bd38aeae4b073aa335b6040516001600160a01b03909116815260200160405180910390a1565b6000547501000000000000000000000000000000000000000000900460ff1680611b18575060005474010000000000000000000000000000000000000000900460ff16155b611b8a5760405162461bcd60e51b815260206004820152602e60248201527f496e697469616c697a61626c653a20636f6e747261637420697320616c72656160448201527f647920696e697469616c697a656400000000000000000000000000000000000060648201526084016103ab565b6000547501000000000000000000000000000000000000000000900460ff16158015611bf157600080547fffffffffffffffffffff0000ffffffffffffffffffffffffffffffffffffffff1675010100000000000000000000000000000000000000001790555b8015611c2057600080547fffffffffffffffffffff00ffffffffffffffffffffffffffffffffffffffffff1690555b50565b6000547501000000000000000000000000000000000000000000900460ff1680611c68575060005474010000000000000000000000000000000000000000900460ff16155b611cda5760405162461bcd60e51b815260206004820152602e60248201527f496e697469616c697a61626c653a20636f6e747261637420697320616c72656160448201527f647920696e697469616c697a656400000000000000000000000000000000000060648201526084016103ab565b6000547501000000000000000000000000000000000000000000900460ff16158015611d4157600080547fffffffffffffffffffff0000ffffffffffffffffffffffffffffffffffffffff1675010100000000000000000000000000000000000000001790555b606580547fffffffffffffffffffffffffffffffffffffffffffffffffffffffffffffff001690558015611c2057600080547fffffffffffffffffffff00ffffffffffffffffffffffffffffffffffffffffff16905550565b6000547501000000000000000000000000000000000000000000900460ff1680611ddf575060005474010000000000000000000000000000000000000000900460ff16155b611e515760405162461bcd60e51b815260206004820152602e60248201527f496e697469616c697a61626c653a20636f6e747261637420697320616c72656160448201527f647920696e697469616c697a656400000000000000000000000000000000000060648201526084016103ab565b6000547501000000000000000000000000000000000000000000900460ff16158015611eb857600080547fffffffffffffffffffff0000ffffffffffffffffffffffffffffffffffffffff1675010100000000000000000000000000000000000000001790555b600180558015611c2057600080547fffffffffffffffffffff00ffffffffffffffffffffffffffffffffffffffffff16905550565b6000611ef88361203c565b8015611f095750611f0983836120a0565b90505b92915050565b6000546040517f3dbb202b0000000000000000000000000000000000000000000000000000000081526001600160a01b0390911690633dbb202b90611f5f908690859087906004016127cc565b600060405180830381600087803b158015611f7957600080fd5b505af1158015611f8d573d6000803e3d6000fd5b50505050505050565b60655460ff1615611fe95760405162461bcd60e51b815260206004820152601060248201527f5061757361626c653a207061757365640000000000000000000000000000000060448201526064016103ab565b606580547fffffffffffffffffffffffffffffffffffffffffffffffffffffffffffffff001660011790557f62e78cea01bee320cd4e420270b5ea74000d11b0c9f74754ebdbfc544b05a258611ab63390565b6000612068827f01ffc9a7000000000000000000000000000000000000000000000000000000006120a0565b8015611f0c5750612099827fffffffff000000000000000000000000000000000000000000000000000000006120a0565b1592915050565b604080517fffffffff00000000000000000000000000000000000000000000000000000000831660248083019190915282518083039091018152604490910182526020810180517bffffffffffffffffffffffffffffffffffffffffffffffffffffffff167f01ffc9a700000000000000000000000000000000000000000000000000000000179052905160009190829081906001600160a01b038716906175309061214d90869061278e565b6000604051808303818686fa925050503d8060008114612189576040519150601f19603f3d011682016040523d82523d6000602084013e61218e565b606091505b50915091506020815110156121a95760009350505050611f0c565b8180156121c55750808060200190518101906121c591906127aa565b9695505050505050565b6001600160a01b0381168114611c2057600080fd5b7f4e487b7100000000000000000000000000000000000000000000000000000000600052604160045260246000fd5b600067ffffffffffffffff8084111561222e5761222e6121e4565b604051601f8501601f19908116603f01168101908282118183101715612256576122566121e4565b8160405280935085815286868601111561226f57600080fd5b858560208301376000602087830101525050509392505050565b6000806000806080858703121561229f57600080fd5b84356122aa816121cf565b935060208501356122ba816121cf565b925060408501359150606085013567ffffffffffffffff8111156122dd57600080fd5b8501601f810187136122ee57600080fd5b6122fd87823560208401612213565b91505092959194509250565b803563ffffffff8116811461231d57600080fd5b919050565b60008083601f84011261233457600080fd5b50813567ffffffffffffffff81111561234c57600080fd5b60208301915083602082850101111561236457600080fd5b9250929050565b60008060008060008060a0878903121561238457600080fd5b863561238f816121cf565b9550602087013561239f816121cf565b9450604087013593506123b460608801612309565b9250608087013567ffffffffffffffff8111156123d057600080fd5b6123dc89828a01612322565b979a9699509497509295939492505050565b60006020828403121561240057600080fd5b611f0982612309565b6000806040838503121561241c57600080fd5b8235612427816121cf565b91506020830135612437816121cf565b809150509250929050565b600080600080600080600060c0888a03121561245d57600080fd5b8735612468816121cf565b96506020880135612478816121cf565b95506040880135612488816121cf565b94506060880135612498816121cf565b93506080880135925060a088013567ffffffffffffffff8111156124bb57600080fd5b6124c78a828b01612322565b989b979a50959850939692959293505050565b6000806000606084860312156124ef57600080fd5b83356124fa816121cf565b9250602084013561250a816121cf565b9150604084013567ffffffffffffffff81111561252657600080fd5b8401601f8101861361253757600080fd5b61254686823560208401612213565b9150509250925092565b60006020828403121561256257600080fd5b813561256d816121cf565b9392505050565b7f4e487b7100000000000000000000000000000000000000000000000000000000600052602160045260246000fd5b6001600160a01b0384811682528316602082015260608101600283106125f2577f4e487b7100000000000000000000000000000000000000000000000000000000600052602160045260246000fd5b826040830152949350505050565b6000806040838503121561261357600080fd5b823561261e816121cf565b946020939093013593505050565b60008060008060006080868803121561264457600080fd5b853561264f816121cf565b94506020860135935061266460408701612309565b9250606086013567ffffffffffffffff81111561268057600080fd5b61268c88828901612322565b969995985093965092949392505050565b6000602082840312156126af57600080fd5b815161256d816121cf565b818352818160208501375060006020828401015260006020601f19601f840116840101905092915050565b6001600160a01b03851681528360208201526060604082015260006121c56060830184866126ba565b60006001600160a01b03808a1683528089166020840152808816604084015280871660608401525084608083015260c060a083015261275160c0830184866126ba565b9998505050505050505050565b60005b83811015612779578181015183820152602001612761565b83811115612788576000848401525b50505050565b600082516127a081846020870161275e565b9190910192915050565b6000602082840312156127bc57600080fd5b8151801515811461256d57600080fd5b6001600160a01b038416815260606020820152600083518060608401526127fa81608085016020880161275e565b63ffffffff93909316604083015250601f91909101601f1916016080019291505056fea164736f6c6343000809000a",
    "linkReferences": {},
    "deployedLinkReferences": {}
}