{
    "_format": "hh-sol-artifact-1",
    "contractName": "L1StandardERC721",
    "sourceName": "contracts/standards/L1StandardERC721.sol",
    "abi": [
        {
            "inputs": [
                {
                    "internalType": "address",
                    "name": "_l1Bridge",
                    "type": "address"
                },
                {
                    "internalType": "address",
                    "name": "_l2Contract",
                    "type": "address"
                },
                {
                    "internalType": "string",
                    "name": "_name",
                    "type": "string"
                },
                {
                    "internalType": "string",
                    "name": "_symbol",
                    "type": "string"
                },
                {
                    "internalType": "string",
                    "name": "_baseTokenURI",
                    "type": "string"
                }
            ],
            "stateMutability": "nonpayable",
            "type": "constructor"
        },
        {
            "anonymous": false,
            "inputs": [
                {
                    "indexed": true,
                    "internalType": "address",
                    "name": "owner",
                    "type": "address"
                },
                {
                    "indexed": true,
                    "internalType": "address",
                    "name": "approved",
                    "type": "address"
                },
                {
                    "indexed": true,
                    "internalType": "uint256",
                    "name": "tokenId",
                    "type": "uint256"
                }
            ],
            "name": "Approval",
            "type": "event"
        },
        {
            "anonymous": false,
            "inputs": [
                {
                    "indexed": true,
                    "internalType": "address",
                    "name": "owner",
                    "type": "address"
                },
                {
                    "indexed": true,
                    "internalType": "address",
                    "name": "operator",
                    "type": "address"
                },
                {
                    "indexed": false,
                    "internalType": "bool",
                    "name": "approved",
                    "type": "bool"
                }
            ],
            "name": "ApprovalForAll",
            "type": "event"
        },
        {
            "anonymous": false,
            "inputs": [
                {
                    "indexed": false,
                    "internalType": "uint256",
                    "name": "_tokenId",
                    "type": "uint256"
                }
            ],
            "name": "Burn",
            "type": "event"
        },
        {
            "anonymous": false,
            "inputs": [
                {
                    "indexed": true,
                    "internalType": "address",
                    "name": "_account",
                    "type": "address"
                },
                {
                    "indexed": false,
                    "internalType": "uint256",
                    "name": "_tokenId",
                    "type": "uint256"
                }
            ],
            "name": "Mint",
            "type": "event"
        },
        {
            "anonymous": false,
            "inputs": [
                {
                    "indexed": true,
                    "internalType": "address",
                    "name": "from",
                    "type": "address"
                },
                {
                    "indexed": true,
                    "internalType": "address",
                    "name": "to",
                    "type": "address"
                },
                {
                    "indexed": true,
                    "internalType": "uint256",
                    "name": "tokenId",
                    "type": "uint256"
                }
            ],
            "name": "Transfer",
            "type": "event"
        },
        {
            "inputs": [
                {
                    "internalType": "address",
                    "name": "to",
                    "type": "address"
                },
                {
                    "internalType": "uint256",
                    "name": "tokenId",
                    "type": "uint256"
                }
            ],
            "name": "approve",
            "outputs": [],
            "stateMutability": "nonpayable",
            "type": "function"
        },
        {
            "inputs": [
                {
                    "internalType": "address",
                    "name": "owner",
                    "type": "address"
                }
            ],
            "name": "balanceOf",
            "outputs": [
                {
                    "internalType": "uint256",
                    "name": "",
                    "type": "uint256"
                }
            ],
            "stateMutability": "view",
            "type": "function"
        },
        {
            "inputs": [
                {
                    "internalType": "uint256",
                    "name": "_tokenId",
                    "type": "uint256"
                }
            ],
            "name": "burn",
            "outputs": [],
            "stateMutability": "nonpayable",
            "type": "function"
        },
        {
            "inputs": [
                {
                    "internalType": "uint256",
                    "name": "tokenId",
                    "type": "uint256"
                }
            ],
            "name": "getApproved",
            "outputs": [
                {
                    "internalType": "address",
                    "name": "",
                    "type": "address"
                }
            ],
            "stateMutability": "view",
            "type": "function"
        },
        {
            "inputs": [
                {
                    "internalType": "address",
                    "name": "owner",
                    "type": "address"
                },
                {
                    "internalType": "address",
                    "name": "operator",
                    "type": "address"
                }
            ],
            "name": "isApprovedForAll",
            "outputs": [
                {
                    "internalType": "bool",
                    "name": "",
                    "type": "bool"
                }
            ],
            "stateMutability": "view",
            "type": "function"
        },
        {
            "inputs": [],
            "name": "l1Bridge",
            "outputs": [
                {
                    "internalType": "address",
                    "name": "",
                    "type": "address"
                }
            ],
            "stateMutability": "view",
            "type": "function"
        },
        {
            "inputs": [],
            "name": "l2Contract",
            "outputs": [
                {
                    "internalType": "address",
                    "name": "",
                    "type": "address"
                }
            ],
            "stateMutability": "view",
            "type": "function"
        },
        {
            "inputs": [
                {
                    "internalType": "address",
                    "name": "_to",
                    "type": "address"
                },
                {
                    "internalType": "uint256",
                    "name": "_tokenId",
                    "type": "uint256"
                }
            ],
            "name": "mint",
            "outputs": [],
            "stateMutability": "nonpayable",
            "type": "function"
        },
        {
            "inputs": [],
            "name": "name",
            "outputs": [
                {
                    "internalType": "string",
                    "name": "",
                    "type": "string"
                }
            ],
            "stateMutability": "view",
            "type": "function"
        },
        {
            "inputs": [
                {
                    "internalType": "uint256",
                    "name": "tokenId",
                    "type": "uint256"
                }
            ],
            "name": "ownerOf",
            "outputs": [
                {
                    "internalType": "address",
                    "name": "",
                    "type": "address"
                }
            ],
            "stateMutability": "view",
            "type": "function"
        },
        {
            "inputs": [
                {
                    "internalType": "address",
                    "name": "from",
                    "type": "address"
                },
                {
                    "internalType": "address",
                    "name": "to",
                    "type": "address"
                },
                {
                    "internalType": "uint256",
                    "name": "tokenId",
                    "type": "uint256"
                }
            ],
            "name": "safeTransferFrom",
            "outputs": [],
            "stateMutability": "nonpayable",
            "type": "function"
        },
        {
            "inputs": [
                {
                    "internalType": "address",
                    "name": "from",
                    "type": "address"
                },
                {
                    "internalType": "address",
                    "name": "to",
                    "type": "address"
                },
                {
                    "internalType": "uint256",
                    "name": "tokenId",
                    "type": "uint256"
                },
                {
                    "internalType": "bytes",
                    "name": "_data",
                    "type": "bytes"
                }
            ],
            "name": "safeTransferFrom",
            "outputs": [],
            "stateMutability": "nonpayable",
            "type": "function"
        },
        {
            "inputs": [
                {
                    "internalType": "address",
                    "name": "operator",
                    "type": "address"
                },
                {
                    "internalType": "bool",
                    "name": "approved",
                    "type": "bool"
                }
            ],
            "name": "setApprovalForAll",
            "outputs": [],
            "stateMutability": "nonpayable",
            "type": "function"
        },
        {
            "inputs": [
                {
                    "internalType": "bytes4",
                    "name": "_interfaceId",
                    "type": "bytes4"
                }
            ],
            "name": "supportsInterface",
            "outputs": [
                {
                    "internalType": "bool",
                    "name": "",
                    "type": "bool"
                }
            ],
            "stateMutability": "pure",
            "type": "function"
        },
        {
            "inputs": [],
            "name": "symbol",
            "outputs": [
                {
                    "internalType": "string",
                    "name": "",
                    "type": "string"
                }
            ],
            "stateMutability": "view",
            "type": "function"
        },
        {
            "inputs": [
                {
                    "internalType": "uint256",
                    "name": "tokenId",
                    "type": "uint256"
                }
            ],
            "name": "tokenURI",
            "outputs": [
                {
                    "internalType": "string",
                    "name": "",
                    "type": "string"
                }
            ],
            "stateMutability": "view",
            "type": "function"
        },
        {
            "inputs": [
                {
                    "internalType": "address",
                    "name": "from",
                    "type": "address"
                },
                {
                    "internalType": "address",
                    "name": "to",
                    "type": "address"
                },
                {
                    "internalType": "uint256",
                    "name": "tokenId",
                    "type": "uint256"
                }
            ],
            "name": "transferFrom",
            "outputs": [],
            "stateMutability": "nonpayable",
            "type": "function"
        }
    ],
    "bytecode": "0x60806040523480156200001157600080fd5b5060405162001f1338038062001f13833981016040819052620000349162000247565b8251839083906200004d906000906020850190620000b7565b50805162000063906001906020840190620000b7565b5050600680546001600160a01b038088166001600160a01b0319928316179092556007805492891692909116919091179055508051620000ab906008906020840190620000b7565b5050505050506200033c565b828054620000c590620002ff565b90600052602060002090601f016020900481019282620000e9576000855562000134565b82601f106200010457805160ff191683800117855562000134565b8280016001018555821562000134579182015b828111156200013457825182559160200191906001019062000117565b506200014292915062000146565b5090565b5b8082111562000142576000815560010162000147565b80516001600160a01b03811681146200017557600080fd5b919050565b634e487b7160e01b600052604160045260246000fd5b600082601f830112620001a257600080fd5b81516001600160401b0380821115620001bf57620001bf6200017a565b604051601f8301601f19908116603f01168101908282118183101715620001ea57620001ea6200017a565b816040528381526020925086838588010111156200020757600080fd5b600091505b838210156200022b57858201830151818301840152908201906200020c565b838211156200023d5760008385830101525b9695505050505050565b600080600080600060a086880312156200026057600080fd5b6200026b866200015d565b94506200027b602087016200015d565b60408701519094506001600160401b03808211156200029957600080fd5b620002a789838a0162000190565b94506060880151915080821115620002be57600080fd5b620002cc89838a0162000190565b93506080880151915080821115620002e357600080fd5b50620002f28882890162000190565b9150509295509295909350565b600181811c908216806200031457607f821691505b602082108114156200033657634e487b7160e01b600052602260045260246000fd5b50919050565b611bc7806200034c6000396000f3fe608060405234801561001057600080fd5b506004361061011b5760003560e01c806342966c68116100b2578063969b53da11610081578063b88d4fde11610066578063b88d4fde14610285578063c87b56dd14610298578063e985e9c5146102ab57600080fd5b8063969b53da14610252578063a22cb4651461027257600080fd5b806342966c68146102035780636352211e1461021657806370a082311461022957806395d89b411461024a57600080fd5b806323b872dd116100ee57806323b872dd146101aa5780633aced149146101bd57806340c10f19146101dd57806342842e0e146101f057600080fd5b806301ffc9a71461012057806306fdde0314610148578063081812fc1461015d578063095ea7b314610195575b600080fd5b61013361012e3660046116b3565b6102f4565b60405190151581526020015b60405180910390f35b6101506103b4565b60405161013f9190611746565b61017061016b366004611759565b610446565b60405173ffffffffffffffffffffffffffffffffffffffff909116815260200161013f565b6101a86101a336600461179b565b61050b565b005b6101a86101b83660046117c5565b610664565b6006546101709073ffffffffffffffffffffffffffffffffffffffff1681565b6101a86101eb36600461179b565b6106eb565b6101a86101fe3660046117c5565b6107b0565b6101a8610211366004611759565b6107cb565b610170610224366004611759565b610871565b61023c610237366004611801565b61090f565b60405190815260200161013f565b6101506109c3565b6007546101709073ffffffffffffffffffffffffffffffffffffffff1681565b6101a861028036600461181c565b6109d2565b6101a8610293366004611887565b610acf565b6101506102a6366004611759565b610b5d565b6101336102b9366004611981565b73ffffffffffffffffffffffffffffffffffffffff918216600090815260056020908152604080832093909416825291909152205460ff1690565b60007f01ffc9a7a5cef8baa21ed3c5c0d7e23accb804b619e9333b597f47a0d84076e27f3899b238000000000000000000000000000000000000000000000000000000007fffffffff0000000000000000000000000000000000000000000000000000000084167f01ffc9a70000000000000000000000000000000000000000000000000000000014806103ac57507fffffffff00000000000000000000000000000000000000000000000000000000848116908216145b949350505050565b6060600080546103c3906119b4565b80601f01602080910402602001604051908101604052809291908181526020018280546103ef906119b4565b801561043c5780601f106104115761010080835404028352916020019161043c565b820191906000526020600020905b81548152906001019060200180831161041f57829003601f168201915b5050505050905090565b60008181526002602052604081205473ffffffffffffffffffffffffffffffffffffffff166104e25760405162461bcd60e51b815260206004820152602c60248201527f4552433732313a20617070726f76656420717565727920666f72206e6f6e657860448201527f697374656e7420746f6b656e000000000000000000000000000000000000000060648201526084015b60405180910390fd5b5060009081526004602052604090205473ffffffffffffffffffffffffffffffffffffffff1690565b600061051682610871565b90508073ffffffffffffffffffffffffffffffffffffffff168373ffffffffffffffffffffffffffffffffffffffff1614156105ba5760405162461bcd60e51b815260206004820152602160248201527f4552433732313a20617070726f76616c20746f2063757272656e74206f776e6560448201527f720000000000000000000000000000000000000000000000000000000000000060648201526084016104d9565b3373ffffffffffffffffffffffffffffffffffffffff821614806105e357506105e381336102b9565b6106555760405162461bcd60e51b815260206004820152603860248201527f4552433732313a20617070726f76652063616c6c6572206973206e6f74206f7760448201527f6e6572206e6f7220617070726f76656420666f7220616c6c000000000000000060648201526084016104d9565b61065f8383610c53565b505050565b61066e3382610cf3565b6106e05760405162461bcd60e51b815260206004820152603160248201527f4552433732313a207472616e736665722063616c6c6572206973206e6f74206f60448201527f776e6572206e6f7220617070726f76656400000000000000000000000000000060648201526084016104d9565b61065f838383610e45565b60075473ffffffffffffffffffffffffffffffffffffffff1633146107525760405162461bcd60e51b815260206004820181905260248201527f4f6e6c79204c31204272696467652063616e206d696e7420616e64206275726e60448201526064016104d9565b61075c8282611078565b8173ffffffffffffffffffffffffffffffffffffffff167f0f6798a560793a54c3bcfe86a93cde1e73087d944c0ea20544137d4121396885826040516107a491815260200190565b60405180910390a25050565b61065f83838360405180602001604052806000815250610acf565b60075473ffffffffffffffffffffffffffffffffffffffff1633146108325760405162461bcd60e51b815260206004820181905260248201527f4f6e6c79204c31204272696467652063616e206d696e7420616e64206275726e60448201526064016104d9565b61083b81611206565b6040518181527fb90306ad06b2a6ff86ddc9327db583062895ef6540e62dc50add009db5b356eb9060200160405180910390a150565b60008181526002602052604081205473ffffffffffffffffffffffffffffffffffffffff16806109095760405162461bcd60e51b815260206004820152602960248201527f4552433732313a206f776e657220717565727920666f72206e6f6e657869737460448201527f656e7420746f6b656e000000000000000000000000000000000000000000000060648201526084016104d9565b92915050565b600073ffffffffffffffffffffffffffffffffffffffff821661099a5760405162461bcd60e51b815260206004820152602a60248201527f4552433732313a2062616c616e636520717565727920666f7220746865207a6560448201527f726f20616464726573730000000000000000000000000000000000000000000060648201526084016104d9565b5073ffffffffffffffffffffffffffffffffffffffff1660009081526003602052604090205490565b6060600180546103c3906119b4565b73ffffffffffffffffffffffffffffffffffffffff8216331415610a385760405162461bcd60e51b815260206004820152601960248201527f4552433732313a20617070726f766520746f2063616c6c65720000000000000060448201526064016104d9565b33600081815260056020908152604080832073ffffffffffffffffffffffffffffffffffffffff87168085529083529281902080547fffffffffffffffffffffffffffffffffffffffffffffffffffffffffffffff001686151590811790915590519081529192917f17307eab39ab6107e8899845ad3d59bd9653f200f220920489ca2b5937696c31910160405180910390a35050565b610ad93383610cf3565b610b4b5760405162461bcd60e51b815260206004820152603160248201527f4552433732313a207472616e736665722063616c6c6572206973206e6f74206f60448201527f776e6572206e6f7220617070726f76656400000000000000000000000000000060648201526084016104d9565b610b57848484846112d3565b50505050565b60008181526002602052604090205460609073ffffffffffffffffffffffffffffffffffffffff16610bf75760405162461bcd60e51b815260206004820152602f60248201527f4552433732314d657461646174613a2055524920717565727920666f72206e6f60448201527f6e6578697374656e7420746f6b656e000000000000000000000000000000000060648201526084016104d9565b6000610c0161135c565b90506000815111610c215760405180602001604052806000815250610c4c565b80610c2b8461136b565b604051602001610c3c929190611a08565b6040516020818303038152906040525b9392505050565b600081815260046020526040902080547fffffffffffffffffffffffff00000000000000000000000000000000000000001673ffffffffffffffffffffffffffffffffffffffff84169081179091558190610cad82610871565b73ffffffffffffffffffffffffffffffffffffffff167f8c5be1e5ebec7d5bd14f71427d1e84f3dd0314c0f7b2291e5b200ac8c7c3b92560405160405180910390a45050565b60008181526002602052604081205473ffffffffffffffffffffffffffffffffffffffff16610d8a5760405162461bcd60e51b815260206004820152602c60248201527f4552433732313a206f70657261746f7220717565727920666f72206e6f6e657860448201527f697374656e7420746f6b656e000000000000000000000000000000000000000060648201526084016104d9565b6000610d9583610871565b90508073ffffffffffffffffffffffffffffffffffffffff168473ffffffffffffffffffffffffffffffffffffffff161480610e0457508373ffffffffffffffffffffffffffffffffffffffff16610dec84610446565b73ffffffffffffffffffffffffffffffffffffffff16145b806103ac575073ffffffffffffffffffffffffffffffffffffffff80821660009081526005602090815260408083209388168352929052205460ff166103ac565b8273ffffffffffffffffffffffffffffffffffffffff16610e6582610871565b73ffffffffffffffffffffffffffffffffffffffff1614610eee5760405162461bcd60e51b815260206004820152602960248201527f4552433732313a207472616e73666572206f6620746f6b656e2074686174206960448201527f73206e6f74206f776e000000000000000000000000000000000000000000000060648201526084016104d9565b73ffffffffffffffffffffffffffffffffffffffff8216610f765760405162461bcd60e51b8152602060048201526024808201527f4552433732313a207472616e7366657220746f20746865207a65726f2061646460448201527f726573730000000000000000000000000000000000000000000000000000000060648201526084016104d9565b610f81600082610c53565b73ffffffffffffffffffffffffffffffffffffffff83166000908152600360205260408120805460019290610fb7908490611a66565b909155505073ffffffffffffffffffffffffffffffffffffffff82166000908152600360205260408120805460019290610ff2908490611a7d565b909155505060008181526002602052604080822080547fffffffffffffffffffffffff00000000000000000000000000000000000000001673ffffffffffffffffffffffffffffffffffffffff86811691821790925591518493918716917fddf252ad1be2c89b69c2b068fc378daa952ba7f163c4a11628f55a4df523b3ef91a4505050565b73ffffffffffffffffffffffffffffffffffffffff82166110db5760405162461bcd60e51b815260206004820181905260248201527f4552433732313a206d696e7420746f20746865207a65726f206164647265737360448201526064016104d9565b60008181526002602052604090205473ffffffffffffffffffffffffffffffffffffffff161561114d5760405162461bcd60e51b815260206004820152601c60248201527f4552433732313a20746f6b656e20616c7265616479206d696e7465640000000060448201526064016104d9565b73ffffffffffffffffffffffffffffffffffffffff82166000908152600360205260408120805460019290611183908490611a7d565b909155505060008181526002602052604080822080547fffffffffffffffffffffffff00000000000000000000000000000000000000001673ffffffffffffffffffffffffffffffffffffffff861690811790915590518392907fddf252ad1be2c89b69c2b068fc378daa952ba7f163c4a11628f55a4df523b3ef908290a45050565b600061121182610871565b905061121e600083610c53565b73ffffffffffffffffffffffffffffffffffffffff81166000908152600360205260408120805460019290611254908490611a66565b909155505060008281526002602052604080822080547fffffffffffffffffffffffff00000000000000000000000000000000000000001690555183919073ffffffffffffffffffffffffffffffffffffffff8416907fddf252ad1be2c89b69c2b068fc378daa952ba7f163c4a11628f55a4df523b3ef908390a45050565b6112de848484610e45565b6112ea8484848461149d565b610b575760405162461bcd60e51b815260206004820152603260248201527f4552433732313a207472616e7366657220746f206e6f6e20455243373231526560448201527f63656976657220696d706c656d656e746572000000000000000000000000000060648201526084016104d9565b6060600880546103c3906119b4565b6060816113ab57505060408051808201909152600181527f3000000000000000000000000000000000000000000000000000000000000000602082015290565b8160005b81156113d557806113bf81611a95565b91506113ce9050600a83611afd565b91506113af565b60008167ffffffffffffffff8111156113f0576113f0611858565b6040519080825280601f01601f19166020018201604052801561141a576020820181803683370190505b5090505b84156103ac5761142f600183611a66565b915061143c600a86611b11565b611447906030611a7d565b60f81b81838151811061145c5761145c611b25565b60200101907effffffffffffffffffffffffffffffffffffffffffffffffffffffffffffff1916908160001a905350611496600a86611afd565b945061141e565b600073ffffffffffffffffffffffffffffffffffffffff84163b15611677576040517f150b7a0200000000000000000000000000000000000000000000000000000000815273ffffffffffffffffffffffffffffffffffffffff85169063150b7a0290611514903390899088908890600401611b54565b602060405180830381600087803b15801561152e57600080fd5b505af192505050801561157c575060408051601f3d9081017fffffffffffffffffffffffffffffffffffffffffffffffffffffffffffffffe016820190925261157991810190611b9d565b60015b61162c573d8080156115aa576040519150601f19603f3d011682016040523d82523d6000602084013e6115af565b606091505b5080516116245760405162461bcd60e51b815260206004820152603260248201527f4552433732313a207472616e7366657220746f206e6f6e20455243373231526560448201527f63656976657220696d706c656d656e746572000000000000000000000000000060648201526084016104d9565b805181602001fd5b7fffffffff00000000000000000000000000000000000000000000000000000000167f150b7a02000000000000000000000000000000000000000000000000000000001490506103ac565b506001949350505050565b7fffffffff00000000000000000000000000000000000000000000000000000000811681146116b057600080fd5b50565b6000602082840312156116c557600080fd5b8135610c4c81611682565b60005b838110156116eb5781810151838201526020016116d3565b83811115610b575750506000910152565b600081518084526117148160208601602086016116d0565b601f017fffffffffffffffffffffffffffffffffffffffffffffffffffffffffffffffe0169290920160200192915050565b602081526000610c4c60208301846116fc565b60006020828403121561176b57600080fd5b5035919050565b803573ffffffffffffffffffffffffffffffffffffffff8116811461179657600080fd5b919050565b600080604083850312156117ae57600080fd5b6117b783611772565b946020939093013593505050565b6000806000606084860312156117da57600080fd5b6117e384611772565b92506117f160208501611772565b9150604084013590509250925092565b60006020828403121561181357600080fd5b610c4c82611772565b6000806040838503121561182f57600080fd5b61183883611772565b91506020830135801515811461184d57600080fd5b809150509250929050565b7f4e487b7100000000000000000000000000000000000000000000000000000000600052604160045260246000fd5b6000806000806080858703121561189d57600080fd5b6118a685611772565b93506118b460208601611772565b925060408501359150606085013567ffffffffffffffff808211156118d857600080fd5b818701915087601f8301126118ec57600080fd5b8135818111156118fe576118fe611858565b604051601f82017fffffffffffffffffffffffffffffffffffffffffffffffffffffffffffffffe0908116603f0116810190838211818310171561194457611944611858565b816040528281528a602084870101111561195d57600080fd5b82602086016020830137600060208483010152809550505050505092959194509250565b6000806040838503121561199457600080fd5b61199d83611772565b91506119ab60208401611772565b90509250929050565b600181811c908216806119c857607f821691505b60208210811415611a02577f4e487b7100000000000000000000000000000000000000000000000000000000600052602260045260246000fd5b50919050565b60008351611a1a8184602088016116d0565b835190830190611a2e8183602088016116d0565b01949350505050565b7f4e487b7100000000000000000000000000000000000000000000000000000000600052601160045260246000fd5b600082821015611a7857611a78611a37565b500390565b60008219821115611a9057611a90611a37565b500190565b60007fffffffffffffffffffffffffffffffffffffffffffffffffffffffffffffffff821415611ac757611ac7611a37565b5060010190565b7f4e487b7100000000000000000000000000000000000000000000000000000000600052601260045260246000fd5b600082611b0c57611b0c611ace565b500490565b600082611b2057611b20611ace565b500690565b7f4e487b7100000000000000000000000000000000000000000000000000000000600052603260045260246000fd5b600073ffffffffffffffffffffffffffffffffffffffff808716835280861660208401525083604083015260806060830152611b9360808301846116fc565b9695505050505050565b600060208284031215611baf57600080fd5b8151610c4c8161168256fea164736f6c6343000809000a",
    "linkReferences": {},
    "deployedLinkReferences": {}
}