{
    "_format": "hh-sol-artifact-1",
    "contractName": "L2NFTBridge",
    "sourceName": "contracts/bridges/L2NFTBridge.sol",
    "abi": [
        {
            "inputs": [],
            "stateMutability": "nonpayable",
            "type": "constructor"
        },
        {
            "anonymous": false,
            "inputs": [
                {
                    "indexed": true,
                    "internalType": "address",
                    "name": "_l1Token",
                    "type": "address"
                },
                {
                    "indexed": true,
                    "internalType": "address",
                    "name": "_l2Token",
                    "type": "address"
                },
                {
                    "indexed": true,
                    "internalType": "address",
                    "name": "_from",
                    "type": "address"
                },
                {
                    "indexed": false,
                    "internalType": "address",
                    "name": "_to",
                    "type": "address"
                },
                {
                    "indexed": false,
                    "internalType": "uint256",
                    "name": "_tokenId",
                    "type": "uint256"
                },
                {
                    "indexed": false,
                    "internalType": "bytes",
                    "name": "_data",
                    "type": "bytes"
                }
            ],
            "name": "DepositFailed",
            "type": "event"
        },
        {
            "anonymous": false,
            "inputs": [
                {
                    "indexed": true,
                    "internalType": "address",
                    "name": "_l1Token",
                    "type": "address"
                },
                {
                    "indexed": true,
                    "internalType": "address",
                    "name": "_l2Token",
                    "type": "address"
                },
                {
                    "indexed": true,
                    "internalType": "address",
                    "name": "_from",
                    "type": "address"
                },
                {
                    "indexed": false,
                    "internalType": "address",
                    "name": "_to",
                    "type": "address"
                },
                {
                    "indexed": false,
                    "internalType": "uint256",
                    "name": "_tokenId",
                    "type": "uint256"
                },
                {
                    "indexed": false,
                    "internalType": "bytes",
                    "name": "_data",
                    "type": "bytes"
                }
            ],
            "name": "DepositFinalized",
            "type": "event"
        },
        {
            "anonymous": false,
            "inputs": [
                {
                    "indexed": false,
                    "internalType": "address",
                    "name": "account",
                    "type": "address"
                }
            ],
            "name": "Paused",
            "type": "event"
        },
        {
            "anonymous": false,
            "inputs": [
                {
                    "indexed": false,
                    "internalType": "address",
                    "name": "account",
                    "type": "address"
                }
            ],
            "name": "Unpaused",
            "type": "event"
        },
        {
            "anonymous": false,
            "inputs": [
                {
                    "indexed": true,
                    "internalType": "address",
                    "name": "_l1Token",
                    "type": "address"
                },
                {
                    "indexed": true,
                    "internalType": "address",
                    "name": "_l2Token",
                    "type": "address"
                },
                {
                    "indexed": true,
                    "internalType": "address",
                    "name": "_from",
                    "type": "address"
                },
                {
                    "indexed": false,
                    "internalType": "address",
                    "name": "_to",
                    "type": "address"
                },
                {
                    "indexed": false,
                    "internalType": "uint256",
                    "name": "_tokenId",
                    "type": "uint256"
                },
                {
                    "indexed": false,
                    "internalType": "bytes",
                    "name": "_data",
                    "type": "bytes"
                }
            ],
            "name": "WithdrawalInitiated",
            "type": "event"
        },
        {
            "inputs": [
                {
                    "internalType": "uint256",
                    "name": "_extraGasRelay",
                    "type": "uint256"
                }
            ],
            "name": "configureExtraGasRelay",
            "outputs": [],
            "stateMutability": "nonpayable",
            "type": "function"
        },
        {
            "inputs": [
                {
                    "internalType": "uint32",
                    "name": "_exitL1Gas",
                    "type": "uint32"
                }
            ],
            "name": "configureGas",
            "outputs": [],
            "stateMutability": "nonpayable",
            "type": "function"
        },
        {
            "inputs": [],
            "name": "exitL1Gas",
            "outputs": [
                {
                    "internalType": "uint32",
                    "name": "",
                    "type": "uint32"
                }
            ],
            "stateMutability": "view",
            "type": "function"
        },
        {
            "inputs": [
                {
                    "internalType": "address",
                    "name": "",
                    "type": "address"
                },
                {
                    "internalType": "uint256",
                    "name": "",
                    "type": "uint256"
                }
            ],
            "name": "exits",
            "outputs": [
                {
                    "internalType": "address",
                    "name": "",
                    "type": "address"
                }
            ],
            "stateMutability": "view",
            "type": "function"
        },
        {
            "inputs": [],
            "name": "extraGasRelay",
            "outputs": [
                {
                    "internalType": "uint256",
                    "name": "",
                    "type": "uint256"
                }
            ],
            "stateMutability": "view",
            "type": "function"
        },
        {
            "inputs": [
                {
                    "internalType": "address",
                    "name": "_l1Contract",
                    "type": "address"
                },
                {
                    "internalType": "address",
                    "name": "_l2Contract",
                    "type": "address"
                },
                {
                    "internalType": "address",
                    "name": "_from",
                    "type": "address"
                },
                {
                    "internalType": "address",
                    "name": "_to",
                    "type": "address"
                },
                {
                    "internalType": "uint256",
                    "name": "_tokenId",
                    "type": "uint256"
                },
                {
                    "internalType": "bytes",
                    "name": "_data",
                    "type": "bytes"
                }
            ],
            "name": "finalizeDeposit",
            "outputs": [],
            "stateMutability": "nonpayable",
            "type": "function"
        },
        {
            "inputs": [
                {
                    "internalType": "address",
                    "name": "_l2CrossDomainMessenger",
                    "type": "address"
                },
                {
                    "internalType": "address",
                    "name": "_l1NFTBridge",
                    "type": "address"
                }
            ],
            "name": "initialize",
            "outputs": [],
            "stateMutability": "nonpayable",
            "type": "function"
        },
        {
            "inputs": [],
            "name": "l1NFTBridge",
            "outputs": [
                {
                    "internalType": "address",
                    "name": "",
                    "type": "address"
                }
            ],
            "stateMutability": "view",
            "type": "function"
        },
        {
            "inputs": [],
            "name": "messenger",
            "outputs": [
                {
                    "internalType": "address",
                    "name": "",
                    "type": "address"
                }
            ],
            "stateMutability": "view",
            "type": "function"
        },
        {
            "inputs": [
                {
                    "internalType": "address",
                    "name": "",
                    "type": "address"
                },
                {
                    "internalType": "address",
                    "name": "",
                    "type": "address"
                },
                {
                    "internalType": "uint256",
                    "name": "",
                    "type": "uint256"
                },
                {
                    "internalType": "bytes",
                    "name": "",
                    "type": "bytes"
                }
            ],
            "name": "onERC721Received",
            "outputs": [
                {
                    "internalType": "bytes4",
                    "name": "",
                    "type": "bytes4"
                }
            ],
            "stateMutability": "nonpayable",
            "type": "function"
        },
        {
            "inputs": [],
            "name": "owner",
            "outputs": [
                {
                    "internalType": "address",
                    "name": "",
                    "type": "address"
                }
            ],
            "stateMutability": "view",
            "type": "function"
        },
        {
            "inputs": [
                {
                    "internalType": "address",
                    "name": "",
                    "type": "address"
                }
            ],
            "name": "pairNFTInfo",
            "outputs": [
                {
                    "internalType": "address",
                    "name": "l1Contract",
                    "type": "address"
                },
                {
                    "internalType": "address",
                    "name": "l2Contract",
                    "type": "address"
                },
                {
                    "internalType": "enum L2NFTBridge.Network",
                    "name": "baseNetwork",
                    "type": "uint8"
                }
            ],
            "stateMutability": "view",
            "type": "function"
        },
        {
            "inputs": [],
            "name": "pause",
            "outputs": [],
            "stateMutability": "nonpayable",
            "type": "function"
        },
        {
            "inputs": [],
            "name": "paused",
            "outputs": [
                {
                    "internalType": "bool",
                    "name": "",
                    "type": "bool"
                }
            ],
            "stateMutability": "view",
            "type": "function"
        },
        {
            "inputs": [
                {
                    "internalType": "address",
                    "name": "_l1Contract",
                    "type": "address"
                },
                {
                    "internalType": "address",
                    "name": "_l2Contract",
                    "type": "address"
                },
                {
                    "internalType": "string",
                    "name": "_baseNetwork",
                    "type": "string"
                }
            ],
            "name": "registerNFTPair",
            "outputs": [],
            "stateMutability": "nonpayable",
            "type": "function"
        },
        {
            "inputs": [
                {
                    "internalType": "address",
                    "name": "_newOwner",
                    "type": "address"
                }
            ],
            "name": "transferOwnership",
            "outputs": [],
            "stateMutability": "nonpayable",
            "type": "function"
        },
        {
            "inputs": [],
            "name": "unpause",
            "outputs": [],
            "stateMutability": "nonpayable",
            "type": "function"
        },
        {
            "inputs": [
                {
                    "internalType": "address",
                    "name": "_l2Contract",
                    "type": "address"
                },
                {
                    "internalType": "uint256",
                    "name": "_tokenId",
                    "type": "uint256"
                },
                {
                    "internalType": "uint32",
                    "name": "_l1Gas",
                    "type": "uint32"
                },
                {
                    "internalType": "bytes",
                    "name": "_data",
                    "type": "bytes"
                }
            ],
            "name": "withdraw",
            "outputs": [],
            "stateMutability": "nonpayable",
            "type": "function"
        },
        {
            "inputs": [
                {
                    "internalType": "address",
                    "name": "_l2Contract",
                    "type": "address"
                },
                {
                    "internalType": "address",
                    "name": "_to",
                    "type": "address"
                },
                {
                    "internalType": "uint256",
                    "name": "_tokenId",
                    "type": "uint256"
                },
                {
                    "internalType": "uint32",
                    "name": "_l1Gas",
                    "type": "uint32"
                },
                {
                    "internalType": "bytes",
                    "name": "_data",
                    "type": "bytes"
                }
            ],
            "name": "withdrawTo",
            "outputs": [],
            "stateMutability": "nonpayable",
            "type": "function"
        }
    ],
    "bytecode": "0x608060405234801561001057600080fd5b50600080546001600160a01b0319169055612c71806100306000396000f3fe608060405234801561001057600080fd5b50600436106101515760003560e01c8063662a633a116100cd5780638d62b39411610081578063a3a7954811610066578063a3a795481461036b578063b5e241f11461037e578063f2fde38b1461039157600080fd5b80638d62b394146103455780638da5cb5b1461035857600080fd5b80638456cb59116100b25780638456cb59146102ca57806384d90488146102d2578063863081dd146102e557600080fd5b8063662a633a146102a057806370ac3180146102b357600080fd5b80633cb747bf116101245780633f4ba83a116101095780633f4ba83a1461026f578063485cc955146102775780635c975abb1461028a57600080fd5b80633cb747bf146102105780633ecd54be1461023b57600080fd5b8063150b7a02146101565780632fadea5e146101c357806332b7006d146101e857806334636648146101fd575b600080fd5b61018d610164366004612638565b7f150b7a0200000000000000000000000000000000000000000000000000000000949350505050565b6040517fffffffff0000000000000000000000000000000000000000000000000000000090911681526020015b60405180910390f35b609a546101d39063ffffffff1681565b60405163ffffffff90911681526020016101ba565b6101fb6101f636600461271a565b6103a4565b005b6101fb61020b36600461278b565b61046e565b600054610223906001600160a01b031681565b6040516001600160a01b0390911681526020016101ba565b6102236102493660046127a6565b609b6020908152600092835260408084209091529082529020546001600160a01b031681565b6101fb610591565b6101fb6102853660046127d2565b610609565b60655460ff1660405190151581526020016101ba565b6101fb6102ae36600461280b565b61092b565b6102bc60995481565b6040519081526020016101ba565b6101fb610f2b565b6101fb6102e03660046128a3565b610fa1565b6103366102f3366004612919565b609c60205260009081526040902080546001909101546001600160a01b039182169181169074010000000000000000000000000000000000000000900460ff1683565b6040516101ba9392919061296c565b609854610223906001600160a01b031681565b609754610223906001600160a01b031681565b6101fb6103793660046129c9565b611349565b6101fb61038c366004612a4c565b61140f565b6101fb61039f366004612919565b61159d565b600260015414156103fc5760405162461bcd60e51b815260206004820152601f60248201527f5265656e7472616e637947756172643a207265656e7472616e742063616c6c0060448201526064015b60405180910390fd5b600260015560655460ff16156104545760405162461bcd60e51b815260206004820152601060248201527f5061757361626c653a207061757365640000000000000000000000000000000060448201526064016103f3565b61046385333387878787611645565b505060018055505050565b6097546001600160a01b031633148061049057506097546001600160a01b0316155b6104dc5760405162461bcd60e51b815260206004820152601760248201527f43616c6c6572206973206e6f7420746865206f776e657200000000000000000060448201526064016103f3565b6000546001600160a01b031661055a5760405162461bcd60e51b815260206004820152602560248201527f436f6e747261637420686173206e6f7420796574206265656e20696e6974696160448201527f6c697a656400000000000000000000000000000000000000000000000000000060648201526084016103f3565b609a80547fffffffffffffffffffffffffffffffffffffffffffffffffffffffff000000001663ffffffff92909216919091179055565b6097546001600160a01b03163314806105b357506097546001600160a01b0316155b6105ff5760405162461bcd60e51b815260206004820152601760248201527f43616c6c6572206973206e6f7420746865206f776e657200000000000000000060448201526064016103f3565b610607611dbc565b565b6097546001600160a01b031633148061062b57506097546001600160a01b0316155b6106775760405162461bcd60e51b815260206004820152601760248201527f43616c6c6572206973206e6f7420746865206f776e657200000000000000000060448201526064016103f3565b6000547501000000000000000000000000000000000000000000900460ff16806106bc575060005474010000000000000000000000000000000000000000900460ff16155b61072e5760405162461bcd60e51b815260206004820152602e60248201527f496e697469616c697a61626c653a20636f6e747261637420697320616c72656160448201527f647920696e697469616c697a656400000000000000000000000000000000000060648201526084016103f3565b6000547501000000000000000000000000000000000000000000900460ff1615801561079557600080547fffffffffffffffffffff0000ffffffffffffffffffffffffffffffffffffffff1675010100000000000000000000000000000000000000001790555b6000546001600160a01b0316156108145760405162461bcd60e51b815260206004820152602660248201527f436f6e74726163742068617320616c7265616479206265656e20696e6974696160448201527f6c697a65642e000000000000000000000000000000000000000000000000000060648201526084016103f3565b6001600160a01b0383161580159061083457506001600160a01b03821615155b6108805760405162461bcd60e51b815260206004820152601860248201527f7a65726f2061646472657373206e6f7420616c6c6f776564000000000000000060448201526064016103f3565b600080546001600160a01b038086167fffffffffffffffffffffffff000000000000000000000000000000000000000092831617909255609880549285169282169290921790915560978054909116331790556108df620186a061046e565b6108e7611e76565b6108ef611fc6565b6108f761213d565b801561092657600080547fffffffffffffffffffff00ffffffffffffffffffffffffffffffffffffffffff1690555b505050565b6098546001600160a01b03166109496000546001600160a01b031690565b6001600160a01b0316336001600160a01b0316146109cf5760405162461bcd60e51b815260206004820152602e60248201527f4f564d5f58434841494e3a206d657373656e67657220636f6e7472616374207560448201527f6e61757468656e7469636174656400000000000000000000000000000000000060648201526084016103f3565b806001600160a01b03166109eb6000546001600160a01b031690565b6001600160a01b0316636e296e456040518163ffffffff1660e01b815260040160206040518083038186803b158015610a2357600080fd5b505afa158015610a37573d6000803e3d6000fd5b505050506040513d601f19601f82011682018060405250810190610a5b9190612a65565b6001600160a01b031614610ad75760405162461bcd60e51b815260206004820152603060248201527f4f564d5f58434841494e3a2077726f6e672073656e646572206f662063726f7360448201527f732d646f6d61696e206d6573736167650000000000000000000000000000000060648201526084016103f3565b6001600160a01b0387166000908152609c602052604081209060018281015474010000000000000000000000000000000000000000900460ff1690811115610b2157610b2161293d565b1415610dcc57610b51887f646dd6ec00000000000000000000000000000000000000000000000000000000612290565b8015610be05750876001600160a01b031663663ab59d6040518163ffffffff1660e01b8152600401602060405180830381600087803b158015610b9357600080fd5b505af1158015610ba7573d6000803e3d6000fd5b505050506040513d601f19601f82011682018060405250810190610bcb9190612a65565b6001600160a01b0316896001600160a01b0316145b15610cc0576040517f40c10f190000000000000000000000000000000000000000000000000000000081526001600160a01b038781166004830152602482018790528916906340c10f1990604401600060405180830381600087803b158015610c4857600080fd5b505af1158015610c5c573d6000803e3d6000fd5b50505050866001600160a01b0316886001600160a01b03168a6001600160a01b03167fb0444523268717a02698be47d0803aa7468c00acbed2f8bd93a0459cde61dd8989898989604051610cb39493929190612aad565b60405180910390a4610f20565b60006363e05d9b60e01b8a8a898b8a8a8a604051602401610ce79796959493929190612ad6565b60408051601f198184030181529190526020810180517bffffffffffffffffffffffffffffffffffffffffffffffffffffffff167fffffffff0000000000000000000000000000000000000000000000000000000090931692909217909152609854609a54919250610d6b916001600160a01b039091169063ffffffff16836122b5565b876001600160a01b0316896001600160a01b03168b6001600160a01b03167f7ea89a4591614515571c2b51f5ea06494056f261c10ab1ed8c03c7590d87bce08a8a8a8a604051610dbe9493929190612aad565b60405180910390a450610f20565b6001600160a01b038881166000908152609b602090815260408083208984529091529020548116908a1614610e435760405162461bcd60e51b815260206004820152601160248201527f496e636f7272656374204465706f73697400000000000000000000000000000060448201526064016103f3565b6040517f42842e0e0000000000000000000000000000000000000000000000000000000081523060048201526001600160a01b038781166024830152604482018790528916906342842e0e90606401600060405180830381600087803b158015610eac57600080fd5b505af1158015610ec0573d6000803e3d6000fd5b50505050866001600160a01b0316886001600160a01b03168a6001600160a01b03167fb0444523268717a02698be47d0803aa7468c00acbed2f8bd93a0459cde61dd8989898989604051610f179493929190612aad565b60405180910390a45b505050505050505050565b6097546001600160a01b0316331480610f4d57506097546001600160a01b0316155b610f995760405162461bcd60e51b815260206004820152601760248201527f43616c6c6572206973206e6f7420746865206f776e657200000000000000000060448201526064016103f3565b610607612339565b6097546001600160a01b0316331480610fc357506097546001600160a01b0316155b61100f5760405162461bcd60e51b815260206004820152601760248201527f43616c6c6572206973206e6f7420746865206f776e657200000000000000000060448201526064016103f3565b6001600160a01b038083166000908152609c602052604090208054909116156110a05760405162461bcd60e51b815260206004820152602160248201527f4c31204e4654204164647265737320416c72656164792052656769737465726560448201527f640000000000000000000000000000000000000000000000000000000000000060648201526084016103f3565b6040517f4c31000000000000000000000000000000000000000000000000000000000000602082015260220160405160208183030381529060405280519060200120826040516020016110f39190612b56565b60405160208183030381529060405280519060200120148061117b57506040517f4c32000000000000000000000000000000000000000000000000000000000000602082015260220160405160208183030381529060405280519060200120826040516020016111639190612b56565b60405160208183030381529060405280519060200120145b6111c75760405162461bcd60e51b815260206004820152600f60248201527f496e76616c6964204e6574776f726b000000000000000000000000000000000060448201526064016103f3565b6040517f4c310000000000000000000000000000000000000000000000000000000000006020820152600090602201604051602081830303815290604052805190602001208360405160200161121d9190612b56565b60405160208183030381529060405280519060200120141561124157506000611245565b5060015b6040518060600160405280866001600160a01b03168152602001856001600160a01b031681526020018260018111156112805761128061293d565b90526001600160a01b038086166000908152609c6020908152604091829020845181549085167fffffffffffffffffffffffff000000000000000000000000000000000000000091821617825591850151600180830180549290961693821684178655938601519194919391927fffffffffffffffffffffff00000000000000000000000000000000000000000090911617907401000000000000000000000000000000000000000090849081111561133b5761133b61293d565b021790555050505050505050565b6002600154141561139c5760405162461bcd60e51b815260206004820152601f60248201527f5265656e7472616e637947756172643a207265656e7472616e742063616c6c0060448201526064016103f3565b600260015560655460ff16156113f45760405162461bcd60e51b815260206004820152601060248201527f5061757361626c653a207061757365640000000000000000000000000000000060448201526064016103f3565b61140386338787878787611645565b50506001805550505050565b73420000000000000000000000000000000000000f6001600160a01b0316638da5cb5b6040518163ffffffff1660e01b815260040160206040518083038186803b15801561145c57600080fd5b505afa158015611470573d6000803e3d6000fd5b505050506040513d601f19601f820116820180604052508101906114949190612a65565b6001600160a01b0316336001600160a01b03161461151a5760405162461bcd60e51b815260206004820152602660248201527f43616c6c6572206973206e6f74207468652067617350726963654f7261636c6560448201527f206f776e6572000000000000000000000000000000000000000000000000000060648201526084016103f3565b6000546001600160a01b03166115985760405162461bcd60e51b815260206004820152602560248201527f436f6e747261637420686173206e6f7420796574206265656e20696e6974696160448201527f6c697a656400000000000000000000000000000000000000000000000000000060648201526084016103f3565b609955565b6097546001600160a01b03163314806115bf57506097546001600160a01b0316155b61160b5760405162461bcd60e51b815260206004820152601760248201527f43616c6c6572206973206e6f7420746865206f776e657200000000000000000060448201526064016103f3565b609780547fffffffffffffffffffffffff0000000000000000000000000000000000000000166001600160a01b0392909216919091179055565b60005a905060995481116116c15760405162461bcd60e51b815260206004820152602860248201527f496e73756666696369656e742047617320466f7220612052656c61792054726160448201527f6e73616374696f6e00000000000000000000000000000000000000000000000060648201526084016103f3565b60006116d8609954836123df90919063ffffffff16565b905060005b815a11156116f757806116ef81612ba1565b9150506116dd565b6001600160a01b03808b166000908152609c6020526040902080549091166117615760405162461bcd60e51b815260206004820152601a60248201527f43616e27742046696e64204c31204e465420436f6e747261637400000000000060448201526064016103f3565b600060018281015474010000000000000000000000000000000000000000900460ff16908111156117945761179461293d565b1415611b765760008b6001600160a01b031663663ab59d6040518163ffffffff1660e01b8152600401602060405180830381600087803b1580156117d757600080fd5b505af11580156117eb573d6000803e3d6000fd5b505050506040513d601f19601f8201168201806040525081019061180f9190612a65565b82549091506001600160a01b0380831691161461186e5760405162461bcd60e51b815260206004820152601d60248201527f4c31204e465420436f6e74726163742041646472657373204572726f7200000060448201526064016103f3565b6040517f6352211e000000000000000000000000000000000000000000000000000000008152600481018a90526000906001600160a01b038e1690636352211e9060240160206040518083038186803b1580156118ca57600080fd5b505afa1580156118de573d6000803e3d6000fd5b505050506040513d601f19601f820116820180604052508101906119029190612a65565b9050336001600160a01b03821614806119b457506040517f081812fc000000000000000000000000000000000000000000000000000000008152600481018b905233906001600160a01b038f169063081812fc9060240160206040518083038186803b15801561197157600080fd5b505afa158015611985573d6000803e3d6000fd5b505050506040513d601f19601f820116820180604052508101906119a99190612a65565b6001600160a01b0316145b80611a5257506040517fe985e9c50000000000000000000000000000000000000000000000000000000081526001600160a01b0382811660048301523360248301528e169063e985e9c59060440160206040518083038186803b158015611a1a57600080fd5b505afa158015611a2e573d6000803e3d6000fd5b505050506040513d601f19601f82011682018060405250810190611a529190612bda565b611a5b57600080fd5b6040517f42966c68000000000000000000000000000000000000000000000000000000008152600481018b90526001600160a01b038e16906342966c6890602401600060405180830381600087803b158015611ab657600080fd5b505af1158015611aca573d6000803e3d6000fd5b5050505060606363e05d9b60e01b838f8f8f8f8e8e604051602401611af59796959493929190612ad6565b60408051601f198184030181529190526020810180517bffffffffffffffffffffffffffffffffffffffffffffffffffffffff167fffffffff0000000000000000000000000000000000000000000000000000000090931692909217909152609854909150611b6e906001600160a01b03168b836122b5565b505050611d5e565b333b15611bc55760405162461bcd60e51b815260206004820152600f60248201527f4163636f756e74206e6f7420454f41000000000000000000000000000000000060448201526064016103f3565b6040517f42842e0e0000000000000000000000000000000000000000000000000000000081526001600160a01b038b81166004830152306024830152604482018a90528c16906342842e0e90606401600060405180830381600087803b158015611c2e57600080fd5b505af1158015611c42573d6000803e3d6000fd5b50508254604051600093507f63e05d9b000000000000000000000000000000000000000000000000000000009250611c92916001600160a01b0316908f908f908f908f908e908e90602401612ad6565b60408051601f198184030181529190526020810180517bffffffffffffffffffffffffffffffffffffffffffffffffffffffff167fffffffff0000000000000000000000000000000000000000000000000000000090931692909217909152609854909150611d0b906001600160a01b031689836122b5565b5080546001600160a01b038c81166000908152609b602090815260408083208d8452909152902080547fffffffffffffffffffffffff000000000000000000000000000000000000000016919092161790555b805460405133916001600160a01b038e8116929116907f73d170910aba9e6d50b102db522b1dbcd796216f5128b445aa2135272886497e90611da7908e908e908d908d90612aad565b60405180910390a45050505050505050505050565b60655460ff16611e0e5760405162461bcd60e51b815260206004820152601460248201527f5061757361626c653a206e6f742070617573656400000000000000000000000060448201526064016103f3565b606580547fffffffffffffffffffffffffffffffffffffffffffffffffffffffffffffff001690557f5db9ee0a495bf2e6ff9c91a7834c1ba4fdd244a5e8aa4e537bd38aeae4b073aa335b6040516001600160a01b03909116815260200160405180910390a1565b6000547501000000000000000000000000000000000000000000900460ff1680611ebb575060005474010000000000000000000000000000000000000000900460ff16155b611f2d5760405162461bcd60e51b815260206004820152602e60248201527f496e697469616c697a61626c653a20636f6e747261637420697320616c72656160448201527f647920696e697469616c697a656400000000000000000000000000000000000060648201526084016103f3565b6000547501000000000000000000000000000000000000000000900460ff16158015611f9457600080547fffffffffffffffffffff0000ffffffffffffffffffffffffffffffffffffffff1675010100000000000000000000000000000000000000001790555b8015611fc357600080547fffffffffffffffffffff00ffffffffffffffffffffffffffffffffffffffffff1690555b50565b6000547501000000000000000000000000000000000000000000900460ff168061200b575060005474010000000000000000000000000000000000000000900460ff16155b61207d5760405162461bcd60e51b815260206004820152602e60248201527f496e697469616c697a61626c653a20636f6e747261637420697320616c72656160448201527f647920696e697469616c697a656400000000000000000000000000000000000060648201526084016103f3565b6000547501000000000000000000000000000000000000000000900460ff161580156120e457600080547fffffffffffffffffffff0000ffffffffffffffffffffffffffffffffffffffff1675010100000000000000000000000000000000000000001790555b606580547fffffffffffffffffffffffffffffffffffffffffffffffffffffffffffffff001690558015611fc357600080547fffffffffffffffffffff00ffffffffffffffffffffffffffffffffffffffffff16905550565b6000547501000000000000000000000000000000000000000000900460ff1680612182575060005474010000000000000000000000000000000000000000900460ff16155b6121f45760405162461bcd60e51b815260206004820152602e60248201527f496e697469616c697a61626c653a20636f6e747261637420697320616c72656160448201527f647920696e697469616c697a656400000000000000000000000000000000000060648201526084016103f3565b6000547501000000000000000000000000000000000000000000900460ff1615801561225b57600080547fffffffffffffffffffff0000ffffffffffffffffffffffffffffffffffffffff1675010100000000000000000000000000000000000000001790555b600180558015611fc357600080547fffffffffffffffffffff00ffffffffffffffffffffffffffffffffffffffffff16905550565b600061229b836123eb565b80156122ac57506122ac838361244f565b90505b92915050565b6000546040517f3dbb202b0000000000000000000000000000000000000000000000000000000081526001600160a01b0390911690633dbb202b9061230290869085908790600401612bfc565b600060405180830381600087803b15801561231c57600080fd5b505af1158015612330573d6000803e3d6000fd5b50505050505050565b60655460ff161561238c5760405162461bcd60e51b815260206004820152601060248201527f5061757361626c653a207061757365640000000000000000000000000000000060448201526064016103f3565b606580547fffffffffffffffffffffffffffffffffffffffffffffffffffffffffffffff001660011790557f62e78cea01bee320cd4e420270b5ea74000d11b0c9f74754ebdbfc544b05a258611e593390565b60006122ac8284612c4d565b6000612417827f01ffc9a70000000000000000000000000000000000000000000000000000000061244f565b80156122af5750612448827fffffffff0000000000000000000000000000000000000000000000000000000061244f565b1592915050565b604080517fffffffff00000000000000000000000000000000000000000000000000000000831660248083019190915282518083039091018152604490910182526020810180517bffffffffffffffffffffffffffffffffffffffffffffffffffffffff167f01ffc9a700000000000000000000000000000000000000000000000000000000179052905160009190829081906001600160a01b03871690617530906124fc908690612b56565b6000604051808303818686fa925050503d8060008114612538576040519150601f19603f3d011682016040523d82523d6000602084013e61253d565b606091505b509150915060208151101561255857600093505050506122af565b8180156125745750808060200190518101906125749190612bda565b9695505050505050565b6001600160a01b0381168114611fc357600080fd5b7f4e487b7100000000000000000000000000000000000000000000000000000000600052604160045260246000fd5b600067ffffffffffffffff808411156125dd576125dd612593565b604051601f8501601f19908116603f0116810190828211818310171561260557612605612593565b8160405280935085815286868601111561261e57600080fd5b858560208301376000602087830101525050509392505050565b6000806000806080858703121561264e57600080fd5b84356126598161257e565b935060208501356126698161257e565b925060408501359150606085013567ffffffffffffffff81111561268c57600080fd5b8501601f8101871361269d57600080fd5b6126ac878235602084016125c2565b91505092959194509250565b803563ffffffff811681146126cc57600080fd5b919050565b60008083601f8401126126e357600080fd5b50813567ffffffffffffffff8111156126fb57600080fd5b60208301915083602082850101111561271357600080fd5b9250929050565b60008060008060006080868803121561273257600080fd5b853561273d8161257e565b945060208601359350612752604087016126b8565b9250606086013567ffffffffffffffff81111561276e57600080fd5b61277a888289016126d1565b969995985093965092949392505050565b60006020828403121561279d57600080fd5b6122ac826126b8565b600080604083850312156127b957600080fd5b82356127c48161257e565b946020939093013593505050565b600080604083850312156127e557600080fd5b82356127f08161257e565b915060208301356128008161257e565b809150509250929050565b600080600080600080600060c0888a03121561282657600080fd5b87356128318161257e565b965060208801356128418161257e565b955060408801356128518161257e565b945060608801356128618161257e565b93506080880135925060a088013567ffffffffffffffff81111561288457600080fd5b6128908a828b016126d1565b989b979a50959850939692959293505050565b6000806000606084860312156128b857600080fd5b83356128c38161257e565b925060208401356128d38161257e565b9150604084013567ffffffffffffffff8111156128ef57600080fd5b8401601f8101861361290057600080fd5b61290f868235602084016125c2565b9150509250925092565b60006020828403121561292b57600080fd5b81356129368161257e565b9392505050565b7f4e487b7100000000000000000000000000000000000000000000000000000000600052602160045260246000fd5b6001600160a01b0384811682528316602082015260608101600283106129bb577f4e487b7100000000000000000000000000000000000000000000000000000000600052602160045260246000fd5b826040830152949350505050565b60008060008060008060a087890312156129e257600080fd5b86356129ed8161257e565b955060208701356129fd8161257e565b945060408701359350612a12606088016126b8565b9250608087013567ffffffffffffffff811115612a2e57600080fd5b612a3a89828a016126d1565b979a9699509497509295939492505050565b600060208284031215612a5e57600080fd5b5035919050565b600060208284031215612a7757600080fd5b81516129368161257e565b818352818160208501375060006020828401015260006020601f19601f840116840101905092915050565b6001600160a01b0385168152836020820152606060408201526000612574606083018486612a82565b60006001600160a01b03808a1683528089166020840152808816604084015280871660608401525084608083015260c060a0830152612b1960c083018486612a82565b9998505050505050505050565b60005b83811015612b41578181015183820152602001612b29565b83811115612b50576000848401525b50505050565b60008251612b68818460208701612b26565b9190910192915050565b7f4e487b7100000000000000000000000000000000000000000000000000000000600052601160045260246000fd5b60007fffffffffffffffffffffffffffffffffffffffffffffffffffffffffffffffff821415612bd357612bd3612b72565b5060010190565b600060208284031215612bec57600080fd5b8151801515811461293657600080fd5b6001600160a01b03841681526060602082015260008351806060840152612c2a816080850160208801612b26565b63ffffffff93909316604083015250601f91909101601f19160160800192915050565b600082821015612c5f57612c5f612b72565b50039056fea164736f6c6343000809000a",
    "linkReferences": {},
    "deployedLinkReferences": {}
}