{
  "_format": "hh-sol-artifact-1",
  "contractName": "L1Message",
  "sourceName": "contracts/test-helpers/Message/L1Message.sol",
  "abi": [
    {
      "inputs": [
        {
          "internalType": "address",
          "name": "_l1CrossDomainMessenger",
          "type": "address"
        },
        {
          "internalType": "address",
          "name": "_l1CrossDomainMessengerFast",
          "type": "address"
        }
      ],
      "stateMutability": "nonpayable",
      "type": "constructor"
    },
    {
      "anonymous": false,
      "inputs": [
        {
          "indexed": false,
          "internalType": "string",
          "name": "_message",
          "type": "string"
        }
      ],
      "name": "ReceiveL2Message",
      "type": "event"
    },
    {
      "inputs": [
        {
          "internalType": "address",
          "name": "_L2MessageAddress",
          "type": "address"
        }
      ],
      "name": "init",
      "outputs": [],
      "stateMutability": "nonpayable",
      "type": "function"
    },
    {
      "inputs": [
        {
          "internalType": "string",
          "name": "_message",
          "type": "string"
        }
      ],
      "name": "receiveL2Message",
      "outputs": [],
      "stateMutability": "nonpayable",
      "type": "function"
    },
    {
      "inputs": [],
      "name": "relayerMessenger",
      "outputs": [
        {
          "internalType": "address",
          "name": "",
          "type": "address"
        }
      ],
      "stateMutability": "view",
      "type": "function"
    },
    {
      "inputs": [],
      "name": "sendMessageL1ToL2",
      "outputs": [],
      "stateMutability": "nonpayable",
      "type": "function"
    },
    {
      "inputs": [],
      "name": "senderMessenger",
      "outputs": [
        {
          "internalType": "address",
          "name": "",
          "type": "address"
        }
      ],
      "stateMutability": "view",
      "type": "function"
    }
  ],
  "bytecode": "0x608060405234801561001057600080fd5b5060405161091138038061091183398101604081905261002f9161007c565b600080546001600160a01b039384166001600160a01b031991821617909155600180549290931691161790556100af565b80516001600160a01b038116811461007757600080fd5b919050565b6000806040838503121561008f57600080fd5b61009883610060565b91506100a660208401610060565b90509250929050565b610853806100be6000396000f3fe608060405234801561001057600080fd5b50600436106100675760003560e01c8063818c021e11610050578063818c021e1461010c57806386d4fe001461012c578063db2c4bbc1461013f57600080fd5b806319ab453c1461006c578063508e01c4146100c3575b600080fd5b6100c161007a3660046105f0565b600280547fffffffffffffffffffffffff00000000000000000000000000000000000000001673ffffffffffffffffffffffffffffffffffffffff92909216919091179055565b005b6000546100e39073ffffffffffffffffffffffffffffffffffffffff1681565b60405173ffffffffffffffffffffffffffffffffffffffff909116815260200160405180910390f35b6001546100e39073ffffffffffffffffffffffffffffffffffffffff1681565b6100c161013a366004610643565b610147565b6100c16103e3565b60025473ffffffffffffffffffffffffffffffffffffffff1661017f60015473ffffffffffffffffffffffffffffffffffffffff1690565b73ffffffffffffffffffffffffffffffffffffffff163373ffffffffffffffffffffffffffffffffffffffff161461023e576040517f08c379a000000000000000000000000000000000000000000000000000000000815260206004820152602a60248201527f58434841494e3a206d657373656e67657220636f6e747261637420756e61757460448201527f68656e746963617465640000000000000000000000000000000000000000000060648201526084015b60405180910390fd5b8073ffffffffffffffffffffffffffffffffffffffff1661027460015473ffffffffffffffffffffffffffffffffffffffff1690565b73ffffffffffffffffffffffffffffffffffffffff16636e296e456040518163ffffffff1660e01b815260040160206040518083038186803b1580156102b957600080fd5b505afa1580156102cd573d6000803e3d6000fd5b505050506040513d601f19601f820116820180604052508101906102f19190610712565b73ffffffffffffffffffffffffffffffffffffffff1614610394576040517f08c379a000000000000000000000000000000000000000000000000000000000815260206004820152602c60248201527f58434841494e3a2077726f6e672073656e646572206f662063726f73732d646f60448201527f6d61696e206d65737361676500000000000000000000000000000000000000006064820152608401610235565b81516103a7906003906020850190610535565b507f3d26f43b9306354b74105de7073250c02b94db9621ba15fd7dc0d222eaeda63a826040516103d7919061079a565b60405180910390a15050565b60408051602060248201819052600d60448301527f6d65737361676546726f6d4c310000000000000000000000000000000000000060648084019190915283518084039091018152608490920190925290810180517bffffffffffffffffffffffffffffffffffffffffffffffffffffffff167f56d2d7af000000000000000000000000000000000000000000000000000000001790526002546104a19073ffffffffffffffffffffffffffffffffffffffff1662124f80836104a4565b50565b6000546040517f3dbb202b00000000000000000000000000000000000000000000000000000000815273ffffffffffffffffffffffffffffffffffffffff90911690633dbb202b906104fe908690859087906004016107ad565b600060405180830381600087803b15801561051857600080fd5b505af115801561052c573d6000803e3d6000fd5b50505050505050565b828054610541906107f2565b90600052602060002090601f01602090048101928261056357600085556105a9565b82601f1061057c57805160ff19168380011785556105a9565b828001600101855582156105a9579182015b828111156105a957825182559160200191906001019061058e565b506105b59291506105b9565b5090565b5b808211156105b557600081556001016105ba565b73ffffffffffffffffffffffffffffffffffffffff811681146104a157600080fd5b60006020828403121561060257600080fd5b813561060d816105ce565b9392505050565b7f4e487b7100000000000000000000000000000000000000000000000000000000600052604160045260246000fd5b60006020828403121561065557600080fd5b813567ffffffffffffffff8082111561066d57600080fd5b818401915084601f83011261068157600080fd5b81358181111561069357610693610614565b604051601f82017fffffffffffffffffffffffffffffffffffffffffffffffffffffffffffffffe0908116603f011681019083821181831017156106d9576106d9610614565b816040528281528760208487010111156106f257600080fd5b826020860160208301376000928101602001929092525095945050505050565b60006020828403121561072457600080fd5b815161060d816105ce565b6000815180845260005b8181101561075557602081850181015186830182015201610739565b81811115610767576000602083870101525b50601f017fffffffffffffffffffffffffffffffffffffffffffffffffffffffffffffffe0169290920160200192915050565b60208152600061060d602083018461072f565b73ffffffffffffffffffffffffffffffffffffffff841681526060602082015260006107dc606083018561072f565b905063ffffffff83166040830152949350505050565b600181811c9082168061080657607f821691505b60208210811415610840577f4e487b7100000000000000000000000000000000000000000000000000000000600052602260045260246000fd5b5091905056fea164736f6c6343000808000a",
  "linkReferences": {},
  "deployedLinkReferences": {}
}