{
  "_format": "hh-sol-artifact-1",
  "contractName": "OVM_L1CrossDomainMessengerFast",
  "sourceName": "contracts/OVM_L1CrossDomainMessengerFast.sol",
  "abi": [
    {
      "inputs": [],
      "stateMutability": "nonpayable",
      "type": "constructor"
    },
    {
      "anonymous": false,
      "inputs": [
        {
          "indexed": false,
          "internalType": "bytes32",
          "name": "msgHash",
          "type": "bytes32"
        }
      ],
      "name": "FailedRelayedMessage",
      "type": "event"
    },
    {
      "anonymous": false,
      "inputs": [
        {
          "indexed": false,
          "internalType": "bytes32",
          "name": "msgHash",
          "type": "bytes32"
        }
      ],
      "name": "RelayedMessage",
      "type": "event"
    },
    {
      "anonymous": false,
      "inputs": [
        {
          "indexed": false,
          "internalType": "bytes",
          "name": "message",
          "type": "bytes"
        }
      ],
      "name": "SentMessage",
      "type": "event"
    },
    {
      "inputs": [
        {
          "internalType": "bytes32",
          "name": "",
          "type": "bytes32"
        }
      ],
      "name": "blockedMessages",
      "outputs": [
        {
          "internalType": "bool",
          "name": "",
          "type": "bool"
        }
      ],
      "stateMutability": "view",
      "type": "function"
    },
    {
      "inputs": [
        {
          "internalType": "address",
          "name": "_libAddressManager",
          "type": "address"
        }
      ],
      "name": "initialize",
      "outputs": [],
      "stateMutability": "nonpayable",
      "type": "function"
    },
    {
      "inputs": [],
      "name": "libAddressManager",
      "outputs": [
        {
          "internalType": "contract Lib_AddressManager",
          "name": "",
          "type": "address"
        }
      ],
      "stateMutability": "view",
      "type": "function"
    },
    {
      "inputs": [
        {
          "internalType": "address",
          "name": "_target",
          "type": "address"
        },
        {
          "internalType": "address",
          "name": "_sender",
          "type": "address"
        },
        {
          "internalType": "bytes",
          "name": "_message",
          "type": "bytes"
        },
        {
          "internalType": "uint256",
          "name": "_messageNonce",
          "type": "uint256"
        },
        {
          "components": [
            {
              "internalType": "bytes32",
              "name": "stateRoot",
              "type": "bytes32"
            },
            {
              "components": [
                {
                  "internalType": "uint256",
                  "name": "batchIndex",
                  "type": "uint256"
                },
                {
                  "internalType": "bytes32",
                  "name": "batchRoot",
                  "type": "bytes32"
                },
                {
                  "internalType": "uint256",
                  "name": "batchSize",
                  "type": "uint256"
                },
                {
                  "internalType": "uint256",
                  "name": "prevTotalElements",
                  "type": "uint256"
                },
                {
                  "internalType": "bytes",
                  "name": "extraData",
                  "type": "bytes"
                }
              ],
              "internalType": "struct Lib_OVMCodec.ChainBatchHeader",
              "name": "stateRootBatchHeader",
              "type": "tuple"
            },
            {
              "components": [
                {
                  "internalType": "uint256",
                  "name": "index",
                  "type": "uint256"
                },
                {
                  "internalType": "bytes32[]",
                  "name": "siblings",
                  "type": "bytes32[]"
                }
              ],
              "internalType": "struct Lib_OVMCodec.ChainInclusionProof",
              "name": "stateRootProof",
              "type": "tuple"
            },
            {
              "internalType": "bytes",
              "name": "stateTrieWitness",
              "type": "bytes"
            },
            {
              "internalType": "bytes",
              "name": "storageTrieWitness",
              "type": "bytes"
            }
          ],
          "internalType": "struct iOVM_L1CrossDomainMessenger.L2MessageInclusionProof",
          "name": "_proof",
          "type": "tuple"
        }
      ],
      "name": "relayMessage",
      "outputs": [],
      "stateMutability": "nonpayable",
      "type": "function"
    },
    {
      "inputs": [
        {
          "internalType": "bytes32",
          "name": "",
          "type": "bytes32"
        }
      ],
      "name": "relayedMessages",
      "outputs": [
        {
          "internalType": "bool",
          "name": "",
          "type": "bool"
        }
      ],
      "stateMutability": "view",
      "type": "function"
    },
    {
      "inputs": [
        {
          "internalType": "address",
          "name": "_target",
          "type": "address"
        },
        {
          "internalType": "address",
          "name": "_sender",
          "type": "address"
        },
        {
          "internalType": "bytes",
          "name": "_message",
          "type": "bytes"
        },
        {
          "internalType": "uint256",
          "name": "_queueIndex",
          "type": "uint256"
        },
        {
          "internalType": "uint32",
          "name": "_gasLimit",
          "type": "uint32"
        }
      ],
      "name": "replayMessage",
      "outputs": [],
      "stateMutability": "nonpayable",
      "type": "function"
    },
    {
      "inputs": [
        {
          "internalType": "string",
          "name": "_name",
          "type": "string"
        }
      ],
      "name": "resolve",
      "outputs": [
        {
          "internalType": "address",
          "name": "",
          "type": "address"
        }
      ],
      "stateMutability": "view",
      "type": "function"
    },
    {
      "inputs": [
        {
          "internalType": "address",
          "name": "_target",
          "type": "address"
        },
        {
          "internalType": "bytes",
          "name": "_message",
          "type": "bytes"
        },
        {
          "internalType": "uint32",
          "name": "_gasLimit",
          "type": "uint32"
        }
      ],
      "name": "sendMessage",
      "outputs": [],
      "stateMutability": "nonpayable",
      "type": "function"
    },
    {
      "inputs": [
        {
          "internalType": "bytes32",
          "name": "",
          "type": "bytes32"
        }
      ],
      "name": "successfulMessages",
      "outputs": [
        {
          "internalType": "bool",
          "name": "",
          "type": "bool"
        }
      ],
      "stateMutability": "view",
      "type": "function"
    },
    {
      "inputs": [],
      "name": "xDomainMessageSender",
      "outputs": [
        {
          "internalType": "address",
          "name": "",
          "type": "address"
        }
      ],
      "stateMutability": "view",
      "type": "function"
    }
  ],
  "bytecode": "0x608060405261dead600460006101000a816200001a620000d1565b8173ffffffffffffffffffffffffffffffffffffffff021916908373ffffffffffffffffffffffffffffffffffffffff160217906200005862000136565b5050503480156200007357600080620000706200019d565b50505b506000806000806101000a8162000089620000d1565b8173ffffffffffffffffffffffffffffffffffffffff021916908373ffffffffffffffffffffffffffffffffffffffff16021790620000c762000136565b505050506200020d565b6303daa959598160e01b8152836004820152602081602483336000905af158600e01573d6000803e3d6000fd5b3d6001141558600a015760016000f35b8051935060005b6040811015620001315760008183015260208101905062000115565b505050565b6322bd64c0598160e01b8152836004820152846024820152600081604483336000905af158600e01573d6000803e3d6000fd5b3d6001141558600a015760016000f35b60005b604081101562000198576000818301526020810190506200017c565b505050565b632a2a7adb598160e01b8152600481016020815285602082015260005b86811015620001da578086015181604084010152602081019050620001ba565b506020828760640184336000905af158600e01573d6000803e3d6000fd5b3d6001141558600a015760016000f35b505050565b6141f5806200021d6000396000f3fe608060405234801561001957600080610016612863565b50505b50600436106100a75760003560e01c8063706ceab61161006f578063706ceab61461016d578063b1b1b20914610189578063c4d66de8146101b9578063c6b94ab0146101d5578063d7fd19dd14610205576100a7565b806321d800ec146100b5578063299ca478146100e55780633dbb202b14610103578063461a44781461011f5780636e296e451461014f575b6000806100b2612863565b50505b6100cf60048036038101906100ca919061342d565b610221565b6040516100dc9190613c73565b60405180910390f35b6100ed610248565b6040516100fa9190613cee565b60405180910390f35b61011d60048036038101906101189190613382565b610273565b005b6101396004803603810190610134919061345f565b6102bb565b6040516101469190613bc0565b60405180910390f35b61015761040b565b6040516101649190613bc0565b60405180910390f35b610187600480360381019061018291906132e1565b6104df565b005b6101a3600480360381019061019e919061342d565b61071e565b6040516101b09190613c73565b60405180910390f35b6101d360048036038101906101ce91906131ed565b610745565b005b6101ef60048036038101906101ea919061342d565b61088a565b6040516101fc9190613c73565b60405180910390f35b61021f600480360381019061021a919061321f565b6108b1565b005b60026020528060005260406000206000915061023b6128d1565b906101000a900460ff1681565b6000806102536128d1565b906101000a900473ffffffffffffffffffffffffffffffffffffffff1681565b6040517f08c379a00000000000000000000000000000000000000000000000000000000081526004016102a590613dc9565b604051809103906102b4612863565b5050505050565b6000806000906102c96128d1565b906101000a900473ffffffffffffffffffffffffffffffffffffffff1673ffffffffffffffffffffffffffffffffffffffff1663bf40fac1836040518263ffffffff1660e01b81526004018080602001828103825283818151815260200191508051906020019080838360005b83811015610351578082015181840152602081019050610336565b50505050905090810190601f16801561037e5780820380516001836020036101000a031916815260200191505b50925050506020604051808303818680610396612934565b1580156103ab576000806103a8612863565b50505b505a6103b5612997565b50505050501580156103d4573d6000803e3d60006103d1612863565b50505b505050506040513d60208110156103f3576000806103f0612863565b50505b81019080805190602001909291905050509050919050565b600061dead73ffffffffffffffffffffffffffffffffffffffff1660046000906104336128d1565b906101000a900473ffffffffffffffffffffffffffffffffffffffff1673ffffffffffffffffffffffffffffffffffffffff1614156104b0576040517f08c379a000000000000000000000000000000000000000000000000000000000815260040161049e90613d09565b604051809103906104ad612863565b50505b60046000906104bd6128d1565b906101000a900473ffffffffffffffffffffffffffffffffffffffff16905090565b600061051f6040518060400160405280601d81526020017f4f564d5f43616e6f6e6963616c5472616e73616374696f6e436861696e0000008152506102bb565b905060008173ffffffffffffffffffffffffffffffffffffffff16632a7f18be856040518263ffffffff1660e01b815260040161055c9190613e09565b606060405180830381868061056f612934565b15801561058457600080610581612863565b50505b505a61058e612997565b50505050501580156105ad573d6000803e3d60006105aa612863565b50505b505050506040513d601f19601f820116820180604052508101906105d191906134b2565b905060006106136040518060400160405280601a81526020017f4f564d5f4c3243726f7373446f6d61696e4d657373656e6765720000000000008152506102bb565b905060005a63996d79a5598160e01b8152602081600483336000905af158600e01573d6000803e3d6000fd5b3d6001141558600a015760016000f35b8051925060005b604081101561067057600081830152602081019050610656565b5050508286896040516020016106899493929190613c27565b604051602081830303815290604052805190602001209050826000015181146106f0576040517f08c379a00000000000000000000000000000000000000000000000000000000081526004016106de90613de9565b604051809103906106ed612863565b50505b60006106fe8a8a8a8a610cb9565b90506107128584838963ffffffff16610d59565b50505050505050505050565b6003602052806000526040600020600091506107386128d1565b906101000a900460ff1681565b600073ffffffffffffffffffffffffffffffffffffffff166000806107686128d1565b906101000a900473ffffffffffffffffffffffffffffffffffffffff1673ffffffffffffffffffffffffffffffffffffffff16146107e4576040517f08c379a00000000000000000000000000000000000000000000000000000000081526004016107d290613da9565b604051809103906107e1612863565b50505b806000806101000a816107f56128d1565b8173ffffffffffffffffffffffffffffffffffffffff021916908373ffffffffffffffffffffffffffffffffffffffff16021790610831612a97565b50505061dead600460006101000a816108486128d1565b8173ffffffffffffffffffffffffffffffffffffffff021916908373ffffffffffffffffffffffffffffffffffffffff16021790610884612a97565b50505050565b6001602052806000526040600020600091506108a46128d1565b906101000a900460ff1681565b60006108f16040518060400160405280601481526020017f4f564d5f4c324d65737361676552656c617965720000000000000000000000008152506102bb565b9050600073ffffffffffffffffffffffffffffffffffffffff168173ffffffffffffffffffffffffffffffffffffffff16146109a7578073ffffffffffffffffffffffffffffffffffffffff165a610947612afc565b73ffffffffffffffffffffffffffffffffffffffff16146109a6576040517f08c379a000000000000000000000000000000000000000000000000000000000815260040161099490613d69565b604051809103906109a3612863565b50505b5b60006109b587878787610cb9565b9050600115156109c58285610da2565b151514610a10576040517f08c379a00000000000000000000000000000000000000000000000000000000081526004016109fe90613d89565b60405180910390610a0d612863565b50505b6000818051906020012090506000151560036000838152602001908152602001600020600090610a3e6128d1565b906101000a900460ff16151514610a93576040517f08c379a0000000000000000000000000000000000000000000000000000000008152600401610a8190613d29565b60405180910390610a90612863565b50505b86600460006101000a81610aa56128d1565b8173ffffffffffffffffffffffffffffffffffffffff021916908373ffffffffffffffffffffffffffffffffffffffff16021790610ae1612a97565b50505060008873ffffffffffffffffffffffffffffffffffffffff1687604051610b0b9190613b2d565b6000604051808303816000865a610b20612b59565b5050505050509150503d8060008114610b55576040519150601f19603f3d011682016040523d82523d6000602084013e610b5a565b606091505b5050905061dead600460006101000a81610b726128d1565b8173ffffffffffffffffffffffffffffffffffffffff021916908373ffffffffffffffffffffffffffffffffffffffff16021790610bae612a97565b505050600115158115151415610c325760016003600084815260200190815260200160002060006101000a81610be26128d1565b8160ff02191690831515021790610bf7612a97565b5050507f4641df4a962071e12719d8c8c8e5ac7fc4d97b927346a3d7a335b1f7517e133c82604051610c299190613c8e565b60405180910390a15b6000835a610c3e612afc565b5a610c47612c59565b604051602001610c5993929190613b6c565b60405160208183030381529060405280519060200120905060016002600083815260200190815260200160002060006101000a81610c956128d1565b8160ff02191690831515021790610caa612a97565b50505050505050505050505050565b606084848484604051602401610cd29493929190613bdb565b6040516020818303038152906040527fcbd4ece9000000000000000000000000000000000000000000000000000000007bffffffffffffffffffffffffffffffffffffffffffffffffffffffff19166020820180517bffffffffffffffffffffffffffffffffffffffffffffffffffffffff83818316178352505050509050949350505050565b6040517f08c379a0000000000000000000000000000000000000000000000000000000008152600401610d8b90613dc9565b60405180910390610d9a612863565b505050505050565b6000610dad82610dc7565b8015610dbf5750610dbe8383610ed0565b5b905092915050565b600080610e086040518060400160405280601881526020017f4f564d5f5374617465436f6d6d69746d656e74436861696e00000000000000008152506102bb565b90508073ffffffffffffffffffffffffffffffffffffffff16634d69ee578460000151856020015186604001516040518463ffffffff1660e01b8152600401610e5393929190613ca9565b6020604051808303818680610e66612934565b158015610e7b57600080610e78612863565b50505b505a610e85612997565b5050505050158015610ea4573d6000803e3d6000610ea1612863565b50505b505050506040513d601f19601f82011682018060405250810190610ec891906133fb565b915050919050565b60008083610f126040518060400160405280601a81526020017f4f564d5f4c3243726f7373446f6d61696e4d657373656e6765720000000000008152506102bb565b604051602001610f23929190613b44565b604051602081830303815290604052805190602001206000604051602001610f4c929190613b01565b604051602081830303815290604052805190602001209050600080610fad734200000000000000000000000000000000000000604051602001610f8f9190613acb565b6040516020818303038152906040528660600151876000015161106d565b915091506001151582151514611001576040517f08c379a0000000000000000000000000000000000000000000000000000000008152600401610fef90613d49565b60405180910390610ffe612863565b50505b600061100c82611096565b9050611061846040516020016110229190613ae6565b60405160208183030381529060405260016040516020016110439190613ba5565b60405160208183030381529060405288608001518460400151611144565b94505050505092915050565b60006060600061107c86611169565b9050611089818686611199565b9250925050935093915050565b61109e612cb6565b60006110a98361129e565b905060405180608001604052806110d3836000815181106110c657fe5b60200260200101516112b8565b81526020016110f5836001815181106110e857fe5b60200260200101516112b8565b81526020016111178360028151811061110a57fe5b60200260200101516112cd565b81526020016111398360038151811061112c57fe5b60200260200101516112cd565b815250915050919050565b60008061115086611169565b905061115e81868686611430565b915050949350505050565b606081805190602001206040516020016111839190613ae6565b6040516020818303038152906040529050919050565b6000606060006111a885611463565b905060008060006111ba848a8961154b565b925092509250600080835114905080806111d15750815b61124c576040517f08c379a000000000000000000000000000000000000000000000000000000000815260040180806020018281038252601a8152602001807f50726f76696465642070726f6f6620697320696e76616c69642e00000000000081525060200191505060405180910390611249612863565b50505b6000816112685760405180602001604052806000815250611288565b61128786600187038151811061127a57fe5b6020026020010151611a81565b5b9050818197509750505050505050935093915050565b60606112b16112ac83611ab2565b611ae0565b9050919050565b60006112c3826112cd565b60001c9050919050565b6000602182600001511115611353576040517f08c379a000000000000000000000000000000000000000000000000000000000815260040180806020018281038252601a8152602001807f496e76616c696420524c5020627974657333322076616c75652e00000000000081525060200191505060405180910390611350612863565b50505b600080600061136185611ce5565b9250925092506000600181111561137457fe5b81600181111561138057fe5b146113fc576040517f08c379a000000000000000000000000000000000000000000000000000000000815260040180806020018281038252601a8152602001807f496e76616c696420524c5020627974657333322076616c75652e000000000000815250602001915050604051809103906113f9612863565b50505b6000838660200151019050600081519050602084101561142357836020036101000a810490505b8095505050505050919050565b6000806000611440878686611199565b915091508180156114575750611456868261215a565b5b92505050949350505050565b606060006114708361129e565b90506000815167ffffffffffffffff8111801561149557600080611492612863565b50505b506040519080825280602002602001820160405280156114cf57816020015b6114bc612ce4565b8152602001906001900390816114b45790505b50905060005b82518110156115405760006114fc8483815181106114ef57fe5b6020026020010151612175565b905060405180604001604052808281526020016115188361129e565b81525083838151811061152757fe5b60200260200101819052505080806001019150506114d5565b508092505050919050565b6000606060008060009050600061156187612239565b90506000869050600080611573612ce4565b60005b8c51811015611a31578c818151811061158b57fe5b6020026020010151915082840193506001870196506000841415611637578482600001518051906020012014611632576040517f08c379a00000000000000000000000000000000000000000000000000000000081526004018080602001828103825260118152602001807f496e76616c696420726f6f7420686173680000000000000000000000000000008152506020019150506040518091039061162f612863565b50505b61175e565b6020826000015151106116d25784826000015180519060200120146116cd576040517f08c379a000000000000000000000000000000000000000000000000000000000815260040180806020018281038252601b8152602001807f496e76616c6964206c6172676520696e7465726e616c20686173680000000000815250602001915050604051809103906116ca612863565b50505b61175d565b846116e083600001516123a0565b1461175c576040517f08c379a000000000000000000000000000000000000000000000000000000000815260040180806020018281038252601a8152602001807f496e76616c696420696e7465726e616c206e6f6465206861736800000000000081525060200191505060405180910390611759612863565b50505b5b5b600160100182602001515114156117d057855184141561177d57611a31565b600086858151811061178b57fe5b602001015160f81c60f81b60f81c9050600083602001518260ff16815181106117b057fe5b602002602001015190506117c3816123f5565b9650600194505050611a24565b600282602001515114156119ac5760006117e983612433565b90506000816000815181106117fa57fe5b602001015160f81c60f81b60f81c9050600060028260ff168161181957fe5b066002039050600061182e848360ff16612465565b9050600061183c8b8a612465565b9050600061184a838361249d565b9050600260ff168560ff1614806118675750600360ff168560ff16145b156118bb5780835114801561187c5750808251145b1561188757808a0199505b608060f81b7effffffffffffffffffffffffffffffffffffffffffffffffffffffffffffff19169a50505050505050611a31565b600060ff168560ff1614806118d65750600160ff168560ff16145b15611948578251811461191757608060f81b7effffffffffffffffffffffffffffffffffffffffffffffffffffffffffffff19169a50505050505050611a31565b611938886020015160018151811061192b57fe5b60200260200101516123f5565b9a50809850505050505050611a24565b6040517f08c379a00000000000000000000000000000000000000000000000000000000081526004018080602001828103825260268152602001806141cf602691396040019150506040518091039061199f612863565b5050505050505050611a23565b6040517f08c379a000000000000000000000000000000000000000000000000000000000815260040180806020018281038252601d8152602001807f526563656976656420616e20756e706172736561626c65206e6f64652e00000081525060200191505060405180910390611a20612863565b50505b5b8080600101915050611576565b506000608060f81b7effffffffffffffffffffffffffffffffffffffffffffffffffffffffffffff19168514905086611a6a8786612465565b829950995099505050505050505093509350939050565b6060611aab826020015160018460200151510381518110611a9e57fe5b6020026020010151612175565b9050919050565b611aba612cfe565b600060208301905060405180604001604052808451815260200182815250915050919050565b6060600080611aee84611ce5565b9250509150600180811115611aff57fe5b816001811115611b0b57fe5b14611b87576040517f08c379a00000000000000000000000000000000000000000000000000000000081526004018080602001828103825260178152602001807f496e76616c696420524c50206c6973742076616c75652e00000000000000000081525060200191505060405180910390611b84612863565b50505b6000602067ffffffffffffffff81118015611baa57600080611ba7612863565b50505b50604051908082528060200260200182016040528015611be457816020015b611bd1612cfe565b815260200190600190039081611bc95790505b5090506000808490505b8660000151811015611cd55760208210611c5c576040517f08c379a000000000000000000000000000000000000000000000000000000000815260040180806020018281038252602a8152602001806141a5602a913960400191505060405180910390611c59612863565b50505b600080611c886040518060400160405280858c60000151038152602001858c6020015101815250611ce5565b509150915060405180604001604052808383018152602001848b6020015101815250858581518110611cb657fe5b6020026020010181905250600184019350808201830192505050611bee565b8183528295505050505050919050565b600080600080846000015111611d6c576040517f08c379a00000000000000000000000000000000000000000000000000000000081526004018080602001828103825260188152602001807f524c50206974656d2063616e6e6f74206265206e756c6c2e000000000000000081525060200191505060405180910390611d69612863565b50505b6000846020015190506000815160001a9050607f8111611d99576000600160009450945094505050612153565b60b78111611e3e57600060808203905080876000015111611e2b576040517f08c379a00000000000000000000000000000000000000000000000000000000081526004018080602001828103825260198152602001807f496e76616c696420524c502073686f727420737472696e672e0000000000000081525060200191505060405180910390611e28612863565b50505b6001816000955095509550505050612153565b60bf8111611f7c57600060b78203905080876000015111611ed0576040517f08c379a000000000000000000000000000000000000000000000000000000000815260040180806020018281038252601f8152602001807f496e76616c696420524c50206c6f6e6720737472696e67206c656e6774682e0081525060200191505060405180910390611ecd612863565b50505b6000816020036101000a6001850151049050808201886000015111611f66576040517f08c379a00000000000000000000000000000000000000000000000000000000081526004018080602001828103825260188152602001807f496e76616c696420524c50206c6f6e6720737472696e672e000000000000000081525060200191505060405180910390611f63612863565b50505b8160010181600096509650965050505050612153565b60f7811161202157600060c0820390508087600001511161200e576040517f08c379a00000000000000000000000000000000000000000000000000000000081526004018080602001828103825260178152602001807f496e76616c696420524c502073686f7274206c6973742e0000000000000000008152506020019150506040518091039061200b612863565b50505b6001816001955095509550505050612153565b600060f782039050808760000151116120ab576040517f08c379a000000000000000000000000000000000000000000000000000000000815260040180806020018281038252601d8152602001807f496e76616c696420524c50206c6f6e67206c697374206c656e6774682e000000815250602001915050604051809103906120a8612863565b50505b6000816020036101000a6001850151049050808201886000015111612141576040517f08c379a00000000000000000000000000000000000000000000000000000000081526004018080602001828103825260168152602001807f496e76616c696420524c50206c6f6e67206c6973742e000000000000000000008152506020019150506040518091039061213e612863565b50505b81600101816001965096509650505050505b9193909250565b60008180519060200120838051906020012014905092915050565b6060600080600061218585611ce5565b9250925092506000600181111561219857fe5b8160018111156121a457fe5b14612220576040517f08c379a00000000000000000000000000000000000000000000000000000000081526004018080602001828103825260188152602001807f496e76616c696420524c502062797465732076616c75652e00000000000000008152506020019150506040518091039061221d612863565b50505b61222f8560200151848461254c565b9350505050919050565b60606000600283510267ffffffffffffffff811180156122615760008061225e612863565b50505b506040519080825280601f01601f1916602001820160405280156122945781602001600182028036833780820191505090505b50905060005b83518110156123965760048482815181106122b157fe5b602001015160f81c60f81b7effffffffffffffffffffffffffffffffffffffffffffffffffffffffffffff1916901c8260028302815181106122ef57fe5b60200101907effffffffffffffffffffffffffffffffffffffffffffffffffffffffffffff1916908160001a905350601084828151811061232c57fe5b602001015160f81c60f81b60f81c60ff168161234457fe5b0660f81b82600160028402018151811061235a57fe5b60200101907effffffffffffffffffffffffffffffffffffffffffffffffffffffffffffff1916908160001a905350808060010191505061229a565b5080915050919050565b60006020825110156123be57600060208301519050809150506123f0565b8180602001905160208110156123dc576000806123d9612863565b50505b810190808051906020019092919050505090505b919050565b600060606020836000015110156124165761240f8361262f565b9050612422565b61241f83612175565b90505b61242b816123a0565b915050919050565b606061245e612459836020015160008151811061244c57fe5b6020026020010151612175565b612239565b9050919050565b60608251821061248657604051806020016040528060008152509050612497565b612494838384865103612641565b90505b92915050565b600080600090505b8084511180156124b55750808351115b801561253057508281815181106124c857fe5b602001015160f81c60f81b7effffffffffffffffffffffffffffffffffffffffffffffffffffffffffffff191684828151811061250157fe5b602001015160f81c60f81b7effffffffffffffffffffffffffffffffffffffffffffffffffffffffffffff1916145b156125425780806001019150506124a5565b8091505092915050565b606060008267ffffffffffffffff811180156125705760008061256d612863565b50505b506040519080825280601f01601f1916602001820160405280156125a35781602001600182028036833780820191505090505b5090506000815114156125b95780915050612628565b60008486019050600060208301905060005b602086816125d557fe5b048110156125fa578251825260208301925060208201915080806001019150506125cb565b50600060016020878161260957fe5b066020036101000a039050808251168119845116178252839450505050505b9392505050565b606061263a82612846565b9050919050565b606081601f830110156126c5576040517f08c379a000000000000000000000000000000000000000000000000000000000815260040180806020018281038252600e8152602001807f736c6963655f6f766572666c6f77000000000000000000000000000000000000815250602001915050604051809103906126c2612863565b50505b828284011015612746576040517f08c379a000000000000000000000000000000000000000000000000000000000815260040180806020018281038252600e8152602001807f736c6963655f6f766572666c6f7700000000000000000000000000000000000081525060200191505060405180910390612743612863565b50505b818301845110156127c8576040517f08c379a00000000000000000000000000000000000000000000000000000000081526004018080602001828103825260118152602001807f736c6963655f6f75744f66426f756e6473000000000000000000000000000000815250602001915050604051809103906127c5612863565b50505b60608215600081146127e9576040519150600082526020820160405261283a565b6040519150601f8416801560200281840101858101878315602002848b0101015b81831015612827578051835260208301925060208101905061280a565b50868552601f19601f8301166040525050505b50809150509392505050565b606061285c82602001516000846000015161254c565b9050919050565b632a2a7adb598160e01b8152600481016020815285602082015260005b8681101561289e578086015181604084010152602081019050612880565b506020828760640184336000905af158600e01573d6000803e3d6000fd5b3d6001141558600a015760016000f35b505050565b6303daa959598160e01b8152836004820152602081602483336000905af158600e01573d6000803e3d6000fd5b3d6001141558600a015760016000f35b8051935060005b604081101561292f57600081830152602081019050612915565b505050565b638435035b598160e01b8152836004820152602081602483336000905af158600e01573d6000803e3d6000fd5b3d6001141558600a015760016000f35b8051935060005b604081101561299257600081830152602081019050612978565b505050565b638540661f598160e01b81526129d6565b6000819050818311156129b9578290505b92915050565b6000819050818310156129d0578290505b92915050565b836004820152846024820152606060448201528660648201526084810160005b88811015612a115780880151818301526020810190506129f6565b506060828960a40184336000905af158600e01573d6000803e3d6000fd5b3d6001141558600a015760016000f35b815160408301513d6000853e8b8b82606087013350600060045af15059612a668d3d6129bf565b8c01612a7281876129a8565b5b82811015612a8a5760008152602081019050612a73565b50839d5050505050505050565b6322bd64c0598160e01b8152836004820152846024820152600081604483336000905af158600e01573d6000803e3d6000fd5b3d6001141558600a015760016000f35b60005b6040811015612af757600081830152602081019050612add565b505050565b6373509064598160e01b8152602081600483336000905af158600e01573d6000803e3d6000fd5b3d6001141558600a015760016000f35b8051935060005b6040811015612b5457600081830152602081019050612b3a565b505050565b6385979f76598160e01b8152612b98565b600081905081831115612b7b578290505b92915050565b600081905081831015612b92578290505b92915050565b836004820152846024820152606060448201528760648201526084810160005b89811015612bd3578089015181830152602081019050612bb8565b506060828a60a40184336000905af158600e01573d6000803e3d6000fd5b3d6001141558600a015760016000f35b815160408301513d6000853e8c8c82606087013350600060045af15059612c288e3d612b81565b8d01612c348187612b6a565b5b82811015612c4c5760008152602081019050612c35565b50839e5050505050505050565b635a98c361598160e01b8152602081600483336000905af158600e01573d6000803e3d6000fd5b3d6001141558600a015760016000f35b8051935060005b6040811015612cb157600081830152602081019050612c97565b505050565b6040518060800160405280600081526020016000815260200160008019168152602001600080191681525090565b604051806040016040528060608152602001606081525090565b604051806040016040528060008152602001600081525090565b6000612d2b612d2684613e55565b613e24565b90508083825260208201905082856020860282011115612d5357600080612d50612863565b50505b60005b85811015612d835781612d698882612e78565b845260208401935060208301925050600181019050612d56565b5050509392505050565b6000612da0612d9b84613e81565b613e24565b905082815260208101848484011115612dc157600080612dbe612863565b50505b612dcc848285614019565b509392505050565b6000612de7612de284613eb1565b613e24565b905082815260208101848484011115612e0857600080612e05612863565b50505b612e13848285614019565b509392505050565b600081359050612e2a816140e4565b92915050565b600082601f830112612e4a57600080612e47612863565b50505b8135612e5a848260208601612d18565b91505092915050565b600081519050612e7281614104565b92915050565b600081359050612e8781614124565b92915050565b600081519050612e9c81614124565b92915050565b600082601f830112612ebc57600080612eb9612863565b50505b8135612ecc848260208601612d8d565b91505092915050565b600082601f830112612eef57600080612eec612863565b50505b8135612eff848260208601612dd4565b91505092915050565b600060a08284031215612f2357600080612f20612863565b50505b612f2d60a0613e24565b90506000612f3d848285016131ae565b6000830152506020612f5184828501612e78565b6020830152506040612f65848285016131ae565b6040830152506060612f79848285016131ae565b606083015250608082013567ffffffffffffffff811115612fa257600080612f9f612863565b50505b612fae84828501612ea2565b60808301525092915050565b600060408284031215612fd557600080612fd2612863565b50505b612fdf6040613e24565b90506000612fef848285016131ae565b600083015250602082013567ffffffffffffffff81111561301857600080613015612863565b50505b61302484828501612e30565b60208301525092915050565b600060a0828403121561304b57600080613048612863565b50505b61305560a0613e24565b9050600061306584828501612e78565b600083015250602082013567ffffffffffffffff81111561308e5760008061308b612863565b50505b61309a84828501612f08565b602083015250604082013567ffffffffffffffff8111156130c3576000806130c0612863565b50505b6130cf84828501612fba565b604083015250606082013567ffffffffffffffff8111156130f8576000806130f5612863565b50505b61310484828501612ea2565b606083015250608082013567ffffffffffffffff81111561312d5760008061312a612863565b50505b61313984828501612ea2565b60808301525092915050565b6000606082840312156131605760008061315d612863565b50505b61316a6060613e24565b9050600061317a84828501612e8d565b600083015250602061318e848285016131d8565b60208301525060406131a2848285016131d8565b60408301525092915050565b6000813590506131bd81614144565b92915050565b6000813590506131d281614164565b92915050565b6000815190506131e781614184565b92915050565b60006020828403121561320857600080613205612863565b50505b600061321684828501612e1b565b91505092915050565b600080600080600060a086880312156132405760008061323d612863565b50505b600061324e88828901612e1b565b955050602061325f88828901612e1b565b945050604086013567ffffffffffffffff81111561328557600080613282612863565b50505b61329188828901612ea2565b93505060606132a2888289016131ae565b925050608086013567ffffffffffffffff8111156132c8576000806132c5612863565b50505b6132d488828901613030565b9150509295509295909350565b600080600080600060a08688031215613302576000806132ff612863565b50505b600061331088828901612e1b565b955050602061332188828901612e1b565b945050604086013567ffffffffffffffff81111561334757600080613344612863565b50505b61335388828901612ea2565b9350506060613364888289016131ae565b9250506080613375888289016131c3565b9150509295509295909350565b6000806000606084860312156133a05760008061339d612863565b50505b60006133ae86828701612e1b565b935050602084013567ffffffffffffffff8111156133d4576000806133d1612863565b50505b6133e086828701612ea2565b92505060406133f1868287016131c3565b9150509250925092565b60006020828403121561341657600080613413612863565b50505b600061342484828501612e63565b91505092915050565b60006020828403121561344857600080613445612863565b50505b600061345684828501612e78565b91505092915050565b60006020828403121561347a57600080613477612863565b50505b600082013567ffffffffffffffff81111561349d5760008061349a612863565b50505b6134a984828501612ed5565b91505092915050565b6000606082840312156134cd576000806134ca612863565b50505b60006134db84828501613145565b91505092915050565b60006134f083836135a6565b60208301905092915050565b61350d61350882613f75565b61406d565b82525050565b61351c81613f63565b82525050565b61353361352e82613f63565b61405b565b82525050565b600061354482613ef1565b61354e8185613f14565b935061355983613ee1565b8060005b8381101561358a57815161357188826134e4565b975061357c83613f07565b92505060018101905061355d565b5085935050505092915050565b6135a081613f87565b82525050565b6135af81613f93565b82525050565b6135be81613f93565b82525050565b6135d56135d082613f93565b61407f565b82525050565b60006135e682613efc565b6135f08185613f25565b9350613600818560208601614028565b613609816140b9565b840191505092915050565b600061361f82613efc565b6136298185613f36565b9350613639818560208601614028565b613642816140b9565b840191505092915050565b600061365882613efc565b6136628185613f47565b9350613672818560208601614028565b80840191505092915050565b61368781613ff5565b82525050565b600061369a601f83613f52565b91507f78446f6d61696e4d65737361676553656e646572206973206e6f7420736574006000830152602082019050919050565b60006136da602b83613f52565b91507f50726f7669646564206d6573736167652068617320616c72656164792062656560008301527f6e2072656365697665642e0000000000000000000000000000000000000000006020830152604082019050919050565b6000613740604d83613f52565b91507f4d6573736167652070617373696e67207072656465706c6f7920686173206e6f60008301527f74206265656e20696e697469616c697a6564206f7220696e76616c696420707260208301527f6f6f662070726f76696465642e000000000000000000000000000000000000006040830152606082019050919050565b60006137cc603683613f52565b91507f4f6e6c79204f564d5f4c324d65737361676552656c617965722063616e20726560008301527f6c6179204c322d746f2d4c31206d657373616765732e000000000000000000006020830152604082019050919050565b6000613832602783613f52565b91507f50726f7669646564206d65737361676520636f756c64206e6f7420626520766560008301527f7269666965642e000000000000000000000000000000000000000000000000006020830152604082019050919050565b6000613898602a83613f52565b91507f4c3143726f7373446f6d61696e4d657373656e67657220616c7265616479206960008301527f6e7469616c697a65642e000000000000000000000000000000000000000000006020830152604082019050919050565b60006138fe602683613f52565b91507f53656e64696e67207669612074686973206d657373656e67657220697320646960008301527f7361626c656400000000000000000000000000000000000000000000000000006020830152604082019050919050565b6000613964602783613f52565b91507f50726f7669646564206d65737361676520686173206e6f74206265656e20656e60008301527f7175657565642e000000000000000000000000000000000000000000000000006020830152604082019050919050565b600060a0830160008301516139d56000860182613a70565b5060208301516139e860208601826135a6565b5060408301516139fb6040860182613a70565b506060830151613a0e6060860182613a70565b5060808301518482036080860152613a2682826135db565b9150508091505092915050565b6000604083016000830151613a4b6000860182613a70565b5060208301518482036020860152613a638282613539565b9150508091505092915050565b613a7981613fbd565b82525050565b613a8881613fbd565b82525050565b613a9f613a9a82613fbd565b61409b565b82525050565b613aae81613fc7565b82525050565b613ac5613ac082613fe8565b6140a5565b82525050565b6000613ad78284613522565b60148201915081905092915050565b6000613af282846135c4565b60208201915081905092915050565b6000613b0d82856135c4565b602082019150613b1d8284613a8e565b6020820191508190509392505050565b6000613b39828461364d565b915081905092915050565b6000613b50828561364d565b9150613b5c8284613522565b6014820191508190509392505050565b6000613b78828661364d565b9150613b8482856134fc565b601482019150613b948284613a8e565b602082019150819050949350505050565b6000613bb18284613ab4565b60018201915081905092915050565b6000602082019050613bd56000830184613513565b92915050565b6000608082019050613bf06000830187613513565b613bfd6020830186613513565b8181036040830152613c0f8185613614565b9050613c1e6060830184613a7f565b95945050505050565b6000608082019050613c3c6000830187613513565b613c496020830186613513565b613c566040830185613aa5565b8181036060830152613c688184613614565b905095945050505050565b6000602082019050613c886000830184613597565b92915050565b6000602082019050613ca360008301846135b5565b92915050565b6000606082019050613cbe60008301866135b5565b8181036020830152613cd081856139bd565b90508181036040830152613ce48184613a33565b9050949350505050565b6000602082019050613d03600083018461367e565b92915050565b60006020820190508181036000830152613d228161368d565b9050919050565b60006020820190508181036000830152613d42816136cd565b9050919050565b60006020820190508181036000830152613d6281613733565b9050919050565b60006020820190508181036000830152613d82816137bf565b9050919050565b60006020820190508181036000830152613da281613825565b9050919050565b60006020820190508181036000830152613dc28161388b565b9050919050565b60006020820190508181036000830152613de2816138f1565b9050919050565b60006020820190508181036000830152613e0281613957565b9050919050565b6000602082019050613e1e6000830184613a7f565b92915050565b6000604051905081810181811067ffffffffffffffff82111715613e4b57613e4a6140b7565b5b8060405250919050565b600067ffffffffffffffff821115613e7057613e6f6140b7565b5b602082029050602081019050919050565b600067ffffffffffffffff821115613e9c57613e9b6140b7565b5b601f19601f8301169050602081019050919050565b600067ffffffffffffffff821115613ecc57613ecb6140b7565b5b601f19601f8301169050602081019050919050565b6000819050602082019050919050565b600081519050919050565b600081519050919050565b6000602082019050919050565b600082825260208201905092915050565b600082825260208201905092915050565b600082825260208201905092915050565b600081905092915050565b600082825260208201905092915050565b6000613f6e82613f9d565b9050919050565b6000613f8082613f9d565b9050919050565b60008115159050919050565b6000819050919050565b600073ffffffffffffffffffffffffffffffffffffffff82169050919050565b6000819050919050565b600063ffffffff82169050919050565b600064ffffffffff82169050919050565b600060ff82169050919050565b600061400082614007565b9050919050565b600061401282613f9d565b9050919050565b82818337600083830152505050565b60005b8381101561404657808201518184015260208101905061402b565b83811115614055576000848401525b50505050565b600061406682614089565b9050919050565b600061407882614089565b9050919050565b6000819050919050565b6000614094826140d7565b9050919050565b6000819050919050565b60006140b0826140ca565b9050919050565bfe5b6000601f19601f8301169050919050565b60008160f81b9050919050565b60008160601b9050919050565b6140ed81613f63565b8114614101576000806140fe612863565b50505b50565b61410d81613f87565b81146141215760008061411e612863565b50505b50565b61412d81613f93565b81146141415760008061413e612863565b50505b50565b61414d81613fbd565b81146141615760008061415e612863565b50505b50565b61416d81613fc7565b81146141815760008061417e612863565b50505b50565b61418d81613fd7565b81146141a15760008061419e612863565b50505b5056fe50726f766964656420524c50206c6973742065786365656473206d6178206c697374206c656e6774682e52656365697665642061206e6f6465207769746820616e20756e6b6e6f776e20707265666978",
  "linkReferences": {},
  "deployedLinkReferences": {}
}