{
  "_format": "hh-sol-artifact-1",
  "contractName": "L2NFTBridge",
  "sourceName": "contracts/bridges/L2NFTBridge.sol",
  "abi": [
    {
      "inputs": [],
      "stateMutability": "nonpayable",
      "type": "constructor"
    },
    {
      "anonymous": false,
      "inputs": [
        {
          "indexed": true,
          "internalType": "address",
          "name": "_l1Token",
          "type": "address"
        },
        {
          "indexed": true,
          "internalType": "address",
          "name": "_l2Token",
          "type": "address"
        },
        {
          "indexed": true,
          "internalType": "address",
          "name": "_from",
          "type": "address"
        },
        {
          "indexed": false,
          "internalType": "address",
          "name": "_to",
          "type": "address"
        },
        {
          "indexed": false,
          "internalType": "uint256",
          "name": "_tokenId",
          "type": "uint256"
        },
        {
          "indexed": false,
          "internalType": "bytes",
          "name": "_data",
          "type": "bytes"
        }
      ],
      "name": "DepositFailed",
      "type": "event"
    },
    {
      "anonymous": false,
      "inputs": [
        {
          "indexed": true,
          "internalType": "address",
          "name": "_l1Token",
          "type": "address"
        },
        {
          "indexed": true,
          "internalType": "address",
          "name": "_l2Token",
          "type": "address"
        },
        {
          "indexed": true,
          "internalType": "address",
          "name": "_from",
          "type": "address"
        },
        {
          "indexed": false,
          "internalType": "address",
          "name": "_to",
          "type": "address"
        },
        {
          "indexed": false,
          "internalType": "uint256",
          "name": "_tokenId",
          "type": "uint256"
        },
        {
          "indexed": false,
          "internalType": "bytes",
          "name": "_data",
          "type": "bytes"
        }
      ],
      "name": "DepositFinalized",
      "type": "event"
    },
    {
      "anonymous": false,
      "inputs": [
        {
          "indexed": true,
          "internalType": "address",
          "name": "_l1Token",
          "type": "address"
        },
        {
          "indexed": true,
          "internalType": "address",
          "name": "_l2Token",
          "type": "address"
        },
        {
          "indexed": true,
          "internalType": "address",
          "name": "_from",
          "type": "address"
        },
        {
          "indexed": false,
          "internalType": "address",
          "name": "_to",
          "type": "address"
        },
        {
          "indexed": false,
          "internalType": "uint256",
          "name": "_tokenId",
          "type": "uint256"
        },
        {
          "indexed": false,
          "internalType": "bytes",
          "name": "_data",
          "type": "bytes"
        }
      ],
      "name": "WithdrawalInitiated",
      "type": "event"
    },
    {
      "inputs": [
        {
          "internalType": "address",
          "name": "_l1Contract",
          "type": "address"
        },
        {
          "internalType": "address",
          "name": "_l2Contract",
          "type": "address"
        },
        {
          "internalType": "address",
          "name": "_from",
          "type": "address"
        },
        {
          "internalType": "address",
          "name": "_to",
          "type": "address"
        },
        {
          "internalType": "uint256",
          "name": "_tokenId",
          "type": "uint256"
        },
        {
          "internalType": "bytes",
          "name": "_data",
          "type": "bytes"
        }
      ],
      "name": "finalizeDeposit",
      "outputs": [],
      "stateMutability": "nonpayable",
      "type": "function"
    },
    {
      "inputs": [
        {
          "internalType": "address",
          "name": "_l2CrossDomainMessenger",
          "type": "address"
        },
        {
          "internalType": "address",
          "name": "_l1NFTBridge",
          "type": "address"
        }
      ],
      "name": "initialize",
      "outputs": [],
      "stateMutability": "nonpayable",
      "type": "function"
    },
    {
      "inputs": [],
      "name": "l1NFTBridge",
      "outputs": [
        {
          "internalType": "address",
          "name": "",
          "type": "address"
        }
      ],
      "stateMutability": "view",
      "type": "function"
    },
    {
      "inputs": [],
      "name": "messenger",
      "outputs": [
        {
          "internalType": "address",
          "name": "",
          "type": "address"
        }
      ],
      "stateMutability": "view",
      "type": "function"
    },
    {
      "inputs": [
        {
          "internalType": "address",
          "name": "_l2Contract",
          "type": "address"
        },
        {
          "internalType": "uint256",
          "name": "_tokenId",
          "type": "uint256"
        },
        {
          "internalType": "uint32",
          "name": "_l1Gas",
          "type": "uint32"
        },
        {
          "internalType": "bytes",
          "name": "_data",
          "type": "bytes"
        }
      ],
      "name": "withdraw",
      "outputs": [],
      "stateMutability": "nonpayable",
      "type": "function"
    },
    {
      "inputs": [
        {
          "internalType": "address",
          "name": "_l2Contract",
          "type": "address"
        },
        {
          "internalType": "address",
          "name": "_to",
          "type": "address"
        },
        {
          "internalType": "uint256",
          "name": "_tokenId",
          "type": "uint256"
        },
        {
          "internalType": "uint32",
          "name": "_l1Gas",
          "type": "uint32"
        },
        {
          "internalType": "bytes",
          "name": "_data",
          "type": "bytes"
        }
      ],
      "name": "withdrawTo",
      "outputs": [],
      "stateMutability": "nonpayable",
      "type": "function"
    }
  ],
  "bytecode": "0x608060405234801561001057600080fd5b50600080546001600160a01b0319169055611313806100306000396000f3fe608060405234801561001057600080fd5b50600436106100725760003560e01c8063662a633a11610050578063662a633a146100e85780638d62b394146100fb578063a3a795481461011b57600080fd5b806332b7006d146100775780633cb747bf1461008c578063485cc955146100d5575b600080fd5b61008a610085366004610f57565b61012e565b005b6000546100ac9073ffffffffffffffffffffffffffffffffffffffff1681565b60405173ffffffffffffffffffffffffffffffffffffffff909116815260200160405180910390f35b61008a6100e3366004610fc8565b610144565b61008a6100f6366004611001565b610242565b6001546100ac9073ffffffffffffffffffffffffffffffffffffffff1681565b61008a610129366004611099565b6107d8565b61013d853333878787876107ef565b5050505050565b60005473ffffffffffffffffffffffffffffffffffffffff16156101ef576040517f08c379a000000000000000000000000000000000000000000000000000000000815260206004820152602660248201527f436f6e74726163742068617320616c7265616479206265656e20696e6974696160448201527f6c697a65642e000000000000000000000000000000000000000000000000000060648201526084015b60405180910390fd5b6000805473ffffffffffffffffffffffffffffffffffffffff9384167fffffffffffffffffffffffff00000000000000000000000000000000000000009182161790915560018054929093169116179055565b60015473ffffffffffffffffffffffffffffffffffffffff1661027a60005473ffffffffffffffffffffffffffffffffffffffff1690565b73ffffffffffffffffffffffffffffffffffffffff163373ffffffffffffffffffffffffffffffffffffffff1614610334576040517f08c379a000000000000000000000000000000000000000000000000000000000815260206004820152602e60248201527f4f564d5f58434841494e3a206d657373656e67657220636f6e7472616374207560448201527f6e61757468656e7469636174656400000000000000000000000000000000000060648201526084016101e6565b8073ffffffffffffffffffffffffffffffffffffffff1661036a60005473ffffffffffffffffffffffffffffffffffffffff1690565b73ffffffffffffffffffffffffffffffffffffffff16636e296e456040518163ffffffff1660e01b815260040160206040518083038186803b1580156103af57600080fd5b505afa1580156103c3573d6000803e3d6000fd5b505050506040513d601f19601f820116820180604052508101906103e7919061111c565b73ffffffffffffffffffffffffffffffffffffffff161461048a576040517f08c379a000000000000000000000000000000000000000000000000000000000815260206004820152603060248201527f4f564d5f58434841494e3a2077726f6e672073656e646572206f662063726f7360448201527f732d646f6d61696e206d6573736167650000000000000000000000000000000060648201526084016101e6565b6104b4877f646dd6ec00000000000000000000000000000000000000000000000000000000610c7a565b801561056a57508673ffffffffffffffffffffffffffffffffffffffff1663663ab59d6040518163ffffffff1660e01b8152600401602060405180830381600087803b15801561050357600080fd5b505af1158015610517573d6000803e3d6000fd5b505050506040513d601f19601f8201168201806040525081019061053b919061111c565b73ffffffffffffffffffffffffffffffffffffffff168873ffffffffffffffffffffffffffffffffffffffff16145b1561067e576040517f40c10f1900000000000000000000000000000000000000000000000000000000815273ffffffffffffffffffffffffffffffffffffffff8681166004830152602482018690528816906340c10f1990604401600060405180830381600087803b1580156105df57600080fd5b505af11580156105f3573d6000803e3d6000fd5b505050508573ffffffffffffffffffffffffffffffffffffffff168773ffffffffffffffffffffffffffffffffffffffff168973ffffffffffffffffffffffffffffffffffffffff167fb0444523268717a02698be47d0803aa7468c00acbed2f8bd93a0459cde61dd89888888886040516106719493929190611189565b60405180910390a46107ce565b60006363e05d9b60e01b8989888a8989896040516024016106a597969594939291906111bf565b604080517fffffffffffffffffffffffffffffffffffffffffffffffffffffffffffffffe08184030181529190526020810180517bffffffffffffffffffffffffffffffffffffffffffffffffffffffff167fffffffff000000000000000000000000000000000000000000000000000000009093169290921790915260015490915061074a9073ffffffffffffffffffffffffffffffffffffffff16600083610c9f565b8673ffffffffffffffffffffffffffffffffffffffff168873ffffffffffffffffffffffffffffffffffffffff168a73ffffffffffffffffffffffffffffffffffffffff167f7ea89a4591614515571c2b51f5ea06494056f261c10ab1ed8c03c7590d87bce0898989896040516107c49493929190611189565b60405180910390a4505b5050505050505050565b6107e7863387878787876107ef565b505050505050565b6040517f6352211e0000000000000000000000000000000000000000000000000000000081526004810185905260009073ffffffffffffffffffffffffffffffffffffffff891690636352211e9060240160206040518083038186803b15801561085857600080fd5b505afa15801561086c573d6000803e3d6000fd5b505050506040513d601f19601f82011682018060405250810190610890919061111c565b90503373ffffffffffffffffffffffffffffffffffffffff8216148061096957506040517f081812fc00000000000000000000000000000000000000000000000000000000815260048101869052339073ffffffffffffffffffffffffffffffffffffffff8a169063081812fc9060240160206040518083038186803b15801561091957600080fd5b505afa15801561092d573d6000803e3d6000fd5b505050506040513d601f19601f82011682018060405250810190610951919061111c565b73ffffffffffffffffffffffffffffffffffffffff16145b80610a1457506040517fe985e9c500000000000000000000000000000000000000000000000000000000815273ffffffffffffffffffffffffffffffffffffffff828116600483015233602483015289169063e985e9c59060440160206040518083038186803b1580156109dc57600080fd5b505afa1580156109f0573d6000803e3d6000fd5b505050506040513d601f19601f82011682018060405250810190610a14919061121c565b610a1d57600080fd5b6040517f42966c680000000000000000000000000000000000000000000000000000000081526004810186905273ffffffffffffffffffffffffffffffffffffffff8916906342966c6890602401600060405180830381600087803b158015610a8557600080fd5b505af1158015610a99573d6000803e3d6000fd5b5050505060008873ffffffffffffffffffffffffffffffffffffffff1663663ab59d6040518163ffffffff1660e01b8152600401602060405180830381600087803b158015610ae757600080fd5b505af1158015610afb573d6000803e3d6000fd5b505050506040513d601f19601f82011682018060405250810190610b1f919061111c565b905060606363e05d9b60e01b828b8b8b8b8a8a604051602401610b4897969594939291906111bf565b604080517fffffffffffffffffffffffffffffffffffffffffffffffffffffffffffffffe08184030181529190526020810180517bffffffffffffffffffffffffffffffffffffffffffffffffffffffff167fffffffff0000000000000000000000000000000000000000000000000000000090931692909217909152600154909150610bec9073ffffffffffffffffffffffffffffffffffffffff168783610c9f565b3373ffffffffffffffffffffffffffffffffffffffff168a73ffffffffffffffffffffffffffffffffffffffff168373ffffffffffffffffffffffffffffffffffffffff167f73d170910aba9e6d50b102db522b1dbcd796216f5128b445aa2135272886497e8b8b8a8a604051610c669493929190611189565b60405180910390a450505050505050505050565b6000610c8583610d30565b8015610c965750610c968383610d94565b90505b92915050565b6000546040517f3dbb202b00000000000000000000000000000000000000000000000000000000815273ffffffffffffffffffffffffffffffffffffffff90911690633dbb202b90610cf99086908590879060040161126e565b600060405180830381600087803b158015610d1357600080fd5b505af1158015610d27573d6000803e3d6000fd5b50505050505050565b6000610d5c827f01ffc9a700000000000000000000000000000000000000000000000000000000610d94565b8015610c995750610d8d827fffffffff00000000000000000000000000000000000000000000000000000000610d94565b1592915050565b604080517fffffffff00000000000000000000000000000000000000000000000000000000831660248083019190915282518083039091018152604490910182526020810180517bffffffffffffffffffffffffffffffffffffffffffffffffffffffff167f01ffc9a7000000000000000000000000000000000000000000000000000000001790529051600091908290819073ffffffffffffffffffffffffffffffffffffffff87169061753090610e4e9086906112ea565b6000604051808303818686fa925050503d8060008114610e8a576040519150601f19603f3d011682016040523d82523d6000602084013e610e8f565b606091505b5091509150602081511015610eaa5760009350505050610c99565b818015610ec6575080806020019051810190610ec6919061121c565b9695505050505050565b73ffffffffffffffffffffffffffffffffffffffff81168114610ef257600080fd5b50565b803563ffffffff81168114610f0957600080fd5b919050565b60008083601f840112610f2057600080fd5b50813567ffffffffffffffff811115610f3857600080fd5b602083019150836020828501011115610f5057600080fd5b9250929050565b600080600080600060808688031215610f6f57600080fd5b8535610f7a81610ed0565b945060208601359350610f8f60408701610ef5565b9250606086013567ffffffffffffffff811115610fab57600080fd5b610fb788828901610f0e565b969995985093965092949392505050565b60008060408385031215610fdb57600080fd5b8235610fe681610ed0565b91506020830135610ff681610ed0565b809150509250929050565b600080600080600080600060c0888a03121561101c57600080fd5b873561102781610ed0565b9650602088013561103781610ed0565b9550604088013561104781610ed0565b9450606088013561105781610ed0565b93506080880135925060a088013567ffffffffffffffff81111561107a57600080fd5b6110868a828b01610f0e565b989b979a50959850939692959293505050565b60008060008060008060a087890312156110b257600080fd5b86356110bd81610ed0565b955060208701356110cd81610ed0565b9450604087013593506110e260608801610ef5565b9250608087013567ffffffffffffffff8111156110fe57600080fd5b61110a89828a01610f0e565b979a9699509497509295939492505050565b60006020828403121561112e57600080fd5b815161113981610ed0565b9392505050565b8183528181602085013750600060208284010152600060207fffffffffffffffffffffffffffffffffffffffffffffffffffffffffffffffe0601f840116840101905092915050565b73ffffffffffffffffffffffffffffffffffffffff85168152836020820152606060408201526000610ec6606083018486611140565b600073ffffffffffffffffffffffffffffffffffffffff808a1683528089166020840152808816604084015280871660608401525084608083015260c060a083015261120f60c083018486611140565b9998505050505050505050565b60006020828403121561122e57600080fd5b8151801515811461113957600080fd5b60005b83811015611259578181015183820152602001611241565b83811115611268576000848401525b50505050565b73ffffffffffffffffffffffffffffffffffffffff8416815260606020820152600083518060608401526112a981608085016020880161123e565b63ffffffff93909316604083015250601f919091017fffffffffffffffffffffffffffffffffffffffffffffffffffffffffffffffe0160160800192915050565b600082516112fc81846020870161123e565b919091019291505056fea164736f6c6343000808000a",
  "linkReferences": {},
  "deployedLinkReferences": {}
}