{
  "_format": "hh-sol-artifact-1",
  "contractName": "L2NFTBridge",
  "sourceName": "contracts/bridges/L2NFTBridge.sol",
  "abi": [
    {
      "inputs": [],
      "stateMutability": "nonpayable",
      "type": "constructor"
    },
    {
      "anonymous": false,
      "inputs": [
        {
          "indexed": true,
          "internalType": "address",
          "name": "_l1Token",
          "type": "address"
        },
        {
          "indexed": true,
          "internalType": "address",
          "name": "_l2Token",
          "type": "address"
        },
        {
          "indexed": true,
          "internalType": "address",
          "name": "_from",
          "type": "address"
        },
        {
          "indexed": false,
          "internalType": "address",
          "name": "_to",
          "type": "address"
        },
        {
          "indexed": false,
          "internalType": "uint256",
          "name": "_tokenId",
          "type": "uint256"
        },
        {
          "indexed": false,
          "internalType": "bytes",
          "name": "_data",
          "type": "bytes"
        }
      ],
      "name": "DepositFailed",
      "type": "event"
    },
    {
      "anonymous": false,
      "inputs": [
        {
          "indexed": true,
          "internalType": "address",
          "name": "_l1Token",
          "type": "address"
        },
        {
          "indexed": true,
          "internalType": "address",
          "name": "_l2Token",
          "type": "address"
        },
        {
          "indexed": true,
          "internalType": "address",
          "name": "_from",
          "type": "address"
        },
        {
          "indexed": false,
          "internalType": "address",
          "name": "_to",
          "type": "address"
        },
        {
          "indexed": false,
          "internalType": "uint256",
          "name": "_tokenId",
          "type": "uint256"
        },
        {
          "indexed": false,
          "internalType": "bytes",
          "name": "_data",
          "type": "bytes"
        }
      ],
      "name": "DepositFinalized",
      "type": "event"
    },
    {
      "anonymous": false,
      "inputs": [
        {
          "indexed": false,
          "internalType": "address",
          "name": "account",
          "type": "address"
        }
      ],
      "name": "Paused",
      "type": "event"
    },
    {
      "anonymous": false,
      "inputs": [
        {
          "indexed": false,
          "internalType": "address",
          "name": "account",
          "type": "address"
        }
      ],
      "name": "Unpaused",
      "type": "event"
    },
    {
      "anonymous": false,
      "inputs": [
        {
          "indexed": true,
          "internalType": "address",
          "name": "_l1Token",
          "type": "address"
        },
        {
          "indexed": true,
          "internalType": "address",
          "name": "_l2Token",
          "type": "address"
        },
        {
          "indexed": true,
          "internalType": "address",
          "name": "_from",
          "type": "address"
        },
        {
          "indexed": false,
          "internalType": "address",
          "name": "_to",
          "type": "address"
        },
        {
          "indexed": false,
          "internalType": "uint256",
          "name": "_tokenId",
          "type": "uint256"
        },
        {
          "indexed": false,
          "internalType": "bytes",
          "name": "_data",
          "type": "bytes"
        }
      ],
      "name": "WithdrawalInitiated",
      "type": "event"
    },
    {
      "inputs": [
        {
          "internalType": "uint256",
          "name": "_extraGasRelay",
          "type": "uint256"
        }
      ],
      "name": "configureExtraGasRelay",
      "outputs": [],
      "stateMutability": "nonpayable",
      "type": "function"
    },
    {
      "inputs": [
        {
          "internalType": "uint32",
          "name": "_exitL1Gas",
          "type": "uint32"
        }
      ],
      "name": "configureGas",
      "outputs": [],
      "stateMutability": "nonpayable",
      "type": "function"
    },
    {
      "inputs": [],
      "name": "exitL1Gas",
      "outputs": [
        {
          "internalType": "uint32",
          "name": "",
          "type": "uint32"
        }
      ],
      "stateMutability": "view",
      "type": "function"
    },
    {
      "inputs": [
        {
          "internalType": "address",
          "name": "",
          "type": "address"
        },
        {
          "internalType": "uint256",
          "name": "",
          "type": "uint256"
        }
      ],
      "name": "exits",
      "outputs": [
        {
          "internalType": "address",
          "name": "",
          "type": "address"
        }
      ],
      "stateMutability": "view",
      "type": "function"
    },
    {
      "inputs": [],
      "name": "extraGasRelay",
      "outputs": [
        {
          "internalType": "uint256",
          "name": "",
          "type": "uint256"
        }
      ],
      "stateMutability": "view",
      "type": "function"
    },
    {
      "inputs": [
        {
          "internalType": "address",
          "name": "_l1Contract",
          "type": "address"
        },
        {
          "internalType": "address",
          "name": "_l2Contract",
          "type": "address"
        },
        {
          "internalType": "address",
          "name": "_from",
          "type": "address"
        },
        {
          "internalType": "address",
          "name": "_to",
          "type": "address"
        },
        {
          "internalType": "uint256",
          "name": "_tokenId",
          "type": "uint256"
        },
        {
          "internalType": "bytes",
          "name": "_data",
          "type": "bytes"
        }
      ],
      "name": "finalizeDeposit",
      "outputs": [],
      "stateMutability": "nonpayable",
      "type": "function"
    },
    {
      "inputs": [
        {
          "internalType": "address",
          "name": "_l2CrossDomainMessenger",
          "type": "address"
        },
        {
          "internalType": "address",
          "name": "_l1NFTBridge",
          "type": "address"
        }
      ],
      "name": "initialize",
      "outputs": [],
      "stateMutability": "nonpayable",
      "type": "function"
    },
    {
      "inputs": [],
      "name": "l1NFTBridge",
      "outputs": [
        {
          "internalType": "address",
          "name": "",
          "type": "address"
        }
      ],
      "stateMutability": "view",
      "type": "function"
    },
    {
      "inputs": [],
      "name": "messenger",
      "outputs": [
        {
          "internalType": "address",
          "name": "",
          "type": "address"
        }
      ],
      "stateMutability": "view",
      "type": "function"
    },
    {
      "inputs": [
        {
          "internalType": "address",
          "name": "",
          "type": "address"
        },
        {
          "internalType": "address",
          "name": "",
          "type": "address"
        },
        {
          "internalType": "uint256",
          "name": "",
          "type": "uint256"
        },
        {
          "internalType": "bytes",
          "name": "",
          "type": "bytes"
        }
      ],
      "name": "onERC721Received",
      "outputs": [
        {
          "internalType": "bytes4",
          "name": "",
          "type": "bytes4"
        }
      ],
      "stateMutability": "nonpayable",
      "type": "function"
    },
    {
      "inputs": [],
      "name": "owner",
      "outputs": [
        {
          "internalType": "address",
          "name": "",
          "type": "address"
        }
      ],
      "stateMutability": "view",
      "type": "function"
    },
    {
      "inputs": [
        {
          "internalType": "address",
          "name": "",
          "type": "address"
        }
      ],
      "name": "pairNFTInfo",
      "outputs": [
        {
          "internalType": "address",
          "name": "l1Contract",
          "type": "address"
        },
        {
          "internalType": "address",
          "name": "l2Contract",
          "type": "address"
        },
        {
          "internalType": "enum L2NFTBridge.Network",
          "name": "baseNetwork",
          "type": "uint8"
        }
      ],
      "stateMutability": "view",
      "type": "function"
    },
    {
      "inputs": [],
      "name": "pause",
      "outputs": [],
      "stateMutability": "nonpayable",
      "type": "function"
    },
    {
      "inputs": [],
      "name": "paused",
      "outputs": [
        {
          "internalType": "bool",
          "name": "",
          "type": "bool"
        }
      ],
      "stateMutability": "view",
      "type": "function"
    },
    {
      "inputs": [
        {
          "internalType": "address",
          "name": "_l1Contract",
          "type": "address"
        },
        {
          "internalType": "address",
          "name": "_l2Contract",
          "type": "address"
        },
        {
          "internalType": "string",
          "name": "_baseNetwork",
          "type": "string"
        }
      ],
      "name": "registerNFTPair",
      "outputs": [],
      "stateMutability": "nonpayable",
      "type": "function"
    },
    {
      "inputs": [
        {
          "internalType": "address",
          "name": "_newOwner",
          "type": "address"
        }
      ],
      "name": "transferOwnership",
      "outputs": [],
      "stateMutability": "nonpayable",
      "type": "function"
    },
    {
      "inputs": [],
      "name": "unpause",
      "outputs": [],
      "stateMutability": "nonpayable",
      "type": "function"
    },
    {
      "inputs": [
        {
          "internalType": "address",
          "name": "_l2Contract",
          "type": "address"
        },
        {
          "internalType": "uint256",
          "name": "_tokenId",
          "type": "uint256"
        },
        {
          "internalType": "uint32",
          "name": "_l1Gas",
          "type": "uint32"
        },
        {
          "internalType": "bytes",
          "name": "_data",
          "type": "bytes"
        }
      ],
      "name": "withdraw",
      "outputs": [],
      "stateMutability": "nonpayable",
      "type": "function"
    },
    {
      "inputs": [
        {
          "internalType": "address",
          "name": "_l2Contract",
          "type": "address"
        },
        {
          "internalType": "address",
          "name": "_to",
          "type": "address"
        },
        {
          "internalType": "uint256",
          "name": "_tokenId",
          "type": "uint256"
        },
        {
          "internalType": "uint32",
          "name": "_l1Gas",
          "type": "uint32"
        },
        {
          "internalType": "bytes",
          "name": "_data",
          "type": "bytes"
        }
      ],
      "name": "withdrawTo",
      "outputs": [],
      "stateMutability": "nonpayable",
      "type": "function"
    }
  ],
  "bytecode": "0x608060405234801561001057600080fd5b50600080546001600160a01b0319169055612c05806100306000396000f3fe608060405234801561001057600080fd5b50600436106101515760003560e01c8063662a633a116100cd5780638d62b39411610081578063a3a7954811610066578063a3a795481461036b578063b5e241f11461037e578063f2fde38b1461039157600080fd5b80638d62b394146103455780638da5cb5b1461035857600080fd5b80638456cb59116100b25780638456cb59146102ca57806384d90488146102d2578063863081dd146102e557600080fd5b8063662a633a146102a057806370ac3180146102b357600080fd5b80633cb747bf116101245780633f4ba83a116101095780633f4ba83a1461026f578063485cc955146102775780635c975abb1461028a57600080fd5b80633cb747bf146102105780633ecd54be1461023b57600080fd5b8063150b7a02146101565780632fadea5e146101c357806332b7006d146101e857806334636648146101fd575b600080fd5b61018d6101643660046125cc565b7f150b7a0200000000000000000000000000000000000000000000000000000000949350505050565b6040517fffffffff0000000000000000000000000000000000000000000000000000000090911681526020015b60405180910390f35b609a546101d39063ffffffff1681565b60405163ffffffff90911681526020016101ba565b6101fb6101f63660046126ae565b6103a4565b005b6101fb61020b36600461271f565b61046e565b600054610223906001600160a01b031681565b6040516001600160a01b0390911681526020016101ba565b61022361024936600461273a565b609b6020908152600092835260408084209091529082529020546001600160a01b031681565b6101fb610591565b6101fb610285366004612766565b610609565b60655460ff1660405190151581526020016101ba565b6101fb6102ae36600461279f565b6108bf565b6102bc60995481565b6040519081526020016101ba565b6101fb610ebf565b6101fb6102e0366004612837565b610f35565b6103366102f33660046128ad565b609c60205260009081526040902080546001909101546001600160a01b039182169181169074010000000000000000000000000000000000000000900460ff1683565b6040516101ba93929190612900565b609854610223906001600160a01b031681565b609754610223906001600160a01b031681565b6101fb61037936600461295d565b6112dd565b6101fb61038c3660046129e0565b6113a3565b6101fb61039f3660046128ad565b611531565b600260015414156103fc5760405162461bcd60e51b815260206004820152601f60248201527f5265656e7472616e637947756172643a207265656e7472616e742063616c6c0060448201526064015b60405180910390fd5b600260015560655460ff16156104545760405162461bcd60e51b815260206004820152601060248201527f5061757361626c653a207061757365640000000000000000000000000000000060448201526064016103f3565b610463853333878787876115d9565b505060018055505050565b6097546001600160a01b031633148061049057506097546001600160a01b0316155b6104dc5760405162461bcd60e51b815260206004820152601760248201527f43616c6c6572206973206e6f7420746865206f776e657200000000000000000060448201526064016103f3565b6000546001600160a01b031661055a5760405162461bcd60e51b815260206004820152602560248201527f436f6e747261637420686173206e6f7420796574206265656e20696e6974696160448201527f6c697a656400000000000000000000000000000000000000000000000000000060648201526084016103f3565b609a80547fffffffffffffffffffffffffffffffffffffffffffffffffffffffff000000001663ffffffff92909216919091179055565b6097546001600160a01b03163314806105b357506097546001600160a01b0316155b6105ff5760405162461bcd60e51b815260206004820152601760248201527f43616c6c6572206973206e6f7420746865206f776e657200000000000000000060448201526064016103f3565b610607611d50565b565b6097546001600160a01b031633148061062b57506097546001600160a01b0316155b6106775760405162461bcd60e51b815260206004820152601760248201527f43616c6c6572206973206e6f7420746865206f776e657200000000000000000060448201526064016103f3565b6000547501000000000000000000000000000000000000000000900460ff16806106bc575060005474010000000000000000000000000000000000000000900460ff16155b61072e5760405162461bcd60e51b815260206004820152602e60248201527f496e697469616c697a61626c653a20636f6e747261637420697320616c72656160448201527f647920696e697469616c697a656400000000000000000000000000000000000060648201526084016103f3565b6000547501000000000000000000000000000000000000000000900460ff1615801561079557600080547fffffffffffffffffffff0000ffffffffffffffffffffffffffffffffffffffff1675010100000000000000000000000000000000000000001790555b6000546001600160a01b0316156108145760405162461bcd60e51b815260206004820152602660248201527f436f6e74726163742068617320616c7265616479206265656e20696e6974696160448201527f6c697a65642e000000000000000000000000000000000000000000000000000060648201526084016103f3565b600080546001600160a01b038086167fffffffffffffffffffffffff00000000000000000000000000000000000000009283161790925560988054928516928216929092179091556097805490911633179055610873620186a061046e565b61087b611e0a565b610883611f5a565b61088b6120d1565b80156108ba57600080547fffffffffffffffffffff00ffffffffffffffffffffffffffffffffffffffffff1690555b505050565b6098546001600160a01b03166108dd6000546001600160a01b031690565b6001600160a01b0316336001600160a01b0316146109635760405162461bcd60e51b815260206004820152602e60248201527f4f564d5f58434841494e3a206d657373656e67657220636f6e7472616374207560448201527f6e61757468656e7469636174656400000000000000000000000000000000000060648201526084016103f3565b806001600160a01b031661097f6000546001600160a01b031690565b6001600160a01b0316636e296e456040518163ffffffff1660e01b815260040160206040518083038186803b1580156109b757600080fd5b505afa1580156109cb573d6000803e3d6000fd5b505050506040513d601f19601f820116820180604052508101906109ef91906129f9565b6001600160a01b031614610a6b5760405162461bcd60e51b815260206004820152603060248201527f4f564d5f58434841494e3a2077726f6e672073656e646572206f662063726f7360448201527f732d646f6d61696e206d6573736167650000000000000000000000000000000060648201526084016103f3565b6001600160a01b0387166000908152609c602052604081209060018281015474010000000000000000000000000000000000000000900460ff1690811115610ab557610ab56128d1565b1415610d6057610ae5887f646dd6ec00000000000000000000000000000000000000000000000000000000612224565b8015610b745750876001600160a01b031663663ab59d6040518163ffffffff1660e01b8152600401602060405180830381600087803b158015610b2757600080fd5b505af1158015610b3b573d6000803e3d6000fd5b505050506040513d601f19601f82011682018060405250810190610b5f91906129f9565b6001600160a01b0316896001600160a01b0316145b15610c54576040517f40c10f190000000000000000000000000000000000000000000000000000000081526001600160a01b038781166004830152602482018790528916906340c10f1990604401600060405180830381600087803b158015610bdc57600080fd5b505af1158015610bf0573d6000803e3d6000fd5b50505050866001600160a01b0316886001600160a01b03168a6001600160a01b03167fb0444523268717a02698be47d0803aa7468c00acbed2f8bd93a0459cde61dd8989898989604051610c479493929190612a41565b60405180910390a4610eb4565b60006363e05d9b60e01b8a8a898b8a8a8a604051602401610c7b9796959493929190612a6a565b60408051601f198184030181529190526020810180517bffffffffffffffffffffffffffffffffffffffffffffffffffffffff167fffffffff0000000000000000000000000000000000000000000000000000000090931692909217909152609854609a54919250610cff916001600160a01b039091169063ffffffff1683612249565b876001600160a01b0316896001600160a01b03168b6001600160a01b03167f7ea89a4591614515571c2b51f5ea06494056f261c10ab1ed8c03c7590d87bce08a8a8a8a604051610d529493929190612a41565b60405180910390a450610eb4565b6001600160a01b038881166000908152609b602090815260408083208984529091529020548116908a1614610dd75760405162461bcd60e51b815260206004820152601160248201527f496e636f7272656374204465706f73697400000000000000000000000000000060448201526064016103f3565b6040517f42842e0e0000000000000000000000000000000000000000000000000000000081523060048201526001600160a01b038781166024830152604482018790528916906342842e0e90606401600060405180830381600087803b158015610e4057600080fd5b505af1158015610e54573d6000803e3d6000fd5b50505050866001600160a01b0316886001600160a01b03168a6001600160a01b03167fb0444523268717a02698be47d0803aa7468c00acbed2f8bd93a0459cde61dd8989898989604051610eab9493929190612a41565b60405180910390a45b505050505050505050565b6097546001600160a01b0316331480610ee157506097546001600160a01b0316155b610f2d5760405162461bcd60e51b815260206004820152601760248201527f43616c6c6572206973206e6f7420746865206f776e657200000000000000000060448201526064016103f3565b6106076122cd565b6097546001600160a01b0316331480610f5757506097546001600160a01b0316155b610fa35760405162461bcd60e51b815260206004820152601760248201527f43616c6c6572206973206e6f7420746865206f776e657200000000000000000060448201526064016103f3565b6001600160a01b038083166000908152609c602052604090208054909116156110345760405162461bcd60e51b815260206004820152602160248201527f4c31204e4654204164647265737320416c72656164792052656769737465726560448201527f640000000000000000000000000000000000000000000000000000000000000060648201526084016103f3565b6040517f4c31000000000000000000000000000000000000000000000000000000000000602082015260220160405160208183030381529060405280519060200120826040516020016110879190612aea565b60405160208183030381529060405280519060200120148061110f57506040517f4c32000000000000000000000000000000000000000000000000000000000000602082015260220160405160208183030381529060405280519060200120826040516020016110f79190612aea565b60405160208183030381529060405280519060200120145b61115b5760405162461bcd60e51b815260206004820152600f60248201527f496e76616c6964204e6574776f726b000000000000000000000000000000000060448201526064016103f3565b6040517f4c31000000000000000000000000000000000000000000000000000000000000602082015260009060220160405160208183030381529060405280519060200120836040516020016111b19190612aea565b6040516020818303038152906040528051906020012014156111d5575060006111d9565b5060015b6040518060600160405280866001600160a01b03168152602001856001600160a01b03168152602001826001811115611214576112146128d1565b90526001600160a01b038086166000908152609c6020908152604091829020845181549085167fffffffffffffffffffffffff000000000000000000000000000000000000000091821617825591850151600180830180549290961693821684178655938601519194919391927fffffffffffffffffffffff0000000000000000000000000000000000000000009091161790740100000000000000000000000000000000000000009084908111156112cf576112cf6128d1565b021790555050505050505050565b600260015414156113305760405162461bcd60e51b815260206004820152601f60248201527f5265656e7472616e637947756172643a207265656e7472616e742063616c6c0060448201526064016103f3565b600260015560655460ff16156113885760405162461bcd60e51b815260206004820152601060248201527f5061757361626c653a207061757365640000000000000000000000000000000060448201526064016103f3565b611397863387878787876115d9565b50506001805550505050565b73420000000000000000000000000000000000000f6001600160a01b0316638da5cb5b6040518163ffffffff1660e01b815260040160206040518083038186803b1580156113f057600080fd5b505afa158015611404573d6000803e3d6000fd5b505050506040513d601f19601f8201168201806040525081019061142891906129f9565b6001600160a01b0316336001600160a01b0316146114ae5760405162461bcd60e51b815260206004820152602660248201527f43616c6c6572206973206e6f74207468652067617350726963654f7261636c6560448201527f206f776e6572000000000000000000000000000000000000000000000000000060648201526084016103f3565b6000546001600160a01b031661152c5760405162461bcd60e51b815260206004820152602560248201527f436f6e747261637420686173206e6f7420796574206265656e20696e6974696160448201527f6c697a656400000000000000000000000000000000000000000000000000000060648201526084016103f3565b609955565b6097546001600160a01b031633148061155357506097546001600160a01b0316155b61159f5760405162461bcd60e51b815260206004820152601760248201527f43616c6c6572206973206e6f7420746865206f776e657200000000000000000060448201526064016103f3565b609780547fffffffffffffffffffffffff0000000000000000000000000000000000000000166001600160a01b0392909216919091179055565b60005a905060995481116116555760405162461bcd60e51b815260206004820152602860248201527f496e73756666696369656e742047617320466f7220612052656c61792054726160448201527f6e73616374696f6e00000000000000000000000000000000000000000000000060648201526084016103f3565b600061166c6099548361237390919063ffffffff16565b905060005b815a111561168b578061168381612b35565b915050611671565b6001600160a01b03808b166000908152609c6020526040902080549091166116f55760405162461bcd60e51b815260206004820152601a60248201527f43616e27742046696e64204c31204e465420436f6e747261637400000000000060448201526064016103f3565b600060018281015474010000000000000000000000000000000000000000900460ff1690811115611728576117286128d1565b1415611b0a5760008b6001600160a01b031663663ab59d6040518163ffffffff1660e01b8152600401602060405180830381600087803b15801561176b57600080fd5b505af115801561177f573d6000803e3d6000fd5b505050506040513d601f19601f820116820180604052508101906117a391906129f9565b82549091506001600160a01b038083169116146118025760405162461bcd60e51b815260206004820152601d60248201527f4c31204e465420436f6e74726163742041646472657373204572726f7200000060448201526064016103f3565b6040517f6352211e000000000000000000000000000000000000000000000000000000008152600481018a90526000906001600160a01b038e1690636352211e9060240160206040518083038186803b15801561185e57600080fd5b505afa158015611872573d6000803e3d6000fd5b505050506040513d601f19601f8201168201806040525081019061189691906129f9565b9050336001600160a01b038216148061194857506040517f081812fc000000000000000000000000000000000000000000000000000000008152600481018b905233906001600160a01b038f169063081812fc9060240160206040518083038186803b15801561190557600080fd5b505afa158015611919573d6000803e3d6000fd5b505050506040513d601f19601f8201168201806040525081019061193d91906129f9565b6001600160a01b0316145b806119e657506040517fe985e9c50000000000000000000000000000000000000000000000000000000081526001600160a01b0382811660048301523360248301528e169063e985e9c59060440160206040518083038186803b1580156119ae57600080fd5b505afa1580156119c2573d6000803e3d6000fd5b505050506040513d601f19601f820116820180604052508101906119e69190612b6e565b6119ef57600080fd5b6040517f42966c68000000000000000000000000000000000000000000000000000000008152600481018b90526001600160a01b038e16906342966c6890602401600060405180830381600087803b158015611a4a57600080fd5b505af1158015611a5e573d6000803e3d6000fd5b5050505060606363e05d9b60e01b838f8f8f8f8e8e604051602401611a899796959493929190612a6a565b60408051601f198184030181529190526020810180517bffffffffffffffffffffffffffffffffffffffffffffffffffffffff167fffffffff0000000000000000000000000000000000000000000000000000000090931692909217909152609854909150611b02906001600160a01b03168b83612249565b505050611cf2565b333b15611b595760405162461bcd60e51b815260206004820152600f60248201527f4163636f756e74206e6f7420454f41000000000000000000000000000000000060448201526064016103f3565b6040517f42842e0e0000000000000000000000000000000000000000000000000000000081526001600160a01b038b81166004830152306024830152604482018a90528c16906342842e0e90606401600060405180830381600087803b158015611bc257600080fd5b505af1158015611bd6573d6000803e3d6000fd5b50508254604051600093507f63e05d9b000000000000000000000000000000000000000000000000000000009250611c26916001600160a01b0316908f908f908f908f908e908e90602401612a6a565b60408051601f198184030181529190526020810180517bffffffffffffffffffffffffffffffffffffffffffffffffffffffff167fffffffff0000000000000000000000000000000000000000000000000000000090931692909217909152609854909150611c9f906001600160a01b03168983612249565b5080546001600160a01b038c81166000908152609b602090815260408083208d8452909152902080547fffffffffffffffffffffffff000000000000000000000000000000000000000016919092161790555b805460405133916001600160a01b038e8116929116907f73d170910aba9e6d50b102db522b1dbcd796216f5128b445aa2135272886497e90611d3b908e908e908d908d90612a41565b60405180910390a45050505050505050505050565b60655460ff16611da25760405162461bcd60e51b815260206004820152601460248201527f5061757361626c653a206e6f742070617573656400000000000000000000000060448201526064016103f3565b606580547fffffffffffffffffffffffffffffffffffffffffffffffffffffffffffffff001690557f5db9ee0a495bf2e6ff9c91a7834c1ba4fdd244a5e8aa4e537bd38aeae4b073aa335b6040516001600160a01b03909116815260200160405180910390a1565b6000547501000000000000000000000000000000000000000000900460ff1680611e4f575060005474010000000000000000000000000000000000000000900460ff16155b611ec15760405162461bcd60e51b815260206004820152602e60248201527f496e697469616c697a61626c653a20636f6e747261637420697320616c72656160448201527f647920696e697469616c697a656400000000000000000000000000000000000060648201526084016103f3565b6000547501000000000000000000000000000000000000000000900460ff16158015611f2857600080547fffffffffffffffffffff0000ffffffffffffffffffffffffffffffffffffffff1675010100000000000000000000000000000000000000001790555b8015611f5757600080547fffffffffffffffffffff00ffffffffffffffffffffffffffffffffffffffffff1690555b50565b6000547501000000000000000000000000000000000000000000900460ff1680611f9f575060005474010000000000000000000000000000000000000000900460ff16155b6120115760405162461bcd60e51b815260206004820152602e60248201527f496e697469616c697a61626c653a20636f6e747261637420697320616c72656160448201527f647920696e697469616c697a656400000000000000000000000000000000000060648201526084016103f3565b6000547501000000000000000000000000000000000000000000900460ff1615801561207857600080547fffffffffffffffffffff0000ffffffffffffffffffffffffffffffffffffffff1675010100000000000000000000000000000000000000001790555b606580547fffffffffffffffffffffffffffffffffffffffffffffffffffffffffffffff001690558015611f5757600080547fffffffffffffffffffff00ffffffffffffffffffffffffffffffffffffffffff16905550565b6000547501000000000000000000000000000000000000000000900460ff1680612116575060005474010000000000000000000000000000000000000000900460ff16155b6121885760405162461bcd60e51b815260206004820152602e60248201527f496e697469616c697a61626c653a20636f6e747261637420697320616c72656160448201527f647920696e697469616c697a656400000000000000000000000000000000000060648201526084016103f3565b6000547501000000000000000000000000000000000000000000900460ff161580156121ef57600080547fffffffffffffffffffff0000ffffffffffffffffffffffffffffffffffffffff1675010100000000000000000000000000000000000000001790555b600180558015611f5757600080547fffffffffffffffffffff00ffffffffffffffffffffffffffffffffffffffffff16905550565b600061222f8361237f565b8015612240575061224083836123e3565b90505b92915050565b6000546040517f3dbb202b0000000000000000000000000000000000000000000000000000000081526001600160a01b0390911690633dbb202b9061229690869085908790600401612b90565b600060405180830381600087803b1580156122b057600080fd5b505af11580156122c4573d6000803e3d6000fd5b50505050505050565b60655460ff16156123205760405162461bcd60e51b815260206004820152601060248201527f5061757361626c653a207061757365640000000000000000000000000000000060448201526064016103f3565b606580547fffffffffffffffffffffffffffffffffffffffffffffffffffffffffffffff001660011790557f62e78cea01bee320cd4e420270b5ea74000d11b0c9f74754ebdbfc544b05a258611ded3390565b60006122408284612be1565b60006123ab827f01ffc9a7000000000000000000000000000000000000000000000000000000006123e3565b801561224357506123dc827fffffffff000000000000000000000000000000000000000000000000000000006123e3565b1592915050565b604080517fffffffff00000000000000000000000000000000000000000000000000000000831660248083019190915282518083039091018152604490910182526020810180517bffffffffffffffffffffffffffffffffffffffffffffffffffffffff167f01ffc9a700000000000000000000000000000000000000000000000000000000179052905160009190829081906001600160a01b0387169061753090612490908690612aea565b6000604051808303818686fa925050503d80600081146124cc576040519150601f19603f3d011682016040523d82523d6000602084013e6124d1565b606091505b50915091506020815110156124ec5760009350505050612243565b8180156125085750808060200190518101906125089190612b6e565b9695505050505050565b6001600160a01b0381168114611f5757600080fd5b7f4e487b7100000000000000000000000000000000000000000000000000000000600052604160045260246000fd5b600067ffffffffffffffff8084111561257157612571612527565b604051601f8501601f19908116603f0116810190828211818310171561259957612599612527565b816040528093508581528686860111156125b257600080fd5b858560208301376000602087830101525050509392505050565b600080600080608085870312156125e257600080fd5b84356125ed81612512565b935060208501356125fd81612512565b925060408501359150606085013567ffffffffffffffff81111561262057600080fd5b8501601f8101871361263157600080fd5b61264087823560208401612556565b91505092959194509250565b803563ffffffff8116811461266057600080fd5b919050565b60008083601f84011261267757600080fd5b50813567ffffffffffffffff81111561268f57600080fd5b6020830191508360208285010111156126a757600080fd5b9250929050565b6000806000806000608086880312156126c657600080fd5b85356126d181612512565b9450602086013593506126e66040870161264c565b9250606086013567ffffffffffffffff81111561270257600080fd5b61270e88828901612665565b969995985093965092949392505050565b60006020828403121561273157600080fd5b6122408261264c565b6000806040838503121561274d57600080fd5b823561275881612512565b946020939093013593505050565b6000806040838503121561277957600080fd5b823561278481612512565b9150602083013561279481612512565b809150509250929050565b600080600080600080600060c0888a0312156127ba57600080fd5b87356127c581612512565b965060208801356127d581612512565b955060408801356127e581612512565b945060608801356127f581612512565b93506080880135925060a088013567ffffffffffffffff81111561281857600080fd5b6128248a828b01612665565b989b979a50959850939692959293505050565b60008060006060848603121561284c57600080fd5b833561285781612512565b9250602084013561286781612512565b9150604084013567ffffffffffffffff81111561288357600080fd5b8401601f8101861361289457600080fd5b6128a386823560208401612556565b9150509250925092565b6000602082840312156128bf57600080fd5b81356128ca81612512565b9392505050565b7f4e487b7100000000000000000000000000000000000000000000000000000000600052602160045260246000fd5b6001600160a01b03848116825283166020820152606081016002831061294f577f4e487b7100000000000000000000000000000000000000000000000000000000600052602160045260246000fd5b826040830152949350505050565b60008060008060008060a0878903121561297657600080fd5b863561298181612512565b9550602087013561299181612512565b9450604087013593506129a66060880161264c565b9250608087013567ffffffffffffffff8111156129c257600080fd5b6129ce89828a01612665565b979a9699509497509295939492505050565b6000602082840312156129f257600080fd5b5035919050565b600060208284031215612a0b57600080fd5b81516128ca81612512565b818352818160208501375060006020828401015260006020601f19601f840116840101905092915050565b6001600160a01b0385168152836020820152606060408201526000612508606083018486612a16565b60006001600160a01b03808a1683528089166020840152808816604084015280871660608401525084608083015260c060a0830152612aad60c083018486612a16565b9998505050505050505050565b60005b83811015612ad5578181015183820152602001612abd565b83811115612ae4576000848401525b50505050565b60008251612afc818460208701612aba565b9190910192915050565b7f4e487b7100000000000000000000000000000000000000000000000000000000600052601160045260246000fd5b60007fffffffffffffffffffffffffffffffffffffffffffffffffffffffffffffffff821415612b6757612b67612b06565b5060010190565b600060208284031215612b8057600080fd5b815180151581146128ca57600080fd5b6001600160a01b03841681526060602082015260008351806060840152612bbe816080850160208801612aba565b63ffffffff93909316604083015250601f91909101601f19160160800192915050565b600082821015612bf357612bf3612b06565b50039056fea164736f6c6343000809000a",
  "linkReferences": {},
  "deployedLinkReferences": {}
}