{
  "_format": "hh-sol-artifact-1",
  "contractName": "TuringHelper",
  "sourceName": "@boba/turing-hybrid-compute/contracts/TuringHelper.sol",
  "abi": [
    {
      "inputs": [],
      "stateMutability": "nonpayable",
      "type": "constructor"
    },
    {
      "anonymous": false,
      "inputs": [
        {
          "indexed": false,
          "internalType": "address",
          "name": "_callerAddress",
          "type": "address"
        }
      ],
      "name": "AddPermittedCaller",
      "type": "event"
    },
    {
      "anonymous": false,
      "inputs": [
        {
          "indexed": false,
          "internalType": "address",
          "name": "_callerAddress",
          "type": "address"
        },
        {
          "indexed": false,
          "internalType": "bool",
          "name": "permitted",
          "type": "bool"
        }
      ],
      "name": "CheckPermittedCaller",
      "type": "event"
    },
    {
      "anonymous": false,
      "inputs": [
        {
          "indexed": false,
          "internalType": "uint256",
          "name": "version",
          "type": "uint256"
        },
        {
          "indexed": false,
          "internalType": "uint256",
          "name": "random",
          "type": "uint256"
        }
      ],
      "name": "Offchain42",
      "type": "event"
    },
    {
      "anonymous": false,
      "inputs": [
        {
          "indexed": false,
          "internalType": "uint256",
          "name": "version",
          "type": "uint256"
        },
        {
          "indexed": false,
          "internalType": "uint256",
          "name": "random",
          "type": "uint256"
        }
      ],
      "name": "OffchainRandom",
      "type": "event"
    },
    {
      "anonymous": false,
      "inputs": [
        {
          "indexed": false,
          "internalType": "uint256",
          "name": "version",
          "type": "uint256"
        },
        {
          "indexed": false,
          "internalType": "bytes",
          "name": "responseData",
          "type": "bytes"
        }
      ],
      "name": "OffchainResponse",
      "type": "event"
    },
    {
      "anonymous": false,
      "inputs": [
        {
          "indexed": true,
          "internalType": "address",
          "name": "previousOwner",
          "type": "address"
        },
        {
          "indexed": true,
          "internalType": "address",
          "name": "newOwner",
          "type": "address"
        }
      ],
      "name": "OwnershipTransferred",
      "type": "event"
    },
    {
      "anonymous": false,
      "inputs": [
        {
          "indexed": false,
          "internalType": "address",
          "name": "_callerAddress",
          "type": "address"
        }
      ],
      "name": "RemovePermittedCaller",
      "type": "event"
    },
    {
      "inputs": [
        {
          "internalType": "uint32",
          "name": "rType",
          "type": "uint32"
        },
        {
          "internalType": "uint256",
          "name": "_random",
          "type": "uint256"
        }
      ],
      "name": "Get42",
      "outputs": [
        {
          "internalType": "uint256",
          "name": "",
          "type": "uint256"
        }
      ],
      "stateMutability": "nonpayable",
      "type": "function"
    },
    {
      "inputs": [
        {
          "internalType": "uint32",
          "name": "rType",
          "type": "uint32"
        },
        {
          "internalType": "uint256",
          "name": "_random",
          "type": "uint256"
        }
      ],
      "name": "GetRandom",
      "outputs": [
        {
          "internalType": "uint256",
          "name": "",
          "type": "uint256"
        }
      ],
      "stateMutability": "nonpayable",
      "type": "function"
    },
    {
      "inputs": [
        {
          "internalType": "uint32",
          "name": "rType",
          "type": "uint32"
        },
        {
          "internalType": "string",
          "name": "_url",
          "type": "string"
        },
        {
          "internalType": "bytes",
          "name": "_payload",
          "type": "bytes"
        }
      ],
      "name": "GetResponse",
      "outputs": [
        {
          "internalType": "bytes",
          "name": "",
          "type": "bytes"
        }
      ],
      "stateMutability": "nonpayable",
      "type": "function"
    },
    {
      "inputs": [],
      "name": "Turing42",
      "outputs": [
        {
          "internalType": "uint256",
          "name": "",
          "type": "uint256"
        }
      ],
      "stateMutability": "nonpayable",
      "type": "function"
    },
    {
      "inputs": [],
      "name": "TuringRandom",
      "outputs": [
        {
          "internalType": "uint256",
          "name": "",
          "type": "uint256"
        }
      ],
      "stateMutability": "nonpayable",
      "type": "function"
    },
    {
      "inputs": [
        {
          "internalType": "string",
          "name": "_url",
          "type": "string"
        },
        {
          "internalType": "bytes",
          "name": "_payload",
          "type": "bytes"
        }
      ],
      "name": "TuringTx",
      "outputs": [
        {
          "internalType": "bytes",
          "name": "",
          "type": "bytes"
        }
      ],
      "stateMutability": "nonpayable",
      "type": "function"
    },
    {
      "inputs": [
        {
          "internalType": "address",
          "name": "_callerAddress",
          "type": "address"
        }
      ],
      "name": "addPermittedCaller",
      "outputs": [],
      "stateMutability": "nonpayable",
      "type": "function"
    },
    {
      "inputs": [
        {
          "internalType": "address",
          "name": "_callerAddress",
          "type": "address"
        }
      ],
      "name": "checkPermittedCaller",
      "outputs": [
        {
          "internalType": "bool",
          "name": "",
          "type": "bool"
        }
      ],
      "stateMutability": "nonpayable",
      "type": "function"
    },
    {
      "inputs": [],
      "name": "owner",
      "outputs": [
        {
          "internalType": "address",
          "name": "",
          "type": "address"
        }
      ],
      "stateMutability": "view",
      "type": "function"
    },
    {
      "inputs": [
        {
          "internalType": "address",
          "name": "",
          "type": "address"
        }
      ],
      "name": "permittedCaller",
      "outputs": [
        {
          "internalType": "bool",
          "name": "",
          "type": "bool"
        }
      ],
      "stateMutability": "view",
      "type": "function"
    },
    {
      "inputs": [
        {
          "internalType": "address",
          "name": "_callerAddress",
          "type": "address"
        }
      ],
      "name": "removePermittedCaller",
      "outputs": [],
      "stateMutability": "nonpayable",
      "type": "function"
    },
    {
      "inputs": [],
      "name": "renounceOwnership",
      "outputs": [],
      "stateMutability": "nonpayable",
      "type": "function"
    },
    {
      "inputs": [
        {
          "internalType": "bytes4",
          "name": "_interfaceId",
          "type": "bytes4"
        }
      ],
      "name": "supportsInterface",
      "outputs": [
        {
          "internalType": "bool",
          "name": "",
          "type": "bool"
        }
      ],
      "stateMutability": "pure",
      "type": "function"
    },
    {
      "inputs": [
        {
          "internalType": "address",
          "name": "newOwner",
          "type": "address"
        }
      ],
      "name": "transferOwnership",
      "outputs": [],
      "stateMutability": "nonpayable",
      "type": "function"
    }
  ],
  "bytecode": "0x608060405234801561001057600080fd5b5061001a33610031565b600180546001600160a01b03191630179055610081565b600080546001600160a01b038381166001600160a01b0319831681178455604051919092169283917f8be0079c531659141344cd1fd0a4f28419497f9722a3daafe3b4186f6b6457e09190a35050565b611478806100906000396000f3fe608060405234801561001057600080fd5b50600436106100ea5760003560e01c8063a432ee271161008c578063cbcd0c2c11610066578063cbcd0c2c146101d3578063e86f18991461014d578063f2f3fa07146101e6578063f2fde38b1461020957600080fd5b8063a432ee27146101a5578063aadebcb9146101b8578063b8d16056146101cb57600080fd5b8063493d57d6116100c8578063493d57d61461014d578063715018a6146101605780637d93616c1461016a5780638da5cb5b1461017d57600080fd5b806301ffc9a7146100ef5780632f7adf431461011757806345ff812a14610137575b600080fd5b6101026100fd366004611000565b61021c565b60405190151581526020015b60405180910390f35b61012a610125366004611163565b6102dc565b60405161010e9190611241565b61013f6104a8565b60405190815260200161010e565b61013f61015b366004611268565b6105fa565b6101686106aa565b005b61012a610178366004611292565b61071d565b60005460405173ffffffffffffffffffffffffffffffffffffffff909116815260200161010e565b6101686101b3366004611306565b61081f565b6101686101c6366004611306565b61090c565b61013f6109ef565b6101026101e1366004611306565b610b34565b6101026101f4366004611306565b60026020526000908152604090205460ff1681565b610168610217366004611306565b610ba4565b60007f01ffc9a7a5cef8baa21ed3c5c0d7e23accb804b619e9333b597f47a0d84076e27f2f7adf43000000000000000000000000000000000000000000000000000000007fffffffff0000000000000000000000000000000000000000000000000000000084167f01ffc9a70000000000000000000000000000000000000000000000000000000014806102d457507fffffffff00000000000000000000000000000000000000000000000000000000848116908216145b949350505050565b3360009081526002602052604090205460609060ff166103435760405162461bcd60e51b815260206004820152601660248201527f496e76616c69642043616c6c657220416464726573730000000000000000000060448201526064015b60405180910390fd5b60008251116103945760405162461bcd60e51b815260206004820152601a60248201527f547572696e673a547572696e6754783a6e6f207061796c6f6164000000000000604482015260640161033a565b600180546040517f7d93616c00000000000000000000000000000000000000000000000000000000815260009273ffffffffffffffffffffffffffffffffffffffff90921691637d93616c916103f191908890889060040161133c565b600060405180830381600087803b15801561040b57600080fd5b505af115801561041f573d6000803e3d6000fd5b505050506040513d6000823e601f3d9081017fffffffffffffffffffffffffffffffffffffffffffffffffffffffffffffffe01682016040526104659190810190611377565b90507ffde6d9b9b674fe8a495a825379378eb214e03439d12f342ac5e8af9768c1d85c6001826040516104999291906113ee565b60405180910390a19392505050565b3360009081526002602052604081205460ff166105075760405162461bcd60e51b815260206004820152601660248201527f496e76616c69642043616c6c6572204164647265737300000000000000000000604482015260640161033a565b600180546040517f493d57d600000000000000000000000000000000000000000000000000000000815260048101929092526000602483018190529173ffffffffffffffffffffffffffffffffffffffff9091169063493d57d690604401602060405180830381600087803b15801561057f57600080fd5b505af1158015610593573d6000803e3d6000fd5b505050506040513d601f19601f820116820180604052508101906105b79190611407565b6040805160018152602081018390529192507f450d62889c3a6e19c9586840ce9c21040b90d81950fe31f2ba982090adaf53e891015b60405180910390a1905090565b60003330146106715760405162461bcd60e51b815260206004820152602e60248201527f547572696e673a476574526573706f6e73653a6d73672e73656e64657220213d60448201527f2061646472657373287468697329000000000000000000000000000000000000606482015260840161033a565b8263ffffffff1660021461068484610ca0565b906106a25760405162461bcd60e51b815260040161033a9190611241565b509092915050565b60005473ffffffffffffffffffffffffffffffffffffffff1633146107115760405162461bcd60e51b815260206004820181905260248201527f4f776e61626c653a2063616c6c6572206973206e6f7420746865206f776e6572604482015260640161033a565b61071b6000610f8b565b565b60603330146107945760405162461bcd60e51b815260206004820152602e60248201527f547572696e673a476574526573706f6e73653a6d73672e73656e64657220213d60448201527f2061646472657373287468697329000000000000000000000000000000000000606482015260840161033a565b60008251116107e55760405162461bcd60e51b815260206004820152601d60248201527f547572696e673a476574526573706f6e73653a6e6f207061796c6f6164000000604482015260640161033a565b8363ffffffff166002146107f885610ca0565b906108165760405162461bcd60e51b815260040161033a9190611241565b50909392505050565b60005473ffffffffffffffffffffffffffffffffffffffff1633146108865760405162461bcd60e51b815260206004820181905260248201527f4f776e61626c653a2063616c6c6572206973206e6f7420746865206f776e6572604482015260640161033a565b73ffffffffffffffffffffffffffffffffffffffff811660008181526002602090815260409182902080547fffffffffffffffffffffffffffffffffffffffffffffffffffffffffffffff0016600117905590519182527f9ce84a7ab8065f5f6f23c19be05400b2edbabf71e4b29837f56a016c951b97d291015b60405180910390a150565b60005473ffffffffffffffffffffffffffffffffffffffff1633146109735760405162461bcd60e51b815260206004820181905260248201527f4f776e61626c653a2063616c6c6572206973206e6f7420746865206f776e6572604482015260640161033a565b73ffffffffffffffffffffffffffffffffffffffff811660008181526002602090815260409182902080547fffffffffffffffffffffffffffffffffffffffffffffffffffffffffffffff0016905590519182527feacddceebef9fdf16961c5dba55871a098bd93be9160335139bdeb226537c6ed9101610901565b3360009081526002602052604081205460ff16610a4e5760405162461bcd60e51b815260206004820152601660248201527f496e76616c69642043616c6c6572204164647265737300000000000000000000604482015260640161033a565b6001546040517fe86f189900000000000000000000000000000000000000000000000000000000815260026004820152602a602482015260009173ffffffffffffffffffffffffffffffffffffffff169063e86f189990604401602060405180830381600087803b158015610ac257600080fd5b505af1158015610ad6573d6000803e3d6000fd5b505050506040513d601f19601f82011682018060405250810190610afa9190611407565b6040805160018152602081018390529192507fcf56007112ef7f986f258f82114b449a536da425cefac3982f64e306b07c792191016105ed565b73ffffffffffffffffffffffffffffffffffffffff8116600081815260026020908152604080832054815194855260ff1680151592850192909252919290917fabf082f4a354a0ea137bf1c9b0f6660d1340b3f84e293fb4a4cb01c7602c3962910160405180910390a192915050565b60005473ffffffffffffffffffffffffffffffffffffffff163314610c0b5760405162461bcd60e51b815260206004820181905260248201527f4f776e61626c653a2063616c6c6572206973206e6f7420746865206f776e6572604482015260640161033a565b73ffffffffffffffffffffffffffffffffffffffff8116610c945760405162461bcd60e51b815260206004820152602660248201527f4f776e61626c653a206e6577206f776e657220697320746865207a65726f206160448201527f6464726573730000000000000000000000000000000000000000000000000000606482015260840161033a565b610c9d81610f8b565b50565b60608163ffffffff1660011415610cea57505060408051808201909152601e81527f545552494e473a204765746820696e74657263657074206661696c7572650000602082015290565b8163ffffffff16600a1415610d3257505060408051808201909152601d81527f545552494e473a20496e636f727265637420696e707574207374617465000000602082015290565b8163ffffffff16600b1415610d7a57505060408051808201909152601a81527f545552494e473a2043616c6c6461746120746f6f2073686f7274000000000000602082015290565b8163ffffffff16600c1415610dc257505060408051808201909152601581527f545552494e473a2055524c203e36342062797465730000000000000000000000602082015290565b8163ffffffff16600d1415610e0a57505060408051808201909152601481527f545552494e473a20536572766572206572726f72000000000000000000000000602082015290565b8163ffffffff16600e1415610e38576040518060600160405280602881526020016114216028913992915050565b8163ffffffff16600f1415610e66576040518060600160405280602381526020016114496023913992915050565b8163ffffffff1660101415610eae57505060408051808201909152601381527f545552494e473a20524e47206661696c75726500000000000000000000000000602082015290565b8163ffffffff1660111415610ef657505060408051808201909152601f81527f545552494e473a2041504920526573706f6e7365203e33323220636861727300602082015290565b8163ffffffff1660121415610f3e57505060408051808201909152601f81527f545552494e473a2041504920526573706f6e7365203e31363020627974657300602082015290565b8163ffffffff1660131415610f8657505060408051808201909152601b81527f545552494e473a20496e73756666696369656e74206372656469740000000000602082015290565b919050565b6000805473ffffffffffffffffffffffffffffffffffffffff8381167fffffffffffffffffffffffff0000000000000000000000000000000000000000831681178455604051919092169283917f8be0079c531659141344cd1fd0a4f28419497f9722a3daafe3b4186f6b6457e09190a35050565b60006020828403121561101257600080fd5b81357fffffffff000000000000000000000000000000000000000000000000000000008116811461104257600080fd5b9392505050565b7f4e487b7100000000000000000000000000000000000000000000000000000000600052604160045260246000fd5b604051601f82017fffffffffffffffffffffffffffffffffffffffffffffffffffffffffffffffe016810167ffffffffffffffff811182821017156110bf576110bf611049565b604052919050565b600067ffffffffffffffff8211156110e1576110e1611049565b50601f017fffffffffffffffffffffffffffffffffffffffffffffffffffffffffffffffe01660200190565b600082601f83011261111e57600080fd5b813561113161112c826110c7565b611078565b81815284602083860101111561114657600080fd5b816020850160208301376000918101602001919091529392505050565b6000806040838503121561117657600080fd5b823567ffffffffffffffff8082111561118e57600080fd5b61119a8683870161110d565b935060208501359150808211156111b057600080fd5b506111bd8582860161110d565b9150509250929050565b60005b838110156111e25781810151838201526020016111ca565b838111156111f1576000848401525b50505050565b6000815180845261120f8160208601602086016111c7565b601f017fffffffffffffffffffffffffffffffffffffffffffffffffffffffffffffffe0169290920160200192915050565b60208152600061104260208301846111f7565b803563ffffffff81168114610f8657600080fd5b6000806040838503121561127b57600080fd5b61128483611254565b946020939093013593505050565b6000806000606084860312156112a757600080fd5b6112b084611254565b9250602084013567ffffffffffffffff808211156112cd57600080fd5b6112d98783880161110d565b935060408601359150808211156112ef57600080fd5b506112fc8682870161110d565b9150509250925092565b60006020828403121561131857600080fd5b813573ffffffffffffffffffffffffffffffffffffffff8116811461104257600080fd5b63ffffffff8416815260606020820152600061135b60608301856111f7565b828103604084015261136d81856111f7565b9695505050505050565b60006020828403121561138957600080fd5b815167ffffffffffffffff8111156113a057600080fd5b8201601f810184136113b157600080fd5b80516113bf61112c826110c7565b8181528560208385010111156113d457600080fd5b6113e58260208301602086016111c7565b95945050505050565b8281526040602082015260006102d460408301846111f7565b60006020828403121561141957600080fd5b505191905056fe545552494e473a20436f756c64206e6f74206465636f64652073657276657220726573706f6e7365545552494e473a20436f756c64206e6f74206372656174652072706320636c69656e74a164736f6c6343000809000a",
  "linkReferences": {},
  "deployedLinkReferences": {}
}