{
  "_format": "hh-sol-artifact-1",
  "contractName": "L1CrossDomainMessenger",
  "sourceName": "contracts/L1/messaging/L1CrossDomainMessenger.sol",
  "abi": [
    {
      "inputs": [],
      "stateMutability": "nonpayable",
      "type": "constructor"
    },
    {
      "anonymous": false,
      "inputs": [
        {
          "indexed": true,
          "internalType": "bytes32",
          "name": "msgHash",
          "type": "bytes32"
        }
      ],
      "name": "FailedRelayedMessage",
      "type": "event"
    },
    {
      "anonymous": false,
      "inputs": [
        {
          "indexed": true,
          "internalType": "bytes32",
          "name": "_xDomainCalldataHash",
          "type": "bytes32"
        }
      ],
      "name": "MessageAllowed",
      "type": "event"
    },
    {
      "anonymous": false,
      "inputs": [
        {
          "indexed": true,
          "internalType": "bytes32",
          "name": "_xDomainCalldataHash",
          "type": "bytes32"
        }
      ],
      "name": "MessageBlocked",
      "type": "event"
    },
    {
      "anonymous": false,
      "inputs": [
        {
          "indexed": true,
          "internalType": "address",
          "name": "previousOwner",
          "type": "address"
        },
        {
          "indexed": true,
          "internalType": "address",
          "name": "newOwner",
          "type": "address"
        }
      ],
      "name": "OwnershipTransferred",
      "type": "event"
    },
    {
      "anonymous": false,
      "inputs": [
        {
          "indexed": false,
          "internalType": "address",
          "name": "account",
          "type": "address"
        }
      ],
      "name": "Paused",
      "type": "event"
    },
    {
      "anonymous": false,
      "inputs": [
        {
          "indexed": true,
          "internalType": "bytes32",
          "name": "msgHash",
          "type": "bytes32"
        }
      ],
      "name": "RelayedMessage",
      "type": "event"
    },
    {
      "anonymous": false,
      "inputs": [
        {
          "indexed": true,
          "internalType": "address",
          "name": "target",
          "type": "address"
        },
        {
          "indexed": false,
          "internalType": "address",
          "name": "sender",
          "type": "address"
        },
        {
          "indexed": false,
          "internalType": "bytes",
          "name": "message",
          "type": "bytes"
        },
        {
          "indexed": false,
          "internalType": "uint256",
          "name": "messageNonce",
          "type": "uint256"
        },
        {
          "indexed": false,
          "internalType": "uint256",
          "name": "gasLimit",
          "type": "uint256"
        }
      ],
      "name": "SentMessage",
      "type": "event"
    },
    {
      "anonymous": false,
      "inputs": [
        {
          "indexed": false,
          "internalType": "address",
          "name": "account",
          "type": "address"
        }
      ],
      "name": "Unpaused",
      "type": "event"
    },
    {
      "inputs": [
        {
          "internalType": "bytes32",
          "name": "_xDomainCalldataHash",
          "type": "bytes32"
        }
      ],
      "name": "allowMessage",
      "outputs": [],
      "stateMutability": "nonpayable",
      "type": "function"
    },
    {
      "inputs": [
        {
          "internalType": "bytes32",
          "name": "_xDomainCalldataHash",
          "type": "bytes32"
        }
      ],
      "name": "blockMessage",
      "outputs": [],
      "stateMutability": "nonpayable",
      "type": "function"
    },
    {
      "inputs": [
        {
          "internalType": "bytes32",
          "name": "",
          "type": "bytes32"
        }
      ],
      "name": "blockedMessages",
      "outputs": [
        {
          "internalType": "bool",
          "name": "",
          "type": "bool"
        }
      ],
      "stateMutability": "view",
      "type": "function"
    },
    {
      "inputs": [
        {
          "internalType": "bytes32",
          "name": "",
          "type": "bytes32"
        }
      ],
      "name": "failedMessages",
      "outputs": [
        {
          "internalType": "bool",
          "name": "",
          "type": "bool"
        }
      ],
      "stateMutability": "view",
      "type": "function"
    },
    {
      "inputs": [
        {
          "internalType": "address",
          "name": "_libAddressManager",
          "type": "address"
        }
      ],
      "name": "initialize",
      "outputs": [],
      "stateMutability": "nonpayable",
      "type": "function"
    },
    {
      "inputs": [],
      "name": "libAddressManager",
      "outputs": [
        {
          "internalType": "contract Lib_AddressManager",
          "name": "",
          "type": "address"
        }
      ],
      "stateMutability": "view",
      "type": "function"
    },
    {
      "inputs": [],
      "name": "owner",
      "outputs": [
        {
          "internalType": "address",
          "name": "",
          "type": "address"
        }
      ],
      "stateMutability": "view",
      "type": "function"
    },
    {
      "inputs": [],
      "name": "pause",
      "outputs": [],
      "stateMutability": "nonpayable",
      "type": "function"
    },
    {
      "inputs": [],
      "name": "paused",
      "outputs": [
        {
          "internalType": "bool",
          "name": "",
          "type": "bool"
        }
      ],
      "stateMutability": "view",
      "type": "function"
    },
    {
      "inputs": [
        {
          "internalType": "address",
          "name": "_target",
          "type": "address"
        },
        {
          "internalType": "address",
          "name": "_sender",
          "type": "address"
        },
        {
          "internalType": "bytes",
          "name": "_message",
          "type": "bytes"
        },
        {
          "internalType": "uint256",
          "name": "_messageNonce",
          "type": "uint256"
        },
        {
          "components": [
            {
              "internalType": "bytes32",
              "name": "stateRoot",
              "type": "bytes32"
            },
            {
              "components": [
                {
                  "internalType": "uint256",
                  "name": "batchIndex",
                  "type": "uint256"
                },
                {
                  "internalType": "bytes32",
                  "name": "batchRoot",
                  "type": "bytes32"
                },
                {
                  "internalType": "uint256",
                  "name": "batchSize",
                  "type": "uint256"
                },
                {
                  "internalType": "uint256",
                  "name": "prevTotalElements",
                  "type": "uint256"
                },
                {
                  "internalType": "bytes",
                  "name": "extraData",
                  "type": "bytes"
                }
              ],
              "internalType": "struct Lib_OVMCodec.ChainBatchHeader",
              "name": "stateRootBatchHeader",
              "type": "tuple"
            },
            {
              "components": [
                {
                  "internalType": "uint256",
                  "name": "index",
                  "type": "uint256"
                },
                {
                  "internalType": "bytes32[]",
                  "name": "siblings",
                  "type": "bytes32[]"
                }
              ],
              "internalType": "struct Lib_OVMCodec.ChainInclusionProof",
              "name": "stateRootProof",
              "type": "tuple"
            },
            {
              "internalType": "bytes",
              "name": "stateTrieWitness",
              "type": "bytes"
            },
            {
              "internalType": "bytes",
              "name": "storageTrieWitness",
              "type": "bytes"
            }
          ],
          "internalType": "struct IL1CrossDomainMessenger.L2MessageInclusionProof",
          "name": "_proof",
          "type": "tuple"
        }
      ],
      "name": "relayMessage",
      "outputs": [],
      "stateMutability": "nonpayable",
      "type": "function"
    },
    {
      "inputs": [
        {
          "internalType": "bytes32",
          "name": "",
          "type": "bytes32"
        }
      ],
      "name": "relayedMessages",
      "outputs": [
        {
          "internalType": "bool",
          "name": "",
          "type": "bool"
        }
      ],
      "stateMutability": "view",
      "type": "function"
    },
    {
      "inputs": [],
      "name": "renounceOwnership",
      "outputs": [],
      "stateMutability": "nonpayable",
      "type": "function"
    },
    {
      "inputs": [
        {
          "internalType": "address",
          "name": "_target",
          "type": "address"
        },
        {
          "internalType": "address",
          "name": "_sender",
          "type": "address"
        },
        {
          "internalType": "bytes",
          "name": "_message",
          "type": "bytes"
        },
        {
          "internalType": "uint256",
          "name": "_queueIndex",
          "type": "uint256"
        },
        {
          "internalType": "uint32",
          "name": "_gasLimit",
          "type": "uint32"
        }
      ],
      "name": "replayMessage",
      "outputs": [],
      "stateMutability": "nonpayable",
      "type": "function"
    },
    {
      "inputs": [
        {
          "internalType": "string",
          "name": "_name",
          "type": "string"
        }
      ],
      "name": "resolve",
      "outputs": [
        {
          "internalType": "address",
          "name": "",
          "type": "address"
        }
      ],
      "stateMutability": "view",
      "type": "function"
    },
    {
      "inputs": [
        {
          "internalType": "address",
          "name": "_target",
          "type": "address"
        },
        {
          "internalType": "bytes",
          "name": "_message",
          "type": "bytes"
        },
        {
          "internalType": "uint32",
          "name": "_gasLimit",
          "type": "uint32"
        }
      ],
      "name": "sendMessage",
      "outputs": [],
      "stateMutability": "nonpayable",
      "type": "function"
    },
    {
      "inputs": [
        {
          "internalType": "bytes32",
          "name": "",
          "type": "bytes32"
        }
      ],
      "name": "successfulMessages",
      "outputs": [
        {
          "internalType": "bool",
          "name": "",
          "type": "bool"
        }
      ],
      "stateMutability": "view",
      "type": "function"
    },
    {
      "inputs": [
        {
          "internalType": "address",
          "name": "newOwner",
          "type": "address"
        }
      ],
      "name": "transferOwnership",
      "outputs": [],
      "stateMutability": "nonpayable",
      "type": "function"
    },
    {
      "inputs": [],
      "name": "xDomainMessageSender",
      "outputs": [
        {
          "internalType": "address",
          "name": "",
          "type": "address"
        }
      ],
      "stateMutability": "view",
      "type": "function"
    }
  ],
  "bytecode": "0x608060405260cd80546001600160a01b03191661dead17905534801561002457600080fd5b50600080546001600160a01b0319169055613d42806100446000396000f3fe608060405234801561001057600080fd5b50600436106101365760003560e01c806381ada46c116100b2578063b1b1b20911610081578063c6b94ab011610066578063c6b94ab0146102b3578063d7fd19dd146102d6578063f2fde38b146102e957600080fd5b8063b1b1b2091461027d578063c4d66de8146102a057600080fd5b806381ada46c146102215780638456cb59146102345780638da5cb5b1461023c578063a4e7f8bd1461025a57600080fd5b8063461a4478116101095780636e296e45116100ee5780636e296e45146101fe578063706ceab614610206578063715018a61461021957600080fd5b8063461a4478146101e05780635c975abb146101f357600080fd5b80630ecf2eea1461013b57806321d800ec14610150578063299ca478146101885780633dbb202b146101cd575b600080fd5b61014e610149366004613243565b6102fc565b005b61017361015e366004613243565b60ca6020526000908152604090205460ff1681565b60405190151581526020015b60405180910390f35b6000546101a89073ffffffffffffffffffffffffffffffffffffffff1681565b60405173ffffffffffffffffffffffffffffffffffffffff909116815260200161017f565b61014e6101db3660046133bb565b6103ab565b6101a86101ee36600461341b565b6104f3565b60655460ff16610173565b6101a86105a0565b61014e61021436600461346c565b61062a565b61014e6107fa565b61014e61022f366004613243565b61086d565b61014e610914565b60335473ffffffffffffffffffffffffffffffffffffffff166101a8565b610173610268366004613243565b60cc6020526000908152604090205460ff1681565b61017361028b366004613243565b60cb6020526000908152604090205460ff1681565b61014e6102ae3660046134e9565b610983565b6101736102c1366004613243565b60c96020526000908152604090205460ff1681565b61014e6102e436600461364f565b610bd0565b61014e6102f73660046134e9565b61119e565b60335473ffffffffffffffffffffffffffffffffffffffff1633146103685760405162461bcd60e51b815260206004820181905260248201527f4f776e61626c653a2063616c6c6572206973206e6f7420746865206f776e657260448201526064015b60405180910390fd5b600081815260c96020526040808220805460ff191660011790555182917ff52508d5339edf0d7e5060a416df98db067af561bdc60872d29c0439eaa13a0291a250565b60006103eb6040518060400160405280601981526020017f43616e6f6e6963616c5472616e73616374696f6e436861696e000000000000008152506104f3565b905060008173ffffffffffffffffffffffffffffffffffffffff1663b8f770056040518163ffffffff1660e01b815260040160206040518083038186803b15801561043557600080fd5b505afa158015610449573d6000803e3d6000fd5b505050506040513d601f19601f8201168201806040525081019061046d919061379d565b905060006104848633878564ffffffffff1661129a565b905061049783828663ffffffff16611315565b8573ffffffffffffffffffffffffffffffffffffffff167fcb0f7ffd78f9aee47a248fae8db181db6eee833039123e026dcbff529522e52a338785886040516104e39493929190613814565b60405180910390a2505050505050565b600080546040517fbf40fac100000000000000000000000000000000000000000000000000000000815273ffffffffffffffffffffffffffffffffffffffff9091169063bf40fac19061054a908590600401613867565b60206040518083038186803b15801561056257600080fd5b505afa158015610576573d6000803e3d6000fd5b505050506040513d601f19601f8201168201806040525081019061059a919061387a565b92915050565b60cd5460009073ffffffffffffffffffffffffffffffffffffffff1661dead141561060d5760405162461bcd60e51b815260206004820152601f60248201527f78446f6d61696e4d65737361676553656e646572206973206e6f742073657400604482015260640161035f565b5060cd5473ffffffffffffffffffffffffffffffffffffffff1690565b600061066a6040518060400160405280601981526020017f43616e6f6e6963616c5472616e73616374696f6e436861696e000000000000008152506104f3565b6040517f2a7f18be0000000000000000000000000000000000000000000000000000000081526004810185905290915060009073ffffffffffffffffffffffffffffffffffffffff831690632a7f18be9060240160606040518083038186803b1580156106d657600080fd5b505afa1580156106ea573d6000803e3d6000fd5b505050506040513d601f19601f8201168201806040525081019061070e9190613897565b9050600030734200000000000000000000000000000000000007858860405160200161073d94939291906138fc565b604051602081830303815290604052805190602001209050816000015181146107ce5760405162461bcd60e51b815260206004820152602760248201527f50726f7669646564206d65737361676520686173206e6f74206265656e20656e60448201527f7175657565642e00000000000000000000000000000000000000000000000000606482015260840161035f565b60006107dc8989898961129a565b90506107ef84828763ffffffff16611315565b505050505050505050565b60335473ffffffffffffffffffffffffffffffffffffffff1633146108615760405162461bcd60e51b815260206004820181905260248201527f4f776e61626c653a2063616c6c6572206973206e6f7420746865206f776e6572604482015260640161035f565b61086b60006113b6565b565b60335473ffffffffffffffffffffffffffffffffffffffff1633146108d45760405162461bcd60e51b815260206004820181905260248201527f4f776e61626c653a2063616c6c6572206973206e6f7420746865206f776e6572604482015260640161035f565b600081815260c96020526040808220805460ff191690555182917f52c8a2680a9f4cc0ad0bf88f32096eadbebf0646ea611d93a0ce6a29a024040591a250565b60335473ffffffffffffffffffffffffffffffffffffffff16331461097b5760405162461bcd60e51b815260206004820181905260248201527f4f776e61626c653a2063616c6c6572206973206e6f7420746865206f776e6572604482015260640161035f565b61086b61142d565b6000547501000000000000000000000000000000000000000000900460ff16806109c8575060005474010000000000000000000000000000000000000000900460ff16155b610a3a5760405162461bcd60e51b815260206004820152602e60248201527f496e697469616c697a61626c653a20636f6e747261637420697320616c72656160448201527f647920696e697469616c697a6564000000000000000000000000000000000000606482015260840161035f565b6000547501000000000000000000000000000000000000000000900460ff16158015610aa157600080547fffffffffffffffffffff0000ffffffffffffffffffffffffffffffffffffffff1675010100000000000000000000000000000000000000001790555b60005473ffffffffffffffffffffffffffffffffffffffff1615610b2d5760405162461bcd60e51b815260206004820152602a60248201527f4c3143726f7373446f6d61696e4d657373656e67657220616c7265616479206960448201527f6e7469616c697a65642e00000000000000000000000000000000000000000000606482015260840161035f565b6000805473ffffffffffffffffffffffffffffffffffffffff84167fffffffffffffffffffffffff00000000000000000000000000000000000000009182161790915560cd805490911661dead179055610b856114df565b610b8d61162e565b610b95611755565b610b9d6118ae565b8015610bcc57600080547fffffffffffffffffffff00ffffffffffffffffffffffffffffffffffffffffff1690555b5050565b60026097541415610c235760405162461bcd60e51b815260206004820152601f60248201527f5265656e7472616e637947756172643a207265656e7472616e742063616c6c00604482015260640161035f565b600260975560408051808201909152601481527f4f564d5f4c324d65737361676552656c617965720000000000000000000000006020820152600090610c68906104f3565b905073ffffffffffffffffffffffffffffffffffffffff811615610d11573373ffffffffffffffffffffffffffffffffffffffff821614610d115760405162461bcd60e51b815260206004820152603660248201527f4f6e6c79204f564d5f4c324d65737361676552656c617965722063616e20726560448201527f6c6179204c322d746f2d4c31206d657373616765732e00000000000000000000606482015260840161035f565b60655460ff1615610d645760405162461bcd60e51b815260206004820152601060248201527f5061757361626c653a2070617573656400000000000000000000000000000000604482015260640161035f565b6000610d728787878761129a565b9050610d7e8184611a02565b1515600114610df55760405162461bcd60e51b815260206004820152602760248201527f50726f7669646564206d65737361676520636f756c64206e6f7420626520766560448201527f7269666965642e00000000000000000000000000000000000000000000000000606482015260840161035f565b8051602080830191909120600081815260cb90925260409091205460ff1615610e865760405162461bcd60e51b815260206004820152602b60248201527f50726f7669646564206d6573736167652068617320616c72656164792062656560448201527f6e2072656365697665642e000000000000000000000000000000000000000000606482015260840161035f565b600081815260c9602052604090205460ff1615610f0b5760405162461bcd60e51b815260206004820152602260248201527f50726f7669646564206d65737361676520686173206265656e20626c6f636b6560448201527f642e000000000000000000000000000000000000000000000000000000000000606482015260840161035f565b610f496040518060400160405280601981526020017f43616e6f6e6963616c5472616e73616374696f6e436861696e000000000000008152506104f3565b73ffffffffffffffffffffffffffffffffffffffff168873ffffffffffffffffffffffffffffffffffffffff161415610fea5760405162461bcd60e51b815260206004820152603360248201527f43616e6e6f742073656e64204c322d3e4c31206d6573736167657320746f204c60448201527f312073797374656d20636f6e7472616374732e00000000000000000000000000606482015260840161035f565b60cd80547fffffffffffffffffffffffff00000000000000000000000000000000000000001673ffffffffffffffffffffffffffffffffffffffff898116919091179091556040516000918a1690611043908990613941565b6000604051808303816000865af19150503d8060008114611080576040519150601f19603f3d011682016040523d82523d6000602084013e611085565b606091505b505060cd80547fffffffffffffffffffffffff00000000000000000000000000000000000000001661dead17905590508015156001141561110557600082815260cb6020526040808220805460ff191660011790555183917f4641df4a962071e12719d8c8c8e5ac7fc4d97b927346a3d7a335b1f7517e133c91a2611146565b600082815260cc6020526040808220805460ff191660011790555183917f99d0e048484baa1b1540b1367cb128acd7ab2946d1ed91ec10e3c85e4bf51b8f91a25b600083334360405160200161115d9392919061395d565b60408051601f198184030181529181528151602092830120600090815260ca9092529020805460ff1916600190811790915560975550505050505050505050565b60335473ffffffffffffffffffffffffffffffffffffffff1633146112055760405162461bcd60e51b815260206004820181905260248201527f4f776e61626c653a2063616c6c6572206973206e6f7420746865206f776e6572604482015260640161035f565b73ffffffffffffffffffffffffffffffffffffffff811661128e5760405162461bcd60e51b815260206004820152602660248201527f4f776e61626c653a206e6577206f776e657220697320746865207a65726f206160448201527f6464726573730000000000000000000000000000000000000000000000000000606482015260840161035f565b611297816113b6565b50565b6060848484846040516024016112b394939291906139af565b60408051601f198184030181529190526020810180517bffffffffffffffffffffffffffffffffffffffffffffffffffffffff167fcbd4ece9000000000000000000000000000000000000000000000000000000001790529050949350505050565b6040517f6fee07e000000000000000000000000000000000000000000000000000000000815273ffffffffffffffffffffffffffffffffffffffff841690636fee07e09061137f9073420000000000000000000000000000000000000790859087906004016139f9565b600060405180830381600087803b15801561139957600080fd5b505af11580156113ad573d6000803e3d6000fd5b50505050505050565b6033805473ffffffffffffffffffffffffffffffffffffffff8381167fffffffffffffffffffffffff0000000000000000000000000000000000000000831681179093556040519116919082907f8be0079c531659141344cd1fd0a4f28419497f9722a3daafe3b4186f6b6457e090600090a35050565b60655460ff16156114805760405162461bcd60e51b815260206004820152601060248201527f5061757361626c653a2070617573656400000000000000000000000000000000604482015260640161035f565b6065805460ff191660011790557f62e78cea01bee320cd4e420270b5ea74000d11b0c9f74754ebdbfc544b05a2586114b53390565b60405173ffffffffffffffffffffffffffffffffffffffff909116815260200160405180910390a1565b6000547501000000000000000000000000000000000000000000900460ff1680611524575060005474010000000000000000000000000000000000000000900460ff16155b6115965760405162461bcd60e51b815260206004820152602e60248201527f496e697469616c697a61626c653a20636f6e747261637420697320616c72656160448201527f647920696e697469616c697a6564000000000000000000000000000000000000606482015260840161035f565b6000547501000000000000000000000000000000000000000000900460ff161580156115fd57600080547fffffffffffffffffffff0000ffffffffffffffffffffffffffffffffffffffff1675010100000000000000000000000000000000000000001790555b801561129757600080547fffffffffffffffffffff00ffffffffffffffffffffffffffffffffffffffffff16905550565b6000547501000000000000000000000000000000000000000000900460ff1680611673575060005474010000000000000000000000000000000000000000900460ff16155b6116e55760405162461bcd60e51b815260206004820152602e60248201527f496e697469616c697a61626c653a20636f6e747261637420697320616c72656160448201527f647920696e697469616c697a6564000000000000000000000000000000000000606482015260840161035f565b6000547501000000000000000000000000000000000000000000900460ff1615801561174c57600080547fffffffffffffffffffff0000ffffffffffffffffffffffffffffffffffffffff1675010100000000000000000000000000000000000000001790555b6115fd336113b6565b6000547501000000000000000000000000000000000000000000900460ff168061179a575060005474010000000000000000000000000000000000000000900460ff16155b61180c5760405162461bcd60e51b815260206004820152602e60248201527f496e697469616c697a61626c653a20636f6e747261637420697320616c72656160448201527f647920696e697469616c697a6564000000000000000000000000000000000000606482015260840161035f565b6000547501000000000000000000000000000000000000000000900460ff1615801561187357600080547fffffffffffffffffffff0000ffffffffffffffffffffffffffffffffffffffff1675010100000000000000000000000000000000000000001790555b6065805460ff19169055801561129757600080547fffffffffffffffffffff00ffffffffffffffffffffffffffffffffffffffffff16905550565b6000547501000000000000000000000000000000000000000000900460ff16806118f3575060005474010000000000000000000000000000000000000000900460ff16155b6119655760405162461bcd60e51b815260206004820152602e60248201527f496e697469616c697a61626c653a20636f6e747261637420697320616c72656160448201527f647920696e697469616c697a6564000000000000000000000000000000000000606482015260840161035f565b6000547501000000000000000000000000000000000000000000900460ff161580156119cc57600080547fffffffffffffffffffff0000ffffffffffffffffffffffffffffffffffffffff1675010100000000000000000000000000000000000000001790555b6001609755801561129757600080547fffffffffffffffffffff00ffffffffffffffffffffffffffffffffffffffffff16905550565b6000611a0d82611a25565b8015611a1e5750611a1e8383611bc7565b9392505050565b600080611a666040518060400160405280601481526020017f5374617465436f6d6d69746d656e74436861696e0000000000000000000000008152506104f3565b60208401516040517f9418bddd00000000000000000000000000000000000000000000000000000000815291925073ffffffffffffffffffffffffffffffffffffffff831691639418bddd91611abe91600401613a6b565b60206040518083038186803b158015611ad657600080fd5b505afa158015611aea573d6000803e3d6000fd5b505050506040513d601f19601f82011682018060405250810190611b0e9190613a7e565b158015611a1e57508251602084015160408086015190517f4d69ee5700000000000000000000000000000000000000000000000000000000815273ffffffffffffffffffffffffffffffffffffffff851693634d69ee5793611b77939192909190600401613aa0565b60206040518083038186803b158015611b8f57600080fd5b505afa158015611ba3573d6000803e3d6000fd5b505050506040513d601f19601f82011682018060405250810190611a1e9190613a7e565b60008083734200000000000000000000000000000000000007604051602001611bf1929190613b18565b60408051601f1981840301815282825280516020918201209083015260009082015260600160408051601f198184030181529082905280516020918201207f42000000000000000000000000000000000000000000000000000000000000009183019190915291506000908190611c819060340160408051601f1981840301815291905260608701518751611dab565b9092509050600182151514611d245760405162461bcd60e51b815260206004820152604d60248201527f4d6573736167652070617373696e67207072656465706c6f7920686173206e6f60448201527f74206265656e20696e697469616c697a6564206f7220696e76616c696420707260648201527f6f6f662070726f76696465642e00000000000000000000000000000000000000608482015260a40161035f565b6000611d2f82611dd4565b9050611da084604051602001611d4791815260200190565b60408051601f19818403018152908290527f010000000000000000000000000000000000000000000000000000000000000060208301529060210160405160208183030381529060405288608001518460400151611e98565b979650505050505050565b600060606000611dba86611ebc565b9050611dc7818686611eee565b9250925050935093915050565b604080516080810182526000808252602082018190529181018290526060810182905290611e0183611fc9565b90506040518060800160405280611e3183600081518110611e2457611e24613b62565b6020026020010151611ffc565b8152602001611e4c83600181518110611e2457611e24613b62565b8152602001611e7483600281518110611e6757611e67613b62565b6020026020010151612003565b8152602001611e8f83600381518110611e6757611e67613b62565b90529392505050565b600080611ea486611ebc565b9050611eb281868686612105565b9695505050505050565b60608180519060200120604051602001611ed891815260200190565b6040516020818303038152906040529050919050565b600060606000611efd8561213b565b90506000806000611f0f848a89612236565b81519295509093509150158080611f235750815b611f6f5760405162461bcd60e51b815260206004820152601a60248201527f50726f76696465642070726f6f6620697320696e76616c69642e000000000000604482015260640161035f565b600081611f8b5760405180602001604052806000815250611fb7565b611fb786611f9a600188613bc0565b81518110611faa57611faa613b62565b60200260200101516126d1565b919b919a509098505050505050505050565b60408051808201825260008082526020918201528151808301909252825182528083019082015260609061059a906126fb565b600061059a825b600060218260000151111561205a5760405162461bcd60e51b815260206004820152601a60248201527f496e76616c696420524c5020627974657333322076616c75652e000000000000604482015260640161035f565b6000806000612068856128fa565b91945092509050600081600181111561208357612083613bd7565b146120d05760405162461bcd60e51b815260206004820152601a60248201527f496e76616c696420524c5020627974657333322076616c75652e000000000000604482015260640161035f565b60008386602001516120e29190613c06565b80519091506020841015611eb25760208490036101000a90049695505050505050565b6000806000612115878686611eee565b91509150818015611da05750805160208083019190912087519188019190912014611da0565b6060600061214883611fc9565b90506000815167ffffffffffffffff8111156121665761216661327e565b6040519080825280602002602001820160405280156121ab57816020015b60408051808201909152606080825260208201528152602001906001900390816121845790505b50905060005b825181101561222e5760006121de8483815181106121d1576121d1613b62565b6020026020010151612c4b565b905060405180604001604052808281526020016121fa83611fc9565b81525083838151811061220f5761220f613b62565b602002602001018190525050808061222690613c1e565b9150506121b1565b509392505050565b6000606081808061224687612cdb565b9050600086905060008061226d604051806040016040528060608152602001606081525090565b60005b8c5181101561268d578c818151811061228b5761228b613b62565b6020026020010151915082846122a19190613c06565b93506122ae600188613c06565b9650836123125781518051602090910120851461230d5760405162461bcd60e51b815260206004820152601160248201527f496e76616c696420726f6f742068617368000000000000000000000000000000604482015260640161035f565b6123cf565b8151516020116123745781518051602090910120851461230d5760405162461bcd60e51b815260206004820152601b60248201527f496e76616c6964206c6172676520696e7465726e616c20686173680000000000604482015260640161035f565b846123828360000151612e5e565b146123cf5760405162461bcd60e51b815260206004820152601a60248201527f496e76616c696420696e7465726e616c206e6f64652068617368000000000000604482015260640161035f565b6123db60106001613c06565b82602001515114156124545785518414156123f55761268d565b600086858151811061240957612409613b62565b602001015160f81c60f81b60f81c9050600083602001518260ff168151811061243457612434613b62565b6020026020010151905061244781612e86565b965060019450505061267b565b6002826020015151141561263357600061246d83612ebc565b905060008160008151811061248457612484613b62565b016020015160f81c9050600061249b600283613c86565b6124a6906002613ca8565b905060006124b7848360ff16612ee0565b905060006124c58b8a612ee0565b905060006124d38383612f16565b905060ff8516600214806124ea575060ff85166003145b15612540578083511480156124ff5750808251145b156125115761250e818b613c06565b99505b507f8000000000000000000000000000000000000000000000000000000000000000995061268d945050505050565b60ff85161580612553575060ff85166001145b156125c5578251811461258f57507f8000000000000000000000000000000000000000000000000000000000000000995061268d945050505050565b6125b688602001516001815181106125a9576125a9613b62565b6020026020010151612e86565b9a50975061267b945050505050565b60405162461bcd60e51b815260206004820152602660248201527f52656365697665642061206e6f6465207769746820616e20756e6b6e6f776e2060448201527f7072656669780000000000000000000000000000000000000000000000000000606482015260840161035f565b60405162461bcd60e51b815260206004820152601d60248201527f526563656976656420616e20756e706172736561626c65206e6f64652e000000604482015260640161035f565b8061268581613c1e565b915050612270565b507f80000000000000000000000000000000000000000000000000000000000000008414866126bc8786612ee0565b909e909d50909b509950505050505050505050565b6020810151805160609161059a916126eb90600190613bc0565b815181106121d1576121d1613b62565b6060600080612709846128fa565b9193509091506001905081600181111561272557612725613bd7565b146127725760405162461bcd60e51b815260206004820152601760248201527f496e76616c696420524c50206c6973742076616c75652e000000000000000000604482015260640161035f565b6040805160208082526104208201909252600091816020015b604080518082019091526000808252602082015281526020019060019003908161278b5790505090506000835b86518110156128ef57602082106128375760405162461bcd60e51b815260206004820152602a60248201527f50726f766964656420524c50206c6973742065786365656473206d6178206c6960448201527f7374206c656e6774682e00000000000000000000000000000000000000000000606482015260840161035f565b6000806128746040518060400160405280858c600001516128589190613bc0565b8152602001858c6020015161286d9190613c06565b90526128fa565b5091509150604051806040016040528083836128909190613c06565b8152602001848b602001516128a59190613c06565b8152508585815181106128ba576128ba613b62565b60209081029190910101526128d0600185613c06565b93506128dc8183613c06565b6128e69084613c06565b925050506127b8565b508152949350505050565b6000806000808460000151116129525760405162461bcd60e51b815260206004820152601860248201527f524c50206974656d2063616e6e6f74206265206e756c6c2e0000000000000000604482015260640161035f565b6020840151805160001a607f8111612977576000600160009450945094505050612c44565b60b781116129f357600061298c608083613bc0565b9050808760000151116129e15760405162461bcd60e51b815260206004820152601960248201527f496e76616c696420524c502073686f727420737472696e672e00000000000000604482015260640161035f565b60019550935060009250612c44915050565b60bf8111612ae2576000612a0860b783613bc0565b905080876000015111612a5d5760405162461bcd60e51b815260206004820152601f60248201527f496e76616c696420524c50206c6f6e6720737472696e67206c656e6774682e00604482015260640161035f565b600183015160208290036101000a9004612a778183613c06565b885111612ac65760405162461bcd60e51b815260206004820152601860248201527f496e76616c696420524c50206c6f6e6720737472696e672e0000000000000000604482015260640161035f565b612ad1826001613c06565b9650945060009350612c4492505050565b60f78111612b5d576000612af760c083613bc0565b905080876000015111612b4c5760405162461bcd60e51b815260206004820152601760248201527f496e76616c696420524c502073686f7274206c6973742e000000000000000000604482015260640161035f565b600195509350849250612c44915050565b6000612b6a60f783613bc0565b905080876000015111612bbf5760405162461bcd60e51b815260206004820152601d60248201527f496e76616c696420524c50206c6f6e67206c697374206c656e6774682e000000604482015260640161035f565b600183015160208290036101000a9004612bd98183613c06565b885111612c285760405162461bcd60e51b815260206004820152601660248201527f496e76616c696420524c50206c6f6e67206c6973742e00000000000000000000604482015260640161035f565b612c33826001613c06565b9650945060019350612c4492505050565b9193909250565b60606000806000612c5b856128fa565b919450925090506000816001811115612c7657612c76613bd7565b14612cc35760405162461bcd60e51b815260206004820152601860248201527f496e76616c696420524c502062797465732076616c75652e0000000000000000604482015260640161035f565b612cd285602001518484612fc2565b95945050505050565b6060600082516002612ced9190613ccb565b67ffffffffffffffff811115612d0557612d0561327e565b6040519080825280601f01601f191660200182016040528015612d2f576020820181803683370190505b50905060005b8351811015612e57576004848281518110612d5257612d52613b62565b01602001517fff0000000000000000000000000000000000000000000000000000000000000016901c82612d87836002613ccb565b81518110612d9757612d97613b62565b60200101907effffffffffffffffffffffffffffffffffffffffffffffffffffffffffffff1916908160001a9053506010848281518110612dda57612dda613b62565b0160200151612dec919060f81c613c86565b60f81b82612dfb836002613ccb565b612e06906001613c06565b81518110612e1657612e16613b62565b60200101907effffffffffffffffffffffffffffffffffffffffffffffffffffffffffffff1916908160001a90535080612e4f81613c1e565b915050612d35565b5092915050565b6000602082511015612e7257506020015190565b8180602001905181019061059a9190613d08565b60006060602083600001511015612ea757612ea0836130a1565b9050612eb3565b612eb083612c4b565b90505b611a1e81612e5e565b606061059a612edb83602001516000815181106121d1576121d1613b62565b612cdb565b606082518210612eff575060408051602081019091526000815261059a565b611a1e8383848651612f119190613bc0565b6130ac565b6000805b808451118015612f2a5750808351115b8015612fab5750828181518110612f4357612f43613b62565b602001015160f81c60f81b7effffffffffffffffffffffffffffffffffffffffffffffffffffffffffffff1916848281518110612f8257612f82613b62565b01602001517fff0000000000000000000000000000000000000000000000000000000000000016145b15611a1e5780612fba81613c1e565b915050612f1a565b606060008267ffffffffffffffff811115612fdf57612fdf61327e565b6040519080825280601f01601f191660200182016040528015613009576020820181803683370190505b50905080516000141561301d579050611a1e565b60006130298587613c06565b90506020820160005b61303d602087613d21565b8110156130745782518252613053602084613c06565b9250613060602083613c06565b91508061306c81613c1e565b915050613032565b5060006001602087066020036101000a039050808251168119845116178252839450505050509392505050565b606061059a8261322d565b6060816130ba81601f613c06565b10156131085760405162461bcd60e51b815260206004820152600e60248201527f736c6963655f6f766572666c6f77000000000000000000000000000000000000604482015260640161035f565b826131138382613c06565b10156131615760405162461bcd60e51b815260206004820152600e60248201527f736c6963655f6f766572666c6f77000000000000000000000000000000000000604482015260640161035f565b61316b8284613c06565b845110156131bb5760405162461bcd60e51b815260206004820152601160248201527f736c6963655f6f75744f66426f756e6473000000000000000000000000000000604482015260640161035f565b6060821580156131da5760405191506000825260208201604052613224565b6040519150601f8416801560200281840101858101878315602002848b0101015b818310156132135780518352602092830192016131fb565b5050858452601f01601f1916604052505b50949350505050565b606061059a826020015160008460000151612fc2565b60006020828403121561325557600080fd5b5035919050565b73ffffffffffffffffffffffffffffffffffffffff8116811461129757600080fd5b7f4e487b7100000000000000000000000000000000000000000000000000000000600052604160045260246000fd5b6040805190810167ffffffffffffffff811182821017156132d0576132d061327e565b60405290565b60405160a0810167ffffffffffffffff811182821017156132d0576132d061327e565b604051601f8201601f1916810167ffffffffffffffff811182821017156133225761332261327e565b604052919050565b600067ffffffffffffffff8311156133445761334461327e565b6133576020601f19601f860116016132f9565b905082815283838301111561336b57600080fd5b828260208301376000602084830101529392505050565b600082601f83011261339357600080fd5b611a1e8383356020850161332a565b803563ffffffff811681146133b657600080fd5b919050565b6000806000606084860312156133d057600080fd5b83356133db8161325c565b9250602084013567ffffffffffffffff8111156133f757600080fd5b61340386828701613382565b925050613412604085016133a2565b90509250925092565b60006020828403121561342d57600080fd5b813567ffffffffffffffff81111561344457600080fd5b8201601f8101841361345557600080fd5b6134648482356020840161332a565b949350505050565b600080600080600060a0868803121561348457600080fd5b853561348f8161325c565b9450602086013561349f8161325c565b9350604086013567ffffffffffffffff8111156134bb57600080fd5b6134c788828901613382565b935050606086013591506134dd608087016133a2565b90509295509295909350565b6000602082840312156134fb57600080fd5b8135611a1e8161325c565b600060a0828403121561351857600080fd5b60405160a0810167ffffffffffffffff828210818311171561353c5761353c61327e565b8160405282935084358352602085013560208401526040850135604084015260608501356060840152608085013591508082111561357957600080fd5b5061358685828601613382565b6080830152505092915050565b6000604082840312156135a557600080fd5b6135ad6132ad565b90508135815260208083013567ffffffffffffffff808211156135cf57600080fd5b818501915085601f8301126135e357600080fd5b8135818111156135f5576135f561327e565b8060051b91506136068483016132f9565b818152918301840191848101908884111561362057600080fd5b938501935b8385101561363e57843582529385019390850190613625565b808688015250505050505092915050565b600080600080600060a0868803121561366757600080fd5b85356136728161325c565b945060208601356136828161325c565b9350604086013567ffffffffffffffff8082111561369f57600080fd5b6136ab89838a01613382565b94506060880135935060808801359150808211156136c857600080fd5b9087019060a0828a0312156136dc57600080fd5b6136e46132d6565b823581526020830135828111156136fa57600080fd5b6137068b828601613506565b60208301525060408301358281111561371e57600080fd5b61372a8b828601613593565b60408301525060608301358281111561374257600080fd5b61374e8b828601613382565b60608301525060808301358281111561376657600080fd5b6137728b828601613382565b6080830152508093505050509295509295909350565b805164ffffffffff811681146133b657600080fd5b6000602082840312156137af57600080fd5b611a1e82613788565b60005b838110156137d35781810151838201526020016137bb565b838111156137e2576000848401525b50505050565b600081518084526138008160208601602086016137b8565b601f01601f19169290920160200192915050565b73ffffffffffffffffffffffffffffffffffffffff8516815260806020820152600061384360808301866137e8565b905064ffffffffff8416604083015263ffffffff8316606083015295945050505050565b602081526000611a1e60208301846137e8565b60006020828403121561388c57600080fd5b8151611a1e8161325c565b6000606082840312156138a957600080fd5b6040516060810181811067ffffffffffffffff821117156138cc576138cc61327e565b604052825181526138df60208401613788565b60208201526138f060408401613788565b60408201529392505050565b600073ffffffffffffffffffffffffffffffffffffffff808716835280861660208401525063ffffffff8416604083015260806060830152611eb260808301846137e8565b600082516139538184602087016137b8565b9190910192915050565b6000845161396f8184602089016137b8565b60609490941b7fffffffffffffffffffffffffffffffffffffffff0000000000000000000000001691909301908152601481019190915260340192915050565b600073ffffffffffffffffffffffffffffffffffffffff8087168352808616602084015250608060408301526139e860808301856137e8565b905082606083015295945050505050565b73ffffffffffffffffffffffffffffffffffffffff84168152826020820152606060408201526000612cd260608301846137e8565b805182526020810151602083015260408101516040830152606081015160608301526000608082015160a0608085015261346460a08501826137e8565b602081526000611a1e6020830184613a2e565b600060208284031215613a9057600080fd5b81518015158114611a1e57600080fd5b83815260006020606081840152613aba6060840186613a2e565b83810360408501526040810185518252828601516040848401528181518084526060850191508583019450600093505b80841015613b0a5784518252938501936001939093019290850190613aea565b509998505050505050505050565b60008351613b2a8184602088016137b8565b60609390931b7fffffffffffffffffffffffffffffffffffffffff000000000000000000000000169190920190815260140192915050565b7f4e487b7100000000000000000000000000000000000000000000000000000000600052603260045260246000fd5b7f4e487b7100000000000000000000000000000000000000000000000000000000600052601160045260246000fd5b600082821015613bd257613bd2613b91565b500390565b7f4e487b7100000000000000000000000000000000000000000000000000000000600052602160045260246000fd5b60008219821115613c1957613c19613b91565b500190565b60007fffffffffffffffffffffffffffffffffffffffffffffffffffffffffffffffff821415613c5057613c50613b91565b5060010190565b7f4e487b7100000000000000000000000000000000000000000000000000000000600052601260045260246000fd5b600060ff831680613c9957613c99613c57565b8060ff84160691505092915050565b600060ff821660ff841680821015613cc257613cc2613b91565b90039392505050565b6000817fffffffffffffffffffffffffffffffffffffffffffffffffffffffffffffffff0483118215151615613d0357613d03613b91565b500290565b600060208284031215613d1a57600080fd5b5051919050565b600082613d3057613d30613c57565b50049056fea164736f6c6343000808000a",
  "linkReferences": {},
  "deployedLinkReferences": {}
}