{
  "address": "0x02bCeeA3A298fe394Cb537b4e86E6141b5F2da36",
  "abi": [
    {
      "inputs": [
        {
          "internalType": "uint256",
          "name": "opIndex",
          "type": "uint256"
        },
        {
          "internalType": "address",
          "name": "paymaster",
          "type": "address"
        },
        {
          "internalType": "string",
          "name": "reason",
          "type": "string"
        }
      ],
      "name": "FailedOp",
      "type": "error"
    },
    {
      "inputs": [
        {
          "internalType": "address",
          "name": "sender",
          "type": "address"
        }
      ],
      "name": "SenderAddressResult",
      "type": "error"
    },
    {
      "inputs": [
        {
          "internalType": "address",
          "name": "aggregator",
          "type": "address"
        }
      ],
      "name": "SignatureValidationFailed",
      "type": "error"
    },
    {
      "inputs": [
        {
          "internalType": "uint256",
          "name": "preOpGas",
          "type": "uint256"
        },
        {
          "internalType": "uint256",
          "name": "prefund",
          "type": "uint256"
        },
        {
          "internalType": "uint256",
          "name": "deadline",
          "type": "uint256"
        },
        {
          "components": [
            {
              "internalType": "uint256",
              "name": "paymasterStake",
              "type": "uint256"
            },
            {
              "internalType": "uint256",
              "name": "paymasterUnstakeDelay",
              "type": "uint256"
            }
          ],
          "internalType": "struct IEntryPoint.PaymasterInfo",
          "name": "paymasterInfo",
          "type": "tuple"
        }
      ],
      "name": "SimulationResult",
      "type": "error"
    },
    {
      "inputs": [
        {
          "internalType": "uint256",
          "name": "preOpGas",
          "type": "uint256"
        },
        {
          "internalType": "uint256",
          "name": "prefund",
          "type": "uint256"
        },
        {
          "internalType": "uint256",
          "name": "deadline",
          "type": "uint256"
        },
        {
          "components": [
            {
              "internalType": "uint256",
              "name": "paymasterStake",
              "type": "uint256"
            },
            {
              "internalType": "uint256",
              "name": "paymasterUnstakeDelay",
              "type": "uint256"
            }
          ],
          "internalType": "struct IEntryPoint.PaymasterInfo",
          "name": "paymasterInfo",
          "type": "tuple"
        },
        {
          "components": [
            {
              "internalType": "address",
              "name": "actualAggregator",
              "type": "address"
            },
            {
              "internalType": "uint256",
              "name": "aggregatorStake",
              "type": "uint256"
            },
            {
              "internalType": "uint256",
              "name": "aggregatorUnstakeDelay",
              "type": "uint256"
            }
          ],
          "internalType": "struct IEntryPoint.AggregationInfo",
          "name": "aggregationInfo",
          "type": "tuple"
        }
      ],
      "name": "SimulationResultWithAggregation",
      "type": "error"
    },
    {
      "anonymous": false,
      "inputs": [
        {
          "indexed": true,
          "internalType": "address",
          "name": "account",
          "type": "address"
        },
        {
          "indexed": false,
          "internalType": "uint256",
          "name": "totalDeposit",
          "type": "uint256"
        }
      ],
      "name": "Deposited",
      "type": "event"
    },
    {
      "anonymous": false,
      "inputs": [
        {
          "indexed": true,
          "internalType": "address",
          "name": "account",
          "type": "address"
        },
        {
          "indexed": false,
          "internalType": "uint256",
          "name": "totalStaked",
          "type": "uint256"
        },
        {
          "indexed": false,
          "internalType": "uint256",
          "name": "withdrawTime",
          "type": "uint256"
        }
      ],
      "name": "StakeLocked",
      "type": "event"
    },
    {
      "anonymous": false,
      "inputs": [
        {
          "indexed": true,
          "internalType": "address",
          "name": "account",
          "type": "address"
        },
        {
          "indexed": false,
          "internalType": "uint256",
          "name": "withdrawTime",
          "type": "uint256"
        }
      ],
      "name": "StakeUnlocked",
      "type": "event"
    },
    {
      "anonymous": false,
      "inputs": [
        {
          "indexed": true,
          "internalType": "address",
          "name": "account",
          "type": "address"
        },
        {
          "indexed": false,
          "internalType": "address",
          "name": "withdrawAddress",
          "type": "address"
        },
        {
          "indexed": false,
          "internalType": "uint256",
          "name": "amount",
          "type": "uint256"
        }
      ],
      "name": "StakeWithdrawn",
      "type": "event"
    },
    {
      "anonymous": false,
      "inputs": [
        {
          "indexed": true,
          "internalType": "bytes32",
          "name": "requestId",
          "type": "bytes32"
        },
        {
          "indexed": true,
          "internalType": "address",
          "name": "sender",
          "type": "address"
        },
        {
          "indexed": true,
          "internalType": "address",
          "name": "paymaster",
          "type": "address"
        },
        {
          "indexed": false,
          "internalType": "uint256",
          "name": "nonce",
          "type": "uint256"
        },
        {
          "indexed": false,
          "internalType": "uint256",
          "name": "actualGasCost",
          "type": "uint256"
        },
        {
          "indexed": false,
          "internalType": "uint256",
          "name": "actualGasPrice",
          "type": "uint256"
        },
        {
          "indexed": false,
          "internalType": "bool",
          "name": "success",
          "type": "bool"
        }
      ],
      "name": "UserOperationEvent",
      "type": "event"
    },
    {
      "anonymous": false,
      "inputs": [
        {
          "indexed": true,
          "internalType": "bytes32",
          "name": "requestId",
          "type": "bytes32"
        },
        {
          "indexed": true,
          "internalType": "address",
          "name": "sender",
          "type": "address"
        },
        {
          "indexed": false,
          "internalType": "uint256",
          "name": "nonce",
          "type": "uint256"
        },
        {
          "indexed": false,
          "internalType": "bytes",
          "name": "revertReason",
          "type": "bytes"
        }
      ],
      "name": "UserOperationRevertReason",
      "type": "event"
    },
    {
      "anonymous": false,
      "inputs": [
        {
          "indexed": true,
          "internalType": "address",
          "name": "account",
          "type": "address"
        },
        {
          "indexed": false,
          "internalType": "address",
          "name": "withdrawAddress",
          "type": "address"
        },
        {
          "indexed": false,
          "internalType": "uint256",
          "name": "amount",
          "type": "uint256"
        }
      ],
      "name": "Withdrawn",
      "type": "event"
    },
    {
      "inputs": [
        {
          "internalType": "uint32",
          "name": "_unstakeDelaySec",
          "type": "uint32"
        }
      ],
      "name": "addStake",
      "outputs": [],
      "stateMutability": "payable",
      "type": "function"
    },
    {
      "inputs": [
        {
          "internalType": "address",
          "name": "account",
          "type": "address"
        }
      ],
      "name": "balanceOf",
      "outputs": [
        {
          "internalType": "uint256",
          "name": "",
          "type": "uint256"
        }
      ],
      "stateMutability": "view",
      "type": "function"
    },
    {
      "inputs": [
        {
          "internalType": "address",
          "name": "account",
          "type": "address"
        }
      ],
      "name": "depositTo",
      "outputs": [],
      "stateMutability": "payable",
      "type": "function"
    },
    {
      "inputs": [
        {
          "internalType": "address",
          "name": "",
          "type": "address"
        }
      ],
      "name": "deposits",
      "outputs": [
        {
          "internalType": "uint112",
          "name": "deposit",
          "type": "uint112"
        },
        {
          "internalType": "bool",
          "name": "staked",
          "type": "bool"
        },
        {
          "internalType": "uint112",
          "name": "stake",
          "type": "uint112"
        },
        {
          "internalType": "uint32",
          "name": "unstakeDelaySec",
          "type": "uint32"
        },
        {
          "internalType": "uint64",
          "name": "withdrawTime",
          "type": "uint64"
        }
      ],
      "stateMutability": "view",
      "type": "function"
    },
    {
      "inputs": [
        {
          "internalType": "address",
          "name": "account",
          "type": "address"
        }
      ],
      "name": "getDepositInfo",
      "outputs": [
        {
          "components": [
            {
              "internalType": "uint112",
              "name": "deposit",
              "type": "uint112"
            },
            {
              "internalType": "bool",
              "name": "staked",
              "type": "bool"
            },
            {
              "internalType": "uint112",
              "name": "stake",
              "type": "uint112"
            },
            {
              "internalType": "uint32",
              "name": "unstakeDelaySec",
              "type": "uint32"
            },
            {
              "internalType": "uint64",
              "name": "withdrawTime",
              "type": "uint64"
            }
          ],
          "internalType": "struct IStakeManager.DepositInfo",
          "name": "info",
          "type": "tuple"
        }
      ],
      "stateMutability": "view",
      "type": "function"
    },
    {
      "inputs": [
        {
          "components": [
            {
              "internalType": "address",
              "name": "sender",
              "type": "address"
            },
            {
              "internalType": "uint256",
              "name": "nonce",
              "type": "uint256"
            },
            {
              "internalType": "bytes",
              "name": "initCode",
              "type": "bytes"
            },
            {
              "internalType": "bytes",
              "name": "callData",
              "type": "bytes"
            },
            {
              "internalType": "uint256",
              "name": "callGasLimit",
              "type": "uint256"
            },
            {
              "internalType": "uint256",
              "name": "verificationGasLimit",
              "type": "uint256"
            },
            {
              "internalType": "uint256",
              "name": "preVerificationGas",
              "type": "uint256"
            },
            {
              "internalType": "uint256",
              "name": "maxFeePerGas",
              "type": "uint256"
            },
            {
              "internalType": "uint256",
              "name": "maxPriorityFeePerGas",
              "type": "uint256"
            },
            {
              "internalType": "bytes",
              "name": "paymasterAndData",
              "type": "bytes"
            },
            {
              "internalType": "bytes",
              "name": "signature",
              "type": "bytes"
            }
          ],
          "internalType": "struct UserOperation",
          "name": "userOp",
          "type": "tuple"
        }
      ],
      "name": "getRequestId",
      "outputs": [
        {
          "internalType": "bytes32",
          "name": "",
          "type": "bytes32"
        }
      ],
      "stateMutability": "view",
      "type": "function"
    },
    {
      "inputs": [
        {
          "internalType": "bytes",
          "name": "initCode",
          "type": "bytes"
        }
      ],
      "name": "getSenderAddress",
      "outputs": [],
      "stateMutability": "nonpayable",
      "type": "function"
    },
    {
      "inputs": [
        {
          "components": [
            {
              "components": [
                {
                  "internalType": "address",
                  "name": "sender",
                  "type": "address"
                },
                {
                  "internalType": "uint256",
                  "name": "nonce",
                  "type": "uint256"
                },
                {
                  "internalType": "bytes",
                  "name": "initCode",
                  "type": "bytes"
                },
                {
                  "internalType": "bytes",
                  "name": "callData",
                  "type": "bytes"
                },
                {
                  "internalType": "uint256",
                  "name": "callGasLimit",
                  "type": "uint256"
                },
                {
                  "internalType": "uint256",
                  "name": "verificationGasLimit",
                  "type": "uint256"
                },
                {
                  "internalType": "uint256",
                  "name": "preVerificationGas",
                  "type": "uint256"
                },
                {
                  "internalType": "uint256",
                  "name": "maxFeePerGas",
                  "type": "uint256"
                },
                {
                  "internalType": "uint256",
                  "name": "maxPriorityFeePerGas",
                  "type": "uint256"
                },
                {
                  "internalType": "bytes",
                  "name": "paymasterAndData",
                  "type": "bytes"
                },
                {
                  "internalType": "bytes",
                  "name": "signature",
                  "type": "bytes"
                }
              ],
              "internalType": "struct UserOperation[]",
              "name": "userOps",
              "type": "tuple[]"
            },
            {
              "internalType": "contract IAggregator",
              "name": "aggregator",
              "type": "address"
            },
            {
              "internalType": "bytes",
              "name": "signature",
              "type": "bytes"
            }
          ],
          "internalType": "struct IEntryPoint.UserOpsPerAggregator[]",
          "name": "opsPerAggregator",
          "type": "tuple[]"
        },
        {
          "internalType": "address payable",
          "name": "beneficiary",
          "type": "address"
        }
      ],
      "name": "handleAggregatedOps",
      "outputs": [],
      "stateMutability": "nonpayable",
      "type": "function"
    },
    {
      "inputs": [
        {
          "components": [
            {
              "internalType": "address",
              "name": "sender",
              "type": "address"
            },
            {
              "internalType": "uint256",
              "name": "nonce",
              "type": "uint256"
            },
            {
              "internalType": "bytes",
              "name": "initCode",
              "type": "bytes"
            },
            {
              "internalType": "bytes",
              "name": "callData",
              "type": "bytes"
            },
            {
              "internalType": "uint256",
              "name": "callGasLimit",
              "type": "uint256"
            },
            {
              "internalType": "uint256",
              "name": "verificationGasLimit",
              "type": "uint256"
            },
            {
              "internalType": "uint256",
              "name": "preVerificationGas",
              "type": "uint256"
            },
            {
              "internalType": "uint256",
              "name": "maxFeePerGas",
              "type": "uint256"
            },
            {
              "internalType": "uint256",
              "name": "maxPriorityFeePerGas",
              "type": "uint256"
            },
            {
              "internalType": "bytes",
              "name": "paymasterAndData",
              "type": "bytes"
            },
            {
              "internalType": "bytes",
              "name": "signature",
              "type": "bytes"
            }
          ],
          "internalType": "struct UserOperation[]",
          "name": "ops",
          "type": "tuple[]"
        },
        {
          "internalType": "address payable",
          "name": "beneficiary",
          "type": "address"
        }
      ],
      "name": "handleOps",
      "outputs": [],
      "stateMutability": "nonpayable",
      "type": "function"
    },
    {
      "inputs": [
        {
          "internalType": "bytes",
          "name": "callData",
          "type": "bytes"
        },
        {
          "components": [
            {
              "components": [
                {
                  "internalType": "address",
                  "name": "sender",
                  "type": "address"
                },
                {
                  "internalType": "uint256",
                  "name": "nonce",
                  "type": "uint256"
                },
                {
                  "internalType": "uint256",
                  "name": "callGasLimit",
                  "type": "uint256"
                },
                {
                  "internalType": "uint256",
                  "name": "verificationGasLimit",
                  "type": "uint256"
                },
                {
                  "internalType": "uint256",
                  "name": "preVerificationGas",
                  "type": "uint256"
                },
                {
                  "internalType": "address",
                  "name": "paymaster",
                  "type": "address"
                },
                {
                  "internalType": "uint256",
                  "name": "maxFeePerGas",
                  "type": "uint256"
                },
                {
                  "internalType": "uint256",
                  "name": "maxPriorityFeePerGas",
                  "type": "uint256"
                }
              ],
              "internalType": "struct EntryPoint.MemoryUserOp",
              "name": "mUserOp",
              "type": "tuple"
            },
            {
              "internalType": "bytes32",
              "name": "requestId",
              "type": "bytes32"
            },
            {
              "internalType": "uint256",
              "name": "prefund",
              "type": "uint256"
            },
            {
              "internalType": "uint256",
              "name": "contextOffset",
              "type": "uint256"
            },
            {
              "internalType": "uint256",
              "name": "preOpGas",
              "type": "uint256"
            }
          ],
          "internalType": "struct EntryPoint.UserOpInfo",
          "name": "opInfo",
          "type": "tuple"
        },
        {
          "internalType": "bytes",
          "name": "context",
          "type": "bytes"
        }
      ],
      "name": "innerHandleOp",
      "outputs": [
        {
          "internalType": "uint256",
          "name": "actualGasCost",
          "type": "uint256"
        }
      ],
      "stateMutability": "nonpayable",
      "type": "function"
    },
    {
      "inputs": [
        {
          "components": [
            {
              "internalType": "address",
              "name": "sender",
              "type": "address"
            },
            {
              "internalType": "uint256",
              "name": "nonce",
              "type": "uint256"
            },
            {
              "internalType": "bytes",
              "name": "initCode",
              "type": "bytes"
            },
            {
              "internalType": "bytes",
              "name": "callData",
              "type": "bytes"
            },
            {
              "internalType": "uint256",
              "name": "callGasLimit",
              "type": "uint256"
            },
            {
              "internalType": "uint256",
              "name": "verificationGasLimit",
              "type": "uint256"
            },
            {
              "internalType": "uint256",
              "name": "preVerificationGas",
              "type": "uint256"
            },
            {
              "internalType": "uint256",
              "name": "maxFeePerGas",
              "type": "uint256"
            },
            {
              "internalType": "uint256",
              "name": "maxPriorityFeePerGas",
              "type": "uint256"
            },
            {
              "internalType": "bytes",
              "name": "paymasterAndData",
              "type": "bytes"
            },
            {
              "internalType": "bytes",
              "name": "signature",
              "type": "bytes"
            }
          ],
          "internalType": "struct UserOperation",
          "name": "userOp",
          "type": "tuple"
        }
      ],
      "name": "simulateValidation",
      "outputs": [],
      "stateMutability": "nonpayable",
      "type": "function"
    },
    {
      "inputs": [],
      "name": "unlockStake",
      "outputs": [],
      "stateMutability": "nonpayable",
      "type": "function"
    },
    {
      "inputs": [
        {
          "internalType": "address payable",
          "name": "withdrawAddress",
          "type": "address"
        }
      ],
      "name": "withdrawStake",
      "outputs": [],
      "stateMutability": "nonpayable",
      "type": "function"
    },
    {
      "inputs": [
        {
          "internalType": "address payable",
          "name": "withdrawAddress",
          "type": "address"
        },
        {
          "internalType": "uint256",
          "name": "withdrawAmount",
          "type": "uint256"
        }
      ],
      "name": "withdrawTo",
      "outputs": [],
      "stateMutability": "nonpayable",
      "type": "function"
    },
    {
      "stateMutability": "payable",
      "type": "receive"
    }
  ],
  "transactionHash": "0x8590e83e1106246178916e412a8764f15e1d599952aeedc7564869ff6a5c70ac",
  "args": [],
  "numDeployments": 1,
  "solcInputHash": "a586fc7e3cb76e96981f8a31f30ad234",
  "bytecode": "0x60a08060405234620000845761022c8181016001600160401b038111838210176200006e57829162004426833903906000f08015620000625760805260405161439c90816200008a8239608051818181610ce701528181612beb0152612e4c0152f35b6040513d6000823e3d90fd5b634e487b7160e01b600052604160045260246000fd5b600080fdfe60806040526004361015610023575b361561001957600080fd5b610021613dc2565b005b60003560e01c80630396cb601461013b57806314e72634146101325780631d732756146101295780631fad948c14610120578063205c2878146101175780634b1d7cf51461010e5780635287ce121461010557806370a08231146100fc5780639b249f69146100f3578063b760faf9146100ea578063bb9fe6bf146100e1578063c23a5cea146100d8578063ee219423146100cf5763fc7e286d0361000e576100ca6111e5565b61000e565b506100ca611057565b506100ca610eff565b506100ca610db2565b506100ca610d86565b506100ca610c6a565b506100ca610c1b565b506100ca610b9e565b506100ca610950565b506100ca610803565b506100ca6105e8565b506100ca610461565b506100ca6102e0565b5060206003193601126102a85760043563ffffffff81168082036102a8576102a37fa5ae833d0bb1dcd632d98a8b70973e8516812898e19bf27b70071ebc8dc52c01916101ce61019e336001600160a01b03166000526000602052604060002090565b916101aa811515613ef4565b6101c76101be600185015463ffffffff1690565b63ffffffff1690565b1115613f3f565b54926102856dffffffffffffffffffffffffffff946102506101f534888460781c16611628565b96610201881515613f8a565b61020c818910613fd5565b610230816102186103dc565b941684906dffffffffffffffffffffffffffff169052565b6001602084015287166dffffffffffffffffffffffffffff166040830152565b63ffffffff8316606082015260006080820152610280336001600160a01b03166000526000602052604060002090565b614020565b6040805194855263ffffffff90911660208501523393918291820190565b0390a2005b600080fd5b600319906020828201126102a8576004359167ffffffffffffffff83116102a85782610160920301126102a85760040190565b50346102a85760206102f96102f4366102ad565b611bca565b604051908152f35b9181601f840112156102a85782359167ffffffffffffffff83116102a857602083818601950101116102a857565b507f4e487b7100000000000000000000000000000000000000000000000000000000600052604160045260246000fd5b60a0810190811067ffffffffffffffff82111761037b57604052565b61038361032f565b604052565b610100810190811067ffffffffffffffff82111761037b57604052565b67ffffffffffffffff811161037b57604052565b90601f601f19910116810190811067ffffffffffffffff82111761037b57604052565b604051906103e98261035f565b565b604051906040820182811067ffffffffffffffff82111761037b57604052565b604051906060820182811067ffffffffffffffff82111761037b57604052565b6001600160a01b038116036102a857565b602435906103e98261042b565b60c435906103e98261042b565b35906103e98261042b565b50346102a8576101c06003193601126102a85767ffffffffffffffff6004358181116102a857610495903690600401610301565b367fffffffffffffffffffffffffffffffffffffffffffffffffffffffffffffffdc01929161018084126102a857610100604051946104d38661035f565b126102a8576040516104e481610388565b6104ec61043c565b815260443560208201526064356040820152608435606082015260a4356080820152610516610449565b60a082015260e43560c08201526101043560e082015284526101243560208501526101443560408501526101643560608501526101843560808501526101a4359283116102a85761058a9361057261057a943690600401610301565b939092611ac6565b6040519081529081906020820190565b0390f35b9060406003198301126102a85760043567ffffffffffffffff928382116102a857806023830112156102a85781600401359384116102a85760248460051b830101116102a85760240191906024356105e58161042b565b90565b50346102a8576105f73661058e565b61060282939261131c565b60005b848110610654575060009283915b85831061062457610021858561149f565b90919360019061064a61063887898761139b565b61064288866113e9565b519088611635565b0194019190610613565b939261066485858395949561139b565b9461066f81856113e9565b515a81519761067e89826120ee565b61068781611bca565b6020840152608091828a01519960609a8b820151179a6106cd6effffffffffffffffffffffffffffff60409d8e850151176101008701359060e088013517171115611ce5565b6106d6826121a2565b6106e28188878b612355565b50506106ed43600052565b60a0809401906001600160a01b0361070c83516001600160a01b031690565b16156107f45761071f90838a898d61343b565b50935b5a8603908701351061075557509060c09392916001999a9b9c9d8801528601525a90039101350191015201929092610605565b8d896107f061076b84516001600160a01b031690565b925192839262fa072b60e01b8452600484019060c0926001600160a01b0391835216602082015260606040820152602360608201527f55736564206d6f7265207468616e20766572696669636174696f6e4761734c6960808201527f6d6974000000000000000000000000000000000000000000000000000000000060a08201520190565b0390fd5b506107fd611436565b93610722565b50346102a85760406003193601126102a8576004356108218161042b565b6024359060009133835282602052604083206dffffffffffffffffffffffffffff8154169283831161090c5784836001600160a01b038295936108bc849661088361087087986109099c611613565b6dffffffffffffffffffffffffffff1690565b6dffffffffffffffffffffffffffff167fffffffffffffffffffffffffffffffffffff0000000000000000000000000000825416179055565b604080516001600160a01b03831681526020810185905233917fd1c19fbcd4551a5edfb66d43d2e337c04837afda3482b42bdf569a8fccdae5fb91a2165af1610903611468565b5061431b565b80f35b606460405162461bcd60e51b815260206004820152601960248201527f576974686472617720616d6f756e7420746f6f206c61726765000000000000006044820152fd5b50346102a85761095f3661058e565b6000805b838210610b7557610974915061131c565b6000805b848110610a1157505060008093815b81811061099857610021868661149f565b6109ac6109a682848a6117d4565b80611822565b906000915b8083106109c9575050506109c49061179a565b610987565b90919497610a046109fe610a0a926109f88c8b6109f1826109eb8e8b8d61139b565b926113e9565b5191611635565b90611628565b9961179a565b9561179a565b91906109b1565b610a1c8186886117d4565b610a268180611822565b9091610a3460208201611876565b6001600160a01b03169260005b87848210610b3f57505083610a63575b50505050610a5e9061179a565b610978565b610a7c60409a97949a999693999895928981019061150d565b8b3b156102a8578b918a5193849283927fe3563a4f00000000000000000000000000000000000000000000000000000000845260049e8f850193610abf946119a8565b03815a93600094fa9081610b26575b50610b115786517f86a9f7500000000000000000000000000000000000000000000000000000000081526001600160a01b038a16818a0190815281906020010390fd5b94975092955090935091610a5e388080610a51565b80610b33610b39926103a5565b80610da7565b38610ace565b87610b6387610b6a93610b5b869c6109eb610b70988c8b61139b565b519084611ebe565b505061179a565b9661179a565b610a41565b610b92610b9891610b8a6109a685888a6117d4565b919050611628565b9161179a565b90610963565b50346102a85760206003193601126102a85760a0610bc6600435610bc18161042b565b613d16565b67ffffffffffffffff6080604051926dffffffffffffffffffffffffffff808251168552602082015115156020860152604082015116604085015263ffffffff60608201511660608501520151166080820152f35b50346102a85760206003193601126102a8576001600160a01b03600435610c418161042b565b16600052600060205260206dffffffffffffffffffffffffffff60406000205416604051908152f35b50346102a85760206003193601126102a85760043567ffffffffffffffff81116102a857610c9e6024913690600401610301565b90610cd46040519283927f570e1a3600000000000000000000000000000000000000000000000000000000845260048401611cd4565b036020826001600160a01b0392816000857f0000000000000000000000000000000000000000000000000000000000000000165af1918215610d79575b600092610d49575b50604051917f6ca7b806000000000000000000000000000000000000000000000000000000008352166004820152fd5b610d6b91925060203d8111610d72575b610d6381836103b9565b810190611cbf565b9038610d19565b503d610d59565b610d816115d6565b610d11565b5060206003193601126102a857610021600435610da28161042b565b613e95565b60009103126102a857565b50346102a857600080600319360112610efc573381528060205260408120600181019063ffffffff825416908115610eb757610e52610e15610e7a93610e05610e00855460ff9060701c1690565b614188565b67ffffffffffffffff42166141d3565b84547fffffffffffffffffffffffffffffffffffffffff0000000000000000ffffffff16602082901b6bffffffffffffffff000000001617909455565b7fffffffffffffffffffffffffffffffffff00ffffffffffffffffffffffffffff8154169055565b60405167ffffffffffffffff91909116815233907ffa9b3c14cc825c412c9ed81b3ba365a5b459439403f18829e572ed53a4180f0a90602090a280f35b60405162461bcd60e51b815260206004820152600a60248201527f6e6f74207374616b6564000000000000000000000000000000000000000000006044820152606490fd5b80fd5b50346102a85760206003193601126102a857600435610f1d8161042b565b6109096001600160a01b03610f45336001600160a01b03166000526000602052604060002090565b92611001610f6861087086546dffffffffffffffffffffffffffff9060781c1690565b94610f748615156141ef565b610fd960018201610fb167ffffffffffffffff610f9d835467ffffffffffffffff9060201c1690565b16610fa981151561423a565b421015614285565b80547fffffffffffffffffffffffffffffffffffffffff000000000000000000000000169055565b7fffffff0000000000000000000000000000ffffffffffffffffffffffffffffff8154169055565b604080516001600160a01b03831681526020810186905233917fb7c918e0e249f999e965cafeb6c664271b3f4317d296461500e71da39f0cbda391a2600080809581948294165af1611051611468565b506142d0565b50346102a857611066366102ad565b5a90611070611299565b9061107b8282611d30565b6110b6610bc160a06110a660409695969560c061109d888b01519b5a90611613565b91013590611628565b965101516001600160a01b031690565b916110e260606110d6838601516dffffffffffffffffffffffffffff1690565b94015163ffffffff1690565b6110ea6103eb565b936dffffffffffffffffffffffffffff809116855263ffffffff80921660208601526001600160a01b0386166111515750506107f09350519485947f9adb6dea00000000000000000000000000000000000000000000000000000000865260048601611c93565b9085949392916111636107f097613d16565b9061118f6060611183868501516dffffffffffffffffffffffffffff1690565b93015163ffffffff1690565b916111aa61119b61040b565b6001600160a01b039099168952565b1660208701521681850152519586957f2c2adbcc00000000000000000000000000000000000000000000000000000000875260048701611c3e565b50346102a85760206003193601126102a8576001600160a01b0360043561120b8161042b565b16600052600060205260a0604060002067ffffffffffffffff60018254920154604051926dffffffffffffffffffffffffffff90818116855260ff8160701c161515602086015260781c16604084015263ffffffff8116606084015260201c166080820152f35b60209067ffffffffffffffff811161128c575b60051b0190565b61129461032f565b611285565b604051906112a68261035f565b604051608083610100830167ffffffffffffffff81118482101761130f575b60405260009283815283602082015283604082015283606082015283838201528360a08201528360c08201528360e082015281528260208201528260408201528260608201520152565b61131761032f565b6112c5565b9061132682611272565b61133360405191826103b9565b828152601f196113438294611272565b019060005b82811061135457505050565b60209061135f611299565b82828501015201611348565b507f4e487b7100000000000000000000000000000000000000000000000000000000600052603260045260246000fd5b91908110156113dc575b60051b810135907ffffffffffffffffffffffffffffffffffffffffffffffffffffffffffffffea1813603018212156102a8570190565b6113e461136b565b6113a5565b60209181518110156113fe575b60051b010190565b61140661136b565b6113f6565b601f19601f60209267ffffffffffffffff8111611429575b01160190565b61143161032f565b611423565b604051906020820182811067ffffffffffffffff82111761145b575b60405260008252565b61146361032f565b611452565b3d15611493573d906114798261140b565b9161148760405193846103b9565b82523d6000602084013e565b606090565b156102a857565b6001600160a01b031680156114c95760008080809481945af16114c0611468565b5015610efc5750565b606460405162461bcd60e51b815260206004820152601360248201527f696e76616c69642062656e6566696369617279000000000000000000000000006044820152fd5b9035907fffffffffffffffffffffffffffffffffffffffffffffffffffffffffffffffe1813603018212156102a8570180359067ffffffffffffffff82116102a8576020019181360383136102a857565b908160209103126102a8575190565b601f8260209493601f19938186528686013760008582860101520116010190565b60005b8381106115a15750506000910152565b8181015183820152602001611591565b90601f19601f6020936115cf8151809281875287808801910161158e565b0116010190565b506040513d6000823e3d90fd5b507f4e487b7100000000000000000000000000000000000000000000000000000000600052601160045260246000fd5b9190820391821161162057565b6103e96115e3565b9190820180921161162057565b905a92606081019361168c611650865194606081019061150d565b9190604051927f1d7327560000000000000000000000000000000000000000000000000000000084526101c060048501526101c484019161156d565b9560e084516001600160a01b03808251166024860152602082015160448601526040820151606486015260608201516084860152608082015160a486015260a08201511660c485015260c081015160e4850152015161010483015260208401516101248301526040840151610144830152516101648201526020818061172b60808701998a51610184840152600319838203016101a4840152886115b1565b03816000305af16000918161176a575b5061176157506105e59461175361175b925a90611613565b905190611628565b92613738565b94505050505090565b61178c91925060203d8111611793575b61178481836103b9565b81019061155e565b903861173b565b503d61177a565b6001907fffffffffffffffffffffffffffffffffffffffffffffffffffffffffffffffff81146117c8570190565b6117d06115e3565b0190565b9190811015611815575b60051b810135907fffffffffffffffffffffffffffffffffffffffffffffffffffffffffffffffa1813603018212156102a8570190565b61181d61136b565b6117de565b9035907fffffffffffffffffffffffffffffffffffffffffffffffffffffffffffffffe1813603018212156102a8570180359067ffffffffffffffff82116102a857602001918160051b360383136102a857565b356105e58161042b565b90357fffffffffffffffffffffffffffffffffffffffffffffffffffffffffffffffe1823603018112156102a857016020813591019167ffffffffffffffff82116102a85781360383136102a857565b6105e5916118ee816118e184610456565b6001600160a01b03169052565b6020820135602082015261198961193a61191f61190e6040860186611880565b61016080604088015286019161156d565b61192c6060860186611880565b90858303606087015261156d565b6080840135608084015260a084013560a084015260c084013560c084015260e084013560e0840152610100808501359084015261012061197c81860186611880565b918584039086015261156d565b9161199a6101409182810190611880565b92909181850391015261156d565b949391929083604087016040885252606086019360608160051b8801019482600090815b8483106119eb575050505050508460206105e59596850391015261156d565b9091929394977fffffffffffffffffffffffffffffffffffffffffffffffffffffffffffffffa08b820301855288357ffffffffffffffffffffffffffffffffffffffffffffffffffffffffffffffea184360301811215611a665760019184611a5492016118d0565b986020908101969501930191906119cc565b8280fd5b908092918237016000815290565b6040906105e59392815281602082015201906115b1565b929192611a9b8261140b565b91611aa960405193846103b9565b8294818452818301116102a8578281602093846000960137010152565b9190926105e594935a90611adb303314611498565b835190600095818792611b09575b5050505090611b03915a9003608084015101943691611a8f565b916139d6565b90829182611b1e86516001600160a01b031690565b604087015193611b3360405180958193611a6a565b0393f190611b3f611468565b9115611b4e575b808691611ae9565b611b03939295508151611b69575b5050600193909138611b46565b7f1c4fada7374c0a9ee8841fc38afe82932dc0f8e69012e927f061a8bae611a2016001600160a01b03602087015192611bc06020611bae83516001600160a01b031690565b92015195604051938493169683611a78565b0390a33880611b5c565b80611bd961014082018261150d565b5003601f1981016040519182016040528082526020820192833751902060405160208101918252306040820152466060820152606081526080810181811067ffffffffffffffff821117611c31575b60405251902090565b611c3961032f565b611c28565b93611c729060e094604094989793986101008801998852602088015284870152606086019060208091805184520151910152565b6001600160a01b0381511660a0850152602081015160c08501520151910152565b6103e99360609296959360a0830197835260208301526040820152019060208091805184520151910152565b908160209103126102a857516105e58161042b565b9160206105e593818152019161156d565b15611cec57565b606460405162461bcd60e51b815260206004820152601360248201527f6761732076616c756573206f766572666c6f77000000000000000000000000006044820152fd5b915a91805193611d4085826120ee565b611d4981611bca565b6020830152611d876effffffffffffffffffffffffffffff60808701516060880151176040880151176101008401359060e085013517171115611ce5565b611d90856121a2565b93611d9c85848461265e565b9160a083989299611dac43600052565b01906001600160a01b03611dc783516001600160a01b031690565b1615611ead57611dd99083888861317b565b90938115159081611ea3575b50611e9b575b505b5a840360a086013510611e185750604085015260608401526080919060c0905a900391013501910152565b5160405162fa072b60e01b8152600060048201526001600160a01b03909116602482015260606044820152602360648201527f55736564206d6f7265207468616e20766572696669636174696f6e4761734c6960848201527f6d6974000000000000000000000000000000000000000000000000000000000060a482015260c490fd5b975038611deb565b9050811038611de5565b509150611eb8611436565b91611ded565b929391905a825195611ed087846120ee565b611ed983611bca565b6020850152611f176effffffffffffffffffffffffffffff608089015160608a01511760408a0151176101008601359060e087013517171115611ce5565b611f2d611f23886121a2565b809286868a612a01565b929160a08499929a611f3e43600052565b01906001600160a01b03611f5983516001600160a01b031690565b161561204057611f6c908489898661343b565b90948115159081612036575b5061202e575b505b5a850360a087013510611fac575050604085015260608401526080919060c0905a900391013501910152565b5160405162fa072b60e01b815260048101929092526001600160a01b0316602482015260606044820152602360648201527f55736564206d6f7265207468616e20766572696669636174696f6e4761734c6960848201527f6d6974000000000000000000000000000000000000000000000000000000000060a482015260c490fd5b985038611f7e565b9050811038611f78565b50925061204b611436565b92611f80565b1561205857565b606460405162461bcd60e51b815260206004820152601860248201527f696e76616c6964207061796d6173746572416e644461746100000000000000006044820152fd5b906014116102a85790601490565b7fffffffffffffffffffffffffffffffffffffffff00000000000000000000000090358181169392601481106120df57505050565b60140360031b82901b16169150565b6121539061210b6120fe82611876565b6001600160a01b03168452565b602081013560208401526080810135604084015260a0810135606084015260c0810135608084015260e081013560c084015261010081013560e084015261012081019061150d565b9081156121975761218961218361217d8460a09461217860146103e999981015612051565b61209c565b906120aa565b60601c90565b6001600160a01b0316910152565b505060a06000910152565b60a08101516001600160a01b0316156121db576121d760035b60ff604084015191166060840151020160808301510191613cee565b0290565b6121d760016121bb565b6121fd606092959493956080835260808301906118d0565b946020820152600060408201520152565b9060609295949361222f6001600160a01b03926080855260808501906118d0565b9660208401521660408201520152565b60009060033d1161224c57565b905060046000803e60005160e01c90565b600060443d106105e55760405160031991823d016004833e815167ffffffffffffffff918282113d6024840111176122bb578184019485519384116122c3573d850101602084870101116122bb57506105e5929101602001906103b9565b949350505050565b50949350505050565b9060606105e592600081526000602082015281604082015201906115b1565b6060906105e5939281526000602082015281604082015201906115b1565b6060906001600160a01b036105e594936000835216602082015281604082015201906115b1565b6001600160a01b036105e59493606093835216602082015281604082015201906115b1565b600093849384935a948251906123fa60206040956123806123788888018861150d565b90878c612de6565b839061239386516001600160a01b031690565b96856001600160a01b0392836123b360a08b01516001600160a01b031690565b16159889612601575b60600151908601518b517f0825d1fc0000000000000000000000000000000000000000000000000000000081529788968795869390600485016121e5565b03938a1690f18291816125e1575b5061256f575060019061241961223f565b6308c379a01461253e575b50612512575b612439575b505050505a900392565b612456906001600160a01b03166000526000602052604060002090565b9261247261087085546dffffffffffffffffffffffffffff1690565b918284116124bf57505082547fffffffffffffffffffffffffffffffffffff0000000000000000000000000000169190036dffffffffffffffffffffffffffff161790553880808061242f565b5162fa072b60e01b815260048101919091526000602482015260606044820152601960648201527f77616c6c6574206469646e2774207061792070726566756e6400000000000000608482015260a49150fd5b825162fa072b60e01b815260048101869052600060248201819052606060448301526064820152608490fd5b61254661225d565b90816125525750612424565b6107f0868992505192839262fa072b60e01b8452600484016122eb565b91975050801515806125d8575b612586579561242a565b825162fa072b60e01b8152600481018690526000602482015260606044820152600760648201527f6578706972656400000000000000000000000000000000000000000000000000608482015260a490fd5b5042811061257c565b6125fa91925060203d81116117935761178481836103b9565b9038612408565b945061263a6108706126268c6001600160a01b03166000526000602052604060002090565b546dffffffffffffffffffffffffffff1690565b8c80821115612653575050856060835b969150506123bc565b87916060910361264a565b91906000915a9180519461267f612678604083018361150d565b9088612b88565b600460206126a661269a61269a8a516001600160a01b031690565b6001600160a01b031690565b604051928380927f3ad59dbc0000000000000000000000000000000000000000000000000000000082525afa600091816129e0575b506129d9575060009560005b6000906126fb83516001600160a01b031690565b946001600160a01b0361271860a08601516001600160a01b031690565b1615948561298b575b600060206060819697015193015191612769604051978896879586947f0825d1fc0000000000000000000000000000000000000000000000000000000086526004860161220e565b03926001600160a01b03891690f16000918161296a575b506128f85750600161279061223f565b6308c379a0146128c9575b612895575b6127ad575b50505a900392565b6127ca906001600160a01b03166000526000602052604060002090565b6127e561087082546dffffffffffffffffffffffffffff1690565b8083116128425761283b926dffffffffffffffffffffffffffff9103166dffffffffffffffffffffffffffff167fffffffffffffffffffffffffffffffffffff0000000000000000000000000000825416179055565b38806127a5565b60405162fa072b60e01b8152600060048201819052602482015260606044820152601960648201527f77616c6c6574206469646e2774207061792070726566756e6400000000000000608482015260a490fd5b60405162fa072b60e01b8152806107f060048201608090600081526000602082015260606040820152600060608201520190565b6128d161225d565b806128dc575061279b565b6107f09060405191829162fa072b60e01b8352600483016122cc565b80919550151580612961575b61290e57936127a0565b60405162fa072b60e01b8152600060048201819052602482015260606044820152600760648201527f6578706972656400000000000000000000000000000000000000000000000000608482015260a490fd5b50428110612904565b61298491925060203d6020116117935761178481836103b9565b9038612780565b602093506129b2610870612626896001600160a01b03166000526000602052604060002090565b888111156129cc57506000846060825b9650505050612721565b8460606000928b036129c2565b95866126e7565b6129fa91925060203d602011610d7257610d6381836103b9565b90386126db565b9091929360009460009384955a958151604094612a2b612a238787018761150d565b90848b612de6565b6001600160a01b0390600182821614612b02575b8391612a5284516001600160a01b031690565b968582612a6960a08801516001600160a01b031690565b16159788612ab7575b602060608197980151910151926123fa8c51988997889687947f0825d1fc0000000000000000000000000000000000000000000000000000000086526004860161220e565b60209550612ade6108706126268c6001600160a01b03166000526000602052604060002090565b8c80821115612af7575050856060835b97505050612a72565b879160609103612aee565b50995060046020612b2061269a61269a85516001600160a01b031690565b8751928380927f3ad59dbc0000000000000000000000000000000000000000000000000000000082525afa839181612b68575b50612b615750819982612a3f565b998a612a3f565b612b8191925060203d8111610d7257610d6381836103b9565b9038612b53565b9082612b9357505050565b81516001600160a01b03163b612d9357612bd86040519384927f570e1a3600000000000000000000000000000000000000000000000000000000845260048401611cd4565b036020836001600160a01b0392816000857f0000000000000000000000000000000000000000000000000000000000000000165af1928315612d86575b600093612d66575b508216908115612d135751612c3a906001600160a01b031661269a565b03612c9a573b15612c4757565b60405162fa072b60e01b8152600060048201819052602482015260606044820152602060648201527f696e6974436f6465206661696c656420746f206372656174652073656e646572608482015260a490fd5b60405162fa072b60e01b8152600060048201819052602482015260606044820152602560648201527f73656e64657220646f65736e2774206d6174636820696e6974436f646520616460848201527f647265737300000000000000000000000000000000000000000000000000000060a482015260c490fd5b60405162fa072b60e01b8152600060048201819052602482015260606044820152600f60648201527f696e6974436f6465206661696c65640000000000000000000000000000000000608482015260a490fd5b612d7f91935060203d8111610d7257610d6381836103b9565b9138612c1d565b612d8e6115d6565b612c15565b60405162fa072b60e01b8152600060048201819052602482015260606044820152601a60648201527f73656e64657220616c726561647920636f6e7374727563746564000000000000608482015260a490fd5b929182612df4575b50505050565b81516001600160a01b03163b612ffb57612e396040519384927f570e1a3600000000000000000000000000000000000000000000000000000000845260048401611cd4565b036020836001600160a01b0392816000857f0000000000000000000000000000000000000000000000000000000000000000165af1928315612fee575b600093612fce575b508216908115612f7b5751612e9b906001600160a01b031661269a565b03612f02573b15612eae57808080612dee565b60405162fa072b60e01b815260048101919091526000602482015260606044820152602060648201527f696e6974436f6465206661696c656420746f206372656174652073656e646572608482015260a490fd5b60405162fa072b60e01b8152600481018390526000602482015260606044820152602560648201527f73656e64657220646f65736e2774206d6174636820696e6974436f646520616460848201527f647265737300000000000000000000000000000000000000000000000000000060a482015260c490fd5b60405162fa072b60e01b8152600481018590526000602482015260606044820152600f60648201527f696e6974436f6465206661696c65640000000000000000000000000000000000608482015260a490fd5b612fe791935060203d8111610d7257610d6381836103b9565b9138612e7e565b612ff66115d6565b612e76565b60405162fa072b60e01b8152600481018590526000602482015260606044820152601a60648201527f73656e64657220616c726561647920636f6e7374727563746564000000000000608482015260a490fd5b6060906001600160a01b036105e5936000835216602082015281604082015201604090600a81527f6e6f74207374616b65640000000000000000000000000000000000000000000060208201520190565b6001600160a01b036105e593606093835216602082015281604082015201604090600a81527f6e6f74207374616b65640000000000000000000000000000000000000000000060208201520190565b91906040838203126102a857825167ffffffffffffffff81116102a85783019080601f830112156102a8578151916131258361140b565b9161313360405193846103b9565b838352602084830101116102a8576020926131539184808501910161158e565b92015190565b613171604092959493956060835260608301906118d0565b9460208201520152565b9391939290926060946000946000928151946131a160a08701516001600160a01b031690565b956131bf876001600160a01b03166000526000602052604060002090565b80546dffffffffffffffffffffffffffff9060ff8282169160701c1615613421578781106133c657938c8896946132378b9997956020956132749c8c9803166dffffffffffffffffffffffffffff167fffffffffffffffffffffffffffffffffffff0000000000000000000000000000825416179055565b01510393015191604051968795869485937ff465c77e00000000000000000000000000000000000000000000000000000000855260048501613159565b03926001600160a01b03891690f19081839184936133a0575b5061332257505060019061329f61223f565b6308c379a0146132f0575b506132b25750565b6107f09060405191829162fa072b60e01b8352600483016001600160a01b036080926000835216602082015260606040820152600060608201520190565b6132f861225d565b908161330457506132aa565b8390506107f060405192839262fa072b60e01b845260048401612309565b93945094505083151580613397575b61333a57509190565b60405162fa072b60e01b8152600060048201526001600160a01b0391909116602482015260606044820152600760648201527f6578706972656400000000000000000000000000000000000000000000000000608482015260a490fd5b50428410613331565b9092506133bf91503d8085833e6133b781836103b9565b8101906130ee565b913861328d565b60405162fa072b60e01b8152600060048201526001600160a01b038b16602482015260606044820152601960648201527f7061796d6173746572206465706f73697420746f6f206c6f7700000000000000608482015260a490fd5b60405162fa072b60e01b8152806107f08c6004830161304e565b9094929493919360609560009560009281519561346260a08801516001600160a01b031690565b96613480886001600160a01b03166000526000602052604060002090565b80546dffffffffffffffffffffffffffff9060ff8282169160701c161561369a5787811061363f57938d8896946132378b9997956020956134f89c8c9803166dffffffffffffffffffffffffffff167fffffffffffffffffffffffffffffffffffff0000000000000000000000000000825416179055565b03926001600160a01b038a1690f1908183918493613621575b506135a157505060019061352361223f565b6308c379a01461356f575b50613537575050565b60405162fa072b60e01b815260048101919091526001600160a01b039190911660248201526060604482015260006064820152608490fd5b61357761225d565b9081613583575061352e565b6107f092505060405193849362fa072b60e01b855260048501612330565b94955095505084151580613618575b6135ba5750509190565b60405162fa072b60e01b815260048101919091526001600160a01b0391909116602482015260606044820152600760648201527f6578706972656400000000000000000000000000000000000000000000000000608482015260a490fd5b504285106135b0565b90925061363891503d8085833e6133b781836103b9565b9138613511565b60405162fa072b60e01b8152600481018b90526001600160a01b038c16602482015260606044820152601960648201527f7061796d6173746572206465706f73697420746f6f206c6f7700000000000000608482015260a490fd5b60405162fa072b60e01b8152806107f08d8d6004840161309f565b600311156136bf57565b7f4e487b7100000000000000000000000000000000000000000000000000000000600052602160045260246000fd5b92919061370c604091600286526060602087015260608601906115b1565b930152565b9392919060038110156136bf5760409161370c9186526060602087015260608601906115b1565b91909392935a9160009180519061374e82613cee565b9460a08301968661376689516001600160a01b031690565b9a6001600160a01b0396878d16908161388f57505085516001600160a01b0316935b5a900301029960408401918b8351106138315750507f33fd4d1f25a5461bea901784a6571de6debc16cd0831932c22c6969cd73ba9949493926137d461382c938c602094510390613dcb565b01519460206137fb6137ed85516001600160a01b031690565b99516001600160a01b031690565b930151968a85604051968796169a169885926060929594919560808501968552602085015260408401521515910152565b0390a4565b60405162fa072b60e01b815260048101919091526001600160a01b0391909116602482015260606044820152601b60648201527f70726566756e642062656c6f772061637475616c476173436f73740000000000608482015260a490fd5b8d959181516138a0575b5050613788565b919293509850600098606088015190823b156139d2576138f88c93928c92836040519586809581947fa9a234090000000000000000000000000000000000000000000000000000000083528a8d0290600484016136ee565b0393f190816139bf575b506139b85750600161391261223f565b6308c379a014613987575b61392c579088915b3880613899565b60405162fa072b60e01b8152600481018490526001600160a01b038d16602482015260606044820152600d60648201527f706f73744f702072657665727400000000000000000000000000000000000000608482015260a490fd5b61398f61225d565b8061399a575061391d565b846107f08f9260405193849362fa072b60e01b855260048501612330565b9190613925565b80610b336139cc926103a5565b38613902565b8a80fd5b909392935a9281516139e781613cee565b9260a0820195846139ff88516001600160a01b031690565b996001600160a01b0395868c1680613b1a57505084516001600160a01b0316925b5a900301029860408301908a825110613abd57507f33fd4d1f25a5461bea901784a6571de6debc16cd0831932c22c6969cd73ba994949392613a6b61382c938c602094510390613dcb565b613a74886136b5565b0151946020613a8d6137ed85516001600160a01b031690565b93015160408051918252602082018c90528101919091529515606087015290821695909116939081906080820190565b60405162fa072b60e01b8152600060048201526001600160a01b0391909116602482015260606044820152601b60648201527f70726566756e642062656c6f772061637475616c476173436f73740000000000608482015260a490fd5b8c94918051613b2b575b5050613a20565b9093830293613b398b6136b5565b60028b14613bc757606088015194813b156102a8578a95613b8f93600080948f604051978896879586937fa9a2340900000000000000000000000000000000000000000000000000000000855260048501613711565b0393f18015613bba575b613ba7575b505b3880613b24565b80610b33613bb4926103a5565b38613b9e565b613bc26115d6565b613b99565b60608895939495015192813b156102a8578a93613c1993600080948f604051978896879586937fa9a2340900000000000000000000000000000000000000000000000000000000855260048501613711565b0393f19081613cdb575b50613cd457506001613c3361223f565b6308c379a014613ca5575b613c4a57908691613ba0565b60405162fa072b60e01b8152600060048201526001600160a01b038c16602482015260606044820152600d60648201527f706f73744f702072657665727400000000000000000000000000000000000000608482015260a490fd5b613cad61225d565b80613cb85750613c3e565b8c6107f060405192839262fa072b60e01b845260048401612309565b9190613ba0565b80610b33613ce8926103a5565b38613c23565b60e060c0820151910151808214613d1257480180821015613d0d575090565b905090565b5090565b60806001600160a01b036040928351613d2e8161035f565b60009381858093528260208201528287820152826060820152015216815280602052206105e567ffffffffffffffff600160405193613d6c8561035f565b80546dffffffffffffffffffffffffffff8082168752607082901c60ff161515602088015260789190911c166040860152015463ffffffff8116606085015260201c16608083019067ffffffffffffffff169052565b6103e933613e95565b6001600160a01b0316600052600060205260406000206dffffffffffffffffffffffffffff80825416928301809311613e88575b808311613e44576103e992166dffffffffffffffffffffffffffff167fffffffffffffffffffffffffffffffffffff0000000000000000000000000000825416179055565b606460405162461bcd60e51b815260206004820152601060248201527f6465706f736974206f766572666c6f77000000000000000000000000000000006044820152fd5b613e906115e3565b613dff565b6001600160a01b0390613ea83482613dcb565b168060005260006020527f2da466a7b24304f47e87fa2e1e5a81b9831ce54fec19055ce277ca2f39ba42c460206dffffffffffffffffffffffffffff60406000205416604051908152a2565b15613efb57565b606460405162461bcd60e51b815260206004820152601a60248201527f6d757374207370656369667920756e7374616b652064656c61790000000000006044820152fd5b15613f4657565b606460405162461bcd60e51b815260206004820152601c60248201527f63616e6e6f7420646563726561736520756e7374616b652074696d65000000006044820152fd5b15613f9157565b606460405162461bcd60e51b815260206004820152601260248201527f6e6f207374616b652073706563696669656400000000000000000000000000006044820152fd5b15613fdc57565b606460405162461bcd60e51b815260206004820152600e60248201527f7374616b65206f766572666c6f770000000000000000000000000000000000006044820152fd5b9067ffffffffffffffff608060016103e9946140826dffffffffffffffffffffffffffff86511682906dffffffffffffffffffffffffffff167fffffffffffffffffffffffffffffffffffff0000000000000000000000000000825416179055565b602085015115156eff000000000000000000000000000082549160701b16807fffffffffffffffffffffffffffffffffff00ffffffffffffffffffffffffffff83161783557fffffff000000000000000000000000000000ffffffffffffffffffffffffffff7cffffffffffffffffffffffffffff000000000000000000000000000000604089015160781b16921617178155019263ffffffff6060820151167fffffffffffffffffffffffffffffffffffffffffffffffffffffffff000000008554161784550151167fffffffffffffffffffffffffffffffffffffffff0000000000000000ffffffff6bffffffffffffffff0000000083549260201b169116179055565b1561418f57565b606460405162461bcd60e51b815260206004820152601160248201527f616c726561647920756e7374616b696e670000000000000000000000000000006044820152fd5b91909167ffffffffffffffff8080941691160191821161162057565b156141f657565b606460405162461bcd60e51b815260206004820152601460248201527f4e6f207374616b6520746f2077697468647261770000000000000000000000006044820152fd5b1561424157565b606460405162461bcd60e51b815260206004820152601d60248201527f6d7573742063616c6c20756e6c6f636b5374616b6528292066697273740000006044820152fd5b1561428c57565b606460405162461bcd60e51b815260206004820152601b60248201527f5374616b65207769746864726177616c206973206e6f742064756500000000006044820152fd5b156142d757565b606460405162461bcd60e51b815260206004820152601860248201527f6661696c656420746f207769746864726177207374616b6500000000000000006044820152fd5b1561432257565b606460405162461bcd60e51b815260206004820152601260248201527f6661696c656420746f20776974686472617700000000000000000000000000006044820152fdfea2646970667358221220d6569b5533773c530ed738433f2a86939724582d6347a48656e41f9aa267fe0d64736f6c634300081100336080806040523461001657610210908161001c8239f35b600080fdfe6080604052600436101561001257600080fd5b6000803560e01c63570e1a361461002857600080fd5b346100c95760207ffffffffffffffffffffffffffffffffffffffffffffffffffffffffffffffffc3601126100c95760043567ffffffffffffffff918282116100c957366023830112156100c95781600401359283116100c95736602484840101116100c9576100c561009e84602485016100fc565b60405173ffffffffffffffffffffffffffffffffffffffff90911681529081906020820190565b0390f35b80fd5b507f4e487b7100000000000000000000000000000000000000000000000000000000600052604160045260246000fd5b90806014116101bb5767ffffffffffffffff917fffffffffffffffffffffffffffffffffffffffffffffffffffffffffffffffec82018381116101cd575b604051937fffffffffffffffffffffffffffffffffffffffffffffffffffffffffffffffe0603f81600b8701160116850190858210908211176101c0575b604052808452602084019036848401116101bb576020946000600c819682946014880187378301015251923560601c5af19060005191156101b557565b60009150565b600080fd5b6101c86100cc565b610178565b6101d56100cc565b61013a56fea2646970667358221220a4eaf56300a3fabaec35cc7947b79615ceb3bc5c7a7cb55ba394241e70b3dc1a64736f6c63430008110033"
}