{
  "_format": "hh-sol-artifact-1",
  "contractName": "L1CrossDomainMessenger",
  "sourceName": "contracts/L1/messaging/L1CrossDomainMessenger.sol",
  "abi": [
    {
      "inputs": [],
      "stateMutability": "nonpayable",
      "type": "constructor"
    },
    {
      "anonymous": false,
      "inputs": [
        {
          "indexed": true,
          "internalType": "bytes32",
          "name": "msgHash",
          "type": "bytes32"
        }
      ],
      "name": "FailedRelayedMessage",
      "type": "event"
    },
    {
      "anonymous": false,
      "inputs": [
        {
          "indexed": true,
          "internalType": "bytes32",
          "name": "_xDomainCalldataHash",
          "type": "bytes32"
        }
      ],
      "name": "MessageAllowed",
      "type": "event"
    },
    {
      "anonymous": false,
      "inputs": [
        {
          "indexed": true,
          "internalType": "bytes32",
          "name": "_xDomainCalldataHash",
          "type": "bytes32"
        }
      ],
      "name": "MessageBlocked",
      "type": "event"
    },
    {
      "anonymous": false,
      "inputs": [
        {
          "indexed": true,
          "internalType": "address",
          "name": "previousOwner",
          "type": "address"
        },
        {
          "indexed": true,
          "internalType": "address",
          "name": "newOwner",
          "type": "address"
        }
      ],
      "name": "OwnershipTransferred",
      "type": "event"
    },
    {
      "anonymous": false,
      "inputs": [
        {
          "indexed": false,
          "internalType": "address",
          "name": "account",
          "type": "address"
        }
      ],
      "name": "Paused",
      "type": "event"
    },
    {
      "anonymous": false,
      "inputs": [
        {
          "indexed": true,
          "internalType": "bytes32",
          "name": "msgHash",
          "type": "bytes32"
        }
      ],
      "name": "RelayedMessage",
      "type": "event"
    },
    {
      "anonymous": false,
      "inputs": [
        {
          "indexed": true,
          "internalType": "address",
          "name": "target",
          "type": "address"
        },
        {
          "indexed": false,
          "internalType": "address",
          "name": "sender",
          "type": "address"
        },
        {
          "indexed": false,
          "internalType": "bytes",
          "name": "message",
          "type": "bytes"
        },
        {
          "indexed": false,
          "internalType": "uint256",
          "name": "messageNonce",
          "type": "uint256"
        },
        {
          "indexed": false,
          "internalType": "uint256",
          "name": "gasLimit",
          "type": "uint256"
        }
      ],
      "name": "SentMessage",
      "type": "event"
    },
    {
      "anonymous": false,
      "inputs": [
        {
          "indexed": false,
          "internalType": "address",
          "name": "account",
          "type": "address"
        }
      ],
      "name": "Unpaused",
      "type": "event"
    },
    {
      "inputs": [
        {
          "internalType": "bytes32",
          "name": "_xDomainCalldataHash",
          "type": "bytes32"
        }
      ],
      "name": "allowMessage",
      "outputs": [],
      "stateMutability": "nonpayable",
      "type": "function"
    },
    {
      "inputs": [
        {
          "internalType": "bytes32",
          "name": "_xDomainCalldataHash",
          "type": "bytes32"
        }
      ],
      "name": "blockMessage",
      "outputs": [],
      "stateMutability": "nonpayable",
      "type": "function"
    },
    {
      "inputs": [
        {
          "internalType": "bytes32",
          "name": "",
          "type": "bytes32"
        }
      ],
      "name": "blockedMessages",
      "outputs": [
        {
          "internalType": "bool",
          "name": "",
          "type": "bool"
        }
      ],
      "stateMutability": "view",
      "type": "function"
    },
    {
      "inputs": [
        {
          "internalType": "bytes32",
          "name": "",
          "type": "bytes32"
        }
      ],
      "name": "failedMessages",
      "outputs": [
        {
          "internalType": "bool",
          "name": "",
          "type": "bool"
        }
      ],
      "stateMutability": "view",
      "type": "function"
    },
    {
      "inputs": [
        {
          "internalType": "address",
          "name": "_libAddressManager",
          "type": "address"
        }
      ],
      "name": "initialize",
      "outputs": [],
      "stateMutability": "nonpayable",
      "type": "function"
    },
    {
      "inputs": [],
      "name": "libAddressManager",
      "outputs": [
        {
          "internalType": "contract Lib_AddressManager",
          "name": "",
          "type": "address"
        }
      ],
      "stateMutability": "view",
      "type": "function"
    },
    {
      "inputs": [],
      "name": "owner",
      "outputs": [
        {
          "internalType": "address",
          "name": "",
          "type": "address"
        }
      ],
      "stateMutability": "view",
      "type": "function"
    },
    {
      "inputs": [],
      "name": "pause",
      "outputs": [],
      "stateMutability": "nonpayable",
      "type": "function"
    },
    {
      "inputs": [],
      "name": "paused",
      "outputs": [
        {
          "internalType": "bool",
          "name": "",
          "type": "bool"
        }
      ],
      "stateMutability": "view",
      "type": "function"
    },
    {
      "inputs": [
        {
          "internalType": "address",
          "name": "_target",
          "type": "address"
        },
        {
          "internalType": "address",
          "name": "_sender",
          "type": "address"
        },
        {
          "internalType": "bytes",
          "name": "_message",
          "type": "bytes"
        },
        {
          "internalType": "uint256",
          "name": "_messageNonce",
          "type": "uint256"
        },
        {
          "components": [
            {
              "internalType": "bytes32",
              "name": "stateRoot",
              "type": "bytes32"
            },
            {
              "components": [
                {
                  "internalType": "uint256",
                  "name": "batchIndex",
                  "type": "uint256"
                },
                {
                  "internalType": "bytes32",
                  "name": "batchRoot",
                  "type": "bytes32"
                },
                {
                  "internalType": "uint256",
                  "name": "batchSize",
                  "type": "uint256"
                },
                {
                  "internalType": "uint256",
                  "name": "prevTotalElements",
                  "type": "uint256"
                },
                {
                  "internalType": "bytes",
                  "name": "extraData",
                  "type": "bytes"
                }
              ],
              "internalType": "struct Lib_OVMCodec.ChainBatchHeader",
              "name": "stateRootBatchHeader",
              "type": "tuple"
            },
            {
              "components": [
                {
                  "internalType": "uint256",
                  "name": "index",
                  "type": "uint256"
                },
                {
                  "internalType": "bytes32[]",
                  "name": "siblings",
                  "type": "bytes32[]"
                }
              ],
              "internalType": "struct Lib_OVMCodec.ChainInclusionProof",
              "name": "stateRootProof",
              "type": "tuple"
            },
            {
              "internalType": "bytes",
              "name": "stateTrieWitness",
              "type": "bytes"
            },
            {
              "internalType": "bytes",
              "name": "storageTrieWitness",
              "type": "bytes"
            }
          ],
          "internalType": "struct IL1CrossDomainMessenger.L2MessageInclusionProof",
          "name": "_proof",
          "type": "tuple"
        }
      ],
      "name": "relayMessage",
      "outputs": [],
      "stateMutability": "nonpayable",
      "type": "function"
    },
    {
      "inputs": [
        {
          "internalType": "bytes32",
          "name": "",
          "type": "bytes32"
        }
      ],
      "name": "relayedMessages",
      "outputs": [
        {
          "internalType": "bool",
          "name": "",
          "type": "bool"
        }
      ],
      "stateMutability": "view",
      "type": "function"
    },
    {
      "inputs": [],
      "name": "renounceOwnership",
      "outputs": [],
      "stateMutability": "nonpayable",
      "type": "function"
    },
    {
      "inputs": [
        {
          "internalType": "address",
          "name": "_target",
          "type": "address"
        },
        {
          "internalType": "address",
          "name": "_sender",
          "type": "address"
        },
        {
          "internalType": "bytes",
          "name": "_message",
          "type": "bytes"
        },
        {
          "internalType": "uint256",
          "name": "_queueIndex",
          "type": "uint256"
        },
        {
          "internalType": "uint32",
          "name": "_oldGasLimit",
          "type": "uint32"
        },
        {
          "internalType": "uint32",
          "name": "_newGasLimit",
          "type": "uint32"
        }
      ],
      "name": "replayMessage",
      "outputs": [],
      "stateMutability": "nonpayable",
      "type": "function"
    },
    {
      "inputs": [
        {
          "internalType": "string",
          "name": "_name",
          "type": "string"
        }
      ],
      "name": "resolve",
      "outputs": [
        {
          "internalType": "address",
          "name": "",
          "type": "address"
        }
      ],
      "stateMutability": "view",
      "type": "function"
    },
    {
      "inputs": [
        {
          "internalType": "address",
          "name": "_target",
          "type": "address"
        },
        {
          "internalType": "bytes",
          "name": "_message",
          "type": "bytes"
        },
        {
          "internalType": "uint32",
          "name": "_gasLimit",
          "type": "uint32"
        }
      ],
      "name": "sendMessage",
      "outputs": [],
      "stateMutability": "nonpayable",
      "type": "function"
    },
    {
      "inputs": [
        {
          "internalType": "bytes32",
          "name": "",
          "type": "bytes32"
        }
      ],
      "name": "successfulMessages",
      "outputs": [
        {
          "internalType": "bool",
          "name": "",
          "type": "bool"
        }
      ],
      "stateMutability": "view",
      "type": "function"
    },
    {
      "inputs": [
        {
          "internalType": "address",
          "name": "newOwner",
          "type": "address"
        }
      ],
      "name": "transferOwnership",
      "outputs": [],
      "stateMutability": "nonpayable",
      "type": "function"
    },
    {
      "inputs": [],
      "name": "unpause",
      "outputs": [],
      "stateMutability": "nonpayable",
      "type": "function"
    },
    {
      "inputs": [],
      "name": "xDomainMessageSender",
      "outputs": [
        {
          "internalType": "address",
          "name": "",
          "type": "address"
        }
      ],
      "stateMutability": "view",
      "type": "function"
    }
  ],
  "bytecode": "0x608060405260cd80546001600160a01b03191661dead17905534801561002457600080fd5b50600080546001600160a01b0319169055613d8f806100446000396000f3fe608060405234801561001057600080fd5b50600436106101515760003560e01c8063715018a6116100cd578063b1b1b20911610081578063c6b94ab011610066578063c6b94ab0146102d6578063d7fd19dd146102f9578063f2fde38b1461030c57600080fd5b8063b1b1b209146102a0578063c4d66de8146102c357600080fd5b80638456cb59116100b25780638456cb59146102575780638da5cb5b1461025f578063a4e7f8bd1461027d57600080fd5b8063715018a61461023c57806381ada46c1461024457600080fd5b80633f4ba83a116101245780635c975abb116101095780635c975abb146102165780636e296e45146102215780636f1c8d471461022957600080fd5b80633f4ba83a146101fb578063461a44781461020357600080fd5b80630ecf2eea1461015657806321d800ec1461016b578063299ca478146101a35780633dbb202b146101e8575b600080fd5b610169610164366004613281565b61031f565b005b61018e610179366004613281565b60ca6020526000908152604090205460ff1681565b60405190151581526020015b60405180910390f35b6000546101c39073ffffffffffffffffffffffffffffffffffffffff1681565b60405173ffffffffffffffffffffffffffffffffffffffff909116815260200161019a565b6101696101f63660046133f9565b6103ce565b610169610516565b6101c3610211366004613459565b610587565b60655460ff1661018e565b6101c3610634565b6101696102373660046134aa565b6106be565b6101696108a5565b610169610252366004613281565b610916565b6101696109bd565b60335473ffffffffffffffffffffffffffffffffffffffff166101c3565b61018e61028b366004613281565b60cc6020526000908152604090205460ff1681565b61018e6102ae366004613281565b60cb6020526000908152604090205460ff1681565b6101696102d1366004613536565b610a2c565b61018e6102e4366004613281565b60c96020526000908152604090205460ff1681565b61016961030736600461369c565b610c79565b61016961031a366004613536565b61115d565b60335473ffffffffffffffffffffffffffffffffffffffff16331461038b5760405162461bcd60e51b815260206004820181905260248201527f4f776e61626c653a2063616c6c6572206973206e6f7420746865206f776e657260448201526064015b60405180910390fd5b600081815260c96020526040808220805460ff191660011790555182917ff52508d5339edf0d7e5060a416df98db067af561bdc60872d29c0439eaa13a0291a250565b600061040e6040518060400160405280601981526020017f43616e6f6e6963616c5472616e73616374696f6e436861696e00000000000000815250610587565b905060008173ffffffffffffffffffffffffffffffffffffffff1663b8f770056040518163ffffffff1660e01b815260040160206040518083038186803b15801561045857600080fd5b505afa15801561046c573d6000803e3d6000fd5b505050506040513d601f19601f8201168201806040525081019061049091906137ea565b905060006104a78633878564ffffffffff16611259565b90506104ba83828663ffffffff166112d4565b8573ffffffffffffffffffffffffffffffffffffffff167fcb0f7ffd78f9aee47a248fae8db181db6eee833039123e026dcbff529522e52a338785886040516105069493929190613861565b60405180910390a2505050505050565b60335473ffffffffffffffffffffffffffffffffffffffff16331461057d5760405162461bcd60e51b815260206004820181905260248201527f4f776e61626c653a2063616c6c6572206973206e6f7420746865206f776e65726044820152606401610382565b610585611375565b565b600080546040517fbf40fac100000000000000000000000000000000000000000000000000000000815273ffffffffffffffffffffffffffffffffffffffff9091169063bf40fac1906105de9085906004016138b4565b60206040518083038186803b1580156105f657600080fd5b505afa15801561060a573d6000803e3d6000fd5b505050506040513d601f19601f8201168201806040525081019061062e91906138c7565b92915050565b60cd5460009073ffffffffffffffffffffffffffffffffffffffff1661dead14156106a15760405162461bcd60e51b815260206004820152601f60248201527f78446f6d61696e4d65737361676553656e646572206973206e6f7420736574006044820152606401610382565b5060cd5473ffffffffffffffffffffffffffffffffffffffff1690565b60006106fe6040518060400160405280601981526020017f43616e6f6e6963616c5472616e73616374696f6e436861696e00000000000000815250610587565b6040517f2a7f18be0000000000000000000000000000000000000000000000000000000081526004810186905290915060009073ffffffffffffffffffffffffffffffffffffffff831690632a7f18be9060240160606040518083038186803b15801561076a57600080fd5b505afa15801561077e573d6000803e3d6000fd5b505050506040513d601f19601f820116820180604052508101906107a291906138e4565b905060006107b289898989611259565b90506000731111000000000000000000000000000000001111300173420000000000000000000000000000000000000787846040516020016107f79493929190613949565b604051602081830303815290604052805190602001209050826000015181146108885760405162461bcd60e51b815260206004820152602760248201527f50726f7669646564206d65737361676520686173206e6f74206265656e20656e60448201527f7175657565642e000000000000000000000000000000000000000000000000006064820152608401610382565b61089984838763ffffffff166112d4565b50505050505050505050565b60335473ffffffffffffffffffffffffffffffffffffffff16331461090c5760405162461bcd60e51b815260206004820181905260248201527f4f776e61626c653a2063616c6c6572206973206e6f7420746865206f776e65726044820152606401610382565b610585600061141e565b60335473ffffffffffffffffffffffffffffffffffffffff16331461097d5760405162461bcd60e51b815260206004820181905260248201527f4f776e61626c653a2063616c6c6572206973206e6f7420746865206f776e65726044820152606401610382565b600081815260c96020526040808220805460ff191690555182917f52c8a2680a9f4cc0ad0bf88f32096eadbebf0646ea611d93a0ce6a29a024040591a250565b60335473ffffffffffffffffffffffffffffffffffffffff163314610a245760405162461bcd60e51b815260206004820181905260248201527f4f776e61626c653a2063616c6c6572206973206e6f7420746865206f776e65726044820152606401610382565b610585611495565b6000547501000000000000000000000000000000000000000000900460ff1680610a71575060005474010000000000000000000000000000000000000000900460ff16155b610ae35760405162461bcd60e51b815260206004820152602e60248201527f496e697469616c697a61626c653a20636f6e747261637420697320616c72656160448201527f647920696e697469616c697a65640000000000000000000000000000000000006064820152608401610382565b6000547501000000000000000000000000000000000000000000900460ff16158015610b4a57600080547fffffffffffffffffffff0000ffffffffffffffffffffffffffffffffffffffff1675010100000000000000000000000000000000000000001790555b60005473ffffffffffffffffffffffffffffffffffffffff1615610bd65760405162461bcd60e51b815260206004820152602a60248201527f4c3143726f7373446f6d61696e4d657373656e67657220616c7265616479206960448201527f6e7469616c697a65642e000000000000000000000000000000000000000000006064820152608401610382565b6000805473ffffffffffffffffffffffffffffffffffffffff84167fffffffffffffffffffffffff00000000000000000000000000000000000000009182161790915560cd805490911661dead179055610c2e61151d565b610c3661166c565b610c3e611793565b610c466118ec565b8015610c7557600080547fffffffffffffffffffff00ffffffffffffffffffffffffffffffffffffffffff1690555b5050565b60026097541415610ccc5760405162461bcd60e51b815260206004820152601f60248201527f5265656e7472616e637947756172643a207265656e7472616e742063616c6c006044820152606401610382565b600260975560655460ff1615610d245760405162461bcd60e51b815260206004820152601060248201527f5061757361626c653a20706175736564000000000000000000000000000000006044820152606401610382565b6000610d3286868686611259565b9050610d3e8183611a40565b1515600114610db55760405162461bcd60e51b815260206004820152602760248201527f50726f7669646564206d65737361676520636f756c64206e6f7420626520766560448201527f7269666965642e000000000000000000000000000000000000000000000000006064820152608401610382565b8051602080830191909120600081815260cb90925260409091205460ff1615610e465760405162461bcd60e51b815260206004820152602b60248201527f50726f7669646564206d6573736167652068617320616c72656164792062656560448201527f6e2072656365697665642e0000000000000000000000000000000000000000006064820152608401610382565b600081815260c9602052604090205460ff1615610ecb5760405162461bcd60e51b815260206004820152602260248201527f50726f7669646564206d65737361676520686173206265656e20626c6f636b6560448201527f642e0000000000000000000000000000000000000000000000000000000000006064820152608401610382565b610f096040518060400160405280601981526020017f43616e6f6e6963616c5472616e73616374696f6e436861696e00000000000000815250610587565b73ffffffffffffffffffffffffffffffffffffffff168773ffffffffffffffffffffffffffffffffffffffff161415610faa5760405162461bcd60e51b815260206004820152603360248201527f43616e6e6f742073656e64204c322d3e4c31206d6573736167657320746f204c60448201527f312073797374656d20636f6e7472616374732e000000000000000000000000006064820152608401610382565b60cd80547fffffffffffffffffffffffff00000000000000000000000000000000000000001673ffffffffffffffffffffffffffffffffffffffff8881169190911790915560405160009189169061100390889061398e565b6000604051808303816000865af19150503d8060008114611040576040519150601f19603f3d011682016040523d82523d6000602084013e611045565b606091505b505060cd80547fffffffffffffffffffffffff00000000000000000000000000000000000000001661dead1790559050801515600114156110c557600082815260cb6020526040808220805460ff191660011790555183917f4641df4a962071e12719d8c8c8e5ac7fc4d97b927346a3d7a335b1f7517e133c91a2611106565b600082815260cc6020526040808220805460ff191660011790555183917f99d0e048484baa1b1540b1367cb128acd7ab2946d1ed91ec10e3c85e4bf51b8f91a25b600083334360405160200161111d939291906139aa565b60408051601f198184030181529181528151602092830120600090815260ca9092529020805460ff19166001908117909155609755505050505050505050565b60335473ffffffffffffffffffffffffffffffffffffffff1633146111c45760405162461bcd60e51b815260206004820181905260248201527f4f776e61626c653a2063616c6c6572206973206e6f7420746865206f776e65726044820152606401610382565b73ffffffffffffffffffffffffffffffffffffffff811661124d5760405162461bcd60e51b815260206004820152602660248201527f4f776e61626c653a206e6577206f776e657220697320746865207a65726f206160448201527f64647265737300000000000000000000000000000000000000000000000000006064820152608401610382565b6112568161141e565b50565b60608484848460405160240161127294939291906139fc565b60408051601f198184030181529190526020810180517bffffffffffffffffffffffffffffffffffffffffffffffffffffffff167fcbd4ece9000000000000000000000000000000000000000000000000000000001790529050949350505050565b6040517f6fee07e000000000000000000000000000000000000000000000000000000000815273ffffffffffffffffffffffffffffffffffffffff841690636fee07e09061133e907342000000000000000000000000000000000000079085908790600401613a46565b600060405180830381600087803b15801561135857600080fd5b505af115801561136c573d6000803e3d6000fd5b50505050505050565b60655460ff166113c75760405162461bcd60e51b815260206004820152601460248201527f5061757361626c653a206e6f74207061757365640000000000000000000000006044820152606401610382565b6065805460ff191690557f5db9ee0a495bf2e6ff9c91a7834c1ba4fdd244a5e8aa4e537bd38aeae4b073aa335b60405173ffffffffffffffffffffffffffffffffffffffff909116815260200160405180910390a1565b6033805473ffffffffffffffffffffffffffffffffffffffff8381167fffffffffffffffffffffffff0000000000000000000000000000000000000000831681179093556040519116919082907f8be0079c531659141344cd1fd0a4f28419497f9722a3daafe3b4186f6b6457e090600090a35050565b60655460ff16156114e85760405162461bcd60e51b815260206004820152601060248201527f5061757361626c653a20706175736564000000000000000000000000000000006044820152606401610382565b6065805460ff191660011790557f62e78cea01bee320cd4e420270b5ea74000d11b0c9f74754ebdbfc544b05a2586113f43390565b6000547501000000000000000000000000000000000000000000900460ff1680611562575060005474010000000000000000000000000000000000000000900460ff16155b6115d45760405162461bcd60e51b815260206004820152602e60248201527f496e697469616c697a61626c653a20636f6e747261637420697320616c72656160448201527f647920696e697469616c697a65640000000000000000000000000000000000006064820152608401610382565b6000547501000000000000000000000000000000000000000000900460ff1615801561163b57600080547fffffffffffffffffffff0000ffffffffffffffffffffffffffffffffffffffff1675010100000000000000000000000000000000000000001790555b801561125657600080547fffffffffffffffffffff00ffffffffffffffffffffffffffffffffffffffffff16905550565b6000547501000000000000000000000000000000000000000000900460ff16806116b1575060005474010000000000000000000000000000000000000000900460ff16155b6117235760405162461bcd60e51b815260206004820152602e60248201527f496e697469616c697a61626c653a20636f6e747261637420697320616c72656160448201527f647920696e697469616c697a65640000000000000000000000000000000000006064820152608401610382565b6000547501000000000000000000000000000000000000000000900460ff1615801561178a57600080547fffffffffffffffffffff0000ffffffffffffffffffffffffffffffffffffffff1675010100000000000000000000000000000000000000001790555b61163b3361141e565b6000547501000000000000000000000000000000000000000000900460ff16806117d8575060005474010000000000000000000000000000000000000000900460ff16155b61184a5760405162461bcd60e51b815260206004820152602e60248201527f496e697469616c697a61626c653a20636f6e747261637420697320616c72656160448201527f647920696e697469616c697a65640000000000000000000000000000000000006064820152608401610382565b6000547501000000000000000000000000000000000000000000900460ff161580156118b157600080547fffffffffffffffffffff0000ffffffffffffffffffffffffffffffffffffffff1675010100000000000000000000000000000000000000001790555b6065805460ff19169055801561125657600080547fffffffffffffffffffff00ffffffffffffffffffffffffffffffffffffffffff16905550565b6000547501000000000000000000000000000000000000000000900460ff1680611931575060005474010000000000000000000000000000000000000000900460ff16155b6119a35760405162461bcd60e51b815260206004820152602e60248201527f496e697469616c697a61626c653a20636f6e747261637420697320616c72656160448201527f647920696e697469616c697a65640000000000000000000000000000000000006064820152608401610382565b6000547501000000000000000000000000000000000000000000900460ff16158015611a0a57600080547fffffffffffffffffffff0000ffffffffffffffffffffffffffffffffffffffff1675010100000000000000000000000000000000000000001790555b6001609755801561125657600080547fffffffffffffffffffff00ffffffffffffffffffffffffffffffffffffffffff16905550565b6000611a4b82611a63565b8015611a5c5750611a5c8383611c05565b9392505050565b600080611aa46040518060400160405280601481526020017f5374617465436f6d6d69746d656e74436861696e000000000000000000000000815250610587565b60208401516040517f9418bddd00000000000000000000000000000000000000000000000000000000815291925073ffffffffffffffffffffffffffffffffffffffff831691639418bddd91611afc91600401613ab8565b60206040518083038186803b158015611b1457600080fd5b505afa158015611b28573d6000803e3d6000fd5b505050506040513d601f19601f82011682018060405250810190611b4c9190613acb565b158015611a5c57508251602084015160408086015190517f4d69ee5700000000000000000000000000000000000000000000000000000000815273ffffffffffffffffffffffffffffffffffffffff851693634d69ee5793611bb5939192909190600401613aed565b60206040518083038186803b158015611bcd57600080fd5b505afa158015611be1573d6000803e3d6000fd5b505050506040513d601f19601f82011682018060405250810190611a5c9190613acb565b60008083734200000000000000000000000000000000000007604051602001611c2f929190613b65565b60408051601f1981840301815282825280516020918201209083015260009082015260600160408051601f198184030181529082905280516020918201207f42000000000000000000000000000000000000000000000000000000000000009183019190915291506000908190611cbf9060340160408051601f1981840301815291905260608701518751611de9565b9092509050600182151514611d625760405162461bcd60e51b815260206004820152604d60248201527f4d6573736167652070617373696e67207072656465706c6f7920686173206e6f60448201527f74206265656e20696e697469616c697a6564206f7220696e76616c696420707260648201527f6f6f662070726f76696465642e00000000000000000000000000000000000000608482015260a401610382565b6000611d6d82611e12565b9050611dde84604051602001611d8591815260200190565b60408051601f19818403018152908290527f010000000000000000000000000000000000000000000000000000000000000060208301529060210160405160208183030381529060405288608001518460400151611ed6565b979650505050505050565b600060606000611df886611efa565b9050611e05818686611f2c565b9250925050935093915050565b604080516080810182526000808252602082018190529181018290526060810182905290611e3f83612007565b90506040518060800160405280611e6f83600081518110611e6257611e62613baf565b602002602001015161203a565b8152602001611e8a83600181518110611e6257611e62613baf565b8152602001611eb283600281518110611ea557611ea5613baf565b6020026020010151612041565b8152602001611ecd83600381518110611ea557611ea5613baf565b90529392505050565b600080611ee286611efa565b9050611ef081868686612143565b9695505050505050565b60608180519060200120604051602001611f1691815260200190565b6040516020818303038152906040529050919050565b600060606000611f3b85612179565b90506000806000611f4d848a89612274565b81519295509093509150158080611f615750815b611fad5760405162461bcd60e51b815260206004820152601a60248201527f50726f76696465642070726f6f6620697320696e76616c69642e0000000000006044820152606401610382565b600081611fc95760405180602001604052806000815250611ff5565b611ff586611fd8600188613c0d565b81518110611fe857611fe8613baf565b602002602001015161270f565b919b919a509098505050505050505050565b60408051808201825260008082526020918201528151808301909252825182528083019082015260609061062e90612739565b600061062e825b60006021826000015111156120985760405162461bcd60e51b815260206004820152601a60248201527f496e76616c696420524c5020627974657333322076616c75652e0000000000006044820152606401610382565b60008060006120a685612938565b9194509250905060008160018111156120c1576120c1613c24565b1461210e5760405162461bcd60e51b815260206004820152601a60248201527f496e76616c696420524c5020627974657333322076616c75652e0000000000006044820152606401610382565b60008386602001516121209190613c53565b80519091506020841015611ef05760208490036101000a90049695505050505050565b6000806000612153878686611f2c565b91509150818015611dde5750805160208083019190912087519188019190912014611dde565b6060600061218683612007565b90506000815167ffffffffffffffff8111156121a4576121a46132bc565b6040519080825280602002602001820160405280156121e957816020015b60408051808201909152606080825260208201528152602001906001900390816121c25790505b50905060005b825181101561226c57600061221c84838151811061220f5761220f613baf565b6020026020010151612c89565b9050604051806040016040528082815260200161223883612007565b81525083838151811061224d5761224d613baf565b602002602001018190525050808061226490613c6b565b9150506121ef565b509392505050565b6000606081808061228487612d19565b905060008690506000806122ab604051806040016040528060608152602001606081525090565b60005b8c518110156126cb578c81815181106122c9576122c9613baf565b6020026020010151915082846122df9190613c53565b93506122ec600188613c53565b9650836123505781518051602090910120851461234b5760405162461bcd60e51b815260206004820152601160248201527f496e76616c696420726f6f7420686173680000000000000000000000000000006044820152606401610382565b61240d565b8151516020116123b25781518051602090910120851461234b5760405162461bcd60e51b815260206004820152601b60248201527f496e76616c6964206c6172676520696e7465726e616c206861736800000000006044820152606401610382565b846123c08360000151612e9c565b1461240d5760405162461bcd60e51b815260206004820152601a60248201527f496e76616c696420696e7465726e616c206e6f646520686173680000000000006044820152606401610382565b61241960106001613c53565b8260200151511415612492578551841415612433576126cb565b600086858151811061244757612447613baf565b602001015160f81c60f81b60f81c9050600083602001518260ff168151811061247257612472613baf565b6020026020010151905061248581612ec4565b96506001945050506126b9565b600282602001515114156126715760006124ab83612efa565b90506000816000815181106124c2576124c2613baf565b016020015160f81c905060006124d9600283613cd3565b6124e4906002613cf5565b905060006124f5848360ff16612f1e565b905060006125038b8a612f1e565b905060006125118383612f54565b905060ff851660021480612528575060ff85166003145b1561257e5780835114801561253d5750808251145b1561254f5761254c818b613c53565b99505b507f800000000000000000000000000000000000000000000000000000000000000099506126cb945050505050565b60ff85161580612591575060ff85166001145b1561260357825181146125cd57507f800000000000000000000000000000000000000000000000000000000000000099506126cb945050505050565b6125f488602001516001815181106125e7576125e7613baf565b6020026020010151612ec4565b9a5097506126b9945050505050565b60405162461bcd60e51b815260206004820152602660248201527f52656365697665642061206e6f6465207769746820616e20756e6b6e6f776e2060448201527f70726566697800000000000000000000000000000000000000000000000000006064820152608401610382565b60405162461bcd60e51b815260206004820152601d60248201527f526563656976656420616e20756e706172736561626c65206e6f64652e0000006044820152606401610382565b806126c381613c6b565b9150506122ae565b507f80000000000000000000000000000000000000000000000000000000000000008414866126fa8786612f1e565b909e909d50909b509950505050505050505050565b6020810151805160609161062e9161272990600190613c0d565b8151811061220f5761220f613baf565b606060008061274784612938565b9193509091506001905081600181111561276357612763613c24565b146127b05760405162461bcd60e51b815260206004820152601760248201527f496e76616c696420524c50206c6973742076616c75652e0000000000000000006044820152606401610382565b6040805160208082526104208201909252600091816020015b60408051808201909152600080825260208201528152602001906001900390816127c95790505090506000835b865181101561292d57602082106128755760405162461bcd60e51b815260206004820152602a60248201527f50726f766964656420524c50206c6973742065786365656473206d6178206c6960448201527f7374206c656e6774682e000000000000000000000000000000000000000000006064820152608401610382565b6000806128b26040518060400160405280858c600001516128969190613c0d565b8152602001858c602001516128ab9190613c53565b9052612938565b5091509150604051806040016040528083836128ce9190613c53565b8152602001848b602001516128e39190613c53565b8152508585815181106128f8576128f8613baf565b602090810291909101015261290e600185613c53565b935061291a8183613c53565b6129249084613c53565b925050506127f6565b508152949350505050565b6000806000808460000151116129905760405162461bcd60e51b815260206004820152601860248201527f524c50206974656d2063616e6e6f74206265206e756c6c2e00000000000000006044820152606401610382565b6020840151805160001a607f81116129b5576000600160009450945094505050612c82565b60b78111612a315760006129ca608083613c0d565b905080876000015111612a1f5760405162461bcd60e51b815260206004820152601960248201527f496e76616c696420524c502073686f727420737472696e672e000000000000006044820152606401610382565b60019550935060009250612c82915050565b60bf8111612b20576000612a4660b783613c0d565b905080876000015111612a9b5760405162461bcd60e51b815260206004820152601f60248201527f496e76616c696420524c50206c6f6e6720737472696e67206c656e6774682e006044820152606401610382565b600183015160208290036101000a9004612ab58183613c53565b885111612b045760405162461bcd60e51b815260206004820152601860248201527f496e76616c696420524c50206c6f6e6720737472696e672e00000000000000006044820152606401610382565b612b0f826001613c53565b9650945060009350612c8292505050565b60f78111612b9b576000612b3560c083613c0d565b905080876000015111612b8a5760405162461bcd60e51b815260206004820152601760248201527f496e76616c696420524c502073686f7274206c6973742e0000000000000000006044820152606401610382565b600195509350849250612c82915050565b6000612ba860f783613c0d565b905080876000015111612bfd5760405162461bcd60e51b815260206004820152601d60248201527f496e76616c696420524c50206c6f6e67206c697374206c656e6774682e0000006044820152606401610382565b600183015160208290036101000a9004612c178183613c53565b885111612c665760405162461bcd60e51b815260206004820152601660248201527f496e76616c696420524c50206c6f6e67206c6973742e000000000000000000006044820152606401610382565b612c71826001613c53565b9650945060019350612c8292505050565b9193909250565b60606000806000612c9985612938565b919450925090506000816001811115612cb457612cb4613c24565b14612d015760405162461bcd60e51b815260206004820152601860248201527f496e76616c696420524c502062797465732076616c75652e00000000000000006044820152606401610382565b612d1085602001518484613000565b95945050505050565b6060600082516002612d2b9190613d18565b67ffffffffffffffff811115612d4357612d436132bc565b6040519080825280601f01601f191660200182016040528015612d6d576020820181803683370190505b50905060005b8351811015612e95576004848281518110612d9057612d90613baf565b01602001517fff0000000000000000000000000000000000000000000000000000000000000016901c82612dc5836002613d18565b81518110612dd557612dd5613baf565b60200101907effffffffffffffffffffffffffffffffffffffffffffffffffffffffffffff1916908160001a9053506010848281518110612e1857612e18613baf565b0160200151612e2a919060f81c613cd3565b60f81b82612e39836002613d18565b612e44906001613c53565b81518110612e5457612e54613baf565b60200101907effffffffffffffffffffffffffffffffffffffffffffffffffffffffffffff1916908160001a90535080612e8d81613c6b565b915050612d73565b5092915050565b6000602082511015612eb057506020015190565b8180602001905181019061062e9190613d55565b60006060602083600001511015612ee557612ede836130df565b9050612ef1565b612eee83612c89565b90505b611a5c81612e9c565b606061062e612f19836020015160008151811061220f5761220f613baf565b612d19565b606082518210612f3d575060408051602081019091526000815261062e565b611a5c8383848651612f4f9190613c0d565b6130ea565b6000805b808451118015612f685750808351115b8015612fe95750828181518110612f8157612f81613baf565b602001015160f81c60f81b7effffffffffffffffffffffffffffffffffffffffffffffffffffffffffffff1916848281518110612fc057612fc0613baf565b01602001517fff0000000000000000000000000000000000000000000000000000000000000016145b15611a5c5780612ff881613c6b565b915050612f58565b606060008267ffffffffffffffff81111561301d5761301d6132bc565b6040519080825280601f01601f191660200182016040528015613047576020820181803683370190505b50905080516000141561305b579050611a5c565b60006130678587613c53565b90506020820160005b61307b602087613d6e565b8110156130b25782518252613091602084613c53565b925061309e602083613c53565b9150806130aa81613c6b565b915050613070565b5060006001602087066020036101000a039050808251168119845116178252839450505050509392505050565b606061062e8261326b565b6060816130f881601f613c53565b10156131465760405162461bcd60e51b815260206004820152600e60248201527f736c6963655f6f766572666c6f770000000000000000000000000000000000006044820152606401610382565b826131518382613c53565b101561319f5760405162461bcd60e51b815260206004820152600e60248201527f736c6963655f6f766572666c6f770000000000000000000000000000000000006044820152606401610382565b6131a98284613c53565b845110156131f95760405162461bcd60e51b815260206004820152601160248201527f736c6963655f6f75744f66426f756e64730000000000000000000000000000006044820152606401610382565b6060821580156132185760405191506000825260208201604052613262565b6040519150601f8416801560200281840101858101878315602002848b0101015b81831015613251578051835260209283019201613239565b5050858452601f01601f1916604052505b50949350505050565b606061062e826020015160008460000151613000565b60006020828403121561329357600080fd5b5035919050565b73ffffffffffffffffffffffffffffffffffffffff8116811461125657600080fd5b7f4e487b7100000000000000000000000000000000000000000000000000000000600052604160045260246000fd5b6040805190810167ffffffffffffffff8111828210171561330e5761330e6132bc565b60405290565b60405160a0810167ffffffffffffffff8111828210171561330e5761330e6132bc565b604051601f8201601f1916810167ffffffffffffffff81118282101715613360576133606132bc565b604052919050565b600067ffffffffffffffff831115613382576133826132bc565b6133956020601f19601f86011601613337565b90508281528383830111156133a957600080fd5b828260208301376000602084830101529392505050565b600082601f8301126133d157600080fd5b611a5c83833560208501613368565b803563ffffffff811681146133f457600080fd5b919050565b60008060006060848603121561340e57600080fd5b83356134198161329a565b9250602084013567ffffffffffffffff81111561343557600080fd5b613441868287016133c0565b925050613450604085016133e0565b90509250925092565b60006020828403121561346b57600080fd5b813567ffffffffffffffff81111561348257600080fd5b8201601f8101841361349357600080fd5b6134a284823560208401613368565b949350505050565b60008060008060008060c087890312156134c357600080fd5b86356134ce8161329a565b955060208701356134de8161329a565b9450604087013567ffffffffffffffff8111156134fa57600080fd5b61350689828a016133c0565b9450506060870135925061351c608088016133e0565b915061352a60a088016133e0565b90509295509295509295565b60006020828403121561354857600080fd5b8135611a5c8161329a565b600060a0828403121561356557600080fd5b60405160a0810167ffffffffffffffff8282108183111715613589576135896132bc565b816040528293508435835260208501356020840152604085013560408401526060850135606084015260808501359150808211156135c657600080fd5b506135d3858286016133c0565b6080830152505092915050565b6000604082840312156135f257600080fd5b6135fa6132eb565b90508135815260208083013567ffffffffffffffff8082111561361c57600080fd5b818501915085601f83011261363057600080fd5b813581811115613642576136426132bc565b8060051b9150613653848301613337565b818152918301840191848101908884111561366d57600080fd5b938501935b8385101561368b57843582529385019390850190613672565b808688015250505050505092915050565b600080600080600060a086880312156136b457600080fd5b85356136bf8161329a565b945060208601356136cf8161329a565b9350604086013567ffffffffffffffff808211156136ec57600080fd5b6136f889838a016133c0565b945060608801359350608088013591508082111561371557600080fd5b9087019060a0828a03121561372957600080fd5b613731613314565b8235815260208301358281111561374757600080fd5b6137538b828601613553565b60208301525060408301358281111561376b57600080fd5b6137778b8286016135e0565b60408301525060608301358281111561378f57600080fd5b61379b8b8286016133c0565b6060830152506080830135828111156137b357600080fd5b6137bf8b8286016133c0565b6080830152508093505050509295509295909350565b805164ffffffffff811681146133f457600080fd5b6000602082840312156137fc57600080fd5b611a5c826137d5565b60005b83811015613820578181015183820152602001613808565b8381111561382f576000848401525b50505050565b6000815180845261384d816020860160208601613805565b601f01601f19169290920160200192915050565b73ffffffffffffffffffffffffffffffffffffffff851681526080602082015260006138906080830186613835565b905064ffffffffff8416604083015263ffffffff8316606083015295945050505050565b602081526000611a5c6020830184613835565b6000602082840312156138d957600080fd5b8151611a5c8161329a565b6000606082840312156138f657600080fd5b6040516060810181811067ffffffffffffffff82111715613919576139196132bc565b6040528251815261392c602084016137d5565b602082015261393d604084016137d5565b60408201529392505050565b600073ffffffffffffffffffffffffffffffffffffffff808716835280861660208401525063ffffffff8416604083015260806060830152611ef06080830184613835565b600082516139a0818460208701613805565b9190910192915050565b600084516139bc818460208901613805565b60609490941b7fffffffffffffffffffffffffffffffffffffffff0000000000000000000000001691909301908152601481019190915260340192915050565b600073ffffffffffffffffffffffffffffffffffffffff808716835280861660208401525060806040830152613a356080830185613835565b905082606083015295945050505050565b73ffffffffffffffffffffffffffffffffffffffff84168152826020820152606060408201526000612d106060830184613835565b805182526020810151602083015260408101516040830152606081015160608301526000608082015160a060808501526134a260a0850182613835565b602081526000611a5c6020830184613a7b565b600060208284031215613add57600080fd5b81518015158114611a5c57600080fd5b83815260006020606081840152613b076060840186613a7b565b83810360408501526040810185518252828601516040848401528181518084526060850191508583019450600093505b80841015613b575784518252938501936001939093019290850190613b37565b509998505050505050505050565b60008351613b77818460208801613805565b60609390931b7fffffffffffffffffffffffffffffffffffffffff000000000000000000000000169190920190815260140192915050565b7f4e487b7100000000000000000000000000000000000000000000000000000000600052603260045260246000fd5b7f4e487b7100000000000000000000000000000000000000000000000000000000600052601160045260246000fd5b600082821015613c1f57613c1f613bde565b500390565b7f4e487b7100000000000000000000000000000000000000000000000000000000600052602160045260246000fd5b60008219821115613c6657613c66613bde565b500190565b60007fffffffffffffffffffffffffffffffffffffffffffffffffffffffffffffffff821415613c9d57613c9d613bde565b5060010190565b7f4e487b7100000000000000000000000000000000000000000000000000000000600052601260045260246000fd5b600060ff831680613ce657613ce6613ca4565b8060ff84160691505092915050565b600060ff821660ff841680821015613d0f57613d0f613bde565b90039392505050565b6000817fffffffffffffffffffffffffffffffffffffffffffffffffffffffffffffffff0483118215151615613d5057613d50613bde565b500290565b600060208284031215613d6757600080fd5b5051919050565b600082613d7d57613d7d613ca4565b50049056fea164736f6c6343000809000a",
  "linkReferences": {},
  "deployedLinkReferences": {}
}