{
  "_format": "hh-sol-artifact-1",
  "contractName": "L1StandardBridge",
  "sourceName": "contracts/L1/messaging/L1StandardBridge.sol",
  "abi": [
    {
      "inputs": [],
      "stateMutability": "nonpayable",
      "type": "constructor"
    },
    {
      "anonymous": false,
      "inputs": [
        {
          "indexed": true,
          "internalType": "address",
          "name": "_l1Token",
          "type": "address"
        },
        {
          "indexed": true,
          "internalType": "address",
          "name": "_l2Token",
          "type": "address"
        },
        {
          "indexed": true,
          "internalType": "address",
          "name": "_from",
          "type": "address"
        },
        {
          "indexed": false,
          "internalType": "address",
          "name": "_to",
          "type": "address"
        },
        {
          "indexed": false,
          "internalType": "uint256",
          "name": "_amount",
          "type": "uint256"
        },
        {
          "indexed": false,
          "internalType": "bytes",
          "name": "_data",
          "type": "bytes"
        }
      ],
      "name": "ERC20DepositInitiated",
      "type": "event"
    },
    {
      "anonymous": false,
      "inputs": [
        {
          "indexed": true,
          "internalType": "address",
          "name": "_l1Token",
          "type": "address"
        },
        {
          "indexed": true,
          "internalType": "address",
          "name": "_l2Token",
          "type": "address"
        },
        {
          "indexed": true,
          "internalType": "address",
          "name": "_from",
          "type": "address"
        },
        {
          "indexed": false,
          "internalType": "address",
          "name": "_to",
          "type": "address"
        },
        {
          "indexed": false,
          "internalType": "uint256",
          "name": "_amount",
          "type": "uint256"
        },
        {
          "indexed": false,
          "internalType": "bytes",
          "name": "_data",
          "type": "bytes"
        }
      ],
      "name": "ERC20WithdrawalFinalized",
      "type": "event"
    },
    {
      "anonymous": false,
      "inputs": [
        {
          "indexed": true,
          "internalType": "address",
          "name": "_from",
          "type": "address"
        },
        {
          "indexed": true,
          "internalType": "address",
          "name": "_to",
          "type": "address"
        },
        {
          "indexed": false,
          "internalType": "uint256",
          "name": "_amount",
          "type": "uint256"
        },
        {
          "indexed": false,
          "internalType": "bytes",
          "name": "_data",
          "type": "bytes"
        }
      ],
      "name": "ETHDepositInitiated",
      "type": "event"
    },
    {
      "anonymous": false,
      "inputs": [
        {
          "indexed": true,
          "internalType": "address",
          "name": "_from",
          "type": "address"
        },
        {
          "indexed": true,
          "internalType": "address",
          "name": "_to",
          "type": "address"
        },
        {
          "indexed": false,
          "internalType": "uint256",
          "name": "_amount",
          "type": "uint256"
        },
        {
          "indexed": false,
          "internalType": "bytes",
          "name": "_data",
          "type": "bytes"
        }
      ],
      "name": "ETHWithdrawalFinalized",
      "type": "event"
    },
    {
      "inputs": [],
      "name": "currentDepositInfoHash",
      "outputs": [
        {
          "internalType": "bytes32",
          "name": "",
          "type": "bytes32"
        }
      ],
      "stateMutability": "view",
      "type": "function"
    },
    {
      "inputs": [
        {
          "internalType": "address",
          "name": "_l1Token",
          "type": "address"
        },
        {
          "internalType": "address",
          "name": "_l2Token",
          "type": "address"
        },
        {
          "internalType": "uint256",
          "name": "_amount",
          "type": "uint256"
        },
        {
          "internalType": "uint32",
          "name": "_l2Gas",
          "type": "uint32"
        },
        {
          "internalType": "bytes",
          "name": "_data",
          "type": "bytes"
        }
      ],
      "name": "depositERC20",
      "outputs": [],
      "stateMutability": "nonpayable",
      "type": "function"
    },
    {
      "inputs": [
        {
          "internalType": "address",
          "name": "_l1Token",
          "type": "address"
        },
        {
          "internalType": "address",
          "name": "_l2Token",
          "type": "address"
        },
        {
          "internalType": "address",
          "name": "_to",
          "type": "address"
        },
        {
          "internalType": "uint256",
          "name": "_amount",
          "type": "uint256"
        },
        {
          "internalType": "uint32",
          "name": "_l2Gas",
          "type": "uint32"
        },
        {
          "internalType": "bytes",
          "name": "_data",
          "type": "bytes"
        }
      ],
      "name": "depositERC20To",
      "outputs": [],
      "stateMutability": "nonpayable",
      "type": "function"
    },
    {
      "inputs": [
        {
          "internalType": "uint32",
          "name": "_l2Gas",
          "type": "uint32"
        },
        {
          "internalType": "bytes",
          "name": "_data",
          "type": "bytes"
        }
      ],
      "name": "depositETH",
      "outputs": [],
      "stateMutability": "payable",
      "type": "function"
    },
    {
      "inputs": [
        {
          "internalType": "address",
          "name": "_to",
          "type": "address"
        },
        {
          "internalType": "uint32",
          "name": "_l2Gas",
          "type": "uint32"
        },
        {
          "internalType": "bytes",
          "name": "_data",
          "type": "bytes"
        }
      ],
      "name": "depositETHTo",
      "outputs": [],
      "stateMutability": "payable",
      "type": "function"
    },
    {
      "inputs": [
        {
          "internalType": "address",
          "name": "",
          "type": "address"
        },
        {
          "internalType": "address",
          "name": "",
          "type": "address"
        }
      ],
      "name": "deposits",
      "outputs": [
        {
          "internalType": "uint256",
          "name": "",
          "type": "uint256"
        }
      ],
      "stateMutability": "view",
      "type": "function"
    },
    {
      "inputs": [],
      "name": "donateETH",
      "outputs": [],
      "stateMutability": "payable",
      "type": "function"
    },
    {
      "inputs": [
        {
          "internalType": "address",
          "name": "_l1Token",
          "type": "address"
        },
        {
          "internalType": "address",
          "name": "_l2Token",
          "type": "address"
        },
        {
          "internalType": "address",
          "name": "_from",
          "type": "address"
        },
        {
          "internalType": "address",
          "name": "_to",
          "type": "address"
        },
        {
          "internalType": "uint256",
          "name": "_amount",
          "type": "uint256"
        },
        {
          "internalType": "bytes",
          "name": "_data",
          "type": "bytes"
        }
      ],
      "name": "finalizeERC20Withdrawal",
      "outputs": [],
      "stateMutability": "nonpayable",
      "type": "function"
    },
    {
      "inputs": [
        {
          "internalType": "address",
          "name": "_from",
          "type": "address"
        },
        {
          "internalType": "address",
          "name": "_to",
          "type": "address"
        },
        {
          "internalType": "uint256",
          "name": "_amount",
          "type": "uint256"
        },
        {
          "internalType": "bytes",
          "name": "_data",
          "type": "bytes"
        }
      ],
      "name": "finalizeETHWithdrawal",
      "outputs": [],
      "stateMutability": "nonpayable",
      "type": "function"
    },
    {
      "inputs": [
        {
          "internalType": "address",
          "name": "_l1messenger",
          "type": "address"
        },
        {
          "internalType": "address",
          "name": "_l2TokenBridge",
          "type": "address"
        }
      ],
      "name": "initialize",
      "outputs": [],
      "stateMutability": "nonpayable",
      "type": "function"
    },
    {
      "inputs": [],
      "name": "l2TokenBridge",
      "outputs": [
        {
          "internalType": "address",
          "name": "",
          "type": "address"
        }
      ],
      "stateMutability": "view",
      "type": "function"
    },
    {
      "inputs": [],
      "name": "lastHashUpdateBlock",
      "outputs": [
        {
          "internalType": "uint256",
          "name": "",
          "type": "uint256"
        }
      ],
      "stateMutability": "view",
      "type": "function"
    },
    {
      "inputs": [],
      "name": "messenger",
      "outputs": [
        {
          "internalType": "address",
          "name": "",
          "type": "address"
        }
      ],
      "stateMutability": "view",
      "type": "function"
    },
    {
      "inputs": [],
      "name": "priorDepositInfoHash",
      "outputs": [
        {
          "internalType": "bytes32",
          "name": "",
          "type": "bytes32"
        }
      ],
      "stateMutability": "view",
      "type": "function"
    },
    {
      "stateMutability": "payable",
      "type": "receive"
    }
  ],
  "bytecode": "0x608060405234801561001057600080fd5b50600080546001600160a01b0319169055611837806100306000396000f3fe6080604052600436106100e15760003560e01c80638f601f661161007f578063a5ab619011610059578063a5ab6190146102ab578063a9f9e675146102c1578063b1a1a882146102e1578063f8fe09a3146102f457600080fd5b80638f601f661461024057806391c49bf8146102785780639a2ac6d51461029857600080fd5b806358a997f6116100bb57806358a997f6146101dc57806359326e6f146101fc578063838b2520146102205780638b4c40b01461015857600080fd5b80631532ec341461015f5780633cb747bf1461017f578063485cc955146101bc57600080fd5b3661015a57333b1561013a5760405162461bcd60e51b815260206004820152600f60248201527f4163636f756e74206e6f7420454f41000000000000000000000000000000000060448201526064015b60405180910390fd5b61015833336213d6206040518060200160405280600081525061030a565b005b600080fd5b34801561016b57600080fd5b5061015861017a36600461124d565b610451565b34801561018b57600080fd5b5060005461019f906001600160a01b031681565b6040516001600160a01b0390911681526020015b60405180910390f35b3480156101c857600080fd5b506101586101d73660046112c0565b610738565b3480156101e857600080fd5b506101586101f7366004611312565b6107fd565b34801561020857600080fd5b5061021260055481565b6040519081526020016101b3565b34801561022c57600080fd5b5061015861023b366004611395565b610864565b34801561024c57600080fd5b5061021261025b3660046112c0565b600260209081526000928352604080842090915290825290205481565b34801561028457600080fd5b5060015461019f906001600160a01b031681565b6101586102a636600461142b565b61087d565b3480156102b757600080fd5b5061021260045481565b3480156102cd57600080fd5b506101586102dc36600461148e565b6108c5565b6101586102ef366004611507565b610b3e565b34801561030057600080fd5b5061021260035481565b600063662a633a60e01b600073420000000000000000000000000000000000000687873487604051602401610344969594939291906115d0565b604080517fffffffffffffffffffffffffffffffffffffffffffffffffffffffffffffffe08184030181529190526020810180517bffffffffffffffffffffffffffffffffffffffffffffffffffffffff167fffffffff00000000000000000000000000000000000000000000000000000000909316929092179091526001549091506103db906001600160a01b03168483610bd4565b6103fd6000734200000000000000000000000000000000000006878734610c4f565b836001600160a01b0316856001600160a01b03167f35d79ab81f2b2017e19afb5c5571778877782d7a8786f5907f93b0f4702f4f23348560405161044292919061161e565b60405180910390a35050505050565b6001546001600160a01b031661046f6000546001600160a01b031690565b6001600160a01b0316336001600160a01b0316146104f55760405162461bcd60e51b815260206004820152602e60248201527f4f564d5f58434841494e3a206d657373656e67657220636f6e7472616374207560448201527f6e61757468656e746963617465640000000000000000000000000000000000006064820152608401610131565b806001600160a01b03166105116000546001600160a01b031690565b6001600160a01b0316636e296e456040518163ffffffff1660e01b815260040160206040518083038186803b15801561054957600080fd5b505afa15801561055d573d6000803e3d6000fd5b505050506040513d601f19601f820116820180604052508101906105819190611637565b6001600160a01b0316146105fd5760405162461bcd60e51b815260206004820152603060248201527f4f564d5f58434841494e3a2077726f6e672073656e646572206f662063726f7360448201527f732d646f6d61696e206d657373616765000000000000000000000000000000006064820152608401610131565b604080516000808252602082019092526001600160a01b0387169086906040516106279190611654565b60006040518083038185875af1925050503d8060008114610664576040519150601f19603f3d011682016040523d82523d6000602084013e610669565b606091505b50509050806106e05760405162461bcd60e51b815260206004820152603460248201527f5472616e7366657248656c7065723a3a736166655472616e736665724554483a60448201527f20455448207472616e73666572206661696c65640000000000000000000000006064820152608401610131565b856001600160a01b0316876001600160a01b03167f2ac69ee804d9a7a0984249f508dfab7cb2534b465b6ce1580f99a38ba9c5e631878787604051610727939291906116b9565b60405180910390a350505050505050565b6000546001600160a01b0316156107b75760405162461bcd60e51b815260206004820152602660248201527f436f6e74726163742068617320616c7265616479206265656e20696e6974696160448201527f6c697a65642e00000000000000000000000000000000000000000000000000006064820152608401610131565b600080546001600160a01b039384167fffffffffffffffffffffffff00000000000000000000000000000000000000009182161790915560018054929093169116179055565b333b1561084c5760405162461bcd60e51b815260206004820152600f60248201527f4163636f756e74206e6f7420454f4100000000000000000000000000000000006044820152606401610131565b61085c8686333388888888610cc1565b505050505050565b6108748787338888888888610cc1565b50505050505050565b6108bf33858585858080601f01602080910402602001604051908101604052809392919081815260200183838082843760009201919091525061030a92505050565b50505050565b6001546001600160a01b03166108e36000546001600160a01b031690565b6001600160a01b0316336001600160a01b0316146109695760405162461bcd60e51b815260206004820152602e60248201527f4f564d5f58434841494e3a206d657373656e67657220636f6e7472616374207560448201527f6e61757468656e746963617465640000000000000000000000000000000000006064820152608401610131565b806001600160a01b03166109856000546001600160a01b031690565b6001600160a01b0316636e296e456040518163ffffffff1660e01b815260040160206040518083038186803b1580156109bd57600080fd5b505afa1580156109d1573d6000803e3d6000fd5b505050506040513d601f19601f820116820180604052508101906109f59190611637565b6001600160a01b031614610a715760405162461bcd60e51b815260206004820152603060248201527f4f564d5f58434841494e3a2077726f6e672073656e646572206f662063726f7360448201527f732d646f6d61696e206d657373616765000000000000000000000000000000006064820152608401610131565b6001600160a01b038089166000908152600260209081526040808320938b1683529290522054610aa290859061170b565b6001600160a01b03808a166000818152600260209081526040808320948d1683529390529190912091909155610ad9908686610e5e565b856001600160a01b0316876001600160a01b0316896001600160a01b03167f3ceee06c1e37648fcbb6ed52e17b3e1f275a1f8c7b22a84b2b84732431e046b388888888604051610b2c9493929190611722565b60405180910390a45050505050505050565b333b15610b8d5760405162461bcd60e51b815260206004820152600f60248201527f4163636f756e74206e6f7420454f4100000000000000000000000000000000006044820152606401610131565b610bcf33338585858080601f01602080910402602001604051908101604052809392919081815260200183838082843760009201919091525061030a92505050565b505050565b6000546040517f3dbb202b0000000000000000000000000000000000000000000000000000000081526001600160a01b0390911690633dbb202b90610c2190869085908790600401611755565b600060405180830381600087803b158015610c3b57600080fd5b505af1158015610874573d6000803e3d6000fd5b600554431115610c60576004546003555b60048054604080516020808201939093526001600160a01b0398891681830152968816606088015294871660808701529290951660a085015260c0808501919091528251808503909101815260e09093019091528151910120905543600555565b610cd66001600160a01b038916873087610f25565b600063662a633a60e01b89898989898888604051602401610cfd979695949392919061178d565b604080517fffffffffffffffffffffffffffffffffffffffffffffffffffffffffffffffe08184030181529190526020810180517bffffffffffffffffffffffffffffffffffffffffffffffffffffffff167fffffffff0000000000000000000000000000000000000000000000000000000090931692909217909152600154909150610d94906001600160a01b03168583610bd4565b6001600160a01b03808a166000908152600260209081526040808320938c1683529290522054610dc59086906117dd565b6001600160a01b03808b166000908152600260209081526040808320938d1683529290522055610df88989898989610c4f565b866001600160a01b0316886001600160a01b03168a6001600160a01b03167f718594027abd4eaed59f95162563e0cc6d0e8d5b86b1c7be8b1b0ac3343d039689898888604051610e4b9493929190611722565b60405180910390a4505050505050505050565b6040516001600160a01b038316602482015260448101829052610bcf9084907fa9059cbb00000000000000000000000000000000000000000000000000000000906064015b604080517fffffffffffffffffffffffffffffffffffffffffffffffffffffffffffffffe08184030181529190526020810180517bffffffffffffffffffffffffffffffffffffffffffffffffffffffff167fffffffff0000000000000000000000000000000000000000000000000000000090931692909217909152610f76565b6040516001600160a01b03808516602483015283166044820152606481018290526108bf9085907f23b872dd0000000000000000000000000000000000000000000000000000000090608401610ea3565b6000610fcb826040518060400160405280602081526020017f5361666545524332303a206c6f772d6c6576656c2063616c6c206661696c6564815250856001600160a01b031661105b9092919063ffffffff16565b805190915015610bcf5780806020019051810190610fe991906117f5565b610bcf5760405162461bcd60e51b815260206004820152602a60248201527f5361666545524332303a204552433230206f7065726174696f6e20646964206e60448201527f6f742073756363656564000000000000000000000000000000000000000000006064820152608401610131565b606061106a8484600085611074565b90505b9392505050565b6060824710156110ec5760405162461bcd60e51b815260206004820152602660248201527f416464726573733a20696e73756666696369656e742062616c616e636520666f60448201527f722063616c6c00000000000000000000000000000000000000000000000000006064820152608401610131565b843b61113a5760405162461bcd60e51b815260206004820152601d60248201527f416464726573733a2063616c6c20746f206e6f6e2d636f6e74726163740000006044820152606401610131565b600080866001600160a01b031685876040516111569190611654565b60006040518083038185875af1925050503d8060008114611193576040519150601f19603f3d011682016040523d82523d6000602084013e611198565b606091505b50915091506111a88282866111b3565b979650505050505050565b606083156111c257508161106d565b8251156111d25782518084602001fd5b8160405162461bcd60e51b81526004016101319190611817565b6001600160a01b038116811461120157600080fd5b50565b60008083601f84011261121657600080fd5b50813567ffffffffffffffff81111561122e57600080fd5b60208301915083602082850101111561124657600080fd5b9250929050565b60008060008060006080868803121561126557600080fd5b8535611270816111ec565b94506020860135611280816111ec565b935060408601359250606086013567ffffffffffffffff8111156112a357600080fd5b6112af88828901611204565b969995985093965092949392505050565b600080604083850312156112d357600080fd5b82356112de816111ec565b915060208301356112ee816111ec565b809150509250929050565b803563ffffffff8116811461130d57600080fd5b919050565b60008060008060008060a0878903121561132b57600080fd5b8635611336816111ec565b95506020870135611346816111ec565b94506040870135935061135b606088016112f9565b9250608087013567ffffffffffffffff81111561137757600080fd5b61138389828a01611204565b979a9699509497509295939492505050565b600080600080600080600060c0888a0312156113b057600080fd5b87356113bb816111ec565b965060208801356113cb816111ec565b955060408801356113db816111ec565b9450606088013593506113f0608089016112f9565b925060a088013567ffffffffffffffff81111561140c57600080fd5b6114188a828b01611204565b989b979a50959850939692959293505050565b6000806000806060858703121561144157600080fd5b843561144c816111ec565b935061145a602086016112f9565b9250604085013567ffffffffffffffff81111561147657600080fd5b61148287828801611204565b95989497509550505050565b600080600080600080600060c0888a0312156114a957600080fd5b87356114b4816111ec565b965060208801356114c4816111ec565b955060408801356114d4816111ec565b945060608801356114e4816111ec565b93506080880135925060a088013567ffffffffffffffff81111561140c57600080fd5b60008060006040848603121561151c57600080fd5b611525846112f9565b9250602084013567ffffffffffffffff81111561154157600080fd5b61154d86828701611204565b9497909650939450505050565b60005b8381101561157557818101518382015260200161155d565b838111156108bf5750506000910152565b6000815180845261159e81602086016020860161155a565b601f017fffffffffffffffffffffffffffffffffffffffffffffffffffffffffffffffe0169290920160200192915050565b60006001600160a01b0380891683528088166020840152808716604084015280861660608401525083608083015260c060a083015261161260c0830184611586565b98975050505050505050565b82815260406020820152600061106a6040830184611586565b60006020828403121561164957600080fd5b815161106d816111ec565b6000825161166681846020870161155a565b9190910192915050565b8183528181602085013750600060208284010152600060207fffffffffffffffffffffffffffffffffffffffffffffffffffffffffffffffe0601f840116840101905092915050565b8381526040602082015260006116d3604083018486611670565b95945050505050565b7f4e487b7100000000000000000000000000000000000000000000000000000000600052601160045260246000fd5b60008282101561171d5761171d6116dc565b500390565b6001600160a01b038516815283602082015260606040820152600061174b606083018486611670565b9695505050505050565b6001600160a01b03841681526060602082015260006117776060830185611586565b905063ffffffff83166040830152949350505050565b60006001600160a01b03808a1683528089166020840152808816604084015280871660608401525084608083015260c060a08301526117d060c083018486611670565b9998505050505050505050565b600082198211156117f0576117f06116dc565b500190565b60006020828403121561180757600080fd5b8151801515811461106d57600080fd5b60208152600061106d602083018461158656fea164736f6c6343000809000a",
  "linkReferences": {},
  "deployedLinkReferences": {}
}