{
  "_format": "hh-sol-artifact-1",
  "contractName": "OVM_ETH",
  "sourceName": "contracts/L2/predeploys/OVM_ETH.sol",
  "abi": [
    {
      "inputs": [],
      "stateMutability": "nonpayable",
      "type": "constructor"
    },
    {
      "anonymous": false,
      "inputs": [
        {
          "indexed": true,
          "internalType": "address",
          "name": "owner",
          "type": "address"
        },
        {
          "indexed": true,
          "internalType": "address",
          "name": "spender",
          "type": "address"
        },
        {
          "indexed": false,
          "internalType": "uint256",
          "name": "value",
          "type": "uint256"
        }
      ],
      "name": "Approval",
      "type": "event"
    },
    {
      "anonymous": false,
      "inputs": [
        {
          "indexed": true,
          "internalType": "address",
          "name": "_account",
          "type": "address"
        },
        {
          "indexed": false,
          "internalType": "uint256",
          "name": "_amount",
          "type": "uint256"
        }
      ],
      "name": "Burn",
      "type": "event"
    },
    {
      "anonymous": false,
      "inputs": [
        {
          "indexed": true,
          "internalType": "address",
          "name": "_account",
          "type": "address"
        },
        {
          "indexed": false,
          "internalType": "uint256",
          "name": "_amount",
          "type": "uint256"
        }
      ],
      "name": "Mint",
      "type": "event"
    },
    {
      "anonymous": false,
      "inputs": [
        {
          "indexed": true,
          "internalType": "address",
          "name": "from",
          "type": "address"
        },
        {
          "indexed": true,
          "internalType": "address",
          "name": "to",
          "type": "address"
        },
        {
          "indexed": false,
          "internalType": "uint256",
          "name": "value",
          "type": "uint256"
        }
      ],
      "name": "Transfer",
      "type": "event"
    },
    {
      "inputs": [
        {
          "internalType": "address",
          "name": "owner",
          "type": "address"
        },
        {
          "internalType": "address",
          "name": "spender",
          "type": "address"
        }
      ],
      "name": "allowance",
      "outputs": [
        {
          "internalType": "uint256",
          "name": "",
          "type": "uint256"
        }
      ],
      "stateMutability": "view",
      "type": "function"
    },
    {
      "inputs": [
        {
          "internalType": "address",
          "name": "spender",
          "type": "address"
        },
        {
          "internalType": "uint256",
          "name": "amount",
          "type": "uint256"
        }
      ],
      "name": "approve",
      "outputs": [
        {
          "internalType": "bool",
          "name": "",
          "type": "bool"
        }
      ],
      "stateMutability": "nonpayable",
      "type": "function"
    },
    {
      "inputs": [
        {
          "internalType": "address",
          "name": "account",
          "type": "address"
        }
      ],
      "name": "balanceOf",
      "outputs": [
        {
          "internalType": "uint256",
          "name": "",
          "type": "uint256"
        }
      ],
      "stateMutability": "view",
      "type": "function"
    },
    {
      "inputs": [
        {
          "internalType": "address",
          "name": "_from",
          "type": "address"
        },
        {
          "internalType": "uint256",
          "name": "_amount",
          "type": "uint256"
        }
      ],
      "name": "burn",
      "outputs": [],
      "stateMutability": "nonpayable",
      "type": "function"
    },
    {
      "inputs": [],
      "name": "decimals",
      "outputs": [
        {
          "internalType": "uint8",
          "name": "",
          "type": "uint8"
        }
      ],
      "stateMutability": "view",
      "type": "function"
    },
    {
      "inputs": [
        {
          "internalType": "address",
          "name": "spender",
          "type": "address"
        },
        {
          "internalType": "uint256",
          "name": "subtractedValue",
          "type": "uint256"
        }
      ],
      "name": "decreaseAllowance",
      "outputs": [
        {
          "internalType": "bool",
          "name": "",
          "type": "bool"
        }
      ],
      "stateMutability": "nonpayable",
      "type": "function"
    },
    {
      "inputs": [
        {
          "internalType": "address",
          "name": "spender",
          "type": "address"
        },
        {
          "internalType": "uint256",
          "name": "addedValue",
          "type": "uint256"
        }
      ],
      "name": "increaseAllowance",
      "outputs": [
        {
          "internalType": "bool",
          "name": "",
          "type": "bool"
        }
      ],
      "stateMutability": "nonpayable",
      "type": "function"
    },
    {
      "inputs": [],
      "name": "l1Token",
      "outputs": [
        {
          "internalType": "address",
          "name": "",
          "type": "address"
        }
      ],
      "stateMutability": "view",
      "type": "function"
    },
    {
      "inputs": [],
      "name": "l2Bridge",
      "outputs": [
        {
          "internalType": "address",
          "name": "",
          "type": "address"
        }
      ],
      "stateMutability": "view",
      "type": "function"
    },
    {
      "inputs": [
        {
          "internalType": "address",
          "name": "_to",
          "type": "address"
        },
        {
          "internalType": "uint256",
          "name": "_amount",
          "type": "uint256"
        }
      ],
      "name": "mint",
      "outputs": [],
      "stateMutability": "nonpayable",
      "type": "function"
    },
    {
      "inputs": [],
      "name": "name",
      "outputs": [
        {
          "internalType": "string",
          "name": "",
          "type": "string"
        }
      ],
      "stateMutability": "view",
      "type": "function"
    },
    {
      "inputs": [
        {
          "internalType": "bytes4",
          "name": "_interfaceId",
          "type": "bytes4"
        }
      ],
      "name": "supportsInterface",
      "outputs": [
        {
          "internalType": "bool",
          "name": "",
          "type": "bool"
        }
      ],
      "stateMutability": "pure",
      "type": "function"
    },
    {
      "inputs": [],
      "name": "symbol",
      "outputs": [
        {
          "internalType": "string",
          "name": "",
          "type": "string"
        }
      ],
      "stateMutability": "view",
      "type": "function"
    },
    {
      "inputs": [],
      "name": "totalSupply",
      "outputs": [
        {
          "internalType": "uint256",
          "name": "",
          "type": "uint256"
        }
      ],
      "stateMutability": "view",
      "type": "function"
    },
    {
      "inputs": [
        {
          "internalType": "address",
          "name": "recipient",
          "type": "address"
        },
        {
          "internalType": "uint256",
          "name": "amount",
          "type": "uint256"
        }
      ],
      "name": "transfer",
      "outputs": [
        {
          "internalType": "bool",
          "name": "",
          "type": "bool"
        }
      ],
      "stateMutability": "nonpayable",
      "type": "function"
    },
    {
      "inputs": [
        {
          "internalType": "address",
          "name": "sender",
          "type": "address"
        },
        {
          "internalType": "address",
          "name": "recipient",
          "type": "address"
        },
        {
          "internalType": "uint256",
          "name": "amount",
          "type": "uint256"
        }
      ],
      "name": "transferFrom",
      "outputs": [
        {
          "internalType": "bool",
          "name": "",
          "type": "bool"
        }
      ],
      "stateMutability": "nonpayable",
      "type": "function"
    }
  ],
  "bytecode": "0x60a06040523480156200001157600080fd5b5073420000000000000000000000000000000000001060006040518060400160405280600581526020016422ba3432b960d91b8152506040518060400160405280600381526020016208aa8960eb1b8152506012828281600390805190602001906200007f929190620000d6565b50805162000095906004906020840190620000d6565b5050600580546001600160a01b039687166001600160a01b0319918216179091556006805497909616961695909517909355505060ff1660805250620001b9565b828054620000e4906200017c565b90600052602060002090601f01602090048101928262000108576000855562000153565b82601f106200012357805160ff191683800117855562000153565b8280016001018555821562000153579182015b828111156200015357825182559160200191906001019062000136565b506200016192915062000165565b5090565b5b8082111562000161576000815560010162000166565b600181811c908216806200019157607f821691505b60208210811415620001b357634e487b7160e01b600052602260045260246000fd5b50919050565b608051610ee7620001d560003960006101810152610ee76000f3fe608060405234801561001057600080fd5b50600436106101005760003560e01c806370a0823111610097578063a9059cbb11610066578063a9059cbb14610237578063ae1f6aaf1461024a578063c01e1bd61461028f578063dd62ed3e146102af57600080fd5b806370a08231146101d357806395d89b41146102095780639dc29fac14610211578063a457c2d71461022457600080fd5b806323b872dd116100d357806323b872dd14610167578063313ce5671461017a57806339509351146101ab57806340c10f19146101be57600080fd5b806301ffc9a71461010557806306fdde031461012d578063095ea7b31461014257806318160ddd14610155575b600080fd5b610118610113366004610c8f565b6102f5565b60405190151581526020015b60405180910390f35b6101356103b5565b6040516101249190610cd8565b610118610150366004610d74565b610447565b6002545b604051908152602001610124565b610118610175366004610d9e565b6104fd565b60405160ff7f0000000000000000000000000000000000000000000000000000000000000000168152602001610124565b6101186101b9366004610d74565b6105ae565b6101d16101cc366004610d74565b61065f565b005b6101596101e1366004610dda565b73ffffffffffffffffffffffffffffffffffffffff1660009081526020819052604090205490565b61013561073e565b6101d161021f366004610d74565b61074d565b610118610232366004610d74565b610820565b610118610245366004610d74565b6108d1565b60065461026a9073ffffffffffffffffffffffffffffffffffffffff1681565b60405173ffffffffffffffffffffffffffffffffffffffff9091168152602001610124565b60055461026a9073ffffffffffffffffffffffffffffffffffffffff1681565b6101596102bd366004610df5565b73ffffffffffffffffffffffffffffffffffffffff918216600090815260016020908152604080832093909416825291909152205490565b60007f01ffc9a7a5cef8baa21ed3c5c0d7e23accb804b619e9333b597f47a0d84076e27f1d1d8b63000000000000000000000000000000000000000000000000000000007fffffffff0000000000000000000000000000000000000000000000000000000084167f01ffc9a70000000000000000000000000000000000000000000000000000000014806103ad57507fffffffff00000000000000000000000000000000000000000000000000000000848116908216145b949350505050565b6060600380546103c490610e28565b80601f01602080910402602001604051908101604052809291908181526020018280546103f090610e28565b801561043d5780601f106104125761010080835404028352916020019161043d565b820191906000526020600020905b81548152906001019060200180831161042057829003601f168201915b5050505050905090565b6040517f08c379a000000000000000000000000000000000000000000000000000000000815260206004820152604260248201527f4f564d5f4554483a20617070726f76652069732064697361626c65642070656e60448201527f64696e67206675727468657220636f6d6d756e6974792064697363757373696f60648201527f6e2e000000000000000000000000000000000000000000000000000000000000608482015260009060a4015b60405180910390fd5b6040517f08c379a000000000000000000000000000000000000000000000000000000000815260206004820152604760248201527f4f564d5f4554483a207472616e7366657246726f6d2069732064697361626c6560448201527f642070656e64696e67206675727468657220636f6d6d756e697479206469736360648201527f757373696f6e2e00000000000000000000000000000000000000000000000000608482015260009060a4016104f4565b6040517f08c379a000000000000000000000000000000000000000000000000000000000815260206004820152604c60248201527f4f564d5f4554483a20696e637265617365416c6c6f77616e636520697320646960448201527f7361626c65642070656e64696e67206675727468657220636f6d6d756e69747960648201527f2064697363757373696f6e2e0000000000000000000000000000000000000000608482015260009060a4016104f4565b60065473ffffffffffffffffffffffffffffffffffffffff1633146106e0576040517f08c379a000000000000000000000000000000000000000000000000000000000815260206004820181905260248201527f4f6e6c79204c32204272696467652063616e206d696e7420616e64206275726e60448201526064016104f4565b6106ea8282610982565b8173ffffffffffffffffffffffffffffffffffffffff167f0f6798a560793a54c3bcfe86a93cde1e73087d944c0ea20544137d41213968858260405161073291815260200190565b60405180910390a25050565b6060600480546103c490610e28565b60065473ffffffffffffffffffffffffffffffffffffffff1633146107ce576040517f08c379a000000000000000000000000000000000000000000000000000000000815260206004820181905260248201527f4f6e6c79204c32204272696467652063616e206d696e7420616e64206275726e60448201526064016104f4565b6107d88282610aa2565b8173ffffffffffffffffffffffffffffffffffffffff167fcc16f5dbb4873280815c1ee09dbd06736cffcc184412cf7a71a0fdb75d397ca58260405161073291815260200190565b6040517f08c379a000000000000000000000000000000000000000000000000000000000815260206004820152604c60248201527f4f564d5f4554483a206465637265617365416c6c6f77616e636520697320646960448201527f7361626c65642070656e64696e67206675727468657220636f6d6d756e69747960648201527f2064697363757373696f6e2e0000000000000000000000000000000000000000608482015260009060a4016104f4565b6040517f08c379a000000000000000000000000000000000000000000000000000000000815260206004820152604360248201527f4f564d5f4554483a207472616e736665722069732064697361626c656420706560448201527f6e64696e67206675727468657220636f6d6d756e69747920646973637573736960648201527f6f6e2e0000000000000000000000000000000000000000000000000000000000608482015260009060a4016104f4565b73ffffffffffffffffffffffffffffffffffffffff82166109ff576040517f08c379a000000000000000000000000000000000000000000000000000000000815260206004820152601f60248201527f45524332303a206d696e7420746f20746865207a65726f20616464726573730060448201526064016104f4565b8060026000828254610a119190610eab565b909155505073ffffffffffffffffffffffffffffffffffffffff821660009081526020819052604081208054839290610a4b908490610eab565b909155505060405181815273ffffffffffffffffffffffffffffffffffffffff8316906000907fddf252ad1be2c89b69c2b068fc378daa952ba7f163c4a11628f55a4df523b3ef9060200160405180910390a35050565b73ffffffffffffffffffffffffffffffffffffffff8216610b45576040517f08c379a000000000000000000000000000000000000000000000000000000000815260206004820152602160248201527f45524332303a206275726e2066726f6d20746865207a65726f2061646472657360448201527f730000000000000000000000000000000000000000000000000000000000000060648201526084016104f4565b73ffffffffffffffffffffffffffffffffffffffff821660009081526020819052604090205481811015610bfb576040517f08c379a000000000000000000000000000000000000000000000000000000000815260206004820152602260248201527f45524332303a206275726e20616d6f756e7420657863656564732062616c616e60448201527f636500000000000000000000000000000000000000000000000000000000000060648201526084016104f4565b73ffffffffffffffffffffffffffffffffffffffff83166000908152602081905260408120838303905560028054849290610c37908490610ec3565b909155505060405182815260009073ffffffffffffffffffffffffffffffffffffffff8516907fddf252ad1be2c89b69c2b068fc378daa952ba7f163c4a11628f55a4df523b3ef9060200160405180910390a3505050565b600060208284031215610ca157600080fd5b81357fffffffff0000000000000000000000000000000000000000000000000000000081168114610cd157600080fd5b9392505050565b600060208083528351808285015260005b81811015610d0557858101830151858201604001528201610ce9565b81811115610d17576000604083870101525b50601f017fffffffffffffffffffffffffffffffffffffffffffffffffffffffffffffffe016929092016040019392505050565b803573ffffffffffffffffffffffffffffffffffffffff81168114610d6f57600080fd5b919050565b60008060408385031215610d8757600080fd5b610d9083610d4b565b946020939093013593505050565b600080600060608486031215610db357600080fd5b610dbc84610d4b565b9250610dca60208501610d4b565b9150604084013590509250925092565b600060208284031215610dec57600080fd5b610cd182610d4b565b60008060408385031215610e0857600080fd5b610e1183610d4b565b9150610e1f60208401610d4b565b90509250929050565b600181811c90821680610e3c57607f821691505b60208210811415610e76577f4e487b7100000000000000000000000000000000000000000000000000000000600052602260045260246000fd5b50919050565b7f4e487b7100000000000000000000000000000000000000000000000000000000600052601160045260246000fd5b60008219821115610ebe57610ebe610e7c565b500190565b600082821015610ed557610ed5610e7c565b50039056fea164736f6c6343000809000a",
  "linkReferences": {},
  "deployedLinkReferences": {}
}