{
  "_format": "hh-sol-artifact-1",
  "contractName": "SimplePriceFeedRegistry",
  "sourceName": "contracts/oracle/SimplePriceFeedRegistry.sol",
  "abi": [
    {
      "inputs": [],
      "stateMutability": "nonpayable",
      "type": "constructor"
    },
    {
      "inputs": [
        {
          "internalType": "address",
          "name": "base",
          "type": "address"
        },
        {
          "internalType": "address",
          "name": "quote",
          "type": "address"
        },
        {
          "internalType": "address",
          "name": "aggregator",
          "type": "address"
        }
      ],
      "name": "confirmFeed",
      "outputs": [],
      "stateMutability": "nonpayable",
      "type": "function"
    },
    {
      "inputs": [
        {
          "internalType": "address",
          "name": "base",
          "type": "address"
        },
        {
          "internalType": "address",
          "name": "quote",
          "type": "address"
        }
      ],
      "name": "decimals",
      "outputs": [
        {
          "internalType": "uint8",
          "name": "",
          "type": "uint8"
        }
      ],
      "stateMutability": "view",
      "type": "function"
    },
    {
      "inputs": [
        {
          "internalType": "address",
          "name": "base",
          "type": "address"
        },
        {
          "internalType": "address",
          "name": "quote",
          "type": "address"
        }
      ],
      "name": "description",
      "outputs": [
        {
          "internalType": "string",
          "name": "",
          "type": "string"
        }
      ],
      "stateMutability": "view",
      "type": "function"
    },
    {
      "inputs": [
        {
          "internalType": "address",
          "name": "base",
          "type": "address"
        },
        {
          "internalType": "address",
          "name": "quote",
          "type": "address"
        },
        {
          "internalType": "uint256",
          "name": "roundId",
          "type": "uint256"
        }
      ],
      "name": "getAnswer",
      "outputs": [
        {
          "internalType": "int256",
          "name": "answer",
          "type": "int256"
        }
      ],
      "stateMutability": "view",
      "type": "function"
    },
    {
      "inputs": [
        {
          "internalType": "address",
          "name": "base",
          "type": "address"
        },
        {
          "internalType": "address",
          "name": "quote",
          "type": "address"
        }
      ],
      "name": "getFeed",
      "outputs": [
        {
          "internalType": "contract AggregatorV2V3Interface",
          "name": "aggregator",
          "type": "address"
        }
      ],
      "stateMutability": "view",
      "type": "function"
    },
    {
      "inputs": [
        {
          "internalType": "address",
          "name": "base",
          "type": "address"
        },
        {
          "internalType": "address",
          "name": "quote",
          "type": "address"
        }
      ],
      "name": "getProposedFeed",
      "outputs": [
        {
          "internalType": "contract AggregatorV2V3Interface",
          "name": "proposedAggregator",
          "type": "address"
        }
      ],
      "stateMutability": "view",
      "type": "function"
    },
    {
      "inputs": [
        {
          "internalType": "address",
          "name": "base",
          "type": "address"
        },
        {
          "internalType": "address",
          "name": "quote",
          "type": "address"
        },
        {
          "internalType": "uint80",
          "name": "_roundId",
          "type": "uint80"
        }
      ],
      "name": "getRoundData",
      "outputs": [
        {
          "internalType": "uint80",
          "name": "roundId",
          "type": "uint80"
        },
        {
          "internalType": "int256",
          "name": "answer",
          "type": "int256"
        },
        {
          "internalType": "uint256",
          "name": "startedAt",
          "type": "uint256"
        },
        {
          "internalType": "uint256",
          "name": "updatedAt",
          "type": "uint256"
        },
        {
          "internalType": "uint80",
          "name": "answeredInRound",
          "type": "uint80"
        }
      ],
      "stateMutability": "view",
      "type": "function"
    },
    {
      "inputs": [
        {
          "internalType": "address",
          "name": "base",
          "type": "address"
        },
        {
          "internalType": "address",
          "name": "quote",
          "type": "address"
        },
        {
          "internalType": "uint256",
          "name": "roundId",
          "type": "uint256"
        }
      ],
      "name": "getTimestamp",
      "outputs": [
        {
          "internalType": "uint256",
          "name": "timestamp",
          "type": "uint256"
        }
      ],
      "stateMutability": "view",
      "type": "function"
    },
    {
      "inputs": [
        {
          "internalType": "address",
          "name": "base",
          "type": "address"
        },
        {
          "internalType": "address",
          "name": "quote",
          "type": "address"
        }
      ],
      "name": "latestAnswer",
      "outputs": [
        {
          "internalType": "int256",
          "name": "answer",
          "type": "int256"
        }
      ],
      "stateMutability": "view",
      "type": "function"
    },
    {
      "inputs": [
        {
          "internalType": "address",
          "name": "base",
          "type": "address"
        },
        {
          "internalType": "address",
          "name": "quote",
          "type": "address"
        }
      ],
      "name": "latestRound",
      "outputs": [
        {
          "internalType": "uint256",
          "name": "roundId",
          "type": "uint256"
        }
      ],
      "stateMutability": "view",
      "type": "function"
    },
    {
      "inputs": [
        {
          "internalType": "address",
          "name": "base",
          "type": "address"
        },
        {
          "internalType": "address",
          "name": "quote",
          "type": "address"
        }
      ],
      "name": "latestRoundData",
      "outputs": [
        {
          "internalType": "uint80",
          "name": "roundId",
          "type": "uint80"
        },
        {
          "internalType": "int256",
          "name": "answer",
          "type": "int256"
        },
        {
          "internalType": "uint256",
          "name": "startedAt",
          "type": "uint256"
        },
        {
          "internalType": "uint256",
          "name": "updatedAt",
          "type": "uint256"
        },
        {
          "internalType": "uint80",
          "name": "answeredInRound",
          "type": "uint80"
        }
      ],
      "stateMutability": "view",
      "type": "function"
    },
    {
      "inputs": [
        {
          "internalType": "address",
          "name": "base",
          "type": "address"
        },
        {
          "internalType": "address",
          "name": "quote",
          "type": "address"
        }
      ],
      "name": "latestTimestamp",
      "outputs": [
        {
          "internalType": "uint256",
          "name": "timestamp",
          "type": "uint256"
        }
      ],
      "stateMutability": "view",
      "type": "function"
    },
    {
      "inputs": [],
      "name": "owner",
      "outputs": [
        {
          "internalType": "address",
          "name": "",
          "type": "address"
        }
      ],
      "stateMutability": "view",
      "type": "function"
    },
    {
      "inputs": [
        {
          "internalType": "address",
          "name": "base",
          "type": "address"
        },
        {
          "internalType": "address",
          "name": "quote",
          "type": "address"
        },
        {
          "internalType": "address",
          "name": "aggregator",
          "type": "address"
        }
      ],
      "name": "proposeFeed",
      "outputs": [],
      "stateMutability": "nonpayable",
      "type": "function"
    },
    {
      "inputs": [
        {
          "internalType": "address",
          "name": "_newOwner",
          "type": "address"
        }
      ],
      "name": "transferOwnership",
      "outputs": [],
      "stateMutability": "nonpayable",
      "type": "function"
    }
  ],
  "bytecode": "0x608060405234801561001057600080fd5b50600080546001600160a01b031916331790556112f7806100326000396000f3fe608060405234801561001057600080fd5b50600436106100f55760003560e01c80639eed82b011610097578063ec62f44b11610066578063ec62f44b14610377578063f2fde38b146103a5578063fa820de9146103cb578063fc58749e1461046e576100f5565b80639eed82b014610276578063bcfd032d146102ae578063d2edb6dd1461031b578063d4c282a314610349576100f5565b80635ad9d9df116100d35780635ad9d9df146101c0578063672ff44f1461020a5780638da5cb5b1461023857806391624c9514610240576100f5565b8063045abf4b146100fa57806315cd4ad21461013457806358e2d3a81461017c575b600080fd5b6101326004803603606081101561011057600080fd5b506001600160a01b0381358116916020810135821691604090910135166104b1565b005b61016a6004803603606081101561014a57600080fd5b506001600160a01b0381358116916020810135909116906040013561065a565b60408051918252519081900360200190f35b6101aa6004803603604081101561019257600080fd5b506001600160a01b038135811691602001351661074f565b6040805160ff9092168252519081900360200190f35b6101ee600480360360408110156101d657600080fd5b506001600160a01b038135811691602001351661083a565b604080516001600160a01b039092168252519081900360200190f35b61016a6004803603604081101561022057600080fd5b506001600160a01b0381358116916020013516610864565b6101ee610919565b61016a6004803603606081101561025657600080fd5b506001600160a01b03813581169160208101359091169060400135610928565b6101326004803603606081101561028c57600080fd5b506001600160a01b0381358116916020810135821691604090910135166109e8565b6102dc600480360360408110156102c457600080fd5b506001600160a01b0381358116916020013516610b99565b6040805169ffffffffffffffffffff96871681526020810195909552848101939093526060840191909152909216608082015290519081900360a00190f35b6101ee6004803603604081101561033157600080fd5b506001600160a01b0381358116916020013516610cab565b61016a6004803603604081101561035f57600080fd5b506001600160a01b0381358116916020013516610d25565b61016a6004803603604081101561038d57600080fd5b506001600160a01b0381358116916020013516610dda565b610132600480360360208110156103bb57600080fd5b50356001600160a01b0316610e8f565b6103f9600480360360408110156103e157600080fd5b506001600160a01b0381358116916020013516610f6d565b6040805160208082528351818301528351919283929083019185019080838360005b8381101561043357818101518382015260200161041b565b50505050905090810190601f1680156104605780820380516001836020036101000a031916815260200191505b509250505060405180910390f35b6102dc6004803603606081101561048457600080fd5b5080356001600160a01b03908116916020810135909116906040013569ffffffffffffffffffff16611137565b6000546001600160a01b03163314610510576040805162461bcd60e51b815260206004820152601760248201527f43616c6c6572206973206e6f7420746865206f776e6572000000000000000000604482015290519081900360640190fd5b6001600160a01b03811661056b576040805162461bcd60e51b815260206004820152601860248201527f5a65726f2061646472657373206e6f7420616c6c6f7765640000000000000000604482015290519081900360640190fd5b6001600160a01b03808416600090815260026020908152604080832086851684529091529020548282169116146105e9576040805162461bcd60e51b815260206004820152601b60248201527f496e76616c69642070726f706f7365642061676772656761746f720000000000604482015290519081900360640190fd5b6001600160a01b0392831660008181526001602090815260408083209587168084529582528083208054979095167fffffffffffffffffffffffff00000000000000000000000000000000000000009788161790945591815260028252828120938152929052902080549091169055565b6001600160a01b0380841660009081526001602090815260408083208685168452909152812054909116806106d6576040805162461bcd60e51b815260206004820152600e60248201527f46656564206e6f7420666f756e64000000000000000000000000000000000000604482015290519081900360640190fd5b806001600160a01b031663b5ab58dc846040518263ffffffff1660e01b81526004018082815260200191505060206040518083038186803b15801561071a57600080fd5b505afa15801561072e573d6000803e3d6000fd5b505050506040513d602081101561074457600080fd5b505195945050505050565b6001600160a01b0380831660009081526001602090815260408083208585168452909152812054909116806107cb576040805162461bcd60e51b815260206004820152600e60248201527f46656564206e6f7420666f756e64000000000000000000000000000000000000604482015290519081900360640190fd5b806001600160a01b031663313ce5676040518163ffffffff1660e01b815260040160206040518083038186803b15801561080457600080fd5b505afa158015610818573d6000803e3d6000fd5b505050506040513d602081101561082e57600080fd5b50519150505b92915050565b6001600160a01b039182166000908152600260209081526040808320938516835292905220541690565b6001600160a01b0380831660009081526001602090815260408083208585168452909152812054909116806108e0576040805162461bcd60e51b815260206004820152600e60248201527f46656564206e6f7420666f756e64000000000000000000000000000000000000604482015290519081900360640190fd5b806001600160a01b0316638205bf6a6040518163ffffffff1660e01b815260040160206040518083038186803b15801561080457600080fd5b6000546001600160a01b031681565b6001600160a01b0380841660009081526001602090815260408083208685168452909152812054909116806109a4576040805162461bcd60e51b815260206004820152600e60248201527f46656564206e6f7420666f756e64000000000000000000000000000000000000604482015290519081900360640190fd5b806001600160a01b031663b633620c846040518263ffffffff1660e01b81526004018082815260200191505060206040518083038186803b15801561071a57600080fd5b6000546001600160a01b03163314610a47576040805162461bcd60e51b815260206004820152601760248201527f43616c6c6572206973206e6f7420746865206f776e6572000000000000000000604482015290519081900360640190fd5b6001600160a01b038116610aa2576040805162461bcd60e51b815260206004820152601860248201527f5a65726f2061646472657373206e6f7420616c6c6f7765640000000000000000604482015290519081900360640190fd5b6001600160a01b03808416600090815260016020908152604080832086851684529091529020548116908216811415610b0c5760405162461bcd60e51b815260040180806020018281038252602181526020018061127d6021913960400191505060405180910390fd5b6001600160a01b038085166000908152600260209081526040808320878516845290915290205481169083168114610b92576001600160a01b0385811660009081526002602090815260408083208885168452909152902080547fffffffffffffffffffffffff0000000000000000000000000000000000000000169185169190911790555b5050505050565b6001600160a01b0380831660009081526001602090815260408083208585168452909152812054909182918291829182911680610c1d576040805162461bcd60e51b815260206004820152600e60248201527f46656564206e6f7420666f756e64000000000000000000000000000000000000604482015290519081900360640190fd5b806001600160a01b031663feaf968c6040518163ffffffff1660e01b815260040160a06040518083038186803b158015610c5657600080fd5b505afa158015610c6a573d6000803e3d6000fd5b505050506040513d60a0811015610c8057600080fd5b508051602082015160408301516060840151608090940151929c919b50995091975095509350505050565b6001600160a01b03808316600090815260016020908152604080832085851684529091529020541680610834576040805162461bcd60e51b815260206004820152600e60248201527f46656564206e6f7420666f756e64000000000000000000000000000000000000604482015290519081900360640190fd5b6001600160a01b038083166000908152600160209081526040808320858516845290915281205490911680610da1576040805162461bcd60e51b815260206004820152600e60248201527f46656564206e6f7420666f756e64000000000000000000000000000000000000604482015290519081900360640190fd5b806001600160a01b03166350d25bcd6040518163ffffffff1660e01b815260040160206040518083038186803b15801561080457600080fd5b6001600160a01b038083166000908152600160209081526040808320858516845290915281205490911680610e56576040805162461bcd60e51b815260206004820152600e60248201527f46656564206e6f7420666f756e64000000000000000000000000000000000000604482015290519081900360640190fd5b806001600160a01b031663668a0f026040518163ffffffff1660e01b815260040160206040518083038186803b15801561080457600080fd5b6000546001600160a01b03163314610eee576040805162461bcd60e51b815260206004820152601760248201527f43616c6c6572206973206e6f7420746865206f776e6572000000000000000000604482015290519081900360640190fd5b6001600160a01b038116610f335760405162461bcd60e51b815260040180806020018281038252602481526020018061129e6024913960400191505060405180910390fd5b600080547fffffffffffffffffffffffff0000000000000000000000000000000000000000166001600160a01b0392909216919091179055565b6001600160a01b03808316600090815260016020908152604080832085851684529091529020546060911680610fea576040805162461bcd60e51b815260206004820152600e60248201527f46656564206e6f7420666f756e64000000000000000000000000000000000000604482015290519081900360640190fd5b806001600160a01b0316637284e4166040518163ffffffff1660e01b815260040160006040518083038186803b15801561102357600080fd5b505afa158015611037573d6000803e3d6000fd5b505050506040513d6000823e601f3d9081017fffffffffffffffffffffffffffffffffffffffffffffffffffffffffffffffe0168201604052602081101561107e57600080fd5b810190808051604051939291908464010000000082111561109e57600080fd5b9083019060208201858111156110b357600080fd5b82516401000000008111828201881017156110cd57600080fd5b82525081516020918201929091019080838360005b838110156110fa5781810151838201526020016110e2565b50505050905090810190601f1680156111275780820380516001836020036101000a031916815260200191505b5060405250505091505092915050565b6001600160a01b03808416600090815260016020908152604080832086851684529091528120549091829182918291829116806111bb576040805162461bcd60e51b815260206004820152600e60248201527f46656564206e6f7420666f756e64000000000000000000000000000000000000604482015290519081900360640190fd5b604080517f9a6fc8f500000000000000000000000000000000000000000000000000000000815269ffffffffffffffffffff8916600482015290516001600160a01b03831691639a6fc8f59160248083019260a0929190829003018186803b15801561122657600080fd5b505afa15801561123a573d6000803e3d6000fd5b505050506040513d60a081101561125057600080fd5b508051602082015160408301516060840151608090940151929d919c509a50919850965094505050505056fe43616e6e6f742070726f706f73652063757272656e742061676772656761746f724e6577206f776e65722063616e6e6f7420626520746865207a65726f2061646472657373a26469706673582212207903da8591d868da0b0b3fbbfae9ca35fc08dc62059b71f996721a2c3bb6d7c664736f6c63430006060033",
  "linkReferences": {},
  "deployedLinkReferences": {}
}