{
  "_format": "hh-sol-artifact-1",
  "contractName": "OVM_L1MessageSender",
  "sourceName": "contracts/optimistic-ethereum/OVM/predeploys/OVM_L1MessageSender.sol",
  "abi": [
    {
      "inputs": [],
      "name": "getL1MessageSender",
      "outputs": [
        {
          "internalType": "address",
          "name": "_l1MessageSender",
          "type": "address"
        }
      ],
      "stateMutability": "view",
      "type": "function"
    }
  ],
  "bytecode": "0x60806040525a61000d610027565b80156100215760008061001e610081565b50505b506100ec565b63a8c4c5ec598160e01b8152602081600483336000905af158600e01573d6000803e3d6000fd5b3d6001141558600a015760016000f35b8051935060005b604081101561007c57600082820152602001610065565b505050565b632a2a7adb598160e01b8152600481016020815285602082015260005b868110156100b957808601518282016040015260200161009e565b506020828760640184336000905af158600e01573d6000803e3d6000fd5b3d6001141558600a015760016000f35b505050565b61035b806100fb6000396000f3fe60806040525a61000d610117565b80156100215760008061001e610171565b50505b506004361061003c5760003560e01c8063d20341061461004a575b600080610047610171565b50505b61005261006e565b6040516001600160a01b03909116815260200160405180910390f35b60005a6100796101dc565b6001600160a01b0316639dc9dc936040518163ffffffff1660e01b815260040160206040518083038186806100ac610222565b1580156100c1576000806100be610171565b50505b505a6100cb61026e565b50505050501580156100ea573d6000803e3d60006100e7610171565b50505b505050506040513d602081101561010957600080610106610171565b50505b810190808051935050505090565b63a8c4c5ec598160e01b8152602081600483336000905af158600e01573d6000803e3d6000fd5b3d6001141558600a015760016000f35b8051935060005b604081101561016c57600082820152602001610155565b505050565b632a2a7adb598160e01b8152600481016020815285602082015260005b868110156101a957808601518282016040015260200161018e565b506020828760640184336000905af158600e01573d6000803e3d6000fd5b3d6001141558600a015760016000f35b505050565b6373509064598160e01b8152602081600483336000905af158600e01573d6000803e3d6000fd5b3d6001141558600a015760016000f35b80516000825293506020610155565b638435035b598160e01b8152836004820152602081602483336000905af158600e01573d6000803e3d6000fd5b3d6001141558600a015760016000f35b80516000825293506020610155565b638540661f598160e01b81526102a1565b808083111561028b5750815b92915050565b808083101561028b575090919050565b836004820152846024820152606060448201528660648201526084810160005b888110156102d95780880151828201526020016102c1565b506060828960a40184336000905af158600e01573d6000803e3d6000fd5b3d6001141558600a015760016000f35b815160408301513d6000853e8b8b82606087013350600060045af1505961032e8d3d610291565b8c0161033a818761027f565b5b8281101561034f576000815260200161033b565b50929c5050505050505056",
  "linkReferences": {},
  "deployedLinkReferences": {}
}