{
  "_format": "hh-sol-artifact-1",
  "contractName": "TestLib_SecureMerkleTrie",
  "sourceName": "contracts/test-libraries/trie/TestLib_SecureMerkleTrie.sol",
  "abi": [
    {
      "inputs": [
        {
          "internalType": "bytes",
          "name": "_key",
          "type": "bytes"
        },
        {
          "internalType": "bytes",
          "name": "_proof",
          "type": "bytes"
        },
        {
          "internalType": "bytes32",
          "name": "_root",
          "type": "bytes32"
        }
      ],
      "name": "get",
      "outputs": [
        {
          "internalType": "bool",
          "name": "",
          "type": "bool"
        },
        {
          "internalType": "bytes",
          "name": "",
          "type": "bytes"
        }
      ],
      "stateMutability": "pure",
      "type": "function"
    },
    {
      "inputs": [
        {
          "internalType": "bytes",
          "name": "_key",
          "type": "bytes"
        },
        {
          "internalType": "bytes",
          "name": "_value",
          "type": "bytes"
        }
      ],
      "name": "getSingleNodeRootHash",
      "outputs": [
        {
          "internalType": "bytes32",
          "name": "",
          "type": "bytes32"
        }
      ],
      "stateMutability": "pure",
      "type": "function"
    },
    {
      "inputs": [
        {
          "internalType": "bytes",
          "name": "_key",
          "type": "bytes"
        },
        {
          "internalType": "bytes",
          "name": "_value",
          "type": "bytes"
        },
        {
          "internalType": "bytes",
          "name": "_proof",
          "type": "bytes"
        },
        {
          "internalType": "bytes32",
          "name": "_root",
          "type": "bytes32"
        }
      ],
      "name": "update",
      "outputs": [
        {
          "internalType": "bytes32",
          "name": "",
          "type": "bytes32"
        }
      ],
      "stateMutability": "pure",
      "type": "function"
    },
    {
      "inputs": [
        {
          "internalType": "bytes",
          "name": "_key",
          "type": "bytes"
        },
        {
          "internalType": "bytes",
          "name": "_value",
          "type": "bytes"
        },
        {
          "internalType": "bytes",
          "name": "_proof",
          "type": "bytes"
        },
        {
          "internalType": "bytes32",
          "name": "_root",
          "type": "bytes32"
        }
      ],
      "name": "verifyInclusionProof",
      "outputs": [
        {
          "internalType": "bool",
          "name": "",
          "type": "bool"
        }
      ],
      "stateMutability": "pure",
      "type": "function"
    }
  ],
  "bytecode": "0x608060405234801561001057600080fd5b50612f1e806100206000396000f3fe608060405234801561001057600080fd5b506004361061004c5760003560e01c8063120c4a221461005157806349fba1931461007b578063cd4a76951461009c578063e8e72100146100af575b600080fd5b61006461005f366004612a20565b6100d2565b604051610072929190612abd565b60405180910390f35b61008e610089366004612b17565b6100ed565b604051908152602001610072565b61008e6100aa366004612b7b565b610102565b6100c26100bd366004612b7b565b61011b565b6040519015158152602001610072565b600060606100e1858585610129565b91509150935093915050565b60006100f98383610152565b90505b92915050565b60006101108585858561016a565b90505b949350505050565b60006101108585858561018e565b600060606000610138866101a8565b90506101458186866101da565b9250925050935093915050565b60008061015e846101a8565b905061011381846102ba565b600080610176866101a8565b9050610184818686866102de565b9695505050505050565b60008061019a866101a8565b905061018481868686610396565b606081805190602001206040516020016101c491815260200190565b6040516020818303038152906040529050919050565b6000606060006101e9856103d3565b905060008060006101fb848a896104ce565b8151929550909350915015808061020f5750815b6102605760405162461bcd60e51b815260206004820152601a60248201527f50726f76696465642070726f6f6620697320696e76616c69642e00000000000060448201526064015b60405180910390fd5b60008161027c57604051806020016040528060008152506102a8565b6102a88661028b600188612c3a565b8151811061029b5761029b612c51565b6020026020010151610969565b919b919a509098505050505050505050565b60006102ce6102c884610993565b83610b16565b5180516020909101209392505050565b60408051808201909152600181527f800000000000000000000000000000000000000000000000000000000000000060209091015260007f56e81f171bcc55a6ff8345e692c0f86e5b48e01b996cadc001622fb5e363b42182141561034e5761034785856102ba565b9050610113565b6000610359846103d3565b90506000806103698389876104ce565b5091509150600061037d84848b858c610bd0565b9050610389818a61103d565b9998505050505050505050565b60008060006103a68786866101da565b915091508180156103c857508051602080830191909120875191880191909120145b979650505050505050565b606060006103e0836111f3565b90506000815167ffffffffffffffff8111156103fe576103fe612946565b60405190808252806020026020018201604052801561044357816020015b604080518082019091526060808252602082015281526020019060019003908161041c5790505b50905060005b82518110156104c657600061047684838151811061046957610469612c51565b6020026020010151611226565b90506040518060400160405280828152602001610492836111f3565b8152508383815181106104a7576104a7612c51565b60200260200101819052505080806104be90612c80565b915050610449565b509392505050565b600060608180806104de87610993565b90506000869050600080610505604051806040016040528060608152602001606081525090565b60005b8c51811015610925578c818151811061052357610523612c51565b6020026020010151915082846105399190612c9b565b9350610546600188612c9b565b9650836105aa578151805160209091012085146105a55760405162461bcd60e51b815260206004820152601160248201527f496e76616c696420726f6f7420686173680000000000000000000000000000006044820152606401610257565b610667565b81515160201161060c578151805160209091012085146105a55760405162461bcd60e51b815260206004820152601b60248201527f496e76616c6964206c6172676520696e7465726e616c206861736800000000006044820152606401610257565b8461061a83600001516112ad565b146106675760405162461bcd60e51b815260206004820152601a60248201527f496e76616c696420696e7465726e616c206e6f646520686173680000000000006044820152606401610257565b61067360106001612c9b565b82602001515114156106ec57855184141561068d57610925565b60008685815181106106a1576106a1612c51565b602001015160f81c60f81b60f81c9050600083602001518260ff16815181106106cc576106cc612c51565b602002602001015190506106df816112d5565b9650600194505050610913565b600282602001515114156108cb57600061070583611312565b905060008160008151811061071c5761071c612c51565b016020015160f81c90506000610733600283612ce2565b61073e906002612d04565b9050600061074f848360ff16611336565b9050600061075d8b8a611336565b9050600061076b8383611367565b905060ff851660021480610782575060ff85166003145b156107d8578083511480156107975750808251145b156107a9576107a6818b612c9b565b99505b507f80000000000000000000000000000000000000000000000000000000000000009950610925945050505050565b60ff851615806107eb575060ff85166001145b1561085d578251811461082757507f80000000000000000000000000000000000000000000000000000000000000009950610925945050505050565b61084e886020015160018151811061084157610841612c51565b60200260200101516112d5565b9a509750610913945050505050565b60405162461bcd60e51b815260206004820152602660248201527f52656365697665642061206e6f6465207769746820616e20756e6b6e6f776e2060448201527f70726566697800000000000000000000000000000000000000000000000000006064820152608401610257565b60405162461bcd60e51b815260206004820152601d60248201527f526563656976656420616e20756e706172736561626c65206e6f64652e0000006044820152606401610257565b8061091d81612c80565b915050610508565b507f80000000000000000000000000000000000000000000000000000000000000008414866109548786611336565b909e909d50909b509950505050505050505050565b602081015180516060916100fc9161098390600190612c3a565b8151811061046957610469612c51565b60606000825160026109a59190612d27565b67ffffffffffffffff8111156109bd576109bd612946565b6040519080825280601f01601f1916602001820160405280156109e7576020820181803683370190505b50905060005b8351811015610b0f576004848281518110610a0a57610a0a612c51565b01602001517fff0000000000000000000000000000000000000000000000000000000000000016901c82610a3f836002612d27565b81518110610a4f57610a4f612c51565b60200101907effffffffffffffffffffffffffffffffffffffffffffffffffffffffffffff1916908160001a9053506010848281518110610a9257610a92612c51565b0160200151610aa4919060f81c612ce2565b60f81b82610ab3836002612d27565b610abe906001612c9b565b81518110610ace57610ace612c51565b60200101907effffffffffffffffffffffffffffffffffffffffffffffffffffffffffffff1916908160001a90535080610b0781612c80565b9150506109ed565b5092915050565b604080518082018252606080825260208201819052825160028082529181019093529091600091816020015b6060815260200190600190039081610b425790505090506000610b66856001611413565b9050610b79610b748261150b565b61165d565b82600081518110610b8c57610b8c612c51565b6020026020010181905250610ba08461165d565b82600181518110610bb357610bb3612c51565b6020026020010181905250610bc7826116cc565b95945050505050565b606082600087610be1600189612c3a565b81518110610bf157610bf1612c51565b602002602001015190506000610c0682611710565b6040805160038082526080820190925291925060009190816020015b6040805180820190915260608082526020820152815260200190600190039081610c225790505090506000806002846002811115610c6257610c62612d46565b1415610d60578b5160009015610d1b5760005b60018e51610c839190612c3a565b811015610d19576000610cae8f8381518110610ca157610ca1612c51565b6020026020010151611710565b6002811115610cbf57610cbf612d46565b1415610cd75781610ccf81612c80565b925050610d07565b610cf98e8281518110610cec57610cec612c51565b60200260200101516117fa565b51610d049083612c9b565b91505b80610d1181612c80565b915050610c75565b505b610d24866117fa565b51610d48610d31886117fa565b610d43610d3d8f610993565b85611336565b611367565b148015610d5457508651155b15610d5e57600191505b505b8015610da757610d78610d72866117fa565b89610b16565b838381518110610d8a57610d8a612c51565b6020908102919091010152610da0600183612c9b565b9150611017565b6000846002811115610dbb57610dbb612d46565b1415610e0a578551610dd157610d78858961180d565b84838381518110610de457610de4612c51565b6020908102919091010152610dfa600183612c9b565b9150610d78610d72876001611336565b6000610e15866117fa565b90506000610e238289611367565b90508015610e91576000610e3983600084611891565b9050610e4d81610e488d611a30565b611a5a565b868681518110610e5f57610e5f612c51565b6020908102919091010152610e75600186612c9b565b9450610e818383611336565b9250610e8d8983611336565b9850505b6000610e9b611aaa565b9050825160001415610ec057610eb981610eb48a610969565b61180d565b9050610f64565b600083600081518110610ed557610ed5612c51565b016020015160f81c9050610eea846001611336565b93506002886002811115610f0057610f00612d46565b1415610f3b576000610f1a85610f158c610969565b610b16565b9050610f338383610f2e8460000151611a30565b611b9c565b925050610f62565b835115610f51576000610f1a85610e488c610969565b610f5f8282610f2e8c610969565b91505b505b8851610fa657610f74818c61180d565b905080868681518110610f8957610f89612c51565b6020908102919091010152610f9f600186612c9b565b9450611013565b610fb1896001611336565b985080868681518110610fc657610fc6612c51565b6020908102919091010152610fdc600186612c9b565b9450610fe8898c610b16565b868681518110610ffa57610ffa612c51565b6020908102919091010152611010600186612c9b565b94505b5050505b61102d8c61102660018e612c3a565b8585611c26565b9c9b505050505050505050505050565b60008061104983610993565b9050611068604051806040016040528060608152602001606081525090565b84516000906060905b80156111de5787611083600183612c3a565b8151811061109357611093612c51565b602002602001015193506110a684611710565b925060028360028111156110bc576110bc612d46565b14156110f05760006110cd856117fa565b90506110e8866000835189516110e39190612c3a565b611891565b9550506111bf565b600183600281111561110457611104612d46565b1415611148576000611115856117fa565b905061112b866000835189516110e39190612c3a565b8351909650156111425761113f8584611d54565b94505b506111bf565b600083600281111561115c5761115c612d46565b14156111bf578151156111bf576000856001875161117a9190612c3a565b8151811061118a5761118a612c51565b602001015160f81c60f81b60f81c90506111ae866000600189516110e39190612c3a565b95506111bb858285611b9c565b9450505b83516111ca90611a30565b9150806111d681612d75565b915050611071565b50509051805160209091012095945050505050565b6040805180820182526000808252602091820152815180830190925282518252808301908201526060906100fc90611e18565b6060600080600061123685612017565b91945092509050600081600181111561125157611251612d46565b1461129e5760405162461bcd60e51b815260206004820152601860248201527f496e76616c696420524c502062797465732076616c75652e00000000000000006044820152606401610257565b610bc785602001518484612368565b60006020825110156112c157506020015190565b818060200190518101906100fc9190612d8c565b600060606020836000015110156112f6576112ef83612447565b9050611302565b6112ff83611226565b90505b61130b816112ad565b9392505050565b60606100fc611331836020015160008151811061046957610469612c51565b610993565b60608251821061135557506040805160208101909152600081526100fc565b6100f983838486516110e39190612c3a565b6000805b80845111801561137b5750808351115b80156113fc575082818151811061139457611394612c51565b602001015160f81c60f81b7effffffffffffffffffffffffffffffffffffffffffffffffffffffffffffff19168482815181106113d3576113d3612c51565b01602001517fff0000000000000000000000000000000000000000000000000000000000000016145b156100f9578061140b81612c80565b91505061136b565b6060600082611423576000611426565b60025b90506000600285516114389190612da5565b90506000611447826002612d04565b60ff1667ffffffffffffffff81111561146257611462612946565b6040519080825280601f01601f19166020018201604052801561148c576020820181803683370190505b5090506114998284612db9565b60f81b816000815181106114af576114af612c51565b60200101907effffffffffffffffffffffffffffffffffffffffffffffffffffffffffffff1916908160001a90535080866040516020016114f1929190612dde565b604051602081830303815290604052935050505092915050565b606060006002835161151d9190612e0d565b67ffffffffffffffff81111561153557611535612946565b6040519080825280601f01601f19166020018201604052801561155f576020820181803683370190505b50905060005b8151811015610b0f578361157a826002612d27565b611585906001612c9b565b8151811061159557611595612c51565b01602001517fff00000000000000000000000000000000000000000000000000000000000000166004856115ca846002612d27565b815181106115da576115da612c51565b602001015160f81c60f81b7effffffffffffffffffffffffffffffffffffffffffffffffffffffffffffff1916901b1782828151811061161c5761161c612c51565b60200101907effffffffffffffffffffffffffffffffffffffffffffffffffffffffffffff1916908160001a9053508061165581612c80565b915050611565565b6060808251600114801561168b575060808360008151811061168157611681612c51565b016020015160f81c105b156116975750816100fc565b6116a383516080612452565b836040516020016116b5929190612dde565b604051602081830303815290604052905092915050565b604080518082019091526060808252602082015260006116eb83612649565b90506040518060400160405280828152602001611707836111f3565b90529392505050565b600061171e60106001612c9b565b826020015151141561173257506000919050565b600282602001515114156117b257600061174b83611312565b905060008160008151811061176257611762612c51565b016020015160f81c9050600281148061177e575060ff81166003145b1561178d575060029392505050565b60ff811615806117a0575060ff81166001145b156117af575060019392505050565b50505b60405162461bcd60e51b815260206004820152601160248201527f496e76616c6964206e6f646520747970650000000000000000000000000000006044820152606401610257565b60606100fc61180883611312565b61268d565b6040805180820190915260608082526020820152600061182c8361165d565b6040805180820182526000808252602091820152815180830190925282518252808301908201529091506020850151805161186990600190612c3a565b8151811061187957611879612c51565b602002602001018190525061011384602001516126d3565b60608161189f81601f612c9b565b10156118ed5760405162461bcd60e51b815260206004820152600e60248201527f736c6963655f6f766572666c6f770000000000000000000000000000000000006044820152606401610257565b826118f88382612c9b565b10156119465760405162461bcd60e51b815260206004820152600e60248201527f736c6963655f6f766572666c6f770000000000000000000000000000000000006044820152606401610257565b6119508284612c9b565b845110156119a05760405162461bcd60e51b815260206004820152601160248201527f736c6963655f6f75744f66426f756e64730000000000000000000000000000006044820152606401610257565b6060821580156119bf5760405191506000825260208201604052611a27565b6040519150601f8416801560200281840101858101878315602002848b0101015b818310156119f85780518352602092830192016119e0565b5050858452601f017fffffffffffffffffffffffffffffffffffffffffffffffffffffffffffffffe016604052505b50949350505050565b6060602082511015611a40575090565b81805190602001206040516020016101c491815260200190565b604080518082018252606080825260208201819052825160028082529181019093529091600091816020015b6060815260200190600190039081611a865790505090506000610b66856000611413565b60408051808201909152606080825260208201526000611acc60106001612c9b565b67ffffffffffffffff811115611ae457611ae4612946565b604051908082528060200260200182016040528015611b1757816020015b6060815260200190600190039081611b025790505b50905060005b8151811015611b8c576040518060400160405280600181526020017f8000000000000000000000000000000000000000000000000000000000000000815250828281518110611b6e57611b6e612c51565b60200260200101819052508080611b8490612c80565b915050611b1d565b50611b96816116cc565b91505090565b604080518082019091526060808252602082015260006020835110611bc957611bc48361165d565b611bcb565b825b60408051808201825260008082526020918201528151808301909252825182528083019082015290915085602001518560ff1681518110611c0e57611c0e612c51565b6020026020010181905250610bc785602001516126d3565b60606000611c348386612c9b565b67ffffffffffffffff811115611c4c57611c4c612946565b604051908082528060200260200182016040528015611c9157816020015b6040805180820190915260608082526020820152815260200190600190039081611c6a5790505b50905060005b85811015611ce957868181518110611cb157611cb1612c51565b6020026020010151828281518110611ccb57611ccb612c51565b60200260200101819052508080611ce190612c80565b915050611c97565b5060005b83811015611d4a57848181518110611d0757611d07612c51565b6020026020010151828783611d1c9190612c9b565b81518110611d2c57611d2c612c51565b60200260200101819052508080611d4290612c80565b915050611ced565b5095945050505050565b604080518082018252606080825260208201819052825160028082529181019093529091600091816020015b6060815260200190600190039081611d805790505090506000611dac611da5866117fa565b6000611413565b9050611dba610b748261150b565b82600081518110611dcd57611dcd612c51565b6020026020010181905250602084511015611e06578382600181518110611df657611df6612c51565b6020026020010181905250611e0f565b610ba08461165d565b610bc7826116cc565b6060600080611e2684612017565b91935090915060019050816001811115611e4257611e42612d46565b14611e8f5760405162461bcd60e51b815260206004820152601760248201527f496e76616c696420524c50206c6973742076616c75652e0000000000000000006044820152606401610257565b6040805160208082526104208201909252600091816020015b6040805180820190915260008082526020820152815260200190600190039081611ea85790505090506000835b865181101561200c5760208210611f545760405162461bcd60e51b815260206004820152602a60248201527f50726f766964656420524c50206c6973742065786365656473206d6178206c6960448201527f7374206c656e6774682e000000000000000000000000000000000000000000006064820152608401610257565b600080611f916040518060400160405280858c60000151611f759190612c3a565b8152602001858c60200151611f8a9190612c9b565b9052612017565b509150915060405180604001604052808383611fad9190612c9b565b8152602001848b60200151611fc29190612c9b565b815250858581518110611fd757611fd7612c51565b6020908102919091010152611fed600185612c9b565b9350611ff98183612c9b565b6120039084612c9b565b92505050611ed5565b508152949350505050565b60008060008084600001511161206f5760405162461bcd60e51b815260206004820152601860248201527f524c50206974656d2063616e6e6f74206265206e756c6c2e00000000000000006044820152606401610257565b6020840151805160001a607f8111612094576000600160009450945094505050612361565b60b781116121105760006120a9608083612c3a565b9050808760000151116120fe5760405162461bcd60e51b815260206004820152601960248201527f496e76616c696420524c502073686f727420737472696e672e000000000000006044820152606401610257565b60019550935060009250612361915050565b60bf81116121ff57600061212560b783612c3a565b90508087600001511161217a5760405162461bcd60e51b815260206004820152601f60248201527f496e76616c696420524c50206c6f6e6720737472696e67206c656e6774682e006044820152606401610257565b600183015160208290036101000a90046121948183612c9b565b8851116121e35760405162461bcd60e51b815260206004820152601860248201527f496e76616c696420524c50206c6f6e6720737472696e672e00000000000000006044820152606401610257565b6121ee826001612c9b565b965094506000935061236192505050565b60f7811161227a57600061221460c083612c3a565b9050808760000151116122695760405162461bcd60e51b815260206004820152601760248201527f496e76616c696420524c502073686f7274206c6973742e0000000000000000006044820152606401610257565b600195509350849250612361915050565b600061228760f783612c3a565b9050808760000151116122dc5760405162461bcd60e51b815260206004820152601d60248201527f496e76616c696420524c50206c6f6e67206c697374206c656e6774682e0000006044820152606401610257565b600183015160208290036101000a90046122f68183612c9b565b8851116123455760405162461bcd60e51b815260206004820152601660248201527f496e76616c696420524c50206c6f6e67206c6973742e000000000000000000006044820152606401610257565b612350826001612c9b565b965094506001935061236192505050565b9193909250565b606060008267ffffffffffffffff81111561238557612385612946565b6040519080825280601f01601f1916602001820160405280156123af576020820181803683370190505b5090508051600014156123c357905061130b565b60006123cf8587612c9b565b90506020820160005b6123e3602087612e0d565b81101561241a57825182526123f9602084612c9b565b9250612406602083612c9b565b91508061241281612c80565b9150506123d8565b5060006001602087066020036101000a039050808251168119845116178252839450505050509392505050565b60606100fc826127a1565b60608060388410156124d157604080516001808252818301909252906020820181803683370190505090506124878385612db9565b60f81b8160008151811061249d5761249d612c51565b60200101907effffffffffffffffffffffffffffffffffffffffffffffffffffffffffffff1916908160001a9053506100f9565b600060015b6124e08187612e0d565b1561250657816124ef81612c80565b92506124ff905061010082612d27565b90506124d6565b612511826001612c9b565b67ffffffffffffffff81111561252957612529612946565b6040519080825280601f01601f191660200182016040528015612553576020820181803683370190505b5092506125608583612db9565b61256b906037612db9565b60f81b8360008151811061258157612581612c51565b60200101907effffffffffffffffffffffffffffffffffffffffffffffffffffffffffffff1916908160001a905350600190505b81811161263f576101006125c98284612c3a565b6125d590610100612f05565b6125df9088612e0d565b6125e99190612da5565b60f81b8382815181106125fe576125fe612c51565b60200101907effffffffffffffffffffffffffffffffffffffffffffffffffffffffffffff1916908160001a9053508061263781612c80565b9150506125b5565b5050905092915050565b60606000612656836127b7565b9050612664815160c0612452565b81604051602001612676929190612dde565b604051602081830303815290604052915050919050565b60606002826000815181106126a4576126a4612c51565b01602001516126b6919060f81c612ce2565b60ff166126c8576100fc826002611336565b6100fc826001611336565b60408051808201909152606080825260208201526000825167ffffffffffffffff81111561270357612703612946565b60405190808252806020026020018201604052801561273657816020015b60608152602001906001900390816127215790505b50905060005b83518110156127975761276784828151811061275a5761275a612c51565b6020026020010151612447565b82828151811061277957612779612c51565b6020026020010181905250808061278f90612c80565b91505061273c565b5061130b816116cc565b60606100fc826020015160008460000151612368565b60608151600014156127d9576040805160008082526020820190925290610b0f565b6000805b8351811015612820578381815181106127f8576127f8612c51565b6020026020010151518261280c9190612c9b565b91508061281881612c80565b9150506127dd565b60008267ffffffffffffffff81111561283b5761283b612946565b6040519080825280601f01601f191660200182016040528015612865576020820181803683370190505b50600092509050602081015b8551831015611a2757600086848151811061288e5761288e612c51565b6020026020010151905060006020820190506128ac838284516128e9565b8785815181106128be576128be612c51565b602002602001015151836128d29190612c9b565b9250505082806128e190612c80565b935050612871565b8282825b602081106129255781518352612904602084612c9b565b9250612911602083612c9b565b915061291e602082612c3a565b90506128ed565b905182516020929092036101000a6000190180199091169116179052505050565b7f4e487b7100000000000000000000000000000000000000000000000000000000600052604160045260246000fd5b600082601f83011261298657600080fd5b813567ffffffffffffffff808211156129a1576129a1612946565b604051601f83017fffffffffffffffffffffffffffffffffffffffffffffffffffffffffffffffe0908116603f011681019082821181831017156129e7576129e7612946565b81604052838152866020858801011115612a0057600080fd5b836020870160208301376000602085830101528094505050505092915050565b600080600060608486031215612a3557600080fd5b833567ffffffffffffffff80821115612a4d57600080fd5b612a5987838801612975565b94506020860135915080821115612a6f57600080fd5b50612a7c86828701612975565b925050604084013590509250925092565b60005b83811015612aa8578181015183820152602001612a90565b83811115612ab7576000848401525b50505050565b82151581526040602082015260008251806040840152612ae4816060850160208701612a8d565b601f017fffffffffffffffffffffffffffffffffffffffffffffffffffffffffffffffe016919091016060019392505050565b60008060408385031215612b2a57600080fd5b823567ffffffffffffffff80821115612b4257600080fd5b612b4e86838701612975565b93506020850135915080821115612b6457600080fd5b50612b7185828601612975565b9150509250929050565b60008060008060808587031215612b9157600080fd5b843567ffffffffffffffff80821115612ba957600080fd5b612bb588838901612975565b95506020870135915080821115612bcb57600080fd5b612bd788838901612975565b94506040870135915080821115612bed57600080fd5b50612bfa87828801612975565b949793965093946060013593505050565b7f4e487b7100000000000000000000000000000000000000000000000000000000600052601160045260246000fd5b600082821015612c4c57612c4c612c0b565b500390565b7f4e487b7100000000000000000000000000000000000000000000000000000000600052603260045260246000fd5b6000600019821415612c9457612c94612c0b565b5060010190565b60008219821115612cae57612cae612c0b565b500190565b7f4e487b7100000000000000000000000000000000000000000000000000000000600052601260045260246000fd5b600060ff831680612cf557612cf5612cb3565b8060ff84160691505092915050565b600060ff821660ff841680821015612d1e57612d1e612c0b565b90039392505050565b6000816000190483118215151615612d4157612d41612c0b565b500290565b7f4e487b7100000000000000000000000000000000000000000000000000000000600052602160045260246000fd5b600081612d8457612d84612c0b565b506000190190565b600060208284031215612d9e57600080fd5b5051919050565b600082612db457612db4612cb3565b500690565b600060ff821660ff84168060ff03821115612dd657612dd6612c0b565b019392505050565b60008351612df0818460208801612a8d565b835190830190612e04818360208801612a8d565b01949350505050565b600082612e1c57612e1c612cb3565b500490565b600181815b80851115612e5c578160001904821115612e4257612e42612c0b565b80851615612e4f57918102915b93841c9390800290612e26565b509250929050565b600082612e73575060016100fc565b81612e80575060006100fc565b8160018114612e965760028114612ea057612ebc565b60019150506100fc565b60ff841115612eb157612eb1612c0b565b50506001821b6100fc565b5060208310610133831016604e8410600b8410161715612edf575081810a6100fc565b612ee98383612e21565b8060001904821115612efd57612efd612c0b565b029392505050565b60006100f98383612e6456fea164736f6c6343000808000a",
  "linkReferences": {},
  "deployedLinkReferences": {}
}