{
  "_format": "hh-sol-artifact-1",
  "contractName": "BobaTuringCredit",
  "sourceName": "contracts/L2/predeploys/BobaTuringCredit.sol",
  "abi": [
    {
      "inputs": [
        {
          "internalType": "uint256",
          "name": "_turingPrice",
          "type": "uint256"
        }
      ],
      "stateMutability": "nonpayable",
      "type": "constructor"
    },
    {
      "anonymous": false,
      "inputs": [
        {
          "indexed": false,
          "internalType": "address",
          "name": "sender",
          "type": "address"
        },
        {
          "indexed": false,
          "internalType": "uint256",
          "name": "balanceAmount",
          "type": "uint256"
        },
        {
          "indexed": false,
          "internalType": "address",
          "name": "helperContractAddress",
          "type": "address"
        }
      ],
      "name": "AddBalanceTo",
      "type": "event"
    },
    {
      "anonymous": false,
      "inputs": [
        {
          "indexed": true,
          "internalType": "address",
          "name": "previousOwner",
          "type": "address"
        },
        {
          "indexed": true,
          "internalType": "address",
          "name": "newOwner",
          "type": "address"
        }
      ],
      "name": "OwnershipTransferred",
      "type": "event"
    },
    {
      "anonymous": false,
      "inputs": [
        {
          "indexed": false,
          "internalType": "address",
          "name": "sender",
          "type": "address"
        },
        {
          "indexed": false,
          "internalType": "uint256",
          "name": "withdrawAmount",
          "type": "uint256"
        }
      ],
      "name": "WithdrawRevenue",
      "type": "event"
    },
    {
      "inputs": [
        {
          "internalType": "uint256",
          "name": "_addBalanceAmount",
          "type": "uint256"
        },
        {
          "internalType": "address",
          "name": "_helperContractAddress",
          "type": "address"
        }
      ],
      "name": "addBalanceTo",
      "outputs": [],
      "stateMutability": "nonpayable",
      "type": "function"
    },
    {
      "inputs": [
        {
          "internalType": "address",
          "name": "_helperContractAddress",
          "type": "address"
        }
      ],
      "name": "getCreditAmount",
      "outputs": [
        {
          "internalType": "uint256",
          "name": "",
          "type": "uint256"
        }
      ],
      "stateMutability": "view",
      "type": "function"
    },
    {
      "inputs": [],
      "name": "owner",
      "outputs": [
        {
          "internalType": "address",
          "name": "",
          "type": "address"
        }
      ],
      "stateMutability": "view",
      "type": "function"
    },
    {
      "inputs": [],
      "name": "ownerRevenue",
      "outputs": [
        {
          "internalType": "uint256",
          "name": "",
          "type": "uint256"
        }
      ],
      "stateMutability": "view",
      "type": "function"
    },
    {
      "inputs": [
        {
          "internalType": "address",
          "name": "",
          "type": "address"
        }
      ],
      "name": "prepaidBalance",
      "outputs": [
        {
          "internalType": "uint256",
          "name": "",
          "type": "uint256"
        }
      ],
      "stateMutability": "view",
      "type": "function"
    },
    {
      "inputs": [],
      "name": "renounceOwnership",
      "outputs": [],
      "stateMutability": "nonpayable",
      "type": "function"
    },
    {
      "inputs": [
        {
          "internalType": "address",
          "name": "newOwner",
          "type": "address"
        }
      ],
      "name": "transferOwnership",
      "outputs": [],
      "stateMutability": "nonpayable",
      "type": "function"
    },
    {
      "inputs": [],
      "name": "turingPrice",
      "outputs": [
        {
          "internalType": "uint256",
          "name": "",
          "type": "uint256"
        }
      ],
      "stateMutability": "view",
      "type": "function"
    },
    {
      "inputs": [],
      "name": "turingToken",
      "outputs": [
        {
          "internalType": "address",
          "name": "",
          "type": "address"
        }
      ],
      "stateMutability": "view",
      "type": "function"
    },
    {
      "inputs": [
        {
          "internalType": "uint256",
          "name": "_turingPrice",
          "type": "uint256"
        }
      ],
      "name": "updateTuringPrice",
      "outputs": [],
      "stateMutability": "nonpayable",
      "type": "function"
    },
    {
      "inputs": [
        {
          "internalType": "address",
          "name": "_turingToken",
          "type": "address"
        }
      ],
      "name": "updateTuringToken",
      "outputs": [],
      "stateMutability": "nonpayable",
      "type": "function"
    },
    {
      "inputs": [
        {
          "internalType": "uint256",
          "name": "_withdrawAmount",
          "type": "uint256"
        }
      ],
      "name": "withdrawRevenue",
      "outputs": [],
      "stateMutability": "nonpayable",
      "type": "function"
    }
  ],
  "bytecode": "0x608060405234801561001057600080fd5b5060405161125838038061125883398101604081905261002f91610090565b61003833610040565b6003556100a9565b600080546001600160a01b038381166001600160a01b0319831681178455604051919092169283917f8be0079c531659141344cd1fd0a4f28419497f9722a3daafe3b4186f6b6457e09190a35050565b6000602082840312156100a257600080fd5b5051919050565b6111a0806100b86000396000f3fe608060405234801561001057600080fd5b50600436106100d35760003560e01c80638da5cb5b11610081578063f2fde38b1161005b578063f2fde38b146101c3578063f7cd3be8146101d6578063fd892278146101e957600080fd5b80638da5cb5b14610189578063a52b962d146101a7578063e24dfcde146101ba57600080fd5b806335d6eac4116100b257806335d6eac414610129578063715018a61461013c578063853383921461014457600080fd5b8062292526146100d857806309da3981146100f45780630ceff20414610114575b600080fd5b6100e160045481565b6040519081526020015b60405180910390f35b6100e1610102366004610fdf565b60016020526000908152604090205481565b610127610122366004610ffa565b6101fc565b005b610127610137366004610fdf565b6103da565b6101276104ee565b6002546101649073ffffffffffffffffffffffffffffffffffffffff1681565b60405173ffffffffffffffffffffffffffffffffffffffff90911681526020016100eb565b60005473ffffffffffffffffffffffffffffffffffffffff16610164565b6100e16101b5366004610fdf565b610561565b6100e160035481565b6101276101d1366004610fdf565b6105ee565b6101276101e4366004610ffa565b6106e7565b6101276101f7366004611013565b610753565b60005473ffffffffffffffffffffffffffffffffffffffff1633146102685760405162461bcd60e51b815260206004820181905260248201527f4f776e61626c653a2063616c6c6572206973206e6f7420746865206f776e657260448201526064015b60405180910390fd5b60025473ffffffffffffffffffffffffffffffffffffffff166102f35760405162461bcd60e51b815260206004820152602560248201527f436f6e747261637420686173206e6f7420796574206265656e20696e6974696160448201527f6c697a6564000000000000000000000000000000000000000000000000000000606482015260840161025f565b6004548111156103455760405162461bcd60e51b815260206004820152600e60248201527f496e76616c696420416d6f756e74000000000000000000000000000000000000604482015260640161025f565b8060046000828254610357919061106e565b909155505060408051338152602081018390527f447d53be88e315476bdbe2e63cef309461f6305d09aada67641c29e6b897e301910160405180910390a16103d76103b760005473ffffffffffffffffffffffffffffffffffffffff1690565b60025473ffffffffffffffffffffffffffffffffffffffff1690836109a7565b50565b60005473ffffffffffffffffffffffffffffffffffffffff1633146104415760405162461bcd60e51b815260206004820181905260248201527f4f776e61626c653a2063616c6c6572206973206e6f7420746865206f776e6572604482015260640161025f565b60025473ffffffffffffffffffffffffffffffffffffffff16156104a75760405162461bcd60e51b815260206004820152601d60248201527f436f6e747261637420686173206265656e20696e697469616c697a6564000000604482015260640161025f565b600280547fffffffffffffffffffffffff00000000000000000000000000000000000000001673ffffffffffffffffffffffffffffffffffffffff92909216919091179055565b60005473ffffffffffffffffffffffffffffffffffffffff1633146105555760405162461bcd60e51b815260206004820181905260248201527f4f776e61626c653a2063616c6c6572206973206e6f7420746865206f776e6572604482015260640161025f565b61055f6000610a80565b565b6000600354600014156105b65760405162461bcd60e51b815260206004820152601060248201527f556e6c696d697465642063726564697400000000000000000000000000000000604482015260640161025f565b60035473ffffffffffffffffffffffffffffffffffffffff83166000908152600160205260409020546105e891610af5565b92915050565b60005473ffffffffffffffffffffffffffffffffffffffff1633146106555760405162461bcd60e51b815260206004820181905260248201527f4f776e61626c653a2063616c6c6572206973206e6f7420746865206f776e6572604482015260640161025f565b73ffffffffffffffffffffffffffffffffffffffff81166106de5760405162461bcd60e51b815260206004820152602660248201527f4f776e61626c653a206e6577206f776e657220697320746865207a65726f206160448201527f6464726573730000000000000000000000000000000000000000000000000000606482015260840161025f565b6103d781610a80565b60005473ffffffffffffffffffffffffffffffffffffffff16331461074e5760405162461bcd60e51b815260206004820181905260248201527f4f776e61626c653a2063616c6c6572206973206e6f7420746865206f776e6572604482015260640161025f565b600355565b60025473ffffffffffffffffffffffffffffffffffffffff166107de5760405162461bcd60e51b815260206004820152602560248201527f436f6e747261637420686173206e6f7420796574206265656e20696e6974696160448201527f6c697a6564000000000000000000000000000000000000000000000000000000606482015260840161025f565b8161082b5760405162461bcd60e51b815260206004820152600e60248201527f496e76616c696420616d6f756e74000000000000000000000000000000000000604482015260640161025f565b803b6108795760405162461bcd60e51b815260206004820152600e60248201527f4164647265737320697320454f41000000000000000000000000000000000000604482015260640161025f565b6108a3817f2f7adf4300000000000000000000000000000000000000000000000000000000610b08565b6108ef5760405162461bcd60e51b815260206004820152601760248201527f496e76616c69642048656c70657220436f6e7472616374000000000000000000604482015260640161025f565b73ffffffffffffffffffffffffffffffffffffffff811660009081526001602052604081208054849290610924908490611085565b9091555050604080513381526020810184905273ffffffffffffffffffffffffffffffffffffffff83168183015290517f63611f4b2e0fff4acd8e17bd95ebb62a3bc834c76cf85e7a972a502990b6257a9181900360600190a16002546109a39073ffffffffffffffffffffffffffffffffffffffff16333085610b24565b5050565b60405173ffffffffffffffffffffffffffffffffffffffff8316602482015260448101829052610a7b9084907fa9059cbb00000000000000000000000000000000000000000000000000000000906064015b604080517fffffffffffffffffffffffffffffffffffffffffffffffffffffffffffffffe08184030181529190526020810180517bffffffffffffffffffffffffffffffffffffffffffffffffffffffff167fffffffff0000000000000000000000000000000000000000000000000000000090931692909217909152610b88565b505050565b6000805473ffffffffffffffffffffffffffffffffffffffff8381167fffffffffffffffffffffffff0000000000000000000000000000000000000000831681178455604051919092169283917f8be0079c531659141344cd1fd0a4f28419497f9722a3daafe3b4186f6b6457e09190a35050565b6000610b01828461109d565b9392505050565b6000610b1383610c7a565b8015610b015750610b018383610cde565b60405173ffffffffffffffffffffffffffffffffffffffff80851660248301528316604482015260648101829052610b829085907f23b872dd00000000000000000000000000000000000000000000000000000000906084016109f9565b50505050565b6000610bea826040518060400160405280602081526020017f5361666545524332303a206c6f772d6c6576656c2063616c6c206661696c65648152508573ffffffffffffffffffffffffffffffffffffffff16610e1a9092919063ffffffff16565b805190915015610a7b5780806020019051810190610c0891906110d8565b610a7b5760405162461bcd60e51b815260206004820152602a60248201527f5361666545524332303a204552433230206f7065726174696f6e20646964206e60448201527f6f74207375636365656400000000000000000000000000000000000000000000606482015260840161025f565b6000610ca6827f01ffc9a700000000000000000000000000000000000000000000000000000000610cde565b80156105e85750610cd7827fffffffff00000000000000000000000000000000000000000000000000000000610cde565b1592915050565b604080517fffffffff00000000000000000000000000000000000000000000000000000000831660248083019190915282518083039091018152604490910182526020810180517bffffffffffffffffffffffffffffffffffffffffffffffffffffffff167f01ffc9a7000000000000000000000000000000000000000000000000000000001790529051600091908290819073ffffffffffffffffffffffffffffffffffffffff87169061753090610d98908690611126565b6000604051808303818686fa925050503d8060008114610dd4576040519150601f19603f3d011682016040523d82523d6000602084013e610dd9565b606091505b5091509150602081511015610df457600093505050506105e8565b818015610e10575080806020019051810190610e1091906110d8565b9695505050505050565b6060610e298484600085610e31565b949350505050565b606082471015610ea95760405162461bcd60e51b815260206004820152602660248201527f416464726573733a20696e73756666696369656e742062616c616e636520666f60448201527f722063616c6c0000000000000000000000000000000000000000000000000000606482015260840161025f565b843b610ef75760405162461bcd60e51b815260206004820152601d60248201527f416464726573733a2063616c6c20746f206e6f6e2d636f6e7472616374000000604482015260640161025f565b6000808673ffffffffffffffffffffffffffffffffffffffff168587604051610f209190611126565b60006040518083038185875af1925050503d8060008114610f5d576040519150601f19603f3d011682016040523d82523d6000602084013e610f62565b606091505b5091509150610f72828286610f7d565b979650505050505050565b60608315610f8c575081610b01565b825115610f9c5782518084602001fd5b8160405162461bcd60e51b815260040161025f9190611142565b803573ffffffffffffffffffffffffffffffffffffffff81168114610fda57600080fd5b919050565b600060208284031215610ff157600080fd5b610b0182610fb6565b60006020828403121561100c57600080fd5b5035919050565b6000806040838503121561102657600080fd5b8235915061103660208401610fb6565b90509250929050565b7f4e487b7100000000000000000000000000000000000000000000000000000000600052601160045260246000fd5b6000828210156110805761108061103f565b500390565b600082198211156110985761109861103f565b500190565b6000826110d3577f4e487b7100000000000000000000000000000000000000000000000000000000600052601260045260246000fd5b500490565b6000602082840312156110ea57600080fd5b81518015158114610b0157600080fd5b60005b838110156111155781810151838201526020016110fd565b83811115610b825750506000910152565b600082516111388184602087016110fa565b9190910192915050565b60208152600082518060208401526111618160408501602087016110fa565b601f017fffffffffffffffffffffffffffffffffffffffffffffffffffffffffffffffe016919091016040019291505056fea164736f6c6343000809000a",
  "linkReferences": {},
  "deployedLinkReferences": {}
}