{
  "_format": "hh-sol-artifact-1",
  "contractName": "BOBA",
  "sourceName": "contracts/DAO/governance-token/BOBA.sol",
  "abi": [
    {
      "inputs": [],
      "stateMutability": "nonpayable",
      "type": "constructor"
    },
    {
      "anonymous": false,
      "inputs": [
        {
          "indexed": true,
          "internalType": "address",
          "name": "owner",
          "type": "address"
        },
        {
          "indexed": true,
          "internalType": "address",
          "name": "spender",
          "type": "address"
        },
        {
          "indexed": false,
          "internalType": "uint256",
          "name": "value",
          "type": "uint256"
        }
      ],
      "name": "Approval",
      "type": "event"
    },
    {
      "anonymous": false,
      "inputs": [
        {
          "indexed": true,
          "internalType": "address",
          "name": "delegator",
          "type": "address"
        },
        {
          "indexed": true,
          "internalType": "address",
          "name": "fromDelegate",
          "type": "address"
        },
        {
          "indexed": true,
          "internalType": "address",
          "name": "toDelegate",
          "type": "address"
        }
      ],
      "name": "DelegateChanged",
      "type": "event"
    },
    {
      "anonymous": false,
      "inputs": [
        {
          "indexed": true,
          "internalType": "address",
          "name": "delegate",
          "type": "address"
        },
        {
          "indexed": false,
          "internalType": "uint256",
          "name": "previousBalance",
          "type": "uint256"
        },
        {
          "indexed": false,
          "internalType": "uint256",
          "name": "newBalance",
          "type": "uint256"
        }
      ],
      "name": "DelegateVotesChanged",
      "type": "event"
    },
    {
      "anonymous": false,
      "inputs": [
        {
          "indexed": true,
          "internalType": "address",
          "name": "from",
          "type": "address"
        },
        {
          "indexed": true,
          "internalType": "address",
          "name": "to",
          "type": "address"
        },
        {
          "indexed": false,
          "internalType": "uint256",
          "name": "value",
          "type": "uint256"
        }
      ],
      "name": "Transfer",
      "type": "event"
    },
    {
      "inputs": [],
      "name": "DOMAIN_SEPARATOR",
      "outputs": [
        {
          "internalType": "bytes32",
          "name": "",
          "type": "bytes32"
        }
      ],
      "stateMutability": "view",
      "type": "function"
    },
    {
      "inputs": [
        {
          "internalType": "address",
          "name": "owner",
          "type": "address"
        },
        {
          "internalType": "address",
          "name": "spender",
          "type": "address"
        }
      ],
      "name": "allowance",
      "outputs": [
        {
          "internalType": "uint256",
          "name": "",
          "type": "uint256"
        }
      ],
      "stateMutability": "view",
      "type": "function"
    },
    {
      "inputs": [
        {
          "internalType": "address",
          "name": "spender",
          "type": "address"
        },
        {
          "internalType": "uint256",
          "name": "amount",
          "type": "uint256"
        }
      ],
      "name": "approve",
      "outputs": [
        {
          "internalType": "bool",
          "name": "",
          "type": "bool"
        }
      ],
      "stateMutability": "nonpayable",
      "type": "function"
    },
    {
      "inputs": [
        {
          "internalType": "address",
          "name": "account",
          "type": "address"
        }
      ],
      "name": "balanceOf",
      "outputs": [
        {
          "internalType": "uint256",
          "name": "",
          "type": "uint256"
        }
      ],
      "stateMutability": "view",
      "type": "function"
    },
    {
      "inputs": [
        {
          "internalType": "uint256",
          "name": "amount",
          "type": "uint256"
        }
      ],
      "name": "burn",
      "outputs": [],
      "stateMutability": "nonpayable",
      "type": "function"
    },
    {
      "inputs": [
        {
          "internalType": "address",
          "name": "account",
          "type": "address"
        },
        {
          "internalType": "uint256",
          "name": "amount",
          "type": "uint256"
        }
      ],
      "name": "burnFrom",
      "outputs": [],
      "stateMutability": "nonpayable",
      "type": "function"
    },
    {
      "inputs": [
        {
          "internalType": "address",
          "name": "account",
          "type": "address"
        },
        {
          "internalType": "uint32",
          "name": "pos",
          "type": "uint32"
        }
      ],
      "name": "checkpoints",
      "outputs": [
        {
          "components": [
            {
              "internalType": "uint32",
              "name": "fromBlock",
              "type": "uint32"
            },
            {
              "internalType": "uint224",
              "name": "votes",
              "type": "uint224"
            }
          ],
          "internalType": "struct ERC20Votes.Checkpoint",
          "name": "",
          "type": "tuple"
        }
      ],
      "stateMutability": "view",
      "type": "function"
    },
    {
      "inputs": [],
      "name": "decimals",
      "outputs": [
        {
          "internalType": "uint8",
          "name": "",
          "type": "uint8"
        }
      ],
      "stateMutability": "view",
      "type": "function"
    },
    {
      "inputs": [
        {
          "internalType": "address",
          "name": "spender",
          "type": "address"
        },
        {
          "internalType": "uint256",
          "name": "subtractedValue",
          "type": "uint256"
        }
      ],
      "name": "decreaseAllowance",
      "outputs": [
        {
          "internalType": "bool",
          "name": "",
          "type": "bool"
        }
      ],
      "stateMutability": "nonpayable",
      "type": "function"
    },
    {
      "inputs": [
        {
          "internalType": "address",
          "name": "delegatee",
          "type": "address"
        }
      ],
      "name": "delegate",
      "outputs": [],
      "stateMutability": "nonpayable",
      "type": "function"
    },
    {
      "inputs": [
        {
          "internalType": "address",
          "name": "delegatee",
          "type": "address"
        },
        {
          "internalType": "uint256",
          "name": "nonce",
          "type": "uint256"
        },
        {
          "internalType": "uint256",
          "name": "expiry",
          "type": "uint256"
        },
        {
          "internalType": "uint8",
          "name": "v",
          "type": "uint8"
        },
        {
          "internalType": "bytes32",
          "name": "r",
          "type": "bytes32"
        },
        {
          "internalType": "bytes32",
          "name": "s",
          "type": "bytes32"
        }
      ],
      "name": "delegateBySig",
      "outputs": [],
      "stateMutability": "nonpayable",
      "type": "function"
    },
    {
      "inputs": [
        {
          "internalType": "address",
          "name": "account",
          "type": "address"
        }
      ],
      "name": "delegates",
      "outputs": [
        {
          "internalType": "address",
          "name": "",
          "type": "address"
        }
      ],
      "stateMutability": "view",
      "type": "function"
    },
    {
      "inputs": [
        {
          "internalType": "address",
          "name": "account",
          "type": "address"
        }
      ],
      "name": "getCurrentVotes",
      "outputs": [
        {
          "internalType": "uint96",
          "name": "",
          "type": "uint96"
        }
      ],
      "stateMutability": "view",
      "type": "function"
    },
    {
      "inputs": [
        {
          "internalType": "uint256",
          "name": "blockNumber",
          "type": "uint256"
        }
      ],
      "name": "getPastTotalSupply",
      "outputs": [
        {
          "internalType": "uint256",
          "name": "",
          "type": "uint256"
        }
      ],
      "stateMutability": "view",
      "type": "function"
    },
    {
      "inputs": [
        {
          "internalType": "address",
          "name": "account",
          "type": "address"
        },
        {
          "internalType": "uint256",
          "name": "blockNumber",
          "type": "uint256"
        }
      ],
      "name": "getPastVotes",
      "outputs": [
        {
          "internalType": "uint256",
          "name": "",
          "type": "uint256"
        }
      ],
      "stateMutability": "view",
      "type": "function"
    },
    {
      "inputs": [
        {
          "internalType": "address",
          "name": "account",
          "type": "address"
        },
        {
          "internalType": "uint256",
          "name": "blockNumber",
          "type": "uint256"
        }
      ],
      "name": "getPriorVotes",
      "outputs": [
        {
          "internalType": "uint96",
          "name": "",
          "type": "uint96"
        }
      ],
      "stateMutability": "view",
      "type": "function"
    },
    {
      "inputs": [
        {
          "internalType": "address",
          "name": "account",
          "type": "address"
        }
      ],
      "name": "getVotes",
      "outputs": [
        {
          "internalType": "uint256",
          "name": "",
          "type": "uint256"
        }
      ],
      "stateMutability": "view",
      "type": "function"
    },
    {
      "inputs": [
        {
          "internalType": "address",
          "name": "spender",
          "type": "address"
        },
        {
          "internalType": "uint256",
          "name": "addedValue",
          "type": "uint256"
        }
      ],
      "name": "increaseAllowance",
      "outputs": [
        {
          "internalType": "bool",
          "name": "",
          "type": "bool"
        }
      ],
      "stateMutability": "nonpayable",
      "type": "function"
    },
    {
      "inputs": [],
      "name": "maxSupply",
      "outputs": [
        {
          "internalType": "uint224",
          "name": "",
          "type": "uint224"
        }
      ],
      "stateMutability": "view",
      "type": "function"
    },
    {
      "inputs": [],
      "name": "name",
      "outputs": [
        {
          "internalType": "string",
          "name": "",
          "type": "string"
        }
      ],
      "stateMutability": "view",
      "type": "function"
    },
    {
      "inputs": [
        {
          "internalType": "address",
          "name": "owner",
          "type": "address"
        }
      ],
      "name": "nonces",
      "outputs": [
        {
          "internalType": "uint256",
          "name": "",
          "type": "uint256"
        }
      ],
      "stateMutability": "view",
      "type": "function"
    },
    {
      "inputs": [
        {
          "internalType": "address",
          "name": "account",
          "type": "address"
        }
      ],
      "name": "numCheckpoints",
      "outputs": [
        {
          "internalType": "uint32",
          "name": "",
          "type": "uint32"
        }
      ],
      "stateMutability": "view",
      "type": "function"
    },
    {
      "inputs": [
        {
          "internalType": "address",
          "name": "owner",
          "type": "address"
        },
        {
          "internalType": "address",
          "name": "spender",
          "type": "address"
        },
        {
          "internalType": "uint256",
          "name": "value",
          "type": "uint256"
        },
        {
          "internalType": "uint256",
          "name": "deadline",
          "type": "uint256"
        },
        {
          "internalType": "uint8",
          "name": "v",
          "type": "uint8"
        },
        {
          "internalType": "bytes32",
          "name": "r",
          "type": "bytes32"
        },
        {
          "internalType": "bytes32",
          "name": "s",
          "type": "bytes32"
        }
      ],
      "name": "permit",
      "outputs": [],
      "stateMutability": "nonpayable",
      "type": "function"
    },
    {
      "inputs": [],
      "name": "symbol",
      "outputs": [
        {
          "internalType": "string",
          "name": "",
          "type": "string"
        }
      ],
      "stateMutability": "view",
      "type": "function"
    },
    {
      "inputs": [],
      "name": "totalSupply",
      "outputs": [
        {
          "internalType": "uint256",
          "name": "",
          "type": "uint256"
        }
      ],
      "stateMutability": "view",
      "type": "function"
    },
    {
      "inputs": [
        {
          "internalType": "address",
          "name": "recipient",
          "type": "address"
        },
        {
          "internalType": "uint256",
          "name": "amount",
          "type": "uint256"
        }
      ],
      "name": "transfer",
      "outputs": [
        {
          "internalType": "bool",
          "name": "",
          "type": "bool"
        }
      ],
      "stateMutability": "nonpayable",
      "type": "function"
    },
    {
      "inputs": [
        {
          "internalType": "address",
          "name": "sender",
          "type": "address"
        },
        {
          "internalType": "address",
          "name": "recipient",
          "type": "address"
        },
        {
          "internalType": "uint256",
          "name": "amount",
          "type": "uint256"
        }
      ],
      "name": "transferFrom",
      "outputs": [
        {
          "internalType": "bool",
          "name": "",
          "type": "bool"
        }
      ],
      "stateMutability": "nonpayable",
      "type": "function"
    }
  ],
  "bytecode": "0x6101406040527f6e71edae12b1b97f4d1f60370fef10105fa2faae0126114a169c64845d6126c9610120523480156200003757600080fd5b506040518060400160405280600a8152602001692137b130902a37b5b2b760b11b81525080604051806040016040528060018152602001603160f81b8152506040518060400160405280600a8152602001692137b130902a37b5b2b760b11b81525060405180604001604052806004815260200163424f424160e01b8152508160039080519060200190620000ce9291906200078b565b508051620000e49060049060208401906200078b565b5050825160209384012082519284019290922060c083815260e08290524660a0818152604080517f8b73c3c69bb8fe3d512ecc4cf759cc79239f7b179b0ffacaa9a75d522b39400f818a0181905281830198909852606081019590955260808086019390935230858301528051808603909201825293909201909252805194019390932090925261010052506200018a9050336b019d971e4fe8401e7400000062000190565b620008c5565b620001a78282620001ab60201b62000e051760201c565b5050565b620001c282826200026560201b62000ea71760201c565b6b019d971e4fe8401e74000000620001d960025490565b1115620002465760405162461bcd60e51b815260206004820152603060248201527f4552433230566f7465733a20746f74616c20737570706c79207269736b73206f60448201526f766572666c6f77696e6720766f74657360801b60648201526084015b60405180910390fd5b6200025f600862000fb96200035460201b178362000369565b50505050565b6001600160a01b038216620002bd5760405162461bcd60e51b815260206004820152601f60248201527f45524332303a206d696e7420746f20746865207a65726f20616464726573730060448201526064016200023d565b8060026000828254620002d191906200083d565b90915550506001600160a01b03821660009081526020819052604081208054839290620003009084906200083d565b90915550506040518181526001600160a01b038316906000907fddf252ad1be2c89b69c2b068fc378daa952ba7f163c4a11628f55a4df523b3ef9060200160405180910390a3620001a76000838362000520565b60006200036282846200083d565b9392505050565b825460009081908015620003bb57856200038560018362000858565b8154811062000398576200039862000872565b60009182526020909120015464010000000090046001600160e01b0316620003be565b60005b6001600160e01b03169250620003d583858760201c565b91506000811180156200041957504386620003f260018462000858565b8154811062000405576200040562000872565b60009182526020909120015463ffffffff16145b156200048d5762000435826200053860201b62000fc51760201c565b866200044360018462000858565b8154811062000456576200045662000872565b9060005260206000200160000160046101000a8154816001600160e01b0302191690836001600160e01b0316021790555062000512565b856040518060400160405280620004af43620005a760201b6200105d1760201c565b63ffffffff168152602001620004d0856200053860201b62000fc51760201c565b6001600160e01b0390811690915282546001810184556000938452602093849020835194909301519091166401000000000263ffffffff909316929092179101555b50935093915050565b505050565b6200051b8383836200060e60201b620010d91760201c565b60006001600160e01b03821115620005a35760405162461bcd60e51b815260206004820152602760248201527f53616665436173743a2076616c756520646f65736e27742066697420696e20326044820152663234206269747360c81b60648201526084016200023d565b5090565b600063ffffffff821115620005a35760405162461bcd60e51b815260206004820152602660248201527f53616665436173743a2076616c756520646f65736e27742066697420696e203360448201526532206269747360d01b60648201526084016200023d565b620006268383836200051b60201b620008521760201c565b6001600160a01b038381166000908152600660205260408082205485841683529120546200051b92918216911683818314801590620006655750600081115b156200051b576001600160a01b03831615620006f2576001600160a01b038316600090815260076020908152604082208291620006af91906200077d901b62001118178562000369565b91509150846001600160a01b031660008051602062002e4b8339815191528383604051620006e7929190918252602082015260400190565b60405180910390a250505b6001600160a01b038216156200051b576001600160a01b03821660009081526007602090815260408220829162000736919062000354901b62000fb9178562000369565b91509150836001600160a01b031660008051602062002e4b83398151915283836040516200076e929190918252602082015260400190565b60405180910390a25050505050565b600062000362828462000858565b828054620007999062000888565b90600052602060002090601f016020900481019282620007bd576000855562000808565b82601f10620007d857805160ff191683800117855562000808565b8280016001018555821562000808579182015b8281111562000808578251825591602001919060010190620007eb565b50620005a39291505b80821115620005a3576000815560010162000811565b634e487b7160e01b600052601160045260246000fd5b6000821982111562000853576200085362000827565b500190565b6000828210156200086d576200086d62000827565b500390565b634e487b7160e01b600052603260045260246000fd5b600181811c908216806200089d57607f821691505b60208210811415620008bf57634e487b7160e01b600052602260045260246000fd5b50919050565b60805160a05160c05160e0516101005161012051612536620009156000396000610c2801526000611564015260006115b30152600061158e015260006115120152600061153b01526125366000f3fe608060405234801561001057600080fd5b50600436106101b95760003560e01c8063782d6fe1116100f9578063a9059cbb11610097578063d505accf11610071578063d505accf14610415578063d5abeb0114610428578063dd62ed3e14610468578063f1127ed8146104ae57600080fd5b8063a9059cbb146103dc578063b4b5ea57146103ef578063c3cda5201461040257600080fd5b80638e539e8c116100d35780638e539e8c1461039b57806395d89b41146103ae5780639ab24eb0146103b6578063a457c2d7146103c957600080fd5b8063782d6fe11461034557806379cc6790146103755780637ecebe001461038857600080fd5b80633950935111610166578063587cde1e11610140578063587cde1e146102765780635c19a95c146102d45780636fcfff45146102e757806370a082311461030f57600080fd5b8063395093511461023b5780633a46b1a81461024e57806342966c681461026157600080fd5b806323b872dd1161019757806323b872dd14610211578063313ce567146102245780633644e5151461023357600080fd5b806306fdde03146101be578063095ea7b3146101dc57806318160ddd146101ff575b600080fd5b6101c6610500565b6040516101d39190612168565b60405180910390f35b6101ef6101ea366004612204565b610592565b60405190151581526020016101d3565b6002545b6040519081526020016101d3565b6101ef61021f36600461222e565b6105a8565b604051601281526020016101d3565b610203610679565b6101ef610249366004612204565b610688565b61020361025c366004612204565b6106d1565b61027461026f36600461226a565b610758565b005b6102af610284366004612283565b73ffffffffffffffffffffffffffffffffffffffff9081166000908152600660205260409020541690565b60405173ffffffffffffffffffffffffffffffffffffffff90911681526020016101d3565b6102746102e2366004612283565b610765565b6102fa6102f5366004612283565b61076f565b60405163ffffffff90911681526020016101d3565b61020361031d366004612283565b73ffffffffffffffffffffffffffffffffffffffff1660009081526020819052604090205490565b610358610353366004612204565b6107a4565b6040516bffffffffffffffffffffffff90911681526020016101d3565b610274610383366004612204565b6107b8565b610203610396366004612283565b610857565b6102036103a936600461226a565b610882565b6101c66108de565b6102036103c4366004612283565b6108ed565b6101ef6103d7366004612204565b6109b8565b6101ef6103ea366004612204565b610a76565b6103586103fd366004612283565b610a83565b6102746104103660046122af565b610a91565b610274610423366004612307565b610bd4565b61043b6b019d971e4fe8401e7400000081565b6040517bffffffffffffffffffffffffffffffffffffffffffffffffffffffff90911681526020016101d3565b610203610476366004612371565b73ffffffffffffffffffffffffffffffffffffffff918216600090815260016020908152604080832093909416825291909152205490565b6104c16104bc3660046123a4565b610d5f565b60408051825163ffffffff1681526020928301517bffffffffffffffffffffffffffffffffffffffffffffffffffffffff1692810192909252016101d3565b60606003805461050f906123e4565b80601f016020809104026020016040519081016040528092919081815260200182805461053b906123e4565b80156105885780601f1061055d57610100808354040283529160200191610588565b820191906000526020600020905b81548152906001019060200180831161056b57829003601f168201915b5050505050905090565b600061059f338484611124565b50600192915050565b60006105b58484846112a3565b73ffffffffffffffffffffffffffffffffffffffff84166000908152600160209081526040808320338452909152902054828110156106615760405162461bcd60e51b815260206004820152602860248201527f45524332303a207472616e7366657220616d6f756e742065786365656473206160448201527f6c6c6f77616e636500000000000000000000000000000000000000000000000060648201526084015b60405180910390fd5b61066e8533858403611124565b506001949350505050565b600061068361150e565b905090565b33600081815260016020908152604080832073ffffffffffffffffffffffffffffffffffffffff87168452909152812054909161059f9185906106cc908690612461565b611124565b60004382106107225760405162461bcd60e51b815260206004820152601f60248201527f4552433230566f7465733a20626c6f636b206e6f7420796574206d696e6564006044820152606401610658565b73ffffffffffffffffffffffffffffffffffffffff831660009081526007602052604090206107519083611601565b9392505050565b61076233826116e8565b50565b61076233826116f2565b73ffffffffffffffffffffffffffffffffffffffff811660009081526007602052604081205461079e9061105d565b92915050565b60006107516107b384846106d1565b611790565b60006107c48333610476565b90508181101561083b5760405162461bcd60e51b8152602060048201526024808201527f45524332303a206275726e20616d6f756e74206578636565647320616c6c6f7760448201527f616e6365000000000000000000000000000000000000000000000000000000006064820152608401610658565b6108488333848403611124565b61085283836116e8565b505050565b73ffffffffffffffffffffffffffffffffffffffff811660009081526005602052604081205461079e565b60004382106108d35760405162461bcd60e51b815260206004820152601f60248201527f4552433230566f7465733a20626c6f636b206e6f7420796574206d696e6564006044820152606401610658565b61079e600883611601565b60606004805461050f906123e4565b73ffffffffffffffffffffffffffffffffffffffff811660009081526007602052604081205480156109905773ffffffffffffffffffffffffffffffffffffffff83166000908152600760205260409020610949600183612479565b8154811061095957610959612490565b60009182526020909120015464010000000090047bffffffffffffffffffffffffffffffffffffffffffffffffffffffff16610993565b60005b7bffffffffffffffffffffffffffffffffffffffffffffffffffffffff169392505050565b33600090815260016020908152604080832073ffffffffffffffffffffffffffffffffffffffff8616845290915281205482811015610a5f5760405162461bcd60e51b815260206004820152602560248201527f45524332303a2064656372656173656420616c6c6f77616e63652062656c6f7760448201527f207a65726f0000000000000000000000000000000000000000000000000000006064820152608401610658565b610a6c3385858403611124565b5060019392505050565b600061059f3384846112a3565b600061079e6107b3836108ed565b83421115610ae15760405162461bcd60e51b815260206004820152601d60248201527f4552433230566f7465733a207369676e617475726520657870697265640000006044820152606401610658565b604080517fe48329057bfd03d55e49b547132e39cffd9c1820ad7b9d4c5307691425d15adf602082015273ffffffffffffffffffffffffffffffffffffffff8816918101919091526060810186905260808101859052600090610b6890610b609060a00160405160208183030381529060405280519060200120611814565b85858561187d565b9050610b73816118a5565b8614610bc15760405162461bcd60e51b815260206004820152601960248201527f4552433230566f7465733a20696e76616c6964206e6f6e6365000000000000006044820152606401610658565b610bcb81886116f2565b50505050505050565b83421115610c245760405162461bcd60e51b815260206004820152601d60248201527f45524332305065726d69743a206578706972656420646561646c696e650000006044820152606401610658565b60007f0000000000000000000000000000000000000000000000000000000000000000888888610c538c6118a5565b60408051602081019690965273ffffffffffffffffffffffffffffffffffffffff94851690860152929091166060840152608083015260a082015260c0810186905260e0016040516020818303038152906040528051906020012090506000610cbb82611814565b90506000610ccb8287878761187d565b90508973ffffffffffffffffffffffffffffffffffffffff168173ffffffffffffffffffffffffffffffffffffffff1614610d485760405162461bcd60e51b815260206004820152601e60248201527f45524332305065726d69743a20696e76616c6964207369676e617475726500006044820152606401610658565b610d538a8a8a611124565b50505050505050505050565b604080518082019091526000808252602082015273ffffffffffffffffffffffffffffffffffffffff83166000908152600760205260409020805463ffffffff8416908110610db057610db0612490565b60009182526020918290206040805180820190915291015463ffffffff8116825264010000000090047bffffffffffffffffffffffffffffffffffffffffffffffffffffffff16918101919091529392505050565b610e0f8282610ea7565b6002546b019d971e4fe8401e740000001015610e935760405162461bcd60e51b815260206004820152603060248201527f4552433230566f7465733a20746f74616c20737570706c79207269736b73206f60448201527f766572666c6f77696e6720766f746573000000000000000000000000000000006064820152608401610658565b610ea16008610fb9836118da565b50505050565b73ffffffffffffffffffffffffffffffffffffffff8216610f0a5760405162461bcd60e51b815260206004820152601f60248201527f45524332303a206d696e7420746f20746865207a65726f2061646472657373006044820152606401610658565b8060026000828254610f1c9190612461565b909155505073ffffffffffffffffffffffffffffffffffffffff821660009081526020819052604081208054839290610f56908490612461565b909155505060405181815273ffffffffffffffffffffffffffffffffffffffff8316906000907fddf252ad1be2c89b69c2b068fc378daa952ba7f163c4a11628f55a4df523b3ef9060200160405180910390a3610fb560008383611abc565b5050565b60006107518284612461565b60007bffffffffffffffffffffffffffffffffffffffffffffffffffffffff8211156110595760405162461bcd60e51b815260206004820152602760248201527f53616665436173743a2076616c756520646f65736e27742066697420696e203260448201527f32342062697473000000000000000000000000000000000000000000000000006064820152608401610658565b5090565b600063ffffffff8211156110595760405162461bcd60e51b815260206004820152602660248201527f53616665436173743a2076616c756520646f65736e27742066697420696e203360448201527f32206269747300000000000000000000000000000000000000000000000000006064820152608401610658565b73ffffffffffffffffffffffffffffffffffffffff83811660009081526006602052604080822054858416835291205461085292918216911683611ac7565b60006107518284612479565b73ffffffffffffffffffffffffffffffffffffffff83166111ac5760405162461bcd60e51b8152602060048201526024808201527f45524332303a20617070726f76652066726f6d20746865207a65726f2061646460448201527f72657373000000000000000000000000000000000000000000000000000000006064820152608401610658565b73ffffffffffffffffffffffffffffffffffffffff82166112355760405162461bcd60e51b815260206004820152602260248201527f45524332303a20617070726f766520746f20746865207a65726f20616464726560448201527f73730000000000000000000000000000000000000000000000000000000000006064820152608401610658565b73ffffffffffffffffffffffffffffffffffffffff83811660008181526001602090815260408083209487168084529482529182902085905590518481527f8c5be1e5ebec7d5bd14f71427d1e84f3dd0314c0f7b2291e5b200ac8c7c3b925910160405180910390a3505050565b73ffffffffffffffffffffffffffffffffffffffff831661132c5760405162461bcd60e51b815260206004820152602560248201527f45524332303a207472616e736665722066726f6d20746865207a65726f20616460448201527f64726573730000000000000000000000000000000000000000000000000000006064820152608401610658565b73ffffffffffffffffffffffffffffffffffffffff82166113b55760405162461bcd60e51b815260206004820152602360248201527f45524332303a207472616e7366657220746f20746865207a65726f206164647260448201527f65737300000000000000000000000000000000000000000000000000000000006064820152608401610658565b73ffffffffffffffffffffffffffffffffffffffff8316600090815260208190526040902054818110156114515760405162461bcd60e51b815260206004820152602660248201527f45524332303a207472616e7366657220616d6f756e742065786365656473206260448201527f616c616e636500000000000000000000000000000000000000000000000000006064820152608401610658565b73ffffffffffffffffffffffffffffffffffffffff808516600090815260208190526040808220858503905591851681529081208054849290611495908490612461565b925050819055508273ffffffffffffffffffffffffffffffffffffffff168473ffffffffffffffffffffffffffffffffffffffff167fddf252ad1be2c89b69c2b068fc378daa952ba7f163c4a11628f55a4df523b3ef846040516114fb91815260200190565b60405180910390a3610ea1848484611abc565b60007f000000000000000000000000000000000000000000000000000000000000000046141561155d57507f000000000000000000000000000000000000000000000000000000000000000090565b50604080517f00000000000000000000000000000000000000000000000000000000000000006020808301919091527f0000000000000000000000000000000000000000000000000000000000000000828401527f000000000000000000000000000000000000000000000000000000000000000060608301524660808301523060a0808401919091528351808403909101815260c0909201909252805191012090565b8154600090815b8181101561166557600061161c8284611c6c565b90508486828154811061163157611631612490565b60009182526020909120015463ffffffff1611156116515780925061165f565b61165c816001612461565b91505b50611608565b81156116be5784611677600184612479565b8154811061168757611687612490565b60009182526020909120015464010000000090047bffffffffffffffffffffffffffffffffffffffffffffffffffffffff166116c1565b60005b7bffffffffffffffffffffffffffffffffffffffffffffffffffffffff1695945050505050565b610fb58282611c87565b73ffffffffffffffffffffffffffffffffffffffff8281166000818152600660208181526040808420805485845282862054949093528787167fffffffffffffffffffffffff00000000000000000000000000000000000000008416811790915590519190951694919391928592917f3134e8a2e6d97e929a7e54011ea5485d7d196dd5f0ba4d4ef95803e8e3fc257f9190a4610ea1828483611ac7565b60006bffffffffffffffffffffffff8211156110595760405162461bcd60e51b815260206004820152602660248201527f53616665436173743a2076616c756520646f65736e27742066697420696e203960448201527f36206269747300000000000000000000000000000000000000000000000000006064820152608401610658565b600061079e61182161150e565b836040517f19010000000000000000000000000000000000000000000000000000000000006020820152602281018390526042810182905260009060620160405160208183030381529060405280519060200120905092915050565b600080600061188e87878787611c9f565b9150915061189b81611db7565b5095945050505050565b73ffffffffffffffffffffffffffffffffffffffff811660009081526005602052604090208054600181018255905b50919050565b82546000908190801561193a57856118f3600183612479565b8154811061190357611903612490565b60009182526020909120015464010000000090047bffffffffffffffffffffffffffffffffffffffffffffffffffffffff1661193d565b60005b7bffffffffffffffffffffffffffffffffffffffffffffffffffffffff16925061196b83858763ffffffff16565b91506000811180156119a957504386611985600184612479565b8154811061199557611995612490565b60009182526020909120015463ffffffff16145b15611a33576119b782610fc5565b866119c3600184612479565b815481106119d3576119d3612490565b9060005260206000200160000160046101000a8154817bffffffffffffffffffffffffffffffffffffffffffffffffffffffff02191690837bffffffffffffffffffffffffffffffffffffffffffffffffffffffff160217905550611ab3565b856040518060400160405280611a484361105d565b63ffffffff168152602001611a5c85610fc5565b7bffffffffffffffffffffffffffffffffffffffffffffffffffffffff90811690915282546001810184556000938452602093849020835194909301519091166401000000000263ffffffff909316929092179101555b50935093915050565b6108528383836110d9565b8173ffffffffffffffffffffffffffffffffffffffff168373ffffffffffffffffffffffffffffffffffffffff1614158015611b035750600081115b156108525773ffffffffffffffffffffffffffffffffffffffff831615611bb85773ffffffffffffffffffffffffffffffffffffffff831660009081526007602052604081208190611b5890611118856118da565b915091508473ffffffffffffffffffffffffffffffffffffffff167fdec2bacdd2f05b59de34da9b523dff8be42e5e38e818c82fdb0bae774387a7248383604051611bad929190918252602082015260400190565b60405180910390a250505b73ffffffffffffffffffffffffffffffffffffffff8216156108525773ffffffffffffffffffffffffffffffffffffffff821660009081526007602052604081208190611c0890610fb9856118da565b915091508373ffffffffffffffffffffffffffffffffffffffff167fdec2bacdd2f05b59de34da9b523dff8be42e5e38e818c82fdb0bae774387a7248383604051611c5d929190918252602082015260400190565b60405180910390a25050505050565b6000611c7b60028484186124bf565b61075190848416612461565b611c918282611fa8565b610ea16008611118836118da565b6000807f7fffffffffffffffffffffffffffffff5d576e7357a4501ddfe92f46681b20a0831115611cd65750600090506003611dae565b8460ff16601b14158015611cee57508460ff16601c14155b15611cff5750600090506004611dae565b6040805160008082526020820180845289905260ff881692820192909252606081018690526080810185905260019060a0016020604051602081039080840390855afa158015611d53573d6000803e3d6000fd5b50506040517fffffffffffffffffffffffffffffffffffffffffffffffffffffffffffffffe0015191505073ffffffffffffffffffffffffffffffffffffffff8116611da757600060019250925050611dae565b9150600090505b94509492505050565b6000816004811115611dcb57611dcb6124fa565b1415611dd45750565b6001816004811115611de857611de86124fa565b1415611e365760405162461bcd60e51b815260206004820152601860248201527f45434453413a20696e76616c6964207369676e617475726500000000000000006044820152606401610658565b6002816004811115611e4a57611e4a6124fa565b1415611e985760405162461bcd60e51b815260206004820152601f60248201527f45434453413a20696e76616c6964207369676e6174757265206c656e677468006044820152606401610658565b6003816004811115611eac57611eac6124fa565b1415611f205760405162461bcd60e51b815260206004820152602260248201527f45434453413a20696e76616c6964207369676e6174757265202773272076616c60448201527f75650000000000000000000000000000000000000000000000000000000000006064820152608401610658565b6004816004811115611f3457611f346124fa565b14156107625760405162461bcd60e51b815260206004820152602260248201527f45434453413a20696e76616c6964207369676e6174757265202776272076616c60448201527f75650000000000000000000000000000000000000000000000000000000000006064820152608401610658565b73ffffffffffffffffffffffffffffffffffffffff82166120315760405162461bcd60e51b815260206004820152602160248201527f45524332303a206275726e2066726f6d20746865207a65726f2061646472657360448201527f73000000000000000000000000000000000000000000000000000000000000006064820152608401610658565b73ffffffffffffffffffffffffffffffffffffffff8216600090815260208190526040902054818110156120cd5760405162461bcd60e51b815260206004820152602260248201527f45524332303a206275726e20616d6f756e7420657863656564732062616c616e60448201527f63650000000000000000000000000000000000000000000000000000000000006064820152608401610658565b73ffffffffffffffffffffffffffffffffffffffff83166000908152602081905260408120838303905560028054849290612109908490612479565b909155505060405182815260009073ffffffffffffffffffffffffffffffffffffffff8516907fddf252ad1be2c89b69c2b068fc378daa952ba7f163c4a11628f55a4df523b3ef9060200160405180910390a361085283600084611abc565b600060208083528351808285015260005b8181101561219557858101830151858201604001528201612179565b818111156121a7576000604083870101525b50601f017fffffffffffffffffffffffffffffffffffffffffffffffffffffffffffffffe016929092016040019392505050565b803573ffffffffffffffffffffffffffffffffffffffff811681146121ff57600080fd5b919050565b6000806040838503121561221757600080fd5b612220836121db565b946020939093013593505050565b60008060006060848603121561224357600080fd5b61224c846121db565b925061225a602085016121db565b9150604084013590509250925092565b60006020828403121561227c57600080fd5b5035919050565b60006020828403121561229557600080fd5b610751826121db565b803560ff811681146121ff57600080fd5b60008060008060008060c087890312156122c857600080fd5b6122d1876121db565b955060208701359450604087013593506122ed6060880161229e565b92506080870135915060a087013590509295509295509295565b600080600080600080600060e0888a03121561232257600080fd5b61232b886121db565b9650612339602089016121db565b955060408801359450606088013593506123556080890161229e565b925060a0880135915060c0880135905092959891949750929550565b6000806040838503121561238457600080fd5b61238d836121db565b915061239b602084016121db565b90509250929050565b600080604083850312156123b757600080fd5b6123c0836121db565b9150602083013563ffffffff811681146123d957600080fd5b809150509250929050565b600181811c908216806123f857607f821691505b602082108114156118d4577f4e487b7100000000000000000000000000000000000000000000000000000000600052602260045260246000fd5b7f4e487b7100000000000000000000000000000000000000000000000000000000600052601160045260246000fd5b6000821982111561247457612474612432565b500190565b60008282101561248b5761248b612432565b500390565b7f4e487b7100000000000000000000000000000000000000000000000000000000600052603260045260246000fd5b6000826124f5577f4e487b7100000000000000000000000000000000000000000000000000000000600052601260045260246000fd5b500490565b7f4e487b7100000000000000000000000000000000000000000000000000000000600052602160045260246000fdfea164736f6c6343000809000adec2bacdd2f05b59de34da9b523dff8be42e5e38e818c82fdb0bae774387a724",
  "linkReferences": {},
  "deployedLinkReferences": {}
}