{
  "_format": "hh-sol-artifact-1",
  "contractName": "OVM_ECDSAContractAccount",
  "sourceName": "contracts/optimistic-ethereum/OVM/predeploys/OVM_ECDSAContractAccount.sol",
  "abi": [
    {
      "stateMutability": "payable",
      "type": "fallback"
    },
    {
      "inputs": [
        {
          "components": [
            {
              "internalType": "uint256",
              "name": "nonce",
              "type": "uint256"
            },
            {
              "internalType": "uint256",
              "name": "gasPrice",
              "type": "uint256"
            },
            {
              "internalType": "uint256",
              "name": "gasLimit",
              "type": "uint256"
            },
            {
              "internalType": "address",
              "name": "to",
              "type": "address"
            },
            {
              "internalType": "uint256",
              "name": "value",
              "type": "uint256"
            },
            {
              "internalType": "bytes",
              "name": "data",
              "type": "bytes"
            },
            {
              "internalType": "uint8",
              "name": "v",
              "type": "uint8"
            },
            {
              "internalType": "bytes32",
              "name": "r",
              "type": "bytes32"
            },
            {
              "internalType": "bytes32",
              "name": "s",
              "type": "bytes32"
            },
            {
              "internalType": "uint256",
              "name": "chainId",
              "type": "uint256"
            },
            {
              "internalType": "uint8",
              "name": "recoveryParam",
              "type": "uint8"
            },
            {
              "internalType": "bool",
              "name": "isCreate",
              "type": "bool"
            }
          ],
          "internalType": "struct Lib_EIP155Tx.EIP155Tx",
          "name": "_transaction",
          "type": "tuple"
        }
      ],
      "name": "execute",
      "outputs": [
        {
          "internalType": "bool",
          "name": "",
          "type": "bool"
        },
        {
          "internalType": "bytes",
          "name": "",
          "type": "bytes"
        }
      ],
      "stateMutability": "nonpayable",
      "type": "function"
    },
    {
      "inputs": [
        {
          "internalType": "bytes32",
          "name": "hash",
          "type": "bytes32"
        },
        {
          "internalType": "bytes",
          "name": "signature",
          "type": "bytes"
        }
      ],
      "name": "isValidSignature",
      "outputs": [
        {
          "internalType": "bytes4",
          "name": "magicValue",
          "type": "bytes4"
        }
      ],
      "stateMutability": "view",
      "type": "function"
    }
  ],
  "bytecode": "0x60806040525a6200000f6200002d565b801562000026576000806200002362000089565b50505b50620000f6565b63a8c4c5ec598160e01b8152602081600483336000905af158600e01573d6000803e3d6000fd5b3d6001141558600a015760016000f35b8051935060005b604081101562000084576000828201526020016200006b565b505050565b632a2a7adb598160e01b8152600481016020815285602082015260005b86811015620000c3578086015182820160400152602001620000a6565b506020828760640184336000905af158600e01573d6000803e3d6000fd5b3d6001141558600a015760016000f35b505050565b611b9880620001066000396000f3fe6080604052600436106100295760003560e01c80631626ba7e1461002b5780635ee46ac914610072575b005b5a61003461129f565b8015610048576000806100456112f9565b50505b5061005c610057366004611654565b6100b1565b60405161006991906118c8565b60405180910390f35b5a61007b61129f565b801561008f5760008061008c6112f9565b50505b506100a361009e3660046116ab565b610146565b60405161006992919061186e565b60005a63996d79a5598160e01b8152602081600483336000905af158600e01573d6000803e3d6000fd5b3d6001141558600a015760016000f35b8051925060005b6040811015610109576000828201526020016100f2565b5050506001600160a01b031661011f848461046e565b6001600160a01b03161461013457600061013d565b630b135d3f60e11b5b90505b92915050565b60006060610152610501565b6001600160a01b03166101648461056e565b6001600160a01b03161461019c5760405162461bcd60e51b815260040161018a9061192f565b604051809103906101996112f9565b50505b6101a46105f5565b836101200151146101d95760405162461bcd60e51b81526004016101c7906119cf565b604051809103906101d66112f9565b50505b6101e1610634565b8351146102125760405162461bcd60e51b815260040161020090611a72565b6040518091039061020f6112f9565b50505b6006602160991b0163a9059cbb6011602160991b0161023960408701518760200151610673565b6040518363ffffffff1660e01b8152600401610256929190611855565b6020604051808303816000878061026b611364565b1580156102805760008061027d6112f9565b50505b505a61028a6113b0565b5050505050501580156102aa573d6000803e3d60006102a76112f9565b50505b50505050604051601f3d908101601f191682016040526102cd919081019061162f565b6102fb5760405162461bcd60e51b81526004016102e99061198c565b604051809103906102f86112f9565b50505b826101600151156103985782608001511561033a5760405162461bcd60e51b8152600401610328906118dd565b604051809103906103376112f9565b50505b60008061034a8560a001516106db565b90925090506001600160a01b0382161561038b576001826040516020016103719190611841565b604051602081830303815290604052935093505050610469565b6000935091506104699050565b6103a0610885565b6103a8610501565b6001600160a01b031683606001516001600160a01b031614156103ef5760405162461bcd60e51b81526004016103dd90611a15565b604051809103906103ec6112f9565b50505b82606001516001600160a01b031683608001518460a0015160405161041491906117f8565b60006040518083038185875a6104286113b0565b505050505050925050503d806000811461045e576040513d603f01601f191681016040523d815291503d6000602084013e610463565b606091505b50915091505b915091565b600081516041146104ce5760405162461bcd60e51b815260206004820152601f60248201527f45434453413a20696e76616c6964207369676e6174757265206c656e677468006044820152606401604051809103906104cb6112f9565b50505b60008060006020850151925060408501519150606085015160001a90506104f7868285856108c4565b9695505050505050565b600080610540604051602401604051601f1981830301815260409190915263996d79a560e01b6020820180516001600160e01b03169091179052610a70565b9050602081018151602081101561055f5760008061055c6112f9565b50505b81019080805194505050505090565b6000600161057b83610b50565b836101400151601b018460e00151856101000151604051600081526020016040526040516105ac94939291906118aa565b6020604051602081039080840390855a6105c46114a1565b50505050501580156105e3573d6000803e3d60006105e06112f9565b50505b5050506020604051035190505b919050565b600080610540604051602401604051601f1981830301815260409190915263482c012b60e11b6020820180516001600160e01b03169091179052610a70565b600080610540604051602401604051601f198183030181526040919091526360fd975160e11b6020820180516001600160e01b03169091179052610a70565b60008261068257506000610140565b8282028284828161068f57fe5b041461013d5760405162461bcd60e51b8152600401808060200182810382526021815260200180611b7760219139604001915050604051809103906106d26112f9565b50509392505050565b60006060600061078a846040516024018080602001828103825283818151815260200191508051906020019080838360005b8381101561072557808201518382015260200161070d565b50505050905090810190601f1680156107525780820380516001836020036101000a031916815260200191505b5092505050604051601f198183030181526040919091526314aa2ff760e01b6020820180516001600160e01b03169091179052610a70565b905060208101815160408110156107a9576000806107a66112f9565b50505b810190808051929190602001805160405193929190846401000000008211156107da576000806107d76112f9565b50505b9083019060208201858111156107f8576000806107f56112f9565b50505b825164010000000081118282018810171561081b576000806108186112f9565b50505b825250602001908051906020019080838360005b8381101561084757808201518382015260200161082f565b50505050905090810190601f1680156108745780820380516001836020036101000a031916815260200191505b506040525050509250925050915091565b6108c1604051602401604051601f19818303018152604091909152631f3aefa560e21b6020820180516001600160e01b03169091179052610a70565b50565b60007f7fffffffffffffffffffffffffffffff5d576e7357a4501ddfe92f46681b20a082111561092e5760405162461bcd60e51b8152600401808060200182810382526022815260200180611b33602291396040019150506040518091039061092b6112f9565b50505b8360ff16601b148061094357508360ff16601c145b6109875760405162461bcd60e51b8152600401808060200182810382526022815260200180611b5560229139604001915050604051809103906109846112f9565b50505b600060018686868660405160008152602001604052604051808581526020018460ff1681526020018381526020018281526020019450505050506020604051602081039080840390855a6109d96114a1565b50505050501580156109f8573d6000803e3d60006109f56112f9565b50505b5050506020604051035190506001600160a01b038116610a675760405162461bcd60e51b815260206004820152601860248201527f45434453413a20696e76616c6964207369676e61747572650000000000000000604482015260640160405180910390610a646112f9565b50505b95945050505050565b6060600080600b602160991b01846040518082805190602001908083835b60208310610aad5780518252601f199092019160209182019101610a8e565b6001836020036101000a038019825116818451168082178552505050505050905001915050600060405180830381855a610ae5611568565b50505050509150503d8060008114610b19576040513d603f01601f191681016040523d815291503d6000602084013e610b1e565b606091505b50909250905060018215151415610b385791506105f09050565b805160208201610b466112f9565b50505b5050919050565b6000610b5c8282610b69565b8051906020012092915050565b606060006009604051908082528060200260200182016040528015610ba257816020015b6060815260200190600190039081610b8d5790505b509050610baf8451610dd1565b81600081518110610bbc57fe5b6020026020010181905250610bd48460200151610dd1565b81600181518110610be157fe5b6020026020010181905250610bf98460400151610dd1565b81600281518110610c0657fe5b602002602001018190525083610160015115610c4f57610c326040516020810160405260008152610ddf565b81600381518110610c3f57fe5b6020026020010181905250610c75565b610c5c8460600151610e48565b81600381518110610c6957fe5b60200260200101819052505b610c828460800151610dd1565b81600481518110610c8f57fe5b6020026020010181905250610ca78460a00151610ddf565b81600581518110610cb457fe5b60200260200101819052508215610d3d57610cd58460c0015160ff16610dd1565b81600681518110610ce257fe5b6020026020010181905250610cfa8460e00151610e72565b81600781518110610d0757fe5b6020026020010181905250610d20846101000151610e72565b81600881518110610d2d57fe5b6020026020010181905250610dc0565b610d4b846101200151610dd1565b81600681518110610d5857fe5b6020026020010181905250610d796040516020810160405260008152610ddf565b81600781518110610d8657fe5b6020026020010181905250610da76040516020810160405260008152610ddf565b81600881518110610db457fe5b60200260200101819052505b610dc981610e88565b949350505050565b6060610140610ddf83610ecc565b60608082516001148015610e075750608083600081518110610dfd57fe5b602001015160f81c105b15610e13575081610140565b610e1f83516080610fde565b83604051602001610e31929190611814565b604051602081830303815290604052905092915050565b606061014082604051602001610e5e91906117d2565b604051602081830303815290604052610ddf565b606061014082604051602001610e5e91906117ef565b60606000610e958361113e565b9050610ea3815160c0610fde565b81604051602001610eb5929190611814565b604051602081830303815290604052915050919050565b6060600082604051602001610ee191906117ef565b604051602081830303815290604052905060005b6020811015610f2b57818181518110610f0a57fe5b60200101516001600160f81b03191615610f2357610f2b565b600101610ef5565b60008160200367ffffffffffffffff81118015610f5057600080610f4d6112f9565b50505b50604051818152601f19601f8301168101602001604052908015610f7b576020820181803683370190505b50905060005b8151811015610fd5576001830192849081518110610f9b57fe5b60200101516001600160f81b031916828281518110610fb657fe5b60200101906001600160f81b031916908160001a905350600101610f81565b50949350505050565b6060806038841015611048576001604051818152601f19601f8301168101602001604052908015611016576020820181803683370190505b50905082840160f81b8160008151811061102c57fe5b60200101906001600160f81b031916908160001a90535061013d565b600060015b80868161105657fe5b041561106b576001909101906101000261104d565b8160010167ffffffffffffffff8111801561108e5760008061108b6112f9565b50505b50604051818152601f19601f83011681016020016040529080156110b9576020820181803683370190505b50925084820160370160f81b836000815181106110d257fe5b60200101906001600160f81b031916908160001a905350600190505b8181116106d2576101008183036101000a878161110757fe5b048161110f57fe5b0660f81b83828151811061111f57fe5b60200101906001600160f81b031916908160001a9053506001016110ee565b6060815161117a576000604051818152601f19601f8301168101602001604052908015611172576020820181803683370190505b5090506105f0565b6000805b83518110156111a85783818151811061119357fe5b6020026020010151519091019060010161117e565b60008267ffffffffffffffff811180156111ca576000806111c76112f9565b50505b50604051818152601f19601f83011681016020016040529080156111f5576020820181803683370190505b50600092509050602081015b8551831015610fd557600086848151811061121857fe5b602002602001015190506020810161123283828451611259565b87858151811061123e57fe5b60200260200101515160019095019490920191506112019050565b8282825b6020811061127d57815183526020928301929190910190601f190161125d565b60001960208290036101000a0180198351168185511617909352505050505050565b63a8c4c5ec598160e01b8152602081600483336000905af158600e01573d6000803e3d6000fd5b3d6001141558600a015760016000f35b8051935060005b60408110156112f4576000828201526020016112dd565b505050565b632a2a7adb598160e01b8152600481016020815285602082015260005b86811015611331578086015182820160400152602001611316565b506020828760640184336000905af158600e01573d6000803e3d6000fd5b3d6001141558600a015760016000f35b505050565b638435035b598160e01b8152836004820152602081602483336000905af158600e01573d6000803e3d6000fd5b3d6001141558600a015760016000f35b805160008252935060206112dd565b635b99d1c5598160e01b81526113e1565b8080831115610140575090919050565b8080831015610140575090919050565b8360048201528460248201528560448201526080606482015287608482015260a4810160005b8981101561141f578089015182820152602001611407565b506060828a60c40184336000905af158600e01573d6000803e3d6000fd5b3d6001141558600a015760016000f35b815160408301513d6000853e8c8c82606087013350600060045af150596114748e3d6113d1565b8d0161148081876113c1565b5b828110156114955760008152602001611481565b50929d50505050505050565b638540661f598160e01b81525b836004820152846024820152606060448201528660648201526084810160005b888110156114e65780880151828201526020016114ce565b506060828960a40184336000905af158600e01573d6000803e3d6000fd5b3d6001141558600a015760016000f35b815160408301513d6000853e8b8b82606087013350600060045af1505961153b8d3d6113d1565b8c0161154781876113c1565b5b8281101561155c5760008152602001611548565b50929c50505050505050565b63ffe73914598160e01b81526114ae565b80356001600160a01b03811681146105f057600080610b496112f9565b80356105f081611b1e565b600082601f8301126115ba5780816115b76112f9565b50505b813567ffffffffffffffff8111156115ce57fe5b6115e1601f8201601f1916602001611ac6565b8181528460208386010111156115fe5782836115fb6112f9565b50505b816020850160208301379081016020019190915292915050565b803560ff811681146105f057600080610b496112f9565b6000602082840312156116495780816116466112f9565b50505b815161013d81611b1e565b6000806040838503121561166f57808161166c6112f9565b50505b82359150602083013567ffffffffffffffff8111156116955781826116926112f9565b50505b6116a1858286016115a1565b9150509250929050565b6000602082840312156116c55780816116c26112f9565b50505b813567ffffffffffffffff808211156116e55782836116e26112f9565b50505b81840191506101808083870312156117045783846117016112f9565b50505b61170d81611ac6565b905082358152602083013560208201526040830135604082015261173360608401611579565b60608201526080830135608082015260a08301358281111561175c5784856117596112f9565b50505b611768878286016115a1565b60a08301525061177a60c08401611618565b60c082015260e083810135908201526101008084013590820152610120808401359082015261014091506117af828401611618565b8282015261016091506117c3828401611596565b91810191909152949350505050565b60609190911b6bffffffffffffffffffffffff1916815260140190565b90815260200190565b6000825161180a818460208701611aee565b9190910192915050565b60008351611826818460208801611aee565b82018351611838818360208801611aee565b01949350505050565b6001600160a01b0391909116815260200190565b6001600160a01b03929092168252602082015260400190565b60008315158252604060208301528251806040840152611895816060850160208701611aee565b601f01601f1916919091016060019392505050565b93845260ff9290921660208401526040830152606082015260800190565b6001600160e01b031991909116815260200190565b60208082526032908201527f56616c7565207472616e7366657220696e20636f6e747261637420637265617460408201527134b7b7103737ba1039bab83837b93a32b21760711b606082015260800190565b6020808252603c908201527f5369676e61747572652070726f766964656420666f7220454f41207472616e7360408201527f616374696f6e20657865637574696f6e20697320696e76616c69642e00000000606082015260800190565b60208082526023908201527f46656520776173206e6f74207472616e7366657272656420746f2072656c617960408201526232b91760e91b606082015260800190565b60208082526026908201527f5472616e73616374696f6e207369676e656420776974682077726f6e67206368604082015265185a5b88125160d21b606082015260800190565b6020808252603d908201527f43616c6c7320746f2073656c66206172652064697361626c656420756e74696c60408201527f207570677261646162696c6974792069732072652d656e61626c65642e000000606082015260800190565b60208082526034908201527f5472616e73616374696f6e206e6f6e636520646f6573206e6f74206d61746368604082015273103a34329032bc3832b1ba32b2103737b731b29760611b606082015260800190565b6000604051905081810181811067ffffffffffffffff82111715611ae657fe5b604052919050565b60005b83811015611b09578082015183820152602001611af1565b83811115611b18576000848401525b50505050565b80151581146108c1576000806112f46112f956fe45434453413a20696e76616c6964207369676e6174757265202773272076616c756545434453413a20696e76616c6964207369676e6174757265202776272076616c7565536166654d6174683a206d756c7469706c69636174696f6e206f766572666c6f77",
  "linkReferences": {},
  "deployedLinkReferences": {}
}