{
  "_format": "hh-sol-artifact-1",
  "contractName": "Lib_AddressManager",
  "sourceName": "contracts/optimistic-ethereum/libraries/resolver/Lib_AddressManager.sol",
  "abi": [
    {
      "anonymous": false,
      "inputs": [
        {
          "indexed": true,
          "internalType": "string",
          "name": "_name",
          "type": "string"
        },
        {
          "indexed": false,
          "internalType": "address",
          "name": "_newAddress",
          "type": "address"
        },
        {
          "indexed": false,
          "internalType": "address",
          "name": "_oldAddress",
          "type": "address"
        }
      ],
      "name": "AddressSet",
      "type": "event"
    },
    {
      "anonymous": false,
      "inputs": [
        {
          "indexed": true,
          "internalType": "address",
          "name": "previousOwner",
          "type": "address"
        },
        {
          "indexed": true,
          "internalType": "address",
          "name": "newOwner",
          "type": "address"
        }
      ],
      "name": "OwnershipTransferred",
      "type": "event"
    },
    {
      "inputs": [
        {
          "internalType": "string",
          "name": "_name",
          "type": "string"
        }
      ],
      "name": "getAddress",
      "outputs": [
        {
          "internalType": "address",
          "name": "",
          "type": "address"
        }
      ],
      "stateMutability": "view",
      "type": "function"
    },
    {
      "inputs": [],
      "name": "owner",
      "outputs": [
        {
          "internalType": "address",
          "name": "",
          "type": "address"
        }
      ],
      "stateMutability": "view",
      "type": "function"
    },
    {
      "inputs": [],
      "name": "renounceOwnership",
      "outputs": [],
      "stateMutability": "nonpayable",
      "type": "function"
    },
    {
      "inputs": [
        {
          "internalType": "string",
          "name": "_name",
          "type": "string"
        },
        {
          "internalType": "address",
          "name": "_address",
          "type": "address"
        }
      ],
      "name": "setAddress",
      "outputs": [],
      "stateMutability": "nonpayable",
      "type": "function"
    },
    {
      "inputs": [
        {
          "internalType": "address",
          "name": "newOwner",
          "type": "address"
        }
      ],
      "name": "transferOwnership",
      "outputs": [],
      "stateMutability": "nonpayable",
      "type": "function"
    }
  ],
  "bytecode": "0x60806040525a61000d6100af565b80156100215760008061001e610109565b50505b50600061002c61009f565b905080600060018161003c610174565b816001600160a01b0302191690836001600160a01b031602179061005e6101c0565b5050506001600160a01b03811660007f8be0079c531659141344cd1fd0a4f28419497f9722a3daafe3b4186f6b6457e060405160405180910390a350610254565b60005a6100aa61020e565b905090565b63a8c4c5ec598160e01b8152602081600483336000905af158600e01573d6000803e3d6000fd5b3d6001141558600a015760016000f35b8051935060005b6040811015610104576000828201526020016100ed565b505050565b632a2a7adb598160e01b8152600481016020815285602082015260005b86811015610141578086015182820160400152602001610126565b506020828760640184336000905af158600e01573d6000803e3d6000fd5b3d6001141558600a015760016000f35b505050565b6303daa959598160e01b8152836004820152602081602483336000905af158600e01573d6000803e3d6000fd5b3d6001141558600a015760016000f35b805160008252935060206100ed565b6322bd64c0598160e01b8152836004820152846024820152600081604483336000905af158600e01573d6000803e3d6000fd5b3d6001141558600a015760016000f35b6000815260206100ed565b6373509064598160e01b8152602081600483336000905af158600e01573d6000803e3d6000fd5b3d6001141558600a015760016000f35b805160008252935060206100ed565b610919806102636000396000f3fe60806040525a61000d610752565b80156100215760008061001e6107a7565b50505b50600436106100685760003560e01c8063715018a6146100765780638da5cb5b146100805780639b2ea4bd146100a4578063bf40fac114610178578063f2fde38b14610241575b6000806100736107a7565b50505b61007e610270565b005b610088610372565b6040516001600160a01b03909116815260200160405180910390f35b61007e600480360360408110156100c3576000806100c06107a7565b50505b8101906020810181356401000000008111156100e7576000806100e46107a7565b50505b820183602082011115610102576000806100ff6107a7565b50505b8035906020019184600183028401116401000000008311171561012d5760008061012a6107a7565b50505b91908080601f0160208091040260200160405190810160405281815292919060208401838380828437600092019190915250929550505090356001600160a01b031691506103939050565b61008860048036036020811015610197576000806101946107a7565b50505b8101906020810181356401000000008111156101bb576000806101b86107a7565b50505b8201836020820111156101d6576000806101d36107a7565b50505b80359060200191846001830284011164010000000083111715610201576000806101fe6107a7565b50505b91908080601f0160208091040260200160405190810160405281815292919060208401838380828437600092019190915250929550610534945050505050565b61007e600480360360208110156102605760008061025d6107a7565b50505b50356001600160a01b0316610573565b6102786106cd565b6001600160a01b0316610289610372565b6001600160a01b0316146102ec5760405162461bcd60e51b815260206004820181905260248201527f4f776e61626c653a2063616c6c6572206973206e6f7420746865206f776e65726044820152606401604051809103906102e96107a7565b50505b600080806102f8610812565b906101000a90046001600160a01b03166001600160a01b03167f8be0079c531659141344cd1fd0a4f28419497f9722a3daafe3b4186f6b6457e060405160405180910390a360008060018161034b610812565b816001600160a01b0302191690836001600160a01b031602179061036d61085e565b505050565b6000808061037e610812565b906101000a90046001600160a01b0316905090565b61039b6106cd565b6001600160a01b03166103ac610372565b6001600160a01b03161461040f5760405162461bcd60e51b815260206004820181905260248201527f4f776e61626c653a2063616c6c6572206973206e6f7420746865206f776e657260448201526064016040518091039061040c6107a7565b50505b600061041a836106dd565b6000818152600160205290915060408120600090610436610812565b906101000a90046001600160a01b031690508260016000848152602001908152602001600020600181610467610812565b816001600160a01b0302191690836001600160a01b031602179061048961085e565b505050836040518082805190602001908083835b602083106104bc5780518252601f19909201916020918201910161049d565b6001836020036101000a038019825116818451161790925250505091909101925060409150505180910390207f9416a153a346f93d95f94b064ae3f148b6460473c6e82b3f9fc2521b873fcd6c84836040516001600160a01b039283168152911660208201526040908101905180910390a250505050565b600060016000610543846106dd565b815260200190815260200160002060009061055c610812565b906101000a90046001600160a01b03169050919050565b61057b6106cd565b6001600160a01b031661058c610372565b6001600160a01b0316146105ef5760405162461bcd60e51b815260206004820181905260248201527f4f776e61626c653a2063616c6c6572206973206e6f7420746865206f776e65726044820152606401604051809103906105ec6107a7565b50505b6001600160a01b03811661063d5760405162461bcd60e51b81526004018080602001828103825260268152602001806108f3602691396040019150506040518091039061063a6107a7565b50505b806001600160a01b0316600080610652610812565b906101000a90046001600160a01b03166001600160a01b03167f8be0079c531659141344cd1fd0a4f28419497f9722a3daafe3b4186f6b6457e060405160405180910390a38060006001816106a5610812565b816001600160a01b0302191690836001600160a01b03160217906106c761085e565b50505050565b60005a6106d86108ac565b905090565b6000816040516020018082805190602001908083835b602083106107125780518252601f1990920191602091820191016106f3565b6001836020036101000a03801982511681845116179092525050509190910192506040915050516020818303038152906040528051906020012092915050565b63a8c4c5ec598160e01b8152602081600483336000905af158600e01573d6000803e3d6000fd5b3d6001141558600a015760016000f35b8051935060005b604081101561036d57600082820152602001610790565b632a2a7adb598160e01b8152600481016020815285602082015260005b868110156107df5780860151828201604001526020016107c4565b506020828760640184336000905af158600e01573d6000803e3d6000fd5b3d6001141558600a015760016000f35b505050565b6303daa959598160e01b8152836004820152602081602483336000905af158600e01573d6000803e3d6000fd5b3d6001141558600a015760016000f35b80516000825293506020610790565b6322bd64c0598160e01b8152836004820152846024820152600081604483336000905af158600e01573d6000803e3d6000fd5b3d6001141558600a015760016000f35b600081526020610790565b6373509064598160e01b8152602081600483336000905af158600e01573d6000803e3d6000fd5b3d6001141558600a015760016000f35b8051600082529350602061079056fe4f776e61626c653a206e6577206f776e657220697320746865207a65726f2061646472657373",
  "linkReferences": {},
  "deployedLinkReferences": {}
}