{
  "_format": "hh-sol-artifact-1",
  "contractName": "ERC1820Registry",
  "sourceName": "contracts/optimistic-ethereum/OVM/predeploys/ERC1820Registry.sol",
  "abi": [
    {
      "anonymous": false,
      "inputs": [
        {
          "indexed": true,
          "internalType": "address",
          "name": "addr",
          "type": "address"
        },
        {
          "indexed": true,
          "internalType": "bytes32",
          "name": "interfaceHash",
          "type": "bytes32"
        },
        {
          "indexed": true,
          "internalType": "address",
          "name": "implementer",
          "type": "address"
        }
      ],
      "name": "InterfaceImplementerSet",
      "type": "event"
    },
    {
      "anonymous": false,
      "inputs": [
        {
          "indexed": true,
          "internalType": "address",
          "name": "addr",
          "type": "address"
        },
        {
          "indexed": true,
          "internalType": "address",
          "name": "newManager",
          "type": "address"
        }
      ],
      "name": "ManagerChanged",
      "type": "event"
    },
    {
      "inputs": [
        {
          "internalType": "address",
          "name": "_addr",
          "type": "address"
        },
        {
          "internalType": "bytes32",
          "name": "_interfaceHash",
          "type": "bytes32"
        }
      ],
      "name": "getInterfaceImplementer",
      "outputs": [
        {
          "internalType": "address",
          "name": "",
          "type": "address"
        }
      ],
      "stateMutability": "view",
      "type": "function"
    },
    {
      "inputs": [
        {
          "internalType": "address",
          "name": "_addr",
          "type": "address"
        }
      ],
      "name": "getManager",
      "outputs": [
        {
          "internalType": "address",
          "name": "",
          "type": "address"
        }
      ],
      "stateMutability": "view",
      "type": "function"
    },
    {
      "inputs": [
        {
          "internalType": "address",
          "name": "_contract",
          "type": "address"
        },
        {
          "internalType": "bytes4",
          "name": "_interfaceId",
          "type": "bytes4"
        }
      ],
      "name": "implementsERC165Interface",
      "outputs": [
        {
          "internalType": "bool",
          "name": "",
          "type": "bool"
        }
      ],
      "stateMutability": "view",
      "type": "function"
    },
    {
      "inputs": [
        {
          "internalType": "address",
          "name": "_contract",
          "type": "address"
        },
        {
          "internalType": "bytes4",
          "name": "_interfaceId",
          "type": "bytes4"
        }
      ],
      "name": "implementsERC165InterfaceNoCache",
      "outputs": [
        {
          "internalType": "bool",
          "name": "",
          "type": "bool"
        }
      ],
      "stateMutability": "view",
      "type": "function"
    },
    {
      "inputs": [
        {
          "internalType": "string",
          "name": "_interfaceName",
          "type": "string"
        }
      ],
      "name": "interfaceHash",
      "outputs": [
        {
          "internalType": "bytes32",
          "name": "",
          "type": "bytes32"
        }
      ],
      "stateMutability": "pure",
      "type": "function"
    },
    {
      "inputs": [
        {
          "internalType": "address",
          "name": "_addr",
          "type": "address"
        },
        {
          "internalType": "bytes32",
          "name": "_interfaceHash",
          "type": "bytes32"
        },
        {
          "internalType": "address",
          "name": "_implementer",
          "type": "address"
        }
      ],
      "name": "setInterfaceImplementer",
      "outputs": [],
      "stateMutability": "nonpayable",
      "type": "function"
    },
    {
      "inputs": [
        {
          "internalType": "address",
          "name": "_addr",
          "type": "address"
        },
        {
          "internalType": "address",
          "name": "_newManager",
          "type": "address"
        }
      ],
      "name": "setManager",
      "outputs": [],
      "stateMutability": "nonpayable",
      "type": "function"
    },
    {
      "inputs": [
        {
          "internalType": "address",
          "name": "_contract",
          "type": "address"
        },
        {
          "internalType": "bytes4",
          "name": "_interfaceId",
          "type": "bytes4"
        }
      ],
      "name": "updateERC165Cache",
      "outputs": [],
      "stateMutability": "nonpayable",
      "type": "function"
    }
  ],
  "bytecode": "0x60806040525a61000d610027565b80156100215760008061001e610081565b50505b506100ec565b63a8c4c5ec598160e01b8152602081600483336000905af158600e01573d6000803e3d6000fd5b3d6001141558600a015760016000f35b8051935060005b604081101561007c57600082820152602001610065565b505050565b632a2a7adb598160e01b8152600481016020815285602082015260005b868110156100b957808601518282016040015260200161009e565b506020828760640184336000905af158600e01573d6000803e3d6000fd5b3d6001141558600a015760016000f35b505050565b610dfb806100fb6000396000f3fe60806040525a61000d610b1f565b80156100215760008061001e610b79565b50505b50600436106100995760003560e01c8063a41e7d511161006c578063a41e7d5114610210578063aabbb8ca1461024f578063b705676514610284578063f712f3e8146102d757610099565b806329965a1d146100a75780633d584063146100e85780635df8122f1461013357806365ba36c11461016a575b6000806100a4610b79565b50505b6100e6600480360360608110156100c6576000806100c3610b79565b50505b506001600160a01b03813581169160208101359160409091013516610316565b005b6101176004803603602081101561010757600080610104610b79565b50505b50356001600160a01b0316610631565b6040516001600160a01b03909116815260200160405180910390f35b6100e6600480360360408110156101525760008061014f610b79565b50505b506001600160a01b03813581169160200135166106b6565b6101fe6004803603602081101561018957600080610186610b79565b50505b8101906020810181356401000000008111156101ad576000806101aa610b79565b50505b8201836020820111156101c8576000806101c5610b79565b50505b803590602001918460018302840111640100000000831117156101f3576000806101f0610b79565b50505b5090925090506107d4565b60405190815260200160405180910390f35b6100e66004803603604081101561022f5760008061022c610b79565b50505b5080356001600160a01b031690602001356001600160e01b03191661080e565b6101176004803603604081101561026e5760008061026b610b79565b50505b506001600160a01b0381351690602001356108e3565b6102c3600480360360408110156102a3576000806102a0610b79565b50505b5080356001600160a01b031690602001356001600160e01b031916610980565b604051901515815260200160405180910390f35b6102c3600480360360408110156102f6576000806102f3610b79565b50505b5080356001600160a01b031690602001356001600160e01b031916610a22565b60006001600160a01b0384161561032d5783610336565b5a610336610be4565b90505a610341610be4565b6001600160a01b031661035382610631565b6001600160a01b0316146103a85760405162461bcd60e51b815260206004820152600f60248201526e2737ba103a34329036b0b730b3b2b960891b6044820152606401604051809103906103a5610b79565b50505b6103b183610ad5565b1561040b5760405162461bcd60e51b815260206004820152601a60248201527f4d757374206e6f7420626520616e204552433136352068617368000000000000604482015260640160405180910390610408610b79565b50505b6001600160a01b0382161580159061043d57505a610427610be4565b6001600160a01b0316826001600160a01b031614155b156105915760405173455243313832305f4143434550545f4d4147494360601b602082015260340160405160208183030381529060405280519060200120826001600160a01b031663249cb3fa85846040516001600160e01b031960e085901b16815260048101929092526001600160a01b0316602482015260440160206040518083038186806104cc610c2a565b1580156104e1576000806104de610b79565b50505b505a6104eb610c76565b505050505015801561050a573d6000803e3d6000610507610b79565b50505b505050506040513d602081101561052957600080610526610b79565b50505b8101908080519390931492506105919150505760405162461bcd60e51b815260206004820181905260248201527f446f6573206e6f7420696d706c656d656e742074686520696e7465726661636560448201526064016040518091039061058e610b79565b50505b6001600160a01b038116600090815260208190528290604090206000858152602091909152604090206001816105c5610d61565b816001600160a01b0302191690836001600160a01b03160217906105e7610dad565b505050816001600160a01b031683826001600160a01b03167f93baa6efbd2244243bfee6ce4cfdd1d04fc4c0e9a786abd3a41313bd352db15360405160405180910390a450505050565b6001600160a01b038116600090815260016020528060408120600090610655610d61565b906101000a90046001600160a01b03166001600160a01b0316141561067b5750806106b1565b6001600160a01b038216600090815260016020526040902060009061069e610d61565b906101000a90046001600160a01b031690505b919050565b5a6106bf610be4565b6001600160a01b03166106d183610631565b6001600160a01b0316146107265760405162461bcd60e51b815260206004820152600f60248201526e2737ba103a34329036b0b730b3b2b960891b604482015260640160405180910390610723610b79565b50505b816001600160a01b0316816001600160a01b0316146107455780610748565b60005b6001600160a01b038316600090815260016020526040902060018161076b610d61565b816001600160a01b0302191690836001600160a01b031602179061078d610dad565b505050806001600160a01b0316826001600160a01b03167f605c2dbf762e5f7d60a546d42e7205dcb1b011ebc62a61736a57c9089d3a435060405160405180910390a35050565b6000828260405160200180838380828437919091019350604092505050516020818303038152906040528051906020012090505b92915050565b6108188282610980565b610823576000610825565b815b6001600160a01b03831660009081526020819052604090206001600160e01b03198316600090815260209190915260409020600181610862610d61565b816001600160a01b0302191690836001600160a01b0316021790610884610dad565b5050506001600160a01b03821660009081526002602052600190604090206001600160e01b031983166000908152602091909152604090206001816108c7610d61565b8160ff021916908315150217906108dc610dad565b5050505050565b6000806001600160a01b038416156108fb5783610904565b5a610904610be4565b905061090f83610ad5565b15610935578261091f8282610a22565b61092a57600061092c565b815b92505050610808565b6001600160a01b0381166000908152602081905260409020600084815260209190915260409020600090610967610d61565b906101000a90046001600160a01b031691505092915050565b60008080610995856301ffc9a760e01b610ae2565b90925090508115806109a5575080155b156109b557600092505050610808565b6109c7856001600160e01b0319610ae2565b90925090508115806109d857508015155b156109e857600092505050610808565b6109f28585610ae2565b9092509050600182148015610a075750806001145b15610a1757600192505050610808565b506000949350505050565b6001600160a01b03821660009081526002602052604081206001600160e01b03198316600090815260209190915260409020600090610a5f610d61565b906101000a900460ff16610a7e57610a778383610980565b9050610808565b6001600160a01b03831660008181526020819052604090206001600160e01b03198416600090815260209190915260409020600090610abb610d61565b6001600160a01b036101009290920a900416149392505050565b6001600160e01b03161590565b6000806301ffc9a760e01b60405181815284600482015260208160248389617530610b0b610c76565b505050505093508051925050509250929050565b63a8c4c5ec598160e01b8152602081600483336000905af158600e01573d6000803e3d6000fd5b3d6001141558600a015760016000f35b8051935060005b6040811015610b7457600082820152602001610b5d565b505050565b632a2a7adb598160e01b8152600481016020815285602082015260005b86811015610bb1578086015182820160400152602001610b96565b506020828760640184336000905af158600e01573d6000803e3d6000fd5b3d6001141558600a015760016000f35b505050565b6373509064598160e01b8152602081600483336000905af158600e01573d6000803e3d6000fd5b3d6001141558600a015760016000f35b80516000825293506020610b5d565b638435035b598160e01b8152836004820152602081602483336000905af158600e01573d6000803e3d6000fd5b3d6001141558600a015760016000f35b80516000825293506020610b5d565b638540661f598160e01b8152610ca7565b8080831115610808575090919050565b8080831015610808575090919050565b836004820152846024820152606060448201528660648201526084810160005b88811015610cdf578088015182820152602001610cc7565b506060828960a40184336000905af158600e01573d6000803e3d6000fd5b3d6001141558600a015760016000f35b815160408301513d6000853e8b8b82606087013350600060045af15059610d348d3d610c97565b8c01610d408187610c87565b5b82811015610d555760008152602001610d41565b50929c50505050505050565b6303daa959598160e01b8152836004820152602081602483336000905af158600e01573d6000803e3d6000fd5b3d6001141558600a015760016000f35b80516000825293506020610b5d565b6322bd64c0598160e01b8152836004820152846024820152600081604483336000905af158600e01573d6000803e3d6000fd5b3d6001141558600a015760016000f35b600081526020610b5d56",
  "linkReferences": {},
  "deployedLinkReferences": {}
}