{
  "contracts/chugsplash/L1ChugSplashProxy.sol": {
    "L1ChugSplashProxy": {
      "abi": [
        {
          "inputs": [
            {
              "internalType": "address",
              "name": "_owner",
              "type": "address"
            }
          ],
          "stateMutability": "nonpayable",
          "type": "constructor"
        },
        {
          "stateMutability": "payable",
          "type": "fallback"
        },
        {
          "inputs": [],
          "name": "getImplementation",
          "outputs": [
            {
              "internalType": "address",
              "name": "",
              "type": "address"
            }
          ],
          "stateMutability": "nonpayable",
          "type": "function"
        },
        {
          "inputs": [],
          "name": "getOwner",
          "outputs": [
            {
              "internalType": "address",
              "name": "",
              "type": "address"
            }
          ],
          "stateMutability": "nonpayable",
          "type": "function"
        },
        {
          "inputs": [
            {
              "internalType": "bytes",
              "name": "_code",
              "type": "bytes"
            }
          ],
          "name": "setCode",
          "outputs": [],
          "stateMutability": "nonpayable",
          "type": "function"
        },
        {
          "inputs": [
            {
              "internalType": "address",
              "name": "_owner",
              "type": "address"
            }
          ],
          "name": "setOwner",
          "outputs": [],
          "stateMutability": "nonpayable",
          "type": "function"
        },
        {
          "inputs": [
            {
              "internalType": "bytes32",
              "name": "_key",
              "type": "bytes32"
            },
            {
              "internalType": "bytes32",
              "name": "_value",
              "type": "bytes32"
            }
          ],
          "name": "setStorage",
          "outputs": [],
          "stateMutability": "nonpayable",
          "type": "function"
        }
      ],
      "devdoc": {
        "details": "Basic ChugSplash proxy contract for L1. Very close to being a normal proxy but has added functions `setCode` and `setStorage` for changing the code or storage of the contract. Nifty! Note for future developers: do NOT make anything in this contract 'public' unless you know what you're doing. Anything public can potentially have a function signature that conflicts with a signature attached to the implementation contract. Public functions SHOULD always have the 'proxyCallIfNotOwner' modifier unless there's some *really* good reason not to have that modifier. And there almost certainly is not a good reason to not have that modifier. Beware!",
        "kind": "dev",
        "methods": {
          "constructor": {
            "params": {
              "_owner": "Address of the initial contract owner."
            }
          },
          "getImplementation()": {
            "returns": {
              "_0": "Implementation address."
            }
          },
          "getOwner()": {
            "returns": {
              "_0": "Owner address."
            }
          },
          "setCode(bytes)": {
            "params": {
              "_code": "New contract code to run inside this contract."
            }
          },
          "setOwner(address)": {
            "params": {
              "_owner": "New owner of the proxy contract."
            }
          },
          "setStorage(bytes32,bytes32)": {
            "params": {
              "_key": "Storage key to modify.",
              "_value": "New value for the storage key."
            }
          }
        },
        "title": "L1ChugSplashProxy",
        "version": 1
      },
      "evm": {
        "bytecode": {
          "linkReferences": {},
          "object": "608060405234801561001057600080fd5b50604051610a34380380610a3483398101604081905261002f9161005d565b610057817fb53127684a568b3173ae13b9f8a6016e243e63b6e8ee1178d6a717850b5d610355565b5061008d565b60006020828403121561006f57600080fd5b81516001600160a01b038116811461008657600080fd5b9392505050565b6109988061009c6000396000f3fe60806040526004361061005a5760003560e01c8063893d20e811610043578063893d20e8146100a45780639b0b0fda146100e2578063aaf10f42146101025761005a565b806313af4035146100645780636c5d4ad014610084575b610062610117565b005b34801561007057600080fd5b5061006261007f366004610792565b6103ba565b34801561009057600080fd5b5061006261009f3660046107fe565b61044b565b3480156100b057600080fd5b506100b9610601565b60405173ffffffffffffffffffffffffffffffffffffffff909116815260200160405180910390f35b3480156100ee57600080fd5b506100626100fd3660046108cd565b610698565b34801561010e57600080fd5b506100b9610706565b60006101417fb53127684a568b3173ae13b9f8a6016e243e63b6e8ee1178d6a717850b5d61035490565b60408051600481526024810182526020810180517bffffffffffffffffffffffffffffffffffffffffffffffffffffffff167fb7947262000000000000000000000000000000000000000000000000000000001790529051919250600091829173ffffffffffffffffffffffffffffffffffffffff8516916101c3919061092a565b600060405180830381855afa9150503d80600081146101fe576040519150601f19603f3d011682016040523d82523d6000602084013e610203565b606091505b5091509150818015610216575080516020145b156102c8576000818060200190518101906102319190610936565b905080156102c6576040517f08c379a000000000000000000000000000000000000000000000000000000000815260206004820152603560248201527f4c314368756753706c61736850726f78793a2073797374656d2069732063757260448201527f72656e746c79206265696e67207570677261646564000000000000000000000060648201526084015b60405180910390fd5b505b60006102f27f360894a13ba1a3210667c828492db98dca3e2076cc3735a920a3ca505d382bbc5490565b905073ffffffffffffffffffffffffffffffffffffffff8116610397576040517f08c379a000000000000000000000000000000000000000000000000000000000815260206004820152603060248201527f4c314368756753706c61736850726f78793a20696d706c656d656e746174696f60448201527f6e206973206e6f7420736574207965740000000000000000000000000000000060648201526084016102bd565b3660008037600080366000845af43d6000803e806103b4573d6000fd5b503d6000f35b7fb53127684a568b3173ae13b9f8a6016e243e63b6e8ee1178d6a717850b5d61035473ffffffffffffffffffffffffffffffffffffffff163373ffffffffffffffffffffffffffffffffffffffff161480610413575033155b1561044357610440817fb53127684a568b3173ae13b9f8a6016e243e63b6e8ee1178d6a717850b5d610355565b50565b610440610117565b7fb53127684a568b3173ae13b9f8a6016e243e63b6e8ee1178d6a717850b5d61035473ffffffffffffffffffffffffffffffffffffffff163373ffffffffffffffffffffffffffffffffffffffff1614806104a4575033155b156104435760006104d37f360894a13ba1a3210667c828492db98dca3e2076cc3735a920a3ca505d382bbc5490565b9050803f8251602084012014156104e8575050565b60405160009061051e907f600d380380600d6000396000f30000000000000000000000000000000000000090859060200161094f565b604051602081830303815290604052905060008151602083016000f084516020860120909150813f146105d3576040517f08c379a000000000000000000000000000000000000000000000000000000000815260206004820152603360248201527f4c314368756753706c61736850726f78793a20636f646520776173206e6f742060448201527f636f72726563746c79206465706c6f7965642e0000000000000000000000000060648201526084016102bd565b6105fb817f360894a13ba1a3210667c828492db98dca3e2076cc3735a920a3ca505d382bbc55565b50505050565b600061062b7fb53127684a568b3173ae13b9f8a6016e243e63b6e8ee1178d6a717850b5d61035490565b73ffffffffffffffffffffffffffffffffffffffff163373ffffffffffffffffffffffffffffffffffffffff161480610662575033155b1561068d57507fb53127684a568b3173ae13b9f8a6016e243e63b6e8ee1178d6a717850b5d61035490565b610695610117565b90565b7fb53127684a568b3173ae13b9f8a6016e243e63b6e8ee1178d6a717850b5d61035473ffffffffffffffffffffffffffffffffffffffff163373ffffffffffffffffffffffffffffffffffffffff1614806106f1575033155b156106fa579055565b610702610117565b5050565b60006107307fb53127684a568b3173ae13b9f8a6016e243e63b6e8ee1178d6a717850b5d61035490565b73ffffffffffffffffffffffffffffffffffffffff163373ffffffffffffffffffffffffffffffffffffffff161480610767575033155b1561068d57507f360894a13ba1a3210667c828492db98dca3e2076cc3735a920a3ca505d382bbc5490565b6000602082840312156107a457600080fd5b813573ffffffffffffffffffffffffffffffffffffffff811681146107c857600080fd5b9392505050565b7f4e487b7100000000000000000000000000000000000000000000000000000000600052604160045260246000fd5b60006020828403121561081057600080fd5b813567ffffffffffffffff8082111561082857600080fd5b818401915084601f83011261083c57600080fd5b81358181111561084e5761084e6107cf565b604051601f82017fffffffffffffffffffffffffffffffffffffffffffffffffffffffffffffffe0908116603f01168101908382118183101715610894576108946107cf565b816040528281528760208487010111156108ad57600080fd5b826020860160208301376000928101602001929092525095945050505050565b600080604083850312156108e057600080fd5b50508035926020909101359150565b6000815160005b8181101561091057602081850181015186830152016108f6565b8181111561091f576000828601525b509290920192915050565b60006107c882846108ef565b60006020828403121561094857600080fd5b5051919050565b7fffffffffffffffffffffffffff00000000000000000000000000000000000000831681526000610983600d8301846108ef565b94935050505056fea164736f6c6343000809000a",
          "opcodes": "PUSH1 0x80 PUSH1 0x40 MSTORE CALLVALUE DUP1 ISZERO PUSH2 0x10 JUMPI PUSH1 0x0 DUP1 REVERT JUMPDEST POP PUSH1 0x40 MLOAD PUSH2 0xA34 CODESIZE SUB DUP1 PUSH2 0xA34 DUP4 CODECOPY DUP2 ADD PUSH1 0x40 DUP2 SWAP1 MSTORE PUSH2 0x2F SWAP2 PUSH2 0x5D JUMP JUMPDEST PUSH2 0x57 DUP2 PUSH32 0xB53127684A568B3173AE13B9F8A6016E243E63B6E8EE1178D6A717850B5D6103 SSTORE JUMP JUMPDEST POP PUSH2 0x8D JUMP JUMPDEST PUSH1 0x0 PUSH1 0x20 DUP3 DUP5 SUB SLT ISZERO PUSH2 0x6F JUMPI PUSH1 0x0 DUP1 REVERT JUMPDEST DUP2 MLOAD PUSH1 0x1 PUSH1 0x1 PUSH1 0xA0 SHL SUB DUP2 AND DUP2 EQ PUSH2 0x86 JUMPI PUSH1 0x0 DUP1 REVERT JUMPDEST SWAP4 SWAP3 POP POP POP JUMP JUMPDEST PUSH2 0x998 DUP1 PUSH2 0x9C PUSH1 0x0 CODECOPY PUSH1 0x0 RETURN INVALID PUSH1 0x80 PUSH1 0x40 MSTORE PUSH1 0x4 CALLDATASIZE LT PUSH2 0x5A JUMPI PUSH1 0x0 CALLDATALOAD PUSH1 0xE0 SHR DUP1 PUSH4 0x893D20E8 GT PUSH2 0x43 JUMPI DUP1 PUSH4 0x893D20E8 EQ PUSH2 0xA4 JUMPI DUP1 PUSH4 0x9B0B0FDA EQ PUSH2 0xE2 JUMPI DUP1 PUSH4 0xAAF10F42 EQ PUSH2 0x102 JUMPI PUSH2 0x5A JUMP JUMPDEST DUP1 PUSH4 0x13AF4035 EQ PUSH2 0x64 JUMPI DUP1 PUSH4 0x6C5D4AD0 EQ PUSH2 0x84 JUMPI JUMPDEST PUSH2 0x62 PUSH2 0x117 JUMP JUMPDEST STOP JUMPDEST CALLVALUE DUP1 ISZERO PUSH2 0x70 JUMPI PUSH1 0x0 DUP1 REVERT JUMPDEST POP PUSH2 0x62 PUSH2 0x7F CALLDATASIZE PUSH1 0x4 PUSH2 0x792 JUMP JUMPDEST PUSH2 0x3BA JUMP JUMPDEST CALLVALUE DUP1 ISZERO PUSH2 0x90 JUMPI PUSH1 0x0 DUP1 REVERT JUMPDEST POP PUSH2 0x62 PUSH2 0x9F CALLDATASIZE PUSH1 0x4 PUSH2 0x7FE JUMP JUMPDEST PUSH2 0x44B JUMP JUMPDEST CALLVALUE DUP1 ISZERO PUSH2 0xB0 JUMPI PUSH1 0x0 DUP1 REVERT JUMPDEST POP PUSH2 0xB9 PUSH2 0x601 JUMP JUMPDEST PUSH1 0x40 MLOAD PUSH20 0xFFFFFFFFFFFFFFFFFFFFFFFFFFFFFFFFFFFFFFFF SWAP1 SWAP2 AND DUP2 MSTORE PUSH1 0x20 ADD PUSH1 0x40 MLOAD DUP1 SWAP2 SUB SWAP1 RETURN JUMPDEST CALLVALUE DUP1 ISZERO PUSH2 0xEE JUMPI PUSH1 0x0 DUP1 REVERT JUMPDEST POP PUSH2 0x62 PUSH2 0xFD CALLDATASIZE PUSH1 0x4 PUSH2 0x8CD JUMP JUMPDEST PUSH2 0x698 JUMP JUMPDEST CALLVALUE DUP1 ISZERO PUSH2 0x10E JUMPI PUSH1 0x0 DUP1 REVERT JUMPDEST POP PUSH2 0xB9 PUSH2 0x706 JUMP JUMPDEST PUSH1 0x0 PUSH2 0x141 PUSH32 0xB53127684A568B3173AE13B9F8A6016E243E63B6E8EE1178D6A717850B5D6103 SLOAD SWAP1 JUMP JUMPDEST PUSH1 0x40 DUP1 MLOAD PUSH1 0x4 DUP2 MSTORE PUSH1 0x24 DUP2 ADD DUP3 MSTORE PUSH1 0x20 DUP2 ADD DUP1 MLOAD PUSH28 0xFFFFFFFFFFFFFFFFFFFFFFFFFFFFFFFFFFFFFFFFFFFFFFFFFFFFFFFF AND PUSH32 0xB794726200000000000000000000000000000000000000000000000000000000 OR SWAP1 MSTORE SWAP1 MLOAD SWAP2 SWAP3 POP PUSH1 0x0 SWAP2 DUP3 SWAP2 PUSH20 0xFFFFFFFFFFFFFFFFFFFFFFFFFFFFFFFFFFFFFFFF DUP6 AND SWAP2 PUSH2 0x1C3 SWAP2 SWAP1 PUSH2 0x92A JUMP JUMPDEST PUSH1 0x0 PUSH1 0x40 MLOAD DUP1 DUP4 SUB DUP2 DUP6 GAS STATICCALL SWAP2 POP POP RETURNDATASIZE DUP1 PUSH1 0x0 DUP2 EQ PUSH2 0x1FE JUMPI PUSH1 0x40 MLOAD SWAP2 POP PUSH1 0x1F NOT PUSH1 0x3F RETURNDATASIZE ADD AND DUP3 ADD PUSH1 0x40 MSTORE RETURNDATASIZE DUP3 MSTORE RETURNDATASIZE PUSH1 0x0 PUSH1 0x20 DUP5 ADD RETURNDATACOPY PUSH2 0x203 JUMP JUMPDEST PUSH1 0x60 SWAP2 POP JUMPDEST POP SWAP2 POP SWAP2 POP DUP2 DUP1 ISZERO PUSH2 0x216 JUMPI POP DUP1 MLOAD PUSH1 0x20 EQ JUMPDEST ISZERO PUSH2 0x2C8 JUMPI PUSH1 0x0 DUP2 DUP1 PUSH1 0x20 ADD SWAP1 MLOAD DUP2 ADD SWAP1 PUSH2 0x231 SWAP2 SWAP1 PUSH2 0x936 JUMP JUMPDEST SWAP1 POP DUP1 ISZERO PUSH2 0x2C6 JUMPI PUSH1 0x40 MLOAD PUSH32 0x8C379A000000000000000000000000000000000000000000000000000000000 DUP2 MSTORE PUSH1 0x20 PUSH1 0x4 DUP3 ADD MSTORE PUSH1 0x35 PUSH1 0x24 DUP3 ADD MSTORE PUSH32 0x4C314368756753706C61736850726F78793A2073797374656D20697320637572 PUSH1 0x44 DUP3 ADD MSTORE PUSH32 0x72656E746C79206265696E672075706772616465640000000000000000000000 PUSH1 0x64 DUP3 ADD MSTORE PUSH1 0x84 ADD JUMPDEST PUSH1 0x40 MLOAD DUP1 SWAP2 SUB SWAP1 REVERT JUMPDEST POP JUMPDEST PUSH1 0x0 PUSH2 0x2F2 PUSH32 0x360894A13BA1A3210667C828492DB98DCA3E2076CC3735A920A3CA505D382BBC SLOAD SWAP1 JUMP JUMPDEST SWAP1 POP PUSH20 0xFFFFFFFFFFFFFFFFFFFFFFFFFFFFFFFFFFFFFFFF DUP2 AND PUSH2 0x397 JUMPI PUSH1 0x40 MLOAD PUSH32 0x8C379A000000000000000000000000000000000000000000000000000000000 DUP2 MSTORE PUSH1 0x20 PUSH1 0x4 DUP3 ADD MSTORE PUSH1 0x30 PUSH1 0x24 DUP3 ADD MSTORE PUSH32 0x4C314368756753706C61736850726F78793A20696D706C656D656E746174696F PUSH1 0x44 DUP3 ADD MSTORE PUSH32 0x6E206973206E6F74207365742079657400000000000000000000000000000000 PUSH1 0x64 DUP3 ADD MSTORE PUSH1 0x84 ADD PUSH2 0x2BD JUMP JUMPDEST CALLDATASIZE PUSH1 0x0 DUP1 CALLDATACOPY PUSH1 0x0 DUP1 CALLDATASIZE PUSH1 0x0 DUP5 GAS DELEGATECALL RETURNDATASIZE PUSH1 0x0 DUP1 RETURNDATACOPY DUP1 PUSH2 0x3B4 JUMPI RETURNDATASIZE PUSH1 0x0 REVERT JUMPDEST POP RETURNDATASIZE PUSH1 0x0 RETURN JUMPDEST PUSH32 0xB53127684A568B3173AE13B9F8A6016E243E63B6E8EE1178D6A717850B5D6103 SLOAD PUSH20 0xFFFFFFFFFFFFFFFFFFFFFFFFFFFFFFFFFFFFFFFF AND CALLER PUSH20 0xFFFFFFFFFFFFFFFFFFFFFFFFFFFFFFFFFFFFFFFF AND EQ DUP1 PUSH2 0x413 JUMPI POP CALLER ISZERO JUMPDEST ISZERO PUSH2 0x443 JUMPI PUSH2 0x440 DUP2 PUSH32 0xB53127684A568B3173AE13B9F8A6016E243E63B6E8EE1178D6A717850B5D6103 SSTORE JUMP JUMPDEST POP JUMP JUMPDEST PUSH2 0x440 PUSH2 0x117 JUMP JUMPDEST PUSH32 0xB53127684A568B3173AE13B9F8A6016E243E63B6E8EE1178D6A717850B5D6103 SLOAD PUSH20 0xFFFFFFFFFFFFFFFFFFFFFFFFFFFFFFFFFFFFFFFF AND CALLER PUSH20 0xFFFFFFFFFFFFFFFFFFFFFFFFFFFFFFFFFFFFFFFF AND EQ DUP1 PUSH2 0x4A4 JUMPI POP CALLER ISZERO JUMPDEST ISZERO PUSH2 0x443 JUMPI PUSH1 0x0 PUSH2 0x4D3 PUSH32 0x360894A13BA1A3210667C828492DB98DCA3E2076CC3735A920A3CA505D382BBC SLOAD SWAP1 JUMP JUMPDEST SWAP1 POP DUP1 EXTCODEHASH DUP3 MLOAD PUSH1 0x20 DUP5 ADD KECCAK256 EQ ISZERO PUSH2 0x4E8 JUMPI POP POP JUMP JUMPDEST PUSH1 0x40 MLOAD PUSH1 0x0 SWAP1 PUSH2 0x51E SWAP1 PUSH32 0x600D380380600D6000396000F300000000000000000000000000000000000000 SWAP1 DUP6 SWAP1 PUSH1 0x20 ADD PUSH2 0x94F JUMP JUMPDEST PUSH1 0x40 MLOAD PUSH1 0x20 DUP2 DUP4 SUB SUB DUP2 MSTORE SWAP1 PUSH1 0x40 MSTORE SWAP1 POP PUSH1 0x0 DUP2 MLOAD PUSH1 0x20 DUP4 ADD PUSH1 0x0 CREATE DUP5 MLOAD PUSH1 0x20 DUP7 ADD KECCAK256 SWAP1 SWAP2 POP DUP2 EXTCODEHASH EQ PUSH2 0x5D3 JUMPI PUSH1 0x40 MLOAD PUSH32 0x8C379A000000000000000000000000000000000000000000000000000000000 DUP2 MSTORE PUSH1 0x20 PUSH1 0x4 DUP3 ADD MSTORE PUSH1 0x33 PUSH1 0x24 DUP3 ADD MSTORE PUSH32 0x4C314368756753706C61736850726F78793A20636F646520776173206E6F7420 PUSH1 0x44 DUP3 ADD MSTORE PUSH32 0x636F72726563746C79206465706C6F7965642E00000000000000000000000000 PUSH1 0x64 DUP3 ADD MSTORE PUSH1 0x84 ADD PUSH2 0x2BD JUMP JUMPDEST PUSH2 0x5FB DUP2 PUSH32 0x360894A13BA1A3210667C828492DB98DCA3E2076CC3735A920A3CA505D382BBC SSTORE JUMP JUMPDEST POP POP POP POP JUMP JUMPDEST PUSH1 0x0 PUSH2 0x62B PUSH32 0xB53127684A568B3173AE13B9F8A6016E243E63B6E8EE1178D6A717850B5D6103 SLOAD SWAP1 JUMP JUMPDEST PUSH20 0xFFFFFFFFFFFFFFFFFFFFFFFFFFFFFFFFFFFFFFFF AND CALLER PUSH20 0xFFFFFFFFFFFFFFFFFFFFFFFFFFFFFFFFFFFFFFFF AND EQ DUP1 PUSH2 0x662 JUMPI POP CALLER ISZERO JUMPDEST ISZERO PUSH2 0x68D JUMPI POP PUSH32 0xB53127684A568B3173AE13B9F8A6016E243E63B6E8EE1178D6A717850B5D6103 SLOAD SWAP1 JUMP JUMPDEST PUSH2 0x695 PUSH2 0x117 JUMP JUMPDEST SWAP1 JUMP JUMPDEST PUSH32 0xB53127684A568B3173AE13B9F8A6016E243E63B6E8EE1178D6A717850B5D6103 SLOAD PUSH20 0xFFFFFFFFFFFFFFFFFFFFFFFFFFFFFFFFFFFFFFFF AND CALLER PUSH20 0xFFFFFFFFFFFFFFFFFFFFFFFFFFFFFFFFFFFFFFFF AND EQ DUP1 PUSH2 0x6F1 JUMPI POP CALLER ISZERO JUMPDEST ISZERO PUSH2 0x6FA JUMPI SWAP1 SSTORE JUMP JUMPDEST PUSH2 0x702 PUSH2 0x117 JUMP JUMPDEST POP POP JUMP JUMPDEST PUSH1 0x0 PUSH2 0x730 PUSH32 0xB53127684A568B3173AE13B9F8A6016E243E63B6E8EE1178D6A717850B5D6103 SLOAD SWAP1 JUMP JUMPDEST PUSH20 0xFFFFFFFFFFFFFFFFFFFFFFFFFFFFFFFFFFFFFFFF AND CALLER PUSH20 0xFFFFFFFFFFFFFFFFFFFFFFFFFFFFFFFFFFFFFFFF AND EQ DUP1 PUSH2 0x767 JUMPI POP CALLER ISZERO JUMPDEST ISZERO PUSH2 0x68D JUMPI POP PUSH32 0x360894A13BA1A3210667C828492DB98DCA3E2076CC3735A920A3CA505D382BBC SLOAD SWAP1 JUMP JUMPDEST PUSH1 0x0 PUSH1 0x20 DUP3 DUP5 SUB SLT ISZERO PUSH2 0x7A4 JUMPI PUSH1 0x0 DUP1 REVERT JUMPDEST DUP2 CALLDATALOAD PUSH20 0xFFFFFFFFFFFFFFFFFFFFFFFFFFFFFFFFFFFFFFFF DUP2 AND DUP2 EQ PUSH2 0x7C8 JUMPI PUSH1 0x0 DUP1 REVERT JUMPDEST SWAP4 SWAP3 POP POP POP JUMP JUMPDEST PUSH32 0x4E487B7100000000000000000000000000000000000000000000000000000000 PUSH1 0x0 MSTORE PUSH1 0x41 PUSH1 0x4 MSTORE PUSH1 0x24 PUSH1 0x0 REVERT JUMPDEST PUSH1 0x0 PUSH1 0x20 DUP3 DUP5 SUB SLT ISZERO PUSH2 0x810 JUMPI PUSH1 0x0 DUP1 REVERT JUMPDEST DUP2 CALLDATALOAD PUSH8 0xFFFFFFFFFFFFFFFF DUP1 DUP3 GT ISZERO PUSH2 0x828 JUMPI PUSH1 0x0 DUP1 REVERT JUMPDEST DUP2 DUP5 ADD SWAP2 POP DUP5 PUSH1 0x1F DUP4 ADD SLT PUSH2 0x83C JUMPI PUSH1 0x0 DUP1 REVERT JUMPDEST DUP2 CALLDATALOAD DUP2 DUP2 GT ISZERO PUSH2 0x84E JUMPI PUSH2 0x84E PUSH2 0x7CF JUMP JUMPDEST PUSH1 0x40 MLOAD PUSH1 0x1F DUP3 ADD PUSH32 0xFFFFFFFFFFFFFFFFFFFFFFFFFFFFFFFFFFFFFFFFFFFFFFFFFFFFFFFFFFFFFFE0 SWAP1 DUP2 AND PUSH1 0x3F ADD AND DUP2 ADD SWAP1 DUP4 DUP3 GT DUP2 DUP4 LT OR ISZERO PUSH2 0x894 JUMPI PUSH2 0x894 PUSH2 0x7CF JUMP JUMPDEST DUP2 PUSH1 0x40 MSTORE DUP3 DUP2 MSTORE DUP8 PUSH1 0x20 DUP5 DUP8 ADD ADD GT ISZERO PUSH2 0x8AD JUMPI PUSH1 0x0 DUP1 REVERT JUMPDEST DUP3 PUSH1 0x20 DUP7 ADD PUSH1 0x20 DUP4 ADD CALLDATACOPY PUSH1 0x0 SWAP3 DUP2 ADD PUSH1 0x20 ADD SWAP3 SWAP1 SWAP3 MSTORE POP SWAP6 SWAP5 POP POP POP POP POP JUMP JUMPDEST PUSH1 0x0 DUP1 PUSH1 0x40 DUP4 DUP6 SUB SLT ISZERO PUSH2 0x8E0 JUMPI PUSH1 0x0 DUP1 REVERT JUMPDEST POP POP DUP1 CALLDATALOAD SWAP3 PUSH1 0x20 SWAP1 SWAP2 ADD CALLDATALOAD SWAP2 POP JUMP JUMPDEST PUSH1 0x0 DUP2 MLOAD PUSH1 0x0 JUMPDEST DUP2 DUP2 LT ISZERO PUSH2 0x910 JUMPI PUSH1 0x20 DUP2 DUP6 ADD DUP2 ADD MLOAD DUP7 DUP4 ADD MSTORE ADD PUSH2 0x8F6 JUMP JUMPDEST DUP2 DUP2 GT ISZERO PUSH2 0x91F JUMPI PUSH1 0x0 DUP3 DUP7 ADD MSTORE JUMPDEST POP SWAP3 SWAP1 SWAP3 ADD SWAP3 SWAP2 POP POP JUMP JUMPDEST PUSH1 0x0 PUSH2 0x7C8 DUP3 DUP5 PUSH2 0x8EF JUMP JUMPDEST PUSH1 0x0 PUSH1 0x20 DUP3 DUP5 SUB SLT ISZERO PUSH2 0x948 JUMPI PUSH1 0x0 DUP1 REVERT JUMPDEST POP MLOAD SWAP2 SWAP1 POP JUMP JUMPDEST PUSH32 0xFFFFFFFFFFFFFFFFFFFFFFFFFF00000000000000000000000000000000000000 DUP4 AND DUP2 MSTORE PUSH1 0x0 PUSH2 0x983 PUSH1 0xD DUP4 ADD DUP5 PUSH2 0x8EF JUMP JUMPDEST SWAP5 SWAP4 POP POP POP POP JUMP INVALID LOG1 PUSH5 0x736F6C6343 STOP ADDMOD MULMOD STOP EXP "
        },
        "gasEstimates": {
          "creation": {
            "codeDepositCost": "491200",
            "executionCost": "infinite",
            "totalCost": "infinite"
          },
          "external": {
            "": "infinite",
            "getImplementation()": "infinite",
            "getOwner()": "infinite",
            "setCode(bytes)": "infinite",
            "setOwner(address)": "infinite",
            "setStorage(bytes32,bytes32)": "infinite"
          },
          "internal": {
            "_doProxyCall()": "infinite",
            "_getAccountCodeHash(address)": "infinite",
            "_getImplementation()": "infinite",
            "_getOwner()": "infinite",
            "_setImplementation(address)": "infinite",
            "_setOwner(address)": "infinite"
          }
        },
        "methodIdentifiers": {
          "getImplementation()": "aaf10f42",
          "getOwner()": "893d20e8",
          "setCode(bytes)": "6c5d4ad0",
          "setOwner(address)": "13af4035",
          "setStorage(bytes32,bytes32)": "9b0b0fda"
        }
      },
      "storageLayout": {
        "storage": [],
        "types": null
      },
      "userdoc": {
        "kind": "user",
        "methods": {
          "getImplementation()": {
            "notice": "Queries the implementation address. Can only be called by the owner OR by making an eth_call and setting the \"from\" address to address(0)."
          },
          "getOwner()": {
            "notice": "Queries the owner of the proxy contract. Can only be called by the owner OR by making an eth_call and setting the \"from\" address to address(0)."
          },
          "setCode(bytes)": {
            "notice": "Sets the code that should be running behind this proxy. Note that this scheme is a bit different from the standard proxy scheme where one would typically deploy the code separately and then set the implementation address. We're doing it this way because it gives us a lot more freedom on the client side. Can only be triggered by the contract owner."
          },
          "setOwner(address)": {
            "notice": "Changes the owner of the proxy contract. Only callable by the owner."
          },
          "setStorage(bytes32,bytes32)": {
            "notice": "Modifies some storage slot within the proxy contract. Gives us a lot of power to perform upgrades in a more transparent way. Only callable by the owner."
          }
        },
        "version": 1
      }
    }
  }
}