{
  "contracts/L2/predeploys/OVM_DeployerWhitelist.sol": {
    "OVM_DeployerWhitelist": {
      "abi": [
        {
          "anonymous": false,
          "inputs": [
            {
              "indexed": false,
              "internalType": "address",
              "name": "oldOwner",
              "type": "address"
            },
            {
              "indexed": false,
              "internalType": "address",
              "name": "newOwner",
              "type": "address"
            }
          ],
          "name": "OwnerChanged",
          "type": "event"
        },
        {
          "anonymous": false,
          "inputs": [
            {
              "indexed": false,
              "internalType": "address",
              "name": "oldOwner",
              "type": "address"
            }
          ],
          "name": "WhitelistDisabled",
          "type": "event"
        },
        {
          "anonymous": false,
          "inputs": [
            {
              "indexed": false,
              "internalType": "address",
              "name": "deployer",
              "type": "address"
            },
            {
              "indexed": false,
              "internalType": "bool",
              "name": "whitelisted",
              "type": "bool"
            }
          ],
          "name": "WhitelistStatusChanged",
          "type": "event"
        },
        {
          "inputs": [],
          "name": "enableArbitraryContractDeployment",
          "outputs": [],
          "stateMutability": "nonpayable",
          "type": "function"
        },
        {
          "inputs": [
            {
              "internalType": "address",
              "name": "_deployer",
              "type": "address"
            }
          ],
          "name": "isDeployerAllowed",
          "outputs": [
            {
              "internalType": "bool",
              "name": "",
              "type": "bool"
            }
          ],
          "stateMutability": "view",
          "type": "function"
        },
        {
          "inputs": [],
          "name": "owner",
          "outputs": [
            {
              "internalType": "address",
              "name": "",
              "type": "address"
            }
          ],
          "stateMutability": "view",
          "type": "function"
        },
        {
          "inputs": [
            {
              "internalType": "address",
              "name": "_owner",
              "type": "address"
            }
          ],
          "name": "setOwner",
          "outputs": [],
          "stateMutability": "nonpayable",
          "type": "function"
        },
        {
          "inputs": [
            {
              "internalType": "address",
              "name": "_deployer",
              "type": "address"
            },
            {
              "internalType": "bool",
              "name": "_isWhitelisted",
              "type": "bool"
            }
          ],
          "name": "setWhitelistedDeployer",
          "outputs": [],
          "stateMutability": "nonpayable",
          "type": "function"
        },
        {
          "inputs": [
            {
              "internalType": "address",
              "name": "",
              "type": "address"
            }
          ],
          "name": "whitelist",
          "outputs": [
            {
              "internalType": "bool",
              "name": "",
              "type": "bool"
            }
          ],
          "stateMutability": "view",
          "type": "function"
        }
      ],
      "devdoc": {
        "details": "The Deployer Whitelist is a temporary predeploy used to provide additional safety during the initial phases of our mainnet roll out. It is owned by the Optimism team, and defines accounts which are allowed to deploy contracts on Layer2. The Execution Manager will only allow an ovmCREATE or ovmCREATE2 operation to proceed if the deployer's address whitelisted.",
        "kind": "dev",
        "methods": {
          "isDeployerAllowed(address)": {
            "params": {
              "_deployer": "Address to check."
            },
            "returns": {
              "_0": "_allowed Whether or not the address can deploy contracts."
            }
          },
          "setOwner(address)": {
            "params": {
              "_owner": "Address of the new owner."
            }
          },
          "setWhitelistedDeployer(address,bool)": {
            "params": {
              "_deployer": "Address to update permissions for.",
              "_isWhitelisted": "Whether or not the address is whitelisted."
            }
          }
        },
        "title": "OVM_DeployerWhitelist",
        "version": 1
      },
      "evm": {
        "bytecode": {
          "linkReferences": {},
          "object": "608060405234801561001057600080fd5b5061067f806100206000396000f3fe608060405234801561001057600080fd5b50600436106100725760003560e01c80639b19251a116100505780639b19251a146100e9578063b1540a011461011c578063bdc7b54f1461012f57600080fd5b806308fd63221461007757806313af40351461008c5780638da5cb5b1461009f575b600080fd5b61008a610085366004610614565b610137565b005b61008a61009a366004610650565b610271565b6000546100bf9073ffffffffffffffffffffffffffffffffffffffff1681565b60405173ffffffffffffffffffffffffffffffffffffffff90911681526020015b60405180910390f35b61010c6100f7366004610650565b60016020526000908152604090205460ff1681565b60405190151581526020016100e0565b61010c61012a366004610650565b61047c565b61008a6104cd565b60005473ffffffffffffffffffffffffffffffffffffffff1633146101e3576040517f08c379a000000000000000000000000000000000000000000000000000000000815260206004820152603a60248201527f46756e6374696f6e2063616e206f6e6c792062652063616c6c6564206279207460448201527f6865206f776e6572206f66207468697320636f6e74726163742e00000000000060648201526084015b60405180910390fd5b73ffffffffffffffffffffffffffffffffffffffff821660008181526001602090815260409182902080547fffffffffffffffffffffffffffffffffffffffffffffffffffffffffffffff00168515159081179091558251938452908301527f8daaf060c3306c38e068a75c054bf96ecd85a3db1252712c4d93632744c42e0d910160405180910390a15050565b60005473ffffffffffffffffffffffffffffffffffffffff163314610318576040517f08c379a000000000000000000000000000000000000000000000000000000000815260206004820152603a60248201527f46756e6374696f6e2063616e206f6e6c792062652063616c6c6564206279207460448201527f6865206f776e6572206f66207468697320636f6e74726163742e00000000000060648201526084016101da565b73ffffffffffffffffffffffffffffffffffffffff81166103e1576040517f08c379a000000000000000000000000000000000000000000000000000000000815260206004820152605b60248201527f4f564d5f4465706c6f79657257686974656c6973743a2077686974656c69737460448201527f2063616e206f6e6c792062652064697361626c65642076696120656e61626c6560648201527f417262697472617279436f6e74726163744465706c6f796d656e740000000000608482015260a4016101da565b6000546040805173ffffffffffffffffffffffffffffffffffffffff928316815291831660208301527fb532073b38c83145e3e5135377a08bf9aab55bc0fd7c1179cd4fb995d2a5159c910160405180910390a1600080547fffffffffffffffffffffffff00000000000000000000000000000000000000001673ffffffffffffffffffffffffffffffffffffffff92909216919091179055565b6000805473ffffffffffffffffffffffffffffffffffffffff1615806104c7575073ffffffffffffffffffffffffffffffffffffffff821660009081526001602052604090205460ff165b92915050565b60005473ffffffffffffffffffffffffffffffffffffffff163314610574576040517f08c379a000000000000000000000000000000000000000000000000000000000815260206004820152603a60248201527f46756e6374696f6e2063616e206f6e6c792062652063616c6c6564206279207460448201527f6865206f776e6572206f66207468697320636f6e74726163742e00000000000060648201526084016101da565b60005460405173ffffffffffffffffffffffffffffffffffffffff90911681527fc0e106cf568e50698fdbde1eff56f5a5c966cc7958e37e276918e9e4ccdf8cd49060200160405180910390a1600080547fffffffffffffffffffffffff0000000000000000000000000000000000000000169055565b803573ffffffffffffffffffffffffffffffffffffffff8116811461060f57600080fd5b919050565b6000806040838503121561062757600080fd5b610630836105eb565b91506020830135801515811461064557600080fd5b809150509250929050565b60006020828403121561066257600080fd5b61066b826105eb565b939250505056fea164736f6c6343000809000a",
          "opcodes": "PUSH1 0x80 PUSH1 0x40 MSTORE CALLVALUE DUP1 ISZERO PUSH2 0x10 JUMPI PUSH1 0x0 DUP1 REVERT JUMPDEST POP PUSH2 0x67F DUP1 PUSH2 0x20 PUSH1 0x0 CODECOPY PUSH1 0x0 RETURN INVALID PUSH1 0x80 PUSH1 0x40 MSTORE CALLVALUE DUP1 ISZERO PUSH2 0x10 JUMPI PUSH1 0x0 DUP1 REVERT JUMPDEST POP PUSH1 0x4 CALLDATASIZE LT PUSH2 0x72 JUMPI PUSH1 0x0 CALLDATALOAD PUSH1 0xE0 SHR DUP1 PUSH4 0x9B19251A GT PUSH2 0x50 JUMPI DUP1 PUSH4 0x9B19251A EQ PUSH2 0xE9 JUMPI DUP1 PUSH4 0xB1540A01 EQ PUSH2 0x11C JUMPI DUP1 PUSH4 0xBDC7B54F EQ PUSH2 0x12F JUMPI PUSH1 0x0 DUP1 REVERT JUMPDEST DUP1 PUSH4 0x8FD6322 EQ PUSH2 0x77 JUMPI DUP1 PUSH4 0x13AF4035 EQ PUSH2 0x8C JUMPI DUP1 PUSH4 0x8DA5CB5B EQ PUSH2 0x9F JUMPI JUMPDEST PUSH1 0x0 DUP1 REVERT JUMPDEST PUSH2 0x8A PUSH2 0x85 CALLDATASIZE PUSH1 0x4 PUSH2 0x614 JUMP JUMPDEST PUSH2 0x137 JUMP JUMPDEST STOP JUMPDEST PUSH2 0x8A PUSH2 0x9A CALLDATASIZE PUSH1 0x4 PUSH2 0x650 JUMP JUMPDEST PUSH2 0x271 JUMP JUMPDEST PUSH1 0x0 SLOAD PUSH2 0xBF SWAP1 PUSH20 0xFFFFFFFFFFFFFFFFFFFFFFFFFFFFFFFFFFFFFFFF AND DUP2 JUMP JUMPDEST PUSH1 0x40 MLOAD PUSH20 0xFFFFFFFFFFFFFFFFFFFFFFFFFFFFFFFFFFFFFFFF SWAP1 SWAP2 AND DUP2 MSTORE PUSH1 0x20 ADD JUMPDEST PUSH1 0x40 MLOAD DUP1 SWAP2 SUB SWAP1 RETURN JUMPDEST PUSH2 0x10C PUSH2 0xF7 CALLDATASIZE PUSH1 0x4 PUSH2 0x650 JUMP JUMPDEST PUSH1 0x1 PUSH1 0x20 MSTORE PUSH1 0x0 SWAP1 DUP2 MSTORE PUSH1 0x40 SWAP1 KECCAK256 SLOAD PUSH1 0xFF AND DUP2 JUMP JUMPDEST PUSH1 0x40 MLOAD SWAP1 ISZERO ISZERO DUP2 MSTORE PUSH1 0x20 ADD PUSH2 0xE0 JUMP JUMPDEST PUSH2 0x10C PUSH2 0x12A CALLDATASIZE PUSH1 0x4 PUSH2 0x650 JUMP JUMPDEST PUSH2 0x47C JUMP JUMPDEST PUSH2 0x8A PUSH2 0x4CD JUMP JUMPDEST PUSH1 0x0 SLOAD PUSH20 0xFFFFFFFFFFFFFFFFFFFFFFFFFFFFFFFFFFFFFFFF AND CALLER EQ PUSH2 0x1E3 JUMPI PUSH1 0x40 MLOAD PUSH32 0x8C379A000000000000000000000000000000000000000000000000000000000 DUP2 MSTORE PUSH1 0x20 PUSH1 0x4 DUP3 ADD MSTORE PUSH1 0x3A PUSH1 0x24 DUP3 ADD MSTORE PUSH32 0x46756E6374696F6E2063616E206F6E6C792062652063616C6C65642062792074 PUSH1 0x44 DUP3 ADD MSTORE PUSH32 0x6865206F776E6572206F66207468697320636F6E74726163742E000000000000 PUSH1 0x64 DUP3 ADD MSTORE PUSH1 0x84 ADD JUMPDEST PUSH1 0x40 MLOAD DUP1 SWAP2 SUB SWAP1 REVERT JUMPDEST PUSH20 0xFFFFFFFFFFFFFFFFFFFFFFFFFFFFFFFFFFFFFFFF DUP3 AND PUSH1 0x0 DUP2 DUP2 MSTORE PUSH1 0x1 PUSH1 0x20 SWAP1 DUP2 MSTORE PUSH1 0x40 SWAP2 DUP3 SWAP1 KECCAK256 DUP1 SLOAD PUSH32 0xFFFFFFFFFFFFFFFFFFFFFFFFFFFFFFFFFFFFFFFFFFFFFFFFFFFFFFFFFFFFFF00 AND DUP6 ISZERO ISZERO SWAP1 DUP2 OR SWAP1 SWAP2 SSTORE DUP3 MLOAD SWAP4 DUP5 MSTORE SWAP1 DUP4 ADD MSTORE PUSH32 0x8DAAF060C3306C38E068A75C054BF96ECD85A3DB1252712C4D93632744C42E0D SWAP2 ADD PUSH1 0x40 MLOAD DUP1 SWAP2 SUB SWAP1 LOG1 POP POP JUMP JUMPDEST PUSH1 0x0 SLOAD PUSH20 0xFFFFFFFFFFFFFFFFFFFFFFFFFFFFFFFFFFFFFFFF AND CALLER EQ PUSH2 0x318 JUMPI PUSH1 0x40 MLOAD PUSH32 0x8C379A000000000000000000000000000000000000000000000000000000000 DUP2 MSTORE PUSH1 0x20 PUSH1 0x4 DUP3 ADD MSTORE PUSH1 0x3A PUSH1 0x24 DUP3 ADD MSTORE PUSH32 0x46756E6374696F6E2063616E206F6E6C792062652063616C6C65642062792074 PUSH1 0x44 DUP3 ADD MSTORE PUSH32 0x6865206F776E6572206F66207468697320636F6E74726163742E000000000000 PUSH1 0x64 DUP3 ADD MSTORE PUSH1 0x84 ADD PUSH2 0x1DA JUMP JUMPDEST PUSH20 0xFFFFFFFFFFFFFFFFFFFFFFFFFFFFFFFFFFFFFFFF DUP2 AND PUSH2 0x3E1 JUMPI PUSH1 0x40 MLOAD PUSH32 0x8C379A000000000000000000000000000000000000000000000000000000000 DUP2 MSTORE PUSH1 0x20 PUSH1 0x4 DUP3 ADD MSTORE PUSH1 0x5B PUSH1 0x24 DUP3 ADD MSTORE PUSH32 0x4F564D5F4465706C6F79657257686974656C6973743A2077686974656C697374 PUSH1 0x44 DUP3 ADD MSTORE PUSH32 0x2063616E206F6E6C792062652064697361626C65642076696120656E61626C65 PUSH1 0x64 DUP3 ADD MSTORE PUSH32 0x417262697472617279436F6E74726163744465706C6F796D656E740000000000 PUSH1 0x84 DUP3 ADD MSTORE PUSH1 0xA4 ADD PUSH2 0x1DA JUMP JUMPDEST PUSH1 0x0 SLOAD PUSH1 0x40 DUP1 MLOAD PUSH20 0xFFFFFFFFFFFFFFFFFFFFFFFFFFFFFFFFFFFFFFFF SWAP3 DUP4 AND DUP2 MSTORE SWAP2 DUP4 AND PUSH1 0x20 DUP4 ADD MSTORE PUSH32 0xB532073B38C83145E3E5135377A08BF9AAB55BC0FD7C1179CD4FB995D2A5159C SWAP2 ADD PUSH1 0x40 MLOAD DUP1 SWAP2 SUB SWAP1 LOG1 PUSH1 0x0 DUP1 SLOAD PUSH32 0xFFFFFFFFFFFFFFFFFFFFFFFF0000000000000000000000000000000000000000 AND PUSH20 0xFFFFFFFFFFFFFFFFFFFFFFFFFFFFFFFFFFFFFFFF SWAP3 SWAP1 SWAP3 AND SWAP2 SWAP1 SWAP2 OR SWAP1 SSTORE JUMP JUMPDEST PUSH1 0x0 DUP1 SLOAD PUSH20 0xFFFFFFFFFFFFFFFFFFFFFFFFFFFFFFFFFFFFFFFF AND ISZERO DUP1 PUSH2 0x4C7 JUMPI POP PUSH20 0xFFFFFFFFFFFFFFFFFFFFFFFFFFFFFFFFFFFFFFFF DUP3 AND PUSH1 0x0 SWAP1 DUP2 MSTORE PUSH1 0x1 PUSH1 0x20 MSTORE PUSH1 0x40 SWAP1 KECCAK256 SLOAD PUSH1 0xFF AND JUMPDEST SWAP3 SWAP2 POP POP JUMP JUMPDEST PUSH1 0x0 SLOAD PUSH20 0xFFFFFFFFFFFFFFFFFFFFFFFFFFFFFFFFFFFFFFFF AND CALLER EQ PUSH2 0x574 JUMPI PUSH1 0x40 MLOAD PUSH32 0x8C379A000000000000000000000000000000000000000000000000000000000 DUP2 MSTORE PUSH1 0x20 PUSH1 0x4 DUP3 ADD MSTORE PUSH1 0x3A PUSH1 0x24 DUP3 ADD MSTORE PUSH32 0x46756E6374696F6E2063616E206F6E6C792062652063616C6C65642062792074 PUSH1 0x44 DUP3 ADD MSTORE PUSH32 0x6865206F776E6572206F66207468697320636F6E74726163742E000000000000 PUSH1 0x64 DUP3 ADD MSTORE PUSH1 0x84 ADD PUSH2 0x1DA JUMP JUMPDEST PUSH1 0x0 SLOAD PUSH1 0x40 MLOAD PUSH20 0xFFFFFFFFFFFFFFFFFFFFFFFFFFFFFFFFFFFFFFFF SWAP1 SWAP2 AND DUP2 MSTORE PUSH32 0xC0E106CF568E50698FDBDE1EFF56F5A5C966CC7958E37E276918E9E4CCDF8CD4 SWAP1 PUSH1 0x20 ADD PUSH1 0x40 MLOAD DUP1 SWAP2 SUB SWAP1 LOG1 PUSH1 0x0 DUP1 SLOAD PUSH32 0xFFFFFFFFFFFFFFFFFFFFFFFF0000000000000000000000000000000000000000 AND SWAP1 SSTORE JUMP JUMPDEST DUP1 CALLDATALOAD PUSH20 0xFFFFFFFFFFFFFFFFFFFFFFFFFFFFFFFFFFFFFFFF DUP2 AND DUP2 EQ PUSH2 0x60F JUMPI PUSH1 0x0 DUP1 REVERT JUMPDEST SWAP2 SWAP1 POP JUMP JUMPDEST PUSH1 0x0 DUP1 PUSH1 0x40 DUP4 DUP6 SUB SLT ISZERO PUSH2 0x627 JUMPI PUSH1 0x0 DUP1 REVERT JUMPDEST PUSH2 0x630 DUP4 PUSH2 0x5EB JUMP JUMPDEST SWAP2 POP PUSH1 0x20 DUP4 ADD CALLDATALOAD DUP1 ISZERO ISZERO DUP2 EQ PUSH2 0x645 JUMPI PUSH1 0x0 DUP1 REVERT JUMPDEST DUP1 SWAP2 POP POP SWAP3 POP SWAP3 SWAP1 POP JUMP JUMPDEST PUSH1 0x0 PUSH1 0x20 DUP3 DUP5 SUB SLT ISZERO PUSH2 0x662 JUMPI PUSH1 0x0 DUP1 REVERT JUMPDEST PUSH2 0x66B DUP3 PUSH2 0x5EB JUMP JUMPDEST SWAP4 SWAP3 POP POP POP JUMP INVALID LOG1 PUSH5 0x736F6C6343 STOP ADDMOD MULMOD STOP EXP "
        },
        "gasEstimates": {
          "creation": {
            "codeDepositCost": "332600",
            "executionCost": "368",
            "totalCost": "332968"
          },
          "external": {
            "enableArbitraryContractDeployment()": "29700",
            "isDeployerAllowed(address)": "4703",
            "owner()": "2347",
            "setOwner(address)": "30155",
            "setWhitelistedDeployer(address,bool)": "28131",
            "whitelist(address)": "2519"
          }
        },
        "methodIdentifiers": {
          "enableArbitraryContractDeployment()": "bdc7b54f",
          "isDeployerAllowed(address)": "b1540a01",
          "owner()": "8da5cb5b",
          "setOwner(address)": "13af4035",
          "setWhitelistedDeployer(address,bool)": "08fd6322",
          "whitelist(address)": "9b19251a"
        }
      },
      "storageLayout": {
        "storage": [
          {
            "astId": 20,
            "contract": "contracts/L2/predeploys/OVM_DeployerWhitelist.sol:OVM_DeployerWhitelist",
            "label": "owner",
            "offset": 0,
            "slot": "0",
            "type": "t_address"
          },
          {
            "astId": 24,
            "contract": "contracts/L2/predeploys/OVM_DeployerWhitelist.sol:OVM_DeployerWhitelist",
            "label": "whitelist",
            "offset": 0,
            "slot": "1",
            "type": "t_mapping(t_address,t_bool)"
          }
        ],
        "types": {
          "t_address": {
            "encoding": "inplace",
            "label": "address",
            "numberOfBytes": "20"
          },
          "t_bool": {
            "encoding": "inplace",
            "label": "bool",
            "numberOfBytes": "1"
          },
          "t_mapping(t_address,t_bool)": {
            "encoding": "mapping",
            "key": "t_address",
            "label": "mapping(address => bool)",
            "numberOfBytes": "32",
            "value": "t_bool"
          }
        }
      },
      "userdoc": {
        "kind": "user",
        "methods": {
          "enableArbitraryContractDeployment()": {
            "notice": "Permanently enables arbitrary contract deployment and deletes the owner."
          },
          "isDeployerAllowed(address)": {
            "notice": "Checks whether an address is allowed to deploy contracts."
          },
          "setOwner(address)": {
            "notice": "Updates the owner of this contract."
          },
          "setWhitelistedDeployer(address,bool)": {
            "notice": "Adds or removes an address from the deployment whitelist."
          }
        },
        "version": 1
      }
    }
  }
}