{
  "_format": "hh-sol-artifact-1",
  "contractName": "L1CrossDomainMessenger",
  "sourceName": "contracts/L1/messaging/L1CrossDomainMessenger.sol",
  "abi": [
    {
      "inputs": [],
      "stateMutability": "nonpayable",
      "type": "constructor"
    },
    {
      "anonymous": false,
      "inputs": [
        {
          "indexed": true,
          "internalType": "bytes32",
          "name": "msgHash",
          "type": "bytes32"
        }
      ],
      "name": "FailedRelayedMessage",
      "type": "event"
    },
    {
      "anonymous": false,
      "inputs": [
        {
          "indexed": true,
          "internalType": "bytes32",
          "name": "_xDomainCalldataHash",
          "type": "bytes32"
        }
      ],
      "name": "MessageAllowed",
      "type": "event"
    },
    {
      "anonymous": false,
      "inputs": [
        {
          "indexed": true,
          "internalType": "bytes32",
          "name": "_xDomainCalldataHash",
          "type": "bytes32"
        }
      ],
      "name": "MessageBlocked",
      "type": "event"
    },
    {
      "anonymous": false,
      "inputs": [
        {
          "indexed": true,
          "internalType": "address",
          "name": "previousOwner",
          "type": "address"
        },
        {
          "indexed": true,
          "internalType": "address",
          "name": "newOwner",
          "type": "address"
        }
      ],
      "name": "OwnershipTransferred",
      "type": "event"
    },
    {
      "anonymous": false,
      "inputs": [
        {
          "indexed": false,
          "internalType": "address",
          "name": "account",
          "type": "address"
        }
      ],
      "name": "Paused",
      "type": "event"
    },
    {
      "anonymous": false,
      "inputs": [
        {
          "indexed": true,
          "internalType": "bytes32",
          "name": "msgHash",
          "type": "bytes32"
        }
      ],
      "name": "RelayedMessage",
      "type": "event"
    },
    {
      "anonymous": false,
      "inputs": [
        {
          "indexed": true,
          "internalType": "address",
          "name": "target",
          "type": "address"
        },
        {
          "indexed": false,
          "internalType": "address",
          "name": "sender",
          "type": "address"
        },
        {
          "indexed": false,
          "internalType": "bytes",
          "name": "message",
          "type": "bytes"
        },
        {
          "indexed": false,
          "internalType": "uint256",
          "name": "messageNonce",
          "type": "uint256"
        },
        {
          "indexed": false,
          "internalType": "uint256",
          "name": "gasLimit",
          "type": "uint256"
        }
      ],
      "name": "SentMessage",
      "type": "event"
    },
    {
      "anonymous": false,
      "inputs": [
        {
          "indexed": false,
          "internalType": "address",
          "name": "account",
          "type": "address"
        }
      ],
      "name": "Unpaused",
      "type": "event"
    },
    {
      "inputs": [
        {
          "internalType": "bytes32",
          "name": "_xDomainCalldataHash",
          "type": "bytes32"
        }
      ],
      "name": "allowMessage",
      "outputs": [],
      "stateMutability": "nonpayable",
      "type": "function"
    },
    {
      "inputs": [
        {
          "internalType": "bytes32",
          "name": "_xDomainCalldataHash",
          "type": "bytes32"
        }
      ],
      "name": "blockMessage",
      "outputs": [],
      "stateMutability": "nonpayable",
      "type": "function"
    },
    {
      "inputs": [
        {
          "internalType": "bytes32",
          "name": "",
          "type": "bytes32"
        }
      ],
      "name": "blockedMessages",
      "outputs": [
        {
          "internalType": "bool",
          "name": "",
          "type": "bool"
        }
      ],
      "stateMutability": "view",
      "type": "function"
    },
    {
      "inputs": [
        {
          "internalType": "bytes32",
          "name": "",
          "type": "bytes32"
        }
      ],
      "name": "failedMessages",
      "outputs": [
        {
          "internalType": "bool",
          "name": "",
          "type": "bool"
        }
      ],
      "stateMutability": "view",
      "type": "function"
    },
    {
      "inputs": [
        {
          "internalType": "address",
          "name": "_libAddressManager",
          "type": "address"
        }
      ],
      "name": "initialize",
      "outputs": [],
      "stateMutability": "nonpayable",
      "type": "function"
    },
    {
      "inputs": [],
      "name": "libAddressManager",
      "outputs": [
        {
          "internalType": "contract Lib_AddressManager",
          "name": "",
          "type": "address"
        }
      ],
      "stateMutability": "view",
      "type": "function"
    },
    {
      "inputs": [],
      "name": "owner",
      "outputs": [
        {
          "internalType": "address",
          "name": "",
          "type": "address"
        }
      ],
      "stateMutability": "view",
      "type": "function"
    },
    {
      "inputs": [],
      "name": "pause",
      "outputs": [],
      "stateMutability": "nonpayable",
      "type": "function"
    },
    {
      "inputs": [],
      "name": "paused",
      "outputs": [
        {
          "internalType": "bool",
          "name": "",
          "type": "bool"
        }
      ],
      "stateMutability": "view",
      "type": "function"
    },
    {
      "inputs": [
        {
          "internalType": "address",
          "name": "_target",
          "type": "address"
        },
        {
          "internalType": "address",
          "name": "_sender",
          "type": "address"
        },
        {
          "internalType": "bytes",
          "name": "_message",
          "type": "bytes"
        },
        {
          "internalType": "uint256",
          "name": "_messageNonce",
          "type": "uint256"
        },
        {
          "components": [
            {
              "internalType": "bytes32",
              "name": "stateRoot",
              "type": "bytes32"
            },
            {
              "components": [
                {
                  "internalType": "uint256",
                  "name": "batchIndex",
                  "type": "uint256"
                },
                {
                  "internalType": "bytes32",
                  "name": "batchRoot",
                  "type": "bytes32"
                },
                {
                  "internalType": "uint256",
                  "name": "batchSize",
                  "type": "uint256"
                },
                {
                  "internalType": "uint256",
                  "name": "prevTotalElements",
                  "type": "uint256"
                },
                {
                  "internalType": "bytes",
                  "name": "extraData",
                  "type": "bytes"
                }
              ],
              "internalType": "struct Lib_OVMCodec.ChainBatchHeader",
              "name": "stateRootBatchHeader",
              "type": "tuple"
            },
            {
              "components": [
                {
                  "internalType": "uint256",
                  "name": "index",
                  "type": "uint256"
                },
                {
                  "internalType": "bytes32[]",
                  "name": "siblings",
                  "type": "bytes32[]"
                }
              ],
              "internalType": "struct Lib_OVMCodec.ChainInclusionProof",
              "name": "stateRootProof",
              "type": "tuple"
            },
            {
              "internalType": "bytes",
              "name": "stateTrieWitness",
              "type": "bytes"
            },
            {
              "internalType": "bytes",
              "name": "storageTrieWitness",
              "type": "bytes"
            }
          ],
          "internalType": "struct IL1CrossDomainMessenger.L2MessageInclusionProof",
          "name": "_proof",
          "type": "tuple"
        }
      ],
      "name": "relayMessage",
      "outputs": [],
      "stateMutability": "nonpayable",
      "type": "function"
    },
    {
      "inputs": [
        {
          "internalType": "bytes32",
          "name": "",
          "type": "bytes32"
        }
      ],
      "name": "relayedMessages",
      "outputs": [
        {
          "internalType": "bool",
          "name": "",
          "type": "bool"
        }
      ],
      "stateMutability": "view",
      "type": "function"
    },
    {
      "inputs": [],
      "name": "renounceOwnership",
      "outputs": [],
      "stateMutability": "nonpayable",
      "type": "function"
    },
    {
      "inputs": [
        {
          "internalType": "address",
          "name": "_target",
          "type": "address"
        },
        {
          "internalType": "address",
          "name": "_sender",
          "type": "address"
        },
        {
          "internalType": "bytes",
          "name": "_message",
          "type": "bytes"
        },
        {
          "internalType": "uint256",
          "name": "_queueIndex",
          "type": "uint256"
        },
        {
          "internalType": "uint32",
          "name": "_oldGasLimit",
          "type": "uint32"
        },
        {
          "internalType": "uint32",
          "name": "_newGasLimit",
          "type": "uint32"
        }
      ],
      "name": "replayMessage",
      "outputs": [],
      "stateMutability": "nonpayable",
      "type": "function"
    },
    {
      "inputs": [
        {
          "internalType": "string",
          "name": "_name",
          "type": "string"
        }
      ],
      "name": "resolve",
      "outputs": [
        {
          "internalType": "address",
          "name": "",
          "type": "address"
        }
      ],
      "stateMutability": "view",
      "type": "function"
    },
    {
      "inputs": [
        {
          "internalType": "address",
          "name": "_target",
          "type": "address"
        },
        {
          "internalType": "bytes",
          "name": "_message",
          "type": "bytes"
        },
        {
          "internalType": "uint32",
          "name": "_gasLimit",
          "type": "uint32"
        }
      ],
      "name": "sendMessage",
      "outputs": [],
      "stateMutability": "nonpayable",
      "type": "function"
    },
    {
      "inputs": [
        {
          "internalType": "bytes32",
          "name": "",
          "type": "bytes32"
        }
      ],
      "name": "successfulMessages",
      "outputs": [
        {
          "internalType": "bool",
          "name": "",
          "type": "bool"
        }
      ],
      "stateMutability": "view",
      "type": "function"
    },
    {
      "inputs": [
        {
          "internalType": "address",
          "name": "newOwner",
          "type": "address"
        }
      ],
      "name": "transferOwnership",
      "outputs": [],
      "stateMutability": "nonpayable",
      "type": "function"
    },
    {
      "inputs": [],
      "name": "xDomainMessageSender",
      "outputs": [
        {
          "internalType": "address",
          "name": "",
          "type": "address"
        }
      ],
      "stateMutability": "view",
      "type": "function"
    }
  ],
  "bytecode": "0x608060405260cd80546001600160a01b03191661dead17905534801561002457600080fd5b50600080546001600160a01b0319169055613c7e806100446000396000f3fe608060405234801561001057600080fd5b50600436106101365760003560e01c806381ada46c116100b2578063b1b1b20911610081578063c6b94ab011610066578063c6b94ab0146102b3578063d7fd19dd146102d6578063f2fde38b146102e957600080fd5b8063b1b1b2091461027d578063c4d66de8146102a057600080fd5b806381ada46c146102215780638456cb59146102345780638da5cb5b1461023c578063a4e7f8bd1461025a57600080fd5b8063461a4478116101095780636e296e45116100ee5780636e296e45146101fe5780636f1c8d4714610206578063715018a61461021957600080fd5b8063461a4478146101e05780635c975abb146101f357600080fd5b80630ecf2eea1461013b57806321d800ec14610150578063299ca478146101885780633dbb202b146101cd575b600080fd5b61014e610149366004613170565b6102fc565b005b61017361015e366004613170565b60ca6020526000908152604090205460ff1681565b60405190151581526020015b60405180910390f35b6000546101a89073ffffffffffffffffffffffffffffffffffffffff1681565b60405173ffffffffffffffffffffffffffffffffffffffff909116815260200161017f565b61014e6101db3660046132e8565b6103ab565b6101a86101ee366004613348565b6104f3565b60655460ff16610173565b6101a86105a0565b61014e610214366004613399565b61062a565b61014e610811565b61014e61022f366004613170565b610884565b61014e61092b565b60335473ffffffffffffffffffffffffffffffffffffffff166101a8565b610173610268366004613170565b60cc6020526000908152604090205460ff1681565b61017361028b366004613170565b60cb6020526000908152604090205460ff1681565b61014e6102ae366004613425565b61099a565b6101736102c1366004613170565b60c96020526000908152604090205460ff1681565b61014e6102e436600461358b565b610be7565b61014e6102f7366004613425565b6110cb565b60335473ffffffffffffffffffffffffffffffffffffffff1633146103685760405162461bcd60e51b815260206004820181905260248201527f4f776e61626c653a2063616c6c6572206973206e6f7420746865206f776e657260448201526064015b60405180910390fd5b600081815260c96020526040808220805460ff191660011790555182917ff52508d5339edf0d7e5060a416df98db067af561bdc60872d29c0439eaa13a0291a250565b60006103eb6040518060400160405280601981526020017f43616e6f6e6963616c5472616e73616374696f6e436861696e000000000000008152506104f3565b905060008173ffffffffffffffffffffffffffffffffffffffff1663b8f770056040518163ffffffff1660e01b815260040160206040518083038186803b15801561043557600080fd5b505afa158015610449573d6000803e3d6000fd5b505050506040513d601f19601f8201168201806040525081019061046d91906136d9565b905060006104848633878564ffffffffff166111c7565b905061049783828663ffffffff16611242565b8573ffffffffffffffffffffffffffffffffffffffff167fcb0f7ffd78f9aee47a248fae8db181db6eee833039123e026dcbff529522e52a338785886040516104e39493929190613750565b60405180910390a2505050505050565b600080546040517fbf40fac100000000000000000000000000000000000000000000000000000000815273ffffffffffffffffffffffffffffffffffffffff9091169063bf40fac19061054a9085906004016137a3565b60206040518083038186803b15801561056257600080fd5b505afa158015610576573d6000803e3d6000fd5b505050506040513d601f19601f8201168201806040525081019061059a91906137b6565b92915050565b60cd5460009073ffffffffffffffffffffffffffffffffffffffff1661dead141561060d5760405162461bcd60e51b815260206004820152601f60248201527f78446f6d61696e4d65737361676553656e646572206973206e6f742073657400604482015260640161035f565b5060cd5473ffffffffffffffffffffffffffffffffffffffff1690565b600061066a6040518060400160405280601981526020017f43616e6f6e6963616c5472616e73616374696f6e436861696e000000000000008152506104f3565b6040517f2a7f18be0000000000000000000000000000000000000000000000000000000081526004810186905290915060009073ffffffffffffffffffffffffffffffffffffffff831690632a7f18be9060240160606040518083038186803b1580156106d657600080fd5b505afa1580156106ea573d6000803e3d6000fd5b505050506040513d601f19601f8201168201806040525081019061070e91906137d3565b9050600061071e898989896111c7565b90506000731111000000000000000000000000000000001111300173420000000000000000000000000000000000000787846040516020016107639493929190613838565b604051602081830303815290604052805190602001209050826000015181146107f45760405162461bcd60e51b815260206004820152602760248201527f50726f7669646564206d65737361676520686173206e6f74206265656e20656e60448201527f7175657565642e00000000000000000000000000000000000000000000000000606482015260840161035f565b61080584838763ffffffff16611242565b50505050505050505050565b60335473ffffffffffffffffffffffffffffffffffffffff1633146108785760405162461bcd60e51b815260206004820181905260248201527f4f776e61626c653a2063616c6c6572206973206e6f7420746865206f776e6572604482015260640161035f565b61088260006112e3565b565b60335473ffffffffffffffffffffffffffffffffffffffff1633146108eb5760405162461bcd60e51b815260206004820181905260248201527f4f776e61626c653a2063616c6c6572206973206e6f7420746865206f776e6572604482015260640161035f565b600081815260c96020526040808220805460ff191690555182917f52c8a2680a9f4cc0ad0bf88f32096eadbebf0646ea611d93a0ce6a29a024040591a250565b60335473ffffffffffffffffffffffffffffffffffffffff1633146109925760405162461bcd60e51b815260206004820181905260248201527f4f776e61626c653a2063616c6c6572206973206e6f7420746865206f776e6572604482015260640161035f565b61088261135a565b6000547501000000000000000000000000000000000000000000900460ff16806109df575060005474010000000000000000000000000000000000000000900460ff16155b610a515760405162461bcd60e51b815260206004820152602e60248201527f496e697469616c697a61626c653a20636f6e747261637420697320616c72656160448201527f647920696e697469616c697a6564000000000000000000000000000000000000606482015260840161035f565b6000547501000000000000000000000000000000000000000000900460ff16158015610ab857600080547fffffffffffffffffffff0000ffffffffffffffffffffffffffffffffffffffff1675010100000000000000000000000000000000000000001790555b60005473ffffffffffffffffffffffffffffffffffffffff1615610b445760405162461bcd60e51b815260206004820152602a60248201527f4c3143726f7373446f6d61696e4d657373656e67657220616c7265616479206960448201527f6e7469616c697a65642e00000000000000000000000000000000000000000000606482015260840161035f565b6000805473ffffffffffffffffffffffffffffffffffffffff84167fffffffffffffffffffffffff00000000000000000000000000000000000000009182161790915560cd805490911661dead179055610b9c61140c565b610ba461155b565b610bac611682565b610bb46117db565b8015610be357600080547fffffffffffffffffffff00ffffffffffffffffffffffffffffffffffffffffff1690555b5050565b60026097541415610c3a5760405162461bcd60e51b815260206004820152601f60248201527f5265656e7472616e637947756172643a207265656e7472616e742063616c6c00604482015260640161035f565b600260975560655460ff1615610c925760405162461bcd60e51b815260206004820152601060248201527f5061757361626c653a2070617573656400000000000000000000000000000000604482015260640161035f565b6000610ca0868686866111c7565b9050610cac818361192f565b1515600114610d235760405162461bcd60e51b815260206004820152602760248201527f50726f7669646564206d65737361676520636f756c64206e6f7420626520766560448201527f7269666965642e00000000000000000000000000000000000000000000000000606482015260840161035f565b8051602080830191909120600081815260cb90925260409091205460ff1615610db45760405162461bcd60e51b815260206004820152602b60248201527f50726f7669646564206d6573736167652068617320616c72656164792062656560448201527f6e2072656365697665642e000000000000000000000000000000000000000000606482015260840161035f565b600081815260c9602052604090205460ff1615610e395760405162461bcd60e51b815260206004820152602260248201527f50726f7669646564206d65737361676520686173206265656e20626c6f636b6560448201527f642e000000000000000000000000000000000000000000000000000000000000606482015260840161035f565b610e776040518060400160405280601981526020017f43616e6f6e6963616c5472616e73616374696f6e436861696e000000000000008152506104f3565b73ffffffffffffffffffffffffffffffffffffffff168773ffffffffffffffffffffffffffffffffffffffff161415610f185760405162461bcd60e51b815260206004820152603360248201527f43616e6e6f742073656e64204c322d3e4c31206d6573736167657320746f204c60448201527f312073797374656d20636f6e7472616374732e00000000000000000000000000606482015260840161035f565b60cd80547fffffffffffffffffffffffff00000000000000000000000000000000000000001673ffffffffffffffffffffffffffffffffffffffff88811691909117909155604051600091891690610f7190889061387d565b6000604051808303816000865af19150503d8060008114610fae576040519150601f19603f3d011682016040523d82523d6000602084013e610fb3565b606091505b505060cd80547fffffffffffffffffffffffff00000000000000000000000000000000000000001661dead17905590508015156001141561103357600082815260cb6020526040808220805460ff191660011790555183917f4641df4a962071e12719d8c8c8e5ac7fc4d97b927346a3d7a335b1f7517e133c91a2611074565b600082815260cc6020526040808220805460ff191660011790555183917f99d0e048484baa1b1540b1367cb128acd7ab2946d1ed91ec10e3c85e4bf51b8f91a25b600083334360405160200161108b93929190613899565b60408051601f198184030181529181528151602092830120600090815260ca9092529020805460ff19166001908117909155609755505050505050505050565b60335473ffffffffffffffffffffffffffffffffffffffff1633146111325760405162461bcd60e51b815260206004820181905260248201527f4f776e61626c653a2063616c6c6572206973206e6f7420746865206f776e6572604482015260640161035f565b73ffffffffffffffffffffffffffffffffffffffff81166111bb5760405162461bcd60e51b815260206004820152602660248201527f4f776e61626c653a206e6577206f776e657220697320746865207a65726f206160448201527f6464726573730000000000000000000000000000000000000000000000000000606482015260840161035f565b6111c4816112e3565b50565b6060848484846040516024016111e094939291906138eb565b60408051601f198184030181529190526020810180517bffffffffffffffffffffffffffffffffffffffffffffffffffffffff167fcbd4ece9000000000000000000000000000000000000000000000000000000001790529050949350505050565b6040517f6fee07e000000000000000000000000000000000000000000000000000000000815273ffffffffffffffffffffffffffffffffffffffff841690636fee07e0906112ac907342000000000000000000000000000000000000079085908790600401613935565b600060405180830381600087803b1580156112c657600080fd5b505af11580156112da573d6000803e3d6000fd5b50505050505050565b6033805473ffffffffffffffffffffffffffffffffffffffff8381167fffffffffffffffffffffffff0000000000000000000000000000000000000000831681179093556040519116919082907f8be0079c531659141344cd1fd0a4f28419497f9722a3daafe3b4186f6b6457e090600090a35050565b60655460ff16156113ad5760405162461bcd60e51b815260206004820152601060248201527f5061757361626c653a2070617573656400000000000000000000000000000000604482015260640161035f565b6065805460ff191660011790557f62e78cea01bee320cd4e420270b5ea74000d11b0c9f74754ebdbfc544b05a2586113e23390565b60405173ffffffffffffffffffffffffffffffffffffffff909116815260200160405180910390a1565b6000547501000000000000000000000000000000000000000000900460ff1680611451575060005474010000000000000000000000000000000000000000900460ff16155b6114c35760405162461bcd60e51b815260206004820152602e60248201527f496e697469616c697a61626c653a20636f6e747261637420697320616c72656160448201527f647920696e697469616c697a6564000000000000000000000000000000000000606482015260840161035f565b6000547501000000000000000000000000000000000000000000900460ff1615801561152a57600080547fffffffffffffffffffff0000ffffffffffffffffffffffffffffffffffffffff1675010100000000000000000000000000000000000000001790555b80156111c457600080547fffffffffffffffffffff00ffffffffffffffffffffffffffffffffffffffffff16905550565b6000547501000000000000000000000000000000000000000000900460ff16806115a0575060005474010000000000000000000000000000000000000000900460ff16155b6116125760405162461bcd60e51b815260206004820152602e60248201527f496e697469616c697a61626c653a20636f6e747261637420697320616c72656160448201527f647920696e697469616c697a6564000000000000000000000000000000000000606482015260840161035f565b6000547501000000000000000000000000000000000000000000900460ff1615801561167957600080547fffffffffffffffffffff0000ffffffffffffffffffffffffffffffffffffffff1675010100000000000000000000000000000000000000001790555b61152a336112e3565b6000547501000000000000000000000000000000000000000000900460ff16806116c7575060005474010000000000000000000000000000000000000000900460ff16155b6117395760405162461bcd60e51b815260206004820152602e60248201527f496e697469616c697a61626c653a20636f6e747261637420697320616c72656160448201527f647920696e697469616c697a6564000000000000000000000000000000000000606482015260840161035f565b6000547501000000000000000000000000000000000000000000900460ff161580156117a057600080547fffffffffffffffffffff0000ffffffffffffffffffffffffffffffffffffffff1675010100000000000000000000000000000000000000001790555b6065805460ff1916905580156111c457600080547fffffffffffffffffffff00ffffffffffffffffffffffffffffffffffffffffff16905550565b6000547501000000000000000000000000000000000000000000900460ff1680611820575060005474010000000000000000000000000000000000000000900460ff16155b6118925760405162461bcd60e51b815260206004820152602e60248201527f496e697469616c697a61626c653a20636f6e747261637420697320616c72656160448201527f647920696e697469616c697a6564000000000000000000000000000000000000606482015260840161035f565b6000547501000000000000000000000000000000000000000000900460ff161580156118f957600080547fffffffffffffffffffff0000ffffffffffffffffffffffffffffffffffffffff1675010100000000000000000000000000000000000000001790555b600160975580156111c457600080547fffffffffffffffffffff00ffffffffffffffffffffffffffffffffffffffffff16905550565b600061193a82611952565b801561194b575061194b8383611af4565b9392505050565b6000806119936040518060400160405280601481526020017f5374617465436f6d6d69746d656e74436861696e0000000000000000000000008152506104f3565b60208401516040517f9418bddd00000000000000000000000000000000000000000000000000000000815291925073ffffffffffffffffffffffffffffffffffffffff831691639418bddd916119eb916004016139a7565b60206040518083038186803b158015611a0357600080fd5b505afa158015611a17573d6000803e3d6000fd5b505050506040513d601f19601f82011682018060405250810190611a3b91906139ba565b15801561194b57508251602084015160408086015190517f4d69ee5700000000000000000000000000000000000000000000000000000000815273ffffffffffffffffffffffffffffffffffffffff851693634d69ee5793611aa49391929091906004016139dc565b60206040518083038186803b158015611abc57600080fd5b505afa158015611ad0573d6000803e3d6000fd5b505050506040513d601f19601f8201168201806040525081019061194b91906139ba565b60008083734200000000000000000000000000000000000007604051602001611b1e929190613a54565b60408051601f1981840301815282825280516020918201209083015260009082015260600160408051601f198184030181529082905280516020918201207f42000000000000000000000000000000000000000000000000000000000000009183019190915291506000908190611bae9060340160408051601f1981840301815291905260608701518751611cd8565b9092509050600182151514611c515760405162461bcd60e51b815260206004820152604d60248201527f4d6573736167652070617373696e67207072656465706c6f7920686173206e6f60448201527f74206265656e20696e697469616c697a6564206f7220696e76616c696420707260648201527f6f6f662070726f76696465642e00000000000000000000000000000000000000608482015260a40161035f565b6000611c5c82611d01565b9050611ccd84604051602001611c7491815260200190565b60408051601f19818403018152908290527f010000000000000000000000000000000000000000000000000000000000000060208301529060210160405160208183030381529060405288608001518460400151611dc5565b979650505050505050565b600060606000611ce786611de9565b9050611cf4818686611e1b565b9250925050935093915050565b604080516080810182526000808252602082018190529181018290526060810182905290611d2e83611ef6565b90506040518060800160405280611d5e83600081518110611d5157611d51613a9e565b6020026020010151611f29565b8152602001611d7983600181518110611d5157611d51613a9e565b8152602001611da183600281518110611d9457611d94613a9e565b6020026020010151611f30565b8152602001611dbc83600381518110611d9457611d94613a9e565b90529392505050565b600080611dd186611de9565b9050611ddf81868686612032565b9695505050505050565b60608180519060200120604051602001611e0591815260200190565b6040516020818303038152906040529050919050565b600060606000611e2a85612068565b90506000806000611e3c848a89612163565b81519295509093509150158080611e505750815b611e9c5760405162461bcd60e51b815260206004820152601a60248201527f50726f76696465642070726f6f6620697320696e76616c69642e000000000000604482015260640161035f565b600081611eb85760405180602001604052806000815250611ee4565b611ee486611ec7600188613afc565b81518110611ed757611ed7613a9e565b60200260200101516125fe565b919b919a509098505050505050505050565b60408051808201825260008082526020918201528151808301909252825182528083019082015260609061059a90612628565b600061059a825b6000602182600001511115611f875760405162461bcd60e51b815260206004820152601a60248201527f496e76616c696420524c5020627974657333322076616c75652e000000000000604482015260640161035f565b6000806000611f9585612827565b919450925090506000816001811115611fb057611fb0613b13565b14611ffd5760405162461bcd60e51b815260206004820152601a60248201527f496e76616c696420524c5020627974657333322076616c75652e000000000000604482015260640161035f565b600083866020015161200f9190613b42565b80519091506020841015611ddf5760208490036101000a90049695505050505050565b6000806000612042878686611e1b565b91509150818015611ccd5750805160208083019190912087519188019190912014611ccd565b6060600061207583611ef6565b90506000815167ffffffffffffffff811115612093576120936131ab565b6040519080825280602002602001820160405280156120d857816020015b60408051808201909152606080825260208201528152602001906001900390816120b15790505b50905060005b825181101561215b57600061210b8483815181106120fe576120fe613a9e565b6020026020010151612b78565b9050604051806040016040528082815260200161212783611ef6565b81525083838151811061213c5761213c613a9e565b602002602001018190525050808061215390613b5a565b9150506120de565b509392505050565b6000606081808061217387612c08565b9050600086905060008061219a604051806040016040528060608152602001606081525090565b60005b8c518110156125ba578c81815181106121b8576121b8613a9e565b6020026020010151915082846121ce9190613b42565b93506121db600188613b42565b96508361223f5781518051602090910120851461223a5760405162461bcd60e51b815260206004820152601160248201527f496e76616c696420726f6f742068617368000000000000000000000000000000604482015260640161035f565b6122fc565b8151516020116122a15781518051602090910120851461223a5760405162461bcd60e51b815260206004820152601b60248201527f496e76616c6964206c6172676520696e7465726e616c20686173680000000000604482015260640161035f565b846122af8360000151612d8b565b146122fc5760405162461bcd60e51b815260206004820152601a60248201527f496e76616c696420696e7465726e616c206e6f64652068617368000000000000604482015260640161035f565b61230860106001613b42565b8260200151511415612381578551841415612322576125ba565b600086858151811061233657612336613a9e565b602001015160f81c60f81b60f81c9050600083602001518260ff168151811061236157612361613a9e565b6020026020010151905061237481612db3565b96506001945050506125a8565b6002826020015151141561256057600061239a83612de9565b90506000816000815181106123b1576123b1613a9e565b016020015160f81c905060006123c8600283613bc2565b6123d3906002613be4565b905060006123e4848360ff16612e0d565b905060006123f28b8a612e0d565b905060006124008383612e43565b905060ff851660021480612417575060ff85166003145b1561246d5780835114801561242c5750808251145b1561243e5761243b818b613b42565b99505b507f800000000000000000000000000000000000000000000000000000000000000099506125ba945050505050565b60ff85161580612480575060ff85166001145b156124f257825181146124bc57507f800000000000000000000000000000000000000000000000000000000000000099506125ba945050505050565b6124e388602001516001815181106124d6576124d6613a9e565b6020026020010151612db3565b9a5097506125a8945050505050565b60405162461bcd60e51b815260206004820152602660248201527f52656365697665642061206e6f6465207769746820616e20756e6b6e6f776e2060448201527f7072656669780000000000000000000000000000000000000000000000000000606482015260840161035f565b60405162461bcd60e51b815260206004820152601d60248201527f526563656976656420616e20756e706172736561626c65206e6f64652e000000604482015260640161035f565b806125b281613b5a565b91505061219d565b507f80000000000000000000000000000000000000000000000000000000000000008414866125e98786612e0d565b909e909d50909b509950505050505050505050565b6020810151805160609161059a9161261890600190613afc565b815181106120fe576120fe613a9e565b606060008061263684612827565b9193509091506001905081600181111561265257612652613b13565b1461269f5760405162461bcd60e51b815260206004820152601760248201527f496e76616c696420524c50206c6973742076616c75652e000000000000000000604482015260640161035f565b6040805160208082526104208201909252600091816020015b60408051808201909152600080825260208201528152602001906001900390816126b85790505090506000835b865181101561281c57602082106127645760405162461bcd60e51b815260206004820152602a60248201527f50726f766964656420524c50206c6973742065786365656473206d6178206c6960448201527f7374206c656e6774682e00000000000000000000000000000000000000000000606482015260840161035f565b6000806127a16040518060400160405280858c600001516127859190613afc565b8152602001858c6020015161279a9190613b42565b9052612827565b5091509150604051806040016040528083836127bd9190613b42565b8152602001848b602001516127d29190613b42565b8152508585815181106127e7576127e7613a9e565b60209081029190910101526127fd600185613b42565b93506128098183613b42565b6128139084613b42565b925050506126e5565b508152949350505050565b60008060008084600001511161287f5760405162461bcd60e51b815260206004820152601860248201527f524c50206974656d2063616e6e6f74206265206e756c6c2e0000000000000000604482015260640161035f565b6020840151805160001a607f81116128a4576000600160009450945094505050612b71565b60b781116129205760006128b9608083613afc565b90508087600001511161290e5760405162461bcd60e51b815260206004820152601960248201527f496e76616c696420524c502073686f727420737472696e672e00000000000000604482015260640161035f565b60019550935060009250612b71915050565b60bf8111612a0f57600061293560b783613afc565b90508087600001511161298a5760405162461bcd60e51b815260206004820152601f60248201527f496e76616c696420524c50206c6f6e6720737472696e67206c656e6774682e00604482015260640161035f565b600183015160208290036101000a90046129a48183613b42565b8851116129f35760405162461bcd60e51b815260206004820152601860248201527f496e76616c696420524c50206c6f6e6720737472696e672e0000000000000000604482015260640161035f565b6129fe826001613b42565b9650945060009350612b7192505050565b60f78111612a8a576000612a2460c083613afc565b905080876000015111612a795760405162461bcd60e51b815260206004820152601760248201527f496e76616c696420524c502073686f7274206c6973742e000000000000000000604482015260640161035f565b600195509350849250612b71915050565b6000612a9760f783613afc565b905080876000015111612aec5760405162461bcd60e51b815260206004820152601d60248201527f496e76616c696420524c50206c6f6e67206c697374206c656e6774682e000000604482015260640161035f565b600183015160208290036101000a9004612b068183613b42565b885111612b555760405162461bcd60e51b815260206004820152601660248201527f496e76616c696420524c50206c6f6e67206c6973742e00000000000000000000604482015260640161035f565b612b60826001613b42565b9650945060019350612b7192505050565b9193909250565b60606000806000612b8885612827565b919450925090506000816001811115612ba357612ba3613b13565b14612bf05760405162461bcd60e51b815260206004820152601860248201527f496e76616c696420524c502062797465732076616c75652e0000000000000000604482015260640161035f565b612bff85602001518484612eef565b95945050505050565b6060600082516002612c1a9190613c07565b67ffffffffffffffff811115612c3257612c326131ab565b6040519080825280601f01601f191660200182016040528015612c5c576020820181803683370190505b50905060005b8351811015612d84576004848281518110612c7f57612c7f613a9e565b01602001517fff0000000000000000000000000000000000000000000000000000000000000016901c82612cb4836002613c07565b81518110612cc457612cc4613a9e565b60200101907effffffffffffffffffffffffffffffffffffffffffffffffffffffffffffff1916908160001a9053506010848281518110612d0757612d07613a9e565b0160200151612d19919060f81c613bc2565b60f81b82612d28836002613c07565b612d33906001613b42565b81518110612d4357612d43613a9e565b60200101907effffffffffffffffffffffffffffffffffffffffffffffffffffffffffffff1916908160001a90535080612d7c81613b5a565b915050612c62565b5092915050565b6000602082511015612d9f57506020015190565b8180602001905181019061059a9190613c44565b60006060602083600001511015612dd457612dcd83612fce565b9050612de0565b612ddd83612b78565b90505b61194b81612d8b565b606061059a612e0883602001516000815181106120fe576120fe613a9e565b612c08565b606082518210612e2c575060408051602081019091526000815261059a565b61194b8383848651612e3e9190613afc565b612fd9565b6000805b808451118015612e575750808351115b8015612ed85750828181518110612e7057612e70613a9e565b602001015160f81c60f81b7effffffffffffffffffffffffffffffffffffffffffffffffffffffffffffff1916848281518110612eaf57612eaf613a9e565b01602001517fff0000000000000000000000000000000000000000000000000000000000000016145b1561194b5780612ee781613b5a565b915050612e47565b606060008267ffffffffffffffff811115612f0c57612f0c6131ab565b6040519080825280601f01601f191660200182016040528015612f36576020820181803683370190505b509050805160001415612f4a57905061194b565b6000612f568587613b42565b90506020820160005b612f6a602087613c5d565b811015612fa15782518252612f80602084613b42565b9250612f8d602083613b42565b915080612f9981613b5a565b915050612f5f565b5060006001602087066020036101000a039050808251168119845116178252839450505050509392505050565b606061059a8261315a565b606081612fe781601f613b42565b10156130355760405162461bcd60e51b815260206004820152600e60248201527f736c6963655f6f766572666c6f77000000000000000000000000000000000000604482015260640161035f565b826130408382613b42565b101561308e5760405162461bcd60e51b815260206004820152600e60248201527f736c6963655f6f766572666c6f77000000000000000000000000000000000000604482015260640161035f565b6130988284613b42565b845110156130e85760405162461bcd60e51b815260206004820152601160248201527f736c6963655f6f75744f66426f756e6473000000000000000000000000000000604482015260640161035f565b6060821580156131075760405191506000825260208201604052613151565b6040519150601f8416801560200281840101858101878315602002848b0101015b81831015613140578051835260209283019201613128565b5050858452601f01601f1916604052505b50949350505050565b606061059a826020015160008460000151612eef565b60006020828403121561318257600080fd5b5035919050565b73ffffffffffffffffffffffffffffffffffffffff811681146111c457600080fd5b7f4e487b7100000000000000000000000000000000000000000000000000000000600052604160045260246000fd5b6040805190810167ffffffffffffffff811182821017156131fd576131fd6131ab565b60405290565b60405160a0810167ffffffffffffffff811182821017156131fd576131fd6131ab565b604051601f8201601f1916810167ffffffffffffffff8111828210171561324f5761324f6131ab565b604052919050565b600067ffffffffffffffff831115613271576132716131ab565b6132846020601f19601f86011601613226565b905082815283838301111561329857600080fd5b828260208301376000602084830101529392505050565b600082601f8301126132c057600080fd5b61194b83833560208501613257565b803563ffffffff811681146132e357600080fd5b919050565b6000806000606084860312156132fd57600080fd5b833561330881613189565b9250602084013567ffffffffffffffff81111561332457600080fd5b613330868287016132af565b92505061333f604085016132cf565b90509250925092565b60006020828403121561335a57600080fd5b813567ffffffffffffffff81111561337157600080fd5b8201601f8101841361338257600080fd5b61339184823560208401613257565b949350505050565b60008060008060008060c087890312156133b257600080fd5b86356133bd81613189565b955060208701356133cd81613189565b9450604087013567ffffffffffffffff8111156133e957600080fd5b6133f589828a016132af565b9450506060870135925061340b608088016132cf565b915061341960a088016132cf565b90509295509295509295565b60006020828403121561343757600080fd5b813561194b81613189565b600060a0828403121561345457600080fd5b60405160a0810167ffffffffffffffff8282108183111715613478576134786131ab565b816040528293508435835260208501356020840152604085013560408401526060850135606084015260808501359150808211156134b557600080fd5b506134c2858286016132af565b6080830152505092915050565b6000604082840312156134e157600080fd5b6134e96131da565b90508135815260208083013567ffffffffffffffff8082111561350b57600080fd5b818501915085601f83011261351f57600080fd5b813581811115613531576135316131ab565b8060051b9150613542848301613226565b818152918301840191848101908884111561355c57600080fd5b938501935b8385101561357a57843582529385019390850190613561565b808688015250505050505092915050565b600080600080600060a086880312156135a357600080fd5b85356135ae81613189565b945060208601356135be81613189565b9350604086013567ffffffffffffffff808211156135db57600080fd5b6135e789838a016132af565b945060608801359350608088013591508082111561360457600080fd5b9087019060a0828a03121561361857600080fd5b613620613203565b8235815260208301358281111561363657600080fd5b6136428b828601613442565b60208301525060408301358281111561365a57600080fd5b6136668b8286016134cf565b60408301525060608301358281111561367e57600080fd5b61368a8b8286016132af565b6060830152506080830135828111156136a257600080fd5b6136ae8b8286016132af565b6080830152508093505050509295509295909350565b805164ffffffffff811681146132e357600080fd5b6000602082840312156136eb57600080fd5b61194b826136c4565b60005b8381101561370f5781810151838201526020016136f7565b8381111561371e576000848401525b50505050565b6000815180845261373c8160208601602086016136f4565b601f01601f19169290920160200192915050565b73ffffffffffffffffffffffffffffffffffffffff8516815260806020820152600061377f6080830186613724565b905064ffffffffff8416604083015263ffffffff8316606083015295945050505050565b60208152600061194b6020830184613724565b6000602082840312156137c857600080fd5b815161194b81613189565b6000606082840312156137e557600080fd5b6040516060810181811067ffffffffffffffff82111715613808576138086131ab565b6040528251815261381b602084016136c4565b602082015261382c604084016136c4565b60408201529392505050565b600073ffffffffffffffffffffffffffffffffffffffff808716835280861660208401525063ffffffff8416604083015260806060830152611ddf6080830184613724565b6000825161388f8184602087016136f4565b9190910192915050565b600084516138ab8184602089016136f4565b60609490941b7fffffffffffffffffffffffffffffffffffffffff0000000000000000000000001691909301908152601481019190915260340192915050565b600073ffffffffffffffffffffffffffffffffffffffff8087168352808616602084015250608060408301526139246080830185613724565b905082606083015295945050505050565b73ffffffffffffffffffffffffffffffffffffffff84168152826020820152606060408201526000612bff6060830184613724565b805182526020810151602083015260408101516040830152606081015160608301526000608082015160a0608085015261339160a0850182613724565b60208152600061194b602083018461396a565b6000602082840312156139cc57600080fd5b8151801515811461194b57600080fd5b838152600060206060818401526139f6606084018661396a565b83810360408501526040810185518252828601516040848401528181518084526060850191508583019450600093505b80841015613a465784518252938501936001939093019290850190613a26565b509998505050505050505050565b60008351613a668184602088016136f4565b60609390931b7fffffffffffffffffffffffffffffffffffffffff000000000000000000000000169190920190815260140192915050565b7f4e487b7100000000000000000000000000000000000000000000000000000000600052603260045260246000fd5b7f4e487b7100000000000000000000000000000000000000000000000000000000600052601160045260246000fd5b600082821015613b0e57613b0e613acd565b500390565b7f4e487b7100000000000000000000000000000000000000000000000000000000600052602160045260246000fd5b60008219821115613b5557613b55613acd565b500190565b60007fffffffffffffffffffffffffffffffffffffffffffffffffffffffffffffffff821415613b8c57613b8c613acd565b5060010190565b7f4e487b7100000000000000000000000000000000000000000000000000000000600052601260045260246000fd5b600060ff831680613bd557613bd5613b93565b8060ff84160691505092915050565b600060ff821660ff841680821015613bfe57613bfe613acd565b90039392505050565b6000817fffffffffffffffffffffffffffffffffffffffffffffffffffffffffffffffff0483118215151615613c3f57613c3f613acd565b500290565b600060208284031215613c5657600080fd5b5051919050565b600082613c6c57613c6c613b93565b50049056fea164736f6c6343000809000a",
  "linkReferences": {},
  "deployedLinkReferences": {}
}