{
  "_format": "hh-sol-artifact-1",
  "contractName": "L1LiquidityPool",
  "sourceName": "contracts/LP/L1LiquidityPool.sol",
  "abi": [
    {
      "inputs": [],
      "stateMutability": "nonpayable",
      "type": "constructor"
    },
    {
      "anonymous": false,
      "inputs": [
        {
          "indexed": false,
          "internalType": "address",
          "name": "sender",
          "type": "address"
        },
        {
          "indexed": false,
          "internalType": "uint256",
          "name": "amount",
          "type": "uint256"
        },
        {
          "indexed": false,
          "internalType": "address",
          "name": "tokenAddress",
          "type": "address"
        }
      ],
      "name": "AddLiquidity",
      "type": "event"
    },
    {
      "anonymous": false,
      "inputs": [
        {
          "indexed": false,
          "internalType": "address",
          "name": "sender",
          "type": "address"
        },
        {
          "indexed": false,
          "internalType": "uint256",
          "name": "receivedAmount",
          "type": "uint256"
        },
        {
          "indexed": false,
          "internalType": "address",
          "name": "tokenAddress",
          "type": "address"
        }
      ],
      "name": "ClientDepositL1",
      "type": "event"
    },
    {
      "anonymous": false,
      "inputs": [
        {
          "components": [
            {
              "internalType": "address",
              "name": "to",
              "type": "address"
            },
            {
              "internalType": "address",
              "name": "l2TokenAddress",
              "type": "address"
            },
            {
              "internalType": "uint256",
              "name": "amount",
              "type": "uint256"
            }
          ],
          "indexed": false,
          "internalType": "struct L1LiquidityPool.ClientPayToken[]",
          "name": "_tokens",
          "type": "tuple[]"
        }
      ],
      "name": "ClientDepositL1Batch",
      "type": "event"
    },
    {
      "anonymous": false,
      "inputs": [
        {
          "indexed": false,
          "internalType": "address",
          "name": "sender",
          "type": "address"
        },
        {
          "indexed": false,
          "internalType": "uint256",
          "name": "amount",
          "type": "uint256"
        },
        {
          "indexed": false,
          "internalType": "uint256",
          "name": "userRewardFee",
          "type": "uint256"
        },
        {
          "indexed": false,
          "internalType": "uint256",
          "name": "ownerRewardFee",
          "type": "uint256"
        },
        {
          "indexed": false,
          "internalType": "uint256",
          "name": "totalFee",
          "type": "uint256"
        },
        {
          "indexed": false,
          "internalType": "address",
          "name": "tokenAddress",
          "type": "address"
        }
      ],
      "name": "ClientPayL1",
      "type": "event"
    },
    {
      "anonymous": false,
      "inputs": [
        {
          "indexed": false,
          "internalType": "address",
          "name": "sender",
          "type": "address"
        },
        {
          "indexed": false,
          "internalType": "uint256",
          "name": "amount",
          "type": "uint256"
        },
        {
          "indexed": false,
          "internalType": "uint256",
          "name": "userRewardFee",
          "type": "uint256"
        },
        {
          "indexed": false,
          "internalType": "uint256",
          "name": "ownerRewardFee",
          "type": "uint256"
        },
        {
          "indexed": false,
          "internalType": "uint256",
          "name": "totalFee",
          "type": "uint256"
        },
        {
          "indexed": false,
          "internalType": "address",
          "name": "tokenAddress",
          "type": "address"
        }
      ],
      "name": "ClientPayL1Settlement",
      "type": "event"
    },
    {
      "anonymous": false,
      "inputs": [
        {
          "indexed": false,
          "internalType": "address",
          "name": "sender",
          "type": "address"
        },
        {
          "indexed": false,
          "internalType": "address",
          "name": "receiver",
          "type": "address"
        },
        {
          "indexed": false,
          "internalType": "uint256",
          "name": "amount",
          "type": "uint256"
        },
        {
          "indexed": false,
          "internalType": "address",
          "name": "tokenAddress",
          "type": "address"
        }
      ],
      "name": "OwnerRecoverFee",
      "type": "event"
    },
    {
      "anonymous": false,
      "inputs": [
        {
          "indexed": false,
          "internalType": "address",
          "name": "newOwner",
          "type": "address"
        }
      ],
      "name": "OwnershipTransferred",
      "type": "event"
    },
    {
      "anonymous": false,
      "inputs": [
        {
          "indexed": false,
          "internalType": "address",
          "name": "account",
          "type": "address"
        }
      ],
      "name": "Paused",
      "type": "event"
    },
    {
      "anonymous": false,
      "inputs": [
        {
          "indexed": false,
          "internalType": "uint256",
          "name": "amount",
          "type": "uint256"
        },
        {
          "indexed": false,
          "internalType": "address",
          "name": "tokenAddress",
          "type": "address"
        }
      ],
      "name": "RebalanceLP",
      "type": "event"
    },
    {
      "anonymous": false,
      "inputs": [
        {
          "indexed": false,
          "internalType": "address",
          "name": "account",
          "type": "address"
        }
      ],
      "name": "Unpaused",
      "type": "event"
    },
    {
      "anonymous": false,
      "inputs": [
        {
          "indexed": false,
          "internalType": "address",
          "name": "sender",
          "type": "address"
        },
        {
          "indexed": false,
          "internalType": "address",
          "name": "receiver",
          "type": "address"
        },
        {
          "indexed": false,
          "internalType": "uint256",
          "name": "amount",
          "type": "uint256"
        },
        {
          "indexed": false,
          "internalType": "address",
          "name": "tokenAddress",
          "type": "address"
        }
      ],
      "name": "WithdrawLiquidity",
      "type": "event"
    },
    {
      "anonymous": false,
      "inputs": [
        {
          "indexed": false,
          "internalType": "address",
          "name": "sender",
          "type": "address"
        },
        {
          "indexed": false,
          "internalType": "address",
          "name": "receiver",
          "type": "address"
        },
        {
          "indexed": false,
          "internalType": "uint256",
          "name": "amount",
          "type": "uint256"
        },
        {
          "indexed": false,
          "internalType": "address",
          "name": "tokenAddress",
          "type": "address"
        }
      ],
      "name": "WithdrawReward",
      "type": "event"
    },
    {
      "inputs": [],
      "name": "L1StandardBridgeAddress",
      "outputs": [
        {
          "internalType": "address payable",
          "name": "",
          "type": "address"
        }
      ],
      "stateMutability": "view",
      "type": "function"
    },
    {
      "inputs": [],
      "name": "L2LiquidityPoolAddress",
      "outputs": [
        {
          "internalType": "address",
          "name": "",
          "type": "address"
        }
      ],
      "stateMutability": "view",
      "type": "function"
    },
    {
      "inputs": [],
      "name": "SAFE_GAS_STIPEND",
      "outputs": [
        {
          "internalType": "uint256",
          "name": "",
          "type": "uint256"
        }
      ],
      "stateMutability": "view",
      "type": "function"
    },
    {
      "inputs": [],
      "name": "SETTLEMENT_L2_GAS",
      "outputs": [
        {
          "internalType": "uint32",
          "name": "",
          "type": "uint32"
        }
      ],
      "stateMutability": "view",
      "type": "function"
    },
    {
      "inputs": [
        {
          "internalType": "uint256",
          "name": "_amount",
          "type": "uint256"
        },
        {
          "internalType": "address",
          "name": "_tokenAddress",
          "type": "address"
        }
      ],
      "name": "addLiquidity",
      "outputs": [],
      "stateMutability": "payable",
      "type": "function"
    },
    {
      "inputs": [
        {
          "internalType": "uint256",
          "name": "_amount",
          "type": "uint256"
        },
        {
          "internalType": "address",
          "name": "_tokenAddress",
          "type": "address"
        }
      ],
      "name": "clientDepositL1",
      "outputs": [],
      "stateMutability": "payable",
      "type": "function"
    },
    {
      "inputs": [
        {
          "components": [
            {
              "internalType": "address",
              "name": "l1TokenAddress",
              "type": "address"
            },
            {
              "internalType": "uint256",
              "name": "amount",
              "type": "uint256"
            }
          ],
          "internalType": "struct L1LiquidityPool.ClientDepositToken[]",
          "name": "_tokens",
          "type": "tuple[]"
        }
      ],
      "name": "clientDepositL1Batch",
      "outputs": [],
      "stateMutability": "payable",
      "type": "function"
    },
    {
      "inputs": [
        {
          "internalType": "address payable",
          "name": "_to",
          "type": "address"
        },
        {
          "internalType": "uint256",
          "name": "_amount",
          "type": "uint256"
        },
        {
          "internalType": "address",
          "name": "_tokenAddress",
          "type": "address"
        }
      ],
      "name": "clientPayL1",
      "outputs": [],
      "stateMutability": "nonpayable",
      "type": "function"
    },
    {
      "inputs": [
        {
          "internalType": "address payable",
          "name": "_to",
          "type": "address"
        },
        {
          "internalType": "uint256",
          "name": "_amount",
          "type": "uint256"
        },
        {
          "internalType": "address",
          "name": "_tokenAddress",
          "type": "address"
        }
      ],
      "name": "clientPayL1Settlement",
      "outputs": [],
      "stateMutability": "nonpayable",
      "type": "function"
    },
    {
      "inputs": [
        {
          "internalType": "uint256",
          "name": "_userRewardMinFeeRate",
          "type": "uint256"
        },
        {
          "internalType": "uint256",
          "name": "_userRewardMaxFeeRate",
          "type": "uint256"
        },
        {
          "internalType": "uint256",
          "name": "_ownerRewardFeeRate",
          "type": "uint256"
        }
      ],
      "name": "configureFee",
      "outputs": [],
      "stateMutability": "nonpayable",
      "type": "function"
    },
    {
      "inputs": [
        {
          "internalType": "uint32",
          "name": "_l2GasFee",
          "type": "uint32"
        },
        {
          "internalType": "uint256",
          "name": "_safeGas",
          "type": "uint256"
        }
      ],
      "name": "configureGas",
      "outputs": [],
      "stateMutability": "nonpayable",
      "type": "function"
    },
    {
      "inputs": [],
      "name": "currentDepositInfoHash",
      "outputs": [
        {
          "internalType": "bytes32",
          "name": "",
          "type": "bytes32"
        }
      ],
      "stateMutability": "view",
      "type": "function"
    },
    {
      "inputs": [
        {
          "internalType": "address",
          "name": "_l1TokenAddress",
          "type": "address"
        }
      ],
      "name": "getUserRewardFeeRate",
      "outputs": [
        {
          "internalType": "uint256",
          "name": "userRewardFeeRate",
          "type": "uint256"
        }
      ],
      "stateMutability": "view",
      "type": "function"
    },
    {
      "inputs": [
        {
          "internalType": "address",
          "name": "_l1CrossDomainMessenger",
          "type": "address"
        },
        {
          "internalType": "address",
          "name": "_l1CrossDomainMessengerFast",
          "type": "address"
        },
        {
          "internalType": "address",
          "name": "_L2LiquidityPoolAddress",
          "type": "address"
        },
        {
          "internalType": "address payable",
          "name": "_L1StandardBridgeAddress",
          "type": "address"
        }
      ],
      "name": "initialize",
      "outputs": [],
      "stateMutability": "nonpayable",
      "type": "function"
    },
    {
      "inputs": [],
      "name": "l1CrossDomainMessenger",
      "outputs": [
        {
          "internalType": "address",
          "name": "",
          "type": "address"
        }
      ],
      "stateMutability": "view",
      "type": "function"
    },
    {
      "inputs": [],
      "name": "lastHashUpdateBlock",
      "outputs": [
        {
          "internalType": "uint256",
          "name": "",
          "type": "uint256"
        }
      ],
      "stateMutability": "view",
      "type": "function"
    },
    {
      "inputs": [],
      "name": "owner",
      "outputs": [
        {
          "internalType": "address",
          "name": "",
          "type": "address"
        }
      ],
      "stateMutability": "view",
      "type": "function"
    },
    {
      "inputs": [
        {
          "internalType": "uint256",
          "name": "_amount",
          "type": "uint256"
        },
        {
          "internalType": "address",
          "name": "_tokenAddress",
          "type": "address"
        },
        {
          "internalType": "address",
          "name": "_to",
          "type": "address"
        }
      ],
      "name": "ownerRecoverFee",
      "outputs": [],
      "stateMutability": "nonpayable",
      "type": "function"
    },
    {
      "inputs": [],
      "name": "ownerRewardFeeRate",
      "outputs": [
        {
          "internalType": "uint256",
          "name": "",
          "type": "uint256"
        }
      ],
      "stateMutability": "view",
      "type": "function"
    },
    {
      "inputs": [],
      "name": "pause",
      "outputs": [],
      "stateMutability": "nonpayable",
      "type": "function"
    },
    {
      "inputs": [],
      "name": "paused",
      "outputs": [
        {
          "internalType": "bool",
          "name": "",
          "type": "bool"
        }
      ],
      "stateMutability": "view",
      "type": "function"
    },
    {
      "inputs": [
        {
          "internalType": "address",
          "name": "",
          "type": "address"
        }
      ],
      "name": "poolInfo",
      "outputs": [
        {
          "internalType": "address",
          "name": "l1TokenAddress",
          "type": "address"
        },
        {
          "internalType": "address",
          "name": "l2TokenAddress",
          "type": "address"
        },
        {
          "internalType": "uint256",
          "name": "userDepositAmount",
          "type": "uint256"
        },
        {
          "internalType": "uint256",
          "name": "lastAccUserReward",
          "type": "uint256"
        },
        {
          "internalType": "uint256",
          "name": "accUserReward",
          "type": "uint256"
        },
        {
          "internalType": "uint256",
          "name": "accUserRewardPerShare",
          "type": "uint256"
        },
        {
          "internalType": "uint256",
          "name": "accOwnerReward",
          "type": "uint256"
        },
        {
          "internalType": "uint256",
          "name": "startTime",
          "type": "uint256"
        }
      ],
      "stateMutability": "view",
      "type": "function"
    },
    {
      "inputs": [],
      "name": "priorDepositInfoHash",
      "outputs": [
        {
          "internalType": "bytes32",
          "name": "",
          "type": "bytes32"
        }
      ],
      "stateMutability": "view",
      "type": "function"
    },
    {
      "inputs": [
        {
          "internalType": "uint256",
          "name": "_amount",
          "type": "uint256"
        },
        {
          "internalType": "address",
          "name": "_tokenAddress",
          "type": "address"
        }
      ],
      "name": "rebalanceLP",
      "outputs": [],
      "stateMutability": "nonpayable",
      "type": "function"
    },
    {
      "inputs": [
        {
          "internalType": "address",
          "name": "_l1TokenAddress",
          "type": "address"
        },
        {
          "internalType": "address",
          "name": "_l2TokenAddress",
          "type": "address"
        }
      ],
      "name": "registerPool",
      "outputs": [],
      "stateMutability": "nonpayable",
      "type": "function"
    },
    {
      "inputs": [],
      "name": "relayerMessenger",
      "outputs": [
        {
          "internalType": "address",
          "name": "",
          "type": "address"
        }
      ],
      "stateMutability": "view",
      "type": "function"
    },
    {
      "inputs": [],
      "name": "senderMessenger",
      "outputs": [
        {
          "internalType": "address",
          "name": "",
          "type": "address"
        }
      ],
      "stateMutability": "view",
      "type": "function"
    },
    {
      "inputs": [
        {
          "internalType": "address",
          "name": "_newOwner",
          "type": "address"
        }
      ],
      "name": "transferOwnership",
      "outputs": [],
      "stateMutability": "nonpayable",
      "type": "function"
    },
    {
      "inputs": [],
      "name": "unpause",
      "outputs": [],
      "stateMutability": "nonpayable",
      "type": "function"
    },
    {
      "inputs": [
        {
          "internalType": "address",
          "name": "_tokenAddress",
          "type": "address"
        }
      ],
      "name": "updateUserRewardPerShare",
      "outputs": [],
      "stateMutability": "nonpayable",
      "type": "function"
    },
    {
      "inputs": [
        {
          "internalType": "address",
          "name": "",
          "type": "address"
        },
        {
          "internalType": "address",
          "name": "",
          "type": "address"
        }
      ],
      "name": "userInfo",
      "outputs": [
        {
          "internalType": "uint256",
          "name": "amount",
          "type": "uint256"
        },
        {
          "internalType": "uint256",
          "name": "rewardDebt",
          "type": "uint256"
        },
        {
          "internalType": "uint256",
          "name": "pendingReward",
          "type": "uint256"
        }
      ],
      "stateMutability": "view",
      "type": "function"
    },
    {
      "inputs": [],
      "name": "userRewardMaxFeeRate",
      "outputs": [
        {
          "internalType": "uint256",
          "name": "",
          "type": "uint256"
        }
      ],
      "stateMutability": "view",
      "type": "function"
    },
    {
      "inputs": [],
      "name": "userRewardMinFeeRate",
      "outputs": [
        {
          "internalType": "uint256",
          "name": "",
          "type": "uint256"
        }
      ],
      "stateMutability": "view",
      "type": "function"
    },
    {
      "inputs": [
        {
          "internalType": "uint256",
          "name": "_amount",
          "type": "uint256"
        },
        {
          "internalType": "address",
          "name": "_tokenAddress",
          "type": "address"
        },
        {
          "internalType": "address payable",
          "name": "_to",
          "type": "address"
        }
      ],
      "name": "withdrawLiquidity",
      "outputs": [],
      "stateMutability": "nonpayable",
      "type": "function"
    },
    {
      "inputs": [
        {
          "internalType": "uint256",
          "name": "_amount",
          "type": "uint256"
        },
        {
          "internalType": "address",
          "name": "_tokenAddress",
          "type": "address"
        },
        {
          "internalType": "address",
          "name": "_to",
          "type": "address"
        }
      ],
      "name": "withdrawReward",
      "outputs": [],
      "stateMutability": "nonpayable",
      "type": "function"
    },
    {
      "stateMutability": "payable",
      "type": "receive"
    }
  ],
  "bytecode": "0x608060405234801561001057600080fd5b50600080546001600160a01b031990811690915560018054909116905561473a8061003c6000396000f3fe6080604052600436106102385760003560e01c806381e6bdac11610138578063c95f9d0e116100b0578063f2fde38b1161007f578063f72e5aa011610064578063f72e5aa01461073d578063f8c8765e1461075d578063f8fe09a31461077d57600080fd5b8063f2fde38b1461070a578063f64b5f441461072a57600080fd5b8063c95f9d0e14610685578063cf26fb1b14610698578063d04a966a146106b8578063ecb12db0146106ea57600080fd5b80639a7b5f1111610107578063a5ab6190116100ec578063a5ab61901461062f578063a711986914610645578063c58827ea1461066557600080fd5b80639a7b5f111461056b578063a44c80e31461061c57600080fd5b806381e6bdac146104f65780638456cb59146105165780638cac78931461052b5780638da5cb5b1461054b57600080fd5b8063513f3132116101cb57806368be42ca1161019a578063744a5aa21161017f578063744a5aa2146104aa57806377b594a2146104c0578063818c021e146104d657600080fd5b806368be42ca1461046a5780637286e5e51461048a57600080fd5b8063513f3132146103fb57806353174cc11461041157806359326e6f146104315780635c975abb1461044757600080fd5b80633f4ba83a116102075780633f4ba83a1461036e5780633f89e9521461038357806349561dc4146103a3578063508e01c4146103c357600080fd5b80630f208beb146102a357806312f54c1a1461030a578063358fc07e1461032a578063369fd1021461034e57600080fd5b3661029e5760a1546001600160a01b0316331461029c5760405162461bcd60e51b815260206004820152601160248201527f43616e277420726563656976652045544800000000000000000000000000000060448201526064015b60405180910390fd5b005b600080fd5b3480156102af57600080fd5b506102ea6102be366004614155565b609960209081526000928352604080842090915290825290208054600182015460029092015490919083565b604080519384526020840192909252908201526060015b60405180910390f35b34801561031657600080fd5b5061029c61032536600461418e565b610793565b34801561033657600080fd5b50610340609d5481565b604051908152602001610301565b34801561035a57600080fd5b5061029c6103693660046141ab565b610829565b34801561037a57600080fd5b5061029c610950565b34801561038f57600080fd5b5061029c61039e3660046141e0565b6109c8565b3480156103af57600080fd5b5061029c6103be366004614205565b610e8b565b3480156103cf57600080fd5b506000546103e3906001600160a01b031681565b6040516001600160a01b039091168152602001610301565b34801561040757600080fd5b50610340609f5481565b34801561041d57600080fd5b5061029c61042c366004614247565b61114a565b34801561043d57600080fd5b5061034060a55481565b34801561045357600080fd5b5060665460ff166040519015158152602001610301565b34801561047657600080fd5b5061029c610485366004614205565b611521565b34801561049657600080fd5b5061029c6104a5366004614155565b6117f7565b3480156104b657600080fd5b5061034060a25481565b3480156104cc57600080fd5b50610340609c5481565b3480156104e257600080fd5b506001546103e3906001600160a01b031681565b34801561050257600080fd5b5061029c610511366004614205565b611aa3565b34801561052257600080fd5b5061029c611d0b565b34801561053757600080fd5b5060a1546103e3906001600160a01b031681565b34801561055757600080fd5b50609a546103e3906001600160a01b031681565b34801561057757600080fd5b506105d661058636600461418e565b609860205260009081526040902080546001820154600283015460038401546004850154600586015460068701546007909701546001600160a01b03968716979590961695939492939192909188565b604080516001600160a01b03998a168152989097166020890152958701949094526060860192909252608085015260a084015260c083015260e082015261010001610301565b61029c61062a36600461427e565b611d81565b34801561063b57600080fd5b5061034060a45481565b34801561065157600080fd5b5060a0546103e3906001600160a01b031681565b34801561067157600080fd5b5061029c6106803660046142f3565b6121a6565b61029c6106933660046141e0565b612434565b3480156106a457600080fd5b5061029c6106b3366004614247565b6127b2565b3480156106c457600080fd5b50609e546106d59063ffffffff1681565b60405163ffffffff9091168152602001610301565b3480156106f657600080fd5b5061034061070536600461418e565b612d0d565b34801561071657600080fd5b5061029c61072536600461418e565b612eba565b61029c6107383660046141e0565b61300f565b34801561074957600080fd5b50609b546103e3906001600160a01b031681565b34801561076957600080fd5b5061029c61077836600461431f565b613304565b34801561078957600080fd5b5061034060a35481565b6001600160a01b03811660009081526098602052604090206004810154600382015410156108255760006107d88260030154836004015461363d90919063ffffffff16565b9050816002015460001461081957600282015461081390610808906108028464e8d4a51000613650565b9061365c565b600584015490613668565b60058301555b50600481015460038201555b5050565b609a546001600160a01b031633148061084b5750609a546001600160a01b0316155b6108975760405162461bcd60e51b815260206004820152601760248201527f43616c6c6572206973206e6f7420746865206f776e65720000000000000000006044820152606401610293565b609b546001600160a01b03166109155760405162461bcd60e51b815260206004820152602560248201527f436f6e747261637420686173206e6f7420796574206265656e20696e6974696160448201527f6c697a65640000000000000000000000000000000000000000000000000000006064820152608401610293565b609e80547fffffffffffffffffffffffffffffffffffffffffffffffffffffffff000000001663ffffffff9390931692909217909155609f55565b609a546001600160a01b03163314806109725750609a546001600160a01b0316155b6109be5760405162461bcd60e51b815260206004820152601760248201527f43616c6c6572206973206e6f7420746865206f776e65720000000000000000006044820152606401610293565b6109c6613674565b565b609a546001600160a01b03163314806109ea5750609a546001600160a01b0316155b610a365760405162461bcd60e51b815260206004820152601760248201527f43616c6c6572206973206e6f7420746865206f776e65720000000000000000006044820152606401610293565b60665460ff1615610a895760405162461bcd60e51b815260206004820152601060248201527f5061757361626c653a20706175736564000000000000000000000000000000006044820152606401610293565b81610ad65760405162461bcd60e51b815260206004820152601060248201527f416d6f756e7420496e636f7272656374000000000000000000000000000000006044820152606401610293565b6001600160a01b038082166000908152609860205260409020609b54909116610b415760405162461bcd60e51b815260206004820181905260248201527f4c32204c697175696469747920506f6f6c204e6f7420526567697374657265646044820152606401610293565b60018101546001600160a01b0316610b9b5760405162461bcd60e51b815260206004820152601c60248201527f546f6b656e2041646472657373204e6f742052656769737465726564000000006044820152606401610293565b604080518481526001600160a01b03841660208201527f40637a7e139eeb28b936b8decebe78604164b2ade81ce7f4c70deb132e7614c2910160405180910390a16001600160a01b038216610cd95747831115610c3a5760405162461bcd60e51b815260206004820152601660248201527f4661696c656420746f20526562616c616e6365204c50000000000000000000006044820152606401610293565b60a154609b54609e546040517f9a2ac6d50000000000000000000000000000000000000000000000000000000081526001600160a01b03928316600482015263ffffffff90911660248201526060604482015260006064820152911690639a2ac6d59085906084016000604051808303818588803b158015610cbb57600080fd5b505af1158015610ccf573d6000803e3d6000fd5b5050505050505050565b6040517f70a082310000000000000000000000000000000000000000000000000000000081523060048201526001600160a01b038316906370a082319060240160206040518083038186803b158015610d3157600080fd5b505afa158015610d45573d6000803e3d6000fd5b505050506040513d601f19601f82011682018060405250810190610d69919061437b565b831115610db85760405162461bcd60e51b815260206004820152601660248201527f4661696c656420746f20526562616c616e6365204c50000000000000000000006044820152606401610293565b60a154610dd2906001600160a01b0384811691168561372e565b60a1546001820154609b54609e546040517f838b25200000000000000000000000000000000000000000000000000000000081526001600160a01b038781166004830152938416602482015291831660448301526064820187905263ffffffff16608482015260c060a4820152600060c482015291169063838b25209060e4015b600060405180830381600087803b158015610e6d57600080fd5b505af1158015610e81573d6000803e3d6000fd5b505050505b505050565b60665460ff1615610ede5760405162461bcd60e51b815260206004820152601060248201527f5061757361626c653a20706175736564000000000000000000000000000000006044820152606401610293565b6001600160a01b0380831660009081526098602090815260408083206099835281842033855290925290912060018201549192909116610f605760405162461bcd60e51b815260206004820152601c60248201527f546f6b656e2041646472657373204e6f742052656769737465726564000000006044820152606401610293565b6000610fa2610f978360010154610f9164e8d4a510006108028860050154886000015461365090919063ffffffff16565b9061363d565b600284015490613668565b905085811015610ff45760405162461bcd60e51b815260206004820152601560248201527f576974686472617720526577617264204572726f7200000000000000000000006044820152606401610293565b610ffe818761363d565b60028301556005830154825461101e9164e8d4a510009161080291613650565b6001830155604080513381526001600160a01b0386811660208301528183018990528716606082015290517f3cb7cb475a33eda02ee6e719b6c2fc0c899157cfc6f098daf545354dbbce41ec9181900360800190a16001600160a01b0385161561109b576110966001600160a01b038616858861389f565b611142565b6000846001600160a01b0316609f5488604051600060405180830381858888f193505050503d80600081146110ec576040519150601f19603f3d011682016040523d82523d6000602084013e6110f1565b606091505b5050905080610e815760405162461bcd60e51b815260206004820152601460248201527f4661696c656420746f2073656e642045746865720000000000000000000000006044820152606401610293565b505050505050565b609b546001600160a01b03166111686001546001600160a01b031690565b6001600160a01b0316336001600160a01b0316146111ee5760405162461bcd60e51b815260206004820152602a60248201527f58434841494e3a206d657373656e67657220636f6e747261637420756e61757460448201527f68656e74696361746564000000000000000000000000000000000000000000006064820152608401610293565b806001600160a01b031661120a6001546001600160a01b031690565b6001600160a01b0316636e296e456040518163ffffffff1660e01b815260040160206040518083038186803b15801561124257600080fd5b505afa158015611256573d6000803e3d6000fd5b505050506040513d601f19601f8201168201806040525081019061127a9190614394565b6001600160a01b0316146112f65760405162461bcd60e51b815260206004820152602c60248201527f58434841494e3a2077726f6e672073656e646572206f662063726f73732d646f60448201527f6d61696e206d65737361676500000000000000000000000000000000000000006064820152608401610293565b60665460ff16156113495760405162461bcd60e51b815260206004820152601060248201527f5061757361626c653a20706175736564000000000000000000000000000000006044820152606401610293565b6001600160a01b03821660009081526098602052604081209061136b84612d0d565b9050600061137f6103e86108028885613650565b9050600061139e6103e8610802609d548a61365090919063ffffffff16565b905060006113ac8383613668565b905060006113ba898361363d565b60048701549091506113cc9085613668565b600487015560068601546113e09084613668565b6006870155604080516001600160a01b038c811682526020820184905281830187905260608201869052608082018590528a1660a082015290517fe42a885e97ef72aed483b57141e41f9d64499b43411f58b60a0e07fcdb6e824a9181900360c00190a16001600160a01b0388161561146c576114676001600160a01b0389168b8361389f565b611515565b60008a6001600160a01b0316609f5483604051600060405180830381858888f193505050503d80600081146114bd576040519150601f19603f3d011682016040523d82523d6000602084013e6114c2565b606091505b50509050806115135760405162461bcd60e51b815260206004820152601460248201527f4661696c656420746f2073656e642045746865720000000000000000000000006044820152606401610293565b505b50505050505050505050565b60665460ff16156115745760405162461bcd60e51b815260206004820152601060248201527f5061757361626c653a20706175736564000000000000000000000000000000006044820152606401610293565b6001600160a01b03808316600090815260986020908152604080832060998352818420338552909252909120600182015491929091166115f65760405162461bcd60e51b815260206004820152601c60248201527f546f6b656e2041646472657373204e6f742052656769737465726564000000006044820152606401610293565b80548511156116475760405162461bcd60e51b815260206004820152600e60248201527f5769746864726177204572726f720000000000000000000000000000000000006044820152606401610293565b61165084610793565b61168a61167f8260010154610f9164e8d4a510006108028760050154876000015461365090919063ffffffff16565b600283015490613668565b6002820155805461169b908661363d565b80825560058301546116b89164e8d4a51000916108029190613650565b600182015560028201546116cc908661363d565b6002830155604080513381526001600160a01b0385811660208301528183018890528616606082015290517ffa2e8fcf14fd6ea11b6ebe7caf7de210198b8fe1eaf0e06d19f8d87c73860c469181900360800190a16001600160a01b03841615611749576117446001600160a01b038516848761389f565b6117f0565b6000836001600160a01b0316609f5487604051600060405180830381858888f193505050503d806000811461179a576040519150601f19603f3d011682016040523d82523d6000602084013e61179f565b606091505b50509050806111425760405162461bcd60e51b815260206004820152601260248201527f4661696c656420746f2073656e642045544800000000000000000000000000006044820152606401610293565b5050505050565b609a546001600160a01b03163314806118195750609a546001600160a01b0316155b6118655760405162461bcd60e51b815260206004820152601760248201527f43616c6c6572206973206e6f7420746865206f776e65720000000000000000006044820152606401610293565b806001600160a01b0316826001600160a01b031614156118ed5760405162461bcd60e51b815260206004820152602860248201527f6c3120616e64206c3220746f6b656e206164647265737365732063616e6e6f7460448201527f2062652073616d650000000000000000000000000000000000000000000000006064820152608401610293565b6001600160a01b0381166119695760405162461bcd60e51b815260206004820152602760248201527f6c3220746f6b656e20616464726573732063616e6e6f74206265207a65726f2060448201527f61646472657373000000000000000000000000000000000000000000000000006064820152608401610293565b6001600160a01b0380831660009081526098602052604090206001810154909116156119d75760405162461bcd60e51b815260206004820181905260248201527f546f6b656e204164647265737320416c726561647920526567697374657265646044820152606401610293565b5060408051610100810182526001600160a01b0393841680825292841660208083019182526000838501818152606085018281526080860183815260a0870184815260c088018581524260e08a019081529a865260989096529790932095518654908a167fffffffffffffffffffffffff0000000000000000000000000000000000000000918216178755945160018701805491909a16951694909417909755955160028401559051600383015593516004820155905160058201559151600683015551600790910155565b609a546001600160a01b0316331480611ac55750609a546001600160a01b0316155b611b115760405162461bcd60e51b815260206004820152601760248201527f43616c6c6572206973206e6f7420746865206f776e65720000000000000000006044820152606401610293565b6001600160a01b0380831660009081526098602052604090206001810154909116611b7e5760405162461bcd60e51b815260206004820152601c60248201527f546f6b656e2041646472657373204e6f742052656769737465726564000000006044820152606401610293565b8381600601541015611bd25760405162461bcd60e51b815260206004820152601b60248201527f4f776e657220526577617264205769746864726177204572726f7200000000006044820152606401610293565b6006810154611be1908561363d565b6006820155604080513381526001600160a01b0384811660208301528183018790528516606082015290517f3cb71b9a1fb601579f96812b9f86ab5e914fc3e54c98d5f84d95581b2b9884f39181900360800190a16001600160a01b03831615611c5e57611c596001600160a01b038416838661389f565b611d05565b6000826001600160a01b0316609f5486604051600060405180830381858888f193505050503d8060008114611caf576040519150601f19603f3d011682016040523d82523d6000602084013e611cb4565b606091505b50509050806117f05760405162461bcd60e51b815260206004820152601460248201527f4661696c656420746f2073656e642045746865720000000000000000000000006044820152606401610293565b50505050565b609a546001600160a01b0316331480611d2d5750609a546001600160a01b0316155b611d795760405162461bcd60e51b815260206004820152601760248201527f43616c6c6572206973206e6f7420746865206f776e65720000000000000000006044820152606401610293565b6109c66138e8565b60665460ff1615611dd45760405162461bcd60e51b815260206004820152601060248201527f5061757361626c653a20706175736564000000000000000000000000000000006044820152606401610293565b60058110611e245760405162461bcd60e51b815260206004820152600f60248201527f546f6f204d616e7920546f6b656e7300000000000000000000000000000000006044820152606401610293565b6000808267ffffffffffffffff811115611e4057611e406143b1565b604051908082528060200260200182016040528015611ea957816020015b60408051606081018252600080825260208083018290529282015282527fffffffffffffffffffffffffffffffffffffffffffffffffffffffffffffffff909201910181611e5e5790505b50905060005b83811015612050576000858583818110611ecb57611ecb6143e0565b905060400201803603810190611ee1919061440f565b9050806020015160001415611f385760405162461bcd60e51b815260206004820152600e60248201527f496e76616c696420416d6f756e740000000000000000000000000000000000006044820152606401610293565b80516001600160a01b0390811660009081526098602052604090206001810154909116611fa75760405162461bcd60e51b815260206004820152600d60248201527f496e7661696c6420546f6b656e000000000000000000000000000000000000006044820152606401610293565b81516001600160a01b031615611fdc5760208201518251611fd7916001600160a01b03909116903390309061398e565b611fee565b6020820151611feb90866144bd565b94505b6040805160608101825233815260018301546001600160a01b0316602080830191909152840151918101919091528451859085908110612030576120306143e0565b602002602001018190525050508080612048906144d5565b915050611eaf565b503482146120a05760405162461bcd60e51b815260206004820152601260248201527f496e76616c69642045544820416d6f756e7400000000000000000000000000006044820152606401610293565b600063b4eeb98860e01b826040516024016120bb919061450e565b604080517fffffffffffffffffffffffffffffffffffffffffffffffffffffffffffffffe08184030181529190526020810180517bffffffffffffffffffffffffffffffffffffffffffffffffffffffff167fffffffff0000000000000000000000000000000000000000000000000000000090931692909217909152609b54609e54919250612168916001600160a01b03909116906121629063ffffffff166002614573565b836139df565b7f1a79d691d0cd9e7c4f70b52af899cfc71146947ba0fa6fc236e2649c07a8e91282604051612197919061450e565b60405180910390a15050505050565b609b546001600160a01b03166121c46001546001600160a01b031690565b6001600160a01b0316336001600160a01b03161461224a5760405162461bcd60e51b815260206004820152602a60248201527f58434841494e3a206d657373656e67657220636f6e747261637420756e61757460448201527f68656e74696361746564000000000000000000000000000000000000000000006064820152608401610293565b806001600160a01b03166122666001546001600160a01b031690565b6001600160a01b0316636e296e456040518163ffffffff1660e01b815260040160206040518083038186803b15801561229e57600080fd5b505afa1580156122b2573d6000803e3d6000fd5b505050506040513d601f19601f820116820180604052508101906122d69190614394565b6001600160a01b0316146123525760405162461bcd60e51b815260206004820152602c60248201527f58434841494e3a2077726f6e672073656e646572206f662063726f73732d646f60448201527f6d61696e206d65737361676500000000000000000000000000000000000000006064820152608401610293565b609b546001600160a01b03166123d05760405162461bcd60e51b815260206004820152602560248201527f436f6e747261637420686173206e6f7420796574206265656e20696e6974696160448201527f6c697a65640000000000000000000000000000000000000000000000000000006064820152608401610293565b828411156124205760405162461bcd60e51b815260206004820152601760248201527f496e76616c7564207573657220726577617264206665650000000000000000006044820152606401610293565b611d05848484609c9290925560a255609d55565b6002805414156124865760405162461bcd60e51b815260206004820152601f60248201527f5265656e7472616e637947756172643a207265656e7472616e742063616c6c006044820152606401610293565b6002805560665460ff16156124dd5760405162461bcd60e51b815260206004820152601060248201527f5061757361626c653a20706175736564000000000000000000000000000000006044820152606401610293565b341515806124f357506001600160a01b03811615155b6125655760405162461bcd60e51b815260206004820152603260248201527f45697468657220416d6f756e7420496e636f7272656374206f7220546f6b656e60448201527f204164647265737320496e636f727265637400000000000000000000000000006064820152608401610293565b341580159061257c57506001600160a01b03811615155b156125ef5760405162461bcd60e51b815260206004820152603260248201527f45697468657220416d6f756e7420496e636f7272656374206f7220546f6b656e60448201527f204164647265737320496e636f727265637400000000000000000000000000006064820152608401610293565b34156125fc575034905060005b6001600160a01b038082166000908152609860209081526040808320609983528184203385529092529091206001820154919290911661267e5760405162461bcd60e51b815260206004820152601c60248201527f546f6b656e2041646472657373204e6f742052656769737465726564000000006044820152606401610293565b61268783610793565b8054156126f3576126bd61167f8260010154610f9164e8d4a510006108028760050154876000015461365090919063ffffffff16565b6002820155600582015481546126e99164e8d4a510009161080291906126e39089613668565b90613650565b6001820155612719565b61271364e8d4a5100061080284600501548761365090919063ffffffff16565b60018201555b80546127259085613668565b815560028201546127369085613668565b600283015560408051338152602081018690526001600160a01b0385168183015290517f5852d1d46e583f7e92c2a572221de0e681d82ef71f489847e056b9445c0147369181900360600190a16001600160a01b038316156127a7576127a76001600160a01b03841633308761398e565b505060016002555050565b609b546001600160a01b03166127d06001546001600160a01b031690565b6001600160a01b0316336001600160a01b0316146128565760405162461bcd60e51b815260206004820152602a60248201527f58434841494e3a206d657373656e67657220636f6e747261637420756e61757460448201527f68656e74696361746564000000000000000000000000000000000000000000006064820152608401610293565b806001600160a01b03166128726001546001600160a01b031690565b6001600160a01b0316636e296e456040518163ffffffff1660e01b815260040160206040518083038186803b1580156128aa57600080fd5b505afa1580156128be573d6000803e3d6000fd5b505050506040513d601f19601f820116820180604052508101906128e29190614394565b6001600160a01b03161461295e5760405162461bcd60e51b815260206004820152602c60248201527f58434841494e3a2077726f6e672073656e646572206f662063726f73732d646f60448201527f6d61696e206d65737361676500000000000000000000000000000000000000006064820152608401610293565b60665460ff16156129b15760405162461bcd60e51b815260206004820152601060248201527f5061757361626c653a20706175736564000000000000000000000000000000006044820152606401610293565b6001600160a01b0382166000908152609860205260408120816129d385612d0d565b905060006129e76103e86108028985613650565b90506000612a066103e8610802609d548b61365090919063ffffffff16565b90506000612a148383613668565b90506000612a228a8361363d565b90506001600160a01b03891615612b14576040517f70a082310000000000000000000000000000000000000000000000000000000081523060048201526001600160a01b038a16906370a082319060240160206040518083038186803b158015612a8b57600080fd5b505afa158015612a9f573d6000803e3d6000fd5b505050506040513d601f19601f82011682018060405250810190612ac3919061437b565b811115612ad35760019650612bf4565b6004860154612ae29085613668565b60048701556006860154612af69084613668565b6006870155612b0f6001600160a01b038a168c8361389f565b612bf4565b47811115612b255760019650612bf4565b6004860154612b349085613668565b60048701556006860154612b489084613668565b6006870155609f546040516000916001600160a01b038e1691849084818181858888f193505050503d8060008114612b9c576040519150601f19603f3d011682016040523d82523d6000602084013e612ba1565b606091505b5050905080612bf25760405162461bcd60e51b815260206004820152601260248201527f4661696c656420746f2073656e642045544800000000000000000000000000006044820152606401610293565b505b8615612ca1576001860154604080516001600160a01b038e81166024830152604482018e90529283166064808301919091528251808303909101815260849091019091526020810180517bffffffffffffffffffffffffffffffffffffffffffffffffffffffff167f650a767b00000000000000000000000000000000000000000000000000000000179052609b54609e549192612c9b9291169063ffffffff16836139df565b50611513565b604080516001600160a01b038d811682526020820184905281830187905260608201869052608082018590528b1660a082015290517ffe1f8646fcb202e48551fbfd19085116c64b291c60cede7dce3665a57c05e3819181900360c00190a15050505050505050505050565b609b546000906001600160a01b0316612d8e5760405162461bcd60e51b815260206004820152602560248201527f436f6e747261637420686173206e6f7420796574206265656e20696e6974696160448201527f6c697a65640000000000000000000000000000000000000000000000000000006064820152608401610293565b6001600160a01b038216600081815260986020526040812060028101549092909190612dbb575047612e4e565b6040517f70a082310000000000000000000000000000000000000000000000000000000081523060048201526001600160a01b038616906370a082319060240160206040518083038186803b158015612e1357600080fd5b505afa158015612e27573d6000803e3d6000fd5b505050506040513d601f19601f82011682018060405250810190612e4b919061437b565b90505b80612e5f57505060a2549392505050565b60008183609c54612e70919061459f565b612e7a91906145dc565b905080609c541115612e93575050609c54949350505050565b8060a2541015612eaa57505060a254949350505050565b9350612eb592505050565b919050565b609a546001600160a01b0316331480612edc5750609a546001600160a01b0316155b612f285760405162461bcd60e51b815260206004820152601760248201527f43616c6c6572206973206e6f7420746865206f776e65720000000000000000006044820152606401610293565b6001600160a01b038116612fa35760405162461bcd60e51b8152602060048201526024808201527f4e6577206f776e65722063616e6e6f7420626520746865207a65726f2061646460448201527f72657373000000000000000000000000000000000000000000000000000000006064820152608401610293565b609a80547fffffffffffffffffffffffff0000000000000000000000000000000000000000166001600160a01b0383169081179091556040519081527f04dba622d284ed0014ee4b9a6a68386be1a4c08a4913ae272de89199cc6861639060200160405180910390a150565b60665460ff16156130625760405162461bcd60e51b815260206004820152601060248201527f5061757361626c653a20706175736564000000000000000000000000000000006044820152606401610293565b3415158061307857506001600160a01b03811615155b6130ea5760405162461bcd60e51b815260206004820152603260248201527f45697468657220416d6f756e7420496e636f7272656374206f7220546f6b656e60448201527f204164647265737320496e636f727265637400000000000000000000000000006064820152608401610293565b341580159061310157506001600160a01b03811615155b156131745760405162461bcd60e51b815260206004820152603260248201527f45697468657220416d6f756e7420496e636f7272656374206f7220546f6b656e60448201527f204164647265737320496e636f727265637400000000000000000000000000006064820152608401610293565b3415613181575034905060005b6001600160a01b03808216600090815260986020526040902060018101549091166131ee5760405162461bcd60e51b815260206004820152601c60248201527f546f6b656e2041646472657373204e6f742052656769737465726564000000006044820152606401610293565b6131f9823385613a2c565b60408051338152602081018590526001600160a01b0384168183015290517f860e25c3d48fb81f0b272550dd125a5a6ab20ee7511dd3e250d04964bd37a7a99181900360600190a16001600160a01b03821615613265576132656001600160a01b03831633308661398e565b600181015460408051336024820152604481018690526001600160a01b039283166064808301919091528251808303909101815260849091019091526020810180517bffffffffffffffffffffffffffffffffffffffffffffffffffffffff167fbd2d1cab00000000000000000000000000000000000000000000000000000000179052609b54609e549192611d059291169063ffffffff16836139df565b609a546001600160a01b03163314806133265750609a546001600160a01b0316155b6133725760405162461bcd60e51b815260206004820152601760248201527f43616c6c6572206973206e6f7420746865206f776e65720000000000000000006044820152606401610293565b609b546001600160a01b0316156133cb5760405162461bcd60e51b815260206004820152601d60248201527f436f6e747261637420686173206265656e20696e697469616c697a65640000006044820152606401610293565b6001547501000000000000000000000000000000000000000000900460ff1680613410575060015474010000000000000000000000000000000000000000900460ff16155b6134825760405162461bcd60e51b815260206004820152602e60248201527f496e697469616c697a61626c653a20636f6e747261637420697320616c72656160448201527f647920696e697469616c697a65640000000000000000000000000000000000006064820152608401610293565b6001547501000000000000000000000000000000000000000000900460ff161580156134e957600180547fffffffffffffffffffff0000ffffffffffffffffffffffffffffffffffffffff1675010100000000000000000000000000000000000000001790555b6001600160a01b0385161580159061350957506001600160a01b03841615155b801561351d57506001600160a01b03831615155b6135695760405162461bcd60e51b815260206004820152601860248201527f7a65726f2061646472657373206e6f7420616c6c6f77656400000000000000006044820152606401610293565b600080546001600160a01b038781167fffffffffffffffffffffffff000000000000000000000000000000000000000092831617835560018054888316908416179055609b805487831690841617905560a18054918616918316919091179055609a8054909116331790556005609c55603260a255609d556135f0620aae606108fc610829565b6135f8613ab1565b613600613c01565b613608613d78565b80156117f057600180547fffffffffffffffffffff00ffffffffffffffffffffffffffffffffffffffffff1690555050505050565b60006136498284614617565b9392505050565b6000613649828461459f565b600061364982846145dc565b600061364982846144bd565b60665460ff166136c65760405162461bcd60e51b815260206004820152601460248201527f5061757361626c653a206e6f74207061757365640000000000000000000000006044820152606401610293565b606680547fffffffffffffffffffffffffffffffffffffffffffffffffffffffffffffff001690557f5db9ee0a495bf2e6ff9c91a7834c1ba4fdd244a5e8aa4e537bd38aeae4b073aa335b6040516001600160a01b03909116815260200160405180910390a1565b6040517fdd62ed3e0000000000000000000000000000000000000000000000000000000081523060048201526001600160a01b038381166024830152600091839186169063dd62ed3e9060440160206040518083038186803b15801561379357600080fd5b505afa1580156137a7573d6000803e3d6000fd5b505050506040513d601f19601f820116820180604052508101906137cb919061437b565b6137d591906144bd565b6040516001600160a01b038516602482015260448101829052909150611d059085907f095ea7b300000000000000000000000000000000000000000000000000000000906064015b604080517fffffffffffffffffffffffffffffffffffffffffffffffffffffffffffffffe08184030181529190526020810180517bffffffffffffffffffffffffffffffffffffffffffffffffffffffff167fffffffff0000000000000000000000000000000000000000000000000000000090931692909217909152613ecc565b6040516001600160a01b038316602482015260448101829052610e869084907fa9059cbb000000000000000000000000000000000000000000000000000000009060640161381d565b60665460ff161561393b5760405162461bcd60e51b815260206004820152601060248201527f5061757361626c653a20706175736564000000000000000000000000000000006044820152606401610293565b606680547fffffffffffffffffffffffffffffffffffffffffffffffffffffffffffffff001660011790557f62e78cea01bee320cd4e420270b5ea74000d11b0c9f74754ebdbfc544b05a2586137113390565b6040516001600160a01b0380851660248301528316604482015260648101829052611d059085907f23b872dd000000000000000000000000000000000000000000000000000000009060840161381d565b6000546040517f3dbb202b0000000000000000000000000000000000000000000000000000000081526001600160a01b0390911690633dbb202b90610e53908690859087906004016146a4565b60a554431115613a3d5760a45460a3555b60a4546040805160208101929092526001600160a01b0380861691830191909152831660608201526080810182905260a001604080517fffffffffffffffffffffffffffffffffffffffffffffffffffffffffffffffe0818403018152919052805160209091012060a45550504360a55550565b6001547501000000000000000000000000000000000000000000900460ff1680613af6575060015474010000000000000000000000000000000000000000900460ff16155b613b685760405162461bcd60e51b815260206004820152602e60248201527f496e697469616c697a61626c653a20636f6e747261637420697320616c72656160448201527f647920696e697469616c697a65640000000000000000000000000000000000006064820152608401610293565b6001547501000000000000000000000000000000000000000000900460ff16158015613bcf57600180547fffffffffffffffffffff0000ffffffffffffffffffffffffffffffffffffffff1675010100000000000000000000000000000000000000001790555b8015613bfe57600180547fffffffffffffffffffff00ffffffffffffffffffffffffffffffffffffffffff1690555b50565b6001547501000000000000000000000000000000000000000000900460ff1680613c46575060015474010000000000000000000000000000000000000000900460ff16155b613cb85760405162461bcd60e51b815260206004820152602e60248201527f496e697469616c697a61626c653a20636f6e747261637420697320616c72656160448201527f647920696e697469616c697a65640000000000000000000000000000000000006064820152608401610293565b6001547501000000000000000000000000000000000000000000900460ff16158015613d1f57600180547fffffffffffffffffffff0000ffffffffffffffffffffffffffffffffffffffff1675010100000000000000000000000000000000000000001790555b606680547fffffffffffffffffffffffffffffffffffffffffffffffffffffffffffffff001690558015613bfe57600180547fffffffffffffffffffff00ffffffffffffffffffffffffffffffffffffffffff16905550565b6001547501000000000000000000000000000000000000000000900460ff1680613dbd575060015474010000000000000000000000000000000000000000900460ff16155b613e2f5760405162461bcd60e51b815260206004820152602e60248201527f496e697469616c697a61626c653a20636f6e747261637420697320616c72656160448201527f647920696e697469616c697a65640000000000000000000000000000000000006064820152608401610293565b6001547501000000000000000000000000000000000000000000900460ff16158015613e9657600180547fffffffffffffffffffff0000ffffffffffffffffffffffffffffffffffffffff1675010100000000000000000000000000000000000000001790555b60016002558015613bfe57600180547fffffffffffffffffffff00ffffffffffffffffffffffffffffffffffffffffff16905550565b6000613f21826040518060400160405280602081526020017f5361666545524332303a206c6f772d6c6576656c2063616c6c206661696c6564815250856001600160a01b0316613fb19092919063ffffffff16565b805190915015610e865780806020019051810190613f3f91906146dc565b610e865760405162461bcd60e51b815260206004820152602a60248201527f5361666545524332303a204552433230206f7065726174696f6e20646964206e60448201527f6f742073756363656564000000000000000000000000000000000000000000006064820152608401610293565b6060613fc08484600085613fc8565b949350505050565b6060824710156140405760405162461bcd60e51b815260206004820152602660248201527f416464726573733a20696e73756666696369656e742062616c616e636520666f60448201527f722063616c6c00000000000000000000000000000000000000000000000000006064820152608401610293565b843b61408e5760405162461bcd60e51b815260206004820152601d60248201527f416464726573733a2063616c6c20746f206e6f6e2d636f6e74726163740000006044820152606401610293565b600080866001600160a01b031685876040516140aa91906146fe565b60006040518083038185875af1925050503d80600081146140e7576040519150601f19603f3d011682016040523d82523d6000602084013e6140ec565b606091505b50915091506140fc828286614107565b979650505050505050565b60608315614116575081613649565b8251156141265782518084602001fd5b8160405162461bcd60e51b8152600401610293919061471a565b6001600160a01b0381168114613bfe57600080fd5b6000806040838503121561416857600080fd5b823561417381614140565b9150602083013561418381614140565b809150509250929050565b6000602082840312156141a057600080fd5b813561364981614140565b600080604083850312156141be57600080fd5b823563ffffffff811681146141d257600080fd5b946020939093013593505050565b600080604083850312156141f357600080fd5b82359150602083013561418381614140565b60008060006060848603121561421a57600080fd5b83359250602084013561422c81614140565b9150604084013561423c81614140565b809150509250925092565b60008060006060848603121561425c57600080fd5b833561426781614140565b925060208401359150604084013561423c81614140565b6000806020838503121561429157600080fd5b823567ffffffffffffffff808211156142a957600080fd5b818501915085601f8301126142bd57600080fd5b8135818111156142cc57600080fd5b8660208260061b85010111156142e157600080fd5b60209290920196919550909350505050565b60008060006060848603121561430857600080fd5b505081359360208301359350604090920135919050565b6000806000806080858703121561433557600080fd5b843561434081614140565b9350602085013561435081614140565b9250604085013561436081614140565b9150606085013561437081614140565b939692955090935050565b60006020828403121561438d57600080fd5b5051919050565b6000602082840312156143a657600080fd5b815161364981614140565b7f4e487b7100000000000000000000000000000000000000000000000000000000600052604160045260246000fd5b7f4e487b7100000000000000000000000000000000000000000000000000000000600052603260045260246000fd5b60006040828403121561442157600080fd5b6040516040810181811067ffffffffffffffff8211171561446b577f4e487b7100000000000000000000000000000000000000000000000000000000600052604160045260246000fd5b604052823561447981614140565b81526020928301359281019290925250919050565b7f4e487b7100000000000000000000000000000000000000000000000000000000600052601160045260246000fd5b600082198211156144d0576144d061448e565b500190565b60007fffffffffffffffffffffffffffffffffffffffffffffffffffffffffffffffff8214156145075761450761448e565b5060010190565b602080825282518282018190526000919060409081850190868401855b8281101561456657815180516001600160a01b039081168652878201511687860152850151858501526060909301929085019060010161452b565b5091979650505050505050565b600063ffffffff808316818516818304811182151516156145965761459661448e565b02949350505050565b6000817fffffffffffffffffffffffffffffffffffffffffffffffffffffffffffffffff04831182151516156145d7576145d761448e565b500290565b600082614612577f4e487b7100000000000000000000000000000000000000000000000000000000600052601260045260246000fd5b500490565b6000828210156146295761462961448e565b500390565b60005b83811015614649578181015183820152602001614631565b83811115611d055750506000910152565b6000815180845261467281602086016020860161462e565b601f017fffffffffffffffffffffffffffffffffffffffffffffffffffffffffffffffe0169290920160200192915050565b6001600160a01b03841681526060602082015260006146c6606083018561465a565b905063ffffffff83166040830152949350505050565b6000602082840312156146ee57600080fd5b8151801515811461364957600080fd5b6000825161471081846020870161462e565b9190910192915050565b602081526000613649602083018461465a56fea164736f6c6343000809000a",
  "linkReferences": {},
  "deployedLinkReferences": {}
}