{
  "_format": "hh-sol-artifact-1",
  "contractName": "OMGLikeToken",
  "sourceName": "contracts/test-helpers/OMGLikeToken.sol",
  "abi": [
    {
      "constant": true,
      "inputs": [],
      "name": "mintingFinished",
      "outputs": [
        {
          "name": "",
          "type": "bool"
        }
      ],
      "payable": false,
      "type": "function"
    },
    {
      "constant": true,
      "inputs": [],
      "name": "name",
      "outputs": [
        {
          "name": "",
          "type": "string"
        }
      ],
      "payable": false,
      "type": "function"
    },
    {
      "constant": false,
      "inputs": [
        {
          "name": "_spender",
          "type": "address"
        },
        {
          "name": "_value",
          "type": "uint256"
        }
      ],
      "name": "approve",
      "outputs": [],
      "payable": false,
      "type": "function"
    },
    {
      "constant": true,
      "inputs": [],
      "name": "totalSupply",
      "outputs": [
        {
          "name": "",
          "type": "uint256"
        }
      ],
      "payable": false,
      "type": "function"
    },
    {
      "constant": false,
      "inputs": [
        {
          "name": "_from",
          "type": "address"
        },
        {
          "name": "_to",
          "type": "address"
        },
        {
          "name": "_value",
          "type": "uint256"
        }
      ],
      "name": "transferFrom",
      "outputs": [],
      "payable": false,
      "type": "function"
    },
    {
      "constant": true,
      "inputs": [],
      "name": "decimals",
      "outputs": [
        {
          "name": "",
          "type": "uint256"
        }
      ],
      "payable": false,
      "type": "function"
    },
    {
      "constant": false,
      "inputs": [],
      "name": "unpause",
      "outputs": [
        {
          "name": "",
          "type": "bool"
        }
      ],
      "payable": false,
      "type": "function"
    },
    {
      "constant": false,
      "inputs": [
        {
          "name": "_to",
          "type": "address"
        },
        {
          "name": "_amount",
          "type": "uint256"
        }
      ],
      "name": "mint",
      "outputs": [
        {
          "name": "",
          "type": "bool"
        }
      ],
      "payable": false,
      "type": "function"
    },
    {
      "constant": true,
      "inputs": [],
      "name": "paused",
      "outputs": [
        {
          "name": "",
          "type": "bool"
        }
      ],
      "payable": false,
      "type": "function"
    },
    {
      "constant": true,
      "inputs": [
        {
          "name": "_owner",
          "type": "address"
        }
      ],
      "name": "balanceOf",
      "outputs": [
        {
          "name": "balance",
          "type": "uint256"
        }
      ],
      "payable": false,
      "type": "function"
    },
    {
      "constant": false,
      "inputs": [],
      "name": "finishMinting",
      "outputs": [
        {
          "name": "",
          "type": "bool"
        }
      ],
      "payable": false,
      "type": "function"
    },
    {
      "constant": false,
      "inputs": [],
      "name": "pause",
      "outputs": [
        {
          "name": "",
          "type": "bool"
        }
      ],
      "payable": false,
      "type": "function"
    },
    {
      "constant": true,
      "inputs": [],
      "name": "owner",
      "outputs": [
        {
          "name": "",
          "type": "address"
        }
      ],
      "payable": false,
      "type": "function"
    },
    {
      "constant": true,
      "inputs": [],
      "name": "symbol",
      "outputs": [
        {
          "name": "",
          "type": "string"
        }
      ],
      "payable": false,
      "type": "function"
    },
    {
      "constant": false,
      "inputs": [
        {
          "name": "_to",
          "type": "address"
        },
        {
          "name": "_value",
          "type": "uint256"
        }
      ],
      "name": "transfer",
      "outputs": [],
      "payable": false,
      "type": "function"
    },
    {
      "constant": false,
      "inputs": [
        {
          "name": "_to",
          "type": "address"
        },
        {
          "name": "_amount",
          "type": "uint256"
        },
        {
          "name": "_releaseTime",
          "type": "uint256"
        }
      ],
      "name": "mintTimelocked",
      "outputs": [
        {
          "name": "",
          "type": "address"
        }
      ],
      "payable": false,
      "type": "function"
    },
    {
      "constant": true,
      "inputs": [
        {
          "name": "_owner",
          "type": "address"
        },
        {
          "name": "_spender",
          "type": "address"
        }
      ],
      "name": "allowance",
      "outputs": [
        {
          "name": "remaining",
          "type": "uint256"
        }
      ],
      "payable": false,
      "type": "function"
    },
    {
      "constant": false,
      "inputs": [
        {
          "name": "newOwner",
          "type": "address"
        }
      ],
      "name": "transferOwnership",
      "outputs": [],
      "payable": false,
      "type": "function"
    },
    {
      "anonymous": false,
      "inputs": [
        {
          "indexed": true,
          "name": "to",
          "type": "address"
        },
        {
          "indexed": false,
          "name": "value",
          "type": "uint256"
        }
      ],
      "name": "Mint",
      "type": "event"
    },
    {
      "anonymous": false,
      "inputs": [],
      "name": "MintFinished",
      "type": "event"
    },
    {
      "anonymous": false,
      "inputs": [],
      "name": "Pause",
      "type": "event"
    },
    {
      "anonymous": false,
      "inputs": [],
      "name": "Unpause",
      "type": "event"
    },
    {
      "anonymous": false,
      "inputs": [
        {
          "indexed": true,
          "name": "owner",
          "type": "address"
        },
        {
          "indexed": true,
          "name": "spender",
          "type": "address"
        },
        {
          "indexed": false,
          "name": "value",
          "type": "uint256"
        }
      ],
      "name": "Approval",
      "type": "event"
    },
    {
      "anonymous": false,
      "inputs": [
        {
          "indexed": true,
          "name": "from",
          "type": "address"
        },
        {
          "indexed": true,
          "name": "to",
          "type": "address"
        },
        {
          "indexed": false,
          "name": "value",
          "type": "uint256"
        }
      ],
      "name": "Transfer",
      "type": "event"
    }
  ],
  "bytecode": "0x6003805460a060020a61ffff0219169055600060045560a0604052600860608190527f4f4d47546f6b656e000000000000000000000000000000000000000000000000608090815261005491600591906100c1565b506040805180820190915260038082527f4f4d4700000000000000000000000000000000000000000000000000000000006020909201918252610099916006916100c1565b5060126007555b60038054600160a060020a03191633600160a060020a03161790555b610161565b828054600181600116156101000203166002900490600052602060002090601f016020900481019282601f1061010257805160ff191683800117855561012f565b8280016001018555821561012f579182015b8281111561012f578251825591602001919060010190610114565b5b5061013c929150610140565b5090565b61015e91905b8082111561013c5760008155600101610146565b5090565b90565b61124780620001716000396000f300606060405236156100f95763ffffffff7c010000000000000000000000000000000000000000000000000000000060003504166305d2035b81146100fb57806306fdde031461011f578063095ea7b3146101cd57806318160ddd146101fb57806323b872dd1461021d578063313ce567146102515780633f4ba83a1461027357806340c10f19146102975780635c975abb146102d757806370a08231146102fb5780637d64bcb4146103365780638456cb591461035a5780638da5cb5b1461037e57806395d89b41146103b7578063a9059cbb14610465578063c14a3b8c14610493578063dd62ed3e146104eb578063f2fde38b1461052c575bfe5b341561010357fe5b61010b610557565b604080519115158252519081900360200190f35b341561012757fe5b61012f610579565b604080516020808252835181830152835191928392908301918501908083838215610193575b805182526020831115610193577fffffffffffffffffffffffffffffffffffffffffffffffffffffffffffffffe09092019160209182019101610155565b505050905090810190601f1680156101bf5780820380516001836020036101000a031916815260200191505b509250505060405180910390f35b34156101d557fe5b6101f973ffffffffffffffffffffffffffffffffffffffff60043516602435610625565b005b341561020357fe5b61020b6106df565b60408051918252519081900360200190f35b341561022557fe5b6101f973ffffffffffffffffffffffffffffffffffffffff600435811690602435166044356106e5565b005b341561025957fe5b61020b610720565b60408051918252519081900360200190f35b341561027b57fe5b61010b610726565b604080519115158252519081900360200190f35b341561029f57fe5b61010b73ffffffffffffffffffffffffffffffffffffffff600435166024356107d6565b604080519115158252519081900360200190f35b34156102df57fe5b61010b6108e3565b604080519115158252519081900360200190f35b341561030357fe5b61020b73ffffffffffffffffffffffffffffffffffffffff60043516610904565b60408051918252519081900360200190f35b341561033e57fe5b61010b610930565b604080519115158252519081900360200190f35b341561036257fe5b61010b6109cd565b604080519115158252519081900360200190f35b341561038657fe5b61038e610a93565b6040805173ffffffffffffffffffffffffffffffffffffffff9092168252519081900360200190f35b34156103bf57fe5b61012f610aaf565b604080516020808252835181830152835191928392908301918501908083838215610193575b805182526020831115610193577fffffffffffffffffffffffffffffffffffffffffffffffffffffffffffffffe09092019160209182019101610155565b505050905090810190601f1680156101bf5780820380516001836020036101000a031916815260200191505b509250505060405180910390f35b341561046d57fe5b6101f973ffffffffffffffffffffffffffffffffffffffff60043516602435610b5b565b005b341561049b57fe5b61038e73ffffffffffffffffffffffffffffffffffffffff60043516602435604435610b94565b6040805173ffffffffffffffffffffffffffffffffffffffff9092168252519081900360200190f35b34156104f357fe5b61020b73ffffffffffffffffffffffffffffffffffffffff60043581169060243516610c54565b60408051918252519081900360200190f35b341561053457fe5b6101f973ffffffffffffffffffffffffffffffffffffffff60043516610c8e565b005b6003547501000000000000000000000000000000000000000000900460ff1681565b6005805460408051602060026001851615610100027fffffffffffffffffffffffffffffffffffffffffffffffffffffffffffffffff0190941693909304601f8101849004840282018401909252818152929183018282801561061d5780601f106105f25761010080835404028352916020019161061d565b820191906000526020600020905b81548152906001019060200180831161060057829003601f168201915b505050505081565b8015801590610665575073ffffffffffffffffffffffffffffffffffffffff33811660009081526002602090815260408083209386168352929052205415155b156106705760006000fd5b73ffffffffffffffffffffffffffffffffffffffff338116600081815260026020908152604080832094871680845294825291829020859055815185815291517f8c5be1e5ebec7d5bd14f71427d1e84f3dd0314c0f7b2291e5b200ac8c7c3b9259281900390910190a35b5050565b60045481565b60035474010000000000000000000000000000000000000000900460ff161561070e5760006000fd5b610719838383610d19565b5b5b505050565b60075481565b6003546000903373ffffffffffffffffffffffffffffffffffffffff9081169116146107525760006000fd5b60035474010000000000000000000000000000000000000000900460ff16151561077c5760006000fd5b600380547fffffffffffffffffffffff00ffffffffffffffffffffffffffffffffffffffff1690556040517f7805862f689e2f13df9f062ff482ad3ad112aca9e0847911ed832e158c525b3390600090a15060015b5b5b90565b6003546000903373ffffffffffffffffffffffffffffffffffffffff9081169116146108025760006000fd5b6003547501000000000000000000000000000000000000000000900460ff161561082c5760006000fd5b60045461083f908363ffffffff610e7116565b60045573ffffffffffffffffffffffffffffffffffffffff8316600090815260016020526040902054610878908363ffffffff610e7116565b73ffffffffffffffffffffffffffffffffffffffff8416600081815260016020908152604091829020939093558051858152905191927f0f6798a560793a54c3bcfe86a93cde1e73087d944c0ea20544137d412139688592918290030190a25060015b5b5b92915050565b60035474010000000000000000000000000000000000000000900460ff1681565b73ffffffffffffffffffffffffffffffffffffffff81166000908152600160205260409020545b919050565b6003546000903373ffffffffffffffffffffffffffffffffffffffff90811691161461095c5760006000fd5b600380547fffffffffffffffffffff00ffffffffffffffffffffffffffffffffffffffffff1675010000000000000000000000000000000000000000001790556040517fae5184fba832cb2b1f702aca6117b8d265eaf03ad33eb133f19dde0f5920fa0890600090a15060015b5b90565b6003546000903373ffffffffffffffffffffffffffffffffffffffff9081169116146109f95760006000fd5b60035474010000000000000000000000000000000000000000900460ff1615610a225760006000fd5b600380547fffffffffffffffffffffff00ffffffffffffffffffffffffffffffffffffffff16740100000000000000000000000000000000000000001790556040517f6985a02210a168e66602d3235cb6db0e70f92b3ba4d376a33c0f3d9434bff62590600090a15060015b5b5b90565b60035473ffffffffffffffffffffffffffffffffffffffff1681565b6006805460408051602060026001851615610100027fffffffffffffffffffffffffffffffffffffffffffffffffffffffffffffffff0190941693909304601f8101849004840282018401909252818152929183018282801561061d5780601f106105f25761010080835404028352916020019161061d565b820191906000526020600020905b81548152906001019060200180831161060057829003601f168201915b505050505081565b60035474010000000000000000000000000000000000000000900460ff1615610b845760006000fd5b6106db8282610e8d565b5b5b5050565b60035460009081903373ffffffffffffffffffffffffffffffffffffffff908116911614610bc25760006000fd5b6003547501000000000000000000000000000000000000000000900460ff1615610bec5760006000fd5b308584610bf7610fac565b73ffffffffffffffffffffffffffffffffffffffff9384168152919092166020820152604080820192909252905190819003606001906000f0801515610c3957fe5b9050610c4581856107d6565b508091505b5b5b509392505050565b73ffffffffffffffffffffffffffffffffffffffff8083166000908152600260209081526040808320938516835292905220545b92915050565b6003543373ffffffffffffffffffffffffffffffffffffffff908116911614610cb75760006000fd5b73ffffffffffffffffffffffffffffffffffffffff811615610d1457600380547fffffffffffffffffffffffff00000000000000000000000000000000000000001673ffffffffffffffffffffffffffffffffffffffff83161790555b5b5b50565b600060606064361015610d2c5760006000fd5b73ffffffffffffffffffffffffffffffffffffffff8086166000908152600260209081526040808320338516845282528083205493881683526001909152902054909250610d80908463ffffffff610e7116565b73ffffffffffffffffffffffffffffffffffffffff8086166000908152600160205260408082209390935590871681522054610dc2908463ffffffff610f8216565b73ffffffffffffffffffffffffffffffffffffffff8616600090815260016020526040902055610df8828463ffffffff610f8216565b73ffffffffffffffffffffffffffffffffffffffff8087166000818152600260209081526040808320338616845282529182902094909455805187815290519288169391927fddf252ad1be2c89b69c2b068fc378daa952ba7f163c4a11628f55a4df523b3ef929181900390910190a35b5b5050505050565b6000828201610e8284821015610f9b565b8091505b5092915050565b60406044361015610e9e5760006000fd5b73ffffffffffffffffffffffffffffffffffffffff3316600090815260016020526040902054610ed4908363ffffffff610f8216565b73ffffffffffffffffffffffffffffffffffffffff3381166000908152600160205260408082209390935590851681522054610f16908363ffffffff610e7116565b73ffffffffffffffffffffffffffffffffffffffff8085166000818152600160209081526040918290209490945580518681529051919333909316927fddf252ad1be2c89b69c2b068fc378daa952ba7f163c4a11628f55a4df523b3ef92918290030190a35b5b505050565b6000610f9083831115610f9b565b508082035b92915050565b801515610d145760006000fd5b5b50565b60405161025f80610fbd8339019056006060604052341561000c57fe5b60405160608061025f8339810160409081528151602083015191909201515b4281116100385760006000fd5b60008054600160a060020a03808616600160a060020a031992831617909255600180549285169290911691909117905560028190555b5050505b6101de806100816000396000f300606060405263ffffffff7c01000000000000000000000000000000000000000000000000000000006000350416634e71d92d811461003a575bfe5b341561004257fe5b61004a61004c565b005b6001546000903373ffffffffffffffffffffffffffffffffffffffff9081169116146100785760006000fd5b6002544210156100885760006000fd5b6000805460408051602090810184905281517f70a0823100000000000000000000000000000000000000000000000000000000815273ffffffffffffffffffffffffffffffffffffffff3081166004830152925192909316936370a082319360248082019492918390030190829087803b151561010157fe5b6102c65a03f1151561010f57fe5b505060405151915050600081116101265760006000fd5b60008054600154604080517fa9059cbb00000000000000000000000000000000000000000000000000000000815273ffffffffffffffffffffffffffffffffffffffff9283166004820152602481018690529051919092169263a9059cbb926044808201939182900301818387803b151561019d57fe5b6102c65a03f115156101ab57fe5b5050505b505600a165627a7a723058204563196eb3829e6e3bca06feeef6c5f3751d33b499dbe1656451fb367e82b0d80029a165627a7a723058201581a7ec04f1e4b2c350e2ef981c5d9af1ea9c1103316b06947daeb7209837d70029",
  "linkReferences": {},
  "deployedLinkReferences": {}
}