{
  "_format": "hh-sol-artifact-1",
  "contractName": "PausableToken",
  "sourceName": "contracts/test-helpers/OMGLikeToken.sol",
  "abi": [
    {
      "constant": false,
      "inputs": [
        {
          "name": "_spender",
          "type": "address"
        },
        {
          "name": "_value",
          "type": "uint256"
        }
      ],
      "name": "approve",
      "outputs": [],
      "payable": false,
      "type": "function"
    },
    {
      "constant": true,
      "inputs": [],
      "name": "totalSupply",
      "outputs": [
        {
          "name": "",
          "type": "uint256"
        }
      ],
      "payable": false,
      "type": "function"
    },
    {
      "constant": false,
      "inputs": [
        {
          "name": "_from",
          "type": "address"
        },
        {
          "name": "_to",
          "type": "address"
        },
        {
          "name": "_value",
          "type": "uint256"
        }
      ],
      "name": "transferFrom",
      "outputs": [],
      "payable": false,
      "type": "function"
    },
    {
      "constant": false,
      "inputs": [],
      "name": "unpause",
      "outputs": [
        {
          "name": "",
          "type": "bool"
        }
      ],
      "payable": false,
      "type": "function"
    },
    {
      "constant": true,
      "inputs": [],
      "name": "paused",
      "outputs": [
        {
          "name": "",
          "type": "bool"
        }
      ],
      "payable": false,
      "type": "function"
    },
    {
      "constant": true,
      "inputs": [
        {
          "name": "_owner",
          "type": "address"
        }
      ],
      "name": "balanceOf",
      "outputs": [
        {
          "name": "balance",
          "type": "uint256"
        }
      ],
      "payable": false,
      "type": "function"
    },
    {
      "constant": false,
      "inputs": [],
      "name": "pause",
      "outputs": [
        {
          "name": "",
          "type": "bool"
        }
      ],
      "payable": false,
      "type": "function"
    },
    {
      "constant": true,
      "inputs": [],
      "name": "owner",
      "outputs": [
        {
          "name": "",
          "type": "address"
        }
      ],
      "payable": false,
      "type": "function"
    },
    {
      "constant": false,
      "inputs": [
        {
          "name": "_to",
          "type": "address"
        },
        {
          "name": "_value",
          "type": "uint256"
        }
      ],
      "name": "transfer",
      "outputs": [],
      "payable": false,
      "type": "function"
    },
    {
      "constant": true,
      "inputs": [
        {
          "name": "_owner",
          "type": "address"
        },
        {
          "name": "_spender",
          "type": "address"
        }
      ],
      "name": "allowance",
      "outputs": [
        {
          "name": "remaining",
          "type": "uint256"
        }
      ],
      "payable": false,
      "type": "function"
    },
    {
      "constant": false,
      "inputs": [
        {
          "name": "newOwner",
          "type": "address"
        }
      ],
      "name": "transferOwnership",
      "outputs": [],
      "payable": false,
      "type": "function"
    },
    {
      "anonymous": false,
      "inputs": [],
      "name": "Pause",
      "type": "event"
    },
    {
      "anonymous": false,
      "inputs": [],
      "name": "Unpause",
      "type": "event"
    },
    {
      "anonymous": false,
      "inputs": [
        {
          "indexed": true,
          "name": "owner",
          "type": "address"
        },
        {
          "indexed": true,
          "name": "spender",
          "type": "address"
        },
        {
          "indexed": false,
          "name": "value",
          "type": "uint256"
        }
      ],
      "name": "Approval",
      "type": "event"
    },
    {
      "anonymous": false,
      "inputs": [
        {
          "indexed": true,
          "name": "from",
          "type": "address"
        },
        {
          "indexed": true,
          "name": "to",
          "type": "address"
        },
        {
          "indexed": false,
          "name": "value",
          "type": "uint256"
        }
      ],
      "name": "Transfer",
      "type": "event"
    }
  ],
  "bytecode": "0x60606040526003805460a060020a60ff02191690555b60038054600160a060020a03191633600160a060020a03161790555b5b610943806100416000396000f300606060405236156100ac5763ffffffff7c0100000000000000000000000000000000000000000000000000000000600035041663095ea7b381146100ae57806318160ddd146100dc57806323b872dd146100fe5780633f4ba83a146101325780635c975abb1461015657806370a082311461017a5780638456cb59146101b55780638da5cb5b146101d9578063a9059cbb14610212578063dd62ed3e14610240578063f2fde38b14610281575bfe5b34156100b657fe5b6100da73ffffffffffffffffffffffffffffffffffffffff600435166024356102ac565b005b34156100e457fe5b6100ec610366565b60408051918252519081900360200190f35b341561010657fe5b6100da73ffffffffffffffffffffffffffffffffffffffff6004358116906024351660443561036c565b005b341561013a57fe5b6101426103a7565b604080519115158252519081900360200190f35b341561015e57fe5b610142610457565b604080519115158252519081900360200190f35b341561018257fe5b6100ec73ffffffffffffffffffffffffffffffffffffffff60043516610478565b60408051918252519081900360200190f35b34156101bd57fe5b6101426104a4565b604080519115158252519081900360200190f35b34156101e157fe5b6101e961056a565b6040805173ffffffffffffffffffffffffffffffffffffffff9092168252519081900360200190f35b341561021a57fe5b6100da73ffffffffffffffffffffffffffffffffffffffff60043516602435610586565b005b341561024857fe5b6100ec73ffffffffffffffffffffffffffffffffffffffff600435811690602435166105bf565b60408051918252519081900360200190f35b341561028957fe5b6100da73ffffffffffffffffffffffffffffffffffffffff600435166105f9565b005b80158015906102ec575073ffffffffffffffffffffffffffffffffffffffff33811660009081526002602090815260408083209386168352929052205415155b156102f75760006000fd5b73ffffffffffffffffffffffffffffffffffffffff338116600081815260026020908152604080832094871680845294825291829020859055815185815291517f8c5be1e5ebec7d5bd14f71427d1e84f3dd0314c0f7b2291e5b200ac8c7c3b9259281900390910190a35b5050565b60005481565b60035474010000000000000000000000000000000000000000900460ff16156103955760006000fd5b6103a0838383610684565b5b5b505050565b6003546000903373ffffffffffffffffffffffffffffffffffffffff9081169116146103d35760006000fd5b60035474010000000000000000000000000000000000000000900460ff1615156103fd5760006000fd5b600380547fffffffffffffffffffffff00ffffffffffffffffffffffffffffffffffffffff1690556040517f7805862f689e2f13df9f062ff482ad3ad112aca9e0847911ed832e158c525b3390600090a15060015b5b5b90565b60035474010000000000000000000000000000000000000000900460ff1681565b73ffffffffffffffffffffffffffffffffffffffff81166000908152600160205260409020545b919050565b6003546000903373ffffffffffffffffffffffffffffffffffffffff9081169116146104d05760006000fd5b60035474010000000000000000000000000000000000000000900460ff16156104f95760006000fd5b600380547fffffffffffffffffffffff00ffffffffffffffffffffffffffffffffffffffff16740100000000000000000000000000000000000000001790556040517f6985a02210a168e66602d3235cb6db0e70f92b3ba4d376a33c0f3d9434bff62590600090a15060015b5b5b90565b60035473ffffffffffffffffffffffffffffffffffffffff1681565b60035474010000000000000000000000000000000000000000900460ff16156105af5760006000fd5b61036282826107dc565b5b5b5050565b73ffffffffffffffffffffffffffffffffffffffff8083166000908152600260209081526040808320938516835292905220545b92915050565b6003543373ffffffffffffffffffffffffffffffffffffffff9081169116146106225760006000fd5b73ffffffffffffffffffffffffffffffffffffffff81161561067f57600380547fffffffffffffffffffffffff00000000000000000000000000000000000000001673ffffffffffffffffffffffffffffffffffffffff83161790555b5b5b50565b6000606060643610156106975760006000fd5b73ffffffffffffffffffffffffffffffffffffffff80861660009081526002602090815260408083203385168452825280832054938816835260019091529020549092506106eb908463ffffffff6108d116565b73ffffffffffffffffffffffffffffffffffffffff808616600090815260016020526040808220939093559087168152205461072d908463ffffffff6108ed16565b73ffffffffffffffffffffffffffffffffffffffff8616600090815260016020526040902055610763828463ffffffff6108ed16565b73ffffffffffffffffffffffffffffffffffffffff8087166000818152600260209081526040808320338616845282529182902094909455805187815290519288169391927fddf252ad1be2c89b69c2b068fc378daa952ba7f163c4a11628f55a4df523b3ef929181900390910190a35b5b5050505050565b604060443610156107ed5760006000fd5b73ffffffffffffffffffffffffffffffffffffffff3316600090815260016020526040902054610823908363ffffffff6108ed16565b73ffffffffffffffffffffffffffffffffffffffff3381166000908152600160205260408082209390935590851681522054610865908363ffffffff6108d116565b73ffffffffffffffffffffffffffffffffffffffff8085166000818152600160209081526040918290209490945580518681529051919333909316927fddf252ad1be2c89b69c2b068fc378daa952ba7f163c4a11628f55a4df523b3ef92918290030190a35b5b505050565b60008282016108e284821015610906565b8091505b5092915050565b60006108fb83831115610906565b508082035b92915050565b80151561067f5760006000fd5b5b505600a165627a7a72305820639c94ad4d173d0db9a8bafd3799d63321fcf68e4c585367b127f08921bcc0470029",
  "linkReferences": {},
  "deployedLinkReferences": {}
}