{
  "_format": "hh-sol-artifact-1",
  "contractName": "TokenTimelock",
  "sourceName": "contracts/test-helpers/OMGLikeToken.sol",
  "abi": [
    {
      "constant": false,
      "inputs": [],
      "name": "claim",
      "outputs": [],
      "payable": false,
      "type": "function"
    },
    {
      "inputs": [
        {
          "name": "_token",
          "type": "address"
        },
        {
          "name": "_beneficiary",
          "type": "address"
        },
        {
          "name": "_releaseTime",
          "type": "uint256"
        }
      ],
      "payable": false,
      "type": "constructor"
    }
  ],
  "bytecode": "0x6060604052341561000c57fe5b60405160608061025f8339810160409081528151602083015191909201515b4281116100385760006000fd5b60008054600160a060020a03808616600160a060020a031992831617909255600180549285169290911691909117905560028190555b5050505b6101de806100816000396000f300606060405263ffffffff7c01000000000000000000000000000000000000000000000000000000006000350416634e71d92d811461003a575bfe5b341561004257fe5b61004a61004c565b005b6001546000903373ffffffffffffffffffffffffffffffffffffffff9081169116146100785760006000fd5b6002544210156100885760006000fd5b6000805460408051602090810184905281517f70a0823100000000000000000000000000000000000000000000000000000000815273ffffffffffffffffffffffffffffffffffffffff3081166004830152925192909316936370a082319360248082019492918390030190829087803b151561010157fe5b6102c65a03f1151561010f57fe5b505060405151915050600081116101265760006000fd5b60008054600154604080517fa9059cbb00000000000000000000000000000000000000000000000000000000815273ffffffffffffffffffffffffffffffffffffffff9283166004820152602481018690529051919092169263a9059cbb926044808201939182900301818387803b151561019d57fe5b6102c65a03f115156101ab57fe5b5050505b505600a165627a7a723058204563196eb3829e6e3bca06feeef6c5f3751d33b499dbe1656451fb367e82b0d80029",
  "linkReferences": {},
  "deployedLinkReferences": {}
}