{"contracts/samples/SimpleAccount.sol":{"SimpleAccount":{"abi":[{"inputs":[{"internalType":"contract IEntryPoint","name":"anEntryPoint","type":"address"}],"stateMutability":"nonpayable","type":"constructor"},{"anonymous":false,"inputs":[{"indexed":false,"internalType":"address","name":"previousAdmin","type":"address"},{"indexed":false,"internalType":"address","name":"newAdmin","type":"address"}],"name":"AdminChanged","type":"event"},{"anonymous":false,"inputs":[{"indexed":true,"internalType":"address","name":"beacon","type":"address"}],"name":"BeaconUpgraded","type":"event"},{"anonymous":false,"inputs":[{"indexed":false,"internalType":"uint8","name":"version","type":"uint8"}],"name":"Initialized","type":"event"},{"anonymous":false,"inputs":[{"indexed":true,"internalType":"contract IEntryPoint","name":"entryPoint","type":"address"},{"indexed":true,"internalType":"address","name":"owner","type":"address"}],"name":"SimpleAccountInitialized","type":"event"},{"anonymous":false,"inputs":[{"indexed":true,"internalType":"address","name":"implementation","type":"address"}],"name":"Upgraded","type":"event"},{"inputs":[],"name":"addDeposit","outputs":[],"stateMutability":"payable","type":"function"},{"inputs":[],"name":"entryPoint","outputs":[{"internalType":"contract IEntryPoint","name":"","type":"address"}],"stateMutability":"view","type":"function"},{"inputs":[{"internalType":"address","name":"dest","type":"address"},{"internalType":"uint256","name":"value","type":"uint256"},{"internalType":"bytes","name":"func","type":"bytes"}],"name":"execute","outputs":[],"stateMutability":"nonpayable","type":"function"},{"inputs":[{"internalType":"address[]","name":"dest","type":"address[]"},{"internalType":"bytes[]","name":"func","type":"bytes[]"}],"name":"executeBatch","outputs":[],"stateMutability":"nonpayable","type":"function"},{"inputs":[],"name":"getDeposit","outputs":[{"internalType":"uint256","name":"","type":"uint256"}],"stateMutability":"view","type":"function"},{"inputs":[],"name":"getNonce","outputs":[{"internalType":"uint256","name":"","type":"uint256"}],"stateMutability":"view","type":"function"},{"inputs":[{"internalType":"address","name":"anOwner","type":"address"}],"name":"initialize","outputs":[],"stateMutability":"nonpayable","type":"function"},{"inputs":[{"internalType":"address","name":"","type":"address"},{"internalType":"address","name":"","type":"address"},{"internalType":"uint256[]","name":"","type":"uint256[]"},{"internalType":"uint256[]","name":"","type":"uint256[]"},{"internalType":"bytes","name":"","type":"bytes"}],"name":"onERC1155BatchReceived","outputs":[{"internalType":"bytes4","name":"","type":"bytes4"}],"stateMutability":"pure","type":"function"},{"inputs":[{"internalType":"address","name":"","type":"address"},{"internalType":"address","name":"","type":"address"},{"internalType":"uint256","name":"","type":"uint256"},{"internalType":"uint256","name":"","type":"uint256"},{"internalType":"bytes","name":"","type":"bytes"}],"name":"onERC1155Received","outputs":[{"internalType":"bytes4","name":"","type":"bytes4"}],"stateMutability":"pure","type":"function"},{"inputs":[{"internalType":"address","name":"","type":"address"},{"internalType":"address","name":"","type":"address"},{"internalType":"uint256","name":"","type":"uint256"},{"internalType":"bytes","name":"","type":"bytes"}],"name":"onERC721Received","outputs":[{"internalType":"bytes4","name":"","type":"bytes4"}],"stateMutability":"pure","type":"function"},{"inputs":[],"name":"owner","outputs":[{"internalType":"address","name":"","type":"address"}],"stateMutability":"view","type":"function"},{"inputs":[],"name":"proxiableUUID","outputs":[{"internalType":"bytes32","name":"","type":"bytes32"}],"stateMutability":"view","type":"function"},{"inputs":[{"internalType":"bytes4","name":"interfaceId","type":"bytes4"}],"name":"supportsInterface","outputs":[{"internalType":"bool","name":"","type":"bool"}],"stateMutability":"view","type":"function"},{"inputs":[{"internalType":"address","name":"","type":"address"},{"internalType":"address","name":"","type":"address"},{"internalType":"address","name":"","type":"address"},{"internalType":"uint256","name":"","type":"uint256"},{"internalType":"bytes","name":"","type":"bytes"},{"internalType":"bytes","name":"","type":"bytes"}],"name":"tokensReceived","outputs":[],"stateMutability":"pure","type":"function"},{"inputs":[{"internalType":"address","name":"newImplementation","type":"address"}],"name":"upgradeTo","outputs":[],"stateMutability":"nonpayable","type":"function"},{"inputs":[{"internalType":"address","name":"newImplementation","type":"address"},{"internalType":"bytes","name":"data","type":"bytes"}],"name":"upgradeToAndCall","outputs":[],"stateMutability":"payable","type":"function"},{"inputs":[{"components":[{"internalType":"address","name":"sender","type":"address"},{"internalType":"uint256","name":"nonce","type":"uint256"},{"internalType":"bytes","name":"initCode","type":"bytes"},{"internalType":"bytes","name":"callData","type":"bytes"},{"internalType":"uint256","name":"callGasLimit","type":"uint256"},{"internalType":"uint256","name":"verificationGasLimit","type":"uint256"},{"internalType":"uint256","name":"preVerificationGas","type":"uint256"},{"internalType":"uint256","name":"maxFeePerGas","type":"uint256"},{"internalType":"uint256","name":"maxPriorityFeePerGas","type":"uint256"},{"internalType":"bytes","name":"paymasterAndData","type":"bytes"},{"internalType":"bytes","name":"signature","type":"bytes"}],"internalType":"struct UserOperation","name":"userOp","type":"tuple"},{"internalType":"bytes32","name":"userOpHash","type":"bytes32"},{"internalType":"uint256","name":"missingAccountFunds","type":"uint256"}],"name":"validateUserOp","outputs":[{"internalType":"uint256","name":"validationData","type":"uint256"}],"stateMutability":"nonpayable","type":"function"},{"inputs":[{"internalType":"address payable","name":"withdrawAddress","type":"address"},{"internalType":"uint256","name":"amount","type":"uint256"}],"name":"withdrawDepositTo","outputs":[],"stateMutability":"nonpayable","type":"function"},{"stateMutability":"payable","type":"receive"}],"evm":{"bytecode":{"linkReferences":{},"object":"60c03461016157601f62001ebc38819003918201601f19168301916001600160401b038311848410176101665780849260209460405283398101031261016157516001600160a01b0381168103610161573060805260a05260005460ff8160081c1661010c5760ff808216106100d1575b604051611d3f90816200017d823960805181818161053301528181610acd0152610c72015260a05181818161071a015281816107db015281816108a601528181610d9301528181610f3001528181611140015281816118b0015261190f0152f35b60ff90811916176000557f7f26b83ff96e1f2b6a682f133852f6798a09c465da95921460cefb3847402498602060405160ff8152a138610070565b60405162461bcd60e51b815260206004820152602760248201527f496e697469616c697a61626c653a20636f6e747261637420697320696e697469604482015266616c697a696e6760c81b6064820152608490fd5b600080fd5b634e487b7160e01b600052604160045260246000fdfe6080604052600436101561001b575b361561001957600080fd5b005b60003560e01c806223de291461018257806301ffc9a714610179578063150b7a021461017057806318dfb3c7146101675780633659cfe61461015e5780633a871cdd146101555780634a58db191461014c5780634d44560d146101435780634f1ef2861461013a57806352d1902d146101315780638da5cb5b14610128578063b0d691fe1461011f578063b61d27f614610116578063bc197c811461010d578063c399ec8814610104578063c4d66de8146100fb578063d087d288146100f25763f23a6e610361000e576100ed6111ae565b61000e565b506100ed6110db565b506100ed610f95565b506100ed610ed4565b506100ed610e2a565b506100ed610db7565b506100ed610d65565b506100ed610d2d565b506100ed610c49565b506100ed610a69565b506100ed610865565b506100ed6107b6565b506100ed6106d0565b506100ed6104fc565b506100ed6103c2565b506100ed61031d565b506100ed61024a565b506100ed6101dc565b73ffffffffffffffffffffffffffffffffffffffff8116036101a957565b600080fd5b9181601f840112156101a95782359167ffffffffffffffff83116101a957602083818601950101116101a957565b50346101a95760c06003193601126101a9576101f960043561018b565b61020460243561018b565b61020f60443561018b565b67ffffffffffffffff6084358181116101a9576102309036906004016101ae565b505060a4359081116101a9576100199036906004016101ae565b50346101a95760206003193601126101a9576004357fffffffff0000000000000000000000000000000000000000000000000000000081168091036101a957807f150b7a0200000000000000000000000000000000000000000000000000000000602092149081156102f3575b81156102c9575b506040519015158152f35b7f01ffc9a700000000000000000000000000000000000000000000000000000000915014386102be565b7f4e2312e000000000000000000000000000000000000000000000000000000000811491506102b7565b50346101a95760806003193601126101a95761033a60043561018b565b61034560243561018b565b60643567ffffffffffffffff81116101a9576103659036906004016101ae565b505060206040517f150b7a02000000000000000000000000000000000000000000000000000000008152f35b9181601f840112156101a95782359167ffffffffffffffff83116101a9576020808501948460051b0101116101a957565b50346101a95760406003193601126101a95767ffffffffffffffff600480358281116101a9576103f59036908301610391565b60249291929384359081116101a9576104119036908401610391565b6104196118f7565b8083036104b95760005b83811061042c57005b61045d61044261043d83878a611737565b611755565b6104576104508486886117b0565b3691610a32565b90611c70565b7fffffffffffffffffffffffffffffffffffffffffffffffffffffffffffffffff811461048c57600101610423565b866011867f4e487b7100000000000000000000000000000000000000000000000000000000600052526000fd5b60648460138860206040519362461bcd60e51b85528401528201527f77726f6e67206172726179206c656e67746873000000000000000000000000006044820152fd5b50346101a95760206003193601126101a95760043561051a8161018b565b73ffffffffffffffffffffffffffffffffffffffff90817f0000000000000000000000000000000000000000000000000000000000000000169161056083301415611222565b61058f7f360894a13ba1a3210667c828492db98dca3e2076cc3735a920a3ca505d382bbc938285541614611293565b610597611c90565b604051906105a482610970565b600082527f4910fdfa16fed3260ed0e7147f7cc6da11a60208b5b9406d12a635614ffd91435460ff16156105de5750506100199150611391565b6020600491604094939451928380927f52d1902d00000000000000000000000000000000000000000000000000000000825286165afa600091816106a0575b5061068d5760405162461bcd60e51b815260206004820152602e60248201527f45524331393637557067726164653a206e657720696d706c656d656e7461746960448201527f6f6e206973206e6f7420555550530000000000000000000000000000000000006064820152608490fd5b6100199361069b9114611320565b611463565b6106c291925060203d81116106c9575b6106ba81836109a8565b810190611304565b903861061d565b503d6106b0565b50346101a9576003196060813601126101a9576004359067ffffffffffffffff82116101a9576101609082360301126101a95773ffffffffffffffffffffffffffffffffffffffff7f00000000000000000000000000000000000000000000000000000000000000001633036107725761075361076e9160243590600401611996565b61075e6044356116cd565b6040519081529081906020820190565b0390f35b606460405162461bcd60e51b815260206004820152601c60248201527f6163636f756e743a206e6f742066726f6d20456e747279506f696e74000000006044820152fd5b506000806003193601126108625773ffffffffffffffffffffffffffffffffffffffff7f00000000000000000000000000000000000000000000000000000000000000001681813b1561086257602491604051928380927fb760faf900000000000000000000000000000000000000000000000000000000825230600483015234905af18015610855575b610849575080f35b6108529061094f565b80f35b61085d611313565b610841565b80fd5b50346101a95760006040600319360112610862576004356108858161018b565b61088d611c90565b8173ffffffffffffffffffffffffffffffffffffffff807f00000000000000000000000000000000000000000000000000000000000000001692833b1561091b576044908360405195869485937f205c287800000000000000000000000000000000000000000000000000000000855216600484015260243560248401525af1801561085557610849575080f35b8280fd5b507f4e487b7100000000000000000000000000000000000000000000000000000000600052604160045260246000fd5b67ffffffffffffffff811161096357604052565b61096b61091f565b604052565b6020810190811067ffffffffffffffff82111761096357604052565b6060810190811067ffffffffffffffff82111761096357604052565b90601f7fffffffffffffffffffffffffffffffffffffffffffffffffffffffffffffffe0910116810190811067ffffffffffffffff82111761096357604052565b7fffffffffffffffffffffffffffffffffffffffffffffffffffffffffffffffe0601f60209267ffffffffffffffff8111610a25575b01160190565b610a2d61091f565b610a1f565b929192610a3e826109e9565b91610a4c60405193846109a8565b8294818452818301116101a9578281602093846000960137010152565b5060406003193601126101a957600435610a828161018b565b60243567ffffffffffffffff81116101a957366023820112156101a957610ab3903690602481600401359101610a32565b9073ffffffffffffffffffffffffffffffffffffffff91827f00000000000000000000000000000000000000000000000000000000000000001692610afa84301415611222565b610b297f360894a13ba1a3210667c828492db98dca3e2076cc3735a920a3ca505d382bbc948286541614611293565b610b31611c90565b7f4910fdfa16fed3260ed0e7147f7cc6da11a60208b5b9406d12a635614ffd91435460ff1615610b675750506100199150611391565b6020600491604094939451928380927f52d1902d00000000000000000000000000000000000000000000000000000000825286165afa60009181610c29575b50610c165760405162461bcd60e51b815260206004820152602e60248201527f45524331393637557067726164653a206e657720696d706c656d656e7461746960448201527f6f6e206973206e6f7420555550530000000000000000000000000000000000006064820152608490fd5b61001993610c249114611320565b611542565b610c4291925060203d81116106c9576106ba81836109a8565b9038610ba6565b50346101a95760006003193601126101a95773ffffffffffffffffffffffffffffffffffffffff7f0000000000000000000000000000000000000000000000000000000000000000163003610cc3576040517f360894a13ba1a3210667c828492db98dca3e2076cc3735a920a3ca505d382bbc8152602090f35b608460405162461bcd60e51b815260206004820152603860248201527f555550535570677261646561626c653a206d757374206e6f742062652063616c60448201527f6c6564207468726f7567682064656c656761746563616c6c00000000000000006064820152fd5b50346101a95760006003193601126101a957602073ffffffffffffffffffffffffffffffffffffffff60005460101c16604051908152f35b50346101a95760006003193601126101a957602060405173ffffffffffffffffffffffffffffffffffffffff7f0000000000000000000000000000000000000000000000000000000000000000168152f35b50346101a95760606003193601126101a957600435610dd58161018b565b60443567ffffffffffffffff81116101a957600091610e04610dfc849336906004016101ae565b6104506118f7565b9060208251920190602435905af1610e1a6115a2565b9015610e2257005b602081519101fd5b50346101a95760a06003193601126101a957610e4760043561018b565b610e5260243561018b565b67ffffffffffffffff6044358181116101a957610e73903690600401610391565b50506064358181116101a957610e8d903690600401610391565b50506084359081116101a957610ea79036906004016101ae565b50506040517fbc197c81000000000000000000000000000000000000000000000000000000008152602090f35b50346101a95760006003193601126101a95760206040517f70a08231000000000000000000000000000000000000000000000000000000008152306004820152818160248173ffffffffffffffffffffffffffffffffffffffff7f0000000000000000000000000000000000000000000000000000000000000000165afa908115610f88575b600091610f6b575b50604051908152f35b610f829150823d81116106c9576106ba81836109a8565b38610f62565b610f90611313565b610f5a565b50346101a95760206003193601126101a957600435610fb38161018b565b61101560005491610fdb60ff8460081c1615809481956110cd575b81156110ad575b506117da565b8261100c60017fffffffffffffffffffffffffffffffffffffffffffffffffffffffffffffff006000541617600055565b6110775761184b565b61101b57005b6110487fffffffffffffffffffffffffffffffffffffffffffffffffffffffffffff00ff60005416600055565b604051600181527f7f26b83ff96e1f2b6a682f133852f6798a09c465da95921460cefb384740249890602090a1005b6110a86101007fffffffffffffffffffffffffffffffffffffffffffffffffffffffffffff00ff6000541617600055565b61184b565b303b159150816110bf575b5038610fd5565b6001915060ff1614386110b8565b600160ff8216109150610fce565b50346101a95760006003193601126101a95761076e6040517f35567e1a0000000000000000000000000000000000000000000000000000000081523060048201526000602482015260208160448173ffffffffffffffffffffffffffffffffffffffff7f0000000000000000000000000000000000000000000000000000000000000000165afa9081156111a1575b600091611183575b506040519081529081906020820190565b61119b915060203d81116106c9576106ba81836109a8565b38611172565b6111a9611313565b61116a565b50346101a95760a06003193601126101a9576111cb60043561018b565b6111d660243561018b565b60843567ffffffffffffffff81116101a9576111f69036906004016101ae565b505060206040517ff23a6e61000000000000000000000000000000000000000000000000000000008152f35b1561122957565b608460405162461bcd60e51b815260206004820152602c60248201527f46756e6374696f6e206d7573742062652063616c6c6564207468726f7567682060448201527f64656c656761746563616c6c00000000000000000000000000000000000000006064820152fd5b1561129a57565b608460405162461bcd60e51b815260206004820152602c60248201527f46756e6374696f6e206d7573742062652063616c6c6564207468726f7567682060448201527f6163746976652070726f787900000000000000000000000000000000000000006064820152fd5b908160209103126101a9575190565b506040513d6000823e3d90fd5b1561132757565b608460405162461bcd60e51b815260206004820152602960248201527f45524331393637557067726164653a20756e737570706f727465642070726f7860448201527f6961626c655555494400000000000000000000000000000000000000000000006064820152fd5b803b156113f95773ffffffffffffffffffffffffffffffffffffffff7f360894a13ba1a3210667c828492db98dca3e2076cc3735a920a3ca505d382bbc91167fffffffffffffffffffffffff0000000000000000000000000000000000000000825416179055565b608460405162461bcd60e51b815260206004820152602d60248201527f455243313936373a206e657720696d706c656d656e746174696f6e206973206e60448201527f6f74206120636f6e7472616374000000000000000000000000000000000000006064820152fd5b9061146d82611391565b73ffffffffffffffffffffffffffffffffffffffff82167fbc7cd75a20ee27fd9adebab32041f755214dbc6bffa90cc0225b39da2e5c2d3b600080a280511580159061153a575b6114bc575050565b61153791600080604051936114d08561098c565b602785527f416464726573733a206c6f772d6c6576656c2064656c65676174652063616c6c60208601527f206661696c6564000000000000000000000000000000000000000000000000006040860152602081519101845af46115316115a2565b9161161d565b50565b5060006114b4565b9061154c82611391565b73ffffffffffffffffffffffffffffffffffffffff82167fbc7cd75a20ee27fd9adebab32041f755214dbc6bffa90cc0225b39da2e5c2d3b600080a280511580159061159a576114bc575050565b5060016114b4565b3d156115cd573d906115b3826109e9565b916115c160405193846109a8565b82523d6000602084013e565b606090565b156115d957565b606460405162461bcd60e51b815260206004820152601d60248201527f416464726573733a2063616c6c20746f206e6f6e2d636f6e74726163740000006044820152fd5b919290156116405750815115611631575090565b61163d903b15156115d2565b90565b8251909150156116535750805190602001fd5b6040519062461bcd60e51b825281602080600483015282519283602484015260005b8481106116b6575050507fffffffffffffffffffffffffffffffffffffffffffffffffffffffffffffffe0601f836000604480968601015201168101030190fd5b818101830151868201604401528593508201611675565b806116d55750565b600080808093337ffffffffffffffffffffffffffffffffffffffffffffffffffffffffffffffffff1506115376115a2565b507f4e487b7100000000000000000000000000000000000000000000000000000000600052603260045260246000fd5b9190811015611748575b60051b0190565b611750611707565b611741565b3561163d8161018b565b9035907fffffffffffffffffffffffffffffffffffffffffffffffffffffffffffffffe1813603018212156101a9570180359067ffffffffffffffff82116101a9576020019181360383136101a957565b90916117c9928110156117cd575b60051b81019061175f565b9091565b6117d5611707565b6117be565b156117e157565b608460405162461bcd60e51b815260206004820152602e60248201527f496e697469616c697a61626c653a20636f6e747261637420697320616c72656160448201527f647920696e697469616c697a65640000000000000000000000000000000000006064820152fd5b7fffffffffffffffffffff0000000000000000000000000000000000000000ffff75ffffffffffffffffffffffffffffffffffffffff00006000549260101b169116178060005573ffffffffffffffffffffffffffffffffffffffff809160101c16907f0000000000000000000000000000000000000000000000000000000000000000167f47e55c76e7a6f1fd8996a1da8008c1ea29699cca35e7bcd057f2dec313b6e5de600080a3565b73ffffffffffffffffffffffffffffffffffffffff807f0000000000000000000000000000000000000000000000000000000000000000163314908115611985575b501561194157565b606460405162461bcd60e51b815260206004820152602060248201527f6163636f756e743a206e6f74204f776e6572206f7220456e747279506f696e746044820152fd5b905060005460101c16331438611939565b9060405160208101917f19457468657265756d205369676e6564204d6573736167653a0a3332000000008352603c820152603c81526119d48161098c565b519020611a1b611a1373ffffffffffffffffffffffffffffffffffffffff92611a0d6104508560005460101c169661014081019061175f565b90611b9f565b919091611a64565b1603611a2657600090565b600190565b60051115611a3557565b7f4e487b7100000000000000000000000000000000000000000000000000000000600052602160045260246000fd5b611a6d81611a2b565b80611a755750565b611a7e81611a2b565b60018103611acb5760405162461bcd60e51b815260206004820152601860248201527f45434453413a20696e76616c6964207369676e617475726500000000000000006044820152606490fd5b611ad481611a2b565b60028103611b215760405162461bcd60e51b815260206004820152601f60248201527f45434453413a20696e76616c6964207369676e6174757265206c656e677468006044820152606490fd5b80611b2d600392611a2b565b14611b3457565b60405162461bcd60e51b815260206004820152602260248201527f45434453413a20696e76616c6964207369676e6174757265202773272076616c60448201527f75650000000000000000000000000000000000000000000000000000000000006064820152608490fd5b906041815114600014611bc9576117c9916020820151906060604084015193015160001a90611bd3565b5050600090600290565b9291907f7fffffffffffffffffffffffffffffff5d576e7357a4501ddfe92f46681b20a08311611c645791608094939160ff602094604051948552168484015260408301526060820152600093849182805260015afa15611c57575b815173ffffffffffffffffffffffffffffffffffffffff811615611c51579190565b50600190565b611c5f611313565b611c2f565b50505050600090600390565b600091829182602083519301915af1611c876115a2565b9015610e225750565b73ffffffffffffffffffffffffffffffffffffffff60005460101c1633148015611d00575b15611cbc57565b606460405162461bcd60e51b815260206004820152600a60248201527f6f6e6c79206f776e6572000000000000000000000000000000000000000000006044820152fd5b50303314611cb556fea264697066735822122020cdeee39118e142e546b384b484b154928553bd964056a61235bceed4a22a8364736f6c63430008110033","opcodes":"PUSH1 0xC0 CALLVALUE PUSH2 0x161 JUMPI PUSH1 0x1F PUSH3 0x1EBC CODESIZE DUP2 SWAP1 SUB SWAP2 DUP3 ADD PUSH1 0x1F NOT AND DUP4 ADD SWAP2 PUSH1 0x1 PUSH1 0x1 PUSH1 0x40 SHL SUB DUP4 GT DUP5 DUP5 LT OR PUSH2 0x166 JUMPI DUP1 DUP5 SWAP3 PUSH1 0x20 SWAP5 PUSH1 0x40 MSTORE DUP4 CODECOPY DUP2 ADD SUB SLT PUSH2 0x161 JUMPI MLOAD PUSH1 0x1 PUSH1 0x1 PUSH1 0xA0 SHL SUB DUP2 AND DUP2 SUB PUSH2 0x161 JUMPI ADDRESS PUSH1 0x80 MSTORE PUSH1 0xA0 MSTORE PUSH1 0x0 SLOAD PUSH1 0xFF DUP2 PUSH1 0x8 SHR AND PUSH2 0x10C JUMPI PUSH1 0xFF DUP1 DUP3 AND LT PUSH2 0xD1 JUMPI JUMPDEST PUSH1 0x40 MLOAD PUSH2 0x1D3F SWAP1 DUP2 PUSH3 0x17D DUP3 CODECOPY PUSH1 0x80 MLOAD DUP2 DUP2 DUP2 PUSH2 0x533 ADD MSTORE DUP2 DUP2 PUSH2 0xACD ADD MSTORE PUSH2 0xC72 ADD MSTORE PUSH1 0xA0 MLOAD DUP2 DUP2 DUP2 PUSH2 0x71A ADD MSTORE DUP2 DUP2 PUSH2 0x7DB ADD MSTORE DUP2 DUP2 PUSH2 0x8A6 ADD MSTORE DUP2 DUP2 PUSH2 0xD93 ADD MSTORE DUP2 DUP2 PUSH2 0xF30 ADD MSTORE DUP2 DUP2 PUSH2 0x1140 ADD MSTORE DUP2 DUP2 PUSH2 0x18B0 ADD MSTORE PUSH2 0x190F ADD MSTORE RETURN JUMPDEST PUSH1 0xFF SWAP1 DUP2 NOT AND OR PUSH1 0x0 SSTORE PUSH32 0x7F26B83FF96E1F2B6A682F133852F6798A09C465DA95921460CEFB3847402498 PUSH1 0x20 PUSH1 0x40 MLOAD PUSH1 0xFF DUP2 MSTORE LOG1 CODESIZE PUSH2 0x70 JUMP JUMPDEST PUSH1 0x40 MLOAD PUSH3 0x461BCD PUSH1 0xE5 SHL DUP2 MSTORE PUSH1 0x20 PUSH1 0x4 DUP3 ADD MSTORE PUSH1 0x27 PUSH1 0x24 DUP3 ADD MSTORE PUSH32 0x496E697469616C697A61626C653A20636F6E747261637420697320696E697469 PUSH1 0x44 DUP3 ADD MSTORE PUSH7 0x616C697A696E67 PUSH1 0xC8 SHL PUSH1 0x64 DUP3 ADD MSTORE PUSH1 0x84 SWAP1 REVERT JUMPDEST PUSH1 0x0 DUP1 REVERT JUMPDEST PUSH4 0x4E487B71 PUSH1 0xE0 SHL PUSH1 0x0 MSTORE PUSH1 0x41 PUSH1 0x4 MSTORE PUSH1 0x24 PUSH1 0x0 REVERT INVALID PUSH1 0x80 PUSH1 0x40 MSTORE PUSH1 0x4 CALLDATASIZE LT ISZERO PUSH2 0x1B JUMPI JUMPDEST CALLDATASIZE ISZERO PUSH2 0x19 JUMPI PUSH1 0x0 DUP1 REVERT JUMPDEST STOP JUMPDEST PUSH1 0x0 CALLDATALOAD PUSH1 0xE0 SHR DUP1 PUSH3 0x23DE29 EQ PUSH2 0x182 JUMPI DUP1 PUSH4 0x1FFC9A7 EQ PUSH2 0x179 JUMPI DUP1 PUSH4 0x150B7A02 EQ PUSH2 0x170 JUMPI DUP1 PUSH4 0x18DFB3C7 EQ PUSH2 0x167 JUMPI DUP1 PUSH4 0x3659CFE6 EQ PUSH2 0x15E JUMPI DUP1 PUSH4 0x3A871CDD EQ PUSH2 0x155 JUMPI DUP1 PUSH4 0x4A58DB19 EQ PUSH2 0x14C JUMPI DUP1 PUSH4 0x4D44560D EQ PUSH2 0x143 JUMPI DUP1 PUSH4 0x4F1EF286 EQ PUSH2 0x13A JUMPI DUP1 PUSH4 0x52D1902D EQ PUSH2 0x131 JUMPI DUP1 PUSH4 0x8DA5CB5B EQ PUSH2 0x128 JUMPI DUP1 PUSH4 0xB0D691FE EQ PUSH2 0x11F JUMPI DUP1 PUSH4 0xB61D27F6 EQ PUSH2 0x116 JUMPI DUP1 PUSH4 0xBC197C81 EQ PUSH2 0x10D JUMPI DUP1 PUSH4 0xC399EC88 EQ PUSH2 0x104 JUMPI DUP1 PUSH4 0xC4D66DE8 EQ PUSH2 0xFB JUMPI DUP1 PUSH4 0xD087D288 EQ PUSH2 0xF2 JUMPI PUSH4 0xF23A6E61 SUB PUSH2 0xE JUMPI PUSH2 0xED PUSH2 0x11AE JUMP JUMPDEST PUSH2 0xE JUMP JUMPDEST POP PUSH2 0xED PUSH2 0x10DB JUMP JUMPDEST POP PUSH2 0xED PUSH2 0xF95 JUMP JUMPDEST POP PUSH2 0xED PUSH2 0xED4 JUMP JUMPDEST POP PUSH2 0xED PUSH2 0xE2A JUMP JUMPDEST POP PUSH2 0xED PUSH2 0xDB7 JUMP JUMPDEST POP PUSH2 0xED PUSH2 0xD65 JUMP JUMPDEST POP PUSH2 0xED PUSH2 0xD2D JUMP JUMPDEST POP PUSH2 0xED PUSH2 0xC49 JUMP JUMPDEST POP PUSH2 0xED PUSH2 0xA69 JUMP JUMPDEST POP PUSH2 0xED PUSH2 0x865 JUMP JUMPDEST POP PUSH2 0xED PUSH2 0x7B6 JUMP JUMPDEST POP PUSH2 0xED PUSH2 0x6D0 JUMP JUMPDEST POP PUSH2 0xED PUSH2 0x4FC JUMP JUMPDEST POP PUSH2 0xED PUSH2 0x3C2 JUMP JUMPDEST POP PUSH2 0xED PUSH2 0x31D JUMP JUMPDEST POP PUSH2 0xED PUSH2 0x24A JUMP JUMPDEST POP PUSH2 0xED PUSH2 0x1DC JUMP JUMPDEST PUSH20 0xFFFFFFFFFFFFFFFFFFFFFFFFFFFFFFFFFFFFFFFF DUP2 AND SUB PUSH2 0x1A9 JUMPI JUMP JUMPDEST PUSH1 0x0 DUP1 REVERT JUMPDEST SWAP2 DUP2 PUSH1 0x1F DUP5 ADD SLT ISZERO PUSH2 0x1A9 JUMPI DUP3 CALLDATALOAD SWAP2 PUSH8 0xFFFFFFFFFFFFFFFF DUP4 GT PUSH2 0x1A9 JUMPI PUSH1 0x20 DUP4 DUP2 DUP7 ADD SWAP6 ADD ADD GT PUSH2 0x1A9 JUMPI JUMP JUMPDEST POP CALLVALUE PUSH2 0x1A9 JUMPI PUSH1 0xC0 PUSH1 0x3 NOT CALLDATASIZE ADD SLT PUSH2 0x1A9 JUMPI PUSH2 0x1F9 PUSH1 0x4 CALLDATALOAD PUSH2 0x18B JUMP JUMPDEST PUSH2 0x204 PUSH1 0x24 CALLDATALOAD PUSH2 0x18B JUMP JUMPDEST PUSH2 0x20F PUSH1 0x44 CALLDATALOAD PUSH2 0x18B JUMP JUMPDEST PUSH8 0xFFFFFFFFFFFFFFFF PUSH1 0x84 CALLDATALOAD DUP2 DUP2 GT PUSH2 0x1A9 JUMPI PUSH2 0x230 SWAP1 CALLDATASIZE SWAP1 PUSH1 0x4 ADD PUSH2 0x1AE JUMP JUMPDEST POP POP PUSH1 0xA4 CALLDATALOAD SWAP1 DUP2 GT PUSH2 0x1A9 JUMPI PUSH2 0x19 SWAP1 CALLDATASIZE SWAP1 PUSH1 0x4 ADD PUSH2 0x1AE JUMP JUMPDEST POP CALLVALUE PUSH2 0x1A9 JUMPI PUSH1 0x20 PUSH1 0x3 NOT CALLDATASIZE ADD SLT PUSH2 0x1A9 JUMPI PUSH1 0x4 CALLDATALOAD PUSH32 0xFFFFFFFF00000000000000000000000000000000000000000000000000000000 DUP2 AND DUP1 SWAP2 SUB PUSH2 0x1A9 JUMPI DUP1 PUSH32 0x150B7A0200000000000000000000000000000000000000000000000000000000 PUSH1 0x20 SWAP3 EQ SWAP1 DUP2 ISZERO PUSH2 0x2F3 JUMPI JUMPDEST DUP2 ISZERO PUSH2 0x2C9 JUMPI JUMPDEST POP PUSH1 0x40 MLOAD SWAP1 ISZERO ISZERO DUP2 MSTORE RETURN JUMPDEST PUSH32 0x1FFC9A700000000000000000000000000000000000000000000000000000000 SWAP2 POP EQ CODESIZE PUSH2 0x2BE JUMP JUMPDEST PUSH32 0x4E2312E000000000000000000000000000000000000000000000000000000000 DUP2 EQ SWAP2 POP PUSH2 0x2B7 JUMP JUMPDEST POP CALLVALUE PUSH2 0x1A9 JUMPI PUSH1 0x80 PUSH1 0x3 NOT CALLDATASIZE ADD SLT PUSH2 0x1A9 JUMPI PUSH2 0x33A PUSH1 0x4 CALLDATALOAD PUSH2 0x18B JUMP JUMPDEST PUSH2 0x345 PUSH1 0x24 CALLDATALOAD PUSH2 0x18B JUMP JUMPDEST PUSH1 0x64 CALLDATALOAD PUSH8 0xFFFFFFFFFFFFFFFF DUP2 GT PUSH2 0x1A9 JUMPI PUSH2 0x365 SWAP1 CALLDATASIZE SWAP1 PUSH1 0x4 ADD PUSH2 0x1AE JUMP JUMPDEST POP POP PUSH1 0x20 PUSH1 0x40 MLOAD PUSH32 0x150B7A0200000000000000000000000000000000000000000000000000000000 DUP2 MSTORE RETURN JUMPDEST SWAP2 DUP2 PUSH1 0x1F DUP5 ADD SLT ISZERO PUSH2 0x1A9 JUMPI DUP3 CALLDATALOAD SWAP2 PUSH8 0xFFFFFFFFFFFFFFFF DUP4 GT PUSH2 0x1A9 JUMPI PUSH1 0x20 DUP1 DUP6 ADD SWAP5 DUP5 PUSH1 0x5 SHL ADD ADD GT PUSH2 0x1A9 JUMPI JUMP JUMPDEST POP CALLVALUE PUSH2 0x1A9 JUMPI PUSH1 0x40 PUSH1 0x3 NOT CALLDATASIZE ADD SLT PUSH2 0x1A9 JUMPI PUSH8 0xFFFFFFFFFFFFFFFF PUSH1 0x4 DUP1 CALLDATALOAD DUP3 DUP2 GT PUSH2 0x1A9 JUMPI PUSH2 0x3F5 SWAP1 CALLDATASIZE SWAP1 DUP4 ADD PUSH2 0x391 JUMP JUMPDEST PUSH1 0x24 SWAP3 SWAP2 SWAP3 SWAP4 DUP5 CALLDATALOAD SWAP1 DUP2 GT PUSH2 0x1A9 JUMPI PUSH2 0x411 SWAP1 CALLDATASIZE SWAP1 DUP5 ADD PUSH2 0x391 JUMP JUMPDEST PUSH2 0x419 PUSH2 0x18F7 JUMP JUMPDEST DUP1 DUP4 SUB PUSH2 0x4B9 JUMPI PUSH1 0x0 JUMPDEST DUP4 DUP2 LT PUSH2 0x42C JUMPI STOP JUMPDEST PUSH2 0x45D PUSH2 0x442 PUSH2 0x43D DUP4 DUP8 DUP11 PUSH2 0x1737 JUMP JUMPDEST PUSH2 0x1755 JUMP JUMPDEST PUSH2 0x457 PUSH2 0x450 DUP5 DUP7 DUP9 PUSH2 0x17B0 JUMP JUMPDEST CALLDATASIZE SWAP2 PUSH2 0xA32 JUMP JUMPDEST SWAP1 PUSH2 0x1C70 JUMP JUMPDEST PUSH32 0xFFFFFFFFFFFFFFFFFFFFFFFFFFFFFFFFFFFFFFFFFFFFFFFFFFFFFFFFFFFFFFFF DUP2 EQ PUSH2 0x48C JUMPI PUSH1 0x1 ADD PUSH2 0x423 JUMP JUMPDEST DUP7 PUSH1 0x11 DUP7 PUSH32 0x4E487B7100000000000000000000000000000000000000000000000000000000 PUSH1 0x0 MSTORE MSTORE PUSH1 0x0 REVERT JUMPDEST PUSH1 0x64 DUP5 PUSH1 0x13 DUP9 PUSH1 0x20 PUSH1 0x40 MLOAD SWAP4 PUSH3 0x461BCD PUSH1 0xE5 SHL DUP6 MSTORE DUP5 ADD MSTORE DUP3 ADD MSTORE PUSH32 0x77726F6E67206172726179206C656E6774687300000000000000000000000000 PUSH1 0x44 DUP3 ADD MSTORE REVERT JUMPDEST POP CALLVALUE PUSH2 0x1A9 JUMPI PUSH1 0x20 PUSH1 0x3 NOT CALLDATASIZE ADD SLT PUSH2 0x1A9 JUMPI PUSH1 0x4 CALLDATALOAD PUSH2 0x51A DUP2 PUSH2 0x18B JUMP JUMPDEST PUSH20 0xFFFFFFFFFFFFFFFFFFFFFFFFFFFFFFFFFFFFFFFF SWAP1 DUP2 PUSH32 0x0 AND SWAP2 PUSH2 0x560 DUP4 ADDRESS EQ ISZERO PUSH2 0x1222 JUMP JUMPDEST PUSH2 0x58F PUSH32 0x360894A13BA1A3210667C828492DB98DCA3E2076CC3735A920A3CA505D382BBC SWAP4 DUP3 DUP6 SLOAD AND EQ PUSH2 0x1293 JUMP JUMPDEST PUSH2 0x597 PUSH2 0x1C90 JUMP JUMPDEST PUSH1 0x40 MLOAD SWAP1 PUSH2 0x5A4 DUP3 PUSH2 0x970 JUMP JUMPDEST PUSH1 0x0 DUP3 MSTORE PUSH32 0x4910FDFA16FED3260ED0E7147F7CC6DA11A60208B5B9406D12A635614FFD9143 SLOAD PUSH1 0xFF AND ISZERO PUSH2 0x5DE JUMPI POP POP PUSH2 0x19 SWAP2 POP PUSH2 0x1391 JUMP JUMPDEST PUSH1 0x20 PUSH1 0x4 SWAP2 PUSH1 0x40 SWAP5 SWAP4 SWAP5 MLOAD SWAP3 DUP4 DUP1 SWAP3 PUSH32 0x52D1902D00000000000000000000000000000000000000000000000000000000 DUP3 MSTORE DUP7 AND GAS STATICCALL PUSH1 0x0 SWAP2 DUP2 PUSH2 0x6A0 JUMPI JUMPDEST POP PUSH2 0x68D JUMPI PUSH1 0x40 MLOAD PUSH3 0x461BCD PUSH1 0xE5 SHL DUP2 MSTORE PUSH1 0x20 PUSH1 0x4 DUP3 ADD MSTORE PUSH1 0x2E PUSH1 0x24 DUP3 ADD MSTORE PUSH32 0x45524331393637557067726164653A206E657720696D706C656D656E74617469 PUSH1 0x44 DUP3 ADD MSTORE PUSH32 0x6F6E206973206E6F742055555053000000000000000000000000000000000000 PUSH1 0x64 DUP3 ADD MSTORE PUSH1 0x84 SWAP1 REVERT JUMPDEST PUSH2 0x19 SWAP4 PUSH2 0x69B SWAP2 EQ PUSH2 0x1320 JUMP JUMPDEST PUSH2 0x1463 JUMP JUMPDEST PUSH2 0x6C2 SWAP2 SWAP3 POP PUSH1 0x20 RETURNDATASIZE DUP2 GT PUSH2 0x6C9 JUMPI JUMPDEST PUSH2 0x6BA DUP2 DUP4 PUSH2 0x9A8 JUMP JUMPDEST DUP2 ADD SWAP1 PUSH2 0x1304 JUMP JUMPDEST SWAP1 CODESIZE PUSH2 0x61D JUMP JUMPDEST POP RETURNDATASIZE PUSH2 0x6B0 JUMP JUMPDEST POP CALLVALUE PUSH2 0x1A9 JUMPI PUSH1 0x3 NOT PUSH1 0x60 DUP2 CALLDATASIZE ADD SLT PUSH2 0x1A9 JUMPI PUSH1 0x4 CALLDATALOAD SWAP1 PUSH8 0xFFFFFFFFFFFFFFFF DUP3 GT PUSH2 0x1A9 JUMPI PUSH2 0x160 SWAP1 DUP3 CALLDATASIZE SUB ADD SLT PUSH2 0x1A9 JUMPI PUSH20 0xFFFFFFFFFFFFFFFFFFFFFFFFFFFFFFFFFFFFFFFF PUSH32 0x0 AND CALLER SUB PUSH2 0x772 JUMPI PUSH2 0x753 PUSH2 0x76E SWAP2 PUSH1 0x24 CALLDATALOAD SWAP1 PUSH1 0x4 ADD PUSH2 0x1996 JUMP JUMPDEST PUSH2 0x75E PUSH1 0x44 CALLDATALOAD PUSH2 0x16CD JUMP JUMPDEST PUSH1 0x40 MLOAD SWAP1 DUP2 MSTORE SWAP1 DUP2 SWAP1 PUSH1 0x20 DUP3 ADD SWAP1 JUMP JUMPDEST SUB SWAP1 RETURN JUMPDEST PUSH1 0x64 PUSH1 0x40 MLOAD PUSH3 0x461BCD PUSH1 0xE5 SHL DUP2 MSTORE PUSH1 0x20 PUSH1 0x4 DUP3 ADD MSTORE PUSH1 0x1C PUSH1 0x24 DUP3 ADD MSTORE PUSH32 0x6163636F756E743A206E6F742066726F6D20456E747279506F696E7400000000 PUSH1 0x44 DUP3 ADD MSTORE REVERT JUMPDEST POP PUSH1 0x0 DUP1 PUSH1 0x3 NOT CALLDATASIZE ADD SLT PUSH2 0x862 JUMPI PUSH20 0xFFFFFFFFFFFFFFFFFFFFFFFFFFFFFFFFFFFFFFFF PUSH32 0x0 AND DUP2 DUP2 EXTCODESIZE ISZERO PUSH2 0x862 JUMPI PUSH1 0x24 SWAP2 PUSH1 0x40 MLOAD SWAP3 DUP4 DUP1 SWAP3 PUSH32 0xB760FAF900000000000000000000000000000000000000000000000000000000 DUP3 MSTORE ADDRESS PUSH1 0x4 DUP4 ADD MSTORE CALLVALUE SWAP1 GAS CALL DUP1 ISZERO PUSH2 0x855 JUMPI JUMPDEST PUSH2 0x849 JUMPI POP DUP1 RETURN JUMPDEST PUSH2 0x852 SWAP1 PUSH2 0x94F JUMP JUMPDEST DUP1 RETURN JUMPDEST PUSH2 0x85D PUSH2 0x1313 JUMP JUMPDEST PUSH2 0x841 JUMP JUMPDEST DUP1 REVERT JUMPDEST POP CALLVALUE PUSH2 0x1A9 JUMPI PUSH1 0x0 PUSH1 0x40 PUSH1 0x3 NOT CALLDATASIZE ADD SLT PUSH2 0x862 JUMPI PUSH1 0x4 CALLDATALOAD PUSH2 0x885 DUP2 PUSH2 0x18B JUMP JUMPDEST PUSH2 0x88D PUSH2 0x1C90 JUMP JUMPDEST DUP2 PUSH20 0xFFFFFFFFFFFFFFFFFFFFFFFFFFFFFFFFFFFFFFFF DUP1 PUSH32 0x0 AND SWAP3 DUP4 EXTCODESIZE ISZERO PUSH2 0x91B JUMPI PUSH1 0x44 SWAP1 DUP4 PUSH1 0x40 MLOAD SWAP6 DUP7 SWAP5 DUP6 SWAP4 PUSH32 0x205C287800000000000000000000000000000000000000000000000000000000 DUP6 MSTORE AND PUSH1 0x4 DUP5 ADD MSTORE PUSH1 0x24 CALLDATALOAD PUSH1 0x24 DUP5 ADD MSTORE GAS CALL DUP1 ISZERO PUSH2 0x855 JUMPI PUSH2 0x849 JUMPI POP DUP1 RETURN JUMPDEST DUP3 DUP1 REVERT JUMPDEST POP PUSH32 0x4E487B7100000000000000000000000000000000000000000000000000000000 PUSH1 0x0 MSTORE PUSH1 0x41 PUSH1 0x4 MSTORE PUSH1 0x24 PUSH1 0x0 REVERT JUMPDEST PUSH8 0xFFFFFFFFFFFFFFFF DUP2 GT PUSH2 0x963 JUMPI PUSH1 0x40 MSTORE JUMP JUMPDEST PUSH2 0x96B PUSH2 0x91F JUMP JUMPDEST PUSH1 0x40 MSTORE JUMP JUMPDEST PUSH1 0x20 DUP2 ADD SWAP1 DUP2 LT PUSH8 0xFFFFFFFFFFFFFFFF DUP3 GT OR PUSH2 0x963 JUMPI PUSH1 0x40 MSTORE JUMP JUMPDEST PUSH1 0x60 DUP2 ADD SWAP1 DUP2 LT PUSH8 0xFFFFFFFFFFFFFFFF DUP3 GT OR PUSH2 0x963 JUMPI PUSH1 0x40 MSTORE JUMP JUMPDEST SWAP1 PUSH1 0x1F PUSH32 0xFFFFFFFFFFFFFFFFFFFFFFFFFFFFFFFFFFFFFFFFFFFFFFFFFFFFFFFFFFFFFFE0 SWAP2 ADD AND DUP2 ADD SWAP1 DUP2 LT PUSH8 0xFFFFFFFFFFFFFFFF DUP3 GT OR PUSH2 0x963 JUMPI PUSH1 0x40 MSTORE JUMP JUMPDEST PUSH32 0xFFFFFFFFFFFFFFFFFFFFFFFFFFFFFFFFFFFFFFFFFFFFFFFFFFFFFFFFFFFFFFE0 PUSH1 0x1F PUSH1 0x20 SWAP3 PUSH8 0xFFFFFFFFFFFFFFFF DUP2 GT PUSH2 0xA25 JUMPI JUMPDEST ADD AND ADD SWAP1 JUMP JUMPDEST PUSH2 0xA2D PUSH2 0x91F JUMP JUMPDEST PUSH2 0xA1F JUMP JUMPDEST SWAP3 SWAP2 SWAP3 PUSH2 0xA3E DUP3 PUSH2 0x9E9 JUMP JUMPDEST SWAP2 PUSH2 0xA4C PUSH1 0x40 MLOAD SWAP4 DUP5 PUSH2 0x9A8 JUMP JUMPDEST DUP3 SWAP5 DUP2 DUP5 MSTORE DUP2 DUP4 ADD GT PUSH2 0x1A9 JUMPI DUP3 DUP2 PUSH1 0x20 SWAP4 DUP5 PUSH1 0x0 SWAP7 ADD CALLDATACOPY ADD ADD MSTORE JUMP JUMPDEST POP PUSH1 0x40 PUSH1 0x3 NOT CALLDATASIZE ADD SLT PUSH2 0x1A9 JUMPI PUSH1 0x4 CALLDATALOAD PUSH2 0xA82 DUP2 PUSH2 0x18B JUMP JUMPDEST PUSH1 0x24 CALLDATALOAD PUSH8 0xFFFFFFFFFFFFFFFF DUP2 GT PUSH2 0x1A9 JUMPI CALLDATASIZE PUSH1 0x23 DUP3 ADD SLT ISZERO PUSH2 0x1A9 JUMPI PUSH2 0xAB3 SWAP1 CALLDATASIZE SWAP1 PUSH1 0x24 DUP2 PUSH1 0x4 ADD CALLDATALOAD SWAP2 ADD PUSH2 0xA32 JUMP JUMPDEST SWAP1 PUSH20 0xFFFFFFFFFFFFFFFFFFFFFFFFFFFFFFFFFFFFFFFF SWAP2 DUP3 PUSH32 0x0 AND SWAP3 PUSH2 0xAFA DUP5 ADDRESS EQ ISZERO PUSH2 0x1222 JUMP JUMPDEST PUSH2 0xB29 PUSH32 0x360894A13BA1A3210667C828492DB98DCA3E2076CC3735A920A3CA505D382BBC SWAP5 DUP3 DUP7 SLOAD AND EQ PUSH2 0x1293 JUMP JUMPDEST PUSH2 0xB31 PUSH2 0x1C90 JUMP JUMPDEST PUSH32 0x4910FDFA16FED3260ED0E7147F7CC6DA11A60208B5B9406D12A635614FFD9143 SLOAD PUSH1 0xFF AND ISZERO PUSH2 0xB67 JUMPI POP POP PUSH2 0x19 SWAP2 POP PUSH2 0x1391 JUMP JUMPDEST PUSH1 0x20 PUSH1 0x4 SWAP2 PUSH1 0x40 SWAP5 SWAP4 SWAP5 MLOAD SWAP3 DUP4 DUP1 SWAP3 PUSH32 0x52D1902D00000000000000000000000000000000000000000000000000000000 DUP3 MSTORE DUP7 AND GAS STATICCALL PUSH1 0x0 SWAP2 DUP2 PUSH2 0xC29 JUMPI JUMPDEST POP PUSH2 0xC16 JUMPI PUSH1 0x40 MLOAD PUSH3 0x461BCD PUSH1 0xE5 SHL DUP2 MSTORE PUSH1 0x20 PUSH1 0x4 DUP3 ADD MSTORE PUSH1 0x2E PUSH1 0x24 DUP3 ADD MSTORE PUSH32 0x45524331393637557067726164653A206E657720696D706C656D656E74617469 PUSH1 0x44 DUP3 ADD MSTORE PUSH32 0x6F6E206973206E6F742055555053000000000000000000000000000000000000 PUSH1 0x64 DUP3 ADD MSTORE PUSH1 0x84 SWAP1 REVERT JUMPDEST PUSH2 0x19 SWAP4 PUSH2 0xC24 SWAP2 EQ PUSH2 0x1320 JUMP JUMPDEST PUSH2 0x1542 JUMP JUMPDEST PUSH2 0xC42 SWAP2 SWAP3 POP PUSH1 0x20 RETURNDATASIZE DUP2 GT PUSH2 0x6C9 JUMPI PUSH2 0x6BA DUP2 DUP4 PUSH2 0x9A8 JUMP JUMPDEST SWAP1 CODESIZE PUSH2 0xBA6 JUMP JUMPDEST POP CALLVALUE PUSH2 0x1A9 JUMPI PUSH1 0x0 PUSH1 0x3 NOT CALLDATASIZE ADD SLT PUSH2 0x1A9 JUMPI PUSH20 0xFFFFFFFFFFFFFFFFFFFFFFFFFFFFFFFFFFFFFFFF PUSH32 0x0 AND ADDRESS SUB PUSH2 0xCC3 JUMPI PUSH1 0x40 MLOAD PUSH32 0x360894A13BA1A3210667C828492DB98DCA3E2076CC3735A920A3CA505D382BBC DUP2 MSTORE PUSH1 0x20 SWAP1 RETURN JUMPDEST PUSH1 0x84 PUSH1 0x40 MLOAD PUSH3 0x461BCD PUSH1 0xE5 SHL DUP2 MSTORE PUSH1 0x20 PUSH1 0x4 DUP3 ADD MSTORE PUSH1 0x38 PUSH1 0x24 DUP3 ADD MSTORE PUSH32 0x555550535570677261646561626C653A206D757374206E6F742062652063616C PUSH1 0x44 DUP3 ADD MSTORE PUSH32 0x6C6564207468726F7567682064656C656761746563616C6C0000000000000000 PUSH1 0x64 DUP3 ADD MSTORE REVERT JUMPDEST POP CALLVALUE PUSH2 0x1A9 JUMPI PUSH1 0x0 PUSH1 0x3 NOT CALLDATASIZE ADD SLT PUSH2 0x1A9 JUMPI PUSH1 0x20 PUSH20 0xFFFFFFFFFFFFFFFFFFFFFFFFFFFFFFFFFFFFFFFF PUSH1 0x0 SLOAD PUSH1 0x10 SHR AND PUSH1 0x40 MLOAD SWAP1 DUP2 MSTORE RETURN JUMPDEST POP CALLVALUE PUSH2 0x1A9 JUMPI PUSH1 0x0 PUSH1 0x3 NOT CALLDATASIZE ADD SLT PUSH2 0x1A9 JUMPI PUSH1 0x20 PUSH1 0x40 MLOAD PUSH20 0xFFFFFFFFFFFFFFFFFFFFFFFFFFFFFFFFFFFFFFFF PUSH32 0x0 AND DUP2 MSTORE RETURN JUMPDEST POP CALLVALUE PUSH2 0x1A9 JUMPI PUSH1 0x60 PUSH1 0x3 NOT CALLDATASIZE ADD SLT PUSH2 0x1A9 JUMPI PUSH1 0x4 CALLDATALOAD PUSH2 0xDD5 DUP2 PUSH2 0x18B JUMP JUMPDEST PUSH1 0x44 CALLDATALOAD PUSH8 0xFFFFFFFFFFFFFFFF DUP2 GT PUSH2 0x1A9 JUMPI PUSH1 0x0 SWAP2 PUSH2 0xE04 PUSH2 0xDFC DUP5 SWAP4 CALLDATASIZE SWAP1 PUSH1 0x4 ADD PUSH2 0x1AE JUMP JUMPDEST PUSH2 0x450 PUSH2 0x18F7 JUMP JUMPDEST SWAP1 PUSH1 0x20 DUP3 MLOAD SWAP3 ADD SWAP1 PUSH1 0x24 CALLDATALOAD SWAP1 GAS CALL PUSH2 0xE1A PUSH2 0x15A2 JUMP JUMPDEST SWAP1 ISZERO PUSH2 0xE22 JUMPI STOP JUMPDEST PUSH1 0x20 DUP2 MLOAD SWAP2 ADD REVERT JUMPDEST POP CALLVALUE PUSH2 0x1A9 JUMPI PUSH1 0xA0 PUSH1 0x3 NOT CALLDATASIZE ADD SLT PUSH2 0x1A9 JUMPI PUSH2 0xE47 PUSH1 0x4 CALLDATALOAD PUSH2 0x18B JUMP JUMPDEST PUSH2 0xE52 PUSH1 0x24 CALLDATALOAD PUSH2 0x18B JUMP JUMPDEST PUSH8 0xFFFFFFFFFFFFFFFF PUSH1 0x44 CALLDATALOAD DUP2 DUP2 GT PUSH2 0x1A9 JUMPI PUSH2 0xE73 SWAP1 CALLDATASIZE SWAP1 PUSH1 0x4 ADD PUSH2 0x391 JUMP JUMPDEST POP POP PUSH1 0x64 CALLDATALOAD DUP2 DUP2 GT PUSH2 0x1A9 JUMPI PUSH2 0xE8D SWAP1 CALLDATASIZE SWAP1 PUSH1 0x4 ADD PUSH2 0x391 JUMP JUMPDEST POP POP PUSH1 0x84 CALLDATALOAD SWAP1 DUP2 GT PUSH2 0x1A9 JUMPI PUSH2 0xEA7 SWAP1 CALLDATASIZE SWAP1 PUSH1 0x4 ADD PUSH2 0x1AE JUMP JUMPDEST POP POP PUSH1 0x40 MLOAD PUSH32 0xBC197C8100000000000000000000000000000000000000000000000000000000 DUP2 MSTORE PUSH1 0x20 SWAP1 RETURN JUMPDEST POP CALLVALUE PUSH2 0x1A9 JUMPI PUSH1 0x0 PUSH1 0x3 NOT CALLDATASIZE ADD SLT PUSH2 0x1A9 JUMPI PUSH1 0x20 PUSH1 0x40 MLOAD PUSH32 0x70A0823100000000000000000000000000000000000000000000000000000000 DUP2 MSTORE ADDRESS PUSH1 0x4 DUP3 ADD MSTORE DUP2 DUP2 PUSH1 0x24 DUP2 PUSH20 0xFFFFFFFFFFFFFFFFFFFFFFFFFFFFFFFFFFFFFFFF PUSH32 0x0 AND GAS STATICCALL SWAP1 DUP2 ISZERO PUSH2 0xF88 JUMPI JUMPDEST PUSH1 0x0 SWAP2 PUSH2 0xF6B JUMPI JUMPDEST POP PUSH1 0x40 MLOAD SWAP1 DUP2 MSTORE RETURN JUMPDEST PUSH2 0xF82 SWAP2 POP DUP3 RETURNDATASIZE DUP2 GT PUSH2 0x6C9 JUMPI PUSH2 0x6BA DUP2 DUP4 PUSH2 0x9A8 JUMP JUMPDEST CODESIZE PUSH2 0xF62 JUMP JUMPDEST PUSH2 0xF90 PUSH2 0x1313 JUMP JUMPDEST PUSH2 0xF5A JUMP JUMPDEST POP CALLVALUE PUSH2 0x1A9 JUMPI PUSH1 0x20 PUSH1 0x3 NOT CALLDATASIZE ADD SLT PUSH2 0x1A9 JUMPI PUSH1 0x4 CALLDATALOAD PUSH2 0xFB3 DUP2 PUSH2 0x18B JUMP JUMPDEST PUSH2 0x1015 PUSH1 0x0 SLOAD SWAP2 PUSH2 0xFDB PUSH1 0xFF DUP5 PUSH1 0x8 SHR AND ISZERO DUP1 SWAP5 DUP2 SWAP6 PUSH2 0x10CD JUMPI JUMPDEST DUP2 ISZERO PUSH2 0x10AD JUMPI JUMPDEST POP PUSH2 0x17DA JUMP JUMPDEST DUP3 PUSH2 0x100C PUSH1 0x1 PUSH32 0xFFFFFFFFFFFFFFFFFFFFFFFFFFFFFFFFFFFFFFFFFFFFFFFFFFFFFFFFFFFFFF00 PUSH1 0x0 SLOAD AND OR PUSH1 0x0 SSTORE JUMP JUMPDEST PUSH2 0x1077 JUMPI PUSH2 0x184B JUMP JUMPDEST PUSH2 0x101B JUMPI STOP JUMPDEST PUSH2 0x1048 PUSH32 0xFFFFFFFFFFFFFFFFFFFFFFFFFFFFFFFFFFFFFFFFFFFFFFFFFFFFFFFFFFFF00FF PUSH1 0x0 SLOAD AND PUSH1 0x0 SSTORE JUMP JUMPDEST PUSH1 0x40 MLOAD PUSH1 0x1 DUP2 MSTORE PUSH32 0x7F26B83FF96E1F2B6A682F133852F6798A09C465DA95921460CEFB3847402498 SWAP1 PUSH1 0x20 SWAP1 LOG1 STOP JUMPDEST PUSH2 0x10A8 PUSH2 0x100 PUSH32 0xFFFFFFFFFFFFFFFFFFFFFFFFFFFFFFFFFFFFFFFFFFFFFFFFFFFFFFFFFFFF00FF PUSH1 0x0 SLOAD AND OR PUSH1 0x0 SSTORE JUMP JUMPDEST PUSH2 0x184B JUMP JUMPDEST ADDRESS EXTCODESIZE ISZERO SWAP2 POP DUP2 PUSH2 0x10BF JUMPI JUMPDEST POP CODESIZE PUSH2 0xFD5 JUMP JUMPDEST PUSH1 0x1 SWAP2 POP PUSH1 0xFF AND EQ CODESIZE PUSH2 0x10B8 JUMP JUMPDEST PUSH1 0x1 PUSH1 0xFF DUP3 AND LT SWAP2 POP PUSH2 0xFCE JUMP JUMPDEST POP CALLVALUE PUSH2 0x1A9 JUMPI PUSH1 0x0 PUSH1 0x3 NOT CALLDATASIZE ADD SLT PUSH2 0x1A9 JUMPI PUSH2 0x76E PUSH1 0x40 MLOAD PUSH32 0x35567E1A00000000000000000000000000000000000000000000000000000000 DUP2 MSTORE ADDRESS PUSH1 0x4 DUP3 ADD MSTORE PUSH1 0x0 PUSH1 0x24 DUP3 ADD MSTORE PUSH1 0x20 DUP2 PUSH1 0x44 DUP2 PUSH20 0xFFFFFFFFFFFFFFFFFFFFFFFFFFFFFFFFFFFFFFFF PUSH32 0x0 AND GAS STATICCALL SWAP1 DUP2 ISZERO PUSH2 0x11A1 JUMPI JUMPDEST PUSH1 0x0 SWAP2 PUSH2 0x1183 JUMPI JUMPDEST POP PUSH1 0x40 MLOAD SWAP1 DUP2 MSTORE SWAP1 DUP2 SWAP1 PUSH1 0x20 DUP3 ADD SWAP1 JUMP JUMPDEST PUSH2 0x119B SWAP2 POP PUSH1 0x20 RETURNDATASIZE DUP2 GT PUSH2 0x6C9 JUMPI PUSH2 0x6BA DUP2 DUP4 PUSH2 0x9A8 JUMP JUMPDEST CODESIZE PUSH2 0x1172 JUMP JUMPDEST PUSH2 0x11A9 PUSH2 0x1313 JUMP JUMPDEST PUSH2 0x116A JUMP JUMPDEST POP CALLVALUE PUSH2 0x1A9 JUMPI PUSH1 0xA0 PUSH1 0x3 NOT CALLDATASIZE ADD SLT PUSH2 0x1A9 JUMPI PUSH2 0x11CB PUSH1 0x4 CALLDATALOAD PUSH2 0x18B JUMP JUMPDEST PUSH2 0x11D6 PUSH1 0x24 CALLDATALOAD PUSH2 0x18B JUMP JUMPDEST PUSH1 0x84 CALLDATALOAD PUSH8 0xFFFFFFFFFFFFFFFF DUP2 GT PUSH2 0x1A9 JUMPI PUSH2 0x11F6 SWAP1 CALLDATASIZE SWAP1 PUSH1 0x4 ADD PUSH2 0x1AE JUMP JUMPDEST POP POP PUSH1 0x20 PUSH1 0x40 MLOAD PUSH32 0xF23A6E6100000000000000000000000000000000000000000000000000000000 DUP2 MSTORE RETURN JUMPDEST ISZERO PUSH2 0x1229 JUMPI JUMP JUMPDEST PUSH1 0x84 PUSH1 0x40 MLOAD PUSH3 0x461BCD PUSH1 0xE5 SHL DUP2 MSTORE PUSH1 0x20 PUSH1 0x4 DUP3 ADD MSTORE PUSH1 0x2C PUSH1 0x24 DUP3 ADD MSTORE PUSH32 0x46756E6374696F6E206D7573742062652063616C6C6564207468726F75676820 PUSH1 0x44 DUP3 ADD MSTORE PUSH32 0x64656C656761746563616C6C0000000000000000000000000000000000000000 PUSH1 0x64 DUP3 ADD MSTORE REVERT JUMPDEST ISZERO PUSH2 0x129A JUMPI JUMP JUMPDEST PUSH1 0x84 PUSH1 0x40 MLOAD PUSH3 0x461BCD PUSH1 0xE5 SHL DUP2 MSTORE PUSH1 0x20 PUSH1 0x4 DUP3 ADD MSTORE PUSH1 0x2C PUSH1 0x24 DUP3 ADD MSTORE PUSH32 0x46756E6374696F6E206D7573742062652063616C6C6564207468726F75676820 PUSH1 0x44 DUP3 ADD MSTORE PUSH32 0x6163746976652070726F78790000000000000000000000000000000000000000 PUSH1 0x64 DUP3 ADD MSTORE REVERT JUMPDEST SWAP1 DUP2 PUSH1 0x20 SWAP2 SUB SLT PUSH2 0x1A9 JUMPI MLOAD SWAP1 JUMP JUMPDEST POP PUSH1 0x40 MLOAD RETURNDATASIZE PUSH1 0x0 DUP3 RETURNDATACOPY RETURNDATASIZE SWAP1 REVERT JUMPDEST ISZERO PUSH2 0x1327 JUMPI JUMP JUMPDEST PUSH1 0x84 PUSH1 0x40 MLOAD PUSH3 0x461BCD PUSH1 0xE5 SHL DUP2 MSTORE PUSH1 0x20 PUSH1 0x4 DUP3 ADD MSTORE PUSH1 0x29 PUSH1 0x24 DUP3 ADD MSTORE PUSH32 0x45524331393637557067726164653A20756E737570706F727465642070726F78 PUSH1 0x44 DUP3 ADD MSTORE PUSH32 0x6961626C65555549440000000000000000000000000000000000000000000000 PUSH1 0x64 DUP3 ADD MSTORE REVERT JUMPDEST DUP1 EXTCODESIZE ISZERO PUSH2 0x13F9 JUMPI PUSH20 0xFFFFFFFFFFFFFFFFFFFFFFFFFFFFFFFFFFFFFFFF PUSH32 0x360894A13BA1A3210667C828492DB98DCA3E2076CC3735A920A3CA505D382BBC SWAP2 AND PUSH32 0xFFFFFFFFFFFFFFFFFFFFFFFF0000000000000000000000000000000000000000 DUP3 SLOAD AND OR SWAP1 SSTORE JUMP JUMPDEST PUSH1 0x84 PUSH1 0x40 MLOAD PUSH3 0x461BCD PUSH1 0xE5 SHL DUP2 MSTORE PUSH1 0x20 PUSH1 0x4 DUP3 ADD MSTORE PUSH1 0x2D PUSH1 0x24 DUP3 ADD MSTORE PUSH32 0x455243313936373A206E657720696D706C656D656E746174696F6E206973206E PUSH1 0x44 DUP3 ADD MSTORE PUSH32 0x6F74206120636F6E747261637400000000000000000000000000000000000000 PUSH1 0x64 DUP3 ADD MSTORE REVERT JUMPDEST SWAP1 PUSH2 0x146D DUP3 PUSH2 0x1391 JUMP JUMPDEST PUSH20 0xFFFFFFFFFFFFFFFFFFFFFFFFFFFFFFFFFFFFFFFF DUP3 AND PUSH32 0xBC7CD75A20EE27FD9ADEBAB32041F755214DBC6BFFA90CC0225B39DA2E5C2D3B PUSH1 0x0 DUP1 LOG2 DUP1 MLOAD ISZERO DUP1 ISZERO SWAP1 PUSH2 0x153A JUMPI JUMPDEST PUSH2 0x14BC JUMPI POP POP JUMP JUMPDEST PUSH2 0x1537 SWAP2 PUSH1 0x0 DUP1 PUSH1 0x40 MLOAD SWAP4 PUSH2 0x14D0 DUP6 PUSH2 0x98C JUMP JUMPDEST PUSH1 0x27 DUP6 MSTORE PUSH32 0x416464726573733A206C6F772D6C6576656C2064656C65676174652063616C6C PUSH1 0x20 DUP7 ADD MSTORE PUSH32 0x206661696C656400000000000000000000000000000000000000000000000000 PUSH1 0x40 DUP7 ADD MSTORE PUSH1 0x20 DUP2 MLOAD SWAP2 ADD DUP5 GAS DELEGATECALL PUSH2 0x1531 PUSH2 0x15A2 JUMP JUMPDEST SWAP2 PUSH2 0x161D JUMP JUMPDEST POP JUMP JUMPDEST POP PUSH1 0x0 PUSH2 0x14B4 JUMP JUMPDEST SWAP1 PUSH2 0x154C DUP3 PUSH2 0x1391 JUMP JUMPDEST PUSH20 0xFFFFFFFFFFFFFFFFFFFFFFFFFFFFFFFFFFFFFFFF DUP3 AND PUSH32 0xBC7CD75A20EE27FD9ADEBAB32041F755214DBC6BFFA90CC0225B39DA2E5C2D3B PUSH1 0x0 DUP1 LOG2 DUP1 MLOAD ISZERO DUP1 ISZERO SWAP1 PUSH2 0x159A JUMPI PUSH2 0x14BC JUMPI POP POP JUMP JUMPDEST POP PUSH1 0x1 PUSH2 0x14B4 JUMP JUMPDEST RETURNDATASIZE ISZERO PUSH2 0x15CD JUMPI RETURNDATASIZE SWAP1 PUSH2 0x15B3 DUP3 PUSH2 0x9E9 JUMP JUMPDEST SWAP2 PUSH2 0x15C1 PUSH1 0x40 MLOAD SWAP4 DUP5 PUSH2 0x9A8 JUMP JUMPDEST DUP3 MSTORE RETURNDATASIZE PUSH1 0x0 PUSH1 0x20 DUP5 ADD RETURNDATACOPY JUMP JUMPDEST PUSH1 0x60 SWAP1 JUMP JUMPDEST ISZERO PUSH2 0x15D9 JUMPI JUMP JUMPDEST PUSH1 0x64 PUSH1 0x40 MLOAD PUSH3 0x461BCD PUSH1 0xE5 SHL DUP2 MSTORE PUSH1 0x20 PUSH1 0x4 DUP3 ADD MSTORE PUSH1 0x1D PUSH1 0x24 DUP3 ADD MSTORE PUSH32 0x416464726573733A2063616C6C20746F206E6F6E2D636F6E7472616374000000 PUSH1 0x44 DUP3 ADD MSTORE REVERT JUMPDEST SWAP2 SWAP3 SWAP1 ISZERO PUSH2 0x1640 JUMPI POP DUP2 MLOAD ISZERO PUSH2 0x1631 JUMPI POP SWAP1 JUMP JUMPDEST PUSH2 0x163D SWAP1 EXTCODESIZE ISZERO ISZERO PUSH2 0x15D2 JUMP JUMPDEST SWAP1 JUMP JUMPDEST DUP3 MLOAD SWAP1 SWAP2 POP ISZERO PUSH2 0x1653 JUMPI POP DUP1 MLOAD SWAP1 PUSH1 0x20 ADD REVERT JUMPDEST PUSH1 0x40 MLOAD SWAP1 PUSH3 0x461BCD PUSH1 0xE5 SHL DUP3 MSTORE DUP2 PUSH1 0x20 DUP1 PUSH1 0x4 DUP4 ADD MSTORE DUP3 MLOAD SWAP3 DUP4 PUSH1 0x24 DUP5 ADD MSTORE PUSH1 0x0 JUMPDEST DUP5 DUP2 LT PUSH2 0x16B6 JUMPI POP POP POP PUSH32 0xFFFFFFFFFFFFFFFFFFFFFFFFFFFFFFFFFFFFFFFFFFFFFFFFFFFFFFFFFFFFFFE0 PUSH1 0x1F DUP4 PUSH1 0x0 PUSH1 0x44 DUP1 SWAP7 DUP7 ADD ADD MSTORE ADD AND DUP2 ADD SUB ADD SWAP1 REVERT JUMPDEST DUP2 DUP2 ADD DUP4 ADD MLOAD DUP7 DUP3 ADD PUSH1 0x44 ADD MSTORE DUP6 SWAP4 POP DUP3 ADD PUSH2 0x1675 JUMP JUMPDEST DUP1 PUSH2 0x16D5 JUMPI POP JUMP JUMPDEST PUSH1 0x0 DUP1 DUP1 DUP1 SWAP4 CALLER PUSH32 0xFFFFFFFFFFFFFFFFFFFFFFFFFFFFFFFFFFFFFFFFFFFFFFFFFFFFFFFFFFFFFFFF CALL POP PUSH2 0x1537 PUSH2 0x15A2 JUMP JUMPDEST POP PUSH32 0x4E487B7100000000000000000000000000000000000000000000000000000000 PUSH1 0x0 MSTORE PUSH1 0x32 PUSH1 0x4 MSTORE PUSH1 0x24 PUSH1 0x0 REVERT JUMPDEST SWAP2 SWAP1 DUP2 LT ISZERO PUSH2 0x1748 JUMPI JUMPDEST PUSH1 0x5 SHL ADD SWAP1 JUMP JUMPDEST PUSH2 0x1750 PUSH2 0x1707 JUMP JUMPDEST PUSH2 0x1741 JUMP JUMPDEST CALLDATALOAD PUSH2 0x163D DUP2 PUSH2 0x18B JUMP JUMPDEST SWAP1 CALLDATALOAD SWAP1 PUSH32 0xFFFFFFFFFFFFFFFFFFFFFFFFFFFFFFFFFFFFFFFFFFFFFFFFFFFFFFFFFFFFFFE1 DUP2 CALLDATASIZE SUB ADD DUP3 SLT ISZERO PUSH2 0x1A9 JUMPI ADD DUP1 CALLDATALOAD SWAP1 PUSH8 0xFFFFFFFFFFFFFFFF DUP3 GT PUSH2 0x1A9 JUMPI PUSH1 0x20 ADD SWAP2 DUP2 CALLDATASIZE SUB DUP4 SGT PUSH2 0x1A9 JUMPI JUMP JUMPDEST SWAP1 SWAP2 PUSH2 0x17C9 SWAP3 DUP2 LT ISZERO PUSH2 0x17CD JUMPI JUMPDEST PUSH1 0x5 SHL DUP2 ADD SWAP1 PUSH2 0x175F JUMP JUMPDEST SWAP1 SWAP2 JUMP JUMPDEST PUSH2 0x17D5 PUSH2 0x1707 JUMP JUMPDEST PUSH2 0x17BE JUMP JUMPDEST ISZERO PUSH2 0x17E1 JUMPI JUMP JUMPDEST PUSH1 0x84 PUSH1 0x40 MLOAD PUSH3 0x461BCD PUSH1 0xE5 SHL DUP2 MSTORE PUSH1 0x20 PUSH1 0x4 DUP3 ADD MSTORE PUSH1 0x2E PUSH1 0x24 DUP3 ADD MSTORE PUSH32 0x496E697469616C697A61626C653A20636F6E747261637420697320616C726561 PUSH1 0x44 DUP3 ADD MSTORE PUSH32 0x647920696E697469616C697A6564000000000000000000000000000000000000 PUSH1 0x64 DUP3 ADD MSTORE REVERT JUMPDEST PUSH32 0xFFFFFFFFFFFFFFFFFFFF0000000000000000000000000000000000000000FFFF PUSH22 0xFFFFFFFFFFFFFFFFFFFFFFFFFFFFFFFFFFFFFFFF0000 PUSH1 0x0 SLOAD SWAP3 PUSH1 0x10 SHL AND SWAP2 AND OR DUP1 PUSH1 0x0 SSTORE PUSH20 0xFFFFFFFFFFFFFFFFFFFFFFFFFFFFFFFFFFFFFFFF DUP1 SWAP2 PUSH1 0x10 SHR AND SWAP1 PUSH32 0x0 AND PUSH32 0x47E55C76E7A6F1FD8996A1DA8008C1EA29699CCA35E7BCD057F2DEC313B6E5DE PUSH1 0x0 DUP1 LOG3 JUMP JUMPDEST PUSH20 0xFFFFFFFFFFFFFFFFFFFFFFFFFFFFFFFFFFFFFFFF DUP1 PUSH32 0x0 AND CALLER EQ SWAP1 DUP2 ISZERO PUSH2 0x1985 JUMPI JUMPDEST POP ISZERO PUSH2 0x1941 JUMPI JUMP JUMPDEST PUSH1 0x64 PUSH1 0x40 MLOAD PUSH3 0x461BCD PUSH1 0xE5 SHL DUP2 MSTORE PUSH1 0x20 PUSH1 0x4 DUP3 ADD MSTORE PUSH1 0x20 PUSH1 0x24 DUP3 ADD MSTORE PUSH32 0x6163636F756E743A206E6F74204F776E6572206F7220456E747279506F696E74 PUSH1 0x44 DUP3 ADD MSTORE REVERT JUMPDEST SWAP1 POP PUSH1 0x0 SLOAD PUSH1 0x10 SHR AND CALLER EQ CODESIZE PUSH2 0x1939 JUMP JUMPDEST SWAP1 PUSH1 0x40 MLOAD PUSH1 0x20 DUP2 ADD SWAP2 PUSH32 0x19457468657265756D205369676E6564204D6573736167653A0A333200000000 DUP4 MSTORE PUSH1 0x3C DUP3 ADD MSTORE PUSH1 0x3C DUP2 MSTORE PUSH2 0x19D4 DUP2 PUSH2 0x98C JUMP JUMPDEST MLOAD SWAP1 KECCAK256 PUSH2 0x1A1B PUSH2 0x1A13 PUSH20 0xFFFFFFFFFFFFFFFFFFFFFFFFFFFFFFFFFFFFFFFF SWAP3 PUSH2 0x1A0D PUSH2 0x450 DUP6 PUSH1 0x0 SLOAD PUSH1 0x10 SHR AND SWAP7 PUSH2 0x140 DUP2 ADD SWAP1 PUSH2 0x175F JUMP JUMPDEST SWAP1 PUSH2 0x1B9F JUMP JUMPDEST SWAP2 SWAP1 SWAP2 PUSH2 0x1A64 JUMP JUMPDEST AND SUB PUSH2 0x1A26 JUMPI PUSH1 0x0 SWAP1 JUMP JUMPDEST PUSH1 0x1 SWAP1 JUMP JUMPDEST PUSH1 0x5 GT ISZERO PUSH2 0x1A35 JUMPI JUMP JUMPDEST PUSH32 0x4E487B7100000000000000000000000000000000000000000000000000000000 PUSH1 0x0 MSTORE PUSH1 0x21 PUSH1 0x4 MSTORE PUSH1 0x24 PUSH1 0x0 REVERT JUMPDEST PUSH2 0x1A6D DUP2 PUSH2 0x1A2B JUMP JUMPDEST DUP1 PUSH2 0x1A75 JUMPI POP JUMP JUMPDEST PUSH2 0x1A7E DUP2 PUSH2 0x1A2B JUMP JUMPDEST PUSH1 0x1 DUP2 SUB PUSH2 0x1ACB JUMPI PUSH1 0x40 MLOAD PUSH3 0x461BCD PUSH1 0xE5 SHL DUP2 MSTORE PUSH1 0x20 PUSH1 0x4 DUP3 ADD MSTORE PUSH1 0x18 PUSH1 0x24 DUP3 ADD MSTORE PUSH32 0x45434453413A20696E76616C6964207369676E61747572650000000000000000 PUSH1 0x44 DUP3 ADD MSTORE PUSH1 0x64 SWAP1 REVERT JUMPDEST PUSH2 0x1AD4 DUP2 PUSH2 0x1A2B JUMP JUMPDEST PUSH1 0x2 DUP2 SUB PUSH2 0x1B21 JUMPI PUSH1 0x40 MLOAD PUSH3 0x461BCD PUSH1 0xE5 SHL DUP2 MSTORE PUSH1 0x20 PUSH1 0x4 DUP3 ADD MSTORE PUSH1 0x1F PUSH1 0x24 DUP3 ADD MSTORE PUSH32 0x45434453413A20696E76616C6964207369676E6174757265206C656E67746800 PUSH1 0x44 DUP3 ADD MSTORE PUSH1 0x64 SWAP1 REVERT JUMPDEST DUP1 PUSH2 0x1B2D PUSH1 0x3 SWAP3 PUSH2 0x1A2B JUMP JUMPDEST EQ PUSH2 0x1B34 JUMPI JUMP JUMPDEST PUSH1 0x40 MLOAD PUSH3 0x461BCD PUSH1 0xE5 SHL DUP2 MSTORE PUSH1 0x20 PUSH1 0x4 DUP3 ADD MSTORE PUSH1 0x22 PUSH1 0x24 DUP3 ADD MSTORE PUSH32 0x45434453413A20696E76616C6964207369676E6174757265202773272076616C PUSH1 0x44 DUP3 ADD MSTORE PUSH32 0x7565000000000000000000000000000000000000000000000000000000000000 PUSH1 0x64 DUP3 ADD MSTORE PUSH1 0x84 SWAP1 REVERT JUMPDEST SWAP1 PUSH1 0x41 DUP2 MLOAD EQ PUSH1 0x0 EQ PUSH2 0x1BC9 JUMPI PUSH2 0x17C9 SWAP2 PUSH1 0x20 DUP3 ADD MLOAD SWAP1 PUSH1 0x60 PUSH1 0x40 DUP5 ADD MLOAD SWAP4 ADD MLOAD PUSH1 0x0 BYTE SWAP1 PUSH2 0x1BD3 JUMP JUMPDEST POP POP PUSH1 0x0 SWAP1 PUSH1 0x2 SWAP1 JUMP JUMPDEST SWAP3 SWAP2 SWAP1 PUSH32 0x7FFFFFFFFFFFFFFFFFFFFFFFFFFFFFFF5D576E7357A4501DDFE92F46681B20A0 DUP4 GT PUSH2 0x1C64 JUMPI SWAP2 PUSH1 0x80 SWAP5 SWAP4 SWAP2 PUSH1 0xFF PUSH1 0x20 SWAP5 PUSH1 0x40 MLOAD SWAP5 DUP6 MSTORE AND DUP5 DUP5 ADD MSTORE PUSH1 0x40 DUP4 ADD MSTORE PUSH1 0x60 DUP3 ADD MSTORE PUSH1 0x0 SWAP4 DUP5 SWAP2 DUP3 DUP1 MSTORE PUSH1 0x1 GAS STATICCALL ISZERO PUSH2 0x1C57 JUMPI JUMPDEST DUP2 MLOAD PUSH20 0xFFFFFFFFFFFFFFFFFFFFFFFFFFFFFFFFFFFFFFFF DUP2 AND ISZERO PUSH2 0x1C51 JUMPI SWAP2 SWAP1 JUMP JUMPDEST POP PUSH1 0x1 SWAP1 JUMP JUMPDEST PUSH2 0x1C5F PUSH2 0x1313 JUMP JUMPDEST PUSH2 0x1C2F JUMP JUMPDEST POP POP POP POP PUSH1 0x0 SWAP1 PUSH1 0x3 SWAP1 JUMP JUMPDEST PUSH1 0x0 SWAP2 DUP3 SWAP2 DUP3 PUSH1 0x20 DUP4 MLOAD SWAP4 ADD SWAP2 GAS CALL PUSH2 0x1C87 PUSH2 0x15A2 JUMP JUMPDEST SWAP1 ISZERO PUSH2 0xE22 JUMPI POP JUMP JUMPDEST PUSH20 0xFFFFFFFFFFFFFFFFFFFFFFFFFFFFFFFFFFFFFFFF PUSH1 0x0 SLOAD PUSH1 0x10 SHR AND CALLER EQ DUP1 ISZERO PUSH2 0x1D00 JUMPI JUMPDEST ISZERO PUSH2 0x1CBC JUMPI JUMP JUMPDEST PUSH1 0x64 PUSH1 0x40 MLOAD PUSH3 0x461BCD PUSH1 0xE5 SHL DUP2 MSTORE PUSH1 0x20 PUSH1 0x4 DUP3 ADD MSTORE PUSH1 0xA PUSH1 0x24 DUP3 ADD MSTORE PUSH32 0x6F6E6C79206F776E657200000000000000000000000000000000000000000000 PUSH1 0x44 DUP3 ADD MSTORE REVERT JUMPDEST POP ADDRESS CALLER EQ PUSH2 0x1CB5 JUMP INVALID LOG2 PUSH5 0x6970667358 0x22 SLT KECCAK256 KECCAK256 0xCD 0xEE 0xE3 SWAP2 XOR 0xE1 TIMESTAMP 0xE5 CHAINID 0xB3 DUP5 0xB4 DUP5 0xB1 SLOAD SWAP3 DUP6 MSTORE8 0xBD SWAP7 BLOCKHASH JUMP 0xA6 SLT CALLDATALOAD 0xBC 0xEE 0xD4 LOG2 0x2A DUP4 PUSH5 0x736F6C6343 STOP ADDMOD GT STOP CALLER "},"methodIdentifiers":{"addDeposit()":"4a58db19","entryPoint()":"b0d691fe","execute(address,uint256,bytes)":"b61d27f6","executeBatch(address[],bytes[])":"18dfb3c7","getDeposit()":"c399ec88","getNonce()":"d087d288","initialize(address)":"c4d66de8","onERC1155BatchReceived(address,address,uint256[],uint256[],bytes)":"bc197c81","onERC1155Received(address,address,uint256,uint256,bytes)":"f23a6e61","onERC721Received(address,address,uint256,bytes)":"150b7a02","owner()":"8da5cb5b","proxiableUUID()":"52d1902d","supportsInterface(bytes4)":"01ffc9a7","tokensReceived(address,address,address,uint256,bytes,bytes)":"0023de29","upgradeTo(address)":"3659cfe6","upgradeToAndCall(address,bytes)":"4f1ef286","validateUserOp((address,uint256,bytes,bytes,uint256,uint256,uint256,uint256,uint256,bytes,bytes),bytes32,uint256)":"3a871cdd","withdrawDepositTo(address,uint256)":"4d44560d"}}}}}