{"contracts/core/NonceManager.sol":{"NonceManager":{"abi":[{"inputs":[{"internalType":"address","name":"sender","type":"address"},{"internalType":"uint192","name":"key","type":"uint192"}],"name":"getNonce","outputs":[{"internalType":"uint256","name":"nonce","type":"uint256"}],"stateMutability":"view","type":"function"},{"inputs":[{"internalType":"uint192","name":"key","type":"uint192"}],"name":"incrementNonce","outputs":[],"stateMutability":"nonpayable","type":"function"},{"inputs":[{"internalType":"address","name":"","type":"address"},{"internalType":"uint192","name":"","type":"uint192"}],"name":"nonceSequenceNumber","outputs":[{"internalType":"uint256","name":"","type":"uint256"}],"stateMutability":"view","type":"function"}],"evm":{"bytecode":{"linkReferences":{},"object":"6080806040523461001657610292908161001c8239f35b600080fdfe604060808152600436101561001357600080fd5b600090813560e01c80630bd28e3b1461011c5780631b2e01b8146100c2576335567e1a1461004057600080fd5b346100be5773ffffffffffffffffffffffffffffffffffffffff7fffffffffffffffffffffffffffffffffffffffffffffffff000000000000000082602094610088366101e5565b9416815280865281812077ffffffffffffffffffffffffffffffffffffffffffffffff8516825286522054918351931b16178152f35b5080fd5b50346100be578060209273ffffffffffffffffffffffffffffffffffffffff6100ea366101e5565b9116825281855277ffffffffffffffffffffffffffffffffffffffffffffffff83832091168252845220549051908152f35b50346100be5760207ffffffffffffffffffffffffffffffffffffffffffffffffffffffffffffffffc3601126100be5760043577ffffffffffffffffffffffffffffffffffffffffffffffff81168091036101e15733835282602052818320908352602052812080547fffffffffffffffffffffffffffffffffffffffffffffffffffffffffffffffff81146101b457600101905580f35b6024837f4e487b710000000000000000000000000000000000000000000000000000000081526011600452fd5b8280fd5b7ffffffffffffffffffffffffffffffffffffffffffffffffffffffffffffffffc60409101126102575760043573ffffffffffffffffffffffffffffffffffffffff81168103610257579060243577ffffffffffffffffffffffffffffffffffffffffffffffff811681036102575790565b600080fdfea26469706673582212208531ec2c14a0c3ba45044a5812d77ff0bbd10126e92fe479db814384086dffea64736f6c63430008110033","opcodes":"PUSH1 0x80 DUP1 PUSH1 0x40 MSTORE CALLVALUE PUSH2 0x16 JUMPI PUSH2 0x292 SWAP1 DUP2 PUSH2 0x1C DUP3 CODECOPY RETURN JUMPDEST PUSH1 0x0 DUP1 REVERT INVALID PUSH1 0x40 PUSH1 0x80 DUP2 MSTORE PUSH1 0x4 CALLDATASIZE LT ISZERO PUSH2 0x13 JUMPI PUSH1 0x0 DUP1 REVERT JUMPDEST PUSH1 0x0 SWAP1 DUP2 CALLDATALOAD PUSH1 0xE0 SHR DUP1 PUSH4 0xBD28E3B EQ PUSH2 0x11C JUMPI DUP1 PUSH4 0x1B2E01B8 EQ PUSH2 0xC2 JUMPI PUSH4 0x35567E1A EQ PUSH2 0x40 JUMPI PUSH1 0x0 DUP1 REVERT JUMPDEST CALLVALUE PUSH2 0xBE JUMPI PUSH20 0xFFFFFFFFFFFFFFFFFFFFFFFFFFFFFFFFFFFFFFFF PUSH32 0xFFFFFFFFFFFFFFFFFFFFFFFFFFFFFFFFFFFFFFFFFFFFFFFF0000000000000000 DUP3 PUSH1 0x20 SWAP5 PUSH2 0x88 CALLDATASIZE PUSH2 0x1E5 JUMP JUMPDEST SWAP5 AND DUP2 MSTORE DUP1 DUP7 MSTORE DUP2 DUP2 KECCAK256 PUSH24 0xFFFFFFFFFFFFFFFFFFFFFFFFFFFFFFFFFFFFFFFFFFFFFFFF DUP6 AND DUP3 MSTORE DUP7 MSTORE KECCAK256 SLOAD SWAP2 DUP4 MLOAD SWAP4 SHL AND OR DUP2 MSTORE RETURN JUMPDEST POP DUP1 REVERT JUMPDEST POP CALLVALUE PUSH2 0xBE JUMPI DUP1 PUSH1 0x20 SWAP3 PUSH20 0xFFFFFFFFFFFFFFFFFFFFFFFFFFFFFFFFFFFFFFFF PUSH2 0xEA CALLDATASIZE PUSH2 0x1E5 JUMP JUMPDEST SWAP2 AND DUP3 MSTORE DUP2 DUP6 MSTORE PUSH24 0xFFFFFFFFFFFFFFFFFFFFFFFFFFFFFFFFFFFFFFFFFFFFFFFF DUP4 DUP4 KECCAK256 SWAP2 AND DUP3 MSTORE DUP5 MSTORE KECCAK256 SLOAD SWAP1 MLOAD SWAP1 DUP2 MSTORE RETURN JUMPDEST POP CALLVALUE PUSH2 0xBE JUMPI PUSH1 0x20 PUSH32 0xFFFFFFFFFFFFFFFFFFFFFFFFFFFFFFFFFFFFFFFFFFFFFFFFFFFFFFFFFFFFFFFC CALLDATASIZE ADD SLT PUSH2 0xBE JUMPI PUSH1 0x4 CALLDATALOAD PUSH24 0xFFFFFFFFFFFFFFFFFFFFFFFFFFFFFFFFFFFFFFFFFFFFFFFF DUP2 AND DUP1 SWAP2 SUB PUSH2 0x1E1 JUMPI CALLER DUP4 MSTORE DUP3 PUSH1 0x20 MSTORE DUP2 DUP4 KECCAK256 SWAP1 DUP4 MSTORE PUSH1 0x20 MSTORE DUP2 KECCAK256 DUP1 SLOAD PUSH32 0xFFFFFFFFFFFFFFFFFFFFFFFFFFFFFFFFFFFFFFFFFFFFFFFFFFFFFFFFFFFFFFFF DUP2 EQ PUSH2 0x1B4 JUMPI PUSH1 0x1 ADD SWAP1 SSTORE DUP1 RETURN JUMPDEST PUSH1 0x24 DUP4 PUSH32 0x4E487B7100000000000000000000000000000000000000000000000000000000 DUP2 MSTORE PUSH1 0x11 PUSH1 0x4 MSTORE REVERT JUMPDEST DUP3 DUP1 REVERT JUMPDEST PUSH32 0xFFFFFFFFFFFFFFFFFFFFFFFFFFFFFFFFFFFFFFFFFFFFFFFFFFFFFFFFFFFFFFFC PUSH1 0x40 SWAP2 ADD SLT PUSH2 0x257 JUMPI PUSH1 0x4 CALLDATALOAD PUSH20 0xFFFFFFFFFFFFFFFFFFFFFFFFFFFFFFFFFFFFFFFF DUP2 AND DUP2 SUB PUSH2 0x257 JUMPI SWAP1 PUSH1 0x24 CALLDATALOAD PUSH24 0xFFFFFFFFFFFFFFFFFFFFFFFFFFFFFFFFFFFFFFFFFFFFFFFF DUP2 AND DUP2 SUB PUSH2 0x257 JUMPI SWAP1 JUMP JUMPDEST PUSH1 0x0 DUP1 REVERT INVALID LOG2 PUSH5 0x6970667358 0x22 SLT KECCAK256 DUP6 BALANCE 0xEC 0x2C EQ LOG0 0xC3 0xBA GASLIMIT DIV 0x4A PC SLT 0xD7 PUSH32 0xF0BBD10126E92FE479DB814384086DFFEA64736F6C6343000811003300000000 "},"methodIdentifiers":{"getNonce(address,uint192)":"35567e1a","incrementNonce(uint192)":"0bd28e3b","nonceSequenceNumber(address,uint192)":"1b2e01b8"}}}}}