{"contracts/bundler/EntryPointWrapper.sol":{"EntryPointWrapper":{"abi":[{"inputs":[{"internalType":"contract IEntryPoint","name":"_entryPoint","type":"address"}],"stateMutability":"nonpayable","type":"constructor"},{"inputs":[{"internalType":"uint256","name":"opIndex","type":"uint256"},{"internalType":"string","name":"reason","type":"string"}],"name":"FailedOp","type":"error"},{"inputs":[{"internalType":"address","name":"sender","type":"address"}],"name":"SenderAddressResult","type":"error"},{"inputs":[{"components":[{"internalType":"uint256","name":"preOpGas","type":"uint256"},{"internalType":"uint256","name":"prefund","type":"uint256"},{"internalType":"bool","name":"sigFailed","type":"bool"},{"internalType":"uint48","name":"validAfter","type":"uint48"},{"internalType":"uint48","name":"validUntil","type":"uint48"},{"internalType":"bytes","name":"paymasterContext","type":"bytes"}],"internalType":"struct EntryPointWrapper.ReturnInfo","name":"returnInfo","type":"tuple"},{"components":[{"internalType":"uint256","name":"stake","type":"uint256"},{"internalType":"uint256","name":"unstakeDelaySec","type":"uint256"}],"internalType":"struct EntryPointWrapper.StakeInfo","name":"senderInfo","type":"tuple"},{"components":[{"internalType":"uint256","name":"stake","type":"uint256"},{"internalType":"uint256","name":"unstakeDelaySec","type":"uint256"}],"internalType":"struct EntryPointWrapper.StakeInfo","name":"factoryInfo","type":"tuple"},{"components":[{"internalType":"uint256","name":"stake","type":"uint256"},{"internalType":"uint256","name":"unstakeDelaySec","type":"uint256"}],"internalType":"struct EntryPointWrapper.StakeInfo","name":"paymasterInfo","type":"tuple"}],"name":"ValidationResult","type":"error"},{"inputs":[{"components":[{"internalType":"uint256","name":"preOpGas","type":"uint256"},{"internalType":"uint256","name":"prefund","type":"uint256"},{"internalType":"bool","name":"sigFailed","type":"bool"},{"internalType":"uint48","name":"validAfter","type":"uint48"},{"internalType":"uint48","name":"validUntil","type":"uint48"},{"internalType":"bytes","name":"paymasterContext","type":"bytes"}],"internalType":"struct EntryPointWrapper.ReturnInfo","name":"returnInfo","type":"tuple"},{"components":[{"internalType":"uint256","name":"stake","type":"uint256"},{"internalType":"uint256","name":"unstakeDelaySec","type":"uint256"}],"internalType":"struct EntryPointWrapper.StakeInfo","name":"senderInfo","type":"tuple"},{"components":[{"internalType":"uint256","name":"stake","type":"uint256"},{"internalType":"uint256","name":"unstakeDelaySec","type":"uint256"}],"internalType":"struct EntryPointWrapper.StakeInfo","name":"factoryInfo","type":"tuple"},{"components":[{"internalType":"uint256","name":"stake","type":"uint256"},{"internalType":"uint256","name":"unstakeDelaySec","type":"uint256"}],"internalType":"struct EntryPointWrapper.StakeInfo","name":"paymasterInfo","type":"tuple"},{"components":[{"internalType":"address","name":"aggregator","type":"address"},{"components":[{"internalType":"uint256","name":"stake","type":"uint256"},{"internalType":"uint256","name":"unstakeDelaySec","type":"uint256"}],"internalType":"struct EntryPointWrapper.StakeInfo","name":"stakeInfo","type":"tuple"}],"internalType":"struct EntryPointWrapper.AggregatorStakeInfo","name":"aggregatorInfo","type":"tuple"}],"name":"ValidationResultWithAggregation","type":"error"},{"inputs":[],"name":"entryPoint","outputs":[{"internalType":"contract IEntryPoint","name":"","type":"address"}],"stateMutability":"view","type":"function"},{"inputs":[{"internalType":"address[]","name":"addresses","type":"address[]"}],"name":"getCodeHashes","outputs":[{"internalType":"bytes32","name":"","type":"bytes32"}],"stateMutability":"view","type":"function"},{"inputs":[{"internalType":"bytes","name":"initCode","type":"bytes"}],"name":"getSenderAddress","outputs":[{"internalType":"address","name":"","type":"address"}],"stateMutability":"nonpayable","type":"function"},{"inputs":[{"internalType":"contract IEntryPoint","name":"entryPoint","type":"address"},{"components":[{"internalType":"address","name":"sender","type":"address"},{"internalType":"uint256","name":"nonce","type":"uint256"},{"internalType":"bytes","name":"initCode","type":"bytes"},{"internalType":"bytes","name":"callData","type":"bytes"},{"internalType":"uint256","name":"callGasLimit","type":"uint256"},{"internalType":"uint256","name":"verificationGasLimit","type":"uint256"},{"internalType":"uint256","name":"preVerificationGas","type":"uint256"},{"internalType":"uint256","name":"maxFeePerGas","type":"uint256"},{"internalType":"uint256","name":"maxPriorityFeePerGas","type":"uint256"},{"internalType":"bytes","name":"paymasterAndData","type":"bytes"},{"internalType":"bytes","name":"signature","type":"bytes"}],"internalType":"struct UserOperation[]","name":"userOps","type":"tuple[]"}],"name":"getUserOpHashes","outputs":[{"internalType":"bytes32[]","name":"ret","type":"bytes32[]"}],"stateMutability":"view","type":"function"},{"inputs":[{"components":[{"internalType":"address","name":"sender","type":"address"},{"internalType":"uint256","name":"nonce","type":"uint256"},{"internalType":"bytes","name":"initCode","type":"bytes"},{"internalType":"bytes","name":"callData","type":"bytes"},{"internalType":"uint256","name":"callGasLimit","type":"uint256"},{"internalType":"uint256","name":"verificationGasLimit","type":"uint256"},{"internalType":"uint256","name":"preVerificationGas","type":"uint256"},{"internalType":"uint256","name":"maxFeePerGas","type":"uint256"},{"internalType":"uint256","name":"maxPriorityFeePerGas","type":"uint256"},{"internalType":"bytes","name":"paymasterAndData","type":"bytes"},{"internalType":"bytes","name":"signature","type":"bytes"}],"internalType":"struct UserOperation","name":"userOp","type":"tuple"}],"name":"simulateValidation","outputs":[{"components":[{"internalType":"bool","name":"status","type":"bool"},{"internalType":"uint256","name":"opIndex","type":"uint256"},{"internalType":"string","name":"reason","type":"string"}],"internalType":"struct EntryPointWrapper.FailedOpStatus","name":"","type":"tuple"},{"components":[{"internalType":"string","name":"selectorType","type":"string"},{"components":[{"internalType":"uint256","name":"preOpGas","type":"uint256"},{"internalType":"uint256","name":"prefund","type":"uint256"},{"internalType":"bool","name":"sigFailed","type":"bool"},{"internalType":"uint48","name":"validAfter","type":"uint48"},{"internalType":"uint48","name":"validUntil","type":"uint48"},{"internalType":"bytes","name":"paymasterContext","type":"bytes"}],"internalType":"struct EntryPointWrapper.ReturnInfo","name":"returnInfo","type":"tuple"},{"components":[{"internalType":"uint256","name":"stake","type":"uint256"},{"internalType":"uint256","name":"unstakeDelaySec","type":"uint256"}],"internalType":"struct EntryPointWrapper.StakeInfo","name":"senderInfo","type":"tuple"},{"components":[{"internalType":"uint256","name":"stake","type":"uint256"},{"internalType":"uint256","name":"unstakeDelaySec","type":"uint256"}],"internalType":"struct EntryPointWrapper.StakeInfo","name":"factoryInfo","type":"tuple"},{"components":[{"internalType":"uint256","name":"stake","type":"uint256"},{"internalType":"uint256","name":"unstakeDelaySec","type":"uint256"}],"internalType":"struct EntryPointWrapper.StakeInfo","name":"paymasterInfo","type":"tuple"},{"components":[{"internalType":"address","name":"aggregator","type":"address"},{"components":[{"internalType":"uint256","name":"stake","type":"uint256"},{"internalType":"uint256","name":"unstakeDelaySec","type":"uint256"}],"internalType":"struct EntryPointWrapper.StakeInfo","name":"stakeInfo","type":"tuple"}],"internalType":"struct EntryPointWrapper.AggregatorStakeInfo","name":"aggregatorInfo","type":"tuple"}],"internalType":"struct EntryPointWrapper.Response","name":"","type":"tuple"}],"stateMutability":"nonpayable","type":"function"}],"devdoc":{"errors":{"FailedOp(uint256,string)":[{"params":{"opIndex":"- index into the array of ops to the failed one (in simulateValidation, this is always zero)","reason":"- revert reason      The string starts with a unique code \"AAmn\", where \"m\" is \"1\" for factory, \"2\" for account and \"3\" for paymaster issues,      so a failure can be attributed to the correct entity.   Should be caught in off-chain handleOps simulation and not happen on-chain.   Useful for mitigating DoS attempts against batchers or for troubleshooting of factory/account/paymaster reverts."}}],"ValidationResult((uint256,uint256,bool,uint48,uint48,bytes),(uint256,uint256),(uint256,uint256),(uint256,uint256))":[{"params":{"factoryInfo":"stake information about the factory (if any)","paymasterInfo":"stake information about the paymaster (if any)","returnInfo":"gas and time-range returned values","senderInfo":"stake information about the sender"}}],"ValidationResultWithAggregation((uint256,uint256,bool,uint48,uint48,bytes),(uint256,uint256),(uint256,uint256),(uint256,uint256),(address,(uint256,uint256)))":[{"params":{"aggregatorInfo":"signature aggregation info (if the account requires signature aggregator)      bundler MUST use it to verify the signature, or reject the UserOperation","factoryInfo":"stake information about the factory (if any)","paymasterInfo":"stake information about the paymaster (if any)","returnInfo":"gas and time-range returned values","senderInfo":"stake information about the sender"}}]},"kind":"dev","methods":{},"version":1},"evm":{"bytecode":{"linkReferences":{},"object":"6000608081905260a08190526001819055600281905560c081905261010081815261012082905260e052600380546001600160a01b0319169055600481905560058190556101408181526101608290526101808290526101a08290526101c08290526102008281526102206040526101e08190526006838155600793909355600880546001600160681b0319169055909190600990620000a09082620004a5565b50506040805160e081018252600060c08083019182529082528251908101835260068054825260075460208381019190915260085460ff811615159584019590955265ffffffffffff610100860481166060850152670100000000000000909504909416608083015260098054939550938501939192909160a0840191620001289062000416565b80601f0160208091040260200160405190810160405280929190818152602001828054620001569062000416565b8015620001a75780601f106200017b57610100808354040283529160200191620001a7565b820191906000526020600020905b8154815290600101906020018083116200018957829003601f168201915b505050919092525050508152604080518082018252600154808252600254602083810182905280860193909352835180850185528281528084018290528486015283518085018552918252818301526060840152815180830183526003546001600160a01b031681528251808401909352600454835260055483830152908101919091526080909101528051600a908190620002449082620004a5565b5060208281015180516001840190815591810151600284015560408101516003840180546060840151608085015166ffffffffffffff1990921693151566ffffffffffff0019169390931761010065ffffffffffff948516021765ffffffffffff60381b1916670100000000000000939091169290920291909117905560a08101519091906004840190620002da9082620004a5565b505050604082810151805160058401556020908101516006840155606080850151805160078601558201516008850155608085015180516009860155820151600a85015560a0909401518051600b850180546001600160a01b0319166001600160a01b039092169190911790558101518051600c850155810151600d909301929092558051928301815260008084528383018181528251938401835290835290830182905282516018805460ff1916911515919091178155905160195590601a90620003a79082620004a5565b505050348015620003b757600080fd5b506040516200223438038062002234833981016040819052620003da9162000571565b600080546001600160a01b0319166001600160a01b0392909216919091179055620005a3565b634e487b7160e01b600052604160045260246000fd5b600181811c908216806200042b57607f821691505b6020821081036200044c57634e487b7160e01b600052602260045260246000fd5b50919050565b601f821115620004a057600081815260208120601f850160051c810160208610156200047b5750805b601f850160051c820191505b818110156200049c5782815560010162000487565b5050505b505050565b81516001600160401b03811115620004c157620004c162000400565b620004d981620004d2845462000416565b8462000452565b602080601f831160018114620005115760008415620004f85750858301515b600019600386901b1c1916600185901b1785556200049c565b600085815260208120601f198616915b82811015620005425788860151825594840194600190910190840162000521565b5085821015620005615787850151600019600388901b60f8161c191681555b5050505050600190811b01905550565b6000602082840312156200058457600080fd5b81516001600160a01b03811681146200059c57600080fd5b9392505050565b611c8180620005b36000396000f3fe608060405234801561001057600080fd5b50600436106100675760003560e01c80639b249f69116100505780639b249f69146100b6578063b0d691fe146100ee578063ee2194231461010e57600080fd5b80633024e00c1461006c5780637b34b62114610095575b600080fd5b61007f61007a36600461103a565b61012f565b60405161008c91906111f9565b60405180910390f35b6100a86100a336600461123d565b61024d565b60405190815260200161008c565b6100c96100c43660046112d7565b610336565b60405173ffffffffffffffffffffffffffffffffffffffff909116815260200161008c565b6000546100c99073ffffffffffffffffffffffffffffffffffffffff1681565b61012161011c366004611349565b6104e3565b60405161008c9291906113e1565b6060815167ffffffffffffffff81111561014b5761014b610eb8565b604051908082528060200260200182016040528015610174578160200160208202803683370190505b50905060005b8251811015610245578373ffffffffffffffffffffffffffffffffffffffff1663a61935318483815181106101b1576101b161152b565b60200260200101516040518263ffffffff1660e01b81526004016101d5919061155a565b602060405180830381865afa1580156101f2573d6000803e3d6000fd5b505050506040513d601f19601f820116820180604052508101906102169190611648565b8282815181106102285761022861152b565b60209081029190910101528061023d81611690565b91505061017a565b505b92915050565b600080825167ffffffffffffffff81111561026a5761026a610eb8565b604051908082528060200260200182016040528015610293578160200160208202803683370190505b50905060005b8351811015610302578381815181106102b4576102b461152b565b602002602001015173ffffffffffffffffffffffffffffffffffffffff163f8282815181106102e5576102e561152b565b6020908102919091010152806102fa81611690565b915050610299565b5060008160405160200161031691906111f9565b60408051601f198184030181529190528051602090910120949350505050565b600080546040517f9b249f6900000000000000000000000000000000000000000000000000000000815273ffffffffffffffffffffffffffffffffffffffff90911690639b249f699061038f90869086906004016116f3565b600060405180830381600087803b1580156103a957600080fd5b505af19250505080156103ba575060015b610247573d8080156103e8576040519150601f19603f3d011682016040523d82523d6000602084013e6103ed565b606091505b5060006103f98261170f565b90507f935847fa000000000000000000000000000000000000000000000000000000007fffffffff0000000000000000000000000000000000000000000000000000000082160161047c57600061045e836004808651610459919061175f565b610c39565b8060200190518101906104719190611776565b935061024792505050565b6040517f08c379a000000000000000000000000000000000000000000000000000000000815260206004820152601060248201527f496e76616c696420696e6974436f64650000000000000000000000000000000060448201526064015b60405180910390fd5b60408051606080820183526000808352602083015291810191909152610507610d97565b6000546040517fee21942300000000000000000000000000000000000000000000000000000000815273ffffffffffffffffffffffffffffffffffffffff9091169063ee2194239061055d9086906004016117fe565b600060405180830381600087803b15801561057757600080fd5b505af1925050508015610588575060015b610c34573d8080156105b6576040519150601f19603f3d011682016040523d82523d6000602084013e6105bb565b606091505b5060006105c78261170f565b90507f1f300fa1000000000000000000000000000000000000000000000000000000007fffffffff000000000000000000000000000000000000000000000000000000008216016107a75760008060008061062b866004808951610459919061175f565b80602001905181019061063e9190611a3c565b6040805161010081018252601060c082019081527f56616c69646174696f6e526573756c740000000000000000000000000000000060e0830152815260208082018790528183018690526060808301869052608083018590528351808501855260035473ffffffffffffffffffffffffffffffffffffffff168152845180860186526004548152600554818501528184015260a0840152835190810184526018805460ff161515825260195492820192909252601a8054989c50969a509498509296509194919385929184019161071490611aae565b80601f016020809104026020016040519081016040528092919081815260200182805461074090611aae565b801561078d5780601f106107625761010080835404028352916020019161078d565b820191906000526020600020905b81548152906001019060200180831161077057829003601f168201915b505050505081525050915097509750505050505050915091565b7f05134b1c000000000000000000000000000000000000000000000000000000007fffffffff0000000000000000000000000000000000000000000000000000000082160161095357600080600080600061080b876004808a51610459919061175f565b80602001905181019061081e9190611b01565b6040805161010081018252601f60c082019081527f56616c69646174696f6e526573756c74576974684167677265676174696f6e0060e08301528152602080820188905281830187905260608083018790526080830186905260a08301859052835190810184526018805460ff161515825260195492820192909252601a8054999e50979c50959a509398509196509194909385928401916108bf90611aae565b80601f01602080910402602001604051908101604052809291908181526020018280546108eb90611aae565b80156109385780601f1061090d57610100808354040283529160200191610938565b820191906000526020600020905b81548152906001019060200180831161091b57829003601f168201915b50505050508152505091509850985050505050505050915091565b7fddfd994a000000000000000000000000000000000000000000000000000000007fffffffff00000000000000000000000000000000000000000000000000000000821601610c31576000806109b2846004808751610459919061175f565b8060200190518101906109c59190611bd8565b91509150604051806060016040528060011515815260200183815260200182815250600a806040518060c0016040529081600082018054610a0590611aae565b80601f0160208091040260200160405190810160405280929190818152602001828054610a3190611aae565b8015610a7e5780601f10610a5357610100808354040283529160200191610a7e565b820191906000526020600020905b815481529060010190602001808311610a6157829003601f168201915b50505091835250506040805160c08101825260018401805482526002850154602083810191909152600386015460ff811615159484019490945265ffffffffffff610100850481166060850152670100000000000000909404909316608083015260048501805493909401939192909160a0840191610afc90611aae565b80601f0160208091040260200160405190810160405280929190818152602001828054610b2890611aae565b8015610b755780601f10610b4a57610100808354040283529160200191610b75565b820191906000526020600020905b815481529060010190602001808311610b5857829003601f168201915b505050919092525050508152604080518082018252600584015481526006840154602082810191909152808401919091528151808301835260078501548152600885015481830152828401528151808301835260098501548152600a85015481830152606084015281518083018352600b85015473ffffffffffffffffffffffffffffffffffffffff1681528251808401909352600c8501548352600d9094015482820152830152608001529199919850909650505050505050565b50505b915091565b606081610c4781601f611c33565b1015610caf576040517f08c379a000000000000000000000000000000000000000000000000000000000815260206004820152600e60248201527f736c6963655f6f766572666c6f7700000000000000000000000000000000000060448201526064016104da565b610cb98284611c33565b84511015610d23576040517f08c379a000000000000000000000000000000000000000000000000000000000815260206004820152601160248201527f736c6963655f6f75744f66426f756e647300000000000000000000000000000060448201526064016104da565b606082158015610d425760405191506000825260208201604052610d8c565b6040519150601f8416801560200281840101858101878315602002848b0101015b81831015610d7b578051835260209283019201610d63565b5050858452601f01601f1916604052505b5090505b9392505050565b6040805160c0808201835260608083528351918201845260008083526020838101829052948301819052828201819052608083015260a082015290918201908152602001610df8604051806040016040528060008152602001600081525090565b8152602001610e1a604051806040016040528060008152602001600081525090565b8152602001610e3c604051806040016040528060008152602001600081525090565b8152602001610e49610e4e565b905290565b6040518060400160405280600073ffffffffffffffffffffffffffffffffffffffff168152602001610e49604051806040016040528060008152602001600081525090565b73ffffffffffffffffffffffffffffffffffffffff81168114610eb557600080fd5b50565b7f4e487b7100000000000000000000000000000000000000000000000000000000600052604160045260246000fd5b604051610160810167ffffffffffffffff81118282101715610f0b57610f0b610eb8565b60405290565b60405160c0810167ffffffffffffffff81118282101715610f0b57610f0b610eb8565b6040805190810167ffffffffffffffff81118282101715610f0b57610f0b610eb8565b604051601f8201601f1916810167ffffffffffffffff81118282101715610f8057610f80610eb8565b604052919050565b600067ffffffffffffffff821115610fa257610fa2610eb8565b5060051b60200190565b8035610fb781610e93565b919050565b600067ffffffffffffffff821115610fd657610fd6610eb8565b50601f01601f191660200190565b600082601f830112610ff557600080fd5b813561100861100382610fbc565b610f57565b81815284602083860101111561101d57600080fd5b816020850160208301376000918101602001919091529392505050565b6000806040838503121561104d57600080fd5b823561105881610e93565b915060208381013567ffffffffffffffff8082111561107657600080fd5b818601915086601f83011261108a57600080fd5b813561109861100382610f88565b81815260059190911b830184019084810190898311156110b757600080fd5b8585015b838110156111e8578035858111156110d257600080fd5b8601610160818d03601f190112156110e957600080fd5b6110f1610ee7565b6110fc898301610fac565b815260408201358982015260608201358781111561111957600080fd5b6111278e8b83860101610fe4565b60408301525060808201358781111561113f57600080fd5b61114d8e8b83860101610fe4565b60608301525060a0820135608082015260c082013560a082015260e082013560c082015261010082013560e0820152610120820135610100820152610140808301358881111561119c57600080fd5b6111aa8f8c83870101610fe4565b61012084015250610160830135888111156111c457600080fd5b6111d28f8c83870101610fe4565b91830191909152508452509186019186016110bb565b508096505050505050509250929050565b6020808252825182820181905260009190848201906040850190845b8181101561123157835183529284019291840191600101611215565b50909695505050505050565b6000602080838503121561125057600080fd5b823567ffffffffffffffff81111561126757600080fd5b8301601f8101851361127857600080fd5b803561128661100382610f88565b81815260059190911b820183019083810190878311156112a557600080fd5b928401925b828410156112cc5783356112bd81610e93565b825292840192908401906112aa565b979650505050505050565b600080602083850312156112ea57600080fd5b823567ffffffffffffffff8082111561130257600080fd5b818501915085601f83011261131657600080fd5b81358181111561132557600080fd5b86602082850101111561133757600080fd5b60209290920196919550909350505050565b60006020828403121561135b57600080fd5b813567ffffffffffffffff81111561137257600080fd5b82016101608185031215610d9057600080fd5b60005b838110156113a0578181015183820152602001611388565b838111156113af576000848401525b50505050565b600081518084526113cd816020860160208601611385565b601f01601f19169290920160200192915050565b6000604080835284511515818401526020808601516060850152818601516060608086015261141360a08601826113b5565b9050848103828601526101608651818352611430828401826113b5565b9150508287015182820384840152805182528381015184830152848101511515858301526060810151935065ffffffffffff80851660608401528060808301511660808401525060a081015193505060c060a082015261149360c08201846113b5565b925050828601516114b08483018280518252602090810151910152565b50606086015180516080830152602081015160a083015292506080860151805160c0830152602081015160e0830152925060a08601519250611521610100820184805173ffffffffffffffffffffffffffffffffffffffff1682526020908101518051828401520151604090910152565b5095945050505050565b7f4e487b7100000000000000000000000000000000000000000000000000000000600052603260045260246000fd5b6020815261158160208201835173ffffffffffffffffffffffffffffffffffffffff169052565b60208201516040820152600060408301516101608060608501526115a96101808501836113b5565b91506060850151601f19808685030160808701526115c784836113b5565b9350608087015160a087015260a087015160c087015260c087015160e087015260e0870151915061010082818801528088015192505061012082818801528088015192505061014081878603018188015261162285846113b5565b90880151878203909201848801529350905061163e83826113b5565b9695505050505050565b60006020828403121561165a57600080fd5b5051919050565b7f4e487b7100000000000000000000000000000000000000000000000000000000600052601160045260246000fd5b60007fffffffffffffffffffffffffffffffffffffffffffffffffffffffffffffffff82036116c1576116c1611661565b5060010190565b818352818160208501375060006020828401015260006020601f19601f840116840101905092915050565b6020815260006117076020830184866116c8565b949350505050565b6000815160208301517fffffffff00000000000000000000000000000000000000000000000000000000808216935060048310156117575780818460040360031b1b83161693505b505050919050565b60008282101561177157611771611661565b500390565b60006020828403121561178857600080fd5b8151610d9081610e93565b60008083357fffffffffffffffffffffffffffffffffffffffffffffffffffffffffffffffe18436030181126117c857600080fd5b830160208101925035905067ffffffffffffffff8111156117e857600080fd5b8036038213156117f757600080fd5b9250929050565b6020815261182c6020820161181284610fac565b73ffffffffffffffffffffffffffffffffffffffff169052565b6020820135604082015260006118456040840184611793565b61016080606086015261185d610180860183856116c8565b925061186c6060870187611793565b9250601f19808786030160808801526118868585846116c8565b9450608088013560a088015260a088013560c088015260c088013560e0880152610100935060e088013584880152610120915083880135828801526118cd82890189611793565b945091506101408188870301818901526118e88686856116c8565b95506118f6818a018a611793565b9550925050808786030183880152506112cc8484836116c8565b805165ffffffffffff81168114610fb757600080fd5b600061193461100384610fbc565b905082815283838301111561194857600080fd5b610d90836020830184611385565b600082601f83011261196757600080fd5b610d9083835160208501611926565b600060c0828403121561198857600080fd5b611990610f11565b90508151815260208201516020820152604082015180151581146119b357600080fd5b60408201526119c460608301611910565b60608201526119d560808301611910565b608082015260a082015167ffffffffffffffff8111156119f457600080fd5b611a0084828501611956565b60a08301525092915050565b600060408284031215611a1e57600080fd5b611a26610f34565b9050815181526020820151602082015292915050565b60008060008060e08587031215611a5257600080fd5b845167ffffffffffffffff811115611a6957600080fd5b611a7587828801611976565b945050611a858660208701611a0c565b9250611a948660608701611a0c565b9150611aa38660a08701611a0c565b905092959194509250565b600181811c90821680611ac257607f821691505b602082108103611afb577f4e487b7100000000000000000000000000000000000000000000000000000000600052602260045260246000fd5b50919050565b6000806000806000858703610140811215611b1b57600080fd5b865167ffffffffffffffff811115611b3257600080fd5b611b3e89828a01611976565b965050611b4e8860208901611a0c565b9450611b5d8860608901611a0c565b9350611b6c8860a08901611a0c565b925060607fffffffffffffffffffffffffffffffffffffffffffffffffffffffffffffff2082011215611b9e57600080fd5b50611ba7610f34565b60e0870151611bb581610e93565b8152611bc5886101008901611a0c565b6020820152809150509295509295909350565b60008060408385031215611beb57600080fd5b82519150602083015167ffffffffffffffff811115611c0957600080fd5b8301601f81018513611c1a57600080fd5b611c2985825160208401611926565b9150509250929050565b60008219821115611c4657611c46611661565b50019056fea26469706673582212209a1c7252e82e84056f2a73f6c8f87a6651303771a673fe8cebe2dbe5467b390664736f6c634300080f0033","opcodes":"PUSH1 0x0 PUSH1 0x80 DUP2 SWAP1 MSTORE PUSH1 0xA0 DUP2 SWAP1 MSTORE PUSH1 0x1 DUP2 SWAP1 SSTORE PUSH1 0x2 DUP2 SWAP1 SSTORE PUSH1 0xC0 DUP2 SWAP1 MSTORE PUSH2 0x100 DUP2 DUP2 MSTORE PUSH2 0x120 DUP3 SWAP1 MSTORE PUSH1 0xE0 MSTORE PUSH1 0x3 DUP1 SLOAD PUSH1 0x1 PUSH1 0x1 PUSH1 0xA0 SHL SUB NOT AND SWAP1 SSTORE PUSH1 0x4 DUP2 SWAP1 SSTORE PUSH1 0x5 DUP2 SWAP1 SSTORE PUSH2 0x140 DUP2 DUP2 MSTORE PUSH2 0x160 DUP3 SWAP1 MSTORE PUSH2 0x180 DUP3 SWAP1 MSTORE PUSH2 0x1A0 DUP3 SWAP1 MSTORE PUSH2 0x1C0 DUP3 SWAP1 MSTORE PUSH2 0x200 DUP3 DUP2 MSTORE PUSH2 0x220 PUSH1 0x40 MSTORE PUSH2 0x1E0 DUP2 SWAP1 MSTORE PUSH1 0x6 DUP4 DUP2 SSTORE PUSH1 0x7 SWAP4 SWAP1 SWAP4 SSTORE PUSH1 0x8 DUP1 SLOAD PUSH1 0x1 PUSH1 0x1 PUSH1 0x68 SHL SUB NOT AND SWAP1 SSTORE SWAP1 SWAP2 SWAP1 PUSH1 0x9 SWAP1 PUSH3 0xA0 SWAP1 DUP3 PUSH3 0x4A5 JUMP JUMPDEST POP POP PUSH1 0x40 DUP1 MLOAD PUSH1 0xE0 DUP2 ADD DUP3 MSTORE PUSH1 0x0 PUSH1 0xC0 DUP1 DUP4 ADD SWAP2 DUP3 MSTORE SWAP1 DUP3 MSTORE DUP3 MLOAD SWAP1 DUP2 ADD DUP4 MSTORE PUSH1 0x6 DUP1 SLOAD DUP3 MSTORE PUSH1 0x7 SLOAD PUSH1 0x20 DUP4 DUP2 ADD SWAP2 SWAP1 SWAP2 MSTORE PUSH1 0x8 SLOAD PUSH1 0xFF DUP2 AND ISZERO ISZERO SWAP6 DUP5 ADD SWAP6 SWAP1 SWAP6 MSTORE PUSH6 0xFFFFFFFFFFFF PUSH2 0x100 DUP7 DIV DUP2 AND PUSH1 0x60 DUP6 ADD MSTORE PUSH8 0x100000000000000 SWAP1 SWAP6 DIV SWAP1 SWAP5 AND PUSH1 0x80 DUP4 ADD MSTORE PUSH1 0x9 DUP1 SLOAD SWAP4 SWAP6 POP SWAP4 DUP6 ADD SWAP4 SWAP2 SWAP3 SWAP1 SWAP2 PUSH1 0xA0 DUP5 ADD SWAP2 PUSH3 0x128 SWAP1 PUSH3 0x416 JUMP JUMPDEST DUP1 PUSH1 0x1F ADD PUSH1 0x20 DUP1 SWAP2 DIV MUL PUSH1 0x20 ADD PUSH1 0x40 MLOAD SWAP1 DUP2 ADD PUSH1 0x40 MSTORE DUP1 SWAP3 SWAP2 SWAP1 DUP2 DUP2 MSTORE PUSH1 0x20 ADD DUP3 DUP1 SLOAD PUSH3 0x156 SWAP1 PUSH3 0x416 JUMP JUMPDEST DUP1 ISZERO PUSH3 0x1A7 JUMPI DUP1 PUSH1 0x1F LT PUSH3 0x17B JUMPI PUSH2 0x100 DUP1 DUP4 SLOAD DIV MUL DUP4 MSTORE SWAP2 PUSH1 0x20 ADD SWAP2 PUSH3 0x1A7 JUMP JUMPDEST DUP3 ADD SWAP2 SWAP1 PUSH1 0x0 MSTORE PUSH1 0x20 PUSH1 0x0 KECCAK256 SWAP1 JUMPDEST DUP2 SLOAD DUP2 MSTORE SWAP1 PUSH1 0x1 ADD SWAP1 PUSH1 0x20 ADD DUP1 DUP4 GT PUSH3 0x189 JUMPI DUP3 SWAP1 SUB PUSH1 0x1F AND DUP3 ADD SWAP2 JUMPDEST POP POP POP SWAP2 SWAP1 SWAP3 MSTORE POP POP POP DUP2 MSTORE PUSH1 0x40 DUP1 MLOAD DUP1 DUP3 ADD DUP3 MSTORE PUSH1 0x1 SLOAD DUP1 DUP3 MSTORE PUSH1 0x2 SLOAD PUSH1 0x20 DUP4 DUP2 ADD DUP3 SWAP1 MSTORE DUP1 DUP7 ADD SWAP4 SWAP1 SWAP4 MSTORE DUP4 MLOAD DUP1 DUP6 ADD DUP6 MSTORE DUP3 DUP2 MSTORE DUP1 DUP5 ADD DUP3 SWAP1 MSTORE DUP5 DUP7 ADD MSTORE DUP4 MLOAD DUP1 DUP6 ADD DUP6 MSTORE SWAP2 DUP3 MSTORE DUP2 DUP4 ADD MSTORE PUSH1 0x60 DUP5 ADD MSTORE DUP2 MLOAD DUP1 DUP4 ADD DUP4 MSTORE PUSH1 0x3 SLOAD PUSH1 0x1 PUSH1 0x1 PUSH1 0xA0 SHL SUB AND DUP2 MSTORE DUP3 MLOAD DUP1 DUP5 ADD SWAP1 SWAP4 MSTORE PUSH1 0x4 SLOAD DUP4 MSTORE PUSH1 0x5 SLOAD DUP4 DUP4 ADD MSTORE SWAP1 DUP2 ADD SWAP2 SWAP1 SWAP2 MSTORE PUSH1 0x80 SWAP1 SWAP2 ADD MSTORE DUP1 MLOAD PUSH1 0xA SWAP1 DUP2 SWAP1 PUSH3 0x244 SWAP1 DUP3 PUSH3 0x4A5 JUMP JUMPDEST POP PUSH1 0x20 DUP3 DUP2 ADD MLOAD DUP1 MLOAD PUSH1 0x1 DUP5 ADD SWAP1 DUP2 SSTORE SWAP2 DUP2 ADD MLOAD PUSH1 0x2 DUP5 ADD SSTORE PUSH1 0x40 DUP2 ADD MLOAD PUSH1 0x3 DUP5 ADD DUP1 SLOAD PUSH1 0x60 DUP5 ADD MLOAD PUSH1 0x80 DUP6 ADD MLOAD PUSH7 0xFFFFFFFFFFFFFF NOT SWAP1 SWAP3 AND SWAP4 ISZERO ISZERO PUSH7 0xFFFFFFFFFFFF00 NOT AND SWAP4 SWAP1 SWAP4 OR PUSH2 0x100 PUSH6 0xFFFFFFFFFFFF SWAP5 DUP6 AND MUL OR PUSH6 0xFFFFFFFFFFFF PUSH1 0x38 SHL NOT AND PUSH8 0x100000000000000 SWAP4 SWAP1 SWAP2 AND SWAP3 SWAP1 SWAP3 MUL SWAP2 SWAP1 SWAP2 OR SWAP1 SSTORE PUSH1 0xA0 DUP2 ADD MLOAD SWAP1 SWAP2 SWAP1 PUSH1 0x4 DUP5 ADD SWAP1 PUSH3 0x2DA SWAP1 DUP3 PUSH3 0x4A5 JUMP JUMPDEST POP POP POP PUSH1 0x40 DUP3 DUP2 ADD MLOAD DUP1 MLOAD PUSH1 0x5 DUP5 ADD SSTORE PUSH1 0x20 SWAP1 DUP2 ADD MLOAD PUSH1 0x6 DUP5 ADD SSTORE PUSH1 0x60 DUP1 DUP6 ADD MLOAD DUP1 MLOAD PUSH1 0x7 DUP7 ADD SSTORE DUP3 ADD MLOAD PUSH1 0x8 DUP6 ADD SSTORE PUSH1 0x80 DUP6 ADD MLOAD DUP1 MLOAD PUSH1 0x9 DUP7 ADD SSTORE DUP3 ADD MLOAD PUSH1 0xA DUP6 ADD SSTORE PUSH1 0xA0 SWAP1 SWAP5 ADD MLOAD DUP1 MLOAD PUSH1 0xB DUP6 ADD DUP1 SLOAD PUSH1 0x1 PUSH1 0x1 PUSH1 0xA0 SHL SUB NOT AND PUSH1 0x1 PUSH1 0x1 PUSH1 0xA0 SHL SUB SWAP1 SWAP3 AND SWAP2 SWAP1 SWAP2 OR SWAP1 SSTORE DUP2 ADD MLOAD DUP1 MLOAD PUSH1 0xC DUP6 ADD SSTORE DUP2 ADD MLOAD PUSH1 0xD SWAP1 SWAP4 ADD SWAP3 SWAP1 SWAP3 SSTORE DUP1 MLOAD SWAP3 DUP4 ADD DUP2 MSTORE PUSH1 0x0 DUP1 DUP5 MSTORE DUP4 DUP4 ADD DUP2 DUP2 MSTORE DUP3 MLOAD SWAP4 DUP5 ADD DUP4 MSTORE SWAP1 DUP4 MSTORE SWAP1 DUP4 ADD DUP3 SWAP1 MSTORE DUP3 MLOAD PUSH1 0x18 DUP1 SLOAD PUSH1 0xFF NOT AND SWAP2 ISZERO ISZERO SWAP2 SWAP1 SWAP2 OR DUP2 SSTORE SWAP1 MLOAD PUSH1 0x19 SSTORE SWAP1 PUSH1 0x1A SWAP1 PUSH3 0x3A7 SWAP1 DUP3 PUSH3 0x4A5 JUMP JUMPDEST POP POP POP CALLVALUE DUP1 ISZERO PUSH3 0x3B7 JUMPI PUSH1 0x0 DUP1 REVERT JUMPDEST POP PUSH1 0x40 MLOAD PUSH3 0x2234 CODESIZE SUB DUP1 PUSH3 0x2234 DUP4 CODECOPY DUP2 ADD PUSH1 0x40 DUP2 SWAP1 MSTORE PUSH3 0x3DA SWAP2 PUSH3 0x571 JUMP JUMPDEST PUSH1 0x0 DUP1 SLOAD PUSH1 0x1 PUSH1 0x1 PUSH1 0xA0 SHL SUB NOT AND PUSH1 0x1 PUSH1 0x1 PUSH1 0xA0 SHL SUB SWAP3 SWAP1 SWAP3 AND SWAP2 SWAP1 SWAP2 OR SWAP1 SSTORE PUSH3 0x5A3 JUMP JUMPDEST PUSH4 0x4E487B71 PUSH1 0xE0 SHL PUSH1 0x0 MSTORE PUSH1 0x41 PUSH1 0x4 MSTORE PUSH1 0x24 PUSH1 0x0 REVERT JUMPDEST PUSH1 0x1 DUP2 DUP2 SHR SWAP1 DUP3 AND DUP1 PUSH3 0x42B JUMPI PUSH1 0x7F DUP3 AND SWAP2 POP JUMPDEST PUSH1 0x20 DUP3 LT DUP2 SUB PUSH3 0x44C JUMPI PUSH4 0x4E487B71 PUSH1 0xE0 SHL PUSH1 0x0 MSTORE PUSH1 0x22 PUSH1 0x4 MSTORE PUSH1 0x24 PUSH1 0x0 REVERT JUMPDEST POP SWAP2 SWAP1 POP JUMP JUMPDEST PUSH1 0x1F DUP3 GT ISZERO PUSH3 0x4A0 JUMPI PUSH1 0x0 DUP2 DUP2 MSTORE PUSH1 0x20 DUP2 KECCAK256 PUSH1 0x1F DUP6 ADD PUSH1 0x5 SHR DUP2 ADD PUSH1 0x20 DUP7 LT ISZERO PUSH3 0x47B JUMPI POP DUP1 JUMPDEST PUSH1 0x1F DUP6 ADD PUSH1 0x5 SHR DUP3 ADD SWAP2 POP JUMPDEST DUP2 DUP2 LT ISZERO PUSH3 0x49C JUMPI DUP3 DUP2 SSTORE PUSH1 0x1 ADD PUSH3 0x487 JUMP JUMPDEST POP POP POP JUMPDEST POP POP POP JUMP JUMPDEST DUP2 MLOAD PUSH1 0x1 PUSH1 0x1 PUSH1 0x40 SHL SUB DUP2 GT ISZERO PUSH3 0x4C1 JUMPI PUSH3 0x4C1 PUSH3 0x400 JUMP JUMPDEST PUSH3 0x4D9 DUP2 PUSH3 0x4D2 DUP5 SLOAD PUSH3 0x416 JUMP JUMPDEST DUP5 PUSH3 0x452 JUMP JUMPDEST PUSH1 0x20 DUP1 PUSH1 0x1F DUP4 GT PUSH1 0x1 DUP2 EQ PUSH3 0x511 JUMPI PUSH1 0x0 DUP5 ISZERO PUSH3 0x4F8 JUMPI POP DUP6 DUP4 ADD MLOAD JUMPDEST PUSH1 0x0 NOT PUSH1 0x3 DUP7 SWAP1 SHL SHR NOT AND PUSH1 0x1 DUP6 SWAP1 SHL OR DUP6 SSTORE PUSH3 0x49C JUMP JUMPDEST PUSH1 0x0 DUP6 DUP2 MSTORE PUSH1 0x20 DUP2 KECCAK256 PUSH1 0x1F NOT DUP7 AND SWAP2 JUMPDEST DUP3 DUP2 LT ISZERO PUSH3 0x542 JUMPI DUP9 DUP7 ADD MLOAD DUP3 SSTORE SWAP5 DUP5 ADD SWAP5 PUSH1 0x1 SWAP1 SWAP2 ADD SWAP1 DUP5 ADD PUSH3 0x521 JUMP JUMPDEST POP DUP6 DUP3 LT ISZERO PUSH3 0x561 JUMPI DUP8 DUP6 ADD MLOAD PUSH1 0x0 NOT PUSH1 0x3 DUP9 SWAP1 SHL PUSH1 0xF8 AND SHR NOT AND DUP2 SSTORE JUMPDEST POP POP POP POP POP PUSH1 0x1 SWAP1 DUP2 SHL ADD SWAP1 SSTORE POP JUMP JUMPDEST PUSH1 0x0 PUSH1 0x20 DUP3 DUP5 SUB SLT ISZERO PUSH3 0x584 JUMPI PUSH1 0x0 DUP1 REVERT JUMPDEST DUP2 MLOAD PUSH1 0x1 PUSH1 0x1 PUSH1 0xA0 SHL SUB DUP2 AND DUP2 EQ PUSH3 0x59C JUMPI PUSH1 0x0 DUP1 REVERT JUMPDEST SWAP4 SWAP3 POP POP POP JUMP JUMPDEST PUSH2 0x1C81 DUP1 PUSH3 0x5B3 PUSH1 0x0 CODECOPY PUSH1 0x0 RETURN INVALID PUSH1 0x80 PUSH1 0x40 MSTORE CALLVALUE DUP1 ISZERO PUSH2 0x10 JUMPI PUSH1 0x0 DUP1 REVERT JUMPDEST POP PUSH1 0x4 CALLDATASIZE LT PUSH2 0x67 JUMPI PUSH1 0x0 CALLDATALOAD PUSH1 0xE0 SHR DUP1 PUSH4 0x9B249F69 GT PUSH2 0x50 JUMPI DUP1 PUSH4 0x9B249F69 EQ PUSH2 0xB6 JUMPI DUP1 PUSH4 0xB0D691FE EQ PUSH2 0xEE JUMPI DUP1 PUSH4 0xEE219423 EQ PUSH2 0x10E JUMPI PUSH1 0x0 DUP1 REVERT JUMPDEST DUP1 PUSH4 0x3024E00C EQ PUSH2 0x6C JUMPI DUP1 PUSH4 0x7B34B621 EQ PUSH2 0x95 JUMPI JUMPDEST PUSH1 0x0 DUP1 REVERT JUMPDEST PUSH2 0x7F PUSH2 0x7A CALLDATASIZE PUSH1 0x4 PUSH2 0x103A JUMP JUMPDEST PUSH2 0x12F JUMP JUMPDEST PUSH1 0x40 MLOAD PUSH2 0x8C SWAP2 SWAP1 PUSH2 0x11F9 JUMP JUMPDEST PUSH1 0x40 MLOAD DUP1 SWAP2 SUB SWAP1 RETURN JUMPDEST PUSH2 0xA8 PUSH2 0xA3 CALLDATASIZE PUSH1 0x4 PUSH2 0x123D JUMP JUMPDEST PUSH2 0x24D JUMP JUMPDEST PUSH1 0x40 MLOAD SWAP1 DUP2 MSTORE PUSH1 0x20 ADD PUSH2 0x8C JUMP JUMPDEST PUSH2 0xC9 PUSH2 0xC4 CALLDATASIZE PUSH1 0x4 PUSH2 0x12D7 JUMP JUMPDEST PUSH2 0x336 JUMP JUMPDEST PUSH1 0x40 MLOAD PUSH20 0xFFFFFFFFFFFFFFFFFFFFFFFFFFFFFFFFFFFFFFFF SWAP1 SWAP2 AND DUP2 MSTORE PUSH1 0x20 ADD PUSH2 0x8C JUMP JUMPDEST PUSH1 0x0 SLOAD PUSH2 0xC9 SWAP1 PUSH20 0xFFFFFFFFFFFFFFFFFFFFFFFFFFFFFFFFFFFFFFFF AND DUP2 JUMP JUMPDEST PUSH2 0x121 PUSH2 0x11C CALLDATASIZE PUSH1 0x4 PUSH2 0x1349 JUMP JUMPDEST PUSH2 0x4E3 JUMP JUMPDEST PUSH1 0x40 MLOAD PUSH2 0x8C SWAP3 SWAP2 SWAP1 PUSH2 0x13E1 JUMP JUMPDEST PUSH1 0x60 DUP2 MLOAD PUSH8 0xFFFFFFFFFFFFFFFF DUP2 GT ISZERO PUSH2 0x14B JUMPI PUSH2 0x14B PUSH2 0xEB8 JUMP JUMPDEST PUSH1 0x40 MLOAD SWAP1 DUP1 DUP3 MSTORE DUP1 PUSH1 0x20 MUL PUSH1 0x20 ADD DUP3 ADD PUSH1 0x40 MSTORE DUP1 ISZERO PUSH2 0x174 JUMPI DUP2 PUSH1 0x20 ADD PUSH1 0x20 DUP3 MUL DUP1 CALLDATASIZE DUP4 CALLDATACOPY ADD SWAP1 POP JUMPDEST POP SWAP1 POP PUSH1 0x0 JUMPDEST DUP3 MLOAD DUP2 LT ISZERO PUSH2 0x245 JUMPI DUP4 PUSH20 0xFFFFFFFFFFFFFFFFFFFFFFFFFFFFFFFFFFFFFFFF AND PUSH4 0xA6193531 DUP5 DUP4 DUP2 MLOAD DUP2 LT PUSH2 0x1B1 JUMPI PUSH2 0x1B1 PUSH2 0x152B JUMP JUMPDEST PUSH1 0x20 MUL PUSH1 0x20 ADD ADD MLOAD PUSH1 0x40 MLOAD DUP3 PUSH4 0xFFFFFFFF AND PUSH1 0xE0 SHL DUP2 MSTORE PUSH1 0x4 ADD PUSH2 0x1D5 SWAP2 SWAP1 PUSH2 0x155A JUMP JUMPDEST PUSH1 0x20 PUSH1 0x40 MLOAD DUP1 DUP4 SUB DUP2 DUP7 GAS STATICCALL ISZERO DUP1 ISZERO PUSH2 0x1F2 JUMPI RETURNDATASIZE PUSH1 0x0 DUP1 RETURNDATACOPY RETURNDATASIZE PUSH1 0x0 REVERT JUMPDEST POP POP POP POP PUSH1 0x40 MLOAD RETURNDATASIZE PUSH1 0x1F NOT PUSH1 0x1F DUP3 ADD AND DUP3 ADD DUP1 PUSH1 0x40 MSTORE POP DUP2 ADD SWAP1 PUSH2 0x216 SWAP2 SWAP1 PUSH2 0x1648 JUMP JUMPDEST DUP3 DUP3 DUP2 MLOAD DUP2 LT PUSH2 0x228 JUMPI PUSH2 0x228 PUSH2 0x152B JUMP JUMPDEST PUSH1 0x20 SWAP1 DUP2 MUL SWAP2 SWAP1 SWAP2 ADD ADD MSTORE DUP1 PUSH2 0x23D DUP2 PUSH2 0x1690 JUMP JUMPDEST SWAP2 POP POP PUSH2 0x17A JUMP JUMPDEST POP JUMPDEST SWAP3 SWAP2 POP POP JUMP JUMPDEST PUSH1 0x0 DUP1 DUP3 MLOAD PUSH8 0xFFFFFFFFFFFFFFFF DUP2 GT ISZERO PUSH2 0x26A JUMPI PUSH2 0x26A PUSH2 0xEB8 JUMP JUMPDEST PUSH1 0x40 MLOAD SWAP1 DUP1 DUP3 MSTORE DUP1 PUSH1 0x20 MUL PUSH1 0x20 ADD DUP3 ADD PUSH1 0x40 MSTORE DUP1 ISZERO PUSH2 0x293 JUMPI DUP2 PUSH1 0x20 ADD PUSH1 0x20 DUP3 MUL DUP1 CALLDATASIZE DUP4 CALLDATACOPY ADD SWAP1 POP JUMPDEST POP SWAP1 POP PUSH1 0x0 JUMPDEST DUP4 MLOAD DUP2 LT ISZERO PUSH2 0x302 JUMPI DUP4 DUP2 DUP2 MLOAD DUP2 LT PUSH2 0x2B4 JUMPI PUSH2 0x2B4 PUSH2 0x152B JUMP JUMPDEST PUSH1 0x20 MUL PUSH1 0x20 ADD ADD MLOAD PUSH20 0xFFFFFFFFFFFFFFFFFFFFFFFFFFFFFFFFFFFFFFFF AND EXTCODEHASH DUP3 DUP3 DUP2 MLOAD DUP2 LT PUSH2 0x2E5 JUMPI PUSH2 0x2E5 PUSH2 0x152B JUMP JUMPDEST PUSH1 0x20 SWAP1 DUP2 MUL SWAP2 SWAP1 SWAP2 ADD ADD MSTORE DUP1 PUSH2 0x2FA DUP2 PUSH2 0x1690 JUMP JUMPDEST SWAP2 POP POP PUSH2 0x299 JUMP JUMPDEST POP PUSH1 0x0 DUP2 PUSH1 0x40 MLOAD PUSH1 0x20 ADD PUSH2 0x316 SWAP2 SWAP1 PUSH2 0x11F9 JUMP JUMPDEST PUSH1 0x40 DUP1 MLOAD PUSH1 0x1F NOT DUP2 DUP5 SUB ADD DUP2 MSTORE SWAP2 SWAP1 MSTORE DUP1 MLOAD PUSH1 0x20 SWAP1 SWAP2 ADD KECCAK256 SWAP5 SWAP4 POP POP POP POP JUMP JUMPDEST PUSH1 0x0 DUP1 SLOAD PUSH1 0x40 MLOAD PUSH32 0x9B249F6900000000000000000000000000000000000000000000000000000000 DUP2 MSTORE PUSH20 0xFFFFFFFFFFFFFFFFFFFFFFFFFFFFFFFFFFFFFFFF SWAP1 SWAP2 AND SWAP1 PUSH4 0x9B249F69 SWAP1 PUSH2 0x38F SWAP1 DUP7 SWAP1 DUP7 SWAP1 PUSH1 0x4 ADD PUSH2 0x16F3 JUMP JUMPDEST PUSH1 0x0 PUSH1 0x40 MLOAD DUP1 DUP4 SUB DUP2 PUSH1 0x0 DUP8 DUP1 EXTCODESIZE ISZERO DUP1 ISZERO PUSH2 0x3A9 JUMPI PUSH1 0x0 DUP1 REVERT JUMPDEST POP GAS CALL SWAP3 POP POP POP DUP1 ISZERO PUSH2 0x3BA JUMPI POP PUSH1 0x1 JUMPDEST PUSH2 0x247 JUMPI RETURNDATASIZE DUP1 DUP1 ISZERO PUSH2 0x3E8 JUMPI PUSH1 0x40 MLOAD SWAP2 POP PUSH1 0x1F NOT PUSH1 0x3F RETURNDATASIZE ADD AND DUP3 ADD PUSH1 0x40 MSTORE RETURNDATASIZE DUP3 MSTORE RETURNDATASIZE PUSH1 0x0 PUSH1 0x20 DUP5 ADD RETURNDATACOPY PUSH2 0x3ED JUMP JUMPDEST PUSH1 0x60 SWAP2 POP JUMPDEST POP PUSH1 0x0 PUSH2 0x3F9 DUP3 PUSH2 0x170F JUMP JUMPDEST SWAP1 POP PUSH32 0x935847FA00000000000000000000000000000000000000000000000000000000 PUSH32 0xFFFFFFFF00000000000000000000000000000000000000000000000000000000 DUP3 AND ADD PUSH2 0x47C JUMPI PUSH1 0x0 PUSH2 0x45E DUP4 PUSH1 0x4 DUP1 DUP7 MLOAD PUSH2 0x459 SWAP2 SWAP1 PUSH2 0x175F JUMP JUMPDEST PUSH2 0xC39 JUMP JUMPDEST DUP1 PUSH1 0x20 ADD SWAP1 MLOAD DUP2 ADD SWAP1 PUSH2 0x471 SWAP2 SWAP1 PUSH2 0x1776 JUMP JUMPDEST SWAP4 POP PUSH2 0x247 SWAP3 POP POP POP JUMP JUMPDEST PUSH1 0x40 MLOAD PUSH32 0x8C379A000000000000000000000000000000000000000000000000000000000 DUP2 MSTORE PUSH1 0x20 PUSH1 0x4 DUP3 ADD MSTORE PUSH1 0x10 PUSH1 0x24 DUP3 ADD MSTORE PUSH32 0x496E76616C696420696E6974436F646500000000000000000000000000000000 PUSH1 0x44 DUP3 ADD MSTORE PUSH1 0x64 ADD JUMPDEST PUSH1 0x40 MLOAD DUP1 SWAP2 SUB SWAP1 REVERT JUMPDEST PUSH1 0x40 DUP1 MLOAD PUSH1 0x60 DUP1 DUP3 ADD DUP4 MSTORE PUSH1 0x0 DUP1 DUP4 MSTORE PUSH1 0x20 DUP4 ADD MSTORE SWAP2 DUP2 ADD SWAP2 SWAP1 SWAP2 MSTORE PUSH2 0x507 PUSH2 0xD97 JUMP JUMPDEST PUSH1 0x0 SLOAD PUSH1 0x40 MLOAD PUSH32 0xEE21942300000000000000000000000000000000000000000000000000000000 DUP2 MSTORE PUSH20 0xFFFFFFFFFFFFFFFFFFFFFFFFFFFFFFFFFFFFFFFF SWAP1 SWAP2 AND SWAP1 PUSH4 0xEE219423 SWAP1 PUSH2 0x55D SWAP1 DUP7 SWAP1 PUSH1 0x4 ADD PUSH2 0x17FE JUMP JUMPDEST PUSH1 0x0 PUSH1 0x40 MLOAD DUP1 DUP4 SUB DUP2 PUSH1 0x0 DUP8 DUP1 EXTCODESIZE ISZERO DUP1 ISZERO PUSH2 0x577 JUMPI PUSH1 0x0 DUP1 REVERT JUMPDEST POP GAS CALL SWAP3 POP POP POP DUP1 ISZERO PUSH2 0x588 JUMPI POP PUSH1 0x1 JUMPDEST PUSH2 0xC34 JUMPI RETURNDATASIZE DUP1 DUP1 ISZERO PUSH2 0x5B6 JUMPI PUSH1 0x40 MLOAD SWAP2 POP PUSH1 0x1F NOT PUSH1 0x3F RETURNDATASIZE ADD AND DUP3 ADD PUSH1 0x40 MSTORE RETURNDATASIZE DUP3 MSTORE RETURNDATASIZE PUSH1 0x0 PUSH1 0x20 DUP5 ADD RETURNDATACOPY PUSH2 0x5BB JUMP JUMPDEST PUSH1 0x60 SWAP2 POP JUMPDEST POP PUSH1 0x0 PUSH2 0x5C7 DUP3 PUSH2 0x170F JUMP JUMPDEST SWAP1 POP PUSH32 0x1F300FA100000000000000000000000000000000000000000000000000000000 PUSH32 0xFFFFFFFF00000000000000000000000000000000000000000000000000000000 DUP3 AND ADD PUSH2 0x7A7 JUMPI PUSH1 0x0 DUP1 PUSH1 0x0 DUP1 PUSH2 0x62B DUP7 PUSH1 0x4 DUP1 DUP10 MLOAD PUSH2 0x459 SWAP2 SWAP1 PUSH2 0x175F JUMP JUMPDEST DUP1 PUSH1 0x20 ADD SWAP1 MLOAD DUP2 ADD SWAP1 PUSH2 0x63E SWAP2 SWAP1 PUSH2 0x1A3C JUMP JUMPDEST PUSH1 0x40 DUP1 MLOAD PUSH2 0x100 DUP2 ADD DUP3 MSTORE PUSH1 0x10 PUSH1 0xC0 DUP3 ADD SWAP1 DUP2 MSTORE PUSH32 0x56616C69646174696F6E526573756C7400000000000000000000000000000000 PUSH1 0xE0 DUP4 ADD MSTORE DUP2 MSTORE PUSH1 0x20 DUP1 DUP3 ADD DUP8 SWAP1 MSTORE DUP2 DUP4 ADD DUP7 SWAP1 MSTORE PUSH1 0x60 DUP1 DUP4 ADD DUP7 SWAP1 MSTORE PUSH1 0x80 DUP4 ADD DUP6 SWAP1 MSTORE DUP4 MLOAD DUP1 DUP6 ADD DUP6 MSTORE PUSH1 0x3 SLOAD PUSH20 0xFFFFFFFFFFFFFFFFFFFFFFFFFFFFFFFFFFFFFFFF AND DUP2 MSTORE DUP5 MLOAD DUP1 DUP7 ADD DUP7 MSTORE PUSH1 0x4 SLOAD DUP2 MSTORE PUSH1 0x5 SLOAD DUP2 DUP6 ADD MSTORE DUP2 DUP5 ADD MSTORE PUSH1 0xA0 DUP5 ADD MSTORE DUP4 MLOAD SWAP1 DUP2 ADD DUP5 MSTORE PUSH1 0x18 DUP1 SLOAD PUSH1 0xFF AND ISZERO ISZERO DUP3 MSTORE PUSH1 0x19 SLOAD SWAP3 DUP3 ADD SWAP3 SWAP1 SWAP3 MSTORE PUSH1 0x1A DUP1 SLOAD SWAP9 SWAP13 POP SWAP7 SWAP11 POP SWAP5 SWAP9 POP SWAP3 SWAP7 POP SWAP2 SWAP5 SWAP2 SWAP4 DUP6 SWAP3 SWAP2 DUP5 ADD SWAP2 PUSH2 0x714 SWAP1 PUSH2 0x1AAE JUMP JUMPDEST DUP1 PUSH1 0x1F ADD PUSH1 0x20 DUP1 SWAP2 DIV MUL PUSH1 0x20 ADD PUSH1 0x40 MLOAD SWAP1 DUP2 ADD PUSH1 0x40 MSTORE DUP1 SWAP3 SWAP2 SWAP1 DUP2 DUP2 MSTORE PUSH1 0x20 ADD DUP3 DUP1 SLOAD PUSH2 0x740 SWAP1 PUSH2 0x1AAE JUMP JUMPDEST DUP1 ISZERO PUSH2 0x78D JUMPI DUP1 PUSH1 0x1F LT PUSH2 0x762 JUMPI PUSH2 0x100 DUP1 DUP4 SLOAD DIV MUL DUP4 MSTORE SWAP2 PUSH1 0x20 ADD SWAP2 PUSH2 0x78D JUMP JUMPDEST DUP3 ADD SWAP2 SWAP1 PUSH1 0x0 MSTORE PUSH1 0x20 PUSH1 0x0 KECCAK256 SWAP1 JUMPDEST DUP2 SLOAD DUP2 MSTORE SWAP1 PUSH1 0x1 ADD SWAP1 PUSH1 0x20 ADD DUP1 DUP4 GT PUSH2 0x770 JUMPI DUP3 SWAP1 SUB PUSH1 0x1F AND DUP3 ADD SWAP2 JUMPDEST POP POP POP POP POP DUP2 MSTORE POP POP SWAP2 POP SWAP8 POP SWAP8 POP POP POP POP POP POP POP SWAP2 POP SWAP2 JUMP JUMPDEST PUSH32 0x5134B1C00000000000000000000000000000000000000000000000000000000 PUSH32 0xFFFFFFFF00000000000000000000000000000000000000000000000000000000 DUP3 AND ADD PUSH2 0x953 JUMPI PUSH1 0x0 DUP1 PUSH1 0x0 DUP1 PUSH1 0x0 PUSH2 0x80B DUP8 PUSH1 0x4 DUP1 DUP11 MLOAD PUSH2 0x459 SWAP2 SWAP1 PUSH2 0x175F JUMP JUMPDEST DUP1 PUSH1 0x20 ADD SWAP1 MLOAD DUP2 ADD SWAP1 PUSH2 0x81E SWAP2 SWAP1 PUSH2 0x1B01 JUMP JUMPDEST PUSH1 0x40 DUP1 MLOAD PUSH2 0x100 DUP2 ADD DUP3 MSTORE PUSH1 0x1F PUSH1 0xC0 DUP3 ADD SWAP1 DUP2 MSTORE PUSH32 0x56616C69646174696F6E526573756C74576974684167677265676174696F6E00 PUSH1 0xE0 DUP4 ADD MSTORE DUP2 MSTORE PUSH1 0x20 DUP1 DUP3 ADD DUP9 SWAP1 MSTORE DUP2 DUP4 ADD DUP8 SWAP1 MSTORE PUSH1 0x60 DUP1 DUP4 ADD DUP8 SWAP1 MSTORE PUSH1 0x80 DUP4 ADD DUP7 SWAP1 MSTORE PUSH1 0xA0 DUP4 ADD DUP6 SWAP1 MSTORE DUP4 MLOAD SWAP1 DUP2 ADD DUP5 MSTORE PUSH1 0x18 DUP1 SLOAD PUSH1 0xFF AND ISZERO ISZERO DUP3 MSTORE PUSH1 0x19 SLOAD SWAP3 DUP3 ADD SWAP3 SWAP1 SWAP3 MSTORE PUSH1 0x1A DUP1 SLOAD SWAP10 SWAP15 POP SWAP8 SWAP13 POP SWAP6 SWAP11 POP SWAP4 SWAP9 POP SWAP2 SWAP7 POP SWAP2 SWAP5 SWAP1 SWAP4 DUP6 SWAP3 DUP5 ADD SWAP2 PUSH2 0x8BF SWAP1 PUSH2 0x1AAE JUMP JUMPDEST DUP1 PUSH1 0x1F ADD PUSH1 0x20 DUP1 SWAP2 DIV MUL PUSH1 0x20 ADD PUSH1 0x40 MLOAD SWAP1 DUP2 ADD PUSH1 0x40 MSTORE DUP1 SWAP3 SWAP2 SWAP1 DUP2 DUP2 MSTORE PUSH1 0x20 ADD DUP3 DUP1 SLOAD PUSH2 0x8EB SWAP1 PUSH2 0x1AAE JUMP JUMPDEST DUP1 ISZERO PUSH2 0x938 JUMPI DUP1 PUSH1 0x1F LT PUSH2 0x90D JUMPI PUSH2 0x100 DUP1 DUP4 SLOAD DIV MUL DUP4 MSTORE SWAP2 PUSH1 0x20 ADD SWAP2 PUSH2 0x938 JUMP JUMPDEST DUP3 ADD SWAP2 SWAP1 PUSH1 0x0 MSTORE PUSH1 0x20 PUSH1 0x0 KECCAK256 SWAP1 JUMPDEST DUP2 SLOAD DUP2 MSTORE SWAP1 PUSH1 0x1 ADD SWAP1 PUSH1 0x20 ADD DUP1 DUP4 GT PUSH2 0x91B JUMPI DUP3 SWAP1 SUB PUSH1 0x1F AND DUP3 ADD SWAP2 JUMPDEST POP POP POP POP POP DUP2 MSTORE POP POP SWAP2 POP SWAP9 POP SWAP9 POP POP POP POP POP POP POP POP SWAP2 POP SWAP2 JUMP JUMPDEST PUSH32 0xDDFD994A00000000000000000000000000000000000000000000000000000000 PUSH32 0xFFFFFFFF00000000000000000000000000000000000000000000000000000000 DUP3 AND ADD PUSH2 0xC31 JUMPI PUSH1 0x0 DUP1 PUSH2 0x9B2 DUP5 PUSH1 0x4 DUP1 DUP8 MLOAD PUSH2 0x459 SWAP2 SWAP1 PUSH2 0x175F JUMP JUMPDEST DUP1 PUSH1 0x20 ADD SWAP1 MLOAD DUP2 ADD SWAP1 PUSH2 0x9C5 SWAP2 SWAP1 PUSH2 0x1BD8 JUMP JUMPDEST SWAP2 POP SWAP2 POP PUSH1 0x40 MLOAD DUP1 PUSH1 0x60 ADD PUSH1 0x40 MSTORE DUP1 PUSH1 0x1 ISZERO ISZERO DUP2 MSTORE PUSH1 0x20 ADD DUP4 DUP2 MSTORE PUSH1 0x20 ADD DUP3 DUP2 MSTORE POP PUSH1 0xA DUP1 PUSH1 0x40 MLOAD DUP1 PUSH1 0xC0 ADD PUSH1 0x40 MSTORE SWAP1 DUP2 PUSH1 0x0 DUP3 ADD DUP1 SLOAD PUSH2 0xA05 SWAP1 PUSH2 0x1AAE JUMP JUMPDEST DUP1 PUSH1 0x1F ADD PUSH1 0x20 DUP1 SWAP2 DIV MUL PUSH1 0x20 ADD PUSH1 0x40 MLOAD SWAP1 DUP2 ADD PUSH1 0x40 MSTORE DUP1 SWAP3 SWAP2 SWAP1 DUP2 DUP2 MSTORE PUSH1 0x20 ADD DUP3 DUP1 SLOAD PUSH2 0xA31 SWAP1 PUSH2 0x1AAE JUMP JUMPDEST DUP1 ISZERO PUSH2 0xA7E JUMPI DUP1 PUSH1 0x1F LT PUSH2 0xA53 JUMPI PUSH2 0x100 DUP1 DUP4 SLOAD DIV MUL DUP4 MSTORE SWAP2 PUSH1 0x20 ADD SWAP2 PUSH2 0xA7E JUMP JUMPDEST DUP3 ADD SWAP2 SWAP1 PUSH1 0x0 MSTORE PUSH1 0x20 PUSH1 0x0 KECCAK256 SWAP1 JUMPDEST DUP2 SLOAD DUP2 MSTORE SWAP1 PUSH1 0x1 ADD SWAP1 PUSH1 0x20 ADD DUP1 DUP4 GT PUSH2 0xA61 JUMPI DUP3 SWAP1 SUB PUSH1 0x1F AND DUP3 ADD SWAP2 JUMPDEST POP POP POP SWAP2 DUP4 MSTORE POP POP PUSH1 0x40 DUP1 MLOAD PUSH1 0xC0 DUP2 ADD DUP3 MSTORE PUSH1 0x1 DUP5 ADD DUP1 SLOAD DUP3 MSTORE PUSH1 0x2 DUP6 ADD SLOAD PUSH1 0x20 DUP4 DUP2 ADD SWAP2 SWAP1 SWAP2 MSTORE PUSH1 0x3 DUP7 ADD SLOAD PUSH1 0xFF DUP2 AND ISZERO ISZERO SWAP5 DUP5 ADD SWAP5 SWAP1 SWAP5 MSTORE PUSH6 0xFFFFFFFFFFFF PUSH2 0x100 DUP6 DIV DUP2 AND PUSH1 0x60 DUP6 ADD MSTORE PUSH8 0x100000000000000 SWAP1 SWAP5 DIV SWAP1 SWAP4 AND PUSH1 0x80 DUP4 ADD MSTORE PUSH1 0x4 DUP6 ADD DUP1 SLOAD SWAP4 SWAP1 SWAP5 ADD SWAP4 SWAP2 SWAP3 SWAP1 SWAP2 PUSH1 0xA0 DUP5 ADD SWAP2 PUSH2 0xAFC SWAP1 PUSH2 0x1AAE JUMP JUMPDEST DUP1 PUSH1 0x1F ADD PUSH1 0x20 DUP1 SWAP2 DIV MUL PUSH1 0x20 ADD PUSH1 0x40 MLOAD SWAP1 DUP2 ADD PUSH1 0x40 MSTORE DUP1 SWAP3 SWAP2 SWAP1 DUP2 DUP2 MSTORE PUSH1 0x20 ADD DUP3 DUP1 SLOAD PUSH2 0xB28 SWAP1 PUSH2 0x1AAE JUMP JUMPDEST DUP1 ISZERO PUSH2 0xB75 JUMPI DUP1 PUSH1 0x1F LT PUSH2 0xB4A JUMPI PUSH2 0x100 DUP1 DUP4 SLOAD DIV MUL DUP4 MSTORE SWAP2 PUSH1 0x20 ADD SWAP2 PUSH2 0xB75 JUMP JUMPDEST DUP3 ADD SWAP2 SWAP1 PUSH1 0x0 MSTORE PUSH1 0x20 PUSH1 0x0 KECCAK256 SWAP1 JUMPDEST DUP2 SLOAD DUP2 MSTORE SWAP1 PUSH1 0x1 ADD SWAP1 PUSH1 0x20 ADD DUP1 DUP4 GT PUSH2 0xB58 JUMPI DUP3 SWAP1 SUB PUSH1 0x1F AND DUP3 ADD SWAP2 JUMPDEST POP POP POP SWAP2 SWAP1 SWAP3 MSTORE POP POP POP DUP2 MSTORE PUSH1 0x40 DUP1 MLOAD DUP1 DUP3 ADD DUP3 MSTORE PUSH1 0x5 DUP5 ADD SLOAD DUP2 MSTORE PUSH1 0x6 DUP5 ADD SLOAD PUSH1 0x20 DUP3 DUP2 ADD SWAP2 SWAP1 SWAP2 MSTORE DUP1 DUP5 ADD SWAP2 SWAP1 SWAP2 MSTORE DUP2 MLOAD DUP1 DUP4 ADD DUP4 MSTORE PUSH1 0x7 DUP6 ADD SLOAD DUP2 MSTORE PUSH1 0x8 DUP6 ADD SLOAD DUP2 DUP4 ADD MSTORE DUP3 DUP5 ADD MSTORE DUP2 MLOAD DUP1 DUP4 ADD DUP4 MSTORE PUSH1 0x9 DUP6 ADD SLOAD DUP2 MSTORE PUSH1 0xA DUP6 ADD SLOAD DUP2 DUP4 ADD MSTORE PUSH1 0x60 DUP5 ADD MSTORE DUP2 MLOAD DUP1 DUP4 ADD DUP4 MSTORE PUSH1 0xB DUP6 ADD SLOAD PUSH20 0xFFFFFFFFFFFFFFFFFFFFFFFFFFFFFFFFFFFFFFFF AND DUP2 MSTORE DUP3 MLOAD DUP1 DUP5 ADD SWAP1 SWAP4 MSTORE PUSH1 0xC DUP6 ADD SLOAD DUP4 MSTORE PUSH1 0xD SWAP1 SWAP5 ADD SLOAD DUP3 DUP3 ADD MSTORE DUP4 ADD MSTORE PUSH1 0x80 ADD MSTORE SWAP2 SWAP10 SWAP2 SWAP9 POP SWAP1 SWAP7 POP POP POP POP POP POP POP JUMP JUMPDEST POP POP JUMPDEST SWAP2 POP SWAP2 JUMP JUMPDEST PUSH1 0x60 DUP2 PUSH2 0xC47 DUP2 PUSH1 0x1F PUSH2 0x1C33 JUMP JUMPDEST LT ISZERO PUSH2 0xCAF JUMPI PUSH1 0x40 MLOAD PUSH32 0x8C379A000000000000000000000000000000000000000000000000000000000 DUP2 MSTORE PUSH1 0x20 PUSH1 0x4 DUP3 ADD MSTORE PUSH1 0xE PUSH1 0x24 DUP3 ADD MSTORE PUSH32 0x736C6963655F6F766572666C6F77000000000000000000000000000000000000 PUSH1 0x44 DUP3 ADD MSTORE PUSH1 0x64 ADD PUSH2 0x4DA JUMP JUMPDEST PUSH2 0xCB9 DUP3 DUP5 PUSH2 0x1C33 JUMP JUMPDEST DUP5 MLOAD LT ISZERO PUSH2 0xD23 JUMPI PUSH1 0x40 MLOAD PUSH32 0x8C379A000000000000000000000000000000000000000000000000000000000 DUP2 MSTORE PUSH1 0x20 PUSH1 0x4 DUP3 ADD MSTORE PUSH1 0x11 PUSH1 0x24 DUP3 ADD MSTORE PUSH32 0x736C6963655F6F75744F66426F756E6473000000000000000000000000000000 PUSH1 0x44 DUP3 ADD MSTORE PUSH1 0x64 ADD PUSH2 0x4DA JUMP JUMPDEST PUSH1 0x60 DUP3 ISZERO DUP1 ISZERO PUSH2 0xD42 JUMPI PUSH1 0x40 MLOAD SWAP2 POP PUSH1 0x0 DUP3 MSTORE PUSH1 0x20 DUP3 ADD PUSH1 0x40 MSTORE PUSH2 0xD8C JUMP JUMPDEST PUSH1 0x40 MLOAD SWAP2 POP PUSH1 0x1F DUP5 AND DUP1 ISZERO PUSH1 0x20 MUL DUP2 DUP5 ADD ADD DUP6 DUP2 ADD DUP8 DUP4 ISZERO PUSH1 0x20 MUL DUP5 DUP12 ADD ADD ADD JUMPDEST DUP2 DUP4 LT ISZERO PUSH2 0xD7B JUMPI DUP1 MLOAD DUP4 MSTORE PUSH1 0x20 SWAP3 DUP4 ADD SWAP3 ADD PUSH2 0xD63 JUMP JUMPDEST POP POP DUP6 DUP5 MSTORE PUSH1 0x1F ADD PUSH1 0x1F NOT AND PUSH1 0x40 MSTORE POP JUMPDEST POP SWAP1 POP JUMPDEST SWAP4 SWAP3 POP POP POP JUMP JUMPDEST PUSH1 0x40 DUP1 MLOAD PUSH1 0xC0 DUP1 DUP3 ADD DUP4 MSTORE PUSH1 0x60 DUP1 DUP4 MSTORE DUP4 MLOAD SWAP2 DUP3 ADD DUP5 MSTORE PUSH1 0x0 DUP1 DUP4 MSTORE PUSH1 0x20 DUP4 DUP2 ADD DUP3 SWAP1 MSTORE SWAP5 DUP4 ADD DUP2 SWAP1 MSTORE DUP3 DUP3 ADD DUP2 SWAP1 MSTORE PUSH1 0x80 DUP4 ADD MSTORE PUSH1 0xA0 DUP3 ADD MSTORE SWAP1 SWAP2 DUP3 ADD SWAP1 DUP2 MSTORE PUSH1 0x20 ADD PUSH2 0xDF8 PUSH1 0x40 MLOAD DUP1 PUSH1 0x40 ADD PUSH1 0x40 MSTORE DUP1 PUSH1 0x0 DUP2 MSTORE PUSH1 0x20 ADD PUSH1 0x0 DUP2 MSTORE POP SWAP1 JUMP JUMPDEST DUP2 MSTORE PUSH1 0x20 ADD PUSH2 0xE1A PUSH1 0x40 MLOAD DUP1 PUSH1 0x40 ADD PUSH1 0x40 MSTORE DUP1 PUSH1 0x0 DUP2 MSTORE PUSH1 0x20 ADD PUSH1 0x0 DUP2 MSTORE POP SWAP1 JUMP JUMPDEST DUP2 MSTORE PUSH1 0x20 ADD PUSH2 0xE3C PUSH1 0x40 MLOAD DUP1 PUSH1 0x40 ADD PUSH1 0x40 MSTORE DUP1 PUSH1 0x0 DUP2 MSTORE PUSH1 0x20 ADD PUSH1 0x0 DUP2 MSTORE POP SWAP1 JUMP JUMPDEST DUP2 MSTORE PUSH1 0x20 ADD PUSH2 0xE49 PUSH2 0xE4E JUMP JUMPDEST SWAP1 MSTORE SWAP1 JUMP JUMPDEST PUSH1 0x40 MLOAD DUP1 PUSH1 0x40 ADD PUSH1 0x40 MSTORE DUP1 PUSH1 0x0 PUSH20 0xFFFFFFFFFFFFFFFFFFFFFFFFFFFFFFFFFFFFFFFF AND DUP2 MSTORE PUSH1 0x20 ADD PUSH2 0xE49 PUSH1 0x40 MLOAD DUP1 PUSH1 0x40 ADD PUSH1 0x40 MSTORE DUP1 PUSH1 0x0 DUP2 MSTORE PUSH1 0x20 ADD PUSH1 0x0 DUP2 MSTORE POP SWAP1 JUMP JUMPDEST PUSH20 0xFFFFFFFFFFFFFFFFFFFFFFFFFFFFFFFFFFFFFFFF DUP2 AND DUP2 EQ PUSH2 0xEB5 JUMPI PUSH1 0x0 DUP1 REVERT JUMPDEST POP JUMP JUMPDEST PUSH32 0x4E487B7100000000000000000000000000000000000000000000000000000000 PUSH1 0x0 MSTORE PUSH1 0x41 PUSH1 0x4 MSTORE PUSH1 0x24 PUSH1 0x0 REVERT JUMPDEST PUSH1 0x40 MLOAD PUSH2 0x160 DUP2 ADD PUSH8 0xFFFFFFFFFFFFFFFF DUP2 GT DUP3 DUP3 LT OR ISZERO PUSH2 0xF0B JUMPI PUSH2 0xF0B PUSH2 0xEB8 JUMP JUMPDEST PUSH1 0x40 MSTORE SWAP1 JUMP JUMPDEST PUSH1 0x40 MLOAD PUSH1 0xC0 DUP2 ADD PUSH8 0xFFFFFFFFFFFFFFFF DUP2 GT DUP3 DUP3 LT OR ISZERO PUSH2 0xF0B JUMPI PUSH2 0xF0B PUSH2 0xEB8 JUMP JUMPDEST PUSH1 0x40 DUP1 MLOAD SWAP1 DUP2 ADD PUSH8 0xFFFFFFFFFFFFFFFF DUP2 GT DUP3 DUP3 LT OR ISZERO PUSH2 0xF0B JUMPI PUSH2 0xF0B PUSH2 0xEB8 JUMP JUMPDEST PUSH1 0x40 MLOAD PUSH1 0x1F DUP3 ADD PUSH1 0x1F NOT AND DUP2 ADD PUSH8 0xFFFFFFFFFFFFFFFF DUP2 GT DUP3 DUP3 LT OR ISZERO PUSH2 0xF80 JUMPI PUSH2 0xF80 PUSH2 0xEB8 JUMP JUMPDEST PUSH1 0x40 MSTORE SWAP2 SWAP1 POP JUMP JUMPDEST PUSH1 0x0 PUSH8 0xFFFFFFFFFFFFFFFF DUP3 GT ISZERO PUSH2 0xFA2 JUMPI PUSH2 0xFA2 PUSH2 0xEB8 JUMP JUMPDEST POP PUSH1 0x5 SHL PUSH1 0x20 ADD SWAP1 JUMP JUMPDEST DUP1 CALLDATALOAD PUSH2 0xFB7 DUP2 PUSH2 0xE93 JUMP JUMPDEST SWAP2 SWAP1 POP JUMP JUMPDEST PUSH1 0x0 PUSH8 0xFFFFFFFFFFFFFFFF DUP3 GT ISZERO PUSH2 0xFD6 JUMPI PUSH2 0xFD6 PUSH2 0xEB8 JUMP JUMPDEST POP PUSH1 0x1F ADD PUSH1 0x1F NOT AND PUSH1 0x20 ADD SWAP1 JUMP JUMPDEST PUSH1 0x0 DUP3 PUSH1 0x1F DUP4 ADD SLT PUSH2 0xFF5 JUMPI PUSH1 0x0 DUP1 REVERT JUMPDEST DUP2 CALLDATALOAD PUSH2 0x1008 PUSH2 0x1003 DUP3 PUSH2 0xFBC JUMP JUMPDEST PUSH2 0xF57 JUMP JUMPDEST DUP2 DUP2 MSTORE DUP5 PUSH1 0x20 DUP4 DUP7 ADD ADD GT ISZERO PUSH2 0x101D JUMPI PUSH1 0x0 DUP1 REVERT JUMPDEST DUP2 PUSH1 0x20 DUP6 ADD PUSH1 0x20 DUP4 ADD CALLDATACOPY PUSH1 0x0 SWAP2 DUP2 ADD PUSH1 0x20 ADD SWAP2 SWAP1 SWAP2 MSTORE SWAP4 SWAP3 POP POP POP JUMP JUMPDEST PUSH1 0x0 DUP1 PUSH1 0x40 DUP4 DUP6 SUB SLT ISZERO PUSH2 0x104D JUMPI PUSH1 0x0 DUP1 REVERT JUMPDEST DUP3 CALLDATALOAD PUSH2 0x1058 DUP2 PUSH2 0xE93 JUMP JUMPDEST SWAP2 POP PUSH1 0x20 DUP4 DUP2 ADD CALLDATALOAD PUSH8 0xFFFFFFFFFFFFFFFF DUP1 DUP3 GT ISZERO PUSH2 0x1076 JUMPI PUSH1 0x0 DUP1 REVERT JUMPDEST DUP2 DUP7 ADD SWAP2 POP DUP7 PUSH1 0x1F DUP4 ADD SLT PUSH2 0x108A JUMPI PUSH1 0x0 DUP1 REVERT JUMPDEST DUP2 CALLDATALOAD PUSH2 0x1098 PUSH2 0x1003 DUP3 PUSH2 0xF88 JUMP JUMPDEST DUP2 DUP2 MSTORE PUSH1 0x5 SWAP2 SWAP1 SWAP2 SHL DUP4 ADD DUP5 ADD SWAP1 DUP5 DUP2 ADD SWAP1 DUP10 DUP4 GT ISZERO PUSH2 0x10B7 JUMPI PUSH1 0x0 DUP1 REVERT JUMPDEST DUP6 DUP6 ADD JUMPDEST DUP4 DUP2 LT ISZERO PUSH2 0x11E8 JUMPI DUP1 CALLDATALOAD DUP6 DUP2 GT ISZERO PUSH2 0x10D2 JUMPI PUSH1 0x0 DUP1 REVERT JUMPDEST DUP7 ADD PUSH2 0x160 DUP2 DUP14 SUB PUSH1 0x1F NOT ADD SLT ISZERO PUSH2 0x10E9 JUMPI PUSH1 0x0 DUP1 REVERT JUMPDEST PUSH2 0x10F1 PUSH2 0xEE7 JUMP JUMPDEST PUSH2 0x10FC DUP10 DUP4 ADD PUSH2 0xFAC JUMP JUMPDEST DUP2 MSTORE PUSH1 0x40 DUP3 ADD CALLDATALOAD DUP10 DUP3 ADD MSTORE PUSH1 0x60 DUP3 ADD CALLDATALOAD DUP8 DUP2 GT ISZERO PUSH2 0x1119 JUMPI PUSH1 0x0 DUP1 REVERT JUMPDEST PUSH2 0x1127 DUP15 DUP12 DUP4 DUP7 ADD ADD PUSH2 0xFE4 JUMP JUMPDEST PUSH1 0x40 DUP4 ADD MSTORE POP PUSH1 0x80 DUP3 ADD CALLDATALOAD DUP8 DUP2 GT ISZERO PUSH2 0x113F JUMPI PUSH1 0x0 DUP1 REVERT JUMPDEST PUSH2 0x114D DUP15 DUP12 DUP4 DUP7 ADD ADD PUSH2 0xFE4 JUMP JUMPDEST PUSH1 0x60 DUP4 ADD MSTORE POP PUSH1 0xA0 DUP3 ADD CALLDATALOAD PUSH1 0x80 DUP3 ADD MSTORE PUSH1 0xC0 DUP3 ADD CALLDATALOAD PUSH1 0xA0 DUP3 ADD MSTORE PUSH1 0xE0 DUP3 ADD CALLDATALOAD PUSH1 0xC0 DUP3 ADD MSTORE PUSH2 0x100 DUP3 ADD CALLDATALOAD PUSH1 0xE0 DUP3 ADD MSTORE PUSH2 0x120 DUP3 ADD CALLDATALOAD PUSH2 0x100 DUP3 ADD MSTORE PUSH2 0x140 DUP1 DUP4 ADD CALLDATALOAD DUP9 DUP2 GT ISZERO PUSH2 0x119C JUMPI PUSH1 0x0 DUP1 REVERT JUMPDEST PUSH2 0x11AA DUP16 DUP13 DUP4 DUP8 ADD ADD PUSH2 0xFE4 JUMP JUMPDEST PUSH2 0x120 DUP5 ADD MSTORE POP PUSH2 0x160 DUP4 ADD CALLDATALOAD DUP9 DUP2 GT ISZERO PUSH2 0x11C4 JUMPI PUSH1 0x0 DUP1 REVERT JUMPDEST PUSH2 0x11D2 DUP16 DUP13 DUP4 DUP8 ADD ADD PUSH2 0xFE4 JUMP JUMPDEST SWAP2 DUP4 ADD SWAP2 SWAP1 SWAP2 MSTORE POP DUP5 MSTORE POP SWAP2 DUP7 ADD SWAP2 DUP7 ADD PUSH2 0x10BB JUMP JUMPDEST POP DUP1 SWAP7 POP POP POP POP POP POP POP SWAP3 POP SWAP3 SWAP1 POP JUMP JUMPDEST PUSH1 0x20 DUP1 DUP3 MSTORE DUP3 MLOAD DUP3 DUP3 ADD DUP2 SWAP1 MSTORE PUSH1 0x0 SWAP2 SWAP1 DUP5 DUP3 ADD SWAP1 PUSH1 0x40 DUP6 ADD SWAP1 DUP5 JUMPDEST DUP2 DUP2 LT ISZERO PUSH2 0x1231 JUMPI DUP4 MLOAD DUP4 MSTORE SWAP3 DUP5 ADD SWAP3 SWAP2 DUP5 ADD SWAP2 PUSH1 0x1 ADD PUSH2 0x1215 JUMP JUMPDEST POP SWAP1 SWAP7 SWAP6 POP POP POP POP POP POP JUMP JUMPDEST PUSH1 0x0 PUSH1 0x20 DUP1 DUP4 DUP6 SUB SLT ISZERO PUSH2 0x1250 JUMPI PUSH1 0x0 DUP1 REVERT JUMPDEST DUP3 CALLDATALOAD PUSH8 0xFFFFFFFFFFFFFFFF DUP2 GT ISZERO PUSH2 0x1267 JUMPI PUSH1 0x0 DUP1 REVERT JUMPDEST DUP4 ADD PUSH1 0x1F DUP2 ADD DUP6 SGT PUSH2 0x1278 JUMPI PUSH1 0x0 DUP1 REVERT JUMPDEST DUP1 CALLDATALOAD PUSH2 0x1286 PUSH2 0x1003 DUP3 PUSH2 0xF88 JUMP JUMPDEST DUP2 DUP2 MSTORE PUSH1 0x5 SWAP2 SWAP1 SWAP2 SHL DUP3 ADD DUP4 ADD SWAP1 DUP4 DUP2 ADD SWAP1 DUP8 DUP4 GT ISZERO PUSH2 0x12A5 JUMPI PUSH1 0x0 DUP1 REVERT JUMPDEST SWAP3 DUP5 ADD SWAP3 JUMPDEST DUP3 DUP5 LT ISZERO PUSH2 0x12CC JUMPI DUP4 CALLDATALOAD PUSH2 0x12BD DUP2 PUSH2 0xE93 JUMP JUMPDEST DUP3 MSTORE SWAP3 DUP5 ADD SWAP3 SWAP1 DUP5 ADD SWAP1 PUSH2 0x12AA JUMP JUMPDEST SWAP8 SWAP7 POP POP POP POP POP POP POP JUMP JUMPDEST PUSH1 0x0 DUP1 PUSH1 0x20 DUP4 DUP6 SUB SLT ISZERO PUSH2 0x12EA JUMPI PUSH1 0x0 DUP1 REVERT JUMPDEST DUP3 CALLDATALOAD PUSH8 0xFFFFFFFFFFFFFFFF DUP1 DUP3 GT ISZERO PUSH2 0x1302 JUMPI PUSH1 0x0 DUP1 REVERT JUMPDEST DUP2 DUP6 ADD SWAP2 POP DUP6 PUSH1 0x1F DUP4 ADD SLT PUSH2 0x1316 JUMPI PUSH1 0x0 DUP1 REVERT JUMPDEST DUP2 CALLDATALOAD DUP2 DUP2 GT ISZERO PUSH2 0x1325 JUMPI PUSH1 0x0 DUP1 REVERT JUMPDEST DUP7 PUSH1 0x20 DUP3 DUP6 ADD ADD GT ISZERO PUSH2 0x1337 JUMPI PUSH1 0x0 DUP1 REVERT JUMPDEST PUSH1 0x20 SWAP3 SWAP1 SWAP3 ADD SWAP7 SWAP2 SWAP6 POP SWAP1 SWAP4 POP POP POP POP JUMP JUMPDEST PUSH1 0x0 PUSH1 0x20 DUP3 DUP5 SUB SLT ISZERO PUSH2 0x135B JUMPI PUSH1 0x0 DUP1 REVERT JUMPDEST DUP2 CALLDATALOAD PUSH8 0xFFFFFFFFFFFFFFFF DUP2 GT ISZERO PUSH2 0x1372 JUMPI PUSH1 0x0 DUP1 REVERT JUMPDEST DUP3 ADD PUSH2 0x160 DUP2 DUP6 SUB SLT ISZERO PUSH2 0xD90 JUMPI PUSH1 0x0 DUP1 REVERT JUMPDEST PUSH1 0x0 JUMPDEST DUP4 DUP2 LT ISZERO PUSH2 0x13A0 JUMPI DUP2 DUP2 ADD MLOAD DUP4 DUP3 ADD MSTORE PUSH1 0x20 ADD PUSH2 0x1388 JUMP JUMPDEST DUP4 DUP2 GT ISZERO PUSH2 0x13AF JUMPI PUSH1 0x0 DUP5 DUP5 ADD MSTORE JUMPDEST POP POP POP POP JUMP JUMPDEST PUSH1 0x0 DUP2 MLOAD DUP1 DUP5 MSTORE PUSH2 0x13CD DUP2 PUSH1 0x20 DUP7 ADD PUSH1 0x20 DUP7 ADD PUSH2 0x1385 JUMP JUMPDEST PUSH1 0x1F ADD PUSH1 0x1F NOT AND SWAP3 SWAP1 SWAP3 ADD PUSH1 0x20 ADD SWAP3 SWAP2 POP POP JUMP JUMPDEST PUSH1 0x0 PUSH1 0x40 DUP1 DUP4 MSTORE DUP5 MLOAD ISZERO ISZERO DUP2 DUP5 ADD MSTORE PUSH1 0x20 DUP1 DUP7 ADD MLOAD PUSH1 0x60 DUP6 ADD MSTORE DUP2 DUP7 ADD MLOAD PUSH1 0x60 PUSH1 0x80 DUP7 ADD MSTORE PUSH2 0x1413 PUSH1 0xA0 DUP7 ADD DUP3 PUSH2 0x13B5 JUMP JUMPDEST SWAP1 POP DUP5 DUP2 SUB DUP3 DUP7 ADD MSTORE PUSH2 0x160 DUP7 MLOAD DUP2 DUP4 MSTORE PUSH2 0x1430 DUP3 DUP5 ADD DUP3 PUSH2 0x13B5 JUMP JUMPDEST SWAP2 POP POP DUP3 DUP8 ADD MLOAD DUP3 DUP3 SUB DUP5 DUP5 ADD MSTORE DUP1 MLOAD DUP3 MSTORE DUP4 DUP2 ADD MLOAD DUP5 DUP4 ADD MSTORE DUP5 DUP2 ADD MLOAD ISZERO ISZERO DUP6 DUP4 ADD MSTORE PUSH1 0x60 DUP2 ADD MLOAD SWAP4 POP PUSH6 0xFFFFFFFFFFFF DUP1 DUP6 AND PUSH1 0x60 DUP5 ADD MSTORE DUP1 PUSH1 0x80 DUP4 ADD MLOAD AND PUSH1 0x80 DUP5 ADD MSTORE POP PUSH1 0xA0 DUP2 ADD MLOAD SWAP4 POP POP PUSH1 0xC0 PUSH1 0xA0 DUP3 ADD MSTORE PUSH2 0x1493 PUSH1 0xC0 DUP3 ADD DUP5 PUSH2 0x13B5 JUMP JUMPDEST SWAP3 POP POP DUP3 DUP7 ADD MLOAD PUSH2 0x14B0 DUP5 DUP4 ADD DUP3 DUP1 MLOAD DUP3 MSTORE PUSH1 0x20 SWAP1 DUP2 ADD MLOAD SWAP2 ADD MSTORE JUMP JUMPDEST POP PUSH1 0x60 DUP7 ADD MLOAD DUP1 MLOAD PUSH1 0x80 DUP4 ADD MSTORE PUSH1 0x20 DUP2 ADD MLOAD PUSH1 0xA0 DUP4 ADD MSTORE SWAP3 POP PUSH1 0x80 DUP7 ADD MLOAD DUP1 MLOAD PUSH1 0xC0 DUP4 ADD MSTORE PUSH1 0x20 DUP2 ADD MLOAD PUSH1 0xE0 DUP4 ADD MSTORE SWAP3 POP PUSH1 0xA0 DUP7 ADD MLOAD SWAP3 POP PUSH2 0x1521 PUSH2 0x100 DUP3 ADD DUP5 DUP1 MLOAD PUSH20 0xFFFFFFFFFFFFFFFFFFFFFFFFFFFFFFFFFFFFFFFF AND DUP3 MSTORE PUSH1 0x20 SWAP1 DUP2 ADD MLOAD DUP1 MLOAD DUP3 DUP5 ADD MSTORE ADD MLOAD PUSH1 0x40 SWAP1 SWAP2 ADD MSTORE JUMP JUMPDEST POP SWAP6 SWAP5 POP POP POP POP POP JUMP JUMPDEST PUSH32 0x4E487B7100000000000000000000000000000000000000000000000000000000 PUSH1 0x0 MSTORE PUSH1 0x32 PUSH1 0x4 MSTORE PUSH1 0x24 PUSH1 0x0 REVERT JUMPDEST PUSH1 0x20 DUP2 MSTORE PUSH2 0x1581 PUSH1 0x20 DUP3 ADD DUP4 MLOAD PUSH20 0xFFFFFFFFFFFFFFFFFFFFFFFFFFFFFFFFFFFFFFFF AND SWAP1 MSTORE JUMP JUMPDEST PUSH1 0x20 DUP3 ADD MLOAD PUSH1 0x40 DUP3 ADD MSTORE PUSH1 0x0 PUSH1 0x40 DUP4 ADD MLOAD PUSH2 0x160 DUP1 PUSH1 0x60 DUP6 ADD MSTORE PUSH2 0x15A9 PUSH2 0x180 DUP6 ADD DUP4 PUSH2 0x13B5 JUMP JUMPDEST SWAP2 POP PUSH1 0x60 DUP6 ADD MLOAD PUSH1 0x1F NOT DUP1 DUP7 DUP6 SUB ADD PUSH1 0x80 DUP8 ADD MSTORE PUSH2 0x15C7 DUP5 DUP4 PUSH2 0x13B5 JUMP JUMPDEST SWAP4 POP PUSH1 0x80 DUP8 ADD MLOAD PUSH1 0xA0 DUP8 ADD MSTORE PUSH1 0xA0 DUP8 ADD MLOAD PUSH1 0xC0 DUP8 ADD MSTORE PUSH1 0xC0 DUP8 ADD MLOAD PUSH1 0xE0 DUP8 ADD MSTORE PUSH1 0xE0 DUP8 ADD MLOAD SWAP2 POP PUSH2 0x100 DUP3 DUP2 DUP9 ADD MSTORE DUP1 DUP9 ADD MLOAD SWAP3 POP POP PUSH2 0x120 DUP3 DUP2 DUP9 ADD MSTORE DUP1 DUP9 ADD MLOAD SWAP3 POP POP PUSH2 0x140 DUP2 DUP8 DUP7 SUB ADD DUP2 DUP9 ADD MSTORE PUSH2 0x1622 DUP6 DUP5 PUSH2 0x13B5 JUMP JUMPDEST SWAP1 DUP9 ADD MLOAD DUP8 DUP3 SUB SWAP1 SWAP3 ADD DUP5 DUP9 ADD MSTORE SWAP4 POP SWAP1 POP PUSH2 0x163E DUP4 DUP3 PUSH2 0x13B5 JUMP JUMPDEST SWAP7 SWAP6 POP POP POP POP POP POP JUMP JUMPDEST PUSH1 0x0 PUSH1 0x20 DUP3 DUP5 SUB SLT ISZERO PUSH2 0x165A JUMPI PUSH1 0x0 DUP1 REVERT JUMPDEST POP MLOAD SWAP2 SWAP1 POP JUMP JUMPDEST PUSH32 0x4E487B7100000000000000000000000000000000000000000000000000000000 PUSH1 0x0 MSTORE PUSH1 0x11 PUSH1 0x4 MSTORE PUSH1 0x24 PUSH1 0x0 REVERT JUMPDEST PUSH1 0x0 PUSH32 0xFFFFFFFFFFFFFFFFFFFFFFFFFFFFFFFFFFFFFFFFFFFFFFFFFFFFFFFFFFFFFFFF DUP3 SUB PUSH2 0x16C1 JUMPI PUSH2 0x16C1 PUSH2 0x1661 JUMP JUMPDEST POP PUSH1 0x1 ADD SWAP1 JUMP JUMPDEST DUP2 DUP4 MSTORE DUP2 DUP2 PUSH1 0x20 DUP6 ADD CALLDATACOPY POP PUSH1 0x0 PUSH1 0x20 DUP3 DUP5 ADD ADD MSTORE PUSH1 0x0 PUSH1 0x20 PUSH1 0x1F NOT PUSH1 0x1F DUP5 ADD AND DUP5 ADD ADD SWAP1 POP SWAP3 SWAP2 POP POP JUMP JUMPDEST PUSH1 0x20 DUP2 MSTORE PUSH1 0x0 PUSH2 0x1707 PUSH1 0x20 DUP4 ADD DUP5 DUP7 PUSH2 0x16C8 JUMP JUMPDEST SWAP5 SWAP4 POP POP POP POP JUMP JUMPDEST PUSH1 0x0 DUP2 MLOAD PUSH1 0x20 DUP4 ADD MLOAD PUSH32 0xFFFFFFFF00000000000000000000000000000000000000000000000000000000 DUP1 DUP3 AND SWAP4 POP PUSH1 0x4 DUP4 LT ISZERO PUSH2 0x1757 JUMPI DUP1 DUP2 DUP5 PUSH1 0x4 SUB PUSH1 0x3 SHL SHL DUP4 AND AND SWAP4 POP JUMPDEST POP POP POP SWAP2 SWAP1 POP JUMP JUMPDEST PUSH1 0x0 DUP3 DUP3 LT ISZERO PUSH2 0x1771 JUMPI PUSH2 0x1771 PUSH2 0x1661 JUMP JUMPDEST POP SUB SWAP1 JUMP JUMPDEST PUSH1 0x0 PUSH1 0x20 DUP3 DUP5 SUB SLT ISZERO PUSH2 0x1788 JUMPI PUSH1 0x0 DUP1 REVERT JUMPDEST DUP2 MLOAD PUSH2 0xD90 DUP2 PUSH2 0xE93 JUMP JUMPDEST PUSH1 0x0 DUP1 DUP4 CALLDATALOAD PUSH32 0xFFFFFFFFFFFFFFFFFFFFFFFFFFFFFFFFFFFFFFFFFFFFFFFFFFFFFFFFFFFFFFE1 DUP5 CALLDATASIZE SUB ADD DUP2 SLT PUSH2 0x17C8 JUMPI PUSH1 0x0 DUP1 REVERT JUMPDEST DUP4 ADD PUSH1 0x20 DUP2 ADD SWAP3 POP CALLDATALOAD SWAP1 POP PUSH8 0xFFFFFFFFFFFFFFFF DUP2 GT ISZERO PUSH2 0x17E8 JUMPI PUSH1 0x0 DUP1 REVERT JUMPDEST DUP1 CALLDATASIZE SUB DUP3 SGT ISZERO PUSH2 0x17F7 JUMPI PUSH1 0x0 DUP1 REVERT JUMPDEST SWAP3 POP SWAP3 SWAP1 POP JUMP JUMPDEST PUSH1 0x20 DUP2 MSTORE PUSH2 0x182C PUSH1 0x20 DUP3 ADD PUSH2 0x1812 DUP5 PUSH2 0xFAC JUMP JUMPDEST PUSH20 0xFFFFFFFFFFFFFFFFFFFFFFFFFFFFFFFFFFFFFFFF AND SWAP1 MSTORE JUMP JUMPDEST PUSH1 0x20 DUP3 ADD CALLDATALOAD PUSH1 0x40 DUP3 ADD MSTORE PUSH1 0x0 PUSH2 0x1845 PUSH1 0x40 DUP5 ADD DUP5 PUSH2 0x1793 JUMP JUMPDEST PUSH2 0x160 DUP1 PUSH1 0x60 DUP7 ADD MSTORE PUSH2 0x185D PUSH2 0x180 DUP7 ADD DUP4 DUP6 PUSH2 0x16C8 JUMP JUMPDEST SWAP3 POP PUSH2 0x186C PUSH1 0x60 DUP8 ADD DUP8 PUSH2 0x1793 JUMP JUMPDEST SWAP3 POP PUSH1 0x1F NOT DUP1 DUP8 DUP7 SUB ADD PUSH1 0x80 DUP9 ADD MSTORE PUSH2 0x1886 DUP6 DUP6 DUP5 PUSH2 0x16C8 JUMP JUMPDEST SWAP5 POP PUSH1 0x80 DUP9 ADD CALLDATALOAD PUSH1 0xA0 DUP9 ADD MSTORE PUSH1 0xA0 DUP9 ADD CALLDATALOAD PUSH1 0xC0 DUP9 ADD MSTORE PUSH1 0xC0 DUP9 ADD CALLDATALOAD PUSH1 0xE0 DUP9 ADD MSTORE PUSH2 0x100 SWAP4 POP PUSH1 0xE0 DUP9 ADD CALLDATALOAD DUP5 DUP9 ADD MSTORE PUSH2 0x120 SWAP2 POP DUP4 DUP9 ADD CALLDATALOAD DUP3 DUP9 ADD MSTORE PUSH2 0x18CD DUP3 DUP10 ADD DUP10 PUSH2 0x1793 JUMP JUMPDEST SWAP5 POP SWAP2 POP PUSH2 0x140 DUP2 DUP9 DUP8 SUB ADD DUP2 DUP10 ADD MSTORE PUSH2 0x18E8 DUP7 DUP7 DUP6 PUSH2 0x16C8 JUMP JUMPDEST SWAP6 POP PUSH2 0x18F6 DUP2 DUP11 ADD DUP11 PUSH2 0x1793 JUMP JUMPDEST SWAP6 POP SWAP3 POP POP DUP1 DUP8 DUP7 SUB ADD DUP4 DUP9 ADD MSTORE POP PUSH2 0x12CC DUP5 DUP5 DUP4 PUSH2 0x16C8 JUMP JUMPDEST DUP1 MLOAD PUSH6 0xFFFFFFFFFFFF DUP2 AND DUP2 EQ PUSH2 0xFB7 JUMPI PUSH1 0x0 DUP1 REVERT JUMPDEST PUSH1 0x0 PUSH2 0x1934 PUSH2 0x1003 DUP5 PUSH2 0xFBC JUMP JUMPDEST SWAP1 POP DUP3 DUP2 MSTORE DUP4 DUP4 DUP4 ADD GT ISZERO PUSH2 0x1948 JUMPI PUSH1 0x0 DUP1 REVERT JUMPDEST PUSH2 0xD90 DUP4 PUSH1 0x20 DUP4 ADD DUP5 PUSH2 0x1385 JUMP JUMPDEST PUSH1 0x0 DUP3 PUSH1 0x1F DUP4 ADD SLT PUSH2 0x1967 JUMPI PUSH1 0x0 DUP1 REVERT JUMPDEST PUSH2 0xD90 DUP4 DUP4 MLOAD PUSH1 0x20 DUP6 ADD PUSH2 0x1926 JUMP JUMPDEST PUSH1 0x0 PUSH1 0xC0 DUP3 DUP5 SUB SLT ISZERO PUSH2 0x1988 JUMPI PUSH1 0x0 DUP1 REVERT JUMPDEST PUSH2 0x1990 PUSH2 0xF11 JUMP JUMPDEST SWAP1 POP DUP2 MLOAD DUP2 MSTORE PUSH1 0x20 DUP3 ADD MLOAD PUSH1 0x20 DUP3 ADD MSTORE PUSH1 0x40 DUP3 ADD MLOAD DUP1 ISZERO ISZERO DUP2 EQ PUSH2 0x19B3 JUMPI PUSH1 0x0 DUP1 REVERT JUMPDEST PUSH1 0x40 DUP3 ADD MSTORE PUSH2 0x19C4 PUSH1 0x60 DUP4 ADD PUSH2 0x1910 JUMP JUMPDEST PUSH1 0x60 DUP3 ADD MSTORE PUSH2 0x19D5 PUSH1 0x80 DUP4 ADD PUSH2 0x1910 JUMP JUMPDEST PUSH1 0x80 DUP3 ADD MSTORE PUSH1 0xA0 DUP3 ADD MLOAD PUSH8 0xFFFFFFFFFFFFFFFF DUP2 GT ISZERO PUSH2 0x19F4 JUMPI PUSH1 0x0 DUP1 REVERT JUMPDEST PUSH2 0x1A00 DUP5 DUP3 DUP6 ADD PUSH2 0x1956 JUMP JUMPDEST PUSH1 0xA0 DUP4 ADD MSTORE POP SWAP3 SWAP2 POP POP JUMP JUMPDEST PUSH1 0x0 PUSH1 0x40 DUP3 DUP5 SUB SLT ISZERO PUSH2 0x1A1E JUMPI PUSH1 0x0 DUP1 REVERT JUMPDEST PUSH2 0x1A26 PUSH2 0xF34 JUMP JUMPDEST SWAP1 POP DUP2 MLOAD DUP2 MSTORE PUSH1 0x20 DUP3 ADD MLOAD PUSH1 0x20 DUP3 ADD MSTORE SWAP3 SWAP2 POP POP JUMP JUMPDEST PUSH1 0x0 DUP1 PUSH1 0x0 DUP1 PUSH1 0xE0 DUP6 DUP8 SUB SLT ISZERO PUSH2 0x1A52 JUMPI PUSH1 0x0 DUP1 REVERT JUMPDEST DUP5 MLOAD PUSH8 0xFFFFFFFFFFFFFFFF DUP2 GT ISZERO PUSH2 0x1A69 JUMPI PUSH1 0x0 DUP1 REVERT JUMPDEST PUSH2 0x1A75 DUP8 DUP3 DUP9 ADD PUSH2 0x1976 JUMP JUMPDEST SWAP5 POP POP PUSH2 0x1A85 DUP7 PUSH1 0x20 DUP8 ADD PUSH2 0x1A0C JUMP JUMPDEST SWAP3 POP PUSH2 0x1A94 DUP7 PUSH1 0x60 DUP8 ADD PUSH2 0x1A0C JUMP JUMPDEST SWAP2 POP PUSH2 0x1AA3 DUP7 PUSH1 0xA0 DUP8 ADD PUSH2 0x1A0C JUMP JUMPDEST SWAP1 POP SWAP3 SWAP6 SWAP2 SWAP5 POP SWAP3 POP JUMP JUMPDEST PUSH1 0x1 DUP2 DUP2 SHR SWAP1 DUP3 AND DUP1 PUSH2 0x1AC2 JUMPI PUSH1 0x7F DUP3 AND SWAP2 POP JUMPDEST PUSH1 0x20 DUP3 LT DUP2 SUB PUSH2 0x1AFB JUMPI PUSH32 0x4E487B7100000000000000000000000000000000000000000000000000000000 PUSH1 0x0 MSTORE PUSH1 0x22 PUSH1 0x4 MSTORE PUSH1 0x24 PUSH1 0x0 REVERT JUMPDEST POP SWAP2 SWAP1 POP JUMP JUMPDEST PUSH1 0x0 DUP1 PUSH1 0x0 DUP1 PUSH1 0x0 DUP6 DUP8 SUB PUSH2 0x140 DUP2 SLT ISZERO PUSH2 0x1B1B JUMPI PUSH1 0x0 DUP1 REVERT JUMPDEST DUP7 MLOAD PUSH8 0xFFFFFFFFFFFFFFFF DUP2 GT ISZERO PUSH2 0x1B32 JUMPI PUSH1 0x0 DUP1 REVERT JUMPDEST PUSH2 0x1B3E DUP10 DUP3 DUP11 ADD PUSH2 0x1976 JUMP JUMPDEST SWAP7 POP POP PUSH2 0x1B4E DUP9 PUSH1 0x20 DUP10 ADD PUSH2 0x1A0C JUMP JUMPDEST SWAP5 POP PUSH2 0x1B5D DUP9 PUSH1 0x60 DUP10 ADD PUSH2 0x1A0C JUMP JUMPDEST SWAP4 POP PUSH2 0x1B6C DUP9 PUSH1 0xA0 DUP10 ADD PUSH2 0x1A0C JUMP JUMPDEST SWAP3 POP PUSH1 0x60 PUSH32 0xFFFFFFFFFFFFFFFFFFFFFFFFFFFFFFFFFFFFFFFFFFFFFFFFFFFFFFFFFFFFFF20 DUP3 ADD SLT ISZERO PUSH2 0x1B9E JUMPI PUSH1 0x0 DUP1 REVERT JUMPDEST POP PUSH2 0x1BA7 PUSH2 0xF34 JUMP JUMPDEST PUSH1 0xE0 DUP8 ADD MLOAD PUSH2 0x1BB5 DUP2 PUSH2 0xE93 JUMP JUMPDEST DUP2 MSTORE PUSH2 0x1BC5 DUP9 PUSH2 0x100 DUP10 ADD PUSH2 0x1A0C JUMP JUMPDEST PUSH1 0x20 DUP3 ADD MSTORE DUP1 SWAP2 POP POP SWAP3 SWAP6 POP SWAP3 SWAP6 SWAP1 SWAP4 POP JUMP JUMPDEST PUSH1 0x0 DUP1 PUSH1 0x40 DUP4 DUP6 SUB SLT ISZERO PUSH2 0x1BEB JUMPI PUSH1 0x0 DUP1 REVERT JUMPDEST DUP3 MLOAD SWAP2 POP PUSH1 0x20 DUP4 ADD MLOAD PUSH8 0xFFFFFFFFFFFFFFFF DUP2 GT ISZERO PUSH2 0x1C09 JUMPI PUSH1 0x0 DUP1 REVERT JUMPDEST DUP4 ADD PUSH1 0x1F DUP2 ADD DUP6 SGT PUSH2 0x1C1A JUMPI PUSH1 0x0 DUP1 REVERT JUMPDEST PUSH2 0x1C29 DUP6 DUP3 MLOAD PUSH1 0x20 DUP5 ADD PUSH2 0x1926 JUMP JUMPDEST SWAP2 POP POP SWAP3 POP SWAP3 SWAP1 POP JUMP JUMPDEST PUSH1 0x0 DUP3 NOT DUP3 GT ISZERO PUSH2 0x1C46 JUMPI PUSH2 0x1C46 PUSH2 0x1661 JUMP JUMPDEST POP ADD SWAP1 JUMP INVALID LOG2 PUSH5 0x6970667358 0x22 SLT KECCAK256 SWAP11 SHR PUSH19 0x52E82E84056F2A73F6C8F87A6651303771A673 INVALID DUP13 0xEB 0xE2 0xDB 0xE5 CHAINID PUSH28 0x390664736F6C634300080F0033000000000000000000000000000000 "},"gasEstimates":{"creation":{"codeDepositCost":"1459400","executionCost":"infinite","totalCost":"infinite"},"external":{"entryPoint()":"2335","getCodeHashes(address[])":"infinite","getSenderAddress(bytes)":"infinite","getUserOpHashes(address,(address,uint256,bytes,bytes,uint256,uint256,uint256,uint256,uint256,bytes,bytes)[])":"infinite","simulateValidation((address,uint256,bytes,bytes,uint256,uint256,uint256,uint256,uint256,bytes,bytes))":"infinite"},"internal":{"slice(bytes memory,uint256,uint256)":"infinite"}},"methodIdentifiers":{"entryPoint()":"b0d691fe","getCodeHashes(address[])":"7b34b621","getSenderAddress(bytes)":"9b249f69","getUserOpHashes(address,(address,uint256,bytes,bytes,uint256,uint256,uint256,uint256,uint256,bytes,bytes)[])":"3024e00c","simulateValidation((address,uint256,bytes,bytes,uint256,uint256,uint256,uint256,uint256,bytes,bytes))":"ee219423"}},"storageLayout":{"storage":[{"astId":99,"contract":"contracts/bundler/EntryPointWrapper.sol:EntryPointWrapper","label":"entryPoint","offset":0,"slot":"0","type":"t_contract(IEntryPoint)998"},{"astId":106,"contract":"contracts/bundler/EntryPointWrapper.sol:EntryPointWrapper","label":"emptyStakeInfo","offset":0,"slot":"1","type":"t_struct(StakeInfo)20_storage"},{"astId":116,"contract":"contracts/bundler/EntryPointWrapper.sol:EntryPointWrapper","label":"emptyAggregatorInfo","offset":0,"slot":"3","type":"t_struct(AggregatorStakeInfo)26_storage"},{"astId":130,"contract":"contracts/bundler/EntryPointWrapper.sol:EntryPointWrapper","label":"emptyReturnInfo","offset":0,"slot":"6","type":"t_struct(ReturnInfo)15_storage"},{"astId":141,"contract":"contracts/bundler/EntryPointWrapper.sol:EntryPointWrapper","label":"emptyResponse","offset":0,"slot":"10","type":"t_struct(Response)51_storage"},{"astId":149,"contract":"contracts/bundler/EntryPointWrapper.sol:EntryPointWrapper","label":"emptyFailedOp","offset":0,"slot":"24","type":"t_struct(FailedOpStatus)33_storage"}],"types":{"t_address":{"encoding":"inplace","label":"address","numberOfBytes":"20"},"t_bool":{"encoding":"inplace","label":"bool","numberOfBytes":"1"},"t_bytes_storage":{"encoding":"bytes","label":"bytes","numberOfBytes":"32"},"t_contract(IEntryPoint)998":{"encoding":"inplace","label":"contract IEntryPoint","numberOfBytes":"20"},"t_string_storage":{"encoding":"bytes","label":"string","numberOfBytes":"32"},"t_struct(AggregatorStakeInfo)26_storage":{"encoding":"inplace","label":"struct EntryPointWrapper.AggregatorStakeInfo","members":[{"astId":22,"contract":"contracts/bundler/EntryPointWrapper.sol:EntryPointWrapper","label":"aggregator","offset":0,"slot":"0","type":"t_address"},{"astId":25,"contract":"contracts/bundler/EntryPointWrapper.sol:EntryPointWrapper","label":"stakeInfo","offset":0,"slot":"1","type":"t_struct(StakeInfo)20_storage"}],"numberOfBytes":"96"},"t_struct(FailedOpStatus)33_storage":{"encoding":"inplace","label":"struct EntryPointWrapper.FailedOpStatus","members":[{"astId":28,"contract":"contracts/bundler/EntryPointWrapper.sol:EntryPointWrapper","label":"status","offset":0,"slot":"0","type":"t_bool"},{"astId":30,"contract":"contracts/bundler/EntryPointWrapper.sol:EntryPointWrapper","label":"opIndex","offset":0,"slot":"1","type":"t_uint256"},{"astId":32,"contract":"contracts/bundler/EntryPointWrapper.sol:EntryPointWrapper","label":"reason","offset":0,"slot":"2","type":"t_string_storage"}],"numberOfBytes":"96"},"t_struct(Response)51_storage":{"encoding":"inplace","label":"struct EntryPointWrapper.Response","members":[{"astId":35,"contract":"contracts/bundler/EntryPointWrapper.sol:EntryPointWrapper","label":"selectorType","offset":0,"slot":"0","type":"t_string_storage"},{"astId":38,"contract":"contracts/bundler/EntryPointWrapper.sol:EntryPointWrapper","label":"returnInfo","offset":0,"slot":"1","type":"t_struct(ReturnInfo)15_storage"},{"astId":41,"contract":"contracts/bundler/EntryPointWrapper.sol:EntryPointWrapper","label":"senderInfo","offset":0,"slot":"5","type":"t_struct(StakeInfo)20_storage"},{"astId":44,"contract":"contracts/bundler/EntryPointWrapper.sol:EntryPointWrapper","label":"factoryInfo","offset":0,"slot":"7","type":"t_struct(StakeInfo)20_storage"},{"astId":47,"contract":"contracts/bundler/EntryPointWrapper.sol:EntryPointWrapper","label":"paymasterInfo","offset":0,"slot":"9","type":"t_struct(StakeInfo)20_storage"},{"astId":50,"contract":"contracts/bundler/EntryPointWrapper.sol:EntryPointWrapper","label":"aggregatorInfo","offset":0,"slot":"11","type":"t_struct(AggregatorStakeInfo)26_storage"}],"numberOfBytes":"448"},"t_struct(ReturnInfo)15_storage":{"encoding":"inplace","label":"struct EntryPointWrapper.ReturnInfo","members":[{"astId":4,"contract":"contracts/bundler/EntryPointWrapper.sol:EntryPointWrapper","label":"preOpGas","offset":0,"slot":"0","type":"t_uint256"},{"astId":6,"contract":"contracts/bundler/EntryPointWrapper.sol:EntryPointWrapper","label":"prefund","offset":0,"slot":"1","type":"t_uint256"},{"astId":8,"contract":"contracts/bundler/EntryPointWrapper.sol:EntryPointWrapper","label":"sigFailed","offset":0,"slot":"2","type":"t_bool"},{"astId":10,"contract":"contracts/bundler/EntryPointWrapper.sol:EntryPointWrapper","label":"validAfter","offset":1,"slot":"2","type":"t_uint48"},{"astId":12,"contract":"contracts/bundler/EntryPointWrapper.sol:EntryPointWrapper","label":"validUntil","offset":7,"slot":"2","type":"t_uint48"},{"astId":14,"contract":"contracts/bundler/EntryPointWrapper.sol:EntryPointWrapper","label":"paymasterContext","offset":0,"slot":"3","type":"t_bytes_storage"}],"numberOfBytes":"128"},"t_struct(StakeInfo)20_storage":{"encoding":"inplace","label":"struct EntryPointWrapper.StakeInfo","members":[{"astId":17,"contract":"contracts/bundler/EntryPointWrapper.sol:EntryPointWrapper","label":"stake","offset":0,"slot":"0","type":"t_uint256"},{"astId":19,"contract":"contracts/bundler/EntryPointWrapper.sol:EntryPointWrapper","label":"unstakeDelaySec","offset":0,"slot":"1","type":"t_uint256"}],"numberOfBytes":"64"},"t_uint256":{"encoding":"inplace","label":"uint256","numberOfBytes":"32"},"t_uint48":{"encoding":"inplace","label":"uint48","numberOfBytes":"6"}}},"userdoc":{"errors":{"FailedOp(uint256,string)":[{"notice":"a custom revert error of handleOps, to identify the offending op.  NOTE: if simulateValidation passes successfully, there should be no reason for handleOps to fail on it."}],"SenderAddressResult(address)":[{"notice":"return value of getSenderAddress"}],"ValidationResult((uint256,uint256,bool,uint48,uint48,bytes),(uint256,uint256),(uint256,uint256),(uint256,uint256))":[{"notice":"Successful result from simulateValidation."}],"ValidationResultWithAggregation((uint256,uint256,bool,uint48,uint48,bytes),(uint256,uint256),(uint256,uint256),(uint256,uint256),(address,(uint256,uint256)))":[{"notice":"Successful result from simulateValidation, if the account returns a signature aggregator"}]},"kind":"user","methods":{},"version":1}}}}