{
  "address": "0x5fD2CF99586B9D92f56CbaD0A3Ea4DF256A0070B",
  "abi": [
    {
      "inputs": [
        {
          "internalType": "address",
          "name": "_libAddressManager",
          "type": "address"
        }
      ],
      "stateMutability": "nonpayable",
      "type": "constructor"
    },
    {
      "inputs": [
        {
          "components": [
            {
              "internalType": "address",
              "name": "target",
              "type": "address"
            },
            {
              "internalType": "address",
              "name": "sender",
              "type": "address"
            },
            {
              "internalType": "bytes",
              "name": "message",
              "type": "bytes"
            },
            {
              "internalType": "uint256",
              "name": "messageNonce",
              "type": "uint256"
            },
            {
              "components": [
                {
                  "internalType": "bytes32",
                  "name": "stateRoot",
                  "type": "bytes32"
                },
                {
                  "components": [
                    {
                      "internalType": "uint256",
                      "name": "batchIndex",
                      "type": "uint256"
                    },
                    {
                      "internalType": "bytes32",
                      "name": "batchRoot",
                      "type": "bytes32"
                    },
                    {
                      "internalType": "uint256",
                      "name": "batchSize",
                      "type": "uint256"
                    },
                    {
                      "internalType": "uint256",
                      "name": "prevTotalElements",
                      "type": "uint256"
                    },
                    {
                      "internalType": "bytes",
                      "name": "extraData",
                      "type": "bytes"
                    }
                  ],
                  "internalType": "struct Lib_OVMCodec.ChainBatchHeader",
                  "name": "stateRootBatchHeader",
                  "type": "tuple"
                },
                {
                  "components": [
                    {
                      "internalType": "uint256",
                      "name": "index",
                      "type": "uint256"
                    },
                    {
                      "internalType": "bytes32[]",
                      "name": "siblings",
                      "type": "bytes32[]"
                    }
                  ],
                  "internalType": "struct Lib_OVMCodec.ChainInclusionProof",
                  "name": "stateRootProof",
                  "type": "tuple"
                },
                {
                  "internalType": "bytes",
                  "name": "stateTrieWitness",
                  "type": "bytes"
                },
                {
                  "internalType": "bytes",
                  "name": "storageTrieWitness",
                  "type": "bytes"
                }
              ],
              "internalType": "struct IL1CrossDomainMessenger.L2MessageInclusionProof",
              "name": "proof",
              "type": "tuple"
            }
          ],
          "internalType": "struct L1MultiMessageRelayer.L2ToL1Message[]",
          "name": "_messages",
          "type": "tuple[]"
        }
      ],
      "name": "batchRelayMessages",
      "outputs": [],
      "stateMutability": "nonpayable",
      "type": "function"
    },
    {
      "inputs": [],
      "name": "libAddressManager",
      "outputs": [
        {
          "internalType": "contract Lib_AddressManager",
          "name": "",
          "type": "address"
        }
      ],
      "stateMutability": "view",
      "type": "function"
    },
    {
      "inputs": [
        {
          "internalType": "string",
          "name": "_name",
          "type": "string"
        }
      ],
      "name": "resolve",
      "outputs": [
        {
          "internalType": "address",
          "name": "",
          "type": "address"
        }
      ],
      "stateMutability": "view",
      "type": "function"
    }
  ],
  "transactionHash": "0x01ed9496366a2c181efa65a44750ace599e542a4390c8eee494dd722fedea1f4",
  "args": [
    "0x8376ac6C3f73a25Dd994E0b0669ca7ee0C02F089"
  ],
  "solcInputHash": "f009f67f4ef4065b744742a642e24755",
  "bytecode": "0x608060405234801561001057600080fd5b50604051610bd6380380610bd683398101604081905261002f91610054565b600080546001600160a01b0319166001600160a01b0392909216919091179055610084565b60006020828403121561006657600080fd5b81516001600160a01b038116811461007d57600080fd5b9392505050565b610b43806100936000396000f3fe608060405234801561001057600080fd5b50600436106100415760003560e01c806316e9cd9b14610046578063299ca4781461005b578063461a4478146100a4575b600080fd5b6100596100543660046103bd565b6100b7565b005b60005461007b9073ffffffffffffffffffffffffffffffffffffffff1681565b60405173ffffffffffffffffffffffffffffffffffffffff909116815260200160405180910390f35b61007b6100b2366004610572565b610310565b6100f56040518060400160405280601581526020017f4c3242617463684d65737361676552656c617965720000000000000000000000815250610310565b73ffffffffffffffffffffffffffffffffffffffff163373ffffffffffffffffffffffffffffffffffffffff16146101d9576040517f08c379a000000000000000000000000000000000000000000000000000000000815260206004820152604f60248201527f4c314d756c74694d65737361676552656c617965723a2046756e6374696f6e2060448201527f63616e206f6e6c792062652063616c6c656420627920746865204c324261746360648201527f684d65737361676552656c617965720000000000000000000000000000000000608482015260a40160405180910390fd5b60006102196040518060400160405280601d81526020017f50726f78795f5f4c3143726f7373446f6d61696e4d657373656e676572000000815250610310565b905060005b8281101561030a57600084848381811061023a5761023a6105c3565b905060200281019061024c91906105f2565b610255906107a8565b805160208201516040808401516060850151608086015192517fd7fd19dd00000000000000000000000000000000000000000000000000000000815295965073ffffffffffffffffffffffffffffffffffffffff89169563d7fd19dd956102c4959094909392916004016109b1565b600060405180830381600087803b1580156102de57600080fd5b505af11580156102f2573d6000803e3d6000fd5b5050505050808061030290610aa6565b91505061021e565b50505050565b600080546040517fbf40fac100000000000000000000000000000000000000000000000000000000815273ffffffffffffffffffffffffffffffffffffffff9091169063bf40fac190610367908590600401610b06565b60206040518083038186803b15801561037f57600080fd5b505afa158015610393573d6000803e3d6000fd5b505050506040513d601f19601f820116820180604052508101906103b79190610b19565b92915050565b600080602083850312156103d057600080fd5b823567ffffffffffffffff808211156103e857600080fd5b818501915085601f8301126103fc57600080fd5b81358181111561040b57600080fd5b8660208260051b850101111561042057600080fd5b60209290920196919550909350505050565b7f4e487b7100000000000000000000000000000000000000000000000000000000600052604160045260246000fd5b60405160a0810167ffffffffffffffff8111828210171561048457610484610432565b60405290565b6040805190810167ffffffffffffffff8111828210171561048457610484610432565b604051601f82017fffffffffffffffffffffffffffffffffffffffffffffffffffffffffffffffe016810167ffffffffffffffff811182821017156104f4576104f4610432565b604052919050565b600067ffffffffffffffff83111561051657610516610432565b61054760207fffffffffffffffffffffffffffffffffffffffffffffffffffffffffffffffe0601f860116016104ad565b905082815283838301111561055b57600080fd5b828260208301376000602084830101529392505050565b60006020828403121561058457600080fd5b813567ffffffffffffffff81111561059b57600080fd5b8201601f810184136105ac57600080fd5b6105bb848235602084016104fc565b949350505050565b7f4e487b7100000000000000000000000000000000000000000000000000000000600052603260045260246000fd5b600082357fffffffffffffffffffffffffffffffffffffffffffffffffffffffffffffff6183360301811261062657600080fd5b9190910192915050565b73ffffffffffffffffffffffffffffffffffffffff8116811461065257600080fd5b50565b600082601f83011261066657600080fd5b610675838335602085016104fc565b9392505050565b600060a0828403121561068e57600080fd5b610696610461565b905081358152602082013560208201526040820135604082015260608201356060820152608082013567ffffffffffffffff8111156106d457600080fd5b6106e084828501610655565b60808301525092915050565b6000604082840312156106fe57600080fd5b61070661048a565b90508135815260208083013567ffffffffffffffff8082111561072857600080fd5b818501915085601f83011261073c57600080fd5b81358181111561074e5761074e610432565b8060051b915061075f8483016104ad565b818152918301840191848101908884111561077957600080fd5b938501935b838510156107975784358252938501939085019061077e565b808688015250505050505092915050565b600060a082360312156107ba57600080fd5b6107c2610461565b82356107cd81610630565b815260208301356107dd81610630565b6020820152604083013567ffffffffffffffff808211156107fd57600080fd5b61080936838701610655565b604084015260608501356060840152608085013591508082111561082c57600080fd5b818501915060a0823603121561084157600080fd5b610849610461565b8235815260208301358281111561085f57600080fd5b61086b3682860161067c565b60208301525060408301358281111561088357600080fd5b61088f368286016106ec565b6040830152506060830135828111156108a757600080fd5b6108b336828601610655565b6060830152506080830135828111156108cb57600080fd5b6108d736828601610655565b60808301525080608085015250505080915050919050565b6000815180845260005b81811015610915576020818501810151868301820152016108f9565b81811115610927576000602083870101525b50601f017fffffffffffffffffffffffffffffffffffffffffffffffffffffffffffffffe0169290920160200192915050565b600060408301825184526020808401516040828701528281518085526060880191508383019450600092505b808310156109a65784518252938301936001929092019190830190610986565b509695505050505050565b600073ffffffffffffffffffffffffffffffffffffffff808816835280871660208401525060a060408301526109ea60a08301866108ef565b846060840152828103608084015283518152602084015160a06020830152805160a0830152602081015160c0830152604081015160e083015260608101516101008301526080810151905060a0610120830152610a4b6101408301826108ef565b905060408501518282036040840152610a64828261095a565b91505060608501518282036060840152610a7e82826108ef565b91505060808501518282036080840152610a9882826108ef565b9a9950505050505050505050565b60007fffffffffffffffffffffffffffffffffffffffffffffffffffffffffffffffff821415610aff577f4e487b7100000000000000000000000000000000000000000000000000000000600052601160045260246000fd5b5060010190565b60208152600061067560208301846108ef565b600060208284031215610b2b57600080fd5b81516106758161063056fea164736f6c6343000809000a",
  "devdoc": {
    "details": "The L1 Multi-Message Relayer contract is a gas efficiency optimization which enables the relayer to submit multiple messages in a single transaction to be relayed by the L1 Cross Domain Message Sender. Compiler used: solc Runtime target: EVM",
    "kind": "dev",
    "methods": {
      "batchRelayMessages((address,address,bytes,uint256,(bytes32,(uint256,bytes32,uint256,uint256,bytes),(uint256,bytes32[]),bytes,bytes))[])": {
        "params": {
          "_messages": "An array of L2 to L1 messages"
        }
      },
      "constructor": {
        "params": {
          "_libAddressManager": "Address of the Address Manager."
        }
      },
      "resolve(string)": {
        "params": {
          "_name": "Name to resolve an address for."
        },
        "returns": {
          "_0": "Address associated with the given name."
        }
      }
    },
    "title": "L1MultiMessageRelayer",
    "version": 1
  },
  "userdoc": {
    "kind": "user",
    "methods": {
      "batchRelayMessages((address,address,bytes,uint256,(bytes32,(uint256,bytes32,uint256,uint256,bytes),(uint256,bytes32[]),bytes,bytes))[])": {
        "notice": "Forwards multiple cross domain messages to the L1 Cross Domain Messenger for relaying"
      },
      "resolve(string)": {
        "notice": "Resolves the address associated with a given name."
      }
    },
    "version": 1
  },
  "storageLayout": {
    "storage": [
      {
        "astId": 6644,
        "contract": "contracts/L1/messaging/L1MultiMessageRelayer.sol:L1MultiMessageRelayer",
        "label": "libAddressManager",
        "offset": 0,
        "slot": "0",
        "type": "t_contract(Lib_AddressManager)6636"
      }
    ],
    "types": {
      "t_contract(Lib_AddressManager)6636": {
        "encoding": "inplace",
        "label": "contract Lib_AddressManager",
        "numberOfBytes": "20"
      }
    }
  }
}