{
  "contracts/ValueCalls.sol": {
    "ValueContext": {
      "abi": [
        {
          "inputs": [],
          "name": "getAddressThisBalance",
          "outputs": [
            {
              "internalType": "uint256",
              "name": "",
              "type": "uint256"
            }
          ],
          "stateMutability": "view",
          "type": "function"
        },
        {
          "inputs": [
            {
              "internalType": "address",
              "name": "_address",
              "type": "address"
            }
          ],
          "name": "getBalance",
          "outputs": [
            {
              "internalType": "uint256",
              "name": "",
              "type": "uint256"
            }
          ],
          "stateMutability": "payable",
          "type": "function"
        },
        {
          "inputs": [],
          "name": "getCallValue",
          "outputs": [
            {
              "internalType": "uint256",
              "name": "",
              "type": "uint256"
            }
          ],
          "stateMutability": "payable",
          "type": "function"
        },
        {
          "inputs": [],
          "name": "getSelfBalance",
          "outputs": [
            {
              "internalType": "uint256",
              "name": "",
              "type": "uint256"
            }
          ],
          "stateMutability": "payable",
          "type": "function"
        }
      ],
      "evm": {
        "bytecode": {
          "linkReferences": {},
          "object": "608060405234801561001057600080fd5b5060d68061001f6000396000f3fe608060405260043610603a5760003560e01c8063048a5fed14603f578063c328c84f146053578063c6c01dd2146064578063f8b2cb4f146069575b600080fd5b475b60405190815260200160405180910390f35b348015605e57600080fd5b50476041565b346041565b60416074366004608e565b73ffffffffffffffffffffffffffffffffffffffff163190565b600060208284031215609f57600080fd5b813573ffffffffffffffffffffffffffffffffffffffff8116811460c257600080fd5b939250505056fea164736f6c6343000809000a",
          "opcodes": "PUSH1 0x80 PUSH1 0x40 MSTORE CALLVALUE DUP1 ISZERO PUSH2 0x10 JUMPI PUSH1 0x0 DUP1 REVERT JUMPDEST POP PUSH1 0xD6 DUP1 PUSH2 0x1F PUSH1 0x0 CODECOPY PUSH1 0x0 RETURN INVALID PUSH1 0x80 PUSH1 0x40 MSTORE PUSH1 0x4 CALLDATASIZE LT PUSH1 0x3A JUMPI PUSH1 0x0 CALLDATALOAD PUSH1 0xE0 SHR DUP1 PUSH4 0x48A5FED EQ PUSH1 0x3F JUMPI DUP1 PUSH4 0xC328C84F EQ PUSH1 0x53 JUMPI DUP1 PUSH4 0xC6C01DD2 EQ PUSH1 0x64 JUMPI DUP1 PUSH4 0xF8B2CB4F EQ PUSH1 0x69 JUMPI JUMPDEST PUSH1 0x0 DUP1 REVERT JUMPDEST SELFBALANCE JUMPDEST PUSH1 0x40 MLOAD SWAP1 DUP2 MSTORE PUSH1 0x20 ADD PUSH1 0x40 MLOAD DUP1 SWAP2 SUB SWAP1 RETURN JUMPDEST CALLVALUE DUP1 ISZERO PUSH1 0x5E JUMPI PUSH1 0x0 DUP1 REVERT JUMPDEST POP SELFBALANCE PUSH1 0x41 JUMP JUMPDEST CALLVALUE PUSH1 0x41 JUMP JUMPDEST PUSH1 0x41 PUSH1 0x74 CALLDATASIZE PUSH1 0x4 PUSH1 0x8E JUMP JUMPDEST PUSH20 0xFFFFFFFFFFFFFFFFFFFFFFFFFFFFFFFFFFFFFFFF AND BALANCE SWAP1 JUMP JUMPDEST PUSH1 0x0 PUSH1 0x20 DUP3 DUP5 SUB SLT ISZERO PUSH1 0x9F JUMPI PUSH1 0x0 DUP1 REVERT JUMPDEST DUP2 CALLDATALOAD PUSH20 0xFFFFFFFFFFFFFFFFFFFFFFFFFFFFFFFFFFFFFFFF DUP2 AND DUP2 EQ PUSH1 0xC2 JUMPI PUSH1 0x0 DUP1 REVERT JUMPDEST SWAP4 SWAP3 POP POP POP JUMP INVALID LOG1 PUSH5 0x736F6C6343 STOP ADDMOD MULMOD STOP EXP "
        },
        "methodIdentifiers": {
          "getAddressThisBalance()": "c328c84f",
          "getBalance(address)": "f8b2cb4f",
          "getCallValue()": "c6c01dd2",
          "getSelfBalance()": "048a5fed"
        }
      },
      "storageLayout": {
        "storage": [],
        "types": null
      }
    }
  }
}