{
  "_format": "hh-sol-artifact-1",
  "contractName": "Boba_GasPriceOracle",
  "sourceName": "contracts/L2/predeploys/Boba_GasPriceOracle.sol",
  "abi": [
    {
      "inputs": [
        {
          "internalType": "address",
          "name": "_l1FeeWallet",
          "type": "address"
        },
        {
          "internalType": "address",
          "name": "_l2BobaAddress",
          "type": "address"
        }
      ],
      "stateMutability": "nonpayable",
      "type": "constructor"
    },
    {
      "anonymous": false,
      "inputs": [
        {
          "indexed": false,
          "internalType": "address",
          "name": "",
          "type": "address"
        },
        {
          "indexed": false,
          "internalType": "address",
          "name": "",
          "type": "address"
        }
      ],
      "name": "TransferOwnership",
      "type": "event"
    },
    {
      "anonymous": false,
      "inputs": [
        {
          "indexed": false,
          "internalType": "address",
          "name": "",
          "type": "address"
        },
        {
          "indexed": false,
          "internalType": "address",
          "name": "",
          "type": "address"
        }
      ],
      "name": "UpdateGasPriceOracleAddress",
      "type": "event"
    },
    {
      "anonymous": false,
      "inputs": [
        {
          "indexed": false,
          "internalType": "address",
          "name": "",
          "type": "address"
        },
        {
          "indexed": false,
          "internalType": "uint256",
          "name": "",
          "type": "uint256"
        }
      ],
      "name": "UpdateMaxPriceRatio",
      "type": "event"
    },
    {
      "anonymous": false,
      "inputs": [
        {
          "indexed": false,
          "internalType": "address",
          "name": "",
          "type": "address"
        },
        {
          "indexed": false,
          "internalType": "uint256",
          "name": "",
          "type": "uint256"
        }
      ],
      "name": "UpdateMetaTransactionFee",
      "type": "event"
    },
    {
      "anonymous": false,
      "inputs": [
        {
          "indexed": false,
          "internalType": "address",
          "name": "",
          "type": "address"
        },
        {
          "indexed": false,
          "internalType": "uint256",
          "name": "",
          "type": "uint256"
        }
      ],
      "name": "UpdateMinPriceRatio",
      "type": "event"
    },
    {
      "anonymous": false,
      "inputs": [
        {
          "indexed": false,
          "internalType": "address",
          "name": "",
          "type": "address"
        },
        {
          "indexed": false,
          "internalType": "uint256",
          "name": "",
          "type": "uint256"
        }
      ],
      "name": "UpdatePriceRatio",
      "type": "event"
    },
    {
      "anonymous": false,
      "inputs": [
        {
          "indexed": false,
          "internalType": "address",
          "name": "",
          "type": "address"
        }
      ],
      "name": "UseBobaAsFeeToken",
      "type": "event"
    },
    {
      "anonymous": false,
      "inputs": [
        {
          "indexed": false,
          "internalType": "address",
          "name": "",
          "type": "address"
        }
      ],
      "name": "UseBobaAsFeeTokenMetaTransaction",
      "type": "event"
    },
    {
      "anonymous": false,
      "inputs": [
        {
          "indexed": false,
          "internalType": "address",
          "name": "",
          "type": "address"
        }
      ],
      "name": "UseETHAsFeeToken",
      "type": "event"
    },
    {
      "anonymous": false,
      "inputs": [
        {
          "indexed": false,
          "internalType": "address",
          "name": "",
          "type": "address"
        },
        {
          "indexed": false,
          "internalType": "address",
          "name": "",
          "type": "address"
        }
      ],
      "name": "Withdraw",
      "type": "event"
    },
    {
      "inputs": [],
      "name": "MIN_WITHDRAWAL_AMOUNT",
      "outputs": [
        {
          "internalType": "uint256",
          "name": "",
          "type": "uint256"
        }
      ],
      "stateMutability": "view",
      "type": "function"
    },
    {
      "inputs": [
        {
          "internalType": "address",
          "name": "",
          "type": "address"
        }
      ],
      "name": "bobaFeeTokenUsers",
      "outputs": [
        {
          "internalType": "bool",
          "name": "",
          "type": "bool"
        }
      ],
      "stateMutability": "view",
      "type": "function"
    },
    {
      "inputs": [],
      "name": "gasPriceOracleAddress",
      "outputs": [
        {
          "internalType": "address",
          "name": "",
          "type": "address"
        }
      ],
      "stateMutability": "view",
      "type": "function"
    },
    {
      "inputs": [
        {
          "internalType": "bytes",
          "name": "_txData",
          "type": "bytes"
        }
      ],
      "name": "getL1BobaFee",
      "outputs": [
        {
          "internalType": "uint256",
          "name": "",
          "type": "uint256"
        }
      ],
      "stateMutability": "view",
      "type": "function"
    },
    {
      "inputs": [
        {
          "internalType": "address",
          "name": "_l1FeeWallet",
          "type": "address"
        },
        {
          "internalType": "address",
          "name": "_l2BobaAddress",
          "type": "address"
        }
      ],
      "name": "initialize",
      "outputs": [],
      "stateMutability": "nonpayable",
      "type": "function"
    },
    {
      "inputs": [],
      "name": "l1FeeWallet",
      "outputs": [
        {
          "internalType": "address",
          "name": "",
          "type": "address"
        }
      ],
      "stateMutability": "view",
      "type": "function"
    },
    {
      "inputs": [],
      "name": "l2BobaAddress",
      "outputs": [
        {
          "internalType": "address",
          "name": "",
          "type": "address"
        }
      ],
      "stateMutability": "view",
      "type": "function"
    },
    {
      "inputs": [],
      "name": "maxPriceRatio",
      "outputs": [
        {
          "internalType": "uint256",
          "name": "",
          "type": "uint256"
        }
      ],
      "stateMutability": "view",
      "type": "function"
    },
    {
      "inputs": [],
      "name": "metaTransactionFee",
      "outputs": [
        {
          "internalType": "uint256",
          "name": "",
          "type": "uint256"
        }
      ],
      "stateMutability": "view",
      "type": "function"
    },
    {
      "inputs": [],
      "name": "minPriceRatio",
      "outputs": [
        {
          "internalType": "uint256",
          "name": "",
          "type": "uint256"
        }
      ],
      "stateMutability": "view",
      "type": "function"
    },
    {
      "inputs": [],
      "name": "owner",
      "outputs": [
        {
          "internalType": "address",
          "name": "",
          "type": "address"
        }
      ],
      "stateMutability": "view",
      "type": "function"
    },
    {
      "inputs": [],
      "name": "priceRatio",
      "outputs": [
        {
          "internalType": "uint256",
          "name": "",
          "type": "uint256"
        }
      ],
      "stateMutability": "view",
      "type": "function"
    },
    {
      "inputs": [
        {
          "internalType": "address",
          "name": "_newOwner",
          "type": "address"
        }
      ],
      "name": "transferOwnership",
      "outputs": [],
      "stateMutability": "nonpayable",
      "type": "function"
    },
    {
      "inputs": [
        {
          "internalType": "address",
          "name": "_gasPriceOracleAddress",
          "type": "address"
        }
      ],
      "name": "updateGasPriceOracleAddress",
      "outputs": [],
      "stateMutability": "nonpayable",
      "type": "function"
    },
    {
      "inputs": [
        {
          "internalType": "uint256",
          "name": "_maxPriceRatio",
          "type": "uint256"
        }
      ],
      "name": "updateMaxPriceRatio",
      "outputs": [],
      "stateMutability": "nonpayable",
      "type": "function"
    },
    {
      "inputs": [
        {
          "internalType": "uint256",
          "name": "_metaTransactionFee",
          "type": "uint256"
        }
      ],
      "name": "updateMetaTransactionFee",
      "outputs": [],
      "stateMutability": "nonpayable",
      "type": "function"
    },
    {
      "inputs": [
        {
          "internalType": "uint256",
          "name": "_minPriceRatio",
          "type": "uint256"
        }
      ],
      "name": "updateMinPriceRatio",
      "outputs": [],
      "stateMutability": "nonpayable",
      "type": "function"
    },
    {
      "inputs": [
        {
          "internalType": "uint256",
          "name": "_priceRatio",
          "type": "uint256"
        }
      ],
      "name": "updatePriceRatio",
      "outputs": [],
      "stateMutability": "nonpayable",
      "type": "function"
    },
    {
      "inputs": [],
      "name": "useBobaAsFeeToken",
      "outputs": [],
      "stateMutability": "nonpayable",
      "type": "function"
    },
    {
      "inputs": [
        {
          "internalType": "address",
          "name": "tokenOwner",
          "type": "address"
        },
        {
          "internalType": "address",
          "name": "spender",
          "type": "address"
        },
        {
          "internalType": "uint256",
          "name": "value",
          "type": "uint256"
        },
        {
          "internalType": "uint256",
          "name": "deadline",
          "type": "uint256"
        },
        {
          "internalType": "uint8",
          "name": "v",
          "type": "uint8"
        },
        {
          "internalType": "bytes32",
          "name": "r",
          "type": "bytes32"
        },
        {
          "internalType": "bytes32",
          "name": "s",
          "type": "bytes32"
        }
      ],
      "name": "useBobaAsFeeTokenMetaTransaction",
      "outputs": [],
      "stateMutability": "nonpayable",
      "type": "function"
    },
    {
      "inputs": [],
      "name": "useETHAsFeeToken",
      "outputs": [],
      "stateMutability": "nonpayable",
      "type": "function"
    },
    {
      "inputs": [],
      "name": "withdraw",
      "outputs": [],
      "stateMutability": "nonpayable",
      "type": "function"
    }
  ],
  "bytecode": "0x60806040526113886003556101f4600455600680546001600160a01b03191673420000000000000000000000000000000000000f1790556729a2241af62c00006008553480156200004f57600080fd5b5060405162001951380380620019518339810160408190526200007291620000fc565b6001600160a01b038216158015906200009357506001600160a01b03811615155b6200009d57600080fd5b600180546001600160a01b039384166001600160a01b031991821617909155600280549290931691811691909117909155600080549091163317905562000134565b80516001600160a01b0381168114620000f757600080fd5b919050565b600080604083850312156200011057600080fd5b6200011b83620000df565b91506200012b60208401620000df565b90509250929050565b61180d80620001446000396000f3fe608060405234801561001057600080fd5b50600436106101815760003560e01c8063872ea499116100d8578063d3e5792b1161008c578063d8bd926011610066578063d8bd9260146102ee578063e3aea9ba14610301578063f2fde38b1461031457600080fd5b8063d3e5792b146102c2578063d4ff9218146102d2578063d86732ef146102e557600080fd5b80638fcfc813116100bd5780638fcfc81314610293578063c8a05413146102a6578063d2e1fb22146102b957600080fd5b8063872ea499146102795780638da5cb5b1461028257600080fd5b80632cf12ae51161013a578063485cc95511610114578063485cc955146102205780636805491b146102335780637728195c1461026657600080fd5b80632cf12ae5146101fd57806334fe1b16146102105780633ccfd60b1461021857600080fd5b80631b6771991161016b5780631b677199146101b757806323ec6320146101bf57806324b20eda146101d257600080fd5b80625c5fb2146101865780630aa2f4201461019b575b600080fd5b61019961019436600461148a565b610327565b005b6101a460055481565b6040519081526020015b60405180910390f35b610199610412565b6101a46101cd3660046114d2565b6104cd565b6002546101e5906001600160a01b031681565b6040516001600160a01b0390911681526020016101ae565b61019961020b3660046115bd565b61057e565b6101996107ba565b610199610872565b61019961022e366004611630565b610b1b565b610256610241366004611663565b60076020526000908152604090205460ff1681565b60405190151581526020016101ae565b6006546101e5906001600160a01b031681565b6101a460085481565b6000546001600160a01b03166101e5565b6101996102a1366004611663565b610c93565b6101996102b436600461148a565b610de9565b6101a460045481565b6101a4680821ab0d441498000081565b6001546101e5906001600160a01b031681565b6101a460035481565b6101996102fc36600461148a565b610eaa565b61019961030f36600461148a565b610f6d565b610199610322366004611663565b611020565b6000546001600160a01b031633148061034957506000546001600160a01b0316155b61039a5760405162461bcd60e51b815260206004820152601760248201527f63616c6c6572206973206e6f7420746865206f776e657200000000000000000060448201526064015b60405180910390fd5b60035481111580156103ac5750600081115b6103b557600080fd5b60048190557f680f379280fc8680df45c979a924c0084a250758604482cb01dadedbaa1c09c96103ed6000546001600160a01b031690565b604080516001600160a01b03909216825260208201849052015b60405180910390a150565b333b156104615760405162461bcd60e51b815260206004820152600f60248201527f4163636f756e74206e6f7420454f4100000000000000000000000000000000006044820152606401610391565b3360008181526007602090815260409182902080547fffffffffffffffffffffffffffffffffffffffffffffffffffffffffffffff0016905590519182527f764389830e6a6b84f4ea3f2551a4c5afbb6dff806f2d8f571f6913c6c4b62a4091015b60405180910390a1565b6006546005546040517f49948e0e0000000000000000000000000000000000000000000000000000000081526000926001600160a01b0316919082906349948e0e9061051d9087906004016116f4565b60206040518083038186803b15801561053557600080fd5b505afa158015610549573d6000803e3d6000fd5b505050506040513d601f19601f8201168201806040525081019061056d9190611707565b6105779190611720565b9392505050565b863b156105cd5760405162461bcd60e51b815260206004820152600f60248201527f4163636f756e74206e6f7420454f4100000000000000000000000000000000006044820152606401610391565b6001600160a01b03861630146106255760405162461bcd60e51b815260206004820152601c60248201527f5370656e646572206973206e6f74207468697320636f6e7472616374000000006044820152606401610391565b6008548510156106775760405162461bcd60e51b815260206004820152601360248201527f56616c7565206973206e6f7420656e6f756768000000000000000000000000006044820152606401610391565b6002546040517fd505accf0000000000000000000000000000000000000000000000000000000081526001600160a01b0389811660048301528881166024830152604482018890526064820187905260ff8616608483015260a4820185905260c4820184905290911690819063d505accf9060e401600060405180830381600087803b15801561070657600080fd5b505af115801561071a573d6000803e3d6000fd5b505060085460025461073b93506001600160a01b031691508a903090611183565b6001600160a01b03881660008181526007602090815260409182902080547fffffffffffffffffffffffffffffffffffffffffffffffffffffffffffffff0016600117905590519182527fa83ec7f828d05f8e5f9016e73ac39ead0d0a20d1c62324ecca568b1a0d804b23910160405180910390a15050505050505050565b333b156108095760405162461bcd60e51b815260206004820152600f60248201527f4163636f756e74206e6f7420454f4100000000000000000000000000000000006044820152606401610391565b3360008181526007602090815260409182902080547fffffffffffffffffffffffffffffffffffffffffffffffffffffffffffffff0016600117905590519182527fd1787ba09c5383b33cf88983fbbf2e6ae348746a3a906e1a1bb67c729661a4ac91016104c3565b6002546040517f70a08231000000000000000000000000000000000000000000000000000000008152306004820152680821ab0d4414980000916001600160a01b0316906370a082319060240160206040518083038186803b1580156108d757600080fd5b505afa1580156108eb573d6000803e3d6000fd5b505050506040513d601f19601f8201168201806040525081019061090f9190611707565b10156109a95760405162461bcd60e51b815260206004820152605560248201527f426f62615f47617350726963654f7261636c653a207769746864726177616c2060448201527f616d6f756e74206d7573742062652067726561746572207468616e206d696e6960648201527f6d756d207769746864726177616c20616d6f756e740000000000000000000000608482015260a401610391565b6002546001546040517f70a082310000000000000000000000000000000000000000000000000000000081523060048201527342000000000000000000000000000000000000109263a3a79548926001600160a01b039182169291169082906370a082319060240160206040518083038186803b158015610a2957600080fd5b505afa158015610a3d573d6000803e3d6000fd5b505050506040513d601f19601f82011682018060405250810190610a619190611707565b6000604051806020016040528060008152506040518663ffffffff1660e01b8152600401610a93959493929190611784565b600060405180830381600087803b158015610aad57600080fd5b505af1158015610ac1573d6000803e3d6000fd5b505050507f34d58c18c6c1df2c698ccac556acea92941ca7b99d2fccf9e3ac1852d0dec36f610af86000546001600160a01b031690565b600154604080516001600160a01b039384168152929091166020830152016104c3565b6000546001600160a01b0316331480610b3d57506000546001600160a01b0316155b610b895760405162461bcd60e51b815260206004820152601760248201527f63616c6c6572206973206e6f7420746865206f776e65720000000000000000006044820152606401610391565b6001546001600160a01b031615610be25760405162461bcd60e51b815260206004820152601d60248201527f436f6e747261637420686173206265656e20696e697469616c697a65640000006044820152606401610391565b6001600160a01b03821615801590610c0257506001600160a01b03811615155b610c0b57600080fd5b600180546001600160a01b039384167fffffffffffffffffffffffff0000000000000000000000000000000000000000918216179091556002805492909316918116919091179091556006805490911673420000000000000000000000000000000000000f1790556729a2241af62c00006008556113886003556107d06005556101f4600455565b6000546001600160a01b0316331480610cb557506000546001600160a01b0316155b610d015760405162461bcd60e51b815260206004820152601760248201527f63616c6c6572206973206e6f7420746865206f776e65720000000000000000006044820152606401610391565b803b610d4f5760405162461bcd60e51b815260206004820152600e60248201527f4163636f756e7420697320454f410000000000000000000000000000000000006044820152606401610391565b6001600160a01b038116610d6257600080fd5b600680546001600160a01b0383167fffffffffffffffffffffffff00000000000000000000000000000000000000009091161790557f226bf99888a1e70d41ce744b11ce2acd4d1d1b8cf4ad17a0e72e67acff4bf5a7610dca6000546001600160a01b031690565b604080516001600160a01b039283168152918416602083015201610407565b6000546001600160a01b0316331480610e0b57506000546001600160a01b0316155b610e575760405162461bcd60e51b815260206004820152601760248201527f63616c6c6572206973206e6f7420746865206f776e65720000000000000000006044820152606401610391565b6004548110158015610e695750600081115b610e7257600080fd5b60038190557f7a28f69b71e51c4a30f620a2cfe4ce5aad2cd3fe5cc9647e400e252b65033d416103ed6000546001600160a01b031690565b6000546001600160a01b0316331480610ecc57506000546001600160a01b0316155b610f185760405162461bcd60e51b815260206004820152601760248201527f63616c6c6572206973206e6f7420746865206f776e65720000000000000000006044820152606401610391565b6003548111158015610f2c57506004548110155b610f3557600080fd5b60058190557fa718d44799032ca9af8e2ebb2e678fee2ecc0e34f391c7f54a5f2324ed71170a6103ed6000546001600160a01b031690565b6000546001600160a01b0316331480610f8f57506000546001600160a01b0316155b610fdb5760405162461bcd60e51b815260206004820152601760248201527f63616c6c6572206973206e6f7420746865206f776e65720000000000000000006044820152606401610391565b60008111610fe857600080fd5b60088190557f1071f61d642716391065a6f38aac12cdc6a436ca6a6622a18ae0530495738afc6103ed6000546001600160a01b031690565b6000546001600160a01b031633148061104257506000546001600160a01b0316155b61108e5760405162461bcd60e51b815260206004820152601760248201527f63616c6c6572206973206e6f7420746865206f776e65720000000000000000006044820152606401610391565b6001600160a01b03811661110a5760405162461bcd60e51b815260206004820152602660248201527f4f776e61626c653a206e6577206f776e657220697320746865207a65726f206160448201527f64647265737300000000000000000000000000000000000000000000000000006064820152608401610391565b600080546001600160a01b038381167fffffffffffffffffffffffff000000000000000000000000000000000000000083168117909355604080519190921680825260208201939093527f5c486528ec3e3f0ea91181cff8116f02bfa350e03b8b6f12e00765adbb5af85c910160405180910390a15050565b604080516001600160a01b0385811660248301528416604482015260648082018490528251808303909101815260849091019091526020810180517bffffffffffffffffffffffffffffffffffffffffffffffffffffffff167f23b872dd0000000000000000000000000000000000000000000000000000000017905261120b908590611211565b50505050565b6000611266826040518060400160405280602081526020017f5361666545524332303a206c6f772d6c6576656c2063616c6c206661696c6564815250856001600160a01b03166112fb9092919063ffffffff16565b8051909150156112f6578080602001905181019061128491906117c2565b6112f65760405162461bcd60e51b815260206004820152602a60248201527f5361666545524332303a204552433230206f7065726174696f6e20646964206e60448201527f6f742073756363656564000000000000000000000000000000000000000000006064820152608401610391565b505050565b606061130a8484600085611312565b949350505050565b60608247101561138a5760405162461bcd60e51b815260206004820152602660248201527f416464726573733a20696e73756666696369656e742062616c616e636520666f60448201527f722063616c6c00000000000000000000000000000000000000000000000000006064820152608401610391565b843b6113d85760405162461bcd60e51b815260206004820152601d60248201527f416464726573733a2063616c6c20746f206e6f6e2d636f6e74726163740000006044820152606401610391565b600080866001600160a01b031685876040516113f491906117e4565b60006040518083038185875af1925050503d8060008114611431576040519150601f19603f3d011682016040523d82523d6000602084013e611436565b606091505b5091509150611446828286611451565b979650505050505050565b60608315611460575081610577565b8251156114705782518084602001fd5b8160405162461bcd60e51b815260040161039191906116f4565b60006020828403121561149c57600080fd5b5035919050565b7f4e487b7100000000000000000000000000000000000000000000000000000000600052604160045260246000fd5b6000602082840312156114e457600080fd5b813567ffffffffffffffff808211156114fc57600080fd5b818401915084601f83011261151057600080fd5b813581811115611522576115226114a3565b604051601f82017fffffffffffffffffffffffffffffffffffffffffffffffffffffffffffffffe0908116603f01168101908382118183101715611568576115686114a3565b8160405282815287602084870101111561158157600080fd5b826020860160208301376000928101602001929092525095945050505050565b80356001600160a01b03811681146115b857600080fd5b919050565b600080600080600080600060e0888a0312156115d857600080fd5b6115e1886115a1565b96506115ef602089016115a1565b95506040880135945060608801359350608088013560ff8116811461161357600080fd5b9699959850939692959460a0840135945060c09093013592915050565b6000806040838503121561164357600080fd5b61164c836115a1565b915061165a602084016115a1565b90509250929050565b60006020828403121561167557600080fd5b610577826115a1565b60005b83811015611699578181015183820152602001611681565b8381111561120b5750506000910152565b600081518084526116c281602086016020860161167e565b601f017fffffffffffffffffffffffffffffffffffffffffffffffffffffffffffffffe0169290920160200192915050565b60208152600061057760208301846116aa565b60006020828403121561171957600080fd5b5051919050565b6000817fffffffffffffffffffffffffffffffffffffffffffffffffffffffffffffffff048311821515161561177f577f4e487b7100000000000000000000000000000000000000000000000000000000600052601160045260246000fd5b500290565b60006001600160a01b03808816835280871660208401525084604083015263ffffffff8416606083015260a0608083015261144660a08301846116aa565b6000602082840312156117d457600080fd5b8151801515811461057757600080fd5b600082516117f681846020870161167e565b919091019291505056fea164736f6c6343000809000a",
  "linkReferences": {},
  "deployedLinkReferences": {}
}