{
  "_format": "hh-sol-artifact-1",
  "contractName": "Boba_GasPriceOracle",
  "sourceName": "contracts/L2/predeploys/Boba_GasPriceOracle.sol",
  "abi": [
    {
      "anonymous": false,
      "inputs": [
        {
          "indexed": false,
          "internalType": "address",
          "name": "",
          "type": "address"
        }
      ],
      "name": "SwapBOBAForETHMetaTransaction",
      "type": "event"
    },
    {
      "anonymous": false,
      "inputs": [
        {
          "indexed": false,
          "internalType": "address",
          "name": "",
          "type": "address"
        },
        {
          "indexed": false,
          "internalType": "address",
          "name": "",
          "type": "address"
        }
      ],
      "name": "TransferOwnership",
      "type": "event"
    },
    {
      "anonymous": false,
      "inputs": [
        {
          "indexed": false,
          "internalType": "address",
          "name": "",
          "type": "address"
        },
        {
          "indexed": false,
          "internalType": "address",
          "name": "",
          "type": "address"
        }
      ],
      "name": "UpdateGasPriceOracleAddress",
      "type": "event"
    },
    {
      "anonymous": false,
      "inputs": [
        {
          "indexed": false,
          "internalType": "address",
          "name": "",
          "type": "address"
        },
        {
          "indexed": false,
          "internalType": "uint256",
          "name": "",
          "type": "uint256"
        }
      ],
      "name": "UpdateMaxPriceRatio",
      "type": "event"
    },
    {
      "anonymous": false,
      "inputs": [
        {
          "indexed": false,
          "internalType": "address",
          "name": "",
          "type": "address"
        },
        {
          "indexed": false,
          "internalType": "uint256",
          "name": "",
          "type": "uint256"
        }
      ],
      "name": "UpdateMetaTransactionFee",
      "type": "event"
    },
    {
      "anonymous": false,
      "inputs": [
        {
          "indexed": false,
          "internalType": "address",
          "name": "",
          "type": "address"
        },
        {
          "indexed": false,
          "internalType": "uint256",
          "name": "",
          "type": "uint256"
        }
      ],
      "name": "UpdateMinPriceRatio",
      "type": "event"
    },
    {
      "anonymous": false,
      "inputs": [
        {
          "indexed": false,
          "internalType": "address",
          "name": "",
          "type": "address"
        },
        {
          "indexed": false,
          "internalType": "uint256",
          "name": "",
          "type": "uint256"
        },
        {
          "indexed": false,
          "internalType": "uint256",
          "name": "",
          "type": "uint256"
        }
      ],
      "name": "UpdatePriceRatio",
      "type": "event"
    },
    {
      "anonymous": false,
      "inputs": [
        {
          "indexed": false,
          "internalType": "address",
          "name": "",
          "type": "address"
        },
        {
          "indexed": false,
          "internalType": "uint256",
          "name": "",
          "type": "uint256"
        }
      ],
      "name": "UpdateReceivedETHAmount",
      "type": "event"
    },
    {
      "anonymous": false,
      "inputs": [
        {
          "indexed": false,
          "internalType": "address",
          "name": "",
          "type": "address"
        }
      ],
      "name": "UseBobaAsFeeToken",
      "type": "event"
    },
    {
      "anonymous": false,
      "inputs": [
        {
          "indexed": false,
          "internalType": "address",
          "name": "",
          "type": "address"
        }
      ],
      "name": "UseETHAsFeeToken",
      "type": "event"
    },
    {
      "anonymous": false,
      "inputs": [
        {
          "indexed": false,
          "internalType": "address",
          "name": "",
          "type": "address"
        },
        {
          "indexed": false,
          "internalType": "address",
          "name": "",
          "type": "address"
        }
      ],
      "name": "WithdrawBOBA",
      "type": "event"
    },
    {
      "anonymous": false,
      "inputs": [
        {
          "indexed": false,
          "internalType": "address",
          "name": "",
          "type": "address"
        },
        {
          "indexed": false,
          "internalType": "address",
          "name": "",
          "type": "address"
        }
      ],
      "name": "WithdrawETH",
      "type": "event"
    },
    {
      "inputs": [],
      "name": "MIN_WITHDRAWAL_AMOUNT",
      "outputs": [
        {
          "internalType": "uint256",
          "name": "",
          "type": "uint256"
        }
      ],
      "stateMutability": "view",
      "type": "function"
    },
    {
      "inputs": [
        {
          "internalType": "address",
          "name": "",
          "type": "address"
        }
      ],
      "name": "bobaFeeTokenUsers",
      "outputs": [
        {
          "internalType": "bool",
          "name": "",
          "type": "bool"
        }
      ],
      "stateMutability": "view",
      "type": "function"
    },
    {
      "inputs": [],
      "name": "feeWallet",
      "outputs": [
        {
          "internalType": "address",
          "name": "",
          "type": "address"
        }
      ],
      "stateMutability": "view",
      "type": "function"
    },
    {
      "inputs": [],
      "name": "gasPriceOracleAddress",
      "outputs": [
        {
          "internalType": "address",
          "name": "",
          "type": "address"
        }
      ],
      "stateMutability": "view",
      "type": "function"
    },
    {
      "inputs": [],
      "name": "getBOBAForSwap",
      "outputs": [
        {
          "internalType": "uint256",
          "name": "",
          "type": "uint256"
        }
      ],
      "stateMutability": "view",
      "type": "function"
    },
    {
      "inputs": [
        {
          "internalType": "bytes",
          "name": "_txData",
          "type": "bytes"
        }
      ],
      "name": "getL1BobaFee",
      "outputs": [
        {
          "internalType": "uint256",
          "name": "",
          "type": "uint256"
        }
      ],
      "stateMutability": "view",
      "type": "function"
    },
    {
      "inputs": [
        {
          "internalType": "address payable",
          "name": "_feeWallet",
          "type": "address"
        },
        {
          "internalType": "address",
          "name": "_l2BobaAddress",
          "type": "address"
        }
      ],
      "name": "initialize",
      "outputs": [],
      "stateMutability": "nonpayable",
      "type": "function"
    },
    {
      "inputs": [],
      "name": "l2BobaAddress",
      "outputs": [
        {
          "internalType": "address",
          "name": "",
          "type": "address"
        }
      ],
      "stateMutability": "view",
      "type": "function"
    },
    {
      "inputs": [],
      "name": "marketPriceRatio",
      "outputs": [
        {
          "internalType": "uint256",
          "name": "",
          "type": "uint256"
        }
      ],
      "stateMutability": "view",
      "type": "function"
    },
    {
      "inputs": [],
      "name": "maxPriceRatio",
      "outputs": [
        {
          "internalType": "uint256",
          "name": "",
          "type": "uint256"
        }
      ],
      "stateMutability": "view",
      "type": "function"
    },
    {
      "inputs": [],
      "name": "metaTransactionFee",
      "outputs": [
        {
          "internalType": "uint256",
          "name": "",
          "type": "uint256"
        }
      ],
      "stateMutability": "view",
      "type": "function"
    },
    {
      "inputs": [],
      "name": "minPriceRatio",
      "outputs": [
        {
          "internalType": "uint256",
          "name": "",
          "type": "uint256"
        }
      ],
      "stateMutability": "view",
      "type": "function"
    },
    {
      "inputs": [],
      "name": "owner",
      "outputs": [
        {
          "internalType": "address",
          "name": "",
          "type": "address"
        }
      ],
      "stateMutability": "view",
      "type": "function"
    },
    {
      "inputs": [],
      "name": "priceRatio",
      "outputs": [
        {
          "internalType": "uint256",
          "name": "",
          "type": "uint256"
        }
      ],
      "stateMutability": "view",
      "type": "function"
    },
    {
      "inputs": [],
      "name": "receivedETHAmount",
      "outputs": [
        {
          "internalType": "uint256",
          "name": "",
          "type": "uint256"
        }
      ],
      "stateMutability": "view",
      "type": "function"
    },
    {
      "inputs": [
        {
          "internalType": "address",
          "name": "tokenOwner",
          "type": "address"
        },
        {
          "internalType": "address",
          "name": "spender",
          "type": "address"
        },
        {
          "internalType": "uint256",
          "name": "value",
          "type": "uint256"
        },
        {
          "internalType": "uint256",
          "name": "deadline",
          "type": "uint256"
        },
        {
          "internalType": "uint8",
          "name": "v",
          "type": "uint8"
        },
        {
          "internalType": "bytes32",
          "name": "r",
          "type": "bytes32"
        },
        {
          "internalType": "bytes32",
          "name": "s",
          "type": "bytes32"
        }
      ],
      "name": "swapBOBAForETHMetaTransaction",
      "outputs": [],
      "stateMutability": "nonpayable",
      "type": "function"
    },
    {
      "inputs": [
        {
          "internalType": "address",
          "name": "_newOwner",
          "type": "address"
        }
      ],
      "name": "transferOwnership",
      "outputs": [],
      "stateMutability": "nonpayable",
      "type": "function"
    },
    {
      "inputs": [
        {
          "internalType": "address",
          "name": "_gasPriceOracleAddress",
          "type": "address"
        }
      ],
      "name": "updateGasPriceOracleAddress",
      "outputs": [],
      "stateMutability": "nonpayable",
      "type": "function"
    },
    {
      "inputs": [
        {
          "internalType": "uint256",
          "name": "_maxPriceRatio",
          "type": "uint256"
        }
      ],
      "name": "updateMaxPriceRatio",
      "outputs": [],
      "stateMutability": "nonpayable",
      "type": "function"
    },
    {
      "inputs": [
        {
          "internalType": "uint256",
          "name": "_metaTransactionFee",
          "type": "uint256"
        }
      ],
      "name": "updateMetaTransactionFee",
      "outputs": [],
      "stateMutability": "nonpayable",
      "type": "function"
    },
    {
      "inputs": [
        {
          "internalType": "uint256",
          "name": "_minPriceRatio",
          "type": "uint256"
        }
      ],
      "name": "updateMinPriceRatio",
      "outputs": [],
      "stateMutability": "nonpayable",
      "type": "function"
    },
    {
      "inputs": [
        {
          "internalType": "uint256",
          "name": "_priceRatio",
          "type": "uint256"
        },
        {
          "internalType": "uint256",
          "name": "_marketPriceRatio",
          "type": "uint256"
        }
      ],
      "name": "updatePriceRatio",
      "outputs": [],
      "stateMutability": "nonpayable",
      "type": "function"
    },
    {
      "inputs": [
        {
          "internalType": "uint256",
          "name": "_receivedETHAmount",
          "type": "uint256"
        }
      ],
      "name": "updateReceivedETHAmount",
      "outputs": [],
      "stateMutability": "nonpayable",
      "type": "function"
    },
    {
      "inputs": [],
      "name": "useBobaAsFeeToken",
      "outputs": [],
      "stateMutability": "nonpayable",
      "type": "function"
    },
    {
      "inputs": [],
      "name": "useETHAsFeeToken",
      "outputs": [],
      "stateMutability": "nonpayable",
      "type": "function"
    },
    {
      "inputs": [],
      "name": "withdrawBOBA",
      "outputs": [],
      "stateMutability": "nonpayable",
      "type": "function"
    },
    {
      "inputs": [],
      "name": "withdrawETH",
      "outputs": [],
      "stateMutability": "nonpayable",
      "type": "function"
    },
    {
      "stateMutability": "payable",
      "type": "receive"
    }
  ],
  "bytecode": "0x60806040526113886003556101f4600455600680546001600160a01b03191673420000000000000000000000000000000000000f1790556729a2241af62c00006008556611c37937e0800060095534801561005957600080fd5b50611da5806100696000396000f3fe6080604052600436106101af5760003560e01c806389df963d116100ec578063d2e1fb221161008a578063e086e5ec11610064578063e086e5ec1461047b578063e3aea9ba14610490578063f25f4b56146104b0578063f2fde38b146104d057600080fd5b8063d2e1fb2214610432578063d3e5792b14610448578063d86732ef1461046557600080fd5b8063b54016dc116100c6578063b54016dc146103bc578063bc9bd6ee146103dc578063c8a05413146103fc578063cd0514ad1461041c57600080fd5b806389df963d146103695780638da5cb5b1461037e5780638fcfc8131461039c57600080fd5b806334fe1b16116101595780635b9da5c6116101335780635b9da5c6146102d35780636805491b146102f35780637728195c14610333578063872ea4991461035357600080fd5b806334fe1b1614610289578063438ac96c1461029e578063485cc955146102b357600080fd5b80631b6771991161018a5780631b6771991461021c57806323ec63201461023157806324b20eda1461025157600080fd5b80625c5fb2146101bb5780630aa2f420146101dd57806315a0c1ac1461020657600080fd5b366101b657005b600080fd5b3480156101c757600080fd5b506101db6101d63660046119d8565b6104f0565b005b3480156101e957600080fd5b506101f360055481565b6040519081526020015b60405180910390f35b34801561021257600080fd5b506101f3600a5481565b34801561022857600080fd5b506101db6105c7565b34801561023d57600080fd5b506101f361024c366004611a20565b6106da565b34801561025d57600080fd5b50600254610271906001600160a01b031681565b6040516001600160a01b0390911681526020016101fd565b34801561029557600080fd5b506101db61078b565b3480156102aa57600080fd5b506101f361092d565b3480156102bf57600080fd5b506101db6102ce366004611b07565b610957565b3480156102df57600080fd5b506101db6102ee3660046119d8565b610a70565b3480156102ff57600080fd5b5061032361030e366004611b40565b60076020526000908152604090205460ff1681565b60405190151581526020016101fd565b34801561033f57600080fd5b50600654610271906001600160a01b031681565b34801561035f57600080fd5b506101f360085481565b34801561037557600080fd5b506101db610b27565b34801561038a57600080fd5b506000546001600160a01b0316610271565b3480156103a857600080fd5b506101db6103b7366004611b40565b610dd0565b3480156103c857600080fd5b506101db6103d7366004611b5d565b610f12565b3480156103e857600080fd5b506101db6103f7366004611bd4565b6111d4565b34801561040857600080fd5b506101db6104173660046119d8565b6112d2565b34801561042857600080fd5b506101f360095481565b34801561043e57600080fd5b506101f360045481565b34801561045457600080fd5b506101f3680821ab0d441498000081565b34801561047157600080fd5b506101f360035481565b34801561048757600080fd5b506101db61137f565b34801561049c57600080fd5b506101db6104ab3660046119d8565b6114d2565b3480156104bc57600080fd5b50600154610271906001600160a01b031681565b3480156104dc57600080fd5b506101db6104eb366004611b40565b611571565b6000546001600160a01b0316331461054f5760405162461bcd60e51b815260206004820152601760248201527f63616c6c6572206973206e6f7420746865206f776e657200000000000000000060448201526064015b60405180910390fd5b60035481111580156105615750600081115b61056a57600080fd5b60048190557f680f379280fc8680df45c979a924c0084a250758604482cb01dadedbaa1c09c96105a26000546001600160a01b031690565b604080516001600160a01b03909216825260208201849052015b60405180910390a150565b333b156106165760405162461bcd60e51b815260206004820152600f60248201527f4163636f756e74206e6f7420454f4100000000000000000000000000000000006044820152606401610546565b66071afd498d00003331101561066e5760405162461bcd60e51b815260206004820152601860248201527f496e73756666696369656e74204554482062616c616e636500000000000000006044820152606401610546565b3360008181526007602090815260409182902080547fffffffffffffffffffffffffffffffffffffffffffffffffffffffffffffff0016905590519182527f764389830e6a6b84f4ea3f2551a4c5afbb6dff806f2d8f571f6913c6c4b62a4091015b60405180910390a1565b6006546005546040517f49948e0e0000000000000000000000000000000000000000000000000000000081526000926001600160a01b0316919082906349948e0e9061072a908790600401611c6c565b60206040518083038186803b15801561074257600080fd5b505afa158015610756573d6000803e3d6000fd5b505050506040513d601f19601f8201168201806040525081019061077a9190611c7f565b6107849190611cc7565b9392505050565b333b156107da5760405162461bcd60e51b815260206004820152600f60248201527f4163636f756e74206e6f7420454f4100000000000000000000000000000000006044820152606401610546565b6002546040517f70a082310000000000000000000000000000000000000000000000000000000081523360048201526729a2241af62c0000916001600160a01b0316906370a082319060240160206040518083038186803b15801561083e57600080fd5b505afa158015610852573d6000803e3d6000fd5b505050506040513d601f19601f820116820180604052508101906108769190611c7f565b10156108c45760405162461bcd60e51b815260206004820152601960248201527f496e73756666696369656e7420426f62612062616c616e6365000000000000006044820152606401610546565b3360008181526007602090815260409182902080547fffffffffffffffffffffffffffffffffffffffffffffffffffffffffffffff0016600117905590519182527fd1787ba09c5383b33cf88983fbbf2e6ae348746a3a906e1a1bb67c729661a4ac91016106d0565b600061095260085461094c600a546009546116b990919063ffffffff16565b906116c5565b905090565b6001546001600160a01b0316156109b05760405162461bcd60e51b815260206004820152601d60248201527f436f6e747261637420686173206265656e20696e697469616c697a65640000006044820152606401610546565b6001600160a01b038216158015906109d057506001600160a01b03811615155b6109d957600080fd5b600180546001600160a01b039384167fffffffffffffffffffffffff000000000000000000000000000000000000000091821617909155600280549290931691811691909117909155600080548216331790556006805490911673420000000000000000000000000000000000000f1790556729a2241af62c00006008556113886003556107d060058190556101f4600455600a55565b6000546001600160a01b03163314610aca5760405162461bcd60e51b815260206004820152601760248201527f63616c6c6572206973206e6f7420746865206f776e65720000000000000000006044820152606401610546565b66038d7ea4c6800081118015610ae65750662386f26fc1000081105b610aef57600080fd5b60098190557fdcb9e069a0d16a974c9c0f4a88e2c9b79df5c45d9721c26461043d51c44682076105a26000546001600160a01b031690565b6002546040517f70a08231000000000000000000000000000000000000000000000000000000008152306004820152680821ab0d4414980000916001600160a01b0316906370a082319060240160206040518083038186803b158015610b8c57600080fd5b505afa158015610ba0573d6000803e3d6000fd5b505050506040513d601f19601f82011682018060405250810190610bc49190611c7f565b1015610c5e5760405162461bcd60e51b815260206004820152605560248201527f426f62615f47617350726963654f7261636c653a207769746864726177616c2060448201527f616d6f756e74206d7573742062652067726561746572207468616e206d696e6960648201527f6d756d207769746864726177616c20616d6f756e740000000000000000000000608482015260a401610546565b6002546001546040517f70a082310000000000000000000000000000000000000000000000000000000081523060048201527342000000000000000000000000000000000000109263a3a79548926001600160a01b039182169291169082906370a082319060240160206040518083038186803b158015610cde57600080fd5b505afa158015610cf2573d6000803e3d6000fd5b505050506040513d601f19601f82011682018060405250810190610d169190611c7f565b6000604051806020016040528060008152506040518663ffffffff1660e01b8152600401610d48959493929190611d04565b600060405180830381600087803b158015610d6257600080fd5b505af1158015610d76573d6000803e3d6000fd5b505050507f2c69c3957d9ca9782726f647b7a3592dd381f4370288551f5ed43fd3cc5b7753610dad6000546001600160a01b031690565b600154604080516001600160a01b039384168152929091166020830152016106d0565b6000546001600160a01b03163314610e2a5760405162461bcd60e51b815260206004820152601760248201527f63616c6c6572206973206e6f7420746865206f776e65720000000000000000006044820152606401610546565b803b610e785760405162461bcd60e51b815260206004820152600e60248201527f4163636f756e7420697320454f410000000000000000000000000000000000006044820152606401610546565b6001600160a01b038116610e8b57600080fd5b600680546001600160a01b0383167fffffffffffffffffffffffff00000000000000000000000000000000000000009091161790557f226bf99888a1e70d41ce744b11ce2acd4d1d1b8cf4ad17a0e72e67acff4bf5a7610ef36000546001600160a01b031690565b604080516001600160a01b0392831681529184166020830152016105bc565b863b15610f615760405162461bcd60e51b815260206004820152600f60248201527f4163636f756e74206e6f7420454f4100000000000000000000000000000000006044820152606401610546565b6001600160a01b0386163014610fb95760405162461bcd60e51b815260206004820152601c60248201527f5370656e646572206973206e6f74207468697320636f6e7472616374000000006044820152606401610546565b6000610fd860085461094c600a546009546116b990919063ffffffff16565b90508086101561102a5760405162461bcd60e51b815260206004820152601360248201527f56616c7565206973206e6f7420656e6f756768000000000000000000000000006044820152606401610546565b6002546040517fd505accf0000000000000000000000000000000000000000000000000000000081526001600160a01b038a811660048301528981166024830152604482018990526064820188905260ff8716608483015260a4820186905260c4820185905290911690819063d505accf9060e401600060405180830381600087803b1580156110b957600080fd5b505af11580156110cd573d6000803e3d6000fd5b50506002546110ea92506001600160a01b031690508a30856116d1565b6009546040516000916001600160a01b038c16918381818185875af1925050503d8060008114611136576040519150601f19603f3d011682016040523d82523d6000602084013e61113b565b606091505b505090508061118c5760405162461bcd60e51b815260206004820152601260248201527f4661696c656420746f2073656e642045544800000000000000000000000000006044820152606401610546565b6040516001600160a01b038b1681527fb92b4b358dfa6e521f7f80a5d0522cf04a2082482701a0d78ff2bb615df646be9060200160405180910390a150505050505050505050565b6000546001600160a01b0316331461122e5760405162461bcd60e51b815260206004820152601760248201527f63616c6c6572206973206e6f7420746865206f776e65720000000000000000006044820152606401610546565b600354821115801561124257506004548210155b61124b57600080fd5b600354811115801561125f57506004548110155b61126857600080fd5b6005829055600a8190557f23632bbb735dece542dac9735a2ba4253234eb119ce45cdf9968cbbe12aa67906112a56000546001600160a01b031690565b604080516001600160a01b0390921682526020820185905281018390526060015b60405180910390a15050565b6000546001600160a01b0316331461132c5760405162461bcd60e51b815260206004820152601760248201527f63616c6c6572206973206e6f7420746865206f776e65720000000000000000006044820152606401610546565b600454811015801561133e5750600081115b61134757600080fd5b60038190557f7a28f69b71e51c4a30f620a2cfe4ce5aad2cd3fe5cc9647e400e252b65033d416105a26000546001600160a01b031690565b6000546001600160a01b031633146113d95760405162461bcd60e51b815260206004820152601760248201527f63616c6c6572206973206e6f7420746865206f776e65720000000000000000006044820152606401610546565b6001546040516000916001600160a01b03169047908381818185875af1925050503d8060008114611426576040519150601f19603f3d011682016040523d82523d6000602084013e61142b565b606091505b505090508061147c5760405162461bcd60e51b815260206004820181905260248201527f4661696c656420746f2073656e642045544820746f206665652077616c6c65746044820152606401610546565b7f6de63bb986f2779478e384365c03cc2e62f06b453856acca87d5a519ce0266496114af6000546001600160a01b031690565b600154604080516001600160a01b039384168152929091166020830152016105bc565b6000546001600160a01b0316331461152c5760405162461bcd60e51b815260206004820152601760248201527f63616c6c6572206973206e6f7420746865206f776e65720000000000000000006044820152606401610546565b6000811161153957600080fd5b60088190557f1071f61d642716391065a6f38aac12cdc6a436ca6a6622a18ae0530495738afc6105a26000546001600160a01b031690565b6000546001600160a01b031633146115cb5760405162461bcd60e51b815260206004820152601760248201527f63616c6c6572206973206e6f7420746865206f776e65720000000000000000006044820152606401610546565b6001600160a01b0381166116475760405162461bcd60e51b815260206004820152602660248201527f4f776e61626c653a206e6577206f776e657220697320746865207a65726f206160448201527f64647265737300000000000000000000000000000000000000000000000000006064820152608401610546565b600080546001600160a01b038381167fffffffffffffffffffffffff000000000000000000000000000000000000000083168117909355604080519190921680825260208201939093527f5c486528ec3e3f0ea91181cff8116f02bfa350e03b8b6f12e00765adbb5af85c91016112c6565b60006107848284611cc7565b60006107848284611d42565b604080516001600160a01b0385811660248301528416604482015260648082018490528251808303909101815260849091019091526020810180517bffffffffffffffffffffffffffffffffffffffffffffffffffffffff167f23b872dd0000000000000000000000000000000000000000000000000000000017905261175990859061175f565b50505050565b60006117b4826040518060400160405280602081526020017f5361666545524332303a206c6f772d6c6576656c2063616c6c206661696c6564815250856001600160a01b03166118499092919063ffffffff16565b80519091501561184457808060200190518101906117d29190611d5a565b6118445760405162461bcd60e51b815260206004820152602a60248201527f5361666545524332303a204552433230206f7065726174696f6e20646964206e60448201527f6f742073756363656564000000000000000000000000000000000000000000006064820152608401610546565b505050565b60606118588484600085611860565b949350505050565b6060824710156118d85760405162461bcd60e51b815260206004820152602660248201527f416464726573733a20696e73756666696369656e742062616c616e636520666f60448201527f722063616c6c00000000000000000000000000000000000000000000000000006064820152608401610546565b843b6119265760405162461bcd60e51b815260206004820152601d60248201527f416464726573733a2063616c6c20746f206e6f6e2d636f6e74726163740000006044820152606401610546565b600080866001600160a01b031685876040516119429190611d7c565b60006040518083038185875af1925050503d806000811461197f576040519150601f19603f3d011682016040523d82523d6000602084013e611984565b606091505b509150915061199482828661199f565b979650505050505050565b606083156119ae575081610784565b8251156119be5782518084602001fd5b8160405162461bcd60e51b81526004016105469190611c6c565b6000602082840312156119ea57600080fd5b5035919050565b7f4e487b7100000000000000000000000000000000000000000000000000000000600052604160045260246000fd5b600060208284031215611a3257600080fd5b813567ffffffffffffffff80821115611a4a57600080fd5b818401915084601f830112611a5e57600080fd5b813581811115611a7057611a706119f1565b604051601f82017fffffffffffffffffffffffffffffffffffffffffffffffffffffffffffffffe0908116603f01168101908382118183101715611ab657611ab66119f1565b81604052828152876020848701011115611acf57600080fd5b826020860160208301376000928101602001929092525095945050505050565b6001600160a01b0381168114611b0457600080fd5b50565b60008060408385031215611b1a57600080fd5b8235611b2581611aef565b91506020830135611b3581611aef565b809150509250929050565b600060208284031215611b5257600080fd5b813561078481611aef565b600080600080600080600060e0888a031215611b7857600080fd5b8735611b8381611aef565b96506020880135611b9381611aef565b95506040880135945060608801359350608088013560ff81168114611bb757600080fd5b9699959850939692959460a0840135945060c09093013592915050565b60008060408385031215611be757600080fd5b50508035926020909101359150565b60005b83811015611c11578181015183820152602001611bf9565b838111156117595750506000910152565b60008151808452611c3a816020860160208601611bf6565b601f017fffffffffffffffffffffffffffffffffffffffffffffffffffffffffffffffe0169290920160200192915050565b6020815260006107846020830184611c22565b600060208284031215611c9157600080fd5b5051919050565b7f4e487b7100000000000000000000000000000000000000000000000000000000600052601160045260246000fd5b6000817fffffffffffffffffffffffffffffffffffffffffffffffffffffffffffffffff0483118215151615611cff57611cff611c98565b500290565b60006001600160a01b03808816835280871660208401525084604083015263ffffffff8416606083015260a0608083015261199460a0830184611c22565b60008219821115611d5557611d55611c98565b500190565b600060208284031215611d6c57600080fd5b8151801515811461078457600080fd5b60008251611d8e818460208701611bf6565b919091019291505056fea164736f6c6343000809000a",
  "linkReferences": {},
  "deployedLinkReferences": {}
}