{
  "_format": "hh-sol-artifact-1",
  "contractName": "GovernorBravoDelegate",
  "sourceName": "contracts/DAO/governance/GovernorBravoDelegate.sol",
  "abi": [
    {
      "anonymous": false,
      "inputs": [
        {
          "indexed": false,
          "internalType": "address",
          "name": "oldAdmin",
          "type": "address"
        },
        {
          "indexed": false,
          "internalType": "address",
          "name": "newAdmin",
          "type": "address"
        }
      ],
      "name": "NewAdmin",
      "type": "event"
    },
    {
      "anonymous": false,
      "inputs": [
        {
          "indexed": false,
          "internalType": "address",
          "name": "oldImplementation",
          "type": "address"
        },
        {
          "indexed": false,
          "internalType": "address",
          "name": "newImplementation",
          "type": "address"
        }
      ],
      "name": "NewImplementation",
      "type": "event"
    },
    {
      "anonymous": false,
      "inputs": [
        {
          "indexed": false,
          "internalType": "address",
          "name": "oldPendingAdmin",
          "type": "address"
        },
        {
          "indexed": false,
          "internalType": "address",
          "name": "newPendingAdmin",
          "type": "address"
        }
      ],
      "name": "NewPendingAdmin",
      "type": "event"
    },
    {
      "anonymous": false,
      "inputs": [
        {
          "indexed": false,
          "internalType": "uint256",
          "name": "id",
          "type": "uint256"
        }
      ],
      "name": "ProposalCanceled",
      "type": "event"
    },
    {
      "anonymous": false,
      "inputs": [
        {
          "indexed": false,
          "internalType": "uint256",
          "name": "id",
          "type": "uint256"
        },
        {
          "indexed": false,
          "internalType": "address",
          "name": "proposer",
          "type": "address"
        },
        {
          "indexed": false,
          "internalType": "address[]",
          "name": "targets",
          "type": "address[]"
        },
        {
          "indexed": false,
          "internalType": "uint256[]",
          "name": "values",
          "type": "uint256[]"
        },
        {
          "indexed": false,
          "internalType": "string[]",
          "name": "signatures",
          "type": "string[]"
        },
        {
          "indexed": false,
          "internalType": "bytes[]",
          "name": "calldatas",
          "type": "bytes[]"
        },
        {
          "indexed": false,
          "internalType": "uint256",
          "name": "startTimestamp",
          "type": "uint256"
        },
        {
          "indexed": false,
          "internalType": "uint256",
          "name": "endTimestamp",
          "type": "uint256"
        },
        {
          "indexed": false,
          "internalType": "string",
          "name": "description",
          "type": "string"
        }
      ],
      "name": "ProposalCreated",
      "type": "event"
    },
    {
      "anonymous": false,
      "inputs": [
        {
          "indexed": false,
          "internalType": "uint256",
          "name": "id",
          "type": "uint256"
        }
      ],
      "name": "ProposalExecuted",
      "type": "event"
    },
    {
      "anonymous": false,
      "inputs": [
        {
          "indexed": false,
          "internalType": "uint256",
          "name": "id",
          "type": "uint256"
        },
        {
          "indexed": false,
          "internalType": "uint256",
          "name": "eta",
          "type": "uint256"
        }
      ],
      "name": "ProposalQueued",
      "type": "event"
    },
    {
      "anonymous": false,
      "inputs": [
        {
          "indexed": false,
          "internalType": "uint256",
          "name": "oldProposalThreshold",
          "type": "uint256"
        },
        {
          "indexed": false,
          "internalType": "uint256",
          "name": "newProposalThreshold",
          "type": "uint256"
        }
      ],
      "name": "ProposalThresholdSet",
      "type": "event"
    },
    {
      "anonymous": false,
      "inputs": [
        {
          "indexed": true,
          "internalType": "address",
          "name": "voter",
          "type": "address"
        },
        {
          "indexed": false,
          "internalType": "uint256",
          "name": "proposalId",
          "type": "uint256"
        },
        {
          "indexed": false,
          "internalType": "uint8",
          "name": "support",
          "type": "uint8"
        },
        {
          "indexed": false,
          "internalType": "uint256",
          "name": "votes",
          "type": "uint256"
        },
        {
          "indexed": false,
          "internalType": "string",
          "name": "reason",
          "type": "string"
        }
      ],
      "name": "VoteCast",
      "type": "event"
    },
    {
      "anonymous": false,
      "inputs": [
        {
          "indexed": false,
          "internalType": "uint256",
          "name": "oldVotingDelay",
          "type": "uint256"
        },
        {
          "indexed": false,
          "internalType": "uint256",
          "name": "newVotingDelay",
          "type": "uint256"
        }
      ],
      "name": "VotingDelaySet",
      "type": "event"
    },
    {
      "anonymous": false,
      "inputs": [
        {
          "indexed": false,
          "internalType": "uint256",
          "name": "oldVotingPeriod",
          "type": "uint256"
        },
        {
          "indexed": false,
          "internalType": "uint256",
          "name": "newVotingPeriod",
          "type": "uint256"
        }
      ],
      "name": "VotingPeriodSet",
      "type": "event"
    },
    {
      "constant": true,
      "inputs": [],
      "name": "BALLOT_TYPEHASH",
      "outputs": [
        {
          "internalType": "bytes32",
          "name": "",
          "type": "bytes32"
        }
      ],
      "payable": false,
      "stateMutability": "view",
      "type": "function"
    },
    {
      "constant": true,
      "inputs": [],
      "name": "DOMAIN_TYPEHASH",
      "outputs": [
        {
          "internalType": "bytes32",
          "name": "",
          "type": "bytes32"
        }
      ],
      "payable": false,
      "stateMutability": "view",
      "type": "function"
    },
    {
      "constant": true,
      "inputs": [],
      "name": "MAX_PROPOSAL_THRESHOLD",
      "outputs": [
        {
          "internalType": "uint256",
          "name": "",
          "type": "uint256"
        }
      ],
      "payable": false,
      "stateMutability": "view",
      "type": "function"
    },
    {
      "constant": true,
      "inputs": [],
      "name": "MAX_VOTING_DELAY",
      "outputs": [
        {
          "internalType": "uint256",
          "name": "",
          "type": "uint256"
        }
      ],
      "payable": false,
      "stateMutability": "view",
      "type": "function"
    },
    {
      "constant": true,
      "inputs": [],
      "name": "MAX_VOTING_PERIOD",
      "outputs": [
        {
          "internalType": "uint256",
          "name": "",
          "type": "uint256"
        }
      ],
      "payable": false,
      "stateMutability": "view",
      "type": "function"
    },
    {
      "constant": true,
      "inputs": [],
      "name": "MIN_PROPOSAL_THRESHOLD",
      "outputs": [
        {
          "internalType": "uint256",
          "name": "",
          "type": "uint256"
        }
      ],
      "payable": false,
      "stateMutability": "view",
      "type": "function"
    },
    {
      "constant": true,
      "inputs": [],
      "name": "MIN_VOTING_DELAY",
      "outputs": [
        {
          "internalType": "uint256",
          "name": "",
          "type": "uint256"
        }
      ],
      "payable": false,
      "stateMutability": "view",
      "type": "function"
    },
    {
      "constant": true,
      "inputs": [],
      "name": "MIN_VOTING_PERIOD",
      "outputs": [
        {
          "internalType": "uint256",
          "name": "",
          "type": "uint256"
        }
      ],
      "payable": false,
      "stateMutability": "view",
      "type": "function"
    },
    {
      "constant": false,
      "inputs": [],
      "name": "_acceptAdmin",
      "outputs": [],
      "payable": false,
      "stateMutability": "nonpayable",
      "type": "function"
    },
    {
      "constant": false,
      "inputs": [],
      "name": "_initiate",
      "outputs": [],
      "payable": false,
      "stateMutability": "nonpayable",
      "type": "function"
    },
    {
      "constant": false,
      "inputs": [
        {
          "internalType": "address",
          "name": "newPendingAdmin",
          "type": "address"
        }
      ],
      "name": "_setPendingAdmin",
      "outputs": [],
      "payable": false,
      "stateMutability": "nonpayable",
      "type": "function"
    },
    {
      "constant": false,
      "inputs": [
        {
          "internalType": "uint256",
          "name": "newProposalThreshold",
          "type": "uint256"
        }
      ],
      "name": "_setProposalThreshold",
      "outputs": [],
      "payable": false,
      "stateMutability": "nonpayable",
      "type": "function"
    },
    {
      "constant": false,
      "inputs": [
        {
          "internalType": "uint256",
          "name": "newVotingDelay",
          "type": "uint256"
        }
      ],
      "name": "_setVotingDelay",
      "outputs": [],
      "payable": false,
      "stateMutability": "nonpayable",
      "type": "function"
    },
    {
      "constant": false,
      "inputs": [
        {
          "internalType": "uint256",
          "name": "newVotingPeriod",
          "type": "uint256"
        }
      ],
      "name": "_setVotingPeriod",
      "outputs": [],
      "payable": false,
      "stateMutability": "nonpayable",
      "type": "function"
    },
    {
      "constant": true,
      "inputs": [],
      "name": "admin",
      "outputs": [
        {
          "internalType": "address",
          "name": "",
          "type": "address"
        }
      ],
      "payable": false,
      "stateMutability": "view",
      "type": "function"
    },
    {
      "constant": true,
      "inputs": [],
      "name": "boba",
      "outputs": [
        {
          "internalType": "contract BobaInterface",
          "name": "",
          "type": "address"
        }
      ],
      "payable": false,
      "stateMutability": "view",
      "type": "function"
    },
    {
      "constant": false,
      "inputs": [
        {
          "internalType": "uint256",
          "name": "proposalId",
          "type": "uint256"
        }
      ],
      "name": "cancel",
      "outputs": [],
      "payable": false,
      "stateMutability": "nonpayable",
      "type": "function"
    },
    {
      "constant": false,
      "inputs": [
        {
          "internalType": "uint256",
          "name": "proposalId",
          "type": "uint256"
        },
        {
          "internalType": "uint8",
          "name": "support",
          "type": "uint8"
        }
      ],
      "name": "castVote",
      "outputs": [],
      "payable": false,
      "stateMutability": "nonpayable",
      "type": "function"
    },
    {
      "constant": false,
      "inputs": [
        {
          "internalType": "uint256",
          "name": "proposalId",
          "type": "uint256"
        },
        {
          "internalType": "uint8",
          "name": "support",
          "type": "uint8"
        },
        {
          "internalType": "uint8",
          "name": "v",
          "type": "uint8"
        },
        {
          "internalType": "bytes32",
          "name": "r",
          "type": "bytes32"
        },
        {
          "internalType": "bytes32",
          "name": "s",
          "type": "bytes32"
        }
      ],
      "name": "castVoteBySig",
      "outputs": [],
      "payable": false,
      "stateMutability": "nonpayable",
      "type": "function"
    },
    {
      "constant": false,
      "inputs": [
        {
          "internalType": "uint256",
          "name": "proposalId",
          "type": "uint256"
        },
        {
          "internalType": "uint8",
          "name": "support",
          "type": "uint8"
        },
        {
          "internalType": "string",
          "name": "reason",
          "type": "string"
        }
      ],
      "name": "castVoteWithReason",
      "outputs": [],
      "payable": false,
      "stateMutability": "nonpayable",
      "type": "function"
    },
    {
      "constant": false,
      "inputs": [
        {
          "internalType": "uint256",
          "name": "proposalId",
          "type": "uint256"
        }
      ],
      "name": "execute",
      "outputs": [],
      "payable": true,
      "stateMutability": "payable",
      "type": "function"
    },
    {
      "constant": true,
      "inputs": [
        {
          "internalType": "uint256",
          "name": "proposalId",
          "type": "uint256"
        }
      ],
      "name": "getActions",
      "outputs": [
        {
          "internalType": "address[]",
          "name": "targets",
          "type": "address[]"
        },
        {
          "internalType": "uint256[]",
          "name": "values",
          "type": "uint256[]"
        },
        {
          "internalType": "string[]",
          "name": "signatures",
          "type": "string[]"
        },
        {
          "internalType": "bytes[]",
          "name": "calldatas",
          "type": "bytes[]"
        }
      ],
      "payable": false,
      "stateMutability": "view",
      "type": "function"
    },
    {
      "constant": true,
      "inputs": [
        {
          "internalType": "uint256",
          "name": "proposalId",
          "type": "uint256"
        },
        {
          "internalType": "address",
          "name": "voter",
          "type": "address"
        }
      ],
      "name": "getReceipt",
      "outputs": [
        {
          "components": [
            {
              "internalType": "bool",
              "name": "hasVoted",
              "type": "bool"
            },
            {
              "internalType": "uint8",
              "name": "support",
              "type": "uint8"
            },
            {
              "internalType": "uint96",
              "name": "votes",
              "type": "uint96"
            }
          ],
          "internalType": "struct GovernorBravoDelegateStorageV1.Receipt",
          "name": "",
          "type": "tuple"
        }
      ],
      "payable": false,
      "stateMutability": "view",
      "type": "function"
    },
    {
      "constant": true,
      "inputs": [],
      "name": "implementation",
      "outputs": [
        {
          "internalType": "address",
          "name": "",
          "type": "address"
        }
      ],
      "payable": false,
      "stateMutability": "view",
      "type": "function"
    },
    {
      "constant": true,
      "inputs": [],
      "name": "initialProposalId",
      "outputs": [
        {
          "internalType": "uint256",
          "name": "",
          "type": "uint256"
        }
      ],
      "payable": false,
      "stateMutability": "view",
      "type": "function"
    },
    {
      "constant": false,
      "inputs": [
        {
          "internalType": "address",
          "name": "timelock_",
          "type": "address"
        },
        {
          "internalType": "address",
          "name": "bobaToken_",
          "type": "address"
        },
        {
          "internalType": "address",
          "name": "xbobaToken_",
          "type": "address"
        },
        {
          "internalType": "uint256",
          "name": "votingPeriod_",
          "type": "uint256"
        },
        {
          "internalType": "uint256",
          "name": "votingDelay_",
          "type": "uint256"
        },
        {
          "internalType": "uint256",
          "name": "proposalThreshold_",
          "type": "uint256"
        }
      ],
      "name": "initialize",
      "outputs": [],
      "payable": false,
      "stateMutability": "nonpayable",
      "type": "function"
    },
    {
      "constant": true,
      "inputs": [
        {
          "internalType": "address",
          "name": "",
          "type": "address"
        }
      ],
      "name": "latestProposalIds",
      "outputs": [
        {
          "internalType": "uint256",
          "name": "",
          "type": "uint256"
        }
      ],
      "payable": false,
      "stateMutability": "view",
      "type": "function"
    },
    {
      "constant": true,
      "inputs": [],
      "name": "name",
      "outputs": [
        {
          "internalType": "string",
          "name": "",
          "type": "string"
        }
      ],
      "payable": false,
      "stateMutability": "view",
      "type": "function"
    },
    {
      "constant": true,
      "inputs": [],
      "name": "pendingAdmin",
      "outputs": [
        {
          "internalType": "address",
          "name": "",
          "type": "address"
        }
      ],
      "payable": false,
      "stateMutability": "view",
      "type": "function"
    },
    {
      "constant": true,
      "inputs": [],
      "name": "proposalCount",
      "outputs": [
        {
          "internalType": "uint256",
          "name": "",
          "type": "uint256"
        }
      ],
      "payable": false,
      "stateMutability": "view",
      "type": "function"
    },
    {
      "constant": true,
      "inputs": [],
      "name": "proposalMaxOperations",
      "outputs": [
        {
          "internalType": "uint256",
          "name": "",
          "type": "uint256"
        }
      ],
      "payable": false,
      "stateMutability": "view",
      "type": "function"
    },
    {
      "constant": true,
      "inputs": [],
      "name": "proposalThreshold",
      "outputs": [
        {
          "internalType": "uint256",
          "name": "",
          "type": "uint256"
        }
      ],
      "payable": false,
      "stateMutability": "view",
      "type": "function"
    },
    {
      "constant": true,
      "inputs": [
        {
          "internalType": "uint256",
          "name": "",
          "type": "uint256"
        }
      ],
      "name": "proposals",
      "outputs": [
        {
          "internalType": "uint256",
          "name": "id",
          "type": "uint256"
        },
        {
          "internalType": "address",
          "name": "proposer",
          "type": "address"
        },
        {
          "internalType": "uint256",
          "name": "eta",
          "type": "uint256"
        },
        {
          "internalType": "string",
          "name": "description",
          "type": "string"
        },
        {
          "internalType": "uint256",
          "name": "startBlock",
          "type": "uint256"
        },
        {
          "internalType": "uint256",
          "name": "startTimestamp",
          "type": "uint256"
        },
        {
          "internalType": "uint256",
          "name": "endTimestamp",
          "type": "uint256"
        },
        {
          "internalType": "uint256",
          "name": "forVotes",
          "type": "uint256"
        },
        {
          "internalType": "uint256",
          "name": "againstVotes",
          "type": "uint256"
        },
        {
          "internalType": "uint256",
          "name": "abstainVotes",
          "type": "uint256"
        },
        {
          "internalType": "bool",
          "name": "canceled",
          "type": "bool"
        },
        {
          "internalType": "bool",
          "name": "executed",
          "type": "bool"
        }
      ],
      "payable": false,
      "stateMutability": "view",
      "type": "function"
    },
    {
      "constant": false,
      "inputs": [
        {
          "internalType": "address[]",
          "name": "targets",
          "type": "address[]"
        },
        {
          "internalType": "uint256[]",
          "name": "values",
          "type": "uint256[]"
        },
        {
          "internalType": "string[]",
          "name": "signatures",
          "type": "string[]"
        },
        {
          "internalType": "bytes[]",
          "name": "calldatas",
          "type": "bytes[]"
        },
        {
          "internalType": "string",
          "name": "description",
          "type": "string"
        }
      ],
      "name": "propose",
      "outputs": [
        {
          "internalType": "uint256",
          "name": "",
          "type": "uint256"
        }
      ],
      "payable": false,
      "stateMutability": "nonpayable",
      "type": "function"
    },
    {
      "constant": false,
      "inputs": [
        {
          "internalType": "uint256",
          "name": "proposalId",
          "type": "uint256"
        }
      ],
      "name": "queue",
      "outputs": [],
      "payable": false,
      "stateMutability": "nonpayable",
      "type": "function"
    },
    {
      "constant": true,
      "inputs": [],
      "name": "quorumVotes",
      "outputs": [
        {
          "internalType": "uint256",
          "name": "",
          "type": "uint256"
        }
      ],
      "payable": false,
      "stateMutability": "view",
      "type": "function"
    },
    {
      "constant": true,
      "inputs": [
        {
          "internalType": "uint256",
          "name": "proposalId",
          "type": "uint256"
        }
      ],
      "name": "state",
      "outputs": [
        {
          "internalType": "enum GovernorBravoDelegateStorageV1.ProposalState",
          "name": "",
          "type": "uint8"
        }
      ],
      "payable": false,
      "stateMutability": "view",
      "type": "function"
    },
    {
      "constant": true,
      "inputs": [],
      "name": "timelock",
      "outputs": [
        {
          "internalType": "contract TimelockInterface",
          "name": "",
          "type": "address"
        }
      ],
      "payable": false,
      "stateMutability": "view",
      "type": "function"
    },
    {
      "constant": true,
      "inputs": [],
      "name": "votingDelay",
      "outputs": [
        {
          "internalType": "uint256",
          "name": "",
          "type": "uint256"
        }
      ],
      "payable": false,
      "stateMutability": "view",
      "type": "function"
    },
    {
      "constant": true,
      "inputs": [],
      "name": "votingPeriod",
      "outputs": [
        {
          "internalType": "uint256",
          "name": "",
          "type": "uint256"
        }
      ],
      "payable": false,
      "stateMutability": "view",
      "type": "function"
    },
    {
      "constant": true,
      "inputs": [],
      "name": "xboba",
      "outputs": [
        {
          "internalType": "contract BobaInterface",
          "name": "",
          "type": "address"
        }
      ],
      "payable": false,
      "stateMutability": "view",
      "type": "function"
    }
  ],
  "bytecode": "0x608060405234801561001057600080fd5b50614dfb806100206000396000f3fe6080604052600436106102c65760003560e01c8063791f5d2311610179578063d33219b4116100d6578063e23a9a521161008a578063f851a44011610064578063f851a4401461071a578063fc4eee421461072f578063fe0d94c114610744576102c6565b8063e23a9a52146106c3578063e48083fe146106f0578063e9c714f214610705576102c6565b8063da95691a116100bb578063da95691a1461066e578063ddf0b0091461068e578063deaaa7cc146106ae576102c6565b8063d33219b414610644578063da35c66414610659576102c6565b8063ad5121b81161012d578063b58131b011610112578063b58131b0146105fa578063b71d1a0c1461060f578063c501f8161461062f576102c6565b8063ad5121b8146105c3578063b1126263146105e5576102c6565b80637bdbe4d01161015e5780637bdbe4d014610584578063878f148214610599578063a64e024a146105ae576102c6565b8063791f5d231461054f5780637b3c71d314610564576102c6565b806325fd935a116102275780633e4f49e6116101db57806356781388116101c057806356781388146104fa5780635c60da1b1461051a578063728cdbca1461052f576102c6565b80633e4f49e6146104ad57806340e58ee5146104da576102c6565b8063328dd9821161020c578063328dd982146104485780633932abb1146104785780633bccf4fd1461048d576102c6565b806325fd935a146104115780632678224714610426576102c6565b806317ba1b8b1161027e57806320606b701161026357806320606b70146103d2578063215809ca146103e757806324bc1a64146103fc576102c6565b806317ba1b8b146103925780631dfb1b5a146103b2576102c6565b806306fdde03116102af57806306fdde031461032e5780630ea2d98c1461035057806317977c6114610372576102c6565b8063013cf08b146102cb57806302a251a31461030c575b600080fd5b3480156102d757600080fd5b506102eb6102e63660046130ea565b610757565b6040516103039c9b9a99989796959493929190614abd565b60405180910390f35b34801561031857600080fd5b5061032161086b565b60405161030391906146da565b34801561033a57600080fd5b50610343610871565b6040516103039190614796565b34801561035c57600080fd5b5061037061036b3660046130ea565b6108aa565b005b34801561037e57600080fd5b5061032161038d366004612ee0565b610955565b34801561039e57600080fd5b506103706103ad3660046130ea565b610967565b3480156103be57600080fd5b506103706103cd3660046130ea565b610a0b565b3480156103de57600080fd5b50610321610aa1565b3480156103f357600080fd5b50610321610ab8565b34801561040857600080fd5b50610321610abf565b34801561041d57600080fd5b50610321610acd565b34801561043257600080fd5b5061043b610adb565b60405161030391906145a0565b34801561045457600080fd5b506104686104633660046130ea565b610aea565b604051610303949392919061468d565b34801561048457600080fd5b50610321610db5565b34801561049957600080fd5b506103706104a83660046131da565b610dbb565b3480156104b957600080fd5b506104cd6104c83660046130ea565b610fba565b6040516103039190614788565b3480156104e657600080fd5b506103706104f53660046130ea565b61115a565b34801561050657600080fd5b50610370610515366004613142565b611486565b34801561052657600080fd5b5061043b6114d0565b34801561053b57600080fd5b5061037061054a366004612f06565b6114df565b34801561055b57600080fd5b506103216116af565b34801561057057600080fd5b5061037061057f366004613172565b6116bd565b34801561059057600080fd5b5061032161170d565b3480156105a557600080fd5b50610370611712565b3480156105ba57600080fd5b506103216117db565b3480156105cf57600080fd5b506105d86117e2565b604051610303919061477a565b3480156105f157600080fd5b506103216117f1565b34801561060657600080fd5b506103216117f8565b34801561061b57600080fd5b5061037061062a366004612ee0565b6117fe565b34801561063b57600080fd5b506105d8611893565b34801561065057600080fd5b506105d86118a2565b34801561066557600080fd5b506103216118b1565b34801561067a57600080fd5b50610321610689366004612f8d565b6118b7565b34801561069a57600080fd5b506103706106a93660046130ea565b611d77565b3480156106ba57600080fd5b50610321612048565b3480156106cf57600080fd5b506106e36106de366004613108565b612054565b6040516103039190614a07565b3480156106fc57600080fd5b506103216120c6565b34801561071157600080fd5b506103706120cd565b34801561072657600080fd5b5061043b6121c3565b34801561073b57600080fd5b506103216121d2565b6103706107523660046130ea565b6121d8565b600b602090815260009182526040918290208054600180830154600280850154600786018054895161010096821615969096027fffffffffffffffffffffffffffffffffffffffffffffffffffffffffffffffff011692909204601f810188900488028501880190985287845293966001600160a01b03909216959394939091908301828280156108295780601f106107fe57610100808354040283529160200191610829565b820191906000526020600020905b81548152906001019060200180831161080c57829003601f168201915b5050505060088301546009840154600a850154600b860154600c870154600d880154600e90980154969794969395509193909260ff808216916101009004168c565b60045481565b6040518060400160405280600d81526020017f426f626120476f7665726e6f720000000000000000000000000000000000000081525081565b6000546001600160a01b031633146108dd5760405162461bcd60e51b81526004016108d4906147e7565b60405180910390fd5b6203f48081101580156108f35750621275008111155b61090f5760405162461bcd60e51b81526004016108d490614837565b60048054908290556040517f7e3f7f0708a84de9203036abaa450dccc85ad5ff52f78c170f3edb55cf5e8828906109499083908590614b77565b60405180910390a15050565b600c6020526000908152604090205481565b6000546001600160a01b031633146109915760405162461bcd60e51b81526004016108d4906149c7565b690a968163f0a57b40000081101580156109b557506969e10de76676d08000008111155b6109d15760405162461bcd60e51b81526004016108d4906148d7565b60058054908290556040517fccb45da8d5717e6c4544694297c4ba5cf151d455c9bb0ed4fc7a38411bc05461906109499083908590614b77565b6000546001600160a01b03163314610a355760405162461bcd60e51b81526004016108d490614807565b6202a3008110158015610a4b575062093a808111155b610a675760405162461bcd60e51b81526004016108d490614867565b60038054908290556040517fc565b045403dc03c2eea82b81a0465edad9e2e7fc4d97e11421c209da93d7a93906109499083908590614b77565b604051610aad90614595565b604051809103902081565b6203f48081565b69d3c21bcecceda100000081565b6969e10de76676d080000081565b6001546001600160a01b031681565b6060806060806000600b600087815260200190815260200160002090508060030181600401826005018360060183805480602002602001604051908101604052809291908181526020018280548015610b6c57602002820191906000526020600020905b81546001600160a01b03168152600190910190602001808311610b4e575b5050505050935082805480602002602001604051908101604052809291908181526020018280548015610bbe57602002820191906000526020600020905b815481526020019060010190808311610baa575b5050505050925081805480602002602001604051908101604052809291908181526020016000905b82821015610caf5760008481526020908190208301805460408051601f60027fffffffffffffffffffffffffffffffffffffffffffffffffffffffffffffffff610100600187161502019094169390930492830185900485028101850190915281815292830182828015610c9b5780601f10610c7057610100808354040283529160200191610c9b565b820191906000526020600020905b815481529060010190602001808311610c7e57829003601f168201915b505050505081526020019060010190610be6565b50505050915080805480602002602001604051908101604052809291908181526020016000905b82821015610d9f5760008481526020908190208301805460408051601f60027fffffffffffffffffffffffffffffffffffffffffffffffffffffffffffffffff610100600187161502019094169390930492830185900485028101850190915281815292830182828015610d8b5780601f10610d6057610100808354040283529160200191610d8b565b820191906000526020600020905b815481529060010190602001808311610d6e57829003601f168201915b505050505081526020019060010190610cd6565b5050505090509450945094509450509193509193565b60035481565b6000604051610dc990614595565b60408051918290038220828201909152600d82527f426f626120476f7665726e6f72000000000000000000000000000000000000006020909201919091527f1ad158c379cc8fb970052e59be23591551a366de2599ef65b8df53f3f63b1b6e610e306123cc565b30604051602001610e4494939291906146e8565b6040516020818303038152906040528051906020012090506000604051610e6a90614559565b604051908190038120610e83918990899060200161471d565b60405160208183030381529060405280519060200120905060008282604051602001610eb0929190614564565b604051602081830303815290604052805190602001209050600060018288888860405160008152602001604052604051610eed9493929190614745565b6020604051602081039080840390855afa158015610f0f573d6000803e3d6000fd5b50506040517fffffffffffffffffffffffffffffffffffffffffffffffffffffffffffffffe001519150506001600160a01b038116610f605760405162461bcd60e51b81526004016108d490614897565b806001600160a01b03167fb8e138887d0aa13bab447e82de9d5c1777041ecd21ca36ba824ff1e6c07ddda48a8a610f98858e8e6123d1565b604051610fa793929190614bcb565b60405180910390a2505050505050505050565b60008160075410158015610fd057506006548210155b610fec5760405162461bcd60e51b81526004016108d4906149d7565b6000828152600b60205260409020600e81015460ff1615611011576002915050611155565b80600901544211611026576000915050611155565b80600a0154421161103b576001915050611155565b80600c015481600b015411158061105f575069d3c21bcecceda100000081600b0154105b1561106e576003915050611155565b6002810154611081576004915050611155565b600e810154610100900460ff161561109d576007915050611155565b6002810154600854604080517fc1a287e2000000000000000000000000000000000000000000000000000000008152905161113f93926001600160a01b03169163c1a287e2916004808301926020929190829003018186803b15801561110257600080fd5b505afa158015611116573d6000803e3d6000fd5b505050506040513d601f19601f8201168201806040525061113a9190810190613097565b6126ac565b421061114f576006915050611155565b60059150505b919050565b600761116582610fba565b600781111561117057fe5b141561118e5760405162461bcd60e51b81526004016108d4906149a7565b6000818152600b6020526040902060018101546001600160a01b03163314806113105750600554600a54600183810154611300926001600160a01b039081169263782d6fe192909116906111e39043906126d1565b6040518363ffffffff1660e01b81526004016112009291906145e4565b60206040518083038186803b15801561121857600080fd5b505afa15801561122c573d6000803e3d6000fd5b505050506040513d601f19601f820116820180604052506112509190810190613242565b6009546001858101546001600160a01b039283169263782d6fe1929116906112799043906126d1565b6040518363ffffffff1660e01b81526004016112969291906145e4565b60206040518083038186803b1580156112ae57600080fd5b505afa1580156112c2573d6000803e3d6000fd5b505050506040513d601f19601f820116820180604052506112e69190810190613242565b6bffffffffffffffffffffffff169063ffffffff6126f916565b6bffffffffffffffffffffffff16105b61132c5760405162461bcd60e51b81526004016108d490614937565b600e810180547fffffffffffffffffffffffffffffffffffffffffffffffffffffffffffffff0016600117905560005b6003820154811015611456576008546003830180546001600160a01b039092169163591fcdfe91908490811061138e57fe5b6000918252602090912001546004850180546001600160a01b0390921691859081106113b657fe5b90600052602060002001548560050185815481106113d057fe5b906000526020600020018660060186815481106113e957fe5b9060005260206000200187600201546040518663ffffffff1660e01b815260040161141895949392919061464c565b600060405180830381600087803b15801561143257600080fd5b505af1158015611446573d6000803e3d6000fd5b50506001909201915061135c9050565b507f789cf55be980739dad1d0699b93b58e806b51c9d96619bfa8fe0a28abaa7b30c8260405161094991906146da565b337fb8e138887d0aa13bab447e82de9d5c1777041ecd21ca36ba824ff1e6c07ddda483836114b58483836123d1565b6040516114c493929190614bcb565b60405180910390a25050565b6002546001600160a01b031681565b6008546001600160a01b0316156115085760405162461bcd60e51b81526004016108d4906147b7565b6000546001600160a01b031633146115325760405162461bcd60e51b81526004016108d4906148c7565b6001600160a01b0386166115585760405162461bcd60e51b81526004016108d4906147f7565b6001600160a01b03851661157e5760405162461bcd60e51b81526004016108d490614967565b6001600160a01b0384166115a45760405162461bcd60e51b81526004016108d4906149b7565b6203f48083101580156115ba5750621275008311155b6115d65760405162461bcd60e51b81526004016108d4906149e7565b6202a30082101580156115ec575062093a808211155b6116085760405162461bcd60e51b81526004016108d4906148a7565b690a968163f0a57b400000811015801561162c57506969e10de76676d08000008111155b6116485760405162461bcd60e51b81526004016108d490614877565b600880547fffffffffffffffffffffffff00000000000000000000000000000000000000009081166001600160a01b039889161790915560098054821696881696909617909555600a80549095169390951692909217909255600491909155600355600555565b690a968163f0a57b40000081565b337fb8e138887d0aa13bab447e82de9d5c1777041ecd21ca36ba824ff1e6c07ddda485856116ec8483836123d1565b86866040516116ff959493929190614b85565b60405180910390a250505050565b600a81565b6000546001600160a01b0316331461173c5760405162461bcd60e51b81526004016108d490614987565b6006541561175c5760405162461bcd60e51b81526004016108d490614907565b600060078190556001600655600854604080517f0e18b68100000000000000000000000000000000000000000000000000000000815290516001600160a01b0390921692630e18b6819260048084019382900301818387803b1580156117c157600080fd5b505af11580156117d5573d6000803e3d6000fd5b50505050565b6212750081565b600a546001600160a01b031681565b62093a8081565b60055481565b6000546001600160a01b031633146118285760405162461bcd60e51b81526004016108d4906147c7565b600180546001600160a01b038381167fffffffffffffffffffffffff00000000000000000000000000000000000000008316179092556040519116907fca4f2f25d0898edd99413412fb94012f9e54ec8142f9b093e7720646a95b16a99061094990839085906145c9565b6009546001600160a01b031681565b6008546001600160a01b031681565b60075481565b6000600654600014156118dc5760405162461bcd60e51b81526004016108d490614817565b600554600a546119a7906001600160a01b031663782d6fe1336119004360016126d1565b6040518363ffffffff1660e01b815260040161191d9291906145ae565b60206040518083038186803b15801561193557600080fd5b505afa158015611949573d6000803e3d6000fd5b505050506040513d601f19601f8201168201806040525061196d9190810190613242565b6009546001600160a01b031663782d6fe13361198a4360016126d1565b6040518363ffffffff1660e01b81526004016112969291906145ae565b6bffffffffffffffffffffffff16116119d25760405162461bcd60e51b81526004016108d490614997565b845186511480156119e4575083518651145b80156119f1575082518651145b611a0d5760405162461bcd60e51b81526004016108d4906148b7565b8551611a2b5760405162461bcd60e51b81526004016108d490614917565b600a86511115611a4d5760405162461bcd60e51b81526004016108d490614947565b336000908152600c60205260409020548015611aca576000611a6e82610fba565b90506001816007811115611a7e57fe5b1415611a9c5760405162461bcd60e51b81526004016108d490614977565b6000816007811115611aaa57fe5b1415611ac85760405162461bcd60e51b81526004016108d490614957565b505b6000611ad8426003546126ac565b90506000611ae8826004546126ac565b6007805460010190559050611afb6128a7565b6040518061020001604052806007548152602001336001600160a01b03168152602001600081526020018b81526020018a81526020018981526020018881526020018781526020016000815260200184815260200183815260200160008152602001600081526020016000815260200160001515815260200160001515815250905080600b6000836000015181526020019081526020016000206000820151816000015560208201518160010160006101000a8154816001600160a01b0302191690836001600160a01b03160217905550604082015181600201556060820151816003019080519060200190611bf2929190612931565b5060808201518051611c0e9160048401916020909101906129ae565b5060a08201518051611c2a9160058401916020909101906129f5565b5060c08201518051611c46916006840191602090910190612a4e565b5060e08201518051611c62916007840191602090910190612aa7565b506101008201518160080155610120820151816009015561014082015181600a015561016082015181600b015561018082015181600c01556101a082015181600d01556101c082015181600e0160006101000a81548160ff0219169083151502179055506101e082015181600e0160016101000a81548160ff0219169083151502179055509050508060000151600c600083602001516001600160a01b03166001600160a01b03168152602001908152602001600020819055507f7d84a6263ae0d98d3329bd7b46bb4e8d6f98cd35a7adb45c274c8b7fd5ebd5e08160000151338c8c8c8c89898e604051611d5f99989796959493929190614a15565b60405180910390a15193505050505b95945050505050565b6004611d8282610fba565b6007811115611d8d57fe5b14611daa5760405162461bcd60e51b81526004016108d4906148e7565b6000818152600b6020908152604080832060085482517f6a42b8f80000000000000000000000000000000000000000000000000000000081529251919493611e1d9342936001600160a01b0390931692636a42b8f892600480840193919291829003018186803b15801561110257600080fd5b905060005b600383015481101561200157611ff9836003018281548110611e4057fe5b6000918252602090912001546004850180546001600160a01b039092169184908110611e6857fe5b9060005260206000200154856005018481548110611e8257fe5b600091825260209182902001805460408051601f60027fffffffffffffffffffffffffffffffffffffffffffffffffffffffffffffffff610100600187161502019094169390930492830185900485028101850190915281815292830182828015611f2e5780601f10611f0357610100808354040283529160200191611f2e565b820191906000526020600020905b815481529060010190602001808311611f1157829003601f168201915b5050505050866006018581548110611f4257fe5b600091825260209182902001805460408051601f60027fffffffffffffffffffffffffffffffffffffffffffffffffffffffffffffffff610100600187161502019094169390930492830185900485028101850190915281815292830182828015611fee5780601f10611fc357610100808354040283529160200191611fee565b820191906000526020600020905b815481529060010190602001808311611fd157829003601f168201915b50505050508661272f565b600101611e22565b50600282018190556040517f9a2e42fd6722813d69113e7d0079d3d940171428df7373df9c7f7617cfda28929061203b9085908490614b77565b60405180910390a1505050565b604051610aad90614559565b61205c612b14565b506000828152600b602090815260408083206001600160a01b0385168452600f018252918290208251606081018452905460ff8082161515835261010082041692820192909252620100009091046bffffffffffffffffffffffff16918101919091525b92915050565b6202a30081565b6001546001600160a01b0316331480156120e657503315155b6121025760405162461bcd60e51b81526004016108d490614927565b60008054600180546001600160a01b038082167fffffffffffffffffffffffff00000000000000000000000000000000000000008086168217968790559092169092556040519282169390927ff9ffabca9c8276e99321725bcb43fb076a6c66a54b7f21c4e8146d8519b417dc9261217e9286929116906145c9565b60405180910390a16001546040517fca4f2f25d0898edd99413412fb94012f9e54ec8142f9b093e7720646a95b16a9916109499184916001600160a01b0316906145c9565b6000546001600160a01b031681565b60065481565b60056121e382610fba565b60078111156121ee57fe5b1461220b5760405162461bcd60e51b81526004016108d490614887565b6000818152600b60205260408120600e810180547fffffffffffffffffffffffffffffffffffffffffffffffffffffffffffff00ff16610100179055905b600382015481101561239c576008546004830180546001600160a01b0390921691630825f38f91908490811061227b57fe5b906000526020600020015484600301848154811061229557fe5b6000918252602090912001546004860180546001600160a01b0390921691869081106122bd57fe5b90600052602060002001548660050186815481106122d757fe5b906000526020600020018760060187815481106122f057fe5b9060005260206000200188600201546040518763ffffffff1660e01b815260040161231f95949392919061464c565b6000604051808303818588803b15801561233857600080fd5b505af115801561234c573d6000803e3d6000fd5b50505050506040513d6000823e601f3d9081017fffffffffffffffffffffffffffffffffffffffffffffffffffffffffffffffe016820160405261239391908101906130b5565b50600101612249565b507f712ae1383f79ac853f8d882153778e0260ef8f03b504e2866e0593e04d2b291f8260405161094991906146da565b465b90565b600060016123de84610fba565b60078111156123e957fe5b146124065760405162461bcd60e51b81526004016108d490614847565b60028260ff16111561242a5760405162461bcd60e51b81526004016108d4906147a7565b6000838152600b6020526040902060088101546124525761244c4360016126d1565b60088201555b6001600160a01b0385166000908152600f820160205260409020805460ff161561248e5760405162461bcd60e51b81526004016108d490614857565b600a5460088301546040517f782d6fe1000000000000000000000000000000000000000000000000000000008152600092612583926001600160a01b039091169163782d6fe1916124e4918c91906004016145e4565b60206040518083038186803b1580156124fc57600080fd5b505afa158015612510573d6000803e3d6000fd5b505050506040513d601f19601f820116820180604052506125349190810190613242565b60095460088601546040517f782d6fe10000000000000000000000000000000000000000000000000000000081526001600160a01b039092169163782d6fe191611296918d91906004016145e4565b905060ff85166125b3576125a983600c0154826bffffffffffffffffffffffff166126ac565b600c840155612613565b8460ff16600114156125e5576125db83600b0154826bffffffffffffffffffffffff166126ac565b600b840155612613565b8460ff16600214156126135761260d83600d0154826bffffffffffffffffffffffff166126ac565b600d8401555b815460017fffffffffffffffffffffffffffffffffffffffffffffffffffffffffffffff00909116177fffffffffffffffffffffffffffffffffffffffffffffffffffffffffffff00ff1661010060ff871602177fffffffffffffffffffffffffffffffffffff000000000000000000000000ffff16620100006bffffffffffffffffffffffff831602179091559150505b9392505050565b6000828201838110156126a55760405162461bcd60e51b81526004016108d4906148f7565b6000828211156126f35760405162461bcd60e51b81526004016108d4906149f7565b50900390565b60008282016bffffffffffffffffffffffff80851690821610156126a55760405162461bcd60e51b81526004016108d490614827565b6008546040516001600160a01b039091169063f2b065379061275d90889088908890889088906020016145f2565b604051602081830303815290604052805190602001206040518263ffffffff1660e01b815260040161278f91906146da565b60206040518083038186803b1580156127a757600080fd5b505afa1580156127bb573d6000803e3d6000fd5b505050506040513d601f19601f820116820180604052506127df9190810190613079565b156127fc5760405162461bcd60e51b81526004016108d4906147d7565b6008546040517f3a66f9010000000000000000000000000000000000000000000000000000000081526001600160a01b0390911690633a66f9019061284d90889088908890889088906004016145f2565b602060405180830381600087803b15801561286757600080fd5b505af115801561287b573d6000803e3d6000fd5b505050506040513d601f19601f8201168201806040525061289f9190810190613097565b505050505050565b6040518061020001604052806000815260200160006001600160a01b031681526020016000815260200160608152602001606081526020016060815260200160608152602001606081526020016000815260200160008152602001600081526020016000815260200160008152602001600081526020016000151581526020016000151581525090565b82805482825590600052602060002090810192821561299e579160200282015b8281111561299e57825182547fffffffffffffffffffffffff0000000000000000000000000000000000000000166001600160a01b03909116178255602090920191600190910190612951565b506129aa929150612b34565b5090565b8280548282559060005260206000209081019282156129e9579160200282015b828111156129e95782518255916020019190600101906129ce565b506129aa929150612b70565b828054828255906000526020600020908101928215612a42579160200282015b82811115612a425782518051612a32918491602090910190612aa7565b5091602001919060010190612a15565b506129aa929150612b8a565b828054828255906000526020600020908101928215612a9b579160200282015b82811115612a9b5782518051612a8b918491602090910190612aa7565b5091602001919060010190612a6e565b506129aa929150612bad565b828054600181600116156101000203166002900490600052602060002090601f016020900481019282601f10612ae857805160ff19168380011785556129e9565b828001600101855582156129e957918201828111156129e95782518255916020019190600101906129ce565b604080516060810182526000808252602082018190529181019190915290565b6123ce91905b808211156129aa5780547fffffffffffffffffffffffff0000000000000000000000000000000000000000168155600101612b3a565b6123ce91905b808211156129aa5760008155600101612b76565b6123ce91905b808211156129aa576000612ba48282612bd0565b50600101612b90565b6123ce91905b808211156129aa576000612bc78282612bd0565b50600101612bb3565b50805460018160011615610100020316600290046000825580601f10612bf65750612c14565b601f016020900490600052602060002090810190612c149190612b70565b50565b80356120c081614d80565b600082601f830112612c3357600080fd5b8135612c46612c4182614c2b565b614c04565b91508181835260208401935060208101905083856020840282011115612c6b57600080fd5b60005b83811015612c975781612c818882612c17565b8452506020928301929190910190600101612c6e565b5050505092915050565b600082601f830112612cb257600080fd5b8135612cc0612c4182614c2b565b81815260209384019390925082018360005b83811015612c975781358601612ce88882612dec565b8452506020928301929190910190600101612cd2565b600082601f830112612d0f57600080fd5b8135612d1d612c4182614c2b565b81815260209384019390925082018360005b83811015612c975781358601612d458882612dec565b8452506020928301929190910190600101612d2f565b600082601f830112612d6c57600080fd5b8135612d7a612c4182614c2b565b91508181835260208401935060208101905083856020840282011115612d9f57600080fd5b60005b83811015612c975781612db58882612dd6565b8452506020928301929190910190600101612da2565b80516120c081614d94565b80356120c081614d9d565b80516120c081614d9d565b600082601f830112612dfd57600080fd5b8135612e0b612c4182614c4c565b91508082526020830160208301858383011115612e2757600080fd5b612e32838284614d16565b50505092915050565b600082601f830112612e4c57600080fd5b8151612e5a612c4182614c4c565b91508082526020830160208301858383011115612e7657600080fd5b612e32838284614d22565b60008083601f840112612e9357600080fd5b50813567ffffffffffffffff811115612eab57600080fd5b602083019150836001820283011115612ec357600080fd5b9250929050565b80356120c081614da6565b80516120c081614daf565b600060208284031215612ef257600080fd5b6000612efe8484612c17565b949350505050565b60008060008060008060c08789031215612f1f57600080fd5b6000612f2b8989612c17565b9650506020612f3c89828a01612c17565b9550506040612f4d89828a01612c17565b9450506060612f5e89828a01612dd6565b9350506080612f6f89828a01612dd6565b92505060a0612f8089828a01612dd6565b9150509295509295509295565b600080600080600060a08688031215612fa557600080fd5b853567ffffffffffffffff811115612fbc57600080fd5b612fc888828901612c22565b955050602086013567ffffffffffffffff811115612fe557600080fd5b612ff188828901612d5b565b945050604086013567ffffffffffffffff81111561300e57600080fd5b61301a88828901612cfe565b935050606086013567ffffffffffffffff81111561303757600080fd5b61304388828901612ca1565b925050608086013567ffffffffffffffff81111561306057600080fd5b61306c88828901612dec565b9150509295509295909350565b60006020828403121561308b57600080fd5b6000612efe8484612dcb565b6000602082840312156130a957600080fd5b6000612efe8484612de1565b6000602082840312156130c757600080fd5b815167ffffffffffffffff8111156130de57600080fd5b612efe84828501612e3b565b6000602082840312156130fc57600080fd5b6000612efe8484612dd6565b6000806040838503121561311b57600080fd5b60006131278585612dd6565b925050602061313885828601612c17565b9150509250929050565b6000806040838503121561315557600080fd5b60006131618585612dd6565b925050602061313885828601612eca565b6000806000806060858703121561318857600080fd5b60006131948787612dd6565b94505060206131a587828801612eca565b935050604085013567ffffffffffffffff8111156131c257600080fd5b6131ce87828801612e81565b95989497509550505050565b600080600080600060a086880312156131f257600080fd5b60006131fe8888612dd6565b955050602061320f88828901612eca565b945050604061322088828901612eca565b935050606061323188828901612dd6565b925050608061306c88828901612dd6565b60006020828403121561325457600080fd5b6000612efe8484612ed5565b600061326c838361329b565b505060200190565b60006126a5838361343d565b600061326c8383613423565b61329581614cee565b82525050565b61329581614cb1565b60006132af82614ca4565b6132b98185614ca8565b93506132c483614c92565b8060005b838110156132f25781516132dc8882613260565b97506132e783614c92565b9250506001016132c8565b509495945050505050565b600061330882614ca4565b6133128185614ca8565b93508360208202850161332485614c92565b8060005b8581101561335e57848403895281516133418582613274565b945061334c83614c92565b60209a909a0199925050600101613328565b5091979650505050505050565b600061337682614ca4565b6133808185614ca8565b93508360208202850161339285614c92565b8060005b8581101561335e57848403895281516133af8582613274565b94506133ba83614c92565b60209a909a0199925050600101613396565b60006133d782614ca4565b6133e18185614ca8565b93506133ec83614c92565b8060005b838110156132f25781516134048882613280565b975061340f83614c92565b9250506001016133f0565b61329581614cbc565b613295816123ce565b613295613438826123ce565b6123ce565b600061344882614ca4565b6134528185614ca8565b9350613462818560208601614d22565b61346b81614d4e565b9093019392505050565b60008154600181166000811461349257600181146134d657613515565b607f60028304166134a38187614ca8565b7fffffffffffffffffffffffffffffffffffffffffffffffffffffffffffffff0084168152955050602085019250613515565b600282046134e48187614ca8565b95506134ef85614c98565b60005b8281101561350e578154888201526001909101906020016134f2565b8701945050505b505092915050565b61329581614cf5565b61329581614d00565b600061353b8385614ca8565b9350613548838584614d16565b61346b83614d4e565b600061355e603283614ca8565b7f476f7665726e6f72427261766f3a3a63617374566f7465496e7465726e616c3a81527f20696e76616c696420766f746520747970650000000000000000000000000000602082015260400192915050565b60006135bd602883611155565b7f42616c6c6f742875696e743235362070726f706f73616c49642c75696e74382081527f737570706f727429000000000000000000000000000000000000000000000000602082015260280192915050565b600061361c603383614ca8565b7f476f7665726e6f72427261766f3a3a696e697469616c697a653a2063616e206f81527f6e6c7920696e697469616c697a65206f6e636500000000000000000000000000602082015260400192915050565b600061367b602a83614ca8565b7f476f7665726e6f72427261766f3a5f73657450656e64696e6741646d696e3a2081527f61646d696e206f6e6c7900000000000000000000000000000000000000000000602082015260400192915050565b60006136da605583614ca8565b7f476f7665726e6f72427261766f3a3a71756575654f72526576657274496e746581527f726e616c3a206964656e746963616c2070726f706f73616c20616374696f6e2060208201527f616c726561647920717565756564206174206574610000000000000000000000604082015260600192915050565b600061375f602b83614ca8565b7f476f7665726e6f72427261766f3a3a5f736574566f74696e67506572696f643a81527f2061646d696e206f6e6c79000000000000000000000000000000000000000000602082015260400192915050565b60006137be603383614ca8565b7f476f7665726e6f72427261766f3a3a696e697469616c697a653a20696e76616c81527f69642074696d656c6f636b206164647265737300000000000000000000000000602082015260400192915050565b600061381d602a83614ca8565b7f476f7665726e6f72427261766f3a3a5f736574566f74696e6744656c61793a2081527f61646d696e206f6e6c7900000000000000000000000000000000000000000000602082015260400192915050565b600061387c603183614ca8565b7f476f7665726e6f72427261766f3a3a70726f706f73653a20476f7665726e6f7281527f20427261766f206e6f7420616374697665000000000000000000000000000000602082015260400192915050565b60006138db600283611155565b7f1901000000000000000000000000000000000000000000000000000000000000815260020192915050565b6000613914601b83614ca8565b7f536166654d6174683a206164646974696f6e206f766572666c6f770000000000815260200192915050565b600061394d603683614ca8565b7f476f7665726e6f72427261766f3a3a5f736574566f74696e67506572696f643a81527f20696e76616c696420766f74696e6720706572696f6400000000000000000000602082015260400192915050565b60006139ac603183614ca8565b7f476f7665726e6f72427261766f3a3a63617374566f7465496e7465726e616c3a81527f20766f74696e6720697320636c6f736564000000000000000000000000000000602082015260400192915050565b6000613a0b603483614ca8565b7f476f7665726e6f72427261766f3a3a63617374566f7465496e7465726e616c3a81527f20766f74657220616c726561647920766f746564000000000000000000000000602082015260400192915050565b6000613a6a603483614ca8565b7f476f7665726e6f72427261766f3a3a5f736574566f74696e6744656c61793a2081527f696e76616c696420766f74696e672064656c6179000000000000000000000000602082015260400192915050565b6000613ac9603583614ca8565b7f476f7665726e6f72427261766f3a3a696e697469616c697a653a20696e76616c81527f69642070726f706f73616c207468726573686f6c640000000000000000000000602082015260400192915050565b6000613b28604583614ca8565b7f476f7665726e6f72427261766f3a3a657865637574653a2070726f706f73616c81527f2063616e206f6e6c79206265206578656375746564206966206974206973207160208201527f7565756564000000000000000000000000000000000000000000000000000000604082015260600192915050565b6000613bad602f83614ca8565b7f476f7665726e6f72427261766f3a3a63617374566f746542795369673a20696e81527f76616c6964207369676e61747572650000000000000000000000000000000000602082015260400192915050565b6000613c0c602f83614ca8565b7f476f7665726e6f72427261766f3a3a696e697469616c697a653a20696e76616c81527f696420766f74696e672064656c61790000000000000000000000000000000000602082015260400192915050565b6000613c6b604483614ca8565b7f476f7665726e6f72427261766f3a3a70726f706f73653a2070726f706f73616c81527f2066756e6374696f6e20696e666f726d6174696f6e206172697479206d69736d60208201527f6174636800000000000000000000000000000000000000000000000000000000604082015260600192915050565b6000613cf0602583614ca8565b7f476f7665726e6f72427261766f3a3a696e697469616c697a653a2061646d696e81527f206f6e6c79000000000000000000000000000000000000000000000000000000602082015260400192915050565b6000613d4f604083614ca8565b7f476f7665726e6f72427261766f3a3a5f73657450726f706f73616c546872657381527f686f6c643a20696e76616c69642070726f706f73616c207468726573686f6c64602082015260400192915050565b6000613dae604483614ca8565b7f476f7665726e6f72427261766f3a3a71756575653a2070726f706f73616c206381527f616e206f6e6c792062652071756575656420696620697420697320737563636560208201527f6564656400000000000000000000000000000000000000000000000000000000604082015260600192915050565b6000613e33601183614ca8565b7f6164646974696f6e206f766572666c6f77000000000000000000000000000000815260200192915050565b6000613e6c604383611155565b7f454950373132446f6d61696e28737472696e67206e616d652c75696e7432353681527f20636861696e49642c6164647265737320766572696679696e67436f6e74726160208201527f6374290000000000000000000000000000000000000000000000000000000000604082015260430192915050565b6000613ef1603083614ca8565b7f476f7665726e6f72427261766f3a3a5f696e6974696174653a2063616e206f6e81527f6c7920696e697469617465206f6e636500000000000000000000000000000000602082015260400192915050565b6000613f50602c83614ca8565b7f476f7665726e6f72427261766f3a3a70726f706f73653a206d7573742070726f81527f7669646520616374696f6e730000000000000000000000000000000000000000602082015260400192915050565b6000613faf602e83614ca8565b7f476f7665726e6f72427261766f3a5f61636365707441646d696e3a2070656e6481527f696e672061646d696e206f6e6c79000000000000000000000000000000000000602082015260400192915050565b600061400e602f83614ca8565b7f476f7665726e6f72427261766f3a3a63616e63656c3a2070726f706f7365722081527f61626f7665207468726573686f6c640000000000000000000000000000000000602082015260400192915050565b600061406d602883614ca8565b7f476f7665726e6f72427261766f3a3a70726f706f73653a20746f6f206d616e7981527f20616374696f6e73000000000000000000000000000000000000000000000000602082015260400192915050565b60006140cc605983614ca8565b7f476f7665726e6f72427261766f3a3a70726f706f73653a206f6e65206c69766581527f2070726f706f73616c207065722070726f706f7365722c20666f756e6420616e60208201527f20616c72656164792070656e64696e672070726f706f73616c00000000000000604082015260600192915050565b6000614151603283614ca8565b7f476f7665726e6f72427261766f3a3a696e697469616c697a653a20696e76616c81527f6964206c3220626f626120616464726573730000000000000000000000000000602082015260400192915050565b60006141b0605883614ca8565b7f476f7665726e6f72427261766f3a3a70726f706f73653a206f6e65206c69766581527f2070726f706f73616c207065722070726f706f7365722c20666f756e6420616e60208201527f20616c7265616479206163746976652070726f706f73616c0000000000000000604082015260600192915050565b60006120c0600083614ca8565b6000614242602483614ca8565b7f476f7665726e6f72427261766f3a3a5f696e6974696174653a2061646d696e2081527f6f6e6c7900000000000000000000000000000000000000000000000000000000602082015260400192915050565b60006142a1603f83614ca8565b7f476f7665726e6f72427261766f3a3a70726f706f73653a2070726f706f73657281527f20766f7465732062656c6f772070726f706f73616c207468726573686f6c6400602082015260400192915050565b6000614300603683614ca8565b7f476f7665726e6f72427261766f3a3a63616e63656c3a2063616e6e6f7420636181527f6e63656c2065786563757465642070726f706f73616c00000000000000000000602082015260400192915050565b600061435f603383614ca8565b7f476f7665726e6f72427261766f3a3a696e697469616c697a653a20696e76616c81527f6964206c322078626f6261206164647265737300000000000000000000000000602082015260400192915050565b60006143be603083614ca8565b7f476f7665726e6f72427261766f3a3a5f73657450726f706f73616c546872657381527f686f6c643a2061646d696e206f6e6c7900000000000000000000000000000000602082015260400192915050565b600061441d602983614ca8565b7f476f7665726e6f72427261766f3a3a73746174653a20696e76616c696420707281527f6f706f73616c2069640000000000000000000000000000000000000000000000602082015260400192915050565b600061447c603083614ca8565b7f476f7665726e6f72427261766f3a3a696e697469616c697a653a20696e76616c81527f696420766f74696e6720706572696f6400000000000000000000000000000000602082015260400192915050565b60006144db601583614ca8565b7f7375627472616374696f6e20756e646572666c6f770000000000000000000000815260200192915050565b80516060830190614518848261341a565b50602082015161452b602085018261453e565b5060408201516117d56040850182614550565b61329581614cd7565b61329581614d0b565b61329581614cdd565b60006120c0826135b0565b600061456f826138ce565b915061457b828561342c565b60208201915061458b828461342c565b5060200192915050565b60006120c082613e5f565b602081016120c0828461329b565b604081016145bc828561328c565b6126a56020830184613423565b604081016145d7828561329b565b6126a5602083018461329b565b604081016145bc828561329b565b60a08101614600828861329b565b61460d6020830187613423565b818103604083015261461f818661343d565b90508181036060830152614633818561343d565b90506146426080830184613423565b9695505050505050565b60a0810161465a828861329b565b6146676020830187613423565b81810360408301526146798186613475565b905081810360608301526146338185613475565b6080808252810161469e81876132a4565b905081810360208301526146b281866133cc565b905081810360408301526146c6818561336b565b9050818103606083015261464281846132fd565b602081016120c08284613423565b608081016146f68287613423565b6147036020830186613423565b6147106040830185613423565b611d6e606083018461329b565b6060810161472b8286613423565b6147386020830185613423565b612efe604083018461453e565b608081016147538287613423565b614760602083018661453e565b61476d6040830185613423565b611d6e6060830184613423565b602081016120c0828461351d565b602081016120c08284613526565b602080825281016126a5818461343d565b602080825281016120c081613551565b602080825281016120c08161360f565b602080825281016120c08161366e565b602080825281016120c0816136cd565b602080825281016120c081613752565b602080825281016120c0816137b1565b602080825281016120c081613810565b602080825281016120c08161386f565b602080825281016120c081613907565b602080825281016120c081613940565b602080825281016120c08161399f565b602080825281016120c0816139fe565b602080825281016120c081613a5d565b602080825281016120c081613abc565b602080825281016120c081613b1b565b602080825281016120c081613ba0565b602080825281016120c081613bff565b602080825281016120c081613c5e565b602080825281016120c081613ce3565b602080825281016120c081613d42565b602080825281016120c081613da1565b602080825281016120c081613e26565b602080825281016120c081613ee4565b602080825281016120c081613f43565b602080825281016120c081613fa2565b602080825281016120c081614001565b602080825281016120c081614060565b602080825281016120c0816140bf565b602080825281016120c081614144565b602080825281016120c0816141a3565b602080825281016120c081614235565b602080825281016120c081614294565b602080825281016120c0816142f3565b602080825281016120c081614352565b602080825281016120c0816143b1565b602080825281016120c081614410565b602080825281016120c08161446f565b602080825281016120c0816144ce565b606081016120c08284614507565b6101208101614a24828c613423565b614a31602083018b61328c565b8181036040830152614a43818a6132a4565b90508181036060830152614a5781896133cc565b90508181036080830152614a6b818861336b565b905081810360a0830152614a7f81876132fd565b9050614a8e60c0830186613423565b614a9b60e0830185613423565b818103610100830152614aae818461343d565b9b9a5050505050505050505050565b6101808101614acc828f613423565b614ad9602083018e61329b565b614ae6604083018d613423565b8181036060830152614af8818c61343d565b9050614b07608083018b613423565b614b1460a083018a613423565b614b2160c0830189613423565b614b2e60e0830188613423565b614b3c610100830187613423565b614b4a610120830186613423565b614b5861014083018561341a565b614b6661016083018461341a565b9d9c50505050505050505050505050565b604081016145bc8285613423565b60808101614b938288613423565b614ba0602083018761453e565b614bad6040830186614547565b8181036060830152614bc081848661352f565b979650505050505050565b60808101614bd98286613423565b614be6602083018561453e565b614bf36040830184614547565b8181036060830152611d6e81614228565b60405181810167ffffffffffffffff81118282101715614c2357600080fd5b604052919050565b600067ffffffffffffffff821115614c4257600080fd5b5060209081020190565b600067ffffffffffffffff821115614c6357600080fd5b506020601f919091017fffffffffffffffffffffffffffffffffffffffffffffffffffffffffffffffe0160190565b60200190565b60009081526020902090565b5190565b90815260200190565b60006120c082614ccb565b151590565b8061115581614d76565b6001600160a01b031690565b60ff1690565b6bffffffffffffffffffffffff1690565b60006120c0825b60006120c082614cb1565b60006120c082614cc1565b60006120c082614cdd565b82818337506000910152565b60005b83811015614d3d578181015183820152602001614d25565b838111156117d55750506000910152565b601f017fffffffffffffffffffffffffffffffffffffffffffffffffffffffffffffffe01690565b60088110612c1457fe5b614d8981614cb1565b8114612c1457600080fd5b614d8981614cbc565b614d89816123ce565b614d8981614cd7565b614d8981614cdd56fea365627a7a723158205031041f17259a7c5e62754bda5b27e4d5c634417d5d570fbe8d28c893243f0e6c6578706572696d656e74616cf564736f6c63430005110040",
  "linkReferences": {},
  "deployedLinkReferences": {}
}