{
  "_format": "hh-sol-artifact-1",
  "contractName": "OVM_StateManager",
  "sourceName": "contracts/optimistic-ethereum/OVM/execution/OVM_StateManager.sol",
  "abi": [
    {
      "inputs": [
        {
          "internalType": "address",
          "name": "_owner",
          "type": "address"
        }
      ],
      "stateMutability": "nonpayable",
      "type": "constructor"
    },
    {
      "inputs": [
        {
          "internalType": "address",
          "name": "_address",
          "type": "address"
        }
      ],
      "name": "commitAccount",
      "outputs": [
        {
          "internalType": "bool",
          "name": "",
          "type": "bool"
        }
      ],
      "stateMutability": "nonpayable",
      "type": "function"
    },
    {
      "inputs": [
        {
          "internalType": "address",
          "name": "_contract",
          "type": "address"
        },
        {
          "internalType": "bytes32",
          "name": "_key",
          "type": "bytes32"
        }
      ],
      "name": "commitContractStorage",
      "outputs": [
        {
          "internalType": "bool",
          "name": "",
          "type": "bool"
        }
      ],
      "stateMutability": "nonpayable",
      "type": "function"
    },
    {
      "inputs": [
        {
          "internalType": "address",
          "name": "_address",
          "type": "address"
        },
        {
          "internalType": "address",
          "name": "_ethAddress",
          "type": "address"
        },
        {
          "internalType": "bytes32",
          "name": "_codeHash",
          "type": "bytes32"
        }
      ],
      "name": "commitPendingAccount",
      "outputs": [],
      "stateMutability": "nonpayable",
      "type": "function"
    },
    {
      "inputs": [
        {
          "internalType": "address",
          "name": "_address",
          "type": "address"
        }
      ],
      "name": "getAccount",
      "outputs": [
        {
          "components": [
            {
              "internalType": "uint256",
              "name": "nonce",
              "type": "uint256"
            },
            {
              "internalType": "uint256",
              "name": "balance",
              "type": "uint256"
            },
            {
              "internalType": "bytes32",
              "name": "storageRoot",
              "type": "bytes32"
            },
            {
              "internalType": "bytes32",
              "name": "codeHash",
              "type": "bytes32"
            },
            {
              "internalType": "address",
              "name": "ethAddress",
              "type": "address"
            },
            {
              "internalType": "bool",
              "name": "isFresh",
              "type": "bool"
            }
          ],
          "internalType": "struct Lib_OVMCodec.Account",
          "name": "",
          "type": "tuple"
        }
      ],
      "stateMutability": "view",
      "type": "function"
    },
    {
      "inputs": [
        {
          "internalType": "address",
          "name": "_address",
          "type": "address"
        }
      ],
      "name": "getAccountEthAddress",
      "outputs": [
        {
          "internalType": "address",
          "name": "",
          "type": "address"
        }
      ],
      "stateMutability": "view",
      "type": "function"
    },
    {
      "inputs": [
        {
          "internalType": "address",
          "name": "_address",
          "type": "address"
        }
      ],
      "name": "getAccountNonce",
      "outputs": [
        {
          "internalType": "uint256",
          "name": "",
          "type": "uint256"
        }
      ],
      "stateMutability": "view",
      "type": "function"
    },
    {
      "inputs": [
        {
          "internalType": "address",
          "name": "_address",
          "type": "address"
        }
      ],
      "name": "getAccountStorageRoot",
      "outputs": [
        {
          "internalType": "bytes32",
          "name": "",
          "type": "bytes32"
        }
      ],
      "stateMutability": "view",
      "type": "function"
    },
    {
      "inputs": [
        {
          "internalType": "address",
          "name": "_contract",
          "type": "address"
        },
        {
          "internalType": "bytes32",
          "name": "_key",
          "type": "bytes32"
        }
      ],
      "name": "getContractStorage",
      "outputs": [
        {
          "internalType": "bytes32",
          "name": "",
          "type": "bytes32"
        }
      ],
      "stateMutability": "view",
      "type": "function"
    },
    {
      "inputs": [],
      "name": "getTotalUncommittedAccounts",
      "outputs": [
        {
          "internalType": "uint256",
          "name": "",
          "type": "uint256"
        }
      ],
      "stateMutability": "view",
      "type": "function"
    },
    {
      "inputs": [],
      "name": "getTotalUncommittedContractStorage",
      "outputs": [
        {
          "internalType": "uint256",
          "name": "",
          "type": "uint256"
        }
      ],
      "stateMutability": "view",
      "type": "function"
    },
    {
      "inputs": [
        {
          "internalType": "address",
          "name": "_address",
          "type": "address"
        }
      ],
      "name": "hasAccount",
      "outputs": [
        {
          "internalType": "bool",
          "name": "",
          "type": "bool"
        }
      ],
      "stateMutability": "view",
      "type": "function"
    },
    {
      "inputs": [
        {
          "internalType": "address",
          "name": "_contract",
          "type": "address"
        },
        {
          "internalType": "bytes32",
          "name": "_key",
          "type": "bytes32"
        }
      ],
      "name": "hasContractStorage",
      "outputs": [
        {
          "internalType": "bool",
          "name": "",
          "type": "bool"
        }
      ],
      "stateMutability": "view",
      "type": "function"
    },
    {
      "inputs": [
        {
          "internalType": "address",
          "name": "_address",
          "type": "address"
        }
      ],
      "name": "hasEmptyAccount",
      "outputs": [
        {
          "internalType": "bool",
          "name": "",
          "type": "bool"
        }
      ],
      "stateMutability": "view",
      "type": "function"
    },
    {
      "inputs": [],
      "name": "incrementTotalUncommittedAccounts",
      "outputs": [],
      "stateMutability": "nonpayable",
      "type": "function"
    },
    {
      "inputs": [],
      "name": "incrementTotalUncommittedContractStorage",
      "outputs": [],
      "stateMutability": "nonpayable",
      "type": "function"
    },
    {
      "inputs": [
        {
          "internalType": "address",
          "name": "_address",
          "type": "address"
        }
      ],
      "name": "initPendingAccount",
      "outputs": [],
      "stateMutability": "nonpayable",
      "type": "function"
    },
    {
      "inputs": [
        {
          "internalType": "address",
          "name": "_address",
          "type": "address"
        }
      ],
      "name": "isAuthenticated",
      "outputs": [
        {
          "internalType": "bool",
          "name": "",
          "type": "bool"
        }
      ],
      "stateMutability": "view",
      "type": "function"
    },
    {
      "inputs": [],
      "name": "ovmExecutionManager",
      "outputs": [
        {
          "internalType": "address",
          "name": "",
          "type": "address"
        }
      ],
      "stateMutability": "view",
      "type": "function"
    },
    {
      "inputs": [],
      "name": "owner",
      "outputs": [
        {
          "internalType": "address",
          "name": "",
          "type": "address"
        }
      ],
      "stateMutability": "view",
      "type": "function"
    },
    {
      "inputs": [
        {
          "internalType": "address",
          "name": "_address",
          "type": "address"
        },
        {
          "components": [
            {
              "internalType": "uint256",
              "name": "nonce",
              "type": "uint256"
            },
            {
              "internalType": "uint256",
              "name": "balance",
              "type": "uint256"
            },
            {
              "internalType": "bytes32",
              "name": "storageRoot",
              "type": "bytes32"
            },
            {
              "internalType": "bytes32",
              "name": "codeHash",
              "type": "bytes32"
            },
            {
              "internalType": "address",
              "name": "ethAddress",
              "type": "address"
            },
            {
              "internalType": "bool",
              "name": "isFresh",
              "type": "bool"
            }
          ],
          "internalType": "struct Lib_OVMCodec.Account",
          "name": "_account",
          "type": "tuple"
        }
      ],
      "name": "putAccount",
      "outputs": [],
      "stateMutability": "nonpayable",
      "type": "function"
    },
    {
      "inputs": [
        {
          "internalType": "address",
          "name": "_contract",
          "type": "address"
        },
        {
          "internalType": "bytes32",
          "name": "_key",
          "type": "bytes32"
        },
        {
          "internalType": "bytes32",
          "name": "_value",
          "type": "bytes32"
        }
      ],
      "name": "putContractStorage",
      "outputs": [],
      "stateMutability": "nonpayable",
      "type": "function"
    },
    {
      "inputs": [
        {
          "internalType": "address",
          "name": "_address",
          "type": "address"
        }
      ],
      "name": "putEmptyAccount",
      "outputs": [],
      "stateMutability": "nonpayable",
      "type": "function"
    },
    {
      "inputs": [
        {
          "internalType": "address",
          "name": "_address",
          "type": "address"
        },
        {
          "internalType": "uint256",
          "name": "_nonce",
          "type": "uint256"
        }
      ],
      "name": "setAccountNonce",
      "outputs": [],
      "stateMutability": "nonpayable",
      "type": "function"
    },
    {
      "inputs": [
        {
          "internalType": "address",
          "name": "_ovmExecutionManager",
          "type": "address"
        }
      ],
      "name": "setExecutionManager",
      "outputs": [],
      "stateMutability": "nonpayable",
      "type": "function"
    },
    {
      "inputs": [
        {
          "internalType": "address",
          "name": "_address",
          "type": "address"
        }
      ],
      "name": "testAndSetAccountChanged",
      "outputs": [
        {
          "internalType": "bool",
          "name": "",
          "type": "bool"
        }
      ],
      "stateMutability": "nonpayable",
      "type": "function"
    },
    {
      "inputs": [
        {
          "internalType": "address",
          "name": "_address",
          "type": "address"
        }
      ],
      "name": "testAndSetAccountLoaded",
      "outputs": [
        {
          "internalType": "bool",
          "name": "",
          "type": "bool"
        }
      ],
      "stateMutability": "nonpayable",
      "type": "function"
    },
    {
      "inputs": [
        {
          "internalType": "address",
          "name": "_contract",
          "type": "address"
        },
        {
          "internalType": "bytes32",
          "name": "_key",
          "type": "bytes32"
        }
      ],
      "name": "testAndSetContractStorageChanged",
      "outputs": [
        {
          "internalType": "bool",
          "name": "",
          "type": "bool"
        }
      ],
      "stateMutability": "nonpayable",
      "type": "function"
    },
    {
      "inputs": [
        {
          "internalType": "address",
          "name": "_contract",
          "type": "address"
        },
        {
          "internalType": "bytes32",
          "name": "_key",
          "type": "bytes32"
        }
      ],
      "name": "testAndSetContractStorageLoaded",
      "outputs": [
        {
          "internalType": "bool",
          "name": "",
          "type": "bool"
        }
      ],
      "stateMutability": "nonpayable",
      "type": "function"
    },
    {
      "inputs": [
        {
          "internalType": "address",
          "name": "_address",
          "type": "address"
        }
      ],
      "name": "wasAccountChanged",
      "outputs": [
        {
          "internalType": "bool",
          "name": "",
          "type": "bool"
        }
      ],
      "stateMutability": "view",
      "type": "function"
    },
    {
      "inputs": [
        {
          "internalType": "address",
          "name": "_address",
          "type": "address"
        }
      ],
      "name": "wasAccountCommitted",
      "outputs": [
        {
          "internalType": "bool",
          "name": "",
          "type": "bool"
        }
      ],
      "stateMutability": "view",
      "type": "function"
    },
    {
      "inputs": [
        {
          "internalType": "address",
          "name": "_contract",
          "type": "address"
        },
        {
          "internalType": "bytes32",
          "name": "_key",
          "type": "bytes32"
        }
      ],
      "name": "wasContractStorageChanged",
      "outputs": [
        {
          "internalType": "bool",
          "name": "",
          "type": "bool"
        }
      ],
      "stateMutability": "view",
      "type": "function"
    },
    {
      "inputs": [
        {
          "internalType": "address",
          "name": "_contract",
          "type": "address"
        },
        {
          "internalType": "bytes32",
          "name": "_key",
          "type": "bytes32"
        }
      ],
      "name": "wasContractStorageCommitted",
      "outputs": [
        {
          "internalType": "bool",
          "name": "",
          "type": "bool"
        }
      ],
      "stateMutability": "view",
      "type": "function"
    }
  ],
  "bytecode": "0x60806040525a6200000f62000087565b8015620000265760008062000023620000e3565b50505b5060405162002004380380620020048339810160408190526200004991620001ec565b8060006001816200005962000150565b816001600160a01b0302191690836001600160a01b03160217906200007d6200019d565b5050505062000232565b63a8c4c5ec598160e01b8152602081600483336000905af158600e01573d6000803e3d6000fd5b3d6001141558600a015760016000f35b8051935060005b6040811015620000de57600082820152602001620000c5565b505050565b632a2a7adb598160e01b8152600481016020815285602082015260005b868110156200011d57808601518282016040015260200162000100565b506020828760640184336000905af158600e01573d6000803e3d6000fd5b3d6001141558600a015760016000f35b505050565b6303daa959598160e01b8152836004820152602081602483336000905af158600e01573d6000803e3d6000fd5b3d6001141558600a015760016000f35b80516000825293506020620000c5565b6322bd64c0598160e01b8152836004820152846024820152600081604483336000905af158600e01573d6000803e3d6000fd5b3d6001141558600a015760016000f35b600081526020620000c5565b6000602082840312156200020957808162000206620000e3565b50505b81516001600160a01b03811681146200022b57818262000228620000e3565b50505b9392505050565b611dc280620002426000396000f3fe60806040525a61000d611922565b80156100215760008061001e611977565b50505b50600436106102015760003560e01c80638f3b964711610120578063d126199f116100b3578063e90abb8611610082578063e90abb8614610413578063fb37b31c14610426578063fbcbc0f114610439578063fcf149a21461045957610201565b8063d126199f146103d2578063d15d4150146103e5578063d54414c8146103f8578063d7bd4a2a1461040b57610201565b8063c3fd9b25116100ef578063c3fd9b2514610391578063c7650bf214610399578063c8e40fbf146103ac578063d0a215f2146103bf57610201565b80638f3b96471461035057806399056ba914610363578063af37b8641461036b578063af3dc0111461037e57610201565b806333f94305116101985780636f3c75af116101675780636f3c75af1461030f5780637c8ee703146103225780637e86faa8146103355780638da5cb5b1461034857610201565b806333f94305146102cc5780635c17d629146102d45780636b18e4e8146102e75780636c87ad20146102fa57610201565b8063167020d2116101d4578063167020d2146102735780631aaf392f146102865780631b208a5a146102a657806326dc5b12146102b957610201565b806307a129451461020f5780630ad226791461023857806311b1f7901461024b5780631381ba4d1461025e575b60008061020c611977565b50505b61022261021d366004611b30565b61046c565b60405161022f9190611d0d565b60405180910390f35b610222610246366004611b97565b6104e2565b610222610259366004611b30565b61055e565b61027161026c366004611b30565b610616565b005b610222610281366004611b30565b6106ef565b610299610294366004611b97565b610847565b60405161022f9190611d18565b6102226102b4366004611b30565b610924565b6102996102c7366004611b30565b61096c565b61027161098f565b6102716102e2366004611bc9565b610a56565b6102716102f5366004611b30565b610be6565b610302610d0c565b60405161022f9190611cf9565b61022261031d366004611b97565b610d2b565b610302610330366004611b30565b610d75565b610222610343366004611b97565b610db2565b610302610dc8565b61027161035e366004611c04565b610dd3565b610299610f45565b610222610379366004611b97565b610f56565b61022261038c366004611b97565b61100f565b6102716110c1565b6102226103a7366004611b97565b611175565b6102226103ba366004611b30565b6112cf565b6102716103cd366004611b53565b6112fb565b6102996103e0366004611b30565b6113fd565b6102226103f3366004611b30565b61141d565b610222610406366004611b30565b61148a565b61029961149f565b610271610421366004611b97565b6114ab565b610222610434366004611b30565b611573565b61044c610447366004611b30565b611624565b60405161022f9190611d77565b610271610467366004611b30565b6116db565b6001600160a01b038116600090815260026020527fc5d2460186f7233c927e7db2dcc703c0e500b653ca82273b7bfad8045d85a470604082206003016104b06119e2565b1480156104da57506001600160a01b03821660009081526002602052604090206104d86119e2565b155b90505b919050565b6001600160a01b03821660009081526004602052604081206000838152602091909152604090206000906105146119e2565b906101000a900460ff168061055557506001600160a01b038316600090815260026020526040902060040160149061054a6119e2565b906101000a900460ff165b90505b92915050565b6000808061056a6119e2565b906101000a90046001600160a01b03166001600160a01b03165a61058c611a2e565b6001600160a01b031614806105d55750600060016105a86119e2565b906101000a90046001600160a01b03166001600160a01b03165a6105ca611a2e565b6001600160a01b0316145b6106035760405162461bcd60e51b81526004016105f190611d21565b60405180910390610600611977565b50505b6104da61060f83611838565b6002611867565b6000806106216119e2565b906101000a90046001600160a01b03166001600160a01b03165a610643611a2e565b6001600160a01b0316148061068c57506000600161065f6119e2565b906101000a90046001600160a01b03166001600160a01b03165a610681611a2e565b6001600160a01b0316145b6106ba5760405162461bcd60e51b81526004016106a890611d21565b604051809103906106b7611977565b50505b80600180806106c76119e2565b816001600160a01b0302191690836001600160a01b03160217906106e9611a74565b50505050565b600080806106fb6119e2565b906101000a90046001600160a01b03166001600160a01b03165a61071d611a2e565b6001600160a01b031614806107665750600060016107396119e2565b906101000a90046001600160a01b03166001600160a01b03165a61075b611a2e565b6001600160a01b0316145b6107945760405162461bcd60e51b815260040161078290611d21565b60405180910390610791611977565b50505b600061079f83611838565b9050600260008281526005602052604090206000906107bc6119e2565b906101000a900460ff1660038111156107d157fe5b146107e05760009150506104dd565b60008181526005602052600390604090206001816107fc6119e2565b8160ff0219169083600381111561080f57fe5b02179061081a611a74565b505050600160066000828261082d6119e2565b03925050819061083b611a74565b50600195945050505050565b6001600160a01b03821660009081526004602052604081206000838152602091909152604090206000906108796119e2565b60ff6101009290920a9004161580156108be57506001600160a01b03831660009081526002602052604090206004016014906108b36119e2565b906101000a900460ff165b156108cb57506000610558565b6001600160a01b038316600090815260036020527ffeedfacecafebeeffeedfacecafebeeffeedfacecafebeeffeedfacecafebeef906040902060008481526020919091526040902061091c6119e2565b189392505050565b60008061093083611838565b905060025b600082815260056020526040902060009061094e6119e2565b906101000a900460ff16600381111561096357fe5b10159392505050565b6001600160a01b03811660009081526002602052604081206002016104da6119e2565b60008061099a6119e2565b906101000a90046001600160a01b03166001600160a01b03165a6109bc611a2e565b6001600160a01b03161480610a055750600060016109d86119e2565b906101000a90046001600160a01b03166001600160a01b03165a6109fa611a2e565b6001600160a01b0316145b610a335760405162461bcd60e51b8152600401610a2190611d21565b60405180910390610a30611977565b50505b6001600660008282610a436119e2565b019250508190610a51611a74565b505050565b600080610a616119e2565b906101000a90046001600160a01b03166001600160a01b03165a610a83611a2e565b6001600160a01b03161480610acc575060006001610a9f6119e2565b906101000a90046001600160a01b03166001600160a01b03165a610ac1611a2e565b6001600160a01b0316145b610afa5760405162461bcd60e51b8152600401610ae890611d21565b60405180910390610af7611977565b50505b6001600160a01b038316600090815260036020527ffeedfacecafebeeffeedfacecafebeeffeedfacecafebeeffeedfacecafebeef821890604090206000848152602091909152604090208190610b4f611a74565b5050506001600160a01b0383166000908152600460205260409020600083815260209190915260409020600090610b846119e2565b60ff6101009290920a900416610a51576001600160a01b0383166000908152600460205260019060409020600084815260209190915260409020600181610bc96119e2565b8160ff02191690831515021790610bde611a74565b505050505050565b600080610bf16119e2565b906101000a90046001600160a01b03166001600160a01b03165a610c13611a2e565b6001600160a01b03161480610c5c575060006001610c2f6119e2565b906101000a90046001600160a01b03166001600160a01b03165a610c51611a2e565b6001600160a01b0316145b610c8a5760405162461bcd60e51b8152600401610c7890611d21565b60405180910390610c87611977565b50505b6001600160a01b038116600090815260026020526040812090507f56e81f171bcc55a6ff8345e692c0f86e5b48e01b996cadc001622fb5e363b4218060028301610cd2611a74565b507fc5d2460186f7233c927e7db2dcc703c0e500b653ca82273b7bfad8045d85a470915081905060038301610d05611a74565b5050505050565b60006001610d186119e2565b906101000a90046001600160a01b031681565b600080610d3884846118f0565b905060025b6000828152600560205260409020600090610d566119e2565b906101000a900460ff166003811115610d6b57fe5b1015949350505050565b6001600160a01b0381166000908152600260205260408120600401600090610d9b6119e2565b906101000a90046001600160a01b03169050919050565b600080610dbf84846118f0565b90506003610d3d565b600080610d186119e2565b600080610dde6119e2565b906101000a90046001600160a01b03166001600160a01b03165a610e00611a2e565b6001600160a01b03161480610e49575060006001610e1c6119e2565b906101000a90046001600160a01b03166001600160a01b03165a610e3e611a2e565b6001600160a01b0316145b610e775760405162461bcd60e51b8152600401610e6590611d21565b60405180910390610e74611977565b50505b6001600160a01b03821660009081526002602052819060409020815181610e9c611a74565b5050602082015181600101610eaf611a74565b5050604082015181600201610ec2611a74565b5050606082015181600301610ed5611a74565b5050608082015160048201600181610eeb6119e2565b816001600160a01b0302191690836001600160a01b0316021790610f0d611a74565b50505060a082015160048201600160a01b81610f276119e2565b8160ff02191690831515021790610f3c611a74565b50505050505050565b60006007610f516119e2565b905090565b60008080610f626119e2565b906101000a90046001600160a01b03166001600160a01b03165a610f84611a2e565b6001600160a01b03161480610fcd575060006001610fa06119e2565b906101000a90046001600160a01b03166001600160a01b03165a610fc2611a2e565b6001600160a01b0316145b610ffb5760405162461bcd60e51b8152600401610fe990611d21565b60405180910390610ff8611977565b50505b61055561100884846118f0565b6001611867565b6000808061101b6119e2565b906101000a90046001600160a01b03166001600160a01b03165a61103d611a2e565b6001600160a01b031614806110865750600060016110596119e2565b906101000a90046001600160a01b03166001600160a01b03165a61107b611a2e565b6001600160a01b0316145b6110b45760405162461bcd60e51b81526004016110a290611d21565b604051809103906110b1611977565b50505b61055561060f84846118f0565b6000806110cc6119e2565b906101000a90046001600160a01b03166001600160a01b03165a6110ee611a2e565b6001600160a01b0316148061113757506000600161110a6119e2565b906101000a90046001600160a01b03166001600160a01b03165a61112c611a2e565b6001600160a01b0316145b6111655760405162461bcd60e51b815260040161115390611d21565b60405180910390611162611977565b50505b6001600760008282610a436119e2565b600080806111816119e2565b906101000a90046001600160a01b03166001600160a01b03165a6111a3611a2e565b6001600160a01b031614806111ec5750600060016111bf6119e2565b906101000a90046001600160a01b03166001600160a01b03165a6111e1611a2e565b6001600160a01b0316145b61121a5760405162461bcd60e51b815260040161120890611d21565b60405180910390611217611977565b50505b600061122684846118f0565b9050600260008281526005602052604090206000906112436119e2565b906101000a900460ff16600381111561125857fe5b14611267576000915050610558565b60008181526005602052600390604090206001816112836119e2565b8160ff0219169083600381111561129657fe5b0217906112a1611a74565b50505060016007600082826112b46119e2565b0392505081906112c2611a74565b5060019695505050505050565b6001600160a01b0381166000908152600260205280604081206003016112f36119e2565b141592915050565b6000806113066119e2565b906101000a90046001600160a01b03166001600160a01b03165a611328611a2e565b6001600160a01b031614806113715750600060016113446119e2565b906101000a90046001600160a01b03166001600160a01b03165a611366611a2e565b6001600160a01b0316145b61139f5760405162461bcd60e51b815260040161138d90611d21565b6040518091039061139c611977565b50505b6001600160a01b0383166000908152600260205260408120905082600482016001816113c96119e2565b816001600160a01b0302191690836001600160a01b03160217906113eb611a74565b50505081816003018190610f3c611a74565b6001600160a01b03811660009081526002602052604081206104da6119e2565b600080806114296119e2565b906101000a90046001600160a01b03166001600160a01b0316826001600160a01b031614806104da57506000600161145f6119e2565b906101000a90046001600160a01b03166001600160a01b0316826001600160a01b0316149050919050565b60008061149683611838565b90506003610935565b60006006610f516119e2565b6000806114b66119e2565b906101000a90046001600160a01b03166001600160a01b03165a6114d8611a2e565b6001600160a01b031614806115215750600060016114f46119e2565b906101000a90046001600160a01b03166001600160a01b03165a611516611a2e565b6001600160a01b0316145b61154f5760405162461bcd60e51b815260040161153d90611d21565b6040518091039061154c611977565b50505b6001600160a01b038216600090815260026020528190604090208190610d05611a74565b6000808061157f6119e2565b906101000a90046001600160a01b03166001600160a01b03165a6115a1611a2e565b6001600160a01b031614806115ea5750600060016115bd6119e2565b906101000a90046001600160a01b03166001600160a01b03165a6115df611a2e565b6001600160a01b0316145b6116185760405162461bcd60e51b815260040161160690611d21565b60405180910390611615611977565b50505b6104da61100883611838565b61162c611ac2565b6001600160a01b038216600090815260026020526040902060405160c081016040529081816116596119e2565b81526020016001820161166a6119e2565b81526020016002820161167b6119e2565b81526020016003820161168c6119e2565b815260200160006004830161169f6119e2565b6001600160a01b036101009290920a90041681526020016014600483016116c46119e2565b6101009190910a900460ff16151590525092915050565b6000806116e66119e2565b906101000a90046001600160a01b03166001600160a01b03165a611708611a2e565b6001600160a01b031614806117515750600060016117246119e2565b906101000a90046001600160a01b03166001600160a01b03165a611746611a2e565b6001600160a01b0316145b61177f5760405162461bcd60e51b815260040161176d90611d21565b6040518091039061177c611977565b50505b6001600160a01b03811660009081526002602052604081209050600180826117a5611a74565b507f56e81f171bcc55a6ff8345e692c0f86e5b48e01b996cadc001622fb5e363b4219150819050600283016117d8611a74565b507fc5d2460186f7233c927e7db2dcc703c0e500b653ca82273b7bfad8045d85a47091508190506003830161180b611a74565b50600191505060048201600160a01b816118236119e2565b8160ff02191690831515021790610d05611a74565b60008160405160200161184b9190611cba565b6040516020818303038152906040528051906020012092915050565b60008082600381111561187657fe5b600085815260056020526040902060009061188f6119e2565b906101000a900460ff1660038111156118a457fe5b101590508061055557600084815260056020528390604090206001816118c86119e2565b8160ff021916908360038111156118db57fe5b0217906118e6611a74565b5050509392505050565b60008282604051602001611905929190611cd7565b604051602081830303815290604052805190602001209392505050565b63a8c4c5ec598160e01b8152602081600483336000905af158600e01573d6000803e3d6000fd5b3d6001141558600a015760016000f35b8051935060005b6040811015610a5157600082820152602001611960565b632a2a7adb598160e01b8152600481016020815285602082015260005b868110156119af578086015182820160400152602001611994565b506020828760640184336000905af158600e01573d6000803e3d6000fd5b3d6001141558600a015760016000f35b505050565b6303daa959598160e01b8152836004820152602081602483336000905af158600e01573d6000803e3d6000fd5b3d6001141558600a015760016000f35b80516000825293506020611960565b6373509064598160e01b8152602081600483336000905af158600e01573d6000803e3d6000fd5b3d6001141558600a015760016000f35b80516000825293506020611960565b6322bd64c0598160e01b8152836004820152846024820152600081604483336000905af158600e01573d6000803e3d6000fd5b3d6001141558600a015760016000f35b600081526020611960565b60405160c081016040908152600080835260208301819052908201819052606082018190526080820181905260a082015290565b80356001600160a01b03811681146104dd57600080611b13611977565b5050919050565b803580151581146104dd57600080611b13611977565b600060208284031215611b4a578081611b47611977565b50505b61055582611af6565b600080600060608486031215611b70578182611b6d611977565b50505b611b7984611af6565b9250611b8760208501611af6565b9150604084013590509250925092565b60008060408385031215611bb2578182611baf611977565b50505b611bbb83611af6565b946020939093013593505050565b600080600060608486031215611be6578283611be3611977565b50505b611bef84611af6565b95602085013595506040909401359392505050565b60008082840360e0811215611c20578283611c1d611977565b50505b611c2984611af6565b925060c0601f1982011215611c45578182611c42611977565b50505b5060405160c0810181811067ffffffffffffffff82111715611c6357fe5b806040525060208401358152604084013560208201526060840135604082015260808401356060820152611c9960a08501611af6565b6080820152611caa60c08501611b1a565b60a0820152809150509250929050565b60609190911b6bffffffffffffffffffffffff1916815260140190565b60609290921b6bffffffffffffffffffffffff19168252601482015260340190565b6001600160a01b0391909116815260200190565b901515815260200190565b90815260200190565b60208082526036908201527f46756e6374696f6e2063616e206f6e6c792062652063616c6c65642062792061604082015275757468656e746963617465642061646472657373657360501b606082015260800190565b60c08101825182526020830151602083015260408301516040830152606083015160608301526001600160a01b03608084015116608083015260a0830151151560a08301529291505056",
  "linkReferences": {},
  "deployedLinkReferences": {}
}