{
  "_format": "hh-sol-artifact-1",
  "contractName": "TestOOG",
  "sourceName": "contracts/TestOOG.sol",
  "abi": [
    {
      "inputs": [],
      "name": "runOutOfGas",
      "outputs": [],
      "stateMutability": "nonpayable",
      "type": "function"
    }
  ],
  "bytecode": "0x608060405234801561001057600080fd5b5060e78061001f6000396000f3fe6080604052348015600f57600080fd5b506004361060285760003560e01c806334027f5f14602d575b600080fd5b60336035565b005b6000805b620186a08110156077576040805160208101849052016040516020818303038152906040528051906020012091508080607090607b565b9150506039565b5050565b60007fffffffffffffffffffffffffffffffffffffffffffffffffffffffffffffffff82141560d3577f4e487b7100000000000000000000000000000000000000000000000000000000600052601160045260246000fd5b506001019056fea164736f6c6343000809000a",
  "linkReferences": {},
  "deployedLinkReferences": {}
}