{
  "_format": "hh-sol-artifact-1",
  "contractName": "L1MultiMessageRelayerFast",
  "sourceName": "contracts/L1MultiMessageRelayerFast.sol",
  "abi": [
    {
      "inputs": [
        {
          "internalType": "address",
          "name": "_libAddressManager",
          "type": "address"
        }
      ],
      "stateMutability": "nonpayable",
      "type": "constructor"
    },
    {
      "inputs": [
        {
          "components": [
            {
              "internalType": "address",
              "name": "target",
              "type": "address"
            },
            {
              "internalType": "address",
              "name": "sender",
              "type": "address"
            },
            {
              "internalType": "bytes",
              "name": "message",
              "type": "bytes"
            },
            {
              "internalType": "uint256",
              "name": "messageNonce",
              "type": "uint256"
            },
            {
              "components": [
                {
                  "internalType": "bytes32",
                  "name": "stateRoot",
                  "type": "bytes32"
                },
                {
                  "components": [
                    {
                      "internalType": "uint256",
                      "name": "batchIndex",
                      "type": "uint256"
                    },
                    {
                      "internalType": "bytes32",
                      "name": "batchRoot",
                      "type": "bytes32"
                    },
                    {
                      "internalType": "uint256",
                      "name": "batchSize",
                      "type": "uint256"
                    },
                    {
                      "internalType": "uint256",
                      "name": "prevTotalElements",
                      "type": "uint256"
                    },
                    {
                      "internalType": "bytes",
                      "name": "extraData",
                      "type": "bytes"
                    }
                  ],
                  "internalType": "struct Lib_OVMCodec.ChainBatchHeader",
                  "name": "stateRootBatchHeader",
                  "type": "tuple"
                },
                {
                  "components": [
                    {
                      "internalType": "uint256",
                      "name": "index",
                      "type": "uint256"
                    },
                    {
                      "internalType": "bytes32[]",
                      "name": "siblings",
                      "type": "bytes32[]"
                    }
                  ],
                  "internalType": "struct Lib_OVMCodec.ChainInclusionProof",
                  "name": "stateRootProof",
                  "type": "tuple"
                },
                {
                  "internalType": "bytes",
                  "name": "stateTrieWitness",
                  "type": "bytes"
                },
                {
                  "internalType": "bytes",
                  "name": "storageTrieWitness",
                  "type": "bytes"
                }
              ],
              "internalType": "struct IL1CrossDomainMessenger.L2MessageInclusionProof",
              "name": "proof",
              "type": "tuple"
            }
          ],
          "internalType": "struct L1MultiMessageRelayerFast.L2ToL1Message[]",
          "name": "_messages",
          "type": "tuple[]"
        }
      ],
      "name": "batchRelayMessages",
      "outputs": [],
      "stateMutability": "nonpayable",
      "type": "function"
    },
    {
      "inputs": [
        {
          "components": [
            {
              "internalType": "address",
              "name": "target",
              "type": "address"
            },
            {
              "internalType": "address",
              "name": "sender",
              "type": "address"
            },
            {
              "internalType": "bytes",
              "name": "message",
              "type": "bytes"
            },
            {
              "internalType": "uint256",
              "name": "messageNonce",
              "type": "uint256"
            },
            {
              "components": [
                {
                  "internalType": "bytes32",
                  "name": "stateRoot",
                  "type": "bytes32"
                },
                {
                  "components": [
                    {
                      "internalType": "uint256",
                      "name": "batchIndex",
                      "type": "uint256"
                    },
                    {
                      "internalType": "bytes32",
                      "name": "batchRoot",
                      "type": "bytes32"
                    },
                    {
                      "internalType": "uint256",
                      "name": "batchSize",
                      "type": "uint256"
                    },
                    {
                      "internalType": "uint256",
                      "name": "prevTotalElements",
                      "type": "uint256"
                    },
                    {
                      "internalType": "bytes",
                      "name": "extraData",
                      "type": "bytes"
                    }
                  ],
                  "internalType": "struct Lib_OVMCodec.ChainBatchHeader",
                  "name": "stateRootBatchHeader",
                  "type": "tuple"
                },
                {
                  "components": [
                    {
                      "internalType": "uint256",
                      "name": "index",
                      "type": "uint256"
                    },
                    {
                      "internalType": "bytes32[]",
                      "name": "siblings",
                      "type": "bytes32[]"
                    }
                  ],
                  "internalType": "struct Lib_OVMCodec.ChainInclusionProof",
                  "name": "stateRootProof",
                  "type": "tuple"
                },
                {
                  "internalType": "bytes",
                  "name": "stateTrieWitness",
                  "type": "bytes"
                },
                {
                  "internalType": "bytes",
                  "name": "storageTrieWitness",
                  "type": "bytes"
                }
              ],
              "internalType": "struct IL1CrossDomainMessenger.L2MessageInclusionProof",
              "name": "proof",
              "type": "tuple"
            }
          ],
          "internalType": "struct L1MultiMessageRelayerFast.L2ToL1Message[]",
          "name": "_messages",
          "type": "tuple[]"
        },
        {
          "internalType": "bytes32",
          "name": "_standardBridgeDepositHash",
          "type": "bytes32"
        },
        {
          "internalType": "bytes32",
          "name": "_lpDepositHash",
          "type": "bytes32"
        }
      ],
      "name": "batchRelayMessages",
      "outputs": [],
      "stateMutability": "nonpayable",
      "type": "function"
    },
    {
      "inputs": [],
      "name": "libAddressManager",
      "outputs": [
        {
          "internalType": "contract Lib_AddressManager",
          "name": "",
          "type": "address"
        }
      ],
      "stateMutability": "view",
      "type": "function"
    },
    {
      "inputs": [
        {
          "internalType": "string",
          "name": "_name",
          "type": "string"
        }
      ],
      "name": "resolve",
      "outputs": [
        {
          "internalType": "address",
          "name": "",
          "type": "address"
        }
      ],
      "stateMutability": "view",
      "type": "function"
    }
  ],
  "bytecode": "0x608060405234801561001057600080fd5b50604051610f1c380380610f1c83398101604081905261002f91610054565b600080546001600160a01b0319166001600160a01b0392909216919091179055610084565b60006020828403121561006657600080fd5b81516001600160a01b038116811461007d57600080fd5b9392505050565b610e89806100936000396000f3fe608060405234801561001057600080fd5b506004361061004c5760003560e01c806316e9cd9b14610051578063299ca47814610066578063461a4478146100af5780639f35c352146100c2575b600080fd5b61006461005f366004610649565b6100d5565b005b6000546100869073ffffffffffffffffffffffffffffffffffffffff1681565b60405173ffffffffffffffffffffffffffffffffffffffff909116815260200160405180910390f35b6100866100bd3660046107cb565b610312565b6100646100d036600461081c565b6103bf565b6101136040518060400160405280601981526020017f4c324261746368466173744d65737361676552656c6179657200000000000000815250610312565b73ffffffffffffffffffffffffffffffffffffffff163373ffffffffffffffffffffffffffffffffffffffff16146101f8576040517f08c379a000000000000000000000000000000000000000000000000000000000815260206004820152605760248201527f4c314d756c74694d65737361676552656c61796572466173743a2046756e637460448201527f696f6e2063616e206f6e6c792062652063616c6c656420627920746865204c3260648201527f4261746368466173744d65737361676552656c61796572000000000000000000608482015260a4015b60405180910390fd5b600061021b604051806060016040528060218152602001610e5c60219139610312565b905060005b8281101561030c57600084848381811061023c5761023c61086d565b905060200281019061024e919061089c565b61025790610a52565b805160208201516040808401516060850151608086015192517fd7fd19dd00000000000000000000000000000000000000000000000000000000815295965073ffffffffffffffffffffffffffffffffffffffff89169563d7fd19dd956102c695909490939291600401610d06565b600060405180830381600087803b1580156102e057600080fd5b505af11580156102f4573d6000803e3d6000fd5b5050505050808061030490610d63565b915050610220565b50505050565b600080546040517fbf40fac100000000000000000000000000000000000000000000000000000000815273ffffffffffffffffffffffffffffffffffffffff9091169063bf40fac190610369908590600401610dc3565b60206040518083038186803b15801561038157600080fd5b505afa158015610395573d6000803e3d6000fd5b505050506040513d601f19601f820116820180604052508101906103b99190610dd6565b92915050565b6103fd6040518060400160405280601981526020017f4c324261746368466173744d65737361676552656c6179657200000000000000815250610312565b73ffffffffffffffffffffffffffffffffffffffff163373ffffffffffffffffffffffffffffffffffffffff16146104dd576040517f08c379a000000000000000000000000000000000000000000000000000000000815260206004820152605760248201527f4c314d756c74694d65737361676552656c61796572466173743a2046756e637460448201527f696f6e2063616e206f6e6c792062652063616c6c656420627920746865204c3260648201527f4261746368466173744d65737361676552656c61796572000000000000000000608482015260a4016101ef565b6000610500604051806060016040528060218152602001610e5c60219139610312565b905060005b848110156105f55760008686838181106105215761052161086d565b9050602002810190610533919061089c565b61053c90610a52565b805160208201516040808401516060850151608086015192517f69fdb52d00000000000000000000000000000000000000000000000000000000815295965073ffffffffffffffffffffffffffffffffffffffff8916956369fdb52d956105af959094909392918d908d90600401610df3565b600060405180830381600087803b1580156105c957600080fd5b505af11580156105dd573d6000803e3d6000fd5b505050505080806105ed90610d63565b915050610505565b505050505050565b60008083601f84011261060f57600080fd5b50813567ffffffffffffffff81111561062757600080fd5b6020830191508360208260051b850101111561064257600080fd5b9250929050565b6000806020838503121561065c57600080fd5b823567ffffffffffffffff81111561067357600080fd5b61067f858286016105fd565b90969095509350505050565b7f4e487b7100000000000000000000000000000000000000000000000000000000600052604160045260246000fd5b60405160a0810167ffffffffffffffff811182821017156106dd576106dd61068b565b60405290565b6040805190810167ffffffffffffffff811182821017156106dd576106dd61068b565b604051601f82017fffffffffffffffffffffffffffffffffffffffffffffffffffffffffffffffe016810167ffffffffffffffff8111828210171561074d5761074d61068b565b604052919050565b600067ffffffffffffffff83111561076f5761076f61068b565b6107a060207fffffffffffffffffffffffffffffffffffffffffffffffffffffffffffffffe0601f86011601610706565b90508281528383830111156107b457600080fd5b828260208301376000602084830101529392505050565b6000602082840312156107dd57600080fd5b813567ffffffffffffffff8111156107f457600080fd5b8201601f8101841361080557600080fd5b61081484823560208401610755565b949350505050565b6000806000806060858703121561083257600080fd5b843567ffffffffffffffff81111561084957600080fd5b610855878288016105fd565b90989097506020870135966040013595509350505050565b7f4e487b7100000000000000000000000000000000000000000000000000000000600052603260045260246000fd5b600082357fffffffffffffffffffffffffffffffffffffffffffffffffffffffffffffff618336030181126108d057600080fd5b9190910192915050565b73ffffffffffffffffffffffffffffffffffffffff811681146108fc57600080fd5b50565b600082601f83011261091057600080fd5b61091f83833560208501610755565b9392505050565b600060a0828403121561093857600080fd5b6109406106ba565b905081358152602082013560208201526040820135604082015260608201356060820152608082013567ffffffffffffffff81111561097e57600080fd5b61098a848285016108ff565b60808301525092915050565b6000604082840312156109a857600080fd5b6109b06106e3565b90508135815260208083013567ffffffffffffffff808211156109d257600080fd5b818501915085601f8301126109e657600080fd5b8135818111156109f8576109f861068b565b8060051b9150610a09848301610706565b8181529183018401918481019088841115610a2357600080fd5b938501935b83851015610a4157843582529385019390850190610a28565b808688015250505050505092915050565b600060a08236031215610a6457600080fd5b610a6c6106ba565b8235610a77816108da565b81526020830135610a87816108da565b6020820152604083013567ffffffffffffffff80821115610aa757600080fd5b610ab3368387016108ff565b6040840152606085013560608401526080850135915080821115610ad657600080fd5b818501915060a08236031215610aeb57600080fd5b610af36106ba565b82358152602083013582811115610b0957600080fd5b610b1536828601610926565b602083015250604083013582811115610b2d57600080fd5b610b3936828601610996565b604083015250606083013582811115610b5157600080fd5b610b5d368286016108ff565b606083015250608083013582811115610b7557600080fd5b610b81368286016108ff565b60808301525080608085015250505080915050919050565b6000815180845260005b81811015610bbf57602081850181015186830182015201610ba3565b81811115610bd1576000602083870101525b50601f017fffffffffffffffffffffffffffffffffffffffffffffffffffffffffffffffe0169290920160200192915050565b600060408301825184526020808401516040828701528281518085526060880191508383019450600092505b80831015610c505784518252938301936001929092019190830190610c30565b509695505050505050565b805182526000602082015160a06020850152805160a0850152602081015160c0850152604081015160e085015260608101516101008501526080810151905060a0610120850152610cb0610140850182610b99565b905060408301518482036040860152610cc98282610c04565b91505060608301518482036060860152610ce38282610b99565b91505060808301518482036080860152610cfd8282610b99565b95945050505050565b600073ffffffffffffffffffffffffffffffffffffffff808816835280871660208401525060a06040830152610d3f60a0830186610b99565b8460608401528281036080840152610d578185610c5b565b98975050505050505050565b60007fffffffffffffffffffffffffffffffffffffffffffffffffffffffffffffffff821415610dbc577f4e487b7100000000000000000000000000000000000000000000000000000000600052601160045260246000fd5b5060010190565b60208152600061091f6020830184610b99565b600060208284031215610de857600080fd5b815161091f816108da565b600073ffffffffffffffffffffffffffffffffffffffff808a16835280891660208401525060e06040830152610e2c60e0830188610b99565b8660608401528281036080840152610e448187610c5b565b60a0840195909552505060c001529594505050505056fe50726f78795f5f4c3143726f7373446f6d61696e4d657373656e67657246617374a164736f6c6343000809000a",
  "linkReferences": {},
  "deployedLinkReferences": {}
}