{
  "_format": "hh-sol-artifact-1",
  "contractName": "ERC721min",
  "sourceName": "contracts/ERC721min.sol",
  "abi": [
    {
      "inputs": [
        {
          "internalType": "string",
          "name": "name",
          "type": "string"
        },
        {
          "internalType": "string",
          "name": "symbol",
          "type": "string"
        },
        {
          "internalType": "address",
          "name": "_helper",
          "type": "address"
        }
      ],
      "stateMutability": "nonpayable",
      "type": "constructor"
    },
    {
      "anonymous": false,
      "inputs": [
        {
          "indexed": true,
          "internalType": "address",
          "name": "owner",
          "type": "address"
        },
        {
          "indexed": true,
          "internalType": "address",
          "name": "approved",
          "type": "address"
        },
        {
          "indexed": true,
          "internalType": "uint256",
          "name": "tokenId",
          "type": "uint256"
        }
      ],
      "name": "Approval",
      "type": "event"
    },
    {
      "anonymous": false,
      "inputs": [
        {
          "indexed": true,
          "internalType": "address",
          "name": "owner",
          "type": "address"
        },
        {
          "indexed": true,
          "internalType": "address",
          "name": "operator",
          "type": "address"
        },
        {
          "indexed": false,
          "internalType": "bool",
          "name": "approved",
          "type": "bool"
        }
      ],
      "name": "ApprovalForAll",
      "type": "event"
    },
    {
      "anonymous": false,
      "inputs": [
        {
          "indexed": false,
          "internalType": "uint256",
          "name": "",
          "type": "uint256"
        },
        {
          "indexed": false,
          "internalType": "uint8",
          "name": "",
          "type": "uint8"
        },
        {
          "indexed": false,
          "internalType": "uint8",
          "name": "",
          "type": "uint8"
        }
      ],
      "name": "MintedRandom",
      "type": "event"
    },
    {
      "anonymous": false,
      "inputs": [
        {
          "indexed": true,
          "internalType": "address",
          "name": "from",
          "type": "address"
        },
        {
          "indexed": true,
          "internalType": "address",
          "name": "to",
          "type": "address"
        },
        {
          "indexed": true,
          "internalType": "uint256",
          "name": "tokenId",
          "type": "uint256"
        }
      ],
      "name": "Transfer",
      "type": "event"
    },
    {
      "inputs": [
        {
          "internalType": "address",
          "name": "to",
          "type": "address"
        },
        {
          "internalType": "uint256",
          "name": "tokenId",
          "type": "uint256"
        }
      ],
      "name": "approve",
      "outputs": [],
      "stateMutability": "nonpayable",
      "type": "function"
    },
    {
      "inputs": [
        {
          "internalType": "address",
          "name": "owner",
          "type": "address"
        }
      ],
      "name": "balanceOf",
      "outputs": [
        {
          "internalType": "uint256",
          "name": "",
          "type": "uint256"
        }
      ],
      "stateMutability": "view",
      "type": "function"
    },
    {
      "inputs": [],
      "name": "baseURI",
      "outputs": [
        {
          "internalType": "string",
          "name": "",
          "type": "string"
        }
      ],
      "stateMutability": "view",
      "type": "function"
    },
    {
      "inputs": [
        {
          "internalType": "uint256",
          "name": "tokenId",
          "type": "uint256"
        }
      ],
      "name": "burn",
      "outputs": [],
      "stateMutability": "nonpayable",
      "type": "function"
    },
    {
      "inputs": [
        {
          "internalType": "uint256",
          "name": "tokenId",
          "type": "uint256"
        }
      ],
      "name": "exists",
      "outputs": [
        {
          "internalType": "bool",
          "name": "",
          "type": "bool"
        }
      ],
      "stateMutability": "view",
      "type": "function"
    },
    {
      "inputs": [
        {
          "internalType": "uint256",
          "name": "tokenId",
          "type": "uint256"
        }
      ],
      "name": "getApproved",
      "outputs": [
        {
          "internalType": "address",
          "name": "",
          "type": "address"
        }
      ],
      "stateMutability": "view",
      "type": "function"
    },
    {
      "inputs": [],
      "name": "helperAddr",
      "outputs": [
        {
          "internalType": "address",
          "name": "",
          "type": "address"
        }
      ],
      "stateMutability": "view",
      "type": "function"
    },
    {
      "inputs": [
        {
          "internalType": "address",
          "name": "owner",
          "type": "address"
        },
        {
          "internalType": "address",
          "name": "operator",
          "type": "address"
        }
      ],
      "name": "isApprovedForAll",
      "outputs": [
        {
          "internalType": "bool",
          "name": "",
          "type": "bool"
        }
      ],
      "stateMutability": "view",
      "type": "function"
    },
    {
      "inputs": [
        {
          "internalType": "address",
          "name": "to",
          "type": "address"
        },
        {
          "internalType": "uint256",
          "name": "tokenId",
          "type": "uint256"
        }
      ],
      "name": "mint",
      "outputs": [],
      "stateMutability": "nonpayable",
      "type": "function"
    },
    {
      "inputs": [],
      "name": "name",
      "outputs": [
        {
          "internalType": "string",
          "name": "",
          "type": "string"
        }
      ],
      "stateMutability": "view",
      "type": "function"
    },
    {
      "inputs": [
        {
          "internalType": "uint256",
          "name": "tokenId",
          "type": "uint256"
        }
      ],
      "name": "ownerOf",
      "outputs": [
        {
          "internalType": "address",
          "name": "",
          "type": "address"
        }
      ],
      "stateMutability": "view",
      "type": "function"
    },
    {
      "inputs": [
        {
          "internalType": "address",
          "name": "to",
          "type": "address"
        },
        {
          "internalType": "uint256",
          "name": "tokenId",
          "type": "uint256"
        },
        {
          "internalType": "bytes",
          "name": "_data",
          "type": "bytes"
        }
      ],
      "name": "safeMint",
      "outputs": [],
      "stateMutability": "nonpayable",
      "type": "function"
    },
    {
      "inputs": [
        {
          "internalType": "address",
          "name": "to",
          "type": "address"
        },
        {
          "internalType": "uint256",
          "name": "tokenId",
          "type": "uint256"
        }
      ],
      "name": "safeMint",
      "outputs": [],
      "stateMutability": "nonpayable",
      "type": "function"
    },
    {
      "inputs": [
        {
          "internalType": "address",
          "name": "from",
          "type": "address"
        },
        {
          "internalType": "address",
          "name": "to",
          "type": "address"
        },
        {
          "internalType": "uint256",
          "name": "tokenId",
          "type": "uint256"
        }
      ],
      "name": "safeTransferFrom",
      "outputs": [],
      "stateMutability": "nonpayable",
      "type": "function"
    },
    {
      "inputs": [
        {
          "internalType": "address",
          "name": "from",
          "type": "address"
        },
        {
          "internalType": "address",
          "name": "to",
          "type": "address"
        },
        {
          "internalType": "uint256",
          "name": "tokenId",
          "type": "uint256"
        },
        {
          "internalType": "bytes",
          "name": "_data",
          "type": "bytes"
        }
      ],
      "name": "safeTransferFrom",
      "outputs": [],
      "stateMutability": "nonpayable",
      "type": "function"
    },
    {
      "inputs": [
        {
          "internalType": "address",
          "name": "operator",
          "type": "address"
        },
        {
          "internalType": "bool",
          "name": "approved",
          "type": "bool"
        }
      ],
      "name": "setApprovalForAll",
      "outputs": [],
      "stateMutability": "nonpayable",
      "type": "function"
    },
    {
      "inputs": [
        {
          "internalType": "bytes4",
          "name": "interfaceId",
          "type": "bytes4"
        }
      ],
      "name": "supportsInterface",
      "outputs": [
        {
          "internalType": "bool",
          "name": "",
          "type": "bool"
        }
      ],
      "stateMutability": "view",
      "type": "function"
    },
    {
      "inputs": [],
      "name": "symbol",
      "outputs": [
        {
          "internalType": "string",
          "name": "",
          "type": "string"
        }
      ],
      "stateMutability": "view",
      "type": "function"
    },
    {
      "inputs": [
        {
          "internalType": "uint256",
          "name": "tokenId",
          "type": "uint256"
        }
      ],
      "name": "tokenURI",
      "outputs": [
        {
          "internalType": "string",
          "name": "",
          "type": "string"
        }
      ],
      "stateMutability": "view",
      "type": "function"
    },
    {
      "inputs": [
        {
          "internalType": "address",
          "name": "from",
          "type": "address"
        },
        {
          "internalType": "address",
          "name": "to",
          "type": "address"
        },
        {
          "internalType": "uint256",
          "name": "tokenId",
          "type": "uint256"
        }
      ],
      "name": "transferFrom",
      "outputs": [],
      "stateMutability": "nonpayable",
      "type": "function"
    }
  ],
  "bytecode": "0x60806040523480156200001157600080fd5b50604051620020d1380380620020d183398101604081905262000034916200020d565b8251839083906200004d9060009060208501906200009a565b508051620000639060019060208401906200009a565b5050600680546001600160a01b039093166001600160a01b03199384168117909155600780549093161790915550620002d7915050565b828054620000a8906200029a565b90600052602060002090601f016020900481019282620000cc576000855562000117565b82601f10620000e757805160ff191683800117855562000117565b8280016001018555821562000117579182015b8281111562000117578251825591602001919060010190620000fa565b506200012592915062000129565b5090565b5b808211156200012557600081556001016200012a565b634e487b7160e01b600052604160045260246000fd5b600082601f8301126200016857600080fd5b81516001600160401b038082111562000185576200018562000140565b604051601f8301601f19908116603f01168101908282118183101715620001b057620001b062000140565b81604052838152602092508683858801011115620001cd57600080fd5b600091505b83821015620001f15785820183015181830184015290820190620001d2565b83821115620002035760008385830101525b9695505050505050565b6000806000606084860312156200022357600080fd5b83516001600160401b03808211156200023b57600080fd5b620002498783880162000156565b945060208601519150808211156200026057600080fd5b506200026f8682870162000156565b604086015190935090506001600160a01b03811681146200028f57600080fd5b809150509250925092565b600181811c90821680620002af57607f821691505b60208210811415620002d157634e487b7160e01b600052602260045260246000fd5b50919050565b611dea80620002e76000396000f3fe608060405234801561001057600080fd5b506004361061016c5760003560e01c80636352211e116100cd578063a144819411610081578063b88d4fde11610066578063b88d4fde146102f7578063c87b56dd1461030a578063e985e9c51461031d57600080fd5b8063a1448194146102d1578063a22cb465146102e457600080fd5b806370a08231116100b257806370a08231146102955780638832e6e3146102b657806395d89b41146102c957600080fd5b80636352211e1461027a5780636c0360eb1461028d57600080fd5b806323b872dd1161012457806342842e0e1161010957806342842e0e1461024157806342966c68146102545780634f558e791461026757600080fd5b806323b872dd1461021b57806340c10f191461022e57600080fd5b8063081812fc11610155578063081812fc146101ae578063095ea7b3146101e65780631569f615146101fb57600080fd5b806301ffc9a71461017157806306fdde0314610199575b600080fd5b61018461017f36600461184d565b610366565b60405190151581526020015b60405180910390f35b6101a161044b565b60405161019091906118e0565b6101c16101bc3660046118f3565b6104dd565b60405173ffffffffffffffffffffffffffffffffffffffff9091168152602001610190565b6101f96101f4366004611935565b6105a2565b005b6006546101c19073ffffffffffffffffffffffffffffffffffffffff1681565b6101f961022936600461195f565b6106fb565b6101f961023c366004611935565b610782565b6101f961024f36600461195f565b6108e7565b6101f96102623660046118f3565b610902565b6101846102753660046118f3565b61090e565b6101c16102883660046118f3565b61093a565b6101a16109d2565b6102a86102a336600461199b565b6109ee565b604051908152602001610190565b6101f96102c4366004611a90565b610aa2565b6101a1610aad565b6101f96102df366004611935565b610abc565b6101f96102f2366004611ae7565b610aca565b6101f9610305366004611b23565b610bc7565b6101a16103183660046118f3565b610c55565b61018461032b366004611b8b565b73ffffffffffffffffffffffffffffffffffffffff918216600090815260056020908152604080832093909416825291909152205460ff1690565b60007fffffffff0000000000000000000000000000000000000000000000000000000082167f80ac58cd0000000000000000000000000000000000000000000000000000000014806103f957507fffffffff0000000000000000000000000000000000000000000000000000000082167f5b5e139f00000000000000000000000000000000000000000000000000000000145b8061044557507f01ffc9a7000000000000000000000000000000000000000000000000000000007fffffffff000000000000000000000000000000000000000000000000000000008316145b92915050565b60606000805461045a90611bbe565b80601f016020809104026020016040519081016040528092919081815260200182805461048690611bbe565b80156104d35780601f106104a8576101008083540402835291602001916104d3565b820191906000526020600020905b8154815290600101906020018083116104b657829003601f168201915b5050505050905090565b60008181526002602052604081205473ffffffffffffffffffffffffffffffffffffffff166105795760405162461bcd60e51b815260206004820152602c60248201527f4552433732313a20617070726f76656420717565727920666f72206e6f6e657860448201527f697374656e7420746f6b656e000000000000000000000000000000000000000060648201526084015b60405180910390fd5b5060009081526004602052604090205473ffffffffffffffffffffffffffffffffffffffff1690565b60006105ad8261093a565b90508073ffffffffffffffffffffffffffffffffffffffff168373ffffffffffffffffffffffffffffffffffffffff1614156106515760405162461bcd60e51b815260206004820152602160248201527f4552433732313a20617070726f76616c20746f2063757272656e74206f776e6560448201527f72000000000000000000000000000000000000000000000000000000000000006064820152608401610570565b3373ffffffffffffffffffffffffffffffffffffffff8216148061067a575061067a813361032b565b6106ec5760405162461bcd60e51b815260206004820152603860248201527f4552433732313a20617070726f76652063616c6c6572206973206e6f74206f7760448201527f6e6572206e6f7220617070726f76656420666f7220616c6c00000000000000006064820152608401610570565b6106f68383610d58565b505050565b6107053382610df8565b6107775760405162461bcd60e51b815260206004820152603160248201527f4552433732313a207472616e736665722063616c6c6572206973206e6f74206f60448201527f776e6572206e6f7220617070726f7665640000000000000000000000000000006064820152608401610570565b6106f6838383610f4e565b600754604080517f45ff812a000000000000000000000000000000000000000000000000000000008152905160009273ffffffffffffffffffffffffffffffffffffffff16916345ff812a91600480830192602092919082900301818787803b1580156107ee57600080fd5b505af1158015610802573d6000803e3d6000fd5b505050506040513d601f19601f820116820180604052508101906108269190611c12565b905060008160405160200161083d91815260200190565b604051602081830303815290604052905060008160008151811061086357610863611c2b565b602001015160f81c60f81b60f81c905060008260018151811061088857610888611c2b565b016020015160f81c905061089c8686611181565b6040805185815260ff848116602083015283168183015290517fc26eb8880528a35453fdd617bd9736154db4149a7eeeb506bef931411516f2d09181900360600190a1505050505050565b6106f683838360405180602001604052806000815250610bc7565b61090b8161130f565b50565b60008181526002602052604081205473ffffffffffffffffffffffffffffffffffffffff161515610445565b60008181526002602052604081205473ffffffffffffffffffffffffffffffffffffffff16806104455760405162461bcd60e51b815260206004820152602960248201527f4552433732313a206f776e657220717565727920666f72206e6f6e657869737460448201527f656e7420746f6b656e00000000000000000000000000000000000000000000006064820152608401610570565b60606109e960408051602081019091526000815290565b905090565b600073ffffffffffffffffffffffffffffffffffffffff8216610a795760405162461bcd60e51b815260206004820152602a60248201527f4552433732313a2062616c616e636520717565727920666f7220746865207a6560448201527f726f2061646472657373000000000000000000000000000000000000000000006064820152608401610570565b5073ffffffffffffffffffffffffffffffffffffffff1660009081526003602052604090205490565b6106f68383836113dc565b60606001805461045a90611bbe565b610ac68282611465565b5050565b73ffffffffffffffffffffffffffffffffffffffff8216331415610b305760405162461bcd60e51b815260206004820152601960248201527f4552433732313a20617070726f766520746f2063616c6c6572000000000000006044820152606401610570565b33600081815260056020908152604080832073ffffffffffffffffffffffffffffffffffffffff87168085529083529281902080547fffffffffffffffffffffffffffffffffffffffffffffffffffffffffffffff001686151590811790915590519081529192917f17307eab39ab6107e8899845ad3d59bd9653f200f220920489ca2b5937696c31910160405180910390a35050565b610bd13383610df8565b610c435760405162461bcd60e51b815260206004820152603160248201527f4552433732313a207472616e736665722063616c6c6572206973206e6f74206f60448201527f776e6572206e6f7220617070726f7665640000000000000000000000000000006064820152608401610570565b610c4f8484848461147f565b50505050565b60008181526002602052604090205460609073ffffffffffffffffffffffffffffffffffffffff16610cef5760405162461bcd60e51b815260206004820152602f60248201527f4552433732314d657461646174613a2055524920717565727920666f72206e6f60448201527f6e6578697374656e7420746f6b656e00000000000000000000000000000000006064820152608401610570565b6000610d0660408051602081019091526000815290565b90506000815111610d265760405180602001604052806000815250610d51565b80610d3084611508565b604051602001610d41929190611c5a565b6040516020818303038152906040525b9392505050565b600081815260046020526040902080547fffffffffffffffffffffffff00000000000000000000000000000000000000001673ffffffffffffffffffffffffffffffffffffffff84169081179091558190610db28261093a565b73ffffffffffffffffffffffffffffffffffffffff167f8c5be1e5ebec7d5bd14f71427d1e84f3dd0314c0f7b2291e5b200ac8c7c3b92560405160405180910390a45050565b60008181526002602052604081205473ffffffffffffffffffffffffffffffffffffffff16610e8f5760405162461bcd60e51b815260206004820152602c60248201527f4552433732313a206f70657261746f7220717565727920666f72206e6f6e657860448201527f697374656e7420746f6b656e00000000000000000000000000000000000000006064820152608401610570565b6000610e9a8361093a565b90508073ffffffffffffffffffffffffffffffffffffffff168473ffffffffffffffffffffffffffffffffffffffff161480610f0957508373ffffffffffffffffffffffffffffffffffffffff16610ef1846104dd565b73ffffffffffffffffffffffffffffffffffffffff16145b80610f46575073ffffffffffffffffffffffffffffffffffffffff80821660009081526005602090815260408083209388168352929052205460ff165b949350505050565b8273ffffffffffffffffffffffffffffffffffffffff16610f6e8261093a565b73ffffffffffffffffffffffffffffffffffffffff1614610ff75760405162461bcd60e51b815260206004820152602960248201527f4552433732313a207472616e73666572206f6620746f6b656e2074686174206960448201527f73206e6f74206f776e00000000000000000000000000000000000000000000006064820152608401610570565b73ffffffffffffffffffffffffffffffffffffffff821661107f5760405162461bcd60e51b8152602060048201526024808201527f4552433732313a207472616e7366657220746f20746865207a65726f2061646460448201527f72657373000000000000000000000000000000000000000000000000000000006064820152608401610570565b61108a600082610d58565b73ffffffffffffffffffffffffffffffffffffffff831660009081526003602052604081208054600192906110c0908490611cb8565b909155505073ffffffffffffffffffffffffffffffffffffffff821660009081526003602052604081208054600192906110fb908490611ccf565b909155505060008181526002602052604080822080547fffffffffffffffffffffffff00000000000000000000000000000000000000001673ffffffffffffffffffffffffffffffffffffffff86811691821790925591518493918716917fddf252ad1be2c89b69c2b068fc378daa952ba7f163c4a11628f55a4df523b3ef91a4505050565b73ffffffffffffffffffffffffffffffffffffffff82166111e45760405162461bcd60e51b815260206004820181905260248201527f4552433732313a206d696e7420746f20746865207a65726f20616464726573736044820152606401610570565b60008181526002602052604090205473ffffffffffffffffffffffffffffffffffffffff16156112565760405162461bcd60e51b815260206004820152601c60248201527f4552433732313a20746f6b656e20616c7265616479206d696e746564000000006044820152606401610570565b73ffffffffffffffffffffffffffffffffffffffff8216600090815260036020526040812080546001929061128c908490611ccf565b909155505060008181526002602052604080822080547fffffffffffffffffffffffff00000000000000000000000000000000000000001673ffffffffffffffffffffffffffffffffffffffff861690811790915590518392907fddf252ad1be2c89b69c2b068fc378daa952ba7f163c4a11628f55a4df523b3ef908290a45050565b600061131a8261093a565b9050611327600083610d58565b73ffffffffffffffffffffffffffffffffffffffff8116600090815260036020526040812080546001929061135d908490611cb8565b909155505060008281526002602052604080822080547fffffffffffffffffffffffff00000000000000000000000000000000000000001690555183919073ffffffffffffffffffffffffffffffffffffffff8416907fddf252ad1be2c89b69c2b068fc378daa952ba7f163c4a11628f55a4df523b3ef908390a45050565b6113e68383611181565b6113f3600084848461163a565b6106f65760405162461bcd60e51b815260206004820152603260248201527f4552433732313a207472616e7366657220746f206e6f6e20455243373231526560448201527f63656976657220696d706c656d656e74657200000000000000000000000000006064820152608401610570565b610ac68282604051806020016040528060008152506113dc565b61148a848484610f4e565b6114968484848461163a565b610c4f5760405162461bcd60e51b815260206004820152603260248201527f4552433732313a207472616e7366657220746f206e6f6e20455243373231526560448201527f63656976657220696d706c656d656e74657200000000000000000000000000006064820152608401610570565b60608161154857505060408051808201909152600181527f3000000000000000000000000000000000000000000000000000000000000000602082015290565b8160005b8115611572578061155c81611ce7565b915061156b9050600a83611d4f565b915061154c565b60008167ffffffffffffffff81111561158d5761158d6119b6565b6040519080825280601f01601f1916602001820160405280156115b7576020820181803683370190505b5090505b8415610f46576115cc600183611cb8565b91506115d9600a86611d63565b6115e4906030611ccf565b60f81b8183815181106115f9576115f9611c2b565b60200101907effffffffffffffffffffffffffffffffffffffffffffffffffffffffffffff1916908160001a905350611633600a86611d4f565b94506115bb565b600073ffffffffffffffffffffffffffffffffffffffff84163b15611814576040517f150b7a0200000000000000000000000000000000000000000000000000000000815273ffffffffffffffffffffffffffffffffffffffff85169063150b7a02906116b1903390899088908890600401611d77565b602060405180830381600087803b1580156116cb57600080fd5b505af1925050508015611719575060408051601f3d9081017fffffffffffffffffffffffffffffffffffffffffffffffffffffffffffffffe016820190925261171691810190611dc0565b60015b6117c9573d808015611747576040519150601f19603f3d011682016040523d82523d6000602084013e61174c565b606091505b5080516117c15760405162461bcd60e51b815260206004820152603260248201527f4552433732313a207472616e7366657220746f206e6f6e20455243373231526560448201527f63656976657220696d706c656d656e74657200000000000000000000000000006064820152608401610570565b805181602001fd5b7fffffffff00000000000000000000000000000000000000000000000000000000167f150b7a0200000000000000000000000000000000000000000000000000000000149050610f46565b506001949350505050565b7fffffffff000000000000000000000000000000000000000000000000000000008116811461090b57600080fd5b60006020828403121561185f57600080fd5b8135610d518161181f565b60005b8381101561188557818101518382015260200161186d565b83811115610c4f5750506000910152565b600081518084526118ae81602086016020860161186a565b601f017fffffffffffffffffffffffffffffffffffffffffffffffffffffffffffffffe0169290920160200192915050565b602081526000610d516020830184611896565b60006020828403121561190557600080fd5b5035919050565b803573ffffffffffffffffffffffffffffffffffffffff8116811461193057600080fd5b919050565b6000806040838503121561194857600080fd5b6119518361190c565b946020939093013593505050565b60008060006060848603121561197457600080fd5b61197d8461190c565b925061198b6020850161190c565b9150604084013590509250925092565b6000602082840312156119ad57600080fd5b610d518261190c565b7f4e487b7100000000000000000000000000000000000000000000000000000000600052604160045260246000fd5b600082601f8301126119f657600080fd5b813567ffffffffffffffff80821115611a1157611a116119b6565b604051601f83017fffffffffffffffffffffffffffffffffffffffffffffffffffffffffffffffe0908116603f01168101908282118183101715611a5757611a576119b6565b81604052838152866020858801011115611a7057600080fd5b836020870160208301376000602085830101528094505050505092915050565b600080600060608486031215611aa557600080fd5b611aae8461190c565b925060208401359150604084013567ffffffffffffffff811115611ad157600080fd5b611add868287016119e5565b9150509250925092565b60008060408385031215611afa57600080fd5b611b038361190c565b915060208301358015158114611b1857600080fd5b809150509250929050565b60008060008060808587031215611b3957600080fd5b611b428561190c565b9350611b506020860161190c565b925060408501359150606085013567ffffffffffffffff811115611b7357600080fd5b611b7f878288016119e5565b91505092959194509250565b60008060408385031215611b9e57600080fd5b611ba78361190c565b9150611bb56020840161190c565b90509250929050565b600181811c90821680611bd257607f821691505b60208210811415611c0c577f4e487b7100000000000000000000000000000000000000000000000000000000600052602260045260246000fd5b50919050565b600060208284031215611c2457600080fd5b5051919050565b7f4e487b7100000000000000000000000000000000000000000000000000000000600052603260045260246000fd5b60008351611c6c81846020880161186a565b835190830190611c8081836020880161186a565b01949350505050565b7f4e487b7100000000000000000000000000000000000000000000000000000000600052601160045260246000fd5b600082821015611cca57611cca611c89565b500390565b60008219821115611ce257611ce2611c89565b500190565b60007fffffffffffffffffffffffffffffffffffffffffffffffffffffffffffffffff821415611d1957611d19611c89565b5060010190565b7f4e487b7100000000000000000000000000000000000000000000000000000000600052601260045260246000fd5b600082611d5e57611d5e611d20565b500490565b600082611d7257611d72611d20565b500690565b600073ffffffffffffffffffffffffffffffffffffffff808716835280861660208401525083604083015260806060830152611db66080830184611896565b9695505050505050565b600060208284031215611dd257600080fd5b8151610d518161181f56fea164736f6c6343000809000a",
  "linkReferences": {},
  "deployedLinkReferences": {}
}