{
  "contracts/DAO/governance/GovernorBravoInterfaces.sol": {
    "GovernorBravoDelegatorStorage": {
      "abi": [
        {
          "constant": true,
          "inputs": [],
          "name": "admin",
          "outputs": [
            {
              "internalType": "address",
              "name": "",
              "type": "address"
            }
          ],
          "payable": false,
          "stateMutability": "view",
          "type": "function"
        },
        {
          "constant": true,
          "inputs": [],
          "name": "implementation",
          "outputs": [
            {
              "internalType": "address",
              "name": "",
              "type": "address"
            }
          ],
          "payable": false,
          "stateMutability": "view",
          "type": "function"
        },
        {
          "constant": true,
          "inputs": [],
          "name": "pendingAdmin",
          "outputs": [
            {
              "internalType": "address",
              "name": "",
              "type": "address"
            }
          ],
          "payable": false,
          "stateMutability": "view",
          "type": "function"
        }
      ],
      "devdoc": {
        "methods": {}
      },
      "evm": {
        "bytecode": {
          "linkReferences": {},
          "object": "608060405234801561001057600080fd5b5061013a806100206000396000f3fe6080604052348015600f57600080fd5b5060043610603c5760003560e01c8063267822471460415780635c60da1b14605b578063f851a440146061575b600080fd5b60476067565b6040516052919060c8565b60405180910390f35b60476083565b6047609f565b60015473ffffffffffffffffffffffffffffffffffffffff1681565b60025473ffffffffffffffffffffffffffffffffffffffff1681565b60005473ffffffffffffffffffffffffffffffffffffffff1681565b60c28160da565b82525050565b6020810160d4828460bb565b92915050565b600073ffffffffffffffffffffffffffffffffffffffff821660d456fea365627a7a723158202f203f15034c2d23e28662671a9c16eaf1aa030fe564cacb40adfe800e3dc4406c6578706572696d656e74616cf564736f6c63430005110040",
          "opcodes": "PUSH1 0x80 PUSH1 0x40 MSTORE CALLVALUE DUP1 ISZERO PUSH2 0x10 JUMPI PUSH1 0x0 DUP1 REVERT JUMPDEST POP PUSH2 0x13A DUP1 PUSH2 0x20 PUSH1 0x0 CODECOPY PUSH1 0x0 RETURN INVALID PUSH1 0x80 PUSH1 0x40 MSTORE CALLVALUE DUP1 ISZERO PUSH1 0xF JUMPI PUSH1 0x0 DUP1 REVERT JUMPDEST POP PUSH1 0x4 CALLDATASIZE LT PUSH1 0x3C JUMPI PUSH1 0x0 CALLDATALOAD PUSH1 0xE0 SHR DUP1 PUSH4 0x26782247 EQ PUSH1 0x41 JUMPI DUP1 PUSH4 0x5C60DA1B EQ PUSH1 0x5B JUMPI DUP1 PUSH4 0xF851A440 EQ PUSH1 0x61 JUMPI JUMPDEST PUSH1 0x0 DUP1 REVERT JUMPDEST PUSH1 0x47 PUSH1 0x67 JUMP JUMPDEST PUSH1 0x40 MLOAD PUSH1 0x52 SWAP2 SWAP1 PUSH1 0xC8 JUMP JUMPDEST PUSH1 0x40 MLOAD DUP1 SWAP2 SUB SWAP1 RETURN JUMPDEST PUSH1 0x47 PUSH1 0x83 JUMP JUMPDEST PUSH1 0x47 PUSH1 0x9F JUMP JUMPDEST PUSH1 0x1 SLOAD PUSH20 0xFFFFFFFFFFFFFFFFFFFFFFFFFFFFFFFFFFFFFFFF AND DUP2 JUMP JUMPDEST PUSH1 0x2 SLOAD PUSH20 0xFFFFFFFFFFFFFFFFFFFFFFFFFFFFFFFFFFFFFFFF AND DUP2 JUMP JUMPDEST PUSH1 0x0 SLOAD PUSH20 0xFFFFFFFFFFFFFFFFFFFFFFFFFFFFFFFFFFFFFFFF AND DUP2 JUMP JUMPDEST PUSH1 0xC2 DUP2 PUSH1 0xDA JUMP JUMPDEST DUP3 MSTORE POP POP JUMP JUMPDEST PUSH1 0x20 DUP2 ADD PUSH1 0xD4 DUP3 DUP5 PUSH1 0xBB JUMP JUMPDEST SWAP3 SWAP2 POP POP JUMP JUMPDEST PUSH1 0x0 PUSH20 0xFFFFFFFFFFFFFFFFFFFFFFFFFFFFFFFFFFFFFFFF DUP3 AND PUSH1 0xD4 JUMP INVALID LOG3 PUSH6 0x627A7A723158 KECCAK256 0x2F KECCAK256 EXTCODEHASH ISZERO SUB 0x4C 0x2D 0x23 0xE2 DUP7 PUSH3 0x671A9C AND 0xEA CALL 0xAA SUB 0xF 0xE5 PUSH5 0xCACB40ADFE DUP1 0xE RETURNDATASIZE 0xC4 BLOCKHASH PUSH13 0x6578706572696D656E74616CF5 PUSH5 0x736F6C6343 STOP SDIV GT STOP BLOCKHASH "
        },
        "gasEstimates": {
          "creation": {
            "codeDepositCost": "62800",
            "executionCost": "111",
            "totalCost": "62911"
          },
          "external": {
            "admin()": "infinite",
            "implementation()": "infinite",
            "pendingAdmin()": "infinite"
          }
        },
        "methodIdentifiers": {
          "admin()": "f851a440",
          "implementation()": "5c60da1b",
          "pendingAdmin()": "26782247"
        }
      },
      "storageLayout": {
        "storage": [
          {
            "astId": 1595,
            "contract": "contracts/DAO/governance/GovernorBravoInterfaces.sol:GovernorBravoDelegatorStorage",
            "label": "admin",
            "offset": 0,
            "slot": "0",
            "type": "t_address"
          },
          {
            "astId": 1597,
            "contract": "contracts/DAO/governance/GovernorBravoInterfaces.sol:GovernorBravoDelegatorStorage",
            "label": "pendingAdmin",
            "offset": 0,
            "slot": "1",
            "type": "t_address"
          },
          {
            "astId": 1599,
            "contract": "contracts/DAO/governance/GovernorBravoInterfaces.sol:GovernorBravoDelegatorStorage",
            "label": "implementation",
            "offset": 0,
            "slot": "2",
            "type": "t_address"
          }
        ],
        "types": {
          "t_address": {
            "encoding": "inplace",
            "label": "address",
            "numberOfBytes": "20"
          }
        }
      },
      "userdoc": {
        "methods": {}
      }
    }
  }
}