{
  "contracts/DAO/governance/GovernorBravoDelegator.sol": {
    "GovernorBravoDelegator": {
      "abi": [
        {
          "inputs": [
            {
              "internalType": "address",
              "name": "timelock_",
              "type": "address"
            },
            {
              "internalType": "address",
              "name": "bobaToken_",
              "type": "address"
            },
            {
              "internalType": "address",
              "name": "xbobaToken_",
              "type": "address"
            },
            {
              "internalType": "address",
              "name": "admin_",
              "type": "address"
            },
            {
              "internalType": "address",
              "name": "implementation_",
              "type": "address"
            },
            {
              "internalType": "uint256",
              "name": "votingPeriod_",
              "type": "uint256"
            },
            {
              "internalType": "uint256",
              "name": "votingDelay_",
              "type": "uint256"
            },
            {
              "internalType": "uint256",
              "name": "proposalThreshold_",
              "type": "uint256"
            }
          ],
          "payable": false,
          "stateMutability": "nonpayable",
          "type": "constructor"
        },
        {
          "anonymous": false,
          "inputs": [
            {
              "indexed": false,
              "internalType": "address",
              "name": "oldAdmin",
              "type": "address"
            },
            {
              "indexed": false,
              "internalType": "address",
              "name": "newAdmin",
              "type": "address"
            }
          ],
          "name": "NewAdmin",
          "type": "event"
        },
        {
          "anonymous": false,
          "inputs": [
            {
              "indexed": false,
              "internalType": "address",
              "name": "oldImplementation",
              "type": "address"
            },
            {
              "indexed": false,
              "internalType": "address",
              "name": "newImplementation",
              "type": "address"
            }
          ],
          "name": "NewImplementation",
          "type": "event"
        },
        {
          "anonymous": false,
          "inputs": [
            {
              "indexed": false,
              "internalType": "address",
              "name": "oldPendingAdmin",
              "type": "address"
            },
            {
              "indexed": false,
              "internalType": "address",
              "name": "newPendingAdmin",
              "type": "address"
            }
          ],
          "name": "NewPendingAdmin",
          "type": "event"
        },
        {
          "anonymous": false,
          "inputs": [
            {
              "indexed": false,
              "internalType": "uint256",
              "name": "id",
              "type": "uint256"
            }
          ],
          "name": "ProposalCanceled",
          "type": "event"
        },
        {
          "anonymous": false,
          "inputs": [
            {
              "indexed": false,
              "internalType": "uint256",
              "name": "id",
              "type": "uint256"
            },
            {
              "indexed": false,
              "internalType": "address",
              "name": "proposer",
              "type": "address"
            },
            {
              "indexed": false,
              "internalType": "address[]",
              "name": "targets",
              "type": "address[]"
            },
            {
              "indexed": false,
              "internalType": "uint256[]",
              "name": "values",
              "type": "uint256[]"
            },
            {
              "indexed": false,
              "internalType": "string[]",
              "name": "signatures",
              "type": "string[]"
            },
            {
              "indexed": false,
              "internalType": "bytes[]",
              "name": "calldatas",
              "type": "bytes[]"
            },
            {
              "indexed": false,
              "internalType": "uint256",
              "name": "startTimestamp",
              "type": "uint256"
            },
            {
              "indexed": false,
              "internalType": "uint256",
              "name": "endTimestamp",
              "type": "uint256"
            },
            {
              "indexed": false,
              "internalType": "string",
              "name": "description",
              "type": "string"
            }
          ],
          "name": "ProposalCreated",
          "type": "event"
        },
        {
          "anonymous": false,
          "inputs": [
            {
              "indexed": false,
              "internalType": "uint256",
              "name": "id",
              "type": "uint256"
            }
          ],
          "name": "ProposalExecuted",
          "type": "event"
        },
        {
          "anonymous": false,
          "inputs": [
            {
              "indexed": false,
              "internalType": "uint256",
              "name": "id",
              "type": "uint256"
            },
            {
              "indexed": false,
              "internalType": "uint256",
              "name": "eta",
              "type": "uint256"
            }
          ],
          "name": "ProposalQueued",
          "type": "event"
        },
        {
          "anonymous": false,
          "inputs": [
            {
              "indexed": false,
              "internalType": "uint256",
              "name": "oldProposalThreshold",
              "type": "uint256"
            },
            {
              "indexed": false,
              "internalType": "uint256",
              "name": "newProposalThreshold",
              "type": "uint256"
            }
          ],
          "name": "ProposalThresholdSet",
          "type": "event"
        },
        {
          "anonymous": false,
          "inputs": [
            {
              "indexed": true,
              "internalType": "address",
              "name": "voter",
              "type": "address"
            },
            {
              "indexed": false,
              "internalType": "uint256",
              "name": "proposalId",
              "type": "uint256"
            },
            {
              "indexed": false,
              "internalType": "uint8",
              "name": "support",
              "type": "uint8"
            },
            {
              "indexed": false,
              "internalType": "uint256",
              "name": "votes",
              "type": "uint256"
            },
            {
              "indexed": false,
              "internalType": "string",
              "name": "reason",
              "type": "string"
            }
          ],
          "name": "VoteCast",
          "type": "event"
        },
        {
          "anonymous": false,
          "inputs": [
            {
              "indexed": false,
              "internalType": "uint256",
              "name": "oldVotingDelay",
              "type": "uint256"
            },
            {
              "indexed": false,
              "internalType": "uint256",
              "name": "newVotingDelay",
              "type": "uint256"
            }
          ],
          "name": "VotingDelaySet",
          "type": "event"
        },
        {
          "anonymous": false,
          "inputs": [
            {
              "indexed": false,
              "internalType": "uint256",
              "name": "oldVotingPeriod",
              "type": "uint256"
            },
            {
              "indexed": false,
              "internalType": "uint256",
              "name": "newVotingPeriod",
              "type": "uint256"
            }
          ],
          "name": "VotingPeriodSet",
          "type": "event"
        },
        {
          "payable": true,
          "stateMutability": "payable",
          "type": "fallback"
        },
        {
          "constant": false,
          "inputs": [
            {
              "internalType": "address",
              "name": "implementation_",
              "type": "address"
            }
          ],
          "name": "_setImplementation",
          "outputs": [],
          "payable": false,
          "stateMutability": "nonpayable",
          "type": "function"
        },
        {
          "constant": true,
          "inputs": [],
          "name": "admin",
          "outputs": [
            {
              "internalType": "address",
              "name": "",
              "type": "address"
            }
          ],
          "payable": false,
          "stateMutability": "view",
          "type": "function"
        },
        {
          "constant": true,
          "inputs": [],
          "name": "implementation",
          "outputs": [
            {
              "internalType": "address",
              "name": "",
              "type": "address"
            }
          ],
          "payable": false,
          "stateMutability": "view",
          "type": "function"
        },
        {
          "constant": true,
          "inputs": [],
          "name": "pendingAdmin",
          "outputs": [
            {
              "internalType": "address",
              "name": "",
              "type": "address"
            }
          ],
          "payable": false,
          "stateMutability": "view",
          "type": "function"
        }
      ],
      "devdoc": {
        "methods": {
          "_setImplementation(address)": {
            "params": {
              "implementation_": "The address of the new implementation for delegation"
            }
          }
        }
      },
      "evm": {
        "bytecode": {
          "linkReferences": {},
          "object": "60806040523480156200001157600080fd5b5060405162000a6438038062000a6483398101604081905262000034916200023f565b600080546001600160a01b031916331790556040516200009e9085906200006a908b908b908b9089908990899060240162000438565b60408051601f198184030181529190526020810180516001600160e01b039081166339466de560e11b17909152620000e116565b620000b2846001600160e01b036200015d16565b5050600080546001600160a01b0319166001600160a01b039490941693909317909255506200053d9350505050565b60006060836001600160a01b031683604051620000ff919062000404565b600060405180830381855af49150503d80600081146200013c576040519150601f19603f3d011682016040523d82523d6000602084013e62000141565b606091505b5091509150600082141562000157573d60208201fd5b50505050565b6000546001600160a01b03163314620001935760405162461bcd60e51b81526004016200018a90620004b0565b60405180910390fd5b6001600160a01b038116620001bc5760405162461bcd60e51b81526004016200018a906200049e565b600280546001600160a01b038381166001600160a01b031983161792839055604051918116927fd604de94d45953f9138079ec1b82d533cb2160c906d1076d1f7ed54befbca97a9262000213928592169062000419565b60405180910390a15050565b80516200022c8162000518565b92915050565b80516200022c8162000532565b600080600080600080600080610100898b0312156200025d57600080fd5b60006200026b8b8b6200021f565b98505060206200027e8b828c016200021f565b9750506040620002918b828c016200021f565b9650506060620002a48b828c016200021f565b9550506080620002b78b828c016200021f565b94505060a0620002ca8b828c0162000232565b93505060c0620002dd8b828c0162000232565b92505060e0620002f08b828c0162000232565b9150509295985092959890939650565b6200030b81620004d4565b82525050565b60006200031e82620004c2565b6200032a8185620004c6565b93506200033c818560208601620004e9565b9290920192915050565b600062000355604a83620004cb565b60008051602062000a4483398151915281527f656d656e746174696f6e3a20696e76616c696420696d706c656d656e746174696020820152696f6e206164647265737360b01b604082015260600192915050565b6000620003b8603683620004cb565b60008051602062000a4483398151915281527f656d656e746174696f6e3a2061646d696e206f6e6c7900000000000000000000602082015260400192915050565b6200030b81620004e6565b600062000412828462000311565b9392505050565b6040810162000429828562000300565b62000412602083018462000300565b60c0810162000448828962000300565b62000457602083018862000300565b62000466604083018762000300565b620004756060830186620003f9565b620004846080830185620003f9565b6200049360a0830184620003f9565b979650505050505050565b602080825281016200022c8162000346565b602080825281016200022c81620003a9565b5190565b919050565b90815260200190565b60006001600160a01b0382166200022c565b90565b60005b8381101562000506578181015183820152602001620004ec565b83811115620001575750506000910152565b6200052381620004d4565b81146200052f57600080fd5b50565b6200052381620004e6565b6104f7806200054d6000396000f3fe60806040526004361061003f5760003560e01c806326782247146100c75780635c60da1b146100f2578063bb913f4114610107578063f851a44014610129575b60025460405160009173ffffffffffffffffffffffffffffffffffffffff169061006c9083903690610408565b600060405180830381855af49150503d80600081146100a7576040519150601f19603f3d011682016040523d82523d6000602084013e6100ac565b606091505b505090506040513d6000823e8180156100c3573d82f35b3d82fd5b3480156100d357600080fd5b506100dc61013e565b6040516100e99190610415565b60405180910390f35b3480156100fe57600080fd5b506100dc61015a565b34801561011357600080fd5b506101276101223660046102d0565b610176565b005b34801561013557600080fd5b506100dc6102a3565b60015473ffffffffffffffffffffffffffffffffffffffff1681565b60025473ffffffffffffffffffffffffffffffffffffffff1681565b60005473ffffffffffffffffffffffffffffffffffffffff1633146101d0576040517f08c379a00000000000000000000000000000000000000000000000000000000081526004016101c790610455565b60405180910390fd5b73ffffffffffffffffffffffffffffffffffffffff811661021d576040517f08c379a00000000000000000000000000000000000000000000000000000000081526004016101c790610445565b6002805473ffffffffffffffffffffffffffffffffffffffff8381167fffffffffffffffffffffffff000000000000000000000000000000000000000083161792839055604051918116927fd604de94d45953f9138079ec1b82d533cb2160c906d1076d1f7ed54befbca97a926102979285921690610423565b60405180910390a15050565b60005473ffffffffffffffffffffffffffffffffffffffff1681565b80356102ca8161049d565b92915050565b6000602082840312156102e257600080fd5b60006102ee84846102bf565b949350505050565b6102ff81610473565b82525050565b60006103118385610465565b935061031e838584610491565b50500190565b6000610331604a8361046a565b7f476f7665726e6f72427261766f44656c656761746f723a3a5f736574496d706c81527f656d656e746174696f6e3a20696e76616c696420696d706c656d656e7461746960208201527f6f6e206164647265737300000000000000000000000000000000000000000000604082015260600192915050565b60006103b660368361046a565b7f476f7665726e6f72427261766f44656c656761746f723a3a5f736574496d706c81527f656d656e746174696f6e3a2061646d696e206f6e6c7900000000000000000000602082015260400192915050565b60006102ee828486610305565b602081016102ca82846102f6565b6040810161043182856102f6565b61043e60208301846102f6565b9392505050565b602080825281016102ca81610324565b602080825281016102ca816103a9565b919050565b90815260200190565b600073ffffffffffffffffffffffffffffffffffffffff82166102ca565b82818337506000910152565b6104a681610473565b81146104b157600080fd5b5056fea365627a7a723158207a63a47b2763e21bed529845c59a2137a6d89ae7f7278aae9e873e2126a8475d6c6578706572696d656e74616cf564736f6c63430005110040476f7665726e6f72427261766f44656c656761746f723a3a5f736574496d706c",
          "opcodes": "PUSH1 0x80 PUSH1 0x40 MSTORE CALLVALUE DUP1 ISZERO PUSH3 0x11 JUMPI PUSH1 0x0 DUP1 REVERT JUMPDEST POP PUSH1 0x40 MLOAD PUSH3 0xA64 CODESIZE SUB DUP1 PUSH3 0xA64 DUP4 CODECOPY DUP2 ADD PUSH1 0x40 DUP2 SWAP1 MSTORE PUSH3 0x34 SWAP2 PUSH3 0x23F JUMP JUMPDEST PUSH1 0x0 DUP1 SLOAD PUSH1 0x1 PUSH1 0x1 PUSH1 0xA0 SHL SUB NOT AND CALLER OR SWAP1 SSTORE PUSH1 0x40 MLOAD PUSH3 0x9E SWAP1 DUP6 SWAP1 PUSH3 0x6A SWAP1 DUP12 SWAP1 DUP12 SWAP1 DUP12 SWAP1 DUP10 SWAP1 DUP10 SWAP1 DUP10 SWAP1 PUSH1 0x24 ADD PUSH3 0x438 JUMP JUMPDEST PUSH1 0x40 DUP1 MLOAD PUSH1 0x1F NOT DUP2 DUP5 SUB ADD DUP2 MSTORE SWAP2 SWAP1 MSTORE PUSH1 0x20 DUP2 ADD DUP1 MLOAD PUSH1 0x1 PUSH1 0x1 PUSH1 0xE0 SHL SUB SWAP1 DUP2 AND PUSH4 0x39466DE5 PUSH1 0xE1 SHL OR SWAP1 SWAP2 MSTORE PUSH3 0xE1 AND JUMP JUMPDEST PUSH3 0xB2 DUP5 PUSH1 0x1 PUSH1 0x1 PUSH1 0xE0 SHL SUB PUSH3 0x15D AND JUMP JUMPDEST POP POP PUSH1 0x0 DUP1 SLOAD PUSH1 0x1 PUSH1 0x1 PUSH1 0xA0 SHL SUB NOT AND PUSH1 0x1 PUSH1 0x1 PUSH1 0xA0 SHL SUB SWAP5 SWAP1 SWAP5 AND SWAP4 SWAP1 SWAP4 OR SWAP1 SWAP3 SSTORE POP PUSH3 0x53D SWAP4 POP POP POP POP JUMP JUMPDEST PUSH1 0x0 PUSH1 0x60 DUP4 PUSH1 0x1 PUSH1 0x1 PUSH1 0xA0 SHL SUB AND DUP4 PUSH1 0x40 MLOAD PUSH3 0xFF SWAP2 SWAP1 PUSH3 0x404 JUMP JUMPDEST PUSH1 0x0 PUSH1 0x40 MLOAD DUP1 DUP4 SUB DUP2 DUP6 GAS DELEGATECALL SWAP2 POP POP RETURNDATASIZE DUP1 PUSH1 0x0 DUP2 EQ PUSH3 0x13C JUMPI PUSH1 0x40 MLOAD SWAP2 POP PUSH1 0x1F NOT PUSH1 0x3F RETURNDATASIZE ADD AND DUP3 ADD PUSH1 0x40 MSTORE RETURNDATASIZE DUP3 MSTORE RETURNDATASIZE PUSH1 0x0 PUSH1 0x20 DUP5 ADD RETURNDATACOPY PUSH3 0x141 JUMP JUMPDEST PUSH1 0x60 SWAP2 POP JUMPDEST POP SWAP2 POP SWAP2 POP PUSH1 0x0 DUP3 EQ ISZERO PUSH3 0x157 JUMPI RETURNDATASIZE PUSH1 0x20 DUP3 ADD REVERT JUMPDEST POP POP POP POP JUMP JUMPDEST PUSH1 0x0 SLOAD PUSH1 0x1 PUSH1 0x1 PUSH1 0xA0 SHL SUB AND CALLER EQ PUSH3 0x193 JUMPI PUSH1 0x40 MLOAD PUSH3 0x461BCD PUSH1 0xE5 SHL DUP2 MSTORE PUSH1 0x4 ADD PUSH3 0x18A SWAP1 PUSH3 0x4B0 JUMP JUMPDEST PUSH1 0x40 MLOAD DUP1 SWAP2 SUB SWAP1 REVERT JUMPDEST PUSH1 0x1 PUSH1 0x1 PUSH1 0xA0 SHL SUB DUP2 AND PUSH3 0x1BC JUMPI PUSH1 0x40 MLOAD PUSH3 0x461BCD PUSH1 0xE5 SHL DUP2 MSTORE PUSH1 0x4 ADD PUSH3 0x18A SWAP1 PUSH3 0x49E JUMP JUMPDEST PUSH1 0x2 DUP1 SLOAD PUSH1 0x1 PUSH1 0x1 PUSH1 0xA0 SHL SUB DUP4 DUP2 AND PUSH1 0x1 PUSH1 0x1 PUSH1 0xA0 SHL SUB NOT DUP4 AND OR SWAP3 DUP4 SWAP1 SSTORE PUSH1 0x40 MLOAD SWAP2 DUP2 AND SWAP3 PUSH32 0xD604DE94D45953F9138079EC1B82D533CB2160C906D1076D1F7ED54BEFBCA97A SWAP3 PUSH3 0x213 SWAP3 DUP6 SWAP3 AND SWAP1 PUSH3 0x419 JUMP JUMPDEST PUSH1 0x40 MLOAD DUP1 SWAP2 SUB SWAP1 LOG1 POP POP JUMP JUMPDEST DUP1 MLOAD PUSH3 0x22C DUP2 PUSH3 0x518 JUMP JUMPDEST SWAP3 SWAP2 POP POP JUMP JUMPDEST DUP1 MLOAD PUSH3 0x22C DUP2 PUSH3 0x532 JUMP JUMPDEST PUSH1 0x0 DUP1 PUSH1 0x0 DUP1 PUSH1 0x0 DUP1 PUSH1 0x0 DUP1 PUSH2 0x100 DUP10 DUP12 SUB SLT ISZERO PUSH3 0x25D JUMPI PUSH1 0x0 DUP1 REVERT JUMPDEST PUSH1 0x0 PUSH3 0x26B DUP12 DUP12 PUSH3 0x21F JUMP JUMPDEST SWAP9 POP POP PUSH1 0x20 PUSH3 0x27E DUP12 DUP3 DUP13 ADD PUSH3 0x21F JUMP JUMPDEST SWAP8 POP POP PUSH1 0x40 PUSH3 0x291 DUP12 DUP3 DUP13 ADD PUSH3 0x21F JUMP JUMPDEST SWAP7 POP POP PUSH1 0x60 PUSH3 0x2A4 DUP12 DUP3 DUP13 ADD PUSH3 0x21F JUMP JUMPDEST SWAP6 POP POP PUSH1 0x80 PUSH3 0x2B7 DUP12 DUP3 DUP13 ADD PUSH3 0x21F JUMP JUMPDEST SWAP5 POP POP PUSH1 0xA0 PUSH3 0x2CA DUP12 DUP3 DUP13 ADD PUSH3 0x232 JUMP JUMPDEST SWAP4 POP POP PUSH1 0xC0 PUSH3 0x2DD DUP12 DUP3 DUP13 ADD PUSH3 0x232 JUMP JUMPDEST SWAP3 POP POP PUSH1 0xE0 PUSH3 0x2F0 DUP12 DUP3 DUP13 ADD PUSH3 0x232 JUMP JUMPDEST SWAP2 POP POP SWAP3 SWAP6 SWAP9 POP SWAP3 SWAP6 SWAP9 SWAP1 SWAP4 SWAP7 POP JUMP JUMPDEST PUSH3 0x30B DUP2 PUSH3 0x4D4 JUMP JUMPDEST DUP3 MSTORE POP POP JUMP JUMPDEST PUSH1 0x0 PUSH3 0x31E DUP3 PUSH3 0x4C2 JUMP JUMPDEST PUSH3 0x32A DUP2 DUP6 PUSH3 0x4C6 JUMP JUMPDEST SWAP4 POP PUSH3 0x33C DUP2 DUP6 PUSH1 0x20 DUP7 ADD PUSH3 0x4E9 JUMP JUMPDEST SWAP3 SWAP1 SWAP3 ADD SWAP3 SWAP2 POP POP JUMP JUMPDEST PUSH1 0x0 PUSH3 0x355 PUSH1 0x4A DUP4 PUSH3 0x4CB JUMP JUMPDEST PUSH1 0x0 DUP1 MLOAD PUSH1 0x20 PUSH3 0xA44 DUP4 CODECOPY DUP2 MLOAD SWAP2 MSTORE DUP2 MSTORE PUSH32 0x656D656E746174696F6E3A20696E76616C696420696D706C656D656E74617469 PUSH1 0x20 DUP3 ADD MSTORE PUSH10 0x6F6E2061646472657373 PUSH1 0xB0 SHL PUSH1 0x40 DUP3 ADD MSTORE PUSH1 0x60 ADD SWAP3 SWAP2 POP POP JUMP JUMPDEST PUSH1 0x0 PUSH3 0x3B8 PUSH1 0x36 DUP4 PUSH3 0x4CB JUMP JUMPDEST PUSH1 0x0 DUP1 MLOAD PUSH1 0x20 PUSH3 0xA44 DUP4 CODECOPY DUP2 MLOAD SWAP2 MSTORE DUP2 MSTORE PUSH32 0x656D656E746174696F6E3A2061646D696E206F6E6C7900000000000000000000 PUSH1 0x20 DUP3 ADD MSTORE PUSH1 0x40 ADD SWAP3 SWAP2 POP POP JUMP JUMPDEST PUSH3 0x30B DUP2 PUSH3 0x4E6 JUMP JUMPDEST PUSH1 0x0 PUSH3 0x412 DUP3 DUP5 PUSH3 0x311 JUMP JUMPDEST SWAP4 SWAP3 POP POP POP JUMP JUMPDEST PUSH1 0x40 DUP2 ADD PUSH3 0x429 DUP3 DUP6 PUSH3 0x300 JUMP JUMPDEST PUSH3 0x412 PUSH1 0x20 DUP4 ADD DUP5 PUSH3 0x300 JUMP JUMPDEST PUSH1 0xC0 DUP2 ADD PUSH3 0x448 DUP3 DUP10 PUSH3 0x300 JUMP JUMPDEST PUSH3 0x457 PUSH1 0x20 DUP4 ADD DUP9 PUSH3 0x300 JUMP JUMPDEST PUSH3 0x466 PUSH1 0x40 DUP4 ADD DUP8 PUSH3 0x300 JUMP JUMPDEST PUSH3 0x475 PUSH1 0x60 DUP4 ADD DUP7 PUSH3 0x3F9 JUMP JUMPDEST PUSH3 0x484 PUSH1 0x80 DUP4 ADD DUP6 PUSH3 0x3F9 JUMP JUMPDEST PUSH3 0x493 PUSH1 0xA0 DUP4 ADD DUP5 PUSH3 0x3F9 JUMP JUMPDEST SWAP8 SWAP7 POP POP POP POP POP POP POP JUMP JUMPDEST PUSH1 0x20 DUP1 DUP3 MSTORE DUP2 ADD PUSH3 0x22C DUP2 PUSH3 0x346 JUMP JUMPDEST PUSH1 0x20 DUP1 DUP3 MSTORE DUP2 ADD PUSH3 0x22C DUP2 PUSH3 0x3A9 JUMP JUMPDEST MLOAD SWAP1 JUMP JUMPDEST SWAP2 SWAP1 POP JUMP JUMPDEST SWAP1 DUP2 MSTORE PUSH1 0x20 ADD SWAP1 JUMP JUMPDEST PUSH1 0x0 PUSH1 0x1 PUSH1 0x1 PUSH1 0xA0 SHL SUB DUP3 AND PUSH3 0x22C JUMP JUMPDEST SWAP1 JUMP JUMPDEST PUSH1 0x0 JUMPDEST DUP4 DUP2 LT ISZERO PUSH3 0x506 JUMPI DUP2 DUP2 ADD MLOAD DUP4 DUP3 ADD MSTORE PUSH1 0x20 ADD PUSH3 0x4EC JUMP JUMPDEST DUP4 DUP2 GT ISZERO PUSH3 0x157 JUMPI POP POP PUSH1 0x0 SWAP2 ADD MSTORE JUMP JUMPDEST PUSH3 0x523 DUP2 PUSH3 0x4D4 JUMP JUMPDEST DUP2 EQ PUSH3 0x52F JUMPI PUSH1 0x0 DUP1 REVERT JUMPDEST POP JUMP JUMPDEST PUSH3 0x523 DUP2 PUSH3 0x4E6 JUMP JUMPDEST PUSH2 0x4F7 DUP1 PUSH3 0x54D PUSH1 0x0 CODECOPY PUSH1 0x0 RETURN INVALID PUSH1 0x80 PUSH1 0x40 MSTORE PUSH1 0x4 CALLDATASIZE LT PUSH2 0x3F JUMPI PUSH1 0x0 CALLDATALOAD PUSH1 0xE0 SHR DUP1 PUSH4 0x26782247 EQ PUSH2 0xC7 JUMPI DUP1 PUSH4 0x5C60DA1B EQ PUSH2 0xF2 JUMPI DUP1 PUSH4 0xBB913F41 EQ PUSH2 0x107 JUMPI DUP1 PUSH4 0xF851A440 EQ PUSH2 0x129 JUMPI JUMPDEST PUSH1 0x2 SLOAD PUSH1 0x40 MLOAD PUSH1 0x0 SWAP2 PUSH20 0xFFFFFFFFFFFFFFFFFFFFFFFFFFFFFFFFFFFFFFFF AND SWAP1 PUSH2 0x6C SWAP1 DUP4 SWAP1 CALLDATASIZE SWAP1 PUSH2 0x408 JUMP JUMPDEST PUSH1 0x0 PUSH1 0x40 MLOAD DUP1 DUP4 SUB DUP2 DUP6 GAS DELEGATECALL SWAP2 POP POP RETURNDATASIZE DUP1 PUSH1 0x0 DUP2 EQ PUSH2 0xA7 JUMPI PUSH1 0x40 MLOAD SWAP2 POP PUSH1 0x1F NOT PUSH1 0x3F RETURNDATASIZE ADD AND DUP3 ADD PUSH1 0x40 MSTORE RETURNDATASIZE DUP3 MSTORE RETURNDATASIZE PUSH1 0x0 PUSH1 0x20 DUP5 ADD RETURNDATACOPY PUSH2 0xAC JUMP JUMPDEST PUSH1 0x60 SWAP2 POP JUMPDEST POP POP SWAP1 POP PUSH1 0x40 MLOAD RETURNDATASIZE PUSH1 0x0 DUP3 RETURNDATACOPY DUP2 DUP1 ISZERO PUSH2 0xC3 JUMPI RETURNDATASIZE DUP3 RETURN JUMPDEST RETURNDATASIZE DUP3 REVERT JUMPDEST CALLVALUE DUP1 ISZERO PUSH2 0xD3 JUMPI PUSH1 0x0 DUP1 REVERT JUMPDEST POP PUSH2 0xDC PUSH2 0x13E JUMP JUMPDEST PUSH1 0x40 MLOAD PUSH2 0xE9 SWAP2 SWAP1 PUSH2 0x415 JUMP JUMPDEST PUSH1 0x40 MLOAD DUP1 SWAP2 SUB SWAP1 RETURN JUMPDEST CALLVALUE DUP1 ISZERO PUSH2 0xFE JUMPI PUSH1 0x0 DUP1 REVERT JUMPDEST POP PUSH2 0xDC PUSH2 0x15A JUMP JUMPDEST CALLVALUE DUP1 ISZERO PUSH2 0x113 JUMPI PUSH1 0x0 DUP1 REVERT JUMPDEST POP PUSH2 0x127 PUSH2 0x122 CALLDATASIZE PUSH1 0x4 PUSH2 0x2D0 JUMP JUMPDEST PUSH2 0x176 JUMP JUMPDEST STOP JUMPDEST CALLVALUE DUP1 ISZERO PUSH2 0x135 JUMPI PUSH1 0x0 DUP1 REVERT JUMPDEST POP PUSH2 0xDC PUSH2 0x2A3 JUMP JUMPDEST PUSH1 0x1 SLOAD PUSH20 0xFFFFFFFFFFFFFFFFFFFFFFFFFFFFFFFFFFFFFFFF AND DUP2 JUMP JUMPDEST PUSH1 0x2 SLOAD PUSH20 0xFFFFFFFFFFFFFFFFFFFFFFFFFFFFFFFFFFFFFFFF AND DUP2 JUMP JUMPDEST PUSH1 0x0 SLOAD PUSH20 0xFFFFFFFFFFFFFFFFFFFFFFFFFFFFFFFFFFFFFFFF AND CALLER EQ PUSH2 0x1D0 JUMPI PUSH1 0x40 MLOAD PUSH32 0x8C379A000000000000000000000000000000000000000000000000000000000 DUP2 MSTORE PUSH1 0x4 ADD PUSH2 0x1C7 SWAP1 PUSH2 0x455 JUMP JUMPDEST PUSH1 0x40 MLOAD DUP1 SWAP2 SUB SWAP1 REVERT JUMPDEST PUSH20 0xFFFFFFFFFFFFFFFFFFFFFFFFFFFFFFFFFFFFFFFF DUP2 AND PUSH2 0x21D JUMPI PUSH1 0x40 MLOAD PUSH32 0x8C379A000000000000000000000000000000000000000000000000000000000 DUP2 MSTORE PUSH1 0x4 ADD PUSH2 0x1C7 SWAP1 PUSH2 0x445 JUMP JUMPDEST PUSH1 0x2 DUP1 SLOAD PUSH20 0xFFFFFFFFFFFFFFFFFFFFFFFFFFFFFFFFFFFFFFFF DUP4 DUP2 AND PUSH32 0xFFFFFFFFFFFFFFFFFFFFFFFF0000000000000000000000000000000000000000 DUP4 AND OR SWAP3 DUP4 SWAP1 SSTORE PUSH1 0x40 MLOAD SWAP2 DUP2 AND SWAP3 PUSH32 0xD604DE94D45953F9138079EC1B82D533CB2160C906D1076D1F7ED54BEFBCA97A SWAP3 PUSH2 0x297 SWAP3 DUP6 SWAP3 AND SWAP1 PUSH2 0x423 JUMP JUMPDEST PUSH1 0x40 MLOAD DUP1 SWAP2 SUB SWAP1 LOG1 POP POP JUMP JUMPDEST PUSH1 0x0 SLOAD PUSH20 0xFFFFFFFFFFFFFFFFFFFFFFFFFFFFFFFFFFFFFFFF AND DUP2 JUMP JUMPDEST DUP1 CALLDATALOAD PUSH2 0x2CA DUP2 PUSH2 0x49D JUMP JUMPDEST SWAP3 SWAP2 POP POP JUMP JUMPDEST PUSH1 0x0 PUSH1 0x20 DUP3 DUP5 SUB SLT ISZERO PUSH2 0x2E2 JUMPI PUSH1 0x0 DUP1 REVERT JUMPDEST PUSH1 0x0 PUSH2 0x2EE DUP5 DUP5 PUSH2 0x2BF JUMP JUMPDEST SWAP5 SWAP4 POP POP POP POP JUMP JUMPDEST PUSH2 0x2FF DUP2 PUSH2 0x473 JUMP JUMPDEST DUP3 MSTORE POP POP JUMP JUMPDEST PUSH1 0x0 PUSH2 0x311 DUP4 DUP6 PUSH2 0x465 JUMP JUMPDEST SWAP4 POP PUSH2 0x31E DUP4 DUP6 DUP5 PUSH2 0x491 JUMP JUMPDEST POP POP ADD SWAP1 JUMP JUMPDEST PUSH1 0x0 PUSH2 0x331 PUSH1 0x4A DUP4 PUSH2 0x46A JUMP JUMPDEST PUSH32 0x476F7665726E6F72427261766F44656C656761746F723A3A5F736574496D706C DUP2 MSTORE PUSH32 0x656D656E746174696F6E3A20696E76616C696420696D706C656D656E74617469 PUSH1 0x20 DUP3 ADD MSTORE PUSH32 0x6F6E206164647265737300000000000000000000000000000000000000000000 PUSH1 0x40 DUP3 ADD MSTORE PUSH1 0x60 ADD SWAP3 SWAP2 POP POP JUMP JUMPDEST PUSH1 0x0 PUSH2 0x3B6 PUSH1 0x36 DUP4 PUSH2 0x46A JUMP JUMPDEST PUSH32 0x476F7665726E6F72427261766F44656C656761746F723A3A5F736574496D706C DUP2 MSTORE PUSH32 0x656D656E746174696F6E3A2061646D696E206F6E6C7900000000000000000000 PUSH1 0x20 DUP3 ADD MSTORE PUSH1 0x40 ADD SWAP3 SWAP2 POP POP JUMP JUMPDEST PUSH1 0x0 PUSH2 0x2EE DUP3 DUP5 DUP7 PUSH2 0x305 JUMP JUMPDEST PUSH1 0x20 DUP2 ADD PUSH2 0x2CA DUP3 DUP5 PUSH2 0x2F6 JUMP JUMPDEST PUSH1 0x40 DUP2 ADD PUSH2 0x431 DUP3 DUP6 PUSH2 0x2F6 JUMP JUMPDEST PUSH2 0x43E PUSH1 0x20 DUP4 ADD DUP5 PUSH2 0x2F6 JUMP JUMPDEST SWAP4 SWAP3 POP POP POP JUMP JUMPDEST PUSH1 0x20 DUP1 DUP3 MSTORE DUP2 ADD PUSH2 0x2CA DUP2 PUSH2 0x324 JUMP JUMPDEST PUSH1 0x20 DUP1 DUP3 MSTORE DUP2 ADD PUSH2 0x2CA DUP2 PUSH2 0x3A9 JUMP JUMPDEST SWAP2 SWAP1 POP JUMP JUMPDEST SWAP1 DUP2 MSTORE PUSH1 0x20 ADD SWAP1 JUMP JUMPDEST PUSH1 0x0 PUSH20 0xFFFFFFFFFFFFFFFFFFFFFFFFFFFFFFFFFFFFFFFF DUP3 AND PUSH2 0x2CA JUMP JUMPDEST DUP3 DUP2 DUP4 CALLDATACOPY POP PUSH1 0x0 SWAP2 ADD MSTORE JUMP JUMPDEST PUSH2 0x4A6 DUP2 PUSH2 0x473 JUMP JUMPDEST DUP2 EQ PUSH2 0x4B1 JUMPI PUSH1 0x0 DUP1 REVERT JUMPDEST POP JUMP INVALID LOG3 PUSH6 0x627A7A723158 KECCAK256 PUSH27 0x63A47B2763E21BED529845C59A2137A6D89AE7F7278AAE9E873E21 0x26 0xA8 SELFBALANCE 0x5D PUSH13 0x6578706572696D656E74616CF5 PUSH5 0x736F6C6343 STOP SDIV GT STOP BLOCKHASH SELFBALANCE PUSH16 0x7665726E6F72427261766F44656C6567 PUSH2 0x746F PUSH19 0x3A3A5F736574496D706C000000000000000000 "
        },
        "gasEstimates": {
          "creation": {
            "codeDepositCost": "254200",
            "executionCost": "infinite",
            "totalCost": "infinite"
          },
          "external": {
            "": "infinite",
            "_setImplementation(address)": "infinite",
            "admin()": "infinite",
            "implementation()": "infinite",
            "pendingAdmin()": "infinite"
          },
          "internal": {
            "delegateTo(address,bytes memory)": "infinite"
          }
        },
        "methodIdentifiers": {
          "_setImplementation(address)": "bb913f41",
          "admin()": "f851a440",
          "implementation()": "5c60da1b",
          "pendingAdmin()": "26782247"
        }
      },
      "storageLayout": {
        "storage": [
          {
            "astId": 1595,
            "contract": "contracts/DAO/governance/GovernorBravoDelegator.sol:GovernorBravoDelegator",
            "label": "admin",
            "offset": 0,
            "slot": "0",
            "type": "t_address"
          },
          {
            "astId": 1597,
            "contract": "contracts/DAO/governance/GovernorBravoDelegator.sol:GovernorBravoDelegator",
            "label": "pendingAdmin",
            "offset": 0,
            "slot": "1",
            "type": "t_address"
          },
          {
            "astId": 1599,
            "contract": "contracts/DAO/governance/GovernorBravoDelegator.sol:GovernorBravoDelegator",
            "label": "implementation",
            "offset": 0,
            "slot": "2",
            "type": "t_address"
          }
        ],
        "types": {
          "t_address": {
            "encoding": "inplace",
            "label": "address",
            "numberOfBytes": "20"
          }
        }
      },
      "userdoc": {
        "methods": {
          "_setImplementation(address)": {
            "notice": "Called by the admin to update the implementation of the delegator"
          }
        }
      }
    }
  }
}