{
  "contracts/DAO/governance/GovernorBravoInterfaces.sol": {
    "GovernorBravoDelegateStorageV1": {
      "abi": [
        {
          "constant": true,
          "inputs": [],
          "name": "admin",
          "outputs": [
            {
              "internalType": "address",
              "name": "",
              "type": "address"
            }
          ],
          "payable": false,
          "stateMutability": "view",
          "type": "function"
        },
        {
          "constant": true,
          "inputs": [],
          "name": "boba",
          "outputs": [
            {
              "internalType": "contract BobaInterface",
              "name": "",
              "type": "address"
            }
          ],
          "payable": false,
          "stateMutability": "view",
          "type": "function"
        },
        {
          "constant": true,
          "inputs": [],
          "name": "implementation",
          "outputs": [
            {
              "internalType": "address",
              "name": "",
              "type": "address"
            }
          ],
          "payable": false,
          "stateMutability": "view",
          "type": "function"
        },
        {
          "constant": true,
          "inputs": [],
          "name": "initialProposalId",
          "outputs": [
            {
              "internalType": "uint256",
              "name": "",
              "type": "uint256"
            }
          ],
          "payable": false,
          "stateMutability": "view",
          "type": "function"
        },
        {
          "constant": true,
          "inputs": [
            {
              "internalType": "address",
              "name": "",
              "type": "address"
            }
          ],
          "name": "latestProposalIds",
          "outputs": [
            {
              "internalType": "uint256",
              "name": "",
              "type": "uint256"
            }
          ],
          "payable": false,
          "stateMutability": "view",
          "type": "function"
        },
        {
          "constant": true,
          "inputs": [],
          "name": "pendingAdmin",
          "outputs": [
            {
              "internalType": "address",
              "name": "",
              "type": "address"
            }
          ],
          "payable": false,
          "stateMutability": "view",
          "type": "function"
        },
        {
          "constant": true,
          "inputs": [],
          "name": "proposalCount",
          "outputs": [
            {
              "internalType": "uint256",
              "name": "",
              "type": "uint256"
            }
          ],
          "payable": false,
          "stateMutability": "view",
          "type": "function"
        },
        {
          "constant": true,
          "inputs": [],
          "name": "proposalThreshold",
          "outputs": [
            {
              "internalType": "uint256",
              "name": "",
              "type": "uint256"
            }
          ],
          "payable": false,
          "stateMutability": "view",
          "type": "function"
        },
        {
          "constant": true,
          "inputs": [
            {
              "internalType": "uint256",
              "name": "",
              "type": "uint256"
            }
          ],
          "name": "proposals",
          "outputs": [
            {
              "internalType": "uint256",
              "name": "id",
              "type": "uint256"
            },
            {
              "internalType": "address",
              "name": "proposer",
              "type": "address"
            },
            {
              "internalType": "uint256",
              "name": "eta",
              "type": "uint256"
            },
            {
              "internalType": "string",
              "name": "description",
              "type": "string"
            },
            {
              "internalType": "uint256",
              "name": "startBlock",
              "type": "uint256"
            },
            {
              "internalType": "uint256",
              "name": "startTimestamp",
              "type": "uint256"
            },
            {
              "internalType": "uint256",
              "name": "endTimestamp",
              "type": "uint256"
            },
            {
              "internalType": "uint256",
              "name": "forVotes",
              "type": "uint256"
            },
            {
              "internalType": "uint256",
              "name": "againstVotes",
              "type": "uint256"
            },
            {
              "internalType": "uint256",
              "name": "abstainVotes",
              "type": "uint256"
            },
            {
              "internalType": "bool",
              "name": "canceled",
              "type": "bool"
            },
            {
              "internalType": "bool",
              "name": "executed",
              "type": "bool"
            }
          ],
          "payable": false,
          "stateMutability": "view",
          "type": "function"
        },
        {
          "constant": true,
          "inputs": [],
          "name": "timelock",
          "outputs": [
            {
              "internalType": "contract TimelockInterface",
              "name": "",
              "type": "address"
            }
          ],
          "payable": false,
          "stateMutability": "view",
          "type": "function"
        },
        {
          "constant": true,
          "inputs": [],
          "name": "votingDelay",
          "outputs": [
            {
              "internalType": "uint256",
              "name": "",
              "type": "uint256"
            }
          ],
          "payable": false,
          "stateMutability": "view",
          "type": "function"
        },
        {
          "constant": true,
          "inputs": [],
          "name": "votingPeriod",
          "outputs": [
            {
              "internalType": "uint256",
              "name": "",
              "type": "uint256"
            }
          ],
          "payable": false,
          "stateMutability": "view",
          "type": "function"
        },
        {
          "constant": true,
          "inputs": [],
          "name": "xboba",
          "outputs": [
            {
              "internalType": "contract BobaInterface",
              "name": "",
              "type": "address"
            }
          ],
          "payable": false,
          "stateMutability": "view",
          "type": "function"
        }
      ],
      "devdoc": {
        "methods": {},
        "title": "Storage for Governor Bravo Delegate"
      },
      "evm": {
        "bytecode": {
          "linkReferences": {},
          "object": "608060405234801561001057600080fd5b50610648806100206000396000f3fe608060405234801561001057600080fd5b50600436106100df5760003560e01c8063ad5121b81161008c578063d33219b411610066578063d33219b41461018a578063da35c66414610192578063f851a4401461019a578063fc4eee42146101a2576100df565b8063ad5121b814610165578063b58131b01461017a578063c501f81614610182576100df565b806326782247116100bd57806326782247146101405780633932abb1146101555780635c60da1b1461015d576100df565b8063013cf08b146100e457806302a251a31461011857806317977c611461012d575b600080fd5b6100f76100f23660046103e5565b6101aa565b60405161010f9c9b9a9998979695949392919061048f565b60405180910390f35b6101206102cb565b60405161010f9190610481565b61012061013b3660046103bf565b6102d1565b6101486102e3565b60405161010f9190610465565b6101206102ff565b610148610305565b61016d610321565b60405161010f9190610473565b61012061033d565b61016d610343565b61016d61035f565b61012061037b565b610148610381565b61012061039d565b600b602090815260009182526040918290208054600180830154600280850154600786018054895161010096821615969096027fffffffffffffffffffffffffffffffffffffffffffffffffffffffffffffffff011692909204601f8101889004880285018801909852878452939673ffffffffffffffffffffffffffffffffffffffff909216959394939091908301828280156102895780601f1061025e57610100808354040283529160200191610289565b820191906000526020600020905b81548152906001019060200180831161026c57829003601f168201915b5050505060088301546009840154600a850154600b860154600c870154600d880154600e90980154969794969395509193909260ff808216916101009004168c565b60045481565b600c6020526000908152604090205481565b60015473ffffffffffffffffffffffffffffffffffffffff1681565b60035481565b60025473ffffffffffffffffffffffffffffffffffffffff1681565b600a5473ffffffffffffffffffffffffffffffffffffffff1681565b60055481565b60095473ffffffffffffffffffffffffffffffffffffffff1681565b60085473ffffffffffffffffffffffffffffffffffffffff1681565b60075481565b60005473ffffffffffffffffffffffffffffffffffffffff1681565b60065481565b80356103ae816105e5565b92915050565b80356103ae816105fc565b6000602082840312156103d157600080fd5b60006103dd84846103a3565b949350505050565b6000602082840312156103f757600080fd5b60006103dd84846103b4565b61040c81610556565b82525050565b61040c81610561565b61040c81610582565b600061042f82610549565b610439818561054d565b935061044981856020860161058d565b610452816105bd565b9093019392505050565b61040c8161057f565b602081016103ae8284610403565b602081016103ae828461041b565b602081016103ae828461045c565b610180810161049e828f61045c565b6104ab602083018e610403565b6104b8604083018d61045c565b81810360608301526104ca818c610424565b90506104d9608083018b61045c565b6104e660a083018a61045c565b6104f360c083018961045c565b61050060e083018861045c565b61050e61010083018761045c565b61051c61012083018661045c565b61052a610140830185610412565b610538610160830184610412565b9d9c50505050505050505050505050565b5190565b90815260200190565b60006103ae82610566565b151590565b73ffffffffffffffffffffffffffffffffffffffff1690565b90565b60006103ae82610556565b60005b838110156105a8578181015183820152602001610590565b838111156105b7576000848401525b50505050565b601f017fffffffffffffffffffffffffffffffffffffffffffffffffffffffffffffffe01690565b6105ee81610556565b81146105f957600080fd5b50565b6105ee8161057f56fea365627a7a72315820fda9ab6525f9bb81c085ab5973bbd313c94d316513695059c9e10993dda1e4e16c6578706572696d656e74616cf564736f6c63430005110040",
          "opcodes": "PUSH1 0x80 PUSH1 0x40 MSTORE CALLVALUE DUP1 ISZERO PUSH2 0x10 JUMPI PUSH1 0x0 DUP1 REVERT JUMPDEST POP PUSH2 0x648 DUP1 PUSH2 0x20 PUSH1 0x0 CODECOPY PUSH1 0x0 RETURN INVALID PUSH1 0x80 PUSH1 0x40 MSTORE CALLVALUE DUP1 ISZERO PUSH2 0x10 JUMPI PUSH1 0x0 DUP1 REVERT JUMPDEST POP PUSH1 0x4 CALLDATASIZE LT PUSH2 0xDF JUMPI PUSH1 0x0 CALLDATALOAD PUSH1 0xE0 SHR DUP1 PUSH4 0xAD5121B8 GT PUSH2 0x8C JUMPI DUP1 PUSH4 0xD33219B4 GT PUSH2 0x66 JUMPI DUP1 PUSH4 0xD33219B4 EQ PUSH2 0x18A JUMPI DUP1 PUSH4 0xDA35C664 EQ PUSH2 0x192 JUMPI DUP1 PUSH4 0xF851A440 EQ PUSH2 0x19A JUMPI DUP1 PUSH4 0xFC4EEE42 EQ PUSH2 0x1A2 JUMPI PUSH2 0xDF JUMP JUMPDEST DUP1 PUSH4 0xAD5121B8 EQ PUSH2 0x165 JUMPI DUP1 PUSH4 0xB58131B0 EQ PUSH2 0x17A JUMPI DUP1 PUSH4 0xC501F816 EQ PUSH2 0x182 JUMPI PUSH2 0xDF JUMP JUMPDEST DUP1 PUSH4 0x26782247 GT PUSH2 0xBD JUMPI DUP1 PUSH4 0x26782247 EQ PUSH2 0x140 JUMPI DUP1 PUSH4 0x3932ABB1 EQ PUSH2 0x155 JUMPI DUP1 PUSH4 0x5C60DA1B EQ PUSH2 0x15D JUMPI PUSH2 0xDF JUMP JUMPDEST DUP1 PUSH4 0x13CF08B EQ PUSH2 0xE4 JUMPI DUP1 PUSH4 0x2A251A3 EQ PUSH2 0x118 JUMPI DUP1 PUSH4 0x17977C61 EQ PUSH2 0x12D JUMPI JUMPDEST PUSH1 0x0 DUP1 REVERT JUMPDEST PUSH2 0xF7 PUSH2 0xF2 CALLDATASIZE PUSH1 0x4 PUSH2 0x3E5 JUMP JUMPDEST PUSH2 0x1AA JUMP JUMPDEST PUSH1 0x40 MLOAD PUSH2 0x10F SWAP13 SWAP12 SWAP11 SWAP10 SWAP9 SWAP8 SWAP7 SWAP6 SWAP5 SWAP4 SWAP3 SWAP2 SWAP1 PUSH2 0x48F JUMP JUMPDEST PUSH1 0x40 MLOAD DUP1 SWAP2 SUB SWAP1 RETURN JUMPDEST PUSH2 0x120 PUSH2 0x2CB JUMP JUMPDEST PUSH1 0x40 MLOAD PUSH2 0x10F SWAP2 SWAP1 PUSH2 0x481 JUMP JUMPDEST PUSH2 0x120 PUSH2 0x13B CALLDATASIZE PUSH1 0x4 PUSH2 0x3BF JUMP JUMPDEST PUSH2 0x2D1 JUMP JUMPDEST PUSH2 0x148 PUSH2 0x2E3 JUMP JUMPDEST PUSH1 0x40 MLOAD PUSH2 0x10F SWAP2 SWAP1 PUSH2 0x465 JUMP JUMPDEST PUSH2 0x120 PUSH2 0x2FF JUMP JUMPDEST PUSH2 0x148 PUSH2 0x305 JUMP JUMPDEST PUSH2 0x16D PUSH2 0x321 JUMP JUMPDEST PUSH1 0x40 MLOAD PUSH2 0x10F SWAP2 SWAP1 PUSH2 0x473 JUMP JUMPDEST PUSH2 0x120 PUSH2 0x33D JUMP JUMPDEST PUSH2 0x16D PUSH2 0x343 JUMP JUMPDEST PUSH2 0x16D PUSH2 0x35F JUMP JUMPDEST PUSH2 0x120 PUSH2 0x37B JUMP JUMPDEST PUSH2 0x148 PUSH2 0x381 JUMP JUMPDEST PUSH2 0x120 PUSH2 0x39D JUMP JUMPDEST PUSH1 0xB PUSH1 0x20 SWAP1 DUP2 MSTORE PUSH1 0x0 SWAP2 DUP3 MSTORE PUSH1 0x40 SWAP2 DUP3 SWAP1 KECCAK256 DUP1 SLOAD PUSH1 0x1 DUP1 DUP4 ADD SLOAD PUSH1 0x2 DUP1 DUP6 ADD SLOAD PUSH1 0x7 DUP7 ADD DUP1 SLOAD DUP10 MLOAD PUSH2 0x100 SWAP7 DUP3 AND ISZERO SWAP7 SWAP1 SWAP7 MUL PUSH32 0xFFFFFFFFFFFFFFFFFFFFFFFFFFFFFFFFFFFFFFFFFFFFFFFFFFFFFFFFFFFFFFFF ADD AND SWAP3 SWAP1 SWAP3 DIV PUSH1 0x1F DUP2 ADD DUP9 SWAP1 DIV DUP9 MUL DUP6 ADD DUP9 ADD SWAP1 SWAP9 MSTORE DUP8 DUP5 MSTORE SWAP4 SWAP7 PUSH20 0xFFFFFFFFFFFFFFFFFFFFFFFFFFFFFFFFFFFFFFFF SWAP1 SWAP3 AND SWAP6 SWAP4 SWAP5 SWAP4 SWAP1 SWAP2 SWAP1 DUP4 ADD DUP3 DUP3 DUP1 ISZERO PUSH2 0x289 JUMPI DUP1 PUSH1 0x1F LT PUSH2 0x25E JUMPI PUSH2 0x100 DUP1 DUP4 SLOAD DIV MUL DUP4 MSTORE SWAP2 PUSH1 0x20 ADD SWAP2 PUSH2 0x289 JUMP JUMPDEST DUP3 ADD SWAP2 SWAP1 PUSH1 0x0 MSTORE PUSH1 0x20 PUSH1 0x0 KECCAK256 SWAP1 JUMPDEST DUP2 SLOAD DUP2 MSTORE SWAP1 PUSH1 0x1 ADD SWAP1 PUSH1 0x20 ADD DUP1 DUP4 GT PUSH2 0x26C JUMPI DUP3 SWAP1 SUB PUSH1 0x1F AND DUP3 ADD SWAP2 JUMPDEST POP POP POP POP PUSH1 0x8 DUP4 ADD SLOAD PUSH1 0x9 DUP5 ADD SLOAD PUSH1 0xA DUP6 ADD SLOAD PUSH1 0xB DUP7 ADD SLOAD PUSH1 0xC DUP8 ADD SLOAD PUSH1 0xD DUP9 ADD SLOAD PUSH1 0xE SWAP1 SWAP9 ADD SLOAD SWAP7 SWAP8 SWAP5 SWAP7 SWAP4 SWAP6 POP SWAP2 SWAP4 SWAP1 SWAP3 PUSH1 0xFF DUP1 DUP3 AND SWAP2 PUSH2 0x100 SWAP1 DIV AND DUP13 JUMP JUMPDEST PUSH1 0x4 SLOAD DUP2 JUMP JUMPDEST PUSH1 0xC PUSH1 0x20 MSTORE PUSH1 0x0 SWAP1 DUP2 MSTORE PUSH1 0x40 SWAP1 KECCAK256 SLOAD DUP2 JUMP JUMPDEST PUSH1 0x1 SLOAD PUSH20 0xFFFFFFFFFFFFFFFFFFFFFFFFFFFFFFFFFFFFFFFF AND DUP2 JUMP JUMPDEST PUSH1 0x3 SLOAD DUP2 JUMP JUMPDEST PUSH1 0x2 SLOAD PUSH20 0xFFFFFFFFFFFFFFFFFFFFFFFFFFFFFFFFFFFFFFFF AND DUP2 JUMP JUMPDEST PUSH1 0xA SLOAD PUSH20 0xFFFFFFFFFFFFFFFFFFFFFFFFFFFFFFFFFFFFFFFF AND DUP2 JUMP JUMPDEST PUSH1 0x5 SLOAD DUP2 JUMP JUMPDEST PUSH1 0x9 SLOAD PUSH20 0xFFFFFFFFFFFFFFFFFFFFFFFFFFFFFFFFFFFFFFFF AND DUP2 JUMP JUMPDEST PUSH1 0x8 SLOAD PUSH20 0xFFFFFFFFFFFFFFFFFFFFFFFFFFFFFFFFFFFFFFFF AND DUP2 JUMP JUMPDEST PUSH1 0x7 SLOAD DUP2 JUMP JUMPDEST PUSH1 0x0 SLOAD PUSH20 0xFFFFFFFFFFFFFFFFFFFFFFFFFFFFFFFFFFFFFFFF AND DUP2 JUMP JUMPDEST PUSH1 0x6 SLOAD DUP2 JUMP JUMPDEST DUP1 CALLDATALOAD PUSH2 0x3AE DUP2 PUSH2 0x5E5 JUMP JUMPDEST SWAP3 SWAP2 POP POP JUMP JUMPDEST DUP1 CALLDATALOAD PUSH2 0x3AE DUP2 PUSH2 0x5FC JUMP JUMPDEST PUSH1 0x0 PUSH1 0x20 DUP3 DUP5 SUB SLT ISZERO PUSH2 0x3D1 JUMPI PUSH1 0x0 DUP1 REVERT JUMPDEST PUSH1 0x0 PUSH2 0x3DD DUP5 DUP5 PUSH2 0x3A3 JUMP JUMPDEST SWAP5 SWAP4 POP POP POP POP JUMP JUMPDEST PUSH1 0x0 PUSH1 0x20 DUP3 DUP5 SUB SLT ISZERO PUSH2 0x3F7 JUMPI PUSH1 0x0 DUP1 REVERT JUMPDEST PUSH1 0x0 PUSH2 0x3DD DUP5 DUP5 PUSH2 0x3B4 JUMP JUMPDEST PUSH2 0x40C DUP2 PUSH2 0x556 JUMP JUMPDEST DUP3 MSTORE POP POP JUMP JUMPDEST PUSH2 0x40C DUP2 PUSH2 0x561 JUMP JUMPDEST PUSH2 0x40C DUP2 PUSH2 0x582 JUMP JUMPDEST PUSH1 0x0 PUSH2 0x42F DUP3 PUSH2 0x549 JUMP JUMPDEST PUSH2 0x439 DUP2 DUP6 PUSH2 0x54D JUMP JUMPDEST SWAP4 POP PUSH2 0x449 DUP2 DUP6 PUSH1 0x20 DUP7 ADD PUSH2 0x58D JUMP JUMPDEST PUSH2 0x452 DUP2 PUSH2 0x5BD JUMP JUMPDEST SWAP1 SWAP4 ADD SWAP4 SWAP3 POP POP POP JUMP JUMPDEST PUSH2 0x40C DUP2 PUSH2 0x57F JUMP JUMPDEST PUSH1 0x20 DUP2 ADD PUSH2 0x3AE DUP3 DUP5 PUSH2 0x403 JUMP JUMPDEST PUSH1 0x20 DUP2 ADD PUSH2 0x3AE DUP3 DUP5 PUSH2 0x41B JUMP JUMPDEST PUSH1 0x20 DUP2 ADD PUSH2 0x3AE DUP3 DUP5 PUSH2 0x45C JUMP JUMPDEST PUSH2 0x180 DUP2 ADD PUSH2 0x49E DUP3 DUP16 PUSH2 0x45C JUMP JUMPDEST PUSH2 0x4AB PUSH1 0x20 DUP4 ADD DUP15 PUSH2 0x403 JUMP JUMPDEST PUSH2 0x4B8 PUSH1 0x40 DUP4 ADD DUP14 PUSH2 0x45C JUMP JUMPDEST DUP2 DUP2 SUB PUSH1 0x60 DUP4 ADD MSTORE PUSH2 0x4CA DUP2 DUP13 PUSH2 0x424 JUMP JUMPDEST SWAP1 POP PUSH2 0x4D9 PUSH1 0x80 DUP4 ADD DUP12 PUSH2 0x45C JUMP JUMPDEST PUSH2 0x4E6 PUSH1 0xA0 DUP4 ADD DUP11 PUSH2 0x45C JUMP JUMPDEST PUSH2 0x4F3 PUSH1 0xC0 DUP4 ADD DUP10 PUSH2 0x45C JUMP JUMPDEST PUSH2 0x500 PUSH1 0xE0 DUP4 ADD DUP9 PUSH2 0x45C JUMP JUMPDEST PUSH2 0x50E PUSH2 0x100 DUP4 ADD DUP8 PUSH2 0x45C JUMP JUMPDEST PUSH2 0x51C PUSH2 0x120 DUP4 ADD DUP7 PUSH2 0x45C JUMP JUMPDEST PUSH2 0x52A PUSH2 0x140 DUP4 ADD DUP6 PUSH2 0x412 JUMP JUMPDEST PUSH2 0x538 PUSH2 0x160 DUP4 ADD DUP5 PUSH2 0x412 JUMP JUMPDEST SWAP14 SWAP13 POP POP POP POP POP POP POP POP POP POP POP POP POP JUMP JUMPDEST MLOAD SWAP1 JUMP JUMPDEST SWAP1 DUP2 MSTORE PUSH1 0x20 ADD SWAP1 JUMP JUMPDEST PUSH1 0x0 PUSH2 0x3AE DUP3 PUSH2 0x566 JUMP JUMPDEST ISZERO ISZERO SWAP1 JUMP JUMPDEST PUSH20 0xFFFFFFFFFFFFFFFFFFFFFFFFFFFFFFFFFFFFFFFF AND SWAP1 JUMP JUMPDEST SWAP1 JUMP JUMPDEST PUSH1 0x0 PUSH2 0x3AE DUP3 PUSH2 0x556 JUMP JUMPDEST PUSH1 0x0 JUMPDEST DUP4 DUP2 LT ISZERO PUSH2 0x5A8 JUMPI DUP2 DUP2 ADD MLOAD DUP4 DUP3 ADD MSTORE PUSH1 0x20 ADD PUSH2 0x590 JUMP JUMPDEST DUP4 DUP2 GT ISZERO PUSH2 0x5B7 JUMPI PUSH1 0x0 DUP5 DUP5 ADD MSTORE JUMPDEST POP POP POP POP JUMP JUMPDEST PUSH1 0x1F ADD PUSH32 0xFFFFFFFFFFFFFFFFFFFFFFFFFFFFFFFFFFFFFFFFFFFFFFFFFFFFFFFFFFFFFFE0 AND SWAP1 JUMP JUMPDEST PUSH2 0x5EE DUP2 PUSH2 0x556 JUMP JUMPDEST DUP2 EQ PUSH2 0x5F9 JUMPI PUSH1 0x0 DUP1 REVERT JUMPDEST POP JUMP JUMPDEST PUSH2 0x5EE DUP2 PUSH2 0x57F JUMP INVALID LOG3 PUSH6 0x627A7A723158 KECCAK256 REVERT 0xA9 0xAB PUSH6 0x25F9BB81C085 0xAB MSIZE PUSH20 0xBBD313C94D316513695059C9E10993DDA1E4E16C PUSH6 0x78706572696D PUSH6 0x6E74616CF564 PUSH20 0x6F6C634300051100400000000000000000000000 "
        },
        "gasEstimates": {
          "creation": {
            "codeDepositCost": "321600",
            "executionCost": "362",
            "totalCost": "321962"
          },
          "external": {
            "admin()": "infinite",
            "boba()": "infinite",
            "implementation()": "infinite",
            "initialProposalId()": "1187",
            "latestProposalIds(address)": "infinite",
            "pendingAdmin()": "infinite",
            "proposalCount()": "1143",
            "proposalThreshold()": "1144",
            "proposals(uint256)": "infinite",
            "timelock()": "infinite",
            "votingDelay()": "1144",
            "votingPeriod()": "1145",
            "xboba()": "infinite"
          }
        },
        "methodIdentifiers": {
          "admin()": "f851a440",
          "boba()": "c501f816",
          "implementation()": "5c60da1b",
          "initialProposalId()": "fc4eee42",
          "latestProposalIds(address)": "17977c61",
          "pendingAdmin()": "26782247",
          "proposalCount()": "da35c664",
          "proposalThreshold()": "b58131b0",
          "proposals(uint256)": "013cf08b",
          "timelock()": "d33219b4",
          "votingDelay()": "3932abb1",
          "votingPeriod()": "02a251a3",
          "xboba()": "ad5121b8"
        }
      },
      "storageLayout": {
        "storage": [
          {
            "astId": 1595,
            "contract": "contracts/DAO/governance/GovernorBravoInterfaces.sol:GovernorBravoDelegateStorageV1",
            "label": "admin",
            "offset": 0,
            "slot": "0",
            "type": "t_address"
          },
          {
            "astId": 1597,
            "contract": "contracts/DAO/governance/GovernorBravoInterfaces.sol:GovernorBravoDelegateStorageV1",
            "label": "pendingAdmin",
            "offset": 0,
            "slot": "1",
            "type": "t_address"
          },
          {
            "astId": 1599,
            "contract": "contracts/DAO/governance/GovernorBravoInterfaces.sol:GovernorBravoDelegateStorageV1",
            "label": "implementation",
            "offset": 0,
            "slot": "2",
            "type": "t_address"
          },
          {
            "astId": 1604,
            "contract": "contracts/DAO/governance/GovernorBravoInterfaces.sol:GovernorBravoDelegateStorageV1",
            "label": "votingDelay",
            "offset": 0,
            "slot": "3",
            "type": "t_uint256"
          },
          {
            "astId": 1606,
            "contract": "contracts/DAO/governance/GovernorBravoInterfaces.sol:GovernorBravoDelegateStorageV1",
            "label": "votingPeriod",
            "offset": 0,
            "slot": "4",
            "type": "t_uint256"
          },
          {
            "astId": 1608,
            "contract": "contracts/DAO/governance/GovernorBravoInterfaces.sol:GovernorBravoDelegateStorageV1",
            "label": "proposalThreshold",
            "offset": 0,
            "slot": "5",
            "type": "t_uint256"
          },
          {
            "astId": 1610,
            "contract": "contracts/DAO/governance/GovernorBravoInterfaces.sol:GovernorBravoDelegateStorageV1",
            "label": "initialProposalId",
            "offset": 0,
            "slot": "6",
            "type": "t_uint256"
          },
          {
            "astId": 1612,
            "contract": "contracts/DAO/governance/GovernorBravoInterfaces.sol:GovernorBravoDelegateStorageV1",
            "label": "proposalCount",
            "offset": 0,
            "slot": "7",
            "type": "t_uint256"
          },
          {
            "astId": 1614,
            "contract": "contracts/DAO/governance/GovernorBravoInterfaces.sol:GovernorBravoDelegateStorageV1",
            "label": "timelock",
            "offset": 0,
            "slot": "8",
            "type": "t_contract(TimelockInterface)1748"
          },
          {
            "astId": 1616,
            "contract": "contracts/DAO/governance/GovernorBravoInterfaces.sol:GovernorBravoDelegateStorageV1",
            "label": "boba",
            "offset": 0,
            "slot": "9",
            "type": "t_contract(BobaInterface)1758"
          },
          {
            "astId": 1618,
            "contract": "contracts/DAO/governance/GovernorBravoInterfaces.sol:GovernorBravoDelegateStorageV1",
            "label": "xboba",
            "offset": 0,
            "slot": "10",
            "type": "t_contract(BobaInterface)1758"
          },
          {
            "astId": 1622,
            "contract": "contracts/DAO/governance/GovernorBravoInterfaces.sol:GovernorBravoDelegateStorageV1",
            "label": "proposals",
            "offset": 0,
            "slot": "11",
            "type": "t_mapping(t_uint256,t_struct(Proposal)1667_storage)"
          },
          {
            "astId": 1626,
            "contract": "contracts/DAO/governance/GovernorBravoInterfaces.sol:GovernorBravoDelegateStorageV1",
            "label": "latestProposalIds",
            "offset": 0,
            "slot": "12",
            "type": "t_mapping(t_address,t_uint256)"
          }
        ],
        "types": {
          "t_address": {
            "encoding": "inplace",
            "label": "address",
            "numberOfBytes": "20"
          },
          "t_array(t_address)dyn_storage": {
            "base": "t_address",
            "encoding": "dynamic_array",
            "label": "address[]",
            "numberOfBytes": "32"
          },
          "t_array(t_bytes_storage)dyn_storage": {
            "base": "t_bytes_storage",
            "encoding": "dynamic_array",
            "label": "bytes[]",
            "numberOfBytes": "32"
          },
          "t_array(t_string_storage)dyn_storage": {
            "base": "t_string_storage",
            "encoding": "dynamic_array",
            "label": "string[]",
            "numberOfBytes": "32"
          },
          "t_array(t_uint256)dyn_storage": {
            "base": "t_uint256",
            "encoding": "dynamic_array",
            "label": "uint256[]",
            "numberOfBytes": "32"
          },
          "t_bool": {
            "encoding": "inplace",
            "label": "bool",
            "numberOfBytes": "1"
          },
          "t_bytes_storage": {
            "encoding": "bytes",
            "label": "bytes",
            "numberOfBytes": "32"
          },
          "t_contract(BobaInterface)1758": {
            "encoding": "inplace",
            "label": "contract BobaInterface",
            "numberOfBytes": "20"
          },
          "t_contract(TimelockInterface)1748": {
            "encoding": "inplace",
            "label": "contract TimelockInterface",
            "numberOfBytes": "20"
          },
          "t_mapping(t_address,t_struct(Receipt)1674_storage)": {
            "encoding": "mapping",
            "key": "t_address",
            "label": "mapping(address => struct GovernorBravoDelegateStorageV1.Receipt)",
            "numberOfBytes": "32",
            "value": "t_struct(Receipt)1674_storage"
          },
          "t_mapping(t_address,t_uint256)": {
            "encoding": "mapping",
            "key": "t_address",
            "label": "mapping(address => uint256)",
            "numberOfBytes": "32",
            "value": "t_uint256"
          },
          "t_mapping(t_uint256,t_struct(Proposal)1667_storage)": {
            "encoding": "mapping",
            "key": "t_uint256",
            "label": "mapping(uint256 => struct GovernorBravoDelegateStorageV1.Proposal)",
            "numberOfBytes": "32",
            "value": "t_struct(Proposal)1667_storage"
          },
          "t_string_storage": {
            "encoding": "bytes",
            "label": "string",
            "numberOfBytes": "32"
          },
          "t_struct(Proposal)1667_storage": {
            "encoding": "inplace",
            "label": "struct GovernorBravoDelegateStorageV1.Proposal",
            "members": [
              {
                "astId": 1628,
                "contract": "contracts/DAO/governance/GovernorBravoInterfaces.sol:GovernorBravoDelegateStorageV1",
                "label": "id",
                "offset": 0,
                "slot": "0",
                "type": "t_uint256"
              },
              {
                "astId": 1630,
                "contract": "contracts/DAO/governance/GovernorBravoInterfaces.sol:GovernorBravoDelegateStorageV1",
                "label": "proposer",
                "offset": 0,
                "slot": "1",
                "type": "t_address"
              },
              {
                "astId": 1632,
                "contract": "contracts/DAO/governance/GovernorBravoInterfaces.sol:GovernorBravoDelegateStorageV1",
                "label": "eta",
                "offset": 0,
                "slot": "2",
                "type": "t_uint256"
              },
              {
                "astId": 1635,
                "contract": "contracts/DAO/governance/GovernorBravoInterfaces.sol:GovernorBravoDelegateStorageV1",
                "label": "targets",
                "offset": 0,
                "slot": "3",
                "type": "t_array(t_address)dyn_storage"
              },
              {
                "astId": 1638,
                "contract": "contracts/DAO/governance/GovernorBravoInterfaces.sol:GovernorBravoDelegateStorageV1",
                "label": "values",
                "offset": 0,
                "slot": "4",
                "type": "t_array(t_uint256)dyn_storage"
              },
              {
                "astId": 1641,
                "contract": "contracts/DAO/governance/GovernorBravoInterfaces.sol:GovernorBravoDelegateStorageV1",
                "label": "signatures",
                "offset": 0,
                "slot": "5",
                "type": "t_array(t_string_storage)dyn_storage"
              },
              {
                "astId": 1644,
                "contract": "contracts/DAO/governance/GovernorBravoInterfaces.sol:GovernorBravoDelegateStorageV1",
                "label": "calldatas",
                "offset": 0,
                "slot": "6",
                "type": "t_array(t_bytes_storage)dyn_storage"
              },
              {
                "astId": 1646,
                "contract": "contracts/DAO/governance/GovernorBravoInterfaces.sol:GovernorBravoDelegateStorageV1",
                "label": "description",
                "offset": 0,
                "slot": "7",
                "type": "t_string_storage"
              },
              {
                "astId": 1648,
                "contract": "contracts/DAO/governance/GovernorBravoInterfaces.sol:GovernorBravoDelegateStorageV1",
                "label": "startBlock",
                "offset": 0,
                "slot": "8",
                "type": "t_uint256"
              },
              {
                "astId": 1650,
                "contract": "contracts/DAO/governance/GovernorBravoInterfaces.sol:GovernorBravoDelegateStorageV1",
                "label": "startTimestamp",
                "offset": 0,
                "slot": "9",
                "type": "t_uint256"
              },
              {
                "astId": 1652,
                "contract": "contracts/DAO/governance/GovernorBravoInterfaces.sol:GovernorBravoDelegateStorageV1",
                "label": "endTimestamp",
                "offset": 0,
                "slot": "10",
                "type": "t_uint256"
              },
              {
                "astId": 1654,
                "contract": "contracts/DAO/governance/GovernorBravoInterfaces.sol:GovernorBravoDelegateStorageV1",
                "label": "forVotes",
                "offset": 0,
                "slot": "11",
                "type": "t_uint256"
              },
              {
                "astId": 1656,
                "contract": "contracts/DAO/governance/GovernorBravoInterfaces.sol:GovernorBravoDelegateStorageV1",
                "label": "againstVotes",
                "offset": 0,
                "slot": "12",
                "type": "t_uint256"
              },
              {
                "astId": 1658,
                "contract": "contracts/DAO/governance/GovernorBravoInterfaces.sol:GovernorBravoDelegateStorageV1",
                "label": "abstainVotes",
                "offset": 0,
                "slot": "13",
                "type": "t_uint256"
              },
              {
                "astId": 1660,
                "contract": "contracts/DAO/governance/GovernorBravoInterfaces.sol:GovernorBravoDelegateStorageV1",
                "label": "canceled",
                "offset": 0,
                "slot": "14",
                "type": "t_bool"
              },
              {
                "astId": 1662,
                "contract": "contracts/DAO/governance/GovernorBravoInterfaces.sol:GovernorBravoDelegateStorageV1",
                "label": "executed",
                "offset": 1,
                "slot": "14",
                "type": "t_bool"
              },
              {
                "astId": 1666,
                "contract": "contracts/DAO/governance/GovernorBravoInterfaces.sol:GovernorBravoDelegateStorageV1",
                "label": "receipts",
                "offset": 0,
                "slot": "15",
                "type": "t_mapping(t_address,t_struct(Receipt)1674_storage)"
              }
            ],
            "numberOfBytes": "512"
          },
          "t_struct(Receipt)1674_storage": {
            "encoding": "inplace",
            "label": "struct GovernorBravoDelegateStorageV1.Receipt",
            "members": [
              {
                "astId": 1669,
                "contract": "contracts/DAO/governance/GovernorBravoInterfaces.sol:GovernorBravoDelegateStorageV1",
                "label": "hasVoted",
                "offset": 0,
                "slot": "0",
                "type": "t_bool"
              },
              {
                "astId": 1671,
                "contract": "contracts/DAO/governance/GovernorBravoInterfaces.sol:GovernorBravoDelegateStorageV1",
                "label": "support",
                "offset": 1,
                "slot": "0",
                "type": "t_uint8"
              },
              {
                "astId": 1673,
                "contract": "contracts/DAO/governance/GovernorBravoInterfaces.sol:GovernorBravoDelegateStorageV1",
                "label": "votes",
                "offset": 2,
                "slot": "0",
                "type": "t_uint96"
              }
            ],
            "numberOfBytes": "32"
          },
          "t_uint256": {
            "encoding": "inplace",
            "label": "uint256",
            "numberOfBytes": "32"
          },
          "t_uint8": {
            "encoding": "inplace",
            "label": "uint8",
            "numberOfBytes": "1"
          },
          "t_uint96": {
            "encoding": "inplace",
            "label": "uint96",
            "numberOfBytes": "12"
          }
        }
      },
      "userdoc": {
        "methods": {},
        "notice": "For future upgrades, do not change GovernorBravoDelegateStorageV1. Create a new contract which implements GovernorBravoDelegateStorageV1 and following the naming convention GovernorBravoDelegateStorageVX."
      }
    }
  }
}