{
  "contracts/DAO/governance/GovernorBravoDelegate.sol": {
    "GovernorBravoDelegate": {
      "abi": [
        {
          "anonymous": false,
          "inputs": [
            {
              "indexed": false,
              "internalType": "address",
              "name": "oldAdmin",
              "type": "address"
            },
            {
              "indexed": false,
              "internalType": "address",
              "name": "newAdmin",
              "type": "address"
            }
          ],
          "name": "NewAdmin",
          "type": "event"
        },
        {
          "anonymous": false,
          "inputs": [
            {
              "indexed": false,
              "internalType": "address",
              "name": "oldImplementation",
              "type": "address"
            },
            {
              "indexed": false,
              "internalType": "address",
              "name": "newImplementation",
              "type": "address"
            }
          ],
          "name": "NewImplementation",
          "type": "event"
        },
        {
          "anonymous": false,
          "inputs": [
            {
              "indexed": false,
              "internalType": "address",
              "name": "oldPendingAdmin",
              "type": "address"
            },
            {
              "indexed": false,
              "internalType": "address",
              "name": "newPendingAdmin",
              "type": "address"
            }
          ],
          "name": "NewPendingAdmin",
          "type": "event"
        },
        {
          "anonymous": false,
          "inputs": [
            {
              "indexed": false,
              "internalType": "uint256",
              "name": "id",
              "type": "uint256"
            }
          ],
          "name": "ProposalCanceled",
          "type": "event"
        },
        {
          "anonymous": false,
          "inputs": [
            {
              "indexed": false,
              "internalType": "uint256",
              "name": "id",
              "type": "uint256"
            },
            {
              "indexed": false,
              "internalType": "address",
              "name": "proposer",
              "type": "address"
            },
            {
              "indexed": false,
              "internalType": "address[]",
              "name": "targets",
              "type": "address[]"
            },
            {
              "indexed": false,
              "internalType": "uint256[]",
              "name": "values",
              "type": "uint256[]"
            },
            {
              "indexed": false,
              "internalType": "string[]",
              "name": "signatures",
              "type": "string[]"
            },
            {
              "indexed": false,
              "internalType": "bytes[]",
              "name": "calldatas",
              "type": "bytes[]"
            },
            {
              "indexed": false,
              "internalType": "uint256",
              "name": "startTimestamp",
              "type": "uint256"
            },
            {
              "indexed": false,
              "internalType": "uint256",
              "name": "endTimestamp",
              "type": "uint256"
            },
            {
              "indexed": false,
              "internalType": "string",
              "name": "description",
              "type": "string"
            }
          ],
          "name": "ProposalCreated",
          "type": "event"
        },
        {
          "anonymous": false,
          "inputs": [
            {
              "indexed": false,
              "internalType": "uint256",
              "name": "id",
              "type": "uint256"
            }
          ],
          "name": "ProposalExecuted",
          "type": "event"
        },
        {
          "anonymous": false,
          "inputs": [
            {
              "indexed": false,
              "internalType": "uint256",
              "name": "id",
              "type": "uint256"
            },
            {
              "indexed": false,
              "internalType": "uint256",
              "name": "eta",
              "type": "uint256"
            }
          ],
          "name": "ProposalQueued",
          "type": "event"
        },
        {
          "anonymous": false,
          "inputs": [
            {
              "indexed": false,
              "internalType": "uint256",
              "name": "oldProposalThreshold",
              "type": "uint256"
            },
            {
              "indexed": false,
              "internalType": "uint256",
              "name": "newProposalThreshold",
              "type": "uint256"
            }
          ],
          "name": "ProposalThresholdSet",
          "type": "event"
        },
        {
          "anonymous": false,
          "inputs": [
            {
              "indexed": true,
              "internalType": "address",
              "name": "voter",
              "type": "address"
            },
            {
              "indexed": false,
              "internalType": "uint256",
              "name": "proposalId",
              "type": "uint256"
            },
            {
              "indexed": false,
              "internalType": "uint8",
              "name": "support",
              "type": "uint8"
            },
            {
              "indexed": false,
              "internalType": "uint256",
              "name": "votes",
              "type": "uint256"
            },
            {
              "indexed": false,
              "internalType": "string",
              "name": "reason",
              "type": "string"
            }
          ],
          "name": "VoteCast",
          "type": "event"
        },
        {
          "anonymous": false,
          "inputs": [
            {
              "indexed": false,
              "internalType": "uint256",
              "name": "oldVotingDelay",
              "type": "uint256"
            },
            {
              "indexed": false,
              "internalType": "uint256",
              "name": "newVotingDelay",
              "type": "uint256"
            }
          ],
          "name": "VotingDelaySet",
          "type": "event"
        },
        {
          "anonymous": false,
          "inputs": [
            {
              "indexed": false,
              "internalType": "uint256",
              "name": "oldVotingPeriod",
              "type": "uint256"
            },
            {
              "indexed": false,
              "internalType": "uint256",
              "name": "newVotingPeriod",
              "type": "uint256"
            }
          ],
          "name": "VotingPeriodSet",
          "type": "event"
        },
        {
          "constant": true,
          "inputs": [],
          "name": "BALLOT_TYPEHASH",
          "outputs": [
            {
              "internalType": "bytes32",
              "name": "",
              "type": "bytes32"
            }
          ],
          "payable": false,
          "stateMutability": "view",
          "type": "function"
        },
        {
          "constant": true,
          "inputs": [],
          "name": "DOMAIN_TYPEHASH",
          "outputs": [
            {
              "internalType": "bytes32",
              "name": "",
              "type": "bytes32"
            }
          ],
          "payable": false,
          "stateMutability": "view",
          "type": "function"
        },
        {
          "constant": true,
          "inputs": [],
          "name": "MAX_PROPOSAL_THRESHOLD",
          "outputs": [
            {
              "internalType": "uint256",
              "name": "",
              "type": "uint256"
            }
          ],
          "payable": false,
          "stateMutability": "view",
          "type": "function"
        },
        {
          "constant": true,
          "inputs": [],
          "name": "MAX_VOTING_DELAY",
          "outputs": [
            {
              "internalType": "uint256",
              "name": "",
              "type": "uint256"
            }
          ],
          "payable": false,
          "stateMutability": "view",
          "type": "function"
        },
        {
          "constant": true,
          "inputs": [],
          "name": "MAX_VOTING_PERIOD",
          "outputs": [
            {
              "internalType": "uint256",
              "name": "",
              "type": "uint256"
            }
          ],
          "payable": false,
          "stateMutability": "view",
          "type": "function"
        },
        {
          "constant": true,
          "inputs": [],
          "name": "MIN_PROPOSAL_THRESHOLD",
          "outputs": [
            {
              "internalType": "uint256",
              "name": "",
              "type": "uint256"
            }
          ],
          "payable": false,
          "stateMutability": "view",
          "type": "function"
        },
        {
          "constant": true,
          "inputs": [],
          "name": "MIN_VOTING_DELAY",
          "outputs": [
            {
              "internalType": "uint256",
              "name": "",
              "type": "uint256"
            }
          ],
          "payable": false,
          "stateMutability": "view",
          "type": "function"
        },
        {
          "constant": true,
          "inputs": [],
          "name": "MIN_VOTING_PERIOD",
          "outputs": [
            {
              "internalType": "uint256",
              "name": "",
              "type": "uint256"
            }
          ],
          "payable": false,
          "stateMutability": "view",
          "type": "function"
        },
        {
          "constant": false,
          "inputs": [],
          "name": "_acceptAdmin",
          "outputs": [],
          "payable": false,
          "stateMutability": "nonpayable",
          "type": "function"
        },
        {
          "constant": false,
          "inputs": [],
          "name": "_initiate",
          "outputs": [],
          "payable": false,
          "stateMutability": "nonpayable",
          "type": "function"
        },
        {
          "constant": false,
          "inputs": [
            {
              "internalType": "address",
              "name": "newPendingAdmin",
              "type": "address"
            }
          ],
          "name": "_setPendingAdmin",
          "outputs": [],
          "payable": false,
          "stateMutability": "nonpayable",
          "type": "function"
        },
        {
          "constant": false,
          "inputs": [
            {
              "internalType": "uint256",
              "name": "newProposalThreshold",
              "type": "uint256"
            }
          ],
          "name": "_setProposalThreshold",
          "outputs": [],
          "payable": false,
          "stateMutability": "nonpayable",
          "type": "function"
        },
        {
          "constant": false,
          "inputs": [
            {
              "internalType": "uint256",
              "name": "newVotingDelay",
              "type": "uint256"
            }
          ],
          "name": "_setVotingDelay",
          "outputs": [],
          "payable": false,
          "stateMutability": "nonpayable",
          "type": "function"
        },
        {
          "constant": false,
          "inputs": [
            {
              "internalType": "uint256",
              "name": "newVotingPeriod",
              "type": "uint256"
            }
          ],
          "name": "_setVotingPeriod",
          "outputs": [],
          "payable": false,
          "stateMutability": "nonpayable",
          "type": "function"
        },
        {
          "constant": true,
          "inputs": [],
          "name": "admin",
          "outputs": [
            {
              "internalType": "address",
              "name": "",
              "type": "address"
            }
          ],
          "payable": false,
          "stateMutability": "view",
          "type": "function"
        },
        {
          "constant": true,
          "inputs": [],
          "name": "boba",
          "outputs": [
            {
              "internalType": "contract BobaInterface",
              "name": "",
              "type": "address"
            }
          ],
          "payable": false,
          "stateMutability": "view",
          "type": "function"
        },
        {
          "constant": false,
          "inputs": [
            {
              "internalType": "uint256",
              "name": "proposalId",
              "type": "uint256"
            }
          ],
          "name": "cancel",
          "outputs": [],
          "payable": false,
          "stateMutability": "nonpayable",
          "type": "function"
        },
        {
          "constant": false,
          "inputs": [
            {
              "internalType": "uint256",
              "name": "proposalId",
              "type": "uint256"
            },
            {
              "internalType": "uint8",
              "name": "support",
              "type": "uint8"
            }
          ],
          "name": "castVote",
          "outputs": [],
          "payable": false,
          "stateMutability": "nonpayable",
          "type": "function"
        },
        {
          "constant": false,
          "inputs": [
            {
              "internalType": "uint256",
              "name": "proposalId",
              "type": "uint256"
            },
            {
              "internalType": "uint8",
              "name": "support",
              "type": "uint8"
            },
            {
              "internalType": "uint8",
              "name": "v",
              "type": "uint8"
            },
            {
              "internalType": "bytes32",
              "name": "r",
              "type": "bytes32"
            },
            {
              "internalType": "bytes32",
              "name": "s",
              "type": "bytes32"
            }
          ],
          "name": "castVoteBySig",
          "outputs": [],
          "payable": false,
          "stateMutability": "nonpayable",
          "type": "function"
        },
        {
          "constant": false,
          "inputs": [
            {
              "internalType": "uint256",
              "name": "proposalId",
              "type": "uint256"
            },
            {
              "internalType": "uint8",
              "name": "support",
              "type": "uint8"
            },
            {
              "internalType": "string",
              "name": "reason",
              "type": "string"
            }
          ],
          "name": "castVoteWithReason",
          "outputs": [],
          "payable": false,
          "stateMutability": "nonpayable",
          "type": "function"
        },
        {
          "constant": false,
          "inputs": [
            {
              "internalType": "uint256",
              "name": "proposalId",
              "type": "uint256"
            }
          ],
          "name": "execute",
          "outputs": [],
          "payable": true,
          "stateMutability": "payable",
          "type": "function"
        },
        {
          "constant": true,
          "inputs": [
            {
              "internalType": "uint256",
              "name": "proposalId",
              "type": "uint256"
            }
          ],
          "name": "getActions",
          "outputs": [
            {
              "internalType": "address[]",
              "name": "targets",
              "type": "address[]"
            },
            {
              "internalType": "uint256[]",
              "name": "values",
              "type": "uint256[]"
            },
            {
              "internalType": "string[]",
              "name": "signatures",
              "type": "string[]"
            },
            {
              "internalType": "bytes[]",
              "name": "calldatas",
              "type": "bytes[]"
            }
          ],
          "payable": false,
          "stateMutability": "view",
          "type": "function"
        },
        {
          "constant": true,
          "inputs": [
            {
              "internalType": "uint256",
              "name": "proposalId",
              "type": "uint256"
            },
            {
              "internalType": "address",
              "name": "voter",
              "type": "address"
            }
          ],
          "name": "getReceipt",
          "outputs": [
            {
              "components": [
                {
                  "internalType": "bool",
                  "name": "hasVoted",
                  "type": "bool"
                },
                {
                  "internalType": "uint8",
                  "name": "support",
                  "type": "uint8"
                },
                {
                  "internalType": "uint96",
                  "name": "votes",
                  "type": "uint96"
                }
              ],
              "internalType": "struct GovernorBravoDelegateStorageV1.Receipt",
              "name": "",
              "type": "tuple"
            }
          ],
          "payable": false,
          "stateMutability": "view",
          "type": "function"
        },
        {
          "constant": true,
          "inputs": [],
          "name": "implementation",
          "outputs": [
            {
              "internalType": "address",
              "name": "",
              "type": "address"
            }
          ],
          "payable": false,
          "stateMutability": "view",
          "type": "function"
        },
        {
          "constant": true,
          "inputs": [],
          "name": "initialProposalId",
          "outputs": [
            {
              "internalType": "uint256",
              "name": "",
              "type": "uint256"
            }
          ],
          "payable": false,
          "stateMutability": "view",
          "type": "function"
        },
        {
          "constant": false,
          "inputs": [
            {
              "internalType": "address",
              "name": "timelock_",
              "type": "address"
            },
            {
              "internalType": "address",
              "name": "bobaToken_",
              "type": "address"
            },
            {
              "internalType": "address",
              "name": "xbobaToken_",
              "type": "address"
            },
            {
              "internalType": "uint256",
              "name": "votingPeriod_",
              "type": "uint256"
            },
            {
              "internalType": "uint256",
              "name": "votingDelay_",
              "type": "uint256"
            },
            {
              "internalType": "uint256",
              "name": "proposalThreshold_",
              "type": "uint256"
            }
          ],
          "name": "initialize",
          "outputs": [],
          "payable": false,
          "stateMutability": "nonpayable",
          "type": "function"
        },
        {
          "constant": true,
          "inputs": [
            {
              "internalType": "address",
              "name": "",
              "type": "address"
            }
          ],
          "name": "latestProposalIds",
          "outputs": [
            {
              "internalType": "uint256",
              "name": "",
              "type": "uint256"
            }
          ],
          "payable": false,
          "stateMutability": "view",
          "type": "function"
        },
        {
          "constant": true,
          "inputs": [],
          "name": "name",
          "outputs": [
            {
              "internalType": "string",
              "name": "",
              "type": "string"
            }
          ],
          "payable": false,
          "stateMutability": "view",
          "type": "function"
        },
        {
          "constant": true,
          "inputs": [],
          "name": "pendingAdmin",
          "outputs": [
            {
              "internalType": "address",
              "name": "",
              "type": "address"
            }
          ],
          "payable": false,
          "stateMutability": "view",
          "type": "function"
        },
        {
          "constant": true,
          "inputs": [],
          "name": "proposalCount",
          "outputs": [
            {
              "internalType": "uint256",
              "name": "",
              "type": "uint256"
            }
          ],
          "payable": false,
          "stateMutability": "view",
          "type": "function"
        },
        {
          "constant": true,
          "inputs": [],
          "name": "proposalMaxOperations",
          "outputs": [
            {
              "internalType": "uint256",
              "name": "",
              "type": "uint256"
            }
          ],
          "payable": false,
          "stateMutability": "view",
          "type": "function"
        },
        {
          "constant": true,
          "inputs": [],
          "name": "proposalThreshold",
          "outputs": [
            {
              "internalType": "uint256",
              "name": "",
              "type": "uint256"
            }
          ],
          "payable": false,
          "stateMutability": "view",
          "type": "function"
        },
        {
          "constant": true,
          "inputs": [
            {
              "internalType": "uint256",
              "name": "",
              "type": "uint256"
            }
          ],
          "name": "proposals",
          "outputs": [
            {
              "internalType": "uint256",
              "name": "id",
              "type": "uint256"
            },
            {
              "internalType": "address",
              "name": "proposer",
              "type": "address"
            },
            {
              "internalType": "uint256",
              "name": "eta",
              "type": "uint256"
            },
            {
              "internalType": "string",
              "name": "description",
              "type": "string"
            },
            {
              "internalType": "uint256",
              "name": "startBlock",
              "type": "uint256"
            },
            {
              "internalType": "uint256",
              "name": "startTimestamp",
              "type": "uint256"
            },
            {
              "internalType": "uint256",
              "name": "endTimestamp",
              "type": "uint256"
            },
            {
              "internalType": "uint256",
              "name": "forVotes",
              "type": "uint256"
            },
            {
              "internalType": "uint256",
              "name": "againstVotes",
              "type": "uint256"
            },
            {
              "internalType": "uint256",
              "name": "abstainVotes",
              "type": "uint256"
            },
            {
              "internalType": "bool",
              "name": "canceled",
              "type": "bool"
            },
            {
              "internalType": "bool",
              "name": "executed",
              "type": "bool"
            }
          ],
          "payable": false,
          "stateMutability": "view",
          "type": "function"
        },
        {
          "constant": false,
          "inputs": [
            {
              "internalType": "address[]",
              "name": "targets",
              "type": "address[]"
            },
            {
              "internalType": "uint256[]",
              "name": "values",
              "type": "uint256[]"
            },
            {
              "internalType": "string[]",
              "name": "signatures",
              "type": "string[]"
            },
            {
              "internalType": "bytes[]",
              "name": "calldatas",
              "type": "bytes[]"
            },
            {
              "internalType": "string",
              "name": "description",
              "type": "string"
            }
          ],
          "name": "propose",
          "outputs": [
            {
              "internalType": "uint256",
              "name": "",
              "type": "uint256"
            }
          ],
          "payable": false,
          "stateMutability": "nonpayable",
          "type": "function"
        },
        {
          "constant": false,
          "inputs": [
            {
              "internalType": "uint256",
              "name": "proposalId",
              "type": "uint256"
            }
          ],
          "name": "queue",
          "outputs": [],
          "payable": false,
          "stateMutability": "nonpayable",
          "type": "function"
        },
        {
          "constant": true,
          "inputs": [],
          "name": "quorumVotes",
          "outputs": [
            {
              "internalType": "uint256",
              "name": "",
              "type": "uint256"
            }
          ],
          "payable": false,
          "stateMutability": "view",
          "type": "function"
        },
        {
          "constant": true,
          "inputs": [
            {
              "internalType": "uint256",
              "name": "proposalId",
              "type": "uint256"
            }
          ],
          "name": "state",
          "outputs": [
            {
              "internalType": "enum GovernorBravoDelegateStorageV1.ProposalState",
              "name": "",
              "type": "uint8"
            }
          ],
          "payable": false,
          "stateMutability": "view",
          "type": "function"
        },
        {
          "constant": true,
          "inputs": [],
          "name": "timelock",
          "outputs": [
            {
              "internalType": "contract TimelockInterface",
              "name": "",
              "type": "address"
            }
          ],
          "payable": false,
          "stateMutability": "view",
          "type": "function"
        },
        {
          "constant": true,
          "inputs": [],
          "name": "votingDelay",
          "outputs": [
            {
              "internalType": "uint256",
              "name": "",
              "type": "uint256"
            }
          ],
          "payable": false,
          "stateMutability": "view",
          "type": "function"
        },
        {
          "constant": true,
          "inputs": [],
          "name": "votingPeriod",
          "outputs": [
            {
              "internalType": "uint256",
              "name": "",
              "type": "uint256"
            }
          ],
          "payable": false,
          "stateMutability": "view",
          "type": "function"
        },
        {
          "constant": true,
          "inputs": [],
          "name": "xboba",
          "outputs": [
            {
              "internalType": "contract BobaInterface",
              "name": "",
              "type": "address"
            }
          ],
          "payable": false,
          "stateMutability": "view",
          "type": "function"
        }
      ],
      "devdoc": {
        "methods": {
          "_acceptAdmin()": {
            "details": "Admin function for pending admin to accept role and update admin"
          },
          "_initiate()": {
            "details": "Admin only. Sets initial proposal id which initiates the contract, ensuring a continuous proposal id count"
          },
          "_setPendingAdmin(address)": {
            "details": "Admin function to begin change of admin. The newPendingAdmin must call `_acceptAdmin` to finalize the transfer.",
            "params": {
              "newPendingAdmin": "New pending admin."
            }
          },
          "_setProposalThreshold(uint256)": {
            "details": "newProposalThreshold must be greater than the hardcoded min",
            "params": {
              "newProposalThreshold": "new proposal threshold"
            }
          },
          "_setVotingDelay(uint256)": {
            "params": {
              "newVotingDelay": "new voting delay, in seconds"
            }
          },
          "_setVotingPeriod(uint256)": {
            "params": {
              "newVotingPeriod": "new voting period, in seconds"
            }
          },
          "cancel(uint256)": {
            "params": {
              "proposalId": "The id of the proposal to cancel"
            }
          },
          "castVote(uint256,uint8)": {
            "params": {
              "proposalId": "The id of the proposal to vote on",
              "support": "The support value for the vote. 0=against, 1=for, 2=abstain"
            }
          },
          "castVoteBySig(uint256,uint8,uint8,bytes32,bytes32)": {
            "details": "External function that accepts EIP-712 signatures for voting on proposals."
          },
          "castVoteWithReason(uint256,uint8,string)": {
            "params": {
              "proposalId": "The id of the proposal to vote on",
              "reason": "The reason given for the vote by the voter",
              "support": "The support value for the vote. 0=against, 1=for, 2=abstain"
            }
          },
          "execute(uint256)": {
            "params": {
              "proposalId": "The id of the proposal to execute"
            }
          },
          "getActions(uint256)": {
            "params": {
              "proposalId": "the id of the proposal"
            },
            "return": "Targets, values, signatures, and calldatas of the proposal actions"
          },
          "getReceipt(uint256,address)": {
            "params": {
              "proposalId": "the id of proposal",
              "voter": "The address of the voter"
            },
            "return": "The voting receipt"
          },
          "initialize(address,address,address,uint256,uint256,uint256)": {
            "params": {
              "bobaToken_": "The address of the L2 BOBA token",
              "proposalThreshold_": "The initial proposal threshold",
              "timelock_": "The address of the Timelock",
              "votingDelay_": "The initial voting delay in seconds",
              "votingPeriod_": "The initial voting period in seconds",
              "xbobaToken_": "The address of the L2 xBOBA token"
            }
          },
          "propose(address[],uint256[],string[],bytes[],string)": {
            "params": {
              "calldatas": "Calldatas for proposal calls",
              "description": "String description of the proposal",
              "signatures": "Function signatures for proposal calls",
              "targets": "Target addresses for proposal calls",
              "values": "Eth values for proposal calls"
            },
            "return": "Proposal id of new proposal"
          },
          "queue(uint256)": {
            "params": {
              "proposalId": "The id of the proposal to queue"
            }
          },
          "state(uint256)": {
            "params": {
              "proposalId": "The id of the proposal"
            },
            "return": "Proposal state"
          }
        }
      },
      "evm": {
        "bytecode": {
          "linkReferences": {},
          "object": "608060405234801561001057600080fd5b50614dfb806100206000396000f3fe6080604052600436106102c65760003560e01c8063791f5d2311610179578063d33219b4116100d6578063e23a9a521161008a578063f851a44011610064578063f851a4401461071a578063fc4eee421461072f578063fe0d94c114610744576102c6565b8063e23a9a52146106c3578063e48083fe146106f0578063e9c714f214610705576102c6565b8063da95691a116100bb578063da95691a1461066e578063ddf0b0091461068e578063deaaa7cc146106ae576102c6565b8063d33219b414610644578063da35c66414610659576102c6565b8063ad5121b81161012d578063b58131b011610112578063b58131b0146105fa578063b71d1a0c1461060f578063c501f8161461062f576102c6565b8063ad5121b8146105c3578063b1126263146105e5576102c6565b80637bdbe4d01161015e5780637bdbe4d014610584578063878f148214610599578063a64e024a146105ae576102c6565b8063791f5d231461054f5780637b3c71d314610564576102c6565b806325fd935a116102275780633e4f49e6116101db57806356781388116101c057806356781388146104fa5780635c60da1b1461051a578063728cdbca1461052f576102c6565b80633e4f49e6146104ad57806340e58ee5146104da576102c6565b8063328dd9821161020c578063328dd982146104485780633932abb1146104785780633bccf4fd1461048d576102c6565b806325fd935a146104115780632678224714610426576102c6565b806317ba1b8b1161027e57806320606b701161026357806320606b70146103d2578063215809ca146103e757806324bc1a64146103fc576102c6565b806317ba1b8b146103925780631dfb1b5a146103b2576102c6565b806306fdde03116102af57806306fdde031461032e5780630ea2d98c1461035057806317977c6114610372576102c6565b8063013cf08b146102cb57806302a251a31461030c575b600080fd5b3480156102d757600080fd5b506102eb6102e63660046130ea565b610757565b6040516103039c9b9a99989796959493929190614abd565b60405180910390f35b34801561031857600080fd5b5061032161086b565b60405161030391906146da565b34801561033a57600080fd5b50610343610871565b6040516103039190614796565b34801561035c57600080fd5b5061037061036b3660046130ea565b6108aa565b005b34801561037e57600080fd5b5061032161038d366004612ee0565b610955565b34801561039e57600080fd5b506103706103ad3660046130ea565b610967565b3480156103be57600080fd5b506103706103cd3660046130ea565b610a0b565b3480156103de57600080fd5b50610321610aa1565b3480156103f357600080fd5b50610321610ab8565b34801561040857600080fd5b50610321610abf565b34801561041d57600080fd5b50610321610acd565b34801561043257600080fd5b5061043b610adb565b60405161030391906145a0565b34801561045457600080fd5b506104686104633660046130ea565b610aea565b604051610303949392919061468d565b34801561048457600080fd5b50610321610db5565b34801561049957600080fd5b506103706104a83660046131da565b610dbb565b3480156104b957600080fd5b506104cd6104c83660046130ea565b610fba565b6040516103039190614788565b3480156104e657600080fd5b506103706104f53660046130ea565b61115a565b34801561050657600080fd5b50610370610515366004613142565b611486565b34801561052657600080fd5b5061043b6114d0565b34801561053b57600080fd5b5061037061054a366004612f06565b6114df565b34801561055b57600080fd5b506103216116af565b34801561057057600080fd5b5061037061057f366004613172565b6116bd565b34801561059057600080fd5b5061032161170d565b3480156105a557600080fd5b50610370611712565b3480156105ba57600080fd5b506103216117db565b3480156105cf57600080fd5b506105d86117e2565b604051610303919061477a565b3480156105f157600080fd5b506103216117f1565b34801561060657600080fd5b506103216117f8565b34801561061b57600080fd5b5061037061062a366004612ee0565b6117fe565b34801561063b57600080fd5b506105d8611893565b34801561065057600080fd5b506105d86118a2565b34801561066557600080fd5b506103216118b1565b34801561067a57600080fd5b50610321610689366004612f8d565b6118b7565b34801561069a57600080fd5b506103706106a93660046130ea565b611d77565b3480156106ba57600080fd5b50610321612048565b3480156106cf57600080fd5b506106e36106de366004613108565b612054565b6040516103039190614a07565b3480156106fc57600080fd5b506103216120c6565b34801561071157600080fd5b506103706120cd565b34801561072657600080fd5b5061043b6121c3565b34801561073b57600080fd5b506103216121d2565b6103706107523660046130ea565b6121d8565b600b602090815260009182526040918290208054600180830154600280850154600786018054895161010096821615969096027fffffffffffffffffffffffffffffffffffffffffffffffffffffffffffffffff011692909204601f810188900488028501880190985287845293966001600160a01b03909216959394939091908301828280156108295780601f106107fe57610100808354040283529160200191610829565b820191906000526020600020905b81548152906001019060200180831161080c57829003601f168201915b5050505060088301546009840154600a850154600b860154600c870154600d880154600e90980154969794969395509193909260ff808216916101009004168c565b60045481565b6040518060400160405280600d81526020017f426f626120476f7665726e6f720000000000000000000000000000000000000081525081565b6000546001600160a01b031633146108dd5760405162461bcd60e51b81526004016108d4906147e7565b60405180910390fd5b6203f48081101580156108f35750621275008111155b61090f5760405162461bcd60e51b81526004016108d490614837565b60048054908290556040517f7e3f7f0708a84de9203036abaa450dccc85ad5ff52f78c170f3edb55cf5e8828906109499083908590614b77565b60405180910390a15050565b600c6020526000908152604090205481565b6000546001600160a01b031633146109915760405162461bcd60e51b81526004016108d4906149c7565b690a968163f0a57b40000081101580156109b557506969e10de76676d08000008111155b6109d15760405162461bcd60e51b81526004016108d4906148d7565b60058054908290556040517fccb45da8d5717e6c4544694297c4ba5cf151d455c9bb0ed4fc7a38411bc05461906109499083908590614b77565b6000546001600160a01b03163314610a355760405162461bcd60e51b81526004016108d490614807565b6202a3008110158015610a4b575062093a808111155b610a675760405162461bcd60e51b81526004016108d490614867565b60038054908290556040517fc565b045403dc03c2eea82b81a0465edad9e2e7fc4d97e11421c209da93d7a93906109499083908590614b77565b604051610aad90614595565b604051809103902081565b6203f48081565b69d3c21bcecceda100000081565b6969e10de76676d080000081565b6001546001600160a01b031681565b6060806060806000600b600087815260200190815260200160002090508060030181600401826005018360060183805480602002602001604051908101604052809291908181526020018280548015610b6c57602002820191906000526020600020905b81546001600160a01b03168152600190910190602001808311610b4e575b5050505050935082805480602002602001604051908101604052809291908181526020018280548015610bbe57602002820191906000526020600020905b815481526020019060010190808311610baa575b5050505050925081805480602002602001604051908101604052809291908181526020016000905b82821015610caf5760008481526020908190208301805460408051601f60027fffffffffffffffffffffffffffffffffffffffffffffffffffffffffffffffff610100600187161502019094169390930492830185900485028101850190915281815292830182828015610c9b5780601f10610c7057610100808354040283529160200191610c9b565b820191906000526020600020905b815481529060010190602001808311610c7e57829003601f168201915b505050505081526020019060010190610be6565b50505050915080805480602002602001604051908101604052809291908181526020016000905b82821015610d9f5760008481526020908190208301805460408051601f60027fffffffffffffffffffffffffffffffffffffffffffffffffffffffffffffffff610100600187161502019094169390930492830185900485028101850190915281815292830182828015610d8b5780601f10610d6057610100808354040283529160200191610d8b565b820191906000526020600020905b815481529060010190602001808311610d6e57829003601f168201915b505050505081526020019060010190610cd6565b5050505090509450945094509450509193509193565b60035481565b6000604051610dc990614595565b60408051918290038220828201909152600d82527f426f626120476f7665726e6f72000000000000000000000000000000000000006020909201919091527f1ad158c379cc8fb970052e59be23591551a366de2599ef65b8df53f3f63b1b6e610e306123cc565b30604051602001610e4494939291906146e8565b6040516020818303038152906040528051906020012090506000604051610e6a90614559565b604051908190038120610e83918990899060200161471d565b60405160208183030381529060405280519060200120905060008282604051602001610eb0929190614564565b604051602081830303815290604052805190602001209050600060018288888860405160008152602001604052604051610eed9493929190614745565b6020604051602081039080840390855afa158015610f0f573d6000803e3d6000fd5b50506040517fffffffffffffffffffffffffffffffffffffffffffffffffffffffffffffffe001519150506001600160a01b038116610f605760405162461bcd60e51b81526004016108d490614897565b806001600160a01b03167fb8e138887d0aa13bab447e82de9d5c1777041ecd21ca36ba824ff1e6c07ddda48a8a610f98858e8e6123d1565b604051610fa793929190614bcb565b60405180910390a2505050505050505050565b60008160075410158015610fd057506006548210155b610fec5760405162461bcd60e51b81526004016108d4906149d7565b6000828152600b60205260409020600e81015460ff1615611011576002915050611155565b80600901544211611026576000915050611155565b80600a0154421161103b576001915050611155565b80600c015481600b015411158061105f575069d3c21bcecceda100000081600b0154105b1561106e576003915050611155565b6002810154611081576004915050611155565b600e810154610100900460ff161561109d576007915050611155565b6002810154600854604080517fc1a287e2000000000000000000000000000000000000000000000000000000008152905161113f93926001600160a01b03169163c1a287e2916004808301926020929190829003018186803b15801561110257600080fd5b505afa158015611116573d6000803e3d6000fd5b505050506040513d601f19601f8201168201806040525061113a9190810190613097565b6126ac565b421061114f576006915050611155565b60059150505b919050565b600761116582610fba565b600781111561117057fe5b141561118e5760405162461bcd60e51b81526004016108d4906149a7565b6000818152600b6020526040902060018101546001600160a01b03163314806113105750600554600a54600183810154611300926001600160a01b039081169263782d6fe192909116906111e39043906126d1565b6040518363ffffffff1660e01b81526004016112009291906145e4565b60206040518083038186803b15801561121857600080fd5b505afa15801561122c573d6000803e3d6000fd5b505050506040513d601f19601f820116820180604052506112509190810190613242565b6009546001858101546001600160a01b039283169263782d6fe1929116906112799043906126d1565b6040518363ffffffff1660e01b81526004016112969291906145e4565b60206040518083038186803b1580156112ae57600080fd5b505afa1580156112c2573d6000803e3d6000fd5b505050506040513d601f19601f820116820180604052506112e69190810190613242565b6bffffffffffffffffffffffff169063ffffffff6126f916565b6bffffffffffffffffffffffff16105b61132c5760405162461bcd60e51b81526004016108d490614937565b600e810180547fffffffffffffffffffffffffffffffffffffffffffffffffffffffffffffff0016600117905560005b6003820154811015611456576008546003830180546001600160a01b039092169163591fcdfe91908490811061138e57fe5b6000918252602090912001546004850180546001600160a01b0390921691859081106113b657fe5b90600052602060002001548560050185815481106113d057fe5b906000526020600020018660060186815481106113e957fe5b9060005260206000200187600201546040518663ffffffff1660e01b815260040161141895949392919061464c565b600060405180830381600087803b15801561143257600080fd5b505af1158015611446573d6000803e3d6000fd5b50506001909201915061135c9050565b507f789cf55be980739dad1d0699b93b58e806b51c9d96619bfa8fe0a28abaa7b30c8260405161094991906146da565b337fb8e138887d0aa13bab447e82de9d5c1777041ecd21ca36ba824ff1e6c07ddda483836114b58483836123d1565b6040516114c493929190614bcb565b60405180910390a25050565b6002546001600160a01b031681565b6008546001600160a01b0316156115085760405162461bcd60e51b81526004016108d4906147b7565b6000546001600160a01b031633146115325760405162461bcd60e51b81526004016108d4906148c7565b6001600160a01b0386166115585760405162461bcd60e51b81526004016108d4906147f7565b6001600160a01b03851661157e5760405162461bcd60e51b81526004016108d490614967565b6001600160a01b0384166115a45760405162461bcd60e51b81526004016108d4906149b7565b6203f48083101580156115ba5750621275008311155b6115d65760405162461bcd60e51b81526004016108d4906149e7565b6202a30082101580156115ec575062093a808211155b6116085760405162461bcd60e51b81526004016108d4906148a7565b690a968163f0a57b400000811015801561162c57506969e10de76676d08000008111155b6116485760405162461bcd60e51b81526004016108d490614877565b600880547fffffffffffffffffffffffff00000000000000000000000000000000000000009081166001600160a01b039889161790915560098054821696881696909617909555600a80549095169390951692909217909255600491909155600355600555565b690a968163f0a57b40000081565b337fb8e138887d0aa13bab447e82de9d5c1777041ecd21ca36ba824ff1e6c07ddda485856116ec8483836123d1565b86866040516116ff959493929190614b85565b60405180910390a250505050565b600a81565b6000546001600160a01b0316331461173c5760405162461bcd60e51b81526004016108d490614987565b6006541561175c5760405162461bcd60e51b81526004016108d490614907565b600060078190556001600655600854604080517f0e18b68100000000000000000000000000000000000000000000000000000000815290516001600160a01b0390921692630e18b6819260048084019382900301818387803b1580156117c157600080fd5b505af11580156117d5573d6000803e3d6000fd5b50505050565b6212750081565b600a546001600160a01b031681565b62093a8081565b60055481565b6000546001600160a01b031633146118285760405162461bcd60e51b81526004016108d4906147c7565b600180546001600160a01b038381167fffffffffffffffffffffffff00000000000000000000000000000000000000008316179092556040519116907fca4f2f25d0898edd99413412fb94012f9e54ec8142f9b093e7720646a95b16a99061094990839085906145c9565b6009546001600160a01b031681565b6008546001600160a01b031681565b60075481565b6000600654600014156118dc5760405162461bcd60e51b81526004016108d490614817565b600554600a546119a7906001600160a01b031663782d6fe1336119004360016126d1565b6040518363ffffffff1660e01b815260040161191d9291906145ae565b60206040518083038186803b15801561193557600080fd5b505afa158015611949573d6000803e3d6000fd5b505050506040513d601f19601f8201168201806040525061196d9190810190613242565b6009546001600160a01b031663782d6fe13361198a4360016126d1565b6040518363ffffffff1660e01b81526004016112969291906145ae565b6bffffffffffffffffffffffff16116119d25760405162461bcd60e51b81526004016108d490614997565b845186511480156119e4575083518651145b80156119f1575082518651145b611a0d5760405162461bcd60e51b81526004016108d4906148b7565b8551611a2b5760405162461bcd60e51b81526004016108d490614917565b600a86511115611a4d5760405162461bcd60e51b81526004016108d490614947565b336000908152600c60205260409020548015611aca576000611a6e82610fba565b90506001816007811115611a7e57fe5b1415611a9c5760405162461bcd60e51b81526004016108d490614977565b6000816007811115611aaa57fe5b1415611ac85760405162461bcd60e51b81526004016108d490614957565b505b6000611ad8426003546126ac565b90506000611ae8826004546126ac565b6007805460010190559050611afb6128a7565b6040518061020001604052806007548152602001336001600160a01b03168152602001600081526020018b81526020018a81526020018981526020018881526020018781526020016000815260200184815260200183815260200160008152602001600081526020016000815260200160001515815260200160001515815250905080600b6000836000015181526020019081526020016000206000820151816000015560208201518160010160006101000a8154816001600160a01b0302191690836001600160a01b03160217905550604082015181600201556060820151816003019080519060200190611bf2929190612931565b5060808201518051611c0e9160048401916020909101906129ae565b5060a08201518051611c2a9160058401916020909101906129f5565b5060c08201518051611c46916006840191602090910190612a4e565b5060e08201518051611c62916007840191602090910190612aa7565b506101008201518160080155610120820151816009015561014082015181600a015561016082015181600b015561018082015181600c01556101a082015181600d01556101c082015181600e0160006101000a81548160ff0219169083151502179055506101e082015181600e0160016101000a81548160ff0219169083151502179055509050508060000151600c600083602001516001600160a01b03166001600160a01b03168152602001908152602001600020819055507f7d84a6263ae0d98d3329bd7b46bb4e8d6f98cd35a7adb45c274c8b7fd5ebd5e08160000151338c8c8c8c89898e604051611d5f99989796959493929190614a15565b60405180910390a15193505050505b95945050505050565b6004611d8282610fba565b6007811115611d8d57fe5b14611daa5760405162461bcd60e51b81526004016108d4906148e7565b6000818152600b6020908152604080832060085482517f6a42b8f80000000000000000000000000000000000000000000000000000000081529251919493611e1d9342936001600160a01b0390931692636a42b8f892600480840193919291829003018186803b15801561110257600080fd5b905060005b600383015481101561200157611ff9836003018281548110611e4057fe5b6000918252602090912001546004850180546001600160a01b039092169184908110611e6857fe5b9060005260206000200154856005018481548110611e8257fe5b600091825260209182902001805460408051601f60027fffffffffffffffffffffffffffffffffffffffffffffffffffffffffffffffff610100600187161502019094169390930492830185900485028101850190915281815292830182828015611f2e5780601f10611f0357610100808354040283529160200191611f2e565b820191906000526020600020905b815481529060010190602001808311611f1157829003601f168201915b5050505050866006018581548110611f4257fe5b600091825260209182902001805460408051601f60027fffffffffffffffffffffffffffffffffffffffffffffffffffffffffffffffff610100600187161502019094169390930492830185900485028101850190915281815292830182828015611fee5780601f10611fc357610100808354040283529160200191611fee565b820191906000526020600020905b815481529060010190602001808311611fd157829003601f168201915b50505050508661272f565b600101611e22565b50600282018190556040517f9a2e42fd6722813d69113e7d0079d3d940171428df7373df9c7f7617cfda28929061203b9085908490614b77565b60405180910390a1505050565b604051610aad90614559565b61205c612b14565b506000828152600b602090815260408083206001600160a01b0385168452600f018252918290208251606081018452905460ff8082161515835261010082041692820192909252620100009091046bffffffffffffffffffffffff16918101919091525b92915050565b6202a30081565b6001546001600160a01b0316331480156120e657503315155b6121025760405162461bcd60e51b81526004016108d490614927565b60008054600180546001600160a01b038082167fffffffffffffffffffffffff00000000000000000000000000000000000000008086168217968790559092169092556040519282169390927ff9ffabca9c8276e99321725bcb43fb076a6c66a54b7f21c4e8146d8519b417dc9261217e9286929116906145c9565b60405180910390a16001546040517fca4f2f25d0898edd99413412fb94012f9e54ec8142f9b093e7720646a95b16a9916109499184916001600160a01b0316906145c9565b6000546001600160a01b031681565b60065481565b60056121e382610fba565b60078111156121ee57fe5b1461220b5760405162461bcd60e51b81526004016108d490614887565b6000818152600b60205260408120600e810180547fffffffffffffffffffffffffffffffffffffffffffffffffffffffffffff00ff16610100179055905b600382015481101561239c576008546004830180546001600160a01b0390921691630825f38f91908490811061227b57fe5b906000526020600020015484600301848154811061229557fe5b6000918252602090912001546004860180546001600160a01b0390921691869081106122bd57fe5b90600052602060002001548660050186815481106122d757fe5b906000526020600020018760060187815481106122f057fe5b9060005260206000200188600201546040518763ffffffff1660e01b815260040161231f95949392919061464c565b6000604051808303818588803b15801561233857600080fd5b505af115801561234c573d6000803e3d6000fd5b50505050506040513d6000823e601f3d9081017fffffffffffffffffffffffffffffffffffffffffffffffffffffffffffffffe016820160405261239391908101906130b5565b50600101612249565b507f712ae1383f79ac853f8d882153778e0260ef8f03b504e2866e0593e04d2b291f8260405161094991906146da565b465b90565b600060016123de84610fba565b60078111156123e957fe5b146124065760405162461bcd60e51b81526004016108d490614847565b60028260ff16111561242a5760405162461bcd60e51b81526004016108d4906147a7565b6000838152600b6020526040902060088101546124525761244c4360016126d1565b60088201555b6001600160a01b0385166000908152600f820160205260409020805460ff161561248e5760405162461bcd60e51b81526004016108d490614857565b600a5460088301546040517f782d6fe1000000000000000000000000000000000000000000000000000000008152600092612583926001600160a01b039091169163782d6fe1916124e4918c91906004016145e4565b60206040518083038186803b1580156124fc57600080fd5b505afa158015612510573d6000803e3d6000fd5b505050506040513d601f19601f820116820180604052506125349190810190613242565b60095460088601546040517f782d6fe10000000000000000000000000000000000000000000000000000000081526001600160a01b039092169163782d6fe191611296918d91906004016145e4565b905060ff85166125b3576125a983600c0154826bffffffffffffffffffffffff166126ac565b600c840155612613565b8460ff16600114156125e5576125db83600b0154826bffffffffffffffffffffffff166126ac565b600b840155612613565b8460ff16600214156126135761260d83600d0154826bffffffffffffffffffffffff166126ac565b600d8401555b815460017fffffffffffffffffffffffffffffffffffffffffffffffffffffffffffffff00909116177fffffffffffffffffffffffffffffffffffffffffffffffffffffffffffff00ff1661010060ff871602177fffffffffffffffffffffffffffffffffffff000000000000000000000000ffff16620100006bffffffffffffffffffffffff831602179091559150505b9392505050565b6000828201838110156126a55760405162461bcd60e51b81526004016108d4906148f7565b6000828211156126f35760405162461bcd60e51b81526004016108d4906149f7565b50900390565b60008282016bffffffffffffffffffffffff80851690821610156126a55760405162461bcd60e51b81526004016108d490614827565b6008546040516001600160a01b039091169063f2b065379061275d90889088908890889088906020016145f2565b604051602081830303815290604052805190602001206040518263ffffffff1660e01b815260040161278f91906146da565b60206040518083038186803b1580156127a757600080fd5b505afa1580156127bb573d6000803e3d6000fd5b505050506040513d601f19601f820116820180604052506127df9190810190613079565b156127fc5760405162461bcd60e51b81526004016108d4906147d7565b6008546040517f3a66f9010000000000000000000000000000000000000000000000000000000081526001600160a01b0390911690633a66f9019061284d90889088908890889088906004016145f2565b602060405180830381600087803b15801561286757600080fd5b505af115801561287b573d6000803e3d6000fd5b505050506040513d601f19601f8201168201806040525061289f9190810190613097565b505050505050565b6040518061020001604052806000815260200160006001600160a01b031681526020016000815260200160608152602001606081526020016060815260200160608152602001606081526020016000815260200160008152602001600081526020016000815260200160008152602001600081526020016000151581526020016000151581525090565b82805482825590600052602060002090810192821561299e579160200282015b8281111561299e57825182547fffffffffffffffffffffffff0000000000000000000000000000000000000000166001600160a01b03909116178255602090920191600190910190612951565b506129aa929150612b34565b5090565b8280548282559060005260206000209081019282156129e9579160200282015b828111156129e95782518255916020019190600101906129ce565b506129aa929150612b70565b828054828255906000526020600020908101928215612a42579160200282015b82811115612a425782518051612a32918491602090910190612aa7565b5091602001919060010190612a15565b506129aa929150612b8a565b828054828255906000526020600020908101928215612a9b579160200282015b82811115612a9b5782518051612a8b918491602090910190612aa7565b5091602001919060010190612a6e565b506129aa929150612bad565b828054600181600116156101000203166002900490600052602060002090601f016020900481019282601f10612ae857805160ff19168380011785556129e9565b828001600101855582156129e957918201828111156129e95782518255916020019190600101906129ce565b604080516060810182526000808252602082018190529181019190915290565b6123ce91905b808211156129aa5780547fffffffffffffffffffffffff0000000000000000000000000000000000000000168155600101612b3a565b6123ce91905b808211156129aa5760008155600101612b76565b6123ce91905b808211156129aa576000612ba48282612bd0565b50600101612b90565b6123ce91905b808211156129aa576000612bc78282612bd0565b50600101612bb3565b50805460018160011615610100020316600290046000825580601f10612bf65750612c14565b601f016020900490600052602060002090810190612c149190612b70565b50565b80356120c081614d80565b600082601f830112612c3357600080fd5b8135612c46612c4182614c2b565b614c04565b91508181835260208401935060208101905083856020840282011115612c6b57600080fd5b60005b83811015612c975781612c818882612c17565b8452506020928301929190910190600101612c6e565b5050505092915050565b600082601f830112612cb257600080fd5b8135612cc0612c4182614c2b565b81815260209384019390925082018360005b83811015612c975781358601612ce88882612dec565b8452506020928301929190910190600101612cd2565b600082601f830112612d0f57600080fd5b8135612d1d612c4182614c2b565b81815260209384019390925082018360005b83811015612c975781358601612d458882612dec565b8452506020928301929190910190600101612d2f565b600082601f830112612d6c57600080fd5b8135612d7a612c4182614c2b565b91508181835260208401935060208101905083856020840282011115612d9f57600080fd5b60005b83811015612c975781612db58882612dd6565b8452506020928301929190910190600101612da2565b80516120c081614d94565b80356120c081614d9d565b80516120c081614d9d565b600082601f830112612dfd57600080fd5b8135612e0b612c4182614c4c565b91508082526020830160208301858383011115612e2757600080fd5b612e32838284614d16565b50505092915050565b600082601f830112612e4c57600080fd5b8151612e5a612c4182614c4c565b91508082526020830160208301858383011115612e7657600080fd5b612e32838284614d22565b60008083601f840112612e9357600080fd5b50813567ffffffffffffffff811115612eab57600080fd5b602083019150836001820283011115612ec357600080fd5b9250929050565b80356120c081614da6565b80516120c081614daf565b600060208284031215612ef257600080fd5b6000612efe8484612c17565b949350505050565b60008060008060008060c08789031215612f1f57600080fd5b6000612f2b8989612c17565b9650506020612f3c89828a01612c17565b9550506040612f4d89828a01612c17565b9450506060612f5e89828a01612dd6565b9350506080612f6f89828a01612dd6565b92505060a0612f8089828a01612dd6565b9150509295509295509295565b600080600080600060a08688031215612fa557600080fd5b853567ffffffffffffffff811115612fbc57600080fd5b612fc888828901612c22565b955050602086013567ffffffffffffffff811115612fe557600080fd5b612ff188828901612d5b565b945050604086013567ffffffffffffffff81111561300e57600080fd5b61301a88828901612cfe565b935050606086013567ffffffffffffffff81111561303757600080fd5b61304388828901612ca1565b925050608086013567ffffffffffffffff81111561306057600080fd5b61306c88828901612dec565b9150509295509295909350565b60006020828403121561308b57600080fd5b6000612efe8484612dcb565b6000602082840312156130a957600080fd5b6000612efe8484612de1565b6000602082840312156130c757600080fd5b815167ffffffffffffffff8111156130de57600080fd5b612efe84828501612e3b565b6000602082840312156130fc57600080fd5b6000612efe8484612dd6565b6000806040838503121561311b57600080fd5b60006131278585612dd6565b925050602061313885828601612c17565b9150509250929050565b6000806040838503121561315557600080fd5b60006131618585612dd6565b925050602061313885828601612eca565b6000806000806060858703121561318857600080fd5b60006131948787612dd6565b94505060206131a587828801612eca565b935050604085013567ffffffffffffffff8111156131c257600080fd5b6131ce87828801612e81565b95989497509550505050565b600080600080600060a086880312156131f257600080fd5b60006131fe8888612dd6565b955050602061320f88828901612eca565b945050604061322088828901612eca565b935050606061323188828901612dd6565b925050608061306c88828901612dd6565b60006020828403121561325457600080fd5b6000612efe8484612ed5565b600061326c838361329b565b505060200190565b60006126a5838361343d565b600061326c8383613423565b61329581614cee565b82525050565b61329581614cb1565b60006132af82614ca4565b6132b98185614ca8565b93506132c483614c92565b8060005b838110156132f25781516132dc8882613260565b97506132e783614c92565b9250506001016132c8565b509495945050505050565b600061330882614ca4565b6133128185614ca8565b93508360208202850161332485614c92565b8060005b8581101561335e57848403895281516133418582613274565b945061334c83614c92565b60209a909a0199925050600101613328565b5091979650505050505050565b600061337682614ca4565b6133808185614ca8565b93508360208202850161339285614c92565b8060005b8581101561335e57848403895281516133af8582613274565b94506133ba83614c92565b60209a909a0199925050600101613396565b60006133d782614ca4565b6133e18185614ca8565b93506133ec83614c92565b8060005b838110156132f25781516134048882613280565b975061340f83614c92565b9250506001016133f0565b61329581614cbc565b613295816123ce565b613295613438826123ce565b6123ce565b600061344882614ca4565b6134528185614ca8565b9350613462818560208601614d22565b61346b81614d4e565b9093019392505050565b60008154600181166000811461349257600181146134d657613515565b607f60028304166134a38187614ca8565b7fffffffffffffffffffffffffffffffffffffffffffffffffffffffffffffff0084168152955050602085019250613515565b600282046134e48187614ca8565b95506134ef85614c98565b60005b8281101561350e578154888201526001909101906020016134f2565b8701945050505b505092915050565b61329581614cf5565b61329581614d00565b600061353b8385614ca8565b9350613548838584614d16565b61346b83614d4e565b600061355e603283614ca8565b7f476f7665726e6f72427261766f3a3a63617374566f7465496e7465726e616c3a81527f20696e76616c696420766f746520747970650000000000000000000000000000602082015260400192915050565b60006135bd602883611155565b7f42616c6c6f742875696e743235362070726f706f73616c49642c75696e74382081527f737570706f727429000000000000000000000000000000000000000000000000602082015260280192915050565b600061361c603383614ca8565b7f476f7665726e6f72427261766f3a3a696e697469616c697a653a2063616e206f81527f6e6c7920696e697469616c697a65206f6e636500000000000000000000000000602082015260400192915050565b600061367b602a83614ca8565b7f476f7665726e6f72427261766f3a5f73657450656e64696e6741646d696e3a2081527f61646d696e206f6e6c7900000000000000000000000000000000000000000000602082015260400192915050565b60006136da605583614ca8565b7f476f7665726e6f72427261766f3a3a71756575654f72526576657274496e746581527f726e616c3a206964656e746963616c2070726f706f73616c20616374696f6e2060208201527f616c726561647920717565756564206174206574610000000000000000000000604082015260600192915050565b600061375f602b83614ca8565b7f476f7665726e6f72427261766f3a3a5f736574566f74696e67506572696f643a81527f2061646d696e206f6e6c79000000000000000000000000000000000000000000602082015260400192915050565b60006137be603383614ca8565b7f476f7665726e6f72427261766f3a3a696e697469616c697a653a20696e76616c81527f69642074696d656c6f636b206164647265737300000000000000000000000000602082015260400192915050565b600061381d602a83614ca8565b7f476f7665726e6f72427261766f3a3a5f736574566f74696e6744656c61793a2081527f61646d696e206f6e6c7900000000000000000000000000000000000000000000602082015260400192915050565b600061387c603183614ca8565b7f476f7665726e6f72427261766f3a3a70726f706f73653a20476f7665726e6f7281527f20427261766f206e6f7420616374697665000000000000000000000000000000602082015260400192915050565b60006138db600283611155565b7f1901000000000000000000000000000000000000000000000000000000000000815260020192915050565b6000613914601b83614ca8565b7f536166654d6174683a206164646974696f6e206f766572666c6f770000000000815260200192915050565b600061394d603683614ca8565b7f476f7665726e6f72427261766f3a3a5f736574566f74696e67506572696f643a81527f20696e76616c696420766f74696e6720706572696f6400000000000000000000602082015260400192915050565b60006139ac603183614ca8565b7f476f7665726e6f72427261766f3a3a63617374566f7465496e7465726e616c3a81527f20766f74696e6720697320636c6f736564000000000000000000000000000000602082015260400192915050565b6000613a0b603483614ca8565b7f476f7665726e6f72427261766f3a3a63617374566f7465496e7465726e616c3a81527f20766f74657220616c726561647920766f746564000000000000000000000000602082015260400192915050565b6000613a6a603483614ca8565b7f476f7665726e6f72427261766f3a3a5f736574566f74696e6744656c61793a2081527f696e76616c696420766f74696e672064656c6179000000000000000000000000602082015260400192915050565b6000613ac9603583614ca8565b7f476f7665726e6f72427261766f3a3a696e697469616c697a653a20696e76616c81527f69642070726f706f73616c207468726573686f6c640000000000000000000000602082015260400192915050565b6000613b28604583614ca8565b7f476f7665726e6f72427261766f3a3a657865637574653a2070726f706f73616c81527f2063616e206f6e6c79206265206578656375746564206966206974206973207160208201527f7565756564000000000000000000000000000000000000000000000000000000604082015260600192915050565b6000613bad602f83614ca8565b7f476f7665726e6f72427261766f3a3a63617374566f746542795369673a20696e81527f76616c6964207369676e61747572650000000000000000000000000000000000602082015260400192915050565b6000613c0c602f83614ca8565b7f476f7665726e6f72427261766f3a3a696e697469616c697a653a20696e76616c81527f696420766f74696e672064656c61790000000000000000000000000000000000602082015260400192915050565b6000613c6b604483614ca8565b7f476f7665726e6f72427261766f3a3a70726f706f73653a2070726f706f73616c81527f2066756e6374696f6e20696e666f726d6174696f6e206172697479206d69736d60208201527f6174636800000000000000000000000000000000000000000000000000000000604082015260600192915050565b6000613cf0602583614ca8565b7f476f7665726e6f72427261766f3a3a696e697469616c697a653a2061646d696e81527f206f6e6c79000000000000000000000000000000000000000000000000000000602082015260400192915050565b6000613d4f604083614ca8565b7f476f7665726e6f72427261766f3a3a5f73657450726f706f73616c546872657381527f686f6c643a20696e76616c69642070726f706f73616c207468726573686f6c64602082015260400192915050565b6000613dae604483614ca8565b7f476f7665726e6f72427261766f3a3a71756575653a2070726f706f73616c206381527f616e206f6e6c792062652071756575656420696620697420697320737563636560208201527f6564656400000000000000000000000000000000000000000000000000000000604082015260600192915050565b6000613e33601183614ca8565b7f6164646974696f6e206f766572666c6f77000000000000000000000000000000815260200192915050565b6000613e6c604383611155565b7f454950373132446f6d61696e28737472696e67206e616d652c75696e7432353681527f20636861696e49642c6164647265737320766572696679696e67436f6e74726160208201527f6374290000000000000000000000000000000000000000000000000000000000604082015260430192915050565b6000613ef1603083614ca8565b7f476f7665726e6f72427261766f3a3a5f696e6974696174653a2063616e206f6e81527f6c7920696e697469617465206f6e636500000000000000000000000000000000602082015260400192915050565b6000613f50602c83614ca8565b7f476f7665726e6f72427261766f3a3a70726f706f73653a206d7573742070726f81527f7669646520616374696f6e730000000000000000000000000000000000000000602082015260400192915050565b6000613faf602e83614ca8565b7f476f7665726e6f72427261766f3a5f61636365707441646d696e3a2070656e6481527f696e672061646d696e206f6e6c79000000000000000000000000000000000000602082015260400192915050565b600061400e602f83614ca8565b7f476f7665726e6f72427261766f3a3a63616e63656c3a2070726f706f7365722081527f61626f7665207468726573686f6c640000000000000000000000000000000000602082015260400192915050565b600061406d602883614ca8565b7f476f7665726e6f72427261766f3a3a70726f706f73653a20746f6f206d616e7981527f20616374696f6e73000000000000000000000000000000000000000000000000602082015260400192915050565b60006140cc605983614ca8565b7f476f7665726e6f72427261766f3a3a70726f706f73653a206f6e65206c69766581527f2070726f706f73616c207065722070726f706f7365722c20666f756e6420616e60208201527f20616c72656164792070656e64696e672070726f706f73616c00000000000000604082015260600192915050565b6000614151603283614ca8565b7f476f7665726e6f72427261766f3a3a696e697469616c697a653a20696e76616c81527f6964206c3220626f626120616464726573730000000000000000000000000000602082015260400192915050565b60006141b0605883614ca8565b7f476f7665726e6f72427261766f3a3a70726f706f73653a206f6e65206c69766581527f2070726f706f73616c207065722070726f706f7365722c20666f756e6420616e60208201527f20616c7265616479206163746976652070726f706f73616c0000000000000000604082015260600192915050565b60006120c0600083614ca8565b6000614242602483614ca8565b7f476f7665726e6f72427261766f3a3a5f696e6974696174653a2061646d696e2081527f6f6e6c7900000000000000000000000000000000000000000000000000000000602082015260400192915050565b60006142a1603f83614ca8565b7f476f7665726e6f72427261766f3a3a70726f706f73653a2070726f706f73657281527f20766f7465732062656c6f772070726f706f73616c207468726573686f6c6400602082015260400192915050565b6000614300603683614ca8565b7f476f7665726e6f72427261766f3a3a63616e63656c3a2063616e6e6f7420636181527f6e63656c2065786563757465642070726f706f73616c00000000000000000000602082015260400192915050565b600061435f603383614ca8565b7f476f7665726e6f72427261766f3a3a696e697469616c697a653a20696e76616c81527f6964206c322078626f6261206164647265737300000000000000000000000000602082015260400192915050565b60006143be603083614ca8565b7f476f7665726e6f72427261766f3a3a5f73657450726f706f73616c546872657381527f686f6c643a2061646d696e206f6e6c7900000000000000000000000000000000602082015260400192915050565b600061441d602983614ca8565b7f476f7665726e6f72427261766f3a3a73746174653a20696e76616c696420707281527f6f706f73616c2069640000000000000000000000000000000000000000000000602082015260400192915050565b600061447c603083614ca8565b7f476f7665726e6f72427261766f3a3a696e697469616c697a653a20696e76616c81527f696420766f74696e6720706572696f6400000000000000000000000000000000602082015260400192915050565b60006144db601583614ca8565b7f7375627472616374696f6e20756e646572666c6f770000000000000000000000815260200192915050565b80516060830190614518848261341a565b50602082015161452b602085018261453e565b5060408201516117d56040850182614550565b61329581614cd7565b61329581614d0b565b61329581614cdd565b60006120c0826135b0565b600061456f826138ce565b915061457b828561342c565b60208201915061458b828461342c565b5060200192915050565b60006120c082613e5f565b602081016120c0828461329b565b604081016145bc828561328c565b6126a56020830184613423565b604081016145d7828561329b565b6126a5602083018461329b565b604081016145bc828561329b565b60a08101614600828861329b565b61460d6020830187613423565b818103604083015261461f818661343d565b90508181036060830152614633818561343d565b90506146426080830184613423565b9695505050505050565b60a0810161465a828861329b565b6146676020830187613423565b81810360408301526146798186613475565b905081810360608301526146338185613475565b6080808252810161469e81876132a4565b905081810360208301526146b281866133cc565b905081810360408301526146c6818561336b565b9050818103606083015261464281846132fd565b602081016120c08284613423565b608081016146f68287613423565b6147036020830186613423565b6147106040830185613423565b611d6e606083018461329b565b6060810161472b8286613423565b6147386020830185613423565b612efe604083018461453e565b608081016147538287613423565b614760602083018661453e565b61476d6040830185613423565b611d6e6060830184613423565b602081016120c0828461351d565b602081016120c08284613526565b602080825281016126a5818461343d565b602080825281016120c081613551565b602080825281016120c08161360f565b602080825281016120c08161366e565b602080825281016120c0816136cd565b602080825281016120c081613752565b602080825281016120c0816137b1565b602080825281016120c081613810565b602080825281016120c08161386f565b602080825281016120c081613907565b602080825281016120c081613940565b602080825281016120c08161399f565b602080825281016120c0816139fe565b602080825281016120c081613a5d565b602080825281016120c081613abc565b602080825281016120c081613b1b565b602080825281016120c081613ba0565b602080825281016120c081613bff565b602080825281016120c081613c5e565b602080825281016120c081613ce3565b602080825281016120c081613d42565b602080825281016120c081613da1565b602080825281016120c081613e26565b602080825281016120c081613ee4565b602080825281016120c081613f43565b602080825281016120c081613fa2565b602080825281016120c081614001565b602080825281016120c081614060565b602080825281016120c0816140bf565b602080825281016120c081614144565b602080825281016120c0816141a3565b602080825281016120c081614235565b602080825281016120c081614294565b602080825281016120c0816142f3565b602080825281016120c081614352565b602080825281016120c0816143b1565b602080825281016120c081614410565b602080825281016120c08161446f565b602080825281016120c0816144ce565b606081016120c08284614507565b6101208101614a24828c613423565b614a31602083018b61328c565b8181036040830152614a43818a6132a4565b90508181036060830152614a5781896133cc565b90508181036080830152614a6b818861336b565b905081810360a0830152614a7f81876132fd565b9050614a8e60c0830186613423565b614a9b60e0830185613423565b818103610100830152614aae818461343d565b9b9a5050505050505050505050565b6101808101614acc828f613423565b614ad9602083018e61329b565b614ae6604083018d613423565b8181036060830152614af8818c61343d565b9050614b07608083018b613423565b614b1460a083018a613423565b614b2160c0830189613423565b614b2e60e0830188613423565b614b3c610100830187613423565b614b4a610120830186613423565b614b5861014083018561341a565b614b6661016083018461341a565b9d9c50505050505050505050505050565b604081016145bc8285613423565b60808101614b938288613423565b614ba0602083018761453e565b614bad6040830186614547565b8181036060830152614bc081848661352f565b979650505050505050565b60808101614bd98286613423565b614be6602083018561453e565b614bf36040830184614547565b8181036060830152611d6e81614228565b60405181810167ffffffffffffffff81118282101715614c2357600080fd5b604052919050565b600067ffffffffffffffff821115614c4257600080fd5b5060209081020190565b600067ffffffffffffffff821115614c6357600080fd5b506020601f919091017fffffffffffffffffffffffffffffffffffffffffffffffffffffffffffffffe0160190565b60200190565b60009081526020902090565b5190565b90815260200190565b60006120c082614ccb565b151590565b8061115581614d76565b6001600160a01b031690565b60ff1690565b6bffffffffffffffffffffffff1690565b60006120c0825b60006120c082614cb1565b60006120c082614cc1565b60006120c082614cdd565b82818337506000910152565b60005b83811015614d3d578181015183820152602001614d25565b838111156117d55750506000910152565b601f017fffffffffffffffffffffffffffffffffffffffffffffffffffffffffffffffe01690565b60088110612c1457fe5b614d8981614cb1565b8114612c1457600080fd5b614d8981614cbc565b614d89816123ce565b614d8981614cd7565b614d8981614cdd56fea365627a7a723158202c8d70e8271b09d124d94c58c035c530b8ea640f1e562c42fed4686ccc8baafd6c6578706572696d656e74616cf564736f6c63430005110040",
          "opcodes": "PUSH1 0x80 PUSH1 0x40 MSTORE CALLVALUE DUP1 ISZERO PUSH2 0x10 JUMPI PUSH1 0x0 DUP1 REVERT JUMPDEST POP PUSH2 0x4DFB DUP1 PUSH2 0x20 PUSH1 0x0 CODECOPY PUSH1 0x0 RETURN INVALID PUSH1 0x80 PUSH1 0x40 MSTORE PUSH1 0x4 CALLDATASIZE LT PUSH2 0x2C6 JUMPI PUSH1 0x0 CALLDATALOAD PUSH1 0xE0 SHR DUP1 PUSH4 0x791F5D23 GT PUSH2 0x179 JUMPI DUP1 PUSH4 0xD33219B4 GT PUSH2 0xD6 JUMPI DUP1 PUSH4 0xE23A9A52 GT PUSH2 0x8A JUMPI DUP1 PUSH4 0xF851A440 GT PUSH2 0x64 JUMPI DUP1 PUSH4 0xF851A440 EQ PUSH2 0x71A JUMPI DUP1 PUSH4 0xFC4EEE42 EQ PUSH2 0x72F JUMPI DUP1 PUSH4 0xFE0D94C1 EQ PUSH2 0x744 JUMPI PUSH2 0x2C6 JUMP JUMPDEST DUP1 PUSH4 0xE23A9A52 EQ PUSH2 0x6C3 JUMPI DUP1 PUSH4 0xE48083FE EQ PUSH2 0x6F0 JUMPI DUP1 PUSH4 0xE9C714F2 EQ PUSH2 0x705 JUMPI PUSH2 0x2C6 JUMP JUMPDEST DUP1 PUSH4 0xDA95691A GT PUSH2 0xBB JUMPI DUP1 PUSH4 0xDA95691A EQ PUSH2 0x66E JUMPI DUP1 PUSH4 0xDDF0B009 EQ PUSH2 0x68E JUMPI DUP1 PUSH4 0xDEAAA7CC EQ PUSH2 0x6AE JUMPI PUSH2 0x2C6 JUMP JUMPDEST DUP1 PUSH4 0xD33219B4 EQ PUSH2 0x644 JUMPI DUP1 PUSH4 0xDA35C664 EQ PUSH2 0x659 JUMPI PUSH2 0x2C6 JUMP JUMPDEST DUP1 PUSH4 0xAD5121B8 GT PUSH2 0x12D JUMPI DUP1 PUSH4 0xB58131B0 GT PUSH2 0x112 JUMPI DUP1 PUSH4 0xB58131B0 EQ PUSH2 0x5FA JUMPI DUP1 PUSH4 0xB71D1A0C EQ PUSH2 0x60F JUMPI DUP1 PUSH4 0xC501F816 EQ PUSH2 0x62F JUMPI PUSH2 0x2C6 JUMP JUMPDEST DUP1 PUSH4 0xAD5121B8 EQ PUSH2 0x5C3 JUMPI DUP1 PUSH4 0xB1126263 EQ PUSH2 0x5E5 JUMPI PUSH2 0x2C6 JUMP JUMPDEST DUP1 PUSH4 0x7BDBE4D0 GT PUSH2 0x15E JUMPI DUP1 PUSH4 0x7BDBE4D0 EQ PUSH2 0x584 JUMPI DUP1 PUSH4 0x878F1482 EQ PUSH2 0x599 JUMPI DUP1 PUSH4 0xA64E024A EQ PUSH2 0x5AE JUMPI PUSH2 0x2C6 JUMP JUMPDEST DUP1 PUSH4 0x791F5D23 EQ PUSH2 0x54F JUMPI DUP1 PUSH4 0x7B3C71D3 EQ PUSH2 0x564 JUMPI PUSH2 0x2C6 JUMP JUMPDEST DUP1 PUSH4 0x25FD935A GT PUSH2 0x227 JUMPI DUP1 PUSH4 0x3E4F49E6 GT PUSH2 0x1DB JUMPI DUP1 PUSH4 0x56781388 GT PUSH2 0x1C0 JUMPI DUP1 PUSH4 0x56781388 EQ PUSH2 0x4FA JUMPI DUP1 PUSH4 0x5C60DA1B EQ PUSH2 0x51A JUMPI DUP1 PUSH4 0x728CDBCA EQ PUSH2 0x52F JUMPI PUSH2 0x2C6 JUMP JUMPDEST DUP1 PUSH4 0x3E4F49E6 EQ PUSH2 0x4AD JUMPI DUP1 PUSH4 0x40E58EE5 EQ PUSH2 0x4DA JUMPI PUSH2 0x2C6 JUMP JUMPDEST DUP1 PUSH4 0x328DD982 GT PUSH2 0x20C JUMPI DUP1 PUSH4 0x328DD982 EQ PUSH2 0x448 JUMPI DUP1 PUSH4 0x3932ABB1 EQ PUSH2 0x478 JUMPI DUP1 PUSH4 0x3BCCF4FD EQ PUSH2 0x48D JUMPI PUSH2 0x2C6 JUMP JUMPDEST DUP1 PUSH4 0x25FD935A EQ PUSH2 0x411 JUMPI DUP1 PUSH4 0x26782247 EQ PUSH2 0x426 JUMPI PUSH2 0x2C6 JUMP JUMPDEST DUP1 PUSH4 0x17BA1B8B GT PUSH2 0x27E JUMPI DUP1 PUSH4 0x20606B70 GT PUSH2 0x263 JUMPI DUP1 PUSH4 0x20606B70 EQ PUSH2 0x3D2 JUMPI DUP1 PUSH4 0x215809CA EQ PUSH2 0x3E7 JUMPI DUP1 PUSH4 0x24BC1A64 EQ PUSH2 0x3FC JUMPI PUSH2 0x2C6 JUMP JUMPDEST DUP1 PUSH4 0x17BA1B8B EQ PUSH2 0x392 JUMPI DUP1 PUSH4 0x1DFB1B5A EQ PUSH2 0x3B2 JUMPI PUSH2 0x2C6 JUMP JUMPDEST DUP1 PUSH4 0x6FDDE03 GT PUSH2 0x2AF JUMPI DUP1 PUSH4 0x6FDDE03 EQ PUSH2 0x32E JUMPI DUP1 PUSH4 0xEA2D98C EQ PUSH2 0x350 JUMPI DUP1 PUSH4 0x17977C61 EQ PUSH2 0x372 JUMPI PUSH2 0x2C6 JUMP JUMPDEST DUP1 PUSH4 0x13CF08B EQ PUSH2 0x2CB JUMPI DUP1 PUSH4 0x2A251A3 EQ PUSH2 0x30C JUMPI JUMPDEST PUSH1 0x0 DUP1 REVERT JUMPDEST CALLVALUE DUP1 ISZERO PUSH2 0x2D7 JUMPI PUSH1 0x0 DUP1 REVERT JUMPDEST POP PUSH2 0x2EB PUSH2 0x2E6 CALLDATASIZE PUSH1 0x4 PUSH2 0x30EA JUMP JUMPDEST PUSH2 0x757 JUMP JUMPDEST PUSH1 0x40 MLOAD PUSH2 0x303 SWAP13 SWAP12 SWAP11 SWAP10 SWAP9 SWAP8 SWAP7 SWAP6 SWAP5 SWAP4 SWAP3 SWAP2 SWAP1 PUSH2 0x4ABD JUMP JUMPDEST PUSH1 0x40 MLOAD DUP1 SWAP2 SUB SWAP1 RETURN JUMPDEST CALLVALUE DUP1 ISZERO PUSH2 0x318 JUMPI PUSH1 0x0 DUP1 REVERT JUMPDEST POP PUSH2 0x321 PUSH2 0x86B JUMP JUMPDEST PUSH1 0x40 MLOAD PUSH2 0x303 SWAP2 SWAP1 PUSH2 0x46DA JUMP JUMPDEST CALLVALUE DUP1 ISZERO PUSH2 0x33A JUMPI PUSH1 0x0 DUP1 REVERT JUMPDEST POP PUSH2 0x343 PUSH2 0x871 JUMP JUMPDEST PUSH1 0x40 MLOAD PUSH2 0x303 SWAP2 SWAP1 PUSH2 0x4796 JUMP JUMPDEST CALLVALUE DUP1 ISZERO PUSH2 0x35C JUMPI PUSH1 0x0 DUP1 REVERT JUMPDEST POP PUSH2 0x370 PUSH2 0x36B CALLDATASIZE PUSH1 0x4 PUSH2 0x30EA JUMP JUMPDEST PUSH2 0x8AA JUMP JUMPDEST STOP JUMPDEST CALLVALUE DUP1 ISZERO PUSH2 0x37E JUMPI PUSH1 0x0 DUP1 REVERT JUMPDEST POP PUSH2 0x321 PUSH2 0x38D CALLDATASIZE PUSH1 0x4 PUSH2 0x2EE0 JUMP JUMPDEST PUSH2 0x955 JUMP JUMPDEST CALLVALUE DUP1 ISZERO PUSH2 0x39E JUMPI PUSH1 0x0 DUP1 REVERT JUMPDEST POP PUSH2 0x370 PUSH2 0x3AD CALLDATASIZE PUSH1 0x4 PUSH2 0x30EA JUMP JUMPDEST PUSH2 0x967 JUMP JUMPDEST CALLVALUE DUP1 ISZERO PUSH2 0x3BE JUMPI PUSH1 0x0 DUP1 REVERT JUMPDEST POP PUSH2 0x370 PUSH2 0x3CD CALLDATASIZE PUSH1 0x4 PUSH2 0x30EA JUMP JUMPDEST PUSH2 0xA0B JUMP JUMPDEST CALLVALUE DUP1 ISZERO PUSH2 0x3DE JUMPI PUSH1 0x0 DUP1 REVERT JUMPDEST POP PUSH2 0x321 PUSH2 0xAA1 JUMP JUMPDEST CALLVALUE DUP1 ISZERO PUSH2 0x3F3 JUMPI PUSH1 0x0 DUP1 REVERT JUMPDEST POP PUSH2 0x321 PUSH2 0xAB8 JUMP JUMPDEST CALLVALUE DUP1 ISZERO PUSH2 0x408 JUMPI PUSH1 0x0 DUP1 REVERT JUMPDEST POP PUSH2 0x321 PUSH2 0xABF JUMP JUMPDEST CALLVALUE DUP1 ISZERO PUSH2 0x41D JUMPI PUSH1 0x0 DUP1 REVERT JUMPDEST POP PUSH2 0x321 PUSH2 0xACD JUMP JUMPDEST CALLVALUE DUP1 ISZERO PUSH2 0x432 JUMPI PUSH1 0x0 DUP1 REVERT JUMPDEST POP PUSH2 0x43B PUSH2 0xADB JUMP JUMPDEST PUSH1 0x40 MLOAD PUSH2 0x303 SWAP2 SWAP1 PUSH2 0x45A0 JUMP JUMPDEST CALLVALUE DUP1 ISZERO PUSH2 0x454 JUMPI PUSH1 0x0 DUP1 REVERT JUMPDEST POP PUSH2 0x468 PUSH2 0x463 CALLDATASIZE PUSH1 0x4 PUSH2 0x30EA JUMP JUMPDEST PUSH2 0xAEA JUMP JUMPDEST PUSH1 0x40 MLOAD PUSH2 0x303 SWAP5 SWAP4 SWAP3 SWAP2 SWAP1 PUSH2 0x468D JUMP JUMPDEST CALLVALUE DUP1 ISZERO PUSH2 0x484 JUMPI PUSH1 0x0 DUP1 REVERT JUMPDEST POP PUSH2 0x321 PUSH2 0xDB5 JUMP JUMPDEST CALLVALUE DUP1 ISZERO PUSH2 0x499 JUMPI PUSH1 0x0 DUP1 REVERT JUMPDEST POP PUSH2 0x370 PUSH2 0x4A8 CALLDATASIZE PUSH1 0x4 PUSH2 0x31DA JUMP JUMPDEST PUSH2 0xDBB JUMP JUMPDEST CALLVALUE DUP1 ISZERO PUSH2 0x4B9 JUMPI PUSH1 0x0 DUP1 REVERT JUMPDEST POP PUSH2 0x4CD PUSH2 0x4C8 CALLDATASIZE PUSH1 0x4 PUSH2 0x30EA JUMP JUMPDEST PUSH2 0xFBA JUMP JUMPDEST PUSH1 0x40 MLOAD PUSH2 0x303 SWAP2 SWAP1 PUSH2 0x4788 JUMP JUMPDEST CALLVALUE DUP1 ISZERO PUSH2 0x4E6 JUMPI PUSH1 0x0 DUP1 REVERT JUMPDEST POP PUSH2 0x370 PUSH2 0x4F5 CALLDATASIZE PUSH1 0x4 PUSH2 0x30EA JUMP JUMPDEST PUSH2 0x115A JUMP JUMPDEST CALLVALUE DUP1 ISZERO PUSH2 0x506 JUMPI PUSH1 0x0 DUP1 REVERT JUMPDEST POP PUSH2 0x370 PUSH2 0x515 CALLDATASIZE PUSH1 0x4 PUSH2 0x3142 JUMP JUMPDEST PUSH2 0x1486 JUMP JUMPDEST CALLVALUE DUP1 ISZERO PUSH2 0x526 JUMPI PUSH1 0x0 DUP1 REVERT JUMPDEST POP PUSH2 0x43B PUSH2 0x14D0 JUMP JUMPDEST CALLVALUE DUP1 ISZERO PUSH2 0x53B JUMPI PUSH1 0x0 DUP1 REVERT JUMPDEST POP PUSH2 0x370 PUSH2 0x54A CALLDATASIZE PUSH1 0x4 PUSH2 0x2F06 JUMP JUMPDEST PUSH2 0x14DF JUMP JUMPDEST CALLVALUE DUP1 ISZERO PUSH2 0x55B JUMPI PUSH1 0x0 DUP1 REVERT JUMPDEST POP PUSH2 0x321 PUSH2 0x16AF JUMP JUMPDEST CALLVALUE DUP1 ISZERO PUSH2 0x570 JUMPI PUSH1 0x0 DUP1 REVERT JUMPDEST POP PUSH2 0x370 PUSH2 0x57F CALLDATASIZE PUSH1 0x4 PUSH2 0x3172 JUMP JUMPDEST PUSH2 0x16BD JUMP JUMPDEST CALLVALUE DUP1 ISZERO PUSH2 0x590 JUMPI PUSH1 0x0 DUP1 REVERT JUMPDEST POP PUSH2 0x321 PUSH2 0x170D JUMP JUMPDEST CALLVALUE DUP1 ISZERO PUSH2 0x5A5 JUMPI PUSH1 0x0 DUP1 REVERT JUMPDEST POP PUSH2 0x370 PUSH2 0x1712 JUMP JUMPDEST CALLVALUE DUP1 ISZERO PUSH2 0x5BA JUMPI PUSH1 0x0 DUP1 REVERT JUMPDEST POP PUSH2 0x321 PUSH2 0x17DB JUMP JUMPDEST CALLVALUE DUP1 ISZERO PUSH2 0x5CF JUMPI PUSH1 0x0 DUP1 REVERT JUMPDEST POP PUSH2 0x5D8 PUSH2 0x17E2 JUMP JUMPDEST PUSH1 0x40 MLOAD PUSH2 0x303 SWAP2 SWAP1 PUSH2 0x477A JUMP JUMPDEST CALLVALUE DUP1 ISZERO PUSH2 0x5F1 JUMPI PUSH1 0x0 DUP1 REVERT JUMPDEST POP PUSH2 0x321 PUSH2 0x17F1 JUMP JUMPDEST CALLVALUE DUP1 ISZERO PUSH2 0x606 JUMPI PUSH1 0x0 DUP1 REVERT JUMPDEST POP PUSH2 0x321 PUSH2 0x17F8 JUMP JUMPDEST CALLVALUE DUP1 ISZERO PUSH2 0x61B JUMPI PUSH1 0x0 DUP1 REVERT JUMPDEST POP PUSH2 0x370 PUSH2 0x62A CALLDATASIZE PUSH1 0x4 PUSH2 0x2EE0 JUMP JUMPDEST PUSH2 0x17FE JUMP JUMPDEST CALLVALUE DUP1 ISZERO PUSH2 0x63B JUMPI PUSH1 0x0 DUP1 REVERT JUMPDEST POP PUSH2 0x5D8 PUSH2 0x1893 JUMP JUMPDEST CALLVALUE DUP1 ISZERO PUSH2 0x650 JUMPI PUSH1 0x0 DUP1 REVERT JUMPDEST POP PUSH2 0x5D8 PUSH2 0x18A2 JUMP JUMPDEST CALLVALUE DUP1 ISZERO PUSH2 0x665 JUMPI PUSH1 0x0 DUP1 REVERT JUMPDEST POP PUSH2 0x321 PUSH2 0x18B1 JUMP JUMPDEST CALLVALUE DUP1 ISZERO PUSH2 0x67A JUMPI PUSH1 0x0 DUP1 REVERT JUMPDEST POP PUSH2 0x321 PUSH2 0x689 CALLDATASIZE PUSH1 0x4 PUSH2 0x2F8D JUMP JUMPDEST PUSH2 0x18B7 JUMP JUMPDEST CALLVALUE DUP1 ISZERO PUSH2 0x69A JUMPI PUSH1 0x0 DUP1 REVERT JUMPDEST POP PUSH2 0x370 PUSH2 0x6A9 CALLDATASIZE PUSH1 0x4 PUSH2 0x30EA JUMP JUMPDEST PUSH2 0x1D77 JUMP JUMPDEST CALLVALUE DUP1 ISZERO PUSH2 0x6BA JUMPI PUSH1 0x0 DUP1 REVERT JUMPDEST POP PUSH2 0x321 PUSH2 0x2048 JUMP JUMPDEST CALLVALUE DUP1 ISZERO PUSH2 0x6CF JUMPI PUSH1 0x0 DUP1 REVERT JUMPDEST POP PUSH2 0x6E3 PUSH2 0x6DE CALLDATASIZE PUSH1 0x4 PUSH2 0x3108 JUMP JUMPDEST PUSH2 0x2054 JUMP JUMPDEST PUSH1 0x40 MLOAD PUSH2 0x303 SWAP2 SWAP1 PUSH2 0x4A07 JUMP JUMPDEST CALLVALUE DUP1 ISZERO PUSH2 0x6FC JUMPI PUSH1 0x0 DUP1 REVERT JUMPDEST POP PUSH2 0x321 PUSH2 0x20C6 JUMP JUMPDEST CALLVALUE DUP1 ISZERO PUSH2 0x711 JUMPI PUSH1 0x0 DUP1 REVERT JUMPDEST POP PUSH2 0x370 PUSH2 0x20CD JUMP JUMPDEST CALLVALUE DUP1 ISZERO PUSH2 0x726 JUMPI PUSH1 0x0 DUP1 REVERT JUMPDEST POP PUSH2 0x43B PUSH2 0x21C3 JUMP JUMPDEST CALLVALUE DUP1 ISZERO PUSH2 0x73B JUMPI PUSH1 0x0 DUP1 REVERT JUMPDEST POP PUSH2 0x321 PUSH2 0x21D2 JUMP JUMPDEST PUSH2 0x370 PUSH2 0x752 CALLDATASIZE PUSH1 0x4 PUSH2 0x30EA JUMP JUMPDEST PUSH2 0x21D8 JUMP JUMPDEST PUSH1 0xB PUSH1 0x20 SWAP1 DUP2 MSTORE PUSH1 0x0 SWAP2 DUP3 MSTORE PUSH1 0x40 SWAP2 DUP3 SWAP1 KECCAK256 DUP1 SLOAD PUSH1 0x1 DUP1 DUP4 ADD SLOAD PUSH1 0x2 DUP1 DUP6 ADD SLOAD PUSH1 0x7 DUP7 ADD DUP1 SLOAD DUP10 MLOAD PUSH2 0x100 SWAP7 DUP3 AND ISZERO SWAP7 SWAP1 SWAP7 MUL PUSH32 0xFFFFFFFFFFFFFFFFFFFFFFFFFFFFFFFFFFFFFFFFFFFFFFFFFFFFFFFFFFFFFFFF ADD AND SWAP3 SWAP1 SWAP3 DIV PUSH1 0x1F DUP2 ADD DUP9 SWAP1 DIV DUP9 MUL DUP6 ADD DUP9 ADD SWAP1 SWAP9 MSTORE DUP8 DUP5 MSTORE SWAP4 SWAP7 PUSH1 0x1 PUSH1 0x1 PUSH1 0xA0 SHL SUB SWAP1 SWAP3 AND SWAP6 SWAP4 SWAP5 SWAP4 SWAP1 SWAP2 SWAP1 DUP4 ADD DUP3 DUP3 DUP1 ISZERO PUSH2 0x829 JUMPI DUP1 PUSH1 0x1F LT PUSH2 0x7FE JUMPI PUSH2 0x100 DUP1 DUP4 SLOAD DIV MUL DUP4 MSTORE SWAP2 PUSH1 0x20 ADD SWAP2 PUSH2 0x829 JUMP JUMPDEST DUP3 ADD SWAP2 SWAP1 PUSH1 0x0 MSTORE PUSH1 0x20 PUSH1 0x0 KECCAK256 SWAP1 JUMPDEST DUP2 SLOAD DUP2 MSTORE SWAP1 PUSH1 0x1 ADD SWAP1 PUSH1 0x20 ADD DUP1 DUP4 GT PUSH2 0x80C JUMPI DUP3 SWAP1 SUB PUSH1 0x1F AND DUP3 ADD SWAP2 JUMPDEST POP POP POP POP PUSH1 0x8 DUP4 ADD SLOAD PUSH1 0x9 DUP5 ADD SLOAD PUSH1 0xA DUP6 ADD SLOAD PUSH1 0xB DUP7 ADD SLOAD PUSH1 0xC DUP8 ADD SLOAD PUSH1 0xD DUP9 ADD SLOAD PUSH1 0xE SWAP1 SWAP9 ADD SLOAD SWAP7 SWAP8 SWAP5 SWAP7 SWAP4 SWAP6 POP SWAP2 SWAP4 SWAP1 SWAP3 PUSH1 0xFF DUP1 DUP3 AND SWAP2 PUSH2 0x100 SWAP1 DIV AND DUP13 JUMP JUMPDEST PUSH1 0x4 SLOAD DUP2 JUMP JUMPDEST PUSH1 0x40 MLOAD DUP1 PUSH1 0x40 ADD PUSH1 0x40 MSTORE DUP1 PUSH1 0xD DUP2 MSTORE PUSH1 0x20 ADD PUSH32 0x426F626120476F7665726E6F7200000000000000000000000000000000000000 DUP2 MSTORE POP DUP2 JUMP JUMPDEST PUSH1 0x0 SLOAD PUSH1 0x1 PUSH1 0x1 PUSH1 0xA0 SHL SUB AND CALLER EQ PUSH2 0x8DD JUMPI PUSH1 0x40 MLOAD PUSH3 0x461BCD PUSH1 0xE5 SHL DUP2 MSTORE PUSH1 0x4 ADD PUSH2 0x8D4 SWAP1 PUSH2 0x47E7 JUMP JUMPDEST PUSH1 0x40 MLOAD DUP1 SWAP2 SUB SWAP1 REVERT JUMPDEST PUSH3 0x3F480 DUP2 LT ISZERO DUP1 ISZERO PUSH2 0x8F3 JUMPI POP PUSH3 0x127500 DUP2 GT ISZERO JUMPDEST PUSH2 0x90F JUMPI PUSH1 0x40 MLOAD PUSH3 0x461BCD PUSH1 0xE5 SHL DUP2 MSTORE PUSH1 0x4 ADD PUSH2 0x8D4 SWAP1 PUSH2 0x4837 JUMP JUMPDEST PUSH1 0x4 DUP1 SLOAD SWAP1 DUP3 SWAP1 SSTORE PUSH1 0x40 MLOAD PUSH32 0x7E3F7F0708A84DE9203036ABAA450DCCC85AD5FF52F78C170F3EDB55CF5E8828 SWAP1 PUSH2 0x949 SWAP1 DUP4 SWAP1 DUP6 SWAP1 PUSH2 0x4B77 JUMP JUMPDEST PUSH1 0x40 MLOAD DUP1 SWAP2 SUB SWAP1 LOG1 POP POP JUMP JUMPDEST PUSH1 0xC PUSH1 0x20 MSTORE PUSH1 0x0 SWAP1 DUP2 MSTORE PUSH1 0x40 SWAP1 KECCAK256 SLOAD DUP2 JUMP JUMPDEST PUSH1 0x0 SLOAD PUSH1 0x1 PUSH1 0x1 PUSH1 0xA0 SHL SUB AND CALLER EQ PUSH2 0x991 JUMPI PUSH1 0x40 MLOAD PUSH3 0x461BCD PUSH1 0xE5 SHL DUP2 MSTORE PUSH1 0x4 ADD PUSH2 0x8D4 SWAP1 PUSH2 0x49C7 JUMP JUMPDEST PUSH10 0xA968163F0A57B400000 DUP2 LT ISZERO DUP1 ISZERO PUSH2 0x9B5 JUMPI POP PUSH10 0x69E10DE76676D0800000 DUP2 GT ISZERO JUMPDEST PUSH2 0x9D1 JUMPI PUSH1 0x40 MLOAD PUSH3 0x461BCD PUSH1 0xE5 SHL DUP2 MSTORE PUSH1 0x4 ADD PUSH2 0x8D4 SWAP1 PUSH2 0x48D7 JUMP JUMPDEST PUSH1 0x5 DUP1 SLOAD SWAP1 DUP3 SWAP1 SSTORE PUSH1 0x40 MLOAD PUSH32 0xCCB45DA8D5717E6C4544694297C4BA5CF151D455C9BB0ED4FC7A38411BC05461 SWAP1 PUSH2 0x949 SWAP1 DUP4 SWAP1 DUP6 SWAP1 PUSH2 0x4B77 JUMP JUMPDEST PUSH1 0x0 SLOAD PUSH1 0x1 PUSH1 0x1 PUSH1 0xA0 SHL SUB AND CALLER EQ PUSH2 0xA35 JUMPI PUSH1 0x40 MLOAD PUSH3 0x461BCD PUSH1 0xE5 SHL DUP2 MSTORE PUSH1 0x4 ADD PUSH2 0x8D4 SWAP1 PUSH2 0x4807 JUMP JUMPDEST PUSH3 0x2A300 DUP2 LT ISZERO DUP1 ISZERO PUSH2 0xA4B JUMPI POP PUSH3 0x93A80 DUP2 GT ISZERO JUMPDEST PUSH2 0xA67 JUMPI PUSH1 0x40 MLOAD PUSH3 0x461BCD PUSH1 0xE5 SHL DUP2 MSTORE PUSH1 0x4 ADD PUSH2 0x8D4 SWAP1 PUSH2 0x4867 JUMP JUMPDEST PUSH1 0x3 DUP1 SLOAD SWAP1 DUP3 SWAP1 SSTORE PUSH1 0x40 MLOAD PUSH32 0xC565B045403DC03C2EEA82B81A0465EDAD9E2E7FC4D97E11421C209DA93D7A93 SWAP1 PUSH2 0x949 SWAP1 DUP4 SWAP1 DUP6 SWAP1 PUSH2 0x4B77 JUMP JUMPDEST PUSH1 0x40 MLOAD PUSH2 0xAAD SWAP1 PUSH2 0x4595 JUMP JUMPDEST PUSH1 0x40 MLOAD DUP1 SWAP2 SUB SWAP1 KECCAK256 DUP2 JUMP JUMPDEST PUSH3 0x3F480 DUP2 JUMP JUMPDEST PUSH10 0xD3C21BCECCEDA1000000 DUP2 JUMP JUMPDEST PUSH10 0x69E10DE76676D0800000 DUP2 JUMP JUMPDEST PUSH1 0x1 SLOAD PUSH1 0x1 PUSH1 0x1 PUSH1 0xA0 SHL SUB AND DUP2 JUMP JUMPDEST PUSH1 0x60 DUP1 PUSH1 0x60 DUP1 PUSH1 0x0 PUSH1 0xB PUSH1 0x0 DUP8 DUP2 MSTORE PUSH1 0x20 ADD SWAP1 DUP2 MSTORE PUSH1 0x20 ADD PUSH1 0x0 KECCAK256 SWAP1 POP DUP1 PUSH1 0x3 ADD DUP2 PUSH1 0x4 ADD DUP3 PUSH1 0x5 ADD DUP4 PUSH1 0x6 ADD DUP4 DUP1 SLOAD DUP1 PUSH1 0x20 MUL PUSH1 0x20 ADD PUSH1 0x40 MLOAD SWAP1 DUP2 ADD PUSH1 0x40 MSTORE DUP1 SWAP3 SWAP2 SWAP1 DUP2 DUP2 MSTORE PUSH1 0x20 ADD DUP3 DUP1 SLOAD DUP1 ISZERO PUSH2 0xB6C JUMPI PUSH1 0x20 MUL DUP3 ADD SWAP2 SWAP1 PUSH1 0x0 MSTORE PUSH1 0x20 PUSH1 0x0 KECCAK256 SWAP1 JUMPDEST DUP2 SLOAD PUSH1 0x1 PUSH1 0x1 PUSH1 0xA0 SHL SUB AND DUP2 MSTORE PUSH1 0x1 SWAP1 SWAP2 ADD SWAP1 PUSH1 0x20 ADD DUP1 DUP4 GT PUSH2 0xB4E JUMPI JUMPDEST POP POP POP POP POP SWAP4 POP DUP3 DUP1 SLOAD DUP1 PUSH1 0x20 MUL PUSH1 0x20 ADD PUSH1 0x40 MLOAD SWAP1 DUP2 ADD PUSH1 0x40 MSTORE DUP1 SWAP3 SWAP2 SWAP1 DUP2 DUP2 MSTORE PUSH1 0x20 ADD DUP3 DUP1 SLOAD DUP1 ISZERO PUSH2 0xBBE JUMPI PUSH1 0x20 MUL DUP3 ADD SWAP2 SWAP1 PUSH1 0x0 MSTORE PUSH1 0x20 PUSH1 0x0 KECCAK256 SWAP1 JUMPDEST DUP2 SLOAD DUP2 MSTORE PUSH1 0x20 ADD SWAP1 PUSH1 0x1 ADD SWAP1 DUP1 DUP4 GT PUSH2 0xBAA JUMPI JUMPDEST POP POP POP POP POP SWAP3 POP DUP2 DUP1 SLOAD DUP1 PUSH1 0x20 MUL PUSH1 0x20 ADD PUSH1 0x40 MLOAD SWAP1 DUP2 ADD PUSH1 0x40 MSTORE DUP1 SWAP3 SWAP2 SWAP1 DUP2 DUP2 MSTORE PUSH1 0x20 ADD PUSH1 0x0 SWAP1 JUMPDEST DUP3 DUP3 LT ISZERO PUSH2 0xCAF JUMPI PUSH1 0x0 DUP5 DUP2 MSTORE PUSH1 0x20 SWAP1 DUP2 SWAP1 KECCAK256 DUP4 ADD DUP1 SLOAD PUSH1 0x40 DUP1 MLOAD PUSH1 0x1F PUSH1 0x2 PUSH32 0xFFFFFFFFFFFFFFFFFFFFFFFFFFFFFFFFFFFFFFFFFFFFFFFFFFFFFFFFFFFFFFFF PUSH2 0x100 PUSH1 0x1 DUP8 AND ISZERO MUL ADD SWAP1 SWAP5 AND SWAP4 SWAP1 SWAP4 DIV SWAP3 DUP4 ADD DUP6 SWAP1 DIV DUP6 MUL DUP2 ADD DUP6 ADD SWAP1 SWAP2 MSTORE DUP2 DUP2 MSTORE SWAP3 DUP4 ADD DUP3 DUP3 DUP1 ISZERO PUSH2 0xC9B JUMPI DUP1 PUSH1 0x1F LT PUSH2 0xC70 JUMPI PUSH2 0x100 DUP1 DUP4 SLOAD DIV MUL DUP4 MSTORE SWAP2 PUSH1 0x20 ADD SWAP2 PUSH2 0xC9B JUMP JUMPDEST DUP3 ADD SWAP2 SWAP1 PUSH1 0x0 MSTORE PUSH1 0x20 PUSH1 0x0 KECCAK256 SWAP1 JUMPDEST DUP2 SLOAD DUP2 MSTORE SWAP1 PUSH1 0x1 ADD SWAP1 PUSH1 0x20 ADD DUP1 DUP4 GT PUSH2 0xC7E JUMPI DUP3 SWAP1 SUB PUSH1 0x1F AND DUP3 ADD SWAP2 JUMPDEST POP POP POP POP POP DUP2 MSTORE PUSH1 0x20 ADD SWAP1 PUSH1 0x1 ADD SWAP1 PUSH2 0xBE6 JUMP JUMPDEST POP POP POP POP SWAP2 POP DUP1 DUP1 SLOAD DUP1 PUSH1 0x20 MUL PUSH1 0x20 ADD PUSH1 0x40 MLOAD SWAP1 DUP2 ADD PUSH1 0x40 MSTORE DUP1 SWAP3 SWAP2 SWAP1 DUP2 DUP2 MSTORE PUSH1 0x20 ADD PUSH1 0x0 SWAP1 JUMPDEST DUP3 DUP3 LT ISZERO PUSH2 0xD9F JUMPI PUSH1 0x0 DUP5 DUP2 MSTORE PUSH1 0x20 SWAP1 DUP2 SWAP1 KECCAK256 DUP4 ADD DUP1 SLOAD PUSH1 0x40 DUP1 MLOAD PUSH1 0x1F PUSH1 0x2 PUSH32 0xFFFFFFFFFFFFFFFFFFFFFFFFFFFFFFFFFFFFFFFFFFFFFFFFFFFFFFFFFFFFFFFF PUSH2 0x100 PUSH1 0x1 DUP8 AND ISZERO MUL ADD SWAP1 SWAP5 AND SWAP4 SWAP1 SWAP4 DIV SWAP3 DUP4 ADD DUP6 SWAP1 DIV DUP6 MUL DUP2 ADD DUP6 ADD SWAP1 SWAP2 MSTORE DUP2 DUP2 MSTORE SWAP3 DUP4 ADD DUP3 DUP3 DUP1 ISZERO PUSH2 0xD8B JUMPI DUP1 PUSH1 0x1F LT PUSH2 0xD60 JUMPI PUSH2 0x100 DUP1 DUP4 SLOAD DIV MUL DUP4 MSTORE SWAP2 PUSH1 0x20 ADD SWAP2 PUSH2 0xD8B JUMP JUMPDEST DUP3 ADD SWAP2 SWAP1 PUSH1 0x0 MSTORE PUSH1 0x20 PUSH1 0x0 KECCAK256 SWAP1 JUMPDEST DUP2 SLOAD DUP2 MSTORE SWAP1 PUSH1 0x1 ADD SWAP1 PUSH1 0x20 ADD DUP1 DUP4 GT PUSH2 0xD6E JUMPI DUP3 SWAP1 SUB PUSH1 0x1F AND DUP3 ADD SWAP2 JUMPDEST POP POP POP POP POP DUP2 MSTORE PUSH1 0x20 ADD SWAP1 PUSH1 0x1 ADD SWAP1 PUSH2 0xCD6 JUMP JUMPDEST POP POP POP POP SWAP1 POP SWAP5 POP SWAP5 POP SWAP5 POP SWAP5 POP POP SWAP2 SWAP4 POP SWAP2 SWAP4 JUMP JUMPDEST PUSH1 0x3 SLOAD DUP2 JUMP JUMPDEST PUSH1 0x0 PUSH1 0x40 MLOAD PUSH2 0xDC9 SWAP1 PUSH2 0x4595 JUMP JUMPDEST PUSH1 0x40 DUP1 MLOAD SWAP2 DUP3 SWAP1 SUB DUP3 KECCAK256 DUP3 DUP3 ADD SWAP1 SWAP2 MSTORE PUSH1 0xD DUP3 MSTORE PUSH32 0x426F626120476F7665726E6F7200000000000000000000000000000000000000 PUSH1 0x20 SWAP1 SWAP3 ADD SWAP2 SWAP1 SWAP2 MSTORE PUSH32 0x1AD158C379CC8FB970052E59BE23591551A366DE2599EF65B8DF53F3F63B1B6E PUSH2 0xE30 PUSH2 0x23CC JUMP JUMPDEST ADDRESS PUSH1 0x40 MLOAD PUSH1 0x20 ADD PUSH2 0xE44 SWAP5 SWAP4 SWAP3 SWAP2 SWAP1 PUSH2 0x46E8 JUMP JUMPDEST PUSH1 0x40 MLOAD PUSH1 0x20 DUP2 DUP4 SUB SUB DUP2 MSTORE SWAP1 PUSH1 0x40 MSTORE DUP1 MLOAD SWAP1 PUSH1 0x20 ADD KECCAK256 SWAP1 POP PUSH1 0x0 PUSH1 0x40 MLOAD PUSH2 0xE6A SWAP1 PUSH2 0x4559 JUMP JUMPDEST PUSH1 0x40 MLOAD SWAP1 DUP2 SWAP1 SUB DUP2 KECCAK256 PUSH2 0xE83 SWAP2 DUP10 SWAP1 DUP10 SWAP1 PUSH1 0x20 ADD PUSH2 0x471D JUMP JUMPDEST PUSH1 0x40 MLOAD PUSH1 0x20 DUP2 DUP4 SUB SUB DUP2 MSTORE SWAP1 PUSH1 0x40 MSTORE DUP1 MLOAD SWAP1 PUSH1 0x20 ADD KECCAK256 SWAP1 POP PUSH1 0x0 DUP3 DUP3 PUSH1 0x40 MLOAD PUSH1 0x20 ADD PUSH2 0xEB0 SWAP3 SWAP2 SWAP1 PUSH2 0x4564 JUMP JUMPDEST PUSH1 0x40 MLOAD PUSH1 0x20 DUP2 DUP4 SUB SUB DUP2 MSTORE SWAP1 PUSH1 0x40 MSTORE DUP1 MLOAD SWAP1 PUSH1 0x20 ADD KECCAK256 SWAP1 POP PUSH1 0x0 PUSH1 0x1 DUP3 DUP9 DUP9 DUP9 PUSH1 0x40 MLOAD PUSH1 0x0 DUP2 MSTORE PUSH1 0x20 ADD PUSH1 0x40 MSTORE PUSH1 0x40 MLOAD PUSH2 0xEED SWAP5 SWAP4 SWAP3 SWAP2 SWAP1 PUSH2 0x4745 JUMP JUMPDEST PUSH1 0x20 PUSH1 0x40 MLOAD PUSH1 0x20 DUP2 SUB SWAP1 DUP1 DUP5 SUB SWAP1 DUP6 GAS STATICCALL ISZERO DUP1 ISZERO PUSH2 0xF0F JUMPI RETURNDATASIZE PUSH1 0x0 DUP1 RETURNDATACOPY RETURNDATASIZE PUSH1 0x0 REVERT JUMPDEST POP POP PUSH1 0x40 MLOAD PUSH32 0xFFFFFFFFFFFFFFFFFFFFFFFFFFFFFFFFFFFFFFFFFFFFFFFFFFFFFFFFFFFFFFE0 ADD MLOAD SWAP2 POP POP PUSH1 0x1 PUSH1 0x1 PUSH1 0xA0 SHL SUB DUP2 AND PUSH2 0xF60 JUMPI PUSH1 0x40 MLOAD PUSH3 0x461BCD PUSH1 0xE5 SHL DUP2 MSTORE PUSH1 0x4 ADD PUSH2 0x8D4 SWAP1 PUSH2 0x4897 JUMP JUMPDEST DUP1 PUSH1 0x1 PUSH1 0x1 PUSH1 0xA0 SHL SUB AND PUSH32 0xB8E138887D0AA13BAB447E82DE9D5C1777041ECD21CA36BA824FF1E6C07DDDA4 DUP11 DUP11 PUSH2 0xF98 DUP6 DUP15 DUP15 PUSH2 0x23D1 JUMP JUMPDEST PUSH1 0x40 MLOAD PUSH2 0xFA7 SWAP4 SWAP3 SWAP2 SWAP1 PUSH2 0x4BCB JUMP JUMPDEST PUSH1 0x40 MLOAD DUP1 SWAP2 SUB SWAP1 LOG2 POP POP POP POP POP POP POP POP POP JUMP JUMPDEST PUSH1 0x0 DUP2 PUSH1 0x7 SLOAD LT ISZERO DUP1 ISZERO PUSH2 0xFD0 JUMPI POP PUSH1 0x6 SLOAD DUP3 LT ISZERO JUMPDEST PUSH2 0xFEC JUMPI PUSH1 0x40 MLOAD PUSH3 0x461BCD PUSH1 0xE5 SHL DUP2 MSTORE PUSH1 0x4 ADD PUSH2 0x8D4 SWAP1 PUSH2 0x49D7 JUMP JUMPDEST PUSH1 0x0 DUP3 DUP2 MSTORE PUSH1 0xB PUSH1 0x20 MSTORE PUSH1 0x40 SWAP1 KECCAK256 PUSH1 0xE DUP2 ADD SLOAD PUSH1 0xFF AND ISZERO PUSH2 0x1011 JUMPI PUSH1 0x2 SWAP2 POP POP PUSH2 0x1155 JUMP JUMPDEST DUP1 PUSH1 0x9 ADD SLOAD TIMESTAMP GT PUSH2 0x1026 JUMPI PUSH1 0x0 SWAP2 POP POP PUSH2 0x1155 JUMP JUMPDEST DUP1 PUSH1 0xA ADD SLOAD TIMESTAMP GT PUSH2 0x103B JUMPI PUSH1 0x1 SWAP2 POP POP PUSH2 0x1155 JUMP JUMPDEST DUP1 PUSH1 0xC ADD SLOAD DUP2 PUSH1 0xB ADD SLOAD GT ISZERO DUP1 PUSH2 0x105F JUMPI POP PUSH10 0xD3C21BCECCEDA1000000 DUP2 PUSH1 0xB ADD SLOAD LT JUMPDEST ISZERO PUSH2 0x106E JUMPI PUSH1 0x3 SWAP2 POP POP PUSH2 0x1155 JUMP JUMPDEST PUSH1 0x2 DUP2 ADD SLOAD PUSH2 0x1081 JUMPI PUSH1 0x4 SWAP2 POP POP PUSH2 0x1155 JUMP JUMPDEST PUSH1 0xE DUP2 ADD SLOAD PUSH2 0x100 SWAP1 DIV PUSH1 0xFF AND ISZERO PUSH2 0x109D JUMPI PUSH1 0x7 SWAP2 POP POP PUSH2 0x1155 JUMP JUMPDEST PUSH1 0x2 DUP2 ADD SLOAD PUSH1 0x8 SLOAD PUSH1 0x40 DUP1 MLOAD PUSH32 0xC1A287E200000000000000000000000000000000000000000000000000000000 DUP2 MSTORE SWAP1 MLOAD PUSH2 0x113F SWAP4 SWAP3 PUSH1 0x1 PUSH1 0x1 PUSH1 0xA0 SHL SUB AND SWAP2 PUSH4 0xC1A287E2 SWAP2 PUSH1 0x4 DUP1 DUP4 ADD SWAP3 PUSH1 0x20 SWAP3 SWAP2 SWAP1 DUP3 SWAP1 SUB ADD DUP2 DUP7 DUP1 EXTCODESIZE ISZERO DUP1 ISZERO PUSH2 0x1102 JUMPI PUSH1 0x0 DUP1 REVERT JUMPDEST POP GAS STATICCALL ISZERO DUP1 ISZERO PUSH2 0x1116 JUMPI RETURNDATASIZE PUSH1 0x0 DUP1 RETURNDATACOPY RETURNDATASIZE PUSH1 0x0 REVERT JUMPDEST POP POP POP POP PUSH1 0x40 MLOAD RETURNDATASIZE PUSH1 0x1F NOT PUSH1 0x1F DUP3 ADD AND DUP3 ADD DUP1 PUSH1 0x40 MSTORE POP PUSH2 0x113A SWAP2 SWAP1 DUP2 ADD SWAP1 PUSH2 0x3097 JUMP JUMPDEST PUSH2 0x26AC JUMP JUMPDEST TIMESTAMP LT PUSH2 0x114F JUMPI PUSH1 0x6 SWAP2 POP POP PUSH2 0x1155 JUMP JUMPDEST PUSH1 0x5 SWAP2 POP POP JUMPDEST SWAP2 SWAP1 POP JUMP JUMPDEST PUSH1 0x7 PUSH2 0x1165 DUP3 PUSH2 0xFBA JUMP JUMPDEST PUSH1 0x7 DUP2 GT ISZERO PUSH2 0x1170 JUMPI INVALID JUMPDEST EQ ISZERO PUSH2 0x118E JUMPI PUSH1 0x40 MLOAD PUSH3 0x461BCD PUSH1 0xE5 SHL DUP2 MSTORE PUSH1 0x4 ADD PUSH2 0x8D4 SWAP1 PUSH2 0x49A7 JUMP JUMPDEST PUSH1 0x0 DUP2 DUP2 MSTORE PUSH1 0xB PUSH1 0x20 MSTORE PUSH1 0x40 SWAP1 KECCAK256 PUSH1 0x1 DUP2 ADD SLOAD PUSH1 0x1 PUSH1 0x1 PUSH1 0xA0 SHL SUB AND CALLER EQ DUP1 PUSH2 0x1310 JUMPI POP PUSH1 0x5 SLOAD PUSH1 0xA SLOAD PUSH1 0x1 DUP4 DUP2 ADD SLOAD PUSH2 0x1300 SWAP3 PUSH1 0x1 PUSH1 0x1 PUSH1 0xA0 SHL SUB SWAP1 DUP2 AND SWAP3 PUSH4 0x782D6FE1 SWAP3 SWAP1 SWAP2 AND SWAP1 PUSH2 0x11E3 SWAP1 NUMBER SWAP1 PUSH2 0x26D1 JUMP JUMPDEST PUSH1 0x40 MLOAD DUP4 PUSH4 0xFFFFFFFF AND PUSH1 0xE0 SHL DUP2 MSTORE PUSH1 0x4 ADD PUSH2 0x1200 SWAP3 SWAP2 SWAP1 PUSH2 0x45E4 JUMP JUMPDEST PUSH1 0x20 PUSH1 0x40 MLOAD DUP1 DUP4 SUB DUP2 DUP7 DUP1 EXTCODESIZE ISZERO DUP1 ISZERO PUSH2 0x1218 JUMPI PUSH1 0x0 DUP1 REVERT JUMPDEST POP GAS STATICCALL ISZERO DUP1 ISZERO PUSH2 0x122C JUMPI RETURNDATASIZE PUSH1 0x0 DUP1 RETURNDATACOPY RETURNDATASIZE PUSH1 0x0 REVERT JUMPDEST POP POP POP POP PUSH1 0x40 MLOAD RETURNDATASIZE PUSH1 0x1F NOT PUSH1 0x1F DUP3 ADD AND DUP3 ADD DUP1 PUSH1 0x40 MSTORE POP PUSH2 0x1250 SWAP2 SWAP1 DUP2 ADD SWAP1 PUSH2 0x3242 JUMP JUMPDEST PUSH1 0x9 SLOAD PUSH1 0x1 DUP6 DUP2 ADD SLOAD PUSH1 0x1 PUSH1 0x1 PUSH1 0xA0 SHL SUB SWAP3 DUP4 AND SWAP3 PUSH4 0x782D6FE1 SWAP3 SWAP2 AND SWAP1 PUSH2 0x1279 SWAP1 NUMBER SWAP1 PUSH2 0x26D1 JUMP JUMPDEST PUSH1 0x40 MLOAD DUP4 PUSH4 0xFFFFFFFF AND PUSH1 0xE0 SHL DUP2 MSTORE PUSH1 0x4 ADD PUSH2 0x1296 SWAP3 SWAP2 SWAP1 PUSH2 0x45E4 JUMP JUMPDEST PUSH1 0x20 PUSH1 0x40 MLOAD DUP1 DUP4 SUB DUP2 DUP7 DUP1 EXTCODESIZE ISZERO DUP1 ISZERO PUSH2 0x12AE JUMPI PUSH1 0x0 DUP1 REVERT JUMPDEST POP GAS STATICCALL ISZERO DUP1 ISZERO PUSH2 0x12C2 JUMPI RETURNDATASIZE PUSH1 0x0 DUP1 RETURNDATACOPY RETURNDATASIZE PUSH1 0x0 REVERT JUMPDEST POP POP POP POP PUSH1 0x40 MLOAD RETURNDATASIZE PUSH1 0x1F NOT PUSH1 0x1F DUP3 ADD AND DUP3 ADD DUP1 PUSH1 0x40 MSTORE POP PUSH2 0x12E6 SWAP2 SWAP1 DUP2 ADD SWAP1 PUSH2 0x3242 JUMP JUMPDEST PUSH12 0xFFFFFFFFFFFFFFFFFFFFFFFF AND SWAP1 PUSH4 0xFFFFFFFF PUSH2 0x26F9 AND JUMP JUMPDEST PUSH12 0xFFFFFFFFFFFFFFFFFFFFFFFF AND LT JUMPDEST PUSH2 0x132C JUMPI PUSH1 0x40 MLOAD PUSH3 0x461BCD PUSH1 0xE5 SHL DUP2 MSTORE PUSH1 0x4 ADD PUSH2 0x8D4 SWAP1 PUSH2 0x4937 JUMP JUMPDEST PUSH1 0xE DUP2 ADD DUP1 SLOAD PUSH32 0xFFFFFFFFFFFFFFFFFFFFFFFFFFFFFFFFFFFFFFFFFFFFFFFFFFFFFFFFFFFFFF00 AND PUSH1 0x1 OR SWAP1 SSTORE PUSH1 0x0 JUMPDEST PUSH1 0x3 DUP3 ADD SLOAD DUP2 LT ISZERO PUSH2 0x1456 JUMPI PUSH1 0x8 SLOAD PUSH1 0x3 DUP4 ADD DUP1 SLOAD PUSH1 0x1 PUSH1 0x1 PUSH1 0xA0 SHL SUB SWAP1 SWAP3 AND SWAP2 PUSH4 0x591FCDFE SWAP2 SWAP1 DUP5 SWAP1 DUP2 LT PUSH2 0x138E JUMPI INVALID JUMPDEST PUSH1 0x0 SWAP2 DUP3 MSTORE PUSH1 0x20 SWAP1 SWAP2 KECCAK256 ADD SLOAD PUSH1 0x4 DUP6 ADD DUP1 SLOAD PUSH1 0x1 PUSH1 0x1 PUSH1 0xA0 SHL SUB SWAP1 SWAP3 AND SWAP2 DUP6 SWAP1 DUP2 LT PUSH2 0x13B6 JUMPI INVALID JUMPDEST SWAP1 PUSH1 0x0 MSTORE PUSH1 0x20 PUSH1 0x0 KECCAK256 ADD SLOAD DUP6 PUSH1 0x5 ADD DUP6 DUP2 SLOAD DUP2 LT PUSH2 0x13D0 JUMPI INVALID JUMPDEST SWAP1 PUSH1 0x0 MSTORE PUSH1 0x20 PUSH1 0x0 KECCAK256 ADD DUP7 PUSH1 0x6 ADD DUP7 DUP2 SLOAD DUP2 LT PUSH2 0x13E9 JUMPI INVALID JUMPDEST SWAP1 PUSH1 0x0 MSTORE PUSH1 0x20 PUSH1 0x0 KECCAK256 ADD DUP8 PUSH1 0x2 ADD SLOAD PUSH1 0x40 MLOAD DUP7 PUSH4 0xFFFFFFFF AND PUSH1 0xE0 SHL DUP2 MSTORE PUSH1 0x4 ADD PUSH2 0x1418 SWAP6 SWAP5 SWAP4 SWAP3 SWAP2 SWAP1 PUSH2 0x464C JUMP JUMPDEST PUSH1 0x0 PUSH1 0x40 MLOAD DUP1 DUP4 SUB DUP2 PUSH1 0x0 DUP8 DUP1 EXTCODESIZE ISZERO DUP1 ISZERO PUSH2 0x1432 JUMPI PUSH1 0x0 DUP1 REVERT JUMPDEST POP GAS CALL ISZERO DUP1 ISZERO PUSH2 0x1446 JUMPI RETURNDATASIZE PUSH1 0x0 DUP1 RETURNDATACOPY RETURNDATASIZE PUSH1 0x0 REVERT JUMPDEST POP POP PUSH1 0x1 SWAP1 SWAP3 ADD SWAP2 POP PUSH2 0x135C SWAP1 POP JUMP JUMPDEST POP PUSH32 0x789CF55BE980739DAD1D0699B93B58E806B51C9D96619BFA8FE0A28ABAA7B30C DUP3 PUSH1 0x40 MLOAD PUSH2 0x949 SWAP2 SWAP1 PUSH2 0x46DA JUMP JUMPDEST CALLER PUSH32 0xB8E138887D0AA13BAB447E82DE9D5C1777041ECD21CA36BA824FF1E6C07DDDA4 DUP4 DUP4 PUSH2 0x14B5 DUP5 DUP4 DUP4 PUSH2 0x23D1 JUMP JUMPDEST PUSH1 0x40 MLOAD PUSH2 0x14C4 SWAP4 SWAP3 SWAP2 SWAP1 PUSH2 0x4BCB JUMP JUMPDEST PUSH1 0x40 MLOAD DUP1 SWAP2 SUB SWAP1 LOG2 POP POP JUMP JUMPDEST PUSH1 0x2 SLOAD PUSH1 0x1 PUSH1 0x1 PUSH1 0xA0 SHL SUB AND DUP2 JUMP JUMPDEST PUSH1 0x8 SLOAD PUSH1 0x1 PUSH1 0x1 PUSH1 0xA0 SHL SUB AND ISZERO PUSH2 0x1508 JUMPI PUSH1 0x40 MLOAD PUSH3 0x461BCD PUSH1 0xE5 SHL DUP2 MSTORE PUSH1 0x4 ADD PUSH2 0x8D4 SWAP1 PUSH2 0x47B7 JUMP JUMPDEST PUSH1 0x0 SLOAD PUSH1 0x1 PUSH1 0x1 PUSH1 0xA0 SHL SUB AND CALLER EQ PUSH2 0x1532 JUMPI PUSH1 0x40 MLOAD PUSH3 0x461BCD PUSH1 0xE5 SHL DUP2 MSTORE PUSH1 0x4 ADD PUSH2 0x8D4 SWAP1 PUSH2 0x48C7 JUMP JUMPDEST PUSH1 0x1 PUSH1 0x1 PUSH1 0xA0 SHL SUB DUP7 AND PUSH2 0x1558 JUMPI PUSH1 0x40 MLOAD PUSH3 0x461BCD PUSH1 0xE5 SHL DUP2 MSTORE PUSH1 0x4 ADD PUSH2 0x8D4 SWAP1 PUSH2 0x47F7 JUMP JUMPDEST PUSH1 0x1 PUSH1 0x1 PUSH1 0xA0 SHL SUB DUP6 AND PUSH2 0x157E JUMPI PUSH1 0x40 MLOAD PUSH3 0x461BCD PUSH1 0xE5 SHL DUP2 MSTORE PUSH1 0x4 ADD PUSH2 0x8D4 SWAP1 PUSH2 0x4967 JUMP JUMPDEST PUSH1 0x1 PUSH1 0x1 PUSH1 0xA0 SHL SUB DUP5 AND PUSH2 0x15A4 JUMPI PUSH1 0x40 MLOAD PUSH3 0x461BCD PUSH1 0xE5 SHL DUP2 MSTORE PUSH1 0x4 ADD PUSH2 0x8D4 SWAP1 PUSH2 0x49B7 JUMP JUMPDEST PUSH3 0x3F480 DUP4 LT ISZERO DUP1 ISZERO PUSH2 0x15BA JUMPI POP PUSH3 0x127500 DUP4 GT ISZERO JUMPDEST PUSH2 0x15D6 JUMPI PUSH1 0x40 MLOAD PUSH3 0x461BCD PUSH1 0xE5 SHL DUP2 MSTORE PUSH1 0x4 ADD PUSH2 0x8D4 SWAP1 PUSH2 0x49E7 JUMP JUMPDEST PUSH3 0x2A300 DUP3 LT ISZERO DUP1 ISZERO PUSH2 0x15EC JUMPI POP PUSH3 0x93A80 DUP3 GT ISZERO JUMPDEST PUSH2 0x1608 JUMPI PUSH1 0x40 MLOAD PUSH3 0x461BCD PUSH1 0xE5 SHL DUP2 MSTORE PUSH1 0x4 ADD PUSH2 0x8D4 SWAP1 PUSH2 0x48A7 JUMP JUMPDEST PUSH10 0xA968163F0A57B400000 DUP2 LT ISZERO DUP1 ISZERO PUSH2 0x162C JUMPI POP PUSH10 0x69E10DE76676D0800000 DUP2 GT ISZERO JUMPDEST PUSH2 0x1648 JUMPI PUSH1 0x40 MLOAD PUSH3 0x461BCD PUSH1 0xE5 SHL DUP2 MSTORE PUSH1 0x4 ADD PUSH2 0x8D4 SWAP1 PUSH2 0x4877 JUMP JUMPDEST PUSH1 0x8 DUP1 SLOAD PUSH32 0xFFFFFFFFFFFFFFFFFFFFFFFF0000000000000000000000000000000000000000 SWAP1 DUP2 AND PUSH1 0x1 PUSH1 0x1 PUSH1 0xA0 SHL SUB SWAP9 DUP10 AND OR SWAP1 SWAP2 SSTORE PUSH1 0x9 DUP1 SLOAD DUP3 AND SWAP7 DUP9 AND SWAP7 SWAP1 SWAP7 OR SWAP1 SWAP6 SSTORE PUSH1 0xA DUP1 SLOAD SWAP1 SWAP6 AND SWAP4 SWAP1 SWAP6 AND SWAP3 SWAP1 SWAP3 OR SWAP1 SWAP3 SSTORE PUSH1 0x4 SWAP2 SWAP1 SWAP2 SSTORE PUSH1 0x3 SSTORE PUSH1 0x5 SSTORE JUMP JUMPDEST PUSH10 0xA968163F0A57B400000 DUP2 JUMP JUMPDEST CALLER PUSH32 0xB8E138887D0AA13BAB447E82DE9D5C1777041ECD21CA36BA824FF1E6C07DDDA4 DUP6 DUP6 PUSH2 0x16EC DUP5 DUP4 DUP4 PUSH2 0x23D1 JUMP JUMPDEST DUP7 DUP7 PUSH1 0x40 MLOAD PUSH2 0x16FF SWAP6 SWAP5 SWAP4 SWAP3 SWAP2 SWAP1 PUSH2 0x4B85 JUMP JUMPDEST PUSH1 0x40 MLOAD DUP1 SWAP2 SUB SWAP1 LOG2 POP POP POP POP JUMP JUMPDEST PUSH1 0xA DUP2 JUMP JUMPDEST PUSH1 0x0 SLOAD PUSH1 0x1 PUSH1 0x1 PUSH1 0xA0 SHL SUB AND CALLER EQ PUSH2 0x173C JUMPI PUSH1 0x40 MLOAD PUSH3 0x461BCD PUSH1 0xE5 SHL DUP2 MSTORE PUSH1 0x4 ADD PUSH2 0x8D4 SWAP1 PUSH2 0x4987 JUMP JUMPDEST PUSH1 0x6 SLOAD ISZERO PUSH2 0x175C JUMPI PUSH1 0x40 MLOAD PUSH3 0x461BCD PUSH1 0xE5 SHL DUP2 MSTORE PUSH1 0x4 ADD PUSH2 0x8D4 SWAP1 PUSH2 0x4907 JUMP JUMPDEST PUSH1 0x0 PUSH1 0x7 DUP2 SWAP1 SSTORE PUSH1 0x1 PUSH1 0x6 SSTORE PUSH1 0x8 SLOAD PUSH1 0x40 DUP1 MLOAD PUSH32 0xE18B68100000000000000000000000000000000000000000000000000000000 DUP2 MSTORE SWAP1 MLOAD PUSH1 0x1 PUSH1 0x1 PUSH1 0xA0 SHL SUB SWAP1 SWAP3 AND SWAP3 PUSH4 0xE18B681 SWAP3 PUSH1 0x4 DUP1 DUP5 ADD SWAP4 DUP3 SWAP1 SUB ADD DUP2 DUP4 DUP8 DUP1 EXTCODESIZE ISZERO DUP1 ISZERO PUSH2 0x17C1 JUMPI PUSH1 0x0 DUP1 REVERT JUMPDEST POP GAS CALL ISZERO DUP1 ISZERO PUSH2 0x17D5 JUMPI RETURNDATASIZE PUSH1 0x0 DUP1 RETURNDATACOPY RETURNDATASIZE PUSH1 0x0 REVERT JUMPDEST POP POP POP POP JUMP JUMPDEST PUSH3 0x127500 DUP2 JUMP JUMPDEST PUSH1 0xA SLOAD PUSH1 0x1 PUSH1 0x1 PUSH1 0xA0 SHL SUB AND DUP2 JUMP JUMPDEST PUSH3 0x93A80 DUP2 JUMP JUMPDEST PUSH1 0x5 SLOAD DUP2 JUMP JUMPDEST PUSH1 0x0 SLOAD PUSH1 0x1 PUSH1 0x1 PUSH1 0xA0 SHL SUB AND CALLER EQ PUSH2 0x1828 JUMPI PUSH1 0x40 MLOAD PUSH3 0x461BCD PUSH1 0xE5 SHL DUP2 MSTORE PUSH1 0x4 ADD PUSH2 0x8D4 SWAP1 PUSH2 0x47C7 JUMP JUMPDEST PUSH1 0x1 DUP1 SLOAD PUSH1 0x1 PUSH1 0x1 PUSH1 0xA0 SHL SUB DUP4 DUP2 AND PUSH32 0xFFFFFFFFFFFFFFFFFFFFFFFF0000000000000000000000000000000000000000 DUP4 AND OR SWAP1 SWAP3 SSTORE PUSH1 0x40 MLOAD SWAP2 AND SWAP1 PUSH32 0xCA4F2F25D0898EDD99413412FB94012F9E54EC8142F9B093E7720646A95B16A9 SWAP1 PUSH2 0x949 SWAP1 DUP4 SWAP1 DUP6 SWAP1 PUSH2 0x45C9 JUMP JUMPDEST PUSH1 0x9 SLOAD PUSH1 0x1 PUSH1 0x1 PUSH1 0xA0 SHL SUB AND DUP2 JUMP JUMPDEST PUSH1 0x8 SLOAD PUSH1 0x1 PUSH1 0x1 PUSH1 0xA0 SHL SUB AND DUP2 JUMP JUMPDEST PUSH1 0x7 SLOAD DUP2 JUMP JUMPDEST PUSH1 0x0 PUSH1 0x6 SLOAD PUSH1 0x0 EQ ISZERO PUSH2 0x18DC JUMPI PUSH1 0x40 MLOAD PUSH3 0x461BCD PUSH1 0xE5 SHL DUP2 MSTORE PUSH1 0x4 ADD PUSH2 0x8D4 SWAP1 PUSH2 0x4817 JUMP JUMPDEST PUSH1 0x5 SLOAD PUSH1 0xA SLOAD PUSH2 0x19A7 SWAP1 PUSH1 0x1 PUSH1 0x1 PUSH1 0xA0 SHL SUB AND PUSH4 0x782D6FE1 CALLER PUSH2 0x1900 NUMBER PUSH1 0x1 PUSH2 0x26D1 JUMP JUMPDEST PUSH1 0x40 MLOAD DUP4 PUSH4 0xFFFFFFFF AND PUSH1 0xE0 SHL DUP2 MSTORE PUSH1 0x4 ADD PUSH2 0x191D SWAP3 SWAP2 SWAP1 PUSH2 0x45AE JUMP JUMPDEST PUSH1 0x20 PUSH1 0x40 MLOAD DUP1 DUP4 SUB DUP2 DUP7 DUP1 EXTCODESIZE ISZERO DUP1 ISZERO PUSH2 0x1935 JUMPI PUSH1 0x0 DUP1 REVERT JUMPDEST POP GAS STATICCALL ISZERO DUP1 ISZERO PUSH2 0x1949 JUMPI RETURNDATASIZE PUSH1 0x0 DUP1 RETURNDATACOPY RETURNDATASIZE PUSH1 0x0 REVERT JUMPDEST POP POP POP POP PUSH1 0x40 MLOAD RETURNDATASIZE PUSH1 0x1F NOT PUSH1 0x1F DUP3 ADD AND DUP3 ADD DUP1 PUSH1 0x40 MSTORE POP PUSH2 0x196D SWAP2 SWAP1 DUP2 ADD SWAP1 PUSH2 0x3242 JUMP JUMPDEST PUSH1 0x9 SLOAD PUSH1 0x1 PUSH1 0x1 PUSH1 0xA0 SHL SUB AND PUSH4 0x782D6FE1 CALLER PUSH2 0x198A NUMBER PUSH1 0x1 PUSH2 0x26D1 JUMP JUMPDEST PUSH1 0x40 MLOAD DUP4 PUSH4 0xFFFFFFFF AND PUSH1 0xE0 SHL DUP2 MSTORE PUSH1 0x4 ADD PUSH2 0x1296 SWAP3 SWAP2 SWAP1 PUSH2 0x45AE JUMP JUMPDEST PUSH12 0xFFFFFFFFFFFFFFFFFFFFFFFF AND GT PUSH2 0x19D2 JUMPI PUSH1 0x40 MLOAD PUSH3 0x461BCD PUSH1 0xE5 SHL DUP2 MSTORE PUSH1 0x4 ADD PUSH2 0x8D4 SWAP1 PUSH2 0x4997 JUMP JUMPDEST DUP5 MLOAD DUP7 MLOAD EQ DUP1 ISZERO PUSH2 0x19E4 JUMPI POP DUP4 MLOAD DUP7 MLOAD EQ JUMPDEST DUP1 ISZERO PUSH2 0x19F1 JUMPI POP DUP3 MLOAD DUP7 MLOAD EQ JUMPDEST PUSH2 0x1A0D JUMPI PUSH1 0x40 MLOAD PUSH3 0x461BCD PUSH1 0xE5 SHL DUP2 MSTORE PUSH1 0x4 ADD PUSH2 0x8D4 SWAP1 PUSH2 0x48B7 JUMP JUMPDEST DUP6 MLOAD PUSH2 0x1A2B JUMPI PUSH1 0x40 MLOAD PUSH3 0x461BCD PUSH1 0xE5 SHL DUP2 MSTORE PUSH1 0x4 ADD PUSH2 0x8D4 SWAP1 PUSH2 0x4917 JUMP JUMPDEST PUSH1 0xA DUP7 MLOAD GT ISZERO PUSH2 0x1A4D JUMPI PUSH1 0x40 MLOAD PUSH3 0x461BCD PUSH1 0xE5 SHL DUP2 MSTORE PUSH1 0x4 ADD PUSH2 0x8D4 SWAP1 PUSH2 0x4947 JUMP JUMPDEST CALLER PUSH1 0x0 SWAP1 DUP2 MSTORE PUSH1 0xC PUSH1 0x20 MSTORE PUSH1 0x40 SWAP1 KECCAK256 SLOAD DUP1 ISZERO PUSH2 0x1ACA JUMPI PUSH1 0x0 PUSH2 0x1A6E DUP3 PUSH2 0xFBA JUMP JUMPDEST SWAP1 POP PUSH1 0x1 DUP2 PUSH1 0x7 DUP2 GT ISZERO PUSH2 0x1A7E JUMPI INVALID JUMPDEST EQ ISZERO PUSH2 0x1A9C JUMPI PUSH1 0x40 MLOAD PUSH3 0x461BCD PUSH1 0xE5 SHL DUP2 MSTORE PUSH1 0x4 ADD PUSH2 0x8D4 SWAP1 PUSH2 0x4977 JUMP JUMPDEST PUSH1 0x0 DUP2 PUSH1 0x7 DUP2 GT ISZERO PUSH2 0x1AAA JUMPI INVALID JUMPDEST EQ ISZERO PUSH2 0x1AC8 JUMPI PUSH1 0x40 MLOAD PUSH3 0x461BCD PUSH1 0xE5 SHL DUP2 MSTORE PUSH1 0x4 ADD PUSH2 0x8D4 SWAP1 PUSH2 0x4957 JUMP JUMPDEST POP JUMPDEST PUSH1 0x0 PUSH2 0x1AD8 TIMESTAMP PUSH1 0x3 SLOAD PUSH2 0x26AC JUMP JUMPDEST SWAP1 POP PUSH1 0x0 PUSH2 0x1AE8 DUP3 PUSH1 0x4 SLOAD PUSH2 0x26AC JUMP JUMPDEST PUSH1 0x7 DUP1 SLOAD PUSH1 0x1 ADD SWAP1 SSTORE SWAP1 POP PUSH2 0x1AFB PUSH2 0x28A7 JUMP JUMPDEST PUSH1 0x40 MLOAD DUP1 PUSH2 0x200 ADD PUSH1 0x40 MSTORE DUP1 PUSH1 0x7 SLOAD DUP2 MSTORE PUSH1 0x20 ADD CALLER PUSH1 0x1 PUSH1 0x1 PUSH1 0xA0 SHL SUB AND DUP2 MSTORE PUSH1 0x20 ADD PUSH1 0x0 DUP2 MSTORE PUSH1 0x20 ADD DUP12 DUP2 MSTORE PUSH1 0x20 ADD DUP11 DUP2 MSTORE PUSH1 0x20 ADD DUP10 DUP2 MSTORE PUSH1 0x20 ADD DUP9 DUP2 MSTORE PUSH1 0x20 ADD DUP8 DUP2 MSTORE PUSH1 0x20 ADD PUSH1 0x0 DUP2 MSTORE PUSH1 0x20 ADD DUP5 DUP2 MSTORE PUSH1 0x20 ADD DUP4 DUP2 MSTORE PUSH1 0x20 ADD PUSH1 0x0 DUP2 MSTORE PUSH1 0x20 ADD PUSH1 0x0 DUP2 MSTORE PUSH1 0x20 ADD PUSH1 0x0 DUP2 MSTORE PUSH1 0x20 ADD PUSH1 0x0 ISZERO ISZERO DUP2 MSTORE PUSH1 0x20 ADD PUSH1 0x0 ISZERO ISZERO DUP2 MSTORE POP SWAP1 POP DUP1 PUSH1 0xB PUSH1 0x0 DUP4 PUSH1 0x0 ADD MLOAD DUP2 MSTORE PUSH1 0x20 ADD SWAP1 DUP2 MSTORE PUSH1 0x20 ADD PUSH1 0x0 KECCAK256 PUSH1 0x0 DUP3 ADD MLOAD DUP2 PUSH1 0x0 ADD SSTORE PUSH1 0x20 DUP3 ADD MLOAD DUP2 PUSH1 0x1 ADD PUSH1 0x0 PUSH2 0x100 EXP DUP2 SLOAD DUP2 PUSH1 0x1 PUSH1 0x1 PUSH1 0xA0 SHL SUB MUL NOT AND SWAP1 DUP4 PUSH1 0x1 PUSH1 0x1 PUSH1 0xA0 SHL SUB AND MUL OR SWAP1 SSTORE POP PUSH1 0x40 DUP3 ADD MLOAD DUP2 PUSH1 0x2 ADD SSTORE PUSH1 0x60 DUP3 ADD MLOAD DUP2 PUSH1 0x3 ADD SWAP1 DUP1 MLOAD SWAP1 PUSH1 0x20 ADD SWAP1 PUSH2 0x1BF2 SWAP3 SWAP2 SWAP1 PUSH2 0x2931 JUMP JUMPDEST POP PUSH1 0x80 DUP3 ADD MLOAD DUP1 MLOAD PUSH2 0x1C0E SWAP2 PUSH1 0x4 DUP5 ADD SWAP2 PUSH1 0x20 SWAP1 SWAP2 ADD SWAP1 PUSH2 0x29AE JUMP JUMPDEST POP PUSH1 0xA0 DUP3 ADD MLOAD DUP1 MLOAD PUSH2 0x1C2A SWAP2 PUSH1 0x5 DUP5 ADD SWAP2 PUSH1 0x20 SWAP1 SWAP2 ADD SWAP1 PUSH2 0x29F5 JUMP JUMPDEST POP PUSH1 0xC0 DUP3 ADD MLOAD DUP1 MLOAD PUSH2 0x1C46 SWAP2 PUSH1 0x6 DUP5 ADD SWAP2 PUSH1 0x20 SWAP1 SWAP2 ADD SWAP1 PUSH2 0x2A4E JUMP JUMPDEST POP PUSH1 0xE0 DUP3 ADD MLOAD DUP1 MLOAD PUSH2 0x1C62 SWAP2 PUSH1 0x7 DUP5 ADD SWAP2 PUSH1 0x20 SWAP1 SWAP2 ADD SWAP1 PUSH2 0x2AA7 JUMP JUMPDEST POP PUSH2 0x100 DUP3 ADD MLOAD DUP2 PUSH1 0x8 ADD SSTORE PUSH2 0x120 DUP3 ADD MLOAD DUP2 PUSH1 0x9 ADD SSTORE PUSH2 0x140 DUP3 ADD MLOAD DUP2 PUSH1 0xA ADD SSTORE PUSH2 0x160 DUP3 ADD MLOAD DUP2 PUSH1 0xB ADD SSTORE PUSH2 0x180 DUP3 ADD MLOAD DUP2 PUSH1 0xC ADD SSTORE PUSH2 0x1A0 DUP3 ADD MLOAD DUP2 PUSH1 0xD ADD SSTORE PUSH2 0x1C0 DUP3 ADD MLOAD DUP2 PUSH1 0xE ADD PUSH1 0x0 PUSH2 0x100 EXP DUP2 SLOAD DUP2 PUSH1 0xFF MUL NOT AND SWAP1 DUP4 ISZERO ISZERO MUL OR SWAP1 SSTORE POP PUSH2 0x1E0 DUP3 ADD MLOAD DUP2 PUSH1 0xE ADD PUSH1 0x1 PUSH2 0x100 EXP DUP2 SLOAD DUP2 PUSH1 0xFF MUL NOT AND SWAP1 DUP4 ISZERO ISZERO MUL OR SWAP1 SSTORE POP SWAP1 POP POP DUP1 PUSH1 0x0 ADD MLOAD PUSH1 0xC PUSH1 0x0 DUP4 PUSH1 0x20 ADD MLOAD PUSH1 0x1 PUSH1 0x1 PUSH1 0xA0 SHL SUB AND PUSH1 0x1 PUSH1 0x1 PUSH1 0xA0 SHL SUB AND DUP2 MSTORE PUSH1 0x20 ADD SWAP1 DUP2 MSTORE PUSH1 0x20 ADD PUSH1 0x0 KECCAK256 DUP2 SWAP1 SSTORE POP PUSH32 0x7D84A6263AE0D98D3329BD7B46BB4E8D6F98CD35A7ADB45C274C8B7FD5EBD5E0 DUP2 PUSH1 0x0 ADD MLOAD CALLER DUP13 DUP13 DUP13 DUP13 DUP10 DUP10 DUP15 PUSH1 0x40 MLOAD PUSH2 0x1D5F SWAP10 SWAP9 SWAP8 SWAP7 SWAP6 SWAP5 SWAP4 SWAP3 SWAP2 SWAP1 PUSH2 0x4A15 JUMP JUMPDEST PUSH1 0x40 MLOAD DUP1 SWAP2 SUB SWAP1 LOG1 MLOAD SWAP4 POP POP POP POP JUMPDEST SWAP6 SWAP5 POP POP POP POP POP JUMP JUMPDEST PUSH1 0x4 PUSH2 0x1D82 DUP3 PUSH2 0xFBA JUMP JUMPDEST PUSH1 0x7 DUP2 GT ISZERO PUSH2 0x1D8D JUMPI INVALID JUMPDEST EQ PUSH2 0x1DAA JUMPI PUSH1 0x40 MLOAD PUSH3 0x461BCD PUSH1 0xE5 SHL DUP2 MSTORE PUSH1 0x4 ADD PUSH2 0x8D4 SWAP1 PUSH2 0x48E7 JUMP JUMPDEST PUSH1 0x0 DUP2 DUP2 MSTORE PUSH1 0xB PUSH1 0x20 SWAP1 DUP2 MSTORE PUSH1 0x40 DUP1 DUP4 KECCAK256 PUSH1 0x8 SLOAD DUP3 MLOAD PUSH32 0x6A42B8F800000000000000000000000000000000000000000000000000000000 DUP2 MSTORE SWAP3 MLOAD SWAP2 SWAP5 SWAP4 PUSH2 0x1E1D SWAP4 TIMESTAMP SWAP4 PUSH1 0x1 PUSH1 0x1 PUSH1 0xA0 SHL SUB SWAP1 SWAP4 AND SWAP3 PUSH4 0x6A42B8F8 SWAP3 PUSH1 0x4 DUP1 DUP5 ADD SWAP4 SWAP2 SWAP3 SWAP2 DUP3 SWAP1 SUB ADD DUP2 DUP7 DUP1 EXTCODESIZE ISZERO DUP1 ISZERO PUSH2 0x1102 JUMPI PUSH1 0x0 DUP1 REVERT JUMPDEST SWAP1 POP PUSH1 0x0 JUMPDEST PUSH1 0x3 DUP4 ADD SLOAD DUP2 LT ISZERO PUSH2 0x2001 JUMPI PUSH2 0x1FF9 DUP4 PUSH1 0x3 ADD DUP3 DUP2 SLOAD DUP2 LT PUSH2 0x1E40 JUMPI INVALID JUMPDEST PUSH1 0x0 SWAP2 DUP3 MSTORE PUSH1 0x20 SWAP1 SWAP2 KECCAK256 ADD SLOAD PUSH1 0x4 DUP6 ADD DUP1 SLOAD PUSH1 0x1 PUSH1 0x1 PUSH1 0xA0 SHL SUB SWAP1 SWAP3 AND SWAP2 DUP5 SWAP1 DUP2 LT PUSH2 0x1E68 JUMPI INVALID JUMPDEST SWAP1 PUSH1 0x0 MSTORE PUSH1 0x20 PUSH1 0x0 KECCAK256 ADD SLOAD DUP6 PUSH1 0x5 ADD DUP5 DUP2 SLOAD DUP2 LT PUSH2 0x1E82 JUMPI INVALID JUMPDEST PUSH1 0x0 SWAP2 DUP3 MSTORE PUSH1 0x20 SWAP2 DUP3 SWAP1 KECCAK256 ADD DUP1 SLOAD PUSH1 0x40 DUP1 MLOAD PUSH1 0x1F PUSH1 0x2 PUSH32 0xFFFFFFFFFFFFFFFFFFFFFFFFFFFFFFFFFFFFFFFFFFFFFFFFFFFFFFFFFFFFFFFF PUSH2 0x100 PUSH1 0x1 DUP8 AND ISZERO MUL ADD SWAP1 SWAP5 AND SWAP4 SWAP1 SWAP4 DIV SWAP3 DUP4 ADD DUP6 SWAP1 DIV DUP6 MUL DUP2 ADD DUP6 ADD SWAP1 SWAP2 MSTORE DUP2 DUP2 MSTORE SWAP3 DUP4 ADD DUP3 DUP3 DUP1 ISZERO PUSH2 0x1F2E JUMPI DUP1 PUSH1 0x1F LT PUSH2 0x1F03 JUMPI PUSH2 0x100 DUP1 DUP4 SLOAD DIV MUL DUP4 MSTORE SWAP2 PUSH1 0x20 ADD SWAP2 PUSH2 0x1F2E JUMP JUMPDEST DUP3 ADD SWAP2 SWAP1 PUSH1 0x0 MSTORE PUSH1 0x20 PUSH1 0x0 KECCAK256 SWAP1 JUMPDEST DUP2 SLOAD DUP2 MSTORE SWAP1 PUSH1 0x1 ADD SWAP1 PUSH1 0x20 ADD DUP1 DUP4 GT PUSH2 0x1F11 JUMPI DUP3 SWAP1 SUB PUSH1 0x1F AND DUP3 ADD SWAP2 JUMPDEST POP POP POP POP POP DUP7 PUSH1 0x6 ADD DUP6 DUP2 SLOAD DUP2 LT PUSH2 0x1F42 JUMPI INVALID JUMPDEST PUSH1 0x0 SWAP2 DUP3 MSTORE PUSH1 0x20 SWAP2 DUP3 SWAP1 KECCAK256 ADD DUP1 SLOAD PUSH1 0x40 DUP1 MLOAD PUSH1 0x1F PUSH1 0x2 PUSH32 0xFFFFFFFFFFFFFFFFFFFFFFFFFFFFFFFFFFFFFFFFFFFFFFFFFFFFFFFFFFFFFFFF PUSH2 0x100 PUSH1 0x1 DUP8 AND ISZERO MUL ADD SWAP1 SWAP5 AND SWAP4 SWAP1 SWAP4 DIV SWAP3 DUP4 ADD DUP6 SWAP1 DIV DUP6 MUL DUP2 ADD DUP6 ADD SWAP1 SWAP2 MSTORE DUP2 DUP2 MSTORE SWAP3 DUP4 ADD DUP3 DUP3 DUP1 ISZERO PUSH2 0x1FEE JUMPI DUP1 PUSH1 0x1F LT PUSH2 0x1FC3 JUMPI PUSH2 0x100 DUP1 DUP4 SLOAD DIV MUL DUP4 MSTORE SWAP2 PUSH1 0x20 ADD SWAP2 PUSH2 0x1FEE JUMP JUMPDEST DUP3 ADD SWAP2 SWAP1 PUSH1 0x0 MSTORE PUSH1 0x20 PUSH1 0x0 KECCAK256 SWAP1 JUMPDEST DUP2 SLOAD DUP2 MSTORE SWAP1 PUSH1 0x1 ADD SWAP1 PUSH1 0x20 ADD DUP1 DUP4 GT PUSH2 0x1FD1 JUMPI DUP3 SWAP1 SUB PUSH1 0x1F AND DUP3 ADD SWAP2 JUMPDEST POP POP POP POP POP DUP7 PUSH2 0x272F JUMP JUMPDEST PUSH1 0x1 ADD PUSH2 0x1E22 JUMP JUMPDEST POP PUSH1 0x2 DUP3 ADD DUP2 SWAP1 SSTORE PUSH1 0x40 MLOAD PUSH32 0x9A2E42FD6722813D69113E7D0079D3D940171428DF7373DF9C7F7617CFDA2892 SWAP1 PUSH2 0x203B SWAP1 DUP6 SWAP1 DUP5 SWAP1 PUSH2 0x4B77 JUMP JUMPDEST PUSH1 0x40 MLOAD DUP1 SWAP2 SUB SWAP1 LOG1 POP POP POP JUMP JUMPDEST PUSH1 0x40 MLOAD PUSH2 0xAAD SWAP1 PUSH2 0x4559 JUMP JUMPDEST PUSH2 0x205C PUSH2 0x2B14 JUMP JUMPDEST POP PUSH1 0x0 DUP3 DUP2 MSTORE PUSH1 0xB PUSH1 0x20 SWAP1 DUP2 MSTORE PUSH1 0x40 DUP1 DUP4 KECCAK256 PUSH1 0x1 PUSH1 0x1 PUSH1 0xA0 SHL SUB DUP6 AND DUP5 MSTORE PUSH1 0xF ADD DUP3 MSTORE SWAP2 DUP3 SWAP1 KECCAK256 DUP3 MLOAD PUSH1 0x60 DUP2 ADD DUP5 MSTORE SWAP1 SLOAD PUSH1 0xFF DUP1 DUP3 AND ISZERO ISZERO DUP4 MSTORE PUSH2 0x100 DUP3 DIV AND SWAP3 DUP3 ADD SWAP3 SWAP1 SWAP3 MSTORE PUSH3 0x10000 SWAP1 SWAP2 DIV PUSH12 0xFFFFFFFFFFFFFFFFFFFFFFFF AND SWAP2 DUP2 ADD SWAP2 SWAP1 SWAP2 MSTORE JUMPDEST SWAP3 SWAP2 POP POP JUMP JUMPDEST PUSH3 0x2A300 DUP2 JUMP JUMPDEST PUSH1 0x1 SLOAD PUSH1 0x1 PUSH1 0x1 PUSH1 0xA0 SHL SUB AND CALLER EQ DUP1 ISZERO PUSH2 0x20E6 JUMPI POP CALLER ISZERO ISZERO JUMPDEST PUSH2 0x2102 JUMPI PUSH1 0x40 MLOAD PUSH3 0x461BCD PUSH1 0xE5 SHL DUP2 MSTORE PUSH1 0x4 ADD PUSH2 0x8D4 SWAP1 PUSH2 0x4927 JUMP JUMPDEST PUSH1 0x0 DUP1 SLOAD PUSH1 0x1 DUP1 SLOAD PUSH1 0x1 PUSH1 0x1 PUSH1 0xA0 SHL SUB DUP1 DUP3 AND PUSH32 0xFFFFFFFFFFFFFFFFFFFFFFFF0000000000000000000000000000000000000000 DUP1 DUP7 AND DUP3 OR SWAP7 DUP8 SWAP1 SSTORE SWAP1 SWAP3 AND SWAP1 SWAP3 SSTORE PUSH1 0x40 MLOAD SWAP3 DUP3 AND SWAP4 SWAP1 SWAP3 PUSH32 0xF9FFABCA9C8276E99321725BCB43FB076A6C66A54B7F21C4E8146D8519B417DC SWAP3 PUSH2 0x217E SWAP3 DUP7 SWAP3 SWAP2 AND SWAP1 PUSH2 0x45C9 JUMP JUMPDEST PUSH1 0x40 MLOAD DUP1 SWAP2 SUB SWAP1 LOG1 PUSH1 0x1 SLOAD PUSH1 0x40 MLOAD PUSH32 0xCA4F2F25D0898EDD99413412FB94012F9E54EC8142F9B093E7720646A95B16A9 SWAP2 PUSH2 0x949 SWAP2 DUP5 SWAP2 PUSH1 0x1 PUSH1 0x1 PUSH1 0xA0 SHL SUB AND SWAP1 PUSH2 0x45C9 JUMP JUMPDEST PUSH1 0x0 SLOAD PUSH1 0x1 PUSH1 0x1 PUSH1 0xA0 SHL SUB AND DUP2 JUMP JUMPDEST PUSH1 0x6 SLOAD DUP2 JUMP JUMPDEST PUSH1 0x5 PUSH2 0x21E3 DUP3 PUSH2 0xFBA JUMP JUMPDEST PUSH1 0x7 DUP2 GT ISZERO PUSH2 0x21EE JUMPI INVALID JUMPDEST EQ PUSH2 0x220B JUMPI PUSH1 0x40 MLOAD PUSH3 0x461BCD PUSH1 0xE5 SHL DUP2 MSTORE PUSH1 0x4 ADD PUSH2 0x8D4 SWAP1 PUSH2 0x4887 JUMP JUMPDEST PUSH1 0x0 DUP2 DUP2 MSTORE PUSH1 0xB PUSH1 0x20 MSTORE PUSH1 0x40 DUP2 KECCAK256 PUSH1 0xE DUP2 ADD DUP1 SLOAD PUSH32 0xFFFFFFFFFFFFFFFFFFFFFFFFFFFFFFFFFFFFFFFFFFFFFFFFFFFFFFFFFFFF00FF AND PUSH2 0x100 OR SWAP1 SSTORE SWAP1 JUMPDEST PUSH1 0x3 DUP3 ADD SLOAD DUP2 LT ISZERO PUSH2 0x239C JUMPI PUSH1 0x8 SLOAD PUSH1 0x4 DUP4 ADD DUP1 SLOAD PUSH1 0x1 PUSH1 0x1 PUSH1 0xA0 SHL SUB SWAP1 SWAP3 AND SWAP2 PUSH4 0x825F38F SWAP2 SWAP1 DUP5 SWAP1 DUP2 LT PUSH2 0x227B JUMPI INVALID JUMPDEST SWAP1 PUSH1 0x0 MSTORE PUSH1 0x20 PUSH1 0x0 KECCAK256 ADD SLOAD DUP5 PUSH1 0x3 ADD DUP5 DUP2 SLOAD DUP2 LT PUSH2 0x2295 JUMPI INVALID JUMPDEST PUSH1 0x0 SWAP2 DUP3 MSTORE PUSH1 0x20 SWAP1 SWAP2 KECCAK256 ADD SLOAD PUSH1 0x4 DUP7 ADD DUP1 SLOAD PUSH1 0x1 PUSH1 0x1 PUSH1 0xA0 SHL SUB SWAP1 SWAP3 AND SWAP2 DUP7 SWAP1 DUP2 LT PUSH2 0x22BD JUMPI INVALID JUMPDEST SWAP1 PUSH1 0x0 MSTORE PUSH1 0x20 PUSH1 0x0 KECCAK256 ADD SLOAD DUP7 PUSH1 0x5 ADD DUP7 DUP2 SLOAD DUP2 LT PUSH2 0x22D7 JUMPI INVALID JUMPDEST SWAP1 PUSH1 0x0 MSTORE PUSH1 0x20 PUSH1 0x0 KECCAK256 ADD DUP8 PUSH1 0x6 ADD DUP8 DUP2 SLOAD DUP2 LT PUSH2 0x22F0 JUMPI INVALID JUMPDEST SWAP1 PUSH1 0x0 MSTORE PUSH1 0x20 PUSH1 0x0 KECCAK256 ADD DUP9 PUSH1 0x2 ADD SLOAD PUSH1 0x40 MLOAD DUP8 PUSH4 0xFFFFFFFF AND PUSH1 0xE0 SHL DUP2 MSTORE PUSH1 0x4 ADD PUSH2 0x231F SWAP6 SWAP5 SWAP4 SWAP3 SWAP2 SWAP1 PUSH2 0x464C JUMP JUMPDEST PUSH1 0x0 PUSH1 0x40 MLOAD DUP1 DUP4 SUB DUP2 DUP6 DUP9 DUP1 EXTCODESIZE ISZERO DUP1 ISZERO PUSH2 0x2338 JUMPI PUSH1 0x0 DUP1 REVERT JUMPDEST POP GAS CALL ISZERO DUP1 ISZERO PUSH2 0x234C JUMPI RETURNDATASIZE PUSH1 0x0 DUP1 RETURNDATACOPY RETURNDATASIZE PUSH1 0x0 REVERT JUMPDEST POP POP POP POP POP PUSH1 0x40 MLOAD RETURNDATASIZE PUSH1 0x0 DUP3 RETURNDATACOPY PUSH1 0x1F RETURNDATASIZE SWAP1 DUP2 ADD PUSH32 0xFFFFFFFFFFFFFFFFFFFFFFFFFFFFFFFFFFFFFFFFFFFFFFFFFFFFFFFFFFFFFFE0 AND DUP3 ADD PUSH1 0x40 MSTORE PUSH2 0x2393 SWAP2 SWAP1 DUP2 ADD SWAP1 PUSH2 0x30B5 JUMP JUMPDEST POP PUSH1 0x1 ADD PUSH2 0x2249 JUMP JUMPDEST POP PUSH32 0x712AE1383F79AC853F8D882153778E0260EF8F03B504E2866E0593E04D2B291F DUP3 PUSH1 0x40 MLOAD PUSH2 0x949 SWAP2 SWAP1 PUSH2 0x46DA JUMP JUMPDEST CHAINID JUMPDEST SWAP1 JUMP JUMPDEST PUSH1 0x0 PUSH1 0x1 PUSH2 0x23DE DUP5 PUSH2 0xFBA JUMP JUMPDEST PUSH1 0x7 DUP2 GT ISZERO PUSH2 0x23E9 JUMPI INVALID JUMPDEST EQ PUSH2 0x2406 JUMPI PUSH1 0x40 MLOAD PUSH3 0x461BCD PUSH1 0xE5 SHL DUP2 MSTORE PUSH1 0x4 ADD PUSH2 0x8D4 SWAP1 PUSH2 0x4847 JUMP JUMPDEST PUSH1 0x2 DUP3 PUSH1 0xFF AND GT ISZERO PUSH2 0x242A JUMPI PUSH1 0x40 MLOAD PUSH3 0x461BCD PUSH1 0xE5 SHL DUP2 MSTORE PUSH1 0x4 ADD PUSH2 0x8D4 SWAP1 PUSH2 0x47A7 JUMP JUMPDEST PUSH1 0x0 DUP4 DUP2 MSTORE PUSH1 0xB PUSH1 0x20 MSTORE PUSH1 0x40 SWAP1 KECCAK256 PUSH1 0x8 DUP2 ADD SLOAD PUSH2 0x2452 JUMPI PUSH2 0x244C NUMBER PUSH1 0x1 PUSH2 0x26D1 JUMP JUMPDEST PUSH1 0x8 DUP3 ADD SSTORE JUMPDEST PUSH1 0x1 PUSH1 0x1 PUSH1 0xA0 SHL SUB DUP6 AND PUSH1 0x0 SWAP1 DUP2 MSTORE PUSH1 0xF DUP3 ADD PUSH1 0x20 MSTORE PUSH1 0x40 SWAP1 KECCAK256 DUP1 SLOAD PUSH1 0xFF AND ISZERO PUSH2 0x248E JUMPI PUSH1 0x40 MLOAD PUSH3 0x461BCD PUSH1 0xE5 SHL DUP2 MSTORE PUSH1 0x4 ADD PUSH2 0x8D4 SWAP1 PUSH2 0x4857 JUMP JUMPDEST PUSH1 0xA SLOAD PUSH1 0x8 DUP4 ADD SLOAD PUSH1 0x40 MLOAD PUSH32 0x782D6FE100000000000000000000000000000000000000000000000000000000 DUP2 MSTORE PUSH1 0x0 SWAP3 PUSH2 0x2583 SWAP3 PUSH1 0x1 PUSH1 0x1 PUSH1 0xA0 SHL SUB SWAP1 SWAP2 AND SWAP2 PUSH4 0x782D6FE1 SWAP2 PUSH2 0x24E4 SWAP2 DUP13 SWAP2 SWAP1 PUSH1 0x4 ADD PUSH2 0x45E4 JUMP JUMPDEST PUSH1 0x20 PUSH1 0x40 MLOAD DUP1 DUP4 SUB DUP2 DUP7 DUP1 EXTCODESIZE ISZERO DUP1 ISZERO PUSH2 0x24FC JUMPI PUSH1 0x0 DUP1 REVERT JUMPDEST POP GAS STATICCALL ISZERO DUP1 ISZERO PUSH2 0x2510 JUMPI RETURNDATASIZE PUSH1 0x0 DUP1 RETURNDATACOPY RETURNDATASIZE PUSH1 0x0 REVERT JUMPDEST POP POP POP POP PUSH1 0x40 MLOAD RETURNDATASIZE PUSH1 0x1F NOT PUSH1 0x1F DUP3 ADD AND DUP3 ADD DUP1 PUSH1 0x40 MSTORE POP PUSH2 0x2534 SWAP2 SWAP1 DUP2 ADD SWAP1 PUSH2 0x3242 JUMP JUMPDEST PUSH1 0x9 SLOAD PUSH1 0x8 DUP7 ADD SLOAD PUSH1 0x40 MLOAD PUSH32 0x782D6FE100000000000000000000000000000000000000000000000000000000 DUP2 MSTORE PUSH1 0x1 PUSH1 0x1 PUSH1 0xA0 SHL SUB SWAP1 SWAP3 AND SWAP2 PUSH4 0x782D6FE1 SWAP2 PUSH2 0x1296 SWAP2 DUP14 SWAP2 SWAP1 PUSH1 0x4 ADD PUSH2 0x45E4 JUMP JUMPDEST SWAP1 POP PUSH1 0xFF DUP6 AND PUSH2 0x25B3 JUMPI PUSH2 0x25A9 DUP4 PUSH1 0xC ADD SLOAD DUP3 PUSH12 0xFFFFFFFFFFFFFFFFFFFFFFFF AND PUSH2 0x26AC JUMP JUMPDEST PUSH1 0xC DUP5 ADD SSTORE PUSH2 0x2613 JUMP JUMPDEST DUP5 PUSH1 0xFF AND PUSH1 0x1 EQ ISZERO PUSH2 0x25E5 JUMPI PUSH2 0x25DB DUP4 PUSH1 0xB ADD SLOAD DUP3 PUSH12 0xFFFFFFFFFFFFFFFFFFFFFFFF AND PUSH2 0x26AC JUMP JUMPDEST PUSH1 0xB DUP5 ADD SSTORE PUSH2 0x2613 JUMP JUMPDEST DUP5 PUSH1 0xFF AND PUSH1 0x2 EQ ISZERO PUSH2 0x2613 JUMPI PUSH2 0x260D DUP4 PUSH1 0xD ADD SLOAD DUP3 PUSH12 0xFFFFFFFFFFFFFFFFFFFFFFFF AND PUSH2 0x26AC JUMP JUMPDEST PUSH1 0xD DUP5 ADD SSTORE JUMPDEST DUP2 SLOAD PUSH1 0x1 PUSH32 0xFFFFFFFFFFFFFFFFFFFFFFFFFFFFFFFFFFFFFFFFFFFFFFFFFFFFFFFFFFFFFF00 SWAP1 SWAP2 AND OR PUSH32 0xFFFFFFFFFFFFFFFFFFFFFFFFFFFFFFFFFFFFFFFFFFFFFFFFFFFFFFFFFFFF00FF AND PUSH2 0x100 PUSH1 0xFF DUP8 AND MUL OR PUSH32 0xFFFFFFFFFFFFFFFFFFFFFFFFFFFFFFFFFFFF000000000000000000000000FFFF AND PUSH3 0x10000 PUSH12 0xFFFFFFFFFFFFFFFFFFFFFFFF DUP4 AND MUL OR SWAP1 SWAP2 SSTORE SWAP2 POP POP JUMPDEST SWAP4 SWAP3 POP POP POP JUMP JUMPDEST PUSH1 0x0 DUP3 DUP3 ADD DUP4 DUP2 LT ISZERO PUSH2 0x26A5 JUMPI PUSH1 0x40 MLOAD PUSH3 0x461BCD PUSH1 0xE5 SHL DUP2 MSTORE PUSH1 0x4 ADD PUSH2 0x8D4 SWAP1 PUSH2 0x48F7 JUMP JUMPDEST PUSH1 0x0 DUP3 DUP3 GT ISZERO PUSH2 0x26F3 JUMPI PUSH1 0x40 MLOAD PUSH3 0x461BCD PUSH1 0xE5 SHL DUP2 MSTORE PUSH1 0x4 ADD PUSH2 0x8D4 SWAP1 PUSH2 0x49F7 JUMP JUMPDEST POP SWAP1 SUB SWAP1 JUMP JUMPDEST PUSH1 0x0 DUP3 DUP3 ADD PUSH12 0xFFFFFFFFFFFFFFFFFFFFFFFF DUP1 DUP6 AND SWAP1 DUP3 AND LT ISZERO PUSH2 0x26A5 JUMPI PUSH1 0x40 MLOAD PUSH3 0x461BCD PUSH1 0xE5 SHL DUP2 MSTORE PUSH1 0x4 ADD PUSH2 0x8D4 SWAP1 PUSH2 0x4827 JUMP JUMPDEST PUSH1 0x8 SLOAD PUSH1 0x40 MLOAD PUSH1 0x1 PUSH1 0x1 PUSH1 0xA0 SHL SUB SWAP1 SWAP2 AND SWAP1 PUSH4 0xF2B06537 SWAP1 PUSH2 0x275D SWAP1 DUP9 SWAP1 DUP9 SWAP1 DUP9 SWAP1 DUP9 SWAP1 DUP9 SWAP1 PUSH1 0x20 ADD PUSH2 0x45F2 JUMP JUMPDEST PUSH1 0x40 MLOAD PUSH1 0x20 DUP2 DUP4 SUB SUB DUP2 MSTORE SWAP1 PUSH1 0x40 MSTORE DUP1 MLOAD SWAP1 PUSH1 0x20 ADD KECCAK256 PUSH1 0x40 MLOAD DUP3 PUSH4 0xFFFFFFFF AND PUSH1 0xE0 SHL DUP2 MSTORE PUSH1 0x4 ADD PUSH2 0x278F SWAP2 SWAP1 PUSH2 0x46DA JUMP JUMPDEST PUSH1 0x20 PUSH1 0x40 MLOAD DUP1 DUP4 SUB DUP2 DUP7 DUP1 EXTCODESIZE ISZERO DUP1 ISZERO PUSH2 0x27A7 JUMPI PUSH1 0x0 DUP1 REVERT JUMPDEST POP GAS STATICCALL ISZERO DUP1 ISZERO PUSH2 0x27BB JUMPI RETURNDATASIZE PUSH1 0x0 DUP1 RETURNDATACOPY RETURNDATASIZE PUSH1 0x0 REVERT JUMPDEST POP POP POP POP PUSH1 0x40 MLOAD RETURNDATASIZE PUSH1 0x1F NOT PUSH1 0x1F DUP3 ADD AND DUP3 ADD DUP1 PUSH1 0x40 MSTORE POP PUSH2 0x27DF SWAP2 SWAP1 DUP2 ADD SWAP1 PUSH2 0x3079 JUMP JUMPDEST ISZERO PUSH2 0x27FC JUMPI PUSH1 0x40 MLOAD PUSH3 0x461BCD PUSH1 0xE5 SHL DUP2 MSTORE PUSH1 0x4 ADD PUSH2 0x8D4 SWAP1 PUSH2 0x47D7 JUMP JUMPDEST PUSH1 0x8 SLOAD PUSH1 0x40 MLOAD PUSH32 0x3A66F90100000000000000000000000000000000000000000000000000000000 DUP2 MSTORE PUSH1 0x1 PUSH1 0x1 PUSH1 0xA0 SHL SUB SWAP1 SWAP2 AND SWAP1 PUSH4 0x3A66F901 SWAP1 PUSH2 0x284D SWAP1 DUP9 SWAP1 DUP9 SWAP1 DUP9 SWAP1 DUP9 SWAP1 DUP9 SWAP1 PUSH1 0x4 ADD PUSH2 0x45F2 JUMP JUMPDEST PUSH1 0x20 PUSH1 0x40 MLOAD DUP1 DUP4 SUB DUP2 PUSH1 0x0 DUP8 DUP1 EXTCODESIZE ISZERO DUP1 ISZERO PUSH2 0x2867 JUMPI PUSH1 0x0 DUP1 REVERT JUMPDEST POP GAS CALL ISZERO DUP1 ISZERO PUSH2 0x287B JUMPI RETURNDATASIZE PUSH1 0x0 DUP1 RETURNDATACOPY RETURNDATASIZE PUSH1 0x0 REVERT JUMPDEST POP POP POP POP PUSH1 0x40 MLOAD RETURNDATASIZE PUSH1 0x1F NOT PUSH1 0x1F DUP3 ADD AND DUP3 ADD DUP1 PUSH1 0x40 MSTORE POP PUSH2 0x289F SWAP2 SWAP1 DUP2 ADD SWAP1 PUSH2 0x3097 JUMP JUMPDEST POP POP POP POP POP POP JUMP JUMPDEST PUSH1 0x40 MLOAD DUP1 PUSH2 0x200 ADD PUSH1 0x40 MSTORE DUP1 PUSH1 0x0 DUP2 MSTORE PUSH1 0x20 ADD PUSH1 0x0 PUSH1 0x1 PUSH1 0x1 PUSH1 0xA0 SHL SUB AND DUP2 MSTORE PUSH1 0x20 ADD PUSH1 0x0 DUP2 MSTORE PUSH1 0x20 ADD PUSH1 0x60 DUP2 MSTORE PUSH1 0x20 ADD PUSH1 0x60 DUP2 MSTORE PUSH1 0x20 ADD PUSH1 0x60 DUP2 MSTORE PUSH1 0x20 ADD PUSH1 0x60 DUP2 MSTORE PUSH1 0x20 ADD PUSH1 0x60 DUP2 MSTORE PUSH1 0x20 ADD PUSH1 0x0 DUP2 MSTORE PUSH1 0x20 ADD PUSH1 0x0 DUP2 MSTORE PUSH1 0x20 ADD PUSH1 0x0 DUP2 MSTORE PUSH1 0x20 ADD PUSH1 0x0 DUP2 MSTORE PUSH1 0x20 ADD PUSH1 0x0 DUP2 MSTORE PUSH1 0x20 ADD PUSH1 0x0 DUP2 MSTORE PUSH1 0x20 ADD PUSH1 0x0 ISZERO ISZERO DUP2 MSTORE PUSH1 0x20 ADD PUSH1 0x0 ISZERO ISZERO DUP2 MSTORE POP SWAP1 JUMP JUMPDEST DUP3 DUP1 SLOAD DUP3 DUP3 SSTORE SWAP1 PUSH1 0x0 MSTORE PUSH1 0x20 PUSH1 0x0 KECCAK256 SWAP1 DUP2 ADD SWAP3 DUP3 ISZERO PUSH2 0x299E JUMPI SWAP2 PUSH1 0x20 MUL DUP3 ADD JUMPDEST DUP3 DUP2 GT ISZERO PUSH2 0x299E JUMPI DUP3 MLOAD DUP3 SLOAD PUSH32 0xFFFFFFFFFFFFFFFFFFFFFFFF0000000000000000000000000000000000000000 AND PUSH1 0x1 PUSH1 0x1 PUSH1 0xA0 SHL SUB SWAP1 SWAP2 AND OR DUP3 SSTORE PUSH1 0x20 SWAP1 SWAP3 ADD SWAP2 PUSH1 0x1 SWAP1 SWAP2 ADD SWAP1 PUSH2 0x2951 JUMP JUMPDEST POP PUSH2 0x29AA SWAP3 SWAP2 POP PUSH2 0x2B34 JUMP JUMPDEST POP SWAP1 JUMP JUMPDEST DUP3 DUP1 SLOAD DUP3 DUP3 SSTORE SWAP1 PUSH1 0x0 MSTORE PUSH1 0x20 PUSH1 0x0 KECCAK256 SWAP1 DUP2 ADD SWAP3 DUP3 ISZERO PUSH2 0x29E9 JUMPI SWAP2 PUSH1 0x20 MUL DUP3 ADD JUMPDEST DUP3 DUP2 GT ISZERO PUSH2 0x29E9 JUMPI DUP3 MLOAD DUP3 SSTORE SWAP2 PUSH1 0x20 ADD SWAP2 SWAP1 PUSH1 0x1 ADD SWAP1 PUSH2 0x29CE JUMP JUMPDEST POP PUSH2 0x29AA SWAP3 SWAP2 POP PUSH2 0x2B70 JUMP JUMPDEST DUP3 DUP1 SLOAD DUP3 DUP3 SSTORE SWAP1 PUSH1 0x0 MSTORE PUSH1 0x20 PUSH1 0x0 KECCAK256 SWAP1 DUP2 ADD SWAP3 DUP3 ISZERO PUSH2 0x2A42 JUMPI SWAP2 PUSH1 0x20 MUL DUP3 ADD JUMPDEST DUP3 DUP2 GT ISZERO PUSH2 0x2A42 JUMPI DUP3 MLOAD DUP1 MLOAD PUSH2 0x2A32 SWAP2 DUP5 SWAP2 PUSH1 0x20 SWAP1 SWAP2 ADD SWAP1 PUSH2 0x2AA7 JUMP JUMPDEST POP SWAP2 PUSH1 0x20 ADD SWAP2 SWAP1 PUSH1 0x1 ADD SWAP1 PUSH2 0x2A15 JUMP JUMPDEST POP PUSH2 0x29AA SWAP3 SWAP2 POP PUSH2 0x2B8A JUMP JUMPDEST DUP3 DUP1 SLOAD DUP3 DUP3 SSTORE SWAP1 PUSH1 0x0 MSTORE PUSH1 0x20 PUSH1 0x0 KECCAK256 SWAP1 DUP2 ADD SWAP3 DUP3 ISZERO PUSH2 0x2A9B JUMPI SWAP2 PUSH1 0x20 MUL DUP3 ADD JUMPDEST DUP3 DUP2 GT ISZERO PUSH2 0x2A9B JUMPI DUP3 MLOAD DUP1 MLOAD PUSH2 0x2A8B SWAP2 DUP5 SWAP2 PUSH1 0x20 SWAP1 SWAP2 ADD SWAP1 PUSH2 0x2AA7 JUMP JUMPDEST POP SWAP2 PUSH1 0x20 ADD SWAP2 SWAP1 PUSH1 0x1 ADD SWAP1 PUSH2 0x2A6E JUMP JUMPDEST POP PUSH2 0x29AA SWAP3 SWAP2 POP PUSH2 0x2BAD JUMP JUMPDEST DUP3 DUP1 SLOAD PUSH1 0x1 DUP2 PUSH1 0x1 AND ISZERO PUSH2 0x100 MUL SUB AND PUSH1 0x2 SWAP1 DIV SWAP1 PUSH1 0x0 MSTORE PUSH1 0x20 PUSH1 0x0 KECCAK256 SWAP1 PUSH1 0x1F ADD PUSH1 0x20 SWAP1 DIV DUP2 ADD SWAP3 DUP3 PUSH1 0x1F LT PUSH2 0x2AE8 JUMPI DUP1 MLOAD PUSH1 0xFF NOT AND DUP4 DUP1 ADD OR DUP6 SSTORE PUSH2 0x29E9 JUMP JUMPDEST DUP3 DUP1 ADD PUSH1 0x1 ADD DUP6 SSTORE DUP3 ISZERO PUSH2 0x29E9 JUMPI SWAP2 DUP3 ADD DUP3 DUP2 GT ISZERO PUSH2 0x29E9 JUMPI DUP3 MLOAD DUP3 SSTORE SWAP2 PUSH1 0x20 ADD SWAP2 SWAP1 PUSH1 0x1 ADD SWAP1 PUSH2 0x29CE JUMP JUMPDEST PUSH1 0x40 DUP1 MLOAD PUSH1 0x60 DUP2 ADD DUP3 MSTORE PUSH1 0x0 DUP1 DUP3 MSTORE PUSH1 0x20 DUP3 ADD DUP2 SWAP1 MSTORE SWAP2 DUP2 ADD SWAP2 SWAP1 SWAP2 MSTORE SWAP1 JUMP JUMPDEST PUSH2 0x23CE SWAP2 SWAP1 JUMPDEST DUP1 DUP3 GT ISZERO PUSH2 0x29AA JUMPI DUP1 SLOAD PUSH32 0xFFFFFFFFFFFFFFFFFFFFFFFF0000000000000000000000000000000000000000 AND DUP2 SSTORE PUSH1 0x1 ADD PUSH2 0x2B3A JUMP JUMPDEST PUSH2 0x23CE SWAP2 SWAP1 JUMPDEST DUP1 DUP3 GT ISZERO PUSH2 0x29AA JUMPI PUSH1 0x0 DUP2 SSTORE PUSH1 0x1 ADD PUSH2 0x2B76 JUMP JUMPDEST PUSH2 0x23CE SWAP2 SWAP1 JUMPDEST DUP1 DUP3 GT ISZERO PUSH2 0x29AA JUMPI PUSH1 0x0 PUSH2 0x2BA4 DUP3 DUP3 PUSH2 0x2BD0 JUMP JUMPDEST POP PUSH1 0x1 ADD PUSH2 0x2B90 JUMP JUMPDEST PUSH2 0x23CE SWAP2 SWAP1 JUMPDEST DUP1 DUP3 GT ISZERO PUSH2 0x29AA JUMPI PUSH1 0x0 PUSH2 0x2BC7 DUP3 DUP3 PUSH2 0x2BD0 JUMP JUMPDEST POP PUSH1 0x1 ADD PUSH2 0x2BB3 JUMP JUMPDEST POP DUP1 SLOAD PUSH1 0x1 DUP2 PUSH1 0x1 AND ISZERO PUSH2 0x100 MUL SUB AND PUSH1 0x2 SWAP1 DIV PUSH1 0x0 DUP3 SSTORE DUP1 PUSH1 0x1F LT PUSH2 0x2BF6 JUMPI POP PUSH2 0x2C14 JUMP JUMPDEST PUSH1 0x1F ADD PUSH1 0x20 SWAP1 DIV SWAP1 PUSH1 0x0 MSTORE PUSH1 0x20 PUSH1 0x0 KECCAK256 SWAP1 DUP2 ADD SWAP1 PUSH2 0x2C14 SWAP2 SWAP1 PUSH2 0x2B70 JUMP JUMPDEST POP JUMP JUMPDEST DUP1 CALLDATALOAD PUSH2 0x20C0 DUP2 PUSH2 0x4D80 JUMP JUMPDEST PUSH1 0x0 DUP3 PUSH1 0x1F DUP4 ADD SLT PUSH2 0x2C33 JUMPI PUSH1 0x0 DUP1 REVERT JUMPDEST DUP2 CALLDATALOAD PUSH2 0x2C46 PUSH2 0x2C41 DUP3 PUSH2 0x4C2B JUMP JUMPDEST PUSH2 0x4C04 JUMP JUMPDEST SWAP2 POP DUP2 DUP2 DUP4 MSTORE PUSH1 0x20 DUP5 ADD SWAP4 POP PUSH1 0x20 DUP2 ADD SWAP1 POP DUP4 DUP6 PUSH1 0x20 DUP5 MUL DUP3 ADD GT ISZERO PUSH2 0x2C6B JUMPI PUSH1 0x0 DUP1 REVERT JUMPDEST PUSH1 0x0 JUMPDEST DUP4 DUP2 LT ISZERO PUSH2 0x2C97 JUMPI DUP2 PUSH2 0x2C81 DUP9 DUP3 PUSH2 0x2C17 JUMP JUMPDEST DUP5 MSTORE POP PUSH1 0x20 SWAP3 DUP4 ADD SWAP3 SWAP2 SWAP1 SWAP2 ADD SWAP1 PUSH1 0x1 ADD PUSH2 0x2C6E JUMP JUMPDEST POP POP POP POP SWAP3 SWAP2 POP POP JUMP JUMPDEST PUSH1 0x0 DUP3 PUSH1 0x1F DUP4 ADD SLT PUSH2 0x2CB2 JUMPI PUSH1 0x0 DUP1 REVERT JUMPDEST DUP2 CALLDATALOAD PUSH2 0x2CC0 PUSH2 0x2C41 DUP3 PUSH2 0x4C2B JUMP JUMPDEST DUP2 DUP2 MSTORE PUSH1 0x20 SWAP4 DUP5 ADD SWAP4 SWAP1 SWAP3 POP DUP3 ADD DUP4 PUSH1 0x0 JUMPDEST DUP4 DUP2 LT ISZERO PUSH2 0x2C97 JUMPI DUP2 CALLDATALOAD DUP7 ADD PUSH2 0x2CE8 DUP9 DUP3 PUSH2 0x2DEC JUMP JUMPDEST DUP5 MSTORE POP PUSH1 0x20 SWAP3 DUP4 ADD SWAP3 SWAP2 SWAP1 SWAP2 ADD SWAP1 PUSH1 0x1 ADD PUSH2 0x2CD2 JUMP JUMPDEST PUSH1 0x0 DUP3 PUSH1 0x1F DUP4 ADD SLT PUSH2 0x2D0F JUMPI PUSH1 0x0 DUP1 REVERT JUMPDEST DUP2 CALLDATALOAD PUSH2 0x2D1D PUSH2 0x2C41 DUP3 PUSH2 0x4C2B JUMP JUMPDEST DUP2 DUP2 MSTORE PUSH1 0x20 SWAP4 DUP5 ADD SWAP4 SWAP1 SWAP3 POP DUP3 ADD DUP4 PUSH1 0x0 JUMPDEST DUP4 DUP2 LT ISZERO PUSH2 0x2C97 JUMPI DUP2 CALLDATALOAD DUP7 ADD PUSH2 0x2D45 DUP9 DUP3 PUSH2 0x2DEC JUMP JUMPDEST DUP5 MSTORE POP PUSH1 0x20 SWAP3 DUP4 ADD SWAP3 SWAP2 SWAP1 SWAP2 ADD SWAP1 PUSH1 0x1 ADD PUSH2 0x2D2F JUMP JUMPDEST PUSH1 0x0 DUP3 PUSH1 0x1F DUP4 ADD SLT PUSH2 0x2D6C JUMPI PUSH1 0x0 DUP1 REVERT JUMPDEST DUP2 CALLDATALOAD PUSH2 0x2D7A PUSH2 0x2C41 DUP3 PUSH2 0x4C2B JUMP JUMPDEST SWAP2 POP DUP2 DUP2 DUP4 MSTORE PUSH1 0x20 DUP5 ADD SWAP4 POP PUSH1 0x20 DUP2 ADD SWAP1 POP DUP4 DUP6 PUSH1 0x20 DUP5 MUL DUP3 ADD GT ISZERO PUSH2 0x2D9F JUMPI PUSH1 0x0 DUP1 REVERT JUMPDEST PUSH1 0x0 JUMPDEST DUP4 DUP2 LT ISZERO PUSH2 0x2C97 JUMPI DUP2 PUSH2 0x2DB5 DUP9 DUP3 PUSH2 0x2DD6 JUMP JUMPDEST DUP5 MSTORE POP PUSH1 0x20 SWAP3 DUP4 ADD SWAP3 SWAP2 SWAP1 SWAP2 ADD SWAP1 PUSH1 0x1 ADD PUSH2 0x2DA2 JUMP JUMPDEST DUP1 MLOAD PUSH2 0x20C0 DUP2 PUSH2 0x4D94 JUMP JUMPDEST DUP1 CALLDATALOAD PUSH2 0x20C0 DUP2 PUSH2 0x4D9D JUMP JUMPDEST DUP1 MLOAD PUSH2 0x20C0 DUP2 PUSH2 0x4D9D JUMP JUMPDEST PUSH1 0x0 DUP3 PUSH1 0x1F DUP4 ADD SLT PUSH2 0x2DFD JUMPI PUSH1 0x0 DUP1 REVERT JUMPDEST DUP2 CALLDATALOAD PUSH2 0x2E0B PUSH2 0x2C41 DUP3 PUSH2 0x4C4C JUMP JUMPDEST SWAP2 POP DUP1 DUP3 MSTORE PUSH1 0x20 DUP4 ADD PUSH1 0x20 DUP4 ADD DUP6 DUP4 DUP4 ADD GT ISZERO PUSH2 0x2E27 JUMPI PUSH1 0x0 DUP1 REVERT JUMPDEST PUSH2 0x2E32 DUP4 DUP3 DUP5 PUSH2 0x4D16 JUMP JUMPDEST POP POP POP SWAP3 SWAP2 POP POP JUMP JUMPDEST PUSH1 0x0 DUP3 PUSH1 0x1F DUP4 ADD SLT PUSH2 0x2E4C JUMPI PUSH1 0x0 DUP1 REVERT JUMPDEST DUP2 MLOAD PUSH2 0x2E5A PUSH2 0x2C41 DUP3 PUSH2 0x4C4C JUMP JUMPDEST SWAP2 POP DUP1 DUP3 MSTORE PUSH1 0x20 DUP4 ADD PUSH1 0x20 DUP4 ADD DUP6 DUP4 DUP4 ADD GT ISZERO PUSH2 0x2E76 JUMPI PUSH1 0x0 DUP1 REVERT JUMPDEST PUSH2 0x2E32 DUP4 DUP3 DUP5 PUSH2 0x4D22 JUMP JUMPDEST PUSH1 0x0 DUP1 DUP4 PUSH1 0x1F DUP5 ADD SLT PUSH2 0x2E93 JUMPI PUSH1 0x0 DUP1 REVERT JUMPDEST POP DUP2 CALLDATALOAD PUSH8 0xFFFFFFFFFFFFFFFF DUP2 GT ISZERO PUSH2 0x2EAB JUMPI PUSH1 0x0 DUP1 REVERT JUMPDEST PUSH1 0x20 DUP4 ADD SWAP2 POP DUP4 PUSH1 0x1 DUP3 MUL DUP4 ADD GT ISZERO PUSH2 0x2EC3 JUMPI PUSH1 0x0 DUP1 REVERT JUMPDEST SWAP3 POP SWAP3 SWAP1 POP JUMP JUMPDEST DUP1 CALLDATALOAD PUSH2 0x20C0 DUP2 PUSH2 0x4DA6 JUMP JUMPDEST DUP1 MLOAD PUSH2 0x20C0 DUP2 PUSH2 0x4DAF JUMP JUMPDEST PUSH1 0x0 PUSH1 0x20 DUP3 DUP5 SUB SLT ISZERO PUSH2 0x2EF2 JUMPI PUSH1 0x0 DUP1 REVERT JUMPDEST PUSH1 0x0 PUSH2 0x2EFE DUP5 DUP5 PUSH2 0x2C17 JUMP JUMPDEST SWAP5 SWAP4 POP POP POP POP JUMP JUMPDEST PUSH1 0x0 DUP1 PUSH1 0x0 DUP1 PUSH1 0x0 DUP1 PUSH1 0xC0 DUP8 DUP10 SUB SLT ISZERO PUSH2 0x2F1F JUMPI PUSH1 0x0 DUP1 REVERT JUMPDEST PUSH1 0x0 PUSH2 0x2F2B DUP10 DUP10 PUSH2 0x2C17 JUMP JUMPDEST SWAP7 POP POP PUSH1 0x20 PUSH2 0x2F3C DUP10 DUP3 DUP11 ADD PUSH2 0x2C17 JUMP JUMPDEST SWAP6 POP POP PUSH1 0x40 PUSH2 0x2F4D DUP10 DUP3 DUP11 ADD PUSH2 0x2C17 JUMP JUMPDEST SWAP5 POP POP PUSH1 0x60 PUSH2 0x2F5E DUP10 DUP3 DUP11 ADD PUSH2 0x2DD6 JUMP JUMPDEST SWAP4 POP POP PUSH1 0x80 PUSH2 0x2F6F DUP10 DUP3 DUP11 ADD PUSH2 0x2DD6 JUMP JUMPDEST SWAP3 POP POP PUSH1 0xA0 PUSH2 0x2F80 DUP10 DUP3 DUP11 ADD PUSH2 0x2DD6 JUMP JUMPDEST SWAP2 POP POP SWAP3 SWAP6 POP SWAP3 SWAP6 POP SWAP3 SWAP6 JUMP JUMPDEST PUSH1 0x0 DUP1 PUSH1 0x0 DUP1 PUSH1 0x0 PUSH1 0xA0 DUP7 DUP9 SUB SLT ISZERO PUSH2 0x2FA5 JUMPI PUSH1 0x0 DUP1 REVERT JUMPDEST DUP6 CALLDATALOAD PUSH8 0xFFFFFFFFFFFFFFFF DUP2 GT ISZERO PUSH2 0x2FBC JUMPI PUSH1 0x0 DUP1 REVERT JUMPDEST PUSH2 0x2FC8 DUP9 DUP3 DUP10 ADD PUSH2 0x2C22 JUMP JUMPDEST SWAP6 POP POP PUSH1 0x20 DUP7 ADD CALLDATALOAD PUSH8 0xFFFFFFFFFFFFFFFF DUP2 GT ISZERO PUSH2 0x2FE5 JUMPI PUSH1 0x0 DUP1 REVERT JUMPDEST PUSH2 0x2FF1 DUP9 DUP3 DUP10 ADD PUSH2 0x2D5B JUMP JUMPDEST SWAP5 POP POP PUSH1 0x40 DUP7 ADD CALLDATALOAD PUSH8 0xFFFFFFFFFFFFFFFF DUP2 GT ISZERO PUSH2 0x300E JUMPI PUSH1 0x0 DUP1 REVERT JUMPDEST PUSH2 0x301A DUP9 DUP3 DUP10 ADD PUSH2 0x2CFE JUMP JUMPDEST SWAP4 POP POP PUSH1 0x60 DUP7 ADD CALLDATALOAD PUSH8 0xFFFFFFFFFFFFFFFF DUP2 GT ISZERO PUSH2 0x3037 JUMPI PUSH1 0x0 DUP1 REVERT JUMPDEST PUSH2 0x3043 DUP9 DUP3 DUP10 ADD PUSH2 0x2CA1 JUMP JUMPDEST SWAP3 POP POP PUSH1 0x80 DUP7 ADD CALLDATALOAD PUSH8 0xFFFFFFFFFFFFFFFF DUP2 GT ISZERO PUSH2 0x3060 JUMPI PUSH1 0x0 DUP1 REVERT JUMPDEST PUSH2 0x306C DUP9 DUP3 DUP10 ADD PUSH2 0x2DEC JUMP JUMPDEST SWAP2 POP POP SWAP3 SWAP6 POP SWAP3 SWAP6 SWAP1 SWAP4 POP JUMP JUMPDEST PUSH1 0x0 PUSH1 0x20 DUP3 DUP5 SUB SLT ISZERO PUSH2 0x308B JUMPI PUSH1 0x0 DUP1 REVERT JUMPDEST PUSH1 0x0 PUSH2 0x2EFE DUP5 DUP5 PUSH2 0x2DCB JUMP JUMPDEST PUSH1 0x0 PUSH1 0x20 DUP3 DUP5 SUB SLT ISZERO PUSH2 0x30A9 JUMPI PUSH1 0x0 DUP1 REVERT JUMPDEST PUSH1 0x0 PUSH2 0x2EFE DUP5 DUP5 PUSH2 0x2DE1 JUMP JUMPDEST PUSH1 0x0 PUSH1 0x20 DUP3 DUP5 SUB SLT ISZERO PUSH2 0x30C7 JUMPI PUSH1 0x0 DUP1 REVERT JUMPDEST DUP2 MLOAD PUSH8 0xFFFFFFFFFFFFFFFF DUP2 GT ISZERO PUSH2 0x30DE JUMPI PUSH1 0x0 DUP1 REVERT JUMPDEST PUSH2 0x2EFE DUP5 DUP3 DUP6 ADD PUSH2 0x2E3B JUMP JUMPDEST PUSH1 0x0 PUSH1 0x20 DUP3 DUP5 SUB SLT ISZERO PUSH2 0x30FC JUMPI PUSH1 0x0 DUP1 REVERT JUMPDEST PUSH1 0x0 PUSH2 0x2EFE DUP5 DUP5 PUSH2 0x2DD6 JUMP JUMPDEST PUSH1 0x0 DUP1 PUSH1 0x40 DUP4 DUP6 SUB SLT ISZERO PUSH2 0x311B JUMPI PUSH1 0x0 DUP1 REVERT JUMPDEST PUSH1 0x0 PUSH2 0x3127 DUP6 DUP6 PUSH2 0x2DD6 JUMP JUMPDEST SWAP3 POP POP PUSH1 0x20 PUSH2 0x3138 DUP6 DUP3 DUP7 ADD PUSH2 0x2C17 JUMP JUMPDEST SWAP2 POP POP SWAP3 POP SWAP3 SWAP1 POP JUMP JUMPDEST PUSH1 0x0 DUP1 PUSH1 0x40 DUP4 DUP6 SUB SLT ISZERO PUSH2 0x3155 JUMPI PUSH1 0x0 DUP1 REVERT JUMPDEST PUSH1 0x0 PUSH2 0x3161 DUP6 DUP6 PUSH2 0x2DD6 JUMP JUMPDEST SWAP3 POP POP PUSH1 0x20 PUSH2 0x3138 DUP6 DUP3 DUP7 ADD PUSH2 0x2ECA JUMP JUMPDEST PUSH1 0x0 DUP1 PUSH1 0x0 DUP1 PUSH1 0x60 DUP6 DUP8 SUB SLT ISZERO PUSH2 0x3188 JUMPI PUSH1 0x0 DUP1 REVERT JUMPDEST PUSH1 0x0 PUSH2 0x3194 DUP8 DUP8 PUSH2 0x2DD6 JUMP JUMPDEST SWAP5 POP POP PUSH1 0x20 PUSH2 0x31A5 DUP8 DUP3 DUP9 ADD PUSH2 0x2ECA JUMP JUMPDEST SWAP4 POP POP PUSH1 0x40 DUP6 ADD CALLDATALOAD PUSH8 0xFFFFFFFFFFFFFFFF DUP2 GT ISZERO PUSH2 0x31C2 JUMPI PUSH1 0x0 DUP1 REVERT JUMPDEST PUSH2 0x31CE DUP8 DUP3 DUP9 ADD PUSH2 0x2E81 JUMP JUMPDEST SWAP6 SWAP9 SWAP5 SWAP8 POP SWAP6 POP POP POP POP JUMP JUMPDEST PUSH1 0x0 DUP1 PUSH1 0x0 DUP1 PUSH1 0x0 PUSH1 0xA0 DUP7 DUP9 SUB SLT ISZERO PUSH2 0x31F2 JUMPI PUSH1 0x0 DUP1 REVERT JUMPDEST PUSH1 0x0 PUSH2 0x31FE DUP9 DUP9 PUSH2 0x2DD6 JUMP JUMPDEST SWAP6 POP POP PUSH1 0x20 PUSH2 0x320F DUP9 DUP3 DUP10 ADD PUSH2 0x2ECA JUMP JUMPDEST SWAP5 POP POP PUSH1 0x40 PUSH2 0x3220 DUP9 DUP3 DUP10 ADD PUSH2 0x2ECA JUMP JUMPDEST SWAP4 POP POP PUSH1 0x60 PUSH2 0x3231 DUP9 DUP3 DUP10 ADD PUSH2 0x2DD6 JUMP JUMPDEST SWAP3 POP POP PUSH1 0x80 PUSH2 0x306C DUP9 DUP3 DUP10 ADD PUSH2 0x2DD6 JUMP JUMPDEST PUSH1 0x0 PUSH1 0x20 DUP3 DUP5 SUB SLT ISZERO PUSH2 0x3254 JUMPI PUSH1 0x0 DUP1 REVERT JUMPDEST PUSH1 0x0 PUSH2 0x2EFE DUP5 DUP5 PUSH2 0x2ED5 JUMP JUMPDEST PUSH1 0x0 PUSH2 0x326C DUP4 DUP4 PUSH2 0x329B JUMP JUMPDEST POP POP PUSH1 0x20 ADD SWAP1 JUMP JUMPDEST PUSH1 0x0 PUSH2 0x26A5 DUP4 DUP4 PUSH2 0x343D JUMP JUMPDEST PUSH1 0x0 PUSH2 0x326C DUP4 DUP4 PUSH2 0x3423 JUMP JUMPDEST PUSH2 0x3295 DUP2 PUSH2 0x4CEE JUMP JUMPDEST DUP3 MSTORE POP POP JUMP JUMPDEST PUSH2 0x3295 DUP2 PUSH2 0x4CB1 JUMP JUMPDEST PUSH1 0x0 PUSH2 0x32AF DUP3 PUSH2 0x4CA4 JUMP JUMPDEST PUSH2 0x32B9 DUP2 DUP6 PUSH2 0x4CA8 JUMP JUMPDEST SWAP4 POP PUSH2 0x32C4 DUP4 PUSH2 0x4C92 JUMP JUMPDEST DUP1 PUSH1 0x0 JUMPDEST DUP4 DUP2 LT ISZERO PUSH2 0x32F2 JUMPI DUP2 MLOAD PUSH2 0x32DC DUP9 DUP3 PUSH2 0x3260 JUMP JUMPDEST SWAP8 POP PUSH2 0x32E7 DUP4 PUSH2 0x4C92 JUMP JUMPDEST SWAP3 POP POP PUSH1 0x1 ADD PUSH2 0x32C8 JUMP JUMPDEST POP SWAP5 SWAP6 SWAP5 POP POP POP POP POP JUMP JUMPDEST PUSH1 0x0 PUSH2 0x3308 DUP3 PUSH2 0x4CA4 JUMP JUMPDEST PUSH2 0x3312 DUP2 DUP6 PUSH2 0x4CA8 JUMP JUMPDEST SWAP4 POP DUP4 PUSH1 0x20 DUP3 MUL DUP6 ADD PUSH2 0x3324 DUP6 PUSH2 0x4C92 JUMP JUMPDEST DUP1 PUSH1 0x0 JUMPDEST DUP6 DUP2 LT ISZERO PUSH2 0x335E JUMPI DUP5 DUP5 SUB DUP10 MSTORE DUP2 MLOAD PUSH2 0x3341 DUP6 DUP3 PUSH2 0x3274 JUMP JUMPDEST SWAP5 POP PUSH2 0x334C DUP4 PUSH2 0x4C92 JUMP JUMPDEST PUSH1 0x20 SWAP11 SWAP1 SWAP11 ADD SWAP10 SWAP3 POP POP PUSH1 0x1 ADD PUSH2 0x3328 JUMP JUMPDEST POP SWAP2 SWAP8 SWAP7 POP POP POP POP POP POP POP JUMP JUMPDEST PUSH1 0x0 PUSH2 0x3376 DUP3 PUSH2 0x4CA4 JUMP JUMPDEST PUSH2 0x3380 DUP2 DUP6 PUSH2 0x4CA8 JUMP JUMPDEST SWAP4 POP DUP4 PUSH1 0x20 DUP3 MUL DUP6 ADD PUSH2 0x3392 DUP6 PUSH2 0x4C92 JUMP JUMPDEST DUP1 PUSH1 0x0 JUMPDEST DUP6 DUP2 LT ISZERO PUSH2 0x335E JUMPI DUP5 DUP5 SUB DUP10 MSTORE DUP2 MLOAD PUSH2 0x33AF DUP6 DUP3 PUSH2 0x3274 JUMP JUMPDEST SWAP5 POP PUSH2 0x33BA DUP4 PUSH2 0x4C92 JUMP JUMPDEST PUSH1 0x20 SWAP11 SWAP1 SWAP11 ADD SWAP10 SWAP3 POP POP PUSH1 0x1 ADD PUSH2 0x3396 JUMP JUMPDEST PUSH1 0x0 PUSH2 0x33D7 DUP3 PUSH2 0x4CA4 JUMP JUMPDEST PUSH2 0x33E1 DUP2 DUP6 PUSH2 0x4CA8 JUMP JUMPDEST SWAP4 POP PUSH2 0x33EC DUP4 PUSH2 0x4C92 JUMP JUMPDEST DUP1 PUSH1 0x0 JUMPDEST DUP4 DUP2 LT ISZERO PUSH2 0x32F2 JUMPI DUP2 MLOAD PUSH2 0x3404 DUP9 DUP3 PUSH2 0x3280 JUMP JUMPDEST SWAP8 POP PUSH2 0x340F DUP4 PUSH2 0x4C92 JUMP JUMPDEST SWAP3 POP POP PUSH1 0x1 ADD PUSH2 0x33F0 JUMP JUMPDEST PUSH2 0x3295 DUP2 PUSH2 0x4CBC JUMP JUMPDEST PUSH2 0x3295 DUP2 PUSH2 0x23CE JUMP JUMPDEST PUSH2 0x3295 PUSH2 0x3438 DUP3 PUSH2 0x23CE JUMP JUMPDEST PUSH2 0x23CE JUMP JUMPDEST PUSH1 0x0 PUSH2 0x3448 DUP3 PUSH2 0x4CA4 JUMP JUMPDEST PUSH2 0x3452 DUP2 DUP6 PUSH2 0x4CA8 JUMP JUMPDEST SWAP4 POP PUSH2 0x3462 DUP2 DUP6 PUSH1 0x20 DUP7 ADD PUSH2 0x4D22 JUMP JUMPDEST PUSH2 0x346B DUP2 PUSH2 0x4D4E JUMP JUMPDEST SWAP1 SWAP4 ADD SWAP4 SWAP3 POP POP POP JUMP JUMPDEST PUSH1 0x0 DUP2 SLOAD PUSH1 0x1 DUP2 AND PUSH1 0x0 DUP2 EQ PUSH2 0x3492 JUMPI PUSH1 0x1 DUP2 EQ PUSH2 0x34D6 JUMPI PUSH2 0x3515 JUMP JUMPDEST PUSH1 0x7F PUSH1 0x2 DUP4 DIV AND PUSH2 0x34A3 DUP2 DUP8 PUSH2 0x4CA8 JUMP JUMPDEST PUSH32 0xFFFFFFFFFFFFFFFFFFFFFFFFFFFFFFFFFFFFFFFFFFFFFFFFFFFFFFFFFFFFFF00 DUP5 AND DUP2 MSTORE SWAP6 POP POP PUSH1 0x20 DUP6 ADD SWAP3 POP PUSH2 0x3515 JUMP JUMPDEST PUSH1 0x2 DUP3 DIV PUSH2 0x34E4 DUP2 DUP8 PUSH2 0x4CA8 JUMP JUMPDEST SWAP6 POP PUSH2 0x34EF DUP6 PUSH2 0x4C98 JUMP JUMPDEST PUSH1 0x0 JUMPDEST DUP3 DUP2 LT ISZERO PUSH2 0x350E JUMPI DUP2 SLOAD DUP9 DUP3 ADD MSTORE PUSH1 0x1 SWAP1 SWAP2 ADD SWAP1 PUSH1 0x20 ADD PUSH2 0x34F2 JUMP JUMPDEST DUP8 ADD SWAP5 POP POP POP JUMPDEST POP POP SWAP3 SWAP2 POP POP JUMP JUMPDEST PUSH2 0x3295 DUP2 PUSH2 0x4CF5 JUMP JUMPDEST PUSH2 0x3295 DUP2 PUSH2 0x4D00 JUMP JUMPDEST PUSH1 0x0 PUSH2 0x353B DUP4 DUP6 PUSH2 0x4CA8 JUMP JUMPDEST SWAP4 POP PUSH2 0x3548 DUP4 DUP6 DUP5 PUSH2 0x4D16 JUMP JUMPDEST PUSH2 0x346B DUP4 PUSH2 0x4D4E JUMP JUMPDEST PUSH1 0x0 PUSH2 0x355E PUSH1 0x32 DUP4 PUSH2 0x4CA8 JUMP JUMPDEST PUSH32 0x476F7665726E6F72427261766F3A3A63617374566F7465496E7465726E616C3A DUP2 MSTORE PUSH32 0x20696E76616C696420766F746520747970650000000000000000000000000000 PUSH1 0x20 DUP3 ADD MSTORE PUSH1 0x40 ADD SWAP3 SWAP2 POP POP JUMP JUMPDEST PUSH1 0x0 PUSH2 0x35BD PUSH1 0x28 DUP4 PUSH2 0x1155 JUMP JUMPDEST PUSH32 0x42616C6C6F742875696E743235362070726F706F73616C49642C75696E743820 DUP2 MSTORE PUSH32 0x737570706F727429000000000000000000000000000000000000000000000000 PUSH1 0x20 DUP3 ADD MSTORE PUSH1 0x28 ADD SWAP3 SWAP2 POP POP JUMP JUMPDEST PUSH1 0x0 PUSH2 0x361C PUSH1 0x33 DUP4 PUSH2 0x4CA8 JUMP JUMPDEST PUSH32 0x476F7665726E6F72427261766F3A3A696E697469616C697A653A2063616E206F DUP2 MSTORE PUSH32 0x6E6C7920696E697469616C697A65206F6E636500000000000000000000000000 PUSH1 0x20 DUP3 ADD MSTORE PUSH1 0x40 ADD SWAP3 SWAP2 POP POP JUMP JUMPDEST PUSH1 0x0 PUSH2 0x367B PUSH1 0x2A DUP4 PUSH2 0x4CA8 JUMP JUMPDEST PUSH32 0x476F7665726E6F72427261766F3A5F73657450656E64696E6741646D696E3A20 DUP2 MSTORE PUSH32 0x61646D696E206F6E6C7900000000000000000000000000000000000000000000 PUSH1 0x20 DUP3 ADD MSTORE PUSH1 0x40 ADD SWAP3 SWAP2 POP POP JUMP JUMPDEST PUSH1 0x0 PUSH2 0x36DA PUSH1 0x55 DUP4 PUSH2 0x4CA8 JUMP JUMPDEST PUSH32 0x476F7665726E6F72427261766F3A3A71756575654F72526576657274496E7465 DUP2 MSTORE PUSH32 0x726E616C3A206964656E746963616C2070726F706F73616C20616374696F6E20 PUSH1 0x20 DUP3 ADD MSTORE PUSH32 0x616C726561647920717565756564206174206574610000000000000000000000 PUSH1 0x40 DUP3 ADD MSTORE PUSH1 0x60 ADD SWAP3 SWAP2 POP POP JUMP JUMPDEST PUSH1 0x0 PUSH2 0x375F PUSH1 0x2B DUP4 PUSH2 0x4CA8 JUMP JUMPDEST PUSH32 0x476F7665726E6F72427261766F3A3A5F736574566F74696E67506572696F643A DUP2 MSTORE PUSH32 0x2061646D696E206F6E6C79000000000000000000000000000000000000000000 PUSH1 0x20 DUP3 ADD MSTORE PUSH1 0x40 ADD SWAP3 SWAP2 POP POP JUMP JUMPDEST PUSH1 0x0 PUSH2 0x37BE PUSH1 0x33 DUP4 PUSH2 0x4CA8 JUMP JUMPDEST PUSH32 0x476F7665726E6F72427261766F3A3A696E697469616C697A653A20696E76616C DUP2 MSTORE PUSH32 0x69642074696D656C6F636B206164647265737300000000000000000000000000 PUSH1 0x20 DUP3 ADD MSTORE PUSH1 0x40 ADD SWAP3 SWAP2 POP POP JUMP JUMPDEST PUSH1 0x0 PUSH2 0x381D PUSH1 0x2A DUP4 PUSH2 0x4CA8 JUMP JUMPDEST PUSH32 0x476F7665726E6F72427261766F3A3A5F736574566F74696E6744656C61793A20 DUP2 MSTORE PUSH32 0x61646D696E206F6E6C7900000000000000000000000000000000000000000000 PUSH1 0x20 DUP3 ADD MSTORE PUSH1 0x40 ADD SWAP3 SWAP2 POP POP JUMP JUMPDEST PUSH1 0x0 PUSH2 0x387C PUSH1 0x31 DUP4 PUSH2 0x4CA8 JUMP JUMPDEST PUSH32 0x476F7665726E6F72427261766F3A3A70726F706F73653A20476F7665726E6F72 DUP2 MSTORE PUSH32 0x20427261766F206E6F7420616374697665000000000000000000000000000000 PUSH1 0x20 DUP3 ADD MSTORE PUSH1 0x40 ADD SWAP3 SWAP2 POP POP JUMP JUMPDEST PUSH1 0x0 PUSH2 0x38DB PUSH1 0x2 DUP4 PUSH2 0x1155 JUMP JUMPDEST PUSH32 0x1901000000000000000000000000000000000000000000000000000000000000 DUP2 MSTORE PUSH1 0x2 ADD SWAP3 SWAP2 POP POP JUMP JUMPDEST PUSH1 0x0 PUSH2 0x3914 PUSH1 0x1B DUP4 PUSH2 0x4CA8 JUMP JUMPDEST PUSH32 0x536166654D6174683A206164646974696F6E206F766572666C6F770000000000 DUP2 MSTORE PUSH1 0x20 ADD SWAP3 SWAP2 POP POP JUMP JUMPDEST PUSH1 0x0 PUSH2 0x394D PUSH1 0x36 DUP4 PUSH2 0x4CA8 JUMP JUMPDEST PUSH32 0x476F7665726E6F72427261766F3A3A5F736574566F74696E67506572696F643A DUP2 MSTORE PUSH32 0x20696E76616C696420766F74696E6720706572696F6400000000000000000000 PUSH1 0x20 DUP3 ADD MSTORE PUSH1 0x40 ADD SWAP3 SWAP2 POP POP JUMP JUMPDEST PUSH1 0x0 PUSH2 0x39AC PUSH1 0x31 DUP4 PUSH2 0x4CA8 JUMP JUMPDEST PUSH32 0x476F7665726E6F72427261766F3A3A63617374566F7465496E7465726E616C3A DUP2 MSTORE PUSH32 0x20766F74696E6720697320636C6F736564000000000000000000000000000000 PUSH1 0x20 DUP3 ADD MSTORE PUSH1 0x40 ADD SWAP3 SWAP2 POP POP JUMP JUMPDEST PUSH1 0x0 PUSH2 0x3A0B PUSH1 0x34 DUP4 PUSH2 0x4CA8 JUMP JUMPDEST PUSH32 0x476F7665726E6F72427261766F3A3A63617374566F7465496E7465726E616C3A DUP2 MSTORE PUSH32 0x20766F74657220616C726561647920766F746564000000000000000000000000 PUSH1 0x20 DUP3 ADD MSTORE PUSH1 0x40 ADD SWAP3 SWAP2 POP POP JUMP JUMPDEST PUSH1 0x0 PUSH2 0x3A6A PUSH1 0x34 DUP4 PUSH2 0x4CA8 JUMP JUMPDEST PUSH32 0x476F7665726E6F72427261766F3A3A5F736574566F74696E6744656C61793A20 DUP2 MSTORE PUSH32 0x696E76616C696420766F74696E672064656C6179000000000000000000000000 PUSH1 0x20 DUP3 ADD MSTORE PUSH1 0x40 ADD SWAP3 SWAP2 POP POP JUMP JUMPDEST PUSH1 0x0 PUSH2 0x3AC9 PUSH1 0x35 DUP4 PUSH2 0x4CA8 JUMP JUMPDEST PUSH32 0x476F7665726E6F72427261766F3A3A696E697469616C697A653A20696E76616C DUP2 MSTORE PUSH32 0x69642070726F706F73616C207468726573686F6C640000000000000000000000 PUSH1 0x20 DUP3 ADD MSTORE PUSH1 0x40 ADD SWAP3 SWAP2 POP POP JUMP JUMPDEST PUSH1 0x0 PUSH2 0x3B28 PUSH1 0x45 DUP4 PUSH2 0x4CA8 JUMP JUMPDEST PUSH32 0x476F7665726E6F72427261766F3A3A657865637574653A2070726F706F73616C DUP2 MSTORE PUSH32 0x2063616E206F6E6C792062652065786563757465642069662069742069732071 PUSH1 0x20 DUP3 ADD MSTORE PUSH32 0x7565756564000000000000000000000000000000000000000000000000000000 PUSH1 0x40 DUP3 ADD MSTORE PUSH1 0x60 ADD SWAP3 SWAP2 POP POP JUMP JUMPDEST PUSH1 0x0 PUSH2 0x3BAD PUSH1 0x2F DUP4 PUSH2 0x4CA8 JUMP JUMPDEST PUSH32 0x476F7665726E6F72427261766F3A3A63617374566F746542795369673A20696E DUP2 MSTORE PUSH32 0x76616C6964207369676E61747572650000000000000000000000000000000000 PUSH1 0x20 DUP3 ADD MSTORE PUSH1 0x40 ADD SWAP3 SWAP2 POP POP JUMP JUMPDEST PUSH1 0x0 PUSH2 0x3C0C PUSH1 0x2F DUP4 PUSH2 0x4CA8 JUMP JUMPDEST PUSH32 0x476F7665726E6F72427261766F3A3A696E697469616C697A653A20696E76616C DUP2 MSTORE PUSH32 0x696420766F74696E672064656C61790000000000000000000000000000000000 PUSH1 0x20 DUP3 ADD MSTORE PUSH1 0x40 ADD SWAP3 SWAP2 POP POP JUMP JUMPDEST PUSH1 0x0 PUSH2 0x3C6B PUSH1 0x44 DUP4 PUSH2 0x4CA8 JUMP JUMPDEST PUSH32 0x476F7665726E6F72427261766F3A3A70726F706F73653A2070726F706F73616C DUP2 MSTORE PUSH32 0x2066756E6374696F6E20696E666F726D6174696F6E206172697479206D69736D PUSH1 0x20 DUP3 ADD MSTORE PUSH32 0x6174636800000000000000000000000000000000000000000000000000000000 PUSH1 0x40 DUP3 ADD MSTORE PUSH1 0x60 ADD SWAP3 SWAP2 POP POP JUMP JUMPDEST PUSH1 0x0 PUSH2 0x3CF0 PUSH1 0x25 DUP4 PUSH2 0x4CA8 JUMP JUMPDEST PUSH32 0x476F7665726E6F72427261766F3A3A696E697469616C697A653A2061646D696E DUP2 MSTORE PUSH32 0x206F6E6C79000000000000000000000000000000000000000000000000000000 PUSH1 0x20 DUP3 ADD MSTORE PUSH1 0x40 ADD SWAP3 SWAP2 POP POP JUMP JUMPDEST PUSH1 0x0 PUSH2 0x3D4F PUSH1 0x40 DUP4 PUSH2 0x4CA8 JUMP JUMPDEST PUSH32 0x476F7665726E6F72427261766F3A3A5F73657450726F706F73616C5468726573 DUP2 MSTORE PUSH32 0x686F6C643A20696E76616C69642070726F706F73616C207468726573686F6C64 PUSH1 0x20 DUP3 ADD MSTORE PUSH1 0x40 ADD SWAP3 SWAP2 POP POP JUMP JUMPDEST PUSH1 0x0 PUSH2 0x3DAE PUSH1 0x44 DUP4 PUSH2 0x4CA8 JUMP JUMPDEST PUSH32 0x476F7665726E6F72427261766F3A3A71756575653A2070726F706F73616C2063 DUP2 MSTORE PUSH32 0x616E206F6E6C7920626520717565756564206966206974206973207375636365 PUSH1 0x20 DUP3 ADD MSTORE PUSH32 0x6564656400000000000000000000000000000000000000000000000000000000 PUSH1 0x40 DUP3 ADD MSTORE PUSH1 0x60 ADD SWAP3 SWAP2 POP POP JUMP JUMPDEST PUSH1 0x0 PUSH2 0x3E33 PUSH1 0x11 DUP4 PUSH2 0x4CA8 JUMP JUMPDEST PUSH32 0x6164646974696F6E206F766572666C6F77000000000000000000000000000000 DUP2 MSTORE PUSH1 0x20 ADD SWAP3 SWAP2 POP POP JUMP JUMPDEST PUSH1 0x0 PUSH2 0x3E6C PUSH1 0x43 DUP4 PUSH2 0x1155 JUMP JUMPDEST PUSH32 0x454950373132446F6D61696E28737472696E67206E616D652C75696E74323536 DUP2 MSTORE PUSH32 0x20636861696E49642C6164647265737320766572696679696E67436F6E747261 PUSH1 0x20 DUP3 ADD MSTORE PUSH32 0x6374290000000000000000000000000000000000000000000000000000000000 PUSH1 0x40 DUP3 ADD MSTORE PUSH1 0x43 ADD SWAP3 SWAP2 POP POP JUMP JUMPDEST PUSH1 0x0 PUSH2 0x3EF1 PUSH1 0x30 DUP4 PUSH2 0x4CA8 JUMP JUMPDEST PUSH32 0x476F7665726E6F72427261766F3A3A5F696E6974696174653A2063616E206F6E DUP2 MSTORE PUSH32 0x6C7920696E697469617465206F6E636500000000000000000000000000000000 PUSH1 0x20 DUP3 ADD MSTORE PUSH1 0x40 ADD SWAP3 SWAP2 POP POP JUMP JUMPDEST PUSH1 0x0 PUSH2 0x3F50 PUSH1 0x2C DUP4 PUSH2 0x4CA8 JUMP JUMPDEST PUSH32 0x476F7665726E6F72427261766F3A3A70726F706F73653A206D7573742070726F DUP2 MSTORE PUSH32 0x7669646520616374696F6E730000000000000000000000000000000000000000 PUSH1 0x20 DUP3 ADD MSTORE PUSH1 0x40 ADD SWAP3 SWAP2 POP POP JUMP JUMPDEST PUSH1 0x0 PUSH2 0x3FAF PUSH1 0x2E DUP4 PUSH2 0x4CA8 JUMP JUMPDEST PUSH32 0x476F7665726E6F72427261766F3A5F61636365707441646D696E3A2070656E64 DUP2 MSTORE PUSH32 0x696E672061646D696E206F6E6C79000000000000000000000000000000000000 PUSH1 0x20 DUP3 ADD MSTORE PUSH1 0x40 ADD SWAP3 SWAP2 POP POP JUMP JUMPDEST PUSH1 0x0 PUSH2 0x400E PUSH1 0x2F DUP4 PUSH2 0x4CA8 JUMP JUMPDEST PUSH32 0x476F7665726E6F72427261766F3A3A63616E63656C3A2070726F706F73657220 DUP2 MSTORE PUSH32 0x61626F7665207468726573686F6C640000000000000000000000000000000000 PUSH1 0x20 DUP3 ADD MSTORE PUSH1 0x40 ADD SWAP3 SWAP2 POP POP JUMP JUMPDEST PUSH1 0x0 PUSH2 0x406D PUSH1 0x28 DUP4 PUSH2 0x4CA8 JUMP JUMPDEST PUSH32 0x476F7665726E6F72427261766F3A3A70726F706F73653A20746F6F206D616E79 DUP2 MSTORE PUSH32 0x20616374696F6E73000000000000000000000000000000000000000000000000 PUSH1 0x20 DUP3 ADD MSTORE PUSH1 0x40 ADD SWAP3 SWAP2 POP POP JUMP JUMPDEST PUSH1 0x0 PUSH2 0x40CC PUSH1 0x59 DUP4 PUSH2 0x4CA8 JUMP JUMPDEST PUSH32 0x476F7665726E6F72427261766F3A3A70726F706F73653A206F6E65206C697665 DUP2 MSTORE PUSH32 0x2070726F706F73616C207065722070726F706F7365722C20666F756E6420616E PUSH1 0x20 DUP3 ADD MSTORE PUSH32 0x20616C72656164792070656E64696E672070726F706F73616C00000000000000 PUSH1 0x40 DUP3 ADD MSTORE PUSH1 0x60 ADD SWAP3 SWAP2 POP POP JUMP JUMPDEST PUSH1 0x0 PUSH2 0x4151 PUSH1 0x32 DUP4 PUSH2 0x4CA8 JUMP JUMPDEST PUSH32 0x476F7665726E6F72427261766F3A3A696E697469616C697A653A20696E76616C DUP2 MSTORE PUSH32 0x6964206C3220626F626120616464726573730000000000000000000000000000 PUSH1 0x20 DUP3 ADD MSTORE PUSH1 0x40 ADD SWAP3 SWAP2 POP POP JUMP JUMPDEST PUSH1 0x0 PUSH2 0x41B0 PUSH1 0x58 DUP4 PUSH2 0x4CA8 JUMP JUMPDEST PUSH32 0x476F7665726E6F72427261766F3A3A70726F706F73653A206F6E65206C697665 DUP2 MSTORE PUSH32 0x2070726F706F73616C207065722070726F706F7365722C20666F756E6420616E PUSH1 0x20 DUP3 ADD MSTORE PUSH32 0x20616C7265616479206163746976652070726F706F73616C0000000000000000 PUSH1 0x40 DUP3 ADD MSTORE PUSH1 0x60 ADD SWAP3 SWAP2 POP POP JUMP JUMPDEST PUSH1 0x0 PUSH2 0x20C0 PUSH1 0x0 DUP4 PUSH2 0x4CA8 JUMP JUMPDEST PUSH1 0x0 PUSH2 0x4242 PUSH1 0x24 DUP4 PUSH2 0x4CA8 JUMP JUMPDEST PUSH32 0x476F7665726E6F72427261766F3A3A5F696E6974696174653A2061646D696E20 DUP2 MSTORE PUSH32 0x6F6E6C7900000000000000000000000000000000000000000000000000000000 PUSH1 0x20 DUP3 ADD MSTORE PUSH1 0x40 ADD SWAP3 SWAP2 POP POP JUMP JUMPDEST PUSH1 0x0 PUSH2 0x42A1 PUSH1 0x3F DUP4 PUSH2 0x4CA8 JUMP JUMPDEST PUSH32 0x476F7665726E6F72427261766F3A3A70726F706F73653A2070726F706F736572 DUP2 MSTORE PUSH32 0x20766F7465732062656C6F772070726F706F73616C207468726573686F6C6400 PUSH1 0x20 DUP3 ADD MSTORE PUSH1 0x40 ADD SWAP3 SWAP2 POP POP JUMP JUMPDEST PUSH1 0x0 PUSH2 0x4300 PUSH1 0x36 DUP4 PUSH2 0x4CA8 JUMP JUMPDEST PUSH32 0x476F7665726E6F72427261766F3A3A63616E63656C3A2063616E6E6F74206361 DUP2 MSTORE PUSH32 0x6E63656C2065786563757465642070726F706F73616C00000000000000000000 PUSH1 0x20 DUP3 ADD MSTORE PUSH1 0x40 ADD SWAP3 SWAP2 POP POP JUMP JUMPDEST PUSH1 0x0 PUSH2 0x435F PUSH1 0x33 DUP4 PUSH2 0x4CA8 JUMP JUMPDEST PUSH32 0x476F7665726E6F72427261766F3A3A696E697469616C697A653A20696E76616C DUP2 MSTORE PUSH32 0x6964206C322078626F6261206164647265737300000000000000000000000000 PUSH1 0x20 DUP3 ADD MSTORE PUSH1 0x40 ADD SWAP3 SWAP2 POP POP JUMP JUMPDEST PUSH1 0x0 PUSH2 0x43BE PUSH1 0x30 DUP4 PUSH2 0x4CA8 JUMP JUMPDEST PUSH32 0x476F7665726E6F72427261766F3A3A5F73657450726F706F73616C5468726573 DUP2 MSTORE PUSH32 0x686F6C643A2061646D696E206F6E6C7900000000000000000000000000000000 PUSH1 0x20 DUP3 ADD MSTORE PUSH1 0x40 ADD SWAP3 SWAP2 POP POP JUMP JUMPDEST PUSH1 0x0 PUSH2 0x441D PUSH1 0x29 DUP4 PUSH2 0x4CA8 JUMP JUMPDEST PUSH32 0x476F7665726E6F72427261766F3A3A73746174653A20696E76616C6964207072 DUP2 MSTORE PUSH32 0x6F706F73616C2069640000000000000000000000000000000000000000000000 PUSH1 0x20 DUP3 ADD MSTORE PUSH1 0x40 ADD SWAP3 SWAP2 POP POP JUMP JUMPDEST PUSH1 0x0 PUSH2 0x447C PUSH1 0x30 DUP4 PUSH2 0x4CA8 JUMP JUMPDEST PUSH32 0x476F7665726E6F72427261766F3A3A696E697469616C697A653A20696E76616C DUP2 MSTORE PUSH32 0x696420766F74696E6720706572696F6400000000000000000000000000000000 PUSH1 0x20 DUP3 ADD MSTORE PUSH1 0x40 ADD SWAP3 SWAP2 POP POP JUMP JUMPDEST PUSH1 0x0 PUSH2 0x44DB PUSH1 0x15 DUP4 PUSH2 0x4CA8 JUMP JUMPDEST PUSH32 0x7375627472616374696F6E20756E646572666C6F770000000000000000000000 DUP2 MSTORE PUSH1 0x20 ADD SWAP3 SWAP2 POP POP JUMP JUMPDEST DUP1 MLOAD PUSH1 0x60 DUP4 ADD SWAP1 PUSH2 0x4518 DUP5 DUP3 PUSH2 0x341A JUMP JUMPDEST POP PUSH1 0x20 DUP3 ADD MLOAD PUSH2 0x452B PUSH1 0x20 DUP6 ADD DUP3 PUSH2 0x453E JUMP JUMPDEST POP PUSH1 0x40 DUP3 ADD MLOAD PUSH2 0x17D5 PUSH1 0x40 DUP6 ADD DUP3 PUSH2 0x4550 JUMP JUMPDEST PUSH2 0x3295 DUP2 PUSH2 0x4CD7 JUMP JUMPDEST PUSH2 0x3295 DUP2 PUSH2 0x4D0B JUMP JUMPDEST PUSH2 0x3295 DUP2 PUSH2 0x4CDD JUMP JUMPDEST PUSH1 0x0 PUSH2 0x20C0 DUP3 PUSH2 0x35B0 JUMP JUMPDEST PUSH1 0x0 PUSH2 0x456F DUP3 PUSH2 0x38CE JUMP JUMPDEST SWAP2 POP PUSH2 0x457B DUP3 DUP6 PUSH2 0x342C JUMP JUMPDEST PUSH1 0x20 DUP3 ADD SWAP2 POP PUSH2 0x458B DUP3 DUP5 PUSH2 0x342C JUMP JUMPDEST POP PUSH1 0x20 ADD SWAP3 SWAP2 POP POP JUMP JUMPDEST PUSH1 0x0 PUSH2 0x20C0 DUP3 PUSH2 0x3E5F JUMP JUMPDEST PUSH1 0x20 DUP2 ADD PUSH2 0x20C0 DUP3 DUP5 PUSH2 0x329B JUMP JUMPDEST PUSH1 0x40 DUP2 ADD PUSH2 0x45BC DUP3 DUP6 PUSH2 0x328C JUMP JUMPDEST PUSH2 0x26A5 PUSH1 0x20 DUP4 ADD DUP5 PUSH2 0x3423 JUMP JUMPDEST PUSH1 0x40 DUP2 ADD PUSH2 0x45D7 DUP3 DUP6 PUSH2 0x329B JUMP JUMPDEST PUSH2 0x26A5 PUSH1 0x20 DUP4 ADD DUP5 PUSH2 0x329B JUMP JUMPDEST PUSH1 0x40 DUP2 ADD PUSH2 0x45BC DUP3 DUP6 PUSH2 0x329B JUMP JUMPDEST PUSH1 0xA0 DUP2 ADD PUSH2 0x4600 DUP3 DUP9 PUSH2 0x329B JUMP JUMPDEST PUSH2 0x460D PUSH1 0x20 DUP4 ADD DUP8 PUSH2 0x3423 JUMP JUMPDEST DUP2 DUP2 SUB PUSH1 0x40 DUP4 ADD MSTORE PUSH2 0x461F DUP2 DUP7 PUSH2 0x343D JUMP JUMPDEST SWAP1 POP DUP2 DUP2 SUB PUSH1 0x60 DUP4 ADD MSTORE PUSH2 0x4633 DUP2 DUP6 PUSH2 0x343D JUMP JUMPDEST SWAP1 POP PUSH2 0x4642 PUSH1 0x80 DUP4 ADD DUP5 PUSH2 0x3423 JUMP JUMPDEST SWAP7 SWAP6 POP POP POP POP POP POP JUMP JUMPDEST PUSH1 0xA0 DUP2 ADD PUSH2 0x465A DUP3 DUP9 PUSH2 0x329B JUMP JUMPDEST PUSH2 0x4667 PUSH1 0x20 DUP4 ADD DUP8 PUSH2 0x3423 JUMP JUMPDEST DUP2 DUP2 SUB PUSH1 0x40 DUP4 ADD MSTORE PUSH2 0x4679 DUP2 DUP7 PUSH2 0x3475 JUMP JUMPDEST SWAP1 POP DUP2 DUP2 SUB PUSH1 0x60 DUP4 ADD MSTORE PUSH2 0x4633 DUP2 DUP6 PUSH2 0x3475 JUMP JUMPDEST PUSH1 0x80 DUP1 DUP3 MSTORE DUP2 ADD PUSH2 0x469E DUP2 DUP8 PUSH2 0x32A4 JUMP JUMPDEST SWAP1 POP DUP2 DUP2 SUB PUSH1 0x20 DUP4 ADD MSTORE PUSH2 0x46B2 DUP2 DUP7 PUSH2 0x33CC JUMP JUMPDEST SWAP1 POP DUP2 DUP2 SUB PUSH1 0x40 DUP4 ADD MSTORE PUSH2 0x46C6 DUP2 DUP6 PUSH2 0x336B JUMP JUMPDEST SWAP1 POP DUP2 DUP2 SUB PUSH1 0x60 DUP4 ADD MSTORE PUSH2 0x4642 DUP2 DUP5 PUSH2 0x32FD JUMP JUMPDEST PUSH1 0x20 DUP2 ADD PUSH2 0x20C0 DUP3 DUP5 PUSH2 0x3423 JUMP JUMPDEST PUSH1 0x80 DUP2 ADD PUSH2 0x46F6 DUP3 DUP8 PUSH2 0x3423 JUMP JUMPDEST PUSH2 0x4703 PUSH1 0x20 DUP4 ADD DUP7 PUSH2 0x3423 JUMP JUMPDEST PUSH2 0x4710 PUSH1 0x40 DUP4 ADD DUP6 PUSH2 0x3423 JUMP JUMPDEST PUSH2 0x1D6E PUSH1 0x60 DUP4 ADD DUP5 PUSH2 0x329B JUMP JUMPDEST PUSH1 0x60 DUP2 ADD PUSH2 0x472B DUP3 DUP7 PUSH2 0x3423 JUMP JUMPDEST PUSH2 0x4738 PUSH1 0x20 DUP4 ADD DUP6 PUSH2 0x3423 JUMP JUMPDEST PUSH2 0x2EFE PUSH1 0x40 DUP4 ADD DUP5 PUSH2 0x453E JUMP JUMPDEST PUSH1 0x80 DUP2 ADD PUSH2 0x4753 DUP3 DUP8 PUSH2 0x3423 JUMP JUMPDEST PUSH2 0x4760 PUSH1 0x20 DUP4 ADD DUP7 PUSH2 0x453E JUMP JUMPDEST PUSH2 0x476D PUSH1 0x40 DUP4 ADD DUP6 PUSH2 0x3423 JUMP JUMPDEST PUSH2 0x1D6E PUSH1 0x60 DUP4 ADD DUP5 PUSH2 0x3423 JUMP JUMPDEST PUSH1 0x20 DUP2 ADD PUSH2 0x20C0 DUP3 DUP5 PUSH2 0x351D JUMP JUMPDEST PUSH1 0x20 DUP2 ADD PUSH2 0x20C0 DUP3 DUP5 PUSH2 0x3526 JUMP JUMPDEST PUSH1 0x20 DUP1 DUP3 MSTORE DUP2 ADD PUSH2 0x26A5 DUP2 DUP5 PUSH2 0x343D JUMP JUMPDEST PUSH1 0x20 DUP1 DUP3 MSTORE DUP2 ADD PUSH2 0x20C0 DUP2 PUSH2 0x3551 JUMP JUMPDEST PUSH1 0x20 DUP1 DUP3 MSTORE DUP2 ADD PUSH2 0x20C0 DUP2 PUSH2 0x360F JUMP JUMPDEST PUSH1 0x20 DUP1 DUP3 MSTORE DUP2 ADD PUSH2 0x20C0 DUP2 PUSH2 0x366E JUMP JUMPDEST PUSH1 0x20 DUP1 DUP3 MSTORE DUP2 ADD PUSH2 0x20C0 DUP2 PUSH2 0x36CD JUMP JUMPDEST PUSH1 0x20 DUP1 DUP3 MSTORE DUP2 ADD PUSH2 0x20C0 DUP2 PUSH2 0x3752 JUMP JUMPDEST PUSH1 0x20 DUP1 DUP3 MSTORE DUP2 ADD PUSH2 0x20C0 DUP2 PUSH2 0x37B1 JUMP JUMPDEST PUSH1 0x20 DUP1 DUP3 MSTORE DUP2 ADD PUSH2 0x20C0 DUP2 PUSH2 0x3810 JUMP JUMPDEST PUSH1 0x20 DUP1 DUP3 MSTORE DUP2 ADD PUSH2 0x20C0 DUP2 PUSH2 0x386F JUMP JUMPDEST PUSH1 0x20 DUP1 DUP3 MSTORE DUP2 ADD PUSH2 0x20C0 DUP2 PUSH2 0x3907 JUMP JUMPDEST PUSH1 0x20 DUP1 DUP3 MSTORE DUP2 ADD PUSH2 0x20C0 DUP2 PUSH2 0x3940 JUMP JUMPDEST PUSH1 0x20 DUP1 DUP3 MSTORE DUP2 ADD PUSH2 0x20C0 DUP2 PUSH2 0x399F JUMP JUMPDEST PUSH1 0x20 DUP1 DUP3 MSTORE DUP2 ADD PUSH2 0x20C0 DUP2 PUSH2 0x39FE JUMP JUMPDEST PUSH1 0x20 DUP1 DUP3 MSTORE DUP2 ADD PUSH2 0x20C0 DUP2 PUSH2 0x3A5D JUMP JUMPDEST PUSH1 0x20 DUP1 DUP3 MSTORE DUP2 ADD PUSH2 0x20C0 DUP2 PUSH2 0x3ABC JUMP JUMPDEST PUSH1 0x20 DUP1 DUP3 MSTORE DUP2 ADD PUSH2 0x20C0 DUP2 PUSH2 0x3B1B JUMP JUMPDEST PUSH1 0x20 DUP1 DUP3 MSTORE DUP2 ADD PUSH2 0x20C0 DUP2 PUSH2 0x3BA0 JUMP JUMPDEST PUSH1 0x20 DUP1 DUP3 MSTORE DUP2 ADD PUSH2 0x20C0 DUP2 PUSH2 0x3BFF JUMP JUMPDEST PUSH1 0x20 DUP1 DUP3 MSTORE DUP2 ADD PUSH2 0x20C0 DUP2 PUSH2 0x3C5E JUMP JUMPDEST PUSH1 0x20 DUP1 DUP3 MSTORE DUP2 ADD PUSH2 0x20C0 DUP2 PUSH2 0x3CE3 JUMP JUMPDEST PUSH1 0x20 DUP1 DUP3 MSTORE DUP2 ADD PUSH2 0x20C0 DUP2 PUSH2 0x3D42 JUMP JUMPDEST PUSH1 0x20 DUP1 DUP3 MSTORE DUP2 ADD PUSH2 0x20C0 DUP2 PUSH2 0x3DA1 JUMP JUMPDEST PUSH1 0x20 DUP1 DUP3 MSTORE DUP2 ADD PUSH2 0x20C0 DUP2 PUSH2 0x3E26 JUMP JUMPDEST PUSH1 0x20 DUP1 DUP3 MSTORE DUP2 ADD PUSH2 0x20C0 DUP2 PUSH2 0x3EE4 JUMP JUMPDEST PUSH1 0x20 DUP1 DUP3 MSTORE DUP2 ADD PUSH2 0x20C0 DUP2 PUSH2 0x3F43 JUMP JUMPDEST PUSH1 0x20 DUP1 DUP3 MSTORE DUP2 ADD PUSH2 0x20C0 DUP2 PUSH2 0x3FA2 JUMP JUMPDEST PUSH1 0x20 DUP1 DUP3 MSTORE DUP2 ADD PUSH2 0x20C0 DUP2 PUSH2 0x4001 JUMP JUMPDEST PUSH1 0x20 DUP1 DUP3 MSTORE DUP2 ADD PUSH2 0x20C0 DUP2 PUSH2 0x4060 JUMP JUMPDEST PUSH1 0x20 DUP1 DUP3 MSTORE DUP2 ADD PUSH2 0x20C0 DUP2 PUSH2 0x40BF JUMP JUMPDEST PUSH1 0x20 DUP1 DUP3 MSTORE DUP2 ADD PUSH2 0x20C0 DUP2 PUSH2 0x4144 JUMP JUMPDEST PUSH1 0x20 DUP1 DUP3 MSTORE DUP2 ADD PUSH2 0x20C0 DUP2 PUSH2 0x41A3 JUMP JUMPDEST PUSH1 0x20 DUP1 DUP3 MSTORE DUP2 ADD PUSH2 0x20C0 DUP2 PUSH2 0x4235 JUMP JUMPDEST PUSH1 0x20 DUP1 DUP3 MSTORE DUP2 ADD PUSH2 0x20C0 DUP2 PUSH2 0x4294 JUMP JUMPDEST PUSH1 0x20 DUP1 DUP3 MSTORE DUP2 ADD PUSH2 0x20C0 DUP2 PUSH2 0x42F3 JUMP JUMPDEST PUSH1 0x20 DUP1 DUP3 MSTORE DUP2 ADD PUSH2 0x20C0 DUP2 PUSH2 0x4352 JUMP JUMPDEST PUSH1 0x20 DUP1 DUP3 MSTORE DUP2 ADD PUSH2 0x20C0 DUP2 PUSH2 0x43B1 JUMP JUMPDEST PUSH1 0x20 DUP1 DUP3 MSTORE DUP2 ADD PUSH2 0x20C0 DUP2 PUSH2 0x4410 JUMP JUMPDEST PUSH1 0x20 DUP1 DUP3 MSTORE DUP2 ADD PUSH2 0x20C0 DUP2 PUSH2 0x446F JUMP JUMPDEST PUSH1 0x20 DUP1 DUP3 MSTORE DUP2 ADD PUSH2 0x20C0 DUP2 PUSH2 0x44CE JUMP JUMPDEST PUSH1 0x60 DUP2 ADD PUSH2 0x20C0 DUP3 DUP5 PUSH2 0x4507 JUMP JUMPDEST PUSH2 0x120 DUP2 ADD PUSH2 0x4A24 DUP3 DUP13 PUSH2 0x3423 JUMP JUMPDEST PUSH2 0x4A31 PUSH1 0x20 DUP4 ADD DUP12 PUSH2 0x328C JUMP JUMPDEST DUP2 DUP2 SUB PUSH1 0x40 DUP4 ADD MSTORE PUSH2 0x4A43 DUP2 DUP11 PUSH2 0x32A4 JUMP JUMPDEST SWAP1 POP DUP2 DUP2 SUB PUSH1 0x60 DUP4 ADD MSTORE PUSH2 0x4A57 DUP2 DUP10 PUSH2 0x33CC JUMP JUMPDEST SWAP1 POP DUP2 DUP2 SUB PUSH1 0x80 DUP4 ADD MSTORE PUSH2 0x4A6B DUP2 DUP9 PUSH2 0x336B JUMP JUMPDEST SWAP1 POP DUP2 DUP2 SUB PUSH1 0xA0 DUP4 ADD MSTORE PUSH2 0x4A7F DUP2 DUP8 PUSH2 0x32FD JUMP JUMPDEST SWAP1 POP PUSH2 0x4A8E PUSH1 0xC0 DUP4 ADD DUP7 PUSH2 0x3423 JUMP JUMPDEST PUSH2 0x4A9B PUSH1 0xE0 DUP4 ADD DUP6 PUSH2 0x3423 JUMP JUMPDEST DUP2 DUP2 SUB PUSH2 0x100 DUP4 ADD MSTORE PUSH2 0x4AAE DUP2 DUP5 PUSH2 0x343D JUMP JUMPDEST SWAP12 SWAP11 POP POP POP POP POP POP POP POP POP POP POP JUMP JUMPDEST PUSH2 0x180 DUP2 ADD PUSH2 0x4ACC DUP3 DUP16 PUSH2 0x3423 JUMP JUMPDEST PUSH2 0x4AD9 PUSH1 0x20 DUP4 ADD DUP15 PUSH2 0x329B JUMP JUMPDEST PUSH2 0x4AE6 PUSH1 0x40 DUP4 ADD DUP14 PUSH2 0x3423 JUMP JUMPDEST DUP2 DUP2 SUB PUSH1 0x60 DUP4 ADD MSTORE PUSH2 0x4AF8 DUP2 DUP13 PUSH2 0x343D JUMP JUMPDEST SWAP1 POP PUSH2 0x4B07 PUSH1 0x80 DUP4 ADD DUP12 PUSH2 0x3423 JUMP JUMPDEST PUSH2 0x4B14 PUSH1 0xA0 DUP4 ADD DUP11 PUSH2 0x3423 JUMP JUMPDEST PUSH2 0x4B21 PUSH1 0xC0 DUP4 ADD DUP10 PUSH2 0x3423 JUMP JUMPDEST PUSH2 0x4B2E PUSH1 0xE0 DUP4 ADD DUP9 PUSH2 0x3423 JUMP JUMPDEST PUSH2 0x4B3C PUSH2 0x100 DUP4 ADD DUP8 PUSH2 0x3423 JUMP JUMPDEST PUSH2 0x4B4A PUSH2 0x120 DUP4 ADD DUP7 PUSH2 0x3423 JUMP JUMPDEST PUSH2 0x4B58 PUSH2 0x140 DUP4 ADD DUP6 PUSH2 0x341A JUMP JUMPDEST PUSH2 0x4B66 PUSH2 0x160 DUP4 ADD DUP5 PUSH2 0x341A JUMP JUMPDEST SWAP14 SWAP13 POP POP POP POP POP POP POP POP POP POP POP POP POP JUMP JUMPDEST PUSH1 0x40 DUP2 ADD PUSH2 0x45BC DUP3 DUP6 PUSH2 0x3423 JUMP JUMPDEST PUSH1 0x80 DUP2 ADD PUSH2 0x4B93 DUP3 DUP9 PUSH2 0x3423 JUMP JUMPDEST PUSH2 0x4BA0 PUSH1 0x20 DUP4 ADD DUP8 PUSH2 0x453E JUMP JUMPDEST PUSH2 0x4BAD PUSH1 0x40 DUP4 ADD DUP7 PUSH2 0x4547 JUMP JUMPDEST DUP2 DUP2 SUB PUSH1 0x60 DUP4 ADD MSTORE PUSH2 0x4BC0 DUP2 DUP5 DUP7 PUSH2 0x352F JUMP JUMPDEST SWAP8 SWAP7 POP POP POP POP POP POP POP JUMP JUMPDEST PUSH1 0x80 DUP2 ADD PUSH2 0x4BD9 DUP3 DUP7 PUSH2 0x3423 JUMP JUMPDEST PUSH2 0x4BE6 PUSH1 0x20 DUP4 ADD DUP6 PUSH2 0x453E JUMP JUMPDEST PUSH2 0x4BF3 PUSH1 0x40 DUP4 ADD DUP5 PUSH2 0x4547 JUMP JUMPDEST DUP2 DUP2 SUB PUSH1 0x60 DUP4 ADD MSTORE PUSH2 0x1D6E DUP2 PUSH2 0x4228 JUMP JUMPDEST PUSH1 0x40 MLOAD DUP2 DUP2 ADD PUSH8 0xFFFFFFFFFFFFFFFF DUP2 GT DUP3 DUP3 LT OR ISZERO PUSH2 0x4C23 JUMPI PUSH1 0x0 DUP1 REVERT JUMPDEST PUSH1 0x40 MSTORE SWAP2 SWAP1 POP JUMP JUMPDEST PUSH1 0x0 PUSH8 0xFFFFFFFFFFFFFFFF DUP3 GT ISZERO PUSH2 0x4C42 JUMPI PUSH1 0x0 DUP1 REVERT JUMPDEST POP PUSH1 0x20 SWAP1 DUP2 MUL ADD SWAP1 JUMP JUMPDEST PUSH1 0x0 PUSH8 0xFFFFFFFFFFFFFFFF DUP3 GT ISZERO PUSH2 0x4C63 JUMPI PUSH1 0x0 DUP1 REVERT JUMPDEST POP PUSH1 0x20 PUSH1 0x1F SWAP2 SWAP1 SWAP2 ADD PUSH32 0xFFFFFFFFFFFFFFFFFFFFFFFFFFFFFFFFFFFFFFFFFFFFFFFFFFFFFFFFFFFFFFE0 AND ADD SWAP1 JUMP JUMPDEST PUSH1 0x20 ADD SWAP1 JUMP JUMPDEST PUSH1 0x0 SWAP1 DUP2 MSTORE PUSH1 0x20 SWAP1 KECCAK256 SWAP1 JUMP JUMPDEST MLOAD SWAP1 JUMP JUMPDEST SWAP1 DUP2 MSTORE PUSH1 0x20 ADD SWAP1 JUMP JUMPDEST PUSH1 0x0 PUSH2 0x20C0 DUP3 PUSH2 0x4CCB JUMP JUMPDEST ISZERO ISZERO SWAP1 JUMP JUMPDEST DUP1 PUSH2 0x1155 DUP2 PUSH2 0x4D76 JUMP JUMPDEST PUSH1 0x1 PUSH1 0x1 PUSH1 0xA0 SHL SUB AND SWAP1 JUMP JUMPDEST PUSH1 0xFF AND SWAP1 JUMP JUMPDEST PUSH12 0xFFFFFFFFFFFFFFFFFFFFFFFF AND SWAP1 JUMP JUMPDEST PUSH1 0x0 PUSH2 0x20C0 DUP3 JUMPDEST PUSH1 0x0 PUSH2 0x20C0 DUP3 PUSH2 0x4CB1 JUMP JUMPDEST PUSH1 0x0 PUSH2 0x20C0 DUP3 PUSH2 0x4CC1 JUMP JUMPDEST PUSH1 0x0 PUSH2 0x20C0 DUP3 PUSH2 0x4CDD JUMP JUMPDEST DUP3 DUP2 DUP4 CALLDATACOPY POP PUSH1 0x0 SWAP2 ADD MSTORE JUMP JUMPDEST PUSH1 0x0 JUMPDEST DUP4 DUP2 LT ISZERO PUSH2 0x4D3D JUMPI DUP2 DUP2 ADD MLOAD DUP4 DUP3 ADD MSTORE PUSH1 0x20 ADD PUSH2 0x4D25 JUMP JUMPDEST DUP4 DUP2 GT ISZERO PUSH2 0x17D5 JUMPI POP POP PUSH1 0x0 SWAP2 ADD MSTORE JUMP JUMPDEST PUSH1 0x1F ADD PUSH32 0xFFFFFFFFFFFFFFFFFFFFFFFFFFFFFFFFFFFFFFFFFFFFFFFFFFFFFFFFFFFFFFE0 AND SWAP1 JUMP JUMPDEST PUSH1 0x8 DUP2 LT PUSH2 0x2C14 JUMPI INVALID JUMPDEST PUSH2 0x4D89 DUP2 PUSH2 0x4CB1 JUMP JUMPDEST DUP2 EQ PUSH2 0x2C14 JUMPI PUSH1 0x0 DUP1 REVERT JUMPDEST PUSH2 0x4D89 DUP2 PUSH2 0x4CBC JUMP JUMPDEST PUSH2 0x4D89 DUP2 PUSH2 0x23CE JUMP JUMPDEST PUSH2 0x4D89 DUP2 PUSH2 0x4CD7 JUMP JUMPDEST PUSH2 0x4D89 DUP2 PUSH2 0x4CDD JUMP INVALID LOG3 PUSH6 0x627A7A723158 KECCAK256 0x2C DUP14 PUSH17 0xE8271B09D124D94C58C035C530B8EA640F 0x1E JUMP 0x2C TIMESTAMP INVALID 0xD4 PUSH9 0x6CCC8BAAFD6C657870 PUSH6 0x72696D656E74 PUSH2 0x6CF5 PUSH5 0x736F6C6343 STOP SDIV GT STOP BLOCKHASH "
        },
        "gasEstimates": {
          "creation": {
            "codeDepositCost": "3992600",
            "executionCost": "4555",
            "totalCost": "3997155"
          },
          "external": {
            "BALLOT_TYPEHASH()": "infinite",
            "DOMAIN_TYPEHASH()": "infinite",
            "MAX_PROPOSAL_THRESHOLD()": "368",
            "MAX_VOTING_DELAY()": "389",
            "MAX_VOTING_PERIOD()": "411",
            "MIN_PROPOSAL_THRESHOLD()": "368",
            "MIN_VOTING_DELAY()": "388",
            "MIN_VOTING_PERIOD()": "389",
            "_acceptAdmin()": "infinite",
            "_initiate()": "infinite",
            "_setPendingAdmin(address)": "infinite",
            "_setProposalThreshold(uint256)": "infinite",
            "_setVotingDelay(uint256)": "infinite",
            "_setVotingPeriod(uint256)": "infinite",
            "admin()": "infinite",
            "boba()": "infinite",
            "cancel(uint256)": "infinite",
            "castVote(uint256,uint8)": "infinite",
            "castVoteBySig(uint256,uint8,uint8,bytes32,bytes32)": "infinite",
            "castVoteWithReason(uint256,uint8,string)": "infinite",
            "execute(uint256)": "infinite",
            "getActions(uint256)": "infinite",
            "getReceipt(uint256,address)": "infinite",
            "implementation()": "infinite",
            "initialProposalId()": "1187",
            "initialize(address,address,address,uint256,uint256,uint256)": "infinite",
            "latestProposalIds(address)": "infinite",
            "name()": "infinite",
            "pendingAdmin()": "infinite",
            "proposalCount()": "1189",
            "proposalMaxOperations()": "367",
            "proposalThreshold()": "1166",
            "proposals(uint256)": "infinite",
            "propose(address[],uint256[],string[],bytes[],string)": "infinite",
            "queue(uint256)": "infinite",
            "quorumVotes()": "411",
            "state(uint256)": "infinite",
            "timelock()": "infinite",
            "votingDelay()": "1189",
            "votingPeriod()": "1191",
            "xboba()": "infinite"
          },
          "internal": {
            "add256(uint256,uint256)": "infinite",
            "castVoteInternal(address,uint256,uint8)": "infinite",
            "getChainIdInternal()": "15",
            "queueOrRevertInternal(address,uint256,string memory,bytes memory,uint256)": "infinite",
            "sub256(uint256,uint256)": "infinite"
          }
        },
        "methodIdentifiers": {
          "BALLOT_TYPEHASH()": "deaaa7cc",
          "DOMAIN_TYPEHASH()": "20606b70",
          "MAX_PROPOSAL_THRESHOLD()": "25fd935a",
          "MAX_VOTING_DELAY()": "b1126263",
          "MAX_VOTING_PERIOD()": "a64e024a",
          "MIN_PROPOSAL_THRESHOLD()": "791f5d23",
          "MIN_VOTING_DELAY()": "e48083fe",
          "MIN_VOTING_PERIOD()": "215809ca",
          "_acceptAdmin()": "e9c714f2",
          "_initiate()": "878f1482",
          "_setPendingAdmin(address)": "b71d1a0c",
          "_setProposalThreshold(uint256)": "17ba1b8b",
          "_setVotingDelay(uint256)": "1dfb1b5a",
          "_setVotingPeriod(uint256)": "0ea2d98c",
          "admin()": "f851a440",
          "boba()": "c501f816",
          "cancel(uint256)": "40e58ee5",
          "castVote(uint256,uint8)": "56781388",
          "castVoteBySig(uint256,uint8,uint8,bytes32,bytes32)": "3bccf4fd",
          "castVoteWithReason(uint256,uint8,string)": "7b3c71d3",
          "execute(uint256)": "fe0d94c1",
          "getActions(uint256)": "328dd982",
          "getReceipt(uint256,address)": "e23a9a52",
          "implementation()": "5c60da1b",
          "initialProposalId()": "fc4eee42",
          "initialize(address,address,address,uint256,uint256,uint256)": "728cdbca",
          "latestProposalIds(address)": "17977c61",
          "name()": "06fdde03",
          "pendingAdmin()": "26782247",
          "proposalCount()": "da35c664",
          "proposalMaxOperations()": "7bdbe4d0",
          "proposalThreshold()": "b58131b0",
          "proposals(uint256)": "013cf08b",
          "propose(address[],uint256[],string[],bytes[],string)": "da95691a",
          "queue(uint256)": "ddf0b009",
          "quorumVotes()": "24bc1a64",
          "state(uint256)": "3e4f49e6",
          "timelock()": "d33219b4",
          "votingDelay()": "3932abb1",
          "votingPeriod()": "02a251a3",
          "xboba()": "ad5121b8"
        }
      },
      "storageLayout": {
        "storage": [
          {
            "astId": 1595,
            "contract": "contracts/DAO/governance/GovernorBravoDelegate.sol:GovernorBravoDelegate",
            "label": "admin",
            "offset": 0,
            "slot": "0",
            "type": "t_address"
          },
          {
            "astId": 1597,
            "contract": "contracts/DAO/governance/GovernorBravoDelegate.sol:GovernorBravoDelegate",
            "label": "pendingAdmin",
            "offset": 0,
            "slot": "1",
            "type": "t_address"
          },
          {
            "astId": 1599,
            "contract": "contracts/DAO/governance/GovernorBravoDelegate.sol:GovernorBravoDelegate",
            "label": "implementation",
            "offset": 0,
            "slot": "2",
            "type": "t_address"
          },
          {
            "astId": 1604,
            "contract": "contracts/DAO/governance/GovernorBravoDelegate.sol:GovernorBravoDelegate",
            "label": "votingDelay",
            "offset": 0,
            "slot": "3",
            "type": "t_uint256"
          },
          {
            "astId": 1606,
            "contract": "contracts/DAO/governance/GovernorBravoDelegate.sol:GovernorBravoDelegate",
            "label": "votingPeriod",
            "offset": 0,
            "slot": "4",
            "type": "t_uint256"
          },
          {
            "astId": 1608,
            "contract": "contracts/DAO/governance/GovernorBravoDelegate.sol:GovernorBravoDelegate",
            "label": "proposalThreshold",
            "offset": 0,
            "slot": "5",
            "type": "t_uint256"
          },
          {
            "astId": 1610,
            "contract": "contracts/DAO/governance/GovernorBravoDelegate.sol:GovernorBravoDelegate",
            "label": "initialProposalId",
            "offset": 0,
            "slot": "6",
            "type": "t_uint256"
          },
          {
            "astId": 1612,
            "contract": "contracts/DAO/governance/GovernorBravoDelegate.sol:GovernorBravoDelegate",
            "label": "proposalCount",
            "offset": 0,
            "slot": "7",
            "type": "t_uint256"
          },
          {
            "astId": 1614,
            "contract": "contracts/DAO/governance/GovernorBravoDelegate.sol:GovernorBravoDelegate",
            "label": "timelock",
            "offset": 0,
            "slot": "8",
            "type": "t_contract(TimelockInterface)1748"
          },
          {
            "astId": 1616,
            "contract": "contracts/DAO/governance/GovernorBravoDelegate.sol:GovernorBravoDelegate",
            "label": "boba",
            "offset": 0,
            "slot": "9",
            "type": "t_contract(BobaInterface)1758"
          },
          {
            "astId": 1618,
            "contract": "contracts/DAO/governance/GovernorBravoDelegate.sol:GovernorBravoDelegate",
            "label": "xboba",
            "offset": 0,
            "slot": "10",
            "type": "t_contract(BobaInterface)1758"
          },
          {
            "astId": 1622,
            "contract": "contracts/DAO/governance/GovernorBravoDelegate.sol:GovernorBravoDelegate",
            "label": "proposals",
            "offset": 0,
            "slot": "11",
            "type": "t_mapping(t_uint256,t_struct(Proposal)1667_storage)"
          },
          {
            "astId": 1626,
            "contract": "contracts/DAO/governance/GovernorBravoDelegate.sol:GovernorBravoDelegate",
            "label": "latestProposalIds",
            "offset": 0,
            "slot": "12",
            "type": "t_mapping(t_address,t_uint256)"
          }
        ],
        "types": {
          "t_address": {
            "encoding": "inplace",
            "label": "address",
            "numberOfBytes": "20"
          },
          "t_array(t_address)dyn_storage": {
            "base": "t_address",
            "encoding": "dynamic_array",
            "label": "address[]",
            "numberOfBytes": "32"
          },
          "t_array(t_bytes_storage)dyn_storage": {
            "base": "t_bytes_storage",
            "encoding": "dynamic_array",
            "label": "bytes[]",
            "numberOfBytes": "32"
          },
          "t_array(t_string_storage)dyn_storage": {
            "base": "t_string_storage",
            "encoding": "dynamic_array",
            "label": "string[]",
            "numberOfBytes": "32"
          },
          "t_array(t_uint256)dyn_storage": {
            "base": "t_uint256",
            "encoding": "dynamic_array",
            "label": "uint256[]",
            "numberOfBytes": "32"
          },
          "t_bool": {
            "encoding": "inplace",
            "label": "bool",
            "numberOfBytes": "1"
          },
          "t_bytes_storage": {
            "encoding": "bytes",
            "label": "bytes",
            "numberOfBytes": "32"
          },
          "t_contract(BobaInterface)1758": {
            "encoding": "inplace",
            "label": "contract BobaInterface",
            "numberOfBytes": "20"
          },
          "t_contract(TimelockInterface)1748": {
            "encoding": "inplace",
            "label": "contract TimelockInterface",
            "numberOfBytes": "20"
          },
          "t_mapping(t_address,t_struct(Receipt)1674_storage)": {
            "encoding": "mapping",
            "key": "t_address",
            "label": "mapping(address => struct GovernorBravoDelegateStorageV1.Receipt)",
            "numberOfBytes": "32",
            "value": "t_struct(Receipt)1674_storage"
          },
          "t_mapping(t_address,t_uint256)": {
            "encoding": "mapping",
            "key": "t_address",
            "label": "mapping(address => uint256)",
            "numberOfBytes": "32",
            "value": "t_uint256"
          },
          "t_mapping(t_uint256,t_struct(Proposal)1667_storage)": {
            "encoding": "mapping",
            "key": "t_uint256",
            "label": "mapping(uint256 => struct GovernorBravoDelegateStorageV1.Proposal)",
            "numberOfBytes": "32",
            "value": "t_struct(Proposal)1667_storage"
          },
          "t_string_storage": {
            "encoding": "bytes",
            "label": "string",
            "numberOfBytes": "32"
          },
          "t_struct(Proposal)1667_storage": {
            "encoding": "inplace",
            "label": "struct GovernorBravoDelegateStorageV1.Proposal",
            "members": [
              {
                "astId": 1628,
                "contract": "contracts/DAO/governance/GovernorBravoDelegate.sol:GovernorBravoDelegate",
                "label": "id",
                "offset": 0,
                "slot": "0",
                "type": "t_uint256"
              },
              {
                "astId": 1630,
                "contract": "contracts/DAO/governance/GovernorBravoDelegate.sol:GovernorBravoDelegate",
                "label": "proposer",
                "offset": 0,
                "slot": "1",
                "type": "t_address"
              },
              {
                "astId": 1632,
                "contract": "contracts/DAO/governance/GovernorBravoDelegate.sol:GovernorBravoDelegate",
                "label": "eta",
                "offset": 0,
                "slot": "2",
                "type": "t_uint256"
              },
              {
                "astId": 1635,
                "contract": "contracts/DAO/governance/GovernorBravoDelegate.sol:GovernorBravoDelegate",
                "label": "targets",
                "offset": 0,
                "slot": "3",
                "type": "t_array(t_address)dyn_storage"
              },
              {
                "astId": 1638,
                "contract": "contracts/DAO/governance/GovernorBravoDelegate.sol:GovernorBravoDelegate",
                "label": "values",
                "offset": 0,
                "slot": "4",
                "type": "t_array(t_uint256)dyn_storage"
              },
              {
                "astId": 1641,
                "contract": "contracts/DAO/governance/GovernorBravoDelegate.sol:GovernorBravoDelegate",
                "label": "signatures",
                "offset": 0,
                "slot": "5",
                "type": "t_array(t_string_storage)dyn_storage"
              },
              {
                "astId": 1644,
                "contract": "contracts/DAO/governance/GovernorBravoDelegate.sol:GovernorBravoDelegate",
                "label": "calldatas",
                "offset": 0,
                "slot": "6",
                "type": "t_array(t_bytes_storage)dyn_storage"
              },
              {
                "astId": 1646,
                "contract": "contracts/DAO/governance/GovernorBravoDelegate.sol:GovernorBravoDelegate",
                "label": "description",
                "offset": 0,
                "slot": "7",
                "type": "t_string_storage"
              },
              {
                "astId": 1648,
                "contract": "contracts/DAO/governance/GovernorBravoDelegate.sol:GovernorBravoDelegate",
                "label": "startBlock",
                "offset": 0,
                "slot": "8",
                "type": "t_uint256"
              },
              {
                "astId": 1650,
                "contract": "contracts/DAO/governance/GovernorBravoDelegate.sol:GovernorBravoDelegate",
                "label": "startTimestamp",
                "offset": 0,
                "slot": "9",
                "type": "t_uint256"
              },
              {
                "astId": 1652,
                "contract": "contracts/DAO/governance/GovernorBravoDelegate.sol:GovernorBravoDelegate",
                "label": "endTimestamp",
                "offset": 0,
                "slot": "10",
                "type": "t_uint256"
              },
              {
                "astId": 1654,
                "contract": "contracts/DAO/governance/GovernorBravoDelegate.sol:GovernorBravoDelegate",
                "label": "forVotes",
                "offset": 0,
                "slot": "11",
                "type": "t_uint256"
              },
              {
                "astId": 1656,
                "contract": "contracts/DAO/governance/GovernorBravoDelegate.sol:GovernorBravoDelegate",
                "label": "againstVotes",
                "offset": 0,
                "slot": "12",
                "type": "t_uint256"
              },
              {
                "astId": 1658,
                "contract": "contracts/DAO/governance/GovernorBravoDelegate.sol:GovernorBravoDelegate",
                "label": "abstainVotes",
                "offset": 0,
                "slot": "13",
                "type": "t_uint256"
              },
              {
                "astId": 1660,
                "contract": "contracts/DAO/governance/GovernorBravoDelegate.sol:GovernorBravoDelegate",
                "label": "canceled",
                "offset": 0,
                "slot": "14",
                "type": "t_bool"
              },
              {
                "astId": 1662,
                "contract": "contracts/DAO/governance/GovernorBravoDelegate.sol:GovernorBravoDelegate",
                "label": "executed",
                "offset": 1,
                "slot": "14",
                "type": "t_bool"
              },
              {
                "astId": 1666,
                "contract": "contracts/DAO/governance/GovernorBravoDelegate.sol:GovernorBravoDelegate",
                "label": "receipts",
                "offset": 0,
                "slot": "15",
                "type": "t_mapping(t_address,t_struct(Receipt)1674_storage)"
              }
            ],
            "numberOfBytes": "512"
          },
          "t_struct(Receipt)1674_storage": {
            "encoding": "inplace",
            "label": "struct GovernorBravoDelegateStorageV1.Receipt",
            "members": [
              {
                "astId": 1669,
                "contract": "contracts/DAO/governance/GovernorBravoDelegate.sol:GovernorBravoDelegate",
                "label": "hasVoted",
                "offset": 0,
                "slot": "0",
                "type": "t_bool"
              },
              {
                "astId": 1671,
                "contract": "contracts/DAO/governance/GovernorBravoDelegate.sol:GovernorBravoDelegate",
                "label": "support",
                "offset": 1,
                "slot": "0",
                "type": "t_uint8"
              },
              {
                "astId": 1673,
                "contract": "contracts/DAO/governance/GovernorBravoDelegate.sol:GovernorBravoDelegate",
                "label": "votes",
                "offset": 2,
                "slot": "0",
                "type": "t_uint96"
              }
            ],
            "numberOfBytes": "32"
          },
          "t_uint256": {
            "encoding": "inplace",
            "label": "uint256",
            "numberOfBytes": "32"
          },
          "t_uint8": {
            "encoding": "inplace",
            "label": "uint8",
            "numberOfBytes": "1"
          },
          "t_uint96": {
            "encoding": "inplace",
            "label": "uint96",
            "numberOfBytes": "12"
          }
        }
      },
      "userdoc": {
        "methods": {
          "_acceptAdmin()": {
            "notice": "Accepts transfer of admin rights. msg.sender must be pendingAdmin"
          },
          "_initiate()": {
            "notice": "Initiate the GovernorBravo contract"
          },
          "_setPendingAdmin(address)": {
            "notice": "Begins transfer of admin rights. The newPendingAdmin must call `_acceptAdmin` to finalize the transfer."
          },
          "_setProposalThreshold(uint256)": {
            "notice": "Admin function for setting the proposal threshold"
          },
          "_setVotingDelay(uint256)": {
            "notice": "Admin function for setting the voting delay"
          },
          "_setVotingPeriod(uint256)": {
            "notice": "Admin function for setting the voting period"
          },
          "cancel(uint256)": {
            "notice": "Cancels a proposal only if sender is the proposer, or proposer delegates dropped below proposal threshold"
          },
          "castVote(uint256,uint8)": {
            "notice": "Cast a vote for a proposal"
          },
          "castVoteBySig(uint256,uint8,uint8,bytes32,bytes32)": {
            "notice": "Cast a vote for a proposal by signature"
          },
          "castVoteWithReason(uint256,uint8,string)": {
            "notice": "Cast a vote for a proposal with a reason"
          },
          "execute(uint256)": {
            "notice": "Executes a queued proposal if eta has passed"
          },
          "getActions(uint256)": {
            "notice": "Gets actions of a proposal"
          },
          "getReceipt(uint256,address)": {
            "notice": "Gets the receipt for a voter on a given proposal"
          },
          "initialize(address,address,address,uint256,uint256,uint256)": {
            "notice": "Used to initialize the contract during delegator contructor"
          },
          "propose(address[],uint256[],string[],bytes[],string)": {
            "notice": "Function used to propose a new proposal. Sender must have delegates above the proposal threshold"
          },
          "queue(uint256)": {
            "notice": "Queues a proposal of state succeeded"
          },
          "state(uint256)": {
            "notice": "Gets the state of a proposal"
          }
        }
      }
    }
  }
}