{
  "contracts/test-helpers/OMGLikeToken.sol": {
    "OMGLikeToken": {
      "abi": [
        {
          "constant": true,
          "inputs": [],
          "name": "mintingFinished",
          "outputs": [
            {
              "name": "",
              "type": "bool"
            }
          ],
          "payable": false,
          "type": "function"
        },
        {
          "constant": true,
          "inputs": [],
          "name": "name",
          "outputs": [
            {
              "name": "",
              "type": "string"
            }
          ],
          "payable": false,
          "type": "function"
        },
        {
          "constant": false,
          "inputs": [
            {
              "name": "_spender",
              "type": "address"
            },
            {
              "name": "_value",
              "type": "uint256"
            }
          ],
          "name": "approve",
          "outputs": [],
          "payable": false,
          "type": "function"
        },
        {
          "constant": true,
          "inputs": [],
          "name": "totalSupply",
          "outputs": [
            {
              "name": "",
              "type": "uint256"
            }
          ],
          "payable": false,
          "type": "function"
        },
        {
          "constant": false,
          "inputs": [
            {
              "name": "_from",
              "type": "address"
            },
            {
              "name": "_to",
              "type": "address"
            },
            {
              "name": "_value",
              "type": "uint256"
            }
          ],
          "name": "transferFrom",
          "outputs": [],
          "payable": false,
          "type": "function"
        },
        {
          "constant": true,
          "inputs": [],
          "name": "decimals",
          "outputs": [
            {
              "name": "",
              "type": "uint256"
            }
          ],
          "payable": false,
          "type": "function"
        },
        {
          "constant": false,
          "inputs": [],
          "name": "unpause",
          "outputs": [
            {
              "name": "",
              "type": "bool"
            }
          ],
          "payable": false,
          "type": "function"
        },
        {
          "constant": false,
          "inputs": [
            {
              "name": "_to",
              "type": "address"
            },
            {
              "name": "_amount",
              "type": "uint256"
            }
          ],
          "name": "mint",
          "outputs": [
            {
              "name": "",
              "type": "bool"
            }
          ],
          "payable": false,
          "type": "function"
        },
        {
          "constant": true,
          "inputs": [],
          "name": "paused",
          "outputs": [
            {
              "name": "",
              "type": "bool"
            }
          ],
          "payable": false,
          "type": "function"
        },
        {
          "constant": true,
          "inputs": [
            {
              "name": "_owner",
              "type": "address"
            }
          ],
          "name": "balanceOf",
          "outputs": [
            {
              "name": "balance",
              "type": "uint256"
            }
          ],
          "payable": false,
          "type": "function"
        },
        {
          "constant": false,
          "inputs": [],
          "name": "finishMinting",
          "outputs": [
            {
              "name": "",
              "type": "bool"
            }
          ],
          "payable": false,
          "type": "function"
        },
        {
          "constant": false,
          "inputs": [],
          "name": "pause",
          "outputs": [
            {
              "name": "",
              "type": "bool"
            }
          ],
          "payable": false,
          "type": "function"
        },
        {
          "constant": true,
          "inputs": [],
          "name": "owner",
          "outputs": [
            {
              "name": "",
              "type": "address"
            }
          ],
          "payable": false,
          "type": "function"
        },
        {
          "constant": true,
          "inputs": [],
          "name": "symbol",
          "outputs": [
            {
              "name": "",
              "type": "string"
            }
          ],
          "payable": false,
          "type": "function"
        },
        {
          "constant": false,
          "inputs": [
            {
              "name": "_to",
              "type": "address"
            },
            {
              "name": "_value",
              "type": "uint256"
            }
          ],
          "name": "transfer",
          "outputs": [],
          "payable": false,
          "type": "function"
        },
        {
          "constant": false,
          "inputs": [
            {
              "name": "_to",
              "type": "address"
            },
            {
              "name": "_amount",
              "type": "uint256"
            },
            {
              "name": "_releaseTime",
              "type": "uint256"
            }
          ],
          "name": "mintTimelocked",
          "outputs": [
            {
              "name": "",
              "type": "address"
            }
          ],
          "payable": false,
          "type": "function"
        },
        {
          "constant": true,
          "inputs": [
            {
              "name": "_owner",
              "type": "address"
            },
            {
              "name": "_spender",
              "type": "address"
            }
          ],
          "name": "allowance",
          "outputs": [
            {
              "name": "remaining",
              "type": "uint256"
            }
          ],
          "payable": false,
          "type": "function"
        },
        {
          "constant": false,
          "inputs": [
            {
              "name": "newOwner",
              "type": "address"
            }
          ],
          "name": "transferOwnership",
          "outputs": [],
          "payable": false,
          "type": "function"
        },
        {
          "anonymous": false,
          "inputs": [
            {
              "indexed": true,
              "name": "to",
              "type": "address"
            },
            {
              "indexed": false,
              "name": "value",
              "type": "uint256"
            }
          ],
          "name": "Mint",
          "type": "event"
        },
        {
          "anonymous": false,
          "inputs": [],
          "name": "MintFinished",
          "type": "event"
        },
        {
          "anonymous": false,
          "inputs": [],
          "name": "Pause",
          "type": "event"
        },
        {
          "anonymous": false,
          "inputs": [],
          "name": "Unpause",
          "type": "event"
        },
        {
          "anonymous": false,
          "inputs": [
            {
              "indexed": true,
              "name": "owner",
              "type": "address"
            },
            {
              "indexed": true,
              "name": "spender",
              "type": "address"
            },
            {
              "indexed": false,
              "name": "value",
              "type": "uint256"
            }
          ],
          "name": "Approval",
          "type": "event"
        },
        {
          "anonymous": false,
          "inputs": [
            {
              "indexed": true,
              "name": "from",
              "type": "address"
            },
            {
              "indexed": true,
              "name": "to",
              "type": "address"
            },
            {
              "indexed": false,
              "name": "value",
              "type": "uint256"
            }
          ],
          "name": "Transfer",
          "type": "event"
        }
      ],
      "devdoc": {
        "methods": {
          "allowance(address,address)": {
            "details": "Function to check the amount of tokens than an owner allowed to a spender.",
            "params": {
              "_owner": "address The address which owns the funds.",
              "_spender": "address The address which will spend the funds."
            },
            "return": "A uint specifing the amount of tokens still avaible for the spender."
          },
          "approve(address,uint256)": {
            "details": "Aprove the passed address to spend the specified amount of tokens on beahlf of msg.sender.",
            "params": {
              "_spender": "The address which will spend the funds.",
              "_value": "The amount of tokens to be spent."
            }
          },
          "balanceOf(address)": {
            "details": "Gets the balance of the specified address.",
            "params": {
              "_owner": "The address to query the the balance of."
            },
            "return": "An uint representing the amount owned by the passed address."
          },
          "finishMinting()": {
            "details": "Function to stop minting new tokens.",
            "return": "True if the operation was successful."
          },
          "mint(address,uint256)": {
            "details": "Function to mint tokens",
            "params": {
              "_amount": "The amount of tokens to mint.",
              "_to": "The address that will recieve the minted tokens."
            },
            "return": "A boolean that indicates if the operation was successful."
          },
          "mintTimelocked(address,uint256,uint256)": {
            "details": "mint timelocked tokens"
          },
          "pause()": {
            "details": "called by the owner to pause, triggers stopped state"
          },
          "transferOwnership(address)": {
            "details": "Allows the current owner to transfer control of the contract to a newOwner.",
            "params": {
              "newOwner": "The address to transfer ownership to."
            }
          },
          "unpause()": {
            "details": "called by the owner to unpause, returns to normal state"
          }
        },
        "title": "OMGToken"
      },
      "evm": {
        "assembly": "    /* \"contracts/test-helpers/OMGLikeToken.sol\":7650:7676  bool public paused = false */\n  0x3\n  dup1\n  sload\n  not(mul(0xffff, exp(0x2, 0xa0)))\n    /* \"contracts/test-helpers/OMGLikeToken.sol\":6646:6681  bool public mintingFinished = false */\n  and\n  swap1\n  sstore\n    /* \"contracts/test-helpers/OMGLikeToken.sol\":7671:7676  false */\n  0x0\n    /* \"contracts/test-helpers/OMGLikeToken.sol\":6685:6712  uint public totalSupply = 0 */\n  0x4\n  sstore\n    /* \"contracts/test-helpers/OMGLikeToken.sol\":9759:9790  string public name = \"OMGToken\" */\n  0xa0\n    /* \"contracts/test-helpers/OMGLikeToken.sol\":9670:10156  contract OMGLikeToken is PausableToken, MintableToken {... */\n  0x40\n    /* \"contracts/test-helpers/OMGLikeToken.sol\":9759:9790  string public name = \"OMGToken\" */\n  mstore\n  0x8\n    /* \"contracts/test-helpers/OMGLikeToken.sol\":9670:10156  contract OMGLikeToken is PausableToken, MintableToken {... */\n  0x60\n    /* \"contracts/test-helpers/OMGLikeToken.sol\":9759:9790  string public name = \"OMGToken\" */\n  dup2\n  swap1\n  mstore\n  0x4f4d47546f6b656e000000000000000000000000000000000000000000000000\n  0x80\n  swap1\n  dup2\n  mstore\n  tag_1\n  swap2\n  0x5\n  swap2\n  swap1\n  jump\t// in(tag_2)\ntag_1:\n  pop\n    /* \"contracts/test-helpers/OMGLikeToken.sol\":9794:9822  string public symbol = \"OMG\" */\n  0x40\n  dup1\n  mload\n  dup1\n  dup3\n  add\n  swap1\n  swap2\n  mstore\n  0x3\n  dup1\n  dup3\n  mstore\n  0x4f4d470000000000000000000000000000000000000000000000000000000000\n  0x20\n  swap1\n  swap3\n  add\n  swap2\n  dup3\n  mstore\n  tag_3\n  swap2\n  0x6\n  swap2\n  jump\t// in(tag_2)\ntag_3:\n  pop\n    /* \"contracts/test-helpers/OMGLikeToken.sol\":9849:9851  18 */\n  0x12\n    /* \"contracts/test-helpers/OMGLikeToken.sol\":9826:9851  uint public decimals = 18 */\n  0x7\n  sstore\n    /* \"contracts/test-helpers/OMGLikeToken.sol\":5727:5775  function Ownable() {... */\ntag_4:\n    /* \"contracts/test-helpers/OMGLikeToken.sol\":5752:5757  owner */\n  0x3\n    /* \"contracts/test-helpers/OMGLikeToken.sol\":5752:5770  owner = msg.sender */\n  dup1\n  sload\n  not(sub(exp(0x2, 0xa0), 0x1))\n  and\n    /* \"contracts/test-helpers/OMGLikeToken.sol\":5760:5770  msg.sender */\n  caller\n  sub(exp(0x2, 0xa0), 0x1)\n    /* \"contracts/test-helpers/OMGLikeToken.sol\":5752:5770  owner = msg.sender */\n  and\n  or\n  swap1\n  sstore\n    /* \"contracts/test-helpers/OMGLikeToken.sol\":5727:5775  function Ownable() {... */\ntag_5:\n    /* \"contracts/test-helpers/OMGLikeToken.sol\":9670:10156  contract OMGLikeToken is PausableToken, MintableToken {... */\n  jump(tag_6)\ntag_2:\n  dup3\n  dup1\n  sload\n  0x1\n  dup2\n  0x1\n  and\n  iszero\n  0x100\n  mul\n  sub\n  and\n  0x2\n  swap1\n  div\n  swap1\n  0x0\n  mstore\n  sha3(0x0, 0x20)\n  swap1\n  0x1f\n  add\n  0x20\n  swap1\n  div\n  dup2\n  add\n  swap3\n  dup3\n  0x1f\n  lt\n  tag_8\n  jumpi\n  dup1\n  mload\n  not(0xff)\n  and\n  dup4\n  dup1\n  add\n  or\n  dup6\n  sstore\n  jump(tag_10)\ntag_8:\n  dup3\n  dup1\n  add\n  0x1\n  add\n  dup6\n  sstore\n  dup3\n  iszero\n  tag_10\n  jumpi\n  swap2\n  dup3\n  add\ntag_9:\n  dup3\n  dup2\n  gt\n  iszero\n  tag_10\n  jumpi\n  dup3\n  mload\n  dup3\n  sstore\n  swap2\n  0x20\n  add\n  swap2\n  swap1\n  0x1\n  add\n  swap1\n  jump(tag_9)\ntag_10:\ntag_7:\n  pop\n  tag_11\n  swap3\n  swap2\n  pop\n  jump\t// in(tag_12)\ntag_11:\n  pop\n  swap1\n  jump\t// out\ntag_12:\n  tag_13\n  swap2\n  swap1\ntag_14:\n  dup1\n  dup3\n  gt\n  iszero\n  tag_11\n  jumpi\n  0x0\n  dup2\n  sstore\n  0x1\n  add\n  jump(tag_14)\ntag_15:\n  pop\n  swap1\n  jump\ntag_13:\n  swap1\n  jump\t// out\ntag_6:\n  dataSize(sub_0)\n  dup1\n  dataOffset(sub_0)\n  0x0\n  codecopy\n  0x0\n  return\nstop\n\nsub_0: assembly {\n        /* \"contracts/test-helpers/OMGLikeToken.sol\":9670:10156  contract OMGLikeToken is PausableToken, MintableToken {... */\n      mstore(0x40, 0x60)\n      jumpi(tag_1, iszero(calldatasize))\n      and(div(calldataload(0x0), 0x100000000000000000000000000000000000000000000000000000000), 0xffffffff)\n      0x5d2035b\n      dup2\n      eq\n      tag_2\n      jumpi\n      dup1\n      0x6fdde03\n      eq\n      tag_3\n      jumpi\n      dup1\n      0x95ea7b3\n      eq\n      tag_4\n      jumpi\n      dup1\n      0x18160ddd\n      eq\n      tag_5\n      jumpi\n      dup1\n      0x23b872dd\n      eq\n      tag_6\n      jumpi\n      dup1\n      0x313ce567\n      eq\n      tag_7\n      jumpi\n      dup1\n      0x3f4ba83a\n      eq\n      tag_8\n      jumpi\n      dup1\n      0x40c10f19\n      eq\n      tag_9\n      jumpi\n      dup1\n      0x5c975abb\n      eq\n      tag_10\n      jumpi\n      dup1\n      0x70a08231\n      eq\n      tag_11\n      jumpi\n      dup1\n      0x7d64bcb4\n      eq\n      tag_12\n      jumpi\n      dup1\n      0x8456cb59\n      eq\n      tag_13\n      jumpi\n      dup1\n      0x8da5cb5b\n      eq\n      tag_14\n      jumpi\n      dup1\n      0x95d89b41\n      eq\n      tag_15\n      jumpi\n      dup1\n      0xa9059cbb\n      eq\n      tag_16\n      jumpi\n      dup1\n      0xc14a3b8c\n      eq\n      tag_17\n      jumpi\n      dup1\n      0xdd62ed3e\n      eq\n      tag_18\n      jumpi\n      dup1\n      0xf2fde38b\n      eq\n      tag_19\n      jumpi\n    tag_1:\n      invalid\n        /* \"contracts/test-helpers/OMGLikeToken.sol\":6646:6681  bool public mintingFinished = false */\n    tag_2:\n      jumpi(tag_20, iszero(callvalue))\n      invalid\n    tag_20:\n      tag_21\n      jump(tag_22)\n    tag_21:\n      0x40\n      dup1\n      mload\n      swap2\n      iszero\n      iszero\n      dup3\n      mstore\n      mload\n      swap1\n      dup2\n      swap1\n      sub\n      0x20\n      add\n      swap1\n      return\n        /* \"contracts/test-helpers/OMGLikeToken.sol\":9759:9790  string public name = \"OMGToken\" */\n    tag_3:\n      jumpi(tag_23, iszero(callvalue))\n      invalid\n    tag_23:\n      tag_24\n      jump(tag_25)\n    tag_24:\n      0x40\n      dup1\n      mload\n      0x20\n      dup1\n      dup3\n      mstore\n      dup4\n      mload\n      dup2\n      dup4\n      add\n      mstore\n      dup4\n      mload\n      swap2\n      swap3\n      dup4\n      swap3\n      swap1\n      dup4\n      add\n      swap2\n      dup6\n      add\n      swap1\n      dup1\n      dup4\n      dup4\n        /* \"--CODEGEN--\":18:20   */\n      dup3\n      iszero\n        /* \"--CODEGEN--\":13:16   */\n      tag_26\n        /* \"--CODEGEN--\":7:12   */\n      jumpi\n        /* \"--CODEGEN--\":32:37   */\n    tag_27:\n        /* \"--CODEGEN--\":59:62   */\n      dup1\n        /* \"--CODEGEN--\":53:58   */\n      mload\n        /* \"--CODEGEN--\":48:51   */\n      dup3\n        /* \"--CODEGEN--\":41:47   */\n      mstore\n        /* \"--CODEGEN--\":93:95   */\n      0x20\n        /* \"--CODEGEN--\":88:91   */\n      dup4\n        /* \"--CODEGEN--\":85:87   */\n      gt\n        /* \"--CODEGEN--\":78:84   */\n      iszero\n        /* \"--CODEGEN--\":73:76   */\n      tag_26\n        /* \"--CODEGEN--\":67:72   */\n      jumpi\n        /* \"--CODEGEN--\":152:155   */\n      0xffffffffffffffffffffffffffffffffffffffffffffffffffffffffffffffe0\n      swap1\n      swap3\n      add\n      swap2\n        /* \"--CODEGEN--\":117:119   */\n      0x20\n        /* \"--CODEGEN--\":108:111   */\n      swap2\n      dup3\n      add\n      swap2\n        /* \"--CODEGEN--\":130:133   */\n      add\n        /* \"--CODEGEN--\":172:177   */\n      tag_27\n        /* \"--CODEGEN--\":167:171   */\n      jump\n        /* \"--CODEGEN--\":181:184   */\n    tag_26:\n        /* \"--CODEGEN--\":3:189   */\n      pop\n      pop\n      pop\n      swap1\n      pop\n      swap1\n      dup2\n      add\n      swap1\n      0x1f\n      and\n      dup1\n      iszero\n      tag_28\n      jumpi\n      dup1\n      dup3\n      sub\n      dup1\n      mload\n      0x1\n      dup4\n      0x20\n      sub\n      0x100\n      exp\n      sub\n      not\n      and\n      dup2\n      mstore\n      0x20\n      add\n      swap2\n      pop\n    tag_28:\n      pop\n      swap3\n      pop\n      pop\n      pop\n      mload(0x40)\n      dup1\n      swap2\n      sub\n      swap1\n      return\n        /* \"contracts/test-helpers/OMGLikeToken.sol\":4424:4925  function approve(address _spender, uint _value) {... */\n    tag_4:\n      jumpi(tag_29, iszero(callvalue))\n      invalid\n    tag_29:\n      tag_30\n      and(calldataload(0x4), 0xffffffffffffffffffffffffffffffffffffffff)\n      calldataload(0x24)\n      jump(tag_31)\n    tag_30:\n      stop\n        /* \"contracts/test-helpers/OMGLikeToken.sol\":6685:6712  uint public totalSupply = 0 */\n    tag_5:\n      jumpi(tag_32, iszero(callvalue))\n      invalid\n    tag_32:\n      tag_33\n      jump(tag_34)\n    tag_33:\n      0x40\n      dup1\n      mload\n      swap2\n      dup3\n      mstore\n      mload\n      swap1\n      dup2\n      swap1\n      sub\n      0x20\n      add\n      swap1\n      return\n        /* \"contracts/test-helpers/OMGLikeToken.sol\":8602:8728  function transferFrom(address _from, address _to, uint _value) whenNotPaused {... */\n    tag_6:\n      jumpi(tag_35, iszero(callvalue))\n      invalid\n    tag_35:\n      tag_30\n      0xffffffffffffffffffffffffffffffffffffffff\n      calldataload(0x4)\n      dup2\n      and\n      swap1\n      calldataload(0x24)\n      and\n      calldataload(0x44)\n      jump(tag_37)\n    tag_36:\n      stop\n        /* \"contracts/test-helpers/OMGLikeToken.sol\":9826:9851  uint public decimals = 18 */\n    tag_7:\n      jumpi(tag_38, iszero(callvalue))\n      invalid\n    tag_38:\n      tag_33\n      jump(tag_40)\n    tag_39:\n      0x40\n      dup1\n      mload\n      swap2\n      dup3\n      mstore\n      mload\n      swap1\n      dup2\n      swap1\n      sub\n      0x20\n      add\n      swap1\n      return\n        /* \"contracts/test-helpers/OMGLikeToken.sol\":8239:8351  function unpause() onlyOwner whenPaused returns (bool) {... */\n    tag_8:\n      jumpi(tag_41, iszero(callvalue))\n      invalid\n    tag_41:\n      tag_21\n      jump(tag_43)\n    tag_42:\n      0x40\n      dup1\n      mload\n      swap2\n      iszero\n      iszero\n      dup3\n      mstore\n      mload\n      swap1\n      dup2\n      swap1\n      sub\n      0x20\n      add\n      swap1\n      return\n        /* \"contracts/test-helpers/OMGLikeToken.sol\":7016:7228  function mint(address _to, uint _amount) onlyOwner canMint returns (bool) {... */\n    tag_9:\n      jumpi(tag_44, iszero(callvalue))\n      invalid\n    tag_44:\n      tag_21\n      and(calldataload(0x4), 0xffffffffffffffffffffffffffffffffffffffff)\n      calldataload(0x24)\n      jump(tag_46)\n    tag_45:\n      0x40\n      dup1\n      mload\n      swap2\n      iszero\n      iszero\n      dup3\n      mstore\n      mload\n      swap1\n      dup2\n      swap1\n      sub\n      0x20\n      add\n      swap1\n      return\n        /* \"contracts/test-helpers/OMGLikeToken.sol\":7650:7676  bool public paused = false */\n    tag_10:\n      jumpi(tag_47, iszero(callvalue))\n      invalid\n    tag_47:\n      tag_21\n      jump(tag_49)\n    tag_48:\n      0x40\n      dup1\n      mload\n      swap2\n      iszero\n      iszero\n      dup3\n      mstore\n      mload\n      swap1\n      dup2\n      swap1\n      sub\n      0x20\n      add\n      swap1\n      return\n        /* \"contracts/test-helpers/OMGLikeToken.sol\":2574:2675  function balanceOf(address _owner) constant returns (uint balance) {... */\n    tag_11:\n      jumpi(tag_50, iszero(callvalue))\n      invalid\n    tag_50:\n      tag_33\n      and(calldataload(0x4), 0xffffffffffffffffffffffffffffffffffffffff)\n      jump(tag_52)\n    tag_51:\n      0x40\n      dup1\n      mload\n      swap2\n      dup3\n      mstore\n      mload\n      swap1\n      dup2\n      swap1\n      sub\n      0x20\n      add\n      swap1\n      return\n        /* \"contracts/test-helpers/OMGLikeToken.sol\":7342:7462  function finishMinting() onlyOwner returns (bool) {... */\n    tag_12:\n      jumpi(tag_53, iszero(callvalue))\n      invalid\n    tag_53:\n      tag_21\n      jump(tag_55)\n    tag_54:\n      0x40\n      dup1\n      mload\n      swap2\n      iszero\n      iszero\n      dup3\n      mstore\n      mload\n      swap1\n      dup2\n      swap1\n      sub\n      0x20\n      add\n      swap1\n      return\n        /* \"contracts/test-helpers/OMGLikeToken.sol\":8047:8157  function pause() onlyOwner whenNotPaused returns (bool) {... */\n    tag_13:\n      jumpi(tag_56, iszero(callvalue))\n      invalid\n    tag_56:\n      tag_21\n      jump(tag_58)\n    tag_57:\n      0x40\n      dup1\n      mload\n      swap2\n      iszero\n      iszero\n      dup3\n      mstore\n      mload\n      swap1\n      dup2\n      swap1\n      sub\n      0x20\n      add\n      swap1\n      return\n        /* \"contracts/test-helpers/OMGLikeToken.sol\":5585:5605  address public owner */\n    tag_14:\n      jumpi(tag_59, iszero(callvalue))\n      invalid\n    tag_59:\n      tag_60\n      jump(tag_61)\n    tag_60:\n      0x40\n      dup1\n      mload\n      0xffffffffffffffffffffffffffffffffffffffff\n      swap1\n      swap3\n      and\n      dup3\n      mstore\n      mload\n      swap1\n      dup2\n      swap1\n      sub\n      0x20\n      add\n      swap1\n      return\n        /* \"contracts/test-helpers/OMGLikeToken.sol\":9794:9822  string public symbol = \"OMG\" */\n    tag_15:\n      jumpi(tag_62, iszero(callvalue))\n      invalid\n    tag_62:\n      tag_24\n      jump(tag_64)\n    tag_63:\n      0x40\n      dup1\n      mload\n      0x20\n      dup1\n      dup3\n      mstore\n      dup4\n      mload\n      dup2\n      dup4\n      add\n      mstore\n      dup4\n      mload\n      swap2\n      swap3\n      dup4\n      swap3\n      swap1\n      dup4\n      add\n      swap2\n      dup6\n      add\n      swap1\n      dup1\n      dup4\n      dup4\n        /* \"--CODEGEN--\":18:20   */\n      dup3\n      iszero\n        /* \"--CODEGEN--\":13:16   */\n      tag_26\n        /* \"--CODEGEN--\":7:12   */\n      jumpi\n        /* \"--CODEGEN--\":32:37   */\n    tag_66:\n        /* \"--CODEGEN--\":59:62   */\n      dup1\n        /* \"--CODEGEN--\":53:58   */\n      mload\n        /* \"--CODEGEN--\":48:51   */\n      dup3\n        /* \"--CODEGEN--\":41:47   */\n      mstore\n        /* \"--CODEGEN--\":93:95   */\n      0x20\n        /* \"--CODEGEN--\":88:91   */\n      dup4\n        /* \"--CODEGEN--\":85:87   */\n      gt\n        /* \"--CODEGEN--\":78:84   */\n      iszero\n        /* \"--CODEGEN--\":73:76   */\n      tag_26\n        /* \"--CODEGEN--\":67:72   */\n      jumpi\n        /* \"--CODEGEN--\":152:155   */\n      0xffffffffffffffffffffffffffffffffffffffffffffffffffffffffffffffe0\n      swap1\n      swap3\n      add\n      swap2\n        /* \"--CODEGEN--\":117:119   */\n      0x20\n        /* \"--CODEGEN--\":108:111   */\n      swap2\n      dup3\n      add\n      swap2\n        /* \"--CODEGEN--\":130:133   */\n      add\n        /* \"--CODEGEN--\":172:177   */\n      tag_27\n        /* \"--CODEGEN--\":167:171   */\n      jump\n        /* \"--CODEGEN--\":181:184   */\n    tag_65:\n        /* \"--CODEGEN--\":3:189   */\n      pop\n      pop\n      pop\n      swap1\n      pop\n      swap1\n      dup2\n      add\n      swap1\n      0x1f\n      and\n      dup1\n      iszero\n      tag_28\n      jumpi\n      dup1\n      dup3\n      sub\n      dup1\n      mload\n      0x1\n      dup4\n      0x20\n      sub\n      0x100\n      exp\n      sub\n      not\n      and\n      dup2\n      mstore\n      0x20\n      add\n      swap2\n      pop\n    tag_67:\n      pop\n      swap3\n      pop\n      pop\n      pop\n      mload(0x40)\n      dup1\n      swap2\n      sub\n      swap1\n      return\n        /* \"contracts/test-helpers/OMGLikeToken.sol\":8502:8598  function transfer(address _to, uint _value) whenNotPaused {... */\n    tag_16:\n      jumpi(tag_68, iszero(callvalue))\n      invalid\n    tag_68:\n      tag_30\n      and(calldataload(0x4), 0xffffffffffffffffffffffffffffffffffffffff)\n      calldataload(0x24)\n      jump(tag_70)\n    tag_69:\n      stop\n        /* \"contracts/test-helpers/OMGLikeToken.sol\":9901:10153  function mintTimelocked(address _to, uint256 _amount, uint256 _releaseTime)... */\n    tag_17:\n      jumpi(tag_71, iszero(callvalue))\n      invalid\n    tag_71:\n      tag_60\n      and(calldataload(0x4), 0xffffffffffffffffffffffffffffffffffffffff)\n      calldataload(0x24)\n      calldataload(0x44)\n      jump(tag_73)\n    tag_72:\n      0x40\n      dup1\n      mload\n      0xffffffffffffffffffffffffffffffffffffffff\n      swap1\n      swap3\n      and\n      dup3\n      mstore\n      mload\n      swap1\n      dup2\n      swap1\n      sub\n      0x20\n      add\n      swap1\n      return\n        /* \"contracts/test-helpers/OMGLikeToken.sol\":5238:5368  function allowance(address _owner, address _spender) constant returns (uint remaining) {... */\n    tag_18:\n      jumpi(tag_74, iszero(callvalue))\n      invalid\n    tag_74:\n      tag_33\n      0xffffffffffffffffffffffffffffffffffffffff\n      calldataload(0x4)\n      dup2\n      and\n      swap1\n      calldataload(0x24)\n      and\n      jump(tag_76)\n    tag_75:\n      0x40\n      dup1\n      mload\n      swap2\n      dup3\n      mstore\n      mload\n      swap1\n      dup2\n      swap1\n      sub\n      0x20\n      add\n      swap1\n      return\n        /* \"contracts/test-helpers/OMGLikeToken.sol\":6101:6225  function transferOwnership(address newOwner) onlyOwner {... */\n    tag_19:\n      jumpi(tag_77, iszero(callvalue))\n      invalid\n    tag_77:\n      tag_30\n      and(calldataload(0x4), 0xffffffffffffffffffffffffffffffffffffffff)\n      jump(tag_79)\n    tag_78:\n      stop\n        /* \"contracts/test-helpers/OMGLikeToken.sol\":6646:6681  bool public mintingFinished = false */\n    tag_22:\n      sload(0x3)\n      0x1000000000000000000000000000000000000000000\n      swap1\n      div\n      0xff\n      and\n      dup2\n      jump\t// out\n        /* \"contracts/test-helpers/OMGLikeToken.sol\":9759:9790  string public name = \"OMGToken\" */\n    tag_25:\n      0x5\n      dup1\n      sload\n      0x40\n      dup1\n      mload\n      0x20\n      0x2\n      0x1\n      dup6\n      and\n      iszero\n      0x100\n      mul\n      0xffffffffffffffffffffffffffffffffffffffffffffffffffffffffffffffff\n      add\n      swap1\n      swap5\n      and\n      swap4\n      swap1\n      swap4\n      div\n      0x1f\n      dup2\n      add\n      dup5\n      swap1\n      div\n      dup5\n      mul\n      dup3\n      add\n      dup5\n      add\n      swap1\n      swap3\n      mstore\n      dup2\n      dup2\n      mstore\n      swap3\n      swap2\n      dup4\n      add\n      dup3\n      dup3\n      dup1\n      iszero\n      tag_80\n      jumpi\n      dup1\n      0x1f\n      lt\n      tag_81\n      jumpi\n      0x100\n      dup1\n      dup4\n      sload\n      div\n      mul\n      dup4\n      mstore\n      swap2\n      0x20\n      add\n      swap2\n      jump(tag_80)\n    tag_81:\n      dup3\n      add\n      swap2\n      swap1\n      0x0\n      mstore\n      sha3(0x0, 0x20)\n      swap1\n    tag_82:\n      dup2\n      sload\n      dup2\n      mstore\n      swap1\n      0x1\n      add\n      swap1\n      0x20\n      add\n      dup1\n      dup4\n      gt\n      tag_82\n      jumpi\n      dup3\n      swap1\n      sub\n      0x1f\n      and\n      dup3\n      add\n      swap2\n    tag_80:\n      pop\n      pop\n      pop\n      pop\n      pop\n      dup2\n      jump\t// out\n        /* \"contracts/test-helpers/OMGLikeToken.sol\":4424:4925  function approve(address _spender, uint _value) {... */\n    tag_31:\n        /* \"contracts/test-helpers/OMGLikeToken.sol\":4772:4783  _value != 0 */\n      dup1\n      iszero\n      dup1\n      iszero\n      swap1\n        /* \"contracts/test-helpers/OMGLikeToken.sol\":4771:4824  (_value != 0) && (allowed[msg.sender][_spender] != 0) */\n      tag_84\n      jumpi\n      pop\n        /* \"contracts/test-helpers/OMGLikeToken.sol\":4789:4808  allowed[msg.sender] */\n      0xffffffffffffffffffffffffffffffffffffffff\n        /* \"contracts/test-helpers/OMGLikeToken.sol\":4797:4807  msg.sender */\n      caller\n        /* \"contracts/test-helpers/OMGLikeToken.sol\":4789:4808  allowed[msg.sender] */\n      dup2\n      and\n      0x0\n      swap1\n      dup2\n      mstore\n        /* \"contracts/test-helpers/OMGLikeToken.sol\":4789:4796  allowed */\n      0x2\n        /* \"contracts/test-helpers/OMGLikeToken.sol\":4789:4808  allowed[msg.sender] */\n      0x20\n      swap1\n      dup2\n      mstore\n      0x40\n      dup1\n      dup4\n      sha3\n        /* \"contracts/test-helpers/OMGLikeToken.sol\":4789:4818  allowed[msg.sender][_spender] */\n      swap4\n      dup7\n      and\n      dup4\n      mstore\n      swap3\n      swap1\n      mstore\n      sha3\n      sload\n        /* \"contracts/test-helpers/OMGLikeToken.sol\":4789:4823  allowed[msg.sender][_spender] != 0 */\n      iszero\n      iszero\n        /* \"contracts/test-helpers/OMGLikeToken.sol\":4771:4824  (_value != 0) && (allowed[msg.sender][_spender] != 0) */\n    tag_84:\n        /* \"contracts/test-helpers/OMGLikeToken.sol\":4767:4831  if ((_value != 0) && (allowed[msg.sender][_spender] != 0)) throw */\n      iszero\n      tag_85\n      jumpi\n        /* \"contracts/test-helpers/OMGLikeToken.sol\":4826:4831  throw */\n      revert(0x0, 0x0)\n        /* \"contracts/test-helpers/OMGLikeToken.sol\":4767:4831  if ((_value != 0) && (allowed[msg.sender][_spender] != 0)) throw */\n    tag_85:\n        /* \"contracts/test-helpers/OMGLikeToken.sol\":4838:4857  allowed[msg.sender] */\n      0xffffffffffffffffffffffffffffffffffffffff\n        /* \"contracts/test-helpers/OMGLikeToken.sol\":4846:4856  msg.sender */\n      caller\n        /* \"contracts/test-helpers/OMGLikeToken.sol\":4838:4857  allowed[msg.sender] */\n      dup2\n      and\n      0x0\n      dup2\n      dup2\n      mstore\n        /* \"contracts/test-helpers/OMGLikeToken.sol\":4838:4845  allowed */\n      0x2\n        /* \"contracts/test-helpers/OMGLikeToken.sol\":4838:4857  allowed[msg.sender] */\n      0x20\n      swap1\n      dup2\n      mstore\n      0x40\n      dup1\n      dup4\n      sha3\n        /* \"contracts/test-helpers/OMGLikeToken.sol\":4838:4867  allowed[msg.sender][_spender] */\n      swap5\n      dup8\n      and\n      dup1\n      dup5\n      mstore\n      swap5\n      dup3\n      mstore\n      swap2\n      dup3\n      swap1\n      sha3\n        /* \"contracts/test-helpers/OMGLikeToken.sol\":4838:4876  allowed[msg.sender][_spender] = _value */\n      dup6\n      swap1\n      sstore\n        /* \"contracts/test-helpers/OMGLikeToken.sol\":4882:4920  Approval(msg.sender, _spender, _value) */\n      dup2\n      mload\n      dup6\n      dup2\n      mstore\n      swap2\n      mload\n      0x8c5be1e5ebec7d5bd14f71427d1e84f3dd0314c0f7b2291e5b200ac8c7c3b925\n      swap3\n      dup2\n      swap1\n      sub\n      swap1\n      swap2\n      add\n      swap1\n      log3\n        /* \"contracts/test-helpers/OMGLikeToken.sol\":4424:4925  function approve(address _spender, uint _value) {... */\n    tag_83:\n      pop\n      pop\n      jump\t// out\n        /* \"contracts/test-helpers/OMGLikeToken.sol\":6685:6712  uint public totalSupply = 0 */\n    tag_34:\n      sload(0x4)\n      dup2\n      jump\t// out\n        /* \"contracts/test-helpers/OMGLikeToken.sol\":8602:8728  function transferFrom(address _from, address _to, uint _value) whenNotPaused {... */\n    tag_37:\n        /* \"contracts/test-helpers/OMGLikeToken.sol\":7798:7804  paused */\n      sload(0x3)\n      0x10000000000000000000000000000000000000000\n      swap1\n      div\n      0xff\n      and\n        /* \"contracts/test-helpers/OMGLikeToken.sol\":7794:7811  if (paused) throw */\n      iszero\n      tag_87\n      jumpi\n        /* \"contracts/test-helpers/OMGLikeToken.sol\":7806:7811  throw */\n      revert(0x0, 0x0)\n        /* \"contracts/test-helpers/OMGLikeToken.sol\":7794:7811  if (paused) throw */\n    tag_87:\n        /* \"contracts/test-helpers/OMGLikeToken.sol\":8685:8723  super.transferFrom(_from, _to, _value) */\n      tag_89\n        /* \"contracts/test-helpers/OMGLikeToken.sol\":8704:8709  _from */\n      dup4\n        /* \"contracts/test-helpers/OMGLikeToken.sol\":8711:8714  _to */\n      dup4\n        /* \"contracts/test-helpers/OMGLikeToken.sol\":8716:8722  _value */\n      dup4\n        /* \"contracts/test-helpers/OMGLikeToken.sol\":8685:8703  super.transferFrom */\n      tag_90\n        /* \"contracts/test-helpers/OMGLikeToken.sol\":8685:8723  super.transferFrom(_from, _to, _value) */\n      jump\t// in\n    tag_89:\n        /* \"contracts/test-helpers/OMGLikeToken.sol\":7817:7818  _ */\n    tag_88:\n        /* \"contracts/test-helpers/OMGLikeToken.sol\":8602:8728  function transferFrom(address _from, address _to, uint _value) whenNotPaused {... */\n    tag_86:\n      pop\n      pop\n      pop\n      jump\t// out\n        /* \"contracts/test-helpers/OMGLikeToken.sol\":9826:9851  uint public decimals = 18 */\n    tag_40:\n      sload(0x7)\n      dup2\n      jump\t// out\n        /* \"contracts/test-helpers/OMGLikeToken.sol\":8239:8351  function unpause() onlyOwner whenPaused returns (bool) {... */\n    tag_43:\n        /* \"contracts/test-helpers/OMGLikeToken.sol\":5901:5906  owner */\n      sload(0x3)\n        /* \"contracts/test-helpers/OMGLikeToken.sol\":8288:8292  bool */\n      0x0\n      swap1\n        /* \"contracts/test-helpers/OMGLikeToken.sol\":5887:5897  msg.sender */\n      caller\n        /* \"contracts/test-helpers/OMGLikeToken.sol\":5901:5906  owner */\n      0xffffffffffffffffffffffffffffffffffffffff\n        /* \"contracts/test-helpers/OMGLikeToken.sol\":5887:5906  msg.sender != owner */\n      swap1\n      dup2\n      and\n        /* \"contracts/test-helpers/OMGLikeToken.sol\":5901:5906  owner */\n      swap2\n      and\n        /* \"contracts/test-helpers/OMGLikeToken.sol\":5887:5906  msg.sender != owner */\n      eq\n        /* \"contracts/test-helpers/OMGLikeToken.sol\":5883:5928  if (msg.sender != owner) {... */\n      tag_92\n      jumpi\n        /* \"contracts/test-helpers/OMGLikeToken.sol\":5916:5921  throw */\n      revert(0x0, 0x0)\n        /* \"contracts/test-helpers/OMGLikeToken.sol\":5883:5928  if (msg.sender != owner) {... */\n    tag_92:\n        /* \"contracts/test-helpers/OMGLikeToken.sol\":7943:7949  paused */\n      sload(0x3)\n      0x10000000000000000000000000000000000000000\n      swap1\n      div\n      0xff\n      and\n        /* \"contracts/test-helpers/OMGLikeToken.sol\":7942:7949  !paused */\n      iszero\n        /* \"contracts/test-helpers/OMGLikeToken.sol\":7938:7956  if (!paused) throw */\n      iszero\n      tag_94\n      jumpi\n        /* \"contracts/test-helpers/OMGLikeToken.sol\":7951:7956  throw */\n      revert(0x0, 0x0)\n        /* \"contracts/test-helpers/OMGLikeToken.sol\":7938:7956  if (!paused) throw */\n    tag_94:\n        /* \"contracts/test-helpers/OMGLikeToken.sol\":8300:8306  paused */\n      0x3\n        /* \"contracts/test-helpers/OMGLikeToken.sol\":8300:8314  paused = false */\n      dup1\n      sload\n      0xffffffffffffffffffffff00ffffffffffffffffffffffffffffffffffffffff\n      and\n      swap1\n      sstore\n        /* \"contracts/test-helpers/OMGLikeToken.sol\":8320:8329  Unpause() */\n      mload(0x40)\n      0x7805862f689e2f13df9f062ff482ad3ad112aca9e0847911ed832e158c525b33\n      swap1\n        /* \"contracts/test-helpers/OMGLikeToken.sol\":8309:8314  false */\n      0x0\n      swap1\n        /* \"contracts/test-helpers/OMGLikeToken.sol\":8320:8329  Unpause() */\n      log1\n      pop\n        /* \"contracts/test-helpers/OMGLikeToken.sol\":8342:8346  true */\n      0x1\n        /* \"contracts/test-helpers/OMGLikeToken.sol\":7962:7963  _ */\n    tag_95:\n        /* \"contracts/test-helpers/OMGLikeToken.sol\":5933:5934  _ */\n    tag_93:\n        /* \"contracts/test-helpers/OMGLikeToken.sol\":8239:8351  function unpause() onlyOwner whenPaused returns (bool) {... */\n    tag_91:\n      swap1\n      jump\t// out\n        /* \"contracts/test-helpers/OMGLikeToken.sol\":7016:7228  function mint(address _to, uint _amount) onlyOwner canMint returns (bool) {... */\n    tag_46:\n        /* \"contracts/test-helpers/OMGLikeToken.sol\":5901:5906  owner */\n      sload(0x3)\n        /* \"contracts/test-helpers/OMGLikeToken.sol\":7084:7088  bool */\n      0x0\n      swap1\n        /* \"contracts/test-helpers/OMGLikeToken.sol\":5887:5897  msg.sender */\n      caller\n        /* \"contracts/test-helpers/OMGLikeToken.sol\":5901:5906  owner */\n      0xffffffffffffffffffffffffffffffffffffffff\n        /* \"contracts/test-helpers/OMGLikeToken.sol\":5887:5906  msg.sender != owner */\n      swap1\n      dup2\n      and\n        /* \"contracts/test-helpers/OMGLikeToken.sol\":5901:5906  owner */\n      swap2\n      and\n        /* \"contracts/test-helpers/OMGLikeToken.sol\":5887:5906  msg.sender != owner */\n      eq\n        /* \"contracts/test-helpers/OMGLikeToken.sol\":5883:5928  if (msg.sender != owner) {... */\n      tag_97\n      jumpi\n        /* \"contracts/test-helpers/OMGLikeToken.sol\":5916:5921  throw */\n      revert(0x0, 0x0)\n        /* \"contracts/test-helpers/OMGLikeToken.sol\":5883:5928  if (msg.sender != owner) {... */\n    tag_97:\n        /* \"contracts/test-helpers/OMGLikeToken.sol\":6746:6761  mintingFinished */\n      sload(0x3)\n      0x1000000000000000000000000000000000000000000\n      swap1\n      div\n      0xff\n      and\n        /* \"contracts/test-helpers/OMGLikeToken.sol\":6743:6768  if(mintingFinished) throw */\n      iszero\n      tag_99\n      jumpi\n        /* \"contracts/test-helpers/OMGLikeToken.sol\":6763:6768  throw */\n      revert(0x0, 0x0)\n        /* \"contracts/test-helpers/OMGLikeToken.sol\":6743:6768  if(mintingFinished) throw */\n    tag_99:\n        /* \"contracts/test-helpers/OMGLikeToken.sol\":7110:7121  totalSupply */\n      sload(0x4)\n        /* \"contracts/test-helpers/OMGLikeToken.sol\":7110:7134  totalSupply.add(_amount) */\n      tag_101\n      swap1\n        /* \"contracts/test-helpers/OMGLikeToken.sol\":7126:7133  _amount */\n      dup4\n        /* \"contracts/test-helpers/OMGLikeToken.sol\":7110:7134  totalSupply.add(_amount) */\n      0xffffffff\n        /* \"contracts/test-helpers/OMGLikeToken.sol\":7110:7125  totalSupply.add */\n      tag_102\n        /* \"contracts/test-helpers/OMGLikeToken.sol\":7110:7134  totalSupply.add(_amount) */\n      and\n      jump\t// in\n    tag_101:\n        /* \"contracts/test-helpers/OMGLikeToken.sol\":7096:7107  totalSupply */\n      0x4\n        /* \"contracts/test-helpers/OMGLikeToken.sol\":7096:7134  totalSupply = totalSupply.add(_amount) */\n      sstore\n        /* \"contracts/test-helpers/OMGLikeToken.sol\":7156:7169  balances[_to] */\n      0xffffffffffffffffffffffffffffffffffffffff\n      dup4\n      and\n      0x0\n      swap1\n      dup2\n      mstore\n        /* \"contracts/test-helpers/OMGLikeToken.sol\":7156:7164  balances */\n      0x1\n        /* \"contracts/test-helpers/OMGLikeToken.sol\":7156:7169  balances[_to] */\n      0x20\n      mstore\n      0x40\n      swap1\n      sha3\n      sload\n        /* \"contracts/test-helpers/OMGLikeToken.sol\":7156:7182  balances[_to].add(_amount) */\n      tag_103\n      swap1\n        /* \"contracts/test-helpers/OMGLikeToken.sol\":7174:7181  _amount */\n      dup4\n        /* \"contracts/test-helpers/OMGLikeToken.sol\":7156:7182  balances[_to].add(_amount) */\n      0xffffffff\n        /* \"contracts/test-helpers/OMGLikeToken.sol\":7156:7173  balances[_to].add */\n      tag_102\n        /* \"contracts/test-helpers/OMGLikeToken.sol\":7156:7182  balances[_to].add(_amount) */\n      and\n      jump\t// in\n    tag_103:\n        /* \"contracts/test-helpers/OMGLikeToken.sol\":7140:7153  balances[_to] */\n      0xffffffffffffffffffffffffffffffffffffffff\n      dup5\n      and\n      0x0\n      dup2\n      dup2\n      mstore\n        /* \"contracts/test-helpers/OMGLikeToken.sol\":7140:7148  balances */\n      0x1\n        /* \"contracts/test-helpers/OMGLikeToken.sol\":7140:7153  balances[_to] */\n      0x20\n      swap1\n      dup2\n      mstore\n      0x40\n      swap2\n      dup3\n      swap1\n      sha3\n        /* \"contracts/test-helpers/OMGLikeToken.sol\":7140:7182  balances[_to] = balances[_to].add(_amount) */\n      swap4\n      swap1\n      swap4\n      sstore\n        /* \"contracts/test-helpers/OMGLikeToken.sol\":7188:7206  Mint(_to, _amount) */\n      dup1\n      mload\n      dup6\n      dup2\n      mstore\n      swap1\n      mload\n        /* \"contracts/test-helpers/OMGLikeToken.sol\":7140:7153  balances[_to] */\n      swap2\n      swap3\n        /* \"contracts/test-helpers/OMGLikeToken.sol\":7188:7206  Mint(_to, _amount) */\n      0xf6798a560793a54c3bcfe86a93cde1e73087d944c0ea20544137d4121396885\n      swap3\n      swap2\n      dup3\n      swap1\n      sub\n      add\n      swap1\n      log2\n      pop\n        /* \"contracts/test-helpers/OMGLikeToken.sol\":7219:7223  true */\n      0x1\n        /* \"contracts/test-helpers/OMGLikeToken.sol\":6774:6775  _ */\n    tag_100:\n        /* \"contracts/test-helpers/OMGLikeToken.sol\":5933:5934  _ */\n    tag_98:\n        /* \"contracts/test-helpers/OMGLikeToken.sol\":7016:7228  function mint(address _to, uint _amount) onlyOwner canMint returns (bool) {... */\n    tag_96:\n      swap3\n      swap2\n      pop\n      pop\n      jump\t// out\n        /* \"contracts/test-helpers/OMGLikeToken.sol\":7650:7676  bool public paused = false */\n    tag_49:\n      sload(0x3)\n      0x10000000000000000000000000000000000000000\n      swap1\n      div\n      0xff\n      and\n      dup2\n      jump\t// out\n        /* \"contracts/test-helpers/OMGLikeToken.sol\":2574:2675  function balanceOf(address _owner) constant returns (uint balance) {... */\n    tag_52:\n        /* \"contracts/test-helpers/OMGLikeToken.sol\":2654:2670  balances[_owner] */\n      0xffffffffffffffffffffffffffffffffffffffff\n      dup2\n      and\n        /* \"contracts/test-helpers/OMGLikeToken.sol\":2627:2639  uint balance */\n      0x0\n        /* \"contracts/test-helpers/OMGLikeToken.sol\":2654:2670  balances[_owner] */\n      swap1\n      dup2\n      mstore\n        /* \"contracts/test-helpers/OMGLikeToken.sol\":2654:2662  balances */\n      0x1\n        /* \"contracts/test-helpers/OMGLikeToken.sol\":2654:2670  balances[_owner] */\n      0x20\n      mstore\n      0x40\n      swap1\n      sha3\n      sload\n        /* \"contracts/test-helpers/OMGLikeToken.sol\":2574:2675  function balanceOf(address _owner) constant returns (uint balance) {... */\n    tag_104:\n      swap2\n      swap1\n      pop\n      jump\t// out\n        /* \"contracts/test-helpers/OMGLikeToken.sol\":7342:7462  function finishMinting() onlyOwner returns (bool) {... */\n    tag_55:\n        /* \"contracts/test-helpers/OMGLikeToken.sol\":5901:5906  owner */\n      sload(0x3)\n        /* \"contracts/test-helpers/OMGLikeToken.sol\":7386:7390  bool */\n      0x0\n      swap1\n        /* \"contracts/test-helpers/OMGLikeToken.sol\":5887:5897  msg.sender */\n      caller\n        /* \"contracts/test-helpers/OMGLikeToken.sol\":5901:5906  owner */\n      0xffffffffffffffffffffffffffffffffffffffff\n        /* \"contracts/test-helpers/OMGLikeToken.sol\":5887:5906  msg.sender != owner */\n      swap1\n      dup2\n      and\n        /* \"contracts/test-helpers/OMGLikeToken.sol\":5901:5906  owner */\n      swap2\n      and\n        /* \"contracts/test-helpers/OMGLikeToken.sol\":5887:5906  msg.sender != owner */\n      eq\n        /* \"contracts/test-helpers/OMGLikeToken.sol\":5883:5928  if (msg.sender != owner) {... */\n      tag_106\n      jumpi\n        /* \"contracts/test-helpers/OMGLikeToken.sol\":5916:5921  throw */\n      revert(0x0, 0x0)\n        /* \"contracts/test-helpers/OMGLikeToken.sol\":5883:5928  if (msg.sender != owner) {... */\n    tag_106:\n        /* \"contracts/test-helpers/OMGLikeToken.sol\":7398:7413  mintingFinished */\n      0x3\n        /* \"contracts/test-helpers/OMGLikeToken.sol\":7398:7420  mintingFinished = true */\n      dup1\n      sload\n      0xffffffffffffffffffff00ffffffffffffffffffffffffffffffffffffffffff\n      and\n      0x1000000000000000000000000000000000000000000\n      or\n      swap1\n      sstore\n        /* \"contracts/test-helpers/OMGLikeToken.sol\":7426:7440  MintFinished() */\n      mload(0x40)\n      0xae5184fba832cb2b1f702aca6117b8d265eaf03ad33eb133f19dde0f5920fa08\n      swap1\n        /* \"contracts/test-helpers/OMGLikeToken.sol\":7398:7420  mintingFinished = true */\n      0x0\n      swap1\n        /* \"contracts/test-helpers/OMGLikeToken.sol\":7426:7440  MintFinished() */\n      log1\n      pop\n        /* \"contracts/test-helpers/OMGLikeToken.sol\":7453:7457  true */\n      0x1\n        /* \"contracts/test-helpers/OMGLikeToken.sol\":5933:5934  _ */\n    tag_107:\n        /* \"contracts/test-helpers/OMGLikeToken.sol\":7342:7462  function finishMinting() onlyOwner returns (bool) {... */\n    tag_105:\n      swap1\n      jump\t// out\n        /* \"contracts/test-helpers/OMGLikeToken.sol\":8047:8157  function pause() onlyOwner whenNotPaused returns (bool) {... */\n    tag_58:\n        /* \"contracts/test-helpers/OMGLikeToken.sol\":5901:5906  owner */\n      sload(0x3)\n        /* \"contracts/test-helpers/OMGLikeToken.sol\":8097:8101  bool */\n      0x0\n      swap1\n        /* \"contracts/test-helpers/OMGLikeToken.sol\":5887:5897  msg.sender */\n      caller\n        /* \"contracts/test-helpers/OMGLikeToken.sol\":5901:5906  owner */\n      0xffffffffffffffffffffffffffffffffffffffff\n        /* \"contracts/test-helpers/OMGLikeToken.sol\":5887:5906  msg.sender != owner */\n      swap1\n      dup2\n      and\n        /* \"contracts/test-helpers/OMGLikeToken.sol\":5901:5906  owner */\n      swap2\n      and\n        /* \"contracts/test-helpers/OMGLikeToken.sol\":5887:5906  msg.sender != owner */\n      eq\n        /* \"contracts/test-helpers/OMGLikeToken.sol\":5883:5928  if (msg.sender != owner) {... */\n      tag_109\n      jumpi\n        /* \"contracts/test-helpers/OMGLikeToken.sol\":5916:5921  throw */\n      revert(0x0, 0x0)\n        /* \"contracts/test-helpers/OMGLikeToken.sol\":5883:5928  if (msg.sender != owner) {... */\n    tag_109:\n        /* \"contracts/test-helpers/OMGLikeToken.sol\":7798:7804  paused */\n      sload(0x3)\n      0x10000000000000000000000000000000000000000\n      swap1\n      div\n      0xff\n      and\n        /* \"contracts/test-helpers/OMGLikeToken.sol\":7794:7811  if (paused) throw */\n      iszero\n      tag_111\n      jumpi\n        /* \"contracts/test-helpers/OMGLikeToken.sol\":7806:7811  throw */\n      revert(0x0, 0x0)\n        /* \"contracts/test-helpers/OMGLikeToken.sol\":7794:7811  if (paused) throw */\n    tag_111:\n        /* \"contracts/test-helpers/OMGLikeToken.sol\":8109:8115  paused */\n      0x3\n        /* \"contracts/test-helpers/OMGLikeToken.sol\":8109:8122  paused = true */\n      dup1\n      sload\n      0xffffffffffffffffffffff00ffffffffffffffffffffffffffffffffffffffff\n      and\n      0x10000000000000000000000000000000000000000\n      or\n      swap1\n      sstore\n        /* \"contracts/test-helpers/OMGLikeToken.sol\":8128:8135  Pause() */\n      mload(0x40)\n      0x6985a02210a168e66602d3235cb6db0e70f92b3ba4d376a33c0f3d9434bff625\n      swap1\n        /* \"contracts/test-helpers/OMGLikeToken.sol\":8109:8122  paused = true */\n      0x0\n      swap1\n        /* \"contracts/test-helpers/OMGLikeToken.sol\":8128:8135  Pause() */\n      log1\n      pop\n        /* \"contracts/test-helpers/OMGLikeToken.sol\":8148:8152  true */\n      0x1\n        /* \"contracts/test-helpers/OMGLikeToken.sol\":7817:7818  _ */\n    tag_112:\n        /* \"contracts/test-helpers/OMGLikeToken.sol\":5933:5934  _ */\n    tag_110:\n        /* \"contracts/test-helpers/OMGLikeToken.sol\":8047:8157  function pause() onlyOwner whenNotPaused returns (bool) {... */\n    tag_108:\n      swap1\n      jump\t// out\n        /* \"contracts/test-helpers/OMGLikeToken.sol\":5585:5605  address public owner */\n    tag_61:\n      and(0xffffffffffffffffffffffffffffffffffffffff, sload(0x3))\n      dup2\n      jump\t// out\n        /* \"contracts/test-helpers/OMGLikeToken.sol\":9794:9822  string public symbol = \"OMG\" */\n    tag_64:\n      0x6\n      dup1\n      sload\n      0x40\n      dup1\n      mload\n      0x20\n      0x2\n      0x1\n      dup6\n      and\n      iszero\n      0x100\n      mul\n      0xffffffffffffffffffffffffffffffffffffffffffffffffffffffffffffffff\n      add\n      swap1\n      swap5\n      and\n      swap4\n      swap1\n      swap4\n      div\n      0x1f\n      dup2\n      add\n      dup5\n      swap1\n      div\n      dup5\n      mul\n      dup3\n      add\n      dup5\n      add\n      swap1\n      swap3\n      mstore\n      dup2\n      dup2\n      mstore\n      swap3\n      swap2\n      dup4\n      add\n      dup3\n      dup3\n      dup1\n      iszero\n      tag_80\n      jumpi\n      dup1\n      0x1f\n      lt\n      tag_81\n      jumpi\n      0x100\n      dup1\n      dup4\n      sload\n      div\n      mul\n      dup4\n      mstore\n      swap2\n      0x20\n      add\n      swap2\n      jump(tag_80)\n    tag_114:\n      dup3\n      add\n      swap2\n      swap1\n      0x0\n      mstore\n      sha3(0x0, 0x20)\n      swap1\n    tag_115:\n      dup2\n      sload\n      dup2\n      mstore\n      swap1\n      0x1\n      add\n      swap1\n      0x20\n      add\n      dup1\n      dup4\n      gt\n      tag_82\n      jumpi\n      dup3\n      swap1\n      sub\n      0x1f\n      and\n      dup3\n      add\n      swap2\n    tag_113:\n      pop\n      pop\n      pop\n      pop\n      pop\n      dup2\n      jump\t// out\n        /* \"contracts/test-helpers/OMGLikeToken.sol\":8502:8598  function transfer(address _to, uint _value) whenNotPaused {... */\n    tag_70:\n        /* \"contracts/test-helpers/OMGLikeToken.sol\":7798:7804  paused */\n      sload(0x3)\n      0x10000000000000000000000000000000000000000\n      swap1\n      div\n      0xff\n      and\n        /* \"contracts/test-helpers/OMGLikeToken.sol\":7794:7811  if (paused) throw */\n      iszero\n      tag_117\n      jumpi\n        /* \"contracts/test-helpers/OMGLikeToken.sol\":7806:7811  throw */\n      revert(0x0, 0x0)\n        /* \"contracts/test-helpers/OMGLikeToken.sol\":7794:7811  if (paused) throw */\n    tag_117:\n        /* \"contracts/test-helpers/OMGLikeToken.sol\":8566:8593  super.transfer(_to, _value) */\n      tag_83\n        /* \"contracts/test-helpers/OMGLikeToken.sol\":8581:8584  _to */\n      dup3\n        /* \"contracts/test-helpers/OMGLikeToken.sol\":8586:8592  _value */\n      dup3\n        /* \"contracts/test-helpers/OMGLikeToken.sol\":8566:8580  super.transfer */\n      tag_120\n        /* \"contracts/test-helpers/OMGLikeToken.sol\":8566:8593  super.transfer(_to, _value) */\n      jump\t// in\n    tag_119:\n        /* \"contracts/test-helpers/OMGLikeToken.sol\":7817:7818  _ */\n    tag_118:\n        /* \"contracts/test-helpers/OMGLikeToken.sol\":8502:8598  function transfer(address _to, uint _value) whenNotPaused {... */\n    tag_116:\n      pop\n      pop\n      jump\t// out\n        /* \"contracts/test-helpers/OMGLikeToken.sol\":9901:10153  function mintTimelocked(address _to, uint256 _amount, uint256 _releaseTime)... */\n    tag_73:\n        /* \"contracts/test-helpers/OMGLikeToken.sol\":5901:5906  owner */\n      sload(0x3)\n        /* \"contracts/test-helpers/OMGLikeToken.sol\":10008:10021  TokenTimelock */\n      0x0\n      swap1\n      dup2\n      swap1\n        /* \"contracts/test-helpers/OMGLikeToken.sol\":5887:5897  msg.sender */\n      caller\n        /* \"contracts/test-helpers/OMGLikeToken.sol\":5901:5906  owner */\n      0xffffffffffffffffffffffffffffffffffffffff\n        /* \"contracts/test-helpers/OMGLikeToken.sol\":5887:5906  msg.sender != owner */\n      swap1\n      dup2\n      and\n        /* \"contracts/test-helpers/OMGLikeToken.sol\":5901:5906  owner */\n      swap2\n      and\n        /* \"contracts/test-helpers/OMGLikeToken.sol\":5887:5906  msg.sender != owner */\n      eq\n        /* \"contracts/test-helpers/OMGLikeToken.sol\":5883:5928  if (msg.sender != owner) {... */\n      tag_122\n      jumpi\n        /* \"contracts/test-helpers/OMGLikeToken.sol\":5916:5921  throw */\n      revert(0x0, 0x0)\n        /* \"contracts/test-helpers/OMGLikeToken.sol\":5883:5928  if (msg.sender != owner) {... */\n    tag_122:\n        /* \"contracts/test-helpers/OMGLikeToken.sol\":6746:6761  mintingFinished */\n      sload(0x3)\n      0x1000000000000000000000000000000000000000000\n      swap1\n      div\n      0xff\n      and\n        /* \"contracts/test-helpers/OMGLikeToken.sol\":6743:6768  if(mintingFinished) throw */\n      iszero\n      tag_124\n      jumpi\n        /* \"contracts/test-helpers/OMGLikeToken.sol\":6763:6768  throw */\n      revert(0x0, 0x0)\n        /* \"contracts/test-helpers/OMGLikeToken.sol\":6743:6768  if(mintingFinished) throw */\n    tag_124:\n        /* \"contracts/test-helpers/OMGLikeToken.sol\":10073:10077  this */\n      address\n        /* \"contracts/test-helpers/OMGLikeToken.sol\":10079:10082  _to */\n      dup6\n        /* \"contracts/test-helpers/OMGLikeToken.sol\":10084:10096  _releaseTime */\n      dup5\n        /* \"contracts/test-helpers/OMGLikeToken.sol\":10055:10097  new TokenTimelock(this, _to, _releaseTime) */\n      tag_126\n      jump\t// in(tag_127)\n    tag_126:\n      0xffffffffffffffffffffffffffffffffffffffff\n      swap4\n      dup5\n      and\n      dup2\n      mstore\n      swap2\n      swap1\n      swap3\n      and\n      0x20\n      dup3\n      add\n      mstore\n      0x40\n      dup1\n      dup3\n      add\n      swap3\n      swap1\n      swap3\n      mstore\n      swap1\n      mload\n      swap1\n      dup2\n      swap1\n      sub\n      0x60\n      add\n      swap1\n      0x0\n      create\n      dup1\n      iszero\n      iszero\n      tag_128\n      jumpi\n      invalid\n    tag_128:\n        /* \"contracts/test-helpers/OMGLikeToken.sol\":10030:10097  TokenTimelock timelock = new TokenTimelock(this, _to, _releaseTime) */\n      swap1\n      pop\n        /* \"contracts/test-helpers/OMGLikeToken.sol\":10103:10126  mint(timelock, _amount) */\n      tag_129\n        /* \"contracts/test-helpers/OMGLikeToken.sol\":10108:10116  timelock */\n      dup2\n        /* \"contracts/test-helpers/OMGLikeToken.sol\":10118:10125  _amount */\n      dup6\n        /* \"contracts/test-helpers/OMGLikeToken.sol\":10103:10107  mint */\n      tag_46\n        /* \"contracts/test-helpers/OMGLikeToken.sol\":10103:10126  mint(timelock, _amount) */\n      jump\t// in\n    tag_129:\n      pop\n        /* \"contracts/test-helpers/OMGLikeToken.sol\":10140:10148  timelock */\n      dup1\n        /* \"contracts/test-helpers/OMGLikeToken.sol\":10133:10148  return timelock */\n      swap2\n      pop\n        /* \"contracts/test-helpers/OMGLikeToken.sol\":6774:6775  _ */\n    tag_125:\n        /* \"contracts/test-helpers/OMGLikeToken.sol\":5933:5934  _ */\n    tag_123:\n        /* \"contracts/test-helpers/OMGLikeToken.sol\":9901:10153  function mintTimelocked(address _to, uint256 _amount, uint256 _releaseTime)... */\n    tag_121:\n      pop\n      swap4\n      swap3\n      pop\n      pop\n      pop\n      jump\t// out\n        /* \"contracts/test-helpers/OMGLikeToken.sol\":5238:5368  function allowance(address _owner, address _spender) constant returns (uint remaining) {... */\n    tag_76:\n        /* \"contracts/test-helpers/OMGLikeToken.sol\":5338:5353  allowed[_owner] */\n      0xffffffffffffffffffffffffffffffffffffffff\n      dup1\n      dup4\n      and\n        /* \"contracts/test-helpers/OMGLikeToken.sol\":5309:5323  uint remaining */\n      0x0\n        /* \"contracts/test-helpers/OMGLikeToken.sol\":5338:5353  allowed[_owner] */\n      swap1\n      dup2\n      mstore\n        /* \"contracts/test-helpers/OMGLikeToken.sol\":5338:5345  allowed */\n      0x2\n        /* \"contracts/test-helpers/OMGLikeToken.sol\":5338:5353  allowed[_owner] */\n      0x20\n      swap1\n      dup2\n      mstore\n      0x40\n      dup1\n      dup4\n      sha3\n        /* \"contracts/test-helpers/OMGLikeToken.sol\":5338:5363  allowed[_owner][_spender] */\n      swap4\n      dup6\n      and\n      dup4\n      mstore\n      swap3\n      swap1\n      mstore\n      sha3\n      sload\n        /* \"contracts/test-helpers/OMGLikeToken.sol\":5238:5368  function allowance(address _owner, address _spender) constant returns (uint remaining) {... */\n    tag_130:\n      swap3\n      swap2\n      pop\n      pop\n      jump\t// out\n        /* \"contracts/test-helpers/OMGLikeToken.sol\":6101:6225  function transferOwnership(address newOwner) onlyOwner {... */\n    tag_79:\n        /* \"contracts/test-helpers/OMGLikeToken.sol\":5901:5906  owner */\n      sload(0x3)\n        /* \"contracts/test-helpers/OMGLikeToken.sol\":5887:5897  msg.sender */\n      caller\n        /* \"contracts/test-helpers/OMGLikeToken.sol\":5901:5906  owner */\n      0xffffffffffffffffffffffffffffffffffffffff\n        /* \"contracts/test-helpers/OMGLikeToken.sol\":5887:5906  msg.sender != owner */\n      swap1\n      dup2\n      and\n        /* \"contracts/test-helpers/OMGLikeToken.sol\":5901:5906  owner */\n      swap2\n      and\n        /* \"contracts/test-helpers/OMGLikeToken.sol\":5887:5906  msg.sender != owner */\n      eq\n        /* \"contracts/test-helpers/OMGLikeToken.sol\":5883:5928  if (msg.sender != owner) {... */\n      tag_132\n      jumpi\n        /* \"contracts/test-helpers/OMGLikeToken.sol\":5916:5921  throw */\n      revert(0x0, 0x0)\n        /* \"contracts/test-helpers/OMGLikeToken.sol\":5883:5928  if (msg.sender != owner) {... */\n    tag_132:\n        /* \"contracts/test-helpers/OMGLikeToken.sol\":6166:6188  newOwner != address(0) */\n      0xffffffffffffffffffffffffffffffffffffffff\n      dup2\n      and\n      iszero\n        /* \"contracts/test-helpers/OMGLikeToken.sol\":6162:6221  if (newOwner != address(0)) {... */\n      tag_134\n      jumpi\n        /* \"contracts/test-helpers/OMGLikeToken.sol\":6198:6203  owner */\n      0x3\n        /* \"contracts/test-helpers/OMGLikeToken.sol\":6198:6214  owner = newOwner */\n      dup1\n      sload\n      0xffffffffffffffffffffffff0000000000000000000000000000000000000000\n      and\n      0xffffffffffffffffffffffffffffffffffffffff\n      dup4\n      and\n      or\n      swap1\n      sstore\n        /* \"contracts/test-helpers/OMGLikeToken.sol\":6162:6221  if (newOwner != address(0)) {... */\n    tag_134:\n        /* \"contracts/test-helpers/OMGLikeToken.sol\":5933:5934  _ */\n    tag_133:\n        /* \"contracts/test-helpers/OMGLikeToken.sol\":6101:6225  function transferOwnership(address newOwner) onlyOwner {... */\n    tag_131:\n      pop\n      jump\t// out\n        /* \"contracts/test-helpers/OMGLikeToken.sol\":3715:4193  function transferFrom(address _from, address _to, uint _value) onlyPayloadSize(3 * 32) {... */\n    tag_90:\n        /* \"contracts/test-helpers/OMGLikeToken.sol\":3808:3822  var _allowance */\n      0x0\n        /* \"contracts/test-helpers/OMGLikeToken.sol\":3794:3800  3 * 32 */\n      0x60\n        /* \"contracts/test-helpers/OMGLikeToken.sol\":1957:1965  size + 4 */\n      0x64\n        /* \"contracts/test-helpers/OMGLikeToken.sol\":1939:1947  msg.data */\n      calldatasize\n        /* \"contracts/test-helpers/OMGLikeToken.sol\":1939:1965  msg.data.length < size + 4 */\n      lt\n        /* \"contracts/test-helpers/OMGLikeToken.sol\":1936:1989  if(msg.data.length < size + 4) {... */\n      iszero\n      tag_136\n      jumpi\n        /* \"contracts/test-helpers/OMGLikeToken.sol\":1976:1981  throw */\n      revert(0x0, 0x0)\n        /* \"contracts/test-helpers/OMGLikeToken.sol\":1936:1989  if(msg.data.length < size + 4) {... */\n    tag_136:\n        /* \"contracts/test-helpers/OMGLikeToken.sol\":3825:3839  allowed[_from] */\n      0xffffffffffffffffffffffffffffffffffffffff\n      dup1\n      dup7\n      and\n      0x0\n      swap1\n      dup2\n      mstore\n        /* \"contracts/test-helpers/OMGLikeToken.sol\":3825:3832  allowed */\n      0x2\n        /* \"contracts/test-helpers/OMGLikeToken.sol\":3825:3839  allowed[_from] */\n      0x20\n      swap1\n      dup2\n      mstore\n      0x40\n      dup1\n      dup4\n      sha3\n        /* \"contracts/test-helpers/OMGLikeToken.sol\":3840:3850  msg.sender */\n      caller\n        /* \"contracts/test-helpers/OMGLikeToken.sol\":3825:3851  allowed[_from][msg.sender] */\n      dup6\n      and\n      dup5\n      mstore\n      dup3\n      mstore\n      dup1\n      dup4\n      sha3\n      sload\n        /* \"contracts/test-helpers/OMGLikeToken.sol\":4021:4034  balances[_to] */\n      swap4\n      dup9\n      and\n      dup4\n      mstore\n        /* \"contracts/test-helpers/OMGLikeToken.sol\":4021:4029  balances */\n      0x1\n        /* \"contracts/test-helpers/OMGLikeToken.sol\":4021:4034  balances[_to] */\n      swap1\n      swap2\n      mstore\n      swap1\n      sha3\n      sload\n        /* \"contracts/test-helpers/OMGLikeToken.sol\":3825:3851  allowed[_from][msg.sender] */\n      swap1\n      swap3\n      pop\n        /* \"contracts/test-helpers/OMGLikeToken.sol\":4021:4046  balances[_to].add(_value) */\n      tag_138\n      swap1\n        /* \"contracts/test-helpers/OMGLikeToken.sol\":4039:4045  _value */\n      dup5\n        /* \"contracts/test-helpers/OMGLikeToken.sol\":4021:4046  balances[_to].add(_value) */\n      0xffffffff\n        /* \"contracts/test-helpers/OMGLikeToken.sol\":4021:4038  balances[_to].add */\n      tag_102\n        /* \"contracts/test-helpers/OMGLikeToken.sol\":4021:4046  balances[_to].add(_value) */\n      and\n      jump\t// in\n    tag_138:\n        /* \"contracts/test-helpers/OMGLikeToken.sol\":4005:4018  balances[_to] */\n      0xffffffffffffffffffffffffffffffffffffffff\n      dup1\n      dup7\n      and\n      0x0\n      swap1\n      dup2\n      mstore\n        /* \"contracts/test-helpers/OMGLikeToken.sol\":4005:4013  balances */\n      0x1\n        /* \"contracts/test-helpers/OMGLikeToken.sol\":4005:4018  balances[_to] */\n      0x20\n      mstore\n      0x40\n      dup1\n      dup3\n      sha3\n        /* \"contracts/test-helpers/OMGLikeToken.sol\":4005:4046  balances[_to] = balances[_to].add(_value) */\n      swap4\n      swap1\n      swap4\n      sstore\n        /* \"contracts/test-helpers/OMGLikeToken.sol\":4070:4085  balances[_from] */\n      swap1\n      dup8\n      and\n      dup2\n      mstore\n      sha3\n      sload\n        /* \"contracts/test-helpers/OMGLikeToken.sol\":4070:4097  balances[_from].sub(_value) */\n      tag_139\n      swap1\n        /* \"contracts/test-helpers/OMGLikeToken.sol\":4090:4096  _value */\n      dup5\n        /* \"contracts/test-helpers/OMGLikeToken.sol\":4070:4097  balances[_from].sub(_value) */\n      0xffffffff\n        /* \"contracts/test-helpers/OMGLikeToken.sol\":4070:4089  balances[_from].sub */\n      tag_140\n        /* \"contracts/test-helpers/OMGLikeToken.sol\":4070:4097  balances[_from].sub(_value) */\n      and\n      jump\t// in\n    tag_139:\n        /* \"contracts/test-helpers/OMGLikeToken.sol\":4052:4067  balances[_from] */\n      0xffffffffffffffffffffffffffffffffffffffff\n      dup7\n      and\n      0x0\n      swap1\n      dup2\n      mstore\n        /* \"contracts/test-helpers/OMGLikeToken.sol\":4052:4060  balances */\n      0x1\n        /* \"contracts/test-helpers/OMGLikeToken.sol\":4052:4067  balances[_from] */\n      0x20\n      mstore\n      0x40\n      swap1\n      sha3\n        /* \"contracts/test-helpers/OMGLikeToken.sol\":4052:4097  balances[_from] = balances[_from].sub(_value) */\n      sstore\n        /* \"contracts/test-helpers/OMGLikeToken.sol\":4132:4154  _allowance.sub(_value) */\n      tag_141\n        /* \"contracts/test-helpers/OMGLikeToken.sol\":4132:4142  _allowance */\n      dup3\n        /* \"contracts/test-helpers/OMGLikeToken.sol\":4147:4153  _value */\n      dup5\n        /* \"contracts/test-helpers/OMGLikeToken.sol\":4132:4154  _allowance.sub(_value) */\n      0xffffffff\n        /* \"contracts/test-helpers/OMGLikeToken.sol\":4132:4146  _allowance.sub */\n      tag_140\n        /* \"contracts/test-helpers/OMGLikeToken.sol\":4132:4154  _allowance.sub(_value) */\n      and\n      jump\t// in\n    tag_141:\n        /* \"contracts/test-helpers/OMGLikeToken.sol\":4103:4117  allowed[_from] */\n      0xffffffffffffffffffffffffffffffffffffffff\n      dup1\n      dup8\n      and\n      0x0\n      dup2\n      dup2\n      mstore\n        /* \"contracts/test-helpers/OMGLikeToken.sol\":4103:4110  allowed */\n      0x2\n        /* \"contracts/test-helpers/OMGLikeToken.sol\":4103:4117  allowed[_from] */\n      0x20\n      swap1\n      dup2\n      mstore\n      0x40\n      dup1\n      dup4\n      sha3\n        /* \"contracts/test-helpers/OMGLikeToken.sol\":4118:4128  msg.sender */\n      caller\n        /* \"contracts/test-helpers/OMGLikeToken.sol\":4103:4129  allowed[_from][msg.sender] */\n      dup7\n      and\n      dup5\n      mstore\n      dup3\n      mstore\n      swap2\n      dup3\n      swap1\n      sha3\n        /* \"contracts/test-helpers/OMGLikeToken.sol\":4103:4154  allowed[_from][msg.sender] = _allowance.sub(_value) */\n      swap5\n      swap1\n      swap5\n      sstore\n        /* \"contracts/test-helpers/OMGLikeToken.sol\":4160:4188  Transfer(_from, _to, _value) */\n      dup1\n      mload\n      dup8\n      dup2\n      mstore\n      swap1\n      mload\n      swap3\n      dup9\n      and\n      swap4\n        /* \"contracts/test-helpers/OMGLikeToken.sol\":4103:4117  allowed[_from] */\n      swap2\n      swap3\n        /* \"contracts/test-helpers/OMGLikeToken.sol\":4160:4188  Transfer(_from, _to, _value) */\n      0xddf252ad1be2c89b69c2b068fc378daa952ba7f163c4a11628f55a4df523b3ef\n      swap3\n      swap2\n      dup2\n      swap1\n      sub\n      swap1\n      swap2\n      add\n      swap1\n      log3\n        /* \"contracts/test-helpers/OMGLikeToken.sol\":1995:1996  _ */\n    tag_137:\n        /* \"contracts/test-helpers/OMGLikeToken.sol\":3715:4193  function transferFrom(address _from, address _to, uint _value) onlyPayloadSize(3 * 32) {... */\n    tag_135:\n      pop\n      pop\n      pop\n      pop\n      pop\n      jump\t// out\n        /* \"contracts/test-helpers/OMGLikeToken.sol\":643:755  function add(uint a, uint b) internal returns (uint) {... */\n    tag_102:\n        /* \"contracts/test-helpers/OMGLikeToken.sol\":690:694  uint */\n      0x0\n        /* \"contracts/test-helpers/OMGLikeToken.sol\":711:716  a + b */\n      dup3\n      dup3\n      add\n        /* \"contracts/test-helpers/OMGLikeToken.sol\":722:736  assert(c >= a) */\n      tag_143\n        /* \"contracts/test-helpers/OMGLikeToken.sol\":729:735  c >= a */\n      dup5\n      dup3\n      lt\n      iszero\n        /* \"contracts/test-helpers/OMGLikeToken.sol\":722:728  assert */\n      tag_144\n        /* \"contracts/test-helpers/OMGLikeToken.sol\":722:736  assert(c >= a) */\n      jump\t// in\n    tag_143:\n        /* \"contracts/test-helpers/OMGLikeToken.sol\":749:750  c */\n      dup1\n        /* \"contracts/test-helpers/OMGLikeToken.sol\":742:750  return c */\n      swap2\n      pop\n        /* \"contracts/test-helpers/OMGLikeToken.sol\":643:755  function add(uint a, uint b) internal returns (uint) {... */\n    tag_142:\n      pop\n      swap3\n      swap2\n      pop\n      pop\n      jump\t// out\n        /* \"contracts/test-helpers/OMGLikeToken.sol\":2155:2375  function transfer(address _to, uint _value) onlyPayloadSize(2 * 32) {... */\n    tag_120:\n        /* \"contracts/test-helpers/OMGLikeToken.sol\":2215:2221  2 * 32 */\n      0x40\n        /* \"contracts/test-helpers/OMGLikeToken.sol\":1957:1965  size + 4 */\n      0x44\n        /* \"contracts/test-helpers/OMGLikeToken.sol\":1939:1947  msg.data */\n      calldatasize\n        /* \"contracts/test-helpers/OMGLikeToken.sol\":1939:1965  msg.data.length < size + 4 */\n      lt\n        /* \"contracts/test-helpers/OMGLikeToken.sol\":1936:1989  if(msg.data.length < size + 4) {... */\n      iszero\n      tag_146\n      jumpi\n        /* \"contracts/test-helpers/OMGLikeToken.sol\":1976:1981  throw */\n      revert(0x0, 0x0)\n        /* \"contracts/test-helpers/OMGLikeToken.sol\":1936:1989  if(msg.data.length < size + 4) {... */\n    tag_146:\n        /* \"contracts/test-helpers/OMGLikeToken.sol\":2252:2272  balances[msg.sender] */\n      0xffffffffffffffffffffffffffffffffffffffff\n        /* \"contracts/test-helpers/OMGLikeToken.sol\":2261:2271  msg.sender */\n      caller\n        /* \"contracts/test-helpers/OMGLikeToken.sol\":2252:2272  balances[msg.sender] */\n      and\n      0x0\n      swap1\n      dup2\n      mstore\n        /* \"contracts/test-helpers/OMGLikeToken.sol\":2252:2260  balances */\n      0x1\n        /* \"contracts/test-helpers/OMGLikeToken.sol\":2252:2272  balances[msg.sender] */\n      0x20\n      mstore\n      0x40\n      swap1\n      sha3\n      sload\n        /* \"contracts/test-helpers/OMGLikeToken.sol\":2252:2284  balances[msg.sender].sub(_value) */\n      tag_148\n      swap1\n        /* \"contracts/test-helpers/OMGLikeToken.sol\":2277:2283  _value */\n      dup4\n        /* \"contracts/test-helpers/OMGLikeToken.sol\":2252:2284  balances[msg.sender].sub(_value) */\n      0xffffffff\n        /* \"contracts/test-helpers/OMGLikeToken.sol\":2252:2276  balances[msg.sender].sub */\n      tag_140\n        /* \"contracts/test-helpers/OMGLikeToken.sol\":2252:2284  balances[msg.sender].sub(_value) */\n      and\n      jump\t// in\n    tag_148:\n        /* \"contracts/test-helpers/OMGLikeToken.sol\":2229:2249  balances[msg.sender] */\n      0xffffffffffffffffffffffffffffffffffffffff\n        /* \"contracts/test-helpers/OMGLikeToken.sol\":2238:2248  msg.sender */\n      caller\n        /* \"contracts/test-helpers/OMGLikeToken.sol\":2229:2249  balances[msg.sender] */\n      dup2\n      and\n      0x0\n      swap1\n      dup2\n      mstore\n        /* \"contracts/test-helpers/OMGLikeToken.sol\":2229:2237  balances */\n      0x1\n        /* \"contracts/test-helpers/OMGLikeToken.sol\":2229:2249  balances[msg.sender] */\n      0x20\n      mstore\n      0x40\n      dup1\n      dup3\n      sha3\n        /* \"contracts/test-helpers/OMGLikeToken.sol\":2229:2284  balances[msg.sender] = balances[msg.sender].sub(_value) */\n      swap4\n      swap1\n      swap4\n      sstore\n        /* \"contracts/test-helpers/OMGLikeToken.sol\":2306:2319  balances[_to] */\n      swap1\n      dup6\n      and\n      dup2\n      mstore\n      sha3\n      sload\n        /* \"contracts/test-helpers/OMGLikeToken.sol\":2306:2331  balances[_to].add(_value) */\n      tag_149\n      swap1\n        /* \"contracts/test-helpers/OMGLikeToken.sol\":2324:2330  _value */\n      dup4\n        /* \"contracts/test-helpers/OMGLikeToken.sol\":2306:2331  balances[_to].add(_value) */\n      0xffffffff\n        /* \"contracts/test-helpers/OMGLikeToken.sol\":2306:2323  balances[_to].add */\n      tag_102\n        /* \"contracts/test-helpers/OMGLikeToken.sol\":2306:2331  balances[_to].add(_value) */\n      and\n      jump\t// in\n    tag_149:\n        /* \"contracts/test-helpers/OMGLikeToken.sol\":2290:2303  balances[_to] */\n      0xffffffffffffffffffffffffffffffffffffffff\n      dup1\n      dup6\n      and\n      0x0\n      dup2\n      dup2\n      mstore\n        /* \"contracts/test-helpers/OMGLikeToken.sol\":2290:2298  balances */\n      0x1\n        /* \"contracts/test-helpers/OMGLikeToken.sol\":2290:2303  balances[_to] */\n      0x20\n      swap1\n      dup2\n      mstore\n      0x40\n      swap2\n      dup3\n      swap1\n      sha3\n        /* \"contracts/test-helpers/OMGLikeToken.sol\":2290:2331  balances[_to] = balances[_to].add(_value) */\n      swap5\n      swap1\n      swap5\n      sstore\n        /* \"contracts/test-helpers/OMGLikeToken.sol\":2337:2370  Transfer(msg.sender, _to, _value) */\n      dup1\n      mload\n      dup7\n      dup2\n      mstore\n      swap1\n      mload\n        /* \"contracts/test-helpers/OMGLikeToken.sol\":2290:2303  balances[_to] */\n      swap2\n      swap4\n        /* \"contracts/test-helpers/OMGLikeToken.sol\":2346:2356  msg.sender */\n      caller\n        /* \"contracts/test-helpers/OMGLikeToken.sol\":2337:2370  Transfer(msg.sender, _to, _value) */\n      swap1\n      swap4\n      and\n      swap3\n      0xddf252ad1be2c89b69c2b068fc378daa952ba7f163c4a11628f55a4df523b3ef\n      swap3\n      swap2\n      dup3\n      swap1\n      sub\n      add\n      swap1\n      log3\n        /* \"contracts/test-helpers/OMGLikeToken.sol\":1995:1996  _ */\n    tag_147:\n        /* \"contracts/test-helpers/OMGLikeToken.sol\":2155:2375  function transfer(address _to, uint _value) onlyPayloadSize(2 * 32) {... */\n    tag_145:\n      pop\n      pop\n      pop\n      jump\t// out\n        /* \"contracts/test-helpers/OMGLikeToken.sol\":543:639  function sub(uint a, uint b) internal returns (uint) {... */\n    tag_140:\n        /* \"contracts/test-helpers/OMGLikeToken.sol\":590:594  uint */\n      0x0\n        /* \"contracts/test-helpers/OMGLikeToken.sol\":602:616  assert(b <= a) */\n      tag_151\n        /* \"contracts/test-helpers/OMGLikeToken.sol\":614:615  a */\n      dup4\n        /* \"contracts/test-helpers/OMGLikeToken.sol\":609:610  b */\n      dup4\n        /* \"contracts/test-helpers/OMGLikeToken.sol\":609:615  b <= a */\n      gt\n      iszero\n        /* \"contracts/test-helpers/OMGLikeToken.sol\":602:608  assert */\n      tag_144\n        /* \"contracts/test-helpers/OMGLikeToken.sol\":602:616  assert(b <= a) */\n      jump\t// in\n    tag_151:\n      pop\n        /* \"contracts/test-helpers/OMGLikeToken.sol\":629:634  a - b */\n      dup1\n      dup3\n      sub\n        /* \"contracts/test-helpers/OMGLikeToken.sol\":543:639  function sub(uint a, uint b) internal returns (uint) {... */\n    tag_150:\n      swap3\n      swap2\n      pop\n      pop\n      jump\t// out\n        /* \"contracts/test-helpers/OMGLikeToken.sol\":1189:1276  function assert(bool assertion) internal {... */\n    tag_144:\n        /* \"contracts/test-helpers/OMGLikeToken.sol\":1241:1250  assertion */\n      dup1\n        /* \"contracts/test-helpers/OMGLikeToken.sol\":1240:1250  !assertion */\n      iszero\n        /* \"contracts/test-helpers/OMGLikeToken.sol\":1236:1272  if (!assertion) {... */\n      iszero\n      tag_134\n      jumpi\n        /* \"contracts/test-helpers/OMGLikeToken.sol\":1260:1265  throw */\n      revert(0x0, 0x0)\n        /* \"contracts/test-helpers/OMGLikeToken.sol\":1236:1272  if (!assertion) {... */\n    tag_153:\n        /* \"contracts/test-helpers/OMGLikeToken.sol\":1189:1276  function assert(bool assertion) internal {... */\n    tag_152:\n      pop\n      jump\t// out\n        /* \"contracts/test-helpers/OMGLikeToken.sol\":9670:10156  contract OMGLikeToken is PausableToken, MintableToken {... */\n    tag_127:\n      mload(0x40)\n      dataSize(sub_0)\n      dup1\n      dataOffset(sub_0)\n      dup4\n      codecopy\n      add\n      swap1\n      jump\t// out\n    stop\n\n    sub_0: assembly {\n            /* \"contracts/test-helpers/OMGLikeToken.sol\":8893:9608  contract TokenTimelock {... */\n          mstore(0x40, 0x60)\n            /* \"contracts/test-helpers/OMGLikeToken.sol\":9127:9332  function TokenTimelock(ERC20Basic _token, address _beneficiary, uint _releaseTime) {... */\n          jumpi(tag_1, iszero(callvalue))\n          invalid\n        tag_1:\n          mload(0x40)\n          0x60\n          dup1\n          bytecodeSize\n          dup4\n          codecopy\n          dup2\n          add\n          0x40\n          swap1\n          dup2\n          mstore\n          dup2\n          mload\n          0x20\n          dup4\n          add\n          mload\n          swap2\n          swap1\n          swap3\n          add\n          mload\n        tag_2:\n            /* \"contracts/test-helpers/OMGLikeToken.sol\":9239:9242  now */\n          timestamp\n            /* \"contracts/test-helpers/OMGLikeToken.sol\":9224:9242  _releaseTime > now */\n          dup2\n          gt\n            /* \"contracts/test-helpers/OMGLikeToken.sol\":9216:9243  require(_releaseTime > now) */\n          tag_4\n          jumpi\n          revert(0x0, 0x0)\n        tag_4:\n            /* \"contracts/test-helpers/OMGLikeToken.sol\":9249:9254  token */\n          0x0\n            /* \"contracts/test-helpers/OMGLikeToken.sol\":9249:9263  token = _token */\n          dup1\n          sload\n          0xffffffffffffffffffffffffffffffffffffffff\n          dup6\n          dup2\n          and\n          0xffffffffffffffffffffffff0000000000000000000000000000000000000000\n          swap3\n          dup4\n          and\n          or\n          swap1\n          swap3\n          sstore\n          0x1\n            /* \"contracts/test-helpers/OMGLikeToken.sol\":9269:9295  beneficiary = _beneficiary */\n          dup1\n          sload\n          swap3\n          dup6\n          and\n          swap3\n          swap1\n          swap2\n          and\n          swap2\n          swap1\n          swap2\n          or\n          swap1\n          sstore\n          0x2\n            /* \"contracts/test-helpers/OMGLikeToken.sol\":9301:9327  releaseTime = _releaseTime */\n          dup2\n          swap1\n          sstore\n            /* \"contracts/test-helpers/OMGLikeToken.sol\":9127:9332  function TokenTimelock(ERC20Basic _token, address _beneficiary, uint _releaseTime) {... */\n        tag_3:\n          pop\n          pop\n          pop\n            /* \"contracts/test-helpers/OMGLikeToken.sol\":8893:9608  contract TokenTimelock {... */\n        tag_5:\n          dataSize(sub_0)\n          dup1\n          dataOffset(sub_0)\n          0x0\n          codecopy\n          0x0\n          return\n        stop\n\n        sub_0: assembly {\n                /* \"contracts/test-helpers/OMGLikeToken.sol\":8893:9608  contract TokenTimelock {... */\n              mstore(0x40, 0x60)\n              and(div(calldataload(0x0), 0x100000000000000000000000000000000000000000000000000000000), 0xffffffff)\n              0x4e71d92d\n              dup2\n              eq\n              tag_2\n              jumpi\n            tag_1:\n              invalid\n                /* \"contracts/test-helpers/OMGLikeToken.sol\":9402:9606  function claim() {... */\n            tag_2:\n              jumpi(tag_3, iszero(callvalue))\n              invalid\n            tag_3:\n              tag_4\n              jump(tag_5)\n            tag_4:\n              stop\n            tag_5:\n                /* \"contracts/test-helpers/OMGLikeToken.sol\":9447:9458  beneficiary */\n              sload(0x1)\n                /* \"contracts/test-helpers/OMGLikeToken.sol\":9499:9510  uint amount */\n              0x0\n              swap1\n                /* \"contracts/test-helpers/OMGLikeToken.sol\":9433:9443  msg.sender */\n              caller\n                /* \"contracts/test-helpers/OMGLikeToken.sol\":9447:9458  beneficiary */\n              0xffffffffffffffffffffffffffffffffffffffff\n                /* \"contracts/test-helpers/OMGLikeToken.sol\":9433:9458  msg.sender == beneficiary */\n              swap1\n              dup2\n              and\n                /* \"contracts/test-helpers/OMGLikeToken.sol\":9447:9458  beneficiary */\n              swap2\n              and\n                /* \"contracts/test-helpers/OMGLikeToken.sol\":9433:9458  msg.sender == beneficiary */\n              eq\n                /* \"contracts/test-helpers/OMGLikeToken.sol\":9425:9459  require(msg.sender == beneficiary) */\n              tag_7\n              jumpi\n              revert(0x0, 0x0)\n            tag_7:\n                /* \"contracts/test-helpers/OMGLikeToken.sol\":9480:9491  releaseTime */\n              sload(0x2)\n                /* \"contracts/test-helpers/OMGLikeToken.sol\":9473:9476  now */\n              timestamp\n                /* \"contracts/test-helpers/OMGLikeToken.sol\":9473:9491  now >= releaseTime */\n              lt\n              iszero\n                /* \"contracts/test-helpers/OMGLikeToken.sol\":9465:9492  require(now >= releaseTime) */\n              tag_8\n              jumpi\n              revert(0x0, 0x0)\n            tag_8:\n                /* \"contracts/test-helpers/OMGLikeToken.sol\":9513:9518  token */\n              0x0\n              dup1\n              sload\n                /* \"contracts/test-helpers/OMGLikeToken.sol\":9513:9534  token.balanceOf(this) */\n              0x40\n              dup1\n              mload\n              0x20\n              swap1\n              dup2\n              add\n              dup5\n              swap1\n              mstore\n              dup2\n              mload\n              0x70a0823100000000000000000000000000000000000000000000000000000000\n              dup2\n              mstore\n                /* \"contracts/test-helpers/OMGLikeToken.sol\":9513:9518  token */\n              0xffffffffffffffffffffffffffffffffffffffff\n                /* \"contracts/test-helpers/OMGLikeToken.sol\":9529:9533  this */\n              address\n                /* \"contracts/test-helpers/OMGLikeToken.sol\":9513:9534  token.balanceOf(this) */\n              dup2\n              and\n              0x4\n              dup4\n              add\n              mstore\n              swap3\n              mload\n                /* \"contracts/test-helpers/OMGLikeToken.sol\":9513:9518  token */\n              swap3\n              swap1\n              swap4\n              and\n              swap4\n                /* \"contracts/test-helpers/OMGLikeToken.sol\":9513:9528  token.balanceOf */\n              0x70a08231\n              swap4\n                /* \"contracts/test-helpers/OMGLikeToken.sol\":9513:9534  token.balanceOf(this) */\n              0x24\n              dup1\n              dup3\n              add\n              swap5\n              swap3\n              swap2\n              dup4\n              swap1\n              sub\n              add\n              swap1\n              dup3\n              swap1\n                /* \"contracts/test-helpers/OMGLikeToken.sol\":9513:9518  token */\n              dup8\n                /* \"contracts/test-helpers/OMGLikeToken.sol\":9513:9534  token.balanceOf(this) */\n              dup1\n              extcodesize\n              iszero\n              iszero\n              tag_9\n              jumpi\n              invalid\n            tag_9:\n              sub(gas, 0x2c6)\n              call\n              iszero\n              iszero\n              tag_10\n              jumpi\n              invalid\n            tag_10:\n              pop\n              pop\n              mload(mload(0x40))\n              swap2\n              pop\n              pop\n                /* \"contracts/test-helpers/OMGLikeToken.sol\":9557:9558  0 */\n              0x0\n                /* \"contracts/test-helpers/OMGLikeToken.sol\":9548:9558  amount > 0 */\n              dup2\n              gt\n                /* \"contracts/test-helpers/OMGLikeToken.sol\":9540:9559  require(amount > 0) */\n              tag_11\n              jumpi\n              revert(0x0, 0x0)\n            tag_11:\n                /* \"contracts/test-helpers/OMGLikeToken.sol\":9566:9571  token */\n              0x0\n              dup1\n              sload\n              0x1\n                /* \"contracts/test-helpers/OMGLikeToken.sol\":9581:9592  beneficiary */\n              sload\n                /* \"contracts/test-helpers/OMGLikeToken.sol\":9566:9601  token.transfer(beneficiary, amount) */\n              0x40\n              dup1\n              mload\n              0xa9059cbb00000000000000000000000000000000000000000000000000000000\n              dup2\n              mstore\n                /* \"contracts/test-helpers/OMGLikeToken.sol\":9566:9571  token */\n              0xffffffffffffffffffffffffffffffffffffffff\n                /* \"contracts/test-helpers/OMGLikeToken.sol\":9581:9592  beneficiary */\n              swap3\n              dup4\n              and\n                /* \"contracts/test-helpers/OMGLikeToken.sol\":9566:9601  token.transfer(beneficiary, amount) */\n              0x4\n              dup3\n              add\n              mstore\n              0x24\n              dup2\n              add\n              dup7\n              swap1\n              mstore\n              swap1\n              mload\n                /* \"contracts/test-helpers/OMGLikeToken.sol\":9566:9571  token */\n              swap2\n              swap1\n              swap3\n              and\n              swap3\n                /* \"contracts/test-helpers/OMGLikeToken.sol\":9566:9580  token.transfer */\n              0xa9059cbb\n              swap3\n                /* \"contracts/test-helpers/OMGLikeToken.sol\":9566:9601  token.transfer(beneficiary, amount) */\n              0x44\n              dup1\n              dup3\n              add\n              swap4\n              swap2\n              dup3\n              swap1\n              sub\n              add\n              dup2\n                /* \"contracts/test-helpers/OMGLikeToken.sol\":9566:9571  token */\n              dup4\n              dup8\n                /* \"contracts/test-helpers/OMGLikeToken.sol\":9566:9601  token.transfer(beneficiary, amount) */\n              dup1\n              extcodesize\n              iszero\n              iszero\n              tag_12\n              jumpi\n              invalid\n            tag_12:\n              sub(gas, 0x2c6)\n              call\n              iszero\n              iszero\n              tag_13\n              jumpi\n              invalid\n            tag_13:\n              pop\n              pop\n              pop\n                /* \"contracts/test-helpers/OMGLikeToken.sol\":9402:9606  function claim() {... */\n            tag_6:\n              pop\n              jump\t// out\n        }\n    }\n}\n",
        "bytecode": {
          "linkReferences": {},
          "object": "6003805460a060020a61ffff0219169055600060045560a0604052600860608190527f4f4d47546f6b656e000000000000000000000000000000000000000000000000608090815261005491600591906100c1565b506040805180820190915260038082527f4f4d4700000000000000000000000000000000000000000000000000000000006020909201918252610099916006916100c1565b5060126007555b60038054600160a060020a03191633600160a060020a03161790555b610161565b828054600181600116156101000203166002900490600052602060002090601f016020900481019282601f1061010257805160ff191683800117855561012f565b8280016001018555821561012f579182015b8281111561012f578251825591602001919060010190610114565b5b5061013c929150610140565b5090565b61015e91905b8082111561013c5760008155600101610146565b5090565b90565b61124780620001716000396000f300606060405236156100f95763ffffffff7c010000000000000000000000000000000000000000000000000000000060003504166305d2035b81146100fb57806306fdde031461011f578063095ea7b3146101cd57806318160ddd146101fb57806323b872dd1461021d578063313ce567146102515780633f4ba83a1461027357806340c10f19146102975780635c975abb146102d757806370a08231146102fb5780637d64bcb4146103365780638456cb591461035a5780638da5cb5b1461037e57806395d89b41146103b7578063a9059cbb14610465578063c14a3b8c14610493578063dd62ed3e146104eb578063f2fde38b1461052c575bfe5b341561010357fe5b61010b610557565b604080519115158252519081900360200190f35b341561012757fe5b61012f610579565b604080516020808252835181830152835191928392908301918501908083838215610193575b805182526020831115610193577fffffffffffffffffffffffffffffffffffffffffffffffffffffffffffffffe09092019160209182019101610155565b505050905090810190601f1680156101bf5780820380516001836020036101000a031916815260200191505b509250505060405180910390f35b34156101d557fe5b6101f973ffffffffffffffffffffffffffffffffffffffff60043516602435610625565b005b341561020357fe5b61020b6106df565b60408051918252519081900360200190f35b341561022557fe5b6101f973ffffffffffffffffffffffffffffffffffffffff600435811690602435166044356106e5565b005b341561025957fe5b61020b610720565b60408051918252519081900360200190f35b341561027b57fe5b61010b610726565b604080519115158252519081900360200190f35b341561029f57fe5b61010b73ffffffffffffffffffffffffffffffffffffffff600435166024356107d6565b604080519115158252519081900360200190f35b34156102df57fe5b61010b6108e3565b604080519115158252519081900360200190f35b341561030357fe5b61020b73ffffffffffffffffffffffffffffffffffffffff60043516610904565b60408051918252519081900360200190f35b341561033e57fe5b61010b610930565b604080519115158252519081900360200190f35b341561036257fe5b61010b6109cd565b604080519115158252519081900360200190f35b341561038657fe5b61038e610a93565b6040805173ffffffffffffffffffffffffffffffffffffffff9092168252519081900360200190f35b34156103bf57fe5b61012f610aaf565b604080516020808252835181830152835191928392908301918501908083838215610193575b805182526020831115610193577fffffffffffffffffffffffffffffffffffffffffffffffffffffffffffffffe09092019160209182019101610155565b505050905090810190601f1680156101bf5780820380516001836020036101000a031916815260200191505b509250505060405180910390f35b341561046d57fe5b6101f973ffffffffffffffffffffffffffffffffffffffff60043516602435610b5b565b005b341561049b57fe5b61038e73ffffffffffffffffffffffffffffffffffffffff60043516602435604435610b94565b6040805173ffffffffffffffffffffffffffffffffffffffff9092168252519081900360200190f35b34156104f357fe5b61020b73ffffffffffffffffffffffffffffffffffffffff60043581169060243516610c54565b60408051918252519081900360200190f35b341561053457fe5b6101f973ffffffffffffffffffffffffffffffffffffffff60043516610c8e565b005b6003547501000000000000000000000000000000000000000000900460ff1681565b6005805460408051602060026001851615610100027fffffffffffffffffffffffffffffffffffffffffffffffffffffffffffffffff0190941693909304601f8101849004840282018401909252818152929183018282801561061d5780601f106105f25761010080835404028352916020019161061d565b820191906000526020600020905b81548152906001019060200180831161060057829003601f168201915b505050505081565b8015801590610665575073ffffffffffffffffffffffffffffffffffffffff33811660009081526002602090815260408083209386168352929052205415155b156106705760006000fd5b73ffffffffffffffffffffffffffffffffffffffff338116600081815260026020908152604080832094871680845294825291829020859055815185815291517f8c5be1e5ebec7d5bd14f71427d1e84f3dd0314c0f7b2291e5b200ac8c7c3b9259281900390910190a35b5050565b60045481565b60035474010000000000000000000000000000000000000000900460ff161561070e5760006000fd5b610719838383610d19565b5b5b505050565b60075481565b6003546000903373ffffffffffffffffffffffffffffffffffffffff9081169116146107525760006000fd5b60035474010000000000000000000000000000000000000000900460ff16151561077c5760006000fd5b600380547fffffffffffffffffffffff00ffffffffffffffffffffffffffffffffffffffff1690556040517f7805862f689e2f13df9f062ff482ad3ad112aca9e0847911ed832e158c525b3390600090a15060015b5b5b90565b6003546000903373ffffffffffffffffffffffffffffffffffffffff9081169116146108025760006000fd5b6003547501000000000000000000000000000000000000000000900460ff161561082c5760006000fd5b60045461083f908363ffffffff610e7116565b60045573ffffffffffffffffffffffffffffffffffffffff8316600090815260016020526040902054610878908363ffffffff610e7116565b73ffffffffffffffffffffffffffffffffffffffff8416600081815260016020908152604091829020939093558051858152905191927f0f6798a560793a54c3bcfe86a93cde1e73087d944c0ea20544137d412139688592918290030190a25060015b5b5b92915050565b60035474010000000000000000000000000000000000000000900460ff1681565b73ffffffffffffffffffffffffffffffffffffffff81166000908152600160205260409020545b919050565b6003546000903373ffffffffffffffffffffffffffffffffffffffff90811691161461095c5760006000fd5b600380547fffffffffffffffffffff00ffffffffffffffffffffffffffffffffffffffffff1675010000000000000000000000000000000000000000001790556040517fae5184fba832cb2b1f702aca6117b8d265eaf03ad33eb133f19dde0f5920fa0890600090a15060015b5b90565b6003546000903373ffffffffffffffffffffffffffffffffffffffff9081169116146109f95760006000fd5b60035474010000000000000000000000000000000000000000900460ff1615610a225760006000fd5b600380547fffffffffffffffffffffff00ffffffffffffffffffffffffffffffffffffffff16740100000000000000000000000000000000000000001790556040517f6985a02210a168e66602d3235cb6db0e70f92b3ba4d376a33c0f3d9434bff62590600090a15060015b5b5b90565b60035473ffffffffffffffffffffffffffffffffffffffff1681565b6006805460408051602060026001851615610100027fffffffffffffffffffffffffffffffffffffffffffffffffffffffffffffffff0190941693909304601f8101849004840282018401909252818152929183018282801561061d5780601f106105f25761010080835404028352916020019161061d565b820191906000526020600020905b81548152906001019060200180831161060057829003601f168201915b505050505081565b60035474010000000000000000000000000000000000000000900460ff1615610b845760006000fd5b6106db8282610e8d565b5b5b5050565b60035460009081903373ffffffffffffffffffffffffffffffffffffffff908116911614610bc25760006000fd5b6003547501000000000000000000000000000000000000000000900460ff1615610bec5760006000fd5b308584610bf7610fac565b73ffffffffffffffffffffffffffffffffffffffff9384168152919092166020820152604080820192909252905190819003606001906000f0801515610c3957fe5b9050610c4581856107d6565b508091505b5b5b509392505050565b73ffffffffffffffffffffffffffffffffffffffff8083166000908152600260209081526040808320938516835292905220545b92915050565b6003543373ffffffffffffffffffffffffffffffffffffffff908116911614610cb75760006000fd5b73ffffffffffffffffffffffffffffffffffffffff811615610d1457600380547fffffffffffffffffffffffff00000000000000000000000000000000000000001673ffffffffffffffffffffffffffffffffffffffff83161790555b5b5b50565b600060606064361015610d2c5760006000fd5b73ffffffffffffffffffffffffffffffffffffffff8086166000908152600260209081526040808320338516845282528083205493881683526001909152902054909250610d80908463ffffffff610e7116565b73ffffffffffffffffffffffffffffffffffffffff8086166000908152600160205260408082209390935590871681522054610dc2908463ffffffff610f8216565b73ffffffffffffffffffffffffffffffffffffffff8616600090815260016020526040902055610df8828463ffffffff610f8216565b73ffffffffffffffffffffffffffffffffffffffff8087166000818152600260209081526040808320338616845282529182902094909455805187815290519288169391927fddf252ad1be2c89b69c2b068fc378daa952ba7f163c4a11628f55a4df523b3ef929181900390910190a35b5b5050505050565b6000828201610e8284821015610f9b565b8091505b5092915050565b60406044361015610e9e5760006000fd5b73ffffffffffffffffffffffffffffffffffffffff3316600090815260016020526040902054610ed4908363ffffffff610f8216565b73ffffffffffffffffffffffffffffffffffffffff3381166000908152600160205260408082209390935590851681522054610f16908363ffffffff610e7116565b73ffffffffffffffffffffffffffffffffffffffff8085166000818152600160209081526040918290209490945580518681529051919333909316927fddf252ad1be2c89b69c2b068fc378daa952ba7f163c4a11628f55a4df523b3ef92918290030190a35b5b505050565b6000610f9083831115610f9b565b508082035b92915050565b801515610d145760006000fd5b5b50565b60405161025f80610fbd8339019056006060604052341561000c57fe5b60405160608061025f8339810160409081528151602083015191909201515b4281116100385760006000fd5b60008054600160a060020a03808616600160a060020a031992831617909255600180549285169290911691909117905560028190555b5050505b6101de806100816000396000f300606060405263ffffffff7c01000000000000000000000000000000000000000000000000000000006000350416634e71d92d811461003a575bfe5b341561004257fe5b61004a61004c565b005b6001546000903373ffffffffffffffffffffffffffffffffffffffff9081169116146100785760006000fd5b6002544210156100885760006000fd5b6000805460408051602090810184905281517f70a0823100000000000000000000000000000000000000000000000000000000815273ffffffffffffffffffffffffffffffffffffffff3081166004830152925192909316936370a082319360248082019492918390030190829087803b151561010157fe5b6102c65a03f1151561010f57fe5b505060405151915050600081116101265760006000fd5b60008054600154604080517fa9059cbb00000000000000000000000000000000000000000000000000000000815273ffffffffffffffffffffffffffffffffffffffff9283166004820152602481018690529051919092169263a9059cbb926044808201939182900301818387803b151561019d57fe5b6102c65a03f115156101ab57fe5b5050505b505600a165627a7a723058204563196eb3829e6e3bca06feeef6c5f3751d33b499dbe1656451fb367e82b0d80029a165627a7a723058201581a7ec04f1e4b2c350e2ef981c5d9af1ea9c1103316b06947daeb7209837d70029",
          "opcodes": "PUSH1 0x3 DUP1 SLOAD PUSH1 0xA0 PUSH1 0x2 EXP PUSH2 0xFFFF MUL NOT AND SWAP1 SSTORE PUSH1 0x0 PUSH1 0x4 SSTORE PUSH1 0xA0 PUSH1 0x40 MSTORE PUSH1 0x8 PUSH1 0x60 DUP2 SWAP1 MSTORE PUSH32 0x4F4D47546F6B656E000000000000000000000000000000000000000000000000 PUSH1 0x80 SWAP1 DUP2 MSTORE PUSH2 0x54 SWAP2 PUSH1 0x5 SWAP2 SWAP1 PUSH2 0xC1 JUMP JUMPDEST POP PUSH1 0x40 DUP1 MLOAD DUP1 DUP3 ADD SWAP1 SWAP2 MSTORE PUSH1 0x3 DUP1 DUP3 MSTORE PUSH32 0x4F4D470000000000000000000000000000000000000000000000000000000000 PUSH1 0x20 SWAP1 SWAP3 ADD SWAP2 DUP3 MSTORE PUSH2 0x99 SWAP2 PUSH1 0x6 SWAP2 PUSH2 0xC1 JUMP JUMPDEST POP PUSH1 0x12 PUSH1 0x7 SSTORE JUMPDEST PUSH1 0x3 DUP1 SLOAD PUSH1 0x1 PUSH1 0xA0 PUSH1 0x2 EXP SUB NOT AND CALLER PUSH1 0x1 PUSH1 0xA0 PUSH1 0x2 EXP SUB AND OR SWAP1 SSTORE JUMPDEST PUSH2 0x161 JUMP JUMPDEST DUP3 DUP1 SLOAD PUSH1 0x1 DUP2 PUSH1 0x1 AND ISZERO PUSH2 0x100 MUL SUB AND PUSH1 0x2 SWAP1 DIV SWAP1 PUSH1 0x0 MSTORE PUSH1 0x20 PUSH1 0x0 SHA3 SWAP1 PUSH1 0x1F ADD PUSH1 0x20 SWAP1 DIV DUP2 ADD SWAP3 DUP3 PUSH1 0x1F LT PUSH2 0x102 JUMPI DUP1 MLOAD PUSH1 0xFF NOT AND DUP4 DUP1 ADD OR DUP6 SSTORE PUSH2 0x12F JUMP JUMPDEST DUP3 DUP1 ADD PUSH1 0x1 ADD DUP6 SSTORE DUP3 ISZERO PUSH2 0x12F JUMPI SWAP2 DUP3 ADD JUMPDEST DUP3 DUP2 GT ISZERO PUSH2 0x12F JUMPI DUP3 MLOAD DUP3 SSTORE SWAP2 PUSH1 0x20 ADD SWAP2 SWAP1 PUSH1 0x1 ADD SWAP1 PUSH2 0x114 JUMP JUMPDEST JUMPDEST POP PUSH2 0x13C SWAP3 SWAP2 POP PUSH2 0x140 JUMP JUMPDEST POP SWAP1 JUMP JUMPDEST PUSH2 0x15E SWAP2 SWAP1 JUMPDEST DUP1 DUP3 GT ISZERO PUSH2 0x13C JUMPI PUSH1 0x0 DUP2 SSTORE PUSH1 0x1 ADD PUSH2 0x146 JUMP JUMPDEST POP SWAP1 JUMP JUMPDEST SWAP1 JUMP JUMPDEST PUSH2 0x1247 DUP1 PUSH3 0x171 PUSH1 0x0 CODECOPY PUSH1 0x0 RETURN STOP PUSH1 0x60 PUSH1 0x40 MSTORE CALLDATASIZE ISZERO PUSH2 0xF9 JUMPI PUSH4 0xFFFFFFFF PUSH29 0x100000000000000000000000000000000000000000000000000000000 PUSH1 0x0 CALLDATALOAD DIV AND PUSH4 0x5D2035B DUP2 EQ PUSH2 0xFB JUMPI DUP1 PUSH4 0x6FDDE03 EQ PUSH2 0x11F JUMPI DUP1 PUSH4 0x95EA7B3 EQ PUSH2 0x1CD JUMPI DUP1 PUSH4 0x18160DDD EQ PUSH2 0x1FB JUMPI DUP1 PUSH4 0x23B872DD EQ PUSH2 0x21D JUMPI DUP1 PUSH4 0x313CE567 EQ PUSH2 0x251 JUMPI DUP1 PUSH4 0x3F4BA83A EQ PUSH2 0x273 JUMPI DUP1 PUSH4 0x40C10F19 EQ PUSH2 0x297 JUMPI DUP1 PUSH4 0x5C975ABB EQ PUSH2 0x2D7 JUMPI DUP1 PUSH4 0x70A08231 EQ PUSH2 0x2FB JUMPI DUP1 PUSH4 0x7D64BCB4 EQ PUSH2 0x336 JUMPI DUP1 PUSH4 0x8456CB59 EQ PUSH2 0x35A JUMPI DUP1 PUSH4 0x8DA5CB5B EQ PUSH2 0x37E JUMPI DUP1 PUSH4 0x95D89B41 EQ PUSH2 0x3B7 JUMPI DUP1 PUSH4 0xA9059CBB EQ PUSH2 0x465 JUMPI DUP1 PUSH4 0xC14A3B8C EQ PUSH2 0x493 JUMPI DUP1 PUSH4 0xDD62ED3E EQ PUSH2 0x4EB JUMPI DUP1 PUSH4 0xF2FDE38B EQ PUSH2 0x52C JUMPI JUMPDEST INVALID JUMPDEST CALLVALUE ISZERO PUSH2 0x103 JUMPI INVALID JUMPDEST PUSH2 0x10B PUSH2 0x557 JUMP JUMPDEST PUSH1 0x40 DUP1 MLOAD SWAP2 ISZERO ISZERO DUP3 MSTORE MLOAD SWAP1 DUP2 SWAP1 SUB PUSH1 0x20 ADD SWAP1 RETURN JUMPDEST CALLVALUE ISZERO PUSH2 0x127 JUMPI INVALID JUMPDEST PUSH2 0x12F PUSH2 0x579 JUMP JUMPDEST PUSH1 0x40 DUP1 MLOAD PUSH1 0x20 DUP1 DUP3 MSTORE DUP4 MLOAD DUP2 DUP4 ADD MSTORE DUP4 MLOAD SWAP2 SWAP3 DUP4 SWAP3 SWAP1 DUP4 ADD SWAP2 DUP6 ADD SWAP1 DUP1 DUP4 DUP4 DUP3 ISZERO PUSH2 0x193 JUMPI JUMPDEST DUP1 MLOAD DUP3 MSTORE PUSH1 0x20 DUP4 GT ISZERO PUSH2 0x193 JUMPI PUSH32 0xFFFFFFFFFFFFFFFFFFFFFFFFFFFFFFFFFFFFFFFFFFFFFFFFFFFFFFFFFFFFFFE0 SWAP1 SWAP3 ADD SWAP2 PUSH1 0x20 SWAP2 DUP3 ADD SWAP2 ADD PUSH2 0x155 JUMP JUMPDEST POP POP POP SWAP1 POP SWAP1 DUP2 ADD SWAP1 PUSH1 0x1F AND DUP1 ISZERO PUSH2 0x1BF JUMPI DUP1 DUP3 SUB DUP1 MLOAD PUSH1 0x1 DUP4 PUSH1 0x20 SUB PUSH2 0x100 EXP SUB NOT AND DUP2 MSTORE PUSH1 0x20 ADD SWAP2 POP JUMPDEST POP SWAP3 POP POP POP PUSH1 0x40 MLOAD DUP1 SWAP2 SUB SWAP1 RETURN JUMPDEST CALLVALUE ISZERO PUSH2 0x1D5 JUMPI INVALID JUMPDEST PUSH2 0x1F9 PUSH20 0xFFFFFFFFFFFFFFFFFFFFFFFFFFFFFFFFFFFFFFFF PUSH1 0x4 CALLDATALOAD AND PUSH1 0x24 CALLDATALOAD PUSH2 0x625 JUMP JUMPDEST STOP JUMPDEST CALLVALUE ISZERO PUSH2 0x203 JUMPI INVALID JUMPDEST PUSH2 0x20B PUSH2 0x6DF JUMP JUMPDEST PUSH1 0x40 DUP1 MLOAD SWAP2 DUP3 MSTORE MLOAD SWAP1 DUP2 SWAP1 SUB PUSH1 0x20 ADD SWAP1 RETURN JUMPDEST CALLVALUE ISZERO PUSH2 0x225 JUMPI INVALID JUMPDEST PUSH2 0x1F9 PUSH20 0xFFFFFFFFFFFFFFFFFFFFFFFFFFFFFFFFFFFFFFFF PUSH1 0x4 CALLDATALOAD DUP2 AND SWAP1 PUSH1 0x24 CALLDATALOAD AND PUSH1 0x44 CALLDATALOAD PUSH2 0x6E5 JUMP JUMPDEST STOP JUMPDEST CALLVALUE ISZERO PUSH2 0x259 JUMPI INVALID JUMPDEST PUSH2 0x20B PUSH2 0x720 JUMP JUMPDEST PUSH1 0x40 DUP1 MLOAD SWAP2 DUP3 MSTORE MLOAD SWAP1 DUP2 SWAP1 SUB PUSH1 0x20 ADD SWAP1 RETURN JUMPDEST CALLVALUE ISZERO PUSH2 0x27B JUMPI INVALID JUMPDEST PUSH2 0x10B PUSH2 0x726 JUMP JUMPDEST PUSH1 0x40 DUP1 MLOAD SWAP2 ISZERO ISZERO DUP3 MSTORE MLOAD SWAP1 DUP2 SWAP1 SUB PUSH1 0x20 ADD SWAP1 RETURN JUMPDEST CALLVALUE ISZERO PUSH2 0x29F JUMPI INVALID JUMPDEST PUSH2 0x10B PUSH20 0xFFFFFFFFFFFFFFFFFFFFFFFFFFFFFFFFFFFFFFFF PUSH1 0x4 CALLDATALOAD AND PUSH1 0x24 CALLDATALOAD PUSH2 0x7D6 JUMP JUMPDEST PUSH1 0x40 DUP1 MLOAD SWAP2 ISZERO ISZERO DUP3 MSTORE MLOAD SWAP1 DUP2 SWAP1 SUB PUSH1 0x20 ADD SWAP1 RETURN JUMPDEST CALLVALUE ISZERO PUSH2 0x2DF JUMPI INVALID JUMPDEST PUSH2 0x10B PUSH2 0x8E3 JUMP JUMPDEST PUSH1 0x40 DUP1 MLOAD SWAP2 ISZERO ISZERO DUP3 MSTORE MLOAD SWAP1 DUP2 SWAP1 SUB PUSH1 0x20 ADD SWAP1 RETURN JUMPDEST CALLVALUE ISZERO PUSH2 0x303 JUMPI INVALID JUMPDEST PUSH2 0x20B PUSH20 0xFFFFFFFFFFFFFFFFFFFFFFFFFFFFFFFFFFFFFFFF PUSH1 0x4 CALLDATALOAD AND PUSH2 0x904 JUMP JUMPDEST PUSH1 0x40 DUP1 MLOAD SWAP2 DUP3 MSTORE MLOAD SWAP1 DUP2 SWAP1 SUB PUSH1 0x20 ADD SWAP1 RETURN JUMPDEST CALLVALUE ISZERO PUSH2 0x33E JUMPI INVALID JUMPDEST PUSH2 0x10B PUSH2 0x930 JUMP JUMPDEST PUSH1 0x40 DUP1 MLOAD SWAP2 ISZERO ISZERO DUP3 MSTORE MLOAD SWAP1 DUP2 SWAP1 SUB PUSH1 0x20 ADD SWAP1 RETURN JUMPDEST CALLVALUE ISZERO PUSH2 0x362 JUMPI INVALID JUMPDEST PUSH2 0x10B PUSH2 0x9CD JUMP JUMPDEST PUSH1 0x40 DUP1 MLOAD SWAP2 ISZERO ISZERO DUP3 MSTORE MLOAD SWAP1 DUP2 SWAP1 SUB PUSH1 0x20 ADD SWAP1 RETURN JUMPDEST CALLVALUE ISZERO PUSH2 0x386 JUMPI INVALID JUMPDEST PUSH2 0x38E PUSH2 0xA93 JUMP JUMPDEST PUSH1 0x40 DUP1 MLOAD PUSH20 0xFFFFFFFFFFFFFFFFFFFFFFFFFFFFFFFFFFFFFFFF SWAP1 SWAP3 AND DUP3 MSTORE MLOAD SWAP1 DUP2 SWAP1 SUB PUSH1 0x20 ADD SWAP1 RETURN JUMPDEST CALLVALUE ISZERO PUSH2 0x3BF JUMPI INVALID JUMPDEST PUSH2 0x12F PUSH2 0xAAF JUMP JUMPDEST PUSH1 0x40 DUP1 MLOAD PUSH1 0x20 DUP1 DUP3 MSTORE DUP4 MLOAD DUP2 DUP4 ADD MSTORE DUP4 MLOAD SWAP2 SWAP3 DUP4 SWAP3 SWAP1 DUP4 ADD SWAP2 DUP6 ADD SWAP1 DUP1 DUP4 DUP4 DUP3 ISZERO PUSH2 0x193 JUMPI JUMPDEST DUP1 MLOAD DUP3 MSTORE PUSH1 0x20 DUP4 GT ISZERO PUSH2 0x193 JUMPI PUSH32 0xFFFFFFFFFFFFFFFFFFFFFFFFFFFFFFFFFFFFFFFFFFFFFFFFFFFFFFFFFFFFFFE0 SWAP1 SWAP3 ADD SWAP2 PUSH1 0x20 SWAP2 DUP3 ADD SWAP2 ADD PUSH2 0x155 JUMP JUMPDEST POP POP POP SWAP1 POP SWAP1 DUP2 ADD SWAP1 PUSH1 0x1F AND DUP1 ISZERO PUSH2 0x1BF JUMPI DUP1 DUP3 SUB DUP1 MLOAD PUSH1 0x1 DUP4 PUSH1 0x20 SUB PUSH2 0x100 EXP SUB NOT AND DUP2 MSTORE PUSH1 0x20 ADD SWAP2 POP JUMPDEST POP SWAP3 POP POP POP PUSH1 0x40 MLOAD DUP1 SWAP2 SUB SWAP1 RETURN JUMPDEST CALLVALUE ISZERO PUSH2 0x46D JUMPI INVALID JUMPDEST PUSH2 0x1F9 PUSH20 0xFFFFFFFFFFFFFFFFFFFFFFFFFFFFFFFFFFFFFFFF PUSH1 0x4 CALLDATALOAD AND PUSH1 0x24 CALLDATALOAD PUSH2 0xB5B JUMP JUMPDEST STOP JUMPDEST CALLVALUE ISZERO PUSH2 0x49B JUMPI INVALID JUMPDEST PUSH2 0x38E PUSH20 0xFFFFFFFFFFFFFFFFFFFFFFFFFFFFFFFFFFFFFFFF PUSH1 0x4 CALLDATALOAD AND PUSH1 0x24 CALLDATALOAD PUSH1 0x44 CALLDATALOAD PUSH2 0xB94 JUMP JUMPDEST PUSH1 0x40 DUP1 MLOAD PUSH20 0xFFFFFFFFFFFFFFFFFFFFFFFFFFFFFFFFFFFFFFFF SWAP1 SWAP3 AND DUP3 MSTORE MLOAD SWAP1 DUP2 SWAP1 SUB PUSH1 0x20 ADD SWAP1 RETURN JUMPDEST CALLVALUE ISZERO PUSH2 0x4F3 JUMPI INVALID JUMPDEST PUSH2 0x20B PUSH20 0xFFFFFFFFFFFFFFFFFFFFFFFFFFFFFFFFFFFFFFFF PUSH1 0x4 CALLDATALOAD DUP2 AND SWAP1 PUSH1 0x24 CALLDATALOAD AND PUSH2 0xC54 JUMP JUMPDEST PUSH1 0x40 DUP1 MLOAD SWAP2 DUP3 MSTORE MLOAD SWAP1 DUP2 SWAP1 SUB PUSH1 0x20 ADD SWAP1 RETURN JUMPDEST CALLVALUE ISZERO PUSH2 0x534 JUMPI INVALID JUMPDEST PUSH2 0x1F9 PUSH20 0xFFFFFFFFFFFFFFFFFFFFFFFFFFFFFFFFFFFFFFFF PUSH1 0x4 CALLDATALOAD AND PUSH2 0xC8E JUMP JUMPDEST STOP JUMPDEST PUSH1 0x3 SLOAD PUSH22 0x1000000000000000000000000000000000000000000 SWAP1 DIV PUSH1 0xFF AND DUP2 JUMP JUMPDEST PUSH1 0x5 DUP1 SLOAD PUSH1 0x40 DUP1 MLOAD PUSH1 0x20 PUSH1 0x2 PUSH1 0x1 DUP6 AND ISZERO PUSH2 0x100 MUL PUSH32 0xFFFFFFFFFFFFFFFFFFFFFFFFFFFFFFFFFFFFFFFFFFFFFFFFFFFFFFFFFFFFFFFF ADD SWAP1 SWAP5 AND SWAP4 SWAP1 SWAP4 DIV PUSH1 0x1F DUP2 ADD DUP5 SWAP1 DIV DUP5 MUL DUP3 ADD DUP5 ADD SWAP1 SWAP3 MSTORE DUP2 DUP2 MSTORE SWAP3 SWAP2 DUP4 ADD DUP3 DUP3 DUP1 ISZERO PUSH2 0x61D JUMPI DUP1 PUSH1 0x1F LT PUSH2 0x5F2 JUMPI PUSH2 0x100 DUP1 DUP4 SLOAD DIV MUL DUP4 MSTORE SWAP2 PUSH1 0x20 ADD SWAP2 PUSH2 0x61D JUMP JUMPDEST DUP3 ADD SWAP2 SWAP1 PUSH1 0x0 MSTORE PUSH1 0x20 PUSH1 0x0 SHA3 SWAP1 JUMPDEST DUP2 SLOAD DUP2 MSTORE SWAP1 PUSH1 0x1 ADD SWAP1 PUSH1 0x20 ADD DUP1 DUP4 GT PUSH2 0x600 JUMPI DUP3 SWAP1 SUB PUSH1 0x1F AND DUP3 ADD SWAP2 JUMPDEST POP POP POP POP POP DUP2 JUMP JUMPDEST DUP1 ISZERO DUP1 ISZERO SWAP1 PUSH2 0x665 JUMPI POP PUSH20 0xFFFFFFFFFFFFFFFFFFFFFFFFFFFFFFFFFFFFFFFF CALLER DUP2 AND PUSH1 0x0 SWAP1 DUP2 MSTORE PUSH1 0x2 PUSH1 0x20 SWAP1 DUP2 MSTORE PUSH1 0x40 DUP1 DUP4 SHA3 SWAP4 DUP7 AND DUP4 MSTORE SWAP3 SWAP1 MSTORE SHA3 SLOAD ISZERO ISZERO JUMPDEST ISZERO PUSH2 0x670 JUMPI PUSH1 0x0 PUSH1 0x0 REVERT JUMPDEST PUSH20 0xFFFFFFFFFFFFFFFFFFFFFFFFFFFFFFFFFFFFFFFF CALLER DUP2 AND PUSH1 0x0 DUP2 DUP2 MSTORE PUSH1 0x2 PUSH1 0x20 SWAP1 DUP2 MSTORE PUSH1 0x40 DUP1 DUP4 SHA3 SWAP5 DUP8 AND DUP1 DUP5 MSTORE SWAP5 DUP3 MSTORE SWAP2 DUP3 SWAP1 SHA3 DUP6 SWAP1 SSTORE DUP2 MLOAD DUP6 DUP2 MSTORE SWAP2 MLOAD PUSH32 0x8C5BE1E5EBEC7D5BD14F71427D1E84F3DD0314C0F7B2291E5B200AC8C7C3B925 SWAP3 DUP2 SWAP1 SUB SWAP1 SWAP2 ADD SWAP1 LOG3 JUMPDEST POP POP JUMP JUMPDEST PUSH1 0x4 SLOAD DUP2 JUMP JUMPDEST PUSH1 0x3 SLOAD PUSH21 0x10000000000000000000000000000000000000000 SWAP1 DIV PUSH1 0xFF AND ISZERO PUSH2 0x70E JUMPI PUSH1 0x0 PUSH1 0x0 REVERT JUMPDEST PUSH2 0x719 DUP4 DUP4 DUP4 PUSH2 0xD19 JUMP JUMPDEST JUMPDEST JUMPDEST POP POP POP JUMP JUMPDEST PUSH1 0x7 SLOAD DUP2 JUMP JUMPDEST PUSH1 0x3 SLOAD PUSH1 0x0 SWAP1 CALLER PUSH20 0xFFFFFFFFFFFFFFFFFFFFFFFFFFFFFFFFFFFFFFFF SWAP1 DUP2 AND SWAP2 AND EQ PUSH2 0x752 JUMPI PUSH1 0x0 PUSH1 0x0 REVERT JUMPDEST PUSH1 0x3 SLOAD PUSH21 0x10000000000000000000000000000000000000000 SWAP1 DIV PUSH1 0xFF AND ISZERO ISZERO PUSH2 0x77C JUMPI PUSH1 0x0 PUSH1 0x0 REVERT JUMPDEST PUSH1 0x3 DUP1 SLOAD PUSH32 0xFFFFFFFFFFFFFFFFFFFFFF00FFFFFFFFFFFFFFFFFFFFFFFFFFFFFFFFFFFFFFFF AND SWAP1 SSTORE PUSH1 0x40 MLOAD PUSH32 0x7805862F689E2F13DF9F062FF482AD3AD112ACA9E0847911ED832E158C525B33 SWAP1 PUSH1 0x0 SWAP1 LOG1 POP PUSH1 0x1 JUMPDEST JUMPDEST JUMPDEST SWAP1 JUMP JUMPDEST PUSH1 0x3 SLOAD PUSH1 0x0 SWAP1 CALLER PUSH20 0xFFFFFFFFFFFFFFFFFFFFFFFFFFFFFFFFFFFFFFFF SWAP1 DUP2 AND SWAP2 AND EQ PUSH2 0x802 JUMPI PUSH1 0x0 PUSH1 0x0 REVERT JUMPDEST PUSH1 0x3 SLOAD PUSH22 0x1000000000000000000000000000000000000000000 SWAP1 DIV PUSH1 0xFF AND ISZERO PUSH2 0x82C JUMPI PUSH1 0x0 PUSH1 0x0 REVERT JUMPDEST PUSH1 0x4 SLOAD PUSH2 0x83F SWAP1 DUP4 PUSH4 0xFFFFFFFF PUSH2 0xE71 AND JUMP JUMPDEST PUSH1 0x4 SSTORE PUSH20 0xFFFFFFFFFFFFFFFFFFFFFFFFFFFFFFFFFFFFFFFF DUP4 AND PUSH1 0x0 SWAP1 DUP2 MSTORE PUSH1 0x1 PUSH1 0x20 MSTORE PUSH1 0x40 SWAP1 SHA3 SLOAD PUSH2 0x878 SWAP1 DUP4 PUSH4 0xFFFFFFFF PUSH2 0xE71 AND JUMP JUMPDEST PUSH20 0xFFFFFFFFFFFFFFFFFFFFFFFFFFFFFFFFFFFFFFFF DUP5 AND PUSH1 0x0 DUP2 DUP2 MSTORE PUSH1 0x1 PUSH1 0x20 SWAP1 DUP2 MSTORE PUSH1 0x40 SWAP2 DUP3 SWAP1 SHA3 SWAP4 SWAP1 SWAP4 SSTORE DUP1 MLOAD DUP6 DUP2 MSTORE SWAP1 MLOAD SWAP2 SWAP3 PUSH32 0xF6798A560793A54C3BCFE86A93CDE1E73087D944C0EA20544137D4121396885 SWAP3 SWAP2 DUP3 SWAP1 SUB ADD SWAP1 LOG2 POP PUSH1 0x1 JUMPDEST JUMPDEST JUMPDEST SWAP3 SWAP2 POP POP JUMP JUMPDEST PUSH1 0x3 SLOAD PUSH21 0x10000000000000000000000000000000000000000 SWAP1 DIV PUSH1 0xFF AND DUP2 JUMP JUMPDEST PUSH20 0xFFFFFFFFFFFFFFFFFFFFFFFFFFFFFFFFFFFFFFFF DUP2 AND PUSH1 0x0 SWAP1 DUP2 MSTORE PUSH1 0x1 PUSH1 0x20 MSTORE PUSH1 0x40 SWAP1 SHA3 SLOAD JUMPDEST SWAP2 SWAP1 POP JUMP JUMPDEST PUSH1 0x3 SLOAD PUSH1 0x0 SWAP1 CALLER PUSH20 0xFFFFFFFFFFFFFFFFFFFFFFFFFFFFFFFFFFFFFFFF SWAP1 DUP2 AND SWAP2 AND EQ PUSH2 0x95C JUMPI PUSH1 0x0 PUSH1 0x0 REVERT JUMPDEST PUSH1 0x3 DUP1 SLOAD PUSH32 0xFFFFFFFFFFFFFFFFFFFF00FFFFFFFFFFFFFFFFFFFFFFFFFFFFFFFFFFFFFFFFFF AND PUSH22 0x1000000000000000000000000000000000000000000 OR SWAP1 SSTORE PUSH1 0x40 MLOAD PUSH32 0xAE5184FBA832CB2B1F702ACA6117B8D265EAF03AD33EB133F19DDE0F5920FA08 SWAP1 PUSH1 0x0 SWAP1 LOG1 POP PUSH1 0x1 JUMPDEST JUMPDEST SWAP1 JUMP JUMPDEST PUSH1 0x3 SLOAD PUSH1 0x0 SWAP1 CALLER PUSH20 0xFFFFFFFFFFFFFFFFFFFFFFFFFFFFFFFFFFFFFFFF SWAP1 DUP2 AND SWAP2 AND EQ PUSH2 0x9F9 JUMPI PUSH1 0x0 PUSH1 0x0 REVERT JUMPDEST PUSH1 0x3 SLOAD PUSH21 0x10000000000000000000000000000000000000000 SWAP1 DIV PUSH1 0xFF AND ISZERO PUSH2 0xA22 JUMPI PUSH1 0x0 PUSH1 0x0 REVERT JUMPDEST PUSH1 0x3 DUP1 SLOAD PUSH32 0xFFFFFFFFFFFFFFFFFFFFFF00FFFFFFFFFFFFFFFFFFFFFFFFFFFFFFFFFFFFFFFF AND PUSH21 0x10000000000000000000000000000000000000000 OR SWAP1 SSTORE PUSH1 0x40 MLOAD PUSH32 0x6985A02210A168E66602D3235CB6DB0E70F92B3BA4D376A33C0F3D9434BFF625 SWAP1 PUSH1 0x0 SWAP1 LOG1 POP PUSH1 0x1 JUMPDEST JUMPDEST JUMPDEST SWAP1 JUMP JUMPDEST PUSH1 0x3 SLOAD PUSH20 0xFFFFFFFFFFFFFFFFFFFFFFFFFFFFFFFFFFFFFFFF AND DUP2 JUMP JUMPDEST PUSH1 0x6 DUP1 SLOAD PUSH1 0x40 DUP1 MLOAD PUSH1 0x20 PUSH1 0x2 PUSH1 0x1 DUP6 AND ISZERO PUSH2 0x100 MUL PUSH32 0xFFFFFFFFFFFFFFFFFFFFFFFFFFFFFFFFFFFFFFFFFFFFFFFFFFFFFFFFFFFFFFFF ADD SWAP1 SWAP5 AND SWAP4 SWAP1 SWAP4 DIV PUSH1 0x1F DUP2 ADD DUP5 SWAP1 DIV DUP5 MUL DUP3 ADD DUP5 ADD SWAP1 SWAP3 MSTORE DUP2 DUP2 MSTORE SWAP3 SWAP2 DUP4 ADD DUP3 DUP3 DUP1 ISZERO PUSH2 0x61D JUMPI DUP1 PUSH1 0x1F LT PUSH2 0x5F2 JUMPI PUSH2 0x100 DUP1 DUP4 SLOAD DIV MUL DUP4 MSTORE SWAP2 PUSH1 0x20 ADD SWAP2 PUSH2 0x61D JUMP JUMPDEST DUP3 ADD SWAP2 SWAP1 PUSH1 0x0 MSTORE PUSH1 0x20 PUSH1 0x0 SHA3 SWAP1 JUMPDEST DUP2 SLOAD DUP2 MSTORE SWAP1 PUSH1 0x1 ADD SWAP1 PUSH1 0x20 ADD DUP1 DUP4 GT PUSH2 0x600 JUMPI DUP3 SWAP1 SUB PUSH1 0x1F AND DUP3 ADD SWAP2 JUMPDEST POP POP POP POP POP DUP2 JUMP JUMPDEST PUSH1 0x3 SLOAD PUSH21 0x10000000000000000000000000000000000000000 SWAP1 DIV PUSH1 0xFF AND ISZERO PUSH2 0xB84 JUMPI PUSH1 0x0 PUSH1 0x0 REVERT JUMPDEST PUSH2 0x6DB DUP3 DUP3 PUSH2 0xE8D JUMP JUMPDEST JUMPDEST JUMPDEST POP POP JUMP JUMPDEST PUSH1 0x3 SLOAD PUSH1 0x0 SWAP1 DUP2 SWAP1 CALLER PUSH20 0xFFFFFFFFFFFFFFFFFFFFFFFFFFFFFFFFFFFFFFFF SWAP1 DUP2 AND SWAP2 AND EQ PUSH2 0xBC2 JUMPI PUSH1 0x0 PUSH1 0x0 REVERT JUMPDEST PUSH1 0x3 SLOAD PUSH22 0x1000000000000000000000000000000000000000000 SWAP1 DIV PUSH1 0xFF AND ISZERO PUSH2 0xBEC JUMPI PUSH1 0x0 PUSH1 0x0 REVERT JUMPDEST ADDRESS DUP6 DUP5 PUSH2 0xBF7 PUSH2 0xFAC JUMP JUMPDEST PUSH20 0xFFFFFFFFFFFFFFFFFFFFFFFFFFFFFFFFFFFFFFFF SWAP4 DUP5 AND DUP2 MSTORE SWAP2 SWAP1 SWAP3 AND PUSH1 0x20 DUP3 ADD MSTORE PUSH1 0x40 DUP1 DUP3 ADD SWAP3 SWAP1 SWAP3 MSTORE SWAP1 MLOAD SWAP1 DUP2 SWAP1 SUB PUSH1 0x60 ADD SWAP1 PUSH1 0x0 CREATE DUP1 ISZERO ISZERO PUSH2 0xC39 JUMPI INVALID JUMPDEST SWAP1 POP PUSH2 0xC45 DUP2 DUP6 PUSH2 0x7D6 JUMP JUMPDEST POP DUP1 SWAP2 POP JUMPDEST JUMPDEST JUMPDEST POP SWAP4 SWAP3 POP POP POP JUMP JUMPDEST PUSH20 0xFFFFFFFFFFFFFFFFFFFFFFFFFFFFFFFFFFFFFFFF DUP1 DUP4 AND PUSH1 0x0 SWAP1 DUP2 MSTORE PUSH1 0x2 PUSH1 0x20 SWAP1 DUP2 MSTORE PUSH1 0x40 DUP1 DUP4 SHA3 SWAP4 DUP6 AND DUP4 MSTORE SWAP3 SWAP1 MSTORE SHA3 SLOAD JUMPDEST SWAP3 SWAP2 POP POP JUMP JUMPDEST PUSH1 0x3 SLOAD CALLER PUSH20 0xFFFFFFFFFFFFFFFFFFFFFFFFFFFFFFFFFFFFFFFF SWAP1 DUP2 AND SWAP2 AND EQ PUSH2 0xCB7 JUMPI PUSH1 0x0 PUSH1 0x0 REVERT JUMPDEST PUSH20 0xFFFFFFFFFFFFFFFFFFFFFFFFFFFFFFFFFFFFFFFF DUP2 AND ISZERO PUSH2 0xD14 JUMPI PUSH1 0x3 DUP1 SLOAD PUSH32 0xFFFFFFFFFFFFFFFFFFFFFFFF0000000000000000000000000000000000000000 AND PUSH20 0xFFFFFFFFFFFFFFFFFFFFFFFFFFFFFFFFFFFFFFFF DUP4 AND OR SWAP1 SSTORE JUMPDEST JUMPDEST JUMPDEST POP JUMP JUMPDEST PUSH1 0x0 PUSH1 0x60 PUSH1 0x64 CALLDATASIZE LT ISZERO PUSH2 0xD2C JUMPI PUSH1 0x0 PUSH1 0x0 REVERT JUMPDEST PUSH20 0xFFFFFFFFFFFFFFFFFFFFFFFFFFFFFFFFFFFFFFFF DUP1 DUP7 AND PUSH1 0x0 SWAP1 DUP2 MSTORE PUSH1 0x2 PUSH1 0x20 SWAP1 DUP2 MSTORE PUSH1 0x40 DUP1 DUP4 SHA3 CALLER DUP6 AND DUP5 MSTORE DUP3 MSTORE DUP1 DUP4 SHA3 SLOAD SWAP4 DUP9 AND DUP4 MSTORE PUSH1 0x1 SWAP1 SWAP2 MSTORE SWAP1 SHA3 SLOAD SWAP1 SWAP3 POP PUSH2 0xD80 SWAP1 DUP5 PUSH4 0xFFFFFFFF PUSH2 0xE71 AND JUMP JUMPDEST PUSH20 0xFFFFFFFFFFFFFFFFFFFFFFFFFFFFFFFFFFFFFFFF DUP1 DUP7 AND PUSH1 0x0 SWAP1 DUP2 MSTORE PUSH1 0x1 PUSH1 0x20 MSTORE PUSH1 0x40 DUP1 DUP3 SHA3 SWAP4 SWAP1 SWAP4 SSTORE SWAP1 DUP8 AND DUP2 MSTORE SHA3 SLOAD PUSH2 0xDC2 SWAP1 DUP5 PUSH4 0xFFFFFFFF PUSH2 0xF82 AND JUMP JUMPDEST PUSH20 0xFFFFFFFFFFFFFFFFFFFFFFFFFFFFFFFFFFFFFFFF DUP7 AND PUSH1 0x0 SWAP1 DUP2 MSTORE PUSH1 0x1 PUSH1 0x20 MSTORE PUSH1 0x40 SWAP1 SHA3 SSTORE PUSH2 0xDF8 DUP3 DUP5 PUSH4 0xFFFFFFFF PUSH2 0xF82 AND JUMP JUMPDEST PUSH20 0xFFFFFFFFFFFFFFFFFFFFFFFFFFFFFFFFFFFFFFFF DUP1 DUP8 AND PUSH1 0x0 DUP2 DUP2 MSTORE PUSH1 0x2 PUSH1 0x20 SWAP1 DUP2 MSTORE PUSH1 0x40 DUP1 DUP4 SHA3 CALLER DUP7 AND DUP5 MSTORE DUP3 MSTORE SWAP2 DUP3 SWAP1 SHA3 SWAP5 SWAP1 SWAP5 SSTORE DUP1 MLOAD DUP8 DUP2 MSTORE SWAP1 MLOAD SWAP3 DUP9 AND SWAP4 SWAP2 SWAP3 PUSH32 0xDDF252AD1BE2C89B69C2B068FC378DAA952BA7F163C4A11628F55A4DF523B3EF SWAP3 SWAP2 DUP2 SWAP1 SUB SWAP1 SWAP2 ADD SWAP1 LOG3 JUMPDEST JUMPDEST POP POP POP POP POP JUMP JUMPDEST PUSH1 0x0 DUP3 DUP3 ADD PUSH2 0xE82 DUP5 DUP3 LT ISZERO PUSH2 0xF9B JUMP JUMPDEST DUP1 SWAP2 POP JUMPDEST POP SWAP3 SWAP2 POP POP JUMP JUMPDEST PUSH1 0x40 PUSH1 0x44 CALLDATASIZE LT ISZERO PUSH2 0xE9E JUMPI PUSH1 0x0 PUSH1 0x0 REVERT JUMPDEST PUSH20 0xFFFFFFFFFFFFFFFFFFFFFFFFFFFFFFFFFFFFFFFF CALLER AND PUSH1 0x0 SWAP1 DUP2 MSTORE PUSH1 0x1 PUSH1 0x20 MSTORE PUSH1 0x40 SWAP1 SHA3 SLOAD PUSH2 0xED4 SWAP1 DUP4 PUSH4 0xFFFFFFFF PUSH2 0xF82 AND JUMP JUMPDEST PUSH20 0xFFFFFFFFFFFFFFFFFFFFFFFFFFFFFFFFFFFFFFFF CALLER DUP2 AND PUSH1 0x0 SWAP1 DUP2 MSTORE PUSH1 0x1 PUSH1 0x20 MSTORE PUSH1 0x40 DUP1 DUP3 SHA3 SWAP4 SWAP1 SWAP4 SSTORE SWAP1 DUP6 AND DUP2 MSTORE SHA3 SLOAD PUSH2 0xF16 SWAP1 DUP4 PUSH4 0xFFFFFFFF PUSH2 0xE71 AND JUMP JUMPDEST PUSH20 0xFFFFFFFFFFFFFFFFFFFFFFFFFFFFFFFFFFFFFFFF DUP1 DUP6 AND PUSH1 0x0 DUP2 DUP2 MSTORE PUSH1 0x1 PUSH1 0x20 SWAP1 DUP2 MSTORE PUSH1 0x40 SWAP2 DUP3 SWAP1 SHA3 SWAP5 SWAP1 SWAP5 SSTORE DUP1 MLOAD DUP7 DUP2 MSTORE SWAP1 MLOAD SWAP2 SWAP4 CALLER SWAP1 SWAP4 AND SWAP3 PUSH32 0xDDF252AD1BE2C89B69C2B068FC378DAA952BA7F163C4A11628F55A4DF523B3EF SWAP3 SWAP2 DUP3 SWAP1 SUB ADD SWAP1 LOG3 JUMPDEST JUMPDEST POP POP POP JUMP JUMPDEST PUSH1 0x0 PUSH2 0xF90 DUP4 DUP4 GT ISZERO PUSH2 0xF9B JUMP JUMPDEST POP DUP1 DUP3 SUB JUMPDEST SWAP3 SWAP2 POP POP JUMP JUMPDEST DUP1 ISZERO ISZERO PUSH2 0xD14 JUMPI PUSH1 0x0 PUSH1 0x0 REVERT JUMPDEST JUMPDEST POP JUMP JUMPDEST PUSH1 0x40 MLOAD PUSH2 0x25F DUP1 PUSH2 0xFBD DUP4 CODECOPY ADD SWAP1 JUMP STOP PUSH1 0x60 PUSH1 0x40 MSTORE CALLVALUE ISZERO PUSH2 0xC JUMPI INVALID JUMPDEST PUSH1 0x40 MLOAD PUSH1 0x60 DUP1 PUSH2 0x25F DUP4 CODECOPY DUP2 ADD PUSH1 0x40 SWAP1 DUP2 MSTORE DUP2 MLOAD PUSH1 0x20 DUP4 ADD MLOAD SWAP2 SWAP1 SWAP3 ADD MLOAD JUMPDEST TIMESTAMP DUP2 GT PUSH2 0x38 JUMPI PUSH1 0x0 PUSH1 0x0 REVERT JUMPDEST PUSH1 0x0 DUP1 SLOAD PUSH1 0x1 PUSH1 0xA0 PUSH1 0x2 EXP SUB DUP1 DUP7 AND PUSH1 0x1 PUSH1 0xA0 PUSH1 0x2 EXP SUB NOT SWAP3 DUP4 AND OR SWAP1 SWAP3 SSTORE PUSH1 0x1 DUP1 SLOAD SWAP3 DUP6 AND SWAP3 SWAP1 SWAP2 AND SWAP2 SWAP1 SWAP2 OR SWAP1 SSTORE PUSH1 0x2 DUP2 SWAP1 SSTORE JUMPDEST POP POP POP JUMPDEST PUSH2 0x1DE DUP1 PUSH2 0x81 PUSH1 0x0 CODECOPY PUSH1 0x0 RETURN STOP PUSH1 0x60 PUSH1 0x40 MSTORE PUSH4 0xFFFFFFFF PUSH29 0x100000000000000000000000000000000000000000000000000000000 PUSH1 0x0 CALLDATALOAD DIV AND PUSH4 0x4E71D92D DUP2 EQ PUSH2 0x3A JUMPI JUMPDEST INVALID JUMPDEST CALLVALUE ISZERO PUSH2 0x42 JUMPI INVALID JUMPDEST PUSH2 0x4A PUSH2 0x4C JUMP JUMPDEST STOP JUMPDEST PUSH1 0x1 SLOAD PUSH1 0x0 SWAP1 CALLER PUSH20 0xFFFFFFFFFFFFFFFFFFFFFFFFFFFFFFFFFFFFFFFF SWAP1 DUP2 AND SWAP2 AND EQ PUSH2 0x78 JUMPI PUSH1 0x0 PUSH1 0x0 REVERT JUMPDEST PUSH1 0x2 SLOAD TIMESTAMP LT ISZERO PUSH2 0x88 JUMPI PUSH1 0x0 PUSH1 0x0 REVERT JUMPDEST PUSH1 0x0 DUP1 SLOAD PUSH1 0x40 DUP1 MLOAD PUSH1 0x20 SWAP1 DUP2 ADD DUP5 SWAP1 MSTORE DUP2 MLOAD PUSH32 0x70A0823100000000000000000000000000000000000000000000000000000000 DUP2 MSTORE PUSH20 0xFFFFFFFFFFFFFFFFFFFFFFFFFFFFFFFFFFFFFFFF ADDRESS DUP2 AND PUSH1 0x4 DUP4 ADD MSTORE SWAP3 MLOAD SWAP3 SWAP1 SWAP4 AND SWAP4 PUSH4 0x70A08231 SWAP4 PUSH1 0x24 DUP1 DUP3 ADD SWAP5 SWAP3 SWAP2 DUP4 SWAP1 SUB ADD SWAP1 DUP3 SWAP1 DUP8 DUP1 EXTCODESIZE ISZERO ISZERO PUSH2 0x101 JUMPI INVALID JUMPDEST PUSH2 0x2C6 GAS SUB CALL ISZERO ISZERO PUSH2 0x10F JUMPI INVALID JUMPDEST POP POP PUSH1 0x40 MLOAD MLOAD SWAP2 POP POP PUSH1 0x0 DUP2 GT PUSH2 0x126 JUMPI PUSH1 0x0 PUSH1 0x0 REVERT JUMPDEST PUSH1 0x0 DUP1 SLOAD PUSH1 0x1 SLOAD PUSH1 0x40 DUP1 MLOAD PUSH32 0xA9059CBB00000000000000000000000000000000000000000000000000000000 DUP2 MSTORE PUSH20 0xFFFFFFFFFFFFFFFFFFFFFFFFFFFFFFFFFFFFFFFF SWAP3 DUP4 AND PUSH1 0x4 DUP3 ADD MSTORE PUSH1 0x24 DUP2 ADD DUP7 SWAP1 MSTORE SWAP1 MLOAD SWAP2 SWAP1 SWAP3 AND SWAP3 PUSH4 0xA9059CBB SWAP3 PUSH1 0x44 DUP1 DUP3 ADD SWAP4 SWAP2 DUP3 SWAP1 SUB ADD DUP2 DUP4 DUP8 DUP1 EXTCODESIZE ISZERO ISZERO PUSH2 0x19D JUMPI INVALID JUMPDEST PUSH2 0x2C6 GAS SUB CALL ISZERO ISZERO PUSH2 0x1AB JUMPI INVALID JUMPDEST POP POP POP JUMPDEST POP JUMP STOP LOG1 PUSH6 0x627A7A723058 SHA3 GASLIMIT PUSH4 0x196EB382 SWAP15 PUSH15 0x3BCA06FEEEF6C5F3751D33B499DBE1 PUSH6 0x6451FB367E82 0xb0 0xd8 STOP 0x29 LOG1 PUSH6 0x627A7A723058 SHA3 ISZERO DUP2 0xa7 0xec DIV CALL 0xe4 0xb2 0xc3 POP 0xe2 0xef SWAP9 0x1c 0x5d SWAP11 CALL 0xea SWAP13 GT SUB BALANCE PUSH12 0x6947DAEB7209837D7002900 "
        },
        "gasEstimates": {
          "creation": {
            "codeDepositCost": "935800",
            "executionCost": "infinite",
            "totalCost": "infinite"
          },
          "external": {
            "allowance(address,address)": "913",
            "approve(address,uint256)": "22578",
            "balanceOf(address)": "664",
            "decimals()": "483",
            "finishMinting()": "21638",
            "mint(address,uint256)": "infinite",
            "mintTimelocked(address,uint256,uint256)": "infinite",
            "mintingFinished()": "396",
            "name()": "infinite",
            "owner()": "652",
            "pause()": "21898",
            "paused()": "572",
            "symbol()": "infinite",
            "totalSupply()": "439",
            "transfer(address,uint256)": "infinite",
            "transferFrom(address,address,uint256)": "infinite",
            "transferOwnership(address)": "21005",
            "unpause()": "21785"
          }
        },
        "methodIdentifiers": {
          "allowance(address,address)": "dd62ed3e",
          "approve(address,uint256)": "095ea7b3",
          "balanceOf(address)": "70a08231",
          "decimals()": "313ce567",
          "finishMinting()": "7d64bcb4",
          "mint(address,uint256)": "40c10f19",
          "mintTimelocked(address,uint256,uint256)": "c14a3b8c",
          "mintingFinished()": "05d2035b",
          "name()": "06fdde03",
          "owner()": "8da5cb5b",
          "pause()": "8456cb59",
          "paused()": "5c975abb",
          "symbol()": "95d89b41",
          "totalSupply()": "18160ddd",
          "transfer(address,uint256)": "a9059cbb",
          "transferFrom(address,address,uint256)": "23b872dd",
          "transferOwnership(address)": "f2fde38b",
          "unpause()": "3f4ba83a"
        }
      },
      "userdoc": {
        "methods": {}
      }
    }
  }
}