{
  "contracts/test-helpers/OMGLikeToken.sol": {
    "MintableToken": {
      "abi": [
        {
          "constant": true,
          "inputs": [],
          "name": "mintingFinished",
          "outputs": [
            {
              "name": "",
              "type": "bool"
            }
          ],
          "payable": false,
          "type": "function"
        },
        {
          "constant": false,
          "inputs": [
            {
              "name": "_spender",
              "type": "address"
            },
            {
              "name": "_value",
              "type": "uint256"
            }
          ],
          "name": "approve",
          "outputs": [],
          "payable": false,
          "type": "function"
        },
        {
          "constant": true,
          "inputs": [],
          "name": "totalSupply",
          "outputs": [
            {
              "name": "",
              "type": "uint256"
            }
          ],
          "payable": false,
          "type": "function"
        },
        {
          "constant": false,
          "inputs": [
            {
              "name": "_from",
              "type": "address"
            },
            {
              "name": "_to",
              "type": "address"
            },
            {
              "name": "_value",
              "type": "uint256"
            }
          ],
          "name": "transferFrom",
          "outputs": [],
          "payable": false,
          "type": "function"
        },
        {
          "constant": false,
          "inputs": [
            {
              "name": "_to",
              "type": "address"
            },
            {
              "name": "_amount",
              "type": "uint256"
            }
          ],
          "name": "mint",
          "outputs": [
            {
              "name": "",
              "type": "bool"
            }
          ],
          "payable": false,
          "type": "function"
        },
        {
          "constant": true,
          "inputs": [
            {
              "name": "_owner",
              "type": "address"
            }
          ],
          "name": "balanceOf",
          "outputs": [
            {
              "name": "balance",
              "type": "uint256"
            }
          ],
          "payable": false,
          "type": "function"
        },
        {
          "constant": false,
          "inputs": [],
          "name": "finishMinting",
          "outputs": [
            {
              "name": "",
              "type": "bool"
            }
          ],
          "payable": false,
          "type": "function"
        },
        {
          "constant": true,
          "inputs": [],
          "name": "owner",
          "outputs": [
            {
              "name": "",
              "type": "address"
            }
          ],
          "payable": false,
          "type": "function"
        },
        {
          "constant": false,
          "inputs": [
            {
              "name": "_to",
              "type": "address"
            },
            {
              "name": "_value",
              "type": "uint256"
            }
          ],
          "name": "transfer",
          "outputs": [],
          "payable": false,
          "type": "function"
        },
        {
          "constant": true,
          "inputs": [
            {
              "name": "_owner",
              "type": "address"
            },
            {
              "name": "_spender",
              "type": "address"
            }
          ],
          "name": "allowance",
          "outputs": [
            {
              "name": "remaining",
              "type": "uint256"
            }
          ],
          "payable": false,
          "type": "function"
        },
        {
          "constant": false,
          "inputs": [
            {
              "name": "newOwner",
              "type": "address"
            }
          ],
          "name": "transferOwnership",
          "outputs": [],
          "payable": false,
          "type": "function"
        },
        {
          "anonymous": false,
          "inputs": [
            {
              "indexed": true,
              "name": "to",
              "type": "address"
            },
            {
              "indexed": false,
              "name": "value",
              "type": "uint256"
            }
          ],
          "name": "Mint",
          "type": "event"
        },
        {
          "anonymous": false,
          "inputs": [],
          "name": "MintFinished",
          "type": "event"
        },
        {
          "anonymous": false,
          "inputs": [
            {
              "indexed": true,
              "name": "owner",
              "type": "address"
            },
            {
              "indexed": true,
              "name": "spender",
              "type": "address"
            },
            {
              "indexed": false,
              "name": "value",
              "type": "uint256"
            }
          ],
          "name": "Approval",
          "type": "event"
        },
        {
          "anonymous": false,
          "inputs": [
            {
              "indexed": true,
              "name": "from",
              "type": "address"
            },
            {
              "indexed": true,
              "name": "to",
              "type": "address"
            },
            {
              "indexed": false,
              "name": "value",
              "type": "uint256"
            }
          ],
          "name": "Transfer",
          "type": "event"
        }
      ],
      "devdoc": {
        "methods": {
          "allowance(address,address)": {
            "details": "Function to check the amount of tokens than an owner allowed to a spender.",
            "params": {
              "_owner": "address The address which owns the funds.",
              "_spender": "address The address which will spend the funds."
            },
            "return": "A uint specifing the amount of tokens still avaible for the spender."
          },
          "approve(address,uint256)": {
            "details": "Aprove the passed address to spend the specified amount of tokens on beahlf of msg.sender.",
            "params": {
              "_spender": "The address which will spend the funds.",
              "_value": "The amount of tokens to be spent."
            }
          },
          "balanceOf(address)": {
            "details": "Gets the balance of the specified address.",
            "params": {
              "_owner": "The address to query the the balance of."
            },
            "return": "An uint representing the amount owned by the passed address."
          },
          "finishMinting()": {
            "details": "Function to stop minting new tokens.",
            "return": "True if the operation was successful."
          },
          "mint(address,uint256)": {
            "details": "Function to mint tokens",
            "params": {
              "_amount": "The amount of tokens to mint.",
              "_to": "The address that will recieve the minted tokens."
            },
            "return": "A boolean that indicates if the operation was successful."
          },
          "transfer(address,uint256)": {
            "details": "transfer token for a specified address",
            "params": {
              "_to": "The address to transfer to.",
              "_value": "The amount to be transferred."
            }
          },
          "transferFrom(address,address,uint256)": {
            "details": "Transfer tokens from one address to another",
            "params": {
              "_from": "address The address which you want to send tokens from",
              "_to": "address The address which you want to transfer to",
              "_value": "uint the amout of tokens to be transfered"
            }
          },
          "transferOwnership(address)": {
            "details": "Allows the current owner to transfer control of the contract to a newOwner.",
            "params": {
              "newOwner": "The address to transfer ownership to."
            }
          }
        },
        "title": "Mintable token"
      },
      "evm": {
        "assembly": "    /* \"contracts/test-helpers/OMGLikeToken.sol\":6522:7464  contract MintableToken is StandardToken, Ownable {... */\n  mstore(0x40, 0x60)\n    /* \"contracts/test-helpers/OMGLikeToken.sol\":6646:6681  bool public mintingFinished = false */\n  0x3\n  dup1\n  sload\n  not(mul(0xff, exp(0x2, 0xa0)))\n  and\n  swap1\n  sstore\n    /* \"contracts/test-helpers/OMGLikeToken.sol\":6676:6681  false */\n  0x0\n    /* \"contracts/test-helpers/OMGLikeToken.sol\":6685:6712  uint public totalSupply = 0 */\n  0x4\n  sstore\n    /* \"contracts/test-helpers/OMGLikeToken.sol\":5727:5775  function Ownable() {... */\ntag_1:\n    /* \"contracts/test-helpers/OMGLikeToken.sol\":5752:5757  owner */\n  0x3\n    /* \"contracts/test-helpers/OMGLikeToken.sol\":5752:5770  owner = msg.sender */\n  dup1\n  sload\n  not(sub(exp(0x2, 0xa0), 0x1))\n  and\n    /* \"contracts/test-helpers/OMGLikeToken.sol\":5760:5770  msg.sender */\n  caller\n  sub(exp(0x2, 0xa0), 0x1)\n    /* \"contracts/test-helpers/OMGLikeToken.sol\":5752:5770  owner = msg.sender */\n  and\n  or\n  swap1\n  sstore\n    /* \"contracts/test-helpers/OMGLikeToken.sol\":5727:5775  function Ownable() {... */\ntag_2:\n    /* \"contracts/test-helpers/OMGLikeToken.sol\":6522:7464  contract MintableToken is StandardToken, Ownable {... */\ntag_3:\n  dataSize(sub_0)\n  dup1\n  dataOffset(sub_0)\n  0x0\n  codecopy\n  0x0\n  return\nstop\n\nsub_0: assembly {\n        /* \"contracts/test-helpers/OMGLikeToken.sol\":6522:7464  contract MintableToken is StandardToken, Ownable {... */\n      mstore(0x40, 0x60)\n      jumpi(tag_1, iszero(calldatasize))\n      and(div(calldataload(0x0), 0x100000000000000000000000000000000000000000000000000000000), 0xffffffff)\n      0x5d2035b\n      dup2\n      eq\n      tag_2\n      jumpi\n      dup1\n      0x95ea7b3\n      eq\n      tag_3\n      jumpi\n      dup1\n      0x18160ddd\n      eq\n      tag_4\n      jumpi\n      dup1\n      0x23b872dd\n      eq\n      tag_5\n      jumpi\n      dup1\n      0x40c10f19\n      eq\n      tag_6\n      jumpi\n      dup1\n      0x70a08231\n      eq\n      tag_7\n      jumpi\n      dup1\n      0x7d64bcb4\n      eq\n      tag_8\n      jumpi\n      dup1\n      0x8da5cb5b\n      eq\n      tag_9\n      jumpi\n      dup1\n      0xa9059cbb\n      eq\n      tag_10\n      jumpi\n      dup1\n      0xdd62ed3e\n      eq\n      tag_11\n      jumpi\n      dup1\n      0xf2fde38b\n      eq\n      tag_12\n      jumpi\n    tag_1:\n      invalid\n        /* \"contracts/test-helpers/OMGLikeToken.sol\":6646:6681  bool public mintingFinished = false */\n    tag_2:\n      jumpi(tag_13, iszero(callvalue))\n      invalid\n    tag_13:\n      tag_14\n      jump(tag_15)\n    tag_14:\n      0x40\n      dup1\n      mload\n      swap2\n      iszero\n      iszero\n      dup3\n      mstore\n      mload\n      swap1\n      dup2\n      swap1\n      sub\n      0x20\n      add\n      swap1\n      return\n        /* \"contracts/test-helpers/OMGLikeToken.sol\":4424:4925  function approve(address _spender, uint _value) {... */\n    tag_3:\n      jumpi(tag_16, iszero(callvalue))\n      invalid\n    tag_16:\n      tag_17\n      and(calldataload(0x4), 0xffffffffffffffffffffffffffffffffffffffff)\n      calldataload(0x24)\n      jump(tag_18)\n    tag_17:\n      stop\n        /* \"contracts/test-helpers/OMGLikeToken.sol\":6685:6712  uint public totalSupply = 0 */\n    tag_4:\n      jumpi(tag_19, iszero(callvalue))\n      invalid\n    tag_19:\n      tag_20\n      jump(tag_21)\n    tag_20:\n      0x40\n      dup1\n      mload\n      swap2\n      dup3\n      mstore\n      mload\n      swap1\n      dup2\n      swap1\n      sub\n      0x20\n      add\n      swap1\n      return\n        /* \"contracts/test-helpers/OMGLikeToken.sol\":3715:4193  function transferFrom(address _from, address _to, uint _value) onlyPayloadSize(3 * 32) {... */\n    tag_5:\n      jumpi(tag_22, iszero(callvalue))\n      invalid\n    tag_22:\n      tag_17\n      0xffffffffffffffffffffffffffffffffffffffff\n      calldataload(0x4)\n      dup2\n      and\n      swap1\n      calldataload(0x24)\n      and\n      calldataload(0x44)\n      jump(tag_24)\n    tag_23:\n      stop\n        /* \"contracts/test-helpers/OMGLikeToken.sol\":7016:7228  function mint(address _to, uint _amount) onlyOwner canMint returns (bool) {... */\n    tag_6:\n      jumpi(tag_25, iszero(callvalue))\n      invalid\n    tag_25:\n      tag_14\n      and(calldataload(0x4), 0xffffffffffffffffffffffffffffffffffffffff)\n      calldataload(0x24)\n      jump(tag_27)\n    tag_26:\n      0x40\n      dup1\n      mload\n      swap2\n      iszero\n      iszero\n      dup3\n      mstore\n      mload\n      swap1\n      dup2\n      swap1\n      sub\n      0x20\n      add\n      swap1\n      return\n        /* \"contracts/test-helpers/OMGLikeToken.sol\":2574:2675  function balanceOf(address _owner) constant returns (uint balance) {... */\n    tag_7:\n      jumpi(tag_28, iszero(callvalue))\n      invalid\n    tag_28:\n      tag_20\n      and(calldataload(0x4), 0xffffffffffffffffffffffffffffffffffffffff)\n      jump(tag_30)\n    tag_29:\n      0x40\n      dup1\n      mload\n      swap2\n      dup3\n      mstore\n      mload\n      swap1\n      dup2\n      swap1\n      sub\n      0x20\n      add\n      swap1\n      return\n        /* \"contracts/test-helpers/OMGLikeToken.sol\":7342:7462  function finishMinting() onlyOwner returns (bool) {... */\n    tag_8:\n      jumpi(tag_31, iszero(callvalue))\n      invalid\n    tag_31:\n      tag_14\n      jump(tag_33)\n    tag_32:\n      0x40\n      dup1\n      mload\n      swap2\n      iszero\n      iszero\n      dup3\n      mstore\n      mload\n      swap1\n      dup2\n      swap1\n      sub\n      0x20\n      add\n      swap1\n      return\n        /* \"contracts/test-helpers/OMGLikeToken.sol\":5585:5605  address public owner */\n    tag_9:\n      jumpi(tag_34, iszero(callvalue))\n      invalid\n    tag_34:\n      tag_35\n      jump(tag_36)\n    tag_35:\n      0x40\n      dup1\n      mload\n      0xffffffffffffffffffffffffffffffffffffffff\n      swap1\n      swap3\n      and\n      dup3\n      mstore\n      mload\n      swap1\n      dup2\n      swap1\n      sub\n      0x20\n      add\n      swap1\n      return\n        /* \"contracts/test-helpers/OMGLikeToken.sol\":2155:2375  function transfer(address _to, uint _value) onlyPayloadSize(2 * 32) {... */\n    tag_10:\n      jumpi(tag_37, iszero(callvalue))\n      invalid\n    tag_37:\n      tag_17\n      and(calldataload(0x4), 0xffffffffffffffffffffffffffffffffffffffff)\n      calldataload(0x24)\n      jump(tag_39)\n    tag_38:\n      stop\n        /* \"contracts/test-helpers/OMGLikeToken.sol\":5238:5368  function allowance(address _owner, address _spender) constant returns (uint remaining) {... */\n    tag_11:\n      jumpi(tag_40, iszero(callvalue))\n      invalid\n    tag_40:\n      tag_20\n      0xffffffffffffffffffffffffffffffffffffffff\n      calldataload(0x4)\n      dup2\n      and\n      swap1\n      calldataload(0x24)\n      and\n      jump(tag_42)\n    tag_41:\n      0x40\n      dup1\n      mload\n      swap2\n      dup3\n      mstore\n      mload\n      swap1\n      dup2\n      swap1\n      sub\n      0x20\n      add\n      swap1\n      return\n        /* \"contracts/test-helpers/OMGLikeToken.sol\":6101:6225  function transferOwnership(address newOwner) onlyOwner {... */\n    tag_12:\n      jumpi(tag_43, iszero(callvalue))\n      invalid\n    tag_43:\n      tag_17\n      and(calldataload(0x4), 0xffffffffffffffffffffffffffffffffffffffff)\n      jump(tag_45)\n    tag_44:\n      stop\n        /* \"contracts/test-helpers/OMGLikeToken.sol\":6646:6681  bool public mintingFinished = false */\n    tag_15:\n      sload(0x3)\n      0x10000000000000000000000000000000000000000\n      swap1\n      div\n      0xff\n      and\n      dup2\n      jump\t// out\n        /* \"contracts/test-helpers/OMGLikeToken.sol\":4424:4925  function approve(address _spender, uint _value) {... */\n    tag_18:\n        /* \"contracts/test-helpers/OMGLikeToken.sol\":4772:4783  _value != 0 */\n      dup1\n      iszero\n      dup1\n      iszero\n      swap1\n        /* \"contracts/test-helpers/OMGLikeToken.sol\":4771:4824  (_value != 0) && (allowed[msg.sender][_spender] != 0) */\n      tag_47\n      jumpi\n      pop\n        /* \"contracts/test-helpers/OMGLikeToken.sol\":4789:4808  allowed[msg.sender] */\n      0xffffffffffffffffffffffffffffffffffffffff\n        /* \"contracts/test-helpers/OMGLikeToken.sol\":4797:4807  msg.sender */\n      caller\n        /* \"contracts/test-helpers/OMGLikeToken.sol\":4789:4808  allowed[msg.sender] */\n      dup2\n      and\n      0x0\n      swap1\n      dup2\n      mstore\n        /* \"contracts/test-helpers/OMGLikeToken.sol\":4789:4796  allowed */\n      0x2\n        /* \"contracts/test-helpers/OMGLikeToken.sol\":4789:4808  allowed[msg.sender] */\n      0x20\n      swap1\n      dup2\n      mstore\n      0x40\n      dup1\n      dup4\n      sha3\n        /* \"contracts/test-helpers/OMGLikeToken.sol\":4789:4818  allowed[msg.sender][_spender] */\n      swap4\n      dup7\n      and\n      dup4\n      mstore\n      swap3\n      swap1\n      mstore\n      sha3\n      sload\n        /* \"contracts/test-helpers/OMGLikeToken.sol\":4789:4823  allowed[msg.sender][_spender] != 0 */\n      iszero\n      iszero\n        /* \"contracts/test-helpers/OMGLikeToken.sol\":4771:4824  (_value != 0) && (allowed[msg.sender][_spender] != 0) */\n    tag_47:\n        /* \"contracts/test-helpers/OMGLikeToken.sol\":4767:4831  if ((_value != 0) && (allowed[msg.sender][_spender] != 0)) throw */\n      iszero\n      tag_48\n      jumpi\n        /* \"contracts/test-helpers/OMGLikeToken.sol\":4826:4831  throw */\n      revert(0x0, 0x0)\n        /* \"contracts/test-helpers/OMGLikeToken.sol\":4767:4831  if ((_value != 0) && (allowed[msg.sender][_spender] != 0)) throw */\n    tag_48:\n        /* \"contracts/test-helpers/OMGLikeToken.sol\":4838:4857  allowed[msg.sender] */\n      0xffffffffffffffffffffffffffffffffffffffff\n        /* \"contracts/test-helpers/OMGLikeToken.sol\":4846:4856  msg.sender */\n      caller\n        /* \"contracts/test-helpers/OMGLikeToken.sol\":4838:4857  allowed[msg.sender] */\n      dup2\n      and\n      0x0\n      dup2\n      dup2\n      mstore\n        /* \"contracts/test-helpers/OMGLikeToken.sol\":4838:4845  allowed */\n      0x2\n        /* \"contracts/test-helpers/OMGLikeToken.sol\":4838:4857  allowed[msg.sender] */\n      0x20\n      swap1\n      dup2\n      mstore\n      0x40\n      dup1\n      dup4\n      sha3\n        /* \"contracts/test-helpers/OMGLikeToken.sol\":4838:4867  allowed[msg.sender][_spender] */\n      swap5\n      dup8\n      and\n      dup1\n      dup5\n      mstore\n      swap5\n      dup3\n      mstore\n      swap2\n      dup3\n      swap1\n      sha3\n        /* \"contracts/test-helpers/OMGLikeToken.sol\":4838:4876  allowed[msg.sender][_spender] = _value */\n      dup6\n      swap1\n      sstore\n        /* \"contracts/test-helpers/OMGLikeToken.sol\":4882:4920  Approval(msg.sender, _spender, _value) */\n      dup2\n      mload\n      dup6\n      dup2\n      mstore\n      swap2\n      mload\n      0x8c5be1e5ebec7d5bd14f71427d1e84f3dd0314c0f7b2291e5b200ac8c7c3b925\n      swap3\n      dup2\n      swap1\n      sub\n      swap1\n      swap2\n      add\n      swap1\n      log3\n        /* \"contracts/test-helpers/OMGLikeToken.sol\":4424:4925  function approve(address _spender, uint _value) {... */\n    tag_46:\n      pop\n      pop\n      jump\t// out\n        /* \"contracts/test-helpers/OMGLikeToken.sol\":6685:6712  uint public totalSupply = 0 */\n    tag_21:\n      sload(0x4)\n      dup2\n      jump\t// out\n        /* \"contracts/test-helpers/OMGLikeToken.sol\":3715:4193  function transferFrom(address _from, address _to, uint _value) onlyPayloadSize(3 * 32) {... */\n    tag_24:\n        /* \"contracts/test-helpers/OMGLikeToken.sol\":3808:3822  var _allowance */\n      0x0\n        /* \"contracts/test-helpers/OMGLikeToken.sol\":3794:3800  3 * 32 */\n      0x60\n        /* \"contracts/test-helpers/OMGLikeToken.sol\":1957:1965  size + 4 */\n      0x64\n        /* \"contracts/test-helpers/OMGLikeToken.sol\":1939:1947  msg.data */\n      calldatasize\n        /* \"contracts/test-helpers/OMGLikeToken.sol\":1939:1965  msg.data.length < size + 4 */\n      lt\n        /* \"contracts/test-helpers/OMGLikeToken.sol\":1936:1989  if(msg.data.length < size + 4) {... */\n      iszero\n      tag_50\n      jumpi\n        /* \"contracts/test-helpers/OMGLikeToken.sol\":1976:1981  throw */\n      revert(0x0, 0x0)\n        /* \"contracts/test-helpers/OMGLikeToken.sol\":1936:1989  if(msg.data.length < size + 4) {... */\n    tag_50:\n        /* \"contracts/test-helpers/OMGLikeToken.sol\":3825:3839  allowed[_from] */\n      0xffffffffffffffffffffffffffffffffffffffff\n      dup1\n      dup7\n      and\n      0x0\n      swap1\n      dup2\n      mstore\n        /* \"contracts/test-helpers/OMGLikeToken.sol\":3825:3832  allowed */\n      0x2\n        /* \"contracts/test-helpers/OMGLikeToken.sol\":3825:3839  allowed[_from] */\n      0x20\n      swap1\n      dup2\n      mstore\n      0x40\n      dup1\n      dup4\n      sha3\n        /* \"contracts/test-helpers/OMGLikeToken.sol\":3840:3850  msg.sender */\n      caller\n        /* \"contracts/test-helpers/OMGLikeToken.sol\":3825:3851  allowed[_from][msg.sender] */\n      dup6\n      and\n      dup5\n      mstore\n      dup3\n      mstore\n      dup1\n      dup4\n      sha3\n      sload\n        /* \"contracts/test-helpers/OMGLikeToken.sol\":4021:4034  balances[_to] */\n      swap4\n      dup9\n      and\n      dup4\n      mstore\n        /* \"contracts/test-helpers/OMGLikeToken.sol\":4021:4029  balances */\n      0x1\n        /* \"contracts/test-helpers/OMGLikeToken.sol\":4021:4034  balances[_to] */\n      swap1\n      swap2\n      mstore\n      swap1\n      sha3\n      sload\n        /* \"contracts/test-helpers/OMGLikeToken.sol\":3825:3851  allowed[_from][msg.sender] */\n      swap1\n      swap3\n      pop\n        /* \"contracts/test-helpers/OMGLikeToken.sol\":4021:4046  balances[_to].add(_value) */\n      tag_52\n      swap1\n        /* \"contracts/test-helpers/OMGLikeToken.sol\":4039:4045  _value */\n      dup5\n        /* \"contracts/test-helpers/OMGLikeToken.sol\":4021:4046  balances[_to].add(_value) */\n      0xffffffff\n        /* \"contracts/test-helpers/OMGLikeToken.sol\":4021:4038  balances[_to].add */\n      tag_53\n        /* \"contracts/test-helpers/OMGLikeToken.sol\":4021:4046  balances[_to].add(_value) */\n      and\n      jump\t// in\n    tag_52:\n        /* \"contracts/test-helpers/OMGLikeToken.sol\":4005:4018  balances[_to] */\n      0xffffffffffffffffffffffffffffffffffffffff\n      dup1\n      dup7\n      and\n      0x0\n      swap1\n      dup2\n      mstore\n        /* \"contracts/test-helpers/OMGLikeToken.sol\":4005:4013  balances */\n      0x1\n        /* \"contracts/test-helpers/OMGLikeToken.sol\":4005:4018  balances[_to] */\n      0x20\n      mstore\n      0x40\n      dup1\n      dup3\n      sha3\n        /* \"contracts/test-helpers/OMGLikeToken.sol\":4005:4046  balances[_to] = balances[_to].add(_value) */\n      swap4\n      swap1\n      swap4\n      sstore\n        /* \"contracts/test-helpers/OMGLikeToken.sol\":4070:4085  balances[_from] */\n      swap1\n      dup8\n      and\n      dup2\n      mstore\n      sha3\n      sload\n        /* \"contracts/test-helpers/OMGLikeToken.sol\":4070:4097  balances[_from].sub(_value) */\n      tag_54\n      swap1\n        /* \"contracts/test-helpers/OMGLikeToken.sol\":4090:4096  _value */\n      dup5\n        /* \"contracts/test-helpers/OMGLikeToken.sol\":4070:4097  balances[_from].sub(_value) */\n      0xffffffff\n        /* \"contracts/test-helpers/OMGLikeToken.sol\":4070:4089  balances[_from].sub */\n      tag_55\n        /* \"contracts/test-helpers/OMGLikeToken.sol\":4070:4097  balances[_from].sub(_value) */\n      and\n      jump\t// in\n    tag_54:\n        /* \"contracts/test-helpers/OMGLikeToken.sol\":4052:4067  balances[_from] */\n      0xffffffffffffffffffffffffffffffffffffffff\n      dup7\n      and\n      0x0\n      swap1\n      dup2\n      mstore\n        /* \"contracts/test-helpers/OMGLikeToken.sol\":4052:4060  balances */\n      0x1\n        /* \"contracts/test-helpers/OMGLikeToken.sol\":4052:4067  balances[_from] */\n      0x20\n      mstore\n      0x40\n      swap1\n      sha3\n        /* \"contracts/test-helpers/OMGLikeToken.sol\":4052:4097  balances[_from] = balances[_from].sub(_value) */\n      sstore\n        /* \"contracts/test-helpers/OMGLikeToken.sol\":4132:4154  _allowance.sub(_value) */\n      tag_56\n        /* \"contracts/test-helpers/OMGLikeToken.sol\":4132:4142  _allowance */\n      dup3\n        /* \"contracts/test-helpers/OMGLikeToken.sol\":4147:4153  _value */\n      dup5\n        /* \"contracts/test-helpers/OMGLikeToken.sol\":4132:4154  _allowance.sub(_value) */\n      0xffffffff\n        /* \"contracts/test-helpers/OMGLikeToken.sol\":4132:4146  _allowance.sub */\n      tag_55\n        /* \"contracts/test-helpers/OMGLikeToken.sol\":4132:4154  _allowance.sub(_value) */\n      and\n      jump\t// in\n    tag_56:\n        /* \"contracts/test-helpers/OMGLikeToken.sol\":4103:4117  allowed[_from] */\n      0xffffffffffffffffffffffffffffffffffffffff\n      dup1\n      dup8\n      and\n      0x0\n      dup2\n      dup2\n      mstore\n        /* \"contracts/test-helpers/OMGLikeToken.sol\":4103:4110  allowed */\n      0x2\n        /* \"contracts/test-helpers/OMGLikeToken.sol\":4103:4117  allowed[_from] */\n      0x20\n      swap1\n      dup2\n      mstore\n      0x40\n      dup1\n      dup4\n      sha3\n        /* \"contracts/test-helpers/OMGLikeToken.sol\":4118:4128  msg.sender */\n      caller\n        /* \"contracts/test-helpers/OMGLikeToken.sol\":4103:4129  allowed[_from][msg.sender] */\n      dup7\n      and\n      dup5\n      mstore\n      dup3\n      mstore\n      swap2\n      dup3\n      swap1\n      sha3\n        /* \"contracts/test-helpers/OMGLikeToken.sol\":4103:4154  allowed[_from][msg.sender] = _allowance.sub(_value) */\n      swap5\n      swap1\n      swap5\n      sstore\n        /* \"contracts/test-helpers/OMGLikeToken.sol\":4160:4188  Transfer(_from, _to, _value) */\n      dup1\n      mload\n      dup8\n      dup2\n      mstore\n      swap1\n      mload\n      swap3\n      dup9\n      and\n      swap4\n        /* \"contracts/test-helpers/OMGLikeToken.sol\":4103:4117  allowed[_from] */\n      swap2\n      swap3\n        /* \"contracts/test-helpers/OMGLikeToken.sol\":4160:4188  Transfer(_from, _to, _value) */\n      0xddf252ad1be2c89b69c2b068fc378daa952ba7f163c4a11628f55a4df523b3ef\n      swap3\n      swap2\n      dup2\n      swap1\n      sub\n      swap1\n      swap2\n      add\n      swap1\n      log3\n        /* \"contracts/test-helpers/OMGLikeToken.sol\":1995:1996  _ */\n    tag_51:\n        /* \"contracts/test-helpers/OMGLikeToken.sol\":3715:4193  function transferFrom(address _from, address _to, uint _value) onlyPayloadSize(3 * 32) {... */\n    tag_49:\n      pop\n      pop\n      pop\n      pop\n      pop\n      jump\t// out\n        /* \"contracts/test-helpers/OMGLikeToken.sol\":7016:7228  function mint(address _to, uint _amount) onlyOwner canMint returns (bool) {... */\n    tag_27:\n        /* \"contracts/test-helpers/OMGLikeToken.sol\":5901:5906  owner */\n      sload(0x3)\n        /* \"contracts/test-helpers/OMGLikeToken.sol\":7084:7088  bool */\n      0x0\n      swap1\n        /* \"contracts/test-helpers/OMGLikeToken.sol\":5887:5897  msg.sender */\n      caller\n        /* \"contracts/test-helpers/OMGLikeToken.sol\":5901:5906  owner */\n      0xffffffffffffffffffffffffffffffffffffffff\n        /* \"contracts/test-helpers/OMGLikeToken.sol\":5887:5906  msg.sender != owner */\n      swap1\n      dup2\n      and\n        /* \"contracts/test-helpers/OMGLikeToken.sol\":5901:5906  owner */\n      swap2\n      and\n        /* \"contracts/test-helpers/OMGLikeToken.sol\":5887:5906  msg.sender != owner */\n      eq\n        /* \"contracts/test-helpers/OMGLikeToken.sol\":5883:5928  if (msg.sender != owner) {... */\n      tag_58\n      jumpi\n        /* \"contracts/test-helpers/OMGLikeToken.sol\":5916:5921  throw */\n      revert(0x0, 0x0)\n        /* \"contracts/test-helpers/OMGLikeToken.sol\":5883:5928  if (msg.sender != owner) {... */\n    tag_58:\n        /* \"contracts/test-helpers/OMGLikeToken.sol\":6746:6761  mintingFinished */\n      sload(0x3)\n      0x10000000000000000000000000000000000000000\n      swap1\n      div\n      0xff\n      and\n        /* \"contracts/test-helpers/OMGLikeToken.sol\":6743:6768  if(mintingFinished) throw */\n      iszero\n      tag_60\n      jumpi\n        /* \"contracts/test-helpers/OMGLikeToken.sol\":6763:6768  throw */\n      revert(0x0, 0x0)\n        /* \"contracts/test-helpers/OMGLikeToken.sol\":6743:6768  if(mintingFinished) throw */\n    tag_60:\n        /* \"contracts/test-helpers/OMGLikeToken.sol\":7110:7121  totalSupply */\n      sload(0x4)\n        /* \"contracts/test-helpers/OMGLikeToken.sol\":7110:7134  totalSupply.add(_amount) */\n      tag_62\n      swap1\n        /* \"contracts/test-helpers/OMGLikeToken.sol\":7126:7133  _amount */\n      dup4\n        /* \"contracts/test-helpers/OMGLikeToken.sol\":7110:7134  totalSupply.add(_amount) */\n      0xffffffff\n        /* \"contracts/test-helpers/OMGLikeToken.sol\":7110:7125  totalSupply.add */\n      tag_53\n        /* \"contracts/test-helpers/OMGLikeToken.sol\":7110:7134  totalSupply.add(_amount) */\n      and\n      jump\t// in\n    tag_62:\n        /* \"contracts/test-helpers/OMGLikeToken.sol\":7096:7107  totalSupply */\n      0x4\n        /* \"contracts/test-helpers/OMGLikeToken.sol\":7096:7134  totalSupply = totalSupply.add(_amount) */\n      sstore\n        /* \"contracts/test-helpers/OMGLikeToken.sol\":7156:7169  balances[_to] */\n      0xffffffffffffffffffffffffffffffffffffffff\n      dup4\n      and\n      0x0\n      swap1\n      dup2\n      mstore\n        /* \"contracts/test-helpers/OMGLikeToken.sol\":7156:7164  balances */\n      0x1\n        /* \"contracts/test-helpers/OMGLikeToken.sol\":7156:7169  balances[_to] */\n      0x20\n      mstore\n      0x40\n      swap1\n      sha3\n      sload\n        /* \"contracts/test-helpers/OMGLikeToken.sol\":7156:7182  balances[_to].add(_amount) */\n      tag_63\n      swap1\n        /* \"contracts/test-helpers/OMGLikeToken.sol\":7174:7181  _amount */\n      dup4\n        /* \"contracts/test-helpers/OMGLikeToken.sol\":7156:7182  balances[_to].add(_amount) */\n      0xffffffff\n        /* \"contracts/test-helpers/OMGLikeToken.sol\":7156:7173  balances[_to].add */\n      tag_53\n        /* \"contracts/test-helpers/OMGLikeToken.sol\":7156:7182  balances[_to].add(_amount) */\n      and\n      jump\t// in\n    tag_63:\n        /* \"contracts/test-helpers/OMGLikeToken.sol\":7140:7153  balances[_to] */\n      0xffffffffffffffffffffffffffffffffffffffff\n      dup5\n      and\n      0x0\n      dup2\n      dup2\n      mstore\n        /* \"contracts/test-helpers/OMGLikeToken.sol\":7140:7148  balances */\n      0x1\n        /* \"contracts/test-helpers/OMGLikeToken.sol\":7140:7153  balances[_to] */\n      0x20\n      swap1\n      dup2\n      mstore\n      0x40\n      swap2\n      dup3\n      swap1\n      sha3\n        /* \"contracts/test-helpers/OMGLikeToken.sol\":7140:7182  balances[_to] = balances[_to].add(_amount) */\n      swap4\n      swap1\n      swap4\n      sstore\n        /* \"contracts/test-helpers/OMGLikeToken.sol\":7188:7206  Mint(_to, _amount) */\n      dup1\n      mload\n      dup6\n      dup2\n      mstore\n      swap1\n      mload\n        /* \"contracts/test-helpers/OMGLikeToken.sol\":7140:7153  balances[_to] */\n      swap2\n      swap3\n        /* \"contracts/test-helpers/OMGLikeToken.sol\":7188:7206  Mint(_to, _amount) */\n      0xf6798a560793a54c3bcfe86a93cde1e73087d944c0ea20544137d4121396885\n      swap3\n      swap2\n      dup3\n      swap1\n      sub\n      add\n      swap1\n      log2\n      pop\n        /* \"contracts/test-helpers/OMGLikeToken.sol\":7219:7223  true */\n      0x1\n        /* \"contracts/test-helpers/OMGLikeToken.sol\":6774:6775  _ */\n    tag_61:\n        /* \"contracts/test-helpers/OMGLikeToken.sol\":5933:5934  _ */\n    tag_59:\n        /* \"contracts/test-helpers/OMGLikeToken.sol\":7016:7228  function mint(address _to, uint _amount) onlyOwner canMint returns (bool) {... */\n    tag_57:\n      swap3\n      swap2\n      pop\n      pop\n      jump\t// out\n        /* \"contracts/test-helpers/OMGLikeToken.sol\":2574:2675  function balanceOf(address _owner) constant returns (uint balance) {... */\n    tag_30:\n        /* \"contracts/test-helpers/OMGLikeToken.sol\":2654:2670  balances[_owner] */\n      0xffffffffffffffffffffffffffffffffffffffff\n      dup2\n      and\n        /* \"contracts/test-helpers/OMGLikeToken.sol\":2627:2639  uint balance */\n      0x0\n        /* \"contracts/test-helpers/OMGLikeToken.sol\":2654:2670  balances[_owner] */\n      swap1\n      dup2\n      mstore\n        /* \"contracts/test-helpers/OMGLikeToken.sol\":2654:2662  balances */\n      0x1\n        /* \"contracts/test-helpers/OMGLikeToken.sol\":2654:2670  balances[_owner] */\n      0x20\n      mstore\n      0x40\n      swap1\n      sha3\n      sload\n        /* \"contracts/test-helpers/OMGLikeToken.sol\":2574:2675  function balanceOf(address _owner) constant returns (uint balance) {... */\n    tag_64:\n      swap2\n      swap1\n      pop\n      jump\t// out\n        /* \"contracts/test-helpers/OMGLikeToken.sol\":7342:7462  function finishMinting() onlyOwner returns (bool) {... */\n    tag_33:\n        /* \"contracts/test-helpers/OMGLikeToken.sol\":5901:5906  owner */\n      sload(0x3)\n        /* \"contracts/test-helpers/OMGLikeToken.sol\":7386:7390  bool */\n      0x0\n      swap1\n        /* \"contracts/test-helpers/OMGLikeToken.sol\":5887:5897  msg.sender */\n      caller\n        /* \"contracts/test-helpers/OMGLikeToken.sol\":5901:5906  owner */\n      0xffffffffffffffffffffffffffffffffffffffff\n        /* \"contracts/test-helpers/OMGLikeToken.sol\":5887:5906  msg.sender != owner */\n      swap1\n      dup2\n      and\n        /* \"contracts/test-helpers/OMGLikeToken.sol\":5901:5906  owner */\n      swap2\n      and\n        /* \"contracts/test-helpers/OMGLikeToken.sol\":5887:5906  msg.sender != owner */\n      eq\n        /* \"contracts/test-helpers/OMGLikeToken.sol\":5883:5928  if (msg.sender != owner) {... */\n      tag_66\n      jumpi\n        /* \"contracts/test-helpers/OMGLikeToken.sol\":5916:5921  throw */\n      revert(0x0, 0x0)\n        /* \"contracts/test-helpers/OMGLikeToken.sol\":5883:5928  if (msg.sender != owner) {... */\n    tag_66:\n        /* \"contracts/test-helpers/OMGLikeToken.sol\":7398:7413  mintingFinished */\n      0x3\n        /* \"contracts/test-helpers/OMGLikeToken.sol\":7398:7420  mintingFinished = true */\n      dup1\n      sload\n      0xffffffffffffffffffffff00ffffffffffffffffffffffffffffffffffffffff\n      and\n      0x10000000000000000000000000000000000000000\n      or\n      swap1\n      sstore\n        /* \"contracts/test-helpers/OMGLikeToken.sol\":7426:7440  MintFinished() */\n      mload(0x40)\n      0xae5184fba832cb2b1f702aca6117b8d265eaf03ad33eb133f19dde0f5920fa08\n      swap1\n        /* \"contracts/test-helpers/OMGLikeToken.sol\":7398:7420  mintingFinished = true */\n      0x0\n      swap1\n        /* \"contracts/test-helpers/OMGLikeToken.sol\":7426:7440  MintFinished() */\n      log1\n      pop\n        /* \"contracts/test-helpers/OMGLikeToken.sol\":7453:7457  true */\n      0x1\n        /* \"contracts/test-helpers/OMGLikeToken.sol\":5933:5934  _ */\n    tag_67:\n        /* \"contracts/test-helpers/OMGLikeToken.sol\":7342:7462  function finishMinting() onlyOwner returns (bool) {... */\n    tag_65:\n      swap1\n      jump\t// out\n        /* \"contracts/test-helpers/OMGLikeToken.sol\":5585:5605  address public owner */\n    tag_36:\n      and(0xffffffffffffffffffffffffffffffffffffffff, sload(0x3))\n      dup2\n      jump\t// out\n        /* \"contracts/test-helpers/OMGLikeToken.sol\":2155:2375  function transfer(address _to, uint _value) onlyPayloadSize(2 * 32) {... */\n    tag_39:\n        /* \"contracts/test-helpers/OMGLikeToken.sol\":2215:2221  2 * 32 */\n      0x40\n        /* \"contracts/test-helpers/OMGLikeToken.sol\":1957:1965  size + 4 */\n      0x44\n        /* \"contracts/test-helpers/OMGLikeToken.sol\":1939:1947  msg.data */\n      calldatasize\n        /* \"contracts/test-helpers/OMGLikeToken.sol\":1939:1965  msg.data.length < size + 4 */\n      lt\n        /* \"contracts/test-helpers/OMGLikeToken.sol\":1936:1989  if(msg.data.length < size + 4) {... */\n      iszero\n      tag_69\n      jumpi\n        /* \"contracts/test-helpers/OMGLikeToken.sol\":1976:1981  throw */\n      revert(0x0, 0x0)\n        /* \"contracts/test-helpers/OMGLikeToken.sol\":1936:1989  if(msg.data.length < size + 4) {... */\n    tag_69:\n        /* \"contracts/test-helpers/OMGLikeToken.sol\":2252:2272  balances[msg.sender] */\n      0xffffffffffffffffffffffffffffffffffffffff\n        /* \"contracts/test-helpers/OMGLikeToken.sol\":2261:2271  msg.sender */\n      caller\n        /* \"contracts/test-helpers/OMGLikeToken.sol\":2252:2272  balances[msg.sender] */\n      and\n      0x0\n      swap1\n      dup2\n      mstore\n        /* \"contracts/test-helpers/OMGLikeToken.sol\":2252:2260  balances */\n      0x1\n        /* \"contracts/test-helpers/OMGLikeToken.sol\":2252:2272  balances[msg.sender] */\n      0x20\n      mstore\n      0x40\n      swap1\n      sha3\n      sload\n        /* \"contracts/test-helpers/OMGLikeToken.sol\":2252:2284  balances[msg.sender].sub(_value) */\n      tag_71\n      swap1\n        /* \"contracts/test-helpers/OMGLikeToken.sol\":2277:2283  _value */\n      dup4\n        /* \"contracts/test-helpers/OMGLikeToken.sol\":2252:2284  balances[msg.sender].sub(_value) */\n      0xffffffff\n        /* \"contracts/test-helpers/OMGLikeToken.sol\":2252:2276  balances[msg.sender].sub */\n      tag_55\n        /* \"contracts/test-helpers/OMGLikeToken.sol\":2252:2284  balances[msg.sender].sub(_value) */\n      and\n      jump\t// in\n    tag_71:\n        /* \"contracts/test-helpers/OMGLikeToken.sol\":2229:2249  balances[msg.sender] */\n      0xffffffffffffffffffffffffffffffffffffffff\n        /* \"contracts/test-helpers/OMGLikeToken.sol\":2238:2248  msg.sender */\n      caller\n        /* \"contracts/test-helpers/OMGLikeToken.sol\":2229:2249  balances[msg.sender] */\n      dup2\n      and\n      0x0\n      swap1\n      dup2\n      mstore\n        /* \"contracts/test-helpers/OMGLikeToken.sol\":2229:2237  balances */\n      0x1\n        /* \"contracts/test-helpers/OMGLikeToken.sol\":2229:2249  balances[msg.sender] */\n      0x20\n      mstore\n      0x40\n      dup1\n      dup3\n      sha3\n        /* \"contracts/test-helpers/OMGLikeToken.sol\":2229:2284  balances[msg.sender] = balances[msg.sender].sub(_value) */\n      swap4\n      swap1\n      swap4\n      sstore\n        /* \"contracts/test-helpers/OMGLikeToken.sol\":2306:2319  balances[_to] */\n      swap1\n      dup6\n      and\n      dup2\n      mstore\n      sha3\n      sload\n        /* \"contracts/test-helpers/OMGLikeToken.sol\":2306:2331  balances[_to].add(_value) */\n      tag_72\n      swap1\n        /* \"contracts/test-helpers/OMGLikeToken.sol\":2324:2330  _value */\n      dup4\n        /* \"contracts/test-helpers/OMGLikeToken.sol\":2306:2331  balances[_to].add(_value) */\n      0xffffffff\n        /* \"contracts/test-helpers/OMGLikeToken.sol\":2306:2323  balances[_to].add */\n      tag_53\n        /* \"contracts/test-helpers/OMGLikeToken.sol\":2306:2331  balances[_to].add(_value) */\n      and\n      jump\t// in\n    tag_72:\n        /* \"contracts/test-helpers/OMGLikeToken.sol\":2290:2303  balances[_to] */\n      0xffffffffffffffffffffffffffffffffffffffff\n      dup1\n      dup6\n      and\n      0x0\n      dup2\n      dup2\n      mstore\n        /* \"contracts/test-helpers/OMGLikeToken.sol\":2290:2298  balances */\n      0x1\n        /* \"contracts/test-helpers/OMGLikeToken.sol\":2290:2303  balances[_to] */\n      0x20\n      swap1\n      dup2\n      mstore\n      0x40\n      swap2\n      dup3\n      swap1\n      sha3\n        /* \"contracts/test-helpers/OMGLikeToken.sol\":2290:2331  balances[_to] = balances[_to].add(_value) */\n      swap5\n      swap1\n      swap5\n      sstore\n        /* \"contracts/test-helpers/OMGLikeToken.sol\":2337:2370  Transfer(msg.sender, _to, _value) */\n      dup1\n      mload\n      dup7\n      dup2\n      mstore\n      swap1\n      mload\n        /* \"contracts/test-helpers/OMGLikeToken.sol\":2290:2303  balances[_to] */\n      swap2\n      swap4\n        /* \"contracts/test-helpers/OMGLikeToken.sol\":2346:2356  msg.sender */\n      caller\n        /* \"contracts/test-helpers/OMGLikeToken.sol\":2337:2370  Transfer(msg.sender, _to, _value) */\n      swap1\n      swap4\n      and\n      swap3\n      0xddf252ad1be2c89b69c2b068fc378daa952ba7f163c4a11628f55a4df523b3ef\n      swap3\n      swap2\n      dup3\n      swap1\n      sub\n      add\n      swap1\n      log3\n        /* \"contracts/test-helpers/OMGLikeToken.sol\":1995:1996  _ */\n    tag_70:\n        /* \"contracts/test-helpers/OMGLikeToken.sol\":2155:2375  function transfer(address _to, uint _value) onlyPayloadSize(2 * 32) {... */\n    tag_68:\n      pop\n      pop\n      pop\n      jump\t// out\n        /* \"contracts/test-helpers/OMGLikeToken.sol\":5238:5368  function allowance(address _owner, address _spender) constant returns (uint remaining) {... */\n    tag_42:\n        /* \"contracts/test-helpers/OMGLikeToken.sol\":5338:5353  allowed[_owner] */\n      0xffffffffffffffffffffffffffffffffffffffff\n      dup1\n      dup4\n      and\n        /* \"contracts/test-helpers/OMGLikeToken.sol\":5309:5323  uint remaining */\n      0x0\n        /* \"contracts/test-helpers/OMGLikeToken.sol\":5338:5353  allowed[_owner] */\n      swap1\n      dup2\n      mstore\n        /* \"contracts/test-helpers/OMGLikeToken.sol\":5338:5345  allowed */\n      0x2\n        /* \"contracts/test-helpers/OMGLikeToken.sol\":5338:5353  allowed[_owner] */\n      0x20\n      swap1\n      dup2\n      mstore\n      0x40\n      dup1\n      dup4\n      sha3\n        /* \"contracts/test-helpers/OMGLikeToken.sol\":5338:5363  allowed[_owner][_spender] */\n      swap4\n      dup6\n      and\n      dup4\n      mstore\n      swap3\n      swap1\n      mstore\n      sha3\n      sload\n        /* \"contracts/test-helpers/OMGLikeToken.sol\":5238:5368  function allowance(address _owner, address _spender) constant returns (uint remaining) {... */\n    tag_73:\n      swap3\n      swap2\n      pop\n      pop\n      jump\t// out\n        /* \"contracts/test-helpers/OMGLikeToken.sol\":6101:6225  function transferOwnership(address newOwner) onlyOwner {... */\n    tag_45:\n        /* \"contracts/test-helpers/OMGLikeToken.sol\":5901:5906  owner */\n      sload(0x3)\n        /* \"contracts/test-helpers/OMGLikeToken.sol\":5887:5897  msg.sender */\n      caller\n        /* \"contracts/test-helpers/OMGLikeToken.sol\":5901:5906  owner */\n      0xffffffffffffffffffffffffffffffffffffffff\n        /* \"contracts/test-helpers/OMGLikeToken.sol\":5887:5906  msg.sender != owner */\n      swap1\n      dup2\n      and\n        /* \"contracts/test-helpers/OMGLikeToken.sol\":5901:5906  owner */\n      swap2\n      and\n        /* \"contracts/test-helpers/OMGLikeToken.sol\":5887:5906  msg.sender != owner */\n      eq\n        /* \"contracts/test-helpers/OMGLikeToken.sol\":5883:5928  if (msg.sender != owner) {... */\n      tag_75\n      jumpi\n        /* \"contracts/test-helpers/OMGLikeToken.sol\":5916:5921  throw */\n      revert(0x0, 0x0)\n        /* \"contracts/test-helpers/OMGLikeToken.sol\":5883:5928  if (msg.sender != owner) {... */\n    tag_75:\n        /* \"contracts/test-helpers/OMGLikeToken.sol\":6166:6188  newOwner != address(0) */\n      0xffffffffffffffffffffffffffffffffffffffff\n      dup2\n      and\n      iszero\n        /* \"contracts/test-helpers/OMGLikeToken.sol\":6162:6221  if (newOwner != address(0)) {... */\n      tag_77\n      jumpi\n        /* \"contracts/test-helpers/OMGLikeToken.sol\":6198:6203  owner */\n      0x3\n        /* \"contracts/test-helpers/OMGLikeToken.sol\":6198:6214  owner = newOwner */\n      dup1\n      sload\n      0xffffffffffffffffffffffff0000000000000000000000000000000000000000\n      and\n      0xffffffffffffffffffffffffffffffffffffffff\n      dup4\n      and\n      or\n      swap1\n      sstore\n        /* \"contracts/test-helpers/OMGLikeToken.sol\":6162:6221  if (newOwner != address(0)) {... */\n    tag_77:\n        /* \"contracts/test-helpers/OMGLikeToken.sol\":5933:5934  _ */\n    tag_76:\n        /* \"contracts/test-helpers/OMGLikeToken.sol\":6101:6225  function transferOwnership(address newOwner) onlyOwner {... */\n    tag_74:\n      pop\n      jump\t// out\n        /* \"contracts/test-helpers/OMGLikeToken.sol\":643:755  function add(uint a, uint b) internal returns (uint) {... */\n    tag_53:\n        /* \"contracts/test-helpers/OMGLikeToken.sol\":690:694  uint */\n      0x0\n        /* \"contracts/test-helpers/OMGLikeToken.sol\":711:716  a + b */\n      dup3\n      dup3\n      add\n        /* \"contracts/test-helpers/OMGLikeToken.sol\":722:736  assert(c >= a) */\n      tag_79\n        /* \"contracts/test-helpers/OMGLikeToken.sol\":729:735  c >= a */\n      dup5\n      dup3\n      lt\n      iszero\n        /* \"contracts/test-helpers/OMGLikeToken.sol\":722:728  assert */\n      tag_80\n        /* \"contracts/test-helpers/OMGLikeToken.sol\":722:736  assert(c >= a) */\n      jump\t// in\n    tag_79:\n        /* \"contracts/test-helpers/OMGLikeToken.sol\":749:750  c */\n      dup1\n        /* \"contracts/test-helpers/OMGLikeToken.sol\":742:750  return c */\n      swap2\n      pop\n        /* \"contracts/test-helpers/OMGLikeToken.sol\":643:755  function add(uint a, uint b) internal returns (uint) {... */\n    tag_78:\n      pop\n      swap3\n      swap2\n      pop\n      pop\n      jump\t// out\n        /* \"contracts/test-helpers/OMGLikeToken.sol\":543:639  function sub(uint a, uint b) internal returns (uint) {... */\n    tag_55:\n        /* \"contracts/test-helpers/OMGLikeToken.sol\":590:594  uint */\n      0x0\n        /* \"contracts/test-helpers/OMGLikeToken.sol\":602:616  assert(b <= a) */\n      tag_82\n        /* \"contracts/test-helpers/OMGLikeToken.sol\":614:615  a */\n      dup4\n        /* \"contracts/test-helpers/OMGLikeToken.sol\":609:610  b */\n      dup4\n        /* \"contracts/test-helpers/OMGLikeToken.sol\":609:615  b <= a */\n      gt\n      iszero\n        /* \"contracts/test-helpers/OMGLikeToken.sol\":602:608  assert */\n      tag_80\n        /* \"contracts/test-helpers/OMGLikeToken.sol\":602:616  assert(b <= a) */\n      jump\t// in\n    tag_82:\n      pop\n        /* \"contracts/test-helpers/OMGLikeToken.sol\":629:634  a - b */\n      dup1\n      dup3\n      sub\n        /* \"contracts/test-helpers/OMGLikeToken.sol\":543:639  function sub(uint a, uint b) internal returns (uint) {... */\n    tag_81:\n      swap3\n      swap2\n      pop\n      pop\n      jump\t// out\n        /* \"contracts/test-helpers/OMGLikeToken.sol\":1189:1276  function assert(bool assertion) internal {... */\n    tag_80:\n        /* \"contracts/test-helpers/OMGLikeToken.sol\":1241:1250  assertion */\n      dup1\n        /* \"contracts/test-helpers/OMGLikeToken.sol\":1240:1250  !assertion */\n      iszero\n        /* \"contracts/test-helpers/OMGLikeToken.sol\":1236:1272  if (!assertion) {... */\n      iszero\n      tag_77\n      jumpi\n        /* \"contracts/test-helpers/OMGLikeToken.sol\":1260:1265  throw */\n      revert(0x0, 0x0)\n        /* \"contracts/test-helpers/OMGLikeToken.sol\":1236:1272  if (!assertion) {... */\n    tag_84:\n        /* \"contracts/test-helpers/OMGLikeToken.sol\":1189:1276  function assert(bool assertion) internal {... */\n    tag_83:\n      pop\n      jump\t// out\n}\n",
        "bytecode": {
          "linkReferences": {},
          "object": "60606040526003805460a060020a60ff021916905560006004555b60038054600160a060020a03191633600160a060020a03161790555b5b61091d806100466000396000f300606060405236156100ac5763ffffffff7c010000000000000000000000000000000000000000000000000000000060003504166305d2035b81146100ae578063095ea7b3146100d257806318160ddd1461010057806323b872dd1461012257806340c10f191461015657806370a08231146101965780637d64bcb4146101d15780638da5cb5b146101f5578063a9059cbb1461022e578063dd62ed3e1461025c578063f2fde38b1461029d575bfe5b34156100b657fe5b6100be6102c8565b604080519115158252519081900360200190f35b34156100da57fe5b6100fe73ffffffffffffffffffffffffffffffffffffffff600435166024356102e9565b005b341561010857fe5b6101106103a3565b60408051918252519081900360200190f35b341561012a57fe5b6100fe73ffffffffffffffffffffffffffffffffffffffff600435811690602435166044356103a9565b005b341561015e57fe5b6100be73ffffffffffffffffffffffffffffffffffffffff60043516602435610501565b604080519115158252519081900360200190f35b341561019e57fe5b61011073ffffffffffffffffffffffffffffffffffffffff6004351661060d565b60408051918252519081900360200190f35b34156101d957fe5b6100be610639565b604080519115158252519081900360200190f35b34156101fd57fe5b6102056106d5565b6040805173ffffffffffffffffffffffffffffffffffffffff9092168252519081900360200190f35b341561023657fe5b6100fe73ffffffffffffffffffffffffffffffffffffffff600435166024356106f1565b005b341561026457fe5b61011073ffffffffffffffffffffffffffffffffffffffff600435811690602435166107e6565b60408051918252519081900360200190f35b34156102a557fe5b6100fe73ffffffffffffffffffffffffffffffffffffffff60043516610820565b005b60035474010000000000000000000000000000000000000000900460ff1681565b8015801590610329575073ffffffffffffffffffffffffffffffffffffffff33811660009081526002602090815260408083209386168352929052205415155b156103345760006000fd5b73ffffffffffffffffffffffffffffffffffffffff338116600081815260026020908152604080832094871680845294825291829020859055815185815291517f8c5be1e5ebec7d5bd14f71427d1e84f3dd0314c0f7b2291e5b200ac8c7c3b9259281900390910190a35b5050565b60045481565b6000606060643610156103bc5760006000fd5b73ffffffffffffffffffffffffffffffffffffffff8086166000908152600260209081526040808320338516845282528083205493881683526001909152902054909250610410908463ffffffff6108ab16565b73ffffffffffffffffffffffffffffffffffffffff8086166000908152600160205260408082209390935590871681522054610452908463ffffffff6108c716565b73ffffffffffffffffffffffffffffffffffffffff8616600090815260016020526040902055610488828463ffffffff6108c716565b73ffffffffffffffffffffffffffffffffffffffff8087166000818152600260209081526040808320338616845282529182902094909455805187815290519288169391927fddf252ad1be2c89b69c2b068fc378daa952ba7f163c4a11628f55a4df523b3ef929181900390910190a35b5b5050505050565b6003546000903373ffffffffffffffffffffffffffffffffffffffff90811691161461052d5760006000fd5b60035474010000000000000000000000000000000000000000900460ff16156105565760006000fd5b600454610569908363ffffffff6108ab16565b60045573ffffffffffffffffffffffffffffffffffffffff83166000908152600160205260409020546105a2908363ffffffff6108ab16565b73ffffffffffffffffffffffffffffffffffffffff8416600081815260016020908152604091829020939093558051858152905191927f0f6798a560793a54c3bcfe86a93cde1e73087d944c0ea20544137d412139688592918290030190a25060015b5b5b92915050565b73ffffffffffffffffffffffffffffffffffffffff81166000908152600160205260409020545b919050565b6003546000903373ffffffffffffffffffffffffffffffffffffffff9081169116146106655760006000fd5b600380547fffffffffffffffffffffff00ffffffffffffffffffffffffffffffffffffffff16740100000000000000000000000000000000000000001790556040517fae5184fba832cb2b1f702aca6117b8d265eaf03ad33eb133f19dde0f5920fa0890600090a15060015b5b90565b60035473ffffffffffffffffffffffffffffffffffffffff1681565b604060443610156107025760006000fd5b73ffffffffffffffffffffffffffffffffffffffff3316600090815260016020526040902054610738908363ffffffff6108c716565b73ffffffffffffffffffffffffffffffffffffffff338116600090815260016020526040808220939093559085168152205461077a908363ffffffff6108ab16565b73ffffffffffffffffffffffffffffffffffffffff8085166000818152600160209081526040918290209490945580518681529051919333909316927fddf252ad1be2c89b69c2b068fc378daa952ba7f163c4a11628f55a4df523b3ef92918290030190a35b5b505050565b73ffffffffffffffffffffffffffffffffffffffff8083166000908152600260209081526040808320938516835292905220545b92915050565b6003543373ffffffffffffffffffffffffffffffffffffffff9081169116146108495760006000fd5b73ffffffffffffffffffffffffffffffffffffffff8116156108a657600380547fffffffffffffffffffffffff00000000000000000000000000000000000000001673ffffffffffffffffffffffffffffffffffffffff83161790555b5b5b50565b60008282016108bc848210156108e0565b8091505b5092915050565b60006108d5838311156108e0565b508082035b92915050565b8015156108a65760006000fd5b5b505600a165627a7a72305820feef53062c5a32e439aec3107643c0380a84ec395606969a71a9c2d953374dc80029",
          "opcodes": "PUSH1 0x60 PUSH1 0x40 MSTORE PUSH1 0x3 DUP1 SLOAD PUSH1 0xA0 PUSH1 0x2 EXP PUSH1 0xFF MUL NOT AND SWAP1 SSTORE PUSH1 0x0 PUSH1 0x4 SSTORE JUMPDEST PUSH1 0x3 DUP1 SLOAD PUSH1 0x1 PUSH1 0xA0 PUSH1 0x2 EXP SUB NOT AND CALLER PUSH1 0x1 PUSH1 0xA0 PUSH1 0x2 EXP SUB AND OR SWAP1 SSTORE JUMPDEST JUMPDEST PUSH2 0x91D DUP1 PUSH2 0x46 PUSH1 0x0 CODECOPY PUSH1 0x0 RETURN STOP PUSH1 0x60 PUSH1 0x40 MSTORE CALLDATASIZE ISZERO PUSH2 0xAC JUMPI PUSH4 0xFFFFFFFF PUSH29 0x100000000000000000000000000000000000000000000000000000000 PUSH1 0x0 CALLDATALOAD DIV AND PUSH4 0x5D2035B DUP2 EQ PUSH2 0xAE JUMPI DUP1 PUSH4 0x95EA7B3 EQ PUSH2 0xD2 JUMPI DUP1 PUSH4 0x18160DDD EQ PUSH2 0x100 JUMPI DUP1 PUSH4 0x23B872DD EQ PUSH2 0x122 JUMPI DUP1 PUSH4 0x40C10F19 EQ PUSH2 0x156 JUMPI DUP1 PUSH4 0x70A08231 EQ PUSH2 0x196 JUMPI DUP1 PUSH4 0x7D64BCB4 EQ PUSH2 0x1D1 JUMPI DUP1 PUSH4 0x8DA5CB5B EQ PUSH2 0x1F5 JUMPI DUP1 PUSH4 0xA9059CBB EQ PUSH2 0x22E JUMPI DUP1 PUSH4 0xDD62ED3E EQ PUSH2 0x25C JUMPI DUP1 PUSH4 0xF2FDE38B EQ PUSH2 0x29D JUMPI JUMPDEST INVALID JUMPDEST CALLVALUE ISZERO PUSH2 0xB6 JUMPI INVALID JUMPDEST PUSH2 0xBE PUSH2 0x2C8 JUMP JUMPDEST PUSH1 0x40 DUP1 MLOAD SWAP2 ISZERO ISZERO DUP3 MSTORE MLOAD SWAP1 DUP2 SWAP1 SUB PUSH1 0x20 ADD SWAP1 RETURN JUMPDEST CALLVALUE ISZERO PUSH2 0xDA JUMPI INVALID JUMPDEST PUSH2 0xFE PUSH20 0xFFFFFFFFFFFFFFFFFFFFFFFFFFFFFFFFFFFFFFFF PUSH1 0x4 CALLDATALOAD AND PUSH1 0x24 CALLDATALOAD PUSH2 0x2E9 JUMP JUMPDEST STOP JUMPDEST CALLVALUE ISZERO PUSH2 0x108 JUMPI INVALID JUMPDEST PUSH2 0x110 PUSH2 0x3A3 JUMP JUMPDEST PUSH1 0x40 DUP1 MLOAD SWAP2 DUP3 MSTORE MLOAD SWAP1 DUP2 SWAP1 SUB PUSH1 0x20 ADD SWAP1 RETURN JUMPDEST CALLVALUE ISZERO PUSH2 0x12A JUMPI INVALID JUMPDEST PUSH2 0xFE PUSH20 0xFFFFFFFFFFFFFFFFFFFFFFFFFFFFFFFFFFFFFFFF PUSH1 0x4 CALLDATALOAD DUP2 AND SWAP1 PUSH1 0x24 CALLDATALOAD AND PUSH1 0x44 CALLDATALOAD PUSH2 0x3A9 JUMP JUMPDEST STOP JUMPDEST CALLVALUE ISZERO PUSH2 0x15E JUMPI INVALID JUMPDEST PUSH2 0xBE PUSH20 0xFFFFFFFFFFFFFFFFFFFFFFFFFFFFFFFFFFFFFFFF PUSH1 0x4 CALLDATALOAD AND PUSH1 0x24 CALLDATALOAD PUSH2 0x501 JUMP JUMPDEST PUSH1 0x40 DUP1 MLOAD SWAP2 ISZERO ISZERO DUP3 MSTORE MLOAD SWAP1 DUP2 SWAP1 SUB PUSH1 0x20 ADD SWAP1 RETURN JUMPDEST CALLVALUE ISZERO PUSH2 0x19E JUMPI INVALID JUMPDEST PUSH2 0x110 PUSH20 0xFFFFFFFFFFFFFFFFFFFFFFFFFFFFFFFFFFFFFFFF PUSH1 0x4 CALLDATALOAD AND PUSH2 0x60D JUMP JUMPDEST PUSH1 0x40 DUP1 MLOAD SWAP2 DUP3 MSTORE MLOAD SWAP1 DUP2 SWAP1 SUB PUSH1 0x20 ADD SWAP1 RETURN JUMPDEST CALLVALUE ISZERO PUSH2 0x1D9 JUMPI INVALID JUMPDEST PUSH2 0xBE PUSH2 0x639 JUMP JUMPDEST PUSH1 0x40 DUP1 MLOAD SWAP2 ISZERO ISZERO DUP3 MSTORE MLOAD SWAP1 DUP2 SWAP1 SUB PUSH1 0x20 ADD SWAP1 RETURN JUMPDEST CALLVALUE ISZERO PUSH2 0x1FD JUMPI INVALID JUMPDEST PUSH2 0x205 PUSH2 0x6D5 JUMP JUMPDEST PUSH1 0x40 DUP1 MLOAD PUSH20 0xFFFFFFFFFFFFFFFFFFFFFFFFFFFFFFFFFFFFFFFF SWAP1 SWAP3 AND DUP3 MSTORE MLOAD SWAP1 DUP2 SWAP1 SUB PUSH1 0x20 ADD SWAP1 RETURN JUMPDEST CALLVALUE ISZERO PUSH2 0x236 JUMPI INVALID JUMPDEST PUSH2 0xFE PUSH20 0xFFFFFFFFFFFFFFFFFFFFFFFFFFFFFFFFFFFFFFFF PUSH1 0x4 CALLDATALOAD AND PUSH1 0x24 CALLDATALOAD PUSH2 0x6F1 JUMP JUMPDEST STOP JUMPDEST CALLVALUE ISZERO PUSH2 0x264 JUMPI INVALID JUMPDEST PUSH2 0x110 PUSH20 0xFFFFFFFFFFFFFFFFFFFFFFFFFFFFFFFFFFFFFFFF PUSH1 0x4 CALLDATALOAD DUP2 AND SWAP1 PUSH1 0x24 CALLDATALOAD AND PUSH2 0x7E6 JUMP JUMPDEST PUSH1 0x40 DUP1 MLOAD SWAP2 DUP3 MSTORE MLOAD SWAP1 DUP2 SWAP1 SUB PUSH1 0x20 ADD SWAP1 RETURN JUMPDEST CALLVALUE ISZERO PUSH2 0x2A5 JUMPI INVALID JUMPDEST PUSH2 0xFE PUSH20 0xFFFFFFFFFFFFFFFFFFFFFFFFFFFFFFFFFFFFFFFF PUSH1 0x4 CALLDATALOAD AND PUSH2 0x820 JUMP JUMPDEST STOP JUMPDEST PUSH1 0x3 SLOAD PUSH21 0x10000000000000000000000000000000000000000 SWAP1 DIV PUSH1 0xFF AND DUP2 JUMP JUMPDEST DUP1 ISZERO DUP1 ISZERO SWAP1 PUSH2 0x329 JUMPI POP PUSH20 0xFFFFFFFFFFFFFFFFFFFFFFFFFFFFFFFFFFFFFFFF CALLER DUP2 AND PUSH1 0x0 SWAP1 DUP2 MSTORE PUSH1 0x2 PUSH1 0x20 SWAP1 DUP2 MSTORE PUSH1 0x40 DUP1 DUP4 SHA3 SWAP4 DUP7 AND DUP4 MSTORE SWAP3 SWAP1 MSTORE SHA3 SLOAD ISZERO ISZERO JUMPDEST ISZERO PUSH2 0x334 JUMPI PUSH1 0x0 PUSH1 0x0 REVERT JUMPDEST PUSH20 0xFFFFFFFFFFFFFFFFFFFFFFFFFFFFFFFFFFFFFFFF CALLER DUP2 AND PUSH1 0x0 DUP2 DUP2 MSTORE PUSH1 0x2 PUSH1 0x20 SWAP1 DUP2 MSTORE PUSH1 0x40 DUP1 DUP4 SHA3 SWAP5 DUP8 AND DUP1 DUP5 MSTORE SWAP5 DUP3 MSTORE SWAP2 DUP3 SWAP1 SHA3 DUP6 SWAP1 SSTORE DUP2 MLOAD DUP6 DUP2 MSTORE SWAP2 MLOAD PUSH32 0x8C5BE1E5EBEC7D5BD14F71427D1E84F3DD0314C0F7B2291E5B200AC8C7C3B925 SWAP3 DUP2 SWAP1 SUB SWAP1 SWAP2 ADD SWAP1 LOG3 JUMPDEST POP POP JUMP JUMPDEST PUSH1 0x4 SLOAD DUP2 JUMP JUMPDEST PUSH1 0x0 PUSH1 0x60 PUSH1 0x64 CALLDATASIZE LT ISZERO PUSH2 0x3BC JUMPI PUSH1 0x0 PUSH1 0x0 REVERT JUMPDEST PUSH20 0xFFFFFFFFFFFFFFFFFFFFFFFFFFFFFFFFFFFFFFFF DUP1 DUP7 AND PUSH1 0x0 SWAP1 DUP2 MSTORE PUSH1 0x2 PUSH1 0x20 SWAP1 DUP2 MSTORE PUSH1 0x40 DUP1 DUP4 SHA3 CALLER DUP6 AND DUP5 MSTORE DUP3 MSTORE DUP1 DUP4 SHA3 SLOAD SWAP4 DUP9 AND DUP4 MSTORE PUSH1 0x1 SWAP1 SWAP2 MSTORE SWAP1 SHA3 SLOAD SWAP1 SWAP3 POP PUSH2 0x410 SWAP1 DUP5 PUSH4 0xFFFFFFFF PUSH2 0x8AB AND JUMP JUMPDEST PUSH20 0xFFFFFFFFFFFFFFFFFFFFFFFFFFFFFFFFFFFFFFFF DUP1 DUP7 AND PUSH1 0x0 SWAP1 DUP2 MSTORE PUSH1 0x1 PUSH1 0x20 MSTORE PUSH1 0x40 DUP1 DUP3 SHA3 SWAP4 SWAP1 SWAP4 SSTORE SWAP1 DUP8 AND DUP2 MSTORE SHA3 SLOAD PUSH2 0x452 SWAP1 DUP5 PUSH4 0xFFFFFFFF PUSH2 0x8C7 AND JUMP JUMPDEST PUSH20 0xFFFFFFFFFFFFFFFFFFFFFFFFFFFFFFFFFFFFFFFF DUP7 AND PUSH1 0x0 SWAP1 DUP2 MSTORE PUSH1 0x1 PUSH1 0x20 MSTORE PUSH1 0x40 SWAP1 SHA3 SSTORE PUSH2 0x488 DUP3 DUP5 PUSH4 0xFFFFFFFF PUSH2 0x8C7 AND JUMP JUMPDEST PUSH20 0xFFFFFFFFFFFFFFFFFFFFFFFFFFFFFFFFFFFFFFFF DUP1 DUP8 AND PUSH1 0x0 DUP2 DUP2 MSTORE PUSH1 0x2 PUSH1 0x20 SWAP1 DUP2 MSTORE PUSH1 0x40 DUP1 DUP4 SHA3 CALLER DUP7 AND DUP5 MSTORE DUP3 MSTORE SWAP2 DUP3 SWAP1 SHA3 SWAP5 SWAP1 SWAP5 SSTORE DUP1 MLOAD DUP8 DUP2 MSTORE SWAP1 MLOAD SWAP3 DUP9 AND SWAP4 SWAP2 SWAP3 PUSH32 0xDDF252AD1BE2C89B69C2B068FC378DAA952BA7F163C4A11628F55A4DF523B3EF SWAP3 SWAP2 DUP2 SWAP1 SUB SWAP1 SWAP2 ADD SWAP1 LOG3 JUMPDEST JUMPDEST POP POP POP POP POP JUMP JUMPDEST PUSH1 0x3 SLOAD PUSH1 0x0 SWAP1 CALLER PUSH20 0xFFFFFFFFFFFFFFFFFFFFFFFFFFFFFFFFFFFFFFFF SWAP1 DUP2 AND SWAP2 AND EQ PUSH2 0x52D JUMPI PUSH1 0x0 PUSH1 0x0 REVERT JUMPDEST PUSH1 0x3 SLOAD PUSH21 0x10000000000000000000000000000000000000000 SWAP1 DIV PUSH1 0xFF AND ISZERO PUSH2 0x556 JUMPI PUSH1 0x0 PUSH1 0x0 REVERT JUMPDEST PUSH1 0x4 SLOAD PUSH2 0x569 SWAP1 DUP4 PUSH4 0xFFFFFFFF PUSH2 0x8AB AND JUMP JUMPDEST PUSH1 0x4 SSTORE PUSH20 0xFFFFFFFFFFFFFFFFFFFFFFFFFFFFFFFFFFFFFFFF DUP4 AND PUSH1 0x0 SWAP1 DUP2 MSTORE PUSH1 0x1 PUSH1 0x20 MSTORE PUSH1 0x40 SWAP1 SHA3 SLOAD PUSH2 0x5A2 SWAP1 DUP4 PUSH4 0xFFFFFFFF PUSH2 0x8AB AND JUMP JUMPDEST PUSH20 0xFFFFFFFFFFFFFFFFFFFFFFFFFFFFFFFFFFFFFFFF DUP5 AND PUSH1 0x0 DUP2 DUP2 MSTORE PUSH1 0x1 PUSH1 0x20 SWAP1 DUP2 MSTORE PUSH1 0x40 SWAP2 DUP3 SWAP1 SHA3 SWAP4 SWAP1 SWAP4 SSTORE DUP1 MLOAD DUP6 DUP2 MSTORE SWAP1 MLOAD SWAP2 SWAP3 PUSH32 0xF6798A560793A54C3BCFE86A93CDE1E73087D944C0EA20544137D4121396885 SWAP3 SWAP2 DUP3 SWAP1 SUB ADD SWAP1 LOG2 POP PUSH1 0x1 JUMPDEST JUMPDEST JUMPDEST SWAP3 SWAP2 POP POP JUMP JUMPDEST PUSH20 0xFFFFFFFFFFFFFFFFFFFFFFFFFFFFFFFFFFFFFFFF DUP2 AND PUSH1 0x0 SWAP1 DUP2 MSTORE PUSH1 0x1 PUSH1 0x20 MSTORE PUSH1 0x40 SWAP1 SHA3 SLOAD JUMPDEST SWAP2 SWAP1 POP JUMP JUMPDEST PUSH1 0x3 SLOAD PUSH1 0x0 SWAP1 CALLER PUSH20 0xFFFFFFFFFFFFFFFFFFFFFFFFFFFFFFFFFFFFFFFF SWAP1 DUP2 AND SWAP2 AND EQ PUSH2 0x665 JUMPI PUSH1 0x0 PUSH1 0x0 REVERT JUMPDEST PUSH1 0x3 DUP1 SLOAD PUSH32 0xFFFFFFFFFFFFFFFFFFFFFF00FFFFFFFFFFFFFFFFFFFFFFFFFFFFFFFFFFFFFFFF AND PUSH21 0x10000000000000000000000000000000000000000 OR SWAP1 SSTORE PUSH1 0x40 MLOAD PUSH32 0xAE5184FBA832CB2B1F702ACA6117B8D265EAF03AD33EB133F19DDE0F5920FA08 SWAP1 PUSH1 0x0 SWAP1 LOG1 POP PUSH1 0x1 JUMPDEST JUMPDEST SWAP1 JUMP JUMPDEST PUSH1 0x3 SLOAD PUSH20 0xFFFFFFFFFFFFFFFFFFFFFFFFFFFFFFFFFFFFFFFF AND DUP2 JUMP JUMPDEST PUSH1 0x40 PUSH1 0x44 CALLDATASIZE LT ISZERO PUSH2 0x702 JUMPI PUSH1 0x0 PUSH1 0x0 REVERT JUMPDEST PUSH20 0xFFFFFFFFFFFFFFFFFFFFFFFFFFFFFFFFFFFFFFFF CALLER AND PUSH1 0x0 SWAP1 DUP2 MSTORE PUSH1 0x1 PUSH1 0x20 MSTORE PUSH1 0x40 SWAP1 SHA3 SLOAD PUSH2 0x738 SWAP1 DUP4 PUSH4 0xFFFFFFFF PUSH2 0x8C7 AND JUMP JUMPDEST PUSH20 0xFFFFFFFFFFFFFFFFFFFFFFFFFFFFFFFFFFFFFFFF CALLER DUP2 AND PUSH1 0x0 SWAP1 DUP2 MSTORE PUSH1 0x1 PUSH1 0x20 MSTORE PUSH1 0x40 DUP1 DUP3 SHA3 SWAP4 SWAP1 SWAP4 SSTORE SWAP1 DUP6 AND DUP2 MSTORE SHA3 SLOAD PUSH2 0x77A SWAP1 DUP4 PUSH4 0xFFFFFFFF PUSH2 0x8AB AND JUMP JUMPDEST PUSH20 0xFFFFFFFFFFFFFFFFFFFFFFFFFFFFFFFFFFFFFFFF DUP1 DUP6 AND PUSH1 0x0 DUP2 DUP2 MSTORE PUSH1 0x1 PUSH1 0x20 SWAP1 DUP2 MSTORE PUSH1 0x40 SWAP2 DUP3 SWAP1 SHA3 SWAP5 SWAP1 SWAP5 SSTORE DUP1 MLOAD DUP7 DUP2 MSTORE SWAP1 MLOAD SWAP2 SWAP4 CALLER SWAP1 SWAP4 AND SWAP3 PUSH32 0xDDF252AD1BE2C89B69C2B068FC378DAA952BA7F163C4A11628F55A4DF523B3EF SWAP3 SWAP2 DUP3 SWAP1 SUB ADD SWAP1 LOG3 JUMPDEST JUMPDEST POP POP POP JUMP JUMPDEST PUSH20 0xFFFFFFFFFFFFFFFFFFFFFFFFFFFFFFFFFFFFFFFF DUP1 DUP4 AND PUSH1 0x0 SWAP1 DUP2 MSTORE PUSH1 0x2 PUSH1 0x20 SWAP1 DUP2 MSTORE PUSH1 0x40 DUP1 DUP4 SHA3 SWAP4 DUP6 AND DUP4 MSTORE SWAP3 SWAP1 MSTORE SHA3 SLOAD JUMPDEST SWAP3 SWAP2 POP POP JUMP JUMPDEST PUSH1 0x3 SLOAD CALLER PUSH20 0xFFFFFFFFFFFFFFFFFFFFFFFFFFFFFFFFFFFFFFFF SWAP1 DUP2 AND SWAP2 AND EQ PUSH2 0x849 JUMPI PUSH1 0x0 PUSH1 0x0 REVERT JUMPDEST PUSH20 0xFFFFFFFFFFFFFFFFFFFFFFFFFFFFFFFFFFFFFFFF DUP2 AND ISZERO PUSH2 0x8A6 JUMPI PUSH1 0x3 DUP1 SLOAD PUSH32 0xFFFFFFFFFFFFFFFFFFFFFFFF0000000000000000000000000000000000000000 AND PUSH20 0xFFFFFFFFFFFFFFFFFFFFFFFFFFFFFFFFFFFFFFFF DUP4 AND OR SWAP1 SSTORE JUMPDEST JUMPDEST JUMPDEST POP JUMP JUMPDEST PUSH1 0x0 DUP3 DUP3 ADD PUSH2 0x8BC DUP5 DUP3 LT ISZERO PUSH2 0x8E0 JUMP JUMPDEST DUP1 SWAP2 POP JUMPDEST POP SWAP3 SWAP2 POP POP JUMP JUMPDEST PUSH1 0x0 PUSH2 0x8D5 DUP4 DUP4 GT ISZERO PUSH2 0x8E0 JUMP JUMPDEST POP DUP1 DUP3 SUB JUMPDEST SWAP3 SWAP2 POP POP JUMP JUMPDEST DUP1 ISZERO ISZERO PUSH2 0x8A6 JUMPI PUSH1 0x0 PUSH1 0x0 REVERT JUMPDEST JUMPDEST POP JUMP STOP LOG1 PUSH6 0x627A7A723058 SHA3 INVALID 0xef MSTORE8 MOD 0x2c GAS ORIGIN 0xe4 CODECOPY 0xae 0xc3 LT PUSH23 0x43C0380A84EC395606969A71A9C2D953374DC800290000 "
        },
        "gasEstimates": {
          "creation": {
            "codeDepositCost": "466600",
            "executionCost": "46140",
            "totalCost": "512740"
          },
          "external": {
            "allowance(address,address)": "759",
            "approve(address,uint256)": "22556",
            "balanceOf(address)": "576",
            "finishMinting()": "21550",
            "mint(address,uint256)": "infinite",
            "mintingFinished()": "396",
            "owner()": "542",
            "totalSupply()": "417",
            "transfer(address,uint256)": "infinite",
            "transferFrom(address,address,uint256)": "infinite",
            "transferOwnership(address)": "20851"
          }
        },
        "methodIdentifiers": {
          "allowance(address,address)": "dd62ed3e",
          "approve(address,uint256)": "095ea7b3",
          "balanceOf(address)": "70a08231",
          "finishMinting()": "7d64bcb4",
          "mint(address,uint256)": "40c10f19",
          "mintingFinished()": "05d2035b",
          "owner()": "8da5cb5b",
          "totalSupply()": "18160ddd",
          "transfer(address,uint256)": "a9059cbb",
          "transferFrom(address,address,uint256)": "23b872dd",
          "transferOwnership(address)": "f2fde38b"
        }
      },
      "userdoc": {
        "methods": {}
      }
    }
  }
}