{
  "contracts/test-helpers/OMGLikeToken.sol": {
    "PausableToken": {
      "abi": [
        {
          "constant": false,
          "inputs": [
            {
              "name": "_spender",
              "type": "address"
            },
            {
              "name": "_value",
              "type": "uint256"
            }
          ],
          "name": "approve",
          "outputs": [],
          "payable": false,
          "type": "function"
        },
        {
          "constant": true,
          "inputs": [],
          "name": "totalSupply",
          "outputs": [
            {
              "name": "",
              "type": "uint256"
            }
          ],
          "payable": false,
          "type": "function"
        },
        {
          "constant": false,
          "inputs": [
            {
              "name": "_from",
              "type": "address"
            },
            {
              "name": "_to",
              "type": "address"
            },
            {
              "name": "_value",
              "type": "uint256"
            }
          ],
          "name": "transferFrom",
          "outputs": [],
          "payable": false,
          "type": "function"
        },
        {
          "constant": false,
          "inputs": [],
          "name": "unpause",
          "outputs": [
            {
              "name": "",
              "type": "bool"
            }
          ],
          "payable": false,
          "type": "function"
        },
        {
          "constant": true,
          "inputs": [],
          "name": "paused",
          "outputs": [
            {
              "name": "",
              "type": "bool"
            }
          ],
          "payable": false,
          "type": "function"
        },
        {
          "constant": true,
          "inputs": [
            {
              "name": "_owner",
              "type": "address"
            }
          ],
          "name": "balanceOf",
          "outputs": [
            {
              "name": "balance",
              "type": "uint256"
            }
          ],
          "payable": false,
          "type": "function"
        },
        {
          "constant": false,
          "inputs": [],
          "name": "pause",
          "outputs": [
            {
              "name": "",
              "type": "bool"
            }
          ],
          "payable": false,
          "type": "function"
        },
        {
          "constant": true,
          "inputs": [],
          "name": "owner",
          "outputs": [
            {
              "name": "",
              "type": "address"
            }
          ],
          "payable": false,
          "type": "function"
        },
        {
          "constant": false,
          "inputs": [
            {
              "name": "_to",
              "type": "address"
            },
            {
              "name": "_value",
              "type": "uint256"
            }
          ],
          "name": "transfer",
          "outputs": [],
          "payable": false,
          "type": "function"
        },
        {
          "constant": true,
          "inputs": [
            {
              "name": "_owner",
              "type": "address"
            },
            {
              "name": "_spender",
              "type": "address"
            }
          ],
          "name": "allowance",
          "outputs": [
            {
              "name": "remaining",
              "type": "uint256"
            }
          ],
          "payable": false,
          "type": "function"
        },
        {
          "constant": false,
          "inputs": [
            {
              "name": "newOwner",
              "type": "address"
            }
          ],
          "name": "transferOwnership",
          "outputs": [],
          "payable": false,
          "type": "function"
        },
        {
          "anonymous": false,
          "inputs": [],
          "name": "Pause",
          "type": "event"
        },
        {
          "anonymous": false,
          "inputs": [],
          "name": "Unpause",
          "type": "event"
        },
        {
          "anonymous": false,
          "inputs": [
            {
              "indexed": true,
              "name": "owner",
              "type": "address"
            },
            {
              "indexed": true,
              "name": "spender",
              "type": "address"
            },
            {
              "indexed": false,
              "name": "value",
              "type": "uint256"
            }
          ],
          "name": "Approval",
          "type": "event"
        },
        {
          "anonymous": false,
          "inputs": [
            {
              "indexed": true,
              "name": "from",
              "type": "address"
            },
            {
              "indexed": true,
              "name": "to",
              "type": "address"
            },
            {
              "indexed": false,
              "name": "value",
              "type": "uint256"
            }
          ],
          "name": "Transfer",
          "type": "event"
        }
      ],
      "devdoc": {
        "methods": {
          "allowance(address,address)": {
            "details": "Function to check the amount of tokens than an owner allowed to a spender.",
            "params": {
              "_owner": "address The address which owns the funds.",
              "_spender": "address The address which will spend the funds."
            },
            "return": "A uint specifing the amount of tokens still avaible for the spender."
          },
          "approve(address,uint256)": {
            "details": "Aprove the passed address to spend the specified amount of tokens on beahlf of msg.sender.",
            "params": {
              "_spender": "The address which will spend the funds.",
              "_value": "The amount of tokens to be spent."
            }
          },
          "balanceOf(address)": {
            "details": "Gets the balance of the specified address.",
            "params": {
              "_owner": "The address to query the the balance of."
            },
            "return": "An uint representing the amount owned by the passed address."
          },
          "pause()": {
            "details": "called by the owner to pause, triggers stopped state"
          },
          "transferOwnership(address)": {
            "details": "Allows the current owner to transfer control of the contract to a newOwner.",
            "params": {
              "newOwner": "The address to transfer ownership to."
            }
          },
          "unpause()": {
            "details": "called by the owner to unpause, returns to normal state"
          }
        }
      },
      "evm": {
        "assembly": "    /* \"contracts/test-helpers/OMGLikeToken.sol\":8447:8730  contract PausableToken is StandardToken, Pausable {... */\n  mstore(0x40, 0x60)\n    /* \"contracts/test-helpers/OMGLikeToken.sol\":7650:7676  bool public paused = false */\n  0x3\n  dup1\n  sload\n  not(mul(0xff, exp(0x2, 0xa0)))\n  and\n  swap1\n  sstore\n    /* \"contracts/test-helpers/OMGLikeToken.sol\":5727:5775  function Ownable() {... */\ntag_1:\n    /* \"contracts/test-helpers/OMGLikeToken.sol\":5752:5757  owner */\n  0x3\n    /* \"contracts/test-helpers/OMGLikeToken.sol\":5752:5770  owner = msg.sender */\n  dup1\n  sload\n  not(sub(exp(0x2, 0xa0), 0x1))\n  and\n    /* \"contracts/test-helpers/OMGLikeToken.sol\":5760:5770  msg.sender */\n  caller\n  sub(exp(0x2, 0xa0), 0x1)\n    /* \"contracts/test-helpers/OMGLikeToken.sol\":5752:5770  owner = msg.sender */\n  and\n  or\n  swap1\n  sstore\n    /* \"contracts/test-helpers/OMGLikeToken.sol\":5727:5775  function Ownable() {... */\ntag_2:\n    /* \"contracts/test-helpers/OMGLikeToken.sol\":8447:8730  contract PausableToken is StandardToken, Pausable {... */\ntag_3:\n  dataSize(sub_0)\n  dup1\n  dataOffset(sub_0)\n  0x0\n  codecopy\n  0x0\n  return\nstop\n\nsub_0: assembly {\n        /* \"contracts/test-helpers/OMGLikeToken.sol\":8447:8730  contract PausableToken is StandardToken, Pausable {... */\n      mstore(0x40, 0x60)\n      jumpi(tag_1, iszero(calldatasize))\n      and(div(calldataload(0x0), 0x100000000000000000000000000000000000000000000000000000000), 0xffffffff)\n      0x95ea7b3\n      dup2\n      eq\n      tag_2\n      jumpi\n      dup1\n      0x18160ddd\n      eq\n      tag_3\n      jumpi\n      dup1\n      0x23b872dd\n      eq\n      tag_4\n      jumpi\n      dup1\n      0x3f4ba83a\n      eq\n      tag_5\n      jumpi\n      dup1\n      0x5c975abb\n      eq\n      tag_6\n      jumpi\n      dup1\n      0x70a08231\n      eq\n      tag_7\n      jumpi\n      dup1\n      0x8456cb59\n      eq\n      tag_8\n      jumpi\n      dup1\n      0x8da5cb5b\n      eq\n      tag_9\n      jumpi\n      dup1\n      0xa9059cbb\n      eq\n      tag_10\n      jumpi\n      dup1\n      0xdd62ed3e\n      eq\n      tag_11\n      jumpi\n      dup1\n      0xf2fde38b\n      eq\n      tag_12\n      jumpi\n    tag_1:\n      invalid\n        /* \"contracts/test-helpers/OMGLikeToken.sol\":4424:4925  function approve(address _spender, uint _value) {... */\n    tag_2:\n      jumpi(tag_13, iszero(callvalue))\n      invalid\n    tag_13:\n      tag_14\n      and(calldataload(0x4), 0xffffffffffffffffffffffffffffffffffffffff)\n      calldataload(0x24)\n      jump(tag_15)\n    tag_14:\n      stop\n        /* \"contracts/test-helpers/OMGLikeToken.sol\":1432:1455  uint public totalSupply */\n    tag_3:\n      jumpi(tag_16, iszero(callvalue))\n      invalid\n    tag_16:\n      tag_17\n      jump(tag_18)\n    tag_17:\n      0x40\n      dup1\n      mload\n      swap2\n      dup3\n      mstore\n      mload\n      swap1\n      dup2\n      swap1\n      sub\n      0x20\n      add\n      swap1\n      return\n        /* \"contracts/test-helpers/OMGLikeToken.sol\":8602:8728  function transferFrom(address _from, address _to, uint _value) whenNotPaused {... */\n    tag_4:\n      jumpi(tag_19, iszero(callvalue))\n      invalid\n    tag_19:\n      tag_14\n      0xffffffffffffffffffffffffffffffffffffffff\n      calldataload(0x4)\n      dup2\n      and\n      swap1\n      calldataload(0x24)\n      and\n      calldataload(0x44)\n      jump(tag_21)\n    tag_20:\n      stop\n        /* \"contracts/test-helpers/OMGLikeToken.sol\":8239:8351  function unpause() onlyOwner whenPaused returns (bool) {... */\n    tag_5:\n      jumpi(tag_22, iszero(callvalue))\n      invalid\n    tag_22:\n      tag_23\n      jump(tag_24)\n    tag_23:\n      0x40\n      dup1\n      mload\n      swap2\n      iszero\n      iszero\n      dup3\n      mstore\n      mload\n      swap1\n      dup2\n      swap1\n      sub\n      0x20\n      add\n      swap1\n      return\n        /* \"contracts/test-helpers/OMGLikeToken.sol\":7650:7676  bool public paused = false */\n    tag_6:\n      jumpi(tag_25, iszero(callvalue))\n      invalid\n    tag_25:\n      tag_23\n      jump(tag_27)\n    tag_26:\n      0x40\n      dup1\n      mload\n      swap2\n      iszero\n      iszero\n      dup3\n      mstore\n      mload\n      swap1\n      dup2\n      swap1\n      sub\n      0x20\n      add\n      swap1\n      return\n        /* \"contracts/test-helpers/OMGLikeToken.sol\":2574:2675  function balanceOf(address _owner) constant returns (uint balance) {... */\n    tag_7:\n      jumpi(tag_28, iszero(callvalue))\n      invalid\n    tag_28:\n      tag_17\n      and(calldataload(0x4), 0xffffffffffffffffffffffffffffffffffffffff)\n      jump(tag_30)\n    tag_29:\n      0x40\n      dup1\n      mload\n      swap2\n      dup3\n      mstore\n      mload\n      swap1\n      dup2\n      swap1\n      sub\n      0x20\n      add\n      swap1\n      return\n        /* \"contracts/test-helpers/OMGLikeToken.sol\":8047:8157  function pause() onlyOwner whenNotPaused returns (bool) {... */\n    tag_8:\n      jumpi(tag_31, iszero(callvalue))\n      invalid\n    tag_31:\n      tag_23\n      jump(tag_33)\n    tag_32:\n      0x40\n      dup1\n      mload\n      swap2\n      iszero\n      iszero\n      dup3\n      mstore\n      mload\n      swap1\n      dup2\n      swap1\n      sub\n      0x20\n      add\n      swap1\n      return\n        /* \"contracts/test-helpers/OMGLikeToken.sol\":5585:5605  address public owner */\n    tag_9:\n      jumpi(tag_34, iszero(callvalue))\n      invalid\n    tag_34:\n      tag_35\n      jump(tag_36)\n    tag_35:\n      0x40\n      dup1\n      mload\n      0xffffffffffffffffffffffffffffffffffffffff\n      swap1\n      swap3\n      and\n      dup3\n      mstore\n      mload\n      swap1\n      dup2\n      swap1\n      sub\n      0x20\n      add\n      swap1\n      return\n        /* \"contracts/test-helpers/OMGLikeToken.sol\":8502:8598  function transfer(address _to, uint _value) whenNotPaused {... */\n    tag_10:\n      jumpi(tag_37, iszero(callvalue))\n      invalid\n    tag_37:\n      tag_14\n      and(calldataload(0x4), 0xffffffffffffffffffffffffffffffffffffffff)\n      calldataload(0x24)\n      jump(tag_39)\n    tag_38:\n      stop\n        /* \"contracts/test-helpers/OMGLikeToken.sol\":5238:5368  function allowance(address _owner, address _spender) constant returns (uint remaining) {... */\n    tag_11:\n      jumpi(tag_40, iszero(callvalue))\n      invalid\n    tag_40:\n      tag_17\n      0xffffffffffffffffffffffffffffffffffffffff\n      calldataload(0x4)\n      dup2\n      and\n      swap1\n      calldataload(0x24)\n      and\n      jump(tag_42)\n    tag_41:\n      0x40\n      dup1\n      mload\n      swap2\n      dup3\n      mstore\n      mload\n      swap1\n      dup2\n      swap1\n      sub\n      0x20\n      add\n      swap1\n      return\n        /* \"contracts/test-helpers/OMGLikeToken.sol\":6101:6225  function transferOwnership(address newOwner) onlyOwner {... */\n    tag_12:\n      jumpi(tag_43, iszero(callvalue))\n      invalid\n    tag_43:\n      tag_14\n      and(calldataload(0x4), 0xffffffffffffffffffffffffffffffffffffffff)\n      jump(tag_45)\n    tag_44:\n      stop\n        /* \"contracts/test-helpers/OMGLikeToken.sol\":4424:4925  function approve(address _spender, uint _value) {... */\n    tag_15:\n        /* \"contracts/test-helpers/OMGLikeToken.sol\":4772:4783  _value != 0 */\n      dup1\n      iszero\n      dup1\n      iszero\n      swap1\n        /* \"contracts/test-helpers/OMGLikeToken.sol\":4771:4824  (_value != 0) && (allowed[msg.sender][_spender] != 0) */\n      tag_47\n      jumpi\n      pop\n        /* \"contracts/test-helpers/OMGLikeToken.sol\":4789:4808  allowed[msg.sender] */\n      0xffffffffffffffffffffffffffffffffffffffff\n        /* \"contracts/test-helpers/OMGLikeToken.sol\":4797:4807  msg.sender */\n      caller\n        /* \"contracts/test-helpers/OMGLikeToken.sol\":4789:4808  allowed[msg.sender] */\n      dup2\n      and\n      0x0\n      swap1\n      dup2\n      mstore\n        /* \"contracts/test-helpers/OMGLikeToken.sol\":4789:4796  allowed */\n      0x2\n        /* \"contracts/test-helpers/OMGLikeToken.sol\":4789:4808  allowed[msg.sender] */\n      0x20\n      swap1\n      dup2\n      mstore\n      0x40\n      dup1\n      dup4\n      sha3\n        /* \"contracts/test-helpers/OMGLikeToken.sol\":4789:4818  allowed[msg.sender][_spender] */\n      swap4\n      dup7\n      and\n      dup4\n      mstore\n      swap3\n      swap1\n      mstore\n      sha3\n      sload\n        /* \"contracts/test-helpers/OMGLikeToken.sol\":4789:4823  allowed[msg.sender][_spender] != 0 */\n      iszero\n      iszero\n        /* \"contracts/test-helpers/OMGLikeToken.sol\":4771:4824  (_value != 0) && (allowed[msg.sender][_spender] != 0) */\n    tag_47:\n        /* \"contracts/test-helpers/OMGLikeToken.sol\":4767:4831  if ((_value != 0) && (allowed[msg.sender][_spender] != 0)) throw */\n      iszero\n      tag_48\n      jumpi\n        /* \"contracts/test-helpers/OMGLikeToken.sol\":4826:4831  throw */\n      revert(0x0, 0x0)\n        /* \"contracts/test-helpers/OMGLikeToken.sol\":4767:4831  if ((_value != 0) && (allowed[msg.sender][_spender] != 0)) throw */\n    tag_48:\n        /* \"contracts/test-helpers/OMGLikeToken.sol\":4838:4857  allowed[msg.sender] */\n      0xffffffffffffffffffffffffffffffffffffffff\n        /* \"contracts/test-helpers/OMGLikeToken.sol\":4846:4856  msg.sender */\n      caller\n        /* \"contracts/test-helpers/OMGLikeToken.sol\":4838:4857  allowed[msg.sender] */\n      dup2\n      and\n      0x0\n      dup2\n      dup2\n      mstore\n        /* \"contracts/test-helpers/OMGLikeToken.sol\":4838:4845  allowed */\n      0x2\n        /* \"contracts/test-helpers/OMGLikeToken.sol\":4838:4857  allowed[msg.sender] */\n      0x20\n      swap1\n      dup2\n      mstore\n      0x40\n      dup1\n      dup4\n      sha3\n        /* \"contracts/test-helpers/OMGLikeToken.sol\":4838:4867  allowed[msg.sender][_spender] */\n      swap5\n      dup8\n      and\n      dup1\n      dup5\n      mstore\n      swap5\n      dup3\n      mstore\n      swap2\n      dup3\n      swap1\n      sha3\n        /* \"contracts/test-helpers/OMGLikeToken.sol\":4838:4876  allowed[msg.sender][_spender] = _value */\n      dup6\n      swap1\n      sstore\n        /* \"contracts/test-helpers/OMGLikeToken.sol\":4882:4920  Approval(msg.sender, _spender, _value) */\n      dup2\n      mload\n      dup6\n      dup2\n      mstore\n      swap2\n      mload\n      0x8c5be1e5ebec7d5bd14f71427d1e84f3dd0314c0f7b2291e5b200ac8c7c3b925\n      swap3\n      dup2\n      swap1\n      sub\n      swap1\n      swap2\n      add\n      swap1\n      log3\n        /* \"contracts/test-helpers/OMGLikeToken.sol\":4424:4925  function approve(address _spender, uint _value) {... */\n    tag_46:\n      pop\n      pop\n      jump\t// out\n        /* \"contracts/test-helpers/OMGLikeToken.sol\":1432:1455  uint public totalSupply */\n    tag_18:\n      sload(0x0)\n      dup2\n      jump\t// out\n        /* \"contracts/test-helpers/OMGLikeToken.sol\":8602:8728  function transferFrom(address _from, address _to, uint _value) whenNotPaused {... */\n    tag_21:\n        /* \"contracts/test-helpers/OMGLikeToken.sol\":7798:7804  paused */\n      sload(0x3)\n      0x10000000000000000000000000000000000000000\n      swap1\n      div\n      0xff\n      and\n        /* \"contracts/test-helpers/OMGLikeToken.sol\":7794:7811  if (paused) throw */\n      iszero\n      tag_50\n      jumpi\n        /* \"contracts/test-helpers/OMGLikeToken.sol\":7806:7811  throw */\n      revert(0x0, 0x0)\n        /* \"contracts/test-helpers/OMGLikeToken.sol\":7794:7811  if (paused) throw */\n    tag_50:\n        /* \"contracts/test-helpers/OMGLikeToken.sol\":8685:8723  super.transferFrom(_from, _to, _value) */\n      tag_52\n        /* \"contracts/test-helpers/OMGLikeToken.sol\":8704:8709  _from */\n      dup4\n        /* \"contracts/test-helpers/OMGLikeToken.sol\":8711:8714  _to */\n      dup4\n        /* \"contracts/test-helpers/OMGLikeToken.sol\":8716:8722  _value */\n      dup4\n        /* \"contracts/test-helpers/OMGLikeToken.sol\":8685:8703  super.transferFrom */\n      tag_53\n        /* \"contracts/test-helpers/OMGLikeToken.sol\":8685:8723  super.transferFrom(_from, _to, _value) */\n      jump\t// in\n    tag_52:\n        /* \"contracts/test-helpers/OMGLikeToken.sol\":7817:7818  _ */\n    tag_51:\n        /* \"contracts/test-helpers/OMGLikeToken.sol\":8602:8728  function transferFrom(address _from, address _to, uint _value) whenNotPaused {... */\n    tag_49:\n      pop\n      pop\n      pop\n      jump\t// out\n        /* \"contracts/test-helpers/OMGLikeToken.sol\":8239:8351  function unpause() onlyOwner whenPaused returns (bool) {... */\n    tag_24:\n        /* \"contracts/test-helpers/OMGLikeToken.sol\":5901:5906  owner */\n      sload(0x3)\n        /* \"contracts/test-helpers/OMGLikeToken.sol\":8288:8292  bool */\n      0x0\n      swap1\n        /* \"contracts/test-helpers/OMGLikeToken.sol\":5887:5897  msg.sender */\n      caller\n        /* \"contracts/test-helpers/OMGLikeToken.sol\":5901:5906  owner */\n      0xffffffffffffffffffffffffffffffffffffffff\n        /* \"contracts/test-helpers/OMGLikeToken.sol\":5887:5906  msg.sender != owner */\n      swap1\n      dup2\n      and\n        /* \"contracts/test-helpers/OMGLikeToken.sol\":5901:5906  owner */\n      swap2\n      and\n        /* \"contracts/test-helpers/OMGLikeToken.sol\":5887:5906  msg.sender != owner */\n      eq\n        /* \"contracts/test-helpers/OMGLikeToken.sol\":5883:5928  if (msg.sender != owner) {... */\n      tag_55\n      jumpi\n        /* \"contracts/test-helpers/OMGLikeToken.sol\":5916:5921  throw */\n      revert(0x0, 0x0)\n        /* \"contracts/test-helpers/OMGLikeToken.sol\":5883:5928  if (msg.sender != owner) {... */\n    tag_55:\n        /* \"contracts/test-helpers/OMGLikeToken.sol\":7943:7949  paused */\n      sload(0x3)\n      0x10000000000000000000000000000000000000000\n      swap1\n      div\n      0xff\n      and\n        /* \"contracts/test-helpers/OMGLikeToken.sol\":7942:7949  !paused */\n      iszero\n        /* \"contracts/test-helpers/OMGLikeToken.sol\":7938:7956  if (!paused) throw */\n      iszero\n      tag_57\n      jumpi\n        /* \"contracts/test-helpers/OMGLikeToken.sol\":7951:7956  throw */\n      revert(0x0, 0x0)\n        /* \"contracts/test-helpers/OMGLikeToken.sol\":7938:7956  if (!paused) throw */\n    tag_57:\n        /* \"contracts/test-helpers/OMGLikeToken.sol\":8300:8306  paused */\n      0x3\n        /* \"contracts/test-helpers/OMGLikeToken.sol\":8300:8314  paused = false */\n      dup1\n      sload\n      0xffffffffffffffffffffff00ffffffffffffffffffffffffffffffffffffffff\n      and\n      swap1\n      sstore\n        /* \"contracts/test-helpers/OMGLikeToken.sol\":8320:8329  Unpause() */\n      mload(0x40)\n      0x7805862f689e2f13df9f062ff482ad3ad112aca9e0847911ed832e158c525b33\n      swap1\n        /* \"contracts/test-helpers/OMGLikeToken.sol\":8309:8314  false */\n      0x0\n      swap1\n        /* \"contracts/test-helpers/OMGLikeToken.sol\":8320:8329  Unpause() */\n      log1\n      pop\n        /* \"contracts/test-helpers/OMGLikeToken.sol\":8342:8346  true */\n      0x1\n        /* \"contracts/test-helpers/OMGLikeToken.sol\":7962:7963  _ */\n    tag_58:\n        /* \"contracts/test-helpers/OMGLikeToken.sol\":5933:5934  _ */\n    tag_56:\n        /* \"contracts/test-helpers/OMGLikeToken.sol\":8239:8351  function unpause() onlyOwner whenPaused returns (bool) {... */\n    tag_54:\n      swap1\n      jump\t// out\n        /* \"contracts/test-helpers/OMGLikeToken.sol\":7650:7676  bool public paused = false */\n    tag_27:\n      sload(0x3)\n      0x10000000000000000000000000000000000000000\n      swap1\n      div\n      0xff\n      and\n      dup2\n      jump\t// out\n        /* \"contracts/test-helpers/OMGLikeToken.sol\":2574:2675  function balanceOf(address _owner) constant returns (uint balance) {... */\n    tag_30:\n        /* \"contracts/test-helpers/OMGLikeToken.sol\":2654:2670  balances[_owner] */\n      0xffffffffffffffffffffffffffffffffffffffff\n      dup2\n      and\n        /* \"contracts/test-helpers/OMGLikeToken.sol\":2627:2639  uint balance */\n      0x0\n        /* \"contracts/test-helpers/OMGLikeToken.sol\":2654:2670  balances[_owner] */\n      swap1\n      dup2\n      mstore\n        /* \"contracts/test-helpers/OMGLikeToken.sol\":2654:2662  balances */\n      0x1\n        /* \"contracts/test-helpers/OMGLikeToken.sol\":2654:2670  balances[_owner] */\n      0x20\n      mstore\n      0x40\n      swap1\n      sha3\n      sload\n        /* \"contracts/test-helpers/OMGLikeToken.sol\":2574:2675  function balanceOf(address _owner) constant returns (uint balance) {... */\n    tag_59:\n      swap2\n      swap1\n      pop\n      jump\t// out\n        /* \"contracts/test-helpers/OMGLikeToken.sol\":8047:8157  function pause() onlyOwner whenNotPaused returns (bool) {... */\n    tag_33:\n        /* \"contracts/test-helpers/OMGLikeToken.sol\":5901:5906  owner */\n      sload(0x3)\n        /* \"contracts/test-helpers/OMGLikeToken.sol\":8097:8101  bool */\n      0x0\n      swap1\n        /* \"contracts/test-helpers/OMGLikeToken.sol\":5887:5897  msg.sender */\n      caller\n        /* \"contracts/test-helpers/OMGLikeToken.sol\":5901:5906  owner */\n      0xffffffffffffffffffffffffffffffffffffffff\n        /* \"contracts/test-helpers/OMGLikeToken.sol\":5887:5906  msg.sender != owner */\n      swap1\n      dup2\n      and\n        /* \"contracts/test-helpers/OMGLikeToken.sol\":5901:5906  owner */\n      swap2\n      and\n        /* \"contracts/test-helpers/OMGLikeToken.sol\":5887:5906  msg.sender != owner */\n      eq\n        /* \"contracts/test-helpers/OMGLikeToken.sol\":5883:5928  if (msg.sender != owner) {... */\n      tag_61\n      jumpi\n        /* \"contracts/test-helpers/OMGLikeToken.sol\":5916:5921  throw */\n      revert(0x0, 0x0)\n        /* \"contracts/test-helpers/OMGLikeToken.sol\":5883:5928  if (msg.sender != owner) {... */\n    tag_61:\n        /* \"contracts/test-helpers/OMGLikeToken.sol\":7798:7804  paused */\n      sload(0x3)\n      0x10000000000000000000000000000000000000000\n      swap1\n      div\n      0xff\n      and\n        /* \"contracts/test-helpers/OMGLikeToken.sol\":7794:7811  if (paused) throw */\n      iszero\n      tag_63\n      jumpi\n        /* \"contracts/test-helpers/OMGLikeToken.sol\":7806:7811  throw */\n      revert(0x0, 0x0)\n        /* \"contracts/test-helpers/OMGLikeToken.sol\":7794:7811  if (paused) throw */\n    tag_63:\n        /* \"contracts/test-helpers/OMGLikeToken.sol\":8109:8115  paused */\n      0x3\n        /* \"contracts/test-helpers/OMGLikeToken.sol\":8109:8122  paused = true */\n      dup1\n      sload\n      0xffffffffffffffffffffff00ffffffffffffffffffffffffffffffffffffffff\n      and\n      0x10000000000000000000000000000000000000000\n      or\n      swap1\n      sstore\n        /* \"contracts/test-helpers/OMGLikeToken.sol\":8128:8135  Pause() */\n      mload(0x40)\n      0x6985a02210a168e66602d3235cb6db0e70f92b3ba4d376a33c0f3d9434bff625\n      swap1\n        /* \"contracts/test-helpers/OMGLikeToken.sol\":8109:8122  paused = true */\n      0x0\n      swap1\n        /* \"contracts/test-helpers/OMGLikeToken.sol\":8128:8135  Pause() */\n      log1\n      pop\n        /* \"contracts/test-helpers/OMGLikeToken.sol\":8148:8152  true */\n      0x1\n        /* \"contracts/test-helpers/OMGLikeToken.sol\":7817:7818  _ */\n    tag_64:\n        /* \"contracts/test-helpers/OMGLikeToken.sol\":5933:5934  _ */\n    tag_62:\n        /* \"contracts/test-helpers/OMGLikeToken.sol\":8047:8157  function pause() onlyOwner whenNotPaused returns (bool) {... */\n    tag_60:\n      swap1\n      jump\t// out\n        /* \"contracts/test-helpers/OMGLikeToken.sol\":5585:5605  address public owner */\n    tag_36:\n      and(0xffffffffffffffffffffffffffffffffffffffff, sload(0x3))\n      dup2\n      jump\t// out\n        /* \"contracts/test-helpers/OMGLikeToken.sol\":8502:8598  function transfer(address _to, uint _value) whenNotPaused {... */\n    tag_39:\n        /* \"contracts/test-helpers/OMGLikeToken.sol\":7798:7804  paused */\n      sload(0x3)\n      0x10000000000000000000000000000000000000000\n      swap1\n      div\n      0xff\n      and\n        /* \"contracts/test-helpers/OMGLikeToken.sol\":7794:7811  if (paused) throw */\n      iszero\n      tag_66\n      jumpi\n        /* \"contracts/test-helpers/OMGLikeToken.sol\":7806:7811  throw */\n      revert(0x0, 0x0)\n        /* \"contracts/test-helpers/OMGLikeToken.sol\":7794:7811  if (paused) throw */\n    tag_66:\n        /* \"contracts/test-helpers/OMGLikeToken.sol\":8566:8593  super.transfer(_to, _value) */\n      tag_46\n        /* \"contracts/test-helpers/OMGLikeToken.sol\":8581:8584  _to */\n      dup3\n        /* \"contracts/test-helpers/OMGLikeToken.sol\":8586:8592  _value */\n      dup3\n        /* \"contracts/test-helpers/OMGLikeToken.sol\":8566:8580  super.transfer */\n      tag_69\n        /* \"contracts/test-helpers/OMGLikeToken.sol\":8566:8593  super.transfer(_to, _value) */\n      jump\t// in\n    tag_68:\n        /* \"contracts/test-helpers/OMGLikeToken.sol\":7817:7818  _ */\n    tag_67:\n        /* \"contracts/test-helpers/OMGLikeToken.sol\":8502:8598  function transfer(address _to, uint _value) whenNotPaused {... */\n    tag_65:\n      pop\n      pop\n      jump\t// out\n        /* \"contracts/test-helpers/OMGLikeToken.sol\":5238:5368  function allowance(address _owner, address _spender) constant returns (uint remaining) {... */\n    tag_42:\n        /* \"contracts/test-helpers/OMGLikeToken.sol\":5338:5353  allowed[_owner] */\n      0xffffffffffffffffffffffffffffffffffffffff\n      dup1\n      dup4\n      and\n        /* \"contracts/test-helpers/OMGLikeToken.sol\":5309:5323  uint remaining */\n      0x0\n        /* \"contracts/test-helpers/OMGLikeToken.sol\":5338:5353  allowed[_owner] */\n      swap1\n      dup2\n      mstore\n        /* \"contracts/test-helpers/OMGLikeToken.sol\":5338:5345  allowed */\n      0x2\n        /* \"contracts/test-helpers/OMGLikeToken.sol\":5338:5353  allowed[_owner] */\n      0x20\n      swap1\n      dup2\n      mstore\n      0x40\n      dup1\n      dup4\n      sha3\n        /* \"contracts/test-helpers/OMGLikeToken.sol\":5338:5363  allowed[_owner][_spender] */\n      swap4\n      dup6\n      and\n      dup4\n      mstore\n      swap3\n      swap1\n      mstore\n      sha3\n      sload\n        /* \"contracts/test-helpers/OMGLikeToken.sol\":5238:5368  function allowance(address _owner, address _spender) constant returns (uint remaining) {... */\n    tag_70:\n      swap3\n      swap2\n      pop\n      pop\n      jump\t// out\n        /* \"contracts/test-helpers/OMGLikeToken.sol\":6101:6225  function transferOwnership(address newOwner) onlyOwner {... */\n    tag_45:\n        /* \"contracts/test-helpers/OMGLikeToken.sol\":5901:5906  owner */\n      sload(0x3)\n        /* \"contracts/test-helpers/OMGLikeToken.sol\":5887:5897  msg.sender */\n      caller\n        /* \"contracts/test-helpers/OMGLikeToken.sol\":5901:5906  owner */\n      0xffffffffffffffffffffffffffffffffffffffff\n        /* \"contracts/test-helpers/OMGLikeToken.sol\":5887:5906  msg.sender != owner */\n      swap1\n      dup2\n      and\n        /* \"contracts/test-helpers/OMGLikeToken.sol\":5901:5906  owner */\n      swap2\n      and\n        /* \"contracts/test-helpers/OMGLikeToken.sol\":5887:5906  msg.sender != owner */\n      eq\n        /* \"contracts/test-helpers/OMGLikeToken.sol\":5883:5928  if (msg.sender != owner) {... */\n      tag_72\n      jumpi\n        /* \"contracts/test-helpers/OMGLikeToken.sol\":5916:5921  throw */\n      revert(0x0, 0x0)\n        /* \"contracts/test-helpers/OMGLikeToken.sol\":5883:5928  if (msg.sender != owner) {... */\n    tag_72:\n        /* \"contracts/test-helpers/OMGLikeToken.sol\":6166:6188  newOwner != address(0) */\n      0xffffffffffffffffffffffffffffffffffffffff\n      dup2\n      and\n      iszero\n        /* \"contracts/test-helpers/OMGLikeToken.sol\":6162:6221  if (newOwner != address(0)) {... */\n      tag_74\n      jumpi\n        /* \"contracts/test-helpers/OMGLikeToken.sol\":6198:6203  owner */\n      0x3\n        /* \"contracts/test-helpers/OMGLikeToken.sol\":6198:6214  owner = newOwner */\n      dup1\n      sload\n      0xffffffffffffffffffffffff0000000000000000000000000000000000000000\n      and\n      0xffffffffffffffffffffffffffffffffffffffff\n      dup4\n      and\n      or\n      swap1\n      sstore\n        /* \"contracts/test-helpers/OMGLikeToken.sol\":6162:6221  if (newOwner != address(0)) {... */\n    tag_74:\n        /* \"contracts/test-helpers/OMGLikeToken.sol\":5933:5934  _ */\n    tag_73:\n        /* \"contracts/test-helpers/OMGLikeToken.sol\":6101:6225  function transferOwnership(address newOwner) onlyOwner {... */\n    tag_71:\n      pop\n      jump\t// out\n        /* \"contracts/test-helpers/OMGLikeToken.sol\":3715:4193  function transferFrom(address _from, address _to, uint _value) onlyPayloadSize(3 * 32) {... */\n    tag_53:\n        /* \"contracts/test-helpers/OMGLikeToken.sol\":3808:3822  var _allowance */\n      0x0\n        /* \"contracts/test-helpers/OMGLikeToken.sol\":3794:3800  3 * 32 */\n      0x60\n        /* \"contracts/test-helpers/OMGLikeToken.sol\":1957:1965  size + 4 */\n      0x64\n        /* \"contracts/test-helpers/OMGLikeToken.sol\":1939:1947  msg.data */\n      calldatasize\n        /* \"contracts/test-helpers/OMGLikeToken.sol\":1939:1965  msg.data.length < size + 4 */\n      lt\n        /* \"contracts/test-helpers/OMGLikeToken.sol\":1936:1989  if(msg.data.length < size + 4) {... */\n      iszero\n      tag_76\n      jumpi\n        /* \"contracts/test-helpers/OMGLikeToken.sol\":1976:1981  throw */\n      revert(0x0, 0x0)\n        /* \"contracts/test-helpers/OMGLikeToken.sol\":1936:1989  if(msg.data.length < size + 4) {... */\n    tag_76:\n        /* \"contracts/test-helpers/OMGLikeToken.sol\":3825:3839  allowed[_from] */\n      0xffffffffffffffffffffffffffffffffffffffff\n      dup1\n      dup7\n      and\n      0x0\n      swap1\n      dup2\n      mstore\n        /* \"contracts/test-helpers/OMGLikeToken.sol\":3825:3832  allowed */\n      0x2\n        /* \"contracts/test-helpers/OMGLikeToken.sol\":3825:3839  allowed[_from] */\n      0x20\n      swap1\n      dup2\n      mstore\n      0x40\n      dup1\n      dup4\n      sha3\n        /* \"contracts/test-helpers/OMGLikeToken.sol\":3840:3850  msg.sender */\n      caller\n        /* \"contracts/test-helpers/OMGLikeToken.sol\":3825:3851  allowed[_from][msg.sender] */\n      dup6\n      and\n      dup5\n      mstore\n      dup3\n      mstore\n      dup1\n      dup4\n      sha3\n      sload\n        /* \"contracts/test-helpers/OMGLikeToken.sol\":4021:4034  balances[_to] */\n      swap4\n      dup9\n      and\n      dup4\n      mstore\n        /* \"contracts/test-helpers/OMGLikeToken.sol\":4021:4029  balances */\n      0x1\n        /* \"contracts/test-helpers/OMGLikeToken.sol\":4021:4034  balances[_to] */\n      swap1\n      swap2\n      mstore\n      swap1\n      sha3\n      sload\n        /* \"contracts/test-helpers/OMGLikeToken.sol\":3825:3851  allowed[_from][msg.sender] */\n      swap1\n      swap3\n      pop\n        /* \"contracts/test-helpers/OMGLikeToken.sol\":4021:4046  balances[_to].add(_value) */\n      tag_78\n      swap1\n        /* \"contracts/test-helpers/OMGLikeToken.sol\":4039:4045  _value */\n      dup5\n        /* \"contracts/test-helpers/OMGLikeToken.sol\":4021:4046  balances[_to].add(_value) */\n      0xffffffff\n        /* \"contracts/test-helpers/OMGLikeToken.sol\":4021:4038  balances[_to].add */\n      tag_79\n        /* \"contracts/test-helpers/OMGLikeToken.sol\":4021:4046  balances[_to].add(_value) */\n      and\n      jump\t// in\n    tag_78:\n        /* \"contracts/test-helpers/OMGLikeToken.sol\":4005:4018  balances[_to] */\n      0xffffffffffffffffffffffffffffffffffffffff\n      dup1\n      dup7\n      and\n      0x0\n      swap1\n      dup2\n      mstore\n        /* \"contracts/test-helpers/OMGLikeToken.sol\":4005:4013  balances */\n      0x1\n        /* \"contracts/test-helpers/OMGLikeToken.sol\":4005:4018  balances[_to] */\n      0x20\n      mstore\n      0x40\n      dup1\n      dup3\n      sha3\n        /* \"contracts/test-helpers/OMGLikeToken.sol\":4005:4046  balances[_to] = balances[_to].add(_value) */\n      swap4\n      swap1\n      swap4\n      sstore\n        /* \"contracts/test-helpers/OMGLikeToken.sol\":4070:4085  balances[_from] */\n      swap1\n      dup8\n      and\n      dup2\n      mstore\n      sha3\n      sload\n        /* \"contracts/test-helpers/OMGLikeToken.sol\":4070:4097  balances[_from].sub(_value) */\n      tag_80\n      swap1\n        /* \"contracts/test-helpers/OMGLikeToken.sol\":4090:4096  _value */\n      dup5\n        /* \"contracts/test-helpers/OMGLikeToken.sol\":4070:4097  balances[_from].sub(_value) */\n      0xffffffff\n        /* \"contracts/test-helpers/OMGLikeToken.sol\":4070:4089  balances[_from].sub */\n      tag_81\n        /* \"contracts/test-helpers/OMGLikeToken.sol\":4070:4097  balances[_from].sub(_value) */\n      and\n      jump\t// in\n    tag_80:\n        /* \"contracts/test-helpers/OMGLikeToken.sol\":4052:4067  balances[_from] */\n      0xffffffffffffffffffffffffffffffffffffffff\n      dup7\n      and\n      0x0\n      swap1\n      dup2\n      mstore\n        /* \"contracts/test-helpers/OMGLikeToken.sol\":4052:4060  balances */\n      0x1\n        /* \"contracts/test-helpers/OMGLikeToken.sol\":4052:4067  balances[_from] */\n      0x20\n      mstore\n      0x40\n      swap1\n      sha3\n        /* \"contracts/test-helpers/OMGLikeToken.sol\":4052:4097  balances[_from] = balances[_from].sub(_value) */\n      sstore\n        /* \"contracts/test-helpers/OMGLikeToken.sol\":4132:4154  _allowance.sub(_value) */\n      tag_82\n        /* \"contracts/test-helpers/OMGLikeToken.sol\":4132:4142  _allowance */\n      dup3\n        /* \"contracts/test-helpers/OMGLikeToken.sol\":4147:4153  _value */\n      dup5\n        /* \"contracts/test-helpers/OMGLikeToken.sol\":4132:4154  _allowance.sub(_value) */\n      0xffffffff\n        /* \"contracts/test-helpers/OMGLikeToken.sol\":4132:4146  _allowance.sub */\n      tag_81\n        /* \"contracts/test-helpers/OMGLikeToken.sol\":4132:4154  _allowance.sub(_value) */\n      and\n      jump\t// in\n    tag_82:\n        /* \"contracts/test-helpers/OMGLikeToken.sol\":4103:4117  allowed[_from] */\n      0xffffffffffffffffffffffffffffffffffffffff\n      dup1\n      dup8\n      and\n      0x0\n      dup2\n      dup2\n      mstore\n        /* \"contracts/test-helpers/OMGLikeToken.sol\":4103:4110  allowed */\n      0x2\n        /* \"contracts/test-helpers/OMGLikeToken.sol\":4103:4117  allowed[_from] */\n      0x20\n      swap1\n      dup2\n      mstore\n      0x40\n      dup1\n      dup4\n      sha3\n        /* \"contracts/test-helpers/OMGLikeToken.sol\":4118:4128  msg.sender */\n      caller\n        /* \"contracts/test-helpers/OMGLikeToken.sol\":4103:4129  allowed[_from][msg.sender] */\n      dup7\n      and\n      dup5\n      mstore\n      dup3\n      mstore\n      swap2\n      dup3\n      swap1\n      sha3\n        /* \"contracts/test-helpers/OMGLikeToken.sol\":4103:4154  allowed[_from][msg.sender] = _allowance.sub(_value) */\n      swap5\n      swap1\n      swap5\n      sstore\n        /* \"contracts/test-helpers/OMGLikeToken.sol\":4160:4188  Transfer(_from, _to, _value) */\n      dup1\n      mload\n      dup8\n      dup2\n      mstore\n      swap1\n      mload\n      swap3\n      dup9\n      and\n      swap4\n        /* \"contracts/test-helpers/OMGLikeToken.sol\":4103:4117  allowed[_from] */\n      swap2\n      swap3\n        /* \"contracts/test-helpers/OMGLikeToken.sol\":4160:4188  Transfer(_from, _to, _value) */\n      0xddf252ad1be2c89b69c2b068fc378daa952ba7f163c4a11628f55a4df523b3ef\n      swap3\n      swap2\n      dup2\n      swap1\n      sub\n      swap1\n      swap2\n      add\n      swap1\n      log3\n        /* \"contracts/test-helpers/OMGLikeToken.sol\":1995:1996  _ */\n    tag_77:\n        /* \"contracts/test-helpers/OMGLikeToken.sol\":3715:4193  function transferFrom(address _from, address _to, uint _value) onlyPayloadSize(3 * 32) {... */\n    tag_75:\n      pop\n      pop\n      pop\n      pop\n      pop\n      jump\t// out\n        /* \"contracts/test-helpers/OMGLikeToken.sol\":2155:2375  function transfer(address _to, uint _value) onlyPayloadSize(2 * 32) {... */\n    tag_69:\n        /* \"contracts/test-helpers/OMGLikeToken.sol\":2215:2221  2 * 32 */\n      0x40\n        /* \"contracts/test-helpers/OMGLikeToken.sol\":1957:1965  size + 4 */\n      0x44\n        /* \"contracts/test-helpers/OMGLikeToken.sol\":1939:1947  msg.data */\n      calldatasize\n        /* \"contracts/test-helpers/OMGLikeToken.sol\":1939:1965  msg.data.length < size + 4 */\n      lt\n        /* \"contracts/test-helpers/OMGLikeToken.sol\":1936:1989  if(msg.data.length < size + 4) {... */\n      iszero\n      tag_84\n      jumpi\n        /* \"contracts/test-helpers/OMGLikeToken.sol\":1976:1981  throw */\n      revert(0x0, 0x0)\n        /* \"contracts/test-helpers/OMGLikeToken.sol\":1936:1989  if(msg.data.length < size + 4) {... */\n    tag_84:\n        /* \"contracts/test-helpers/OMGLikeToken.sol\":2252:2272  balances[msg.sender] */\n      0xffffffffffffffffffffffffffffffffffffffff\n        /* \"contracts/test-helpers/OMGLikeToken.sol\":2261:2271  msg.sender */\n      caller\n        /* \"contracts/test-helpers/OMGLikeToken.sol\":2252:2272  balances[msg.sender] */\n      and\n      0x0\n      swap1\n      dup2\n      mstore\n        /* \"contracts/test-helpers/OMGLikeToken.sol\":2252:2260  balances */\n      0x1\n        /* \"contracts/test-helpers/OMGLikeToken.sol\":2252:2272  balances[msg.sender] */\n      0x20\n      mstore\n      0x40\n      swap1\n      sha3\n      sload\n        /* \"contracts/test-helpers/OMGLikeToken.sol\":2252:2284  balances[msg.sender].sub(_value) */\n      tag_86\n      swap1\n        /* \"contracts/test-helpers/OMGLikeToken.sol\":2277:2283  _value */\n      dup4\n        /* \"contracts/test-helpers/OMGLikeToken.sol\":2252:2284  balances[msg.sender].sub(_value) */\n      0xffffffff\n        /* \"contracts/test-helpers/OMGLikeToken.sol\":2252:2276  balances[msg.sender].sub */\n      tag_81\n        /* \"contracts/test-helpers/OMGLikeToken.sol\":2252:2284  balances[msg.sender].sub(_value) */\n      and\n      jump\t// in\n    tag_86:\n        /* \"contracts/test-helpers/OMGLikeToken.sol\":2229:2249  balances[msg.sender] */\n      0xffffffffffffffffffffffffffffffffffffffff\n        /* \"contracts/test-helpers/OMGLikeToken.sol\":2238:2248  msg.sender */\n      caller\n        /* \"contracts/test-helpers/OMGLikeToken.sol\":2229:2249  balances[msg.sender] */\n      dup2\n      and\n      0x0\n      swap1\n      dup2\n      mstore\n        /* \"contracts/test-helpers/OMGLikeToken.sol\":2229:2237  balances */\n      0x1\n        /* \"contracts/test-helpers/OMGLikeToken.sol\":2229:2249  balances[msg.sender] */\n      0x20\n      mstore\n      0x40\n      dup1\n      dup3\n      sha3\n        /* \"contracts/test-helpers/OMGLikeToken.sol\":2229:2284  balances[msg.sender] = balances[msg.sender].sub(_value) */\n      swap4\n      swap1\n      swap4\n      sstore\n        /* \"contracts/test-helpers/OMGLikeToken.sol\":2306:2319  balances[_to] */\n      swap1\n      dup6\n      and\n      dup2\n      mstore\n      sha3\n      sload\n        /* \"contracts/test-helpers/OMGLikeToken.sol\":2306:2331  balances[_to].add(_value) */\n      tag_87\n      swap1\n        /* \"contracts/test-helpers/OMGLikeToken.sol\":2324:2330  _value */\n      dup4\n        /* \"contracts/test-helpers/OMGLikeToken.sol\":2306:2331  balances[_to].add(_value) */\n      0xffffffff\n        /* \"contracts/test-helpers/OMGLikeToken.sol\":2306:2323  balances[_to].add */\n      tag_79\n        /* \"contracts/test-helpers/OMGLikeToken.sol\":2306:2331  balances[_to].add(_value) */\n      and\n      jump\t// in\n    tag_87:\n        /* \"contracts/test-helpers/OMGLikeToken.sol\":2290:2303  balances[_to] */\n      0xffffffffffffffffffffffffffffffffffffffff\n      dup1\n      dup6\n      and\n      0x0\n      dup2\n      dup2\n      mstore\n        /* \"contracts/test-helpers/OMGLikeToken.sol\":2290:2298  balances */\n      0x1\n        /* \"contracts/test-helpers/OMGLikeToken.sol\":2290:2303  balances[_to] */\n      0x20\n      swap1\n      dup2\n      mstore\n      0x40\n      swap2\n      dup3\n      swap1\n      sha3\n        /* \"contracts/test-helpers/OMGLikeToken.sol\":2290:2331  balances[_to] = balances[_to].add(_value) */\n      swap5\n      swap1\n      swap5\n      sstore\n        /* \"contracts/test-helpers/OMGLikeToken.sol\":2337:2370  Transfer(msg.sender, _to, _value) */\n      dup1\n      mload\n      dup7\n      dup2\n      mstore\n      swap1\n      mload\n        /* \"contracts/test-helpers/OMGLikeToken.sol\":2290:2303  balances[_to] */\n      swap2\n      swap4\n        /* \"contracts/test-helpers/OMGLikeToken.sol\":2346:2356  msg.sender */\n      caller\n        /* \"contracts/test-helpers/OMGLikeToken.sol\":2337:2370  Transfer(msg.sender, _to, _value) */\n      swap1\n      swap4\n      and\n      swap3\n      0xddf252ad1be2c89b69c2b068fc378daa952ba7f163c4a11628f55a4df523b3ef\n      swap3\n      swap2\n      dup3\n      swap1\n      sub\n      add\n      swap1\n      log3\n        /* \"contracts/test-helpers/OMGLikeToken.sol\":1995:1996  _ */\n    tag_85:\n        /* \"contracts/test-helpers/OMGLikeToken.sol\":2155:2375  function transfer(address _to, uint _value) onlyPayloadSize(2 * 32) {... */\n    tag_83:\n      pop\n      pop\n      pop\n      jump\t// out\n        /* \"contracts/test-helpers/OMGLikeToken.sol\":643:755  function add(uint a, uint b) internal returns (uint) {... */\n    tag_79:\n        /* \"contracts/test-helpers/OMGLikeToken.sol\":690:694  uint */\n      0x0\n        /* \"contracts/test-helpers/OMGLikeToken.sol\":711:716  a + b */\n      dup3\n      dup3\n      add\n        /* \"contracts/test-helpers/OMGLikeToken.sol\":722:736  assert(c >= a) */\n      tag_89\n        /* \"contracts/test-helpers/OMGLikeToken.sol\":729:735  c >= a */\n      dup5\n      dup3\n      lt\n      iszero\n        /* \"contracts/test-helpers/OMGLikeToken.sol\":722:728  assert */\n      tag_90\n        /* \"contracts/test-helpers/OMGLikeToken.sol\":722:736  assert(c >= a) */\n      jump\t// in\n    tag_89:\n        /* \"contracts/test-helpers/OMGLikeToken.sol\":749:750  c */\n      dup1\n        /* \"contracts/test-helpers/OMGLikeToken.sol\":742:750  return c */\n      swap2\n      pop\n        /* \"contracts/test-helpers/OMGLikeToken.sol\":643:755  function add(uint a, uint b) internal returns (uint) {... */\n    tag_88:\n      pop\n      swap3\n      swap2\n      pop\n      pop\n      jump\t// out\n        /* \"contracts/test-helpers/OMGLikeToken.sol\":543:639  function sub(uint a, uint b) internal returns (uint) {... */\n    tag_81:\n        /* \"contracts/test-helpers/OMGLikeToken.sol\":590:594  uint */\n      0x0\n        /* \"contracts/test-helpers/OMGLikeToken.sol\":602:616  assert(b <= a) */\n      tag_92\n        /* \"contracts/test-helpers/OMGLikeToken.sol\":614:615  a */\n      dup4\n        /* \"contracts/test-helpers/OMGLikeToken.sol\":609:610  b */\n      dup4\n        /* \"contracts/test-helpers/OMGLikeToken.sol\":609:615  b <= a */\n      gt\n      iszero\n        /* \"contracts/test-helpers/OMGLikeToken.sol\":602:608  assert */\n      tag_90\n        /* \"contracts/test-helpers/OMGLikeToken.sol\":602:616  assert(b <= a) */\n      jump\t// in\n    tag_92:\n      pop\n        /* \"contracts/test-helpers/OMGLikeToken.sol\":629:634  a - b */\n      dup1\n      dup3\n      sub\n        /* \"contracts/test-helpers/OMGLikeToken.sol\":543:639  function sub(uint a, uint b) internal returns (uint) {... */\n    tag_91:\n      swap3\n      swap2\n      pop\n      pop\n      jump\t// out\n        /* \"contracts/test-helpers/OMGLikeToken.sol\":1189:1276  function assert(bool assertion) internal {... */\n    tag_90:\n        /* \"contracts/test-helpers/OMGLikeToken.sol\":1241:1250  assertion */\n      dup1\n        /* \"contracts/test-helpers/OMGLikeToken.sol\":1240:1250  !assertion */\n      iszero\n        /* \"contracts/test-helpers/OMGLikeToken.sol\":1236:1272  if (!assertion) {... */\n      iszero\n      tag_74\n      jumpi\n        /* \"contracts/test-helpers/OMGLikeToken.sol\":1260:1265  throw */\n      revert(0x0, 0x0)\n        /* \"contracts/test-helpers/OMGLikeToken.sol\":1236:1272  if (!assertion) {... */\n    tag_94:\n        /* \"contracts/test-helpers/OMGLikeToken.sol\":1189:1276  function assert(bool assertion) internal {... */\n    tag_93:\n      pop\n      jump\t// out\n}\n",
        "bytecode": {
          "linkReferences": {},
          "object": "60606040526003805460a060020a60ff02191690555b60038054600160a060020a03191633600160a060020a03161790555b5b610943806100416000396000f300606060405236156100ac5763ffffffff7c0100000000000000000000000000000000000000000000000000000000600035041663095ea7b381146100ae57806318160ddd146100dc57806323b872dd146100fe5780633f4ba83a146101325780635c975abb1461015657806370a082311461017a5780638456cb59146101b55780638da5cb5b146101d9578063a9059cbb14610212578063dd62ed3e14610240578063f2fde38b14610281575bfe5b34156100b657fe5b6100da73ffffffffffffffffffffffffffffffffffffffff600435166024356102ac565b005b34156100e457fe5b6100ec610366565b60408051918252519081900360200190f35b341561010657fe5b6100da73ffffffffffffffffffffffffffffffffffffffff6004358116906024351660443561036c565b005b341561013a57fe5b6101426103a7565b604080519115158252519081900360200190f35b341561015e57fe5b610142610457565b604080519115158252519081900360200190f35b341561018257fe5b6100ec73ffffffffffffffffffffffffffffffffffffffff60043516610478565b60408051918252519081900360200190f35b34156101bd57fe5b6101426104a4565b604080519115158252519081900360200190f35b34156101e157fe5b6101e961056a565b6040805173ffffffffffffffffffffffffffffffffffffffff9092168252519081900360200190f35b341561021a57fe5b6100da73ffffffffffffffffffffffffffffffffffffffff60043516602435610586565b005b341561024857fe5b6100ec73ffffffffffffffffffffffffffffffffffffffff600435811690602435166105bf565b60408051918252519081900360200190f35b341561028957fe5b6100da73ffffffffffffffffffffffffffffffffffffffff600435166105f9565b005b80158015906102ec575073ffffffffffffffffffffffffffffffffffffffff33811660009081526002602090815260408083209386168352929052205415155b156102f75760006000fd5b73ffffffffffffffffffffffffffffffffffffffff338116600081815260026020908152604080832094871680845294825291829020859055815185815291517f8c5be1e5ebec7d5bd14f71427d1e84f3dd0314c0f7b2291e5b200ac8c7c3b9259281900390910190a35b5050565b60005481565b60035474010000000000000000000000000000000000000000900460ff16156103955760006000fd5b6103a0838383610684565b5b5b505050565b6003546000903373ffffffffffffffffffffffffffffffffffffffff9081169116146103d35760006000fd5b60035474010000000000000000000000000000000000000000900460ff1615156103fd5760006000fd5b600380547fffffffffffffffffffffff00ffffffffffffffffffffffffffffffffffffffff1690556040517f7805862f689e2f13df9f062ff482ad3ad112aca9e0847911ed832e158c525b3390600090a15060015b5b5b90565b60035474010000000000000000000000000000000000000000900460ff1681565b73ffffffffffffffffffffffffffffffffffffffff81166000908152600160205260409020545b919050565b6003546000903373ffffffffffffffffffffffffffffffffffffffff9081169116146104d05760006000fd5b60035474010000000000000000000000000000000000000000900460ff16156104f95760006000fd5b600380547fffffffffffffffffffffff00ffffffffffffffffffffffffffffffffffffffff16740100000000000000000000000000000000000000001790556040517f6985a02210a168e66602d3235cb6db0e70f92b3ba4d376a33c0f3d9434bff62590600090a15060015b5b5b90565b60035473ffffffffffffffffffffffffffffffffffffffff1681565b60035474010000000000000000000000000000000000000000900460ff16156105af5760006000fd5b61036282826107dc565b5b5b5050565b73ffffffffffffffffffffffffffffffffffffffff8083166000908152600260209081526040808320938516835292905220545b92915050565b6003543373ffffffffffffffffffffffffffffffffffffffff9081169116146106225760006000fd5b73ffffffffffffffffffffffffffffffffffffffff81161561067f57600380547fffffffffffffffffffffffff00000000000000000000000000000000000000001673ffffffffffffffffffffffffffffffffffffffff83161790555b5b5b50565b6000606060643610156106975760006000fd5b73ffffffffffffffffffffffffffffffffffffffff80861660009081526002602090815260408083203385168452825280832054938816835260019091529020549092506106eb908463ffffffff6108d116565b73ffffffffffffffffffffffffffffffffffffffff808616600090815260016020526040808220939093559087168152205461072d908463ffffffff6108ed16565b73ffffffffffffffffffffffffffffffffffffffff8616600090815260016020526040902055610763828463ffffffff6108ed16565b73ffffffffffffffffffffffffffffffffffffffff8087166000818152600260209081526040808320338616845282529182902094909455805187815290519288169391927fddf252ad1be2c89b69c2b068fc378daa952ba7f163c4a11628f55a4df523b3ef929181900390910190a35b5b5050505050565b604060443610156107ed5760006000fd5b73ffffffffffffffffffffffffffffffffffffffff3316600090815260016020526040902054610823908363ffffffff6108ed16565b73ffffffffffffffffffffffffffffffffffffffff3381166000908152600160205260408082209390935590851681522054610865908363ffffffff6108d116565b73ffffffffffffffffffffffffffffffffffffffff8085166000818152600160209081526040918290209490945580518681529051919333909316927fddf252ad1be2c89b69c2b068fc378daa952ba7f163c4a11628f55a4df523b3ef92918290030190a35b5b505050565b60008282016108e284821015610906565b8091505b5092915050565b60006108fb83831115610906565b508082035b92915050565b80151561067f5760006000fd5b5b505600a165627a7a72305820639c94ad4d173d0db9a8bafd3799d63321fcf68e4c585367b127f08921bcc0470029",
          "opcodes": "PUSH1 0x60 PUSH1 0x40 MSTORE PUSH1 0x3 DUP1 SLOAD PUSH1 0xA0 PUSH1 0x2 EXP PUSH1 0xFF MUL NOT AND SWAP1 SSTORE JUMPDEST PUSH1 0x3 DUP1 SLOAD PUSH1 0x1 PUSH1 0xA0 PUSH1 0x2 EXP SUB NOT AND CALLER PUSH1 0x1 PUSH1 0xA0 PUSH1 0x2 EXP SUB AND OR SWAP1 SSTORE JUMPDEST JUMPDEST PUSH2 0x943 DUP1 PUSH2 0x41 PUSH1 0x0 CODECOPY PUSH1 0x0 RETURN STOP PUSH1 0x60 PUSH1 0x40 MSTORE CALLDATASIZE ISZERO PUSH2 0xAC JUMPI PUSH4 0xFFFFFFFF PUSH29 0x100000000000000000000000000000000000000000000000000000000 PUSH1 0x0 CALLDATALOAD DIV AND PUSH4 0x95EA7B3 DUP2 EQ PUSH2 0xAE JUMPI DUP1 PUSH4 0x18160DDD EQ PUSH2 0xDC JUMPI DUP1 PUSH4 0x23B872DD EQ PUSH2 0xFE JUMPI DUP1 PUSH4 0x3F4BA83A EQ PUSH2 0x132 JUMPI DUP1 PUSH4 0x5C975ABB EQ PUSH2 0x156 JUMPI DUP1 PUSH4 0x70A08231 EQ PUSH2 0x17A JUMPI DUP1 PUSH4 0x8456CB59 EQ PUSH2 0x1B5 JUMPI DUP1 PUSH4 0x8DA5CB5B EQ PUSH2 0x1D9 JUMPI DUP1 PUSH4 0xA9059CBB EQ PUSH2 0x212 JUMPI DUP1 PUSH4 0xDD62ED3E EQ PUSH2 0x240 JUMPI DUP1 PUSH4 0xF2FDE38B EQ PUSH2 0x281 JUMPI JUMPDEST INVALID JUMPDEST CALLVALUE ISZERO PUSH2 0xB6 JUMPI INVALID JUMPDEST PUSH2 0xDA PUSH20 0xFFFFFFFFFFFFFFFFFFFFFFFFFFFFFFFFFFFFFFFF PUSH1 0x4 CALLDATALOAD AND PUSH1 0x24 CALLDATALOAD PUSH2 0x2AC JUMP JUMPDEST STOP JUMPDEST CALLVALUE ISZERO PUSH2 0xE4 JUMPI INVALID JUMPDEST PUSH2 0xEC PUSH2 0x366 JUMP JUMPDEST PUSH1 0x40 DUP1 MLOAD SWAP2 DUP3 MSTORE MLOAD SWAP1 DUP2 SWAP1 SUB PUSH1 0x20 ADD SWAP1 RETURN JUMPDEST CALLVALUE ISZERO PUSH2 0x106 JUMPI INVALID JUMPDEST PUSH2 0xDA PUSH20 0xFFFFFFFFFFFFFFFFFFFFFFFFFFFFFFFFFFFFFFFF PUSH1 0x4 CALLDATALOAD DUP2 AND SWAP1 PUSH1 0x24 CALLDATALOAD AND PUSH1 0x44 CALLDATALOAD PUSH2 0x36C JUMP JUMPDEST STOP JUMPDEST CALLVALUE ISZERO PUSH2 0x13A JUMPI INVALID JUMPDEST PUSH2 0x142 PUSH2 0x3A7 JUMP JUMPDEST PUSH1 0x40 DUP1 MLOAD SWAP2 ISZERO ISZERO DUP3 MSTORE MLOAD SWAP1 DUP2 SWAP1 SUB PUSH1 0x20 ADD SWAP1 RETURN JUMPDEST CALLVALUE ISZERO PUSH2 0x15E JUMPI INVALID JUMPDEST PUSH2 0x142 PUSH2 0x457 JUMP JUMPDEST PUSH1 0x40 DUP1 MLOAD SWAP2 ISZERO ISZERO DUP3 MSTORE MLOAD SWAP1 DUP2 SWAP1 SUB PUSH1 0x20 ADD SWAP1 RETURN JUMPDEST CALLVALUE ISZERO PUSH2 0x182 JUMPI INVALID JUMPDEST PUSH2 0xEC PUSH20 0xFFFFFFFFFFFFFFFFFFFFFFFFFFFFFFFFFFFFFFFF PUSH1 0x4 CALLDATALOAD AND PUSH2 0x478 JUMP JUMPDEST PUSH1 0x40 DUP1 MLOAD SWAP2 DUP3 MSTORE MLOAD SWAP1 DUP2 SWAP1 SUB PUSH1 0x20 ADD SWAP1 RETURN JUMPDEST CALLVALUE ISZERO PUSH2 0x1BD JUMPI INVALID JUMPDEST PUSH2 0x142 PUSH2 0x4A4 JUMP JUMPDEST PUSH1 0x40 DUP1 MLOAD SWAP2 ISZERO ISZERO DUP3 MSTORE MLOAD SWAP1 DUP2 SWAP1 SUB PUSH1 0x20 ADD SWAP1 RETURN JUMPDEST CALLVALUE ISZERO PUSH2 0x1E1 JUMPI INVALID JUMPDEST PUSH2 0x1E9 PUSH2 0x56A JUMP JUMPDEST PUSH1 0x40 DUP1 MLOAD PUSH20 0xFFFFFFFFFFFFFFFFFFFFFFFFFFFFFFFFFFFFFFFF SWAP1 SWAP3 AND DUP3 MSTORE MLOAD SWAP1 DUP2 SWAP1 SUB PUSH1 0x20 ADD SWAP1 RETURN JUMPDEST CALLVALUE ISZERO PUSH2 0x21A JUMPI INVALID JUMPDEST PUSH2 0xDA PUSH20 0xFFFFFFFFFFFFFFFFFFFFFFFFFFFFFFFFFFFFFFFF PUSH1 0x4 CALLDATALOAD AND PUSH1 0x24 CALLDATALOAD PUSH2 0x586 JUMP JUMPDEST STOP JUMPDEST CALLVALUE ISZERO PUSH2 0x248 JUMPI INVALID JUMPDEST PUSH2 0xEC PUSH20 0xFFFFFFFFFFFFFFFFFFFFFFFFFFFFFFFFFFFFFFFF PUSH1 0x4 CALLDATALOAD DUP2 AND SWAP1 PUSH1 0x24 CALLDATALOAD AND PUSH2 0x5BF JUMP JUMPDEST PUSH1 0x40 DUP1 MLOAD SWAP2 DUP3 MSTORE MLOAD SWAP1 DUP2 SWAP1 SUB PUSH1 0x20 ADD SWAP1 RETURN JUMPDEST CALLVALUE ISZERO PUSH2 0x289 JUMPI INVALID JUMPDEST PUSH2 0xDA PUSH20 0xFFFFFFFFFFFFFFFFFFFFFFFFFFFFFFFFFFFFFFFF PUSH1 0x4 CALLDATALOAD AND PUSH2 0x5F9 JUMP JUMPDEST STOP JUMPDEST DUP1 ISZERO DUP1 ISZERO SWAP1 PUSH2 0x2EC JUMPI POP PUSH20 0xFFFFFFFFFFFFFFFFFFFFFFFFFFFFFFFFFFFFFFFF CALLER DUP2 AND PUSH1 0x0 SWAP1 DUP2 MSTORE PUSH1 0x2 PUSH1 0x20 SWAP1 DUP2 MSTORE PUSH1 0x40 DUP1 DUP4 SHA3 SWAP4 DUP7 AND DUP4 MSTORE SWAP3 SWAP1 MSTORE SHA3 SLOAD ISZERO ISZERO JUMPDEST ISZERO PUSH2 0x2F7 JUMPI PUSH1 0x0 PUSH1 0x0 REVERT JUMPDEST PUSH20 0xFFFFFFFFFFFFFFFFFFFFFFFFFFFFFFFFFFFFFFFF CALLER DUP2 AND PUSH1 0x0 DUP2 DUP2 MSTORE PUSH1 0x2 PUSH1 0x20 SWAP1 DUP2 MSTORE PUSH1 0x40 DUP1 DUP4 SHA3 SWAP5 DUP8 AND DUP1 DUP5 MSTORE SWAP5 DUP3 MSTORE SWAP2 DUP3 SWAP1 SHA3 DUP6 SWAP1 SSTORE DUP2 MLOAD DUP6 DUP2 MSTORE SWAP2 MLOAD PUSH32 0x8C5BE1E5EBEC7D5BD14F71427D1E84F3DD0314C0F7B2291E5B200AC8C7C3B925 SWAP3 DUP2 SWAP1 SUB SWAP1 SWAP2 ADD SWAP1 LOG3 JUMPDEST POP POP JUMP JUMPDEST PUSH1 0x0 SLOAD DUP2 JUMP JUMPDEST PUSH1 0x3 SLOAD PUSH21 0x10000000000000000000000000000000000000000 SWAP1 DIV PUSH1 0xFF AND ISZERO PUSH2 0x395 JUMPI PUSH1 0x0 PUSH1 0x0 REVERT JUMPDEST PUSH2 0x3A0 DUP4 DUP4 DUP4 PUSH2 0x684 JUMP JUMPDEST JUMPDEST JUMPDEST POP POP POP JUMP JUMPDEST PUSH1 0x3 SLOAD PUSH1 0x0 SWAP1 CALLER PUSH20 0xFFFFFFFFFFFFFFFFFFFFFFFFFFFFFFFFFFFFFFFF SWAP1 DUP2 AND SWAP2 AND EQ PUSH2 0x3D3 JUMPI PUSH1 0x0 PUSH1 0x0 REVERT JUMPDEST PUSH1 0x3 SLOAD PUSH21 0x10000000000000000000000000000000000000000 SWAP1 DIV PUSH1 0xFF AND ISZERO ISZERO PUSH2 0x3FD JUMPI PUSH1 0x0 PUSH1 0x0 REVERT JUMPDEST PUSH1 0x3 DUP1 SLOAD PUSH32 0xFFFFFFFFFFFFFFFFFFFFFF00FFFFFFFFFFFFFFFFFFFFFFFFFFFFFFFFFFFFFFFF AND SWAP1 SSTORE PUSH1 0x40 MLOAD PUSH32 0x7805862F689E2F13DF9F062FF482AD3AD112ACA9E0847911ED832E158C525B33 SWAP1 PUSH1 0x0 SWAP1 LOG1 POP PUSH1 0x1 JUMPDEST JUMPDEST JUMPDEST SWAP1 JUMP JUMPDEST PUSH1 0x3 SLOAD PUSH21 0x10000000000000000000000000000000000000000 SWAP1 DIV PUSH1 0xFF AND DUP2 JUMP JUMPDEST PUSH20 0xFFFFFFFFFFFFFFFFFFFFFFFFFFFFFFFFFFFFFFFF DUP2 AND PUSH1 0x0 SWAP1 DUP2 MSTORE PUSH1 0x1 PUSH1 0x20 MSTORE PUSH1 0x40 SWAP1 SHA3 SLOAD JUMPDEST SWAP2 SWAP1 POP JUMP JUMPDEST PUSH1 0x3 SLOAD PUSH1 0x0 SWAP1 CALLER PUSH20 0xFFFFFFFFFFFFFFFFFFFFFFFFFFFFFFFFFFFFFFFF SWAP1 DUP2 AND SWAP2 AND EQ PUSH2 0x4D0 JUMPI PUSH1 0x0 PUSH1 0x0 REVERT JUMPDEST PUSH1 0x3 SLOAD PUSH21 0x10000000000000000000000000000000000000000 SWAP1 DIV PUSH1 0xFF AND ISZERO PUSH2 0x4F9 JUMPI PUSH1 0x0 PUSH1 0x0 REVERT JUMPDEST PUSH1 0x3 DUP1 SLOAD PUSH32 0xFFFFFFFFFFFFFFFFFFFFFF00FFFFFFFFFFFFFFFFFFFFFFFFFFFFFFFFFFFFFFFF AND PUSH21 0x10000000000000000000000000000000000000000 OR SWAP1 SSTORE PUSH1 0x40 MLOAD PUSH32 0x6985A02210A168E66602D3235CB6DB0E70F92B3BA4D376A33C0F3D9434BFF625 SWAP1 PUSH1 0x0 SWAP1 LOG1 POP PUSH1 0x1 JUMPDEST JUMPDEST JUMPDEST SWAP1 JUMP JUMPDEST PUSH1 0x3 SLOAD PUSH20 0xFFFFFFFFFFFFFFFFFFFFFFFFFFFFFFFFFFFFFFFF AND DUP2 JUMP JUMPDEST PUSH1 0x3 SLOAD PUSH21 0x10000000000000000000000000000000000000000 SWAP1 DIV PUSH1 0xFF AND ISZERO PUSH2 0x5AF JUMPI PUSH1 0x0 PUSH1 0x0 REVERT JUMPDEST PUSH2 0x362 DUP3 DUP3 PUSH2 0x7DC JUMP JUMPDEST JUMPDEST JUMPDEST POP POP JUMP JUMPDEST PUSH20 0xFFFFFFFFFFFFFFFFFFFFFFFFFFFFFFFFFFFFFFFF DUP1 DUP4 AND PUSH1 0x0 SWAP1 DUP2 MSTORE PUSH1 0x2 PUSH1 0x20 SWAP1 DUP2 MSTORE PUSH1 0x40 DUP1 DUP4 SHA3 SWAP4 DUP6 AND DUP4 MSTORE SWAP3 SWAP1 MSTORE SHA3 SLOAD JUMPDEST SWAP3 SWAP2 POP POP JUMP JUMPDEST PUSH1 0x3 SLOAD CALLER PUSH20 0xFFFFFFFFFFFFFFFFFFFFFFFFFFFFFFFFFFFFFFFF SWAP1 DUP2 AND SWAP2 AND EQ PUSH2 0x622 JUMPI PUSH1 0x0 PUSH1 0x0 REVERT JUMPDEST PUSH20 0xFFFFFFFFFFFFFFFFFFFFFFFFFFFFFFFFFFFFFFFF DUP2 AND ISZERO PUSH2 0x67F JUMPI PUSH1 0x3 DUP1 SLOAD PUSH32 0xFFFFFFFFFFFFFFFFFFFFFFFF0000000000000000000000000000000000000000 AND PUSH20 0xFFFFFFFFFFFFFFFFFFFFFFFFFFFFFFFFFFFFFFFF DUP4 AND OR SWAP1 SSTORE JUMPDEST JUMPDEST JUMPDEST POP JUMP JUMPDEST PUSH1 0x0 PUSH1 0x60 PUSH1 0x64 CALLDATASIZE LT ISZERO PUSH2 0x697 JUMPI PUSH1 0x0 PUSH1 0x0 REVERT JUMPDEST PUSH20 0xFFFFFFFFFFFFFFFFFFFFFFFFFFFFFFFFFFFFFFFF DUP1 DUP7 AND PUSH1 0x0 SWAP1 DUP2 MSTORE PUSH1 0x2 PUSH1 0x20 SWAP1 DUP2 MSTORE PUSH1 0x40 DUP1 DUP4 SHA3 CALLER DUP6 AND DUP5 MSTORE DUP3 MSTORE DUP1 DUP4 SHA3 SLOAD SWAP4 DUP9 AND DUP4 MSTORE PUSH1 0x1 SWAP1 SWAP2 MSTORE SWAP1 SHA3 SLOAD SWAP1 SWAP3 POP PUSH2 0x6EB SWAP1 DUP5 PUSH4 0xFFFFFFFF PUSH2 0x8D1 AND JUMP JUMPDEST PUSH20 0xFFFFFFFFFFFFFFFFFFFFFFFFFFFFFFFFFFFFFFFF DUP1 DUP7 AND PUSH1 0x0 SWAP1 DUP2 MSTORE PUSH1 0x1 PUSH1 0x20 MSTORE PUSH1 0x40 DUP1 DUP3 SHA3 SWAP4 SWAP1 SWAP4 SSTORE SWAP1 DUP8 AND DUP2 MSTORE SHA3 SLOAD PUSH2 0x72D SWAP1 DUP5 PUSH4 0xFFFFFFFF PUSH2 0x8ED AND JUMP JUMPDEST PUSH20 0xFFFFFFFFFFFFFFFFFFFFFFFFFFFFFFFFFFFFFFFF DUP7 AND PUSH1 0x0 SWAP1 DUP2 MSTORE PUSH1 0x1 PUSH1 0x20 MSTORE PUSH1 0x40 SWAP1 SHA3 SSTORE PUSH2 0x763 DUP3 DUP5 PUSH4 0xFFFFFFFF PUSH2 0x8ED AND JUMP JUMPDEST PUSH20 0xFFFFFFFFFFFFFFFFFFFFFFFFFFFFFFFFFFFFFFFF DUP1 DUP8 AND PUSH1 0x0 DUP2 DUP2 MSTORE PUSH1 0x2 PUSH1 0x20 SWAP1 DUP2 MSTORE PUSH1 0x40 DUP1 DUP4 SHA3 CALLER DUP7 AND DUP5 MSTORE DUP3 MSTORE SWAP2 DUP3 SWAP1 SHA3 SWAP5 SWAP1 SWAP5 SSTORE DUP1 MLOAD DUP8 DUP2 MSTORE SWAP1 MLOAD SWAP3 DUP9 AND SWAP4 SWAP2 SWAP3 PUSH32 0xDDF252AD1BE2C89B69C2B068FC378DAA952BA7F163C4A11628F55A4DF523B3EF SWAP3 SWAP2 DUP2 SWAP1 SUB SWAP1 SWAP2 ADD SWAP1 LOG3 JUMPDEST JUMPDEST POP POP POP POP POP JUMP JUMPDEST PUSH1 0x40 PUSH1 0x44 CALLDATASIZE LT ISZERO PUSH2 0x7ED JUMPI PUSH1 0x0 PUSH1 0x0 REVERT JUMPDEST PUSH20 0xFFFFFFFFFFFFFFFFFFFFFFFFFFFFFFFFFFFFFFFF CALLER AND PUSH1 0x0 SWAP1 DUP2 MSTORE PUSH1 0x1 PUSH1 0x20 MSTORE PUSH1 0x40 SWAP1 SHA3 SLOAD PUSH2 0x823 SWAP1 DUP4 PUSH4 0xFFFFFFFF PUSH2 0x8ED AND JUMP JUMPDEST PUSH20 0xFFFFFFFFFFFFFFFFFFFFFFFFFFFFFFFFFFFFFFFF CALLER DUP2 AND PUSH1 0x0 SWAP1 DUP2 MSTORE PUSH1 0x1 PUSH1 0x20 MSTORE PUSH1 0x40 DUP1 DUP3 SHA3 SWAP4 SWAP1 SWAP4 SSTORE SWAP1 DUP6 AND DUP2 MSTORE SHA3 SLOAD PUSH2 0x865 SWAP1 DUP4 PUSH4 0xFFFFFFFF PUSH2 0x8D1 AND JUMP JUMPDEST PUSH20 0xFFFFFFFFFFFFFFFFFFFFFFFFFFFFFFFFFFFFFFFF DUP1 DUP6 AND PUSH1 0x0 DUP2 DUP2 MSTORE PUSH1 0x1 PUSH1 0x20 SWAP1 DUP2 MSTORE PUSH1 0x40 SWAP2 DUP3 SWAP1 SHA3 SWAP5 SWAP1 SWAP5 SSTORE DUP1 MLOAD DUP7 DUP2 MSTORE SWAP1 MLOAD SWAP2 SWAP4 CALLER SWAP1 SWAP4 AND SWAP3 PUSH32 0xDDF252AD1BE2C89B69C2B068FC378DAA952BA7F163C4A11628F55A4DF523B3EF SWAP3 SWAP2 DUP3 SWAP1 SUB ADD SWAP1 LOG3 JUMPDEST JUMPDEST POP POP POP JUMP JUMPDEST PUSH1 0x0 DUP3 DUP3 ADD PUSH2 0x8E2 DUP5 DUP3 LT ISZERO PUSH2 0x906 JUMP JUMPDEST DUP1 SWAP2 POP JUMPDEST POP SWAP3 SWAP2 POP POP JUMP JUMPDEST PUSH1 0x0 PUSH2 0x8FB DUP4 DUP4 GT ISZERO PUSH2 0x906 JUMP JUMPDEST POP DUP1 DUP3 SUB JUMPDEST SWAP3 SWAP2 POP POP JUMP JUMPDEST DUP1 ISZERO ISZERO PUSH2 0x67F JUMPI PUSH1 0x0 PUSH1 0x0 REVERT JUMPDEST JUMPDEST POP JUMP STOP LOG1 PUSH6 0x627A7A723058 SHA3 PUSH4 0x9C94AD4D OR 0x3d 0xd 0xb9 0xa8 0xba REVERT CALLDATACOPY SWAP10 0xd6 CALLER 0x21 0xfc 0xf6 DUP15 0x4c PC MSTORE8 PUSH8 0xB127F08921BCC047 STOP 0x29 "
        },
        "gasEstimates": {
          "creation": {
            "codeDepositCost": "474200",
            "executionCost": "41146",
            "totalCost": "515346"
          },
          "external": {
            "allowance(address,address)": "759",
            "approve(address,uint256)": "22534",
            "balanceOf(address)": "576",
            "owner()": "542",
            "pause()": "21788",
            "paused()": "484",
            "totalSupply()": "395",
            "transfer(address,uint256)": "infinite",
            "transferFrom(address,address,uint256)": "infinite",
            "transferOwnership(address)": "20851",
            "unpause()": "21719"
          }
        },
        "methodIdentifiers": {
          "allowance(address,address)": "dd62ed3e",
          "approve(address,uint256)": "095ea7b3",
          "balanceOf(address)": "70a08231",
          "owner()": "8da5cb5b",
          "pause()": "8456cb59",
          "paused()": "5c975abb",
          "totalSupply()": "18160ddd",
          "transfer(address,uint256)": "a9059cbb",
          "transferFrom(address,address,uint256)": "23b872dd",
          "transferOwnership(address)": "f2fde38b",
          "unpause()": "3f4ba83a"
        }
      },
      "userdoc": {
        "methods": {}
      }
    }
  }
}