{
  "contracts/test-helpers/OMGLikeToken.sol": {
    "TokenTimelock": {
      "abi": [
        {
          "constant": false,
          "inputs": [],
          "name": "claim",
          "outputs": [],
          "payable": false,
          "type": "function"
        },
        {
          "inputs": [
            {
              "name": "_token",
              "type": "address"
            },
            {
              "name": "_beneficiary",
              "type": "address"
            },
            {
              "name": "_releaseTime",
              "type": "uint256"
            }
          ],
          "payable": false,
          "type": "constructor"
        }
      ],
      "devdoc": {
        "methods": {
          "claim()": {
            "details": "beneficiary claims tokens held by time lock"
          }
        },
        "title": "TokenTimelock"
      },
      "evm": {
        "assembly": "    /* \"contracts/test-helpers/OMGLikeToken.sol\":8893:9608  contract TokenTimelock {... */\n  mstore(0x40, 0x60)\n    /* \"contracts/test-helpers/OMGLikeToken.sol\":9127:9332  function TokenTimelock(ERC20Basic _token, address _beneficiary, uint _releaseTime) {... */\n  jumpi(tag_1, iszero(callvalue))\n  invalid\ntag_1:\n  mload(0x40)\n  0x60\n  dup1\n  bytecodeSize\n  dup4\n  codecopy\n  dup2\n  add\n  0x40\n  swap1\n  dup2\n  mstore\n  dup2\n  mload\n  0x20\n  dup4\n  add\n  mload\n  swap2\n  swap1\n  swap3\n  add\n  mload\ntag_2:\n    /* \"contracts/test-helpers/OMGLikeToken.sol\":9239:9242  now */\n  timestamp\n    /* \"contracts/test-helpers/OMGLikeToken.sol\":9224:9242  _releaseTime > now */\n  dup2\n  gt\n    /* \"contracts/test-helpers/OMGLikeToken.sol\":9216:9243  require(_releaseTime > now) */\n  tag_4\n  jumpi\n  revert(0x0, 0x0)\ntag_4:\n    /* \"contracts/test-helpers/OMGLikeToken.sol\":9249:9254  token */\n  0x0\n    /* \"contracts/test-helpers/OMGLikeToken.sol\":9249:9263  token = _token */\n  dup1\n  sload\n  sub(exp(0x2, 0xa0), 0x1)\n  dup1\n  dup7\n  and\n  not(sub(exp(0x2, 0xa0), 0x1))\n  swap3\n  dup4\n  and\n  or\n  swap1\n  swap3\n  sstore\n  0x1\n    /* \"contracts/test-helpers/OMGLikeToken.sol\":9269:9295  beneficiary = _beneficiary */\n  dup1\n  sload\n  swap3\n  dup6\n  and\n  swap3\n  swap1\n  swap2\n  and\n  swap2\n  swap1\n  swap2\n  or\n  swap1\n  sstore\n    /* \"contracts/test-helpers/OMGLikeToken.sol\":9301:9312  releaseTime */\n  0x2\n    /* \"contracts/test-helpers/OMGLikeToken.sol\":9301:9327  releaseTime = _releaseTime */\n  dup2\n  swap1\n  sstore\n    /* \"contracts/test-helpers/OMGLikeToken.sol\":9127:9332  function TokenTimelock(ERC20Basic _token, address _beneficiary, uint _releaseTime) {... */\ntag_3:\n  pop\n  pop\n  pop\n    /* \"contracts/test-helpers/OMGLikeToken.sol\":8893:9608  contract TokenTimelock {... */\ntag_5:\n  dataSize(sub_0)\n  dup1\n  dataOffset(sub_0)\n  0x0\n  codecopy\n  0x0\n  return\nstop\n\nsub_0: assembly {\n        /* \"contracts/test-helpers/OMGLikeToken.sol\":8893:9608  contract TokenTimelock {... */\n      mstore(0x40, 0x60)\n      and(div(calldataload(0x0), 0x100000000000000000000000000000000000000000000000000000000), 0xffffffff)\n      0x4e71d92d\n      dup2\n      eq\n      tag_2\n      jumpi\n    tag_1:\n      invalid\n        /* \"contracts/test-helpers/OMGLikeToken.sol\":9402:9606  function claim() {... */\n    tag_2:\n      jumpi(tag_3, iszero(callvalue))\n      invalid\n    tag_3:\n      tag_4\n      jump(tag_5)\n    tag_4:\n      stop\n    tag_5:\n        /* \"contracts/test-helpers/OMGLikeToken.sol\":9447:9458  beneficiary */\n      sload(0x1)\n        /* \"contracts/test-helpers/OMGLikeToken.sol\":9499:9510  uint amount */\n      0x0\n      swap1\n        /* \"contracts/test-helpers/OMGLikeToken.sol\":9433:9443  msg.sender */\n      caller\n        /* \"contracts/test-helpers/OMGLikeToken.sol\":9447:9458  beneficiary */\n      0xffffffffffffffffffffffffffffffffffffffff\n        /* \"contracts/test-helpers/OMGLikeToken.sol\":9433:9458  msg.sender == beneficiary */\n      swap1\n      dup2\n      and\n        /* \"contracts/test-helpers/OMGLikeToken.sol\":9447:9458  beneficiary */\n      swap2\n      and\n        /* \"contracts/test-helpers/OMGLikeToken.sol\":9433:9458  msg.sender == beneficiary */\n      eq\n        /* \"contracts/test-helpers/OMGLikeToken.sol\":9425:9459  require(msg.sender == beneficiary) */\n      tag_7\n      jumpi\n      revert(0x0, 0x0)\n    tag_7:\n        /* \"contracts/test-helpers/OMGLikeToken.sol\":9480:9491  releaseTime */\n      sload(0x2)\n        /* \"contracts/test-helpers/OMGLikeToken.sol\":9473:9476  now */\n      timestamp\n        /* \"contracts/test-helpers/OMGLikeToken.sol\":9473:9491  now >= releaseTime */\n      lt\n      iszero\n        /* \"contracts/test-helpers/OMGLikeToken.sol\":9465:9492  require(now >= releaseTime) */\n      tag_8\n      jumpi\n      revert(0x0, 0x0)\n    tag_8:\n        /* \"contracts/test-helpers/OMGLikeToken.sol\":9513:9518  token */\n      0x0\n      dup1\n      sload\n        /* \"contracts/test-helpers/OMGLikeToken.sol\":9513:9534  token.balanceOf(this) */\n      0x40\n      dup1\n      mload\n      0x20\n      swap1\n      dup2\n      add\n      dup5\n      swap1\n      mstore\n      dup2\n      mload\n      0x70a0823100000000000000000000000000000000000000000000000000000000\n      dup2\n      mstore\n        /* \"contracts/test-helpers/OMGLikeToken.sol\":9513:9518  token */\n      0xffffffffffffffffffffffffffffffffffffffff\n        /* \"contracts/test-helpers/OMGLikeToken.sol\":9529:9533  this */\n      address\n        /* \"contracts/test-helpers/OMGLikeToken.sol\":9513:9534  token.balanceOf(this) */\n      dup2\n      and\n      0x4\n      dup4\n      add\n      mstore\n      swap3\n      mload\n        /* \"contracts/test-helpers/OMGLikeToken.sol\":9513:9518  token */\n      swap3\n      swap1\n      swap4\n      and\n      swap4\n        /* \"contracts/test-helpers/OMGLikeToken.sol\":9513:9528  token.balanceOf */\n      0x70a08231\n      swap4\n        /* \"contracts/test-helpers/OMGLikeToken.sol\":9513:9534  token.balanceOf(this) */\n      0x24\n      dup1\n      dup3\n      add\n      swap5\n      swap3\n      swap2\n      dup4\n      swap1\n      sub\n      add\n      swap1\n      dup3\n      swap1\n        /* \"contracts/test-helpers/OMGLikeToken.sol\":9513:9518  token */\n      dup8\n        /* \"contracts/test-helpers/OMGLikeToken.sol\":9513:9534  token.balanceOf(this) */\n      dup1\n      extcodesize\n      iszero\n      iszero\n      tag_9\n      jumpi\n      invalid\n    tag_9:\n      sub(gas, 0x2c6)\n      call\n      iszero\n      iszero\n      tag_10\n      jumpi\n      invalid\n    tag_10:\n      pop\n      pop\n      mload(mload(0x40))\n      swap2\n      pop\n      pop\n        /* \"contracts/test-helpers/OMGLikeToken.sol\":9557:9558  0 */\n      0x0\n        /* \"contracts/test-helpers/OMGLikeToken.sol\":9548:9558  amount > 0 */\n      dup2\n      gt\n        /* \"contracts/test-helpers/OMGLikeToken.sol\":9540:9559  require(amount > 0) */\n      tag_11\n      jumpi\n      revert(0x0, 0x0)\n    tag_11:\n        /* \"contracts/test-helpers/OMGLikeToken.sol\":9566:9571  token */\n      0x0\n      dup1\n      sload\n      0x1\n        /* \"contracts/test-helpers/OMGLikeToken.sol\":9581:9592  beneficiary */\n      sload\n        /* \"contracts/test-helpers/OMGLikeToken.sol\":9566:9601  token.transfer(beneficiary, amount) */\n      0x40\n      dup1\n      mload\n      0xa9059cbb00000000000000000000000000000000000000000000000000000000\n      dup2\n      mstore\n        /* \"contracts/test-helpers/OMGLikeToken.sol\":9566:9571  token */\n      0xffffffffffffffffffffffffffffffffffffffff\n        /* \"contracts/test-helpers/OMGLikeToken.sol\":9581:9592  beneficiary */\n      swap3\n      dup4\n      and\n        /* \"contracts/test-helpers/OMGLikeToken.sol\":9566:9601  token.transfer(beneficiary, amount) */\n      0x4\n      dup3\n      add\n      mstore\n      0x24\n      dup2\n      add\n      dup7\n      swap1\n      mstore\n      swap1\n      mload\n        /* \"contracts/test-helpers/OMGLikeToken.sol\":9566:9571  token */\n      swap2\n      swap1\n      swap3\n      and\n      swap3\n        /* \"contracts/test-helpers/OMGLikeToken.sol\":9566:9580  token.transfer */\n      0xa9059cbb\n      swap3\n        /* \"contracts/test-helpers/OMGLikeToken.sol\":9566:9601  token.transfer(beneficiary, amount) */\n      0x44\n      dup1\n      dup3\n      add\n      swap4\n      swap2\n      dup3\n      swap1\n      sub\n      add\n      dup2\n        /* \"contracts/test-helpers/OMGLikeToken.sol\":9566:9571  token */\n      dup4\n      dup8\n        /* \"contracts/test-helpers/OMGLikeToken.sol\":9566:9601  token.transfer(beneficiary, amount) */\n      dup1\n      extcodesize\n      iszero\n      iszero\n      tag_12\n      jumpi\n      invalid\n    tag_12:\n      sub(gas, 0x2c6)\n      call\n      iszero\n      iszero\n      tag_13\n      jumpi\n      invalid\n    tag_13:\n      pop\n      pop\n      pop\n        /* \"contracts/test-helpers/OMGLikeToken.sol\":9402:9606  function claim() {... */\n    tag_6:\n      pop\n      jump\t// out\n}\n",
        "bytecode": {
          "linkReferences": {},
          "object": "6060604052341561000c57fe5b60405160608061025f8339810160409081528151602083015191909201515b4281116100385760006000fd5b60008054600160a060020a03808616600160a060020a031992831617909255600180549285169290911691909117905560028190555b5050505b6101de806100816000396000f300606060405263ffffffff7c01000000000000000000000000000000000000000000000000000000006000350416634e71d92d811461003a575bfe5b341561004257fe5b61004a61004c565b005b6001546000903373ffffffffffffffffffffffffffffffffffffffff9081169116146100785760006000fd5b6002544210156100885760006000fd5b6000805460408051602090810184905281517f70a0823100000000000000000000000000000000000000000000000000000000815273ffffffffffffffffffffffffffffffffffffffff3081166004830152925192909316936370a082319360248082019492918390030190829087803b151561010157fe5b6102c65a03f1151561010f57fe5b505060405151915050600081116101265760006000fd5b60008054600154604080517fa9059cbb00000000000000000000000000000000000000000000000000000000815273ffffffffffffffffffffffffffffffffffffffff9283166004820152602481018690529051919092169263a9059cbb926044808201939182900301818387803b151561019d57fe5b6102c65a03f115156101ab57fe5b5050505b505600a165627a7a723058204563196eb3829e6e3bca06feeef6c5f3751d33b499dbe1656451fb367e82b0d80029",
          "opcodes": "PUSH1 0x60 PUSH1 0x40 MSTORE CALLVALUE ISZERO PUSH2 0xC JUMPI INVALID JUMPDEST PUSH1 0x40 MLOAD PUSH1 0x60 DUP1 PUSH2 0x25F DUP4 CODECOPY DUP2 ADD PUSH1 0x40 SWAP1 DUP2 MSTORE DUP2 MLOAD PUSH1 0x20 DUP4 ADD MLOAD SWAP2 SWAP1 SWAP3 ADD MLOAD JUMPDEST TIMESTAMP DUP2 GT PUSH2 0x38 JUMPI PUSH1 0x0 PUSH1 0x0 REVERT JUMPDEST PUSH1 0x0 DUP1 SLOAD PUSH1 0x1 PUSH1 0xA0 PUSH1 0x2 EXP SUB DUP1 DUP7 AND PUSH1 0x1 PUSH1 0xA0 PUSH1 0x2 EXP SUB NOT SWAP3 DUP4 AND OR SWAP1 SWAP3 SSTORE PUSH1 0x1 DUP1 SLOAD SWAP3 DUP6 AND SWAP3 SWAP1 SWAP2 AND SWAP2 SWAP1 SWAP2 OR SWAP1 SSTORE PUSH1 0x2 DUP2 SWAP1 SSTORE JUMPDEST POP POP POP JUMPDEST PUSH2 0x1DE DUP1 PUSH2 0x81 PUSH1 0x0 CODECOPY PUSH1 0x0 RETURN STOP PUSH1 0x60 PUSH1 0x40 MSTORE PUSH4 0xFFFFFFFF PUSH29 0x100000000000000000000000000000000000000000000000000000000 PUSH1 0x0 CALLDATALOAD DIV AND PUSH4 0x4E71D92D DUP2 EQ PUSH2 0x3A JUMPI JUMPDEST INVALID JUMPDEST CALLVALUE ISZERO PUSH2 0x42 JUMPI INVALID JUMPDEST PUSH2 0x4A PUSH2 0x4C JUMP JUMPDEST STOP JUMPDEST PUSH1 0x1 SLOAD PUSH1 0x0 SWAP1 CALLER PUSH20 0xFFFFFFFFFFFFFFFFFFFFFFFFFFFFFFFFFFFFFFFF SWAP1 DUP2 AND SWAP2 AND EQ PUSH2 0x78 JUMPI PUSH1 0x0 PUSH1 0x0 REVERT JUMPDEST PUSH1 0x2 SLOAD TIMESTAMP LT ISZERO PUSH2 0x88 JUMPI PUSH1 0x0 PUSH1 0x0 REVERT JUMPDEST PUSH1 0x0 DUP1 SLOAD PUSH1 0x40 DUP1 MLOAD PUSH1 0x20 SWAP1 DUP2 ADD DUP5 SWAP1 MSTORE DUP2 MLOAD PUSH32 0x70A0823100000000000000000000000000000000000000000000000000000000 DUP2 MSTORE PUSH20 0xFFFFFFFFFFFFFFFFFFFFFFFFFFFFFFFFFFFFFFFF ADDRESS DUP2 AND PUSH1 0x4 DUP4 ADD MSTORE SWAP3 MLOAD SWAP3 SWAP1 SWAP4 AND SWAP4 PUSH4 0x70A08231 SWAP4 PUSH1 0x24 DUP1 DUP3 ADD SWAP5 SWAP3 SWAP2 DUP4 SWAP1 SUB ADD SWAP1 DUP3 SWAP1 DUP8 DUP1 EXTCODESIZE ISZERO ISZERO PUSH2 0x101 JUMPI INVALID JUMPDEST PUSH2 0x2C6 GAS SUB CALL ISZERO ISZERO PUSH2 0x10F JUMPI INVALID JUMPDEST POP POP PUSH1 0x40 MLOAD MLOAD SWAP2 POP POP PUSH1 0x0 DUP2 GT PUSH2 0x126 JUMPI PUSH1 0x0 PUSH1 0x0 REVERT JUMPDEST PUSH1 0x0 DUP1 SLOAD PUSH1 0x1 SLOAD PUSH1 0x40 DUP1 MLOAD PUSH32 0xA9059CBB00000000000000000000000000000000000000000000000000000000 DUP2 MSTORE PUSH20 0xFFFFFFFFFFFFFFFFFFFFFFFFFFFFFFFFFFFFFFFF SWAP3 DUP4 AND PUSH1 0x4 DUP3 ADD MSTORE PUSH1 0x24 DUP2 ADD DUP7 SWAP1 MSTORE SWAP1 MLOAD SWAP2 SWAP1 SWAP3 AND SWAP3 PUSH4 0xA9059CBB SWAP3 PUSH1 0x44 DUP1 DUP3 ADD SWAP4 SWAP2 DUP3 SWAP1 SUB ADD DUP2 DUP4 DUP8 DUP1 EXTCODESIZE ISZERO ISZERO PUSH2 0x19D JUMPI INVALID JUMPDEST PUSH2 0x2C6 GAS SUB CALL ISZERO ISZERO PUSH2 0x1AB JUMPI INVALID JUMPDEST POP POP POP JUMPDEST POP JUMP STOP LOG1 PUSH6 0x627A7A723058 SHA3 GASLIMIT PUSH4 0x196EB382 SWAP15 PUSH15 0x3BCA06FEEEF6C5F3751D33B499DBE1 PUSH6 0x6451FB367E82 0xb0 0xd8 STOP 0x29 "
        },
        "gasEstimates": {
          "creation": {
            "codeDepositCost": "95600",
            "executionCost": "60879",
            "totalCost": "156479"
          },
          "external": {
            "claim()": "infinite"
          }
        },
        "methodIdentifiers": {
          "claim()": "4e71d92d"
        }
      },
      "userdoc": {
        "methods": {}
      }
    }
  }
}