{
  "_format": "hh-sol-artifact-1",
  "contractName": "AuthenticatedFaucet",
  "sourceName": "contracts/AuthenticatedFaucet.sol",
  "abi": [
    {
      "inputs": [
        {
          "internalType": "string",
          "name": "apiUrl_",
          "type": "string"
        },
        {
          "internalType": "address",
          "name": "turingHelper_",
          "type": "address"
        },
        {
          "internalType": "uint256",
          "name": "maxClaimsPerEpoch_",
          "type": "uint256"
        },
        {
          "internalType": "uint256",
          "name": "testnetETHPerClaim_",
          "type": "uint256"
        }
      ],
      "stateMutability": "nonpayable",
      "type": "constructor"
    },
    {
      "anonymous": false,
      "inputs": [
        {
          "indexed": false,
          "internalType": "uint256",
          "name": "authorId",
          "type": "uint256"
        }
      ],
      "name": "GasClaimed",
      "type": "event"
    },
    {
      "inputs": [],
      "name": "apiUrl",
      "outputs": [
        {
          "internalType": "string",
          "name": "",
          "type": "string"
        }
      ],
      "stateMutability": "view",
      "type": "function"
    },
    {
      "inputs": [
        {
          "internalType": "address",
          "name": "from",
          "type": "address"
        }
      ],
      "name": "getNonce",
      "outputs": [
        {
          "internalType": "uint256",
          "name": "",
          "type": "uint256"
        }
      ],
      "stateMutability": "view",
      "type": "function"
    },
    {
      "inputs": [
        {
          "internalType": "address",
          "name": "to_",
          "type": "address"
        },
        {
          "internalType": "string",
          "name": "twitterPostID_",
          "type": "string"
        }
      ],
      "name": "sendFunds",
      "outputs": [],
      "stateMutability": "nonpayable",
      "type": "function"
    },
    {
      "inputs": [
        {
          "internalType": "address",
          "name": "to_",
          "type": "address"
        },
        {
          "internalType": "string",
          "name": "twitterPostID_",
          "type": "string"
        },
        {
          "internalType": "bytes32",
          "name": "hashedMessage_",
          "type": "bytes32"
        },
        {
          "internalType": "bytes",
          "name": "signature_",
          "type": "bytes"
        }
      ],
      "name": "sendFundsMeta",
      "outputs": [],
      "stateMutability": "nonpayable",
      "type": "function"
    },
    {
      "inputs": [],
      "name": "turingHelper",
      "outputs": [
        {
          "internalType": "contract ITuringHelper",
          "name": "",
          "type": "address"
        }
      ],
      "stateMutability": "view",
      "type": "function"
    },
    {
      "inputs": [
        {
          "internalType": "bytes32",
          "name": "_hashedMessage",
          "type": "bytes32"
        },
        {
          "internalType": "bytes",
          "name": "signature",
          "type": "bytes"
        }
      ],
      "name": "verifyMessage",
      "outputs": [
        {
          "internalType": "address",
          "name": "",
          "type": "address"
        }
      ],
      "stateMutability": "pure",
      "type": "function"
    },
    {
      "stateMutability": "payable",
      "type": "receive"
    }
  ],
  "bytecode": "0x60806040523480156200001157600080fd5b50604051620016003803806200160083398101604081905262000034916200015a565b83516200004990600090602087019062000081565b50600180546001600160a01b0319166001600160a01b0394909416939093179092554260035560006004556005556006555062000298565b8280546200008f906200025b565b90600052602060002090601f016020900481019282620000b35760008555620000fe565b82601f10620000ce57805160ff1916838001178555620000fe565b82800160010185558215620000fe579182015b82811115620000fe578251825591602001919060010190620000e1565b506200010c92915062000110565b5090565b5b808211156200010c576000815560010162000111565b634e487b7160e01b600052604160045260246000fd5b80516001600160a01b03811681146200015557600080fd5b919050565b600080600080608085870312156200017157600080fd5b84516001600160401b03808211156200018957600080fd5b818701915087601f8301126200019e57600080fd5b815181811115620001b357620001b362000127565b604051601f8201601f19908116603f01168101908382118183101715620001de57620001de62000127565b81604052828152602093508a84848701011115620001fb57600080fd5b600091505b828210156200021f578482018401518183018501529083019062000200565b82821115620002315760008484830101525b9750620002439150508782016200013d565b60408801516060909801519699909850945050505050565b600181811c908216806200027057607f821691505b602082108114156200029257634e487b7160e01b600052602260045260246000fd5b50919050565b61135880620002a86000396000f3fe6080604052600436106100695760003560e01c806341efaee91161004357806341efaee9146101325780638367e1201461015f578063f8aab2e61461018157600080fd5b80631f35fedb146100755780632d0335ab146100975780633b51be4b146100ed57600080fd5b3661007057005b600080fd5b34801561008157600080fd5b50610095610090366004610ddc565b6101a1565b005b3480156100a357600080fd5b506100da6100b2366004610e60565b73ffffffffffffffffffffffffffffffffffffffff1660009081526007602052604090205490565b6040519081526020015b60405180910390f35b3480156100f957600080fd5b5061010d610108366004610e82565b6102ad565b60405173ffffffffffffffffffffffffffffffffffffffff90911681526020016100e4565b34801561013e57600080fd5b5060015461010d9073ffffffffffffffffffffffffffffffffffffffff1681565b34801561016b57600080fd5b50610174610311565b6040516100e49190610f25565b34801561018d57600080fd5b5061009561019c366004610f38565b61039f565b8473ffffffffffffffffffffffffffffffffffffffff166101c283836102ad565b73ffffffffffffffffffffffffffffffffffffffff1614610244576040517f08c379a000000000000000000000000000000000000000000000000000000000815260206004820152601060248201527f5369676e6174757265206661756c74790000000000000000000000000000000060448201526064015b60405180910390fd5b73ffffffffffffffffffffffffffffffffffffffff8516600090815260076020526040902054610275906001610fba565b73ffffffffffffffffffffffffffffffffffffffff86166000908152600760205260409020556102a685858561039f565b5050505050565b6040517f19457468657265756d205369676e6564204d6573736167653a0a3332000000006020820152603c81018390526000908190605c0160408051601f19818403018152919052805160209091012090506103098184610725565b949350505050565b6000805461031e90610fd2565b80601f016020809104026020016040519081016040528092919081815260200182805461034a90610fd2565b80156103975780601f1061036c57610100808354040283529160200191610397565b820191906000526020600020905b81548152906001019060200180831161037a57829003601f168201915b505050505081565b60065447101561040b576040517f08c379a000000000000000000000000000000000000000000000000000000000815260206004820152601060248201527f4e6f20746573746e65742066756e647300000000000000000000000000000000604482015260640161023b565b60035461041a90610e10610fba565b421061042e57426003556001600455610444565b6004805490600061043e83611026565b91905055505b600554600454106104b1576040517f08c379a000000000000000000000000000000000000000000000000000000000815260206004820152601260248201527f52617465206c696d697420726561636865640000000000000000000000000000604482015260640161023b565b60008383836040516020016104c89392919061105f565b60408051601f19818403018152908290526001547f2f7adf430000000000000000000000000000000000000000000000000000000083529092506000918291829173ffffffffffffffffffffffffffffffffffffffff90911690632f7adf439061053890849088906004016110ab565b600060405180830381600087803b15801561055257600080fd5b505af1158015610566573d6000803e3d6000fd5b505050506040513d6000823e601f3d908101601f1916820160405261058e919081019061119e565b8060200190518101906105a1919061120c565b91945092509050821515806105b583610749565b6040516020016105c5919061123a565b6040516020818303038152906040529061060c576040517f08c379a000000000000000000000000000000000000000000000000000000000815260040161023b9190610f25565b50600083815260026020526040902054620151809061062b904261127f565b11610692576040517f08c379a000000000000000000000000000000000000000000000000000000000815260206004820152600860248201527f436f6f6c646f776e000000000000000000000000000000000000000000000000604482015260640161023b565b600083815260026020526040808220429055600654905173ffffffffffffffffffffffffffffffffffffffff8b169282156108fc02929190818181858888f193505050501580156106e7573d6000803e3d6000fd5b506040518381527f2747583c2c0d0249c09d8c3bc1fedc92e5da8b99dd88fdd3b3542ef0555f5faf9060200160405180910390a15050505050505050565b6000806000610734858561087b565b91509150610741816108eb565b509392505050565b60608161078957505060408051808201909152600181527f3000000000000000000000000000000000000000000000000000000000000000602082015290565b8160005b81156107b3578061079d81611026565b91506107ac9050600a836112c5565b915061078d565b60008167ffffffffffffffff8111156107ce576107ce610cfe565b6040519080825280601f01601f1916602001820160405280156107f8576020820181803683370190505b5090505b84156103095761080d60018361127f565b915061081a600a866112d9565b610825906030610fba565b60f81b81838151811061083a5761083a6112ed565b60200101907effffffffffffffffffffffffffffffffffffffffffffffffffffffffffffff1916908160001a905350610874600a866112c5565b94506107fc565b6000808251604114156108b25760208301516040840151606085015160001a6108a687828585610b47565b945094505050506108e4565b8251604014156108dc57602083015160408401516108d1868383610c41565b9350935050506108e4565b506000905060025b9250929050565b60008160048111156108ff576108ff61131c565b14156109085750565b600181600481111561091c5761091c61131c565b1415610984576040517f08c379a000000000000000000000000000000000000000000000000000000000815260206004820152601860248201527f45434453413a20696e76616c6964207369676e61747572650000000000000000604482015260640161023b565b60028160048111156109985761099861131c565b1415610a00576040517f08c379a000000000000000000000000000000000000000000000000000000000815260206004820152601f60248201527f45434453413a20696e76616c6964207369676e6174757265206c656e67746800604482015260640161023b565b6003816004811115610a1457610a1461131c565b1415610aa2576040517f08c379a000000000000000000000000000000000000000000000000000000000815260206004820152602260248201527f45434453413a20696e76616c6964207369676e6174757265202773272076616c60448201527f7565000000000000000000000000000000000000000000000000000000000000606482015260840161023b565b6004816004811115610ab657610ab661131c565b1415610b44576040517f08c379a000000000000000000000000000000000000000000000000000000000815260206004820152602260248201527f45434453413a20696e76616c6964207369676e6174757265202776272076616c60448201527f7565000000000000000000000000000000000000000000000000000000000000606482015260840161023b565b50565b6000807f7fffffffffffffffffffffffffffffff5d576e7357a4501ddfe92f46681b20a0831115610b7e5750600090506003610c38565b8460ff16601b14158015610b9657508460ff16601c14155b15610ba75750600090506004610c38565b6040805160008082526020820180845289905260ff881692820192909252606081018690526080810185905260019060a0016020604051602081039080840390855afa158015610bfb573d6000803e3d6000fd5b5050604051601f19015191505073ffffffffffffffffffffffffffffffffffffffff8116610c3157600060019250925050610c38565b9150600090505b94509492505050565b6000807f7fffffffffffffffffffffffffffffffffffffffffffffffffffffffffffffff831681610c7760ff86901c601b610fba565b9050610c8587828885610b47565b935093505050935093915050565b803573ffffffffffffffffffffffffffffffffffffffff81168114610cb757600080fd5b919050565b60008083601f840112610cce57600080fd5b50813567ffffffffffffffff811115610ce657600080fd5b6020830191508360208285010111156108e457600080fd5b7f4e487b7100000000000000000000000000000000000000000000000000000000600052604160045260246000fd5b604051601f8201601f1916810167ffffffffffffffff81118282101715610d5657610d56610cfe565b604052919050565b600067ffffffffffffffff821115610d7857610d78610cfe565b50601f01601f191660200190565b600082601f830112610d9757600080fd5b8135610daa610da582610d5e565b610d2d565b818152846020838601011115610dbf57600080fd5b816020850160208301376000918101602001919091529392505050565b600080600080600060808688031215610df457600080fd5b610dfd86610c93565b9450602086013567ffffffffffffffff80821115610e1a57600080fd5b610e2689838a01610cbc565b9096509450604088013593506060880135915080821115610e4657600080fd5b50610e5388828901610d86565b9150509295509295909350565b600060208284031215610e7257600080fd5b610e7b82610c93565b9392505050565b60008060408385031215610e9557600080fd5b82359150602083013567ffffffffffffffff811115610eb357600080fd5b610ebf85828601610d86565b9150509250929050565b60005b83811015610ee4578181015183820152602001610ecc565b83811115610ef3576000848401525b50505050565b60008151808452610f11816020860160208601610ec9565b601f01601f19169290920160200192915050565b602081526000610e7b6020830184610ef9565b600080600060408486031215610f4d57600080fd5b610f5684610c93565b9250602084013567ffffffffffffffff811115610f7257600080fd5b610f7e86828701610cbc565b9497909650939450505050565b7f4e487b7100000000000000000000000000000000000000000000000000000000600052601160045260246000fd5b60008219821115610fcd57610fcd610f8b565b500190565b600181811c90821680610fe657607f821691505b60208210811415611020577f4e487b7100000000000000000000000000000000000000000000000000000000600052602260045260246000fd5b50919050565b60007fffffffffffffffffffffffffffffffffffffffffffffffffffffffffffffffff82141561105857611058610f8b565b5060010190565b73ffffffffffffffffffffffffffffffffffffffff8416815260406020820152816040820152818360608301376000818301606090810191909152601f909201601f1916010192915050565b60408152600080845481600182811c9150808316806110cb57607f831692505b6020808410821415611104577f4e487b710000000000000000000000000000000000000000000000000000000086526022600452602486fd5b604088018490526060880182801561112357600181146111525761117d565b7fffffffffffffffffffffffffffffffffffffffffffffffffffffffffffffff0087168252828201975061117d565b60008c81526020902060005b878110156111775781548482015290860190840161115e565b83019850505b50508786038189015250505050506111958185610ef9565b95945050505050565b6000602082840312156111b057600080fd5b815167ffffffffffffffff8111156111c757600080fd5b8201601f810184136111d857600080fd5b80516111e6610da582610d5e565b8181528560208385010111156111fb57600080fd5b611195826020830160208601610ec9565b60008060006060848603121561122157600080fd5b8351925060208401519150604084015190509250925092565b7f496e76616c696420726571756573743a00000000000000000000000000000000815260008251611272816010850160208701610ec9565b9190910160100192915050565b60008282101561129157611291610f8b565b500390565b7f4e487b7100000000000000000000000000000000000000000000000000000000600052601260045260246000fd5b6000826112d4576112d4611296565b500490565b6000826112e8576112e8611296565b500690565b7f4e487b7100000000000000000000000000000000000000000000000000000000600052603260045260246000fd5b7f4e487b7100000000000000000000000000000000000000000000000000000000600052602160045260246000fdfea164736f6c6343000809000a",
  "linkReferences": {},
  "deployedLinkReferences": {}
}