{
  "_format": "hh-sol-artifact-1",
  "contractName": "AuthenticatedFaucet",
  "sourceName": "contracts/AuthenticatedFaucet.sol",
  "abi": [
    {
      "inputs": [
        {
          "internalType": "string",
          "name": "apiUrl_",
          "type": "string"
        },
        {
          "internalType": "address",
          "name": "turingHelper_",
          "type": "address"
        },
        {
          "internalType": "uint256",
          "name": "maxClaimsPerEpoch_",
          "type": "uint256"
        },
        {
          "internalType": "uint256",
          "name": "testnetETHPerClaim_",
          "type": "uint256"
        }
      ],
      "stateMutability": "nonpayable",
      "type": "constructor"
    },
    {
      "anonymous": false,
      "inputs": [
        {
          "indexed": false,
          "internalType": "uint256",
          "name": "authorId",
          "type": "uint256"
        }
      ],
      "name": "GasClaimed",
      "type": "event"
    },
    {
      "anonymous": false,
      "inputs": [
        {
          "indexed": true,
          "internalType": "address",
          "name": "previousOwner",
          "type": "address"
        },
        {
          "indexed": true,
          "internalType": "address",
          "name": "newOwner",
          "type": "address"
        }
      ],
      "name": "OwnershipTransferred",
      "type": "event"
    },
    {
      "inputs": [],
      "name": "apiUrl",
      "outputs": [
        {
          "internalType": "string",
          "name": "",
          "type": "string"
        }
      ],
      "stateMutability": "view",
      "type": "function"
    },
    {
      "inputs": [],
      "name": "owner",
      "outputs": [
        {
          "internalType": "address",
          "name": "",
          "type": "address"
        }
      ],
      "stateMutability": "view",
      "type": "function"
    },
    {
      "inputs": [
        {
          "internalType": "address",
          "name": "tokenAddress",
          "type": "address"
        },
        {
          "internalType": "uint256",
          "name": "tokenAmount",
          "type": "uint256"
        }
      ],
      "name": "recoverERC20",
      "outputs": [],
      "stateMutability": "nonpayable",
      "type": "function"
    },
    {
      "inputs": [
        {
          "internalType": "address",
          "name": "tokenAddress",
          "type": "address"
        },
        {
          "internalType": "uint256",
          "name": "tokenId_",
          "type": "uint256"
        }
      ],
      "name": "recoverERC721",
      "outputs": [],
      "stateMutability": "nonpayable",
      "type": "function"
    },
    {
      "inputs": [],
      "name": "renounceOwnership",
      "outputs": [],
      "stateMutability": "nonpayable",
      "type": "function"
    },
    {
      "inputs": [
        {
          "internalType": "string",
          "name": "twitterPostID_",
          "type": "string"
        }
      ],
      "name": "sendFunds",
      "outputs": [],
      "stateMutability": "nonpayable",
      "type": "function"
    },
    {
      "inputs": [
        {
          "internalType": "address",
          "name": "newOwner",
          "type": "address"
        }
      ],
      "name": "transferOwnership",
      "outputs": [],
      "stateMutability": "nonpayable",
      "type": "function"
    },
    {
      "inputs": [],
      "name": "turingHelper",
      "outputs": [
        {
          "internalType": "contract ITuringHelper",
          "name": "",
          "type": "address"
        }
      ],
      "stateMutability": "view",
      "type": "function"
    },
    {
      "stateMutability": "payable",
      "type": "receive"
    }
  ],
  "bytecode": "0x60806040523480156200001157600080fd5b5060405162001505380380620015058339810160408190526200003491620001b5565b6200003f336200008c565b835162000054906001906020870190620000dc565b50600280546001600160a01b0319166001600160a01b03949094169390931790925542600455600060055560065560075550620002f3565b600080546001600160a01b038381166001600160a01b0319831681178455604051919092169283917f8be0079c531659141344cd1fd0a4f28419497f9722a3daafe3b4186f6b6457e09190a35050565b828054620000ea90620002b6565b90600052602060002090601f0160209004810192826200010e576000855562000159565b82601f106200012957805160ff191683800117855562000159565b8280016001018555821562000159579182015b82811115620001595782518255916020019190600101906200013c565b50620001679291506200016b565b5090565b5b808211156200016757600081556001016200016c565b634e487b7160e01b600052604160045260246000fd5b80516001600160a01b0381168114620001b057600080fd5b919050565b60008060008060808587031215620001cc57600080fd5b84516001600160401b0380821115620001e457600080fd5b818701915087601f830112620001f957600080fd5b8151818111156200020e576200020e62000182565b604051601f8201601f19908116603f0116810190838211818310171562000239576200023962000182565b81604052828152602093508a848487010111156200025657600080fd5b600091505b828210156200027a57848201840151818301850152908301906200025b565b828211156200028c5760008484830101525b97506200029e91505087820162000198565b60408801516060909801519699909850945050505050565b600181811c90821680620002cb57607f821691505b60208210811415620002ed57634e487b7160e01b600052602260045260246000fd5b50919050565b61120280620003036000396000f3fe60806040526004361061007f5760003560e01c80638980f11f1161004e5780638980f11f1461013b5780638da5cb5b1461015b578063ea0d1b4614610186578063f2fde38b146101a657600080fd5b806341efaee91461008b578063715018a6146100e2578063819d4cc6146100f95780638367e1201461011957600080fd5b3661008657005b600080fd5b34801561009757600080fd5b506002546100b89073ffffffffffffffffffffffffffffffffffffffff1681565b60405173ffffffffffffffffffffffffffffffffffffffff90911681526020015b60405180910390f35b3480156100ee57600080fd5b506100f76101c6565b005b34801561010557600080fd5b506100f7610114366004610c4d565b610258565b34801561012557600080fd5b5061012e6103a5565b6040516100d99190610cf1565b34801561014757600080fd5b506100f7610156366004610c4d565b610433565b34801561016757600080fd5b5060005473ffffffffffffffffffffffffffffffffffffffff166100b8565b34801561019257600080fd5b506100f76101a1366004610d0b565b610599565b3480156101b257600080fd5b506100f76101c1366004610d7d565b610945565b60005473ffffffffffffffffffffffffffffffffffffffff16331461024c576040517f08c379a000000000000000000000000000000000000000000000000000000000815260206004820181905260248201527f4f776e61626c653a2063616c6c6572206973206e6f7420746865206f776e657260448201526064015b60405180910390fd5b6102566000610a75565b565b60005473ffffffffffffffffffffffffffffffffffffffff1633146102d9576040517f08c379a000000000000000000000000000000000000000000000000000000000815260206004820181905260248201527f4f776e61626c653a2063616c6c6572206973206e6f7420746865206f776e65726044820152606401610243565b8173ffffffffffffffffffffffffffffffffffffffff166323b872dd3061031560005473ffffffffffffffffffffffffffffffffffffffff1690565b6040517fffffffff0000000000000000000000000000000000000000000000000000000060e085901b16815273ffffffffffffffffffffffffffffffffffffffff92831660048201529116602482015260448101849052606401600060405180830381600087803b15801561038957600080fd5b505af115801561039d573d6000803e3d6000fd5b505050505050565b600180546103b290610d98565b80601f01602080910402602001604051908101604052809291908181526020018280546103de90610d98565b801561042b5780601f106104005761010080835404028352916020019161042b565b820191906000526020600020905b81548152906001019060200180831161040e57829003601f168201915b505050505081565b60005473ffffffffffffffffffffffffffffffffffffffff1633146104b4576040517f08c379a000000000000000000000000000000000000000000000000000000000815260206004820181905260248201527f4f776e61626c653a2063616c6c6572206973206e6f7420746865206f776e65726044820152606401610243565b8173ffffffffffffffffffffffffffffffffffffffff1663a9059cbb6104ef60005473ffffffffffffffffffffffffffffffffffffffff1690565b6040517fffffffff0000000000000000000000000000000000000000000000000000000060e084901b16815273ffffffffffffffffffffffffffffffffffffffff909116600482015260248101849052604401602060405180830381600087803b15801561055c57600080fd5b505af1158015610570573d6000803e3d6000fd5b505050506040513d601f19601f820116820180604052508101906105949190610dec565b505050565b600754471015610605576040517f08c379a000000000000000000000000000000000000000000000000000000000815260206004820152601060248201527f4e6f20746573746e65742066756e6473000000000000000000000000000000006044820152606401610243565b60045461061490610e10610e3d565b42106106285742600455600160055561063e565b6005805490600061063883610e55565b91905055505b600654600554106106ab576040517f08c379a000000000000000000000000000000000000000000000000000000000815260206004820152601260248201527f52617465206c696d6974207265616368656400000000000000000000000000006044820152606401610243565b60003383836040516020016106c293929190610e8e565b604080517fffffffffffffffffffffffffffffffffffffffffffffffffffffffffffffffe0818403018152908290526002547f2f7adf430000000000000000000000000000000000000000000000000000000083529092506000918291829173ffffffffffffffffffffffffffffffffffffffff90911690632f7adf4390610751906001908890600401610ef8565b600060405180830381600087803b15801561076b57600080fd5b505af115801561077f573d6000803e3d6000fd5b505050506040513d6000823e601f3d9081017fffffffffffffffffffffffffffffffffffffffffffffffffffffffffffffffe01682016040526107c5919081019061101a565b8060200190518101906107d891906110e5565b91945092509050821515806107ec83610aea565b6040516020016107fc9190611113565b60405160208183030381529060405290610843576040517f08c379a00000000000000000000000000000000000000000000000000000000081526004016102439190610cf1565b5060008381526003602052604090205462015180906108629042611158565b116108c9576040517f08c379a000000000000000000000000000000000000000000000000000000000815260206004820152600860248201527f436f6f6c646f776e0000000000000000000000000000000000000000000000006044820152606401610243565b6000838152600360205260408082204290556007549051339282156108fc02929190818181858888f19350505050158015610908573d6000803e3d6000fd5b506040518381527f2747583c2c0d0249c09d8c3bc1fedc92e5da8b99dd88fdd3b3542ef0555f5faf9060200160405180910390a150505050505050565b60005473ffffffffffffffffffffffffffffffffffffffff1633146109c6576040517f08c379a000000000000000000000000000000000000000000000000000000000815260206004820181905260248201527f4f776e61626c653a2063616c6c6572206973206e6f7420746865206f776e65726044820152606401610243565b73ffffffffffffffffffffffffffffffffffffffff8116610a69576040517f08c379a000000000000000000000000000000000000000000000000000000000815260206004820152602660248201527f4f776e61626c653a206e6577206f776e657220697320746865207a65726f206160448201527f64647265737300000000000000000000000000000000000000000000000000006064820152608401610243565b610a7281610a75565b50565b6000805473ffffffffffffffffffffffffffffffffffffffff8381167fffffffffffffffffffffffff0000000000000000000000000000000000000000831681178455604051919092169283917f8be0079c531659141344cd1fd0a4f28419497f9722a3daafe3b4186f6b6457e09190a35050565b606081610b2a57505060408051808201909152600181527f3000000000000000000000000000000000000000000000000000000000000000602082015290565b8160005b8115610b545780610b3e81610e55565b9150610b4d9050600a8361119e565b9150610b2e565b60008167ffffffffffffffff811115610b6f57610b6f610feb565b6040519080825280601f01601f191660200182016040528015610b99576020820181803683370190505b5090505b8415610c1c57610bae600183611158565b9150610bbb600a866111b2565b610bc6906030610e3d565b60f81b818381518110610bdb57610bdb6111c6565b60200101907effffffffffffffffffffffffffffffffffffffffffffffffffffffffffffff1916908160001a905350610c15600a8661119e565b9450610b9d565b949350505050565b803573ffffffffffffffffffffffffffffffffffffffff81168114610c4857600080fd5b919050565b60008060408385031215610c6057600080fd5b610c6983610c24565b946020939093013593505050565b60005b83811015610c92578181015183820152602001610c7a565b83811115610ca1576000848401525b50505050565b60008151808452610cbf816020860160208601610c77565b601f017fffffffffffffffffffffffffffffffffffffffffffffffffffffffffffffffe0169290920160200192915050565b602081526000610d046020830184610ca7565b9392505050565b60008060208385031215610d1e57600080fd5b823567ffffffffffffffff80821115610d3657600080fd5b818501915085601f830112610d4a57600080fd5b813581811115610d5957600080fd5b866020828501011115610d6b57600080fd5b60209290920196919550909350505050565b600060208284031215610d8f57600080fd5b610d0482610c24565b600181811c90821680610dac57607f821691505b60208210811415610de6577f4e487b7100000000000000000000000000000000000000000000000000000000600052602260045260246000fd5b50919050565b600060208284031215610dfe57600080fd5b81518015158114610d0457600080fd5b7f4e487b7100000000000000000000000000000000000000000000000000000000600052601160045260246000fd5b60008219821115610e5057610e50610e0e565b500190565b60007fffffffffffffffffffffffffffffffffffffffffffffffffffffffffffffffff821415610e8757610e87610e0e565b5060010190565b73ffffffffffffffffffffffffffffffffffffffff8416815260406020820152816040820152818360608301376000818301606090810191909152601f9092017fffffffffffffffffffffffffffffffffffffffffffffffffffffffffffffffe016010192915050565b60408152600080845481600182811c915080831680610f1857607f831692505b6020808410821415610f51577f4e487b710000000000000000000000000000000000000000000000000000000086526022600452602486fd5b6040880184905260608801828015610f705760018114610f9f57610fca565b7fffffffffffffffffffffffffffffffffffffffffffffffffffffffffffffff00871682528282019750610fca565b60008c81526020902060005b87811015610fc457815484820152908601908401610fab565b83019850505b5050878603818901525050505050610fe28185610ca7565b95945050505050565b7f4e487b7100000000000000000000000000000000000000000000000000000000600052604160045260246000fd5b60006020828403121561102c57600080fd5b815167ffffffffffffffff8082111561104457600080fd5b818401915084601f83011261105857600080fd5b81518181111561106a5761106a610feb565b604051601f82017fffffffffffffffffffffffffffffffffffffffffffffffffffffffffffffffe0908116603f011681019083821181831017156110b0576110b0610feb565b816040528281528760208487010111156110c957600080fd5b6110da836020830160208801610c77565b979650505050505050565b6000806000606084860312156110fa57600080fd5b8351925060208401519150604084015190509250925092565b7f496e76616c696420726571756573743a0000000000000000000000000000000081526000825161114b816010850160208701610c77565b9190910160100192915050565b60008282101561116a5761116a610e0e565b500390565b7f4e487b7100000000000000000000000000000000000000000000000000000000600052601260045260246000fd5b6000826111ad576111ad61116f565b500490565b6000826111c1576111c161116f565b500690565b7f4e487b7100000000000000000000000000000000000000000000000000000000600052603260045260246000fdfea164736f6c6343000809000a",
  "linkReferences": {},
  "deployedLinkReferences": {}
}