{
    "_format": "hh-sol-artifact-1",
    "contractName": "BaseV1GaugeFactory",
    "sourceName": "contracts/Basic-gauges.sol",
    "abi": [
        {
            "inputs": [
                {
                    "internalType": "address",
                    "name": "_pool",
                    "type": "address"
                },
                {
                    "internalType": "address",
                    "name": "_ve",
                    "type": "address"
                },
                {
                    "internalType": "address",
                    "name": "operator",
                    "type": "address"
                }
            ],
            "name": "createGauge",
            "outputs": [
                {
                    "internalType": "address",
                    "name": "",
                    "type": "address"
                }
            ],
            "stateMutability": "nonpayable",
            "type": "function"
        },
        {
            "inputs": [
                {
                    "internalType": "address",
                    "name": "_pool",
                    "type": "address"
                },
                {
                    "internalType": "address",
                    "name": "_ve",
                    "type": "address"
                },
                {
                    "internalType": "address",
                    "name": "_voter",
                    "type": "address"
                },
                {
                    "internalType": "address",
                    "name": "operator",
                    "type": "address"
                }
            ],
            "name": "createGaugeSingle",
            "outputs": [
                {
                    "internalType": "address",
                    "name": "",
                    "type": "address"
                }
            ],
            "stateMutability": "nonpayable",
            "type": "function"
        },
        {
            "inputs": [],
            "name": "last_gauge",
            "outputs": [
                {
                    "internalType": "address",
                    "name": "",
                    "type": "address"
                }
            ],
            "stateMutability": "view",
            "type": "function"
        }
    ],
    "bytecode": "0x608060405234801561001057600080fd5b50610f4b806100206000396000f3fe608060405234801561001057600080fd5b50600436106100415760003560e01c80631c48e0fa14610046578063730a8bdb14610082578063af4db2ec146100a2575b600080fd5b61005961005436600461024c565b6100b5565b60405173ffffffffffffffffffffffffffffffffffffffff909116815260200160405180910390f35b6000546100599073ffffffffffffffffffffffffffffffffffffffff1681565b6100596100b036600461028f565b610165565b6000838333846040516100c790610216565b73ffffffffffffffffffffffffffffffffffffffff9485168152928416602084015290831660408301529091166060820152608001604051809103906000f080158015610118573d6000803e3d6000fd5b50600080547fffffffffffffffffffffffff00000000000000000000000000000000000000001673ffffffffffffffffffffffffffffffffffffffff929092169182179055949350505050565b60008484848460405161017790610216565b73ffffffffffffffffffffffffffffffffffffffff9485168152928416602084015290831660408301529091166060820152608001604051809103906000f0801580156101c8573d6000803e3d6000fd5b50600080547fffffffffffffffffffffffff00000000000000000000000000000000000000001673ffffffffffffffffffffffffffffffffffffffff92909216918217905595945050505050565b610c5b806102e483390190565b803573ffffffffffffffffffffffffffffffffffffffff8116811461024757600080fd5b919050565b60008060006060848603121561026157600080fd5b61026a84610223565b925061027860208501610223565b915061028660408501610223565b90509250925092565b600080600080608085870312156102a557600080fd5b6102ae85610223565b93506102bc60208601610223565b92506102ca60408601610223565b91506102d860608601610223565b90509295919450925056fe60e06040526001805534801561001457600080fd5b50604051610c5b380380610c5b833981016040819052610033916101a3565b61003c33610067565b6001600160a01b0380851660805283811660a052821660c05261005e816100b7565b505050506101f7565b600080546001600160a01b038381166001600160a01b0319831681178455604051919092169283917f8be0079c531659141344cd1fd0a4f28419497f9722a3daafe3b4186f6b6457e09190a35050565b6000546001600160a01b031633146101165760405162461bcd60e51b815260206004820181905260248201527f4f776e61626c653a2063616c6c6572206973206e6f7420746865206f776e657260448201526064015b60405180910390fd5b6001600160a01b03811661017b5760405162461bcd60e51b815260206004820152602660248201527f4f776e61626c653a206e6577206f776e657220697320746865207a65726f206160448201526564647265737360d01b606482015260840161010d565b61018481610067565b50565b80516001600160a01b038116811461019e57600080fd5b919050565b600080600080608085870312156101b957600080fd5b6101c285610187565b93506101d060208601610187565b92506101de60408601610187565b91506101ec60608601610187565b905092959194509250565b60805160a05160c051610a3061022b6000396000818160e20152610253015260006101440152600060920152610a306000f3fe608060405234801561001057600080fd5b50600436106100885760003560e01c80638da5cb5b1161005b5780638da5cb5b146101215780638dd598fb1461013f578063b66503cf14610166578063f2fde38b1461017957600080fd5b806316f0115b1461008d57806346c96aac146100dd5780636b09169514610104578063715018a614610119575b600080fd5b6100b47f000000000000000000000000000000000000000000000000000000000000000081565b60405173ffffffffffffffffffffffffffffffffffffffff909116815260200160405180910390f35b6100b47f000000000000000000000000000000000000000000000000000000000000000081565b61011761011236600461092e565b61018c565b005b6101176103dd565b60005473ffffffffffffffffffffffffffffffffffffffff166100b4565b6100b47f000000000000000000000000000000000000000000000000000000000000000081565b610117610174366004610961565b61046a565b61011761018736600461098b565b6104e9565b60005473ffffffffffffffffffffffffffffffffffffffff163314610212576040517f08c379a000000000000000000000000000000000000000000000000000000000815260206004820181905260248201527f4f776e61626c653a2063616c6c6572206973206e6f7420746865206f776e657260448201526064015b60405180910390fd5b60015460011461022157600080fd5b600180556040517f63453ae10000000000000000000000000000000000000000000000000000000081523060048201527f000000000000000000000000000000000000000000000000000000000000000073ffffffffffffffffffffffffffffffffffffffff16906363453ae190602401600060405180830381600087803b1580156102ac57600080fd5b505af11580156102c0573d6000803e3d6000fd5b5050600260015550506040517f70a0823100000000000000000000000000000000000000000000000000000000815230600482015260009073ffffffffffffffffffffffffffffffffffffffff8316906370a0823190602401602060405180830381865afa158015610336573d6000803e3d6000fd5b505050506040513d601f19601f8201168201806040525081019061035a91906109ad565b9050801561036d5761036d828483610619565b8173ffffffffffffffffffffffffffffffffffffffff168373ffffffffffffffffffffffffffffffffffffffff167f9aa05b3d70a9e3e2f004f039648839560576334fb45c81f91b6db03ad9e2efc9836040516103cc91815260200190565b60405180910390a350506001805550565b60005473ffffffffffffffffffffffffffffffffffffffff16331461045e576040517f08c379a000000000000000000000000000000000000000000000000000000000815260206004820181905260248201527f4f776e61626c653a2063616c6c6572206973206e6f7420746865206f776e65726044820152606401610209565b6104686000610750565b565b60015460011461047957600080fd5b60026001558061048857600080fd5b610494823330846107c5565b60405181815273ffffffffffffffffffffffffffffffffffffffff83169033907ff70d5c697de7ea828df48e5c4573cb2194c659f1901f70110c52b066dcf508269060200160405180910390a3505060018055565b60005473ffffffffffffffffffffffffffffffffffffffff16331461056a576040517f08c379a000000000000000000000000000000000000000000000000000000000815260206004820181905260248201527f4f776e61626c653a2063616c6c6572206973206e6f7420746865206f776e65726044820152606401610209565b73ffffffffffffffffffffffffffffffffffffffff811661060d576040517f08c379a000000000000000000000000000000000000000000000000000000000815260206004820152602660248201527f4f776e61626c653a206e6577206f776e657220697320746865207a65726f206160448201527f64647265737300000000000000000000000000000000000000000000000000006064820152608401610209565b61061681610750565b50565b60008373ffffffffffffffffffffffffffffffffffffffff163b1161063d57600080fd5b6040805173ffffffffffffffffffffffffffffffffffffffff8481166024830152604480830185905283518084039091018152606490920183526020820180517bffffffffffffffffffffffffffffffffffffffffffffffffffffffff167fa9059cbb0000000000000000000000000000000000000000000000000000000017905291516000928392908716916106d491906109c6565b6000604051808303816000865af19150503d8060008114610711576040519150601f19603f3d011682016040523d82523d6000602084013e610716565b606091505b50915091508180156107405750805115806107405750808060200190518101906107409190610a01565b61074957600080fd5b5050505050565b6000805473ffffffffffffffffffffffffffffffffffffffff8381167fffffffffffffffffffffffff0000000000000000000000000000000000000000831681178455604051919092169283917f8be0079c531659141344cd1fd0a4f28419497f9722a3daafe3b4186f6b6457e09190a35050565b60008473ffffffffffffffffffffffffffffffffffffffff163b116107e957600080fd5b6040805173ffffffffffffffffffffffffffffffffffffffff85811660248301528481166044830152606480830185905283518084039091018152608490920183526020820180517bffffffffffffffffffffffffffffffffffffffffffffffffffffffff167f23b872dd00000000000000000000000000000000000000000000000000000000179052915160009283929088169161088891906109c6565b6000604051808303816000865af19150503d80600081146108c5576040519150601f19603f3d011682016040523d82523d6000602084013e6108ca565b606091505b50915091508180156108f45750805115806108f45750808060200190518101906108f49190610a01565b6108fd57600080fd5b505050505050565b803573ffffffffffffffffffffffffffffffffffffffff8116811461092957600080fd5b919050565b6000806040838503121561094157600080fd5b61094a83610905565b915061095860208401610905565b90509250929050565b6000806040838503121561097457600080fd5b61097d83610905565b946020939093013593505050565b60006020828403121561099d57600080fd5b6109a682610905565b9392505050565b6000602082840312156109bf57600080fd5b5051919050565b6000825160005b818110156109e757602081860181015185830152016109cd565b818111156109f6576000828501525b509190910192915050565b600060208284031215610a1357600080fd5b815180151581146109a657600080fdfea164736f6c634300080b000aa164736f6c634300080b000a",
    "linkReferences": {},
    "deployedLinkReferences": {}
}