{
    "_format": "hh-sol-artifact-1",
    "contractName": "BaseV1Voter",
    "sourceName": "contracts/BaseV1-voter.sol",
    "abi": [
        {
            "inputs": [
                {
                    "internalType": "address",
                    "name": "__ve",
                    "type": "address"
                },
                {
                    "internalType": "address",
                    "name": "_gauges",
                    "type": "address"
                }
            ],
            "stateMutability": "nonpayable",
            "type": "constructor"
        },
        {
            "anonymous": false,
            "inputs": [
                {
                    "indexed": false,
                    "internalType": "uint256",
                    "name": "tokenId",
                    "type": "uint256"
                },
                {
                    "indexed": false,
                    "internalType": "int256",
                    "name": "weight",
                    "type": "int256"
                }
            ],
            "name": "Abstained",
            "type": "event"
        },
        {
            "anonymous": false,
            "inputs": [
                {
                    "indexed": true,
                    "internalType": "address",
                    "name": "sender",
                    "type": "address"
                },
                {
                    "indexed": true,
                    "internalType": "address",
                    "name": "gauge",
                    "type": "address"
                },
                {
                    "indexed": false,
                    "internalType": "uint256",
                    "name": "amount",
                    "type": "uint256"
                }
            ],
            "name": "DistributeReward",
            "type": "event"
        },
        {
            "anonymous": false,
            "inputs": [
                {
                    "indexed": true,
                    "internalType": "address",
                    "name": "gauge",
                    "type": "address"
                },
                {
                    "indexed": false,
                    "internalType": "address",
                    "name": "operator",
                    "type": "address"
                },
                {
                    "indexed": true,
                    "internalType": "address",
                    "name": "pool",
                    "type": "address"
                }
            ],
            "name": "GaugeCreated",
            "type": "event"
        },
        {
            "anonymous": false,
            "inputs": [
                {
                    "indexed": true,
                    "internalType": "address",
                    "name": "requester",
                    "type": "address"
                },
                {
                    "indexed": true,
                    "internalType": "address",
                    "name": "pool",
                    "type": "address"
                }
            ],
            "name": "GaugeRequested",
            "type": "event"
        },
        {
            "anonymous": false,
            "inputs": [
                {
                    "indexed": true,
                    "internalType": "address",
                    "name": "sender",
                    "type": "address"
                },
                {
                    "indexed": true,
                    "internalType": "address",
                    "name": "reward",
                    "type": "address"
                },
                {
                    "indexed": false,
                    "internalType": "uint256",
                    "name": "amount",
                    "type": "uint256"
                }
            ],
            "name": "NotifyReward",
            "type": "event"
        },
        {
            "anonymous": false,
            "inputs": [
                {
                    "indexed": true,
                    "internalType": "address",
                    "name": "previousOwner",
                    "type": "address"
                },
                {
                    "indexed": true,
                    "internalType": "address",
                    "name": "newOwner",
                    "type": "address"
                }
            ],
            "name": "OwnershipTransferred",
            "type": "event"
        },
        {
            "anonymous": false,
            "inputs": [
                {
                    "indexed": true,
                    "internalType": "address",
                    "name": "voter",
                    "type": "address"
                },
                {
                    "indexed": false,
                    "internalType": "uint256",
                    "name": "tokenId",
                    "type": "uint256"
                },
                {
                    "indexed": false,
                    "internalType": "int256",
                    "name": "weight",
                    "type": "int256"
                }
            ],
            "name": "Voted",
            "type": "event"
        },
        {
            "inputs": [],
            "name": "_ve",
            "outputs": [
                {
                    "internalType": "address",
                    "name": "",
                    "type": "address"
                }
            ],
            "stateMutability": "view",
            "type": "function"
        },
        {
            "inputs": [
                {
                    "internalType": "address",
                    "name": "",
                    "type": "address"
                }
            ],
            "name": "claimable",
            "outputs": [
                {
                    "internalType": "uint256",
                    "name": "",
                    "type": "uint256"
                }
            ],
            "stateMutability": "view",
            "type": "function"
        },
        {
            "inputs": [
                {
                    "internalType": "address",
                    "name": "_pool",
                    "type": "address"
                },
                {
                    "internalType": "address",
                    "name": "_operator",
                    "type": "address"
                }
            ],
            "name": "createGauge",
            "outputs": [
                {
                    "internalType": "address",
                    "name": "",
                    "type": "address"
                }
            ],
            "stateMutability": "nonpayable",
            "type": "function"
        },
        {
            "inputs": [
                {
                    "internalType": "address[]",
                    "name": "_gauges",
                    "type": "address[]"
                }
            ],
            "name": "distribute",
            "outputs": [],
            "stateMutability": "nonpayable",
            "type": "function"
        },
        {
            "inputs": [
                {
                    "internalType": "address",
                    "name": "_gauge",
                    "type": "address"
                }
            ],
            "name": "distribute",
            "outputs": [],
            "stateMutability": "nonpayable",
            "type": "function"
        },
        {
            "inputs": [
                {
                    "internalType": "uint256",
                    "name": "start",
                    "type": "uint256"
                },
                {
                    "internalType": "uint256",
                    "name": "finish",
                    "type": "uint256"
                }
            ],
            "name": "distribute",
            "outputs": [],
            "stateMutability": "nonpayable",
            "type": "function"
        },
        {
            "inputs": [],
            "name": "distribute",
            "outputs": [],
            "stateMutability": "nonpayable",
            "type": "function"
        },
        {
            "inputs": [],
            "name": "distro",
            "outputs": [],
            "stateMutability": "nonpayable",
            "type": "function"
        },
        {
            "inputs": [],
            "name": "gaugefactory",
            "outputs": [
                {
                    "internalType": "address",
                    "name": "",
                    "type": "address"
                }
            ],
            "stateMutability": "view",
            "type": "function"
        },
        {
            "inputs": [
                {
                    "internalType": "address",
                    "name": "",
                    "type": "address"
                }
            ],
            "name": "gauges",
            "outputs": [
                {
                    "internalType": "address",
                    "name": "",
                    "type": "address"
                }
            ],
            "stateMutability": "view",
            "type": "function"
        },
        {
            "inputs": [
                {
                    "internalType": "address[]",
                    "name": "_pools",
                    "type": "address[]"
                },
                {
                    "internalType": "address",
                    "name": "_minter",
                    "type": "address"
                }
            ],
            "name": "initialize",
            "outputs": [],
            "stateMutability": "nonpayable",
            "type": "function"
        },
        {
            "inputs": [
                {
                    "internalType": "address",
                    "name": "",
                    "type": "address"
                }
            ],
            "name": "isGauge",
            "outputs": [
                {
                    "internalType": "bool",
                    "name": "",
                    "type": "bool"
                }
            ],
            "stateMutability": "view",
            "type": "function"
        },
        {
            "inputs": [
                {
                    "internalType": "address",
                    "name": "",
                    "type": "address"
                }
            ],
            "name": "isRequested",
            "outputs": [
                {
                    "internalType": "bool",
                    "name": "",
                    "type": "bool"
                }
            ],
            "stateMutability": "view",
            "type": "function"
        },
        {
            "inputs": [],
            "name": "length",
            "outputs": [
                {
                    "internalType": "uint256",
                    "name": "",
                    "type": "uint256"
                }
            ],
            "stateMutability": "view",
            "type": "function"
        },
        {
            "inputs": [],
            "name": "listing_fee",
            "outputs": [
                {
                    "internalType": "uint256",
                    "name": "",
                    "type": "uint256"
                }
            ],
            "stateMutability": "view",
            "type": "function"
        },
        {
            "inputs": [],
            "name": "minter",
            "outputs": [
                {
                    "internalType": "address",
                    "name": "",
                    "type": "address"
                }
            ],
            "stateMutability": "view",
            "type": "function"
        },
        {
            "inputs": [
                {
                    "internalType": "uint256",
                    "name": "amount",
                    "type": "uint256"
                }
            ],
            "name": "notifyRewardAmount",
            "outputs": [],
            "stateMutability": "nonpayable",
            "type": "function"
        },
        {
            "inputs": [],
            "name": "owner",
            "outputs": [
                {
                    "internalType": "address",
                    "name": "",
                    "type": "address"
                }
            ],
            "stateMutability": "view",
            "type": "function"
        },
        {
            "inputs": [
                {
                    "internalType": "uint256",
                    "name": "_tokenId",
                    "type": "uint256"
                }
            ],
            "name": "poke",
            "outputs": [],
            "stateMutability": "nonpayable",
            "type": "function"
        },
        {
            "inputs": [
                {
                    "internalType": "address",
                    "name": "",
                    "type": "address"
                }
            ],
            "name": "poolForGauge",
            "outputs": [
                {
                    "internalType": "address",
                    "name": "",
                    "type": "address"
                }
            ],
            "stateMutability": "view",
            "type": "function"
        },
        {
            "inputs": [
                {
                    "internalType": "uint256",
                    "name": "",
                    "type": "uint256"
                },
                {
                    "internalType": "uint256",
                    "name": "",
                    "type": "uint256"
                }
            ],
            "name": "poolVote",
            "outputs": [
                {
                    "internalType": "address",
                    "name": "",
                    "type": "address"
                }
            ],
            "stateMutability": "view",
            "type": "function"
        },
        {
            "inputs": [
                {
                    "internalType": "uint256",
                    "name": "",
                    "type": "uint256"
                }
            ],
            "name": "pools",
            "outputs": [
                {
                    "internalType": "address",
                    "name": "",
                    "type": "address"
                }
            ],
            "stateMutability": "view",
            "type": "function"
        },
        {
            "inputs": [],
            "name": "renounceOwnership",
            "outputs": [],
            "stateMutability": "nonpayable",
            "type": "function"
        },
        {
            "inputs": [
                {
                    "internalType": "address",
                    "name": "_pool",
                    "type": "address"
                },
                {
                    "internalType": "uint256",
                    "name": "_tokenId",
                    "type": "uint256"
                }
            ],
            "name": "requestGauge",
            "outputs": [],
            "stateMutability": "nonpayable",
            "type": "function"
        },
        {
            "inputs": [
                {
                    "internalType": "uint256",
                    "name": "_tokenId",
                    "type": "uint256"
                }
            ],
            "name": "reset",
            "outputs": [],
            "stateMutability": "nonpayable",
            "type": "function"
        },
        {
            "inputs": [],
            "name": "totalWeight",
            "outputs": [
                {
                    "internalType": "uint256",
                    "name": "",
                    "type": "uint256"
                }
            ],
            "stateMutability": "view",
            "type": "function"
        },
        {
            "inputs": [
                {
                    "internalType": "address",
                    "name": "newOwner",
                    "type": "address"
                }
            ],
            "name": "transferOwnership",
            "outputs": [],
            "stateMutability": "nonpayable",
            "type": "function"
        },
        {
            "inputs": [],
            "name": "updateAll",
            "outputs": [],
            "stateMutability": "nonpayable",
            "type": "function"
        },
        {
            "inputs": [
                {
                    "internalType": "address[]",
                    "name": "_gauges",
                    "type": "address[]"
                }
            ],
            "name": "updateFor",
            "outputs": [],
            "stateMutability": "nonpayable",
            "type": "function"
        },
        {
            "inputs": [
                {
                    "internalType": "uint256",
                    "name": "start",
                    "type": "uint256"
                },
                {
                    "internalType": "uint256",
                    "name": "end",
                    "type": "uint256"
                }
            ],
            "name": "updateForRange",
            "outputs": [],
            "stateMutability": "nonpayable",
            "type": "function"
        },
        {
            "inputs": [
                {
                    "internalType": "address",
                    "name": "_gauge",
                    "type": "address"
                }
            ],
            "name": "updateGauge",
            "outputs": [],
            "stateMutability": "nonpayable",
            "type": "function"
        },
        {
            "inputs": [
                {
                    "internalType": "uint256",
                    "name": "",
                    "type": "uint256"
                }
            ],
            "name": "usedWeights",
            "outputs": [
                {
                    "internalType": "uint256",
                    "name": "",
                    "type": "uint256"
                }
            ],
            "stateMutability": "view",
            "type": "function"
        },
        {
            "inputs": [
                {
                    "internalType": "uint256",
                    "name": "tokenId",
                    "type": "uint256"
                },
                {
                    "internalType": "address[]",
                    "name": "_poolVote",
                    "type": "address[]"
                },
                {
                    "internalType": "int256[]",
                    "name": "_weights",
                    "type": "int256[]"
                }
            ],
            "name": "vote",
            "outputs": [],
            "stateMutability": "nonpayable",
            "type": "function"
        },
        {
            "inputs": [
                {
                    "internalType": "uint256",
                    "name": "",
                    "type": "uint256"
                },
                {
                    "internalType": "address",
                    "name": "",
                    "type": "address"
                }
            ],
            "name": "votes",
            "outputs": [
                {
                    "internalType": "int256",
                    "name": "",
                    "type": "int256"
                }
            ],
            "stateMutability": "view",
            "type": "function"
        },
        {
            "inputs": [
                {
                    "internalType": "address",
                    "name": "",
                    "type": "address"
                }
            ],
            "name": "weights",
            "outputs": [
                {
                    "internalType": "int256",
                    "name": "",
                    "type": "int256"
                }
            ],
            "stateMutability": "view",
            "type": "function"
        }
    ],
    "bytecode": "0x60e06040526001600c553480156200001657600080fd5b50604051620029543803806200295483398101604081905262000039916200014d565b6200004433620000e0565b6001600160a01b038216608081905260408051637e062a3560e11b8152905163fc0c546a916004808201926020929091908290030181865afa1580156200008f573d6000803e3d6000fd5b505050506040513d601f19601f82011682018060405250810190620000b5919062000185565b6001600160a01b0390811660a0521660c05250600180546001600160a01b03191633179055620001aa565b600080546001600160a01b038381166001600160a01b0319831681178455604051919092169283917f8be0079c531659141344cd1fd0a4f28419497f9722a3daafe3b4186f6b6457e09190a35050565b80516001600160a01b03811681146200014857600080fd5b919050565b600080604083850312156200016157600080fd5b6200016c8362000130565b91506200017c6020840162000130565b90509250929050565b6000602082840312156200019857600080fd5b620001a38262000130565b9392505050565b60805160a05160c0516127186200023c6000396000818161038d0152610e8801526000818161081a0152818161089301528181610af601528181610f58015261128e015260008181610439015281816105aa0152818161065e01528181610e550152818161113c015281816112030152818161139e015281816115cb015281816118a00152611bdb01526127186000f3fe608060405234801561001057600080fd5b50600436106102415760003560e01c8063794cea3c11610145578063aa79979b116100bd578063d23254b41161008c578063e4fc6b6d11610071578063e4fc6b6d1461031f578063f2fde38b1461054f578063fecdad601461056257600080fd5b8063d23254b414610511578063d560b0d71461053c57600080fd5b8063aa79979b146104aa578063ac4afa38146104cd578063b980777a146104e0578063b9a09fd5146104e857600080fd5b80638dd598fb116101145780639b6a9d72116100f95780639b6a9d7214610464578063a7cac84614610477578063a86a366d1461049757600080fd5b80638dd598fb1461043457806396c82e571461045b57600080fd5b8063794cea3c146103dd57806379e93824146103f0578063835be43c146104105780638da5cb5b1461042357600080fd5b806347b3c6ba116101d857806363453ae1116101a75780636ecbe38a1161018c5780636ecbe38a146103af578063715018a6146103c25780637625391a146103ca57600080fd5b806363453ae11461037557806368c3acb31461038857600080fd5b806347b3c6ba1461031f57806353d786931461032757806354d2184b1461032f5780636138889b1461036257600080fd5b806332145f901161021457806332145f90146102c65780633c6b16ab146102d9578063402914f5146102ec578063462d0b2e1461030c57600080fd5b806306d6a1b214610246578063075461721461028c5780631f7b6d321461029f578063310bd74b146102b1575b600080fd5b61026f610254366004611fcb565b6005602052600090815260409020546001600160a01b031681565b6040516001600160a01b0390911681526020015b60405180910390f35b60015461026f906001600160a01b031681565b6003545b604051908152602001610283565b6102c46102bf366004611fef565b610575565b005b6102c46102d4366004611fef565b6106c5565b6102c46102e7366004611fef565b610815565b6102a36102fa366004611fcb565b600f6020526000908152604090205481565b6102c461031a3660046120f7565b6108e7565b6102c461097a565b6102c461098b565b61035261033d366004611fcb565b600b6020526000908152604090205460ff1681565b6040519015158152602001610283565b6102c4610370366004612149565b61099a565b6102c4610383366004611fcb565b6109de565b61026f7f000000000000000000000000000000000000000000000000000000000000000081565b6102c46103bd366004611fcb565b610baa565b6102c4610bb6565b6102c46103d8366004612186565b610c39565b61026f6103eb3660046121a8565b610ca4565b6102a36103fe366004611fef565b60096020526000908152604090205481565b6102c461041e3660046121d6565b611107565b6000546001600160a01b031661026f565b61026f7f000000000000000000000000000000000000000000000000000000000000000081565b6102a360025481565b6102c4610472366004612186565b6112cf565b6102a3610485366004611fcb565b60066020526000908152604090205481565b61026f6104a5366004612186565b611335565b6103526104b8366004611fcb565b600a6020526000908152604090205460ff1681565b61026f6104db366004611fef565b61136d565b6102a3611397565b61026f6104f6366004611fcb565b6004602052600090815260409020546001600160a01b031681565b6102a361051f366004612202565b600760209081526000928352604080842090915290825290205481565b6102c461054a366004612149565b611443565b6102c461055d366004611fcb565b611483565b6102c4610570366004612273565b611596565b6040517f430c2081000000000000000000000000000000000000000000000000000000008152336004820152602481018290527f00000000000000000000000000000000000000000000000000000000000000006001600160a01b03169063430c208190604401602060405180830381865afa1580156105f9573d6000803e3d6000fd5b505050506040513d601f19601f8201168201806040525081019061061d91906122ed565b61062657600080fd5b61062f816116c1565b6040517fc1f0fb9f000000000000000000000000000000000000000000000000000000008152600481018290527f00000000000000000000000000000000000000000000000000000000000000006001600160a01b03169063c1f0fb9f90602401600060405180830381600087803b1580156106aa57600080fd5b505af11580156106be573d6000803e3d6000fd5b5050505050565b60008181526008602090815260408083208054825181850281018501909352808352919290919083018282801561072557602002820191906000526020600020905b81546001600160a01b03168152600190910190602001808311610707575b5050505050905060008151905060008167ffffffffffffffff81111561074d5761074d612008565b604051908082528060200260200182016040528015610776578160200160208202803683370190505b50905060005b82811015610803576007600086815260200190815260200160002060008583815181106107ab576107ab61230f565b60200260200101516001600160a01b03166001600160a01b03168152602001908152602001600020548282815181106107e6576107e661230f565b6020908102919091010152806107fb8161236d565b91505061077c565b5061080f848483611863565b50505050565b6108417f0000000000000000000000000000000000000000000000000000000000000000333084611c72565b60025460009061085983670de0b6b3a76400006123a6565b6108639190612412565b905080156108835780600d600082825461087d9190612426565b90915550505b6040518281526001600160a01b037f0000000000000000000000000000000000000000000000000000000000000000169033907ff70d5c697de7ea828df48e5c4573cb2194c659f1901f70110c52b066dcf508269060200160405180910390a35050565b6001546001600160a01b031633146108fe57600080fd5b60005b825181101561093e5761092c83828151811061091f5761091f61230f565b6020026020010151611d98565b806109368161236d565b915050610901565b50600180547fffffffffffffffffffffffff0000000000000000000000000000000000000000166001600160a01b039290921691909117905550565b60035461098990600090610c39565b565b600354610989906000906112cf565b60005b81518110156109da576109c88282815181106109bb576109bb61230f565b60200260200101516109de565b806109d28161236d565b91505061099d565b5050565b600c546001146109ed57600080fd5b6002600c55600154604080517fed29fc1100000000000000000000000000000000000000000000000000000000815290516001600160a01b039092169163ed29fc119160048082019260209290919082900301816000875af1158015610a57573d6000803e3d6000fd5b505050506040513d601f19601f82011682018060405250810190610a7b919061243e565b50610a8581611e29565b6001600160a01b0381166000908152600f602052604081205490610aac62093a8083612412565b1115610ba1576001600160a01b038281166000818152600f602052604080822091909155517fb66503cf0000000000000000000000000000000000000000000000000000000081527f00000000000000000000000000000000000000000000000000000000000000009092166004830152602482018390529063b66503cf90604401600060405180830381600087803b158015610b4857600080fd5b505af1158015610b5c573d6000803e3d6000fd5b50506040518381526001600160a01b03851692503391507f4fa9693cae526341d334e2862ca2413b2e503f1266255f9e0869fb36e6d89b179060200160405180910390a35b50506001600c55565b610bb381611e29565b50565b6000546001600160a01b03163314610c2f576040517f08c379a000000000000000000000000000000000000000000000000000000000815260206004820181905260248201527f4f776e61626c653a2063616c6c6572206973206e6f7420746865206f776e657260448201526064015b60405180910390fd5b6109896000611f0c565b815b81811015610c9f57610c8d6004600060038481548110610c5d57610c5d61230f565b60009182526020808320909101546001600160a01b039081168452908301939093526040909101902054166109de565b80610c978161236d565b915050610c3b565b505050565b600080546001600160a01b03163314610d19576040517f08c379a000000000000000000000000000000000000000000000000000000000815260206004820181905260248201527f4f776e61626c653a2063616c6c6572206973206e6f7420746865206f776e65726044820152606401610c26565b6001600160a01b038381166000908152600460205260409020541615610d9b576040517f08c379a000000000000000000000000000000000000000000000000000000000815260206004820152600660248201527f65786973747300000000000000000000000000000000000000000000000000006044820152606401610c26565b6001600160a01b0383166000908152600b602052604090205460ff16610e1d576040517f08c379a000000000000000000000000000000000000000000000000000000000815260206004820152600a60248201527f21726571756573746564000000000000000000000000000000000000000000006044820152606401610c26565b6040517f1c48e0fa0000000000000000000000000000000000000000000000000000000081526001600160a01b0384811660048301527f00000000000000000000000000000000000000000000000000000000000000008116602483015283811660448301526000917f000000000000000000000000000000000000000000000000000000000000000090911690631c48e0fa906064016020604051808303816000875af1158015610ed3573d6000803e3d6000fd5b505050506040513d601f19601f82011682018060405250810190610ef79190612457565b6040517f095ea7b30000000000000000000000000000000000000000000000000000000081526001600160a01b0380831660048301527fffffffffffffffffffffffffffffffffffffffffffffffffffffffffffffffff60248301529192507f00000000000000000000000000000000000000000000000000000000000000009091169063095ea7b3906044016020604051808303816000875af1158015610fa3573d6000803e3d6000fd5b505050506040513d601f19601f82011682018060405250810190610fc791906122ed565b506001600160a01b03808516600081815260046020908152604080832080549587167fffffffffffffffffffffffff000000000000000000000000000000000000000096871681179091558352600582528083208054909516909317909355600a909252902080547fffffffffffffffffffffffffffffffffffffffffffffffffffffffffffffff0016600117905561105f81611e29565b600380546001810182556000919091527fc2575a0e9e593c00f959f8c92f12db2869c3395a3b0502d05e2516446f71f85b0180547fffffffffffffffffffffffff0000000000000000000000000000000000000000166001600160a01b03868116918217909255604051858316815290918316907f9b8203efe7fe42185a7755b0510f87c8b693971d6a7c22520aaf683e6b1242619060200160405180910390a39392505050565b8015611285576040517f6352211e000000000000000000000000000000000000000000000000000000008152600481018290527f00000000000000000000000000000000000000000000000000000000000000006001600160a01b031690636352211e90602401602060405180830381865afa15801561118b573d6000803e3d6000fd5b505050506040513d601f19601f820116820180604052508101906111af9190612457565b6001600160a01b0316336001600160a01b0316146111cc57600080fd5b6111d4611397565b6040517fe7e242d4000000000000000000000000000000000000000000000000000000008152600481018390527f00000000000000000000000000000000000000000000000000000000000000006001600160a01b03169063e7e242d490602401602060405180830381865afa158015611252573d6000803e3d6000fd5b505050506040513d601f19601f82011682018060405250810190611276919061243e565b1161128057600080fd5b6112c6565b6001546112c6907f00000000000000000000000000000000000000000000000000000000000000009033906001600160a01b03166112c1611397565b611c72565b6109da82611d98565b815b81811015610c9f5761132360046000600384815481106112f3576112f361230f565b60009182526020808320909101546001600160a01b03908116845290830193909352604090910190205416611e29565b8061132d8161236d565b9150506112d1565b6008602052816000526040600020818154811061135157600080fd5b6000918252602090912001546001600160a01b03169150829050565b6003818154811061137d57600080fd5b6000918252602090912001546001600160a01b0316905081565b60006117707f00000000000000000000000000000000000000000000000000000000000000006001600160a01b03166318160ddd6040518163ffffffff1660e01b8152600401602060405180830381865afa1580156113fa573d6000803e3d6000fd5b505050506040513d601f19601f8201168201806040525081019061141e919061243e565b611434906b019d971e4fe8401e74000000612474565b61143e9190612412565b905090565b60005b81518110156109da576114718282815181106114645761146461230f565b6020026020010151611e29565b8061147b8161236d565b915050611446565b6000546001600160a01b031633146114f7576040517f08c379a000000000000000000000000000000000000000000000000000000000815260206004820181905260248201527f4f776e61626c653a2063616c6c6572206973206e6f7420746865206f776e65726044820152606401610c26565b6001600160a01b03811661158d576040517f08c379a000000000000000000000000000000000000000000000000000000000815260206004820152602660248201527f4f776e61626c653a206e6577206f776e657220697320746865207a65726f206160448201527f64647265737300000000000000000000000000000000000000000000000000006064820152608401610c26565b610bb381611f0c565b6040517f430c2081000000000000000000000000000000000000000000000000000000008152336004820152602481018690527f00000000000000000000000000000000000000000000000000000000000000006001600160a01b03169063430c208190604401602060405180830381865afa15801561161a573d6000803e3d6000fd5b505050506040513d601f19601f8201168201806040525081019061163e91906122ed565b61164757600080fd5b82811461165357600080fd5b6106be858585808060200260200160405190810160405280939291908181526020018383602002808284376000920191909152505060408051602080890282810182019093528882529093508892508791829185019084908082843760009201919091525061186392505050565b600081815260086020526040812080549091805b828110156118275760008482815481106116f1576116f161230f565b60009182526020808320909101548883526007825260408084206001600160a01b03909216808552919092529120549091508015611812576001600160a01b0380831660009081526004602052604090205461174d9116611e29565b6001600160a01b0382166000908152600660205260408120805483929061177590849061248b565b909155505060008781526007602090815260408083206001600160a01b0386168452909152812080548392906117ac90849061248b565b909155505060008113156117cb576117c481856124ff565b93506117d8565b6117d5818561248b565b93505b60408051888152602081018390527f6b3894ce60b9bbe9d93f1a4e6fc25b6b93cd8222e73ab6348d79c596f5b51de9910160405180910390a15b5050808061181f9061236d565b9150506116d5565b50806002600082825461183a9190612474565b909155505060008481526009602090815260408083208390556008909152812061080f91611f74565b61186c836116c1565b81516040517fe7e242d4000000000000000000000000000000000000000000000000000000008152600481018590526000907f00000000000000000000000000000000000000000000000000000000000000006001600160a01b03169063e7e242d490602401602060405180830381865afa1580156118ef573d6000803e3d6000fd5b505050506040513d601f19601f82011682018060405250810190611913919061243e565b90506000806000805b858110156119a65760008782815181106119385761193861230f565b60200260200101511361196d578681815181106119575761195761230f565b602002602001015161196890612573565b611988565b86818151811061197f5761197f61230f565b60200260200101515b61199290856124ff565b93508061199e8161236d565b91505061191c565b5060005b85811015611ba25760008882815181106119c6576119c661230f565b6020908102919091018101516001600160a01b03808216600090815260048452604080822054909216808252600a909452205490925060ff1615611b8d57600086888b8681518110611a1a57611a1a61230f565b6020026020010151611a2c91906125ac565b611a369190612668565b60008d81526007602090815260408083206001600160a01b038816845290915290205490915015611a6657600080fd5b80611a7057600080fd5b611a7982611e29565b60008c815260086020908152604080832080546001810182559084528284200180547fffffffffffffffffffffffff0000000000000000000000000000000000000000166001600160a01b0388169081179091558352600690915281208054839290611ae69084906124ff565b909155505060008c81526007602090815260408083206001600160a01b038716845290915281208054839290611b1d9084906124ff565b90915550506000811215611b3757611b3481612573565b90505b611b4181866124ff565b9450611b4d81876124ff565b604080518e81526020810184905291975033917f1263a2295e53acd6ef8f655b8afc11fa0f2cf11925be7aa1757d741ef32a926c910160405180910390a2505b50508080611b9a9061236d565b9150506119aa565b506000811315611c40576040517ffd4a77f1000000000000000000000000000000000000000000000000000000008152600481018990527f00000000000000000000000000000000000000000000000000000000000000006001600160a01b03169063fd4a77f190602401600060405180830381600087803b158015611c2757600080fd5b505af1158015611c3b573d6000803e3d6000fd5b505050505b8160026000828254611c529190612426565b909155505060009788526009602052604090972096909655505050505050565b6000846001600160a01b03163b11611c8957600080fd5b604080516001600160a01b0385811660248301528481166044830152606480830185905283518084039091018152608490920183526020820180517bffffffffffffffffffffffffffffffffffffffffffffffffffffffff167f23b872dd000000000000000000000000000000000000000000000000000000001790529151600092839290881691611d1b91906126d0565b6000604051808303816000865af19150503d8060008114611d58576040519150601f19603f3d011682016040523d82523d6000602084013e611d5d565b606091505b5091509150818015611d87575080511580611d87575080806020019051810190611d8791906122ed565b611d9057600080fd5b505050505050565b6001600160a01b0381166000908152600b602052604090205460ff1615611dbe57600080fd5b6001600160a01b0381166000818152600b602052604080822080547fffffffffffffffffffffffffffffffffffffffffffffffffffffffffffffff001660011790555133917ff0327cb46adc649a852254aa18a449aba7285c193557d9dbc9be7fb028d0e00f91a350565b6001600160a01b0380821660009081526005602090815260408083205490931680835260069091529181205490811315611eeb576001600160a01b0383166000908152600e602052604081208054600d549182905591611e898383612474565b90508015611d90576000670de0b6b3a7640000611ea683876123a6565b611eb09190612412565b6001600160a01b0388166000908152600f6020526040812080549293508392909190611edd908490612426565b909155505050505050505050565b600d546001600160a01b0384166000908152600e6020526040902055505050565b600080546001600160a01b038381167fffffffffffffffffffffffff0000000000000000000000000000000000000000831681178455604051919092169283917f8be0079c531659141344cd1fd0a4f28419497f9722a3daafe3b4186f6b6457e09190a35050565b5080546000825590600052602060002090810190610bb391905b80821115611fa25760008155600101611f8e565b5090565b6001600160a01b0381168114610bb357600080fd5b8035611fc681611fa6565b919050565b600060208284031215611fdd57600080fd5b8135611fe881611fa6565b9392505050565b60006020828403121561200157600080fd5b5035919050565b7f4e487b7100000000000000000000000000000000000000000000000000000000600052604160045260246000fd5b600082601f83011261204857600080fd5b8135602067ffffffffffffffff8083111561206557612065612008565b8260051b6040517fffffffffffffffffffffffffffffffffffffffffffffffffffffffffffffffe0603f830116810181811084821117156120a8576120a8612008565b6040529384528581018301938381019250878511156120c657600080fd5b83870191505b848210156120ec576120dd82611fbb565b835291830191908301906120cc565b979650505050505050565b6000806040838503121561210a57600080fd5b823567ffffffffffffffff81111561212157600080fd5b61212d85828601612037565b925050602083013561213e81611fa6565b809150509250929050565b60006020828403121561215b57600080fd5b813567ffffffffffffffff81111561217257600080fd5b61217e84828501612037565b949350505050565b6000806040838503121561219957600080fd5b50508035926020909101359150565b600080604083850312156121bb57600080fd5b82356121c681611fa6565b9150602083013561213e81611fa6565b600080604083850312156121e957600080fd5b82356121f481611fa6565b946020939093013593505050565b6000806040838503121561221557600080fd5b82359150602083013561213e81611fa6565b60008083601f84011261223957600080fd5b50813567ffffffffffffffff81111561225157600080fd5b6020830191508360208260051b850101111561226c57600080fd5b9250929050565b60008060008060006060868803121561228b57600080fd5b85359450602086013567ffffffffffffffff808211156122aa57600080fd5b6122b689838a01612227565b909650945060408801359150808211156122cf57600080fd5b506122dc88828901612227565b969995985093965092949392505050565b6000602082840312156122ff57600080fd5b81518015158114611fe857600080fd5b7f4e487b7100000000000000000000000000000000000000000000000000000000600052603260045260246000fd5b7f4e487b7100000000000000000000000000000000000000000000000000000000600052601160045260246000fd5b60007fffffffffffffffffffffffffffffffffffffffffffffffffffffffffffffffff82141561239f5761239f61233e565b5060010190565b6000817fffffffffffffffffffffffffffffffffffffffffffffffffffffffffffffffff04831182151516156123de576123de61233e565b500290565b7f4e487b7100000000000000000000000000000000000000000000000000000000600052601260045260246000fd5b600082612421576124216123e3565b500490565b600082198211156124395761243961233e565b500190565b60006020828403121561245057600080fd5b5051919050565b60006020828403121561246957600080fd5b8151611fe881611fa6565b6000828210156124865761248661233e565b500390565b6000808312837f8000000000000000000000000000000000000000000000000000000000000000018312811516156124c5576124c561233e565b837f7fffffffffffffffffffffffffffffffffffffffffffffffffffffffffffffff0183138116156124f9576124f961233e565b50500390565b6000808212827f7fffffffffffffffffffffffffffffffffffffffffffffffffffffffffffffff038413811516156125395761253961233e565b827f800000000000000000000000000000000000000000000000000000000000000003841281161561256d5761256d61233e565b50500190565b60007f80000000000000000000000000000000000000000000000000000000000000008214156125a5576125a561233e565b5060000390565b60007f7fffffffffffffffffffffffffffffffffffffffffffffffffffffffffffffff6000841360008413858304851182821616156125ed576125ed61233e565b7f800000000000000000000000000000000000000000000000000000000000000060008712868205881281841616156126285761262861233e565b600087129250878205871284841616156126445761264461233e565b8785058712818416161561265a5761265a61233e565b505050929093029392505050565b600082612677576126776123e3565b7fffffffffffffffffffffffffffffffffffffffffffffffffffffffffffffffff83147f8000000000000000000000000000000000000000000000000000000000000000831416156126cb576126cb61233e565b500590565b6000825160005b818110156126f157602081860181015185830152016126d7565b81811115612700576000828501525b50919091019291505056fea164736f6c634300080b000a",
    "linkReferences": {},
    "deployedLinkReferences": {}
}