{
    "_format": "hh-sol-artifact-1",
    "contractName": "BaseV1Dispatcher",
    "sourceName": "contracts/BaseV1-dispatcher.sol",
    "abi": [
        {
            "inputs": [
                {
                    "internalType": "address",
                    "name": "__voter",
                    "type": "address"
                },
                {
                    "internalType": "address",
                    "name": "__ve",
                    "type": "address"
                }
            ],
            "stateMutability": "nonpayable",
            "type": "constructor"
        },
        {
            "anonymous": false,
            "inputs": [
                {
                    "indexed": true,
                    "internalType": "address",
                    "name": "sender",
                    "type": "address"
                },
                {
                    "indexed": false,
                    "internalType": "uint256",
                    "name": "weekly",
                    "type": "uint256"
                }
            ],
            "name": "Emission",
            "type": "event"
        },
        {
            "anonymous": false,
            "inputs": [
                {
                    "indexed": true,
                    "internalType": "address",
                    "name": "previousOwner",
                    "type": "address"
                },
                {
                    "indexed": true,
                    "internalType": "address",
                    "name": "newOwner",
                    "type": "address"
                }
            ],
            "name": "OwnershipTransferred",
            "type": "event"
        },
        {
            "anonymous": false,
            "inputs": [
                {
                    "indexed": false,
                    "internalType": "uint256",
                    "name": "priorWeeklyEmission",
                    "type": "uint256"
                },
                {
                    "indexed": false,
                    "internalType": "uint256",
                    "name": "updatedWeeklyEmission",
                    "type": "uint256"
                }
            ],
            "name": "WeeklyEmissionUpdated",
            "type": "event"
        },
        {
            "inputs": [],
            "name": "_token",
            "outputs": [
                {
                    "internalType": "contract underlying",
                    "name": "",
                    "type": "address"
                }
            ],
            "stateMutability": "view",
            "type": "function"
        },
        {
            "inputs": [],
            "name": "_ve",
            "outputs": [
                {
                    "internalType": "contract ve",
                    "name": "",
                    "type": "address"
                }
            ],
            "stateMutability": "view",
            "type": "function"
        },
        {
            "inputs": [],
            "name": "_voter",
            "outputs": [
                {
                    "internalType": "contract voter",
                    "name": "",
                    "type": "address"
                }
            ],
            "stateMutability": "view",
            "type": "function"
        },
        {
            "inputs": [],
            "name": "active_period",
            "outputs": [
                {
                    "internalType": "uint256",
                    "name": "",
                    "type": "uint256"
                }
            ],
            "stateMutability": "view",
            "type": "function"
        },
        {
            "inputs": [
                {
                    "internalType": "address[]",
                    "name": "claimants",
                    "type": "address[]"
                },
                {
                    "internalType": "uint256[]",
                    "name": "amounts",
                    "type": "uint256[]"
                },
                {
                    "internalType": "uint256",
                    "name": "initAmount",
                    "type": "uint256"
                }
            ],
            "name": "initialize",
            "outputs": [],
            "stateMutability": "nonpayable",
            "type": "function"
        },
        {
            "inputs": [],
            "name": "owner",
            "outputs": [
                {
                    "internalType": "address",
                    "name": "",
                    "type": "address"
                }
            ],
            "stateMutability": "view",
            "type": "function"
        },
        {
            "inputs": [],
            "name": "renounceOwnership",
            "outputs": [],
            "stateMutability": "nonpayable",
            "type": "function"
        },
        {
            "inputs": [
                {
                    "internalType": "uint256",
                    "name": "_newWeeklyEmission",
                    "type": "uint256"
                }
            ],
            "name": "set_weekly_emission",
            "outputs": [],
            "stateMutability": "nonpayable",
            "type": "function"
        },
        {
            "inputs": [
                {
                    "internalType": "address",
                    "name": "newOwner",
                    "type": "address"
                }
            ],
            "name": "transferOwnership",
            "outputs": [],
            "stateMutability": "nonpayable",
            "type": "function"
        },
        {
            "inputs": [],
            "name": "update_period",
            "outputs": [
                {
                    "internalType": "uint256",
                    "name": "",
                    "type": "uint256"
                }
            ],
            "stateMutability": "nonpayable",
            "type": "function"
        },
        {
            "inputs": [],
            "name": "weekly_emission",
            "outputs": [
                {
                    "internalType": "uint256",
                    "name": "",
                    "type": "uint256"
                }
            ],
            "stateMutability": "view",
            "type": "function"
        }
    ],
    "bytecode": "0x60e06040523480156200001157600080fd5b50604051620011e2380380620011e2833981016040819052620000349162000185565b6200003f3362000118565b600380546001600160a01b0319163317905560408051637e062a3560e11b815290516001600160a01b0383169163fc0c546a9160048083019260209291908290030181865afa15801562000097573d6000803e3d6000fd5b505050506040513d601f19601f82011682018060405250810190620000bd9190620001bd565b6001600160a01b0390811660805282811660a052811660c05262093a8080620000e8816002620001f8565b620000f490426200021a565b62000100919062000235565b6200010c9190620001f8565b60025550620002589050565b600080546001600160a01b038381166001600160a01b0319831681178455604051919092169283917f8be0079c531659141344cd1fd0a4f28419497f9722a3daafe3b4186f6b6457e09190a35050565b80516001600160a01b03811681146200018057600080fd5b919050565b600080604083850312156200019957600080fd5b620001a48362000168565b9150620001b46020840162000168565b90509250929050565b600060208284031215620001d057600080fd5b620001db8262000168565b9392505050565b634e487b7160e01b600052601160045260246000fd5b6000816000190483118215151615620002155762000215620001e2565b500290565b60008219821115620002305762000230620001e2565b500190565b6000826200025357634e487b7160e01b600052601260045260246000fd5b500490565b60805160a05160c051610f23620002bf6000396000818161015f015281816103aa015261047401526000818160d301528181610860015261092c0152600081816101b4015281816102e2015281816103f80152818161074c015261088f0152610f236000f3fe608060405234801561001057600080fd5b50600436106100c95760003560e01c8063b225448611610081578063ecd0c0c31161005b578063ecd0c0c3146101af578063ed29fc11146101d6578063f2fde38b146101de57600080fd5b8063b225448614610181578063cfc6c8ff14610194578063d1399608146101a657600080fd5b806385170813116100b257806385170813146101295780638da5cb5b1461013c5780638dd598fb1461015a57600080fd5b80633db9b42a146100ce578063715018a61461011f575b600080fd5b6100f57f000000000000000000000000000000000000000000000000000000000000000081565b60405173ffffffffffffffffffffffffffffffffffffffff90911681526020015b60405180910390f35b6101276101f1565b005b610127610137366004610cb0565b610283565b60005473ffffffffffffffffffffffffffffffffffffffff166100f5565b6100f57f000000000000000000000000000000000000000000000000000000000000000081565b61012761018f366004610d79565b6105d6565b6001545b604051908152602001610116565b61019860025481565b6100f57f000000000000000000000000000000000000000000000000000000000000000081565b61019861069c565b6101276101ec366004610d92565b6109da565b60005473ffffffffffffffffffffffffffffffffffffffff163314610277576040517f08c379a000000000000000000000000000000000000000000000000000000000815260206004820181905260248201527f4f776e61626c653a2063616c6c6572206973206e6f7420746865206f776e657260448201526064015b60405180910390fd5b6102816000610b0a565b565b60035473ffffffffffffffffffffffffffffffffffffffff1633146102a757600080fd5b6040517f23b872dd000000000000000000000000000000000000000000000000000000008152336004820152306024820152604481018290527f000000000000000000000000000000000000000000000000000000000000000073ffffffffffffffffffffffffffffffffffffffff16906323b872dd906064016020604051808303816000875af1158015610340573d6000803e3d6000fd5b505050506040513d601f19601f820116820180604052508101906103649190610db4565b61036d57600080fd5b6040517f095ea7b300000000000000000000000000000000000000000000000000000000815273ffffffffffffffffffffffffffffffffffffffff7f0000000000000000000000000000000000000000000000000000000000000000811660048301527fffffffffffffffffffffffffffffffffffffffffffffffffffffffffffffffff60248301527f0000000000000000000000000000000000000000000000000000000000000000169063095ea7b3906044016020604051808303816000875af1158015610441573d6000803e3d6000fd5b505050506040513d601f19601f820116820180604052508101906104659190610db4565b5060005b8351811015610582577f000000000000000000000000000000000000000000000000000000000000000073ffffffffffffffffffffffffffffffffffffffff1663d4e54c3b8483815181106104c0576104c0610dd6565b602002602001015163077f88008785815181106104df576104df610dd6565b60200260200101516040518463ffffffff1660e01b815260040161052c93929190928352602083019190915273ffffffffffffffffffffffffffffffffffffffff16604082015260600190565b6020604051808303816000875af115801561054b573d6000803e3d6000fd5b505050506040513d601f19601f8201168201806040525081019061056f9190610e05565b508061057a81610e4d565b915050610469565b50600380547fffffffffffffffffffffffff000000000000000000000000000000000000000016905562093a80806105ba8142610e86565b6105c49190610e9e565b6105ce9190610ed9565b600255505050565b60005473ffffffffffffffffffffffffffffffffffffffff163314610657576040517f08c379a000000000000000000000000000000000000000000000000000000000815260206004820181905260248201527f4f776e61626c653a2063616c6c6572206973206e6f7420746865206f776e6572604482015260640161026e565b600180549082905560408051828152602081018490527f54877546644c946a7857da020d986360e7a3888c48bad3e2597cddb4dba8d9fb910160405180910390a15050565b6002546000906106af62093a8082610e86565b42101580156106d4575060035473ffffffffffffffffffffffffffffffffffffffff16155b156109d55762093a806106e78142610e9e565b6106f19190610ed9565b60028190559050600061070360015490565b6040517f70a0823100000000000000000000000000000000000000000000000000000000815230600482015290915060009073ffffffffffffffffffffffffffffffffffffffff7f000000000000000000000000000000000000000000000000000000000000000016906370a0823190602401602060405180830381865afa158015610793573d6000803e3d6000fd5b505050506040513d601f19601f820116820180604052508101906107b79190610e05565b905081811015610823576040517f08c379a000000000000000000000000000000000000000000000000000000000815260206004820181905260248201527f496e73756666696369656e742066756e647320696e2064697370617463686572604482015260640161026e565b6040517f095ea7b300000000000000000000000000000000000000000000000000000000815273ffffffffffffffffffffffffffffffffffffffff7f000000000000000000000000000000000000000000000000000000000000000081166004830152602482018490527f0000000000000000000000000000000000000000000000000000000000000000169063095ea7b3906044016020604051808303816000875af11580156108d8573d6000803e3d6000fd5b505050506040513d601f19601f820116820180604052508101906108fc9190610db4565b506040517f3c6b16ab000000000000000000000000000000000000000000000000000000008152600481018390527f000000000000000000000000000000000000000000000000000000000000000073ffffffffffffffffffffffffffffffffffffffff1690633c6b16ab90602401600060405180830381600087803b15801561098557600080fd5b505af1158015610999573d6000803e3d6000fd5b50506040518481523392507ff54dbf4cddb908bac0d67a3e6d3e4de95d0e7bc059afe2d34b37a6ebbc3879ca915060200160405180910390a250505b919050565b60005473ffffffffffffffffffffffffffffffffffffffff163314610a5b576040517f08c379a000000000000000000000000000000000000000000000000000000000815260206004820181905260248201527f4f776e61626c653a2063616c6c6572206973206e6f7420746865206f776e6572604482015260640161026e565b73ffffffffffffffffffffffffffffffffffffffff8116610afe576040517f08c379a000000000000000000000000000000000000000000000000000000000815260206004820152602660248201527f4f776e61626c653a206e6577206f776e657220697320746865207a65726f206160448201527f6464726573730000000000000000000000000000000000000000000000000000606482015260840161026e565b610b0781610b0a565b50565b6000805473ffffffffffffffffffffffffffffffffffffffff8381167fffffffffffffffffffffffff0000000000000000000000000000000000000000831681178455604051919092169283917f8be0079c531659141344cd1fd0a4f28419497f9722a3daafe3b4186f6b6457e09190a35050565b7f4e487b7100000000000000000000000000000000000000000000000000000000600052604160045260246000fd5b604051601f82017fffffffffffffffffffffffffffffffffffffffffffffffffffffffffffffffe016810167ffffffffffffffff81118282101715610bf557610bf5610b7f565b604052919050565b600067ffffffffffffffff821115610c1757610c17610b7f565b5060051b60200190565b803573ffffffffffffffffffffffffffffffffffffffff811681146109d557600080fd5b600082601f830112610c5657600080fd5b81356020610c6b610c6683610bfd565b610bae565b82815260059290921b84018101918181019086841115610c8a57600080fd5b8286015b84811015610ca55780358352918301918301610c8e565b509695505050505050565b600080600060608486031215610cc557600080fd5b833567ffffffffffffffff80821115610cdd57600080fd5b818601915086601f830112610cf157600080fd5b81356020610d01610c6683610bfd565b82815260059290921b8401810191818101908a841115610d2057600080fd5b948201945b83861015610d4557610d3686610c21565b82529482019490820190610d25565b97505087013592505080821115610d5b57600080fd5b50610d6886828701610c45565b925050604084013590509250925092565b600060208284031215610d8b57600080fd5b5035919050565b600060208284031215610da457600080fd5b610dad82610c21565b9392505050565b600060208284031215610dc657600080fd5b81518015158114610dad57600080fd5b7f4e487b7100000000000000000000000000000000000000000000000000000000600052603260045260246000fd5b600060208284031215610e1757600080fd5b5051919050565b7f4e487b7100000000000000000000000000000000000000000000000000000000600052601160045260246000fd5b60007fffffffffffffffffffffffffffffffffffffffffffffffffffffffffffffffff821415610e7f57610e7f610e1e565b5060010190565b60008219821115610e9957610e99610e1e565b500190565b600082610ed4577f4e487b7100000000000000000000000000000000000000000000000000000000600052601260045260246000fd5b500490565b6000817fffffffffffffffffffffffffffffffffffffffffffffffffffffffffffffffff0483118215151615610f1157610f11610e1e565b50029056fea164736f6c634300080b000a",
    "linkReferences": {},
    "deployedLinkReferences": {}
}