{
  "_format": "hh-sol-artifact-1",
  "contractName": "Boba_GasPriceOracle",
  "sourceName": "contracts/L2/predeploys/Boba_GasPriceOracle.sol",
  "abi": [
    {
      "anonymous": false,
      "inputs": [
        {
          "indexed": false,
          "internalType": "address",
          "name": "",
          "type": "address"
        }
      ],
      "name": "SwapSecondaryFeeTokenForBOBAMetaTransaction",
      "type": "event"
    },
    {
      "anonymous": false,
      "inputs": [
        {
          "indexed": false,
          "internalType": "address",
          "name": "",
          "type": "address"
        },
        {
          "indexed": false,
          "internalType": "address",
          "name": "",
          "type": "address"
        }
      ],
      "name": "TransferOwnership",
      "type": "event"
    },
    {
      "anonymous": false,
      "inputs": [
        {
          "indexed": false,
          "internalType": "address",
          "name": "",
          "type": "address"
        },
        {
          "indexed": false,
          "internalType": "uint256",
          "name": "",
          "type": "uint256"
        }
      ],
      "name": "UpdateDecimals",
      "type": "event"
    },
    {
      "anonymous": false,
      "inputs": [
        {
          "indexed": false,
          "internalType": "address",
          "name": "",
          "type": "address"
        },
        {
          "indexed": false,
          "internalType": "address",
          "name": "",
          "type": "address"
        }
      ],
      "name": "UpdateGasPriceOracleAddress",
      "type": "event"
    },
    {
      "anonymous": false,
      "inputs": [
        {
          "indexed": false,
          "internalType": "address",
          "name": "",
          "type": "address"
        },
        {
          "indexed": false,
          "internalType": "uint256",
          "name": "",
          "type": "uint256"
        }
      ],
      "name": "UpdateMaxPriceRatio",
      "type": "event"
    },
    {
      "anonymous": false,
      "inputs": [
        {
          "indexed": false,
          "internalType": "address",
          "name": "",
          "type": "address"
        },
        {
          "indexed": false,
          "internalType": "uint256",
          "name": "",
          "type": "uint256"
        }
      ],
      "name": "UpdateMetaTransactionFee",
      "type": "event"
    },
    {
      "anonymous": false,
      "inputs": [
        {
          "indexed": false,
          "internalType": "address",
          "name": "",
          "type": "address"
        },
        {
          "indexed": false,
          "internalType": "uint256",
          "name": "",
          "type": "uint256"
        }
      ],
      "name": "UpdateMinPriceRatio",
      "type": "event"
    },
    {
      "anonymous": false,
      "inputs": [
        {
          "indexed": false,
          "internalType": "address",
          "name": "",
          "type": "address"
        },
        {
          "indexed": false,
          "internalType": "uint256",
          "name": "",
          "type": "uint256"
        },
        {
          "indexed": false,
          "internalType": "uint256",
          "name": "",
          "type": "uint256"
        }
      ],
      "name": "UpdatePriceRatio",
      "type": "event"
    },
    {
      "anonymous": false,
      "inputs": [
        {
          "indexed": false,
          "internalType": "address",
          "name": "",
          "type": "address"
        },
        {
          "indexed": false,
          "internalType": "uint256",
          "name": "",
          "type": "uint256"
        }
      ],
      "name": "UpdateReceivedBOBAAmount",
      "type": "event"
    },
    {
      "anonymous": false,
      "inputs": [
        {
          "indexed": false,
          "internalType": "address",
          "name": "",
          "type": "address"
        }
      ],
      "name": "UseBOBAAsFeeToken",
      "type": "event"
    },
    {
      "anonymous": false,
      "inputs": [
        {
          "indexed": false,
          "internalType": "address",
          "name": "",
          "type": "address"
        }
      ],
      "name": "UseSecondaryFeeTokenAsFeeToken",
      "type": "event"
    },
    {
      "anonymous": false,
      "inputs": [
        {
          "indexed": false,
          "internalType": "address",
          "name": "",
          "type": "address"
        },
        {
          "indexed": false,
          "internalType": "address",
          "name": "",
          "type": "address"
        }
      ],
      "name": "WithdrawBOBA",
      "type": "event"
    },
    {
      "anonymous": false,
      "inputs": [
        {
          "indexed": false,
          "internalType": "address",
          "name": "",
          "type": "address"
        },
        {
          "indexed": false,
          "internalType": "address",
          "name": "",
          "type": "address"
        }
      ],
      "name": "WithdrawSecondaryFeeToken",
      "type": "event"
    },
    {
      "inputs": [],
      "name": "MIN_WITHDRAWAL_AMOUNT",
      "outputs": [
        {
          "internalType": "uint256",
          "name": "",
          "type": "uint256"
        }
      ],
      "stateMutability": "view",
      "type": "function"
    },
    {
      "inputs": [],
      "name": "decimals",
      "outputs": [
        {
          "internalType": "uint256",
          "name": "",
          "type": "uint256"
        }
      ],
      "stateMutability": "view",
      "type": "function"
    },
    {
      "inputs": [],
      "name": "feeWallet",
      "outputs": [
        {
          "internalType": "address",
          "name": "",
          "type": "address"
        }
      ],
      "stateMutability": "view",
      "type": "function"
    },
    {
      "inputs": [],
      "name": "gasPriceOracleAddress",
      "outputs": [
        {
          "internalType": "address",
          "name": "",
          "type": "address"
        }
      ],
      "stateMutability": "view",
      "type": "function"
    },
    {
      "inputs": [
        {
          "internalType": "bytes",
          "name": "_txData",
          "type": "bytes"
        }
      ],
      "name": "getSecondaryFeeTokenFee",
      "outputs": [
        {
          "internalType": "uint256",
          "name": "",
          "type": "uint256"
        }
      ],
      "stateMutability": "view",
      "type": "function"
    },
    {
      "inputs": [],
      "name": "getSecondaryFeeTokenForSwap",
      "outputs": [
        {
          "internalType": "uint256",
          "name": "",
          "type": "uint256"
        }
      ],
      "stateMutability": "view",
      "type": "function"
    },
    {
      "inputs": [
        {
          "internalType": "address payable",
          "name": "_feeWallet",
          "type": "address"
        },
        {
          "internalType": "address",
          "name": "_secondaryFeeToken",
          "type": "address"
        }
      ],
      "name": "initialize",
      "outputs": [],
      "stateMutability": "nonpayable",
      "type": "function"
    },
    {
      "inputs": [],
      "name": "marketPriceRatio",
      "outputs": [
        {
          "internalType": "uint256",
          "name": "",
          "type": "uint256"
        }
      ],
      "stateMutability": "view",
      "type": "function"
    },
    {
      "inputs": [],
      "name": "maxPriceRatio",
      "outputs": [
        {
          "internalType": "uint256",
          "name": "",
          "type": "uint256"
        }
      ],
      "stateMutability": "view",
      "type": "function"
    },
    {
      "inputs": [],
      "name": "metaTransactionFee",
      "outputs": [
        {
          "internalType": "uint256",
          "name": "",
          "type": "uint256"
        }
      ],
      "stateMutability": "view",
      "type": "function"
    },
    {
      "inputs": [],
      "name": "minPriceRatio",
      "outputs": [
        {
          "internalType": "uint256",
          "name": "",
          "type": "uint256"
        }
      ],
      "stateMutability": "view",
      "type": "function"
    },
    {
      "inputs": [],
      "name": "owner",
      "outputs": [
        {
          "internalType": "address",
          "name": "",
          "type": "address"
        }
      ],
      "stateMutability": "view",
      "type": "function"
    },
    {
      "inputs": [],
      "name": "priceRatio",
      "outputs": [
        {
          "internalType": "uint256",
          "name": "",
          "type": "uint256"
        }
      ],
      "stateMutability": "view",
      "type": "function"
    },
    {
      "inputs": [],
      "name": "receivedBOBAAmount",
      "outputs": [
        {
          "internalType": "uint256",
          "name": "",
          "type": "uint256"
        }
      ],
      "stateMutability": "view",
      "type": "function"
    },
    {
      "inputs": [],
      "name": "secondaryFeeTokenAddress",
      "outputs": [
        {
          "internalType": "address",
          "name": "",
          "type": "address"
        }
      ],
      "stateMutability": "view",
      "type": "function"
    },
    {
      "inputs": [
        {
          "internalType": "address",
          "name": "",
          "type": "address"
        }
      ],
      "name": "secondaryFeeTokenUsers",
      "outputs": [
        {
          "internalType": "bool",
          "name": "",
          "type": "bool"
        }
      ],
      "stateMutability": "view",
      "type": "function"
    },
    {
      "inputs": [
        {
          "internalType": "address",
          "name": "tokenOwner",
          "type": "address"
        },
        {
          "internalType": "address",
          "name": "spender",
          "type": "address"
        },
        {
          "internalType": "uint256",
          "name": "value",
          "type": "uint256"
        },
        {
          "internalType": "uint256",
          "name": "deadline",
          "type": "uint256"
        },
        {
          "internalType": "uint8",
          "name": "v",
          "type": "uint8"
        },
        {
          "internalType": "bytes32",
          "name": "r",
          "type": "bytes32"
        },
        {
          "internalType": "bytes32",
          "name": "s",
          "type": "bytes32"
        }
      ],
      "name": "swapSecondaryFeeTokenForBOBAMetaTransaction",
      "outputs": [],
      "stateMutability": "nonpayable",
      "type": "function"
    },
    {
      "inputs": [
        {
          "internalType": "address",
          "name": "_newOwner",
          "type": "address"
        }
      ],
      "name": "transferOwnership",
      "outputs": [],
      "stateMutability": "nonpayable",
      "type": "function"
    },
    {
      "inputs": [
        {
          "internalType": "uint256",
          "name": "_decimals",
          "type": "uint256"
        }
      ],
      "name": "updateDecimals",
      "outputs": [],
      "stateMutability": "nonpayable",
      "type": "function"
    },
    {
      "inputs": [
        {
          "internalType": "address",
          "name": "_gasPriceOracleAddress",
          "type": "address"
        }
      ],
      "name": "updateGasPriceOracleAddress",
      "outputs": [],
      "stateMutability": "nonpayable",
      "type": "function"
    },
    {
      "inputs": [
        {
          "internalType": "uint256",
          "name": "_maxPriceRatio",
          "type": "uint256"
        }
      ],
      "name": "updateMaxPriceRatio",
      "outputs": [],
      "stateMutability": "nonpayable",
      "type": "function"
    },
    {
      "inputs": [
        {
          "internalType": "uint256",
          "name": "_metaTransactionFee",
          "type": "uint256"
        }
      ],
      "name": "updateMetaTransactionFee",
      "outputs": [],
      "stateMutability": "nonpayable",
      "type": "function"
    },
    {
      "inputs": [
        {
          "internalType": "uint256",
          "name": "_minPriceRatio",
          "type": "uint256"
        }
      ],
      "name": "updateMinPriceRatio",
      "outputs": [],
      "stateMutability": "nonpayable",
      "type": "function"
    },
    {
      "inputs": [
        {
          "internalType": "uint256",
          "name": "_priceRatio",
          "type": "uint256"
        },
        {
          "internalType": "uint256",
          "name": "_marketPriceRatio",
          "type": "uint256"
        }
      ],
      "name": "updatePriceRatio",
      "outputs": [],
      "stateMutability": "nonpayable",
      "type": "function"
    },
    {
      "inputs": [
        {
          "internalType": "uint256",
          "name": "_receivedBOBAAmount",
          "type": "uint256"
        }
      ],
      "name": "updateReceivedBOBAAmount",
      "outputs": [],
      "stateMutability": "nonpayable",
      "type": "function"
    },
    {
      "inputs": [],
      "name": "useBobaAsFeeToken",
      "outputs": [],
      "stateMutability": "nonpayable",
      "type": "function"
    },
    {
      "inputs": [],
      "name": "useSecondaryFeeTokenAsFeeToken",
      "outputs": [],
      "stateMutability": "nonpayable",
      "type": "function"
    },
    {
      "inputs": [],
      "name": "withdrawBOBA",
      "outputs": [],
      "stateMutability": "nonpayable",
      "type": "function"
    },
    {
      "inputs": [],
      "name": "withdrawSecondaryFeeToken",
      "outputs": [],
      "stateMutability": "nonpayable",
      "type": "function"
    },
    {
      "stateMutability": "payable",
      "type": "receive"
    }
  ],
  "bytecode": "0x6080604052600280546001600160a01b0319908116734200000000000000000000000000000000000023179091556113886003556101f46004556006805490911673420000000000000000000000000000000000000f17905566038d7ea4c68000600855671bc16d674ec800006009556000600b5534801561008057600080fd5b506120aa806100906000396000f3fe6080604052600436106101c55760003560e01c80637728195c116100f7578063c8a0541311610095578063e27cde4b11610064578063e27cde4b146104c6578063e3aea9ba146104db578063f25f4b56146104fb578063f2fde38b1461051b57600080fd5b8063c8a054131461045e578063d2e1fb221461047e578063d3e5792b14610494578063d86732ef146104b057600080fd5b80638da5cb5b116100d15780638da5cb5b146103ea5780638fcfc81314610408578063b9fee16d14610428578063bc9bd6ee1461043e57600080fd5b80637728195c1461039f578063872ea499146103bf57806389df963d146103d557600080fd5b806315a0c1ac116101645780633cb8dd881161013e5780633cb8dd881461032a57806341f7a5e31461034a578063485cc9551461035f57806366675c571461037f57600080fd5b806315a0c1ac146102e9578063313ce567146102ff57806334fe1b161461031557600080fd5b806306f95c19116101a057806306f95c19146102285780630aa2f4201461025b5780630f0ad02e1461027157806312ac9250146102a957600080fd5b80625c5fb2146101d1578063026da5de146101f357806303bb2b2d1461021357600080fd5b366101cc57005b600080fd5b3480156101dd57600080fd5b506101f16101ec366004611b76565b61053b565b005b3480156101ff57600080fd5b506101f161020e366004611b76565b610612565b34801561021f57600080fd5b506101f16106ca565b34801561023457600080fd5b50610248610243366004611bbe565b610898565b6040519081526020015b60405180910390f35b34801561026757600080fd5b5061024860055481565b34801561027d57600080fd5b50600254610291906001600160a01b031681565b6040516001600160a01b039091168152602001610252565b3480156102b557600080fd5b506102d96102c4366004611ca5565b60076020526000908152604090205460ff1681565b6040519015158152602001610252565b3480156102f557600080fd5b50610248600a5481565b34801561030b57600080fd5b50610248600b5481565b34801561032157600080fd5b506101f161096a565b34801561033657600080fd5b506101f1610345366004611cc2565b610a78565b34801561035657600080fd5b50610248610d55565b34801561036b57600080fd5b506101f161037a366004611d39565b610d90565b34801561038b57600080fd5b506101f161039a366004611b76565b610eac565b3480156103ab57600080fd5b50600654610291906001600160a01b031681565b3480156103cb57600080fd5b5061024860085481565b3480156103e157600080fd5b506101f1610f4b565b3480156103f657600080fd5b506000546001600160a01b0316610291565b34801561041457600080fd5b506101f1610423366004611ca5565b6110c4565b34801561043457600080fd5b5061024860095481565b34801561044a57600080fd5b506101f1610459366004611d72565b611206565b34801561046a57600080fd5b506101f1610479366004611b76565b611304565b34801561048a57600080fd5b5061024860045481565b3480156104a057600080fd5b50610248678ac7230489e8000081565b3480156104bc57600080fd5b5061024860035481565b3480156104d257600080fd5b506101f16113b1565b3480156104e757600080fd5b506101f16104f6366004611b76565b611659565b34801561050757600080fd5b50600154610291906001600160a01b031681565b34801561052757600080fd5b506101f1610536366004611ca5565b6116f8565b6000546001600160a01b0316331461059a5760405162461bcd60e51b815260206004820152601760248201527f63616c6c6572206973206e6f7420746865206f776e657200000000000000000060448201526064015b60405180910390fd5b60035481111580156105ac5750600081115b6105b557600080fd5b60048190557f680f379280fc8680df45c979a924c0084a250758604482cb01dadedbaa1c09c96105ed6000546001600160a01b031690565b604080516001600160a01b03909216825260208201849052015b60405180910390a150565b6000546001600160a01b0316331461066c5760405162461bcd60e51b815260206004820152601760248201527f63616c6c6572206973206e6f7420746865206f776e65720000000000000000006044820152606401610591565b66038d7ea4c68000811180156106895750678ac7230489e8000081105b61069257600080fd5b60098190557f674efbecdf5f1400e276cb9c3d4459ef8a01fdc0da877cb4de7e557fe18de5bc6105ed6000546001600160a01b031690565b333b156107195760405162461bcd60e51b815260206004820152600f60248201527f4163636f756e74206e6f7420454f4100000000000000000000000000000000006044820152606401610591565b6002546040517f70a08231000000000000000000000000000000000000000000000000000000008152336004820152671bc16d674ec80000916001600160a01b0316906370a082319060240160206040518083038186803b15801561077d57600080fd5b505afa158015610791573d6000803e3d6000fd5b505050506040513d601f19601f820116820180604052508101906107b59190611d94565b10156108295760405162461bcd60e51b815260206004820152602860248201527f496e73756666696369656e74207365636f6e646172792066656520746f6b656e60448201527f2062616c616e63650000000000000000000000000000000000000000000000006064820152608401610591565b3360008181526007602090815260409182902080547fffffffffffffffffffffffffffffffffffffffffffffffffffffffffffffff0016600117905590519182527f2a4701af66936e0043ee5cf6e1e981ae08e42c53540fe3adf9cb669ec459924291015b60405180910390a1565b600080600b54600a6108aa9190611efc565b6006546005546040517f49948e0e0000000000000000000000000000000000000000000000000000000081529293506001600160a01b039091169161096291849161095c919085906349948e0e90610906908b90600401611f7e565b60206040518083038186803b15801561091e57600080fd5b505afa158015610932573d6000803e3d6000fd5b505050506040513d601f19601f820116820180604052508101906109569190611d94565b90611840565b90611855565b949350505050565b333b156109b95760405162461bcd60e51b815260206004820152600f60248201527f4163636f756e74206e6f7420454f4100000000000000000000000000000000006044820152606401610591565b6729a2241af62c000033311015610a125760405162461bcd60e51b815260206004820152601960248201527f496e73756666696369656e7420424f42412062616c616e6365000000000000006044820152606401610591565b3360008181526007602090815260409182902080547fffffffffffffffffffffffffffffffffffffffffffffffffffffffffffffff0016905590519182527ffa73f4c7e93d6b458c033969eb1e1966b869463eef1491a1783a466941616e8f910161088e565b863b15610ac75760405162461bcd60e51b815260206004820152600f60248201527f4163636f756e74206e6f7420454f4100000000000000000000000000000000006044820152606401610591565b6001600160a01b0386163014610b1f5760405162461bcd60e51b815260206004820152601c60248201527f5370656e646572206973206e6f74207468697320636f6e7472616374000000006044820152606401610591565b6000600b54600a610b309190611efc565b90506000610b5b600854610b558461095c600a5460095461184090919063ffffffff16565b90611861565b905080871015610bad5760405162461bcd60e51b815260206004820152601360248201527f56616c7565206973206e6f7420656e6f756768000000000000000000000000006044820152606401610591565b6002546040517fd505accf0000000000000000000000000000000000000000000000000000000081526001600160a01b038b811660048301528a81166024830152604482018a90526064820189905260ff8816608483015260a4820187905260c4820186905290911690819063d505accf9060e401600060405180830381600087803b158015610c3c57600080fd5b505af1158015610c50573d6000803e3d6000fd5b50610c6a925050506001600160a01b0382168b308561186d565b6009546040516000916001600160a01b038d16918381818185875af1925050503d8060008114610cb6576040519150601f19603f3d011682016040523d82523d6000602084013e610cbb565b606091505b5050905080610d0c5760405162461bcd60e51b815260206004820152601360248201527f4661696c656420746f2073656e6420424f4241000000000000000000000000006044820152606401610591565b6040516001600160a01b038c1681527f67c28fca43faa12141a11f681414c2818babcb0da54289f470a5052fd4761ed39060200160405180910390a15050505050505050505050565b600080600b54600a610d679190611efc565b9050610d8a600854610b558361095c600a5460095461184090919063ffffffff16565b91505090565b6001546001600160a01b031615610de95760405162461bcd60e51b815260206004820152601d60248201527f436f6e747261637420686173206265656e20696e697469616c697a65640000006044820152606401610591565b6001600160a01b03821615801590610e0957506001600160a01b03811615155b610e1257600080fd5b600180546001600160a01b039384167fffffffffffffffffffffffff000000000000000000000000000000000000000091821617909155600280549290931691811691909117909155600080548216331781556006805490921673420000000000000000000000000000000000000f17909155660aa87bee5380006008556113886003556107d060058190556101f4600455600a55600b55565b6000546001600160a01b03163314610f065760405162461bcd60e51b815260206004820152601760248201527f63616c6c6572206973206e6f7420746865206f776e65720000000000000000006044820152606401610591565b600a8110610f1357600080fd5b600b8190557f3b46fc7b81af1d304c012e880b9a6881d29c7ba5b54beb1e744e55a0d1dd94236105ed6000546001600160a01b031690565b6000546001600160a01b03163314610fa55760405162461bcd60e51b815260206004820152601760248201527f63616c6c6572206973206e6f7420746865206f776e65720000000000000000006044820152606401610591565b6001546040516000916001600160a01b03169047908381818185875af1925050503d8060008114610ff2576040519150601f19603f3d011682016040523d82523d6000602084013e610ff7565b606091505b505090508061106e5760405162461bcd60e51b815260206004820152602160248201527f4661696c656420746f2073656e6420424f424120746f206665652077616c6c6560448201527f74000000000000000000000000000000000000000000000000000000000000006064820152608401610591565b7f2c69c3957d9ca9782726f647b7a3592dd381f4370288551f5ed43fd3cc5b77536110a16000546001600160a01b031690565b600154604080516001600160a01b03938416815292909116602083015201610607565b6000546001600160a01b0316331461111e5760405162461bcd60e51b815260206004820152601760248201527f63616c6c6572206973206e6f7420746865206f776e65720000000000000000006044820152606401610591565b803b61116c5760405162461bcd60e51b815260206004820152600e60248201527f4163636f756e7420697320454f410000000000000000000000000000000000006044820152606401610591565b6001600160a01b03811661117f57600080fd5b600680546001600160a01b0383167fffffffffffffffffffffffff00000000000000000000000000000000000000009091161790557f226bf99888a1e70d41ce744b11ce2acd4d1d1b8cf4ad17a0e72e67acff4bf5a76111e76000546001600160a01b031690565b604080516001600160a01b039283168152918416602083015201610607565b6000546001600160a01b031633146112605760405162461bcd60e51b815260206004820152601760248201527f63616c6c6572206973206e6f7420746865206f776e65720000000000000000006044820152606401610591565b600354821115801561127457506004548210155b61127d57600080fd5b600354811115801561129157506004548110155b61129a57600080fd5b6005829055600a8190557f23632bbb735dece542dac9735a2ba4253234eb119ce45cdf9968cbbe12aa67906112d76000546001600160a01b031690565b604080516001600160a01b0390921682526020820185905281018390526060015b60405180910390a15050565b6000546001600160a01b0316331461135e5760405162461bcd60e51b815260206004820152601760248201527f63616c6c6572206973206e6f7420746865206f776e65720000000000000000006044820152606401610591565b60045481101580156113705750600081115b61137957600080fd5b60038190557f7a28f69b71e51c4a30f620a2cfe4ce5aad2cd3fe5cc9647e400e252b65033d416105ed6000546001600160a01b031690565b6002546040517f70a08231000000000000000000000000000000000000000000000000000000008152306004820152678ac7230489e80000916001600160a01b0316906370a082319060240160206040518083038186803b15801561141557600080fd5b505afa158015611429573d6000803e3d6000fd5b505050506040513d601f19601f8201168201806040525081019061144d9190611d94565b10156114e75760405162461bcd60e51b815260206004820152605560248201527f426f62615f47617350726963654f7261636c653a207769746864726177616c2060448201527f616d6f756e74206d7573742062652067726561746572207468616e206d696e6960648201527f6d756d207769746864726177616c20616d6f756e740000000000000000000000608482015260a401610591565b6002546001546040517f70a082310000000000000000000000000000000000000000000000000000000081523060048201527342000000000000000000000000000000000000109263a3a79548926001600160a01b039182169291169082906370a082319060240160206040518083038186803b15801561156757600080fd5b505afa15801561157b573d6000803e3d6000fd5b505050506040513d601f19601f8201168201806040525081019061159f9190611d94565b6000604051806020016040528060008152506040518663ffffffff1660e01b81526004016115d1959493929190611f91565b600060405180830381600087803b1580156115eb57600080fd5b505af11580156115ff573d6000803e3d6000fd5b505050507ff98e06ad52009fd71318a7e1139b93d3c2fdbb95c1d87cac61a71e47415b6cc36116366000546001600160a01b031690565b600154604080516001600160a01b0393841681529290911660208301520161088e565b6000546001600160a01b031633146116b35760405162461bcd60e51b815260206004820152601760248201527f63616c6c6572206973206e6f7420746865206f776e65720000000000000000006044820152606401610591565b600081116116c057600080fd5b60088190557f1071f61d642716391065a6f38aac12cdc6a436ca6a6622a18ae0530495738afc6105ed6000546001600160a01b031690565b6000546001600160a01b031633146117525760405162461bcd60e51b815260206004820152601760248201527f63616c6c6572206973206e6f7420746865206f776e65720000000000000000006044820152606401610591565b6001600160a01b0381166117ce5760405162461bcd60e51b815260206004820152602660248201527f4f776e61626c653a206e6577206f776e657220697320746865207a65726f206160448201527f64647265737300000000000000000000000000000000000000000000000000006064820152608401610591565b600080546001600160a01b038381167fffffffffffffffffffffffff000000000000000000000000000000000000000083168117909355604080519190921680825260208201939093527f5c486528ec3e3f0ea91181cff8116f02bfa350e03b8b6f12e00765adbb5af85c91016112f8565b600061184c8284611fcf565b90505b92915050565b600061184c828461200c565b600061184c8284612047565b604080516001600160a01b0385811660248301528416604482015260648082018490528251808303909101815260849091019091526020810180517bffffffffffffffffffffffffffffffffffffffffffffffffffffffff167f23b872dd000000000000000000000000000000000000000000000000000000001790526118f59085906118fb565b50505050565b6000611950826040518060400160405280602081526020017f5361666545524332303a206c6f772d6c6576656c2063616c6c206661696c6564815250856001600160a01b03166119e59092919063ffffffff16565b8051909150156119e0578080602001905181019061196e919061205f565b6119e05760405162461bcd60e51b815260206004820152602a60248201527f5361666545524332303a204552433230206f7065726174696f6e20646964206e60448201527f6f742073756363656564000000000000000000000000000000000000000000006064820152608401610591565b505050565b60606119f484846000856119fe565b90505b9392505050565b606082471015611a765760405162461bcd60e51b815260206004820152602660248201527f416464726573733a20696e73756666696369656e742062616c616e636520666f60448201527f722063616c6c00000000000000000000000000000000000000000000000000006064820152608401610591565b843b611ac45760405162461bcd60e51b815260206004820152601d60248201527f416464726573733a2063616c6c20746f206e6f6e2d636f6e74726163740000006044820152606401610591565b600080866001600160a01b03168587604051611ae09190612081565b60006040518083038185875af1925050503d8060008114611b1d576040519150601f19603f3d011682016040523d82523d6000602084013e611b22565b606091505b5091509150611b32828286611b3d565b979650505050505050565b60608315611b4c5750816119f7565b825115611b5c5782518084602001fd5b8160405162461bcd60e51b81526004016105919190611f7e565b600060208284031215611b8857600080fd5b5035919050565b7f4e487b7100000000000000000000000000000000000000000000000000000000600052604160045260246000fd5b600060208284031215611bd057600080fd5b813567ffffffffffffffff80821115611be857600080fd5b818401915084601f830112611bfc57600080fd5b813581811115611c0e57611c0e611b8f565b604051601f82017fffffffffffffffffffffffffffffffffffffffffffffffffffffffffffffffe0908116603f01168101908382118183101715611c5457611c54611b8f565b81604052828152876020848701011115611c6d57600080fd5b826020860160208301376000928101602001929092525095945050505050565b6001600160a01b0381168114611ca257600080fd5b50565b600060208284031215611cb757600080fd5b81356119f781611c8d565b600080600080600080600060e0888a031215611cdd57600080fd5b8735611ce881611c8d565b96506020880135611cf881611c8d565b95506040880135945060608801359350608088013560ff81168114611d1c57600080fd5b9699959850939692959460a0840135945060c09093013592915050565b60008060408385031215611d4c57600080fd5b8235611d5781611c8d565b91506020830135611d6781611c8d565b809150509250929050565b60008060408385031215611d8557600080fd5b50508035926020909101359150565b600060208284031215611da657600080fd5b5051919050565b7f4e487b7100000000000000000000000000000000000000000000000000000000600052601160045260246000fd5b600181815b80851115611e3557817fffffffffffffffffffffffffffffffffffffffffffffffffffffffffffffffff04821115611e1b57611e1b611dad565b80851615611e2857918102915b93841c9390800290611de1565b509250929050565b600082611e4c5750600161184f565b81611e595750600061184f565b8160018114611e6f5760028114611e7957611e95565b600191505061184f565b60ff841115611e8a57611e8a611dad565b50506001821b61184f565b5060208310610133831016604e8410600b8410161715611eb8575081810a61184f565b611ec28383611ddc565b807fffffffffffffffffffffffffffffffffffffffffffffffffffffffffffffffff04821115611ef457611ef4611dad565b029392505050565b600061184c8383611e3d565b60005b83811015611f23578181015183820152602001611f0b565b838111156118f55750506000910152565b60008151808452611f4c816020860160208601611f08565b601f017fffffffffffffffffffffffffffffffffffffffffffffffffffffffffffffffe0169290920160200192915050565b60208152600061184c6020830184611f34565b60006001600160a01b03808816835280871660208401525084604083015263ffffffff8416606083015260a06080830152611b3260a0830184611f34565b6000817fffffffffffffffffffffffffffffffffffffffffffffffffffffffffffffffff048311821515161561200757612007611dad565b500290565b600082612042577f4e487b7100000000000000000000000000000000000000000000000000000000600052601260045260246000fd5b500490565b6000821982111561205a5761205a611dad565b500190565b60006020828403121561207157600080fd5b815180151581146119f757600080fd5b60008251612093818460208701611f08565b919091019291505056fea164736f6c6343000809000a",
  "linkReferences": {},
  "deployedLinkReferences": {}
}