{
  "_format": "hh-sol-artifact-1",
  "contractName": "BobaAirdrop",
  "sourceName": "contracts/BobaAirdrop.sol",
  "abi": [
    {
      "inputs": [
        {
          "internalType": "address",
          "name": "token_",
          "type": "address"
        },
        {
          "internalType": "bytes32",
          "name": "merkleRoot_",
          "type": "bytes32"
        }
      ],
      "stateMutability": "nonpayable",
      "type": "constructor"
    },
    {
      "anonymous": false,
      "inputs": [
        {
          "indexed": false,
          "internalType": "uint256",
          "name": "index",
          "type": "uint256"
        },
        {
          "indexed": false,
          "internalType": "address",
          "name": "account",
          "type": "address"
        },
        {
          "indexed": false,
          "internalType": "uint256",
          "name": "amount",
          "type": "uint256"
        }
      ],
      "name": "Claimed",
      "type": "event"
    },
    {
      "anonymous": false,
      "inputs": [
        {
          "indexed": false,
          "internalType": "uint256",
          "name": "amount",
          "type": "uint256"
        }
      ],
      "name": "OwnerWithdraw",
      "type": "event"
    },
    {
      "anonymous": false,
      "inputs": [
        {
          "indexed": true,
          "internalType": "address",
          "name": "previousOwner",
          "type": "address"
        },
        {
          "indexed": true,
          "internalType": "address",
          "name": "newOwner",
          "type": "address"
        }
      ],
      "name": "OwnershipTransferred",
      "type": "event"
    },
    {
      "anonymous": false,
      "inputs": [
        {
          "indexed": false,
          "internalType": "bytes32",
          "name": "newRoot",
          "type": "bytes32"
        }
      ],
      "name": "RootUpdated",
      "type": "event"
    },
    {
      "inputs": [
        {
          "internalType": "uint256",
          "name": "index",
          "type": "uint256"
        },
        {
          "internalType": "address",
          "name": "account",
          "type": "address"
        },
        {
          "internalType": "uint256",
          "name": "amount",
          "type": "uint256"
        },
        {
          "internalType": "bytes32[]",
          "name": "merkleProof",
          "type": "bytes32[]"
        }
      ],
      "name": "claim",
      "outputs": [],
      "stateMutability": "nonpayable",
      "type": "function"
    },
    {
      "inputs": [
        {
          "internalType": "uint256",
          "name": "index",
          "type": "uint256"
        }
      ],
      "name": "isClaimed",
      "outputs": [
        {
          "internalType": "bool",
          "name": "",
          "type": "bool"
        }
      ],
      "stateMutability": "view",
      "type": "function"
    },
    {
      "inputs": [],
      "name": "merkleRoot",
      "outputs": [
        {
          "internalType": "bytes32",
          "name": "",
          "type": "bytes32"
        }
      ],
      "stateMutability": "view",
      "type": "function"
    },
    {
      "inputs": [],
      "name": "owner",
      "outputs": [
        {
          "internalType": "address",
          "name": "",
          "type": "address"
        }
      ],
      "stateMutability": "view",
      "type": "function"
    },
    {
      "inputs": [],
      "name": "renounceOwnership",
      "outputs": [],
      "stateMutability": "nonpayable",
      "type": "function"
    },
    {
      "inputs": [],
      "name": "token",
      "outputs": [
        {
          "internalType": "address",
          "name": "",
          "type": "address"
        }
      ],
      "stateMutability": "view",
      "type": "function"
    },
    {
      "inputs": [
        {
          "internalType": "address",
          "name": "newOwner",
          "type": "address"
        }
      ],
      "name": "transferOwnership",
      "outputs": [],
      "stateMutability": "nonpayable",
      "type": "function"
    },
    {
      "inputs": [
        {
          "internalType": "bytes32",
          "name": "newMerkleRoot",
          "type": "bytes32"
        }
      ],
      "name": "updateRoot",
      "outputs": [],
      "stateMutability": "nonpayable",
      "type": "function"
    },
    {
      "inputs": [
        {
          "internalType": "uint256",
          "name": "amount",
          "type": "uint256"
        }
      ],
      "name": "withdrawFunds",
      "outputs": [],
      "stateMutability": "nonpayable",
      "type": "function"
    }
  ],
  "bytecode": "0x608060405234801561001057600080fd5b50604051610e37380380610e3783398101604081905261002f916100bc565b61003f61003a610068565b61006c565b600180546001600160a01b0319166001600160a01b0393909316929092179091556002556100f4565b3390565b600080546001600160a01b038381166001600160a01b0319831681178455604051919092169283917f8be0079c531659141344cd1fd0a4f28419497f9722a3daafe3b4186f6b6457e09190a35050565b600080604083850312156100ce578182fd5b82516001600160a01b03811681146100e4578283fd5b6020939093015192949293505050565b610d34806101036000396000f3fe608060405234801561001057600080fd5b50600436106100a35760003560e01c8063715018a6116100765780639e34070f1161005b5780639e34070f1461011e578063f2fde38b1461013e578063fc0c546a14610151576100a3565b8063715018a6146101015780638da5cb5b14610109576100a3565b8063155dd5ee146100a857806321ff9970146100bd5780632e7ba6ef146100d05780632eb4a7ab146100e3575b600080fd5b6100bb6100b6366004610965565b610159565b005b6100bb6100cb366004610965565b6102ef565b6100bb6100de36600461097d565b610397565b6100eb6105a9565b6040516100f89190610aa9565b60405180910390f35b6100bb6105af565b61011161062e565b6040516100f89190610a57565b61013161012c366004610965565b61064a565b6040516100f89190610a9e565b6100bb61014c366004610924565b61068d565b610111610759565b610161610775565b73ffffffffffffffffffffffffffffffffffffffff1661017f61062e565b73ffffffffffffffffffffffffffffffffffffffff16146101d5576040517f08c379a00000000000000000000000000000000000000000000000000000000081526004016101cc90610bb4565b60405180910390fd5b6001546040517fa9059cbb00000000000000000000000000000000000000000000000000000000815273ffffffffffffffffffffffffffffffffffffffff9091169063a9059cbb9061022d9033908590600401610a78565b602060405180830381600087803b15801561024757600080fd5b505af115801561025b573d6000803e3d6000fd5b505050506040513d601f19601f8201168201806040525081019061027f9190610945565b6102b5576040517f08c379a00000000000000000000000000000000000000000000000000000000081526004016101cc90610b7d565b7fa20809e697380eaea0fd13bf4d14b00e2ef29559ef361501189d3be2e9b0ec85816040516102e49190610aa9565b60405180910390a150565b6102f7610775565b73ffffffffffffffffffffffffffffffffffffffff1661031561062e565b73ffffffffffffffffffffffffffffffffffffffff1614610362576040517f08c379a00000000000000000000000000000000000000000000000000000000081526004016101cc90610bb4565b60028190556040517f2cbc14f49c068133583f7cb530018af451c87c1cf1327cf2a4ff4698c4730aa4906102e4908390610aa9565b6103a08561064a565b156103d7576040517f08c379a00000000000000000000000000000000000000000000000000000000081526004016101cc90610be9565b60008585856040516020016103ee93929190610a1c565b604051602081830303815290604052805190602001209050610447838380806020026020016040519081016040528093929190818152602001838360200280828437600092019190915250506002549150849050610779565b61047d576040517f08c379a00000000000000000000000000000000000000000000000000000000081526004016101cc90610b46565b6104868661084d565b6001546040517fa9059cbb00000000000000000000000000000000000000000000000000000000815273ffffffffffffffffffffffffffffffffffffffff9091169063a9059cbb906104de9088908890600401610a78565b602060405180830381600087803b1580156104f857600080fd5b505af115801561050c573d6000803e3d6000fd5b505050506040513d601f19601f820116820180604052508101906105309190610945565b610566576040517f08c379a00000000000000000000000000000000000000000000000000000000081526004016101cc90610b0f565b7f4ec90e965519d92681267467f775ada5bd214aa92c0dc93d90a5e880ce9ed02686868660405161059993929190610c46565b60405180910390a1505050505050565b60025481565b6105b7610775565b73ffffffffffffffffffffffffffffffffffffffff166105d561062e565b73ffffffffffffffffffffffffffffffffffffffff1614610622576040517f08c379a00000000000000000000000000000000000000000000000000000000081526004016101cc90610bb4565b61062c600061088b565b565b60005473ffffffffffffffffffffffffffffffffffffffff1690565b60008061065961010084610c72565b9050600061066961010085610ce4565b60009283526003602052604090922054600190921b9182169091149150505b919050565b610695610775565b73ffffffffffffffffffffffffffffffffffffffff166106b361062e565b73ffffffffffffffffffffffffffffffffffffffff1614610700576040517f08c379a00000000000000000000000000000000000000000000000000000000081526004016101cc90610bb4565b73ffffffffffffffffffffffffffffffffffffffff811661074d576040517f08c379a00000000000000000000000000000000000000000000000000000000081526004016101cc90610ab2565b6107568161088b565b50565b60015473ffffffffffffffffffffffffffffffffffffffff1681565b3390565b600081815b85518110156108425760008682815181106107c2577f4e487b7100000000000000000000000000000000000000000000000000000000600052603260045260246000fd5b602002602001015190508083116108035782816040516020016107e6929190610a0e565b60405160208183030381529060405280519060200120925061082f565b8083604051602001610816929190610a0e565b6040516020818303038152906040528051906020012092505b508061083a81610c86565b91505061077e565b509092149392505050565b600061085b61010083610c72565b9050600061086b61010084610ce4565b6000928352600360205260409092208054600190931b9092179091555050565b6000805473ffffffffffffffffffffffffffffffffffffffff8381167fffffffffffffffffffffffff0000000000000000000000000000000000000000831681178455604051919092169283917f8be0079c531659141344cd1fd0a4f28419497f9722a3daafe3b4186f6b6457e09190a35050565b803573ffffffffffffffffffffffffffffffffffffffff8116811461068857600080fd5b600060208284031215610935578081fd5b61093e82610900565b9392505050565b600060208284031215610956578081fd5b8151801515811461093e578182fd5b600060208284031215610976578081fd5b5035919050565b600080600080600060808688031215610994578081fd5b853594506109a460208701610900565b935060408601359250606086013567ffffffffffffffff808211156109c7578283fd5b818801915088601f8301126109da578283fd5b8135818111156109e8578384fd5b89602080830285010111156109fb578384fd5b9699959850939650602001949392505050565b918252602082015260400190565b92835260609190911b7fffffffffffffffffffffffffffffffffffffffff000000000000000000000000166020830152603482015260540190565b73ffffffffffffffffffffffffffffffffffffffff91909116815260200190565b73ffffffffffffffffffffffffffffffffffffffff929092168252602082015260400190565b901515815260200190565b90815260200190565b60208082526026908201527f4f776e61626c653a206e6577206f776e657220697320746865207a65726f206160408201527f6464726573730000000000000000000000000000000000000000000000000000606082015260800190565b6020808252601d908201527f426f626141697264726f703a205472616e73666572206661696c65642e000000604082015260600190565b6020808252601b908201527f426f626141697264726f703a20496e76616c69642070726f6f662e0000000000604082015260600190565b6020808252601d908201527f426f626141697264726f703a205769746864726177204661696c65642e000000604082015260600190565b6020808252818101527f4f776e61626c653a2063616c6c6572206973206e6f7420746865206f776e6572604082015260600190565b60208082526022908201527f426f626141697264726f703a2044726f7020616c726561647920636c61696d6560408201527f642e000000000000000000000000000000000000000000000000000000000000606082015260800190565b92835273ffffffffffffffffffffffffffffffffffffffff919091166020830152604082015260600190565b600082610c8157610c81610cf8565b500490565b60007fffffffffffffffffffffffffffffffffffffffffffffffffffffffffffffffff821415610cdd577f4e487b710000000000000000000000000000000000000000000000000000000081526011600452602481fd5b5060010190565b600082610cf357610cf3610cf8565b500690565b7f4e487b7100000000000000000000000000000000000000000000000000000000600052601260045260246000fdfea164736f6c6343000800000a",
  "linkReferences": {},
  "deployedLinkReferences": {}
}