{
  "_format": "hh-sol-artifact-1",
  "contractName": "BobaAirdropSecond",
  "sourceName": "contracts/BobaAirdropSecond.sol",
  "abi": [
    {
      "inputs": [
        {
          "internalType": "address",
          "name": "token_",
          "type": "address"
        },
        {
          "internalType": "bytes32",
          "name": "merkleRoot_",
          "type": "bytes32"
        },
        {
          "internalType": "address",
          "name": "omgL2Token_",
          "type": "address"
        }
      ],
      "stateMutability": "nonpayable",
      "type": "constructor"
    },
    {
      "anonymous": false,
      "inputs": [
        {
          "indexed": false,
          "internalType": "uint256",
          "name": "index",
          "type": "uint256"
        },
        {
          "indexed": false,
          "internalType": "address",
          "name": "account",
          "type": "address"
        },
        {
          "indexed": false,
          "internalType": "uint256",
          "name": "amount",
          "type": "uint256"
        }
      ],
      "name": "Claimed",
      "type": "event"
    },
    {
      "anonymous": false,
      "inputs": [
        {
          "indexed": false,
          "internalType": "uint256",
          "name": "amount",
          "type": "uint256"
        }
      ],
      "name": "OwnerWithdraw",
      "type": "event"
    },
    {
      "anonymous": false,
      "inputs": [
        {
          "indexed": true,
          "internalType": "address",
          "name": "previousOwner",
          "type": "address"
        },
        {
          "indexed": true,
          "internalType": "address",
          "name": "newOwner",
          "type": "address"
        }
      ],
      "name": "OwnershipTransferred",
      "type": "event"
    },
    {
      "inputs": [
        {
          "internalType": "uint256",
          "name": "index",
          "type": "uint256"
        },
        {
          "internalType": "address",
          "name": "account",
          "type": "address"
        },
        {
          "internalType": "uint256",
          "name": "amount",
          "type": "uint256"
        },
        {
          "internalType": "bytes32[]",
          "name": "merkleProof",
          "type": "bytes32[]"
        }
      ],
      "name": "claim",
      "outputs": [],
      "stateMutability": "nonpayable",
      "type": "function"
    },
    {
      "inputs": [
        {
          "internalType": "uint256",
          "name": "index",
          "type": "uint256"
        },
        {
          "internalType": "uint256",
          "name": "amount",
          "type": "uint256"
        },
        {
          "internalType": "bytes32[]",
          "name": "merkleProof",
          "type": "bytes32[]"
        }
      ],
      "name": "initiateClaim",
      "outputs": [],
      "stateMutability": "nonpayable",
      "type": "function"
    },
    {
      "inputs": [
        {
          "internalType": "address",
          "name": "",
          "type": "address"
        }
      ],
      "name": "initiateTimestamp",
      "outputs": [
        {
          "internalType": "uint256",
          "name": "",
          "type": "uint256"
        }
      ],
      "stateMutability": "view",
      "type": "function"
    },
    {
      "inputs": [
        {
          "internalType": "uint256",
          "name": "index",
          "type": "uint256"
        }
      ],
      "name": "isClaimed",
      "outputs": [
        {
          "internalType": "bool",
          "name": "",
          "type": "bool"
        }
      ],
      "stateMutability": "view",
      "type": "function"
    },
    {
      "inputs": [],
      "name": "merkleRoot",
      "outputs": [
        {
          "internalType": "bytes32",
          "name": "",
          "type": "bytes32"
        }
      ],
      "stateMutability": "view",
      "type": "function"
    },
    {
      "inputs": [],
      "name": "omgL2Token",
      "outputs": [
        {
          "internalType": "address",
          "name": "",
          "type": "address"
        }
      ],
      "stateMutability": "view",
      "type": "function"
    },
    {
      "inputs": [],
      "name": "owner",
      "outputs": [
        {
          "internalType": "address",
          "name": "",
          "type": "address"
        }
      ],
      "stateMutability": "view",
      "type": "function"
    },
    {
      "inputs": [],
      "name": "renounceOwnership",
      "outputs": [],
      "stateMutability": "nonpayable",
      "type": "function"
    },
    {
      "inputs": [
        {
          "internalType": "address",
          "name": "account",
          "type": "address"
        },
        {
          "internalType": "uint256",
          "name": "timestamp",
          "type": "uint256"
        }
      ],
      "name": "setInitiateClaim",
      "outputs": [],
      "stateMutability": "nonpayable",
      "type": "function"
    },
    {
      "inputs": [
        {
          "components": [
            {
              "internalType": "address",
              "name": "account",
              "type": "address"
            },
            {
              "internalType": "uint256",
              "name": "timestamp",
              "type": "uint256"
            }
          ],
          "internalType": "struct BobaAirdropSecond.claimBatch[]",
          "name": "_claims",
          "type": "tuple[]"
        }
      ],
      "name": "setInitiateClaimBatch",
      "outputs": [],
      "stateMutability": "nonpayable",
      "type": "function"
    },
    {
      "inputs": [],
      "name": "token",
      "outputs": [
        {
          "internalType": "address",
          "name": "",
          "type": "address"
        }
      ],
      "stateMutability": "view",
      "type": "function"
    },
    {
      "inputs": [
        {
          "internalType": "address",
          "name": "newOwner",
          "type": "address"
        }
      ],
      "name": "transferOwnership",
      "outputs": [],
      "stateMutability": "nonpayable",
      "type": "function"
    },
    {
      "inputs": [
        {
          "internalType": "uint256",
          "name": "amount",
          "type": "uint256"
        }
      ],
      "name": "withdrawFunds",
      "outputs": [],
      "stateMutability": "nonpayable",
      "type": "function"
    }
  ],
  "bytecode": "0x60806040523480156200001157600080fd5b50604051620014b0380380620014b08339810160408190526200003491620000f1565b620000486200004262000080565b62000084565b600180546001600160a01b039485166001600160a01b0319918216179091556002929092556003805491909316911617905562000131565b3390565b600080546001600160a01b038381166001600160a01b0319831681178455604051919092169283917f8be0079c531659141344cd1fd0a4f28419497f9722a3daafe3b4186f6b6457e09190a35050565b80516001600160a01b0381168114620000ec57600080fd5b919050565b60008060006060848603121562000106578283fd5b6200011184620000d4565b9250602084015191506200012860408501620000d4565b90509250925092565b61136f80620001416000396000f3fe608060405234801561001057600080fd5b50600436106100df5760003560e01c80639e34070f1161008c578063c025fa8e11610066578063c025fa8e146101a0578063c15cf3c0146101b3578063f2fde38b146101bb578063fc0c546a146101ce576100df565b80639e34070f1461015a578063a69b0b991461017a578063bbce08411461018d576100df565b806368bf9a38116100bd57806368bf9a381461012a578063715018a61461013d5780638da5cb5b14610145576100df565b8063155dd5ee146100e45780632e7ba6ef146100f95780632eb4a7ab1461010c575b600080fd5b6100f76100f2366004610db7565b6101d6565b005b6100f7610107366004610de7565b610338565b610114610593565b6040516101219190610f39565b60405180910390f35b610114610138366004610c62565b610599565b6100f76105ab565b61014d610610565b6040516101219190610ee7565b61016d610168366004610db7565b61062c565b6040516101219190610f2e565b6100f7610188366004610c83565b61066f565b6100f761019b366004610cac565b6106f1565b6100f76101ae366004610e4d565b6107eb565b61014d61099a565b6100f76101c9366004610c62565b6109b6565b61014d610a4e565b6101de610a6a565b73ffffffffffffffffffffffffffffffffffffffff166101fc610610565b73ffffffffffffffffffffffffffffffffffffffff16146102385760405162461bcd60e51b815260040161022f90611190565b60405180910390fd5b6001546040517fa9059cbb00000000000000000000000000000000000000000000000000000000815273ffffffffffffffffffffffffffffffffffffffff9091169063a9059cbb906102909033908590600401610f08565b602060405180830381600087803b1580156102aa57600080fd5b505af11580156102be573d6000803e3d6000fd5b505050506040513d601f19601f820116820180604052508101906102e29190610d1c565b6102fe5760405162461bcd60e51b815260040161022f90611159565b7fa20809e697380eaea0fd13bf4d14b00e2ef29559ef361501189d3be2e9b0ec858160405161032d9190610f39565b60405180910390a150565b73ffffffffffffffffffffffffffffffffffffffff8416600090815260056020526040902054849061037c5760405162461bcd60e51b815260040161022f9061106a565b6103858661062c565b156103a25760405162461bcd60e51b815260040161022f906111c5565b73ffffffffffffffffffffffffffffffffffffffff85166000908152600560205260409020546103d59062278d0061124e565b4210156103f45760405162461bcd60e51b815260040161022f906110fc565b600086868660405160200161040b93929190610eac565b604051602081830303815290604052805190602001209050610464848480806020026020016040519081016040528093929190818152602001838360200280828437600092019190915250506002549150849050610a6e565b6104805760405162461bcd60e51b815260040161022f90611033565b61048987610b42565b6001546040517fa9059cbb00000000000000000000000000000000000000000000000000000000815273ffffffffffffffffffffffffffffffffffffffff9091169063a9059cbb906104e19089908990600401610f08565b602060405180830381600087803b1580156104fb57600080fd5b505af115801561050f573d6000803e3d6000fd5b505050506040513d601f19601f820116820180604052508101906105339190610d1c565b61054f5760405162461bcd60e51b815260040161022f90610ffc565b7f4ec90e965519d92681267467f775ada5bd214aa92c0dc93d90a5e880ce9ed02687878760405161058293929190611222565b60405180910390a150505050505050565b60025481565b60056020526000908152604090205481565b6105b3610a6a565b73ffffffffffffffffffffffffffffffffffffffff166105d1610610565b73ffffffffffffffffffffffffffffffffffffffff16146106045760405162461bcd60e51b815260040161022f90611190565b61060e6000610b80565b565b60005473ffffffffffffffffffffffffffffffffffffffff1690565b60008061063b61010084611266565b9050600061064b610100856112f0565b60009283526004602052604090922054600190921b9182169091149150505b919050565b610677610a6a565b73ffffffffffffffffffffffffffffffffffffffff16610695610610565b73ffffffffffffffffffffffffffffffffffffffff16146106c85760405162461bcd60e51b815260040161022f90611190565b73ffffffffffffffffffffffffffffffffffffffff909116600090815260056020526040902055565b6106f9610a6a565b73ffffffffffffffffffffffffffffffffffffffff16610717610610565b73ffffffffffffffffffffffffffffffffffffffff161461074a5760405162461bcd60e51b815260040161022f90611190565b60005b818110156107e6576000838383818110610790577f4e487b7100000000000000000000000000000000000000000000000000000000600052603260045260246000fd5b9050604002018036038101906107a69190610d3c565b602080820151915173ffffffffffffffffffffffffffffffffffffffff1660009081526005909152604090205550806107de816112b7565b91505061074d565b505050565b8260646107f982605f61127a565b6108039190611266565b6003546040517f70a0823100000000000000000000000000000000000000000000000000000000815273ffffffffffffffffffffffffffffffffffffffff909116906370a0823190610859903390600401610ee7565b60206040518083038186803b15801561087157600080fd5b505afa158015610885573d6000803e3d6000fd5b505050506040513d601f19601f820116820180604052508101906108a99190610dcf565b10156108c75760405162461bcd60e51b815260040161022f9061109f565b33600090815260056020526040902054156108f45760405162461bcd60e51b815260040161022f90610f42565b600085338660405160200161090b93929190610eac565b604051602081830303815290604052805190602001209050610964848480806020026020016040519081016040528093929190818152602001838360200280828437600092019190915250506002549150849050610a6e565b6109805760405162461bcd60e51b815260040161022f90611033565b505033600090815260056020526040902042905550505050565b60035473ffffffffffffffffffffffffffffffffffffffff1681565b6109be610a6a565b73ffffffffffffffffffffffffffffffffffffffff166109dc610610565b73ffffffffffffffffffffffffffffffffffffffff1614610a0f5760405162461bcd60e51b815260040161022f90611190565b73ffffffffffffffffffffffffffffffffffffffff8116610a425760405162461bcd60e51b815260040161022f90610f9f565b610a4b81610b80565b50565b60015473ffffffffffffffffffffffffffffffffffffffff1681565b3390565b600081815b8551811015610b37576000868281518110610ab7577f4e487b7100000000000000000000000000000000000000000000000000000000600052603260045260246000fd5b60200260200101519050808311610af8578281604051602001610adb929190610e9e565b604051602081830303815290604052805190602001209250610b24565b8083604051602001610b0b929190610e9e565b6040516020818303038152906040528051906020012092505b5080610b2f816112b7565b915050610a73565b509092149392505050565b6000610b5061010083611266565b90506000610b60610100846112f0565b6000928352600460205260409092208054600190931b9092179091555050565b6000805473ffffffffffffffffffffffffffffffffffffffff8381167fffffffffffffffffffffffff0000000000000000000000000000000000000000831681178455604051919092169283917f8be0079c531659141344cd1fd0a4f28419497f9722a3daafe3b4186f6b6457e09190a35050565b803573ffffffffffffffffffffffffffffffffffffffff8116811461066a57600080fd5b60008083601f840112610c2a578182fd5b50813567ffffffffffffffff811115610c41578182fd5b6020830191508360208083028501011115610c5b57600080fd5b9250929050565b600060208284031215610c73578081fd5b610c7c82610bf5565b9392505050565b60008060408385031215610c95578081fd5b610c9e83610bf5565b946020939093013593505050565b60008060208385031215610cbe578182fd5b823567ffffffffffffffff80821115610cd5578384fd5b818501915085601f830112610ce8578384fd5b813581811115610cf6578485fd5b866020604083028501011115610d0a578485fd5b60209290920196919550909350505050565b600060208284031215610d2d578081fd5b81518015158114610c7c578182fd5b600060408284031215610d4d578081fd5b6040516040810181811067ffffffffffffffff82111715610d95577f4e487b710000000000000000000000000000000000000000000000000000000083526041600452602483fd5b604052610da183610bf5565b8152602083013560208201528091505092915050565b600060208284031215610dc8578081fd5b5035919050565b600060208284031215610de0578081fd5b5051919050565b600080600080600060808688031215610dfe578081fd5b85359450610e0e60208701610bf5565b935060408601359250606086013567ffffffffffffffff811115610e30578182fd5b610e3c88828901610c19565b969995985093965092949392505050565b60008060008060608587031215610e62578384fd5b8435935060208501359250604085013567ffffffffffffffff811115610e86578283fd5b610e9287828801610c19565b95989497509550505050565b918252602082015260400190565b92835260609190911b7fffffffffffffffffffffffffffffffffffffffff000000000000000000000000166020830152603482015260540190565b73ffffffffffffffffffffffffffffffffffffffff91909116815260200190565b73ffffffffffffffffffffffffffffffffffffffff929092168252602082015260400190565b901515815260200190565b90815260200190565b60208082526024908201527f426f626141697264726f703a20436c61696d20616c726561647920696e69746960408201527f6174656400000000000000000000000000000000000000000000000000000000606082015260800190565b60208082526026908201527f4f776e61626c653a206e6577206f776e657220697320746865207a65726f206160408201527f6464726573730000000000000000000000000000000000000000000000000000606082015260800190565b6020808252601d908201527f426f626141697264726f703a205472616e73666572206661696c65642e000000604082015260600190565b6020808252601b908201527f426f626141697264726f703a20496e76616c69642070726f6f662e0000000000604082015260600190565b6020808252818101527f426f626141697264726f703a20436c61696d206e6f7420696e69746961746564604082015260600190565b6020808252602b908201527f426f626141697264726f703a20636f727265637420616d6f756e74204f4d472060408201527f6e6f742062726964676564000000000000000000000000000000000000000000606082015260800190565b60208082526025908201527f426f626141697264726f703a20436c61696d20706572696f64206e6f7420656c60408201527f6170736564000000000000000000000000000000000000000000000000000000606082015260800190565b6020808252601d908201527f426f626141697264726f703a205769746864726177204661696c65642e000000604082015260600190565b6020808252818101527f4f776e61626c653a2063616c6c6572206973206e6f7420746865206f776e6572604082015260600190565b60208082526022908201527f426f626141697264726f703a2044726f7020616c726561647920636c61696d6560408201527f642e000000000000000000000000000000000000000000000000000000000000606082015260800190565b92835273ffffffffffffffffffffffffffffffffffffffff919091166020830152604082015260600190565b6000821982111561126157611261611304565b500190565b60008261127557611275611333565b500490565b6000817fffffffffffffffffffffffffffffffffffffffffffffffffffffffffffffffff04831182151516156112b2576112b2611304565b500290565b60007fffffffffffffffffffffffffffffffffffffffffffffffffffffffffffffffff8214156112e9576112e9611304565b5060010190565b6000826112ff576112ff611333565b500690565b7f4e487b7100000000000000000000000000000000000000000000000000000000600052601160045260246000fd5b7f4e487b7100000000000000000000000000000000000000000000000000000000600052601260045260246000fdfea164736f6c6343000800000a",
  "linkReferences": {},
  "deployedLinkReferences": {}
}