{
  "_format": "hh-sol-artifact-1",
  "contractName": "DiscretionaryExitBurn",
  "sourceName": "contracts/DiscretionaryExitBurn.sol",
  "abi": [
    {
      "inputs": [
        {
          "internalType": "address",
          "name": "_l2Bridge",
          "type": "address"
        }
      ],
      "stateMutability": "nonpayable",
      "type": "constructor"
    },
    {
      "inputs": [
        {
          "internalType": "address",
          "name": "_l2Token",
          "type": "address"
        },
        {
          "internalType": "uint256",
          "name": "_amount",
          "type": "uint256"
        },
        {
          "internalType": "uint32",
          "name": "_l1Gas",
          "type": "uint32"
        },
        {
          "internalType": "bytes",
          "name": "_data",
          "type": "bytes"
        }
      ],
      "name": "burnAndWithdraw",
      "outputs": [],
      "stateMutability": "payable",
      "type": "function"
    },
    {
      "inputs": [
        {
          "internalType": "uint256",
          "name": "_extraGas",
          "type": "uint256"
        }
      ],
      "name": "configureExtraGasRelay",
      "outputs": [],
      "stateMutability": "nonpayable",
      "type": "function"
    },
    {
      "inputs": [],
      "name": "extraGasRelay",
      "outputs": [
        {
          "internalType": "uint256",
          "name": "",
          "type": "uint256"
        }
      ],
      "stateMutability": "view",
      "type": "function"
    },
    {
      "inputs": [],
      "name": "l2Bridge",
      "outputs": [
        {
          "internalType": "address",
          "name": "",
          "type": "address"
        }
      ],
      "stateMutability": "view",
      "type": "function"
    }
  ],
  "bytecode": "0x608060405234801561001057600080fd5b50604051610bd6380380610bd683398101604081905261002f91610054565b600080546001600160a01b0319166001600160a01b0392909216919091179055610084565b60006020828403121561006657600080fd5b81516001600160a01b038116811461007d57600080fd5b9392505050565b610b43806100936000396000f3fe60806040526004361061003f5760003560e01c80636f0fbfb41461004457806370ac318014610059578063ae1f6aaf14610082578063b5e241f1146100d4575b600080fd5b610057610052366004610892565b6100f4565b005b34801561006557600080fd5b5061006f60015481565b6040519081526020015b60405180910390f35b34801561008e57600080fd5b506000546100af9073ffffffffffffffffffffffffffffffffffffffff1681565b60405173ffffffffffffffffffffffffffffffffffffffff9091168152602001610079565b3480156100e057600080fd5b506100576100ef36600461093a565b610373565b60005a9050600154811161018f576040517f08c379a000000000000000000000000000000000000000000000000000000000815260206004820152602860248201527f496e73756666696369656e742047617320466f7220612052656c61792054726160448201527f6e73616374696f6e00000000000000000000000000000000000000000000000060648201526084015b60405180910390fd5b60006101a6600154836104c490919063ffffffff16565b905060005b815a11156101c557806101bd81610982565b9150506101ab565b341515806101fd575073ffffffffffffffffffffffffffffffffffffffff881673420000000000000000000000000000000000000614155b610263576040517f08c379a000000000000000000000000000000000000000000000000000000000815260206004820152601060248201527f416d6f756e7420496e636f7272656374000000000000000000000000000000006044820152606401610186565b34156102845734965073420000000000000000000000000000000000000697505b73ffffffffffffffffffffffffffffffffffffffff8816734200000000000000000000000000000000000006146102d7576102d773ffffffffffffffffffffffffffffffffffffffff891633308a6104d7565b6000546040517fa3a7954800000000000000000000000000000000000000000000000000000000815273ffffffffffffffffffffffffffffffffffffffff9091169063a3a7954890610337908b9033908c908c908c908c906004016109bb565b600060405180830381600087803b15801561035157600080fd5b505af1158015610365573d6000803e3d6000fd5b505050505050505050505050565b73420000000000000000000000000000000000000f73ffffffffffffffffffffffffffffffffffffffff16638da5cb5b6040518163ffffffff1660e01b815260040160206040518083038186803b1580156103cd57600080fd5b505afa1580156103e1573d6000803e3d6000fd5b505050506040513d601f19601f820116820180604052508101906104059190610a47565b73ffffffffffffffffffffffffffffffffffffffff163373ffffffffffffffffffffffffffffffffffffffff16146104bf576040517f08c379a000000000000000000000000000000000000000000000000000000000815260206004820152602660248201527f63616c6c6572206973206e6f74207468652067617350726963654f7261636c6560448201527f206f776e657200000000000000000000000000000000000000000000000000006064820152608401610186565b600155565b60006104d08284610a64565b9392505050565b6040805173ffffffffffffffffffffffffffffffffffffffff85811660248301528416604482015260648082018490528251808303909101815260849091019091526020810180517bffffffffffffffffffffffffffffffffffffffffffffffffffffffff167f23b872dd0000000000000000000000000000000000000000000000000000000017905261056c908590610572565b50505050565b60006105d4826040518060400160405280602081526020017f5361666545524332303a206c6f772d6c6576656c2063616c6c206661696c65648152508573ffffffffffffffffffffffffffffffffffffffff166106839092919063ffffffff16565b80519091501561067e57808060200190518101906105f29190610a7b565b61067e576040517f08c379a000000000000000000000000000000000000000000000000000000000815260206004820152602a60248201527f5361666545524332303a204552433230206f7065726174696f6e20646964206e60448201527f6f742073756363656564000000000000000000000000000000000000000000006064820152608401610186565b505050565b6060610692848460008561069a565b949350505050565b60608247101561072c576040517f08c379a000000000000000000000000000000000000000000000000000000000815260206004820152602660248201527f416464726573733a20696e73756666696369656e742062616c616e636520666f60448201527f722063616c6c00000000000000000000000000000000000000000000000000006064820152608401610186565b843b610794576040517f08c379a000000000000000000000000000000000000000000000000000000000815260206004820152601d60248201527f416464726573733a2063616c6c20746f206e6f6e2d636f6e74726163740000006044820152606401610186565b6000808673ffffffffffffffffffffffffffffffffffffffff1685876040516107bd9190610ac9565b60006040518083038185875af1925050503d80600081146107fa576040519150601f19603f3d011682016040523d82523d6000602084013e6107ff565b606091505b509150915061080f82828661081a565b979650505050505050565b606083156108295750816104d0565b8251156108395782518084602001fd5b816040517f08c379a00000000000000000000000000000000000000000000000000000000081526004016101869190610ae5565b73ffffffffffffffffffffffffffffffffffffffff8116811461088f57600080fd5b50565b6000806000806000608086880312156108aa57600080fd5b85356108b58161086d565b945060208601359350604086013563ffffffff811681146108d557600080fd5b9250606086013567ffffffffffffffff808211156108f257600080fd5b818801915088601f83011261090657600080fd5b81358181111561091557600080fd5b89602082850101111561092757600080fd5b9699959850939650602001949392505050565b60006020828403121561094c57600080fd5b5035919050565b7f4e487b7100000000000000000000000000000000000000000000000000000000600052601160045260246000fd5b60007fffffffffffffffffffffffffffffffffffffffffffffffffffffffffffffffff8214156109b4576109b4610953565b5060010190565b600073ffffffffffffffffffffffffffffffffffffffff808916835280881660208401525085604083015263ffffffff8516606083015260a060808301528260a0830152828460c0840137600060c0848401015260c07fffffffffffffffffffffffffffffffffffffffffffffffffffffffffffffffe0601f8501168301019050979650505050505050565b600060208284031215610a5957600080fd5b81516104d08161086d565b600082821015610a7657610a76610953565b500390565b600060208284031215610a8d57600080fd5b815180151581146104d057600080fd5b60005b83811015610ab8578181015183820152602001610aa0565b8381111561056c5750506000910152565b60008251610adb818460208701610a9d565b9190910192915050565b6020815260008251806020840152610b04816040850160208701610a9d565b601f017fffffffffffffffffffffffffffffffffffffffffffffffffffffffffffffffe016919091016040019291505056fea164736f6c6343000809000a",
  "linkReferences": {},
  "deployedLinkReferences": {}
}