{
  "_format": "hh-sol-artifact-1",
  "contractName": "GovernorBravoDelegateStorageV1",
  "sourceName": "contracts/DAO/governance/GovernorBravoInterfaces.sol",
  "abi": [
    {
      "constant": true,
      "inputs": [],
      "name": "admin",
      "outputs": [
        {
          "internalType": "address",
          "name": "",
          "type": "address"
        }
      ],
      "payable": false,
      "stateMutability": "view",
      "type": "function"
    },
    {
      "constant": true,
      "inputs": [],
      "name": "boba",
      "outputs": [
        {
          "internalType": "contract BobaInterface",
          "name": "",
          "type": "address"
        }
      ],
      "payable": false,
      "stateMutability": "view",
      "type": "function"
    },
    {
      "constant": true,
      "inputs": [],
      "name": "implementation",
      "outputs": [
        {
          "internalType": "address",
          "name": "",
          "type": "address"
        }
      ],
      "payable": false,
      "stateMutability": "view",
      "type": "function"
    },
    {
      "constant": true,
      "inputs": [],
      "name": "initialProposalId",
      "outputs": [
        {
          "internalType": "uint256",
          "name": "",
          "type": "uint256"
        }
      ],
      "payable": false,
      "stateMutability": "view",
      "type": "function"
    },
    {
      "constant": true,
      "inputs": [
        {
          "internalType": "address",
          "name": "",
          "type": "address"
        }
      ],
      "name": "latestProposalIds",
      "outputs": [
        {
          "internalType": "uint256",
          "name": "",
          "type": "uint256"
        }
      ],
      "payable": false,
      "stateMutability": "view",
      "type": "function"
    },
    {
      "constant": true,
      "inputs": [],
      "name": "pendingAdmin",
      "outputs": [
        {
          "internalType": "address",
          "name": "",
          "type": "address"
        }
      ],
      "payable": false,
      "stateMutability": "view",
      "type": "function"
    },
    {
      "constant": true,
      "inputs": [],
      "name": "proposalCount",
      "outputs": [
        {
          "internalType": "uint256",
          "name": "",
          "type": "uint256"
        }
      ],
      "payable": false,
      "stateMutability": "view",
      "type": "function"
    },
    {
      "constant": true,
      "inputs": [],
      "name": "proposalThreshold",
      "outputs": [
        {
          "internalType": "uint256",
          "name": "",
          "type": "uint256"
        }
      ],
      "payable": false,
      "stateMutability": "view",
      "type": "function"
    },
    {
      "constant": true,
      "inputs": [
        {
          "internalType": "uint256",
          "name": "",
          "type": "uint256"
        }
      ],
      "name": "proposals",
      "outputs": [
        {
          "internalType": "uint256",
          "name": "id",
          "type": "uint256"
        },
        {
          "internalType": "address",
          "name": "proposer",
          "type": "address"
        },
        {
          "internalType": "uint256",
          "name": "eta",
          "type": "uint256"
        },
        {
          "internalType": "string",
          "name": "description",
          "type": "string"
        },
        {
          "internalType": "uint256",
          "name": "startBlock",
          "type": "uint256"
        },
        {
          "internalType": "uint256",
          "name": "startTimestamp",
          "type": "uint256"
        },
        {
          "internalType": "uint256",
          "name": "endTimestamp",
          "type": "uint256"
        },
        {
          "internalType": "uint256",
          "name": "forVotes",
          "type": "uint256"
        },
        {
          "internalType": "uint256",
          "name": "againstVotes",
          "type": "uint256"
        },
        {
          "internalType": "uint256",
          "name": "abstainVotes",
          "type": "uint256"
        },
        {
          "internalType": "bool",
          "name": "canceled",
          "type": "bool"
        },
        {
          "internalType": "bool",
          "name": "executed",
          "type": "bool"
        }
      ],
      "payable": false,
      "stateMutability": "view",
      "type": "function"
    },
    {
      "constant": true,
      "inputs": [],
      "name": "timelock",
      "outputs": [
        {
          "internalType": "contract TimelockInterface",
          "name": "",
          "type": "address"
        }
      ],
      "payable": false,
      "stateMutability": "view",
      "type": "function"
    },
    {
      "constant": true,
      "inputs": [],
      "name": "votingDelay",
      "outputs": [
        {
          "internalType": "uint256",
          "name": "",
          "type": "uint256"
        }
      ],
      "payable": false,
      "stateMutability": "view",
      "type": "function"
    },
    {
      "constant": true,
      "inputs": [],
      "name": "votingPeriod",
      "outputs": [
        {
          "internalType": "uint256",
          "name": "",
          "type": "uint256"
        }
      ],
      "payable": false,
      "stateMutability": "view",
      "type": "function"
    }
  ],
  "bytecode": "0x608060405234801561001057600080fd5b50610619806100206000396000f3fe608060405234801561001057600080fd5b50600436106100d45760003560e01c8063b58131b011610081578063da35c6641161005b578063da35c6641461017f578063f851a44014610187578063fc4eee421461018f576100d4565b8063b58131b01461015a578063c501f81614610162578063d33219b414610177576100d4565b806326782247116100b257806326782247146101355780633932abb11461014a5780635c60da1b14610152576100d4565b8063013cf08b146100d957806302a251a31461010d57806317977c6114610122575b600080fd5b6100ec6100e73660046103b6565b610197565b6040516101049c9b9a99989796959493929190610460565b60405180910390f35b6101156102b8565b6040516101049190610452565b610115610130366004610390565b6102be565b61013d6102d0565b6040516101049190610436565b6101156102ec565b61013d6102f2565b61011561030e565b61016a610314565b6040516101049190610444565b61016a610330565b61011561034c565b61013d610352565b61011561036e565b600a602090815260009182526040918290208054600180830154600280850154600786018054895161010096821615969096027fffffffffffffffffffffffffffffffffffffffffffffffffffffffffffffffff011692909204601f8101889004880285018801909852878452939673ffffffffffffffffffffffffffffffffffffffff909216959394939091908301828280156102765780601f1061024b57610100808354040283529160200191610276565b820191906000526020600020905b81548152906001019060200180831161025957829003601f168201915b5050505060088301546009840154600a850154600b860154600c870154600d880154600e90980154969794969395509193909260ff808216916101009004168c565b60045481565b600b6020526000908152604090205481565b60015473ffffffffffffffffffffffffffffffffffffffff1681565b60035481565b60025473ffffffffffffffffffffffffffffffffffffffff1681565b60055481565b60095473ffffffffffffffffffffffffffffffffffffffff1681565b60085473ffffffffffffffffffffffffffffffffffffffff1681565b60075481565b60005473ffffffffffffffffffffffffffffffffffffffff1681565b60065481565b803561037f816105b6565b92915050565b803561037f816105cd565b6000602082840312156103a257600080fd5b60006103ae8484610374565b949350505050565b6000602082840312156103c857600080fd5b60006103ae8484610385565b6103dd81610527565b82525050565b6103dd81610532565b6103dd81610553565b60006104008261051a565b61040a818561051e565b935061041a81856020860161055e565b6104238161058e565b9093019392505050565b6103dd81610550565b6020810161037f82846103d4565b6020810161037f82846103ec565b6020810161037f828461042d565b610180810161046f828f61042d565b61047c602083018e6103d4565b610489604083018d61042d565b818103606083015261049b818c6103f5565b90506104aa608083018b61042d565b6104b760a083018a61042d565b6104c460c083018961042d565b6104d160e083018861042d565b6104df61010083018761042d565b6104ed61012083018661042d565b6104fb6101408301856103e3565b6105096101608301846103e3565b9d9c50505050505050505050505050565b5190565b90815260200190565b600061037f82610537565b151590565b73ffffffffffffffffffffffffffffffffffffffff1690565b90565b600061037f82610527565b60005b83811015610579578181015183820152602001610561565b83811115610588576000848401525b50505050565b601f017fffffffffffffffffffffffffffffffffffffffffffffffffffffffffffffffe01690565b6105bf81610527565b81146105ca57600080fd5b50565b6105bf8161055056fea365627a7a72315820c31edeb354e4c53b6681195de1502017cf6d59afec082262622350438a3d7e336c6578706572696d656e74616cf564736f6c63430005110040",
  "linkReferences": {},
  "deployedLinkReferences": {}
}