{
  "_format": "hh-sol-artifact-1",
  "contractName": "GovernorBravoDelegate",
  "sourceName": "contracts/DAO/governance/GovernorBravoDelegate.sol",
  "abi": [
    {
      "anonymous": false,
      "inputs": [
        {
          "indexed": false,
          "internalType": "address",
          "name": "oldAdmin",
          "type": "address"
        },
        {
          "indexed": false,
          "internalType": "address",
          "name": "newAdmin",
          "type": "address"
        }
      ],
      "name": "NewAdmin",
      "type": "event"
    },
    {
      "anonymous": false,
      "inputs": [
        {
          "indexed": false,
          "internalType": "address",
          "name": "oldImplementation",
          "type": "address"
        },
        {
          "indexed": false,
          "internalType": "address",
          "name": "newImplementation",
          "type": "address"
        }
      ],
      "name": "NewImplementation",
      "type": "event"
    },
    {
      "anonymous": false,
      "inputs": [
        {
          "indexed": false,
          "internalType": "address",
          "name": "oldPendingAdmin",
          "type": "address"
        },
        {
          "indexed": false,
          "internalType": "address",
          "name": "newPendingAdmin",
          "type": "address"
        }
      ],
      "name": "NewPendingAdmin",
      "type": "event"
    },
    {
      "anonymous": false,
      "inputs": [
        {
          "indexed": false,
          "internalType": "uint256",
          "name": "id",
          "type": "uint256"
        }
      ],
      "name": "ProposalCanceled",
      "type": "event"
    },
    {
      "anonymous": false,
      "inputs": [
        {
          "indexed": false,
          "internalType": "uint256",
          "name": "id",
          "type": "uint256"
        },
        {
          "indexed": false,
          "internalType": "address",
          "name": "proposer",
          "type": "address"
        },
        {
          "indexed": false,
          "internalType": "address[]",
          "name": "targets",
          "type": "address[]"
        },
        {
          "indexed": false,
          "internalType": "uint256[]",
          "name": "values",
          "type": "uint256[]"
        },
        {
          "indexed": false,
          "internalType": "string[]",
          "name": "signatures",
          "type": "string[]"
        },
        {
          "indexed": false,
          "internalType": "bytes[]",
          "name": "calldatas",
          "type": "bytes[]"
        },
        {
          "indexed": false,
          "internalType": "uint256",
          "name": "startTimestamp",
          "type": "uint256"
        },
        {
          "indexed": false,
          "internalType": "uint256",
          "name": "endTimestamp",
          "type": "uint256"
        },
        {
          "indexed": false,
          "internalType": "string",
          "name": "description",
          "type": "string"
        }
      ],
      "name": "ProposalCreated",
      "type": "event"
    },
    {
      "anonymous": false,
      "inputs": [
        {
          "indexed": false,
          "internalType": "uint256",
          "name": "id",
          "type": "uint256"
        }
      ],
      "name": "ProposalExecuted",
      "type": "event"
    },
    {
      "anonymous": false,
      "inputs": [
        {
          "indexed": false,
          "internalType": "uint256",
          "name": "id",
          "type": "uint256"
        },
        {
          "indexed": false,
          "internalType": "uint256",
          "name": "eta",
          "type": "uint256"
        }
      ],
      "name": "ProposalQueued",
      "type": "event"
    },
    {
      "anonymous": false,
      "inputs": [
        {
          "indexed": false,
          "internalType": "uint256",
          "name": "oldProposalThreshold",
          "type": "uint256"
        },
        {
          "indexed": false,
          "internalType": "uint256",
          "name": "newProposalThreshold",
          "type": "uint256"
        }
      ],
      "name": "ProposalThresholdSet",
      "type": "event"
    },
    {
      "anonymous": false,
      "inputs": [
        {
          "indexed": true,
          "internalType": "address",
          "name": "voter",
          "type": "address"
        },
        {
          "indexed": false,
          "internalType": "uint256",
          "name": "proposalId",
          "type": "uint256"
        },
        {
          "indexed": false,
          "internalType": "uint8",
          "name": "support",
          "type": "uint8"
        },
        {
          "indexed": false,
          "internalType": "uint256",
          "name": "votes",
          "type": "uint256"
        },
        {
          "indexed": false,
          "internalType": "string",
          "name": "reason",
          "type": "string"
        }
      ],
      "name": "VoteCast",
      "type": "event"
    },
    {
      "anonymous": false,
      "inputs": [
        {
          "indexed": false,
          "internalType": "uint256",
          "name": "oldVotingDelay",
          "type": "uint256"
        },
        {
          "indexed": false,
          "internalType": "uint256",
          "name": "newVotingDelay",
          "type": "uint256"
        }
      ],
      "name": "VotingDelaySet",
      "type": "event"
    },
    {
      "anonymous": false,
      "inputs": [
        {
          "indexed": false,
          "internalType": "uint256",
          "name": "oldVotingPeriod",
          "type": "uint256"
        },
        {
          "indexed": false,
          "internalType": "uint256",
          "name": "newVotingPeriod",
          "type": "uint256"
        }
      ],
      "name": "VotingPeriodSet",
      "type": "event"
    },
    {
      "constant": true,
      "inputs": [],
      "name": "BALLOT_TYPEHASH",
      "outputs": [
        {
          "internalType": "bytes32",
          "name": "",
          "type": "bytes32"
        }
      ],
      "payable": false,
      "stateMutability": "view",
      "type": "function"
    },
    {
      "constant": true,
      "inputs": [],
      "name": "DOMAIN_TYPEHASH",
      "outputs": [
        {
          "internalType": "bytes32",
          "name": "",
          "type": "bytes32"
        }
      ],
      "payable": false,
      "stateMutability": "view",
      "type": "function"
    },
    {
      "constant": true,
      "inputs": [],
      "name": "MAX_PROPOSAL_THRESHOLD",
      "outputs": [
        {
          "internalType": "uint256",
          "name": "",
          "type": "uint256"
        }
      ],
      "payable": false,
      "stateMutability": "view",
      "type": "function"
    },
    {
      "constant": true,
      "inputs": [],
      "name": "MAX_VOTING_DELAY",
      "outputs": [
        {
          "internalType": "uint256",
          "name": "",
          "type": "uint256"
        }
      ],
      "payable": false,
      "stateMutability": "view",
      "type": "function"
    },
    {
      "constant": true,
      "inputs": [],
      "name": "MAX_VOTING_PERIOD",
      "outputs": [
        {
          "internalType": "uint256",
          "name": "",
          "type": "uint256"
        }
      ],
      "payable": false,
      "stateMutability": "view",
      "type": "function"
    },
    {
      "constant": true,
      "inputs": [],
      "name": "MIN_PROPOSAL_THRESHOLD",
      "outputs": [
        {
          "internalType": "uint256",
          "name": "",
          "type": "uint256"
        }
      ],
      "payable": false,
      "stateMutability": "view",
      "type": "function"
    },
    {
      "constant": true,
      "inputs": [],
      "name": "MIN_VOTING_DELAY",
      "outputs": [
        {
          "internalType": "uint256",
          "name": "",
          "type": "uint256"
        }
      ],
      "payable": false,
      "stateMutability": "view",
      "type": "function"
    },
    {
      "constant": true,
      "inputs": [],
      "name": "MIN_VOTING_PERIOD",
      "outputs": [
        {
          "internalType": "uint256",
          "name": "",
          "type": "uint256"
        }
      ],
      "payable": false,
      "stateMutability": "view",
      "type": "function"
    },
    {
      "constant": false,
      "inputs": [],
      "name": "_acceptAdmin",
      "outputs": [],
      "payable": false,
      "stateMutability": "nonpayable",
      "type": "function"
    },
    {
      "constant": false,
      "inputs": [],
      "name": "_initiate",
      "outputs": [],
      "payable": false,
      "stateMutability": "nonpayable",
      "type": "function"
    },
    {
      "constant": false,
      "inputs": [
        {
          "internalType": "address",
          "name": "newPendingAdmin",
          "type": "address"
        }
      ],
      "name": "_setPendingAdmin",
      "outputs": [],
      "payable": false,
      "stateMutability": "nonpayable",
      "type": "function"
    },
    {
      "constant": false,
      "inputs": [
        {
          "internalType": "uint256",
          "name": "newProposalThreshold",
          "type": "uint256"
        }
      ],
      "name": "_setProposalThreshold",
      "outputs": [],
      "payable": false,
      "stateMutability": "nonpayable",
      "type": "function"
    },
    {
      "constant": false,
      "inputs": [
        {
          "internalType": "uint256",
          "name": "newVotingDelay",
          "type": "uint256"
        }
      ],
      "name": "_setVotingDelay",
      "outputs": [],
      "payable": false,
      "stateMutability": "nonpayable",
      "type": "function"
    },
    {
      "constant": false,
      "inputs": [
        {
          "internalType": "uint256",
          "name": "newVotingPeriod",
          "type": "uint256"
        }
      ],
      "name": "_setVotingPeriod",
      "outputs": [],
      "payable": false,
      "stateMutability": "nonpayable",
      "type": "function"
    },
    {
      "constant": true,
      "inputs": [],
      "name": "admin",
      "outputs": [
        {
          "internalType": "address",
          "name": "",
          "type": "address"
        }
      ],
      "payable": false,
      "stateMutability": "view",
      "type": "function"
    },
    {
      "constant": true,
      "inputs": [],
      "name": "boba",
      "outputs": [
        {
          "internalType": "contract BobaInterface",
          "name": "",
          "type": "address"
        }
      ],
      "payable": false,
      "stateMutability": "view",
      "type": "function"
    },
    {
      "constant": false,
      "inputs": [
        {
          "internalType": "uint256",
          "name": "proposalId",
          "type": "uint256"
        }
      ],
      "name": "cancel",
      "outputs": [],
      "payable": false,
      "stateMutability": "nonpayable",
      "type": "function"
    },
    {
      "constant": false,
      "inputs": [
        {
          "internalType": "uint256",
          "name": "proposalId",
          "type": "uint256"
        },
        {
          "internalType": "uint8",
          "name": "support",
          "type": "uint8"
        }
      ],
      "name": "castVote",
      "outputs": [],
      "payable": false,
      "stateMutability": "nonpayable",
      "type": "function"
    },
    {
      "constant": false,
      "inputs": [
        {
          "internalType": "uint256",
          "name": "proposalId",
          "type": "uint256"
        },
        {
          "internalType": "uint8",
          "name": "support",
          "type": "uint8"
        },
        {
          "internalType": "uint8",
          "name": "v",
          "type": "uint8"
        },
        {
          "internalType": "bytes32",
          "name": "r",
          "type": "bytes32"
        },
        {
          "internalType": "bytes32",
          "name": "s",
          "type": "bytes32"
        }
      ],
      "name": "castVoteBySig",
      "outputs": [],
      "payable": false,
      "stateMutability": "nonpayable",
      "type": "function"
    },
    {
      "constant": false,
      "inputs": [
        {
          "internalType": "uint256",
          "name": "proposalId",
          "type": "uint256"
        },
        {
          "internalType": "uint8",
          "name": "support",
          "type": "uint8"
        },
        {
          "internalType": "string",
          "name": "reason",
          "type": "string"
        }
      ],
      "name": "castVoteWithReason",
      "outputs": [],
      "payable": false,
      "stateMutability": "nonpayable",
      "type": "function"
    },
    {
      "constant": false,
      "inputs": [
        {
          "internalType": "uint256",
          "name": "proposalId",
          "type": "uint256"
        }
      ],
      "name": "execute",
      "outputs": [],
      "payable": true,
      "stateMutability": "payable",
      "type": "function"
    },
    {
      "constant": true,
      "inputs": [
        {
          "internalType": "uint256",
          "name": "proposalId",
          "type": "uint256"
        }
      ],
      "name": "getActions",
      "outputs": [
        {
          "internalType": "address[]",
          "name": "targets",
          "type": "address[]"
        },
        {
          "internalType": "uint256[]",
          "name": "values",
          "type": "uint256[]"
        },
        {
          "internalType": "string[]",
          "name": "signatures",
          "type": "string[]"
        },
        {
          "internalType": "bytes[]",
          "name": "calldatas",
          "type": "bytes[]"
        }
      ],
      "payable": false,
      "stateMutability": "view",
      "type": "function"
    },
    {
      "constant": true,
      "inputs": [
        {
          "internalType": "uint256",
          "name": "proposalId",
          "type": "uint256"
        },
        {
          "internalType": "address",
          "name": "voter",
          "type": "address"
        }
      ],
      "name": "getReceipt",
      "outputs": [
        {
          "components": [
            {
              "internalType": "bool",
              "name": "hasVoted",
              "type": "bool"
            },
            {
              "internalType": "uint8",
              "name": "support",
              "type": "uint8"
            },
            {
              "internalType": "uint96",
              "name": "votes",
              "type": "uint96"
            }
          ],
          "internalType": "struct GovernorBravoDelegateStorageV1.Receipt",
          "name": "",
          "type": "tuple"
        }
      ],
      "payable": false,
      "stateMutability": "view",
      "type": "function"
    },
    {
      "constant": true,
      "inputs": [],
      "name": "implementation",
      "outputs": [
        {
          "internalType": "address",
          "name": "",
          "type": "address"
        }
      ],
      "payable": false,
      "stateMutability": "view",
      "type": "function"
    },
    {
      "constant": true,
      "inputs": [],
      "name": "initialProposalId",
      "outputs": [
        {
          "internalType": "uint256",
          "name": "",
          "type": "uint256"
        }
      ],
      "payable": false,
      "stateMutability": "view",
      "type": "function"
    },
    {
      "constant": false,
      "inputs": [
        {
          "internalType": "address",
          "name": "timelock_",
          "type": "address"
        },
        {
          "internalType": "address",
          "name": "bobaToken_",
          "type": "address"
        },
        {
          "internalType": "uint256",
          "name": "votingPeriod_",
          "type": "uint256"
        },
        {
          "internalType": "uint256",
          "name": "votingDelay_",
          "type": "uint256"
        },
        {
          "internalType": "uint256",
          "name": "proposalThreshold_",
          "type": "uint256"
        }
      ],
      "name": "initialize",
      "outputs": [],
      "payable": false,
      "stateMutability": "nonpayable",
      "type": "function"
    },
    {
      "constant": true,
      "inputs": [
        {
          "internalType": "address",
          "name": "",
          "type": "address"
        }
      ],
      "name": "latestProposalIds",
      "outputs": [
        {
          "internalType": "uint256",
          "name": "",
          "type": "uint256"
        }
      ],
      "payable": false,
      "stateMutability": "view",
      "type": "function"
    },
    {
      "constant": true,
      "inputs": [],
      "name": "name",
      "outputs": [
        {
          "internalType": "string",
          "name": "",
          "type": "string"
        }
      ],
      "payable": false,
      "stateMutability": "view",
      "type": "function"
    },
    {
      "constant": true,
      "inputs": [],
      "name": "pendingAdmin",
      "outputs": [
        {
          "internalType": "address",
          "name": "",
          "type": "address"
        }
      ],
      "payable": false,
      "stateMutability": "view",
      "type": "function"
    },
    {
      "constant": true,
      "inputs": [],
      "name": "proposalCount",
      "outputs": [
        {
          "internalType": "uint256",
          "name": "",
          "type": "uint256"
        }
      ],
      "payable": false,
      "stateMutability": "view",
      "type": "function"
    },
    {
      "constant": true,
      "inputs": [],
      "name": "proposalMaxOperations",
      "outputs": [
        {
          "internalType": "uint256",
          "name": "",
          "type": "uint256"
        }
      ],
      "payable": false,
      "stateMutability": "view",
      "type": "function"
    },
    {
      "constant": true,
      "inputs": [],
      "name": "proposalThreshold",
      "outputs": [
        {
          "internalType": "uint256",
          "name": "",
          "type": "uint256"
        }
      ],
      "payable": false,
      "stateMutability": "view",
      "type": "function"
    },
    {
      "constant": true,
      "inputs": [
        {
          "internalType": "uint256",
          "name": "",
          "type": "uint256"
        }
      ],
      "name": "proposals",
      "outputs": [
        {
          "internalType": "uint256",
          "name": "id",
          "type": "uint256"
        },
        {
          "internalType": "address",
          "name": "proposer",
          "type": "address"
        },
        {
          "internalType": "uint256",
          "name": "eta",
          "type": "uint256"
        },
        {
          "internalType": "string",
          "name": "description",
          "type": "string"
        },
        {
          "internalType": "uint256",
          "name": "startBlock",
          "type": "uint256"
        },
        {
          "internalType": "uint256",
          "name": "startTimestamp",
          "type": "uint256"
        },
        {
          "internalType": "uint256",
          "name": "endTimestamp",
          "type": "uint256"
        },
        {
          "internalType": "uint256",
          "name": "forVotes",
          "type": "uint256"
        },
        {
          "internalType": "uint256",
          "name": "againstVotes",
          "type": "uint256"
        },
        {
          "internalType": "uint256",
          "name": "abstainVotes",
          "type": "uint256"
        },
        {
          "internalType": "bool",
          "name": "canceled",
          "type": "bool"
        },
        {
          "internalType": "bool",
          "name": "executed",
          "type": "bool"
        }
      ],
      "payable": false,
      "stateMutability": "view",
      "type": "function"
    },
    {
      "constant": false,
      "inputs": [
        {
          "internalType": "address[]",
          "name": "targets",
          "type": "address[]"
        },
        {
          "internalType": "uint256[]",
          "name": "values",
          "type": "uint256[]"
        },
        {
          "internalType": "string[]",
          "name": "signatures",
          "type": "string[]"
        },
        {
          "internalType": "bytes[]",
          "name": "calldatas",
          "type": "bytes[]"
        },
        {
          "internalType": "string",
          "name": "description",
          "type": "string"
        }
      ],
      "name": "propose",
      "outputs": [
        {
          "internalType": "uint256",
          "name": "",
          "type": "uint256"
        }
      ],
      "payable": false,
      "stateMutability": "nonpayable",
      "type": "function"
    },
    {
      "constant": false,
      "inputs": [
        {
          "internalType": "uint256",
          "name": "proposalId",
          "type": "uint256"
        }
      ],
      "name": "queue",
      "outputs": [],
      "payable": false,
      "stateMutability": "nonpayable",
      "type": "function"
    },
    {
      "constant": true,
      "inputs": [],
      "name": "quorumVotes",
      "outputs": [
        {
          "internalType": "uint256",
          "name": "",
          "type": "uint256"
        }
      ],
      "payable": false,
      "stateMutability": "view",
      "type": "function"
    },
    {
      "constant": true,
      "inputs": [
        {
          "internalType": "uint256",
          "name": "proposalId",
          "type": "uint256"
        }
      ],
      "name": "state",
      "outputs": [
        {
          "internalType": "enum GovernorBravoDelegateStorageV1.ProposalState",
          "name": "",
          "type": "uint8"
        }
      ],
      "payable": false,
      "stateMutability": "view",
      "type": "function"
    },
    {
      "constant": true,
      "inputs": [],
      "name": "timelock",
      "outputs": [
        {
          "internalType": "contract TimelockInterface",
          "name": "",
          "type": "address"
        }
      ],
      "payable": false,
      "stateMutability": "view",
      "type": "function"
    },
    {
      "constant": true,
      "inputs": [],
      "name": "votingDelay",
      "outputs": [
        {
          "internalType": "uint256",
          "name": "",
          "type": "uint256"
        }
      ],
      "payable": false,
      "stateMutability": "view",
      "type": "function"
    },
    {
      "constant": true,
      "inputs": [],
      "name": "votingPeriod",
      "outputs": [
        {
          "internalType": "uint256",
          "name": "",
          "type": "uint256"
        }
      ],
      "payable": false,
      "stateMutability": "view",
      "type": "function"
    }
  ],
  "bytecode": "0x608060405234801561001057600080fd5b50614af7806100206000396000f3fe6080604052600436106102bb5760003560e01c80637b3c71d31161016e578063da35c664116100cb578063e48083fe1161007f578063f851a44011610064578063f851a440146106e5578063fc4eee42146106fa578063fe0d94c11461070f576102bb565b8063e48083fe146103dc578063e9c714f2146106d0576102bb565b8063ddf0b009116100b0578063ddf0b0091461066e578063deaaa7cc1461068e578063e23a9a52146106a3576102bb565b8063da35c66414610639578063da95691a1461064e576102bb565b8063b58131b011610122578063c501f81611610107578063c501f816146105e2578063d13f90b414610604578063d33219b414610624576102bb565b8063b58131b0146105ad578063b71d1a0c146105c2576102bb565b8063878f148211610153578063878f14821461056e578063a64e024a14610583578063b112626314610598576102bb565b80637b3c71d3146105395780637bdbe4d014610559576102bb565b806325fd935a1161021c5780633e4f49e6116101d057806356781388116101b557806356781388146104ef5780635c60da1b1461050f578063791f5d2314610524576102bb565b80633e4f49e6146104a257806340e58ee5146104cf576102bb565b8063328dd98211610201578063328dd9821461043d5780633932abb11461046d5780633bccf4fd14610482576102bb565b806325fd935a14610406578063267822471461041b576102bb565b806317ba1b8b1161027357806320606b701161025857806320606b70146103c7578063215809ca146103dc57806324bc1a64146103f1576102bb565b806317ba1b8b146103875780631dfb1b5a146103a7576102bb565b806306fdde03116102a457806306fdde03146103235780630ea2d98c1461034557806317977c6114610367576102bb565b8063013cf08b146102c057806302a251a314610301575b600080fd5b3480156102cc57600080fd5b506102e06102db366004612ec0565b610722565b6040516102f89c9b9a999897969594939291906147b9565b60405180910390f35b34801561030d57600080fd5b50610316610836565b6040516102f891906143f6565b34801561032f57600080fd5b5061033861083c565b6040516102f891906144b2565b34801561035157600080fd5b50610365610360366004612ec0565b610875565b005b34801561037357600080fd5b50610316610382366004612cd5565b61091e565b34801561039357600080fd5b506103656103a2366004612ec0565b610930565b3480156103b357600080fd5b506103656103c2366004612ec0565b6109d4565b3480156103d357600080fd5b50610316610a68565b3480156103e857600080fd5b50610316610a7f565b3480156103fd57600080fd5b50610316610a84565b34801561041257600080fd5b50610316610a92565b34801561042757600080fd5b50610430610aa0565b6040516102f891906142bc565b34801561044957600080fd5b5061045d610458366004612ec0565b610aaf565b6040516102f894939291906143a9565b34801561047957600080fd5b50610316610d7a565b34801561048e57600080fd5b5061036561049d366004612fb0565b610d80565b3480156104ae57600080fd5b506104c26104bd366004612ec0565b610f7f565b6040516102f891906144a4565b3480156104db57600080fd5b506103656104ea366004612ec0565b61111f565b3480156104fb57600080fd5b5061036561050a366004612f18565b611396565b34801561051b57600080fd5b506104306113e0565b34801561053057600080fd5b506103166113ef565b34801561054557600080fd5b50610365610554366004612f48565b6113fd565b34801561056557600080fd5b5061031661144d565b34801561057a57600080fd5b50610365611452565b34801561058f57600080fd5b5061031661151b565b3480156105a457600080fd5b50610316611522565b3480156105b957600080fd5b50610316611529565b3480156105ce57600080fd5b506103656105dd366004612cd5565b61152f565b3480156105ee57600080fd5b506105f76115c4565b6040516102f89190614496565b34801561061057600080fd5b5061036561061f366004612cfb565b6115d3565b34801561063057600080fd5b506105f7611768565b34801561064557600080fd5b50610316611777565b34801561065a57600080fd5b50610316610669366004612d70565b61177d565b34801561067a57600080fd5b50610365610689366004612ec0565b611bff565b34801561069a57600080fd5b50610316611ed0565b3480156106af57600080fd5b506106c36106be366004612ede565b611edc565b6040516102f89190614703565b3480156106dc57600080fd5b50610365611f4e565b3480156106f157600080fd5b50610430612044565b34801561070657600080fd5b50610316612053565b61036561071d366004612ec0565b612059565b600a602090815260009182526040918290208054600180830154600280850154600786018054895161010096821615969096027fffffffffffffffffffffffffffffffffffffffffffffffffffffffffffffffff011692909204601f810188900488028501880190985287845293966001600160a01b03909216959394939091908301828280156107f45780601f106107c9576101008083540402835291602001916107f4565b820191906000526020600020905b8154815290600101906020018083116107d757829003601f168201915b5050505060088301546009840154600a850154600b860154600c870154600d880154600e90980154969794969395509193909260ff808216916101009004168c565b60045481565b6040518060400160405280600d81526020017f426f626120476f7665726e6f720000000000000000000000000000000000000081525081565b6000546001600160a01b031633146108a85760405162461bcd60e51b815260040161089f90614503565b60405180910390fd5b600181101580156108bc5750621275008111155b6108d85760405162461bcd60e51b815260040161089f90614543565b60048054908290556040517f7e3f7f0708a84de9203036abaa450dccc85ad5ff52f78c170f3edb55cf5e8828906109129083908590614873565b60405180910390a15050565b600b6020526000908152604090205481565b6000546001600160a01b0316331461095a5760405162461bcd60e51b815260040161089f906146c3565b690a968163f0a57b400000811015801561097e57506969e10de76676d08000008111155b61099a5760405162461bcd60e51b815260040161089f906145e3565b60058054908290556040517fccb45da8d5717e6c4544694297c4ba5cf151d455c9bb0ed4fc7a38411bc05461906109129083908590614873565b6000546001600160a01b031633146109fe5760405162461bcd60e51b815260040161089f90614523565b60018110158015610a12575062093a808111155b610a2e5760405162461bcd60e51b815260040161089f90614573565b60038054908290556040517fc565b045403dc03c2eea82b81a0465edad9e2e7fc4d97e11421c209da93d7a93906109129083908590614873565b604051610a74906142b1565b604051809103902081565b600181565b69d3c21bcecceda100000081565b6969e10de76676d080000081565b6001546001600160a01b031681565b6060806060806000600a600087815260200190815260200160002090508060030181600401826005018360060183805480602002602001604051908101604052809291908181526020018280548015610b3157602002820191906000526020600020905b81546001600160a01b03168152600190910190602001808311610b13575b5050505050935082805480602002602001604051908101604052809291908181526020018280548015610b8357602002820191906000526020600020905b815481526020019060010190808311610b6f575b5050505050925081805480602002602001604051908101604052809291908181526020016000905b82821015610c745760008481526020908190208301805460408051601f60027fffffffffffffffffffffffffffffffffffffffffffffffffffffffffffffffff610100600187161502019094169390930492830185900485028101850190915281815292830182828015610c605780601f10610c3557610100808354040283529160200191610c60565b820191906000526020600020905b815481529060010190602001808311610c4357829003601f168201915b505050505081526020019060010190610bab565b50505050915080805480602002602001604051908101604052809291908181526020016000905b82821015610d645760008481526020908190208301805460408051601f60027fffffffffffffffffffffffffffffffffffffffffffffffffffffffffffffffff610100600187161502019094169390930492830185900485028101850190915281815292830182828015610d505780601f10610d2557610100808354040283529160200191610d50565b820191906000526020600020905b815481529060010190602001808311610d3357829003601f168201915b505050505081526020019060010190610c9b565b5050505090509450945094509450509193509193565b60035481565b6000604051610d8e906142b1565b60408051918290038220828201909152600d82527f426f626120476f7665726e6f72000000000000000000000000000000000000006020909201919091527f1ad158c379cc8fb970052e59be23591551a366de2599ef65b8df53f3f63b1b6e610df561224d565b30604051602001610e099493929190614404565b6040516020818303038152906040528051906020012090506000604051610e2f90614275565b604051908190038120610e489189908990602001614439565b60405160208183030381529060405280519060200120905060008282604051602001610e75929190614280565b604051602081830303815290604052805190602001209050600060018288888860405160008152602001604052604051610eb29493929190614461565b6020604051602081039080840390855afa158015610ed4573d6000803e3d6000fd5b50506040517fffffffffffffffffffffffffffffffffffffffffffffffffffffffffffffffe001519150506001600160a01b038116610f255760405162461bcd60e51b815260040161089f906145a3565b806001600160a01b03167fb8e138887d0aa13bab447e82de9d5c1777041ecd21ca36ba824ff1e6c07ddda48a8a610f5d858e8e612252565b604051610f6c939291906148c7565b60405180910390a2505050505050505050565b60008160075410158015610f9557506006548210155b610fb15760405162461bcd60e51b815260040161089f906146d3565b6000828152600a60205260409020600e81015460ff1615610fd657600291505061111a565b80600901544211610feb57600091505061111a565b80600a0154421161100057600191505061111a565b80600c015481600b0154111580611024575069d3c21bcecceda100000081600b0154105b1561103357600391505061111a565b600281015461104657600491505061111a565b600e810154610100900460ff161561106257600791505061111a565b6002810154600854604080517fc1a287e2000000000000000000000000000000000000000000000000000000008152905161110493926001600160a01b03169163c1a287e2916004808301926020929190829003018186803b1580156110c757600080fd5b505afa1580156110db573d6000803e3d6000fd5b505050506040513d601f19601f820116820180604052506110ff9190810190612e6d565b6124d7565b421061111457600691505061111a565b60059150505b919050565b600761112a82610f7f565b600781111561113557fe5b14156111535760405162461bcd60e51b815260040161089f906146b3565b6000818152600a6020526040902060018101546001600160a01b031633148061122057506005546009546001838101546001600160a01b039283169263782d6fe1929116906111a39043906124fc565b6040518363ffffffff1660e01b81526004016111c0929190614300565b60206040518083038186803b1580156111d857600080fd5b505afa1580156111ec573d6000803e3d6000fd5b505050506040513d601f19601f820116820180604052506112109190810190612ff6565b6bffffffffffffffffffffffff16105b61123c5760405162461bcd60e51b815260040161089f90614643565b600e810180547fffffffffffffffffffffffffffffffffffffffffffffffffffffffffffffff0016600117905560005b6003820154811015611366576008546003830180546001600160a01b039092169163591fcdfe91908490811061129e57fe5b6000918252602090912001546004850180546001600160a01b0390921691859081106112c657fe5b90600052602060002001548560050185815481106112e057fe5b906000526020600020018660060186815481106112f957fe5b9060005260206000200187600201546040518663ffffffff1660e01b8152600401611328959493929190614368565b600060405180830381600087803b15801561134257600080fd5b505af1158015611356573d6000803e3d6000fd5b50506001909201915061126c9050565b507f789cf55be980739dad1d0699b93b58e806b51c9d96619bfa8fe0a28abaa7b30c8260405161091291906143f6565b337fb8e138887d0aa13bab447e82de9d5c1777041ecd21ca36ba824ff1e6c07ddda483836113c5848383612252565b6040516113d4939291906148c7565b60405180910390a25050565b6002546001600160a01b031681565b690a968163f0a57b40000081565b337fb8e138887d0aa13bab447e82de9d5c1777041ecd21ca36ba824ff1e6c07ddda4858561142c848383612252565b868660405161143f959493929190614881565b60405180910390a250505050565b600a81565b6000546001600160a01b0316331461147c5760405162461bcd60e51b815260040161089f90614693565b6006541561149c5760405162461bcd60e51b815260040161089f90614613565b600060078190556001600655600854604080517f0e18b68100000000000000000000000000000000000000000000000000000000815290516001600160a01b0390921692630e18b6819260048084019382900301818387803b15801561150157600080fd5b505af1158015611515573d6000803e3d6000fd5b50505050565b6212750081565b62093a8081565b60055481565b6000546001600160a01b031633146115595760405162461bcd60e51b815260040161089f906144e3565b600180546001600160a01b038381167fffffffffffffffffffffffff00000000000000000000000000000000000000008316179092556040519116907fca4f2f25d0898edd99413412fb94012f9e54ec8142f9b093e7720646a95b16a99061091290839085906142e5565b6009546001600160a01b031681565b6008546001600160a01b0316156115fc5760405162461bcd60e51b815260040161089f906144d3565b6000546001600160a01b031633146116265760405162461bcd60e51b815260040161089f906145d3565b6001600160a01b03851661164c5760405162461bcd60e51b815260040161089f90614513565b6001600160a01b0384166116725760405162461bcd60e51b815260040161089f90614673565b600183101580156116865750621275008311155b6116a25760405162461bcd60e51b815260040161089f906146e3565b600182101580156116b6575062093a808211155b6116d25760405162461bcd60e51b815260040161089f906145b3565b690a968163f0a57b40000081101580156116f657506969e10de76676d08000008111155b6117125760405162461bcd60e51b815260040161089f90614583565b600880546001600160a01b039687167fffffffffffffffffffffffff0000000000000000000000000000000000000000918216179091556009805495909616941693909317909355600455600391909155600555565b6008546001600160a01b031681565b60075481565b6000600654600014156117a25760405162461bcd60e51b815260040161089f90614533565b6005546009546001600160a01b031663782d6fe1336117c24360016124fc565b6040518363ffffffff1660e01b81526004016117df9291906142ca565b60206040518083038186803b1580156117f757600080fd5b505afa15801561180b573d6000803e3d6000fd5b505050506040513d601f19601f8201168201806040525061182f9190810190612ff6565b6bffffffffffffffffffffffff161161185a5760405162461bcd60e51b815260040161089f906146a3565b8451865114801561186c575083518651145b8015611879575082518651145b6118955760405162461bcd60e51b815260040161089f906145c3565b85516118b35760405162461bcd60e51b815260040161089f90614623565b600a865111156118d55760405162461bcd60e51b815260040161089f90614653565b336000908152600b602052604090205480156119525760006118f682610f7f565b9050600181600781111561190657fe5b14156119245760405162461bcd60e51b815260040161089f90614683565b600081600781111561193257fe5b14156119505760405162461bcd60e51b815260040161089f90614663565b505b6000611960426003546124d7565b90506000611970826004546124d7565b600780546001019055905061198361269c565b6040518061020001604052806007548152602001336001600160a01b03168152602001600081526020018b81526020018a81526020018981526020018881526020018781526020016000815260200184815260200183815260200160008152602001600081526020016000815260200160001515815260200160001515815250905080600a6000836000015181526020019081526020016000206000820151816000015560208201518160010160006101000a8154816001600160a01b0302191690836001600160a01b03160217905550604082015181600201556060820151816003019080519060200190611a7a929190612726565b5060808201518051611a969160048401916020909101906127a3565b5060a08201518051611ab29160058401916020909101906127ea565b5060c08201518051611ace916006840191602090910190612843565b5060e08201518051611aea91600784019160209091019061289c565b506101008201518160080155610120820151816009015561014082015181600a015561016082015181600b015561018082015181600c01556101a082015181600d01556101c082015181600e0160006101000a81548160ff0219169083151502179055506101e082015181600e0160016101000a81548160ff0219169083151502179055509050508060000151600b600083602001516001600160a01b03166001600160a01b03168152602001908152602001600020819055507f7d84a6263ae0d98d3329bd7b46bb4e8d6f98cd35a7adb45c274c8b7fd5ebd5e08160000151338c8c8c8c89898e604051611be799989796959493929190614711565b60405180910390a15193505050505b95945050505050565b6004611c0a82610f7f565b6007811115611c1557fe5b14611c325760405162461bcd60e51b815260040161089f906145f3565b6000818152600a6020908152604080832060085482517f6a42b8f80000000000000000000000000000000000000000000000000000000081529251919493611ca59342936001600160a01b0390931692636a42b8f892600480840193919291829003018186803b1580156110c757600080fd5b905060005b6003830154811015611e8957611e81836003018281548110611cc857fe5b6000918252602090912001546004850180546001600160a01b039092169184908110611cf057fe5b9060005260206000200154856005018481548110611d0a57fe5b600091825260209182902001805460408051601f60027fffffffffffffffffffffffffffffffffffffffffffffffffffffffffffffffff610100600187161502019094169390930492830185900485028101850190915281815292830182828015611db65780601f10611d8b57610100808354040283529160200191611db6565b820191906000526020600020905b815481529060010190602001808311611d9957829003601f168201915b5050505050866006018581548110611dca57fe5b600091825260209182902001805460408051601f60027fffffffffffffffffffffffffffffffffffffffffffffffffffffffffffffffff610100600187161502019094169390930492830185900485028101850190915281815292830182828015611e765780601f10611e4b57610100808354040283529160200191611e76565b820191906000526020600020905b815481529060010190602001808311611e5957829003601f168201915b505050505086612524565b600101611caa565b50600282018190556040517f9a2e42fd6722813d69113e7d0079d3d940171428df7373df9c7f7617cfda289290611ec39085908490614873565b60405180910390a1505050565b604051610a7490614275565b611ee4612909565b506000828152600a602090815260408083206001600160a01b0385168452600f018252918290208251606081018452905460ff8082161515835261010082041692820192909252620100009091046bffffffffffffffffffffffff16918101919091525b92915050565b6001546001600160a01b031633148015611f6757503315155b611f835760405162461bcd60e51b815260040161089f90614633565b60008054600180546001600160a01b038082167fffffffffffffffffffffffff00000000000000000000000000000000000000008086168217968790559092169092556040519282169390927ff9ffabca9c8276e99321725bcb43fb076a6c66a54b7f21c4e8146d8519b417dc92611fff9286929116906142e5565b60405180910390a16001546040517fca4f2f25d0898edd99413412fb94012f9e54ec8142f9b093e7720646a95b16a9916109129184916001600160a01b0316906142e5565b6000546001600160a01b031681565b60065481565b600561206482610f7f565b600781111561206f57fe5b1461208c5760405162461bcd60e51b815260040161089f90614593565b6000818152600a60205260408120600e810180547fffffffffffffffffffffffffffffffffffffffffffffffffffffffffffff00ff16610100179055905b600382015481101561221d576008546004830180546001600160a01b0390921691630825f38f9190849081106120fc57fe5b906000526020600020015484600301848154811061211657fe5b6000918252602090912001546004860180546001600160a01b03909216918690811061213e57fe5b906000526020600020015486600501868154811061215857fe5b9060005260206000200187600601878154811061217157fe5b9060005260206000200188600201546040518763ffffffff1660e01b81526004016121a0959493929190614368565b6000604051808303818588803b1580156121b957600080fd5b505af11580156121cd573d6000803e3d6000fd5b50505050506040513d6000823e601f3d9081017fffffffffffffffffffffffffffffffffffffffffffffffffffffffffffffffe01682016040526122149190810190612e8b565b506001016120ca565b507f712ae1383f79ac853f8d882153778e0260ef8f03b504e2866e0593e04d2b291f8260405161091291906143f6565b465b90565b6000600161225f84610f7f565b600781111561226a57fe5b146122875760405162461bcd60e51b815260040161089f90614553565b60028260ff1611156122ab5760405162461bcd60e51b815260040161089f906144c3565b6000838152600a6020526040902060088101546122d3576122cd4360016124fc565b60088201555b6001600160a01b0385166000908152600f820160205260409020805460ff161561230f5760405162461bcd60e51b815260040161089f90614563565b60095460088301546040517f782d6fe10000000000000000000000000000000000000000000000000000000081526000926001600160a01b03169163782d6fe19161235e918b91600401614300565b60206040518083038186803b15801561237657600080fd5b505afa15801561238a573d6000803e3d6000fd5b505050506040513d601f19601f820116820180604052506123ae9190810190612ff6565b905060ff85166123de576123d483600c0154826bffffffffffffffffffffffff166124d7565b600c84015561243e565b8460ff16600114156124105761240683600b0154826bffffffffffffffffffffffff166124d7565b600b84015561243e565b8460ff166002141561243e5761243883600d0154826bffffffffffffffffffffffff166124d7565b600d8401555b815460017fffffffffffffffffffffffffffffffffffffffffffffffffffffffffffffff00909116177fffffffffffffffffffffffffffffffffffffffffffffffffffffffffffff00ff1661010060ff871602177fffffffffffffffffffffffffffffffffffff000000000000000000000000ffff16620100006bffffffffffffffffffffffff831602179091559150505b9392505050565b6000828201838110156124d05760405162461bcd60e51b815260040161089f90614603565b60008282111561251e5760405162461bcd60e51b815260040161089f906146f3565b50900390565b6008546040516001600160a01b039091169063f2b0653790612552908890889088908890889060200161430e565b604051602081830303815290604052805190602001206040518263ffffffff1660e01b815260040161258491906143f6565b60206040518083038186803b15801561259c57600080fd5b505afa1580156125b0573d6000803e3d6000fd5b505050506040513d601f19601f820116820180604052506125d49190810190612e4f565b156125f15760405162461bcd60e51b815260040161089f906144f3565b6008546040517f3a66f9010000000000000000000000000000000000000000000000000000000081526001600160a01b0390911690633a66f90190612642908890889088908890889060040161430e565b602060405180830381600087803b15801561265c57600080fd5b505af1158015612670573d6000803e3d6000fd5b505050506040513d601f19601f820116820180604052506126949190810190612e6d565b505050505050565b6040518061020001604052806000815260200160006001600160a01b031681526020016000815260200160608152602001606081526020016060815260200160608152602001606081526020016000815260200160008152602001600081526020016000815260200160008152602001600081526020016000151581526020016000151581525090565b828054828255906000526020600020908101928215612793579160200282015b8281111561279357825182547fffffffffffffffffffffffff0000000000000000000000000000000000000000166001600160a01b03909116178255602090920191600190910190612746565b5061279f929150612929565b5090565b8280548282559060005260206000209081019282156127de579160200282015b828111156127de5782518255916020019190600101906127c3565b5061279f929150612965565b828054828255906000526020600020908101928215612837579160200282015b82811115612837578251805161282791849160209091019061289c565b509160200191906001019061280a565b5061279f92915061297f565b828054828255906000526020600020908101928215612890579160200282015b82811115612890578251805161288091849160209091019061289c565b5091602001919060010190612863565b5061279f9291506129a2565b828054600181600116156101000203166002900490600052602060002090601f016020900481019282601f106128dd57805160ff19168380011785556127de565b828001600101855582156127de57918201828111156127de5782518255916020019190600101906127c3565b604080516060810182526000808252602082018190529181019190915290565b61224f91905b8082111561279f5780547fffffffffffffffffffffffff000000000000000000000000000000000000000016815560010161292f565b61224f91905b8082111561279f576000815560010161296b565b61224f91905b8082111561279f57600061299982826129c5565b50600101612985565b61224f91905b8082111561279f5760006129bc82826129c5565b506001016129a8565b50805460018160011615610100020316600290046000825580601f106129eb5750612a09565b601f016020900490600052602060002090810190612a099190612965565b50565b8035611f4881614a7c565b600082601f830112612a2857600080fd5b8135612a3b612a3682614927565b614900565b91508181835260208401935060208101905083856020840282011115612a6057600080fd5b60005b83811015612a8c5781612a768882612a0c565b8452506020928301929190910190600101612a63565b5050505092915050565b600082601f830112612aa757600080fd5b8135612ab5612a3682614927565b81815260209384019390925082018360005b83811015612a8c5781358601612add8882612be1565b8452506020928301929190910190600101612ac7565b600082601f830112612b0457600080fd5b8135612b12612a3682614927565b81815260209384019390925082018360005b83811015612a8c5781358601612b3a8882612be1565b8452506020928301929190910190600101612b24565b600082601f830112612b6157600080fd5b8135612b6f612a3682614927565b91508181835260208401935060208101905083856020840282011115612b9457600080fd5b60005b83811015612a8c5781612baa8882612bcb565b8452506020928301929190910190600101612b97565b8051611f4881614a90565b8035611f4881614a99565b8051611f4881614a99565b600082601f830112612bf257600080fd5b8135612c00612a3682614948565b91508082526020830160208301858383011115612c1c57600080fd5b612c27838284614a12565b50505092915050565b600082601f830112612c4157600080fd5b8151612c4f612a3682614948565b91508082526020830160208301858383011115612c6b57600080fd5b612c27838284614a1e565b60008083601f840112612c8857600080fd5b50813567ffffffffffffffff811115612ca057600080fd5b602083019150836001820283011115612cb857600080fd5b9250929050565b8035611f4881614aa2565b8051611f4881614aab565b600060208284031215612ce757600080fd5b6000612cf38484612a0c565b949350505050565b600080600080600060a08688031215612d1357600080fd5b6000612d1f8888612a0c565b9550506020612d3088828901612a0c565b9450506040612d4188828901612bcb565b9350506060612d5288828901612bcb565b9250506080612d6388828901612bcb565b9150509295509295909350565b600080600080600060a08688031215612d8857600080fd5b853567ffffffffffffffff811115612d9f57600080fd5b612dab88828901612a17565b955050602086013567ffffffffffffffff811115612dc857600080fd5b612dd488828901612b50565b945050604086013567ffffffffffffffff811115612df157600080fd5b612dfd88828901612af3565b935050606086013567ffffffffffffffff811115612e1a57600080fd5b612e2688828901612a96565b925050608086013567ffffffffffffffff811115612e4357600080fd5b612d6388828901612be1565b600060208284031215612e6157600080fd5b6000612cf38484612bc0565b600060208284031215612e7f57600080fd5b6000612cf38484612bd6565b600060208284031215612e9d57600080fd5b815167ffffffffffffffff811115612eb457600080fd5b612cf384828501612c30565b600060208284031215612ed257600080fd5b6000612cf38484612bcb565b60008060408385031215612ef157600080fd5b6000612efd8585612bcb565b9250506020612f0e85828601612a0c565b9150509250929050565b60008060408385031215612f2b57600080fd5b6000612f378585612bcb565b9250506020612f0e85828601612cbf565b60008060008060608587031215612f5e57600080fd5b6000612f6a8787612bcb565b9450506020612f7b87828801612cbf565b935050604085013567ffffffffffffffff811115612f9857600080fd5b612fa487828801612c76565b95989497509550505050565b600080600080600060a08688031215612fc857600080fd5b6000612fd48888612bcb565b9550506020612fe588828901612cbf565b9450506040612d4188828901612cbf565b60006020828403121561300857600080fd5b6000612cf38484612cca565b6000613020838361304f565b505060200190565b60006124d083836131f1565b600061302083836131d7565b613049816149ea565b82525050565b613049816149ad565b6000613063826149a0565b61306d81856149a4565b93506130788361498e565b8060005b838110156130a65781516130908882613014565b975061309b8361498e565b92505060010161307c565b509495945050505050565b60006130bc826149a0565b6130c681856149a4565b9350836020820285016130d88561498e565b8060005b8581101561311257848403895281516130f58582613028565b94506131008361498e565b60209a909a01999250506001016130dc565b5091979650505050505050565b600061312a826149a0565b61313481856149a4565b9350836020820285016131468561498e565b8060005b8581101561311257848403895281516131638582613028565b945061316e8361498e565b60209a909a019992505060010161314a565b600061318b826149a0565b61319581856149a4565b93506131a08361498e565b8060005b838110156130a65781516131b88882613034565b97506131c38361498e565b9250506001016131a4565b613049816149b8565b6130498161224f565b6130496131ec8261224f565b61224f565b60006131fc826149a0565b61320681856149a4565b9350613216818560208601614a1e565b61321f81614a4a565b9093019392505050565b600081546001811660008114613246576001811461328a576132c9565b607f600283041661325781876149a4565b7fffffffffffffffffffffffffffffffffffffffffffffffffffffffffffffff00841681529550506020850192506132c9565b6002820461329881876149a4565b95506132a385614994565b60005b828110156132c2578154888201526001909101906020016132a6565b8701945050505b505092915050565b613049816149f1565b613049816149fc565b60006132ef83856149a4565b93506132fc838584614a12565b61321f83614a4a565b60006133126032836149a4565b7f476f7665726e6f72427261766f3a3a63617374566f7465496e7465726e616c3a81527f20696e76616c696420766f746520747970650000000000000000000000000000602082015260400192915050565b600061337160288361111a565b7f42616c6c6f742875696e743235362070726f706f73616c49642c75696e74382081527f737570706f727429000000000000000000000000000000000000000000000000602082015260280192915050565b60006133d06033836149a4565b7f476f7665726e6f72427261766f3a3a696e697469616c697a653a2063616e206f81527f6e6c7920696e697469616c697a65206f6e636500000000000000000000000000602082015260400192915050565b600061342f602a836149a4565b7f476f7665726e6f72427261766f3a5f73657450656e64696e6741646d696e3a2081527f61646d696e206f6e6c7900000000000000000000000000000000000000000000602082015260400192915050565b600061348e6055836149a4565b7f476f7665726e6f72427261766f3a3a71756575654f72526576657274496e746581527f726e616c3a206964656e746963616c2070726f706f73616c20616374696f6e2060208201527f616c726561647920717565756564206174206574610000000000000000000000604082015260600192915050565b6000613513602b836149a4565b7f476f7665726e6f72427261766f3a3a5f736574566f74696e67506572696f643a81527f2061646d696e206f6e6c79000000000000000000000000000000000000000000602082015260400192915050565b60006135726033836149a4565b7f476f7665726e6f72427261766f3a3a696e697469616c697a653a20696e76616c81527f69642074696d656c6f636b206164647265737300000000000000000000000000602082015260400192915050565b60006135d1602a836149a4565b7f476f7665726e6f72427261766f3a3a5f736574566f74696e6744656c61793a2081527f61646d696e206f6e6c7900000000000000000000000000000000000000000000602082015260400192915050565b60006136306031836149a4565b7f476f7665726e6f72427261766f3a3a70726f706f73653a20476f7665726e6f7281527f20427261766f206e6f7420616374697665000000000000000000000000000000602082015260400192915050565b600061368f60028361111a565b7f1901000000000000000000000000000000000000000000000000000000000000815260020192915050565b60006136c86036836149a4565b7f476f7665726e6f72427261766f3a3a5f736574566f74696e67506572696f643a81527f20696e76616c696420766f74696e6720706572696f6400000000000000000000602082015260400192915050565b60006137276031836149a4565b7f476f7665726e6f72427261766f3a3a63617374566f7465496e7465726e616c3a81527f20766f74696e6720697320636c6f736564000000000000000000000000000000602082015260400192915050565b60006137866034836149a4565b7f476f7665726e6f72427261766f3a3a63617374566f7465496e7465726e616c3a81527f20766f74657220616c726561647920766f746564000000000000000000000000602082015260400192915050565b60006137e56034836149a4565b7f476f7665726e6f72427261766f3a3a5f736574566f74696e6744656c61793a2081527f696e76616c696420766f74696e672064656c6179000000000000000000000000602082015260400192915050565b60006138446035836149a4565b7f476f7665726e6f72427261766f3a3a696e697469616c697a653a20696e76616c81527f69642070726f706f73616c207468726573686f6c640000000000000000000000602082015260400192915050565b60006138a36045836149a4565b7f476f7665726e6f72427261766f3a3a657865637574653a2070726f706f73616c81527f2063616e206f6e6c79206265206578656375746564206966206974206973207160208201527f7565756564000000000000000000000000000000000000000000000000000000604082015260600192915050565b6000613928602f836149a4565b7f476f7665726e6f72427261766f3a3a63617374566f746542795369673a20696e81527f76616c6964207369676e61747572650000000000000000000000000000000000602082015260400192915050565b6000613987602f836149a4565b7f476f7665726e6f72427261766f3a3a696e697469616c697a653a20696e76616c81527f696420766f74696e672064656c61790000000000000000000000000000000000602082015260400192915050565b60006139e66044836149a4565b7f476f7665726e6f72427261766f3a3a70726f706f73653a2070726f706f73616c81527f2066756e6374696f6e20696e666f726d6174696f6e206172697479206d69736d60208201527f6174636800000000000000000000000000000000000000000000000000000000604082015260600192915050565b6000613a6b6025836149a4565b7f476f7665726e6f72427261766f3a3a696e697469616c697a653a2061646d696e81527f206f6e6c79000000000000000000000000000000000000000000000000000000602082015260400192915050565b6000613aca6040836149a4565b7f476f7665726e6f72427261766f3a3a5f73657450726f706f73616c546872657381527f686f6c643a20696e76616c69642070726f706f73616c207468726573686f6c64602082015260400192915050565b6000613b296044836149a4565b7f476f7665726e6f72427261766f3a3a71756575653a2070726f706f73616c206381527f616e206f6e6c792062652071756575656420696620697420697320737563636560208201527f6564656400000000000000000000000000000000000000000000000000000000604082015260600192915050565b6000613bae6011836149a4565b7f6164646974696f6e206f766572666c6f77000000000000000000000000000000815260200192915050565b6000613be760438361111a565b7f454950373132446f6d61696e28737472696e67206e616d652c75696e7432353681527f20636861696e49642c6164647265737320766572696679696e67436f6e74726160208201527f6374290000000000000000000000000000000000000000000000000000000000604082015260430192915050565b6000613c6c6030836149a4565b7f476f7665726e6f72427261766f3a3a5f696e6974696174653a2063616e206f6e81527f6c7920696e697469617465206f6e636500000000000000000000000000000000602082015260400192915050565b6000613ccb602c836149a4565b7f476f7665726e6f72427261766f3a3a70726f706f73653a206d7573742070726f81527f7669646520616374696f6e730000000000000000000000000000000000000000602082015260400192915050565b6000613d2a602e836149a4565b7f476f7665726e6f72427261766f3a5f61636365707441646d696e3a2070656e6481527f696e672061646d696e206f6e6c79000000000000000000000000000000000000602082015260400192915050565b6000613d89602f836149a4565b7f476f7665726e6f72427261766f3a3a63616e63656c3a2070726f706f7365722081527f61626f7665207468726573686f6c640000000000000000000000000000000000602082015260400192915050565b6000613de86028836149a4565b7f476f7665726e6f72427261766f3a3a70726f706f73653a20746f6f206d616e7981527f20616374696f6e73000000000000000000000000000000000000000000000000602082015260400192915050565b6000613e476059836149a4565b7f476f7665726e6f72427261766f3a3a70726f706f73653a206f6e65206c69766581527f2070726f706f73616c207065722070726f706f7365722c20666f756e6420616e60208201527f20616c72656164792070656e64696e672070726f706f73616c00000000000000604082015260600192915050565b6000613ecc6032836149a4565b7f476f7665726e6f72427261766f3a3a696e697469616c697a653a20696e76616c81527f6964206c3220626f626120616464726573730000000000000000000000000000602082015260400192915050565b6000613f2b6058836149a4565b7f476f7665726e6f72427261766f3a3a70726f706f73653a206f6e65206c69766581527f2070726f706f73616c207065722070726f706f7365722c20666f756e6420616e60208201527f20616c7265616479206163746976652070726f706f73616c0000000000000000604082015260600192915050565b6000611f486000836149a4565b6000613fbd6024836149a4565b7f476f7665726e6f72427261766f3a3a5f696e6974696174653a2061646d696e2081527f6f6e6c7900000000000000000000000000000000000000000000000000000000602082015260400192915050565b600061401c603f836149a4565b7f476f7665726e6f72427261766f3a3a70726f706f73653a2070726f706f73657281527f20766f7465732062656c6f772070726f706f73616c207468726573686f6c6400602082015260400192915050565b600061407b6036836149a4565b7f476f7665726e6f72427261766f3a3a63616e63656c3a2063616e6e6f7420636181527f6e63656c2065786563757465642070726f706f73616c00000000000000000000602082015260400192915050565b60006140da6030836149a4565b7f476f7665726e6f72427261766f3a3a5f73657450726f706f73616c546872657381527f686f6c643a2061646d696e206f6e6c7900000000000000000000000000000000602082015260400192915050565b60006141396029836149a4565b7f476f7665726e6f72427261766f3a3a73746174653a20696e76616c696420707281527f6f706f73616c2069640000000000000000000000000000000000000000000000602082015260400192915050565b60006141986030836149a4565b7f476f7665726e6f72427261766f3a3a696e697469616c697a653a20696e76616c81527f696420766f74696e6720706572696f6400000000000000000000000000000000602082015260400192915050565b60006141f76015836149a4565b7f7375627472616374696f6e20756e646572666c6f770000000000000000000000815260200192915050565b8051606083019061423484826131ce565b506020820151614247602085018261425a565b506040820151611515604085018261426c565b613049816149d3565b61304981614a07565b613049816149d9565b6000611f4882613364565b600061428b82613682565b915061429782856131e0565b6020820191506142a782846131e0565b5060200192915050565b6000611f4882613bda565b60208101611f48828461304f565b604081016142d88285613040565b6124d060208301846131d7565b604081016142f3828561304f565b6124d0602083018461304f565b604081016142d8828561304f565b60a0810161431c828861304f565b61432960208301876131d7565b818103604083015261433b81866131f1565b9050818103606083015261434f81856131f1565b905061435e60808301846131d7565b9695505050505050565b60a08101614376828861304f565b61438360208301876131d7565b81810360408301526143958186613229565b9050818103606083015261434f8185613229565b608080825281016143ba8187613058565b905081810360208301526143ce8186613180565b905081810360408301526143e2818561311f565b9050818103606083015261435e81846130b1565b60208101611f4882846131d7565b6080810161441282876131d7565b61441f60208301866131d7565b61442c60408301856131d7565b611bf6606083018461304f565b6060810161444782866131d7565b61445460208301856131d7565b612cf3604083018461425a565b6080810161446f82876131d7565b61447c602083018661425a565b61448960408301856131d7565b611bf660608301846131d7565b60208101611f4882846132d1565b60208101611f4882846132da565b602080825281016124d081846131f1565b60208082528101611f4881613305565b60208082528101611f48816133c3565b60208082528101611f4881613422565b60208082528101611f4881613481565b60208082528101611f4881613506565b60208082528101611f4881613565565b60208082528101611f48816135c4565b60208082528101611f4881613623565b60208082528101611f48816136bb565b60208082528101611f488161371a565b60208082528101611f4881613779565b60208082528101611f48816137d8565b60208082528101611f4881613837565b60208082528101611f4881613896565b60208082528101611f488161391b565b60208082528101611f488161397a565b60208082528101611f48816139d9565b60208082528101611f4881613a5e565b60208082528101611f4881613abd565b60208082528101611f4881613b1c565b60208082528101611f4881613ba1565b60208082528101611f4881613c5f565b60208082528101611f4881613cbe565b60208082528101611f4881613d1d565b60208082528101611f4881613d7c565b60208082528101611f4881613ddb565b60208082528101611f4881613e3a565b60208082528101611f4881613ebf565b60208082528101611f4881613f1e565b60208082528101611f4881613fb0565b60208082528101611f488161400f565b60208082528101611f488161406e565b60208082528101611f48816140cd565b60208082528101611f488161412c565b60208082528101611f488161418b565b60208082528101611f48816141ea565b60608101611f488284614223565b6101208101614720828c6131d7565b61472d602083018b613040565b818103604083015261473f818a613058565b905081810360608301526147538189613180565b90508181036080830152614767818861311f565b905081810360a083015261477b81876130b1565b905061478a60c08301866131d7565b61479760e08301856131d7565b8181036101008301526147aa81846131f1565b9b9a5050505050505050505050565b61018081016147c8828f6131d7565b6147d5602083018e61304f565b6147e2604083018d6131d7565b81810360608301526147f4818c6131f1565b9050614803608083018b6131d7565b61481060a083018a6131d7565b61481d60c08301896131d7565b61482a60e08301886131d7565b6148386101008301876131d7565b6148466101208301866131d7565b6148546101408301856131ce565b6148626101608301846131ce565b9d9c50505050505050505050505050565b604081016142d882856131d7565b6080810161488f82886131d7565b61489c602083018761425a565b6148a96040830186614263565b81810360608301526148bc8184866132e3565b979650505050505050565b608081016148d582866131d7565b6148e2602083018561425a565b6148ef6040830184614263565b8181036060830152611bf681613fa3565b60405181810167ffffffffffffffff8111828210171561491f57600080fd5b604052919050565b600067ffffffffffffffff82111561493e57600080fd5b5060209081020190565b600067ffffffffffffffff82111561495f57600080fd5b506020601f919091017fffffffffffffffffffffffffffffffffffffffffffffffffffffffffffffffe0160190565b60200190565b60009081526020902090565b5190565b90815260200190565b6000611f48826149c7565b151590565b8061111a81614a72565b6001600160a01b031690565b60ff1690565b6bffffffffffffffffffffffff1690565b6000611f48825b6000611f48826149ad565b6000611f48826149bd565b6000611f48826149d9565b82818337506000910152565b60005b83811015614a39578181015183820152602001614a21565b838111156115155750506000910152565b601f017fffffffffffffffffffffffffffffffffffffffffffffffffffffffffffffffe01690565b60088110612a0957fe5b614a85816149ad565b8114612a0957600080fd5b614a85816149b8565b614a858161224f565b614a85816149d3565b614a85816149d956fea365627a7a72315820455564eadd66a693c26e7f06f9d891000413c2d71161427b746e51042468d23a6c6578706572696d656e74616cf564736f6c63430005110040",
  "linkReferences": {},
  "deployedLinkReferences": {}
}