{
  "contractName": "GovernorBravoDelegateStorageV1",
  "abi": [
    {
      "constant": true,
      "inputs": [],
      "name": "admin",
      "outputs": [
        {
          "internalType": "address",
          "name": "",
          "type": "address"
        }
      ],
      "payable": false,
      "stateMutability": "view",
      "type": "function"
    },
    {
      "constant": true,
      "inputs": [],
      "name": "comp",
      "outputs": [
        {
          "internalType": "contract CompInterface",
          "name": "",
          "type": "address"
        }
      ],
      "payable": false,
      "stateMutability": "view",
      "type": "function"
    },
    {
      "constant": true,
      "inputs": [],
      "name": "implementation",
      "outputs": [
        {
          "internalType": "address",
          "name": "",
          "type": "address"
        }
      ],
      "payable": false,
      "stateMutability": "view",
      "type": "function"
    },
    {
      "constant": true,
      "inputs": [],
      "name": "initialProposalId",
      "outputs": [
        {
          "internalType": "uint256",
          "name": "",
          "type": "uint256"
        }
      ],
      "payable": false,
      "stateMutability": "view",
      "type": "function"
    },
    {
      "constant": true,
      "inputs": [
        {
          "internalType": "address",
          "name": "",
          "type": "address"
        }
      ],
      "name": "latestProposalIds",
      "outputs": [
        {
          "internalType": "uint256",
          "name": "",
          "type": "uint256"
        }
      ],
      "payable": false,
      "stateMutability": "view",
      "type": "function"
    },
    {
      "constant": true,
      "inputs": [],
      "name": "pendingAdmin",
      "outputs": [
        {
          "internalType": "address",
          "name": "",
          "type": "address"
        }
      ],
      "payable": false,
      "stateMutability": "view",
      "type": "function"
    },
    {
      "constant": true,
      "inputs": [],
      "name": "proposalCount",
      "outputs": [
        {
          "internalType": "uint256",
          "name": "",
          "type": "uint256"
        }
      ],
      "payable": false,
      "stateMutability": "view",
      "type": "function"
    },
    {
      "constant": true,
      "inputs": [],
      "name": "proposalThreshold",
      "outputs": [
        {
          "internalType": "uint256",
          "name": "",
          "type": "uint256"
        }
      ],
      "payable": false,
      "stateMutability": "view",
      "type": "function"
    },
    {
      "constant": true,
      "inputs": [
        {
          "internalType": "uint256",
          "name": "",
          "type": "uint256"
        }
      ],
      "name": "proposals",
      "outputs": [
        {
          "internalType": "uint256",
          "name": "id",
          "type": "uint256"
        },
        {
          "internalType": "address",
          "name": "proposer",
          "type": "address"
        },
        {
          "internalType": "uint256",
          "name": "eta",
          "type": "uint256"
        },
        {
          "internalType": "string",
          "name": "description",
          "type": "string"
        },
        {
          "internalType": "uint256",
          "name": "startBlock",
          "type": "uint256"
        },
        {
          "internalType": "uint256",
          "name": "endBlock",
          "type": "uint256"
        },
        {
          "internalType": "uint256",
          "name": "forVotes",
          "type": "uint256"
        },
        {
          "internalType": "uint256",
          "name": "againstVotes",
          "type": "uint256"
        },
        {
          "internalType": "uint256",
          "name": "abstainVotes",
          "type": "uint256"
        },
        {
          "internalType": "bool",
          "name": "canceled",
          "type": "bool"
        },
        {
          "internalType": "bool",
          "name": "executed",
          "type": "bool"
        }
      ],
      "payable": false,
      "stateMutability": "view",
      "type": "function"
    },
    {
      "constant": true,
      "inputs": [],
      "name": "timelock",
      "outputs": [
        {
          "internalType": "contract TimelockInterface",
          "name": "",
          "type": "address"
        }
      ],
      "payable": false,
      "stateMutability": "view",
      "type": "function"
    },
    {
      "constant": true,
      "inputs": [],
      "name": "votingDelay",
      "outputs": [
        {
          "internalType": "uint256",
          "name": "",
          "type": "uint256"
        }
      ],
      "payable": false,
      "stateMutability": "view",
      "type": "function"
    },
    {
      "constant": true,
      "inputs": [],
      "name": "votingPeriod",
      "outputs": [
        {
          "internalType": "uint256",
          "name": "",
          "type": "uint256"
        }
      ],
      "payable": false,
      "stateMutability": "view",
      "type": "function"
    }
  ],
  "bytecode": "0x60806040523480156100195760008061001661001f565b50505b5061008a565b632a2a7adb598160e01b8152600481016020815285602082015260005b8681101561005757808601518282016040015260200161003c565b506020828760640184336000905af158600e01573d6000803e3d6000fd5b3d6001141558600a015760016000f35b505050565b61069b806100996000396000f3fe60806040523480156100195760008061001661038a565b50505b50600436106100ad5760003560e01c8063013cf08b146100bb57806302a251a3146100ee578063109d0af81461010357806317977c6114610118578063267822471461012b5780633932abb1146101405780635c60da1b14610148578063b58131b014610150578063d33219b414610158578063da35c66414610160578063f851a44014610168578063fc4eee4214610170575b6000806100b861038a565b50505b6100ce6100c93660046104a0565b610178565b6040516100e59b9a99989796959493929190610553565b60405180910390f35b6100f66102ef565b6040516100e59190610545565b61010b6102fc565b6040516100e59190610537565b6100f6610126366004610471565b61031b565b610133610333565b6040516100e59190610529565b6100f661033f565b610133610349565b6100f6610355565b61010b61035f565b6100f661036b565b610133610375565b6100f6610380565b600a6020528060005260406000209050806101916103f5565b906000600182016101a06103f5565b906101000a90046001600160a01b031690806002016101bd6103f5565b9080600701806101cb6103f5565b600181600116156101000203166002900480601f0160208091040260200160405190810160405281815291906020830182806102056103f5565b600181600116156101000203166002900480156102715780601f1061023f5761010080836102316103f5565b040283529160200191610271565b820191906000526020600020905b816102566103f5565b8152906001019060200180831161024d57829003601f168201915b505050505090806008016102836103f5565b90806009016102906103f5565b9080600a0161029d6103f5565b9080600b016102aa6103f5565b9080600c016102b76103f5565b906000600d82016102c66103f5565b906101000a900460ff169080600d016001906102e06103f5565b906101000a900460ff1690508b565b60046102f96103f5565b81565b600060096103086103f5565b906101000a90046001600160a01b031681565b600b60205280600052604060002090506102f96103f5565b600060016103086103f5565b60036102f96103f5565b600060026103086103f5565b60056102f96103f5565b600060086103086103f5565b60076102f96103f5565b6000806103086103f5565b60066102f96103f5565b632a2a7adb598160e01b8152600481016020815285602082015260005b868110156103c25780860151828201604001526020016103a7565b506020828760640184336000905af158600e01573d6000803e3d6000fd5b3d6001141558600a015760016000f35b505050565b6303daa959598160e01b8152836004820152602081602483336000905af158600e01573d6000803e3d6000fd5b3d6001141558600a015760016000f35b8051935060005b604081101561045057600082820152602001610439565b505050565b803561046081610675565b92915050565b803561046081610692565b60006020828403121561048c5760008061048961038a565b50505b60006104988484610455565b949350505050565b6000602082840312156104bb576000806104b861038a565b50505b60006104988484610466565b6104d081610611565b82525050565b6104d08161061c565b6104d081610630565b60006104f3826105fe565b6104fd8185610608565b935061050d81856020860161063b565b6105168161066b565b9093019392505050565b6104d08161062d565b6020810161046082846104c7565b6020810161046082846104df565b602081016104608284610520565b6101608101610562828e610520565b61056f602083018d6104c7565b61057c604083018c610520565b818103606083015261058e818b6104e8565b905061059d608083018a610520565b6105aa60a0830189610520565b6105b760c0830188610520565b6105c460e0830187610520565b6105d2610100830186610520565b6105e06101208301856104d6565b6105ee6101408301846104d6565b9c9b505050505050505050505050565b6000815192915050565b90815260200190565b600061046082610621565b151590565b6001600160a01b031690565b90565b600061046082610611565b60005b8381101561065657808201518382015260200161063e565b83811115610665576000848401525b50505050565b601f01601f191690565b61067e81610611565b811461068f5760008061045061038a565b50565b61067e8161062d56",
  "deployedBytecode": "0x60806040523480156100195760008061001661038a565b50505b50600436106100ad5760003560e01c8063013cf08b146100bb57806302a251a3146100ee578063109d0af81461010357806317977c6114610118578063267822471461012b5780633932abb1146101405780635c60da1b14610148578063b58131b014610150578063d33219b414610158578063da35c66414610160578063f851a44014610168578063fc4eee4214610170575b6000806100b861038a565b50505b6100ce6100c93660046104a0565b610178565b6040516100e59b9a99989796959493929190610553565b60405180910390f35b6100f66102ef565b6040516100e59190610545565b61010b6102fc565b6040516100e59190610537565b6100f6610126366004610471565b61031b565b610133610333565b6040516100e59190610529565b6100f661033f565b610133610349565b6100f6610355565b61010b61035f565b6100f661036b565b610133610375565b6100f6610380565b600a6020528060005260406000209050806101916103f5565b906000600182016101a06103f5565b906101000a90046001600160a01b031690806002016101bd6103f5565b9080600701806101cb6103f5565b600181600116156101000203166002900480601f0160208091040260200160405190810160405281815291906020830182806102056103f5565b600181600116156101000203166002900480156102715780601f1061023f5761010080836102316103f5565b040283529160200191610271565b820191906000526020600020905b816102566103f5565b8152906001019060200180831161024d57829003601f168201915b505050505090806008016102836103f5565b90806009016102906103f5565b9080600a0161029d6103f5565b9080600b016102aa6103f5565b9080600c016102b76103f5565b906000600d82016102c66103f5565b906101000a900460ff169080600d016001906102e06103f5565b906101000a900460ff1690508b565b60046102f96103f5565b81565b600060096103086103f5565b906101000a90046001600160a01b031681565b600b60205280600052604060002090506102f96103f5565b600060016103086103f5565b60036102f96103f5565b600060026103086103f5565b60056102f96103f5565b600060086103086103f5565b60076102f96103f5565b6000806103086103f5565b60066102f96103f5565b632a2a7adb598160e01b8152600481016020815285602082015260005b868110156103c25780860151828201604001526020016103a7565b506020828760640184336000905af158601d01573d60011458600c01573d6000803e3d621234565260ea61109c52505050565b6303daa959598160e01b8152836004820152602081602483336000905af158601d01573d60011458600c01573d6000803e3d621234565260ea61109c528051935060005b604081101561045057600082820152602001610439565b505050565b803561046081610675565b92915050565b803561046081610692565b60006020828403121561048c5760008061048961038a565b50505b60006104988484610455565b949350505050565b6000602082840312156104bb576000806104b861038a565b50505b60006104988484610466565b6104d081610611565b82525050565b6104d08161061c565b6104d081610630565b60006104f3826105fe565b6104fd8185610608565b935061050d81856020860161063b565b6105168161066b565b9093019392505050565b6104d08161062d565b6020810161046082846104c7565b6020810161046082846104df565b602081016104608284610520565b6101608101610562828e610520565b61056f602083018d6104c7565b61057c604083018c610520565b818103606083015261058e818b6104e8565b905061059d608083018a610520565b6105aa60a0830189610520565b6105b760c0830188610520565b6105c460e0830187610520565b6105d2610100830186610520565b6105e06101208301856104d6565b6105ee6101408301846104d6565b9c9b505050505050505050505050565b6000815192915050565b90815260200190565b600061046082610621565b151590565b6001600160a01b031690565b90565b600061046082610611565b60005b8381101561065657808201518382015260200161063e565b83811115610665576000848401525b50505050565b601f01601f191690565b61067e81610611565b811461068f5760008061045061038a565b50565b61067e8161062d56",
  "source": "pragma solidity ^0.5.16;\npragma experimental ABIEncoderV2;\n\n\ncontract GovernorBravoEvents {\n    /// @notice An event emitted when a new proposal is created\n    event ProposalCreated(uint id, address proposer, address[] targets, uint[] values, string[] signatures, bytes[] calldatas, uint startBlock, uint endBlock, string description);\n\n    /// @notice An event emitted when a vote has been cast on a proposal\n    /// @param voter The address which casted a vote\n    /// @param proposalId The proposal id which was voted on\n    /// @param support Support value for the vote. 0=against, 1=for, 2=abstain\n    /// @param votes Number of votes which were cast by the voter\n    /// @param reason The reason given for the vote by the voter\n    event VoteCast(address indexed voter, uint proposalId, uint8 support, uint votes, string reason);\n\n    /// @notice An event emitted when a proposal has been canceled\n    event ProposalCanceled(uint id);\n\n    /// @notice An event emitted when a proposal has been queued in the Timelock\n    event ProposalQueued(uint id, uint eta);\n\n    /// @notice An event emitted when a proposal has been executed in the Timelock\n    event ProposalExecuted(uint id);\n\n    /// @notice An event emitted when the voting delay is set\n    event VotingDelaySet(uint oldVotingDelay, uint newVotingDelay);\n\n    /// @notice An event emitted when the voting period is set\n    event VotingPeriodSet(uint oldVotingPeriod, uint newVotingPeriod);\n\n    /// @notice Emitted when implementation is changed\n    event NewImplementation(address oldImplementation, address newImplementation);\n\n    /// @notice Emitted when proposal threshold is set\n    event ProposalThresholdSet(uint oldProposalThreshold, uint newProposalThreshold);\n\n    /// @notice Emitted when pendingAdmin is changed\n    event NewPendingAdmin(address oldPendingAdmin, address newPendingAdmin);\n\n    /// @notice Emitted when pendingAdmin is accepted, which means admin is updated\n    event NewAdmin(address oldAdmin, address newAdmin);\n}\n\ncontract GovernorBravoDelegatorStorage {\n    /// @notice Administrator for this contract\n    address public admin;\n\n    /// @notice Pending administrator for this contract\n    address public pendingAdmin;\n\n    /// @notice Active brains of Governor\n    address public implementation;\n}\n\n\n/**\n * @title Storage for Governor Bravo Delegate\n * @notice For future upgrades, do not change GovernorBravoDelegateStorageV1. Create a new\n * contract which implements GovernorBravoDelegateStorageV1 and following the naming convention\n * GovernorBravoDelegateStorageVX.\n */\ncontract GovernorBravoDelegateStorageV1 is GovernorBravoDelegatorStorage {\n\n    /// @notice The delay before voting on a proposal may take place, once proposed, in blocks\n    uint public votingDelay;\n\n    /// @notice The duration of voting on a proposal, in blocks\n    uint public votingPeriod;\n\n    /// @notice The number of votes required in order for a voter to become a proposer\n    uint public proposalThreshold;\n\n    /// @notice Initial proposal id set at become\n    uint public initialProposalId;\n\n    /// @notice The total number of proposals\n    uint public proposalCount;\n\n    /// @notice The address of the Compound Protocol Timelock\n    TimelockInterface public timelock;\n\n    /// @notice The address of the Compound governance token\n    CompInterface public comp;\n\n    /// @notice The official record of all proposals ever proposed\n    mapping (uint => Proposal) public proposals;\n\n    /// @notice The latest proposal for each proposer\n    mapping (address => uint) public latestProposalIds;\n\n\n    struct Proposal {\n        /// @notice Unique id for looking up a proposal\n        uint id;\n\n        /// @notice Creator of the proposal\n        address proposer;\n\n        /// @notice The timestamp that the proposal will be available for execution, set once the vote succeeds\n        uint eta;\n\n        /// @notice the ordered list of target addresses for calls to be made\n        address[] targets;\n\n        /// @notice The ordered list of values (i.e. msg.value) to be passed to the calls to be made\n        uint[] values;\n\n        /// @notice The ordered list of function signatures to be called\n        string[] signatures;\n\n        /// @notice The ordered list of calldata to be passed to each call\n        bytes[] calldatas;\n\n        /// @notice Proposal metadata such as description and URI\n        string description;\n\n        /// @notice The block at which voting begins: holders must delegate their votes prior to this block\n        uint startBlock;\n\n        /// @notice The block at which voting ends: votes must be cast prior to this block\n        uint endBlock;\n\n        /// @notice Current number of votes in favor of this proposal\n        uint forVotes;\n\n        /// @notice Current number of votes in opposition to this proposal\n        uint againstVotes;\n\n        /// @notice Current number of votes for abstaining for this proposal\n        uint abstainVotes;\n\n        /// @notice Flag marking whether the proposal has been canceled\n        bool canceled;\n\n        /// @notice Flag marking whether the proposal has been executed\n        bool executed;\n\n        /// @notice Receipts of ballots for the entire set of voters\n        mapping (address => Receipt) receipts;\n    }\n\n    /// @notice Ballot receipt record for a voter\n    struct Receipt {\n        /// @notice Whether or not a vote has been cast\n        bool hasVoted;\n\n        /// @notice Whether or not the voter supports the proposal or abstains\n        uint8 support;\n\n        /// @notice The number of votes the voter had, which were cast\n        uint96 votes;\n    }\n\n    /// @notice Possible states that a proposal may be in\n    enum ProposalState {\n        Pending,\n        Active,\n        Canceled,\n        Defeated,\n        Succeeded,\n        Queued,\n        Expired,\n        Executed\n    }\n}\n\ninterface TimelockInterface {\n    function delay() external view returns (uint);\n    function GRACE_PERIOD() external view returns (uint);\n    function acceptAdmin() external;\n    function queuedTransactions(bytes32 hash) external view returns (bool);\n    function queueTransaction(address target, uint value, string calldata signature, bytes calldata data, uint eta) external returns (bytes32);\n    function cancelTransaction(address target, uint value, string calldata signature, bytes calldata data, uint eta) external;\n    function executeTransaction(address target, uint value, string calldata signature, bytes calldata data, uint eta) external payable returns (bytes memory);\n}\n\ninterface CompInterface {\n    function getPriorVotes(address account, uint blockNumber) external view returns (uint96);\n}\n",
  "sourcePath": "/Users/janliphardt/Documents/GitHub/optimism-v2/boba_community/governance/contracts/GovernorBravoInterfaces.sol",
  "compiler": {
    "name": "solc",
    "version": "0.5.16"
  },
  "schemaVersion": "3.4.3",
  "updatedAt": "2021-10-12T03:14:16.069Z",
  "devdoc": {
    "methods": {},
    "title": "Storage for Governor Bravo Delegate"
  },
  "userdoc": {
    "methods": {},
    "notice": "For future upgrades, do not change GovernorBravoDelegateStorageV1. Create a new contract which implements GovernorBravoDelegateStorageV1 and following the naming convention GovernorBravoDelegateStorageVX."
  }
}