{
  "_format": "hh-sol-artifact-1",
  "contractName": "TwitterPay",
  "sourceName": "contracts/TwitterPay.sol",
  "abi": [
    {
      "inputs": [
        {
          "internalType": "string",
          "name": "apiUrl_",
          "type": "string"
        },
        {
          "internalType": "address",
          "name": "turingHelper_",
          "type": "address"
        },
        {
          "internalType": "uint256",
          "name": "maxRegistersPerEpoch_",
          "type": "uint256"
        }
      ],
      "stateMutability": "nonpayable",
      "type": "constructor"
    },
    {
      "anonymous": false,
      "inputs": [
        {
          "indexed": false,
          "internalType": "uint256",
          "name": "authorId",
          "type": "uint256"
        },
        {
          "indexed": false,
          "internalType": "uint256",
          "name": "bobaBubble",
          "type": "uint256"
        }
      ],
      "name": "BubbleRegistered",
      "type": "event"
    },
    {
      "anonymous": false,
      "inputs": [
        {
          "indexed": true,
          "internalType": "address",
          "name": "previousOwner",
          "type": "address"
        },
        {
          "indexed": true,
          "internalType": "address",
          "name": "newOwner",
          "type": "address"
        }
      ],
      "name": "OwnershipTransferred",
      "type": "event"
    },
    {
      "inputs": [],
      "name": "amountRegistersInLastEpoch",
      "outputs": [
        {
          "internalType": "uint256",
          "name": "",
          "type": "uint256"
        }
      ],
      "stateMutability": "view",
      "type": "function"
    },
    {
      "inputs": [],
      "name": "apiUrl",
      "outputs": [
        {
          "internalType": "string",
          "name": "",
          "type": "string"
        }
      ],
      "stateMutability": "view",
      "type": "function"
    },
    {
      "inputs": [
        {
          "internalType": "uint256",
          "name": "",
          "type": "uint256"
        }
      ],
      "name": "bubbleRegister",
      "outputs": [
        {
          "internalType": "address",
          "name": "",
          "type": "address"
        }
      ],
      "stateMutability": "view",
      "type": "function"
    },
    {
      "inputs": [
        {
          "internalType": "address",
          "name": "from",
          "type": "address"
        }
      ],
      "name": "getNonce",
      "outputs": [
        {
          "internalType": "uint256",
          "name": "",
          "type": "uint256"
        }
      ],
      "stateMutability": "view",
      "type": "function"
    },
    {
      "inputs": [],
      "name": "lastEpochStart",
      "outputs": [
        {
          "internalType": "uint256",
          "name": "",
          "type": "uint256"
        }
      ],
      "stateMutability": "view",
      "type": "function"
    },
    {
      "inputs": [],
      "name": "maxRegistersPerEpoch",
      "outputs": [
        {
          "internalType": "uint256",
          "name": "",
          "type": "uint256"
        }
      ],
      "stateMutability": "view",
      "type": "function"
    },
    {
      "inputs": [],
      "name": "owner",
      "outputs": [
        {
          "internalType": "address",
          "name": "",
          "type": "address"
        }
      ],
      "stateMutability": "view",
      "type": "function"
    },
    {
      "inputs": [
        {
          "internalType": "string",
          "name": "twitterPostID_",
          "type": "string"
        }
      ],
      "name": "registerBobaBubble",
      "outputs": [],
      "stateMutability": "nonpayable",
      "type": "function"
    },
    {
      "inputs": [],
      "name": "renounceOwnership",
      "outputs": [],
      "stateMutability": "nonpayable",
      "type": "function"
    },
    {
      "inputs": [
        {
          "internalType": "address",
          "name": "token_",
          "type": "address"
        },
        {
          "internalType": "uint256",
          "name": "bobaBubble_",
          "type": "uint256"
        },
        {
          "internalType": "uint256",
          "name": "amount_",
          "type": "uint256"
        }
      ],
      "name": "sendFunds",
      "outputs": [],
      "stateMutability": "nonpayable",
      "type": "function"
    },
    {
      "inputs": [
        {
          "internalType": "address",
          "name": "token_",
          "type": "address"
        },
        {
          "internalType": "address",
          "name": "from_",
          "type": "address"
        },
        {
          "internalType": "uint256",
          "name": "bobaBubble_",
          "type": "uint256"
        },
        {
          "internalType": "uint256",
          "name": "amount_",
          "type": "uint256"
        },
        {
          "internalType": "bytes32",
          "name": "hashedMessage_",
          "type": "bytes32"
        },
        {
          "internalType": "bytes",
          "name": "signature_",
          "type": "bytes"
        }
      ],
      "name": "sendFundsMeta",
      "outputs": [],
      "stateMutability": "nonpayable",
      "type": "function"
    },
    {
      "inputs": [
        {
          "internalType": "string",
          "name": "apiUrl_",
          "type": "string"
        },
        {
          "internalType": "uint256",
          "name": "maxRegistersPerEpoch_",
          "type": "uint256"
        }
      ],
      "name": "setConfig",
      "outputs": [],
      "stateMutability": "nonpayable",
      "type": "function"
    },
    {
      "inputs": [
        {
          "internalType": "address",
          "name": "newOwner",
          "type": "address"
        }
      ],
      "name": "transferOwnership",
      "outputs": [],
      "stateMutability": "nonpayable",
      "type": "function"
    },
    {
      "inputs": [],
      "name": "turingHelper",
      "outputs": [
        {
          "internalType": "contract ITuringHelper",
          "name": "",
          "type": "address"
        }
      ],
      "stateMutability": "view",
      "type": "function"
    },
    {
      "inputs": [
        {
          "internalType": "uint256",
          "name": "",
          "type": "uint256"
        }
      ],
      "name": "twitterRegister",
      "outputs": [
        {
          "internalType": "bool",
          "name": "",
          "type": "bool"
        }
      ],
      "stateMutability": "view",
      "type": "function"
    },
    {
      "inputs": [
        {
          "internalType": "bytes32",
          "name": "_hashedMessage",
          "type": "bytes32"
        },
        {
          "internalType": "bytes",
          "name": "signature",
          "type": "bytes"
        }
      ],
      "name": "verifyMessage",
      "outputs": [
        {
          "internalType": "address",
          "name": "",
          "type": "address"
        }
      ],
      "stateMutability": "pure",
      "type": "function"
    },
    {
      "inputs": [],
      "name": "withdraw",
      "outputs": [],
      "stateMutability": "nonpayable",
      "type": "function"
    },
    {
      "stateMutability": "payable",
      "type": "receive"
    }
  ],
  "bytecode": "0x60806040523480156200001157600080fd5b5060405162001d1238038062001d128339810160408190526200003491620001b2565b6200003f3362000089565b825162000054906001906020860190620000d9565b50600280546001600160a01b0319166001600160a01b03939093169290921790915542600555600060065560075550620002e9565b600080546001600160a01b038381166001600160a01b0319831681178455604051919092169283917f8be0079c531659141344cd1fd0a4f28419497f9722a3daafe3b4186f6b6457e09190a35050565b828054620000e790620002ac565b90600052602060002090601f0160209004810192826200010b576000855562000156565b82601f106200012657805160ff191683800117855562000156565b8280016001018555821562000156579182015b828111156200015657825182559160200191906001019062000139565b506200016492915062000168565b5090565b5b8082111562000164576000815560010162000169565b634e487b7160e01b600052604160045260246000fd5b80516001600160a01b0381168114620001ad57600080fd5b919050565b600080600060608486031215620001c857600080fd5b83516001600160401b0380821115620001e057600080fd5b818601915086601f830112620001f557600080fd5b8151818111156200020a576200020a6200017f565b604051601f8201601f19908116603f011681019083821181831017156200023557620002356200017f565b816040528281526020935089848487010111156200025257600080fd5b600091505b8282101562000276578482018401518183018501529083019062000257565b82821115620002885760008484830101525b96506200029a91505086820162000195565b93505050604084015190509250925092565b600181811c90821680620002c157607f821691505b60208210811415620002e357634e487b7160e01b600052602260045260246000fd5b50919050565b611a1980620002f96000396000f3fe6080604052600436106101125760003560e01c80633e8f5b90116100a5578063881279e511610074578063d5bf91e311610059578063d5bf91e31461036e578063e9eff3c914610384578063f2fde38b146103a457600080fd5b8063881279e5146103005780638da5cb5b1461034357600080fd5b80633e8f5b901461027c57806341efaee91461029c578063715018a6146102c95780638367e120146102de57600080fd5b80632de520e5116100e15780632de520e5146101c25780633855f9e2146101e25780633b51be4b146102225780633ccfd60b1461026757600080fd5b8063034b69131461011e5780632781c4cb146101475780632ae8a2d21461015d5780632d0335ab1461017f57600080fd5b3661011957005b600080fd5b34801561012a57600080fd5b5061013460065481565b6040519081526020015b60405180910390f35b34801561015357600080fd5b5061013460075481565b34801561016957600080fd5b5061017d6101783660046112d7565b6103c4565b005b34801561018b57600080fd5b5061013461019a36600461130a565b73ffffffffffffffffffffffffffffffffffffffff1660009081526008602052604090205490565b3480156101ce57600080fd5b5061017d6101dd366004611412565b610519565b3480156101ee57600080fd5b506102126101fd36600461148c565b60046020526000908152604090205460ff1681565b604051901515815260200161013e565b34801561022e57600080fd5b5061024261023d3660046114a5565b610607565b60405173ffffffffffffffffffffffffffffffffffffffff909116815260200161013e565b34801561027357600080fd5b5061017d61066b565b34801561028857600080fd5b5061017d6102973660046114ec565b61071c565b3480156102a857600080fd5b506002546102429073ffffffffffffffffffffffffffffffffffffffff1681565b3480156102d557600080fd5b5061017d61079d565b3480156102ea57600080fd5b506102f3610810565b60405161013e919061159d565b34801561030c57600080fd5b5061024261031b36600461148c565b60036020526000908152604090205473ffffffffffffffffffffffffffffffffffffffff1681565b34801561034f57600080fd5b5060005473ffffffffffffffffffffffffffffffffffffffff16610242565b34801561037a57600080fd5b5061013460055481565b34801561039057600080fd5b5061017d61039f3660046115b0565b61089e565b3480156103b057600080fd5b5061017d6103bf36600461130a565b610ba4565b60008281526003602052604090205473ffffffffffffffffffffffffffffffffffffffff1661043a5760405162461bcd60e51b815260206004820152600e60248201527f556e6b6e6f776e20627562626c6500000000000000000000000000000000000060448201526064015b60405180910390fd5b73ffffffffffffffffffffffffffffffffffffffff83166323b872dd336000858152600360205260409081902054905160e084901b7fffffffff0000000000000000000000000000000000000000000000000000000016815273ffffffffffffffffffffffffffffffffffffffff92831660048201529116602482015260448101849052606401602060405180830381600087803b1580156104db57600080fd5b505af11580156104ef573d6000803e3d6000fd5b505050506040513d601f19601f820116820180604052508101906105139190611622565b50505050565b8473ffffffffffffffffffffffffffffffffffffffff1661053a8383610607565b73ffffffffffffffffffffffffffffffffffffffff161461059d5760405162461bcd60e51b815260206004820152601060248201527f5369676e6174757265206661756c7479000000000000000000000000000000006044820152606401610431565b73ffffffffffffffffffffffffffffffffffffffff85166000908152600860205260409020546105ce906001611673565b73ffffffffffffffffffffffffffffffffffffffff86166000908152600860205260409020556105ff8685856103c4565b505050505050565b6040517f19457468657265756d205369676e6564204d6573736167653a0a3332000000006020820152603c81018390526000908190605c0160408051601f19818403018152919052805160209091012090506106638184610c9d565b949350505050565b60005473ffffffffffffffffffffffffffffffffffffffff1633146106d25760405162461bcd60e51b815260206004820181905260248201527f4f776e61626c653a2063616c6c6572206973206e6f7420746865206f776e65726044820152606401610431565b6000805460405173ffffffffffffffffffffffffffffffffffffffff909116914780156108fc02929091818181858888f19350505050158015610719573d6000803e3d6000fd5b50565b60005473ffffffffffffffffffffffffffffffffffffffff1633146107835760405162461bcd60e51b815260206004820181905260248201527f4f776e61626c653a2063616c6c6572206973206e6f7420746865206f776e65726044820152606401610431565b8151610796906001906020850190611215565b5060075550565b60005473ffffffffffffffffffffffffffffffffffffffff1633146108045760405162461bcd60e51b815260206004820181905260248201527f4f776e61626c653a2063616c6c6572206973206e6f7420746865206f776e65726044820152606401610431565b61080e6000610cc1565b565b6001805461081d9061168b565b80601f01602080910402602001604051908101604052809291908181526020018280546108499061168b565b80156108965780601f1061086b57610100808354040283529160200191610896565b820191906000526020600020905b81548152906001019060200180831161087957829003601f168201915b505050505081565b6005546108ad90610e10611673565b42106108c1574260055560016006556108d7565b600680549060006108d1836116df565b91905055505b6007546006541061092a5760405162461bcd60e51b815260206004820152601260248201527f52617465206c696d6974207265616368656400000000000000000000000000006044820152606401610431565b600033838360405160200161094193929190611718565b60408051601f19818403018152908290526002547f2f7adf4300000000000000000000000000000000000000000000000000000000835290925060009182918291829173ffffffffffffffffffffffffffffffffffffffff1690632f7adf43906109b2906001908990600401611764565b600060405180830381600087803b1580156109cc57600080fd5b505af11580156109e0573d6000803e3d6000fd5b505050506040513d6000823e601f3d908101601f19168201604052610a089190810190611857565b806020019051810190610a1b91906118c5565b600083815260046020526040902054939750919550935091508415159060ff1615610a885760405162461bcd60e51b815260206004820152601460248201527f5477697474657220616c726561647920757365640000000000000000000000006044820152606401610431565b80610a9284610d36565b604051602001610aa291906118fb565b60405160208183030381529060405290610acf5760405162461bcd60e51b8152600401610431919061159d565b50600084815260046020526040902080547fffffffffffffffffffffffffffffffffffffffffffffffffffffffffffffff00166001179055610b0e3390565b60008381526003602090815260409182902080547fffffffffffffffffffffffff00000000000000000000000000000000000000001673ffffffffffffffffffffffffffffffffffffffff949094169390931790925580518681529182018490527f6a550fe7e22cef8c37974c9923b3a90964b85326479cc6b2a9b0e70ae0e54a2a910160405180910390a15050505050505050565b60005473ffffffffffffffffffffffffffffffffffffffff163314610c0b5760405162461bcd60e51b815260206004820181905260248201527f4f776e61626c653a2063616c6c6572206973206e6f7420746865206f776e65726044820152606401610431565b73ffffffffffffffffffffffffffffffffffffffff8116610c945760405162461bcd60e51b815260206004820152602660248201527f4f776e61626c653a206e6577206f776e657220697320746865207a65726f206160448201527f64647265737300000000000000000000000000000000000000000000000000006064820152608401610431565b61071981610cc1565b6000806000610cac8585610e68565b91509150610cb981610ed8565b509392505050565b6000805473ffffffffffffffffffffffffffffffffffffffff8381167fffffffffffffffffffffffff0000000000000000000000000000000000000000831681178455604051919092169283917f8be0079c531659141344cd1fd0a4f28419497f9722a3daafe3b4186f6b6457e09190a35050565b606081610d7657505060408051808201909152600181527f3000000000000000000000000000000000000000000000000000000000000000602082015290565b8160005b8115610da05780610d8a816116df565b9150610d999050600a8361196f565b9150610d7a565b60008167ffffffffffffffff811115610dbb57610dbb61132c565b6040519080825280601f01601f191660200182016040528015610de5576020820181803683370190505b5090505b841561066357610dfa600183611983565b9150610e07600a8661199a565b610e12906030611673565b60f81b818381518110610e2757610e276119ae565b60200101907effffffffffffffffffffffffffffffffffffffffffffffffffffffffffffff1916908160001a905350610e61600a8661196f565b9450610de9565b600080825160411415610e9f5760208301516040840151606085015160001a610e93878285856110c9565b94509450505050610ed1565b825160401415610ec95760208301516040840151610ebe8683836111c3565b935093505050610ed1565b506000905060025b9250929050565b6000816004811115610eec57610eec6119dd565b1415610ef55750565b6001816004811115610f0957610f096119dd565b1415610f575760405162461bcd60e51b815260206004820152601860248201527f45434453413a20696e76616c6964207369676e617475726500000000000000006044820152606401610431565b6002816004811115610f6b57610f6b6119dd565b1415610fb95760405162461bcd60e51b815260206004820152601f60248201527f45434453413a20696e76616c6964207369676e6174757265206c656e677468006044820152606401610431565b6003816004811115610fcd57610fcd6119dd565b14156110415760405162461bcd60e51b815260206004820152602260248201527f45434453413a20696e76616c6964207369676e6174757265202773272076616c60448201527f75650000000000000000000000000000000000000000000000000000000000006064820152608401610431565b6004816004811115611055576110556119dd565b14156107195760405162461bcd60e51b815260206004820152602260248201527f45434453413a20696e76616c6964207369676e6174757265202776272076616c60448201527f75650000000000000000000000000000000000000000000000000000000000006064820152608401610431565b6000807f7fffffffffffffffffffffffffffffff5d576e7357a4501ddfe92f46681b20a083111561110057506000905060036111ba565b8460ff16601b1415801561111857508460ff16601c14155b1561112957506000905060046111ba565b6040805160008082526020820180845289905260ff881692820192909252606081018690526080810185905260019060a0016020604051602081039080840390855afa15801561117d573d6000803e3d6000fd5b5050604051601f19015191505073ffffffffffffffffffffffffffffffffffffffff81166111b3576000600192509250506111ba565b9150600090505b94509492505050565b6000807f7fffffffffffffffffffffffffffffffffffffffffffffffffffffffffffffff8316816111f960ff86901c601b611673565b9050611207878288856110c9565b935093505050935093915050565b8280546112219061168b565b90600052602060002090601f0160209004810192826112435760008555611289565b82601f1061125c57805160ff1916838001178555611289565b82800160010185558215611289579182015b8281111561128957825182559160200191906001019061126e565b50611295929150611299565b5090565b5b80821115611295576000815560010161129a565b803573ffffffffffffffffffffffffffffffffffffffff811681146112d257600080fd5b919050565b6000806000606084860312156112ec57600080fd5b6112f5846112ae565b95602085013595506040909401359392505050565b60006020828403121561131c57600080fd5b611325826112ae565b9392505050565b7f4e487b7100000000000000000000000000000000000000000000000000000000600052604160045260246000fd5b604051601f8201601f1916810167ffffffffffffffff811182821017156113845761138461132c565b604052919050565b600067ffffffffffffffff8211156113a6576113a661132c565b50601f01601f191660200190565b60006113c76113c28461138c565b61135b565b90508281528383830111156113db57600080fd5b828260208301376000602084830101529392505050565b600082601f83011261140357600080fd5b611325838335602085016113b4565b60008060008060008060c0878903121561142b57600080fd5b611434876112ae565b9550611442602088016112ae565b945060408701359350606087013592506080870135915060a087013567ffffffffffffffff81111561147357600080fd5b61147f89828a016113f2565b9150509295509295509295565b60006020828403121561149e57600080fd5b5035919050565b600080604083850312156114b857600080fd5b82359150602083013567ffffffffffffffff8111156114d657600080fd5b6114e2858286016113f2565b9150509250929050565b600080604083850312156114ff57600080fd5b823567ffffffffffffffff81111561151657600080fd5b8301601f8101851361152757600080fd5b611536858235602084016113b4565b95602094909401359450505050565b60005b83811015611560578181015183820152602001611548565b838111156105135750506000910152565b60008151808452611589816020860160208601611545565b601f01601f19169290920160200192915050565b6020815260006113256020830184611571565b600080602083850312156115c357600080fd5b823567ffffffffffffffff808211156115db57600080fd5b818501915085601f8301126115ef57600080fd5b8135818111156115fe57600080fd5b86602082850101111561161057600080fd5b60209290920196919550909350505050565b60006020828403121561163457600080fd5b8151801515811461132557600080fd5b7f4e487b7100000000000000000000000000000000000000000000000000000000600052601160045260246000fd5b6000821982111561168657611686611644565b500190565b600181811c9082168061169f57607f821691505b602082108114156116d9577f4e487b7100000000000000000000000000000000000000000000000000000000600052602260045260246000fd5b50919050565b60007fffffffffffffffffffffffffffffffffffffffffffffffffffffffffffffffff82141561171157611711611644565b5060010190565b73ffffffffffffffffffffffffffffffffffffffff8416815260406020820152816040820152818360608301376000818301606090810191909152601f909201601f1916010192915050565b60408152600080845481600182811c91508083168061178457607f831692505b60208084108214156117bd577f4e487b710000000000000000000000000000000000000000000000000000000086526022600452602486fd5b60408801849052606088018280156117dc576001811461180b57611836565b7fffffffffffffffffffffffffffffffffffffffffffffffffffffffffffffff00871682528282019750611836565b60008c81526020902060005b8781101561183057815484820152908601908401611817565b83019850505b505087860381890152505050505061184e8185611571565b95945050505050565b60006020828403121561186957600080fd5b815167ffffffffffffffff81111561188057600080fd5b8201601f8101841361189157600080fd5b805161189f6113c28261138c565b8181528560208385010111156118b457600080fd5b61184e826020830160208601611545565b600080600080608085870312156118db57600080fd5b505082516020840151604085015160609095015191969095509092509050565b7f496e76616c696420726571756573743a00000000000000000000000000000000815260008251611933816010850160208701611545565b9190910160100192915050565b7f4e487b7100000000000000000000000000000000000000000000000000000000600052601260045260246000fd5b60008261197e5761197e611940565b500490565b60008282101561199557611995611644565b500390565b6000826119a9576119a9611940565b500690565b7f4e487b7100000000000000000000000000000000000000000000000000000000600052603260045260246000fd5b7f4e487b7100000000000000000000000000000000000000000000000000000000600052602160045260246000fdfea164736f6c6343000809000a",
  "linkReferences": {},
  "deployedLinkReferences": {}
}