{
  "_format": "hh-sol-artifact-1",
  "contractName": "ERC721Registry",
  "sourceName": "contracts/ERC721Registry.sol",
  "abi": [
    {
      "inputs": [],
      "stateMutability": "nonpayable",
      "type": "constructor"
    },
    {
      "anonymous": false,
      "inputs": [
        {
          "indexed": true,
          "internalType": "address",
          "name": "walletAddress",
          "type": "address"
        },
        {
          "indexed": true,
          "internalType": "address",
          "name": "NFTContractAddress",
          "type": "address"
        }
      ],
      "name": "AddressRegistered",
      "type": "event"
    },
    {
      "inputs": [
        {
          "internalType": "address",
          "name": "walletAddress",
          "type": "address"
        }
      ],
      "name": "lookupAddress",
      "outputs": [
        {
          "internalType": "address[]",
          "name": "",
          "type": "address[]"
        }
      ],
      "stateMutability": "view",
      "type": "function"
    },
    {
      "inputs": [
        {
          "internalType": "address",
          "name": "walletAddress",
          "type": "address"
        },
        {
          "internalType": "address",
          "name": "NFTContractAddress",
          "type": "address"
        }
      ],
      "name": "registerAddress",
      "outputs": [],
      "stateMutability": "nonpayable",
      "type": "function"
    }
  ],
  "bytecode": "0x60806040523480156100195760008061001661001f565b50505b5061008d565b632a2a7adb598160e01b8152600481016020815285602082015260005b8681101561005a57808601518160408401015260208101905061003c565b506020828760640184336000905af158600e01573d6000803e3d6000fd5b3d6001141558600a015760016000f35b505050565b6104968061009c6000396000f3fe608060405234801561001957600080610016610360565b50505b506004361061003f5760003560e01c806331b0795c1461004d578063d79582f6146100ba575b60008061004a610360565b50505b6100b86004803603604081101561006c57600080610069610360565b50505b81019080803573ffffffffffffffffffffffffffffffffffffffff169060200190929190803573ffffffffffffffffffffffffffffffffffffffff16906020019092919050505061015c565b005b610105600480360360208110156100d9576000806100d6610360565b50505b81019080803573ffffffffffffffffffffffffffffffffffffffff16906020019092919050505061027c565b6040518080602001828103825283818151815260200191508051906020019060200280838360005b8381101561014857808201518184015260208101905061012d565b505050509050019250505060405180910390f35b6000808373ffffffffffffffffffffffffffffffffffffffff1673ffffffffffffffffffffffffffffffffffffffff1681526020019081526020016000206000018190806001816101ab6103ce565b0180826101b6610431565b505080915050600190039060005260206000200160009091909190916101000a816101df6103ce565b8173ffffffffffffffffffffffffffffffffffffffff021916908373ffffffffffffffffffffffffffffffffffffffff1602179061021b610431565b5050508073ffffffffffffffffffffffffffffffffffffffff168273ffffffffffffffffffffffffffffffffffffffff167f72b627b4904fa8a0160a923aa5b142eb19f6e56dc75017884162206f8886df0960405160405180910390a35050565b60606000808373ffffffffffffffffffffffffffffffffffffffff1673ffffffffffffffffffffffffffffffffffffffff168152602001908152602001600020600001806102c86103ce565b806020026020016040519081016040528092919081815260200182806102ec6103ce565b801561035457602002820191906000526020600020905b8160009061030f6103ce565b906101000a900473ffffffffffffffffffffffffffffffffffffffff1673ffffffffffffffffffffffffffffffffffffffff1681526020019060010190808311610303575b50505050509050919050565b632a2a7adb598160e01b8152600481016020815285602082015260005b8681101561039b57808601518160408401015260208101905061037d565b506020828760640184336000905af158600e01573d6000803e3d6000fd5b3d6001141558600a015760016000f35b505050565b6303daa959598160e01b8152836004820152602081602483336000905af158600e01573d6000803e3d6000fd5b3d6001141558600a015760016000f35b8051935060005b604081101561042c57600081830152602081019050610412565b505050565b6322bd64c0598160e01b8152836004820152846024820152600081604483336000905af158600e01573d6000803e3d6000fd5b3d6001141558600a015760016000f35b60005b604081101561049157600081830152602081019050610477565b50505056",
  "linkReferences": {},
  "deployedLinkReferences": {}
}