{
  "_format": "hh-sol-artifact-1",
  "contractName": "Subscription",
  "sourceName": "contracts/oracle/payment/Subscription.sol",
  "abi": [
    {
      "inputs": [
        {
          "internalType": "address",
          "name": "_bobaTokenAddress",
          "type": "address"
        },
        {
          "internalType": "uint256",
          "name": "_paymentPerSecondLocalAccess",
          "type": "uint256"
        },
        {
          "internalType": "uint256",
          "name": "_paymentPerSecondGlobalAccess",
          "type": "uint256"
        },
        {
          "internalType": "uint256",
          "name": "_minSubscriptionPeriod",
          "type": "uint256"
        }
      ],
      "stateMutability": "nonpayable",
      "type": "constructor"
    },
    {
      "anonymous": false,
      "inputs": [
        {
          "indexed": false,
          "internalType": "address",
          "name": "user",
          "type": "address"
        },
        {
          "indexed": false,
          "internalType": "bytes",
          "name": "data",
          "type": "bytes"
        },
        {
          "indexed": false,
          "internalType": "address",
          "name": "sender",
          "type": "address"
        },
        {
          "indexed": false,
          "internalType": "uint256",
          "name": "updatedExpiryTime",
          "type": "uint256"
        }
      ],
      "name": "AccessAdded",
      "type": "event"
    },
    {
      "anonymous": false,
      "inputs": [],
      "name": "CheckAccessDisabled",
      "type": "event"
    },
    {
      "anonymous": false,
      "inputs": [],
      "name": "CheckAccessEnabled",
      "type": "event"
    },
    {
      "anonymous": false,
      "inputs": [
        {
          "indexed": false,
          "internalType": "address",
          "name": "recipient",
          "type": "address"
        },
        {
          "indexed": false,
          "internalType": "uint256",
          "name": "amount",
          "type": "uint256"
        }
      ],
      "name": "OwnerWithdrawFunds",
      "type": "event"
    },
    {
      "anonymous": false,
      "inputs": [
        {
          "indexed": true,
          "internalType": "address",
          "name": "from",
          "type": "address"
        },
        {
          "indexed": true,
          "internalType": "address",
          "name": "to",
          "type": "address"
        }
      ],
      "name": "OwnershipTransferRequested",
      "type": "event"
    },
    {
      "anonymous": false,
      "inputs": [
        {
          "indexed": true,
          "internalType": "address",
          "name": "from",
          "type": "address"
        },
        {
          "indexed": true,
          "internalType": "address",
          "name": "to",
          "type": "address"
        }
      ],
      "name": "OwnershipTransferred",
      "type": "event"
    },
    {
      "anonymous": false,
      "inputs": [
        {
          "indexed": false,
          "internalType": "uint256",
          "name": "paymentLocalAccess",
          "type": "uint256"
        },
        {
          "indexed": false,
          "internalType": "uint256",
          "name": "paymentGlobalAccess",
          "type": "uint256"
        },
        {
          "indexed": false,
          "internalType": "uint256",
          "name": "minSubscription",
          "type": "uint256"
        }
      ],
      "name": "SubscriptionCostUpdated",
      "type": "event"
    },
    {
      "inputs": [],
      "name": "acceptOwnership",
      "outputs": [],
      "stateMutability": "nonpayable",
      "type": "function"
    },
    {
      "inputs": [
        {
          "internalType": "address",
          "name": "user",
          "type": "address"
        },
        {
          "internalType": "uint256",
          "name": "expiryTime",
          "type": "uint256"
        }
      ],
      "name": "addGlobalAccess",
      "outputs": [],
      "stateMutability": "nonpayable",
      "type": "function"
    },
    {
      "inputs": [
        {
          "internalType": "address",
          "name": "user",
          "type": "address"
        },
        {
          "internalType": "bytes",
          "name": "data",
          "type": "bytes"
        },
        {
          "internalType": "uint256",
          "name": "expiryTime",
          "type": "uint256"
        }
      ],
      "name": "addLocalAccess",
      "outputs": [],
      "stateMutability": "nonpayable",
      "type": "function"
    },
    {
      "inputs": [],
      "name": "bobaTokenAddress",
      "outputs": [
        {
          "internalType": "address",
          "name": "",
          "type": "address"
        }
      ],
      "stateMutability": "view",
      "type": "function"
    },
    {
      "inputs": [],
      "name": "checkEnabled",
      "outputs": [
        {
          "internalType": "bool",
          "name": "",
          "type": "bool"
        }
      ],
      "stateMutability": "view",
      "type": "function"
    },
    {
      "inputs": [],
      "name": "disableAccessCheck",
      "outputs": [],
      "stateMutability": "nonpayable",
      "type": "function"
    },
    {
      "inputs": [],
      "name": "enableAccessCheck",
      "outputs": [],
      "stateMutability": "nonpayable",
      "type": "function"
    },
    {
      "inputs": [
        {
          "internalType": "address",
          "name": "account",
          "type": "address"
        },
        {
          "internalType": "bytes",
          "name": "data",
          "type": "bytes"
        }
      ],
      "name": "hasAccess",
      "outputs": [
        {
          "internalType": "bool",
          "name": "",
          "type": "bool"
        }
      ],
      "stateMutability": "view",
      "type": "function"
    },
    {
      "inputs": [],
      "name": "minSubscriptionPeriod",
      "outputs": [
        {
          "internalType": "uint256",
          "name": "",
          "type": "uint256"
        }
      ],
      "stateMutability": "view",
      "type": "function"
    },
    {
      "inputs": [],
      "name": "owner",
      "outputs": [
        {
          "internalType": "address",
          "name": "",
          "type": "address"
        }
      ],
      "stateMutability": "view",
      "type": "function"
    },
    {
      "inputs": [],
      "name": "paymentPerSecondGlobalAccess",
      "outputs": [
        {
          "internalType": "uint256",
          "name": "",
          "type": "uint256"
        }
      ],
      "stateMutability": "view",
      "type": "function"
    },
    {
      "inputs": [],
      "name": "paymentPerSecondLocalAccess",
      "outputs": [
        {
          "internalType": "uint256",
          "name": "",
          "type": "uint256"
        }
      ],
      "stateMutability": "view",
      "type": "function"
    },
    {
      "inputs": [
        {
          "internalType": "address",
          "name": "user",
          "type": "address"
        },
        {
          "internalType": "uint256",
          "name": "subscriptionPeriod",
          "type": "uint256"
        }
      ],
      "name": "subscribeGlobalAccess",
      "outputs": [],
      "stateMutability": "nonpayable",
      "type": "function"
    },
    {
      "inputs": [
        {
          "internalType": "address",
          "name": "user",
          "type": "address"
        },
        {
          "internalType": "bytes",
          "name": "data",
          "type": "bytes"
        },
        {
          "internalType": "uint256",
          "name": "subscriptionPeriod",
          "type": "uint256"
        }
      ],
      "name": "subscribeLocalAccess",
      "outputs": [],
      "stateMutability": "nonpayable",
      "type": "function"
    },
    {
      "inputs": [
        {
          "internalType": "address",
          "name": "_to",
          "type": "address"
        }
      ],
      "name": "transferOwnership",
      "outputs": [],
      "stateMutability": "nonpayable",
      "type": "function"
    },
    {
      "inputs": [
        {
          "internalType": "uint256",
          "name": "_paymentPerSecondLocalAccess",
          "type": "uint256"
        },
        {
          "internalType": "uint256",
          "name": "_paymentPerSecondGlobalAccess",
          "type": "uint256"
        },
        {
          "internalType": "uint256",
          "name": "_minSubscriptionPeriod",
          "type": "uint256"
        }
      ],
      "name": "updateSubscriptionCost",
      "outputs": [],
      "stateMutability": "nonpayable",
      "type": "function"
    },
    {
      "inputs": [
        {
          "internalType": "address",
          "name": "recipient",
          "type": "address"
        },
        {
          "internalType": "uint256",
          "name": "amount",
          "type": "uint256"
        }
      ],
      "name": "withdrawFunds",
      "outputs": [],
      "stateMutability": "nonpayable",
      "type": "function"
    }
  ],
  "bytecode": "0x60806040526001805460ff60a01b1916600160a01b17905534801561002357600080fd5b5060405161184f38038061184f8339818101604052608081101561004657600080fd5b50805160208201516040830151606090930151600080546001600160a01b03191633179055919290916001600160a01b0384166100ca576040805162461bcd60e51b815260206004820152601860248201527f7a65726f2061646472657373206e6f7420616c6c6f7765640000000000000000604482015290519081900360640190fd5b8061011c576040805162461bcd60e51b815260206004820152601f60248201527f6d696e20737562736372697074696f6e2063616e6e6f74206265207a65726f00604482015290519081900360640190fd5b600480546001600160a01b0319166001600160a01b03861617905561014283838361014b565b5050505061019f565b600583905560068290556007819055604080518481526020810184905280820183905290517f2443cfac9e2d9a7273ee357ab9effe5860eaf4c3c7c3b0835d9790148b0387329181900360600190a1505050565b6116a1806101ae6000396000f3fe608060405234801561001057600080fd5b506004361061011b5760003560e01c80638da5cb5b116100b2578063cbeb06c211610081578063ddf6b09611610066578063ddf6b096146103f3578063e9a7f5ff1461042c578063f2fde38b146104345761011b565b8063cbeb06c2146103e3578063dc7f0124146103eb5761011b565b80638da5cb5b14610288578063b2d985d414610290578063ba0d31411461031d578063c1075329146103aa5761011b565b80636b14daf8116100ee5780636b14daf8146101a657806379ba5097146102475780637e76a1761461024f5780638038e4a1146102805761011b565b80630a756983146101205780633e9341771461012a5780636667b2c314610144578063687b247a1461016d575b600080fd5b610128610467565b005b6101326104dd565b60408051918252519081900360200190f35b6101286004803603606081101561015a57600080fd5b50803590602081013590604001356104e3565b6101286004803603604081101561018357600080fd5b5073ffffffffffffffffffffffffffffffffffffffff813516906020013561055f565b610233600480360360408110156101bc57600080fd5b73ffffffffffffffffffffffffffffffffffffffff82351691908101906040810160208201356401000000008111156101f457600080fd5b82018360208201111561020657600080fd5b8035906020019184600183028401116401000000008311171561022857600080fd5b50909250905061071f565b604080519115158252519081900360200190f35b6101286107aa565b610257610892565b6040805173ffffffffffffffffffffffffffffffffffffffff9092168252519081900360200190f35b6101286108ae565b610257610922565b610128600480360360608110156102a657600080fd5b73ffffffffffffffffffffffffffffffffffffffff82351691908101906040810160208201356401000000008111156102de57600080fd5b8201836020820111156102f057600080fd5b8035906020019184600183028401116401000000008311171561031257600080fd5b91935091503561093e565b6101286004803603606081101561033357600080fd5b73ffffffffffffffffffffffffffffffffffffffff823516919081019060408101602082013564010000000081111561036b57600080fd5b82018360208201111561037d57600080fd5b8035906020019184600183028401116401000000008311171561039f57600080fd5b919350915035610b62565b610128600480360360408110156103c057600080fd5b5073ffffffffffffffffffffffffffffffffffffffff8135169060200135610c16565b610132610dd4565b610233610dda565b6101286004803603604081101561040957600080fd5b5073ffffffffffffffffffffffffffffffffffffffff8135169060200135610dfb565b610132610e75565b6101286004803603602081101561044a57600080fd5b503573ffffffffffffffffffffffffffffffffffffffff16610e7b565b60005473ffffffffffffffffffffffffffffffffffffffff1633146104d3576040805162461bcd60e51b815260206004820152601660248201527f4f6e6c792063616c6c61626c65206279206f776e657200000000000000000000604482015290519081900360640190fd5b6104db610f5d565b565b60065481565b60005473ffffffffffffffffffffffffffffffffffffffff16331461054f576040805162461bcd60e51b815260206004820152601660248201527f4f6e6c792063616c6c61626c65206279206f776e657200000000000000000000604482015290519081900360640190fd5b61055a838383610fd3565b505050565b6007548110156105a05760405162461bcd60e51b815260040180806020018281038252602181526020018061162a6021913960400191505060405180910390fd5b6006546000906105b6908363ffffffff61102716565b60048054604080517f23b872dd0000000000000000000000000000000000000000000000000000000081523393810193909352306024840152604483018490525192935073ffffffffffffffffffffffffffffffffffffffff16916323b872dd916064808201926020929091908290030181600087803b15801561063957600080fd5b505af115801561064d573d6000803e3d6000fd5b505050506040513d602081101561066357600080fd5b50516106b6576040805162461bcd60e51b815260206004820152601560248201527f746f6b656e207472616e73666572206661696c65640000000000000000000000604482015290519081900360640190fd5b73ffffffffffffffffffffffffffffffffffffffff8316600090815260026020526040812054904282106106fb576106f4828563ffffffff61108916565b905061070e565b61070b428563ffffffff61108916565b90505b61071885826110e3565b5050505050565b600080806107308460048188611601565b604081101561073e57600080fd5b506040805173ffffffffffffffffffffffffffffffffffffffff83358116602083810182905290940135168183018190528251808303840181526060929092019092529193509150610790878261118a565b8061079f575061079f876112c8565b979650505050505050565b60015473ffffffffffffffffffffffffffffffffffffffff163314610816576040805162461bcd60e51b815260206004820152601660248201527f4d7573742062652070726f706f736564206f776e657200000000000000000000604482015290519081900360640190fd5b60008054337fffffffffffffffffffffffff00000000000000000000000000000000000000008083168217845560018054909116905560405173ffffffffffffffffffffffffffffffffffffffff90921692909183917f8be0079c531659141344cd1fd0a4f28419497f9722a3daafe3b4186f6b6457e091a350565b60045473ffffffffffffffffffffffffffffffffffffffff1681565b60005473ffffffffffffffffffffffffffffffffffffffff16331461091a576040805162461bcd60e51b815260206004820152601660248201527f4f6e6c792063616c6c61626c65206279206f776e657200000000000000000000604482015290519081900360640190fd5b6104db6112e6565b60005473ffffffffffffffffffffffffffffffffffffffff1681565b60075481101561097f5760405162461bcd60e51b815260040180806020018281038252602181526020018061162a6021913960400191505060405180910390fd5b600554600090610995908363ffffffff61102716565b60048054604080517f23b872dd0000000000000000000000000000000000000000000000000000000081523393810193909352306024840152604483018490525192935073ffffffffffffffffffffffffffffffffffffffff16916323b872dd916064808201926020929091908290030181600087803b158015610a1857600080fd5b505af1158015610a2c573d6000803e3d6000fd5b505050506040513d6020811015610a4257600080fd5b5051610a95576040805162461bcd60e51b815260206004820152601560248201527f746f6b656e207472616e73666572206661696c65640000000000000000000000604482015290519081900360640190fd5b73ffffffffffffffffffffffffffffffffffffffff851660009081526003602052604080822090518690869080838380828437808301925050509250505090815260200160405180910390205490506000428210610b0457610afd828563ffffffff61108916565b9050610b17565b610b14428563ffffffff61108916565b90505b610b598787878080601f016020809104026020016040519081016040528093929190818152602001838380828437600092019190915250869250611372915050565b50505050505050565b60005473ffffffffffffffffffffffffffffffffffffffff163314610bce576040805162461bcd60e51b815260206004820152601660248201527f4f6e6c792063616c6c61626c65206279206f776e657200000000000000000000604482015290519081900360640190fd5b610c108484848080601f016020809104026020016040519081016040528093929190818152602001838380828437600092019190915250869250611372915050565b50505050565b60005473ffffffffffffffffffffffffffffffffffffffff163314610c82576040805162461bcd60e51b815260206004820152601660248201527f4f6e6c792063616c6c61626c65206279206f776e657200000000000000000000604482015290519081900360640190fd5b60048054604080517fa9059cbb00000000000000000000000000000000000000000000000000000000815273ffffffffffffffffffffffffffffffffffffffff86811694820194909452602481018590529051929091169163a9059cbb916044808201926020929091908290030181600087803b158015610d0257600080fd5b505af1158015610d16573d6000803e3d6000fd5b505050506040513d6020811015610d2c57600080fd5b5051610d7f576040805162461bcd60e51b815260206004820152601560248201527f746f6b656e207472616e73666572206661696c65640000000000000000000000604482015290519081900360640190fd5b6040805173ffffffffffffffffffffffffffffffffffffffff841681526020810183905281517fbc57583e869b1c0424b5b1ebb94b85fa9c07492663b4605bfdc120ad9afd760b929181900390910190a15050565b60075481565b60015474010000000000000000000000000000000000000000900460ff1690565b60005473ffffffffffffffffffffffffffffffffffffffff163314610e67576040805162461bcd60e51b815260206004820152601660248201527f4f6e6c792063616c6c61626c65206279206f776e657200000000000000000000604482015290519081900360640190fd5b610e7182826110e3565b5050565b60055481565b60005473ffffffffffffffffffffffffffffffffffffffff163314610ee7576040805162461bcd60e51b815260206004820152601660248201527f4f6e6c792063616c6c61626c65206279206f776e657200000000000000000000604482015290519081900360640190fd5b600180547fffffffffffffffffffffffff00000000000000000000000000000000000000001673ffffffffffffffffffffffffffffffffffffffff83811691821790925560008054604051929316917fed8889f560326eb138920d842192f0eb3dd22b4f139c87a2c57538e05bae12789190a350565b60015474010000000000000000000000000000000000000000900460ff16156104db57600180547fffffffffffffffffffffff00ffffffffffffffffffffffffffffffffffffffff1690556040517f3be8a977a014527b50ae38adda80b56911c267328965c98ddc385d248f53963890600090a1565b600583905560068290556007819055604080518481526020810184905280820183905290517f2443cfac9e2d9a7273ee357ab9effe5860eaf4c3c7c3b0835d9790148b0387329181900360600190a1505050565b60008261103657506000611083565b8282028284828161104357fe5b04146110805760405162461bcd60e51b815260040180806020018281038252602181526020018061164b6021913960400191505060405180910390fd5b90505b92915050565b600082820183811015611080576040805162461bcd60e51b815260206004820152601b60248201527f536166654d6174683a206164646974696f6e206f766572666c6f770000000000604482015290519081900360640190fd5b73ffffffffffffffffffffffffffffffffffffffff8216600090815260026020526040902054811115610e715773ffffffffffffffffffffffffffffffffffffffff821660008181526002602090815260408083208590558051938452338482015260608401859052608091840182905290830191909152517fd94661ce242f8d5bcc31adafb2ea8da4bec10736b461d25d6d8aa812bee295a69181900360c00190a15050565b60015460009074010000000000000000000000000000000000000000900460ff1615806111dc575073ffffffffffffffffffffffffffffffffffffffff83166000908152600260205260409020544211155b80611080575042600360008573ffffffffffffffffffffffffffffffffffffffff1673ffffffffffffffffffffffffffffffffffffffff168152602001908152602001600020836040518082805190602001908083835b6020831061127057805182527fffffffffffffffffffffffffffffffffffffffffffffffffffffffffffffffe09092019160209182019101611233565b51815160209384036101000a7fffffffffffffffffffffffffffffffffffffffffffffffffffffffffffffffff0180199092169116179052920194855250604051938490030190922054929092101595945050505050565b73ffffffffffffffffffffffffffffffffffffffff81163214919050565b60015474010000000000000000000000000000000000000000900460ff166104db57600180547fffffffffffffffffffffff00ffffffffffffffffffffffffffffffffffffffff16740100000000000000000000000000000000000000001790556040517faebf329500988c6488a0074e5a0a9ff304561fc5c6fc877aeb1d59c8282c348090600090a1565b600360008473ffffffffffffffffffffffffffffffffffffffff1673ffffffffffffffffffffffffffffffffffffffff168152602001908152602001600020826040518082805190602001908083835b602083106113ff57805182527fffffffffffffffffffffffffffffffffffffffffffffffffffffffffffffffe090920191602091820191016113c2565b51815160209384036101000a7fffffffffffffffffffffffffffffffffffffffffffffffffffffffffffffffff0180199092169116179052920194855250604051938490030190922054831115915061055a90505780600360008573ffffffffffffffffffffffffffffffffffffffff1673ffffffffffffffffffffffffffffffffffffffff168152602001908152602001600020836040518082805190602001908083835b602083106114e257805182527fffffffffffffffffffffffffffffffffffffffffffffffffffffffffffffffe090920191602091820191016114a5565b51815160209384036101000a7fffffffffffffffffffffffffffffffffffffffffffffffffffffffffffffffff01801990921691161790529201948552506040805194859003820185209590955573ffffffffffffffffffffffffffffffffffffffff881684523394840185905260608401869052608084820181815288519186019190915287517fd94661ce242f8d5bcc31adafb2ea8da4bec10736b461d25d6d8aa812bee295a6968a968a9650909450889390929160a084019187019080838360005b838110156115bf5781810151838201526020016115a7565b50505050905090810190601f1680156115ec5780820380516001836020036101000a031916815260200191505b509550505050505060405180910390a1505050565b60008085851115611610578182fd5b8386111561161c578182fd5b505082019391909203915056fe537562736372697074696f6e20706572696f642062656c6f77206d696e696d756d536166654d6174683a206d756c7469706c69636174696f6e206f766572666c6f77a264697066735822122033f76838436eb3c6db049415d40474849203077fd55ea8da0f413421a49196cf64736f6c63430006060033",
  "linkReferences": {},
  "deployedLinkReferences": {}
}