{
  "_format": "hh-sol-artifact-1",
  "contractName": "OVM_SafetyChecker",
  "sourceName": "contracts/optimistic-ethereum/OVM/execution/OVM_SafetyChecker.sol",
  "abi": [
    {
      "inputs": [
        {
          "internalType": "bytes",
          "name": "_bytecode",
          "type": "bytes"
        }
      ],
      "name": "isBytecodeSafe",
      "outputs": [
        {
          "internalType": "bool",
          "name": "",
          "type": "bool"
        }
      ],
      "stateMutability": "pure",
      "type": "function"
    }
  ],
  "bytecode": "0x60806040525a61000d610027565b80156100215760008061001e610081565b50505b506100ec565b63a8c4c5ec598160e01b8152602081600483336000905af158600e01573d6000803e3d6000fd5b3d6001141558600a015760016000f35b8051935060005b604081101561007c57600082820152602001610065565b505050565b632a2a7adb598160e01b8152600481016020815285602082015260005b868110156100b957808601518282016040015260200161009e565b506020828760640184336000905af158600e01573d6000803e3d6000fd5b3d6001141558600a015760016000f35b505050565b610452806100fb6000396000f3fe60806040525a61000d61038d565b80156100215760008061001e6103e7565b50505b506004361061003c5760003560e01c8063a44eb59a1461004a575b6000806100476103e7565b50505b61011360048036036020811015610069576000806100666103e7565b50505b81019060208101813564010000000081111561008d5760008061008a6103e7565b50505b8201836020820111156100a8576000806100a56103e7565b50505b803590602001918460018302840111640100000000831117156100d3576000806100d06103e7565b50505b91908080601f0160208091040260200160405190810160405281815292919060208401838380828437600092019190915250929550610127945050505050565b604051901515815260200160405180910390f35b600080604051610100810160409081527e0101010101010101010101000000000101010101010101010101010101000082526b010101010101000000010100600160f81b016020808401919091526f0101010100000001010101010000000091830191909152630203040560e01b60608301527f0101010101010101010101010101010101010101010101010101010101010101608083015264010101010160d81b60a0830152600060c0830181905260e08301819052919250741fffffffff000000000f8f000063f000013fff0ffe916a40000000000000000000026117ff60f31b039163ffffffff60601b19919087018751810191505b600081518060001a88015160001a81811a89015160001a0181811a89015160001a0181811a89015160001a0181811a89015160001a0181811a89015160001a01928301921a90506001811b86811661037057808516610284575001605d1901610376565b8086166102c7575b600190920191825160001a915081605b14156102a7576102c2565b6001821b85166102ba57918101605e1901915b83831061028c575b610370565b816033141561035f5760008084519150602085015160d81c905060c082901c673350600060045af1141561030057600885019450610356565b817f336000905af158600e01573d6000803e3d6000fd5b3d6001141558600a01576014801561033357508064016000f35b145b1561034357602585019450610356565b60009a5050505050505050505050610388565b50505050610376565b600098505050505050505050610388565b50506001015b81811061022057600196505050505050505b919050565b63a8c4c5ec598160e01b8152602081600483336000905af158600e01573d6000803e3d6000fd5b3d6001141558600a015760016000f35b8051935060005b60408110156103e2576000828201526020016103cb565b505050565b632a2a7adb598160e01b8152600481016020815285602082015260005b8681101561041f578086015182820160400152602001610404565b506020828760640184336000905af158600e01573d6000803e3d6000fd5b3d6001141558600a015760016000f35b50505056",
  "linkReferences": {},
  "deployedLinkReferences": {}
}