{
  "_format": "hh-sol-artifact-1",
  "contractName": "L2GovernanceERC20",
  "sourceName": "contracts/standards/L2GovernanceERC20.sol",
  "abi": [
    {
      "inputs": [
        {
          "internalType": "address",
          "name": "_l2Bridge",
          "type": "address"
        },
        {
          "internalType": "address",
          "name": "_l1Token",
          "type": "address"
        },
        {
          "internalType": "string",
          "name": "_name",
          "type": "string"
        },
        {
          "internalType": "string",
          "name": "_symbol",
          "type": "string"
        },
        {
          "internalType": "uint8",
          "name": "decimals_",
          "type": "uint8"
        }
      ],
      "stateMutability": "nonpayable",
      "type": "constructor"
    },
    {
      "anonymous": false,
      "inputs": [
        {
          "indexed": true,
          "internalType": "address",
          "name": "owner",
          "type": "address"
        },
        {
          "indexed": true,
          "internalType": "address",
          "name": "spender",
          "type": "address"
        },
        {
          "indexed": false,
          "internalType": "uint256",
          "name": "value",
          "type": "uint256"
        }
      ],
      "name": "Approval",
      "type": "event"
    },
    {
      "anonymous": false,
      "inputs": [
        {
          "indexed": true,
          "internalType": "address",
          "name": "_account",
          "type": "address"
        },
        {
          "indexed": false,
          "internalType": "uint256",
          "name": "_amount",
          "type": "uint256"
        }
      ],
      "name": "Burn",
      "type": "event"
    },
    {
      "anonymous": false,
      "inputs": [
        {
          "indexed": true,
          "internalType": "address",
          "name": "delegator",
          "type": "address"
        },
        {
          "indexed": true,
          "internalType": "address",
          "name": "fromDelegate",
          "type": "address"
        },
        {
          "indexed": true,
          "internalType": "address",
          "name": "toDelegate",
          "type": "address"
        }
      ],
      "name": "DelegateChanged",
      "type": "event"
    },
    {
      "anonymous": false,
      "inputs": [
        {
          "indexed": true,
          "internalType": "address",
          "name": "delegate",
          "type": "address"
        },
        {
          "indexed": false,
          "internalType": "uint256",
          "name": "previousBalance",
          "type": "uint256"
        },
        {
          "indexed": false,
          "internalType": "uint256",
          "name": "newBalance",
          "type": "uint256"
        }
      ],
      "name": "DelegateVotesChanged",
      "type": "event"
    },
    {
      "anonymous": false,
      "inputs": [
        {
          "indexed": true,
          "internalType": "address",
          "name": "_account",
          "type": "address"
        },
        {
          "indexed": false,
          "internalType": "uint256",
          "name": "_amount",
          "type": "uint256"
        }
      ],
      "name": "Mint",
      "type": "event"
    },
    {
      "anonymous": false,
      "inputs": [
        {
          "indexed": true,
          "internalType": "address",
          "name": "from",
          "type": "address"
        },
        {
          "indexed": true,
          "internalType": "address",
          "name": "to",
          "type": "address"
        },
        {
          "indexed": false,
          "internalType": "uint256",
          "name": "value",
          "type": "uint256"
        }
      ],
      "name": "Transfer",
      "type": "event"
    },
    {
      "inputs": [],
      "name": "DOMAIN_SEPARATOR",
      "outputs": [
        {
          "internalType": "bytes32",
          "name": "",
          "type": "bytes32"
        }
      ],
      "stateMutability": "view",
      "type": "function"
    },
    {
      "inputs": [],
      "name": "OFFSET",
      "outputs": [
        {
          "internalType": "uint256",
          "name": "",
          "type": "uint256"
        }
      ],
      "stateMutability": "view",
      "type": "function"
    },
    {
      "inputs": [
        {
          "internalType": "address",
          "name": "owner",
          "type": "address"
        },
        {
          "internalType": "address",
          "name": "spender",
          "type": "address"
        }
      ],
      "name": "allowance",
      "outputs": [
        {
          "internalType": "uint256",
          "name": "",
          "type": "uint256"
        }
      ],
      "stateMutability": "view",
      "type": "function"
    },
    {
      "inputs": [
        {
          "internalType": "address",
          "name": "spender",
          "type": "address"
        },
        {
          "internalType": "uint256",
          "name": "amount",
          "type": "uint256"
        }
      ],
      "name": "approve",
      "outputs": [
        {
          "internalType": "bool",
          "name": "",
          "type": "bool"
        }
      ],
      "stateMutability": "nonpayable",
      "type": "function"
    },
    {
      "inputs": [
        {
          "internalType": "address",
          "name": "account",
          "type": "address"
        }
      ],
      "name": "balanceOf",
      "outputs": [
        {
          "internalType": "uint256",
          "name": "",
          "type": "uint256"
        }
      ],
      "stateMutability": "view",
      "type": "function"
    },
    {
      "inputs": [
        {
          "internalType": "address",
          "name": "_from",
          "type": "address"
        },
        {
          "internalType": "uint256",
          "name": "_amount",
          "type": "uint256"
        }
      ],
      "name": "burn",
      "outputs": [],
      "stateMutability": "nonpayable",
      "type": "function"
    },
    {
      "inputs": [
        {
          "internalType": "address",
          "name": "account",
          "type": "address"
        },
        {
          "internalType": "uint32",
          "name": "pos",
          "type": "uint32"
        }
      ],
      "name": "checkpoints",
      "outputs": [
        {
          "components": [
            {
              "internalType": "uint32",
              "name": "fromBlock",
              "type": "uint32"
            },
            {
              "internalType": "uint224",
              "name": "votes",
              "type": "uint224"
            }
          ],
          "internalType": "struct ERC20Votes.Checkpoint",
          "name": "",
          "type": "tuple"
        }
      ],
      "stateMutability": "view",
      "type": "function"
    },
    {
      "inputs": [],
      "name": "decimals",
      "outputs": [
        {
          "internalType": "uint8",
          "name": "",
          "type": "uint8"
        }
      ],
      "stateMutability": "view",
      "type": "function"
    },
    {
      "inputs": [
        {
          "internalType": "address",
          "name": "spender",
          "type": "address"
        },
        {
          "internalType": "uint256",
          "name": "subtractedValue",
          "type": "uint256"
        }
      ],
      "name": "decreaseAllowance",
      "outputs": [
        {
          "internalType": "bool",
          "name": "",
          "type": "bool"
        }
      ],
      "stateMutability": "nonpayable",
      "type": "function"
    },
    {
      "inputs": [
        {
          "internalType": "address",
          "name": "delegatee",
          "type": "address"
        }
      ],
      "name": "delegate",
      "outputs": [],
      "stateMutability": "nonpayable",
      "type": "function"
    },
    {
      "inputs": [
        {
          "internalType": "address",
          "name": "delegatee",
          "type": "address"
        },
        {
          "internalType": "uint256",
          "name": "nonce",
          "type": "uint256"
        },
        {
          "internalType": "uint256",
          "name": "expiry",
          "type": "uint256"
        },
        {
          "internalType": "uint8",
          "name": "v",
          "type": "uint8"
        },
        {
          "internalType": "bytes32",
          "name": "r",
          "type": "bytes32"
        },
        {
          "internalType": "bytes32",
          "name": "s",
          "type": "bytes32"
        }
      ],
      "name": "delegateBySig",
      "outputs": [],
      "stateMutability": "nonpayable",
      "type": "function"
    },
    {
      "inputs": [
        {
          "internalType": "address",
          "name": "account",
          "type": "address"
        }
      ],
      "name": "delegates",
      "outputs": [
        {
          "internalType": "address",
          "name": "",
          "type": "address"
        }
      ],
      "stateMutability": "view",
      "type": "function"
    },
    {
      "inputs": [
        {
          "internalType": "address",
          "name": "account",
          "type": "address"
        }
      ],
      "name": "getCurrentVotes",
      "outputs": [
        {
          "internalType": "uint96",
          "name": "",
          "type": "uint96"
        }
      ],
      "stateMutability": "view",
      "type": "function"
    },
    {
      "inputs": [
        {
          "internalType": "uint256",
          "name": "blockNumber",
          "type": "uint256"
        }
      ],
      "name": "getPastTotalSupply",
      "outputs": [
        {
          "internalType": "uint256",
          "name": "",
          "type": "uint256"
        }
      ],
      "stateMutability": "view",
      "type": "function"
    },
    {
      "inputs": [
        {
          "internalType": "address",
          "name": "account",
          "type": "address"
        },
        {
          "internalType": "uint256",
          "name": "blockNumber",
          "type": "uint256"
        }
      ],
      "name": "getPastVotes",
      "outputs": [
        {
          "internalType": "uint256",
          "name": "",
          "type": "uint256"
        }
      ],
      "stateMutability": "view",
      "type": "function"
    },
    {
      "inputs": [
        {
          "internalType": "address",
          "name": "account",
          "type": "address"
        },
        {
          "internalType": "uint256",
          "name": "blockNumber",
          "type": "uint256"
        }
      ],
      "name": "getPriorVotes",
      "outputs": [
        {
          "internalType": "uint96",
          "name": "",
          "type": "uint96"
        }
      ],
      "stateMutability": "view",
      "type": "function"
    },
    {
      "inputs": [
        {
          "internalType": "address",
          "name": "account",
          "type": "address"
        }
      ],
      "name": "getVotes",
      "outputs": [
        {
          "internalType": "uint256",
          "name": "",
          "type": "uint256"
        }
      ],
      "stateMutability": "view",
      "type": "function"
    },
    {
      "inputs": [
        {
          "internalType": "address",
          "name": "spender",
          "type": "address"
        },
        {
          "internalType": "uint256",
          "name": "addedValue",
          "type": "uint256"
        }
      ],
      "name": "increaseAllowance",
      "outputs": [
        {
          "internalType": "bool",
          "name": "",
          "type": "bool"
        }
      ],
      "stateMutability": "nonpayable",
      "type": "function"
    },
    {
      "inputs": [],
      "name": "l1Token",
      "outputs": [
        {
          "internalType": "address",
          "name": "",
          "type": "address"
        }
      ],
      "stateMutability": "view",
      "type": "function"
    },
    {
      "inputs": [],
      "name": "l2Bridge",
      "outputs": [
        {
          "internalType": "address",
          "name": "",
          "type": "address"
        }
      ],
      "stateMutability": "view",
      "type": "function"
    },
    {
      "inputs": [],
      "name": "maxSupply",
      "outputs": [
        {
          "internalType": "uint224",
          "name": "",
          "type": "uint224"
        }
      ],
      "stateMutability": "view",
      "type": "function"
    },
    {
      "inputs": [
        {
          "internalType": "address",
          "name": "_to",
          "type": "address"
        },
        {
          "internalType": "uint256",
          "name": "_amount",
          "type": "uint256"
        }
      ],
      "name": "mint",
      "outputs": [],
      "stateMutability": "nonpayable",
      "type": "function"
    },
    {
      "inputs": [],
      "name": "name",
      "outputs": [
        {
          "internalType": "string",
          "name": "",
          "type": "string"
        }
      ],
      "stateMutability": "view",
      "type": "function"
    },
    {
      "inputs": [
        {
          "internalType": "address",
          "name": "owner",
          "type": "address"
        }
      ],
      "name": "nonces",
      "outputs": [
        {
          "internalType": "uint256",
          "name": "",
          "type": "uint256"
        }
      ],
      "stateMutability": "view",
      "type": "function"
    },
    {
      "inputs": [
        {
          "internalType": "address",
          "name": "account",
          "type": "address"
        }
      ],
      "name": "numCheckpoints",
      "outputs": [
        {
          "internalType": "uint32",
          "name": "",
          "type": "uint32"
        }
      ],
      "stateMutability": "view",
      "type": "function"
    },
    {
      "inputs": [
        {
          "internalType": "address",
          "name": "owner",
          "type": "address"
        },
        {
          "internalType": "address",
          "name": "spender",
          "type": "address"
        },
        {
          "internalType": "uint256",
          "name": "value",
          "type": "uint256"
        },
        {
          "internalType": "uint256",
          "name": "deadline",
          "type": "uint256"
        },
        {
          "internalType": "uint8",
          "name": "v",
          "type": "uint8"
        },
        {
          "internalType": "bytes32",
          "name": "r",
          "type": "bytes32"
        },
        {
          "internalType": "bytes32",
          "name": "s",
          "type": "bytes32"
        }
      ],
      "name": "permit",
      "outputs": [],
      "stateMutability": "nonpayable",
      "type": "function"
    },
    {
      "inputs": [
        {
          "internalType": "bytes4",
          "name": "_interfaceId",
          "type": "bytes4"
        }
      ],
      "name": "supportsInterface",
      "outputs": [
        {
          "internalType": "bool",
          "name": "",
          "type": "bool"
        }
      ],
      "stateMutability": "pure",
      "type": "function"
    },
    {
      "inputs": [],
      "name": "symbol",
      "outputs": [
        {
          "internalType": "string",
          "name": "",
          "type": "string"
        }
      ],
      "stateMutability": "view",
      "type": "function"
    },
    {
      "inputs": [],
      "name": "totalSupply",
      "outputs": [
        {
          "internalType": "uint256",
          "name": "",
          "type": "uint256"
        }
      ],
      "stateMutability": "view",
      "type": "function"
    },
    {
      "inputs": [
        {
          "internalType": "address",
          "name": "recipient",
          "type": "address"
        },
        {
          "internalType": "uint256",
          "name": "amount",
          "type": "uint256"
        }
      ],
      "name": "transfer",
      "outputs": [
        {
          "internalType": "bool",
          "name": "",
          "type": "bool"
        }
      ],
      "stateMutability": "nonpayable",
      "type": "function"
    },
    {
      "inputs": [
        {
          "internalType": "address",
          "name": "sender",
          "type": "address"
        },
        {
          "internalType": "address",
          "name": "recipient",
          "type": "address"
        },
        {
          "internalType": "uint256",
          "name": "amount",
          "type": "uint256"
        }
      ],
      "name": "transferFrom",
      "outputs": [
        {
          "internalType": "bool",
          "name": "",
          "type": "bool"
        }
      ],
      "stateMutability": "nonpayable",
      "type": "function"
    }
  ],
  "bytecode": "0x6101606040527f6e71edae12b1b97f4d1f60370fef10105fa2faae0126114a169c64845d6126c9610120523480156200003757600080fd5b5060405162002986380380620029868339810160408190526200005a9162000302565b8280604051806040016040528060018152602001603160f81b815250858581600390805190602001906200009092919062000172565b508051620000a690600490602084019062000172565b5050825160209384012082519284019290922060c083815260e08290524660a0818152604080517f8b73c3c69bb8fe3d512ecc4cf759cc79239f7b179b0ffacaa9a75d522b39400f818a01819052818301989098526060810195909552608080860193909352308583015280518086039092018252939092019092528051940193909320909252610100525050600980546001600160a01b039586166001600160a01b031991821617909155600a805496909516951694909417909255505060ff1661014052620003eb565b8280546200018090620003ae565b90600052602060002090601f016020900481019282620001a45760008555620001ef565b82601f10620001bf57805160ff1916838001178555620001ef565b82800160010185558215620001ef579182015b82811115620001ef578251825591602001919060010190620001d2565b50620001fd92915062000201565b5090565b5b80821115620001fd576000815560010162000202565b80516001600160a01b03811681146200023057600080fd5b919050565b634e487b7160e01b600052604160045260246000fd5b600082601f8301126200025d57600080fd5b81516001600160401b03808211156200027a576200027a62000235565b604051601f8301601f19908116603f01168101908282118183101715620002a557620002a562000235565b81604052838152602092508683858801011115620002c257600080fd5b600091505b83821015620002e65785820183015181830184015290820190620002c7565b83821115620002f85760008385830101525b9695505050505050565b600080600080600060a086880312156200031b57600080fd5b620003268662000218565b9450620003366020870162000218565b60408701519094506001600160401b03808211156200035457600080fd5b6200036289838a016200024b565b945060608801519150808211156200037957600080fd5b5062000388888289016200024b565b925050608086015160ff81168114620003a057600080fd5b809150509295509295909350565b600181811c90821680620003c357607f821691505b60208210811415620003e557634e487b7160e01b600052602260045260246000fd5b50919050565b60805160a05160c05160e05161010051610120516101405161254062000446600039600061026601526000610d6b015260006112e5015260006113340152600061130f01526000611293015260006112bc01526125406000f3fe608060405234801561001057600080fd5b50600436106101e55760003560e01c80637ecebe001161010f578063b4b5ea57116100a2578063d505accf11610071578063d505accf14610479578063d5abeb011461048c578063dd62ed3e146104cc578063f1127ed81461050557600080fd5b8063b4b5ea5714610438578063c01e1bd61461044b578063c3cda5201461045e578063ce665dd81461047157600080fd5b80639dc29fac116100de5780639dc29fac146103ec578063a457c2d7146103ff578063a9059cbb14610412578063ae1f6aaf1461042557600080fd5b80637ecebe00146103ab5780638e539e8c146103be57806395d89b41146103d15780639ab24eb0146103d957600080fd5b806339509351116101875780635c19a95c116101565780635c19a95c146103175780636fcfff451461032a57806370a0823114610352578063782d6fe11461037b57600080fd5b806339509351146102985780633a46b1a8146102ab57806340c10f19146102be578063587cde1e146102d357600080fd5b806318160ddd116101c357806318160ddd1461023a57806323b872dd1461024c578063313ce5671461025f5780633644e5151461029057600080fd5b806301ffc9a7146101ea57806306fdde0314610212578063095ea7b314610227575b600080fd5b6101fd6101f836600461213d565b610557565b60405190151581526020015b60405180910390f35b61021a610617565b604051610209919061217f565b6101fd61023536600461220e565b6106a9565b6002545b604051908152602001610209565b6101fd61025a366004612238565b6106bf565b60405160ff7f0000000000000000000000000000000000000000000000000000000000000000168152602001610209565b61023e610783565b6101fd6102a636600461220e565b610792565b61023e6102b936600461220e565b6107ce565b6102d16102cc36600461220e565b610848565b005b6102ff6102e1366004612274565b6001600160a01b039081166000908152600660205260409020541690565b6040516001600160a01b039091168152602001610209565b6102d1610325366004612274565b6108f3565b61033d610338366004612274565b610900565b60405163ffffffff9091168152602001610209565b61023e610360366004612274565b6001600160a01b031660009081526020819052604090205490565b61038e61038936600461220e565b610928565b6040516bffffffffffffffffffffffff9091168152602001610209565b61023e6103b9366004612274565b61093c565b61023e6103cc36600461228f565b61095a565b61021a6109b6565b61023e6103e7366004612274565b6109c5565b6102d16103fa36600461220e565b610a76565b6101fd61040d36600461220e565b610b15565b6101fd61042036600461220e565b610bc6565b600a546102ff906001600160a01b031681565b61038e610446366004612274565b610bd3565b6009546102ff906001600160a01b031681565b6102d161046c3660046122b9565b610be1565b61023e600081565b6102d1610487366004612311565b610d17565b61049f6b019d971e4fe8401e7400000081565b6040517bffffffffffffffffffffffffffffffffffffffffffffffffffffffff9091168152602001610209565b61023e6104da36600461237b565b6001600160a01b03918216600090815260016020908152604080832093909416825291909152205490565b6105186105133660046123ae565b610e7b565b60408051825163ffffffff1681526020928301517bffffffffffffffffffffffffffffffffffffffffffffffffffffffff169281019290925201610209565b60007f01ffc9a7a5cef8baa21ed3c5c0d7e23accb804b619e9333b597f47a0d84076e27f1d1d8b63000000000000000000000000000000000000000000000000000000007fffffffff0000000000000000000000000000000000000000000000000000000084167f01ffc9a700000000000000000000000000000000000000000000000000000000148061060f57507fffffffff00000000000000000000000000000000000000000000000000000000848116908216145b949350505050565b606060038054610626906123ee565b80601f0160208091040260200160405190810160405280929190818152602001828054610652906123ee565b801561069f5780601f106106745761010080835404028352916020019161069f565b820191906000526020600020905b81548152906001019060200180831161068257829003601f168201915b5050505050905090565b60006106b6338484610f14565b50600192915050565b60006106cc84848461106c565b6001600160a01b03841660009081526001602090815260408083203384529091529020548281101561076b5760405162461bcd60e51b815260206004820152602860248201527f45524332303a207472616e7366657220616d6f756e742065786365656473206160448201527f6c6c6f77616e636500000000000000000000000000000000000000000000000060648201526084015b60405180910390fd5b6107788533858403610f14565b506001949350505050565b600061078d61128f565b905090565b3360008181526001602090815260408083206001600160a01b038716845290915281205490916106b69185906107c990869061246b565b610f14565b600043821061081f5760405162461bcd60e51b815260206004820152601f60248201527f4552433230566f7465733a20626c6f636b206e6f7420796574206d696e6564006044820152606401610762565b6001600160a01b03831660009081526007602052604090206108419083611382565b9392505050565b600a546001600160a01b031633146108a25760405162461bcd60e51b815260206004820181905260248201527f4f6e6c79204c32204272696467652063616e206d696e7420616e64206275726e6044820152606401610762565b6108ac8282611476565b816001600160a01b03167f0f6798a560793a54c3bcfe86a93cde1e73087d944c0ea20544137d4121396885826040516108e791815260200190565b60405180910390a25050565b6108fd3382611484565b50565b6001600160a01b03811660009081526007602052604081205461092290611515565b92915050565b600061084161093784846107ce565b611595565b6001600160a01b038116600090815260056020526040812054610922565b60004382106109ab5760405162461bcd60e51b815260206004820152601f60248201527f4552433230566f7465733a20626c6f636b206e6f7420796574206d696e6564006044820152606401610762565b610922600883611382565b606060048054610626906123ee565b6001600160a01b0381166000908152600760205260408120548015610a4e576001600160a01b0383166000908152600760205260409020610a07600183612483565b81548110610a1757610a1761249a565b60009182526020909120015464010000000090047bffffffffffffffffffffffffffffffffffffffffffffffffffffffff16610a51565b60005b7bffffffffffffffffffffffffffffffffffffffffffffffffffffffff169392505050565b600a546001600160a01b03163314610ad05760405162461bcd60e51b815260206004820181905260248201527f4f6e6c79204c32204272696467652063616e206d696e7420616e64206275726e6044820152606401610762565b610ada8282611619565b816001600160a01b03167fcc16f5dbb4873280815c1ee09dbd06736cffcc184412cf7a71a0fdb75d397ca5826040516108e791815260200190565b3360009081526001602090815260408083206001600160a01b038616845290915281205482811015610baf5760405162461bcd60e51b815260206004820152602560248201527f45524332303a2064656372656173656420616c6c6f77616e63652062656c6f7760448201527f207a65726f0000000000000000000000000000000000000000000000000000006064820152608401610762565b610bbc3385858403610f14565b5060019392505050565b60006106b633848461106c565b6000610922610937836109c5565b83421115610c315760405162461bcd60e51b815260206004820152601d60248201527f4552433230566f7465733a207369676e617475726520657870697265640000006044820152606401610762565b604080517fe48329057bfd03d55e49b547132e39cffd9c1820ad7b9d4c5307691425d15adf60208201526001600160a01b038816918101919091526060810186905260808101859052600090610cab90610ca39060a00160405160208183030381529060405280519060200120611623565b85858561168c565b9050610cb6816116b4565b8614610d045760405162461bcd60e51b815260206004820152601960248201527f4552433230566f7465733a20696e76616c6964206e6f6e6365000000000000006044820152606401610762565b610d0e8188611484565b50505050505050565b83421115610d675760405162461bcd60e51b815260206004820152601d60248201527f45524332305065726d69743a206578706972656420646561646c696e650000006044820152606401610762565b60007f0000000000000000000000000000000000000000000000000000000000000000888888610d968c6116b4565b6040805160208101969096526001600160a01b0394851690860152929091166060840152608083015260a082015260c0810186905260e0016040516020818303038152906040528051906020012090506000610df182611623565b90506000610e018287878761168c565b9050896001600160a01b0316816001600160a01b031614610e645760405162461bcd60e51b815260206004820152601e60248201527f45524332305065726d69743a20696e76616c6964207369676e617475726500006044820152606401610762565b610e6f8a8a8a610f14565b50505050505050505050565b60408051808201909152600080825260208201526001600160a01b0383166000908152600760205260409020805463ffffffff8416908110610ebf57610ebf61249a565b60009182526020918290206040805180820190915291015463ffffffff8116825264010000000090047bffffffffffffffffffffffffffffffffffffffffffffffffffffffff16918101919091529392505050565b6001600160a01b038316610f8f5760405162461bcd60e51b8152602060048201526024808201527f45524332303a20617070726f76652066726f6d20746865207a65726f2061646460448201527f72657373000000000000000000000000000000000000000000000000000000006064820152608401610762565b6001600160a01b03821661100b5760405162461bcd60e51b815260206004820152602260248201527f45524332303a20617070726f766520746f20746865207a65726f20616464726560448201527f73730000000000000000000000000000000000000000000000000000000000006064820152608401610762565b6001600160a01b0383811660008181526001602090815260408083209487168084529482529182902085905590518481527f8c5be1e5ebec7d5bd14f71427d1e84f3dd0314c0f7b2291e5b200ac8c7c3b925910160405180910390a3505050565b6001600160a01b0383166110e85760405162461bcd60e51b815260206004820152602560248201527f45524332303a207472616e736665722066726f6d20746865207a65726f20616460448201527f64726573730000000000000000000000000000000000000000000000000000006064820152608401610762565b6001600160a01b0382166111645760405162461bcd60e51b815260206004820152602360248201527f45524332303a207472616e7366657220746f20746865207a65726f206164647260448201527f65737300000000000000000000000000000000000000000000000000000000006064820152608401610762565b6001600160a01b038316600090815260208190526040902054818110156111f35760405162461bcd60e51b815260206004820152602660248201527f45524332303a207472616e7366657220616d6f756e742065786365656473206260448201527f616c616e636500000000000000000000000000000000000000000000000000006064820152608401610762565b6001600160a01b0380851660009081526020819052604080822085850390559185168152908120805484929061122a90849061246b565b92505081905550826001600160a01b0316846001600160a01b03167fddf252ad1be2c89b69c2b068fc378daa952ba7f163c4a11628f55a4df523b3ef8460405161127691815260200190565b60405180910390a36112898484846116e1565b50505050565b60007f00000000000000000000000000000000000000000000000000000000000000004614156112de57507f000000000000000000000000000000000000000000000000000000000000000090565b50604080517f00000000000000000000000000000000000000000000000000000000000000006020808301919091527f0000000000000000000000000000000000000000000000000000000000000000828401527f000000000000000000000000000000000000000000000000000000000000000060608301524660808301523060a0808401919091528351808403909101815260c0909201909252805191012090565b600061138e818361246b565b835490925060005b818110156113f35760006113aa82846116ec565b9050848682815481106113bf576113bf61249a565b60009182526020909120015463ffffffff1611156113df578092506113ed565b6113ea81600161246b565b91505b50611396565b811561144c5784611405600184612483565b815481106114155761141561249a565b60009182526020909120015464010000000090047bffffffffffffffffffffffffffffffffffffffffffffffffffffffff1661144f565b60005b7bffffffffffffffffffffffffffffffffffffffffffffffffffffffff1695945050505050565b6114808282611707565b5050565b6001600160a01b038281166000818152600660208181526040808420805485845282862054949093528787167fffffffffffffffffffffffff00000000000000000000000000000000000000008416811790915590519190951694919391928592917f3134e8a2e6d97e929a7e54011ea5485d7d196dd5f0ba4d4ef95803e8e3fc257f9190a46112898284836117a3565b600063ffffffff8211156115915760405162461bcd60e51b815260206004820152602660248201527f53616665436173743a2076616c756520646f65736e27742066697420696e203360448201527f32206269747300000000000000000000000000000000000000000000000000006064820152608401610762565b5090565b60006bffffffffffffffffffffffff8211156115915760405162461bcd60e51b815260206004820152602660248201527f53616665436173743a2076616c756520646f65736e27742066697420696e203960448201527f36206269747300000000000000000000000000000000000000000000000000006064820152608401610762565b61148082826118e0565b600061092261163061128f565b836040517f19010000000000000000000000000000000000000000000000000000000000006020820152602281018390526042810182905260009060620160405160208183030381529060405280519060200120905092915050565b600080600061169d878787876118f8565b915091506116aa81611a03565b5095945050505050565b6001600160a01b03811660009081526005602052604090208054600181018255905b50919050565b505050565b6116dc838383611bf4565b60006116fb60028484186124c9565b6108419084841661246b565b6117118282611c26565b6002546b019d971e4fe8401e7400000010156117955760405162461bcd60e51b815260206004820152603060248201527f4552433230566f7465733a20746f74616c20737570706c79207269736b73206f60448201527f766572666c6f77696e6720766f746573000000000000000000000000000000006064820152608401610762565b6112896008611d0d83611d19565b816001600160a01b0316836001600160a01b0316141580156117c55750600081115b156116dc576001600160a01b03831615611853576001600160a01b0383166000908152600760205260408120819061180090611f1185611d19565b91509150846001600160a01b03167fdec2bacdd2f05b59de34da9b523dff8be42e5e38e818c82fdb0bae774387a7248383604051611848929190918252602082015260400190565b60405180910390a250505b6001600160a01b038216156116dc576001600160a01b0382166000908152600760205260408120819061188990611d0d85611d19565b91509150836001600160a01b03167fdec2bacdd2f05b59de34da9b523dff8be42e5e38e818c82fdb0bae774387a72483836040516118d1929190918252602082015260400190565b60405180910390a25050505050565b6118ea8282611f1d565b6112896008611f1183611d19565b6000807f7fffffffffffffffffffffffffffffff5d576e7357a4501ddfe92f46681b20a083111561192f57506000905060036119fa565b8460ff16601b1415801561194757508460ff16601c14155b1561195857506000905060046119fa565b6040805160008082526020820180845289905260ff881692820192909252606081018690526080810185905260019060a0016020604051602081039080840390855afa1580156119ac573d6000803e3d6000fd5b50506040517fffffffffffffffffffffffffffffffffffffffffffffffffffffffffffffffe001519150506001600160a01b0381166119f3576000600192509250506119fa565b9150600090505b94509492505050565b6000816004811115611a1757611a17612504565b1415611a205750565b6001816004811115611a3457611a34612504565b1415611a825760405162461bcd60e51b815260206004820152601860248201527f45434453413a20696e76616c6964207369676e617475726500000000000000006044820152606401610762565b6002816004811115611a9657611a96612504565b1415611ae45760405162461bcd60e51b815260206004820152601f60248201527f45434453413a20696e76616c6964207369676e6174757265206c656e677468006044820152606401610762565b6003816004811115611af857611af8612504565b1415611b6c5760405162461bcd60e51b815260206004820152602260248201527f45434453413a20696e76616c6964207369676e6174757265202773272076616c60448201527f75650000000000000000000000000000000000000000000000000000000000006064820152608401610762565b6004816004811115611b8057611b80612504565b14156108fd5760405162461bcd60e51b815260206004820152602260248201527f45434453413a20696e76616c6964207369676e6174757265202776272076616c60448201527f75650000000000000000000000000000000000000000000000000000000000006064820152608401610762565b6001600160a01b038381166000908152600660205260408082205485841683529120546116dc929182169116836117a3565b6001600160a01b038216611c7c5760405162461bcd60e51b815260206004820152601f60248201527f45524332303a206d696e7420746f20746865207a65726f2061646472657373006044820152606401610762565b8060026000828254611c8e919061246b565b90915550506001600160a01b03821660009081526020819052604081208054839290611cbb90849061246b565b90915550506040518181526001600160a01b038316906000907fddf252ad1be2c89b69c2b068fc378daa952ba7f163c4a11628f55a4df523b3ef9060200160405180910390a3611480600083836116e1565b6000610841828461246b565b825460009081908015611d795785611d32600183612483565b81548110611d4257611d4261249a565b60009182526020909120015464010000000090047bffffffffffffffffffffffffffffffffffffffffffffffffffffffff16611d7c565b60005b7bffffffffffffffffffffffffffffffffffffffffffffffffffffffff169250611daa83858763ffffffff16565b9150600081118015611df25750611dc260004361246b565b86611dce600184612483565b81548110611dde57611dde61249a565b60009182526020909120015463ffffffff16145b15611e7c57611e00826120a9565b86611e0c600184612483565b81548110611e1c57611e1c61249a565b9060005260206000200160000160046101000a8154817bffffffffffffffffffffffffffffffffffffffffffffffffffffffff02191690837bffffffffffffffffffffffffffffffffffffffffffffffffffffffff160217905550611f08565b856040518060400160405280611e9d600043611e98919061246b565b611515565b63ffffffff168152602001611eb1856120a9565b7bffffffffffffffffffffffffffffffffffffffffffffffffffffffff90811690915282546001810184556000938452602093849020835194909301519091166401000000000263ffffffff909316929092179101555b50935093915050565b60006108418284612483565b6001600160a01b038216611f995760405162461bcd60e51b815260206004820152602160248201527f45524332303a206275726e2066726f6d20746865207a65726f2061646472657360448201527f73000000000000000000000000000000000000000000000000000000000000006064820152608401610762565b6001600160a01b038216600090815260208190526040902054818110156120285760405162461bcd60e51b815260206004820152602260248201527f45524332303a206275726e20616d6f756e7420657863656564732062616c616e60448201527f63650000000000000000000000000000000000000000000000000000000000006064820152608401610762565b6001600160a01b0383166000908152602081905260408120838303905560028054849290612057908490612483565b90915550506040518281526000906001600160a01b038516907fddf252ad1be2c89b69c2b068fc378daa952ba7f163c4a11628f55a4df523b3ef9060200160405180910390a36116dc836000846116e1565b60007bffffffffffffffffffffffffffffffffffffffffffffffffffffffff8211156115915760405162461bcd60e51b815260206004820152602760248201527f53616665436173743a2076616c756520646f65736e27742066697420696e203260448201527f32342062697473000000000000000000000000000000000000000000000000006064820152608401610762565b60006020828403121561214f57600080fd5b81357fffffffff000000000000000000000000000000000000000000000000000000008116811461084157600080fd5b600060208083528351808285015260005b818110156121ac57858101830151858201604001528201612190565b818111156121be576000604083870101525b50601f017fffffffffffffffffffffffffffffffffffffffffffffffffffffffffffffffe016929092016040019392505050565b80356001600160a01b038116811461220957600080fd5b919050565b6000806040838503121561222157600080fd5b61222a836121f2565b946020939093013593505050565b60008060006060848603121561224d57600080fd5b612256846121f2565b9250612264602085016121f2565b9150604084013590509250925092565b60006020828403121561228657600080fd5b610841826121f2565b6000602082840312156122a157600080fd5b5035919050565b803560ff8116811461220957600080fd5b60008060008060008060c087890312156122d257600080fd5b6122db876121f2565b955060208701359450604087013593506122f7606088016122a8565b92506080870135915060a087013590509295509295509295565b600080600080600080600060e0888a03121561232c57600080fd5b612335886121f2565b9650612343602089016121f2565b9550604088013594506060880135935061235f608089016122a8565b925060a0880135915060c0880135905092959891949750929550565b6000806040838503121561238e57600080fd5b612397836121f2565b91506123a5602084016121f2565b90509250929050565b600080604083850312156123c157600080fd5b6123ca836121f2565b9150602083013563ffffffff811681146123e357600080fd5b809150509250929050565b600181811c9082168061240257607f821691505b602082108114156116d6577f4e487b7100000000000000000000000000000000000000000000000000000000600052602260045260246000fd5b7f4e487b7100000000000000000000000000000000000000000000000000000000600052601160045260246000fd5b6000821982111561247e5761247e61243c565b500190565b6000828210156124955761249561243c565b500390565b7f4e487b7100000000000000000000000000000000000000000000000000000000600052603260045260246000fd5b6000826124ff577f4e487b7100000000000000000000000000000000000000000000000000000000600052601260045260246000fd5b500490565b7f4e487b7100000000000000000000000000000000000000000000000000000000600052602160045260246000fdfea164736f6c6343000809000a",
  "linkReferences": {},
  "deployedLinkReferences": {}
}