{
  "_format": "hh-sol-artifact-1",
  "contractName": "Lending",
  "sourceName": "contracts/Lending.sol",
  "abi": [
    {
      "inputs": [
        {
          "internalType": "address",
          "name": "_helper",
          "type": "address"
        }
      ],
      "stateMutability": "nonpayable",
      "type": "constructor"
    },
    {
      "anonymous": false,
      "inputs": [
        {
          "indexed": false,
          "internalType": "bytes",
          "name": "response",
          "type": "bytes"
        }
      ],
      "name": "Debug",
      "type": "event"
    },
    {
      "anonymous": false,
      "inputs": [
        {
          "indexed": false,
          "internalType": "string",
          "name": "_url",
          "type": "string"
        },
        {
          "indexed": false,
          "internalType": "string",
          "name": "pair",
          "type": "string"
        },
        {
          "indexed": false,
          "internalType": "uint256",
          "name": "market_price",
          "type": "uint256"
        },
        {
          "indexed": false,
          "internalType": "uint256",
          "name": "time",
          "type": "uint256"
        }
      ],
      "name": "GetCurrentQuote",
      "type": "event"
    },
    {
      "inputs": [
        {
          "internalType": "string",
          "name": "_url",
          "type": "string"
        },
        {
          "internalType": "string",
          "name": "pair",
          "type": "string"
        }
      ],
      "name": "getCurrentQuote",
      "outputs": [
        {
          "internalType": "uint256",
          "name": "",
          "type": "uint256"
        },
        {
          "internalType": "uint256",
          "name": "",
          "type": "uint256"
        }
      ],
      "stateMutability": "nonpayable",
      "type": "function"
    },
    {
      "inputs": [],
      "name": "helperAddr",
      "outputs": [
        {
          "internalType": "address",
          "name": "",
          "type": "address"
        }
      ],
      "stateMutability": "view",
      "type": "function"
    }
  ],
  "bytecode": "0x608060405234801561001057600080fd5b5060405161061238038061061283398101604081905261002f9161005e565b600080546001600160a01b039092166001600160a01b031992831681179091556001805490921617905561008e565b60006020828403121561007057600080fd5b81516001600160a01b038116811461008757600080fd5b9392505050565b6105758061009d6000396000f3fe608060405234801561001057600080fd5b50600436106100365760003560e01c80631569f6151461003b5780635d57384a14610085575b600080fd5b60005461005b9073ffffffffffffffffffffffffffffffffffffffff1681565b60405173ffffffffffffffffffffffffffffffffffffffff90911681526020015b60405180910390f35b610098610093366004610377565b6100ad565b6040805192835260208301919091520161007c565b6000806000836040516020016100c39190610455565b604080517fffffffffffffffffffffffffffffffffffffffffffffffffffffffffffffffe0818403018152908290526001547f2f7adf4300000000000000000000000000000000000000000000000000000000835290925060009173ffffffffffffffffffffffffffffffffffffffff90911690632f7adf439061014d908990869060040161046f565b600060405180830381600087803b15801561016757600080fd5b505af115801561017b573d6000803e3d6000fd5b505050506040513d6000823e601f3d9081017fffffffffffffffffffffffffffffffffffffffffffffffffffffffffffffffe01682016040526101c1919081019061049d565b90507f31fe5ce544784f2e2e62fd1c70cb1ebe6cd1f8e17a185909f82c430b6c7ec470816040516101f29190610455565b60405180910390a160008082806020019051810190610211919061050b565b915091507f83085d59ce6d683a0079691e4b80eb7a26ccc2ce53869275642bbf03545f1fc28888848460405161024a949392919061052f565b60405180910390a1505050509250929050565b7f4e487b7100000000000000000000000000000000000000000000000000000000600052604160045260246000fd5b604051601f82017fffffffffffffffffffffffffffffffffffffffffffffffffffffffffffffffe016810167ffffffffffffffff811182821017156102d3576102d361025d565b604052919050565b600067ffffffffffffffff8211156102f5576102f561025d565b50601f017fffffffffffffffffffffffffffffffffffffffffffffffffffffffffffffffe01660200190565b600082601f83011261033257600080fd5b8135610345610340826102db565b61028c565b81815284602083860101111561035a57600080fd5b816020850160208301376000918101602001919091529392505050565b6000806040838503121561038a57600080fd5b823567ffffffffffffffff808211156103a257600080fd5b6103ae86838701610321565b935060208501359150808211156103c457600080fd5b506103d185828601610321565b9150509250929050565b60005b838110156103f65781810151838201526020016103de565b83811115610405576000848401525b50505050565b600081518084526104238160208601602086016103db565b601f017fffffffffffffffffffffffffffffffffffffffffffffffffffffffffffffffe0169290920160200192915050565b602081526000610468602083018461040b565b9392505050565b604081526000610482604083018561040b565b8281036020840152610494818561040b565b95945050505050565b6000602082840312156104af57600080fd5b815167ffffffffffffffff8111156104c657600080fd5b8201601f810184136104d757600080fd5b80516104e5610340826102db565b8181528560208385010111156104fa57600080fd5b6104948260208301602086016103db565b6000806040838503121561051e57600080fd5b505080516020909101519092909150565b608081526000610542608083018761040b565b8281036020840152610554818761040b565b60408401959095525050606001529291505056fea164736f6c6343000809000a",
  "linkReferences": {},
  "deployedLinkReferences": {}
}