{
  "_format": "hh-sol-artifact-1",
  "contractName": "OVM_GasPriceOracle",
  "sourceName": "contracts/optimistic-ethereum/OVM/predeploys/OVM_GasPriceOracle.sol",
  "abi": [
    {
      "inputs": [
        {
          "internalType": "address",
          "name": "_owner",
          "type": "address"
        },
        {
          "internalType": "uint256",
          "name": "_initialGasPrice",
          "type": "uint256"
        }
      ],
      "stateMutability": "nonpayable",
      "type": "constructor"
    },
    {
      "anonymous": false,
      "inputs": [
        {
          "indexed": true,
          "internalType": "address",
          "name": "previousOwner",
          "type": "address"
        },
        {
          "indexed": true,
          "internalType": "address",
          "name": "newOwner",
          "type": "address"
        }
      ],
      "name": "OwnershipTransferred",
      "type": "event"
    },
    {
      "inputs": [],
      "name": "gasPrice",
      "outputs": [
        {
          "internalType": "uint256",
          "name": "",
          "type": "uint256"
        }
      ],
      "stateMutability": "view",
      "type": "function"
    },
    {
      "inputs": [],
      "name": "owner",
      "outputs": [
        {
          "internalType": "address",
          "name": "",
          "type": "address"
        }
      ],
      "stateMutability": "view",
      "type": "function"
    },
    {
      "inputs": [],
      "name": "renounceOwnership",
      "outputs": [],
      "stateMutability": "nonpayable",
      "type": "function"
    },
    {
      "inputs": [
        {
          "internalType": "uint256",
          "name": "_gasPrice",
          "type": "uint256"
        }
      ],
      "name": "setGasPrice",
      "outputs": [],
      "stateMutability": "nonpayable",
      "type": "function"
    },
    {
      "inputs": [
        {
          "internalType": "address",
          "name": "newOwner",
          "type": "address"
        }
      ],
      "name": "transferOwnership",
      "outputs": [],
      "stateMutability": "nonpayable",
      "type": "function"
    }
  ],
  "bytecode": "0x60806040525a6200000f620002f4565b801562000026576000806200002362000350565b50505b5060405162000b1238038062000b128339818101604052604081101562000057576000806200005462000350565b50505b8101908080519291906020018051925060009150620000779050620000f6565b905080600060018162000089620003bd565b816001600160a01b0302191690836001600160a01b0316021790620000ad6200040a565b5050506001600160a01b038116600060008051602062000af283398151915260405160405180910390a350620000e38162000108565b620000ee826200018e565b5050620004a0565b60005a6200010362000459565b905090565b62000112620000f6565b6001600160a01b031662000125620002d1565b6001600160a01b0316146200017a5760405162461bcd60e51b8152602060048201819052602482015260008051602062000ad28339815191526044820152606401604051809103906200017762000350565b50505b80806001620001886200040a565b50505050565b62000198620000f6565b6001600160a01b0316620001ab620002d1565b6001600160a01b031614620002005760405162461bcd60e51b8152602060048201819052602482015260008051602062000ad2833981519152604482015260640160405180910390620001fd62000350565b50505b6001600160a01b038116620002525760405162461bcd60e51b815260040180806020018281038252602681526020018062000aac60269139604001915050604051809103906200024f62000350565b50505b806001600160a01b031660008062000269620003bd565b906101000a90046001600160a01b03166001600160a01b031660008051602062000af283398151915260405160405180910390a3806000600181620002ad620003bd565b816001600160a01b0302191690836001600160a01b0316021790620001886200040a565b60008080620002df620003bd565b906101000a90046001600160a01b0316905090565b63a8c4c5ec598160e01b8152602081600483336000905af158600e01573d6000803e3d6000fd5b3d6001141558600a015760016000f35b8051935060005b60408110156200034b5760008282015260200162000332565b505050565b632a2a7adb598160e01b8152600481016020815285602082015260005b868110156200038a5780860151828201604001526020016200036d565b506020828760640184336000905af158600e01573d6000803e3d6000fd5b3d6001141558600a015760016000f35b505050565b6303daa959598160e01b8152836004820152602081602483336000905af158600e01573d6000803e3d6000fd5b3d6001141558600a015760016000f35b8051600082529350602062000332565b6322bd64c0598160e01b8152836004820152846024820152600081604483336000905af158600e01573d6000803e3d6000fd5b3d6001141558600a015760016000f35b60008152602062000332565b6373509064598160e01b8152602081600483336000905af158600e01573d6000803e3d6000fd5b3d6001141558600a015760016000f35b8051600082529350602062000332565b6105fc80620004b06000396000f3fe60806040525a61000d610435565b80156100215760008061001e61048a565b50505b50600436106100685760003560e01c8063715018a6146100765780638da5cb5b14610080578063bf1fe420146100a4578063f2fde38b146100ca578063fe173b97146100f9575b60008061007361048a565b50505b61007e610113565b005b610088610215565b6040516001600160a01b03909116815260200160405180910390f35b61007e600480360360208110156100c3576000806100c061048a565b50505b5035610236565b61007e600480360360208110156100e9576000806100e661048a565b50505b50356001600160a01b03166102c4565b610101610418565b60405190815260200160405180910390f35b61011b610425565b6001600160a01b031661012c610215565b6001600160a01b03161461018f5760405162461bcd60e51b815260206004820181905260248201527f4f776e61626c653a2063616c6c6572206973206e6f7420746865206f776e657260448201526064016040518091039061018c61048a565b50505b6000808061019b6104f5565b906101000a90046001600160a01b03166001600160a01b03167f8be0079c531659141344cd1fd0a4f28419497f9722a3daafe3b4186f6b6457e060405160405180910390a36000806001816101ee6104f5565b816001600160a01b0302191690836001600160a01b0316021790610210610541565b505050565b600080806102216104f5565b906101000a90046001600160a01b0316905090565b61023e610425565b6001600160a01b031661024f610215565b6001600160a01b0316146102b25760405162461bcd60e51b815260206004820181905260248201527f4f776e61626c653a2063616c6c6572206973206e6f7420746865206f776e65726044820152606401604051809103906102af61048a565b50505b808060016102be610541565b50505050565b6102cc610425565b6001600160a01b03166102dd610215565b6001600160a01b0316146103405760405162461bcd60e51b815260206004820181905260248201527f4f776e61626c653a2063616c6c6572206973206e6f7420746865206f776e657260448201526064016040518091039061033d61048a565b50505b6001600160a01b03811661038e5760405162461bcd60e51b81526004018080602001828103825260268152602001806105d6602691396040019150506040518091039061038b61048a565b50505b806001600160a01b03166000806103a36104f5565b906101000a90046001600160a01b03166001600160a01b03167f8be0079c531659141344cd1fd0a4f28419497f9722a3daafe3b4186f6b6457e060405160405180910390a38060006001816103f66104f5565b816001600160a01b0302191690836001600160a01b03160217906102be610541565b60016104226104f5565b81565b60005a61043061058f565b905090565b63a8c4c5ec598160e01b8152602081600483336000905af158600e01573d6000803e3d6000fd5b3d6001141558600a015760016000f35b8051935060005b604081101561021057600082820152602001610473565b632a2a7adb598160e01b8152600481016020815285602082015260005b868110156104c25780860151828201604001526020016104a7565b506020828760640184336000905af158600e01573d6000803e3d6000fd5b3d6001141558600a015760016000f35b505050565b6303daa959598160e01b8152836004820152602081602483336000905af158600e01573d6000803e3d6000fd5b3d6001141558600a015760016000f35b80516000825293506020610473565b6322bd64c0598160e01b8152836004820152846024820152600081604483336000905af158600e01573d6000803e3d6000fd5b3d6001141558600a015760016000f35b600081526020610473565b6373509064598160e01b8152602081600483336000905af158600e01573d6000803e3d6000fd5b3d6001141558600a015760016000f35b8051600082529350602061047356fe4f776e61626c653a206e6577206f776e657220697320746865207a65726f20616464726573734f776e61626c653a206e6577206f776e657220697320746865207a65726f20616464726573734f776e61626c653a2063616c6c6572206973206e6f7420746865206f776e65728be0079c531659141344cd1fd0a4f28419497f9722a3daafe3b4186f6b6457e0",
  "linkReferences": {},
  "deployedLinkReferences": {}
}