{
  "_format": "hh-sol-artifact-1",
  "contractName": "L2CrossDomainMessenger",
  "sourceName": "contracts/L2/messaging/L2CrossDomainMessenger.sol",
  "abi": [
    {
      "inputs": [
        {
          "internalType": "address",
          "name": "_l1CrossDomainMessenger",
          "type": "address"
        }
      ],
      "stateMutability": "nonpayable",
      "type": "constructor"
    },
    {
      "anonymous": false,
      "inputs": [
        {
          "indexed": true,
          "internalType": "bytes32",
          "name": "msgHash",
          "type": "bytes32"
        }
      ],
      "name": "FailedRelayedMessage",
      "type": "event"
    },
    {
      "anonymous": false,
      "inputs": [
        {
          "indexed": true,
          "internalType": "bytes32",
          "name": "msgHash",
          "type": "bytes32"
        }
      ],
      "name": "RelayedMessage",
      "type": "event"
    },
    {
      "anonymous": false,
      "inputs": [
        {
          "indexed": true,
          "internalType": "address",
          "name": "target",
          "type": "address"
        },
        {
          "indexed": false,
          "internalType": "address",
          "name": "sender",
          "type": "address"
        },
        {
          "indexed": false,
          "internalType": "bytes",
          "name": "message",
          "type": "bytes"
        },
        {
          "indexed": false,
          "internalType": "uint256",
          "name": "messageNonce",
          "type": "uint256"
        },
        {
          "indexed": false,
          "internalType": "uint256",
          "name": "gasLimit",
          "type": "uint256"
        }
      ],
      "name": "SentMessage",
      "type": "event"
    },
    {
      "inputs": [],
      "name": "l1CrossDomainMessenger",
      "outputs": [
        {
          "internalType": "address",
          "name": "",
          "type": "address"
        }
      ],
      "stateMutability": "view",
      "type": "function"
    },
    {
      "inputs": [],
      "name": "messageNonce",
      "outputs": [
        {
          "internalType": "uint256",
          "name": "",
          "type": "uint256"
        }
      ],
      "stateMutability": "view",
      "type": "function"
    },
    {
      "inputs": [
        {
          "internalType": "address",
          "name": "_target",
          "type": "address"
        },
        {
          "internalType": "address",
          "name": "_sender",
          "type": "address"
        },
        {
          "internalType": "bytes",
          "name": "_message",
          "type": "bytes"
        },
        {
          "internalType": "uint256",
          "name": "_messageNonce",
          "type": "uint256"
        }
      ],
      "name": "relayMessage",
      "outputs": [],
      "stateMutability": "nonpayable",
      "type": "function"
    },
    {
      "inputs": [
        {
          "internalType": "bytes32",
          "name": "",
          "type": "bytes32"
        }
      ],
      "name": "relayedMessages",
      "outputs": [
        {
          "internalType": "bool",
          "name": "",
          "type": "bool"
        }
      ],
      "stateMutability": "view",
      "type": "function"
    },
    {
      "inputs": [
        {
          "internalType": "address",
          "name": "_target",
          "type": "address"
        },
        {
          "internalType": "bytes",
          "name": "_message",
          "type": "bytes"
        },
        {
          "internalType": "uint32",
          "name": "_gasLimit",
          "type": "uint32"
        }
      ],
      "name": "sendMessage",
      "outputs": [],
      "stateMutability": "nonpayable",
      "type": "function"
    },
    {
      "inputs": [
        {
          "internalType": "bytes32",
          "name": "",
          "type": "bytes32"
        }
      ],
      "name": "sentMessages",
      "outputs": [
        {
          "internalType": "bool",
          "name": "",
          "type": "bool"
        }
      ],
      "stateMutability": "view",
      "type": "function"
    },
    {
      "inputs": [
        {
          "internalType": "bytes32",
          "name": "",
          "type": "bytes32"
        }
      ],
      "name": "successfulMessages",
      "outputs": [
        {
          "internalType": "bool",
          "name": "",
          "type": "bool"
        }
      ],
      "stateMutability": "view",
      "type": "function"
    },
    {
      "inputs": [],
      "name": "xDomainMessageSender",
      "outputs": [
        {
          "internalType": "address",
          "name": "",
          "type": "address"
        }
      ],
      "stateMutability": "view",
      "type": "function"
    }
  ],
  "bytecode": "0x6080604052600580546001600160a01b03191661dead17905534801561002457600080fd5b50604051610dd7380380610dd78339810160408190526100439161006d565b6001600055600680546001600160a01b0319166001600160a01b039290921691909117905561009d565b60006020828403121561007f57600080fd5b81516001600160a01b038116811461009657600080fd5b9392505050565b610d2b806100ac6000396000f3fe608060405234801561001057600080fd5b50600436106100885760003560e01c8063a71198691161005b578063a71198691461012a578063b1b1b2091461014a578063cbd4ece91461016d578063ecc704281461018057600080fd5b806321d800ec1461008d5780633dbb202b146100c55780636e296e45146100da57806382e3702d14610107575b600080fd5b6100b061009b36600461093b565b60016020526000908152604090205460ff1681565b60405190151581526020015b60405180910390f35b6100d86100d3366004610a53565b610197565b005b6100e261026f565b60405173ffffffffffffffffffffffffffffffffffffffff90911681526020016100bc565b6100b061011536600461093b565b60036020526000908152604090205460ff1681565b6006546100e29073ffffffffffffffffffffffffffffffffffffffff1681565b6100b061015836600461093b565b60026020526000908152604090205460ff1681565b6100d861017b366004610ac0565b610318565b61018960045481565b6040519081526020016100bc565b60006101a7843385600454610746565b8051602080830191909120600090815260039091526040902080547fffffffffffffffffffffffffffffffffffffffffffffffffffffffffffffff0016600117905590506101fb8163ffffffff84166107df565b8373ffffffffffffffffffffffffffffffffffffffff167fcb0f7ffd78f9aee47a248fae8db181db6eee833039123e026dcbff529522e52a3385600454866040516102499493929190610ba4565b60405180910390a26001600460008282546102649190610bf0565b909155505050505050565b60055460009073ffffffffffffffffffffffffffffffffffffffff1661dead14156102fb576040517f08c379a000000000000000000000000000000000000000000000000000000000815260206004820152601f60248201527f78446f6d61696e4d65737361676553656e646572206973206e6f74207365740060448201526064015b60405180910390fd5b5060055473ffffffffffffffffffffffffffffffffffffffff1690565b60026000541415610385576040517f08c379a000000000000000000000000000000000000000000000000000000000815260206004820152601f60248201527f5265656e7472616e637947756172643a207265656e7472616e742063616c6c0060448201526064016102f2565b6002600055610392610865565b1515600114610423576040517f08c379a000000000000000000000000000000000000000000000000000000000815260206004820152602760248201527f50726f7669646564206d65737361676520636f756c64206e6f7420626520766560448201527f7269666965642e0000000000000000000000000000000000000000000000000060648201526084016102f2565b600061043185858585610746565b8051602080830191909120600081815260029092526040909120549192509060ff16156104e0576040517f08c379a000000000000000000000000000000000000000000000000000000000815260206004820152602b60248201527f50726f7669646564206d6573736167652068617320616c72656164792062656560448201527f6e2072656365697665642e00000000000000000000000000000000000000000060648201526084016102f2565b73ffffffffffffffffffffffffffffffffffffffff8616734200000000000000000000000000000000000000141561054f57600090815260026020526040902080547fffffffffffffffffffffffffffffffffffffffffffffffffffffffffffffff001660011790555061073b565b600580547fffffffffffffffffffffffff00000000000000000000000000000000000000001673ffffffffffffffffffffffffffffffffffffffff878116919091179091556040516000918816906105a8908790610c2f565b6000604051808303816000865af19150503d80600081146105e5576040519150601f19603f3d011682016040523d82523d6000602084013e6105ea565b606091505b5050600580547fffffffffffffffffffffffff00000000000000000000000000000000000000001661dead1790559050801515600114156106885760008281526002602052604080822080547fffffffffffffffffffffffffffffffffffffffffffffffffffffffffffffff001660011790555183917f4641df4a962071e12719d8c8c8e5ac7fc4d97b927346a3d7a335b1f7517e133c91a26106b4565b60405182907f99d0e048484baa1b1540b1367cb128acd7ab2946d1ed91ec10e3c85e4bf51b8f90600090a25b60008333436040516020016106cb93929190610c4b565b604080517fffffffffffffffffffffffffffffffffffffffffffffffffffffffffffffffe0818403018152918152815160209283012060009081526001928390522080547fffffffffffffffffffffffffffffffffffffffffffffffffffffffffffffff00169091179055505050505b505060016000555050565b60608484848460405160240161075f9493929190610c9d565b604080517fffffffffffffffffffffffffffffffffffffffffffffffffffffffffffffffe08184030181529190526020810180517bffffffffffffffffffffffffffffffffffffffffffffffffffffffff167fcbd4ece9000000000000000000000000000000000000000000000000000000001790529050949350505050565b6040517fcafa81dc0000000000000000000000000000000000000000000000000000000081527342000000000000000000000000000000000000009063cafa81dc9061082f908590600401610ce7565b600060405180830381600087803b15801561084957600080fd5b505af115801561085d573d6000803e3d6000fd5b505050505050565b600654604080517fd2034106000000000000000000000000000000000000000000000000000000008152905160009273ffffffffffffffffffffffffffffffffffffffff16917342000000000000000000000000000000000000019163d203410691600480820192602092909190829003018186803b1580156108e757600080fd5b505afa1580156108fb573d6000803e3d6000fd5b505050506040513d601f19601f8201168201806040525081019061091f9190610d01565b73ffffffffffffffffffffffffffffffffffffffff1614905090565b60006020828403121561094d57600080fd5b5035919050565b73ffffffffffffffffffffffffffffffffffffffff8116811461097657600080fd5b50565b7f4e487b7100000000000000000000000000000000000000000000000000000000600052604160045260246000fd5b600082601f8301126109b957600080fd5b813567ffffffffffffffff808211156109d4576109d4610979565b604051601f83017fffffffffffffffffffffffffffffffffffffffffffffffffffffffffffffffe0908116603f01168101908282118183101715610a1a57610a1a610979565b81604052838152866020858801011115610a3357600080fd5b836020870160208301376000602085830101528094505050505092915050565b600080600060608486031215610a6857600080fd5b8335610a7381610954565b9250602084013567ffffffffffffffff811115610a8f57600080fd5b610a9b868287016109a8565b925050604084013563ffffffff81168114610ab557600080fd5b809150509250925092565b60008060008060808587031215610ad657600080fd5b8435610ae181610954565b93506020850135610af181610954565b9250604085013567ffffffffffffffff811115610b0d57600080fd5b610b19878288016109a8565b949793965093946060013593505050565b60005b83811015610b45578181015183820152602001610b2d565b83811115610b54576000848401525b50505050565b60008151808452610b72816020860160208601610b2a565b601f017fffffffffffffffffffffffffffffffffffffffffffffffffffffffffffffffe0169290920160200192915050565b73ffffffffffffffffffffffffffffffffffffffff85168152608060208201526000610bd36080830186610b5a565b905083604083015263ffffffff8316606083015295945050505050565b60008219821115610c2a577f4e487b7100000000000000000000000000000000000000000000000000000000600052601160045260246000fd5b500190565b60008251610c41818460208701610b2a565b9190910192915050565b60008451610c5d818460208901610b2a565b60609490941b7fffffffffffffffffffffffffffffffffffffffff0000000000000000000000001691909301908152601481019190915260340192915050565b600073ffffffffffffffffffffffffffffffffffffffff808716835280861660208401525060806040830152610cd66080830185610b5a565b905082606083015295945050505050565b602081526000610cfa6020830184610b5a565b9392505050565b600060208284031215610d1357600080fd5b8151610cfa8161095456fea164736f6c6343000808000a",
  "linkReferences": {},
  "deployedLinkReferences": {}
}