{
  "_format": "hh-sol-artifact-1",
  "contractName": "TestLib_Buffer",
  "sourceName": "contracts/test-libraries/utils/TestLib_Buffer.sol",
  "abi": [
    {
      "inputs": [
        {
          "internalType": "uint40",
          "name": "_index",
          "type": "uint40"
        },
        {
          "internalType": "bytes27",
          "name": "_extraData",
          "type": "bytes27"
        }
      ],
      "name": "deleteElementsAfterInclusive",
      "outputs": [],
      "stateMutability": "nonpayable",
      "type": "function"
    },
    {
      "inputs": [
        {
          "internalType": "uint40",
          "name": "_index",
          "type": "uint40"
        }
      ],
      "name": "deleteElementsAfterInclusive",
      "outputs": [],
      "stateMutability": "nonpayable",
      "type": "function"
    },
    {
      "inputs": [
        {
          "internalType": "uint256",
          "name": "_index",
          "type": "uint256"
        }
      ],
      "name": "get",
      "outputs": [
        {
          "internalType": "bytes32",
          "name": "",
          "type": "bytes32"
        }
      ],
      "stateMutability": "view",
      "type": "function"
    },
    {
      "inputs": [],
      "name": "getExtraData",
      "outputs": [
        {
          "internalType": "bytes27",
          "name": "",
          "type": "bytes27"
        }
      ],
      "stateMutability": "view",
      "type": "function"
    },
    {
      "inputs": [],
      "name": "getLength",
      "outputs": [
        {
          "internalType": "uint40",
          "name": "",
          "type": "uint40"
        }
      ],
      "stateMutability": "view",
      "type": "function"
    },
    {
      "inputs": [
        {
          "internalType": "bytes32",
          "name": "_value",
          "type": "bytes32"
        },
        {
          "internalType": "bytes27",
          "name": "_extraData",
          "type": "bytes27"
        }
      ],
      "name": "push",
      "outputs": [],
      "stateMutability": "nonpayable",
      "type": "function"
    },
    {
      "inputs": [
        {
          "internalType": "bytes27",
          "name": "_extraData",
          "type": "bytes27"
        }
      ],
      "name": "setExtraData",
      "outputs": [],
      "stateMutability": "nonpayable",
      "type": "function"
    }
  ],
  "bytecode": "0x608060405234801561001057600080fd5b5061068d806100206000396000f3fe608060405234801561001057600080fd5b506004361061007d5760003560e01c80639507d39a1161005b5780639507d39a146100bd578063a77df992146100e3578063be1c766b14610102578063f8ab57d81461012057600080fd5b8063061bc18f146100825780632015276c1461009757806320f89a35146100aa575b600080fd5b610095610090366004610588565b610133565b005b6100956100a53660046105bb565b610143565b6100956100b83660046105de565b61014f565b6100d06100cb366004610600565b61015d565b6040519081526020015b60405180910390f35b6100eb61016f565b60405164ffffffffff1990911681526020016100da565b61010a610180565b60405164ffffffffff90911681526020016100da565b61009561012e366004610619565b61018c565b61013f60008383610197565b5050565b61013f60008383610283565b61015a600082610312565b50565b60006101698183610373565b92915050565b600061017b6000610442565b905090565b600061017b6000610490565b61015a6000826104db565b60006101d984604080518082019091526000808252602082015250546040805180820190915264ffffffffff8216815264ffffffffff19909116602082015290565b9050806000015164ffffffffff168364ffffffffff161061025b576040517f08c379a000000000000000000000000000000000000000000000000000000000815260206004820152601460248201527f496e646578206f7574206f6620626f756e64732e00000000000000000000000060448201526064015b60405180910390fd5b64ffffffffff8316815264ffffffffff198216602082015261027d8482610538565b50505050565b60006102c584604080518082019091526000808252602082015250546040805180820190915264ffffffffff8216815264ffffffffff19909116602082015290565b805164ffffffffff16600090815260018601602052604090208490558051909150816102f082610634565b64ffffffffff1690525064ffffffffff198216602082015261027d8482610538565b600061035483604080518082019091526000808252602082015250546040805180820190915264ffffffffff8216815264ffffffffff19909116602082015290565b64ffffffffff1983166020820152905061036e8382610538565b505050565b6000806103b684604080518082019091526000808252602082015250546040805180820190915264ffffffffff8216815264ffffffffff19909116602082015290565b805190915064ffffffffff16831061042a576040517f08c379a000000000000000000000000000000000000000000000000000000000815260206004820152601460248201527f496e646578206f7574206f6620626f756e64732e0000000000000000000000006044820152606401610252565b50506000908152600191909101602052604090205490565b60008061048583604080518082019091526000808252602082015250546040805180820190915264ffffffffff8216815264ffffffffff19909116602082015290565b602001519392505050565b6000806104d383604080518082019091526000808252602082015250546040805180820190915264ffffffffff8216815264ffffffffff19909116602082015290565b519392505050565b600061051d83604080518082019091526000808252602082015250546040805180820190915264ffffffffff8216815264ffffffffff19909116602082015290565b905061036e828260200151856101979092919063ffffffff16565b8051602082015183548183179291908314610551578285555b5050505050565b803564ffffffffff8116811461056d57600080fd5b919050565b803564ffffffffff198116811461056d57600080fd5b6000806040838503121561059b57600080fd5b6105a483610558565b91506105b260208401610572565b90509250929050565b600080604083850312156105ce57600080fd5b823591506105b260208401610572565b6000602082840312156105f057600080fd5b6105f982610572565b9392505050565b60006020828403121561061257600080fd5b5035919050565b60006020828403121561062b57600080fd5b6105f982610558565b600064ffffffffff80831681811415610676577f4e487b7100000000000000000000000000000000000000000000000000000000600052601160045260246000fd5b600101939250505056fea164736f6c6343000808000a",
  "linkReferences": {},
  "deployedLinkReferences": {}
}