{
  "_format": "hh-sol-artifact-1",
  "contractName": "ConstructorReverter",
  "sourceName": "contracts/ConstructorReverter.sol",
  "abi": [
    {
      "inputs": [],
      "stateMutability": "nonpayable",
      "type": "constructor"
    },
    {
      "inputs": [],
      "name": "doRevert",
      "outputs": [],
      "stateMutability": "pure",
      "type": "function"
    },
    {
      "inputs": [],
      "name": "revertMessage",
      "outputs": [
        {
          "internalType": "string",
          "name": "",
          "type": "string"
        }
      ],
      "stateMutability": "view",
      "type": "function"
    }
  ],
  "bytecode": "0x608060405234801561001057600080fd5b5061001961001e565b6100c7565b604080518082018252601b81527f5468697320697320612073696d706c6520726576657273696f6e2e00000000006020820152905162461bcd60e51b81526100699190600401610072565b60405180910390fd5b600060208083528351808285015260005b8181101561009f57858101830151858201604001528201610083565b818111156100b1576000604083870101525b50601f01601f1916929092016040019392505050565b610185806100d66000396000f3fe608060405234801561001057600080fd5b50600436106100365760003560e01c80639d667c991461003b578063afc874d21461008d575b600080fd5b6100776040518060400160405280601b81526020017f5468697320697320612073696d706c6520726576657273696f6e2e000000000081525081565b6040516100849190610105565b60405180910390f35b610095610097565b005b604080518082018252601b81527f5468697320697320612073696d706c6520726576657273696f6e2e0000000000602082015290517f08c379a00000000000000000000000000000000000000000000000000000000081526100fc9190600401610105565b60405180910390fd5b600060208083528351808285015260005b8181101561013257858101830151858201604001528201610116565b81811115610144576000604083870101525b50601f017fffffffffffffffffffffffffffffffffffffffffffffffffffffffffffffffe01692909201604001939250505056fea164736f6c6343000809000a",
  "linkReferences": {},
  "deployedLinkReferences": {}
}