{
  "_format": "hh-sol-artifact-1",
  "contractName": "xL2GovernanceERC20Helper",
  "sourceName": "contracts/test-helpers/xL2GovernanceERC20Helper.sol",
  "abi": [
    {
      "inputs": [
        {
          "internalType": "address",
          "name": "_xERC20Address",
          "type": "address"
        }
      ],
      "stateMutability": "nonpayable",
      "type": "constructor"
    },
    {
      "inputs": [
        {
          "internalType": "address",
          "name": "_to",
          "type": "address"
        },
        {
          "internalType": "uint256",
          "name": "_amount",
          "type": "uint256"
        }
      ],
      "name": "burn",
      "outputs": [],
      "stateMutability": "nonpayable",
      "type": "function"
    },
    {
      "inputs": [
        {
          "internalType": "bytes",
          "name": "_message",
          "type": "bytes"
        }
      ],
      "name": "call",
      "outputs": [],
      "stateMutability": "nonpayable",
      "type": "function"
    },
    {
      "inputs": [
        {
          "internalType": "address",
          "name": "_to",
          "type": "address"
        },
        {
          "internalType": "uint256",
          "name": "_amount",
          "type": "uint256"
        }
      ],
      "name": "mint",
      "outputs": [],
      "stateMutability": "nonpayable",
      "type": "function"
    },
    {
      "inputs": [],
      "name": "owner",
      "outputs": [
        {
          "internalType": "address",
          "name": "",
          "type": "address"
        }
      ],
      "stateMutability": "view",
      "type": "function"
    },
    {
      "inputs": [],
      "name": "xERC20Adress",
      "outputs": [
        {
          "internalType": "address",
          "name": "",
          "type": "address"
        }
      ],
      "stateMutability": "view",
      "type": "function"
    }
  ],
  "bytecode": "0x608060405234801561001057600080fd5b5060405161068b38038061068b83398101604081905261002f9161005d565b600080546001600160a01b039092166001600160a01b0319928316179055600180549091163317905561008d565b60006020828403121561006f57600080fd5b81516001600160a01b038116811461008657600080fd5b9392505050565b6105ef8061009c6000396000f3fe608060405234801561001057600080fd5b50600436106100675760003560e01c80638da5cb5b116100505780638da5cb5b146100945780639dc29fac146100dd578063ec694b03146100f057600080fd5b806340c10f191461006c5780635a6535fc14610081575b600080fd5b61007f61007a366004610464565b610110565b005b61007f61008f3660046104d8565b610227565b6001546100b49073ffffffffffffffffffffffffffffffffffffffff1681565b60405173ffffffffffffffffffffffffffffffffffffffff909116815260200160405180910390f35b61007f6100eb366004610464565b610384565b6000546100b49073ffffffffffffffffffffffffffffffffffffffff1681565b60015473ffffffffffffffffffffffffffffffffffffffff163314610196576040517f08c379a000000000000000000000000000000000000000000000000000000000815260206004820152601760248201527f43616c6c6572206973206e6f7420746865206f776e657200000000000000000060448201526064015b60405180910390fd5b6000546040517f40c10f1900000000000000000000000000000000000000000000000000000000815273ffffffffffffffffffffffffffffffffffffffff848116600483015260248201849052909116906340c10f19906044015b600060405180830381600087803b15801561020b57600080fd5b505af115801561021f573d6000803e3d6000fd5b505050505050565b60015473ffffffffffffffffffffffffffffffffffffffff1633146102a8576040517f08c379a000000000000000000000000000000000000000000000000000000000815260206004820152601760248201527f43616c6c6572206973206e6f7420746865206f776e6572000000000000000000604482015260640161018d565b6000805460405173ffffffffffffffffffffffffffffffffffffffff909116906102d39084906105a7565b6000604051808303816000865af19150503d8060008114610310576040519150601f19603f3d011682016040523d82523d6000602084013e610315565b606091505b5050905080610380576040517f08c379a000000000000000000000000000000000000000000000000000000000815260206004820152601f60248201527f5472616e73616374696f6e20657865637574696f6e2072657665727465642e00604482015260640161018d565b5050565b60015473ffffffffffffffffffffffffffffffffffffffff163314610405576040517f08c379a000000000000000000000000000000000000000000000000000000000815260206004820152601760248201527f43616c6c6572206973206e6f7420746865206f776e6572000000000000000000604482015260640161018d565b6000546040517f9dc29fac00000000000000000000000000000000000000000000000000000000815273ffffffffffffffffffffffffffffffffffffffff84811660048301526024820184905290911690639dc29fac906044016101f1565b6000806040838503121561047757600080fd5b823573ffffffffffffffffffffffffffffffffffffffff8116811461049b57600080fd5b946020939093013593505050565b7f4e487b7100000000000000000000000000000000000000000000000000000000600052604160045260246000fd5b6000602082840312156104ea57600080fd5b813567ffffffffffffffff8082111561050257600080fd5b818401915084601f83011261051657600080fd5b813581811115610528576105286104a9565b604051601f82017fffffffffffffffffffffffffffffffffffffffffffffffffffffffffffffffe0908116603f0116810190838211818310171561056e5761056e6104a9565b8160405282815287602084870101111561058757600080fd5b826020860160208301376000928101602001929092525095945050505050565b6000825160005b818110156105c857602081860181015185830152016105ae565b818111156105d7576000828501525b50919091019291505056fea164736f6c6343000809000a",
  "linkReferences": {},
  "deployedLinkReferences": {}
}