{
  "_format": "hh-sol-artifact-1",
  "contractName": "OVM_StateCommitmentChain",
  "sourceName": "contracts/optimistic-ethereum/OVM/chain/OVM_StateCommitmentChain.sol",
  "abi": [
    {
      "inputs": [
        {
          "internalType": "address",
          "name": "_libAddressManager",
          "type": "address"
        },
        {
          "internalType": "uint256",
          "name": "_fraudProofWindow",
          "type": "uint256"
        },
        {
          "internalType": "uint256",
          "name": "_sequencerPublishWindow",
          "type": "uint256"
        }
      ],
      "stateMutability": "nonpayable",
      "type": "constructor"
    },
    {
      "anonymous": false,
      "inputs": [
        {
          "indexed": true,
          "internalType": "uint256",
          "name": "_batchIndex",
          "type": "uint256"
        },
        {
          "indexed": false,
          "internalType": "bytes32",
          "name": "_batchRoot",
          "type": "bytes32"
        },
        {
          "indexed": false,
          "internalType": "uint256",
          "name": "_batchSize",
          "type": "uint256"
        },
        {
          "indexed": false,
          "internalType": "uint256",
          "name": "_prevTotalElements",
          "type": "uint256"
        },
        {
          "indexed": false,
          "internalType": "bytes",
          "name": "_extraData",
          "type": "bytes"
        }
      ],
      "name": "StateBatchAppended",
      "type": "event"
    },
    {
      "anonymous": false,
      "inputs": [
        {
          "indexed": true,
          "internalType": "uint256",
          "name": "_batchIndex",
          "type": "uint256"
        },
        {
          "indexed": false,
          "internalType": "bytes32",
          "name": "_batchRoot",
          "type": "bytes32"
        }
      ],
      "name": "StateBatchDeleted",
      "type": "event"
    },
    {
      "inputs": [],
      "name": "FRAUD_PROOF_WINDOW",
      "outputs": [
        {
          "internalType": "uint256",
          "name": "",
          "type": "uint256"
        }
      ],
      "stateMutability": "view",
      "type": "function"
    },
    {
      "inputs": [],
      "name": "SEQUENCER_PUBLISH_WINDOW",
      "outputs": [
        {
          "internalType": "uint256",
          "name": "",
          "type": "uint256"
        }
      ],
      "stateMutability": "view",
      "type": "function"
    },
    {
      "inputs": [
        {
          "internalType": "bytes32[]",
          "name": "_batch",
          "type": "bytes32[]"
        },
        {
          "internalType": "uint256",
          "name": "_shouldStartAtElement",
          "type": "uint256"
        }
      ],
      "name": "appendStateBatch",
      "outputs": [],
      "stateMutability": "nonpayable",
      "type": "function"
    },
    {
      "inputs": [],
      "name": "batches",
      "outputs": [
        {
          "internalType": "contract iOVM_ChainStorageContainer",
          "name": "",
          "type": "address"
        }
      ],
      "stateMutability": "view",
      "type": "function"
    },
    {
      "inputs": [
        {
          "components": [
            {
              "internalType": "uint256",
              "name": "batchIndex",
              "type": "uint256"
            },
            {
              "internalType": "bytes32",
              "name": "batchRoot",
              "type": "bytes32"
            },
            {
              "internalType": "uint256",
              "name": "batchSize",
              "type": "uint256"
            },
            {
              "internalType": "uint256",
              "name": "prevTotalElements",
              "type": "uint256"
            },
            {
              "internalType": "bytes",
              "name": "extraData",
              "type": "bytes"
            }
          ],
          "internalType": "struct Lib_OVMCodec.ChainBatchHeader",
          "name": "_batchHeader",
          "type": "tuple"
        }
      ],
      "name": "deleteStateBatch",
      "outputs": [],
      "stateMutability": "nonpayable",
      "type": "function"
    },
    {
      "inputs": [],
      "name": "getLastSequencerTimestamp",
      "outputs": [
        {
          "internalType": "uint256",
          "name": "_lastSequencerTimestamp",
          "type": "uint256"
        }
      ],
      "stateMutability": "view",
      "type": "function"
    },
    {
      "inputs": [],
      "name": "getTotalBatches",
      "outputs": [
        {
          "internalType": "uint256",
          "name": "_totalBatches",
          "type": "uint256"
        }
      ],
      "stateMutability": "view",
      "type": "function"
    },
    {
      "inputs": [],
      "name": "getTotalElements",
      "outputs": [
        {
          "internalType": "uint256",
          "name": "_totalElements",
          "type": "uint256"
        }
      ],
      "stateMutability": "view",
      "type": "function"
    },
    {
      "inputs": [
        {
          "components": [
            {
              "internalType": "uint256",
              "name": "batchIndex",
              "type": "uint256"
            },
            {
              "internalType": "bytes32",
              "name": "batchRoot",
              "type": "bytes32"
            },
            {
              "internalType": "uint256",
              "name": "batchSize",
              "type": "uint256"
            },
            {
              "internalType": "uint256",
              "name": "prevTotalElements",
              "type": "uint256"
            },
            {
              "internalType": "bytes",
              "name": "extraData",
              "type": "bytes"
            }
          ],
          "internalType": "struct Lib_OVMCodec.ChainBatchHeader",
          "name": "_batchHeader",
          "type": "tuple"
        }
      ],
      "name": "insideFraudProofWindow",
      "outputs": [
        {
          "internalType": "bool",
          "name": "_inside",
          "type": "bool"
        }
      ],
      "stateMutability": "view",
      "type": "function"
    },
    {
      "inputs": [],
      "name": "libAddressManager",
      "outputs": [
        {
          "internalType": "contract Lib_AddressManager",
          "name": "",
          "type": "address"
        }
      ],
      "stateMutability": "view",
      "type": "function"
    },
    {
      "inputs": [
        {
          "internalType": "string",
          "name": "_name",
          "type": "string"
        }
      ],
      "name": "resolve",
      "outputs": [
        {
          "internalType": "address",
          "name": "",
          "type": "address"
        }
      ],
      "stateMutability": "view",
      "type": "function"
    },
    {
      "inputs": [
        {
          "internalType": "bytes32",
          "name": "_element",
          "type": "bytes32"
        },
        {
          "components": [
            {
              "internalType": "uint256",
              "name": "batchIndex",
              "type": "uint256"
            },
            {
              "internalType": "bytes32",
              "name": "batchRoot",
              "type": "bytes32"
            },
            {
              "internalType": "uint256",
              "name": "batchSize",
              "type": "uint256"
            },
            {
              "internalType": "uint256",
              "name": "prevTotalElements",
              "type": "uint256"
            },
            {
              "internalType": "bytes",
              "name": "extraData",
              "type": "bytes"
            }
          ],
          "internalType": "struct Lib_OVMCodec.ChainBatchHeader",
          "name": "_batchHeader",
          "type": "tuple"
        },
        {
          "components": [
            {
              "internalType": "uint256",
              "name": "index",
              "type": "uint256"
            },
            {
              "internalType": "bytes32[]",
              "name": "siblings",
              "type": "bytes32[]"
            }
          ],
          "internalType": "struct Lib_OVMCodec.ChainInclusionProof",
          "name": "_proof",
          "type": "tuple"
        }
      ],
      "name": "verifyStateCommitment",
      "outputs": [
        {
          "internalType": "bool",
          "name": "",
          "type": "bool"
        }
      ],
      "stateMutability": "view",
      "type": "function"
    }
  ],
  "bytecode": "0x60806040525a6200000f620000af565b80156200002657600080620000236200010b565b50505b506040516200251c3803806200251c833981016040819052620000499162000214565b828060006001816200005a62000178565b816001600160a01b0302191690836001600160a01b03160217906200007e620001c5565b50505050816001819062000091620001c5565b5050508060028190620000a3620001c5565b5050505050506200026d565b63a8c4c5ec598160e01b8152602081600483336000905af158600e01573d6000803e3d6000fd5b3d6001141558600a015760016000f35b8051935060005b60408110156200010657600082820152602001620000ed565b505050565b632a2a7adb598160e01b8152600481016020815285602082015260005b868110156200014557808601518282016040015260200162000128565b506020828760640184336000905af158600e01573d6000803e3d6000fd5b3d6001141558600a015760016000f35b505050565b6303daa959598160e01b8152836004820152602081602483336000905af158600e01573d6000803e3d6000fd5b3d6001141558600a015760016000f35b80516000825293506020620000ed565b6322bd64c0598160e01b8152836004820152846024820152600081604483336000905af158600e01573d6000803e3d6000fd5b3d6001141558600a015760016000f35b600081526020620000ed565b60008060006060848603121562000234578283620002316200010b565b50505b83516001600160a01b038116811462000256578384620002536200010b565b50505b925060208401519150604084015190509250925092565b61229f806200027d6000396000f3fe60806040525a61000d611539565b80156100215760008061001e611593565b50505b50600436106100c55760003560e01c80638ca5cbb9116100825780638ca5cbb9146101495780639418bddd1461015e578063b8e189ac14610171578063c17b291b14610184578063cfdf677e1461018c578063e561dddc14610194576100c5565b8063299ca478146100d3578063461a4478146100f15780634d69ee57146101045780637aa63a86146101245780637ad168a01461013957806381eb62ef14610141575b6000806100d0611593565b50505b6100db61019c565b6040516100e89190611d2c565b60405180910390f35b6100db6100ff366004611c32565b6101ba565b610117610112366004611b53565b6102e4565b6040516100e89190611d40565b61012c61036f565b6040516100e89190611d4b565b61012c610388565b61012c6103a1565b61015c610157366004611a77565b6103ae565b005b61011761016c366004611c9b565b610666565b61015c61017f366004611c9b565b6106d7565b61012c6107cb565b6100db6107d5565b61012c6107fb565b6000806101a76115fe565b906101000a90046001600160a01b031681565b600080806101c66115fe565b906101000a90046001600160a01b03166001600160a01b031663bf40fac1836040518263ffffffff1660e01b81526004018080602001828103825283818151815260200191508051906020019080838360005b83811015610231578082015183820152602001610219565b50505050905090810190601f16801561025e5780820380516001836020036101000a031916815260200191505b5092505050602060405180830381868061027661164a565b15801561028b57600080610288611593565b50505b505a610295611696565b50505050501580156102b4573d6000803e3d60006102b1611593565b50505b505050506040513d60208110156102d3576000806102d0611593565b50505b81019080805193505050505b919050565b60006102ef83610899565b61031d5760405162461bcd60e51b815260040161030b90611ed6565b6040518091039061031a611593565b50505b610337836020015185845185602001518760400151610953565b6103655760405162461bcd60e51b815260040161035390611e42565b60405180910390610362611593565b50505b5060019392505050565b60008061037a610af3565b5064ffffffffff1691505090565b600080610393610af3565b64ffffffffff169250505090565b60026103ab6115fe565b81565b6103b661036f565b81146103e65760405162461bcd60e51b81526004016103d490611e79565b604051809103906103e3611593565b50505b61041460405160408082019052600f81526e27ab26afa137b73226b0b730b3b2b960891b60208201526101ba565b6001600160a01b03166302ad4d2a5a61042b611781565b6040518263ffffffff1660e01b81526004016104479190611d2c565b602060405180830381868061045a61164a565b15801561046f5760008061046c611593565b50505b505a610479611696565b5050505050158015610498573d6000803e3d6000610495611593565b50505b50505050604051601f3d908101601f191682016040526104bb9190810190611acc565b6104e95760405162461bcd60e51b81526004016104d790612048565b604051809103906104e6611593565b50505b600082511161051c5760405162461bcd60e51b815260040161050a90612005565b60405180910390610519611593565b50505b61055860405160408082019052601d81527f4f564d5f43616e6f6e6963616c5472616e73616374696f6e436861696e00000060208201526101ba565b6001600160a01b0316637aa63a866040518163ffffffff1660e01b8152600401602060405180830381868061058b61164a565b1580156105a05760008061059d611593565b50505b505a6105aa611696565b50505050501580156105c9573d6000803e3d60006105c6611593565b50505b50505050604051601f3d908101601f191682016040526105ec9190810190611b30565b82516105f661036f565b0111156106275760405162461bcd60e51b815260040161061590611dd3565b60405180910390610624611593565b50505b610662825a6106346117c7565b5a61063d611781565b60405160200161064e92919061212e565b604051602081830303815290604052610bac565b5050565b60008082608001518060200190518101906106819190611ce0565b509050806106b35760405162461bcd60e51b81526004016106a190611fc0565b604051809103906106b0611593565b50505b5a6106bc6117c7565b6106cf8260016106ca6115fe565b610da7565b119392505050565b61070760405160408082019052601181527027ab26afa33930bab22b32b934b334b2b960791b60208201526101ba565b6001600160a01b03165a610719611781565b6001600160a01b0316146107515760405162461bcd60e51b815260040161073f90611f63565b6040518091039061074e611593565b50505b61075a81610899565b6107885760405162461bcd60e51b815260040161077690611ed6565b60405180910390610785611593565b50505b61079181610666565b6107bf5760405162461bcd60e51b81526004016107ad90611f05565b604051809103906107bc611593565b50505b6107c881610e12565b50565b60016103ab6115fe565b60006107f66040516060810160405260258082526121f960208301396101ba565b905090565b60006108056107d5565b6001600160a01b0316631f7b6d326040518163ffffffff1660e01b8152600401602060405180830381868061083861164a565b15801561084d5760008061084a611593565b50505b505a610857611696565b5050505050158015610876573d6000803e3d6000610873611593565b50505b50505050604051601f3d908101601f191682016040526107f69190810190611b30565b60006108a36107d5565b6001600160a01b0316639507d39a83516040518263ffffffff1660e01b81526004016108cf9190611d4b565b60206040518083038186806108e261164a565b1580156108f7576000806108f4611593565b50505b505a610901611696565b5050505050158015610920573d6000803e3d600061091d611593565b50505b50505050604051601f3d908101601f191682016040526109439190810190611b30565b61094c83610ff3565b1492915050565b600080821161099c5760405162461bcd60e51b81526004018080602001828103825260378152602001806121c26037913960400191505060405180910390610999611593565b50505b8184106109e35760405162461bcd60e51b815260040180806020018281038252602481526020018061216e60249139604001915050604051809103906109e0611593565b50505b6109ec82611038565b835114610a335760405162461bcd60e51b815260040180806020018281038252604d81526020018061221e604d913960600191505060405180910390610a30611593565b50505b8460005b8451811015610ae6578560011660011415610a9557848181518110610a5857fe5b6020026020010151826040516020018083815260200182815260200192505050604051602081830303815290604052805190602001209150610ada565b81858281518110610aa257fe5b602002602001015160405160200180838152602001828152602001925050506040516020818303038152906040528051906020012091505b600195861c9501610a37565b5090951495945050505050565b6000806000610b006107d5565b6001600160a01b031663ccf8f9696040518163ffffffff1660e01b81526004016020604051808303818680610b3361164a565b158015610b4857600080610b45611593565b50505b505a610b52611696565b5050505050158015610b71573d6000803e3d6000610b6e611593565b50505b50505050604051601f3d908101601f19168201604052610b949190810190611afb565b64ffffffffff602882901c16935060501c9150509091565b6000610bd960405160408082019052600c81526b27ab26afa83937b837b9b2b960a11b60208201526101ba565b9050600080610be6610af3565b91509150826001600160a01b03165a610bfd611781565b6001600160a01b03161415610c1c575a610c156117c7565b9050610c67565b5a610c256117c7565b6002610c2f6115fe565b8264ffffffffff160110610c675760405162461bcd60e51b8152600401610c5590612097565b60405180910390610c64611593565b50505b60006040518060a00160405280610c7c6107fb565b8152602001610c8a886110d8565b81526020018751815264ffffffffff85166020820152604001869052905080517f16be4c5129a4e03cf3350262e181dc02ddfb4a6008d925368c0899fcd97ca9c58260200151836040015184606001518560800151604051610cef9493929190611d6a565b60405180910390a2610cff6107d5565b6001600160a01b0316632015276c610d1683610ff3565b610d2a84604001518560600151018661152b565b6040518363ffffffff1660e01b8152600401610d47929190611d54565b60006040518083038160008780610d5c61164a565b158015610d7157600080610d6e611593565b50505b505a610d7b61180d565b505050505050158015610d9b573d6000803e3d6000610d98611593565b50505b50505050505050505050565b600082820183811015610e095760405162461bcd60e51b815260206004820152601b60248201527f536166654d6174683a206164646974696f6e206f766572666c6f770000000000604482015260640160405180910390610e06611593565b50505b90505b92915050565b610e1a6107d5565b6001600160a01b0316631f7b6d326040518163ffffffff1660e01b81526004016020604051808303818680610e4d61164a565b158015610e6257600080610e5f611593565b50505b505a610e6c611696565b5050505050158015610e8b573d6000803e3d6000610e88611593565b50505b50505050604051601f3d908101601f19168201604052610eae9190810190611b30565b815110610edf5760405162461bcd60e51b8152600401610ecd90612100565b60405180910390610edc611593565b50505b610ee881610899565b610f165760405162461bcd60e51b8152600401610f0490611ed6565b60405180910390610f13611593565b50505b610f1e6107d5565b6001600160a01b031663167fd6818251610f3d8460600151600061152b565b6040518363ffffffff1660e01b8152600401610f5a929190611d54565b60006040518083038160008780610f6f61164a565b158015610f8457600080610f81611593565b50505b505a610f8e61180d565b505050505050158015610fae573d6000803e3d6000610fab611593565b50505b508392505050517f8747b69ce8fdb31c3b9b0a67bd8049ad8c1a69ea417b69b12174068abd9cbd648260200151604051610fe89190611d4b565b60405180910390a250565b6000816020015182604001518360600151846080015160405160200161101c9493929190611d6a565b6040516020818303038152906040528051906020012092915050565b60008082116110815760405162461bcd60e51b8152600401808060200182810382526030815260200180612192603091396040019150506040518091039061107e611593565b50505b8160011415611092575060006102df565b81600060805b600181106110c2576000196001821b01811b8316156110ba5791821c91908101905b60011c611098565b506001811b84146110d1576001015b9392505050565b6000808251116111225760405162461bcd60e51b815260040180806020018281038252603481526020018061226b603491396040019150506040518091039061111f611593565b50505b815160011415611148578160008151811061113957fe5b602002602001015190506102df565b6000604051610200810160409081527f290decd9548b62a8d60345a988386fc84ba6bc95484008f6362f93160ef3e56382527f633dc4d7da7256660a892f8f1604a44b5432649cc8ec5cb3ced4c4e6ac94dd1d60208301527f890740a8eb06ce9be422cb8da5cdafc2b58c0a5e24036c578de2a433c828ff7d818301527f3b8ec09e026fdc305365dfc94e189a81b38c7597b3d941c279f042e8206e0bd860608301527fecd50eee38e386bd62be9bedb990706951b65fe053bd9d8a521af753d139e2da60808301527fdefff6d330bb5403f63b14f33b578274160de3a50df4efecf0e0db73bcdd3da560a08301527f617bdd11f7c0a11f49db22f629387a12da7596f9d1704d7465177c63d88ec7d760c08301527f292c23a9aa1d8bea7e2435e555a4a60e379a5a35f3f452bae60121073fb6eead60e08301527fe1cea92ed99acdcb045a6726b2f87107e8a61620a232cf4d7d5b5766b3952e106101008301527f7ad66c0a68c72cb89e4fb4303841966e4062a76ab97451e3b9fb526a5ceb7f826101208301527fe026cc5a4aed3c22a58cbd3d2ac754c9352c5436f638042dca99034e836365166101408301527f3d04cffd8b46a874edf5cfae63077de85f849a660426697b06a829c70dd1409c6101608301527fad676aa337a485e4728a0b240d92b3ef7b3c372d06d189322bfd5f61f1e7203e6101808301527fa2fca4a49658f9fab7aa63289c91b7c7b6c832a6d0e69334ff5b0a3483d09dab6101a08301527f4ebfd9cd7bca2505f7bef59cc1c12ecc708fff26ae4af19abe852afe9e20c8626101c08301527f2def10d13dd169f550f578bda343d9717a138562e0093b380a1120789d53cf106101e0830152909150600090604051818152601f19601f83011681016020016040529080156113eb576020820181803683370190505b509050600080600086519050600080805b60018411156115085750506002820460018084161460005b82811015611484578a816002028151811061142b57fe5b602002602001015196508a816002026001018151811061144757fe5b6020026020010151955086602089015285604089015287805190602001208b828151811061147157fe5b6020908102919091010152600101611414565b5080156114e75789600185038151811061149a57fe5b602002602001015195508783601081106114b057fe5b602002015160001b945085602088015284604088015286805190602001208a83815181106114da57fe5b6020026020010181815250505b806114f35760006114f6565b60015b60ff16820193506001909201916113fc565b8960008151811061151557fe5b60200260200101519a9950505050505050505050565b602890811b91909117901b90565b63a8c4c5ec598160e01b8152602081600483336000905af158600e01573d6000803e3d6000fd5b3d6001141558600a015760016000f35b8051935060005b604081101561158e57600082820152602001611577565b505050565b632a2a7adb598160e01b8152600481016020815285602082015260005b868110156115cb5780860151828201604001526020016115b0565b506020828760640184336000905af158600e01573d6000803e3d6000fd5b3d6001141558600a015760016000f35b505050565b6303daa959598160e01b8152836004820152602081602483336000905af158600e01573d6000803e3d6000fd5b3d6001141558600a015760016000f35b80516000825293506020611577565b638435035b598160e01b8152836004820152602081602483336000905af158600e01573d6000803e3d6000fd5b3d6001141558600a015760016000f35b80516000825293506020611577565b638540661f598160e01b81526116c7565b8080831115610e0c575090919050565b8080831015610e0c575090919050565b836004820152846024820152606060448201528660648201526084810160005b888110156116ff5780880151828201526020016116e7565b506060828960a40184336000905af158600e01573d6000803e3d6000fd5b3d6001141558600a015760016000f35b815160408301513d6000853e8b8b82606087013350600060045af150596117548d3d6116b7565b8c0161176081876116a7565b5b828110156117755760008152602001611761565b50929c50505050505050565b6373509064598160e01b8152602081600483336000905af158600e01573d6000803e3d6000fd5b3d6001141558600a015760016000f35b80516000825293506020611577565b63bdbf8c36598160e01b8152602081600483336000905af158600e01573d6000803e3d6000fd5b3d6001141558600a015760016000f35b80516000825293506020611577565b635b99d1c5598160e01b81528360048201528460248201528560448201526080606482015287608482015260a4810160005b8981101561185757808901518282015260200161183f565b506060828a60c40184336000905af158600e01573d6000803e3d6000fd5b3d6001141558600a015760016000f35b815160408301513d6000853e8c8c82606087013350600060045af150596118ac8e3d6116b7565b8d016118b881876116a7565b5b828110156118cd57600081526020016118b9565b50929d50505050505050565b600067ffffffffffffffff8311156118ed57fe5b611900601f8401601f1916602001612145565b905082815283838301111561191d5760008061191a611593565b50505b828260208301376000602084830101529392505050565b600082601f83011261194d57808161194a611593565b50505b8135602067ffffffffffffffff82111561196357fe5b808202611971828201612145565b838152828101908684018388018501891015611994578687611991611593565b50505b8693505b858410156119b6578035835260019390930192918401918401611998565b50979650505050505050565b600060a082840312156119dc5780816119d9611593565b50505b60405160a0810167ffffffffffffffff82821081831117156119fa57fe5b81604052829350843583526020850135602084015260408501356040840152606085013560608401526080850135915080821115611a4057600080611a3d611593565b50505b508301601f81018513611a5b57600080611a58611593565b50505b611a6a858235602084016118d9565b6080830152505092915050565b60008060408385031215611a92578182611a8f611593565b50505b823567ffffffffffffffff811115611ab1578283611aae611593565b50505b611abd85828601611934565b95602094909401359450505050565b600060208284031215611ae6578081611ae3611593565b50505b81518015158114610e09578182610e06611593565b600060208284031215611b15578081611b12611593565b50505b815164ffffffffff1981168114610e09578182610e06611593565b600060208284031215611b4a578081611b47611593565b50505b81519392505050565b600080600060608486031215611b70578081611b6d611593565b50505b83359250602084013567ffffffffffffffff80821115611b97578283611b94611593565b50505b611ba3878388016119c2565b93506040860135915080821115611bc1578283611bbe611593565b50505b9085019060408288031215611bdd578283611bda611593565b50505b604051604081018181108382111715611bf257fe5b60405282358152602083013582811115611c13578485611c10611593565b50505b611c1f89828601611934565b6020830152508093505050509250925092565b600060208284031215611c4c578081611c49611593565b50505b813567ffffffffffffffff811115611c6b578182611c68611593565b50505b8201601f81018413611c84578182611c81611593565b50505b611c93848235602084016118d9565b949350505050565b600060208284031215611cb5578081611cb2611593565b50505b813567ffffffffffffffff811115611cd4578182611cd1611593565b50505b611c93848285016119c2565b60008060408385031215611cfb578182611cf8611593565b50505b8251915060208301516001600160a01b0381168114611d21578182611d1e611593565b50505b809150509250929050565b6001600160a01b0391909116815260200190565b901515815260200190565b90815260200190565b91825264ffffffffff1916602082015260400190565b600085825260208581840152846040840152608060608401528351806080850152825b81811015611da95782818701015185820160a001528201611d8d565b81811115611dba578360a083870101525b50601f01601f19169290920160a0019695505050505050565b60208082526049908201527f4e756d626572206f6620737461746520726f6f74732063616e6e6f742065786360408201527f65656420746865206e756d626572206f662063616e6f6e6963616c207472616e60608201526839b0b1ba34b7b7399760b91b608082015260a00190565b60208082526018908201527f496e76616c696420696e636c7573696f6e2070726f6f662e0000000000000000604082015260600190565b6020808252603d908201527f41637475616c20626174636820737461727420696e64657820646f6573206e6f60408201527f74206d6174636820657870656374656420737461727420696e6465782e000000606082015260800190565b60208082526015908201527424b73b30b634b2103130ba31b4103432b0b232b91760591b604082015260600190565b602080825260409082018190527f537461746520626174636865732063616e206f6e6c792062652064656c657465908201527f642077697468696e207468652066726175642070726f6f662077696e646f772e606082015260800190565b6020808252603b908201527f537461746520626174636865732063616e206f6e6c792062652064656c65746560408201527f6420627920746865204f564d5f467261756456657269666965722e0000000000606082015260800190565b60208082526025908201527f4261746368206865616465722074696d657374616d702063616e6e6f74206265604082015264207a65726f60d81b606082015260800190565b60208082526023908201527f43616e6e6f74207375626d697420616e20656d7074792073746174652062617460408201526231b41760e91b606082015260800190565b6020808252602f908201527f50726f706f73657220646f6573206e6f74206861766520656e6f75676820636f60408201526e1b1b185d195c985b081c1bdcdd1959608a1b606082015260800190565b60208082526043908201527f43616e6e6f74207075626c69736820737461746520726f6f747320776974686960408201527f6e207468652073657175656e636572207075626c69636174696f6e2077696e6460608201526237bb9760e91b608082015260a00190565b60208082526014908201527324b73b30b634b2103130ba31b41034b73232bc1760611b604082015260600190565b9182526001600160a01b0316602082015260400190565b6000604051905081810181811067ffffffffffffffff8211171561216557fe5b60405291905056fe4c69625f4d65726b6c65547265653a20496e646578206f7574206f6620626f756e64732e4c69625f4d65726b6c65547265653a2043616e6e6f7420636f6d70757465206365696c286c6f675f3229206f6620302e4c69625f4d65726b6c65547265653a20546f74616c206c6561766573206d7573742062652067726561746572207468616e207a65726f2e4f564d5f436861696e53746f72616765436f6e7461696e65722d5343432d626174636865734c69625f4d65726b6c65547265653a20546f74616c207369626c696e677320646f6573206e6f7420636f72726563746c7920636f72726573706f6e6420746f20746f74616c206c65617665732e4c69625f4d65726b6c65547265653a204d7573742070726f76696465206174206c65617374206f6e65206c65616620686173682e",
  "linkReferences": {},
  "deployedLinkReferences": {}
}