{
  "_format": "hh-sol-artifact-1",
  "contractName": "HelloTuring",
  "sourceName": "contracts/HelloTuring.sol",
  "abi": [
    {
      "inputs": [
        {
          "internalType": "address",
          "name": "_helper",
          "type": "address"
        }
      ],
      "stateMutability": "nonpayable",
      "type": "constructor"
    },
    {
      "anonymous": false,
      "inputs": [
        {
          "indexed": false,
          "internalType": "uint256",
          "name": "",
          "type": "uint256"
        }
      ],
      "name": "Get42",
      "type": "event"
    },
    {
      "anonymous": false,
      "inputs": [
        {
          "indexed": false,
          "internalType": "uint256",
          "name": "",
          "type": "uint256"
        }
      ],
      "name": "GetRandom",
      "type": "event"
    },
    {
      "anonymous": false,
      "inputs": [
        {
          "indexed": false,
          "internalType": "uint256",
          "name": "",
          "type": "uint256"
        }
      ],
      "name": "MultFloatNumbers",
      "type": "event"
    },
    {
      "inputs": [],
      "name": "get42",
      "outputs": [
        {
          "internalType": "uint256",
          "name": "",
          "type": "uint256"
        }
      ],
      "stateMutability": "nonpayable",
      "type": "function"
    },
    {
      "inputs": [],
      "name": "getRandom",
      "outputs": [
        {
          "internalType": "uint256",
          "name": "",
          "type": "uint256"
        }
      ],
      "stateMutability": "nonpayable",
      "type": "function"
    },
    {
      "inputs": [],
      "name": "helperAddr",
      "outputs": [
        {
          "internalType": "address",
          "name": "",
          "type": "address"
        }
      ],
      "stateMutability": "view",
      "type": "function"
    },
    {
      "inputs": [
        {
          "internalType": "string",
          "name": "_url",
          "type": "string"
        },
        {
          "internalType": "string",
          "name": "a",
          "type": "string"
        }
      ],
      "name": "multFloatNumbers",
      "outputs": [
        {
          "internalType": "uint256",
          "name": "",
          "type": "uint256"
        }
      ],
      "stateMutability": "nonpayable",
      "type": "function"
    }
  ],
  "bytecode": "0x608060405234801561001057600080fd5b5060405161076838038061076883398101604081905261002f9161005e565b600080546001600160a01b039092166001600160a01b031992831681179091556001805490921617905561008e565b60006020828403121561007057600080fd5b81516001600160a01b038116811461008757600080fd5b9392505050565b6106cb8061009d6000396000f3fe608060405234801561001057600080fd5b506004361061004c5760003560e01c80630146914c146100515780631569f61514610077578063a3818cc7146100bc578063aacc5a17146100c4575b600080fd5b61006461005f366004610511565b6100cc565b6040519081526020015b60405180910390f35b6000546100979073ffffffffffffffffffffffffffffffffffffffff1681565b60405173ffffffffffffffffffffffffffffffffffffffff909116815260200161006e565b61006461023a565b61006461031f565b600080826040516020016100e091906105ef565b604080517fffffffffffffffffffffffffffffffffffffffffffffffffffffffffffffffe0818403018152908290526001547f2f7adf4300000000000000000000000000000000000000000000000000000000835290925060009173ffffffffffffffffffffffffffffffffffffffff90911690632f7adf439061016a9088908690600401610609565b600060405180830381600087803b15801561018457600080fd5b505af1158015610198573d6000803e3d6000fd5b505050506040513d6000823e601f3d9081017fffffffffffffffffffffffffffffffffffffffffffffffffffffffffffffffe01682016040526101de9190810190610637565b90506000818060200190518101906101f691906106a5565b90507f44d0fffa09750289ced9366ce98ef678ee5131c959f0f77b63ae14a11043ee8b8160405161022991815260200190565b60405180910390a195945050505050565b600080600160009054906101000a900473ffffffffffffffffffffffffffffffffffffffff1673ffffffffffffffffffffffffffffffffffffffff1663b8d160566040518163ffffffff1660e01b8152600401602060405180830381600087803b1580156102a757600080fd5b505af11580156102bb573d6000803e3d6000fd5b505050506040513d601f19601f820116820180604052508101906102df91906106a5565b90507f15404dd3ce84a13678142b4005bb11647e29ef403735187e3e37a1c564df6ffd8160405161031291815260200190565b60405180910390a1919050565b600080600160009054906101000a900473ffffffffffffffffffffffffffffffffffffffff1673ffffffffffffffffffffffffffffffffffffffff166345ff812a6040518163ffffffff1660e01b8152600401602060405180830381600087803b15801561038c57600080fd5b505af11580156103a0573d6000803e3d6000fd5b505050506040513d601f19601f820116820180604052508101906103c491906106a5565b90507fcc69bdcab5c19b312c31019122ba42664b3ad9ec63b7e7a40b56439ea9ae037d8160405161031291815260200190565b7f4e487b7100000000000000000000000000000000000000000000000000000000600052604160045260246000fd5b604051601f82017fffffffffffffffffffffffffffffffffffffffffffffffffffffffffffffffe016810167ffffffffffffffff8111828210171561046d5761046d6103f7565b604052919050565b600067ffffffffffffffff82111561048f5761048f6103f7565b50601f017fffffffffffffffffffffffffffffffffffffffffffffffffffffffffffffffe01660200190565b600082601f8301126104cc57600080fd5b81356104df6104da82610475565b610426565b8181528460208386010111156104f457600080fd5b816020850160208301376000918101602001919091529392505050565b6000806040838503121561052457600080fd5b823567ffffffffffffffff8082111561053c57600080fd5b610548868387016104bb565b9350602085013591508082111561055e57600080fd5b5061056b858286016104bb565b9150509250929050565b60005b83811015610590578181015183820152602001610578565b8381111561059f576000848401525b50505050565b600081518084526105bd816020860160208601610575565b601f017fffffffffffffffffffffffffffffffffffffffffffffffffffffffffffffffe0169290920160200192915050565b60208152600061060260208301846105a5565b9392505050565b60408152600061061c60408301856105a5565b828103602084015261062e81856105a5565b95945050505050565b60006020828403121561064957600080fd5b815167ffffffffffffffff81111561066057600080fd5b8201601f8101841361067157600080fd5b805161067f6104da82610475565b81815285602083850101111561069457600080fd5b61062e826020830160208601610575565b6000602082840312156106b757600080fd5b505191905056fea164736f6c6343000809000a",
  "linkReferences": {},
  "deployedLinkReferences": {}
}