{
  "_format": "hh-sol-artifact-1",
  "contractName": "OVM_DeployerWhitelist",
  "sourceName": "contracts/optimistic-ethereum/OVM/predeploys/OVM_DeployerWhitelist.sol",
  "abi": [
    {
      "inputs": [],
      "name": "allowArbitraryDeployment",
      "outputs": [
        {
          "internalType": "bool",
          "name": "",
          "type": "bool"
        }
      ],
      "stateMutability": "view",
      "type": "function"
    },
    {
      "inputs": [],
      "name": "enableArbitraryContractDeployment",
      "outputs": [],
      "stateMutability": "nonpayable",
      "type": "function"
    },
    {
      "inputs": [
        {
          "internalType": "address",
          "name": "_owner",
          "type": "address"
        },
        {
          "internalType": "bool",
          "name": "_allowArbitraryDeployment",
          "type": "bool"
        }
      ],
      "name": "initialize",
      "outputs": [],
      "stateMutability": "nonpayable",
      "type": "function"
    },
    {
      "inputs": [],
      "name": "initialized",
      "outputs": [
        {
          "internalType": "bool",
          "name": "",
          "type": "bool"
        }
      ],
      "stateMutability": "view",
      "type": "function"
    },
    {
      "inputs": [
        {
          "internalType": "address",
          "name": "_deployer",
          "type": "address"
        }
      ],
      "name": "isDeployerAllowed",
      "outputs": [
        {
          "internalType": "bool",
          "name": "",
          "type": "bool"
        }
      ],
      "stateMutability": "nonpayable",
      "type": "function"
    },
    {
      "inputs": [],
      "name": "owner",
      "outputs": [
        {
          "internalType": "address",
          "name": "",
          "type": "address"
        }
      ],
      "stateMutability": "view",
      "type": "function"
    },
    {
      "inputs": [
        {
          "internalType": "bool",
          "name": "_allowArbitraryDeployment",
          "type": "bool"
        }
      ],
      "name": "setAllowArbitraryDeployment",
      "outputs": [],
      "stateMutability": "nonpayable",
      "type": "function"
    },
    {
      "inputs": [
        {
          "internalType": "address",
          "name": "_owner",
          "type": "address"
        }
      ],
      "name": "setOwner",
      "outputs": [],
      "stateMutability": "nonpayable",
      "type": "function"
    },
    {
      "inputs": [
        {
          "internalType": "address",
          "name": "_deployer",
          "type": "address"
        },
        {
          "internalType": "bool",
          "name": "_isWhitelisted",
          "type": "bool"
        }
      ],
      "name": "setWhitelistedDeployer",
      "outputs": [],
      "stateMutability": "nonpayable",
      "type": "function"
    },
    {
      "inputs": [
        {
          "internalType": "address",
          "name": "",
          "type": "address"
        }
      ],
      "name": "whitelist",
      "outputs": [
        {
          "internalType": "bool",
          "name": "",
          "type": "bool"
        }
      ],
      "stateMutability": "view",
      "type": "function"
    }
  ],
  "bytecode": "0x60806040525a61000d610027565b80156100215760008061001e610081565b50505b506100ec565b63a8c4c5ec598160e01b8152602081600483336000905af158600e01573d6000803e3d6000fd5b3d6001141558600a015760016000f35b8051935060005b604081101561007c57600082820152602001610065565b505050565b632a2a7adb598160e01b8152600481016020815285602082015260005b868110156100b957808601518282016040015260200161009e565b506020828760640184336000905af158600e01573d6000803e3d6000fd5b3d6001141558600a015760016000f35b505050565b610837806100fb6000396000f3fe60806040525a61000d610657565b80156100215760008061001e6106b1565b50505b50600436106100af5760003560e01c80638da5cb5b116100775780638da5cb5b146101805780639b19251a146101a4578063b1540a01146101d3578063bdc7b54f14610202578063d533887a1461020a576100af565b806308fd6322146100bd57806313af4035146100f6578063158ef93e14610125578063400ada75146101415780637ec630dd14610178575b6000806100ba6106b1565b50505b6100f4600480360360408110156100dc576000806100d96106b1565b50505b506001600160a01b0381351690602001351515610232565b005b6100f460048036036020811015610115576000806101126106b1565b50505b50356001600160a01b03166102ef565b61012d6103a3565b604051901515815260200160405180910390f35b6100f4600480360360408110156101605760008061015d6106b1565b50505b506001600160a01b03813516906020013515156103bb565b61012d610469565b610188610475565b6040516001600160a01b03909116815260200160405180910390f35b61012d600480360360208110156101c3576000806101c06106b1565b50505b50356001600160a01b0316610494565b61012d600480360360208110156101f2576000806101ef6106b1565b50505b50356001600160a01b03166104ae565b6100f4610525565b6100f460048036036020811015610229576000806102266106b1565b50505b503515156105b7565b6002600061023e61071c565b906101000a90046001600160a01b03166001600160a01b03165a610260610768565b6001600160a01b0316146102ae5760405162461bcd60e51b815260040180806020018281038252603a8152602001806107fd603a9139604001915050604051809103906102ab6106b1565b50505b6001600160a01b038216600090815260016020528190604090206001816102d361071c565b8160ff021916908315150217906102e86107ae565b5050505050565b600260006102fb61071c565b906101000a90046001600160a01b03166001600160a01b03165a61031d610768565b6001600160a01b03161461036b5760405162461bcd60e51b815260040180806020018281038252603a8152602001806107fd603a9139604001915050604051809103906103686106b1565b50505b806000620100008161037b61071c565b816001600160a01b0302191690836001600160a01b031602179061039d6107ae565b50505050565b6000806103ae61071c565b906101000a900460ff1681565b6000806103c661071c565b906101000a900460ff1615156001151514156103e157610465565b6001600081816103ef61071c565b8160ff021916908315150217906104046107ae565b50505080600060016101000a8161041961071c565b8160ff0219169083151502179061042e6107ae565b50505081600060026101000a8161044361071c565b816001600160a01b0302191690836001600160a01b03160217906102e86107ae565b5050565b600160006103ae61071c565b6002600061048161071c565b906101000a90046001600160a01b031681565b6001602052806000526040600020600091506103ae61071c565b600080806104ba61071c565b60ff6101009290920a90041615806104eb5750600160006104d961071c565b906101000a900460ff16151560011515145b8061051f57506001600160a01b038216600090815260016020526040902060009061051461071c565b906101000a900460ff165b92915050565b6002600061053161071c565b906101000a90046001600160a01b03166001600160a01b03165a610553610768565b6001600160a01b0316146105a15760405162461bcd60e51b815260040180806020018281038252603a8152602001806107fd603a91396040019150506040518091039061059e6106b1565b50505b6105ab60016105b7565b6105b560006102ef565b565b600260006105c361071c565b906101000a90046001600160a01b03166001600160a01b03165a6105e5610768565b6001600160a01b0316146106335760405162461bcd60e51b815260040180806020018281038252603a8152602001806107fd603a9139604001915050604051809103906106306106b1565b50505b8060006101008161064261071c565b8160ff0219169083151502179061039d6107ae565b63a8c4c5ec598160e01b8152602081600483336000905af158600e01573d6000803e3d6000fd5b3d6001141558600a015760016000f35b8051935060005b60408110156106ac57600082820152602001610695565b505050565b632a2a7adb598160e01b8152600481016020815285602082015260005b868110156106e95780860151828201604001526020016106ce565b506020828760640184336000905af158600e01573d6000803e3d6000fd5b3d6001141558600a015760016000f35b505050565b6303daa959598160e01b8152836004820152602081602483336000905af158600e01573d6000803e3d6000fd5b3d6001141558600a015760016000f35b80516000825293506020610695565b6373509064598160e01b8152602081600483336000905af158600e01573d6000803e3d6000fd5b3d6001141558600a015760016000f35b80516000825293506020610695565b6322bd64c0598160e01b8152836004820152846024820152600081604483336000905af158600e01573d6000803e3d6000fd5b3d6001141558600a015760016000f35b60008152602061069556fe46756e6374696f6e2063616e206f6e6c792062652063616c6c656420627920746865206f776e6572206f66207468697320636f6e74726163742e",
  "linkReferences": {},
  "deployedLinkReferences": {}
}