{
  "_format": "hh-sol-artifact-1",
  "contractName": "xL2GovernanceERC20",
  "sourceName": "contracts/standards/xL2GovernanceERC20.sol",
  "abi": [
    {
      "inputs": [
        {
          "internalType": "string",
          "name": "_name",
          "type": "string"
        },
        {
          "internalType": "string",
          "name": "_symbol",
          "type": "string"
        },
        {
          "internalType": "uint8",
          "name": "decimals_",
          "type": "uint8"
        }
      ],
      "stateMutability": "nonpayable",
      "type": "constructor"
    },
    {
      "anonymous": false,
      "inputs": [
        {
          "indexed": true,
          "internalType": "address",
          "name": "owner",
          "type": "address"
        },
        {
          "indexed": true,
          "internalType": "address",
          "name": "spender",
          "type": "address"
        },
        {
          "indexed": false,
          "internalType": "uint256",
          "name": "value",
          "type": "uint256"
        }
      ],
      "name": "Approval",
      "type": "event"
    },
    {
      "anonymous": false,
      "inputs": [
        {
          "indexed": true,
          "internalType": "address",
          "name": "delegator",
          "type": "address"
        },
        {
          "indexed": true,
          "internalType": "address",
          "name": "fromDelegate",
          "type": "address"
        },
        {
          "indexed": true,
          "internalType": "address",
          "name": "toDelegate",
          "type": "address"
        }
      ],
      "name": "DelegateChanged",
      "type": "event"
    },
    {
      "anonymous": false,
      "inputs": [
        {
          "indexed": true,
          "internalType": "address",
          "name": "delegate",
          "type": "address"
        },
        {
          "indexed": false,
          "internalType": "uint256",
          "name": "previousBalance",
          "type": "uint256"
        },
        {
          "indexed": false,
          "internalType": "uint256",
          "name": "newBalance",
          "type": "uint256"
        }
      ],
      "name": "DelegateVotesChanged",
      "type": "event"
    },
    {
      "anonymous": false,
      "inputs": [
        {
          "indexed": false,
          "internalType": "address",
          "name": "account",
          "type": "address"
        }
      ],
      "name": "Paused",
      "type": "event"
    },
    {
      "anonymous": false,
      "inputs": [
        {
          "indexed": true,
          "internalType": "address",
          "name": "from",
          "type": "address"
        },
        {
          "indexed": true,
          "internalType": "address",
          "name": "to",
          "type": "address"
        },
        {
          "indexed": false,
          "internalType": "uint256",
          "name": "value",
          "type": "uint256"
        }
      ],
      "name": "Transfer",
      "type": "event"
    },
    {
      "anonymous": false,
      "inputs": [
        {
          "indexed": false,
          "internalType": "address",
          "name": "account",
          "type": "address"
        }
      ],
      "name": "Unpaused",
      "type": "event"
    },
    {
      "inputs": [],
      "name": "DAO",
      "outputs": [
        {
          "internalType": "address",
          "name": "",
          "type": "address"
        }
      ],
      "stateMutability": "view",
      "type": "function"
    },
    {
      "inputs": [],
      "name": "DOMAIN_SEPARATOR",
      "outputs": [
        {
          "internalType": "bytes32",
          "name": "",
          "type": "bytes32"
        }
      ],
      "stateMutability": "view",
      "type": "function"
    },
    {
      "inputs": [
        {
          "internalType": "address",
          "name": "_controller",
          "type": "address"
        }
      ],
      "name": "addController",
      "outputs": [],
      "stateMutability": "nonpayable",
      "type": "function"
    },
    {
      "inputs": [
        {
          "internalType": "address",
          "name": "owner",
          "type": "address"
        },
        {
          "internalType": "address",
          "name": "spender",
          "type": "address"
        }
      ],
      "name": "allowance",
      "outputs": [
        {
          "internalType": "uint256",
          "name": "",
          "type": "uint256"
        }
      ],
      "stateMutability": "view",
      "type": "function"
    },
    {
      "inputs": [
        {
          "internalType": "address",
          "name": "spender",
          "type": "address"
        },
        {
          "internalType": "uint256",
          "name": "amount",
          "type": "uint256"
        }
      ],
      "name": "approve",
      "outputs": [
        {
          "internalType": "bool",
          "name": "",
          "type": "bool"
        }
      ],
      "stateMutability": "nonpayable",
      "type": "function"
    },
    {
      "inputs": [
        {
          "internalType": "address",
          "name": "account",
          "type": "address"
        }
      ],
      "name": "balanceOf",
      "outputs": [
        {
          "internalType": "uint256",
          "name": "",
          "type": "uint256"
        }
      ],
      "stateMutability": "view",
      "type": "function"
    },
    {
      "inputs": [
        {
          "internalType": "address",
          "name": "_from",
          "type": "address"
        },
        {
          "internalType": "uint256",
          "name": "_amount",
          "type": "uint256"
        }
      ],
      "name": "burn",
      "outputs": [],
      "stateMutability": "nonpayable",
      "type": "function"
    },
    {
      "inputs": [
        {
          "internalType": "address",
          "name": "account",
          "type": "address"
        },
        {
          "internalType": "uint32",
          "name": "pos",
          "type": "uint32"
        }
      ],
      "name": "checkpoints",
      "outputs": [
        {
          "components": [
            {
              "internalType": "uint32",
              "name": "fromBlock",
              "type": "uint32"
            },
            {
              "internalType": "uint224",
              "name": "votes",
              "type": "uint224"
            }
          ],
          "internalType": "struct ERC20Votes.Checkpoint",
          "name": "",
          "type": "tuple"
        }
      ],
      "stateMutability": "view",
      "type": "function"
    },
    {
      "inputs": [
        {
          "internalType": "address",
          "name": "",
          "type": "address"
        }
      ],
      "name": "controllers",
      "outputs": [
        {
          "internalType": "bool",
          "name": "",
          "type": "bool"
        }
      ],
      "stateMutability": "view",
      "type": "function"
    },
    {
      "inputs": [],
      "name": "decimals",
      "outputs": [
        {
          "internalType": "uint8",
          "name": "",
          "type": "uint8"
        }
      ],
      "stateMutability": "view",
      "type": "function"
    },
    {
      "inputs": [
        {
          "internalType": "address",
          "name": "spender",
          "type": "address"
        },
        {
          "internalType": "uint256",
          "name": "subtractedValue",
          "type": "uint256"
        }
      ],
      "name": "decreaseAllowance",
      "outputs": [
        {
          "internalType": "bool",
          "name": "",
          "type": "bool"
        }
      ],
      "stateMutability": "nonpayable",
      "type": "function"
    },
    {
      "inputs": [
        {
          "internalType": "address",
          "name": "delegatee",
          "type": "address"
        }
      ],
      "name": "delegate",
      "outputs": [],
      "stateMutability": "nonpayable",
      "type": "function"
    },
    {
      "inputs": [
        {
          "internalType": "address",
          "name": "delegatee",
          "type": "address"
        },
        {
          "internalType": "uint256",
          "name": "nonce",
          "type": "uint256"
        },
        {
          "internalType": "uint256",
          "name": "expiry",
          "type": "uint256"
        },
        {
          "internalType": "uint8",
          "name": "v",
          "type": "uint8"
        },
        {
          "internalType": "bytes32",
          "name": "r",
          "type": "bytes32"
        },
        {
          "internalType": "bytes32",
          "name": "s",
          "type": "bytes32"
        }
      ],
      "name": "delegateBySig",
      "outputs": [],
      "stateMutability": "nonpayable",
      "type": "function"
    },
    {
      "inputs": [
        {
          "internalType": "address",
          "name": "account",
          "type": "address"
        }
      ],
      "name": "delegates",
      "outputs": [
        {
          "internalType": "address",
          "name": "",
          "type": "address"
        }
      ],
      "stateMutability": "view",
      "type": "function"
    },
    {
      "inputs": [
        {
          "internalType": "address",
          "name": "_controller",
          "type": "address"
        }
      ],
      "name": "deleteController",
      "outputs": [],
      "stateMutability": "nonpayable",
      "type": "function"
    },
    {
      "inputs": [
        {
          "internalType": "address",
          "name": "account",
          "type": "address"
        }
      ],
      "name": "getCurrentVotes",
      "outputs": [
        {
          "internalType": "uint96",
          "name": "",
          "type": "uint96"
        }
      ],
      "stateMutability": "view",
      "type": "function"
    },
    {
      "inputs": [
        {
          "internalType": "uint256",
          "name": "blockNumber",
          "type": "uint256"
        }
      ],
      "name": "getPastTotalSupply",
      "outputs": [
        {
          "internalType": "uint256",
          "name": "",
          "type": "uint256"
        }
      ],
      "stateMutability": "view",
      "type": "function"
    },
    {
      "inputs": [
        {
          "internalType": "address",
          "name": "account",
          "type": "address"
        },
        {
          "internalType": "uint256",
          "name": "blockNumber",
          "type": "uint256"
        }
      ],
      "name": "getPastVotes",
      "outputs": [
        {
          "internalType": "uint256",
          "name": "",
          "type": "uint256"
        }
      ],
      "stateMutability": "view",
      "type": "function"
    },
    {
      "inputs": [
        {
          "internalType": "address",
          "name": "account",
          "type": "address"
        },
        {
          "internalType": "uint256",
          "name": "blockNumber",
          "type": "uint256"
        }
      ],
      "name": "getPriorVotes",
      "outputs": [
        {
          "internalType": "uint96",
          "name": "",
          "type": "uint96"
        }
      ],
      "stateMutability": "view",
      "type": "function"
    },
    {
      "inputs": [
        {
          "internalType": "address",
          "name": "account",
          "type": "address"
        }
      ],
      "name": "getVotes",
      "outputs": [
        {
          "internalType": "uint256",
          "name": "",
          "type": "uint256"
        }
      ],
      "stateMutability": "view",
      "type": "function"
    },
    {
      "inputs": [
        {
          "internalType": "address",
          "name": "spender",
          "type": "address"
        },
        {
          "internalType": "uint256",
          "name": "addedValue",
          "type": "uint256"
        }
      ],
      "name": "increaseAllowance",
      "outputs": [
        {
          "internalType": "bool",
          "name": "",
          "type": "bool"
        }
      ],
      "stateMutability": "nonpayable",
      "type": "function"
    },
    {
      "inputs": [],
      "name": "maxSupply",
      "outputs": [
        {
          "internalType": "uint224",
          "name": "",
          "type": "uint224"
        }
      ],
      "stateMutability": "view",
      "type": "function"
    },
    {
      "inputs": [
        {
          "internalType": "address",
          "name": "_to",
          "type": "address"
        },
        {
          "internalType": "uint256",
          "name": "_amount",
          "type": "uint256"
        }
      ],
      "name": "mint",
      "outputs": [],
      "stateMutability": "nonpayable",
      "type": "function"
    },
    {
      "inputs": [],
      "name": "name",
      "outputs": [
        {
          "internalType": "string",
          "name": "",
          "type": "string"
        }
      ],
      "stateMutability": "view",
      "type": "function"
    },
    {
      "inputs": [
        {
          "internalType": "address",
          "name": "owner",
          "type": "address"
        }
      ],
      "name": "nonces",
      "outputs": [
        {
          "internalType": "uint256",
          "name": "",
          "type": "uint256"
        }
      ],
      "stateMutability": "view",
      "type": "function"
    },
    {
      "inputs": [
        {
          "internalType": "address",
          "name": "account",
          "type": "address"
        }
      ],
      "name": "numCheckpoints",
      "outputs": [
        {
          "internalType": "uint32",
          "name": "",
          "type": "uint32"
        }
      ],
      "stateMutability": "view",
      "type": "function"
    },
    {
      "inputs": [],
      "name": "owner",
      "outputs": [
        {
          "internalType": "address",
          "name": "",
          "type": "address"
        }
      ],
      "stateMutability": "view",
      "type": "function"
    },
    {
      "inputs": [],
      "name": "pause",
      "outputs": [],
      "stateMutability": "nonpayable",
      "type": "function"
    },
    {
      "inputs": [],
      "name": "paused",
      "outputs": [
        {
          "internalType": "bool",
          "name": "",
          "type": "bool"
        }
      ],
      "stateMutability": "view",
      "type": "function"
    },
    {
      "inputs": [
        {
          "internalType": "address",
          "name": "owner",
          "type": "address"
        },
        {
          "internalType": "address",
          "name": "spender",
          "type": "address"
        },
        {
          "internalType": "uint256",
          "name": "value",
          "type": "uint256"
        },
        {
          "internalType": "uint256",
          "name": "deadline",
          "type": "uint256"
        },
        {
          "internalType": "uint8",
          "name": "v",
          "type": "uint8"
        },
        {
          "internalType": "bytes32",
          "name": "r",
          "type": "bytes32"
        },
        {
          "internalType": "bytes32",
          "name": "s",
          "type": "bytes32"
        }
      ],
      "name": "permit",
      "outputs": [],
      "stateMutability": "nonpayable",
      "type": "function"
    },
    {
      "inputs": [
        {
          "internalType": "bytes4",
          "name": "_interfaceId",
          "type": "bytes4"
        }
      ],
      "name": "supportsInterface",
      "outputs": [
        {
          "internalType": "bool",
          "name": "",
          "type": "bool"
        }
      ],
      "stateMutability": "pure",
      "type": "function"
    },
    {
      "inputs": [],
      "name": "symbol",
      "outputs": [
        {
          "internalType": "string",
          "name": "",
          "type": "string"
        }
      ],
      "stateMutability": "view",
      "type": "function"
    },
    {
      "inputs": [],
      "name": "totalSupply",
      "outputs": [
        {
          "internalType": "uint256",
          "name": "",
          "type": "uint256"
        }
      ],
      "stateMutability": "view",
      "type": "function"
    },
    {
      "inputs": [
        {
          "internalType": "address",
          "name": "recipient",
          "type": "address"
        },
        {
          "internalType": "uint256",
          "name": "amount",
          "type": "uint256"
        }
      ],
      "name": "transfer",
      "outputs": [
        {
          "internalType": "bool",
          "name": "",
          "type": "bool"
        }
      ],
      "stateMutability": "nonpayable",
      "type": "function"
    },
    {
      "inputs": [
        {
          "internalType": "address",
          "name": "_newDAO",
          "type": "address"
        }
      ],
      "name": "transferDAO",
      "outputs": [],
      "stateMutability": "nonpayable",
      "type": "function"
    },
    {
      "inputs": [
        {
          "internalType": "address",
          "name": "sender",
          "type": "address"
        },
        {
          "internalType": "address",
          "name": "recipient",
          "type": "address"
        },
        {
          "internalType": "uint256",
          "name": "amount",
          "type": "uint256"
        }
      ],
      "name": "transferFrom",
      "outputs": [
        {
          "internalType": "bool",
          "name": "",
          "type": "bool"
        }
      ],
      "stateMutability": "nonpayable",
      "type": "function"
    },
    {
      "inputs": [
        {
          "internalType": "address",
          "name": "_newOwner",
          "type": "address"
        }
      ],
      "name": "transferOwnership",
      "outputs": [],
      "stateMutability": "nonpayable",
      "type": "function"
    },
    {
      "inputs": [],
      "name": "unpause",
      "outputs": [],
      "stateMutability": "nonpayable",
      "type": "function"
    }
  ],
  "bytecode": "0x6101606040527f6e71edae12b1b97f4d1f60370fef10105fa2faae0126114a169c64845d6126c9610120523480156200003757600080fd5b5060405162003219380380620032198339810160408190526200005a916200038a565b8280604051806040016040528060018152602001603160f81b815250858581600390805190602001906200009092919062000217565b508051620000a690600490602084019062000217565b5050825160209384012082519284019290922060c083815260e08290524660a0818152604080517f8b73c3c69bb8fe3d512ecc4cf759cc79239f7b179b0ffacaa9a75d522b39400f818a018190528183019890985260608101959095526080808601939093523085830152805180860390920182529390920190925280519401939093209092526101009081526009805460ff8616610140526001600160a81b03191633928302179055600a80546001600160a01b03191690911790555062000170905062000179565b5050506200044c565b60095460ff1615620001c45760405162461bcd60e51b815260206004820152601060248201526f14185d5cd8589b194e881c185d5cd95960821b604482015260640160405180910390fd5b6009805460ff191660011790557f62e78cea01bee320cd4e420270b5ea74000d11b0c9f74754ebdbfc544b05a258620001fa3390565b6040516001600160a01b03909116815260200160405180910390a1565b82805462000225906200040f565b90600052602060002090601f01602090048101928262000249576000855562000294565b82601f106200026457805160ff191683800117855562000294565b8280016001018555821562000294579182015b828111156200029457825182559160200191906001019062000277565b50620002a2929150620002a6565b5090565b5b80821115620002a25760008155600101620002a7565b634e487b7160e01b600052604160045260246000fd5b600082601f830112620002e557600080fd5b81516001600160401b0380821115620003025762000302620002bd565b604051601f8301601f19908116603f011681019082821181831017156200032d576200032d620002bd565b816040528381526020925086838588010111156200034a57600080fd5b600091505b838210156200036e57858201830151818301840152908201906200034f565b83821115620003805760008385830101525b9695505050505050565b600080600060608486031215620003a057600080fd5b83516001600160401b0380821115620003b857600080fd5b620003c687838801620002d3565b94506020860151915080821115620003dd57600080fd5b50620003ec86828701620002d3565b925050604084015160ff811681146200040457600080fd5b809150509250925092565b600181811c908216806200042457607f821691505b602082108114156200044657634e487b7160e01b600052602260045260246000fd5b50919050565b60805160a05160c05160e051610100516101205161014051612d72620004a7600039600061036a015260006111e20152600061156d015260006115bc015260006115970152600061151b015260006115440152612d726000f3fe608060405234801561001057600080fd5b50600436106102925760003560e01c80637ecebe0011610160578063a7fc7a07116100d8578063d5abeb011161008c578063dd62ed3e11610071578063dd62ed3e1461062f578063f1127ed814610668578063f2fde38b146106ba57600080fd5b8063d5abeb01146105cc578063da8c229e1461060c57600080fd5b8063b4b5ea57116100bd578063b4b5ea5714610593578063c3cda520146105a6578063d505accf146105b957600080fd5b8063a7fc7a071461056d578063a9059cbb1461058057600080fd5b806395d89b411161012f5780639ab24eb0116101145780639ab24eb0146105345780639dc29fac14610547578063a457c2d71461055a57600080fd5b806395d89b411461051957806398fabd3a1461052157600080fd5b80637ecebe00146104d35780638456cb59146104e65780638da5cb5b146104ee5780638e539e8c1461050657600080fd5b80633a46b1a81161020e5780635c975abb116101c257806370a08231116101a757806370a0823114610467578063782d6fe1146104905780637a318866146104c057600080fd5b80635c975abb146104345780636fcfff451461043f57600080fd5b806340c10f19116101f357806340c10f19146103ca578063587cde1e146103dd5780635c19a95c1461042157600080fd5b80633a46b1a8146103af5780633f4ba83a146103c257600080fd5b806318160ddd11610265578063313ce5671161024a578063313ce567146103635780633644e51514610394578063395093511461039c57600080fd5b806318160ddd1461033e57806323b872dd1461035057600080fd5b806301ffc9a71461029757806306fdde0314610301578063095ea7b3146103165780630cfe4d0e14610329575b600080fd5b6102ec6102a536600461296f565b7fffffffff00000000000000000000000000000000000000000000000000000000167f01ffc9a7000000000000000000000000000000000000000000000000000000001490565b60405190151581526020015b60405180910390f35b6103096106cd565b6040516102f891906129b1565b6102ec610324366004612a40565b61075f565b61033c610337366004612a6a565b6107d0565b005b6002545b6040519081526020016102f8565b6102ec61035e366004612a85565b6108fc565b60405160ff7f00000000000000000000000000000000000000000000000000000000000000001681526020016102f8565b61034261096a565b6102ec6103aa366004612a40565b610979565b6103426103bd366004612a40565b6109de565b61033c610a51565b61033c6103d8366004612a40565b610ab5565b6104096103eb366004612a6a565b6001600160a01b039081166000908152600660205260409020541690565b6040516001600160a01b0390911681526020016102f8565b61033c61042f366004612a6a565b610b48565b60095460ff166102ec565b61045261044d366004612a6a565b610b55565b60405163ffffffff90911681526020016102f8565b610342610475366004612a6a565b6001600160a01b031660009081526020819052604090205490565b6104a361049e366004612a40565b610b7d565b6040516bffffffffffffffffffffffff90911681526020016102f8565b61033c6104ce366004612a6a565b610b91565b6103426104e1366004612a6a565b610c25565b61033c610c43565b6009546104099061010090046001600160a01b031681565b610342610514366004612ac1565b610ca5565b610309610d01565b600a54610409906001600160a01b031681565b610342610542366004612a6a565b610d10565b61033c610555366004612a40565b610dc1565b6102ec610568366004612a40565b610e50565b61033c61057b366004612a6a565b610eb5565b6102ec61058e366004612a40565b610fe5565b6104a36105a1366004612a6a565b61104a565b61033c6105b4366004612aeb565b611058565b61033c6105c7366004612b43565b61118e565b6105df6b019d971e4fe8401e7400000081565b6040517bffffffffffffffffffffffffffffffffffffffffffffffffffffffff90911681526020016102f8565b6102ec61061a366004612a6a565b600b6020526000908152604090205460ff1681565b61034261063d366004612bad565b6001600160a01b03918216600090815260016020908152604080832093909416825291909152205490565b61067b610676366004612be0565b6112f2565b60408051825163ffffffff1681526020928301517bffffffffffffffffffffffffffffffffffffffffffffffffffffffff1692810192909252016102f8565b61033c6106c8366004612a6a565b61138b565b6060600380546106dc90612c20565b80601f016020809104026020016040519081016040528092919081815260200182805461070890612c20565b80156107555780601f1061072a57610100808354040283529160200191610755565b820191906000526020600020905b81548152906001019060200180831161073857829003601f168201915b5050505050905090565b600061076d60095460ff1690565b156107bf5760405162461bcd60e51b815260206004820152601060248201527f5061757361626c653a207061757365640000000000000000000000000000000060448201526064015b60405180910390fd5b6107c98383611442565b9392505050565b60095461010090046001600160a01b03163314806107fc575060095461010090046001600160a01b0316155b6108485760405162461bcd60e51b815260206004820152601760248201527f43616c6c6572206973206e6f7420746865206f776e657200000000000000000060448201526064016107b6565b80803b6108975760405162461bcd60e51b815260206004820152601460248201527f4163636f756e74206e6f7420636f6e747261637400000000000000000000000060448201526064016107b6565b6001600160a01b0382166000908152600b602052604090205460ff166108bc57600080fd5b506001600160a01b03166000908152600b6020526040902080547fffffffffffffffffffffffffffffffffffffffffffffffffffffffffffffff00169055565b600061090a60095460ff1690565b156109575760405162461bcd60e51b815260206004820152601060248201527f5061757361626c653a207061757365640000000000000000000000000000000060448201526064016107b6565b610962848484611458565b949350505050565b6000610974611517565b905090565b600061098760095460ff1690565b156109d45760405162461bcd60e51b815260206004820152601060248201527f5061757361626c653a207061757365640000000000000000000000000000000060448201526064016107b6565b6107c9838361160a565b6000438210610a2f5760405162461bcd60e51b815260206004820152601f60248201527f4552433230566f7465733a20626c6f636b206e6f7420796574206d696e65640060448201526064016107b6565b6001600160a01b03831660009081526007602052604090206107c99083611646565b600a546001600160a01b03163314610aab5760405162461bcd60e51b815260206004820152601760248201527f43616c6c6572206973206e6f7420746865206f776e657200000000000000000060448201526064016107b6565b610ab361172d565b565b336000908152600b602052604090205460ff16610b3a5760405162461bcd60e51b815260206004820152602160248201527f4f6e6c7920636f6e74726f6c6c65722063616e206d696e7420616e642062757260448201527f6e0000000000000000000000000000000000000000000000000000000000000060648201526084016107b6565b610b4482826117e7565b5050565b610b5233826117f1565b50565b6001600160a01b038116600090815260076020526040812054610b7790611888565b92915050565b60006107c9610b8c84846109de565b611908565b600a546001600160a01b03163314610beb5760405162461bcd60e51b815260206004820152601760248201527f43616c6c6572206973206e6f7420746865206f776e657200000000000000000060448201526064016107b6565b600a80547fffffffffffffffffffffffff0000000000000000000000000000000000000000166001600160a01b0392909216919091179055565b6001600160a01b038116600090815260056020526040812054610b77565b600a546001600160a01b03163314610c9d5760405162461bcd60e51b815260206004820152601760248201527f43616c6c6572206973206e6f7420746865206f776e657200000000000000000060448201526064016107b6565b610ab361198c565b6000438210610cf65760405162461bcd60e51b815260206004820152601f60248201527f4552433230566f7465733a20626c6f636b206e6f7420796574206d696e65640060448201526064016107b6565b610b77600883611646565b6060600480546106dc90612c20565b6001600160a01b0381166000908152600760205260408120548015610d99576001600160a01b0383166000908152600760205260409020610d52600183612c9d565b81548110610d6257610d62612cb4565b60009182526020909120015464010000000090047bffffffffffffffffffffffffffffffffffffffffffffffffffffffff16610d9c565b60005b7bffffffffffffffffffffffffffffffffffffffffffffffffffffffff169392505050565b336000908152600b602052604090205460ff16610e465760405162461bcd60e51b815260206004820152602160248201527f4f6e6c7920636f6e74726f6c6c65722063616e206d696e7420616e642062757260448201527f6e0000000000000000000000000000000000000000000000000000000000000060648201526084016107b6565b610b448282611a32565b6000610e5e60095460ff1690565b15610eab5760405162461bcd60e51b815260206004820152601060248201527f5061757361626c653a207061757365640000000000000000000000000000000060448201526064016107b6565b6107c98383611a3c565b60095461010090046001600160a01b0316331480610ee1575060095461010090046001600160a01b0316155b610f2d5760405162461bcd60e51b815260206004820152601760248201527f43616c6c6572206973206e6f7420746865206f776e657200000000000000000060448201526064016107b6565b80803b610f7c5760405162461bcd60e51b815260206004820152601460248201527f4163636f756e74206e6f7420636f6e747261637400000000000000000000000060448201526064016107b6565b6001600160a01b0382166000908152600b602052604090205460ff1615610fa257600080fd5b506001600160a01b03166000908152600b6020526040902080547fffffffffffffffffffffffffffffffffffffffffffffffffffffffffffffff00166001179055565b6000610ff360095460ff1690565b156110405760405162461bcd60e51b815260206004820152601060248201527f5061757361626c653a207061757365640000000000000000000000000000000060448201526064016107b6565b6107c98383611aed565b6000610b77610b8c83610d10565b834211156110a85760405162461bcd60e51b815260206004820152601d60248201527f4552433230566f7465733a207369676e6174757265206578706972656400000060448201526064016107b6565b604080517fe48329057bfd03d55e49b547132e39cffd9c1820ad7b9d4c5307691425d15adf60208201526001600160a01b0388169181019190915260608101869052608081018590526000906111229061111a9060a00160405160208183030381529060405280519060200120611afa565b858585611b63565b905061112d81611b8b565b861461117b5760405162461bcd60e51b815260206004820152601960248201527f4552433230566f7465733a20696e76616c6964206e6f6e63650000000000000060448201526064016107b6565b61118581886117f1565b50505050505050565b834211156111de5760405162461bcd60e51b815260206004820152601d60248201527f45524332305065726d69743a206578706972656420646561646c696e6500000060448201526064016107b6565b60007f000000000000000000000000000000000000000000000000000000000000000088888861120d8c611b8b565b6040805160208101969096526001600160a01b0394851690860152929091166060840152608083015260a082015260c0810186905260e001604051602081830303815290604052805190602001209050600061126882611afa565b9050600061127882878787611b63565b9050896001600160a01b0316816001600160a01b0316146112db5760405162461bcd60e51b815260206004820152601e60248201527f45524332305065726d69743a20696e76616c6964207369676e6174757265000060448201526064016107b6565b6112e68a8a8a611bb3565b50505050505050505050565b60408051808201909152600080825260208201526001600160a01b0383166000908152600760205260409020805463ffffffff841690811061133657611336612cb4565b60009182526020918290206040805180820190915291015463ffffffff8116825264010000000090047bffffffffffffffffffffffffffffffffffffffffffffffffffffffff16918101919091529392505050565b60095461010090046001600160a01b03163314806113b7575060095461010090046001600160a01b0316155b6114035760405162461bcd60e51b815260206004820152601760248201527f43616c6c6572206973206e6f7420746865206f776e657200000000000000000060448201526064016107b6565b600980546001600160a01b03909216610100027fffffffffffffffffffffff0000000000000000000000000000000000000000ff909216919091179055565b600061144f338484611bb3565b50600192915050565b6000611465848484611d0b565b6001600160a01b0384166000908152600160209081526040808320338452909152902054828110156114ff5760405162461bcd60e51b815260206004820152602860248201527f45524332303a207472616e7366657220616d6f756e742065786365656473206160448201527f6c6c6f77616e636500000000000000000000000000000000000000000000000060648201526084016107b6565b61150c8533858403611bb3565b506001949350505050565b60007f000000000000000000000000000000000000000000000000000000000000000046141561156657507f000000000000000000000000000000000000000000000000000000000000000090565b50604080517f00000000000000000000000000000000000000000000000000000000000000006020808301919091527f0000000000000000000000000000000000000000000000000000000000000000828401527f000000000000000000000000000000000000000000000000000000000000000060608301524660808301523060a0808401919091528351808403909101815260c0909201909252805191012090565b3360008181526001602090815260408083206001600160a01b0387168452909152812054909161144f918590611641908690612ce3565b611bb3565b8154600090815b818110156116aa5760006116618284611f28565b90508486828154811061167657611676612cb4565b60009182526020909120015463ffffffff161115611696578092506116a4565b6116a1816001612ce3565b91505b5061164d565b811561170357846116bc600184612c9d565b815481106116cc576116cc612cb4565b60009182526020909120015464010000000090047bffffffffffffffffffffffffffffffffffffffffffffffffffffffff16611706565b60005b7bffffffffffffffffffffffffffffffffffffffffffffffffffffffff1695945050505050565b60095460ff1661177f5760405162461bcd60e51b815260206004820152601460248201527f5061757361626c653a206e6f742070617573656400000000000000000000000060448201526064016107b6565b600980547fffffffffffffffffffffffffffffffffffffffffffffffffffffffffffffff001690557f5db9ee0a495bf2e6ff9c91a7834c1ba4fdd244a5e8aa4e537bd38aeae4b073aa335b6040516001600160a01b03909116815260200160405180910390a1565b610b448282611f43565b6001600160a01b038281166000818152600660208181526040808420805485845282862054949093528787167fffffffffffffffffffffffff00000000000000000000000000000000000000008416811790915590519190951694919391928592917f3134e8a2e6d97e929a7e54011ea5485d7d196dd5f0ba4d4ef95803e8e3fc257f9190a4611882828483611fdf565b50505050565b600063ffffffff8211156119045760405162461bcd60e51b815260206004820152602660248201527f53616665436173743a2076616c756520646f65736e27742066697420696e203360448201527f322062697473000000000000000000000000000000000000000000000000000060648201526084016107b6565b5090565b60006bffffffffffffffffffffffff8211156119045760405162461bcd60e51b815260206004820152602660248201527f53616665436173743a2076616c756520646f65736e27742066697420696e203960448201527f362062697473000000000000000000000000000000000000000000000000000060648201526084016107b6565b60095460ff16156119df5760405162461bcd60e51b815260206004820152601060248201527f5061757361626c653a207061757365640000000000000000000000000000000060448201526064016107b6565b600980547fffffffffffffffffffffffffffffffffffffffffffffffffffffffffffffff001660011790557f62e78cea01bee320cd4e420270b5ea74000d11b0c9f74754ebdbfc544b05a2586117ca3390565b610b44828261211d565b3360009081526001602090815260408083206001600160a01b038616845290915281205482811015611ad65760405162461bcd60e51b815260206004820152602560248201527f45524332303a2064656372656173656420616c6c6f77616e63652062656c6f7760448201527f207a65726f00000000000000000000000000000000000000000000000000000060648201526084016107b6565b611ae33385858403611bb3565b5060019392505050565b600061144f338484611d0b565b6000610b77611b07611517565b836040517f19010000000000000000000000000000000000000000000000000000000000006020820152602281018390526042810182905260009060620160405160208183030381529060405280519060200120905092915050565b6000806000611b7487878787612135565b91509150611b8181612240565b5095945050505050565b6001600160a01b03811660009081526005602052604090208054600181018255905b50919050565b6001600160a01b038316611c2e5760405162461bcd60e51b8152602060048201526024808201527f45524332303a20617070726f76652066726f6d20746865207a65726f2061646460448201527f726573730000000000000000000000000000000000000000000000000000000060648201526084016107b6565b6001600160a01b038216611caa5760405162461bcd60e51b815260206004820152602260248201527f45524332303a20617070726f766520746f20746865207a65726f20616464726560448201527f737300000000000000000000000000000000000000000000000000000000000060648201526084016107b6565b6001600160a01b0383811660008181526001602090815260408083209487168084529482529182902085905590518481527f8c5be1e5ebec7d5bd14f71427d1e84f3dd0314c0f7b2291e5b200ac8c7c3b925910160405180910390a3505050565b6001600160a01b038316611d875760405162461bcd60e51b815260206004820152602560248201527f45524332303a207472616e736665722066726f6d20746865207a65726f20616460448201527f647265737300000000000000000000000000000000000000000000000000000060648201526084016107b6565b6001600160a01b038216611e035760405162461bcd60e51b815260206004820152602360248201527f45524332303a207472616e7366657220746f20746865207a65726f206164647260448201527f657373000000000000000000000000000000000000000000000000000000000060648201526084016107b6565b6001600160a01b03831660009081526020819052604090205481811015611e925760405162461bcd60e51b815260206004820152602660248201527f45524332303a207472616e7366657220616d6f756e742065786365656473206260448201527f616c616e6365000000000000000000000000000000000000000000000000000060648201526084016107b6565b6001600160a01b03808516600090815260208190526040808220858503905591851681529081208054849290611ec9908490612ce3565b92505081905550826001600160a01b0316846001600160a01b03167fddf252ad1be2c89b69c2b068fc378daa952ba7f163c4a11628f55a4df523b3ef84604051611f1591815260200190565b60405180910390a3611882848484612431565b6000611f376002848418612cfb565b6107c990848416612ce3565b611f4d828261243c565b6002546b019d971e4fe8401e740000001015611fd15760405162461bcd60e51b815260206004820152603060248201527f4552433230566f7465733a20746f74616c20737570706c79207269736b73206f60448201527f766572666c6f77696e6720766f7465730000000000000000000000000000000060648201526084016107b6565b61188260086125238361252f565b816001600160a01b0316836001600160a01b0316141580156120015750600081115b15612118576001600160a01b0383161561208f576001600160a01b0383166000908152600760205260408120819061203c906127118561252f565b91509150846001600160a01b03167fdec2bacdd2f05b59de34da9b523dff8be42e5e38e818c82fdb0bae774387a7248383604051612084929190918252602082015260400190565b60405180910390a250505b6001600160a01b03821615612118576001600160a01b038216600090815260076020526040812081906120c5906125238561252f565b91509150836001600160a01b03167fdec2bacdd2f05b59de34da9b523dff8be42e5e38e818c82fdb0bae774387a724838360405161210d929190918252602082015260400190565b60405180910390a250505b505050565b612127828261271d565b61188260086127118361252f565b6000807f7fffffffffffffffffffffffffffffff5d576e7357a4501ddfe92f46681b20a083111561216c5750600090506003612237565b8460ff16601b1415801561218457508460ff16601c14155b156121955750600090506004612237565b6040805160008082526020820180845289905260ff881692820192909252606081018690526080810185905260019060a0016020604051602081039080840390855afa1580156121e9573d6000803e3d6000fd5b50506040517fffffffffffffffffffffffffffffffffffffffffffffffffffffffffffffffe001519150506001600160a01b03811661223057600060019250925050612237565b9150600090505b94509492505050565b600081600481111561225457612254612d36565b141561225d5750565b600181600481111561227157612271612d36565b14156122bf5760405162461bcd60e51b815260206004820152601860248201527f45434453413a20696e76616c6964207369676e6174757265000000000000000060448201526064016107b6565b60028160048111156122d3576122d3612d36565b14156123215760405162461bcd60e51b815260206004820152601f60248201527f45434453413a20696e76616c6964207369676e6174757265206c656e6774680060448201526064016107b6565b600381600481111561233557612335612d36565b14156123a95760405162461bcd60e51b815260206004820152602260248201527f45434453413a20696e76616c6964207369676e6174757265202773272076616c60448201527f756500000000000000000000000000000000000000000000000000000000000060648201526084016107b6565b60048160048111156123bd576123bd612d36565b1415610b525760405162461bcd60e51b815260206004820152602260248201527f45434453413a20696e76616c6964207369676e6174757265202776272076616c60448201527f756500000000000000000000000000000000000000000000000000000000000060648201526084016107b6565b6121188383836128a9565b6001600160a01b0382166124925760405162461bcd60e51b815260206004820152601f60248201527f45524332303a206d696e7420746f20746865207a65726f20616464726573730060448201526064016107b6565b80600260008282546124a49190612ce3565b90915550506001600160a01b038216600090815260208190526040812080548392906124d1908490612ce3565b90915550506040518181526001600160a01b038316906000907fddf252ad1be2c89b69c2b068fc378daa952ba7f163c4a11628f55a4df523b3ef9060200160405180910390a3610b4460008383612431565b60006107c98284612ce3565b82546000908190801561258f5785612548600183612c9d565b8154811061255857612558612cb4565b60009182526020909120015464010000000090047bffffffffffffffffffffffffffffffffffffffffffffffffffffffff16612592565b60005b7bffffffffffffffffffffffffffffffffffffffffffffffffffffffff1692506125c083858763ffffffff16565b91506000811180156125fe575043866125da600184612c9d565b815481106125ea576125ea612cb4565b60009182526020909120015463ffffffff16145b156126885761260c826128db565b86612618600184612c9d565b8154811061262857612628612cb4565b9060005260206000200160000160046101000a8154817bffffffffffffffffffffffffffffffffffffffffffffffffffffffff02191690837bffffffffffffffffffffffffffffffffffffffffffffffffffffffff160217905550612708565b85604051806040016040528061269d43611888565b63ffffffff1681526020016126b1856128db565b7bffffffffffffffffffffffffffffffffffffffffffffffffffffffff90811690915282546001810184556000938452602093849020835194909301519091166401000000000263ffffffff909316929092179101555b50935093915050565b60006107c98284612c9d565b6001600160a01b0382166127995760405162461bcd60e51b815260206004820152602160248201527f45524332303a206275726e2066726f6d20746865207a65726f2061646472657360448201527f730000000000000000000000000000000000000000000000000000000000000060648201526084016107b6565b6001600160a01b038216600090815260208190526040902054818110156128285760405162461bcd60e51b815260206004820152602260248201527f45524332303a206275726e20616d6f756e7420657863656564732062616c616e60448201527f636500000000000000000000000000000000000000000000000000000000000060648201526084016107b6565b6001600160a01b0383166000908152602081905260408120838303905560028054849290612857908490612c9d565b90915550506040518281526000906001600160a01b038516907fddf252ad1be2c89b69c2b068fc378daa952ba7f163c4a11628f55a4df523b3ef9060200160405180910390a361211883600084612431565b6001600160a01b0383811660009081526006602052604080822054858416835291205461211892918216911683611fdf565b60007bffffffffffffffffffffffffffffffffffffffffffffffffffffffff8211156119045760405162461bcd60e51b815260206004820152602760248201527f53616665436173743a2076616c756520646f65736e27742066697420696e203260448201527f323420626974730000000000000000000000000000000000000000000000000060648201526084016107b6565b60006020828403121561298157600080fd5b81357fffffffff00000000000000000000000000000000000000000000000000000000811681146107c957600080fd5b600060208083528351808285015260005b818110156129de578581018301518582016040015282016129c2565b818111156129f0576000604083870101525b50601f017fffffffffffffffffffffffffffffffffffffffffffffffffffffffffffffffe016929092016040019392505050565b80356001600160a01b0381168114612a3b57600080fd5b919050565b60008060408385031215612a5357600080fd5b612a5c83612a24565b946020939093013593505050565b600060208284031215612a7c57600080fd5b6107c982612a24565b600080600060608486031215612a9a57600080fd5b612aa384612a24565b9250612ab160208501612a24565b9150604084013590509250925092565b600060208284031215612ad357600080fd5b5035919050565b803560ff81168114612a3b57600080fd5b60008060008060008060c08789031215612b0457600080fd5b612b0d87612a24565b95506020870135945060408701359350612b2960608801612ada565b92506080870135915060a087013590509295509295509295565b600080600080600080600060e0888a031215612b5e57600080fd5b612b6788612a24565b9650612b7560208901612a24565b95506040880135945060608801359350612b9160808901612ada565b925060a0880135915060c0880135905092959891949750929550565b60008060408385031215612bc057600080fd5b612bc983612a24565b9150612bd760208401612a24565b90509250929050565b60008060408385031215612bf357600080fd5b612bfc83612a24565b9150602083013563ffffffff81168114612c1557600080fd5b809150509250929050565b600181811c90821680612c3457607f821691505b60208210811415611bad577f4e487b7100000000000000000000000000000000000000000000000000000000600052602260045260246000fd5b7f4e487b7100000000000000000000000000000000000000000000000000000000600052601160045260246000fd5b600082821015612caf57612caf612c6e565b500390565b7f4e487b7100000000000000000000000000000000000000000000000000000000600052603260045260246000fd5b60008219821115612cf657612cf6612c6e565b500190565b600082612d31577f4e487b7100000000000000000000000000000000000000000000000000000000600052601260045260246000fd5b500490565b7f4e487b7100000000000000000000000000000000000000000000000000000000600052602160045260246000fdfea164736f6c6343000809000a",
  "linkReferences": {},
  "deployedLinkReferences": {}
}