{
  "_format": "hh-sol-artifact-1",
  "contractName": "L1LiquidityPool",
  "sourceName": "contracts/LP/L1LiquidityPool.sol",
  "abi": [
    {
      "inputs": [],
      "stateMutability": "nonpayable",
      "type": "constructor"
    },
    {
      "anonymous": false,
      "inputs": [
        {
          "indexed": false,
          "internalType": "address",
          "name": "sender",
          "type": "address"
        },
        {
          "indexed": false,
          "internalType": "uint256",
          "name": "amount",
          "type": "uint256"
        },
        {
          "indexed": false,
          "internalType": "address",
          "name": "tokenAddress",
          "type": "address"
        }
      ],
      "name": "AddLiquidity",
      "type": "event"
    },
    {
      "anonymous": false,
      "inputs": [
        {
          "indexed": false,
          "internalType": "address",
          "name": "sender",
          "type": "address"
        },
        {
          "indexed": false,
          "internalType": "uint256",
          "name": "receivedAmount",
          "type": "uint256"
        },
        {
          "indexed": false,
          "internalType": "address",
          "name": "tokenAddress",
          "type": "address"
        }
      ],
      "name": "ClientDepositL1",
      "type": "event"
    },
    {
      "anonymous": false,
      "inputs": [
        {
          "indexed": false,
          "internalType": "address",
          "name": "sender",
          "type": "address"
        },
        {
          "indexed": false,
          "internalType": "uint256",
          "name": "amount",
          "type": "uint256"
        },
        {
          "indexed": false,
          "internalType": "uint256",
          "name": "userRewardFee",
          "type": "uint256"
        },
        {
          "indexed": false,
          "internalType": "uint256",
          "name": "ownerRewardFee",
          "type": "uint256"
        },
        {
          "indexed": false,
          "internalType": "uint256",
          "name": "totalFee",
          "type": "uint256"
        },
        {
          "indexed": false,
          "internalType": "address",
          "name": "tokenAddress",
          "type": "address"
        }
      ],
      "name": "ClientPayL1",
      "type": "event"
    },
    {
      "anonymous": false,
      "inputs": [
        {
          "indexed": false,
          "internalType": "address",
          "name": "sender",
          "type": "address"
        },
        {
          "indexed": false,
          "internalType": "uint256",
          "name": "amount",
          "type": "uint256"
        },
        {
          "indexed": false,
          "internalType": "uint256",
          "name": "userRewardFee",
          "type": "uint256"
        },
        {
          "indexed": false,
          "internalType": "uint256",
          "name": "ownerRewardFee",
          "type": "uint256"
        },
        {
          "indexed": false,
          "internalType": "uint256",
          "name": "totalFee",
          "type": "uint256"
        },
        {
          "indexed": false,
          "internalType": "address",
          "name": "tokenAddress",
          "type": "address"
        }
      ],
      "name": "ClientPayL1Settlement",
      "type": "event"
    },
    {
      "anonymous": false,
      "inputs": [
        {
          "indexed": false,
          "internalType": "address",
          "name": "sender",
          "type": "address"
        },
        {
          "indexed": false,
          "internalType": "address",
          "name": "receiver",
          "type": "address"
        },
        {
          "indexed": false,
          "internalType": "uint256",
          "name": "amount",
          "type": "uint256"
        },
        {
          "indexed": false,
          "internalType": "address",
          "name": "tokenAddress",
          "type": "address"
        }
      ],
      "name": "OwnerRecoverFee",
      "type": "event"
    },
    {
      "anonymous": false,
      "inputs": [
        {
          "indexed": false,
          "internalType": "address",
          "name": "account",
          "type": "address"
        }
      ],
      "name": "Paused",
      "type": "event"
    },
    {
      "anonymous": false,
      "inputs": [
        {
          "indexed": false,
          "internalType": "address",
          "name": "account",
          "type": "address"
        }
      ],
      "name": "Unpaused",
      "type": "event"
    },
    {
      "anonymous": false,
      "inputs": [
        {
          "indexed": false,
          "internalType": "address",
          "name": "sender",
          "type": "address"
        },
        {
          "indexed": false,
          "internalType": "address",
          "name": "receiver",
          "type": "address"
        },
        {
          "indexed": false,
          "internalType": "uint256",
          "name": "amount",
          "type": "uint256"
        },
        {
          "indexed": false,
          "internalType": "address",
          "name": "tokenAddress",
          "type": "address"
        }
      ],
      "name": "WithdrawLiquidity",
      "type": "event"
    },
    {
      "anonymous": false,
      "inputs": [
        {
          "indexed": false,
          "internalType": "address",
          "name": "sender",
          "type": "address"
        },
        {
          "indexed": false,
          "internalType": "address",
          "name": "receiver",
          "type": "address"
        },
        {
          "indexed": false,
          "internalType": "uint256",
          "name": "amount",
          "type": "uint256"
        },
        {
          "indexed": false,
          "internalType": "address",
          "name": "tokenAddress",
          "type": "address"
        }
      ],
      "name": "WithdrawReward",
      "type": "event"
    },
    {
      "inputs": [],
      "name": "L2LiquidityPoolAddress",
      "outputs": [
        {
          "internalType": "address",
          "name": "",
          "type": "address"
        }
      ],
      "stateMutability": "view",
      "type": "function"
    },
    {
      "inputs": [],
      "name": "SAFE_GAS_STIPEND",
      "outputs": [
        {
          "internalType": "uint256",
          "name": "",
          "type": "uint256"
        }
      ],
      "stateMutability": "view",
      "type": "function"
    },
    {
      "inputs": [],
      "name": "SETTLEMENT_L2_GAS",
      "outputs": [
        {
          "internalType": "uint32",
          "name": "",
          "type": "uint32"
        }
      ],
      "stateMutability": "view",
      "type": "function"
    },
    {
      "inputs": [
        {
          "internalType": "uint256",
          "name": "_amount",
          "type": "uint256"
        },
        {
          "internalType": "address",
          "name": "_tokenAddress",
          "type": "address"
        }
      ],
      "name": "addLiquidity",
      "outputs": [],
      "stateMutability": "payable",
      "type": "function"
    },
    {
      "inputs": [
        {
          "internalType": "uint256",
          "name": "_amount",
          "type": "uint256"
        },
        {
          "internalType": "address",
          "name": "_tokenAddress",
          "type": "address"
        }
      ],
      "name": "clientDepositL1",
      "outputs": [],
      "stateMutability": "payable",
      "type": "function"
    },
    {
      "inputs": [
        {
          "internalType": "address payable",
          "name": "_to",
          "type": "address"
        },
        {
          "internalType": "uint256",
          "name": "_amount",
          "type": "uint256"
        },
        {
          "internalType": "address",
          "name": "_tokenAddress",
          "type": "address"
        }
      ],
      "name": "clientPayL1",
      "outputs": [],
      "stateMutability": "nonpayable",
      "type": "function"
    },
    {
      "inputs": [
        {
          "internalType": "address payable",
          "name": "_to",
          "type": "address"
        },
        {
          "internalType": "uint256",
          "name": "_amount",
          "type": "uint256"
        },
        {
          "internalType": "address",
          "name": "_tokenAddress",
          "type": "address"
        }
      ],
      "name": "clientPayL1Settlement",
      "outputs": [],
      "stateMutability": "nonpayable",
      "type": "function"
    },
    {
      "inputs": [
        {
          "internalType": "uint256",
          "name": "_userRewardFeeRate",
          "type": "uint256"
        },
        {
          "internalType": "uint256",
          "name": "_ownerRewardFeeRate",
          "type": "uint256"
        }
      ],
      "name": "configureFee",
      "outputs": [],
      "stateMutability": "nonpayable",
      "type": "function"
    },
    {
      "inputs": [
        {
          "internalType": "uint32",
          "name": "_l2GasFee",
          "type": "uint32"
        },
        {
          "internalType": "uint256",
          "name": "_safeGas",
          "type": "uint256"
        }
      ],
      "name": "configureGas",
      "outputs": [],
      "stateMutability": "nonpayable",
      "type": "function"
    },
    {
      "inputs": [
        {
          "internalType": "address",
          "name": "_l1CrossDomainMessenger",
          "type": "address"
        },
        {
          "internalType": "address",
          "name": "_l1CrossDomainMessengerFast",
          "type": "address"
        },
        {
          "internalType": "address",
          "name": "_L2LiquidityPoolAddress",
          "type": "address"
        }
      ],
      "name": "initialize",
      "outputs": [],
      "stateMutability": "nonpayable",
      "type": "function"
    },
    {
      "inputs": [],
      "name": "l1CrossDomainMessenger",
      "outputs": [
        {
          "internalType": "address",
          "name": "",
          "type": "address"
        }
      ],
      "stateMutability": "view",
      "type": "function"
    },
    {
      "inputs": [],
      "name": "owner",
      "outputs": [
        {
          "internalType": "address",
          "name": "",
          "type": "address"
        }
      ],
      "stateMutability": "view",
      "type": "function"
    },
    {
      "inputs": [
        {
          "internalType": "uint256",
          "name": "_amount",
          "type": "uint256"
        },
        {
          "internalType": "address",
          "name": "_tokenAddress",
          "type": "address"
        },
        {
          "internalType": "address",
          "name": "_to",
          "type": "address"
        }
      ],
      "name": "ownerRecoverFee",
      "outputs": [],
      "stateMutability": "nonpayable",
      "type": "function"
    },
    {
      "inputs": [],
      "name": "ownerRewardFeeRate",
      "outputs": [
        {
          "internalType": "uint256",
          "name": "",
          "type": "uint256"
        }
      ],
      "stateMutability": "view",
      "type": "function"
    },
    {
      "inputs": [],
      "name": "pause",
      "outputs": [],
      "stateMutability": "nonpayable",
      "type": "function"
    },
    {
      "inputs": [],
      "name": "paused",
      "outputs": [
        {
          "internalType": "bool",
          "name": "",
          "type": "bool"
        }
      ],
      "stateMutability": "view",
      "type": "function"
    },
    {
      "inputs": [
        {
          "internalType": "address",
          "name": "",
          "type": "address"
        }
      ],
      "name": "poolInfo",
      "outputs": [
        {
          "internalType": "address",
          "name": "l1TokenAddress",
          "type": "address"
        },
        {
          "internalType": "address",
          "name": "l2TokenAddress",
          "type": "address"
        },
        {
          "internalType": "uint256",
          "name": "userDepositAmount",
          "type": "uint256"
        },
        {
          "internalType": "uint256",
          "name": "lastAccUserReward",
          "type": "uint256"
        },
        {
          "internalType": "uint256",
          "name": "accUserReward",
          "type": "uint256"
        },
        {
          "internalType": "uint256",
          "name": "accUserRewardPerShare",
          "type": "uint256"
        },
        {
          "internalType": "uint256",
          "name": "accOwnerReward",
          "type": "uint256"
        },
        {
          "internalType": "uint256",
          "name": "startTime",
          "type": "uint256"
        }
      ],
      "stateMutability": "view",
      "type": "function"
    },
    {
      "inputs": [
        {
          "internalType": "address",
          "name": "_l1TokenAddress",
          "type": "address"
        },
        {
          "internalType": "address",
          "name": "_l2TokenAddress",
          "type": "address"
        }
      ],
      "name": "registerPool",
      "outputs": [],
      "stateMutability": "nonpayable",
      "type": "function"
    },
    {
      "inputs": [],
      "name": "relayerMessenger",
      "outputs": [
        {
          "internalType": "address",
          "name": "",
          "type": "address"
        }
      ],
      "stateMutability": "view",
      "type": "function"
    },
    {
      "inputs": [],
      "name": "senderMessenger",
      "outputs": [
        {
          "internalType": "address",
          "name": "",
          "type": "address"
        }
      ],
      "stateMutability": "view",
      "type": "function"
    },
    {
      "inputs": [
        {
          "internalType": "address",
          "name": "_newOwner",
          "type": "address"
        }
      ],
      "name": "transferOwnership",
      "outputs": [],
      "stateMutability": "nonpayable",
      "type": "function"
    },
    {
      "inputs": [],
      "name": "unpause",
      "outputs": [],
      "stateMutability": "nonpayable",
      "type": "function"
    },
    {
      "inputs": [
        {
          "internalType": "address",
          "name": "_tokenAddress",
          "type": "address"
        }
      ],
      "name": "updateUserRewardPerShare",
      "outputs": [],
      "stateMutability": "nonpayable",
      "type": "function"
    },
    {
      "inputs": [
        {
          "internalType": "address",
          "name": "",
          "type": "address"
        },
        {
          "internalType": "address",
          "name": "",
          "type": "address"
        }
      ],
      "name": "userInfo",
      "outputs": [
        {
          "internalType": "uint256",
          "name": "amount",
          "type": "uint256"
        },
        {
          "internalType": "uint256",
          "name": "rewardDebt",
          "type": "uint256"
        },
        {
          "internalType": "uint256",
          "name": "pendingReward",
          "type": "uint256"
        }
      ],
      "stateMutability": "view",
      "type": "function"
    },
    {
      "inputs": [],
      "name": "userRewardFeeRate",
      "outputs": [
        {
          "internalType": "uint256",
          "name": "",
          "type": "uint256"
        }
      ],
      "stateMutability": "view",
      "type": "function"
    },
    {
      "inputs": [
        {
          "internalType": "uint256",
          "name": "_amount",
          "type": "uint256"
        },
        {
          "internalType": "address",
          "name": "_tokenAddress",
          "type": "address"
        },
        {
          "internalType": "address payable",
          "name": "_to",
          "type": "address"
        }
      ],
      "name": "withdrawLiquidity",
      "outputs": [],
      "stateMutability": "nonpayable",
      "type": "function"
    },
    {
      "inputs": [
        {
          "internalType": "uint256",
          "name": "_amount",
          "type": "uint256"
        },
        {
          "internalType": "address",
          "name": "_tokenAddress",
          "type": "address"
        },
        {
          "internalType": "address",
          "name": "_to",
          "type": "address"
        }
      ],
      "name": "withdrawReward",
      "outputs": [],
      "stateMutability": "nonpayable",
      "type": "function"
    }
  ],
  "bytecode": "0x608060405234801561001057600080fd5b50600080546001600160a01b03199081169091556001805490911690556133288061003c6000396000f3fe6080604052600436106101ac5760003560e01c8063818c021e116100ec578063c95f9d0e1161008a578063d1dd871a11610064578063d1dd871a14610565578063f2fde38b14610585578063f64b5f44146105a5578063f72e5aa0146105b857600080fd5b8063c95f9d0e14610500578063cf26fb1b14610513578063d04a966a1461053357600080fd5b80638da5cb5b116100c65780638da5cb5b146103ef5780639a7b5f111461040f578063a7119869146104c0578063c0c53b8b146104e057600080fd5b8063818c021e1461039a57806381e6bdac146103ba5780638456cb59146103da57600080fd5b806349561dc41161015957806353174cc11161013357806353174cc1146103175780635c975abb1461033757806368be42ca1461035a5780637286e5e51461037a57600080fd5b806349561dc4146102a9578063508e01c4146102c9578063513f31321461030157600080fd5b8063369fd1021161018a578063369fd1021461025e5780633f4ba83a1461027e578063435fd5711461029357600080fd5b80630f208beb146101b157806312f54c1a14610218578063358fc07e1461023a575b600080fd5b3480156101bd57600080fd5b506101f86101cc366004612f95565b609960209081526000928352604080842090915290825290208054600182015460029092015490919083565b604080519384526020840192909252908201526060015b60405180910390f35b34801561022457600080fd5b50610238610233366004612fce565b6105d8565b005b34801561024657600080fd5b50610250609d5481565b60405190815260200161020f565b34801561026a57600080fd5b50610238610279366004612feb565b61066e565b34801561028a57600080fd5b5061023861079a565b34801561029f57600080fd5b50610250609c5481565b3480156102b557600080fd5b506102386102c4366004613020565b610812565b3480156102d557600080fd5b506000546102e9906001600160a01b031681565b6040516001600160a01b03909116815260200161020f565b34801561030d57600080fd5b50610250609f5481565b34801561032357600080fd5b50610238610332366004613062565b610ad3565b34801561034357600080fd5b5060665460ff16604051901515815260200161020f565b34801561036657600080fd5b50610238610375366004613020565b610ea4565b34801561038657600080fd5b50610238610395366004612f95565b61117c565b3480156103a657600080fd5b506001546102e9906001600160a01b031681565b3480156103c657600080fd5b506102386103d5366004613020565b6113ac565b3480156103e657600080fd5b50610238611619565b3480156103fb57600080fd5b50609a546102e9906001600160a01b031681565b34801561041b57600080fd5b5061047a61042a366004612fce565b609860205260009081526040902080546001820154600283015460038401546004850154600586015460068701546007909701546001600160a01b03968716979590961695939492939192909188565b604080516001600160a01b03998a168152989097166020890152958701949094526060860192909252608085015260a084015260c083015260e08201526101000161020f565b3480156104cc57600080fd5b5060a0546102e9906001600160a01b031681565b3480156104ec57600080fd5b506102386104fb366004613099565b61168f565b61023861050e3660046130c9565b6119bc565b34801561051f57600080fd5b5061023861052e366004613062565b611c8a565b34801561053f57600080fd5b50609e546105509063ffffffff1681565b60405163ffffffff909116815260200161020f565b34801561057157600080fd5b506102386105803660046130ee565b6121df565b34801561059157600080fd5b506102386105a0366004612fce565b6122d6565b6102386105b33660046130c9565b61237e565b3480156105c457600080fd5b50609b546102e9906001600160a01b031681565b6001600160a01b038116600090815260986020526040902060048101546003820154101561066a57600061061d826003015483600401546125b990919063ffffffff16565b9050816002015460001461065e5760028201546106589061064d906106478464e8d4a510006125cc565b906125d8565b6005840154906125e4565b60058301555b50600481015460038201555b5050565b609a546001600160a01b03163314806106905750609a546001600160a01b0316155b6106e15760405162461bcd60e51b815260206004820152601760248201527f63616c6c6572206973206e6f7420746865206f776e657200000000000000000060448201526064015b60405180910390fd5b609b546001600160a01b031661075f5760405162461bcd60e51b815260206004820152602560248201527f436f6e747261637420686173206e6f7420796574206265656e20696e6974696160448201527f6c697a656400000000000000000000000000000000000000000000000000000060648201526084016106d8565b609e80547fffffffffffffffffffffffffffffffffffffffffffffffffffffffff000000001663ffffffff9390931692909217909155609f55565b609a546001600160a01b03163314806107bc5750609a546001600160a01b0316155b6108085760405162461bcd60e51b815260206004820152601760248201527f63616c6c6572206973206e6f7420746865206f776e657200000000000000000060448201526064016106d8565b6108106125f0565b565b60665460ff16156108655760405162461bcd60e51b815260206004820152601060248201527f5061757361626c653a207061757365640000000000000000000000000000000060448201526064016106d8565b6001600160a01b03808316600090815260986020908152604080832060998352818420338552909252909120600182015491929091166108e75760405162461bcd60e51b815260206004820152601a60248201527f546f6b656e2041646472657373204e6f7420526567697374657200000000000060448201526064016106d8565b600061092961091e836001015461091864e8d4a51000610647886005015488600001546125cc90919063ffffffff16565b906125b9565b6002840154906125e4565b90508581101561097b5760405162461bcd60e51b815260206004820152601560248201527f576974686472617720526577617264204572726f72000000000000000000000060448201526064016106d8565b61098581876125b9565b6002830155600583015482546109a59164e8d4a5100091610647916125cc565b60018301556001600160a01b038516156109d2576109cd6001600160a01b03861685886126aa565b610a7b565b6000846001600160a01b0316609f5488604051600060405180830381858888f193505050503d8060008114610a23576040519150601f19603f3d011682016040523d82523d6000602084013e610a28565b606091505b5050905080610a795760405162461bcd60e51b815260206004820152601460248201527f4661696c656420746f2073656e6420457468657200000000000000000000000060448201526064016106d8565b505b604080513381526001600160a01b0386811660208301528183018990528716606082015290517f3cb7cb475a33eda02ee6e719b6c2fc0c899157cfc6f098daf545354dbbce41ec9181900360800190a1505050505050565b609b546001600160a01b0316610af16001546001600160a01b031690565b6001600160a01b0316336001600160a01b031614610b775760405162461bcd60e51b815260206004820152602a60248201527f58434841494e3a206d657373656e67657220636f6e747261637420756e61757460448201527f68656e746963617465640000000000000000000000000000000000000000000060648201526084016106d8565b806001600160a01b0316610b936001546001600160a01b031690565b6001600160a01b0316636e296e456040518163ffffffff1660e01b815260040160206040518083038186803b158015610bcb57600080fd5b505afa158015610bdf573d6000803e3d6000fd5b505050506040513d601f19601f82011682018060405250810190610c039190613110565b6001600160a01b031614610c7f5760405162461bcd60e51b815260206004820152602c60248201527f58434841494e3a2077726f6e672073656e646572206f662063726f73732d646f60448201527f6d61696e206d657373616765000000000000000000000000000000000000000060648201526084016106d8565b60665460ff1615610cd25760405162461bcd60e51b815260206004820152601060248201527f5061757361626c653a207061757365640000000000000000000000000000000060448201526064016106d8565b6001600160a01b0382166000908152609860205260408120609c54909190610d03906103e8906106479088906125cc565b90506000610d226103e8610647609d54896125cc90919063ffffffff16565b90506000610d3083836125e4565b90506000610d3e88836125b9565b6004860154909150610d5090856125e4565b60048601556006850154610d6490846125e4565b60068601556001600160a01b03871615610d9157610d8c6001600160a01b0388168a836126aa565b610e3a565b6000896001600160a01b0316609f5483604051600060405180830381858888f193505050503d8060008114610de2576040519150601f19603f3d011682016040523d82523d6000602084013e610de7565b606091505b5050905080610e385760405162461bcd60e51b815260206004820152601460248201527f4661696c656420746f2073656e6420457468657200000000000000000000000060448201526064016106d8565b505b604080516001600160a01b038b81168252602082018490528183018790526060820186905260808201859052891660a082015290517fe42a885e97ef72aed483b57141e41f9d64499b43411f58b60a0e07fcdb6e824a9181900360c00190a1505050505050505050565b60665460ff1615610ef75760405162461bcd60e51b815260206004820152601060248201527f5061757361626c653a207061757365640000000000000000000000000000000060448201526064016106d8565b6001600160a01b0380831660009081526098602090815260408083206099835281842033855290925290912060018201549192909116610f795760405162461bcd60e51b815260206004820152601a60248201527f546f6b656e2041646472657373204e6f7420526567697374657200000000000060448201526064016106d8565b8054851115610fca5760405162461bcd60e51b815260206004820152600e60248201527f5769746864726177204572726f7200000000000000000000000000000000000060448201526064016106d8565b610fd3846105d8565b61100d611002826001015461091864e8d4a51000610647876005015487600001546125cc90919063ffffffff16565b6002830154906125e4565b6002820155805461101e90866125b9565b808255600583015461103b9164e8d4a510009161064791906125cc565b6001820155600282015461104f90866125b9565b60028301556001600160a01b0384161561107c576110776001600160a01b03851684876126aa565b611125565b6000836001600160a01b0316609f5487604051600060405180830381858888f193505050503d80600081146110cd576040519150601f19603f3d011682016040523d82523d6000602084013e6110d2565b606091505b50509050806111235760405162461bcd60e51b815260206004820152601460248201527f4661696c656420746f2073656e6420457468657200000000000000000000000060448201526064016106d8565b505b604080513381526001600160a01b0385811660208301528183018890528616606082015290517ffa2e8fcf14fd6ea11b6ebe7caf7de210198b8fe1eaf0e06d19f8d87c73860c469181900360800190a15050505050565b609a546001600160a01b031633148061119e5750609a546001600160a01b0316155b6111ea5760405162461bcd60e51b815260206004820152601760248201527f63616c6c6572206973206e6f7420746865206f776e657200000000000000000060448201526064016106d8565b806001600160a01b0316826001600160a01b031614156112725760405162461bcd60e51b815260206004820152602860248201527f6c3120616e64206c3220746f6b656e206164647265737365732063616e6e6f7460448201527f2062652073616d6500000000000000000000000000000000000000000000000060648201526084016106d8565b6001600160a01b0380831660009081526098602052604090206001810154909116156112e05760405162461bcd60e51b815260206004820181905260248201527f546f6b656e204164647265737320416c7265616479205265676973746572656460448201526064016106d8565b5060408051610100810182526001600160a01b0393841680825292841660208083019182526000838501818152606085018281526080860183815260a0870184815260c088018581524260e08a019081529a865260989096529790932095518654908a167fffffffffffffffffffffffff0000000000000000000000000000000000000000918216178755945160018701805491909a16951694909417909755955160028401559051600383015593516004820155905160058201559151600683015551600790910155565b609a546001600160a01b03163314806113ce5750609a546001600160a01b0316155b61141a5760405162461bcd60e51b815260206004820152601760248201527f63616c6c6572206973206e6f7420746865206f776e657200000000000000000060448201526064016106d8565b6001600160a01b03808316600090815260986020526040902060018101549091166114875760405162461bcd60e51b815260206004820152601a60248201527f546f6b656e2041646472657373204e6f7420526567697374657200000000000060448201526064016106d8565b83816006015410156114db5760405162461bcd60e51b815260206004820152601b60248201527f4f776e657220526577617264205769746864726177204572726f72000000000060448201526064016106d8565b60068101546114ea90856125b9565b60068201556001600160a01b03831615611517576115126001600160a01b03841683866126aa565b6115c0565b6000826001600160a01b0316609f5486604051600060405180830381858888f193505050503d8060008114611568576040519150601f19603f3d011682016040523d82523d6000602084013e61156d565b606091505b50509050806115be5760405162461bcd60e51b815260206004820152601460248201527f4661696c656420746f2073656e6420457468657200000000000000000000000060448201526064016106d8565b505b604080513381526001600160a01b03808516602083015291810186905290841660608201527f3cb71b9a1fb601579f96812b9f86ab5e914fc3e54c98d5f84d95581b2b9884f3906080015b60405180910390a150505050565b609a546001600160a01b031633148061163b5750609a546001600160a01b0316155b6116875760405162461bcd60e51b815260206004820152601760248201527f63616c6c6572206973206e6f7420746865206f776e657200000000000000000060448201526064016106d8565b610810612776565b609a546001600160a01b03163314806116b15750609a546001600160a01b0316155b6116fd5760405162461bcd60e51b815260206004820152601760248201527f63616c6c6572206973206e6f7420746865206f776e657200000000000000000060448201526064016106d8565b609b546001600160a01b0316156117565760405162461bcd60e51b815260206004820152601d60248201527f436f6e747261637420686173206265656e20696e697469616c697a656400000060448201526064016106d8565b6001547501000000000000000000000000000000000000000000900460ff168061179b575060015474010000000000000000000000000000000000000000900460ff16155b61180d5760405162461bcd60e51b815260206004820152602e60248201527f496e697469616c697a61626c653a20636f6e747261637420697320616c72656160448201527f647920696e697469616c697a656400000000000000000000000000000000000060648201526084016106d8565b6001547501000000000000000000000000000000000000000000900460ff1615801561187457600180547fffffffffffffffffffff0000ffffffffffffffffffffffffffffffffffffffff1675010100000000000000000000000000000000000000001790555b6001600160a01b0384161580159061189457506001600160a01b03831615155b80156118a857506001600160a01b03821615155b6118f45760405162461bcd60e51b815260206004820152601860248201527f7a65726f2061646472657373206e6f7420616c6c6f776564000000000000000060448201526064016106d8565b600080546001600160a01b038087167fffffffffffffffffffffffff00000000000000000000000000000000000000009283161790925560018054868416908316179055609b805492851692821692909217909155609a8054909116331790556119606023600f6121df565b61196f62155cc06108fc61066e565b61197761281c565b61197f61296c565b611987612ae3565b80156119b657600180547fffffffffffffffffffff00ffffffffffffffffffffffffffffffffffffffffff1690555b50505050565b600280541415611a0e5760405162461bcd60e51b815260206004820152601f60248201527f5265656e7472616e637947756172643a207265656e7472616e742063616c6c0060448201526064016106d8565b6002805560665460ff1615611a655760405162461bcd60e51b815260206004820152601060248201527f5061757361626c653a207061757365640000000000000000000000000000000060448201526064016106d8565b34151580611a7b57506001600160a01b03811615155b611ac75760405162461bcd60e51b815260206004820152601060248201527f416d6f756e7420496e636f72726563740000000000000000000000000000000060448201526064016106d8565b3415611ad4575034905060005b6001600160a01b0380821660009081526098602090815260408083206099835281842033855290925290912060018201549192909116611b565760405162461bcd60e51b815260206004820152601a60248201527f546f6b656e2041646472657373204e6f7420526567697374657200000000000060448201526064016106d8565b611b5f836105d8565b805415611bcb57611b95611002826001015461091864e8d4a51000610647876005015487600001546125cc90919063ffffffff16565b600282015560058201548154611bc19164e8d4a51000916106479190611bbb90896125e4565b906125cc565b6001820155611bf1565b611beb64e8d4a510006106478460050154876125cc90919063ffffffff16565b60018201555b6001600160a01b03831615611c1557611c156001600160a01b038416333087612c37565b8054611c2190856125e4565b81556002820154611c3290856125e4565b600283015560408051338152602081018690526001600160a01b0385168183015290517f5852d1d46e583f7e92c2a572221de0e681d82ef71f489847e056b9445c0147369181900360600190a1505060016002555050565b609b546001600160a01b0316611ca86001546001600160a01b031690565b6001600160a01b0316336001600160a01b031614611d2e5760405162461bcd60e51b815260206004820152602a60248201527f58434841494e3a206d657373656e67657220636f6e747261637420756e61757460448201527f68656e746963617465640000000000000000000000000000000000000000000060648201526084016106d8565b806001600160a01b0316611d4a6001546001600160a01b031690565b6001600160a01b0316636e296e456040518163ffffffff1660e01b815260040160206040518083038186803b158015611d8257600080fd5b505afa158015611d96573d6000803e3d6000fd5b505050506040513d601f19601f82011682018060405250810190611dba9190613110565b6001600160a01b031614611e365760405162461bcd60e51b815260206004820152602c60248201527f58434841494e3a2077726f6e672073656e646572206f662063726f73732d646f60448201527f6d61696e206d657373616765000000000000000000000000000000000000000060648201526084016106d8565b60665460ff1615611e895760405162461bcd60e51b815260206004820152601060248201527f5061757361626c653a207061757365640000000000000000000000000000000060448201526064016106d8565b6001600160a01b0382166000908152609860205260408120609c548290611eb9906103e8906106479089906125cc565b90506000611ed86103e8610647609d548a6125cc90919063ffffffff16565b90506000611ee683836125e4565b90506000611ef489836125b9565b90506001600160a01b03881615611fe6576040517f70a082310000000000000000000000000000000000000000000000000000000081523060048201526001600160a01b038916906370a082319060240160206040518083038186803b158015611f5d57600080fd5b505afa158015611f71573d6000803e3d6000fd5b505050506040513d601f19601f82011682018060405250810190611f95919061312d565b811115611fa557600195506120c6565b6004850154611fb490856125e4565b60048601556006850154611fc890846125e4565b6006860155611fe16001600160a01b0389168b836126aa565b6120c6565b47811115611ff757600195506120c6565b600485015461200690856125e4565b6004860155600685015461201a90846125e4565b6006860155609f546040516000916001600160a01b038d1691849084818181858888f193505050503d806000811461206e576040519150601f19603f3d011682016040523d82523d6000602084013e612073565b606091505b50509050806120c45760405162461bcd60e51b815260206004820152601460248201527f4661696c656420746f2073656e6420457468657200000000000000000000000060448201526064016106d8565b505b8515612173576001850154604080516001600160a01b038d81166024830152604482018d90529283166064808301919091528251808303909101815260849091019091526020810180517bffffffffffffffffffffffffffffffffffffffffffffffffffffffff167f650a767b00000000000000000000000000000000000000000000000000000000179052609b54609e54919261216d9291169063ffffffff1683612c88565b506121d3565b604080516001600160a01b038c811682526020820184905281830187905260608201869052608082018590528a1660a082015290517ffe1f8646fcb202e48551fbfd19085116c64b291c60cede7dce3665a57c05e3819181900360c00190a15b50505050505050505050565b609a546001600160a01b03163314806122015750609a546001600160a01b0316155b61224d5760405162461bcd60e51b815260206004820152601760248201527f63616c6c6572206973206e6f7420746865206f776e657200000000000000000060448201526064016106d8565b609b546001600160a01b03166122cb5760405162461bcd60e51b815260206004820152602560248201527f436f6e747261637420686173206e6f7420796574206265656e20696e6974696160448201527f6c697a656400000000000000000000000000000000000000000000000000000060648201526084016106d8565b609c91909155609d55565b609a546001600160a01b03163314806122f85750609a546001600160a01b0316155b6123445760405162461bcd60e51b815260206004820152601760248201527f63616c6c6572206973206e6f7420746865206f776e657200000000000000000060448201526064016106d8565b609a80547fffffffffffffffffffffffff0000000000000000000000000000000000000000166001600160a01b0392909216919091179055565b60665460ff16156123d15760405162461bcd60e51b815260206004820152601060248201527f5061757361626c653a207061757365640000000000000000000000000000000060448201526064016106d8565b341515806123e757506001600160a01b03811615155b6124335760405162461bcd60e51b815260206004820152601060248201527f416d6f756e7420496e636f72726563740000000000000000000000000000000060448201526064016106d8565b3415612440575034905060005b6001600160a01b03808216600090815260986020526040902060018101549091166124ad5760405162461bcd60e51b815260206004820152601a60248201527f546f6b656e2041646472657373204e6f7420526567697374657200000000000060448201526064016106d8565b6001600160a01b038216156124d1576124d16001600160a01b038316333086612c37565b600181015460408051336024820152604481018690526001600160a01b039283166064808301919091528251808303909101815260849091019091526020810180517bffffffffffffffffffffffffffffffffffffffffffffffffffffffff167fbd2d1cab00000000000000000000000000000000000000000000000000000000179052609b54609e5491926125709291169063ffffffff1683612c88565b60408051338152602081018690526001600160a01b038516918101919091527f860e25c3d48fb81f0b272550dd125a5a6ab20ee7511dd3e250d04964bd37a7a99060600161160b565b60006125c58284613175565b9392505050565b60006125c5828461318c565b60006125c582846131c9565b60006125c58284613204565b60665460ff166126425760405162461bcd60e51b815260206004820152601460248201527f5061757361626c653a206e6f742070617573656400000000000000000000000060448201526064016106d8565b606680547fffffffffffffffffffffffffffffffffffffffffffffffffffffffffffffff001690557f5db9ee0a495bf2e6ff9c91a7834c1ba4fdd244a5e8aa4e537bd38aeae4b073aa335b6040516001600160a01b03909116815260200160405180910390a1565b6040516001600160a01b0383166024820152604481018290526127719084907fa9059cbb00000000000000000000000000000000000000000000000000000000906064015b604080517fffffffffffffffffffffffffffffffffffffffffffffffffffffffffffffffe08184030181529190526020810180517bffffffffffffffffffffffffffffffffffffffffffffffffffffffff167fffffffff0000000000000000000000000000000000000000000000000000000090931692909217909152612d0c565b505050565b60665460ff16156127c95760405162461bcd60e51b815260206004820152601060248201527f5061757361626c653a207061757365640000000000000000000000000000000060448201526064016106d8565b606680547fffffffffffffffffffffffffffffffffffffffffffffffffffffffffffffff001660011790557f62e78cea01bee320cd4e420270b5ea74000d11b0c9f74754ebdbfc544b05a25861268d3390565b6001547501000000000000000000000000000000000000000000900460ff1680612861575060015474010000000000000000000000000000000000000000900460ff16155b6128d35760405162461bcd60e51b815260206004820152602e60248201527f496e697469616c697a61626c653a20636f6e747261637420697320616c72656160448201527f647920696e697469616c697a656400000000000000000000000000000000000060648201526084016106d8565b6001547501000000000000000000000000000000000000000000900460ff1615801561293a57600180547fffffffffffffffffffff0000ffffffffffffffffffffffffffffffffffffffff1675010100000000000000000000000000000000000000001790555b801561296957600180547fffffffffffffffffffff00ffffffffffffffffffffffffffffffffffffffffff1690555b50565b6001547501000000000000000000000000000000000000000000900460ff16806129b1575060015474010000000000000000000000000000000000000000900460ff16155b612a235760405162461bcd60e51b815260206004820152602e60248201527f496e697469616c697a61626c653a20636f6e747261637420697320616c72656160448201527f647920696e697469616c697a656400000000000000000000000000000000000060648201526084016106d8565b6001547501000000000000000000000000000000000000000000900460ff16158015612a8a57600180547fffffffffffffffffffff0000ffffffffffffffffffffffffffffffffffffffff1675010100000000000000000000000000000000000000001790555b606680547fffffffffffffffffffffffffffffffffffffffffffffffffffffffffffffff00169055801561296957600180547fffffffffffffffffffff00ffffffffffffffffffffffffffffffffffffffffff16905550565b6001547501000000000000000000000000000000000000000000900460ff1680612b28575060015474010000000000000000000000000000000000000000900460ff16155b612b9a5760405162461bcd60e51b815260206004820152602e60248201527f496e697469616c697a61626c653a20636f6e747261637420697320616c72656160448201527f647920696e697469616c697a656400000000000000000000000000000000000060648201526084016106d8565b6001547501000000000000000000000000000000000000000000900460ff16158015612c0157600180547fffffffffffffffffffff0000ffffffffffffffffffffffffffffffffffffffff1675010100000000000000000000000000000000000000001790555b6001600255801561296957600180547fffffffffffffffffffff00ffffffffffffffffffffffffffffffffffffffffff16905550565b6040516001600160a01b03808516602483015283166044820152606481018290526119b69085907f23b872dd00000000000000000000000000000000000000000000000000000000906084016126ef565b6000546040517f3dbb202b0000000000000000000000000000000000000000000000000000000081526001600160a01b0390911690633dbb202b90612cd590869085908790600401613292565b600060405180830381600087803b158015612cef57600080fd5b505af1158015612d03573d6000803e3d6000fd5b50505050505050565b6000612d61826040518060400160405280602081526020017f5361666545524332303a206c6f772d6c6576656c2063616c6c206661696c6564815250856001600160a01b0316612df19092919063ffffffff16565b8051909150156127715780806020019051810190612d7f91906132ca565b6127715760405162461bcd60e51b815260206004820152602a60248201527f5361666545524332303a204552433230206f7065726174696f6e20646964206e60448201527f6f7420737563636565640000000000000000000000000000000000000000000060648201526084016106d8565b6060612e008484600085612e08565b949350505050565b606082471015612e805760405162461bcd60e51b815260206004820152602660248201527f416464726573733a20696e73756666696369656e742062616c616e636520666f60448201527f722063616c6c000000000000000000000000000000000000000000000000000060648201526084016106d8565b843b612ece5760405162461bcd60e51b815260206004820152601d60248201527f416464726573733a2063616c6c20746f206e6f6e2d636f6e747261637400000060448201526064016106d8565b600080866001600160a01b03168587604051612eea91906132ec565b60006040518083038185875af1925050503d8060008114612f27576040519150601f19603f3d011682016040523d82523d6000602084013e612f2c565b606091505b5091509150612f3c828286612f47565b979650505050505050565b60608315612f565750816125c5565b825115612f665782518084602001fd5b8160405162461bcd60e51b81526004016106d89190613308565b6001600160a01b038116811461296957600080fd5b60008060408385031215612fa857600080fd5b8235612fb381612f80565b91506020830135612fc381612f80565b809150509250929050565b600060208284031215612fe057600080fd5b81356125c581612f80565b60008060408385031215612ffe57600080fd5b823563ffffffff8116811461301257600080fd5b946020939093013593505050565b60008060006060848603121561303557600080fd5b83359250602084013561304781612f80565b9150604084013561305781612f80565b809150509250925092565b60008060006060848603121561307757600080fd5b833561308281612f80565b925060208401359150604084013561305781612f80565b6000806000606084860312156130ae57600080fd5b83356130b981612f80565b9250602084013561304781612f80565b600080604083850312156130dc57600080fd5b823591506020830135612fc381612f80565b6000806040838503121561310157600080fd5b50508035926020909101359150565b60006020828403121561312257600080fd5b81516125c581612f80565b60006020828403121561313f57600080fd5b5051919050565b7f4e487b7100000000000000000000000000000000000000000000000000000000600052601160045260246000fd5b60008282101561318757613187613146565b500390565b6000817fffffffffffffffffffffffffffffffffffffffffffffffffffffffffffffffff04831182151516156131c4576131c4613146565b500290565b6000826131ff577f4e487b7100000000000000000000000000000000000000000000000000000000600052601260045260246000fd5b500490565b6000821982111561321757613217613146565b500190565b60005b8381101561323757818101518382015260200161321f565b838111156119b65750506000910152565b6000815180845261326081602086016020860161321c565b601f017fffffffffffffffffffffffffffffffffffffffffffffffffffffffffffffffe0169290920160200192915050565b6001600160a01b03841681526060602082015260006132b46060830185613248565b905063ffffffff83166040830152949350505050565b6000602082840312156132dc57600080fd5b815180151581146125c557600080fd5b600082516132fe81846020870161321c565b9190910192915050565b6020815260006125c5602083018461324856fea164736f6c6343000808000a",
  "linkReferences": {},
  "deployedLinkReferences": {}
}