{
  "_format": "hh-sol-artifact-1",
  "contractName": "L1LiquidityPool",
  "sourceName": "contracts/LP/L1LiquidityPool.sol",
  "abi": [
    {
      "inputs": [],
      "stateMutability": "nonpayable",
      "type": "constructor"
    },
    {
      "anonymous": false,
      "inputs": [
        {
          "indexed": false,
          "internalType": "address",
          "name": "sender",
          "type": "address"
        },
        {
          "indexed": false,
          "internalType": "uint256",
          "name": "amount",
          "type": "uint256"
        },
        {
          "indexed": false,
          "internalType": "address",
          "name": "tokenAddress",
          "type": "address"
        }
      ],
      "name": "AddLiquidity",
      "type": "event"
    },
    {
      "anonymous": false,
      "inputs": [
        {
          "indexed": false,
          "internalType": "address",
          "name": "sender",
          "type": "address"
        },
        {
          "indexed": false,
          "internalType": "uint256",
          "name": "receivedAmount",
          "type": "uint256"
        },
        {
          "indexed": false,
          "internalType": "address",
          "name": "tokenAddress",
          "type": "address"
        }
      ],
      "name": "ClientDepositL1",
      "type": "event"
    },
    {
      "anonymous": false,
      "inputs": [
        {
          "components": [
            {
              "internalType": "address",
              "name": "to",
              "type": "address"
            },
            {
              "internalType": "address",
              "name": "l2TokenAddress",
              "type": "address"
            },
            {
              "internalType": "uint256",
              "name": "amount",
              "type": "uint256"
            }
          ],
          "indexed": false,
          "internalType": "struct L1LiquidityPool.ClientPayToken[]",
          "name": "_tokens",
          "type": "tuple[]"
        }
      ],
      "name": "ClientDepositL1Batch",
      "type": "event"
    },
    {
      "anonymous": false,
      "inputs": [
        {
          "indexed": false,
          "internalType": "address",
          "name": "sender",
          "type": "address"
        },
        {
          "indexed": false,
          "internalType": "uint256",
          "name": "amount",
          "type": "uint256"
        },
        {
          "indexed": false,
          "internalType": "uint256",
          "name": "userRewardFee",
          "type": "uint256"
        },
        {
          "indexed": false,
          "internalType": "uint256",
          "name": "ownerRewardFee",
          "type": "uint256"
        },
        {
          "indexed": false,
          "internalType": "uint256",
          "name": "totalFee",
          "type": "uint256"
        },
        {
          "indexed": false,
          "internalType": "address",
          "name": "tokenAddress",
          "type": "address"
        }
      ],
      "name": "ClientPayL1",
      "type": "event"
    },
    {
      "anonymous": false,
      "inputs": [
        {
          "indexed": false,
          "internalType": "address",
          "name": "sender",
          "type": "address"
        },
        {
          "indexed": false,
          "internalType": "uint256",
          "name": "amount",
          "type": "uint256"
        },
        {
          "indexed": false,
          "internalType": "uint256",
          "name": "userRewardFee",
          "type": "uint256"
        },
        {
          "indexed": false,
          "internalType": "uint256",
          "name": "ownerRewardFee",
          "type": "uint256"
        },
        {
          "indexed": false,
          "internalType": "uint256",
          "name": "totalFee",
          "type": "uint256"
        },
        {
          "indexed": false,
          "internalType": "address",
          "name": "tokenAddress",
          "type": "address"
        }
      ],
      "name": "ClientPayL1Settlement",
      "type": "event"
    },
    {
      "anonymous": false,
      "inputs": [
        {
          "indexed": false,
          "internalType": "address",
          "name": "sender",
          "type": "address"
        },
        {
          "indexed": false,
          "internalType": "address",
          "name": "receiver",
          "type": "address"
        },
        {
          "indexed": false,
          "internalType": "uint256",
          "name": "amount",
          "type": "uint256"
        },
        {
          "indexed": false,
          "internalType": "address",
          "name": "tokenAddress",
          "type": "address"
        }
      ],
      "name": "OwnerRecoverFee",
      "type": "event"
    },
    {
      "anonymous": false,
      "inputs": [
        {
          "indexed": false,
          "internalType": "address",
          "name": "account",
          "type": "address"
        }
      ],
      "name": "Paused",
      "type": "event"
    },
    {
      "anonymous": false,
      "inputs": [
        {
          "indexed": false,
          "internalType": "uint256",
          "name": "amount",
          "type": "uint256"
        },
        {
          "indexed": false,
          "internalType": "address",
          "name": "tokenAddress",
          "type": "address"
        }
      ],
      "name": "RebalanceLP",
      "type": "event"
    },
    {
      "anonymous": false,
      "inputs": [
        {
          "indexed": false,
          "internalType": "address",
          "name": "account",
          "type": "address"
        }
      ],
      "name": "Unpaused",
      "type": "event"
    },
    {
      "anonymous": false,
      "inputs": [
        {
          "indexed": false,
          "internalType": "address",
          "name": "sender",
          "type": "address"
        },
        {
          "indexed": false,
          "internalType": "address",
          "name": "receiver",
          "type": "address"
        },
        {
          "indexed": false,
          "internalType": "uint256",
          "name": "amount",
          "type": "uint256"
        },
        {
          "indexed": false,
          "internalType": "address",
          "name": "tokenAddress",
          "type": "address"
        }
      ],
      "name": "WithdrawLiquidity",
      "type": "event"
    },
    {
      "anonymous": false,
      "inputs": [
        {
          "indexed": false,
          "internalType": "address",
          "name": "sender",
          "type": "address"
        },
        {
          "indexed": false,
          "internalType": "address",
          "name": "receiver",
          "type": "address"
        },
        {
          "indexed": false,
          "internalType": "uint256",
          "name": "amount",
          "type": "uint256"
        },
        {
          "indexed": false,
          "internalType": "address",
          "name": "tokenAddress",
          "type": "address"
        }
      ],
      "name": "WithdrawReward",
      "type": "event"
    },
    {
      "inputs": [],
      "name": "L1StandardBridgeAddress",
      "outputs": [
        {
          "internalType": "address payable",
          "name": "",
          "type": "address"
        }
      ],
      "stateMutability": "view",
      "type": "function"
    },
    {
      "inputs": [],
      "name": "L2LiquidityPoolAddress",
      "outputs": [
        {
          "internalType": "address",
          "name": "",
          "type": "address"
        }
      ],
      "stateMutability": "view",
      "type": "function"
    },
    {
      "inputs": [],
      "name": "SAFE_GAS_STIPEND",
      "outputs": [
        {
          "internalType": "uint256",
          "name": "",
          "type": "uint256"
        }
      ],
      "stateMutability": "view",
      "type": "function"
    },
    {
      "inputs": [],
      "name": "SETTLEMENT_L2_GAS",
      "outputs": [
        {
          "internalType": "uint32",
          "name": "",
          "type": "uint32"
        }
      ],
      "stateMutability": "view",
      "type": "function"
    },
    {
      "inputs": [
        {
          "internalType": "uint256",
          "name": "_amount",
          "type": "uint256"
        },
        {
          "internalType": "address",
          "name": "_tokenAddress",
          "type": "address"
        }
      ],
      "name": "addLiquidity",
      "outputs": [],
      "stateMutability": "payable",
      "type": "function"
    },
    {
      "inputs": [
        {
          "internalType": "uint256",
          "name": "_amount",
          "type": "uint256"
        },
        {
          "internalType": "address",
          "name": "_tokenAddress",
          "type": "address"
        }
      ],
      "name": "clientDepositL1",
      "outputs": [],
      "stateMutability": "payable",
      "type": "function"
    },
    {
      "inputs": [
        {
          "components": [
            {
              "internalType": "address",
              "name": "l1TokenAddress",
              "type": "address"
            },
            {
              "internalType": "uint256",
              "name": "amount",
              "type": "uint256"
            }
          ],
          "internalType": "struct L1LiquidityPool.ClientDepositToken[]",
          "name": "_tokens",
          "type": "tuple[]"
        }
      ],
      "name": "clientDepositL1Batch",
      "outputs": [],
      "stateMutability": "payable",
      "type": "function"
    },
    {
      "inputs": [
        {
          "internalType": "address payable",
          "name": "_to",
          "type": "address"
        },
        {
          "internalType": "uint256",
          "name": "_amount",
          "type": "uint256"
        },
        {
          "internalType": "address",
          "name": "_tokenAddress",
          "type": "address"
        }
      ],
      "name": "clientPayL1",
      "outputs": [],
      "stateMutability": "nonpayable",
      "type": "function"
    },
    {
      "inputs": [
        {
          "internalType": "address payable",
          "name": "_to",
          "type": "address"
        },
        {
          "internalType": "uint256",
          "name": "_amount",
          "type": "uint256"
        },
        {
          "internalType": "address",
          "name": "_tokenAddress",
          "type": "address"
        }
      ],
      "name": "clientPayL1Settlement",
      "outputs": [],
      "stateMutability": "nonpayable",
      "type": "function"
    },
    {
      "inputs": [
        {
          "internalType": "uint256",
          "name": "_userRewardMinFeeRate",
          "type": "uint256"
        },
        {
          "internalType": "uint256",
          "name": "_userRewardMaxFeeRate",
          "type": "uint256"
        },
        {
          "internalType": "uint256",
          "name": "_ownerRewardFeeRate",
          "type": "uint256"
        }
      ],
      "name": "configureFee",
      "outputs": [],
      "stateMutability": "nonpayable",
      "type": "function"
    },
    {
      "inputs": [
        {
          "internalType": "uint32",
          "name": "_l2GasFee",
          "type": "uint32"
        },
        {
          "internalType": "uint256",
          "name": "_safeGas",
          "type": "uint256"
        }
      ],
      "name": "configureGas",
      "outputs": [],
      "stateMutability": "nonpayable",
      "type": "function"
    },
    {
      "inputs": [
        {
          "internalType": "address",
          "name": "_l1TokenAddress",
          "type": "address"
        }
      ],
      "name": "getUserRewardFeeRate",
      "outputs": [
        {
          "internalType": "uint256",
          "name": "userRewardFeeRate",
          "type": "uint256"
        }
      ],
      "stateMutability": "view",
      "type": "function"
    },
    {
      "inputs": [
        {
          "internalType": "address",
          "name": "_l1CrossDomainMessenger",
          "type": "address"
        },
        {
          "internalType": "address",
          "name": "_l1CrossDomainMessengerFast",
          "type": "address"
        },
        {
          "internalType": "address",
          "name": "_L2LiquidityPoolAddress",
          "type": "address"
        },
        {
          "internalType": "address payable",
          "name": "_L1StandardBridgeAddress",
          "type": "address"
        }
      ],
      "name": "initialize",
      "outputs": [],
      "stateMutability": "nonpayable",
      "type": "function"
    },
    {
      "inputs": [],
      "name": "l1CrossDomainMessenger",
      "outputs": [
        {
          "internalType": "address",
          "name": "",
          "type": "address"
        }
      ],
      "stateMutability": "view",
      "type": "function"
    },
    {
      "inputs": [],
      "name": "owner",
      "outputs": [
        {
          "internalType": "address",
          "name": "",
          "type": "address"
        }
      ],
      "stateMutability": "view",
      "type": "function"
    },
    {
      "inputs": [
        {
          "internalType": "uint256",
          "name": "_amount",
          "type": "uint256"
        },
        {
          "internalType": "address",
          "name": "_tokenAddress",
          "type": "address"
        },
        {
          "internalType": "address",
          "name": "_to",
          "type": "address"
        }
      ],
      "name": "ownerRecoverFee",
      "outputs": [],
      "stateMutability": "nonpayable",
      "type": "function"
    },
    {
      "inputs": [],
      "name": "ownerRewardFeeRate",
      "outputs": [
        {
          "internalType": "uint256",
          "name": "",
          "type": "uint256"
        }
      ],
      "stateMutability": "view",
      "type": "function"
    },
    {
      "inputs": [],
      "name": "pause",
      "outputs": [],
      "stateMutability": "nonpayable",
      "type": "function"
    },
    {
      "inputs": [],
      "name": "paused",
      "outputs": [
        {
          "internalType": "bool",
          "name": "",
          "type": "bool"
        }
      ],
      "stateMutability": "view",
      "type": "function"
    },
    {
      "inputs": [
        {
          "internalType": "address",
          "name": "",
          "type": "address"
        }
      ],
      "name": "poolInfo",
      "outputs": [
        {
          "internalType": "address",
          "name": "l1TokenAddress",
          "type": "address"
        },
        {
          "internalType": "address",
          "name": "l2TokenAddress",
          "type": "address"
        },
        {
          "internalType": "uint256",
          "name": "userDepositAmount",
          "type": "uint256"
        },
        {
          "internalType": "uint256",
          "name": "lastAccUserReward",
          "type": "uint256"
        },
        {
          "internalType": "uint256",
          "name": "accUserReward",
          "type": "uint256"
        },
        {
          "internalType": "uint256",
          "name": "accUserRewardPerShare",
          "type": "uint256"
        },
        {
          "internalType": "uint256",
          "name": "accOwnerReward",
          "type": "uint256"
        },
        {
          "internalType": "uint256",
          "name": "startTime",
          "type": "uint256"
        }
      ],
      "stateMutability": "view",
      "type": "function"
    },
    {
      "inputs": [
        {
          "internalType": "uint256",
          "name": "_amount",
          "type": "uint256"
        },
        {
          "internalType": "address",
          "name": "_tokenAddress",
          "type": "address"
        }
      ],
      "name": "rebalanceLP",
      "outputs": [],
      "stateMutability": "nonpayable",
      "type": "function"
    },
    {
      "inputs": [
        {
          "internalType": "address",
          "name": "_l1TokenAddress",
          "type": "address"
        },
        {
          "internalType": "address",
          "name": "_l2TokenAddress",
          "type": "address"
        }
      ],
      "name": "registerPool",
      "outputs": [],
      "stateMutability": "nonpayable",
      "type": "function"
    },
    {
      "inputs": [],
      "name": "relayerMessenger",
      "outputs": [
        {
          "internalType": "address",
          "name": "",
          "type": "address"
        }
      ],
      "stateMutability": "view",
      "type": "function"
    },
    {
      "inputs": [],
      "name": "senderMessenger",
      "outputs": [
        {
          "internalType": "address",
          "name": "",
          "type": "address"
        }
      ],
      "stateMutability": "view",
      "type": "function"
    },
    {
      "inputs": [
        {
          "internalType": "address",
          "name": "_newOwner",
          "type": "address"
        }
      ],
      "name": "transferOwnership",
      "outputs": [],
      "stateMutability": "nonpayable",
      "type": "function"
    },
    {
      "inputs": [],
      "name": "unpause",
      "outputs": [],
      "stateMutability": "nonpayable",
      "type": "function"
    },
    {
      "inputs": [
        {
          "internalType": "address",
          "name": "_tokenAddress",
          "type": "address"
        }
      ],
      "name": "updateUserRewardPerShare",
      "outputs": [],
      "stateMutability": "nonpayable",
      "type": "function"
    },
    {
      "inputs": [
        {
          "internalType": "address",
          "name": "",
          "type": "address"
        },
        {
          "internalType": "address",
          "name": "",
          "type": "address"
        }
      ],
      "name": "userInfo",
      "outputs": [
        {
          "internalType": "uint256",
          "name": "amount",
          "type": "uint256"
        },
        {
          "internalType": "uint256",
          "name": "rewardDebt",
          "type": "uint256"
        },
        {
          "internalType": "uint256",
          "name": "pendingReward",
          "type": "uint256"
        }
      ],
      "stateMutability": "view",
      "type": "function"
    },
    {
      "inputs": [],
      "name": "userRewardMaxFeeRate",
      "outputs": [
        {
          "internalType": "uint256",
          "name": "",
          "type": "uint256"
        }
      ],
      "stateMutability": "view",
      "type": "function"
    },
    {
      "inputs": [],
      "name": "userRewardMinFeeRate",
      "outputs": [
        {
          "internalType": "uint256",
          "name": "",
          "type": "uint256"
        }
      ],
      "stateMutability": "view",
      "type": "function"
    },
    {
      "inputs": [
        {
          "internalType": "uint256",
          "name": "_amount",
          "type": "uint256"
        },
        {
          "internalType": "address",
          "name": "_tokenAddress",
          "type": "address"
        },
        {
          "internalType": "address payable",
          "name": "_to",
          "type": "address"
        }
      ],
      "name": "withdrawLiquidity",
      "outputs": [],
      "stateMutability": "nonpayable",
      "type": "function"
    },
    {
      "inputs": [
        {
          "internalType": "uint256",
          "name": "_amount",
          "type": "uint256"
        },
        {
          "internalType": "address",
          "name": "_tokenAddress",
          "type": "address"
        },
        {
          "internalType": "address",
          "name": "_to",
          "type": "address"
        }
      ],
      "name": "withdrawReward",
      "outputs": [],
      "stateMutability": "nonpayable",
      "type": "function"
    },
    {
      "stateMutability": "payable",
      "type": "receive"
    }
  ],
  "bytecode": "0x608060405234801561001057600080fd5b50600080546001600160a01b03199081169091556001805490911690556143708061003c6000396000f3fe6080604052600436106101e75760003560e01c806381e6bdac11610102578063c95f9d0e11610095578063f2fde38b11610064578063f2fde38b1461068d578063f64b5f44146106ad578063f72e5aa0146106c0578063f8c8765e146106e057600080fd5b8063c95f9d0e14610608578063cf26fb1b1461061b578063d04a966a1461063b578063ecb12db01461066d57600080fd5b80639a7b5f11116100d15780639a7b5f1114610504578063a44c80e3146105b5578063a7119869146105c8578063c58827ea146105e857600080fd5b806381e6bdac1461048f5780638456cb59146104af5780638cac7893146104c45780638da5cb5b146104e457600080fd5b8063513f31321161017a5780637286e5e5116101495780637286e5e514610423578063744a5aa21461044357806377b594a214610459578063818c021e1461046f57600080fd5b8063513f3132146103aa57806353174cc1146103c05780635c975abb146103e057806368be42ca1461040357600080fd5b80633f4ba83a116101b65780633f4ba83a1461031d5780633f89e9521461033257806349561dc414610352578063508e01c41461037257600080fd5b80630f208beb1461025257806312f54c1a146102b9578063358fc07e146102d9578063369fd102146102fd57600080fd5b3661024d5760a1546001600160a01b0316331461024b5760405162461bcd60e51b815260206004820152601160248201527f43616e277420726563656976652045544800000000000000000000000000000060448201526064015b60405180910390fd5b005b600080fd5b34801561025e57600080fd5b5061029961026d366004613d8b565b609960209081526000928352604080842090915290825290208054600182015460029092015490919083565b604080519384526020840192909252908201526060015b60405180910390f35b3480156102c557600080fd5b5061024b6102d4366004613dc4565b610700565b3480156102e557600080fd5b506102ef609d5481565b6040519081526020016102b0565b34801561030957600080fd5b5061024b610318366004613de1565b610796565b34801561032957600080fd5b5061024b6108bd565b34801561033e57600080fd5b5061024b61034d366004613e16565b610935565b34801561035e57600080fd5b5061024b61036d366004613e3b565b610df7565b34801561037e57600080fd5b50600054610392906001600160a01b031681565b6040516001600160a01b0390911681526020016102b0565b3480156103b657600080fd5b506102ef609f5481565b3480156103cc57600080fd5b5061024b6103db366004613e7d565b6110b8565b3480156103ec57600080fd5b5060665460ff1660405190151581526020016102b0565b34801561040f57600080fd5b5061024b61041e366004613e3b565b61148f565b34801561042f57600080fd5b5061024b61043e366004613d8b565b61176a565b34801561044f57600080fd5b506102ef60a25481565b34801561046557600080fd5b506102ef609c5481565b34801561047b57600080fd5b50600154610392906001600160a01b031681565b34801561049b57600080fd5b5061024b6104aa366004613e3b565b61199a565b3480156104bb57600080fd5b5061024b611c07565b3480156104d057600080fd5b5060a154610392906001600160a01b031681565b3480156104f057600080fd5b50609a54610392906001600160a01b031681565b34801561051057600080fd5b5061056f61051f366004613dc4565b609860205260009081526040902080546001820154600283015460038401546004850154600586015460068701546007909701546001600160a01b03968716979590961695939492939192909188565b604080516001600160a01b03998a168152989097166020890152958701949094526060860192909252608085015260a084015260c083015260e0820152610100016102b0565b61024b6105c3366004613eb4565b611c7d565b3480156105d457600080fd5b5060a054610392906001600160a01b031681565b3480156105f457600080fd5b5061024b610603366004613f29565b612034565b61024b610616366004613e16565b6122c8565b34801561062757600080fd5b5061024b610636366004613e7d565b612596565b34801561064757600080fd5b50609e546106589063ffffffff1681565b60405163ffffffff90911681526020016102b0565b34801561067957600080fd5b506102ef610688366004613dc4565b612af2565b34801561069957600080fd5b5061024b6106a8366004613dc4565b612c9f565b61024b6106bb366004613e16565b612d47565b3480156106cc57600080fd5b50609b54610392906001600160a01b031681565b3480156106ec57600080fd5b5061024b6106fb366004613f55565b612f82565b6001600160a01b0381166000908152609860205260409020600481015460038201541015610792576000610745826003015483600401546132bc90919063ffffffff16565b90508160020154600014610786576002820154610780906107759061076f8464e8d4a510006132cf565b906132db565b6005840154906132e7565b60058301555b50600481015460038201555b5050565b609a546001600160a01b03163314806107b85750609a546001600160a01b0316155b6108045760405162461bcd60e51b815260206004820152601760248201527f43616c6c6572206973206e6f7420746865206f776e65720000000000000000006044820152606401610242565b609b546001600160a01b03166108825760405162461bcd60e51b815260206004820152602560248201527f436f6e747261637420686173206e6f7420796574206265656e20696e6974696160448201527f6c697a65640000000000000000000000000000000000000000000000000000006064820152608401610242565b609e80547fffffffffffffffffffffffffffffffffffffffffffffffffffffffff000000001663ffffffff9390931692909217909155609f55565b609a546001600160a01b03163314806108df5750609a546001600160a01b0316155b61092b5760405162461bcd60e51b815260206004820152601760248201527f43616c6c6572206973206e6f7420746865206f776e65720000000000000000006044820152606401610242565b6109336132f3565b565b609a546001600160a01b03163314806109575750609a546001600160a01b0316155b6109a35760405162461bcd60e51b815260206004820152601760248201527f43616c6c6572206973206e6f7420746865206f776e65720000000000000000006044820152606401610242565b60665460ff16156109f65760405162461bcd60e51b815260206004820152601060248201527f5061757361626c653a20706175736564000000000000000000000000000000006044820152606401610242565b81610a435760405162461bcd60e51b815260206004820152601060248201527f416d6f756e7420496e636f7272656374000000000000000000000000000000006044820152606401610242565b6001600160a01b038082166000908152609860205260409020609b54909116610aae5760405162461bcd60e51b815260206004820181905260248201527f4c32204c697175696469747920506f6f6c204e6f7420526567697374657265646044820152606401610242565b60018101546001600160a01b0316610b085760405162461bcd60e51b815260206004820152601c60248201527f546f6b656e2041646472657373204e6f742052656769737465726564000000006044820152606401610242565b6001600160a01b038216610c055747831115610b665760405162461bcd60e51b815260206004820152601660248201527f4661696c656420746f20526562616c616e6365204c50000000000000000000006044820152606401610242565b60a154609b54609e546040517f9a2ac6d50000000000000000000000000000000000000000000000000000000081526001600160a01b03928316600482015263ffffffff90911660248201526060604482015260006064820152911690639a2ac6d59085906084016000604051808303818588803b158015610be757600080fd5b505af1158015610bfb573d6000803e3d6000fd5b5050505050610db1565b6040517f70a082310000000000000000000000000000000000000000000000000000000081523060048201526001600160a01b038316906370a082319060240160206040518083038186803b158015610c5d57600080fd5b505afa158015610c71573d6000803e3d6000fd5b505050506040513d601f19601f82011682018060405250810190610c959190613fb1565b831115610ce45760405162461bcd60e51b815260206004820152601660248201527f4661696c656420746f20526562616c616e6365204c50000000000000000000006044820152606401610242565b60a154610cfe906001600160a01b038481169116856133ad565b60a1546001820154609b54609e546040517f838b25200000000000000000000000000000000000000000000000000000000081526001600160a01b038781166004830152938416602482015291831660448301526064820187905263ffffffff16608482015260c060a4820152600060c482015291169063838b25209060e401600060405180830381600087803b158015610d9857600080fd5b505af1158015610dac573d6000803e3d6000fd5b505050505b604080518481526001600160a01b03841660208201527f40637a7e139eeb28b936b8decebe78604164b2ade81ce7f4c70deb132e7614c2910160405180910390a1505050565b60665460ff1615610e4a5760405162461bcd60e51b815260206004820152601060248201527f5061757361626c653a20706175736564000000000000000000000000000000006044820152606401610242565b6001600160a01b0380831660009081526098602090815260408083206099835281842033855290925290912060018201549192909116610ecc5760405162461bcd60e51b815260206004820152601c60248201527f546f6b656e2041646472657373204e6f742052656769737465726564000000006044820152606401610242565b6000610f0e610f038360010154610efd64e8d4a5100061076f886005015488600001546132cf90919063ffffffff16565b906132bc565b6002840154906132e7565b905085811015610f605760405162461bcd60e51b815260206004820152601560248201527f576974686472617720526577617264204572726f7200000000000000000000006044820152606401610242565b610f6a81876132bc565b600283015560058301548254610f8a9164e8d4a510009161076f916132cf565b60018301556001600160a01b03851615610fb757610fb26001600160a01b038616858861351e565b611060565b6000846001600160a01b0316609f5488604051600060405180830381858888f193505050503d8060008114611008576040519150601f19603f3d011682016040523d82523d6000602084013e61100d565b606091505b505090508061105e5760405162461bcd60e51b815260206004820152601460248201527f4661696c656420746f2073656e642045746865720000000000000000000000006044820152606401610242565b505b604080513381526001600160a01b0386811660208301528183018990528716606082015290517f3cb7cb475a33eda02ee6e719b6c2fc0c899157cfc6f098daf545354dbbce41ec9181900360800190a1505050505050565b609b546001600160a01b03166110d66001546001600160a01b031690565b6001600160a01b0316336001600160a01b03161461115c5760405162461bcd60e51b815260206004820152602a60248201527f58434841494e3a206d657373656e67657220636f6e747261637420756e61757460448201527f68656e74696361746564000000000000000000000000000000000000000000006064820152608401610242565b806001600160a01b03166111786001546001600160a01b031690565b6001600160a01b0316636e296e456040518163ffffffff1660e01b815260040160206040518083038186803b1580156111b057600080fd5b505afa1580156111c4573d6000803e3d6000fd5b505050506040513d601f19601f820116820180604052508101906111e89190613fca565b6001600160a01b0316146112645760405162461bcd60e51b815260206004820152602c60248201527f58434841494e3a2077726f6e672073656e646572206f662063726f73732d646f60448201527f6d61696e206d65737361676500000000000000000000000000000000000000006064820152608401610242565b60665460ff16156112b75760405162461bcd60e51b815260206004820152601060248201527f5061757361626c653a20706175736564000000000000000000000000000000006044820152606401610242565b6001600160a01b0382166000908152609860205260408120906112d984612af2565b905060006112ed6103e861076f88856132cf565b9050600061130c6103e861076f609d548a6132cf90919063ffffffff16565b9050600061131a83836132e7565b9050600061132889836132bc565b600487015490915061133a90856132e7565b6004870155600686015461134e90846132e7565b60068701556001600160a01b0388161561137b576113766001600160a01b0389168b8361351e565b611424565b60008a6001600160a01b0316609f5483604051600060405180830381858888f193505050503d80600081146113cc576040519150601f19603f3d011682016040523d82523d6000602084013e6113d1565b606091505b50509050806114225760405162461bcd60e51b815260206004820152601460248201527f4661696c656420746f2073656e642045746865720000000000000000000000006044820152606401610242565b505b604080516001600160a01b038c811682526020820184905281830187905260608201869052608082018590528a1660a082015290517fe42a885e97ef72aed483b57141e41f9d64499b43411f58b60a0e07fcdb6e824a9181900360c00190a150505050505050505050565b60665460ff16156114e25760405162461bcd60e51b815260206004820152601060248201527f5061757361626c653a20706175736564000000000000000000000000000000006044820152606401610242565b6001600160a01b03808316600090815260986020908152604080832060998352818420338552909252909120600182015491929091166115645760405162461bcd60e51b815260206004820152601c60248201527f546f6b656e2041646472657373204e6f742052656769737465726564000000006044820152606401610242565b80548511156115b55760405162461bcd60e51b815260206004820152600e60248201527f5769746864726177204572726f720000000000000000000000000000000000006044820152606401610242565b6115be84610700565b6115f86115ed8260010154610efd64e8d4a5100061076f876005015487600001546132cf90919063ffffffff16565b6002830154906132e7565b6002820155805461160990866132bc565b80825560058301546116269164e8d4a510009161076f91906132cf565b6001820155600282015461163a90866132bc565b60028301556001600160a01b03841615611667576116626001600160a01b038516848761351e565b611710565b6000836001600160a01b0316609f5487604051600060405180830381858888f193505050503d80600081146116b8576040519150601f19603f3d011682016040523d82523d6000602084013e6116bd565b606091505b505090508061170e5760405162461bcd60e51b815260206004820152601260248201527f4661696c656420746f2073656e642045544800000000000000000000000000006044820152606401610242565b505b604080513381526001600160a01b03808616602083015291810187905290851660608201527ffa2e8fcf14fd6ea11b6ebe7caf7de210198b8fe1eaf0e06d19f8d87c73860c46906080015b60405180910390a15050505050565b609a546001600160a01b031633148061178c5750609a546001600160a01b0316155b6117d85760405162461bcd60e51b815260206004820152601760248201527f43616c6c6572206973206e6f7420746865206f776e65720000000000000000006044820152606401610242565b806001600160a01b0316826001600160a01b031614156118605760405162461bcd60e51b815260206004820152602860248201527f6c3120616e64206c3220746f6b656e206164647265737365732063616e6e6f7460448201527f2062652073616d650000000000000000000000000000000000000000000000006064820152608401610242565b6001600160a01b0380831660009081526098602052604090206001810154909116156118ce5760405162461bcd60e51b815260206004820181905260248201527f546f6b656e204164647265737320416c726561647920526567697374657265646044820152606401610242565b5060408051610100810182526001600160a01b0393841680825292841660208083019182526000838501818152606085018281526080860183815260a0870184815260c088018581524260e08a019081529a865260989096529790932095518654908a167fffffffffffffffffffffffff0000000000000000000000000000000000000000918216178755945160018701805491909a16951694909417909755955160028401559051600383015593516004820155905160058201559151600683015551600790910155565b609a546001600160a01b03163314806119bc5750609a546001600160a01b0316155b611a085760405162461bcd60e51b815260206004820152601760248201527f43616c6c6572206973206e6f7420746865206f776e65720000000000000000006044820152606401610242565b6001600160a01b0380831660009081526098602052604090206001810154909116611a755760405162461bcd60e51b815260206004820152601c60248201527f546f6b656e2041646472657373204e6f742052656769737465726564000000006044820152606401610242565b8381600601541015611ac95760405162461bcd60e51b815260206004820152601b60248201527f4f776e657220526577617264205769746864726177204572726f7200000000006044820152606401610242565b6006810154611ad890856132bc565b60068201556001600160a01b03831615611b0557611b006001600160a01b038416838661351e565b611bae565b6000826001600160a01b0316609f5486604051600060405180830381858888f193505050503d8060008114611b56576040519150601f19603f3d011682016040523d82523d6000602084013e611b5b565b606091505b5050905080611bac5760405162461bcd60e51b815260206004820152601460248201527f4661696c656420746f2073656e642045746865720000000000000000000000006044820152606401610242565b505b604080513381526001600160a01b03808516602083015291810186905290841660608201527f3cb71b9a1fb601579f96812b9f86ab5e914fc3e54c98d5f84d95581b2b9884f3906080015b60405180910390a150505050565b609a546001600160a01b0316331480611c295750609a546001600160a01b0316155b611c755760405162461bcd60e51b815260206004820152601760248201527f43616c6c6572206973206e6f7420746865206f776e65720000000000000000006044820152606401610242565b61093361356c565b60665460ff1615611cd05760405162461bcd60e51b815260206004820152601060248201527f5061757361626c653a20706175736564000000000000000000000000000000006044820152606401610242565b60058110611d205760405162461bcd60e51b815260206004820152600f60248201527f546f6f204d616e7920546f6b656e7300000000000000000000000000000000006044820152606401610242565b6000808267ffffffffffffffff811115611d3c57611d3c613fe7565b604051908082528060200260200182016040528015611da557816020015b60408051606081018252600080825260208083018290529282015282527fffffffffffffffffffffffffffffffffffffffffffffffffffffffffffffffff909201910181611d5a5790505b50905060005b83811015611eed576000858583818110611dc757611dc7614016565b905060400201803603810190611ddd9190614045565b80516001600160a01b0390811660009081526098602052604090208251929350911615611e295760208201518251611e24916001600160a01b039091169033903090613612565b611e31565b816020015194505b60018101546001600160a01b0316611e8b5760405162461bcd60e51b815260206004820152600d60248201527f496e7661696c6420546f6b656e000000000000000000000000000000000000006044820152606401610242565b6040805160608101825233815260018301546001600160a01b0316602080830191909152840151918101919091528451859085908110611ecd57611ecd614016565b602002602001018190525050508080611ee5906140f3565b915050611dab565b50348214611f3d5760405162461bcd60e51b815260206004820152601260248201527f496e76616c69642045544820416d6f756e7400000000000000000000000000006044820152606401610242565b600063b4eeb98860e01b82604051602401611f58919061412c565b604080517fffffffffffffffffffffffffffffffffffffffffffffffffffffffffffffffe08184030181529190526020810180517bffffffffffffffffffffffffffffffffffffffffffffffffffffffff167fffffffff0000000000000000000000000000000000000000000000000000000090931692909217909152609b54609e54919250612005916001600160a01b0390911690611fff9063ffffffff166002614191565b83613663565b7f1a79d691d0cd9e7c4f70b52af899cfc71146947ba0fa6fc236e2649c07a8e9128260405161175b919061412c565b609b546001600160a01b03166120526001546001600160a01b031690565b6001600160a01b0316336001600160a01b0316146120d85760405162461bcd60e51b815260206004820152602a60248201527f58434841494e3a206d657373656e67657220636f6e747261637420756e61757460448201527f68656e74696361746564000000000000000000000000000000000000000000006064820152608401610242565b806001600160a01b03166120f46001546001600160a01b031690565b6001600160a01b0316636e296e456040518163ffffffff1660e01b815260040160206040518083038186803b15801561212c57600080fd5b505afa158015612140573d6000803e3d6000fd5b505050506040513d601f19601f820116820180604052508101906121649190613fca565b6001600160a01b0316146121e05760405162461bcd60e51b815260206004820152602c60248201527f58434841494e3a2077726f6e672073656e646572206f662063726f73732d646f60448201527f6d61696e206d65737361676500000000000000000000000000000000000000006064820152608401610242565b609b546001600160a01b031661225e5760405162461bcd60e51b815260206004820152602560248201527f436f6e747261637420686173206e6f7420796574206265656e20696e6974696160448201527f6c697a65640000000000000000000000000000000000000000000000000000006064820152608401610242565b828411156122ae5760405162461bcd60e51b815260206004820152601760248201527f496e76616c7564207573657220726577617264206665650000000000000000006044820152606401610242565b6122c2848484609c9290925560a255609d55565b50505050565b60028054141561231a5760405162461bcd60e51b815260206004820152601f60248201527f5265656e7472616e637947756172643a207265656e7472616e742063616c6c006044820152606401610242565b6002805560665460ff16156123715760405162461bcd60e51b815260206004820152601060248201527f5061757361626c653a20706175736564000000000000000000000000000000006044820152606401610242565b3415158061238757506001600160a01b03811615155b6123d35760405162461bcd60e51b815260206004820152601060248201527f416d6f756e7420496e636f7272656374000000000000000000000000000000006044820152606401610242565b34156123e0575034905060005b6001600160a01b03808216600090815260986020908152604080832060998352818420338552909252909120600182015491929091166124625760405162461bcd60e51b815260206004820152601c60248201527f546f6b656e2041646472657373204e6f742052656769737465726564000000006044820152606401610242565b61246b83610700565b8054156124d7576124a16115ed8260010154610efd64e8d4a5100061076f876005015487600001546132cf90919063ffffffff16565b6002820155600582015481546124cd9164e8d4a510009161076f91906124c790896132e7565b906132cf565b60018201556124fd565b6124f764e8d4a5100061076f8460050154876132cf90919063ffffffff16565b60018201555b6001600160a01b03831615612521576125216001600160a01b038416333087613612565b805461252d90856132e7565b8155600282015461253e90856132e7565b600283015560408051338152602081018690526001600160a01b0385168183015290517f5852d1d46e583f7e92c2a572221de0e681d82ef71f489847e056b9445c0147369181900360600190a1505060016002555050565b609b546001600160a01b03166125b46001546001600160a01b031690565b6001600160a01b0316336001600160a01b03161461263a5760405162461bcd60e51b815260206004820152602a60248201527f58434841494e3a206d657373656e67657220636f6e747261637420756e61757460448201527f68656e74696361746564000000000000000000000000000000000000000000006064820152608401610242565b806001600160a01b03166126566001546001600160a01b031690565b6001600160a01b0316636e296e456040518163ffffffff1660e01b815260040160206040518083038186803b15801561268e57600080fd5b505afa1580156126a2573d6000803e3d6000fd5b505050506040513d601f19601f820116820180604052508101906126c69190613fca565b6001600160a01b0316146127425760405162461bcd60e51b815260206004820152602c60248201527f58434841494e3a2077726f6e672073656e646572206f662063726f73732d646f60448201527f6d61696e206d65737361676500000000000000000000000000000000000000006064820152608401610242565b60665460ff16156127955760405162461bcd60e51b815260206004820152601060248201527f5061757361626c653a20706175736564000000000000000000000000000000006044820152606401610242565b6001600160a01b0382166000908152609860205260408120816127b785612af2565b905060006127cb6103e861076f89856132cf565b905060006127ea6103e861076f609d548b6132cf90919063ffffffff16565b905060006127f883836132e7565b905060006128068a836132bc565b90506001600160a01b038916156128f8576040517f70a082310000000000000000000000000000000000000000000000000000000081523060048201526001600160a01b038a16906370a082319060240160206040518083038186803b15801561286f57600080fd5b505afa158015612883573d6000803e3d6000fd5b505050506040513d601f19601f820116820180604052508101906128a79190613fb1565b8111156128b757600196506129d8565b60048601546128c690856132e7565b600487015560068601546128da90846132e7565b60068701556128f36001600160a01b038a168c8361351e565b6129d8565b4781111561290957600196506129d8565b600486015461291890856132e7565b6004870155600686015461292c90846132e7565b6006870155609f546040516000916001600160a01b038e1691849084818181858888f193505050503d8060008114612980576040519150601f19603f3d011682016040523d82523d6000602084013e612985565b606091505b50509050806129d65760405162461bcd60e51b815260206004820152601260248201527f4661696c656420746f2073656e642045544800000000000000000000000000006044820152606401610242565b505b8615612a85576001860154604080516001600160a01b038e81166024830152604482018e90529283166064808301919091528251808303909101815260849091019091526020810180517bffffffffffffffffffffffffffffffffffffffffffffffffffffffff167f650a767b00000000000000000000000000000000000000000000000000000000179052609b54609e549192612a7f9291169063ffffffff1683613663565b50612ae5565b604080516001600160a01b038d811682526020820184905281830187905260608201869052608082018590528b1660a082015290517ffe1f8646fcb202e48551fbfd19085116c64b291c60cede7dce3665a57c05e3819181900360c00190a15b5050505050505050505050565b609b546000906001600160a01b0316612b735760405162461bcd60e51b815260206004820152602560248201527f436f6e747261637420686173206e6f7420796574206265656e20696e6974696160448201527f6c697a65640000000000000000000000000000000000000000000000000000006064820152608401610242565b6001600160a01b038216600081815260986020526040812060028101549092909190612ba0575047612c33565b6040517f70a082310000000000000000000000000000000000000000000000000000000081523060048201526001600160a01b038616906370a082319060240160206040518083038186803b158015612bf857600080fd5b505afa158015612c0c573d6000803e3d6000fd5b505050506040513d601f19601f82011682018060405250810190612c309190613fb1565b90505b80612c4457505060a2549392505050565b60008183609c54612c5591906141bd565b612c5f91906141fa565b905080609c541115612c78575050609c54949350505050565b8060a2541015612c8f57505060a254949350505050565b9350612c9a92505050565b919050565b609a546001600160a01b0316331480612cc15750609a546001600160a01b0316155b612d0d5760405162461bcd60e51b815260206004820152601760248201527f43616c6c6572206973206e6f7420746865206f776e65720000000000000000006044820152606401610242565b609a80547fffffffffffffffffffffffff0000000000000000000000000000000000000000166001600160a01b0392909216919091179055565b60665460ff1615612d9a5760405162461bcd60e51b815260206004820152601060248201527f5061757361626c653a20706175736564000000000000000000000000000000006044820152606401610242565b34151580612db057506001600160a01b03811615155b612dfc5760405162461bcd60e51b815260206004820152601060248201527f416d6f756e7420496e636f7272656374000000000000000000000000000000006044820152606401610242565b3415612e09575034905060005b6001600160a01b0380821660009081526098602052604090206001810154909116612e765760405162461bcd60e51b815260206004820152601c60248201527f546f6b656e2041646472657373204e6f742052656769737465726564000000006044820152606401610242565b6001600160a01b03821615612e9a57612e9a6001600160a01b038316333086613612565b600181015460408051336024820152604481018690526001600160a01b039283166064808301919091528251808303909101815260849091019091526020810180517bffffffffffffffffffffffffffffffffffffffffffffffffffffffff167fbd2d1cab00000000000000000000000000000000000000000000000000000000179052609b54609e549192612f399291169063ffffffff1683613663565b60408051338152602081018690526001600160a01b038516918101919091527f860e25c3d48fb81f0b272550dd125a5a6ab20ee7511dd3e250d04964bd37a7a990606001611bf9565b609a546001600160a01b0316331480612fa45750609a546001600160a01b0316155b612ff05760405162461bcd60e51b815260206004820152601760248201527f43616c6c6572206973206e6f7420746865206f776e65720000000000000000006044820152606401610242565b609b546001600160a01b0316156130495760405162461bcd60e51b815260206004820152601d60248201527f436f6e747261637420686173206265656e20696e697469616c697a65640000006044820152606401610242565b6001547501000000000000000000000000000000000000000000900460ff168061308e575060015474010000000000000000000000000000000000000000900460ff16155b6131005760405162461bcd60e51b815260206004820152602e60248201527f496e697469616c697a61626c653a20636f6e747261637420697320616c72656160448201527f647920696e697469616c697a65640000000000000000000000000000000000006064820152608401610242565b6001547501000000000000000000000000000000000000000000900460ff1615801561316757600180547fffffffffffffffffffff0000ffffffffffffffffffffffffffffffffffffffff1675010100000000000000000000000000000000000000001790555b6001600160a01b0385161580159061318757506001600160a01b03841615155b801561319b57506001600160a01b03831615155b6131e75760405162461bcd60e51b815260206004820152601860248201527f7a65726f2061646472657373206e6f7420616c6c6f77656400000000000000006044820152606401610242565b600080546001600160a01b038781167fffffffffffffffffffffffff000000000000000000000000000000000000000092831617835560018054888316908416179055609b805487831690841617905560a18054918616918316919091179055609a8054909116331790556005609c55603260a255609d5561326e620aae606108fc610796565b6132766136e7565b61327e613837565b6132866139ae565b80156132b557600180547fffffffffffffffffffff00ffffffffffffffffffffffffffffffffffffffffff1690555b5050505050565b60006132c88284614235565b9392505050565b60006132c882846141bd565b60006132c882846141fa565b60006132c8828461424c565b60665460ff166133455760405162461bcd60e51b815260206004820152601460248201527f5061757361626c653a206e6f74207061757365640000000000000000000000006044820152606401610242565b606680547fffffffffffffffffffffffffffffffffffffffffffffffffffffffffffffff001690557f5db9ee0a495bf2e6ff9c91a7834c1ba4fdd244a5e8aa4e537bd38aeae4b073aa335b6040516001600160a01b03909116815260200160405180910390a1565b6040517fdd62ed3e0000000000000000000000000000000000000000000000000000000081523060048201526001600160a01b038381166024830152600091839186169063dd62ed3e9060440160206040518083038186803b15801561341257600080fd5b505afa158015613426573d6000803e3d6000fd5b505050506040513d601f19601f8201168201806040525081019061344a9190613fb1565b613454919061424c565b6040516001600160a01b0385166024820152604481018290529091506122c29085907f095ea7b300000000000000000000000000000000000000000000000000000000906064015b604080517fffffffffffffffffffffffffffffffffffffffffffffffffffffffffffffffe08184030181529190526020810180517bffffffffffffffffffffffffffffffffffffffffffffffffffffffff167fffffffff0000000000000000000000000000000000000000000000000000000090931692909217909152613b02565b6040516001600160a01b0383166024820152604481018290526135679084907fa9059cbb000000000000000000000000000000000000000000000000000000009060640161349c565b505050565b60665460ff16156135bf5760405162461bcd60e51b815260206004820152601060248201527f5061757361626c653a20706175736564000000000000000000000000000000006044820152606401610242565b606680547fffffffffffffffffffffffffffffffffffffffffffffffffffffffffffffff001660011790557f62e78cea01bee320cd4e420270b5ea74000d11b0c9f74754ebdbfc544b05a2586133903390565b6040516001600160a01b03808516602483015283166044820152606481018290526122c29085907f23b872dd000000000000000000000000000000000000000000000000000000009060840161349c565b6000546040517f3dbb202b0000000000000000000000000000000000000000000000000000000081526001600160a01b0390911690633dbb202b906136b0908690859087906004016142da565b600060405180830381600087803b1580156136ca57600080fd5b505af11580156136de573d6000803e3d6000fd5b50505050505050565b6001547501000000000000000000000000000000000000000000900460ff168061372c575060015474010000000000000000000000000000000000000000900460ff16155b61379e5760405162461bcd60e51b815260206004820152602e60248201527f496e697469616c697a61626c653a20636f6e747261637420697320616c72656160448201527f647920696e697469616c697a65640000000000000000000000000000000000006064820152608401610242565b6001547501000000000000000000000000000000000000000000900460ff1615801561380557600180547fffffffffffffffffffff0000ffffffffffffffffffffffffffffffffffffffff1675010100000000000000000000000000000000000000001790555b801561383457600180547fffffffffffffffffffff00ffffffffffffffffffffffffffffffffffffffffff1690555b50565b6001547501000000000000000000000000000000000000000000900460ff168061387c575060015474010000000000000000000000000000000000000000900460ff16155b6138ee5760405162461bcd60e51b815260206004820152602e60248201527f496e697469616c697a61626c653a20636f6e747261637420697320616c72656160448201527f647920696e697469616c697a65640000000000000000000000000000000000006064820152608401610242565b6001547501000000000000000000000000000000000000000000900460ff1615801561395557600180547fffffffffffffffffffff0000ffffffffffffffffffffffffffffffffffffffff1675010100000000000000000000000000000000000000001790555b606680547fffffffffffffffffffffffffffffffffffffffffffffffffffffffffffffff00169055801561383457600180547fffffffffffffffffffff00ffffffffffffffffffffffffffffffffffffffffff16905550565b6001547501000000000000000000000000000000000000000000900460ff16806139f3575060015474010000000000000000000000000000000000000000900460ff16155b613a655760405162461bcd60e51b815260206004820152602e60248201527f496e697469616c697a61626c653a20636f6e747261637420697320616c72656160448201527f647920696e697469616c697a65640000000000000000000000000000000000006064820152608401610242565b6001547501000000000000000000000000000000000000000000900460ff16158015613acc57600180547fffffffffffffffffffff0000ffffffffffffffffffffffffffffffffffffffff1675010100000000000000000000000000000000000000001790555b6001600255801561383457600180547fffffffffffffffffffff00ffffffffffffffffffffffffffffffffffffffffff16905550565b6000613b57826040518060400160405280602081526020017f5361666545524332303a206c6f772d6c6576656c2063616c6c206661696c6564815250856001600160a01b0316613be79092919063ffffffff16565b8051909150156135675780806020019051810190613b759190614312565b6135675760405162461bcd60e51b815260206004820152602a60248201527f5361666545524332303a204552433230206f7065726174696f6e20646964206e60448201527f6f742073756363656564000000000000000000000000000000000000000000006064820152608401610242565b6060613bf68484600085613bfe565b949350505050565b606082471015613c765760405162461bcd60e51b815260206004820152602660248201527f416464726573733a20696e73756666696369656e742062616c616e636520666f60448201527f722063616c6c00000000000000000000000000000000000000000000000000006064820152608401610242565b843b613cc45760405162461bcd60e51b815260206004820152601d60248201527f416464726573733a2063616c6c20746f206e6f6e2d636f6e74726163740000006044820152606401610242565b600080866001600160a01b03168587604051613ce09190614334565b60006040518083038185875af1925050503d8060008114613d1d576040519150601f19603f3d011682016040523d82523d6000602084013e613d22565b606091505b5091509150613d32828286613d3d565b979650505050505050565b60608315613d4c5750816132c8565b825115613d5c5782518084602001fd5b8160405162461bcd60e51b81526004016102429190614350565b6001600160a01b038116811461383457600080fd5b60008060408385031215613d9e57600080fd5b8235613da981613d76565b91506020830135613db981613d76565b809150509250929050565b600060208284031215613dd657600080fd5b81356132c881613d76565b60008060408385031215613df457600080fd5b823563ffffffff81168114613e0857600080fd5b946020939093013593505050565b60008060408385031215613e2957600080fd5b823591506020830135613db981613d76565b600080600060608486031215613e5057600080fd5b833592506020840135613e6281613d76565b91506040840135613e7281613d76565b809150509250925092565b600080600060608486031215613e9257600080fd5b8335613e9d81613d76565b9250602084013591506040840135613e7281613d76565b60008060208385031215613ec757600080fd5b823567ffffffffffffffff80821115613edf57600080fd5b818501915085601f830112613ef357600080fd5b813581811115613f0257600080fd5b8660208260061b8501011115613f1757600080fd5b60209290920196919550909350505050565b600080600060608486031215613f3e57600080fd5b505081359360208301359350604090920135919050565b60008060008060808587031215613f6b57600080fd5b8435613f7681613d76565b93506020850135613f8681613d76565b92506040850135613f9681613d76565b91506060850135613fa681613d76565b939692955090935050565b600060208284031215613fc357600080fd5b5051919050565b600060208284031215613fdc57600080fd5b81516132c881613d76565b7f4e487b7100000000000000000000000000000000000000000000000000000000600052604160045260246000fd5b7f4e487b7100000000000000000000000000000000000000000000000000000000600052603260045260246000fd5b60006040828403121561405757600080fd5b6040516040810181811067ffffffffffffffff821117156140a1577f4e487b7100000000000000000000000000000000000000000000000000000000600052604160045260246000fd5b60405282356140af81613d76565b81526020928301359281019290925250919050565b7f4e487b7100000000000000000000000000000000000000000000000000000000600052601160045260246000fd5b60007fffffffffffffffffffffffffffffffffffffffffffffffffffffffffffffffff821415614125576141256140c4565b5060010190565b602080825282518282018190526000919060409081850190868401855b8281101561418457815180516001600160a01b0390811686528782015116878601528501518585015260609093019290850190600101614149565b5091979650505050505050565b600063ffffffff808316818516818304811182151516156141b4576141b46140c4565b02949350505050565b6000817fffffffffffffffffffffffffffffffffffffffffffffffffffffffffffffffff04831182151516156141f5576141f56140c4565b500290565b600082614230577f4e487b7100000000000000000000000000000000000000000000000000000000600052601260045260246000fd5b500490565b600082821015614247576142476140c4565b500390565b6000821982111561425f5761425f6140c4565b500190565b60005b8381101561427f578181015183820152602001614267565b838111156122c25750506000910152565b600081518084526142a8816020860160208601614264565b601f017fffffffffffffffffffffffffffffffffffffffffffffffffffffffffffffffe0169290920160200192915050565b6001600160a01b03841681526060602082015260006142fc6060830185614290565b905063ffffffff83166040830152949350505050565b60006020828403121561432457600080fd5b815180151581146132c857600080fd5b60008251614346818460208701614264565b9190910192915050565b6020815260006132c8602083018461429056fea164736f6c6343000809000a",
  "linkReferences": {},
  "deployedLinkReferences": {}
}