{
  "_format": "hh-sol-artifact-1",
  "contractName": "L1LiquidityPool",
  "sourceName": "contracts/LP/L1LiquidityPool.sol",
  "abi": [
    {
      "inputs": [],
      "stateMutability": "nonpayable",
      "type": "constructor"
    },
    {
      "anonymous": false,
      "inputs": [
        {
          "indexed": false,
          "internalType": "address",
          "name": "sender",
          "type": "address"
        },
        {
          "indexed": false,
          "internalType": "uint256",
          "name": "amount",
          "type": "uint256"
        },
        {
          "indexed": false,
          "internalType": "address",
          "name": "tokenAddress",
          "type": "address"
        }
      ],
      "name": "AddLiquidity",
      "type": "event"
    },
    {
      "anonymous": false,
      "inputs": [
        {
          "indexed": false,
          "internalType": "address",
          "name": "sender",
          "type": "address"
        },
        {
          "indexed": false,
          "internalType": "uint256",
          "name": "receivedAmount",
          "type": "uint256"
        },
        {
          "indexed": false,
          "internalType": "address",
          "name": "tokenAddress",
          "type": "address"
        }
      ],
      "name": "ClientDepositL1",
      "type": "event"
    },
    {
      "anonymous": false,
      "inputs": [
        {
          "indexed": false,
          "internalType": "address",
          "name": "sender",
          "type": "address"
        },
        {
          "indexed": false,
          "internalType": "uint256",
          "name": "amount",
          "type": "uint256"
        },
        {
          "indexed": false,
          "internalType": "uint256",
          "name": "userRewardFee",
          "type": "uint256"
        },
        {
          "indexed": false,
          "internalType": "uint256",
          "name": "ownerRewardFee",
          "type": "uint256"
        },
        {
          "indexed": false,
          "internalType": "uint256",
          "name": "totalFee",
          "type": "uint256"
        },
        {
          "indexed": false,
          "internalType": "address",
          "name": "tokenAddress",
          "type": "address"
        }
      ],
      "name": "ClientPayL1",
      "type": "event"
    },
    {
      "anonymous": false,
      "inputs": [
        {
          "indexed": false,
          "internalType": "address",
          "name": "sender",
          "type": "address"
        },
        {
          "indexed": false,
          "internalType": "uint256",
          "name": "amount",
          "type": "uint256"
        },
        {
          "indexed": false,
          "internalType": "uint256",
          "name": "userRewardFee",
          "type": "uint256"
        },
        {
          "indexed": false,
          "internalType": "uint256",
          "name": "ownerRewardFee",
          "type": "uint256"
        },
        {
          "indexed": false,
          "internalType": "uint256",
          "name": "totalFee",
          "type": "uint256"
        },
        {
          "indexed": false,
          "internalType": "address",
          "name": "tokenAddress",
          "type": "address"
        }
      ],
      "name": "ClientPayL1Settlement",
      "type": "event"
    },
    {
      "anonymous": false,
      "inputs": [
        {
          "indexed": false,
          "internalType": "address",
          "name": "sender",
          "type": "address"
        },
        {
          "indexed": false,
          "internalType": "address",
          "name": "receiver",
          "type": "address"
        },
        {
          "indexed": false,
          "internalType": "uint256",
          "name": "amount",
          "type": "uint256"
        },
        {
          "indexed": false,
          "internalType": "address",
          "name": "tokenAddress",
          "type": "address"
        }
      ],
      "name": "OwnerRecoverFee",
      "type": "event"
    },
    {
      "anonymous": false,
      "inputs": [
        {
          "indexed": false,
          "internalType": "address",
          "name": "account",
          "type": "address"
        }
      ],
      "name": "Paused",
      "type": "event"
    },
    {
      "anonymous": false,
      "inputs": [
        {
          "indexed": false,
          "internalType": "uint256",
          "name": "amount",
          "type": "uint256"
        },
        {
          "indexed": false,
          "internalType": "address",
          "name": "tokenAddress",
          "type": "address"
        }
      ],
      "name": "RebalanceLP",
      "type": "event"
    },
    {
      "anonymous": false,
      "inputs": [
        {
          "indexed": false,
          "internalType": "address",
          "name": "account",
          "type": "address"
        }
      ],
      "name": "Unpaused",
      "type": "event"
    },
    {
      "anonymous": false,
      "inputs": [
        {
          "indexed": false,
          "internalType": "address",
          "name": "sender",
          "type": "address"
        },
        {
          "indexed": false,
          "internalType": "address",
          "name": "receiver",
          "type": "address"
        },
        {
          "indexed": false,
          "internalType": "uint256",
          "name": "amount",
          "type": "uint256"
        },
        {
          "indexed": false,
          "internalType": "address",
          "name": "tokenAddress",
          "type": "address"
        }
      ],
      "name": "WithdrawLiquidity",
      "type": "event"
    },
    {
      "anonymous": false,
      "inputs": [
        {
          "indexed": false,
          "internalType": "address",
          "name": "sender",
          "type": "address"
        },
        {
          "indexed": false,
          "internalType": "address",
          "name": "receiver",
          "type": "address"
        },
        {
          "indexed": false,
          "internalType": "uint256",
          "name": "amount",
          "type": "uint256"
        },
        {
          "indexed": false,
          "internalType": "address",
          "name": "tokenAddress",
          "type": "address"
        }
      ],
      "name": "WithdrawReward",
      "type": "event"
    },
    {
      "inputs": [],
      "name": "L1StandardBridgeAddress",
      "outputs": [
        {
          "internalType": "address payable",
          "name": "",
          "type": "address"
        }
      ],
      "stateMutability": "view",
      "type": "function"
    },
    {
      "inputs": [],
      "name": "L2LiquidityPoolAddress",
      "outputs": [
        {
          "internalType": "address",
          "name": "",
          "type": "address"
        }
      ],
      "stateMutability": "view",
      "type": "function"
    },
    {
      "inputs": [],
      "name": "SAFE_GAS_STIPEND",
      "outputs": [
        {
          "internalType": "uint256",
          "name": "",
          "type": "uint256"
        }
      ],
      "stateMutability": "view",
      "type": "function"
    },
    {
      "inputs": [],
      "name": "SETTLEMENT_L2_GAS",
      "outputs": [
        {
          "internalType": "uint32",
          "name": "",
          "type": "uint32"
        }
      ],
      "stateMutability": "view",
      "type": "function"
    },
    {
      "inputs": [
        {
          "internalType": "uint256",
          "name": "_amount",
          "type": "uint256"
        },
        {
          "internalType": "address",
          "name": "_tokenAddress",
          "type": "address"
        }
      ],
      "name": "addLiquidity",
      "outputs": [],
      "stateMutability": "payable",
      "type": "function"
    },
    {
      "inputs": [
        {
          "internalType": "uint256",
          "name": "_amount",
          "type": "uint256"
        },
        {
          "internalType": "address",
          "name": "_tokenAddress",
          "type": "address"
        }
      ],
      "name": "clientDepositL1",
      "outputs": [],
      "stateMutability": "payable",
      "type": "function"
    },
    {
      "inputs": [
        {
          "internalType": "address payable",
          "name": "_to",
          "type": "address"
        },
        {
          "internalType": "uint256",
          "name": "_amount",
          "type": "uint256"
        },
        {
          "internalType": "address",
          "name": "_tokenAddress",
          "type": "address"
        }
      ],
      "name": "clientPayL1",
      "outputs": [],
      "stateMutability": "nonpayable",
      "type": "function"
    },
    {
      "inputs": [
        {
          "internalType": "address payable",
          "name": "_to",
          "type": "address"
        },
        {
          "internalType": "uint256",
          "name": "_amount",
          "type": "uint256"
        },
        {
          "internalType": "address",
          "name": "_tokenAddress",
          "type": "address"
        }
      ],
      "name": "clientPayL1Settlement",
      "outputs": [],
      "stateMutability": "nonpayable",
      "type": "function"
    },
    {
      "inputs": [
        {
          "internalType": "uint256",
          "name": "_userRewardMinFeeRate",
          "type": "uint256"
        },
        {
          "internalType": "uint256",
          "name": "_userRewardMaxFeeRate",
          "type": "uint256"
        },
        {
          "internalType": "uint256",
          "name": "_ownerRewardFeeRate",
          "type": "uint256"
        }
      ],
      "name": "configureFee",
      "outputs": [],
      "stateMutability": "nonpayable",
      "type": "function"
    },
    {
      "inputs": [
        {
          "internalType": "uint32",
          "name": "_l2GasFee",
          "type": "uint32"
        },
        {
          "internalType": "uint256",
          "name": "_safeGas",
          "type": "uint256"
        }
      ],
      "name": "configureGas",
      "outputs": [],
      "stateMutability": "nonpayable",
      "type": "function"
    },
    {
      "inputs": [
        {
          "internalType": "address",
          "name": "_l1TokenAddress",
          "type": "address"
        }
      ],
      "name": "getUserRewardFeeRate",
      "outputs": [
        {
          "internalType": "uint256",
          "name": "userRewardFeeRate",
          "type": "uint256"
        }
      ],
      "stateMutability": "view",
      "type": "function"
    },
    {
      "inputs": [
        {
          "internalType": "address",
          "name": "_l1CrossDomainMessenger",
          "type": "address"
        },
        {
          "internalType": "address",
          "name": "_l1CrossDomainMessengerFast",
          "type": "address"
        },
        {
          "internalType": "address",
          "name": "_L2LiquidityPoolAddress",
          "type": "address"
        },
        {
          "internalType": "address payable",
          "name": "_L1StandardBridgeAddress",
          "type": "address"
        }
      ],
      "name": "initialize",
      "outputs": [],
      "stateMutability": "nonpayable",
      "type": "function"
    },
    {
      "inputs": [],
      "name": "l1CrossDomainMessenger",
      "outputs": [
        {
          "internalType": "address",
          "name": "",
          "type": "address"
        }
      ],
      "stateMutability": "view",
      "type": "function"
    },
    {
      "inputs": [],
      "name": "owner",
      "outputs": [
        {
          "internalType": "address",
          "name": "",
          "type": "address"
        }
      ],
      "stateMutability": "view",
      "type": "function"
    },
    {
      "inputs": [
        {
          "internalType": "uint256",
          "name": "_amount",
          "type": "uint256"
        },
        {
          "internalType": "address",
          "name": "_tokenAddress",
          "type": "address"
        },
        {
          "internalType": "address",
          "name": "_to",
          "type": "address"
        }
      ],
      "name": "ownerRecoverFee",
      "outputs": [],
      "stateMutability": "nonpayable",
      "type": "function"
    },
    {
      "inputs": [],
      "name": "ownerRewardFeeRate",
      "outputs": [
        {
          "internalType": "uint256",
          "name": "",
          "type": "uint256"
        }
      ],
      "stateMutability": "view",
      "type": "function"
    },
    {
      "inputs": [],
      "name": "pause",
      "outputs": [],
      "stateMutability": "nonpayable",
      "type": "function"
    },
    {
      "inputs": [],
      "name": "paused",
      "outputs": [
        {
          "internalType": "bool",
          "name": "",
          "type": "bool"
        }
      ],
      "stateMutability": "view",
      "type": "function"
    },
    {
      "inputs": [
        {
          "internalType": "address",
          "name": "",
          "type": "address"
        }
      ],
      "name": "poolInfo",
      "outputs": [
        {
          "internalType": "address",
          "name": "l1TokenAddress",
          "type": "address"
        },
        {
          "internalType": "address",
          "name": "l2TokenAddress",
          "type": "address"
        },
        {
          "internalType": "uint256",
          "name": "userDepositAmount",
          "type": "uint256"
        },
        {
          "internalType": "uint256",
          "name": "lastAccUserReward",
          "type": "uint256"
        },
        {
          "internalType": "uint256",
          "name": "accUserReward",
          "type": "uint256"
        },
        {
          "internalType": "uint256",
          "name": "accUserRewardPerShare",
          "type": "uint256"
        },
        {
          "internalType": "uint256",
          "name": "accOwnerReward",
          "type": "uint256"
        },
        {
          "internalType": "uint256",
          "name": "startTime",
          "type": "uint256"
        }
      ],
      "stateMutability": "view",
      "type": "function"
    },
    {
      "inputs": [
        {
          "internalType": "uint256",
          "name": "_amount",
          "type": "uint256"
        },
        {
          "internalType": "address",
          "name": "_tokenAddress",
          "type": "address"
        }
      ],
      "name": "rebalanceLP",
      "outputs": [],
      "stateMutability": "nonpayable",
      "type": "function"
    },
    {
      "inputs": [
        {
          "internalType": "address",
          "name": "_l1TokenAddress",
          "type": "address"
        },
        {
          "internalType": "address",
          "name": "_l2TokenAddress",
          "type": "address"
        }
      ],
      "name": "registerPool",
      "outputs": [],
      "stateMutability": "nonpayable",
      "type": "function"
    },
    {
      "inputs": [],
      "name": "relayerMessenger",
      "outputs": [
        {
          "internalType": "address",
          "name": "",
          "type": "address"
        }
      ],
      "stateMutability": "view",
      "type": "function"
    },
    {
      "inputs": [],
      "name": "senderMessenger",
      "outputs": [
        {
          "internalType": "address",
          "name": "",
          "type": "address"
        }
      ],
      "stateMutability": "view",
      "type": "function"
    },
    {
      "inputs": [
        {
          "internalType": "address",
          "name": "_newOwner",
          "type": "address"
        }
      ],
      "name": "transferOwnership",
      "outputs": [],
      "stateMutability": "nonpayable",
      "type": "function"
    },
    {
      "inputs": [],
      "name": "unpause",
      "outputs": [],
      "stateMutability": "nonpayable",
      "type": "function"
    },
    {
      "inputs": [
        {
          "internalType": "address",
          "name": "_tokenAddress",
          "type": "address"
        }
      ],
      "name": "updateUserRewardPerShare",
      "outputs": [],
      "stateMutability": "nonpayable",
      "type": "function"
    },
    {
      "inputs": [
        {
          "internalType": "address",
          "name": "",
          "type": "address"
        },
        {
          "internalType": "address",
          "name": "",
          "type": "address"
        }
      ],
      "name": "userInfo",
      "outputs": [
        {
          "internalType": "uint256",
          "name": "amount",
          "type": "uint256"
        },
        {
          "internalType": "uint256",
          "name": "rewardDebt",
          "type": "uint256"
        },
        {
          "internalType": "uint256",
          "name": "pendingReward",
          "type": "uint256"
        }
      ],
      "stateMutability": "view",
      "type": "function"
    },
    {
      "inputs": [],
      "name": "userRewardMaxFeeRate",
      "outputs": [
        {
          "internalType": "uint256",
          "name": "",
          "type": "uint256"
        }
      ],
      "stateMutability": "view",
      "type": "function"
    },
    {
      "inputs": [],
      "name": "userRewardMinFeeRate",
      "outputs": [
        {
          "internalType": "uint256",
          "name": "",
          "type": "uint256"
        }
      ],
      "stateMutability": "view",
      "type": "function"
    },
    {
      "inputs": [
        {
          "internalType": "uint256",
          "name": "_amount",
          "type": "uint256"
        },
        {
          "internalType": "address",
          "name": "_tokenAddress",
          "type": "address"
        },
        {
          "internalType": "address payable",
          "name": "_to",
          "type": "address"
        }
      ],
      "name": "withdrawLiquidity",
      "outputs": [],
      "stateMutability": "nonpayable",
      "type": "function"
    },
    {
      "inputs": [
        {
          "internalType": "uint256",
          "name": "_amount",
          "type": "uint256"
        },
        {
          "internalType": "address",
          "name": "_tokenAddress",
          "type": "address"
        },
        {
          "internalType": "address",
          "name": "_to",
          "type": "address"
        }
      ],
      "name": "withdrawReward",
      "outputs": [],
      "stateMutability": "nonpayable",
      "type": "function"
    },
    {
      "stateMutability": "payable",
      "type": "receive"
    }
  ],
  "bytecode": "0x608060405234801561001057600080fd5b50600080546001600160a01b0319908116909155600180549091169055613d7c8061003c6000396000f3fe6080604052600436106101dc5760003560e01c8063818c021e11610102578063c95f9d0e11610095578063f2fde38b11610064578063f2fde38b1461066f578063f64b5f441461068f578063f72e5aa0146106a2578063f8c8765e146106c257600080fd5b8063c95f9d0e146105ea578063cf26fb1b146105fd578063d04a966a1461061d578063ecb12db01461064f57600080fd5b80638da5cb5b116100d15780638da5cb5b146104d95780639a7b5f11146104f9578063a7119869146105aa578063c58827ea146105ca57600080fd5b8063818c021e1461046457806381e6bdac146104845780638456cb59146104a45780638cac7893146104b957600080fd5b8063508e01c41161017a57806368be42ca1161014957806368be42ca146103f85780637286e5e514610418578063744a5aa21461043857806377b594a21461044e57600080fd5b8063508e01c414610367578063513f31321461039f57806353174cc1146103b55780635c975abb146103d557600080fd5b8063369fd102116101b6578063369fd102146102f25780633f4ba83a146103125780633f89e9521461032757806349561dc41461034757600080fd5b80630f208beb1461024757806312f54c1a146102ae578063358fc07e146102ce57600080fd5b366102425760a1546001600160a01b031633146102405760405162461bcd60e51b815260206004820152601160248201527f43616e277420726563656976652045544800000000000000000000000000000060448201526064015b60405180910390fd5b005b600080fd5b34801561025357600080fd5b5061028e6102623660046139b3565b609960209081526000928352604080842090915290825290208054600182015460029092015490919083565b604080519384526020840192909252908201526060015b60405180910390f35b3480156102ba57600080fd5b506102406102c93660046139ec565b6106e2565b3480156102da57600080fd5b506102e4609d5481565b6040519081526020016102a5565b3480156102fe57600080fd5b5061024061030d366004613a09565b610778565b34801561031e57600080fd5b5061024061089f565b34801561033357600080fd5b50610240610342366004613a3e565b610917565b34801561035357600080fd5b50610240610362366004613a63565b610dd9565b34801561037357600080fd5b50600054610387906001600160a01b031681565b6040516001600160a01b0390911681526020016102a5565b3480156103ab57600080fd5b506102e4609f5481565b3480156103c157600080fd5b506102406103d0366004613aa5565b61109a565b3480156103e157600080fd5b5060665460ff1660405190151581526020016102a5565b34801561040457600080fd5b50610240610413366004613a63565b611471565b34801561042457600080fd5b506102406104333660046139b3565b611749565b34801561044457600080fd5b506102e460a25481565b34801561045a57600080fd5b506102e4609c5481565b34801561047057600080fd5b50600154610387906001600160a01b031681565b34801561049057600080fd5b5061024061049f366004613a63565b611979565b3480156104b057600080fd5b50610240611be6565b3480156104c557600080fd5b5060a154610387906001600160a01b031681565b3480156104e557600080fd5b50609a54610387906001600160a01b031681565b34801561050557600080fd5b506105646105143660046139ec565b609860205260009081526040902080546001820154600283015460038401546004850154600586015460068701546007909701546001600160a01b03968716979590961695939492939192909188565b604080516001600160a01b03998a168152989097166020890152958701949094526060860192909252608085015260a084015260c083015260e0820152610100016102a5565b3480156105b657600080fd5b5060a054610387906001600160a01b031681565b3480156105d657600080fd5b506102406105e5366004613adc565b611c5c565b6102406105f8366004613a3e565b611ef0565b34801561060957600080fd5b50610240610618366004613aa5565b6121be565b34801561062957600080fd5b50609e5461063a9063ffffffff1681565b60405163ffffffff90911681526020016102a5565b34801561065b57600080fd5b506102e461066a3660046139ec565b61271a565b34801561067b57600080fd5b5061024061068a3660046139ec565b6128c7565b61024061069d366004613a3e565b61296f565b3480156106ae57600080fd5b50609b54610387906001600160a01b031681565b3480156106ce57600080fd5b506102406106dd366004613b08565b612baa565b6001600160a01b038116600090815260986020526040902060048101546003820154101561077457600061072782600301548360040154612ee490919063ffffffff16565b9050816002015460001461076857600282015461076290610757906107518464e8d4a51000612ef7565b90612f03565b600584015490612f0f565b60058301555b50600481015460038201555b5050565b609a546001600160a01b031633148061079a5750609a546001600160a01b0316155b6107e65760405162461bcd60e51b815260206004820152601760248201527f43616c6c6572206973206e6f7420746865206f776e65720000000000000000006044820152606401610237565b609b546001600160a01b03166108645760405162461bcd60e51b815260206004820152602560248201527f436f6e747261637420686173206e6f7420796574206265656e20696e6974696160448201527f6c697a65640000000000000000000000000000000000000000000000000000006064820152608401610237565b609e80547fffffffffffffffffffffffffffffffffffffffffffffffffffffffff000000001663ffffffff9390931692909217909155609f55565b609a546001600160a01b03163314806108c15750609a546001600160a01b0316155b61090d5760405162461bcd60e51b815260206004820152601760248201527f43616c6c6572206973206e6f7420746865206f776e65720000000000000000006044820152606401610237565b610915612f1b565b565b609a546001600160a01b03163314806109395750609a546001600160a01b0316155b6109855760405162461bcd60e51b815260206004820152601760248201527f43616c6c6572206973206e6f7420746865206f776e65720000000000000000006044820152606401610237565b60665460ff16156109d85760405162461bcd60e51b815260206004820152601060248201527f5061757361626c653a20706175736564000000000000000000000000000000006044820152606401610237565b81610a255760405162461bcd60e51b815260206004820152601060248201527f416d6f756e7420496e636f7272656374000000000000000000000000000000006044820152606401610237565b6001600160a01b038082166000908152609860205260409020609b54909116610a905760405162461bcd60e51b815260206004820181905260248201527f4c32204c697175696469747920506f6f6c204e6f7420526567697374657265646044820152606401610237565b60018101546001600160a01b0316610aea5760405162461bcd60e51b815260206004820152601c60248201527f546f6b656e2041646472657373204e6f742052656769737465726564000000006044820152606401610237565b6001600160a01b038216610be75747831115610b485760405162461bcd60e51b815260206004820152601660248201527f4661696c656420746f20526562616c616e6365204c50000000000000000000006044820152606401610237565b60a154609b54609e546040517f9a2ac6d50000000000000000000000000000000000000000000000000000000081526001600160a01b03928316600482015263ffffffff90911660248201526060604482015260006064820152911690639a2ac6d59085906084016000604051808303818588803b158015610bc957600080fd5b505af1158015610bdd573d6000803e3d6000fd5b5050505050610d93565b6040517f70a082310000000000000000000000000000000000000000000000000000000081523060048201526001600160a01b038316906370a082319060240160206040518083038186803b158015610c3f57600080fd5b505afa158015610c53573d6000803e3d6000fd5b505050506040513d601f19601f82011682018060405250810190610c779190613b64565b831115610cc65760405162461bcd60e51b815260206004820152601660248201527f4661696c656420746f20526562616c616e6365204c50000000000000000000006044820152606401610237565b60a154610ce0906001600160a01b03848116911685612fd5565b60a1546001820154609b54609e546040517f838b25200000000000000000000000000000000000000000000000000000000081526001600160a01b038781166004830152938416602482015291831660448301526064820187905263ffffffff16608482015260c060a4820152600060c482015291169063838b25209060e401600060405180830381600087803b158015610d7a57600080fd5b505af1158015610d8e573d6000803e3d6000fd5b505050505b604080518481526001600160a01b03841660208201527f40637a7e139eeb28b936b8decebe78604164b2ade81ce7f4c70deb132e7614c2910160405180910390a1505050565b60665460ff1615610e2c5760405162461bcd60e51b815260206004820152601060248201527f5061757361626c653a20706175736564000000000000000000000000000000006044820152606401610237565b6001600160a01b0380831660009081526098602090815260408083206099835281842033855290925290912060018201549192909116610eae5760405162461bcd60e51b815260206004820152601c60248201527f546f6b656e2041646472657373204e6f742052656769737465726564000000006044820152606401610237565b6000610ef0610ee58360010154610edf64e8d4a5100061075188600501548860000154612ef790919063ffffffff16565b90612ee4565b600284015490612f0f565b905085811015610f425760405162461bcd60e51b815260206004820152601560248201527f576974686472617720526577617264204572726f7200000000000000000000006044820152606401610237565b610f4c8187612ee4565b600283015560058301548254610f6c9164e8d4a510009161075191612ef7565b60018301556001600160a01b03851615610f9957610f946001600160a01b0386168588613146565b611042565b6000846001600160a01b0316609f5488604051600060405180830381858888f193505050503d8060008114610fea576040519150601f19603f3d011682016040523d82523d6000602084013e610fef565b606091505b50509050806110405760405162461bcd60e51b815260206004820152601460248201527f4661696c656420746f2073656e642045746865720000000000000000000000006044820152606401610237565b505b604080513381526001600160a01b0386811660208301528183018990528716606082015290517f3cb7cb475a33eda02ee6e719b6c2fc0c899157cfc6f098daf545354dbbce41ec9181900360800190a1505050505050565b609b546001600160a01b03166110b86001546001600160a01b031690565b6001600160a01b0316336001600160a01b03161461113e5760405162461bcd60e51b815260206004820152602a60248201527f58434841494e3a206d657373656e67657220636f6e747261637420756e61757460448201527f68656e74696361746564000000000000000000000000000000000000000000006064820152608401610237565b806001600160a01b031661115a6001546001600160a01b031690565b6001600160a01b0316636e296e456040518163ffffffff1660e01b815260040160206040518083038186803b15801561119257600080fd5b505afa1580156111a6573d6000803e3d6000fd5b505050506040513d601f19601f820116820180604052508101906111ca9190613b7d565b6001600160a01b0316146112465760405162461bcd60e51b815260206004820152602c60248201527f58434841494e3a2077726f6e672073656e646572206f662063726f73732d646f60448201527f6d61696e206d65737361676500000000000000000000000000000000000000006064820152608401610237565b60665460ff16156112995760405162461bcd60e51b815260206004820152601060248201527f5061757361626c653a20706175736564000000000000000000000000000000006044820152606401610237565b6001600160a01b0382166000908152609860205260408120906112bb8461271a565b905060006112cf6103e86107518885612ef7565b905060006112ee6103e8610751609d548a612ef790919063ffffffff16565b905060006112fc8383612f0f565b9050600061130a8983612ee4565b600487015490915061131c9085612f0f565b600487015560068601546113309084612f0f565b60068701556001600160a01b0388161561135d576113586001600160a01b0389168b83613146565b611406565b60008a6001600160a01b0316609f5483604051600060405180830381858888f193505050503d80600081146113ae576040519150601f19603f3d011682016040523d82523d6000602084013e6113b3565b606091505b50509050806114045760405162461bcd60e51b815260206004820152601460248201527f4661696c656420746f2073656e642045746865720000000000000000000000006044820152606401610237565b505b604080516001600160a01b038c811682526020820184905281830187905260608201869052608082018590528a1660a082015290517fe42a885e97ef72aed483b57141e41f9d64499b43411f58b60a0e07fcdb6e824a9181900360c00190a150505050505050505050565b60665460ff16156114c45760405162461bcd60e51b815260206004820152601060248201527f5061757361626c653a20706175736564000000000000000000000000000000006044820152606401610237565b6001600160a01b03808316600090815260986020908152604080832060998352818420338552909252909120600182015491929091166115465760405162461bcd60e51b815260206004820152601c60248201527f546f6b656e2041646472657373204e6f742052656769737465726564000000006044820152606401610237565b80548511156115975760405162461bcd60e51b815260206004820152600e60248201527f5769746864726177204572726f720000000000000000000000000000000000006044820152606401610237565b6115a0846106e2565b6115da6115cf8260010154610edf64e8d4a5100061075187600501548760000154612ef790919063ffffffff16565b600283015490612f0f565b600282015580546115eb9086612ee4565b80825560058301546116089164e8d4a51000916107519190612ef7565b6001820155600282015461161c9086612ee4565b60028301556001600160a01b03841615611649576116446001600160a01b0385168487613146565b6116f2565b6000836001600160a01b0316609f5487604051600060405180830381858888f193505050503d806000811461169a576040519150601f19603f3d011682016040523d82523d6000602084013e61169f565b606091505b50509050806116f05760405162461bcd60e51b815260206004820152601260248201527f4661696c656420746f2073656e642045544800000000000000000000000000006044820152606401610237565b505b604080513381526001600160a01b0385811660208301528183018890528616606082015290517ffa2e8fcf14fd6ea11b6ebe7caf7de210198b8fe1eaf0e06d19f8d87c73860c469181900360800190a15050505050565b609a546001600160a01b031633148061176b5750609a546001600160a01b0316155b6117b75760405162461bcd60e51b815260206004820152601760248201527f43616c6c6572206973206e6f7420746865206f776e65720000000000000000006044820152606401610237565b806001600160a01b0316826001600160a01b0316141561183f5760405162461bcd60e51b815260206004820152602860248201527f6c3120616e64206c3220746f6b656e206164647265737365732063616e6e6f7460448201527f2062652073616d650000000000000000000000000000000000000000000000006064820152608401610237565b6001600160a01b0380831660009081526098602052604090206001810154909116156118ad5760405162461bcd60e51b815260206004820181905260248201527f546f6b656e204164647265737320416c726561647920526567697374657265646044820152606401610237565b5060408051610100810182526001600160a01b0393841680825292841660208083019182526000838501818152606085018281526080860183815260a0870184815260c088018581524260e08a019081529a865260989096529790932095518654908a167fffffffffffffffffffffffff0000000000000000000000000000000000000000918216178755945160018701805491909a16951694909417909755955160028401559051600383015593516004820155905160058201559151600683015551600790910155565b609a546001600160a01b031633148061199b5750609a546001600160a01b0316155b6119e75760405162461bcd60e51b815260206004820152601760248201527f43616c6c6572206973206e6f7420746865206f776e65720000000000000000006044820152606401610237565b6001600160a01b0380831660009081526098602052604090206001810154909116611a545760405162461bcd60e51b815260206004820152601c60248201527f546f6b656e2041646472657373204e6f742052656769737465726564000000006044820152606401610237565b8381600601541015611aa85760405162461bcd60e51b815260206004820152601b60248201527f4f776e657220526577617264205769746864726177204572726f7200000000006044820152606401610237565b6006810154611ab79085612ee4565b60068201556001600160a01b03831615611ae457611adf6001600160a01b0384168386613146565b611b8d565b6000826001600160a01b0316609f5486604051600060405180830381858888f193505050503d8060008114611b35576040519150601f19603f3d011682016040523d82523d6000602084013e611b3a565b606091505b5050905080611b8b5760405162461bcd60e51b815260206004820152601460248201527f4661696c656420746f2073656e642045746865720000000000000000000000006044820152606401610237565b505b604080513381526001600160a01b03808516602083015291810186905290841660608201527f3cb71b9a1fb601579f96812b9f86ab5e914fc3e54c98d5f84d95581b2b9884f3906080015b60405180910390a150505050565b609a546001600160a01b0316331480611c085750609a546001600160a01b0316155b611c545760405162461bcd60e51b815260206004820152601760248201527f43616c6c6572206973206e6f7420746865206f776e65720000000000000000006044820152606401610237565b610915613194565b609b546001600160a01b0316611c7a6001546001600160a01b031690565b6001600160a01b0316336001600160a01b031614611d005760405162461bcd60e51b815260206004820152602a60248201527f58434841494e3a206d657373656e67657220636f6e747261637420756e61757460448201527f68656e74696361746564000000000000000000000000000000000000000000006064820152608401610237565b806001600160a01b0316611d1c6001546001600160a01b031690565b6001600160a01b0316636e296e456040518163ffffffff1660e01b815260040160206040518083038186803b158015611d5457600080fd5b505afa158015611d68573d6000803e3d6000fd5b505050506040513d601f19601f82011682018060405250810190611d8c9190613b7d565b6001600160a01b031614611e085760405162461bcd60e51b815260206004820152602c60248201527f58434841494e3a2077726f6e672073656e646572206f662063726f73732d646f60448201527f6d61696e206d65737361676500000000000000000000000000000000000000006064820152608401610237565b609b546001600160a01b0316611e865760405162461bcd60e51b815260206004820152602560248201527f436f6e747261637420686173206e6f7420796574206265656e20696e6974696160448201527f6c697a65640000000000000000000000000000000000000000000000000000006064820152608401610237565b82841115611ed65760405162461bcd60e51b815260206004820152601760248201527f496e76616c7564207573657220726577617264206665650000000000000000006044820152606401610237565b611eea848484609c9290925560a255609d55565b50505050565b600280541415611f425760405162461bcd60e51b815260206004820152601f60248201527f5265656e7472616e637947756172643a207265656e7472616e742063616c6c006044820152606401610237565b6002805560665460ff1615611f995760405162461bcd60e51b815260206004820152601060248201527f5061757361626c653a20706175736564000000000000000000000000000000006044820152606401610237565b34151580611faf57506001600160a01b03811615155b611ffb5760405162461bcd60e51b815260206004820152601060248201527f416d6f756e7420496e636f7272656374000000000000000000000000000000006044820152606401610237565b3415612008575034905060005b6001600160a01b038082166000908152609860209081526040808320609983528184203385529092529091206001820154919290911661208a5760405162461bcd60e51b815260206004820152601c60248201527f546f6b656e2041646472657373204e6f742052656769737465726564000000006044820152606401610237565b612093836106e2565b8054156120ff576120c96115cf8260010154610edf64e8d4a5100061075187600501548760000154612ef790919063ffffffff16565b6002820155600582015481546120f59164e8d4a510009161075191906120ef9089612f0f565b90612ef7565b6001820155612125565b61211f64e8d4a51000610751846005015487612ef790919063ffffffff16565b60018201555b6001600160a01b03831615612149576121496001600160a01b03841633308761323a565b80546121559085612f0f565b815560028201546121669085612f0f565b600283015560408051338152602081018690526001600160a01b0385168183015290517f5852d1d46e583f7e92c2a572221de0e681d82ef71f489847e056b9445c0147369181900360600190a1505060016002555050565b609b546001600160a01b03166121dc6001546001600160a01b031690565b6001600160a01b0316336001600160a01b0316146122625760405162461bcd60e51b815260206004820152602a60248201527f58434841494e3a206d657373656e67657220636f6e747261637420756e61757460448201527f68656e74696361746564000000000000000000000000000000000000000000006064820152608401610237565b806001600160a01b031661227e6001546001600160a01b031690565b6001600160a01b0316636e296e456040518163ffffffff1660e01b815260040160206040518083038186803b1580156122b657600080fd5b505afa1580156122ca573d6000803e3d6000fd5b505050506040513d601f19601f820116820180604052508101906122ee9190613b7d565b6001600160a01b03161461236a5760405162461bcd60e51b815260206004820152602c60248201527f58434841494e3a2077726f6e672073656e646572206f662063726f73732d646f60448201527f6d61696e206d65737361676500000000000000000000000000000000000000006064820152608401610237565b60665460ff16156123bd5760405162461bcd60e51b815260206004820152601060248201527f5061757361626c653a20706175736564000000000000000000000000000000006044820152606401610237565b6001600160a01b0382166000908152609860205260408120816123df8561271a565b905060006123f36103e86107518985612ef7565b905060006124126103e8610751609d548b612ef790919063ffffffff16565b905060006124208383612f0f565b9050600061242e8a83612ee4565b90506001600160a01b03891615612520576040517f70a082310000000000000000000000000000000000000000000000000000000081523060048201526001600160a01b038a16906370a082319060240160206040518083038186803b15801561249757600080fd5b505afa1580156124ab573d6000803e3d6000fd5b505050506040513d601f19601f820116820180604052508101906124cf9190613b64565b8111156124df5760019650612600565b60048601546124ee9085612f0f565b600487015560068601546125029084612f0f565b600687015561251b6001600160a01b038a168c83613146565b612600565b478111156125315760019650612600565b60048601546125409085612f0f565b600487015560068601546125549084612f0f565b6006870155609f546040516000916001600160a01b038e1691849084818181858888f193505050503d80600081146125a8576040519150601f19603f3d011682016040523d82523d6000602084013e6125ad565b606091505b50509050806125fe5760405162461bcd60e51b815260206004820152601260248201527f4661696c656420746f2073656e642045544800000000000000000000000000006044820152606401610237565b505b86156126ad576001860154604080516001600160a01b038e81166024830152604482018e90529283166064808301919091528251808303909101815260849091019091526020810180517bffffffffffffffffffffffffffffffffffffffffffffffffffffffff167f650a767b00000000000000000000000000000000000000000000000000000000179052609b54609e5491926126a79291169063ffffffff168361328b565b5061270d565b604080516001600160a01b038d811682526020820184905281830187905260608201869052608082018590528b1660a082015290517ffe1f8646fcb202e48551fbfd19085116c64b291c60cede7dce3665a57c05e3819181900360c00190a15b5050505050505050505050565b609b546000906001600160a01b031661279b5760405162461bcd60e51b815260206004820152602560248201527f436f6e747261637420686173206e6f7420796574206265656e20696e6974696160448201527f6c697a65640000000000000000000000000000000000000000000000000000006064820152608401610237565b6001600160a01b0382166000818152609860205260408120600281015490929091906127c857504761285b565b6040517f70a082310000000000000000000000000000000000000000000000000000000081523060048201526001600160a01b038616906370a082319060240160206040518083038186803b15801561282057600080fd5b505afa158015612834573d6000803e3d6000fd5b505050506040513d601f19601f820116820180604052508101906128589190613b64565b90505b8061286c57505060a2549392505050565b60008183609c5461287d9190613bc9565b6128879190613c06565b905080609c5411156128a0575050609c54949350505050565b8060a25410156128b757505060a254949350505050565b93506128c292505050565b919050565b609a546001600160a01b03163314806128e95750609a546001600160a01b0316155b6129355760405162461bcd60e51b815260206004820152601760248201527f43616c6c6572206973206e6f7420746865206f776e65720000000000000000006044820152606401610237565b609a80547fffffffffffffffffffffffff0000000000000000000000000000000000000000166001600160a01b0392909216919091179055565b60665460ff16156129c25760405162461bcd60e51b815260206004820152601060248201527f5061757361626c653a20706175736564000000000000000000000000000000006044820152606401610237565b341515806129d857506001600160a01b03811615155b612a245760405162461bcd60e51b815260206004820152601060248201527f416d6f756e7420496e636f7272656374000000000000000000000000000000006044820152606401610237565b3415612a31575034905060005b6001600160a01b0380821660009081526098602052604090206001810154909116612a9e5760405162461bcd60e51b815260206004820152601c60248201527f546f6b656e2041646472657373204e6f742052656769737465726564000000006044820152606401610237565b6001600160a01b03821615612ac257612ac26001600160a01b03831633308661323a565b600181015460408051336024820152604481018690526001600160a01b039283166064808301919091528251808303909101815260849091019091526020810180517bffffffffffffffffffffffffffffffffffffffffffffffffffffffff167fbd2d1cab00000000000000000000000000000000000000000000000000000000179052609b54609e549192612b619291169063ffffffff168361328b565b60408051338152602081018690526001600160a01b038516918101919091527f860e25c3d48fb81f0b272550dd125a5a6ab20ee7511dd3e250d04964bd37a7a990606001611bd8565b609a546001600160a01b0316331480612bcc5750609a546001600160a01b0316155b612c185760405162461bcd60e51b815260206004820152601760248201527f43616c6c6572206973206e6f7420746865206f776e65720000000000000000006044820152606401610237565b609b546001600160a01b031615612c715760405162461bcd60e51b815260206004820152601d60248201527f436f6e747261637420686173206265656e20696e697469616c697a65640000006044820152606401610237565b6001547501000000000000000000000000000000000000000000900460ff1680612cb6575060015474010000000000000000000000000000000000000000900460ff16155b612d285760405162461bcd60e51b815260206004820152602e60248201527f496e697469616c697a61626c653a20636f6e747261637420697320616c72656160448201527f647920696e697469616c697a65640000000000000000000000000000000000006064820152608401610237565b6001547501000000000000000000000000000000000000000000900460ff16158015612d8f57600180547fffffffffffffffffffff0000ffffffffffffffffffffffffffffffffffffffff1675010100000000000000000000000000000000000000001790555b6001600160a01b03851615801590612daf57506001600160a01b03841615155b8015612dc357506001600160a01b03831615155b612e0f5760405162461bcd60e51b815260206004820152601860248201527f7a65726f2061646472657373206e6f7420616c6c6f77656400000000000000006044820152606401610237565b600080546001600160a01b038781167fffffffffffffffffffffffff000000000000000000000000000000000000000092831617835560018054888316908416179055609b805487831690841617905560a18054918616918316919091179055609a8054909116331790556005609c55603260a255609d55612e9662155cc06108fc610778565b612e9e61330f565b612ea661345f565b612eae6135d6565b8015612edd57600180547fffffffffffffffffffff00ffffffffffffffffffffffffffffffffffffffffff1690555b5050505050565b6000612ef08284613c41565b9392505050565b6000612ef08284613bc9565b6000612ef08284613c06565b6000612ef08284613c58565b60665460ff16612f6d5760405162461bcd60e51b815260206004820152601460248201527f5061757361626c653a206e6f74207061757365640000000000000000000000006044820152606401610237565b606680547fffffffffffffffffffffffffffffffffffffffffffffffffffffffffffffff001690557f5db9ee0a495bf2e6ff9c91a7834c1ba4fdd244a5e8aa4e537bd38aeae4b073aa335b6040516001600160a01b03909116815260200160405180910390a1565b6040517fdd62ed3e0000000000000000000000000000000000000000000000000000000081523060048201526001600160a01b038381166024830152600091839186169063dd62ed3e9060440160206040518083038186803b15801561303a57600080fd5b505afa15801561304e573d6000803e3d6000fd5b505050506040513d601f19601f820116820180604052508101906130729190613b64565b61307c9190613c58565b6040516001600160a01b038516602482015260448101829052909150611eea9085907f095ea7b300000000000000000000000000000000000000000000000000000000906064015b604080517fffffffffffffffffffffffffffffffffffffffffffffffffffffffffffffffe08184030181529190526020810180517bffffffffffffffffffffffffffffffffffffffffffffffffffffffff167fffffffff000000000000000000000000000000000000000000000000000000009093169290921790915261372a565b6040516001600160a01b03831660248201526044810182905261318f9084907fa9059cbb00000000000000000000000000000000000000000000000000000000906064016130c4565b505050565b60665460ff16156131e75760405162461bcd60e51b815260206004820152601060248201527f5061757361626c653a20706175736564000000000000000000000000000000006044820152606401610237565b606680547fffffffffffffffffffffffffffffffffffffffffffffffffffffffffffffff001660011790557f62e78cea01bee320cd4e420270b5ea74000d11b0c9f74754ebdbfc544b05a258612fb83390565b6040516001600160a01b0380851660248301528316604482015260648101829052611eea9085907f23b872dd00000000000000000000000000000000000000000000000000000000906084016130c4565b6000546040517f3dbb202b0000000000000000000000000000000000000000000000000000000081526001600160a01b0390911690633dbb202b906132d890869085908790600401613ce6565b600060405180830381600087803b1580156132f257600080fd5b505af1158015613306573d6000803e3d6000fd5b50505050505050565b6001547501000000000000000000000000000000000000000000900460ff1680613354575060015474010000000000000000000000000000000000000000900460ff16155b6133c65760405162461bcd60e51b815260206004820152602e60248201527f496e697469616c697a61626c653a20636f6e747261637420697320616c72656160448201527f647920696e697469616c697a65640000000000000000000000000000000000006064820152608401610237565b6001547501000000000000000000000000000000000000000000900460ff1615801561342d57600180547fffffffffffffffffffff0000ffffffffffffffffffffffffffffffffffffffff1675010100000000000000000000000000000000000000001790555b801561345c57600180547fffffffffffffffffffff00ffffffffffffffffffffffffffffffffffffffffff1690555b50565b6001547501000000000000000000000000000000000000000000900460ff16806134a4575060015474010000000000000000000000000000000000000000900460ff16155b6135165760405162461bcd60e51b815260206004820152602e60248201527f496e697469616c697a61626c653a20636f6e747261637420697320616c72656160448201527f647920696e697469616c697a65640000000000000000000000000000000000006064820152608401610237565b6001547501000000000000000000000000000000000000000000900460ff1615801561357d57600180547fffffffffffffffffffff0000ffffffffffffffffffffffffffffffffffffffff1675010100000000000000000000000000000000000000001790555b606680547fffffffffffffffffffffffffffffffffffffffffffffffffffffffffffffff00169055801561345c57600180547fffffffffffffffffffff00ffffffffffffffffffffffffffffffffffffffffff16905550565b6001547501000000000000000000000000000000000000000000900460ff168061361b575060015474010000000000000000000000000000000000000000900460ff16155b61368d5760405162461bcd60e51b815260206004820152602e60248201527f496e697469616c697a61626c653a20636f6e747261637420697320616c72656160448201527f647920696e697469616c697a65640000000000000000000000000000000000006064820152608401610237565b6001547501000000000000000000000000000000000000000000900460ff161580156136f457600180547fffffffffffffffffffff0000ffffffffffffffffffffffffffffffffffffffff1675010100000000000000000000000000000000000000001790555b6001600255801561345c57600180547fffffffffffffffffffff00ffffffffffffffffffffffffffffffffffffffffff16905550565b600061377f826040518060400160405280602081526020017f5361666545524332303a206c6f772d6c6576656c2063616c6c206661696c6564815250856001600160a01b031661380f9092919063ffffffff16565b80519091501561318f578080602001905181019061379d9190613d1e565b61318f5760405162461bcd60e51b815260206004820152602a60248201527f5361666545524332303a204552433230206f7065726174696f6e20646964206e60448201527f6f742073756363656564000000000000000000000000000000000000000000006064820152608401610237565b606061381e8484600085613826565b949350505050565b60608247101561389e5760405162461bcd60e51b815260206004820152602660248201527f416464726573733a20696e73756666696369656e742062616c616e636520666f60448201527f722063616c6c00000000000000000000000000000000000000000000000000006064820152608401610237565b843b6138ec5760405162461bcd60e51b815260206004820152601d60248201527f416464726573733a2063616c6c20746f206e6f6e2d636f6e74726163740000006044820152606401610237565b600080866001600160a01b031685876040516139089190613d40565b60006040518083038185875af1925050503d8060008114613945576040519150601f19603f3d011682016040523d82523d6000602084013e61394a565b606091505b509150915061395a828286613965565b979650505050505050565b60608315613974575081612ef0565b8251156139845782518084602001fd5b8160405162461bcd60e51b81526004016102379190613d5c565b6001600160a01b038116811461345c57600080fd5b600080604083850312156139c657600080fd5b82356139d18161399e565b915060208301356139e18161399e565b809150509250929050565b6000602082840312156139fe57600080fd5b8135612ef08161399e565b60008060408385031215613a1c57600080fd5b823563ffffffff81168114613a3057600080fd5b946020939093013593505050565b60008060408385031215613a5157600080fd5b8235915060208301356139e18161399e565b600080600060608486031215613a7857600080fd5b833592506020840135613a8a8161399e565b91506040840135613a9a8161399e565b809150509250925092565b600080600060608486031215613aba57600080fd5b8335613ac58161399e565b9250602084013591506040840135613a9a8161399e565b600080600060608486031215613af157600080fd5b505081359360208301359350604090920135919050565b60008060008060808587031215613b1e57600080fd5b8435613b298161399e565b93506020850135613b398161399e565b92506040850135613b498161399e565b91506060850135613b598161399e565b939692955090935050565b600060208284031215613b7657600080fd5b5051919050565b600060208284031215613b8f57600080fd5b8151612ef08161399e565b7f4e487b7100000000000000000000000000000000000000000000000000000000600052601160045260246000fd5b6000817fffffffffffffffffffffffffffffffffffffffffffffffffffffffffffffffff0483118215151615613c0157613c01613b9a565b500290565b600082613c3c577f4e487b7100000000000000000000000000000000000000000000000000000000600052601260045260246000fd5b500490565b600082821015613c5357613c53613b9a565b500390565b60008219821115613c6b57613c6b613b9a565b500190565b60005b83811015613c8b578181015183820152602001613c73565b83811115611eea5750506000910152565b60008151808452613cb4816020860160208601613c70565b601f017fffffffffffffffffffffffffffffffffffffffffffffffffffffffffffffffe0169290920160200192915050565b6001600160a01b0384168152606060208201526000613d086060830185613c9c565b905063ffffffff83166040830152949350505050565b600060208284031215613d3057600080fd5b81518015158114612ef057600080fd5b60008251613d52818460208701613c70565b9190910192915050565b602081526000612ef06020830184613c9c56fea164736f6c6343000809000a",
  "linkReferences": {},
  "deployedLinkReferences": {}
}