{
  "_format": "hh-sol-artifact-1",
  "contractName": "SendETHAwayAndDelegateCall",
  "sourceName": "contracts/ValueCalls.sol",
  "abi": [
    {
      "inputs": [
        {
          "internalType": "address",
          "name": "_delegateTo",
          "type": "address"
        },
        {
          "internalType": "bytes",
          "name": "_data",
          "type": "bytes"
        }
      ],
      "name": "emptySelfAndDelegateCall",
      "outputs": [
        {
          "internalType": "bool",
          "name": "",
          "type": "bool"
        },
        {
          "internalType": "bytes",
          "name": "",
          "type": "bytes"
        }
      ],
      "stateMutability": "payable",
      "type": "function"
    }
  ],
  "bytecode": "0x608060405234801561001057600080fd5b5061030b806100206000396000f3fe60806040526004361061001e5760003560e01c8063e3dedfe714610023575b600080fd5b61003661003136600461015d565b61004d565b604051610044929190610288565b60405180910390f35b60006060600073ffffffffffffffffffffffffffffffffffffffff16478460405161007891906102e2565b60006040518083038185875af1925050503d80600081146100b5576040519150601f19603f3d011682016040523d82523d6000602084013e6100ba565b606091505b5050508373ffffffffffffffffffffffffffffffffffffffff16836040516100e291906102e2565b600060405180830381855af49150503d806000811461011d576040519150601f19603f3d011682016040523d82523d6000602084013e610122565b606091505b50915091509250929050565b7f4e487b7100000000000000000000000000000000000000000000000000000000600052604160045260246000fd5b6000806040838503121561017057600080fd5b823573ffffffffffffffffffffffffffffffffffffffff8116811461019457600080fd5b9150602083013567ffffffffffffffff808211156101b157600080fd5b818501915085601f8301126101c557600080fd5b8135818111156101d7576101d761012e565b604051601f82017fffffffffffffffffffffffffffffffffffffffffffffffffffffffffffffffe0908116603f0116810190838211818310171561021d5761021d61012e565b8160405282815288602084870101111561023657600080fd5b8260208601602083013760006020848301015280955050505050509250929050565b60005b8381101561027357818101518382015260200161025b565b83811115610282576000848401525b50505050565b821515815260406020820152600082518060408401526102af816060850160208701610258565b601f017fffffffffffffffffffffffffffffffffffffffffffffffffffffffffffffffe016919091016060019392505050565b600082516102f4818460208701610258565b919091019291505056fea164736f6c6343000809000a",
  "linkReferences": {},
  "deployedLinkReferences": {}
}