{
  "_format": "hh-sol-artifact-1",
  "contractName": "ValueCalls",
  "sourceName": "contracts/ValueCalls.sol",
  "abi": [
    {
      "inputs": [
        {
          "internalType": "address",
          "name": "_valueContext",
          "type": "address"
        }
      ],
      "name": "delegateCallToAddressThisBalance",
      "outputs": [
        {
          "internalType": "bool",
          "name": "",
          "type": "bool"
        },
        {
          "internalType": "bytes",
          "name": "",
          "type": "bytes"
        }
      ],
      "stateMutability": "payable",
      "type": "function"
    },
    {
      "inputs": [
        {
          "internalType": "address",
          "name": "_valueContext",
          "type": "address"
        }
      ],
      "name": "delegateCallToCallValue",
      "outputs": [
        {
          "internalType": "bool",
          "name": "",
          "type": "bool"
        },
        {
          "internalType": "bytes",
          "name": "",
          "type": "bytes"
        }
      ],
      "stateMutability": "payable",
      "type": "function"
    },
    {
      "inputs": [],
      "name": "getAddressThisBalance",
      "outputs": [
        {
          "internalType": "uint256",
          "name": "",
          "type": "uint256"
        }
      ],
      "stateMutability": "view",
      "type": "function"
    },
    {
      "inputs": [
        {
          "internalType": "address",
          "name": "_address",
          "type": "address"
        }
      ],
      "name": "getBalance",
      "outputs": [
        {
          "internalType": "uint256",
          "name": "",
          "type": "uint256"
        }
      ],
      "stateMutability": "payable",
      "type": "function"
    },
    {
      "inputs": [],
      "name": "getCallValue",
      "outputs": [
        {
          "internalType": "uint256",
          "name": "",
          "type": "uint256"
        }
      ],
      "stateMutability": "payable",
      "type": "function"
    },
    {
      "inputs": [],
      "name": "getSelfBalance",
      "outputs": [
        {
          "internalType": "uint256",
          "name": "",
          "type": "uint256"
        }
      ],
      "stateMutability": "payable",
      "type": "function"
    },
    {
      "inputs": [],
      "name": "nonPayable",
      "outputs": [],
      "stateMutability": "nonpayable",
      "type": "function"
    },
    {
      "inputs": [
        {
          "internalType": "address",
          "name": "_address",
          "type": "address"
        },
        {
          "internalType": "uint256",
          "name": "_value",
          "type": "uint256"
        },
        {
          "internalType": "bytes",
          "name": "_calldata",
          "type": "bytes"
        }
      ],
      "name": "sendWithData",
      "outputs": [
        {
          "internalType": "bool",
          "name": "",
          "type": "bool"
        },
        {
          "internalType": "bytes",
          "name": "",
          "type": "bytes"
        }
      ],
      "stateMutability": "nonpayable",
      "type": "function"
    },
    {
      "inputs": [
        {
          "internalType": "address",
          "name": "_address",
          "type": "address"
        },
        {
          "internalType": "uint256",
          "name": "_value",
          "type": "uint256"
        },
        {
          "internalType": "uint256",
          "name": "_gasLimit",
          "type": "uint256"
        },
        {
          "internalType": "bytes",
          "name": "_calldata",
          "type": "bytes"
        }
      ],
      "name": "sendWithDataAndGas",
      "outputs": [
        {
          "internalType": "bool",
          "name": "",
          "type": "bool"
        },
        {
          "internalType": "bytes",
          "name": "",
          "type": "bytes"
        }
      ],
      "stateMutability": "nonpayable",
      "type": "function"
    },
    {
      "inputs": [
        {
          "internalType": "address",
          "name": "_address",
          "type": "address"
        },
        {
          "internalType": "uint256",
          "name": "_value",
          "type": "uint256"
        }
      ],
      "name": "simpleSend",
      "outputs": [
        {
          "internalType": "bool",
          "name": "",
          "type": "bool"
        },
        {
          "internalType": "bytes",
          "name": "",
          "type": "bytes"
        }
      ],
      "stateMutability": "payable",
      "type": "function"
    },
    {
      "inputs": [
        {
          "internalType": "uint256",
          "name": "_expectedValue",
          "type": "uint256"
        }
      ],
      "name": "verifyCallValueAndReturn",
      "outputs": [],
      "stateMutability": "payable",
      "type": "function"
    },
    {
      "inputs": [
        {
          "internalType": "uint256",
          "name": "_expectedValue",
          "type": "uint256"
        }
      ],
      "name": "verifyCallValueAndRevert",
      "outputs": [],
      "stateMutability": "payable",
      "type": "function"
    },
    {
      "stateMutability": "payable",
      "type": "receive"
    }
  ],
  "bytecode": "0x608060405234801561001057600080fd5b5061080d806100206000396000f3fe6080604052600436106100cb5760003560e01c80638478281f11610074578063cd6ea1161161004e578063cd6ea1161461019d578063dfbff5bb146101b0578063f8b2cb4f146101c357600080fd5b80638478281f14610171578063c328c84f14610184578063c6c01dd21461019757600080fd5b80632a52e177116100a55780632a52e1771461012f57806352da86d514610142578063653a193c1461015157600080fd5b8063048a5fed146100d7578063195dbe77146100ec57806319765a421461011a57600080fd5b366100d257005b600080fd5b475b6040519081526020015b60405180910390f35b3480156100f857600080fd5b5061010c61010736600461063d565b6101eb565b6040516100e39291906106ce565b61012d610128366004610728565b610268565b005b61010c61013d366004610741565b6102e0565b34801561014e57600080fd5b50005b34801561015d57600080fd5b5061010c61016c36600461076b565b610309565b61012d61017f366004610728565b610382565b34801561019057600080fd5b50476100d9565b346100d9565b61010c6101ab3660046107c2565b6103ed565b61010c6101be3660046107c2565b6104b9565b6100d96101d13660046107c2565b73ffffffffffffffffffffffffffffffffffffffff163190565b600060608573ffffffffffffffffffffffffffffffffffffffff168585908560405161021791906107e4565b600060405180830381858888f193505050503d8060008114610255576040519150601f19603f3d011682016040523d82523d6000602084013e61025a565b606091505b509150915094509492505050565b3481148015610275575050565b6040517f08c379a000000000000000000000000000000000000000000000000000000000815260206004820152601160248201527f756e65787065637465642072657665727400000000000000000000000000000060448201526064015b60405180910390fd5b5050565b600060606102fe848460405180602001604052806000815250610309565b915091509250929050565b600060608473ffffffffffffffffffffffffffffffffffffffff16848460405161033391906107e4565b60006040518083038185875af1925050503d8060008114610370576040519150601f19603f3d011682016040523d82523d6000602084013e610375565b606091505b5091509150935093915050565b34811480156102dc576040517f08c379a000000000000000000000000000000000000000000000000000000000815260206004820152600f60248201527f657870656374656420726576657274000000000000000000000000000000000060448201526064016102d3565b60408051600481526024810182526020810180517bffffffffffffffffffffffffffffffffffffffffffffffffffffffff167fc328c84f00000000000000000000000000000000000000000000000000000000179052905160009160609173ffffffffffffffffffffffffffffffffffffffff85169061046e9083906107e4565b600060405180830381855af49150503d80600081146104a9576040519150601f19603f3d011682016040523d82523d6000602084013e6104ae565b606091505b509250925050915091565b60408051600481526024810182526020810180517bffffffffffffffffffffffffffffffffffffffffffffffffffffffff167fc6c01dd200000000000000000000000000000000000000000000000000000000179052905160009160609173ffffffffffffffffffffffffffffffffffffffff85169061046e9083906107e4565b803573ffffffffffffffffffffffffffffffffffffffff8116811461055e57600080fd5b919050565b7f4e487b7100000000000000000000000000000000000000000000000000000000600052604160045260246000fd5b600082601f8301126105a357600080fd5b813567ffffffffffffffff808211156105be576105be610563565b604051601f83017fffffffffffffffffffffffffffffffffffffffffffffffffffffffffffffffe0908116603f0116810190828211818310171561060457610604610563565b8160405283815286602085880101111561061d57600080fd5b836020870160208301376000602085830101528094505050505092915050565b6000806000806080858703121561065357600080fd5b61065c8561053a565b93506020850135925060408501359150606085013567ffffffffffffffff81111561068657600080fd5b61069287828801610592565b91505092959194509250565b60005b838110156106b95781810151838201526020016106a1565b838111156106c8576000848401525b50505050565b821515815260406020820152600082518060408401526106f581606085016020870161069e565b601f017fffffffffffffffffffffffffffffffffffffffffffffffffffffffffffffffe016919091016060019392505050565b60006020828403121561073a57600080fd5b5035919050565b6000806040838503121561075457600080fd5b61075d8361053a565b946020939093013593505050565b60008060006060848603121561078057600080fd5b6107898461053a565b925060208401359150604084013567ffffffffffffffff8111156107ac57600080fd5b6107b886828701610592565b9150509250925092565b6000602082840312156107d457600080fd5b6107dd8261053a565b9392505050565b600082516107f681846020870161069e565b919091019291505056fea164736f6c6343000809000a",
  "linkReferences": {},
  "deployedLinkReferences": {}
}