{
  "_format": "hh-sol-artifact-1",
  "contractName": "ValueGasMeasurer",
  "sourceName": "contracts/ValueCalls.sol",
  "abi": [
    {
      "inputs": [
        {
          "internalType": "address",
          "name": "target",
          "type": "address"
        },
        {
          "internalType": "uint256",
          "name": "value",
          "type": "uint256"
        },
        {
          "internalType": "uint256",
          "name": "gasLimit",
          "type": "uint256"
        }
      ],
      "name": "measureGasOfTransferingEthViaCall",
      "outputs": [
        {
          "internalType": "uint256",
          "name": "",
          "type": "uint256"
        }
      ],
      "stateMutability": "nonpayable",
      "type": "function"
    }
  ],
  "bytecode": "0x608060405234801561001057600080fd5b50610107806100206000396000f3fe6080604052348015600f57600080fd5b506004361060285760003560e01c80637dec683214602d575b600080fd5b603c60383660046071565b604e565b60405190815260200160405180910390f35b6000805a9050600080600080878988f1505a6068908260bd565b95945050505050565b600080600060608486031215608557600080fd5b833573ffffffffffffffffffffffffffffffffffffffff8116811460a857600080fd5b95602085013595506040909401359392505050565b60008282101560f5577f4e487b7100000000000000000000000000000000000000000000000000000000600052601160045260246000fd5b50039056fea164736f6c6343000809000a",
  "linkReferences": {},
  "deployedLinkReferences": {}
}