{
  "_format": "hh-sol-artifact-1",
  "contractName": "OVMMulticall",
  "sourceName": "contracts/OVMMulticall.sol",
  "abi": [
    {
      "inputs": [
        {
          "components": [
            {
              "internalType": "address",
              "name": "target",
              "type": "address"
            },
            {
              "internalType": "bytes",
              "name": "callData",
              "type": "bytes"
            }
          ],
          "internalType": "struct OVMMulticall.Call[]",
          "name": "calls",
          "type": "tuple[]"
        }
      ],
      "name": "aggregate",
      "outputs": [
        {
          "internalType": "uint256",
          "name": "blockNumber",
          "type": "uint256"
        },
        {
          "internalType": "bytes[]",
          "name": "returnData",
          "type": "bytes[]"
        }
      ],
      "stateMutability": "nonpayable",
      "type": "function"
    },
    {
      "inputs": [],
      "name": "getChainID",
      "outputs": [
        {
          "internalType": "uint256",
          "name": "",
          "type": "uint256"
        }
      ],
      "stateMutability": "view",
      "type": "function"
    },
    {
      "inputs": [],
      "name": "getCurrentBlockNumber",
      "outputs": [
        {
          "internalType": "uint256",
          "name": "",
          "type": "uint256"
        }
      ],
      "stateMutability": "view",
      "type": "function"
    },
    {
      "inputs": [],
      "name": "getCurrentBlockTimestamp",
      "outputs": [
        {
          "internalType": "uint256",
          "name": "timestamp",
          "type": "uint256"
        }
      ],
      "stateMutability": "view",
      "type": "function"
    },
    {
      "inputs": [],
      "name": "getCurrentL1BlockNumber",
      "outputs": [
        {
          "internalType": "uint256",
          "name": "",
          "type": "uint256"
        }
      ],
      "stateMutability": "view",
      "type": "function"
    }
  ],
  "bytecode": "0x608060405234801561001057600080fd5b5061069a806100206000396000f3fe608060405234801561001057600080fd5b50600436106100675760003560e01c8063564b81ef11610050578063564b81ef146100a25780636fd902e1146100a8578063a220db71146100ae57600080fd5b80630f28c97d1461006c578063252dba4214610081575b600080fd5b425b6040519081526020015b60405180910390f35b61009461008f366004610343565b6100b6565b60405161007892919061050b565b4661006e565b4361006e565b61006e610203565b8051439060609067ffffffffffffffff8111156100d5576100d561029c565b60405190808252806020026020018201604052801561010857816020015b60608152602001906001900390816100f35790505b50905060005b83518110156101fd5760008085838151811061012c5761012c6105c9565b60200260200101516000015173ffffffffffffffffffffffffffffffffffffffff16868481518110610160576101606105c9565b60200260200101516020015160405161017991906105f8565b6000604051808303816000865af19150503d80600081146101b6576040519150601f19603f3d011682016040523d82523d6000602084013e6101bb565b606091505b5091509150816101ca57600080fd5b808484815181106101dd576101dd6105c9565b6020026020010181905250505080806101f590610614565b91505061010e565b50915091565b600073420000000000000000000000000000000000001373ffffffffffffffffffffffffffffffffffffffff1663b9b3efe96040518163ffffffff1660e01b815260040160206040518083038186803b15801561025f57600080fd5b505afa158015610273573d6000803e3d6000fd5b505050506040513d601f19601f820116820180604052508101906102979190610674565b905090565b7f4e487b7100000000000000000000000000000000000000000000000000000000600052604160045260246000fd5b6040805190810167ffffffffffffffff811182821017156102ee576102ee61029c565b60405290565b604051601f82017fffffffffffffffffffffffffffffffffffffffffffffffffffffffffffffffe016810167ffffffffffffffff8111828210171561033b5761033b61029c565b604052919050565b6000602080838503121561035657600080fd5b823567ffffffffffffffff8082111561036e57600080fd5b818501915085601f83011261038257600080fd5b8135818111156103945761039461029c565b8060051b6103a38582016102f4565b91825283810185019185810190898411156103bd57600080fd5b86860192505b838310156104ce578235858111156103db5760008081fd5b860160407fffffffffffffffffffffffffffffffffffffffffffffffffffffffffffffffe0828d0381018213156104125760008081fd5b61041a6102cb565b8a84013573ffffffffffffffffffffffffffffffffffffffff811681146104415760008081fd5b815283830135898111156104555760008081fd5b8085019450508d603f85011261046b5760008081fd5b8a8401358981111561047f5761047f61029c565b61048f8c84601f840116016102f4565b92508083528e848287010111156104a65760008081fd5b808486018d85013760009083018c0152808b01919091528452505091860191908601906103c3565b9998505050505050505050565b60005b838110156104f65781810151838201526020016104de565b83811115610505576000848401525b50505050565b600060408201848352602060408185015281855180845260608601915060608160051b870101935082870160005b828110156105bb577fffffffffffffffffffffffffffffffffffffffffffffffffffffffffffffffa08887030184528151805180885261057e81888a018985016104db565b601f017fffffffffffffffffffffffffffffffffffffffffffffffffffffffffffffffe01696909601850195509284019290840190600101610539565b509398975050505050505050565b7f4e487b7100000000000000000000000000000000000000000000000000000000600052603260045260246000fd5b6000825161060a8184602087016104db565b9190910192915050565b60007fffffffffffffffffffffffffffffffffffffffffffffffffffffffffffffffff82141561066d577f4e487b7100000000000000000000000000000000000000000000000000000000600052601160045260246000fd5b5060010190565b60006020828403121561068657600080fd5b505191905056fea164736f6c6343000809000a",
  "linkReferences": {},
  "deployedLinkReferences": {}
}