{
  "_format": "hh-sol-artifact-1",
  "contractName": "StableSwap",
  "sourceName": "contracts/StableSwap.sol",
  "abi": [
    {
      "inputs": [
        {
          "internalType": "address",
          "name": "_helper",
          "type": "address"
        },
        {
          "internalType": "uint256",
          "name": "_x",
          "type": "uint256"
        },
        {
          "internalType": "uint256",
          "name": "_y",
          "type": "uint256"
        }
      ],
      "stateMutability": "nonpayable",
      "type": "constructor"
    },
    {
      "anonymous": false,
      "inputs": [
        {
          "indexed": false,
          "internalType": "bytes",
          "name": "response",
          "type": "bytes"
        }
      ],
      "name": "Debug",
      "type": "event"
    },
    {
      "anonymous": false,
      "inputs": [
        {
          "indexed": false,
          "internalType": "uint256",
          "name": "x_in",
          "type": "uint256"
        },
        {
          "indexed": false,
          "internalType": "uint256",
          "name": "y_out",
          "type": "uint256"
        }
      ],
      "name": "SwapX",
      "type": "event"
    },
    {
      "anonymous": false,
      "inputs": [
        {
          "indexed": false,
          "internalType": "uint256",
          "name": "y_in",
          "type": "uint256"
        },
        {
          "indexed": false,
          "internalType": "uint256",
          "name": "x_out",
          "type": "uint256"
        }
      ],
      "name": "SwapY",
      "type": "event"
    },
    {
      "inputs": [],
      "name": "A",
      "outputs": [
        {
          "internalType": "uint256",
          "name": "",
          "type": "uint256"
        }
      ],
      "stateMutability": "view",
      "type": "function"
    },
    {
      "inputs": [
        {
          "internalType": "uint256",
          "name": "_x",
          "type": "uint256"
        },
        {
          "internalType": "uint256",
          "name": "_y",
          "type": "uint256"
        }
      ],
      "name": "addLiquidity",
      "outputs": [],
      "stateMutability": "nonpayable",
      "type": "function"
    },
    {
      "inputs": [
        {
          "internalType": "uint256",
          "name": "_A",
          "type": "uint256"
        }
      ],
      "name": "changeA",
      "outputs": [],
      "stateMutability": "nonpayable",
      "type": "function"
    },
    {
      "inputs": [],
      "name": "helperAddr",
      "outputs": [
        {
          "internalType": "address",
          "name": "",
          "type": "address"
        }
      ],
      "stateMutability": "view",
      "type": "function"
    },
    {
      "inputs": [],
      "name": "invariant",
      "outputs": [
        {
          "internalType": "bool",
          "name": "pass",
          "type": "bool"
        }
      ],
      "stateMutability": "nonpayable",
      "type": "function"
    },
    {
      "inputs": [
        {
          "internalType": "uint256",
          "name": "_x",
          "type": "uint256"
        },
        {
          "internalType": "uint256",
          "name": "_y",
          "type": "uint256"
        }
      ],
      "name": "invariant",
      "outputs": [
        {
          "internalType": "bool",
          "name": "pass",
          "type": "bool"
        }
      ],
      "stateMutability": "nonpayable",
      "type": "function"
    },
    {
      "inputs": [],
      "name": "k",
      "outputs": [
        {
          "internalType": "uint256",
          "name": "",
          "type": "uint256"
        }
      ],
      "stateMutability": "view",
      "type": "function"
    },
    {
      "inputs": [
        {
          "internalType": "int256",
          "name": "base",
          "type": "int256"
        },
        {
          "internalType": "int256",
          "name": "exponent",
          "type": "int256"
        }
      ],
      "name": "pow",
      "outputs": [
        {
          "internalType": "int256",
          "name": "",
          "type": "int256"
        }
      ],
      "stateMutability": "pure",
      "type": "function"
    },
    {
      "inputs": [
        {
          "internalType": "uint256",
          "name": "percOut",
          "type": "uint256"
        }
      ],
      "name": "removeLiquidity",
      "outputs": [
        {
          "internalType": "uint256",
          "name": "x_back",
          "type": "uint256"
        },
        {
          "internalType": "uint256",
          "name": "y_back",
          "type": "uint256"
        }
      ],
      "stateMutability": "nonpayable",
      "type": "function"
    },
    {
      "inputs": [
        {
          "internalType": "uint256",
          "name": "_x",
          "type": "uint256"
        },
        {
          "internalType": "uint256",
          "name": "_y",
          "type": "uint256"
        }
      ],
      "name": "setTo",
      "outputs": [],
      "stateMutability": "nonpayable",
      "type": "function"
    },
    {
      "inputs": [
        {
          "internalType": "uint256",
          "name": "a",
          "type": "uint256"
        }
      ],
      "name": "sqrt",
      "outputs": [
        {
          "internalType": "uint256",
          "name": "b",
          "type": "uint256"
        }
      ],
      "stateMutability": "nonpayable",
      "type": "function"
    },
    {
      "inputs": [
        {
          "internalType": "string",
          "name": "_url",
          "type": "string"
        },
        {
          "internalType": "uint256",
          "name": "x_in",
          "type": "uint256"
        }
      ],
      "name": "swap_x",
      "outputs": [
        {
          "internalType": "uint256",
          "name": "y_out",
          "type": "uint256"
        }
      ],
      "stateMutability": "nonpayable",
      "type": "function"
    },
    {
      "inputs": [
        {
          "internalType": "uint256",
          "name": "y_in",
          "type": "uint256"
        }
      ],
      "name": "swap_y",
      "outputs": [
        {
          "internalType": "uint256",
          "name": "x_out",
          "type": "uint256"
        }
      ],
      "stateMutability": "nonpayable",
      "type": "function"
    },
    {
      "inputs": [],
      "name": "x",
      "outputs": [
        {
          "internalType": "uint256",
          "name": "",
          "type": "uint256"
        }
      ],
      "stateMutability": "view",
      "type": "function"
    },
    {
      "inputs": [],
      "name": "y",
      "outputs": [
        {
          "internalType": "uint256",
          "name": "",
          "type": "uint256"
        }
      ],
      "stateMutability": "view",
      "type": "function"
    }
  ],
  "bytecode": "0x60806040523480156200001157600080fd5b5060405162001334380380620013348339810160408190526200003491620000f6565b600480546001600160a01b0385166001600160a01b0319918216811790925560058054909116909117905581158015906200006f5750600081115b620000ae5760405162461bcd60e51b815260206004820152600b60248201526a078206f72207920213e20360ac1b604482015260640160405180910390fd5b60008290556001819055620000d08282620000e1602090811b62000b0c17901c565b600255505060006003555062000169565b6000620000ef82846200013b565b9392505050565b6000806000606084860312156200010c57600080fd5b83516001600160a01b03811681146200012457600080fd5b602085015160409095015190969495509392505050565b60008160001904831182151516156200016457634e487b7160e01b600052601160045260246000fd5b500290565b6111bb80620001796000396000f3fe608060405234801561001057600080fd5b50600436106100f55760003560e01c80639cd441da11610097578063b4f40c6111610066578063b4f40c6114610218578063dec452dd14610221578063f446c1d014610234578063fcbfcc711461023d57600080fd5b80639cd441da146101d1578063a56dfe4a146101e4578063adde7b8b146101ed578063b03a9a051461020057600080fd5b8063677342ce116100d3578063677342ce1461017057806392b0c5b21461018357806394e6c7cb146101965780639c8f9f23146101a957600080fd5b80630c55699c146100fa5780631569f6151461011657806330dbd9db1461015b575b600080fd5b61010360005481565b6040519081526020015b60405180910390f35b6004546101369073ffffffffffffffffffffffffffffffffffffffff1681565b60405173ffffffffffffffffffffffffffffffffffffffff909116815260200161010d565b61016e610169366004610b8f565b610250565b005b61010361017e366004610bb1565b6102e6565b610103610191366004610b8f565b610354565b6101036101a4366004610c8e565b6103bf565b6101bc6101b7366004610bb1565b6105f5565b6040805192835260208301919091520161010d565b61016e6101df366004610b8f565b6106e0565b61010360015481565b6101036101fb366004610bb1565b610784565b610208610a29565b604051901515815260200161010d565b61010360025481565b61020861022f366004610b8f565b610a3e565b61010360035481565b61016e61024b366004610bb1565b600355565b6000821180156102605750600081115b6102cb576040517f08c379a000000000000000000000000000000000000000000000000000000000815260206004820152600b60248201527f78206f72207920213e203000000000000000000000000000000000000000000060448201526064015b60405180910390fd5b600082905560018190556102df8282610b0c565b6002555050565b6000816102f557506000919050565b6003821161030557506001919050565b600061031d6002610317856001610b1f565b90610b2b565b90508291505b8181101561034e579050806103476002610317836103418782610b2b565b90610b1f565b9050610323565b92915050565b6000816103635750600161034e565b816001141561037357508161034e565b8215801561038057508115155b1561038d5750600061034e565b8260015b838112156103b7576103a38286610b37565b9150806103af81610d3f565b915050610391565b509392505050565b6000805460015460035460408051602081019490945283810192909252606083015260808083018590528151808403909101815260a08301918290526005547f2f7adf430000000000000000000000000000000000000000000000000000000090925291839173ffffffffffffffffffffffffffffffffffffffff1690632f7adf4390610452908890869060a401610df2565b600060405180830381600087803b15801561046c57600080fd5b505af1158015610480573d6000803e3d6000fd5b505050506040513d6000823e601f3d9081017fffffffffffffffffffffffffffffffffffffffffffffffffffffffffffffffe01682016040526104c69190810190610e20565b90507f31fe5ce544784f2e2e62fd1c70cb1ebe6cd1f8e17a185909f82c430b6c7ec470816040516104f79190610e8e565b60405180910390a16000805461050d9086610b1f565b90506000828060200190518101906105259190610ea1565b90506105318282610a3e565b610597576040517f08c379a000000000000000000000000000000000000000000000000000000000815260206004820152600d60248201527f6e6f7420696e76617269616e740000000000000000000000000000000000000060448201526064016102c2565b6001546105a49082610b43565b60005460408051918252602082018390529196507f2959f72656d7839341ef20bd9259961ac6664616544abd2c125ea94a2076704f910160405180910390a160009190915560015550909392505050565b600080600083118015610609575060648311155b61066f576040517f08c379a000000000000000000000000000000000000000000000000000000000815260206004820152601960248201527f706572634f7574206e6f74203e2030206f72203c3d203130300000000000000060448201526064016102c2565b610689606461031785600054610b0c90919063ffffffff16565b91506106a5606461031785600154610b0c90919063ffffffff16565b6000549091506106b59083610b43565b6000556001546106c59082610b43565b60018190556000546106d691610b0c565b6002559092909150565b6000821180156106f05750600081115b610756576040517f08c379a000000000000000000000000000000000000000000000000000000000815260206004820152600b60248201527f78206f72207920213e203000000000000000000000000000000000000000000060448201526064016102c2565b6000546107639083610b1f565b6000556001546107739082610b1f565b60018190556000546102df91610b0c565b60008061079c83600154610b1f90919063ffffffff16565b905060006107b66004600354610b0c90919063ffffffff16565b905060006107d060026107ca6002546102e6565b90610b0c565b90506000806107e4856107ca866004610b0c565b905060006108336107fc876107ca87818a6004610b0c565b61082d61080e876107ca8b6004610b0c565b61082761081c8b6002610354565b6107ca8b6004610b0c565b90610b4f565b90610b5b565b90506000610842856003610354565b61084b90610eba565b9050600061087161086783610861876004610b37565b90610b37565b61082d8580610b37565b9050600061088161017e83610b67565b9050600082126109b95760006108ae61089b876002610b37565b6108a88461082789610eba565b90610b83565b905060006108cd6108c0886002610b37565b6108a88561082d8a610eba565b90506000821380156108e157506002548213155b6108eb57806108ed565b815b97506108f9888c610a3e565b61095f576040517f08c379a000000000000000000000000000000000000000000000000000000000815260206004820152600d60248201527f6e6f7420696e76617269616e740000000000000000000000000000000000000060448201526064016102c2565b60005461096c9089610b43565b600089905560018c9055604080518f815260208101839052919d507fe38925757fb32b04e8218979e360e1dfeb6311608b25955073d0971d3891ede1910160405180910390a15050610a1b565b6040517f08c379a000000000000000000000000000000000000000000000000000000000815260206004820152601a60248201527f57726f6e67207377617020616d6f756e742070726f766964656400000000000060448201526064016102c2565b505050505050505050919050565b6000610a39600054600154610a3e565b905090565b60008083118015610a5157506002548311155b610a5a57600080fd5b600082118015610a6c57506002548211155b610a7557600080fd5b6000610a826002546102e6565b90506000610aaf610a94836002610b0c565b610341610aa18888610b1f565b6003546107ca906004610b0c565b90506000610aeb610add610ac8876107ca8a6004610b0c565b610317610ad6876002610b0c565b6003610354565b610341610aa1866002610b0c565b90506032610b01610afc8385610ef3565b610b67565b129695505050505050565b6000610b188284610f67565b9392505050565b6000610b188284610fa4565b6000610b188284610feb565b6000610b188284610fff565b6000610b1882846110bb565b6000610b1882846110d2565b6000610b188284610ef3565b600080821215610b7f57610b7a82610eba565b61034e565b5090565b6000610b188284611146565b60008060408385031215610ba257600080fd5b50508035926020909101359150565b600060208284031215610bc357600080fd5b5035919050565b7f4e487b7100000000000000000000000000000000000000000000000000000000600052604160045260246000fd5b604051601f82017fffffffffffffffffffffffffffffffffffffffffffffffffffffffffffffffe016810167ffffffffffffffff81118282101715610c4057610c40610bca565b604052919050565b600067ffffffffffffffff821115610c6257610c62610bca565b50601f017fffffffffffffffffffffffffffffffffffffffffffffffffffffffffffffffe01660200190565b60008060408385031215610ca157600080fd5b823567ffffffffffffffff811115610cb857600080fd5b8301601f81018513610cc957600080fd5b8035610cdc610cd782610c48565b610bf9565b818152866020838501011115610cf157600080fd5b8160208401602083013760006020928201830152969401359450505050565b7f4e487b7100000000000000000000000000000000000000000000000000000000600052601160045260246000fd5b60007f7fffffffffffffffffffffffffffffffffffffffffffffffffffffffffffffff821415610d7157610d71610d10565b5060010190565b60005b83811015610d93578181015183820152602001610d7b565b83811115610da2576000848401525b50505050565b60008151808452610dc0816020860160208601610d78565b601f017fffffffffffffffffffffffffffffffffffffffffffffffffffffffffffffffe0169290920160200192915050565b604081526000610e056040830185610da8565b8281036020840152610e178185610da8565b95945050505050565b600060208284031215610e3257600080fd5b815167ffffffffffffffff811115610e4957600080fd5b8201601f81018413610e5a57600080fd5b8051610e68610cd782610c48565b818152856020838501011115610e7d57600080fd5b610e17826020830160208601610d78565b602081526000610b186020830184610da8565b600060208284031215610eb357600080fd5b5051919050565b60007f8000000000000000000000000000000000000000000000000000000000000000821415610eec57610eec610d10565b5060000390565b6000808312837f800000000000000000000000000000000000000000000000000000000000000001831281151615610f2d57610f2d610d10565b837f7fffffffffffffffffffffffffffffffffffffffffffffffffffffffffffffff018313811615610f6157610f61610d10565b50500390565b6000817fffffffffffffffffffffffffffffffffffffffffffffffffffffffffffffffff0483118215151615610f9f57610f9f610d10565b500290565b60008219821115610fb757610fb7610d10565b500190565b7f4e487b7100000000000000000000000000000000000000000000000000000000600052601260045260246000fd5b600082610ffa57610ffa610fbc565b500490565b60007f7fffffffffffffffffffffffffffffffffffffffffffffffffffffffffffffff60008413600084138583048511828216161561104057611040610d10565b7f8000000000000000000000000000000000000000000000000000000000000000600087128682058812818416161561107b5761107b610d10565b6000871292508782058712848416161561109757611097610d10565b878505871281841616156110ad576110ad610d10565b505050929093029392505050565b6000828210156110cd576110cd610d10565b500390565b6000808212827f7fffffffffffffffffffffffffffffffffffffffffffffffffffffffffffffff0384138115161561110c5761110c610d10565b827f800000000000000000000000000000000000000000000000000000000000000003841281161561114057611140610d10565b50500190565b60008261115557611155610fbc565b7fffffffffffffffffffffffffffffffffffffffffffffffffffffffffffffffff83147f8000000000000000000000000000000000000000000000000000000000000000831416156111a9576111a9610d10565b50059056fea164736f6c6343000809000a",
  "linkReferences": {},
  "deployedLinkReferences": {}
}