{
  "contracts/ERC721Registry.sol": {
    "ERC721Registry": {
      "abi": [
        {
          "inputs": [],
          "stateMutability": "nonpayable",
          "type": "constructor"
        },
        {
          "anonymous": false,
          "inputs": [
            {
              "indexed": true,
              "internalType": "address",
              "name": "walletAddress",
              "type": "address"
            },
            {
              "indexed": true,
              "internalType": "address",
              "name": "NFTContractAddress",
              "type": "address"
            }
          ],
          "name": "AddressRegistered",
          "type": "event"
        },
        {
          "inputs": [
            {
              "internalType": "address",
              "name": "walletAddress",
              "type": "address"
            }
          ],
          "name": "lookupAddress",
          "outputs": [
            {
              "internalType": "address[]",
              "name": "",
              "type": "address[]"
            }
          ],
          "stateMutability": "view",
          "type": "function"
        },
        {
          "inputs": [
            {
              "internalType": "address",
              "name": "walletAddress",
              "type": "address"
            },
            {
              "internalType": "address",
              "name": "NFTContractAddress",
              "type": "address"
            }
          ],
          "name": "registerAddress",
          "outputs": [],
          "stateMutability": "nonpayable",
          "type": "function"
        }
      ],
      "devdoc": {
        "events": {
          "AddressRegistered(address,address)": {
            "details": "Emitted when a NFT contract addresss is added to a user's wallet."
          }
        },
        "kind": "dev",
        "methods": {},
        "title": "ERC721Registry",
        "version": 1
      },
      "evm": {
        "bytecode": {
          "linkReferences": {},
          "object": "608060405234801561001057600080fd5b50610279806100206000396000f3fe608060405234801561001057600080fd5b50600436106100365760003560e01c806331b0795c1461003b578063d79582f614610050575b600080fd5b61004e6100493660046101bd565b610079565b005b61006361005e3660046101f0565b610106565b6040516100709190610212565b60405180910390f35b73ffffffffffffffffffffffffffffffffffffffff828116600081815260208181526040808320805460018101825590845291832090910180547fffffffffffffffffffffffff0000000000000000000000000000000000000000169486169485179055517f72b627b4904fa8a0160a923aa5b142eb19f6e56dc75017884162206f8886df099190a35050565b73ffffffffffffffffffffffffffffffffffffffff81166000908152602081815260409182902080548351818402810184019094528084526060939283018282801561018857602002820191906000526020600020905b815473ffffffffffffffffffffffffffffffffffffffff16815260019091019060200180831161015d575b50505050509050919050565b803573ffffffffffffffffffffffffffffffffffffffff811681146101b857600080fd5b919050565b600080604083850312156101d057600080fd5b6101d983610194565b91506101e760208401610194565b90509250929050565b60006020828403121561020257600080fd5b61020b82610194565b9392505050565b6020808252825182820181905260009190848201906040850190845b8181101561026057835173ffffffffffffffffffffffffffffffffffffffff168352928401929184019160010161022e565b5090969550505050505056fea164736f6c6343000808000a",
          "opcodes": "PUSH1 0x80 PUSH1 0x40 MSTORE CALLVALUE DUP1 ISZERO PUSH2 0x10 JUMPI PUSH1 0x0 DUP1 REVERT JUMPDEST POP PUSH2 0x279 DUP1 PUSH2 0x20 PUSH1 0x0 CODECOPY PUSH1 0x0 RETURN INVALID PUSH1 0x80 PUSH1 0x40 MSTORE CALLVALUE DUP1 ISZERO PUSH2 0x10 JUMPI PUSH1 0x0 DUP1 REVERT JUMPDEST POP PUSH1 0x4 CALLDATASIZE LT PUSH2 0x36 JUMPI PUSH1 0x0 CALLDATALOAD PUSH1 0xE0 SHR DUP1 PUSH4 0x31B0795C EQ PUSH2 0x3B JUMPI DUP1 PUSH4 0xD79582F6 EQ PUSH2 0x50 JUMPI JUMPDEST PUSH1 0x0 DUP1 REVERT JUMPDEST PUSH2 0x4E PUSH2 0x49 CALLDATASIZE PUSH1 0x4 PUSH2 0x1BD JUMP JUMPDEST PUSH2 0x79 JUMP JUMPDEST STOP JUMPDEST PUSH2 0x63 PUSH2 0x5E CALLDATASIZE PUSH1 0x4 PUSH2 0x1F0 JUMP JUMPDEST PUSH2 0x106 JUMP JUMPDEST PUSH1 0x40 MLOAD PUSH2 0x70 SWAP2 SWAP1 PUSH2 0x212 JUMP JUMPDEST PUSH1 0x40 MLOAD DUP1 SWAP2 SUB SWAP1 RETURN JUMPDEST PUSH20 0xFFFFFFFFFFFFFFFFFFFFFFFFFFFFFFFFFFFFFFFF DUP3 DUP2 AND PUSH1 0x0 DUP2 DUP2 MSTORE PUSH1 0x20 DUP2 DUP2 MSTORE PUSH1 0x40 DUP1 DUP4 KECCAK256 DUP1 SLOAD PUSH1 0x1 DUP2 ADD DUP3 SSTORE SWAP1 DUP5 MSTORE SWAP2 DUP4 KECCAK256 SWAP1 SWAP2 ADD DUP1 SLOAD PUSH32 0xFFFFFFFFFFFFFFFFFFFFFFFF0000000000000000000000000000000000000000 AND SWAP5 DUP7 AND SWAP5 DUP6 OR SWAP1 SSTORE MLOAD PUSH32 0x72B627B4904FA8A0160A923AA5B142EB19F6E56DC75017884162206F8886DF09 SWAP2 SWAP1 LOG3 POP POP JUMP JUMPDEST PUSH20 0xFFFFFFFFFFFFFFFFFFFFFFFFFFFFFFFFFFFFFFFF DUP2 AND PUSH1 0x0 SWAP1 DUP2 MSTORE PUSH1 0x20 DUP2 DUP2 MSTORE PUSH1 0x40 SWAP2 DUP3 SWAP1 KECCAK256 DUP1 SLOAD DUP4 MLOAD DUP2 DUP5 MUL DUP2 ADD DUP5 ADD SWAP1 SWAP5 MSTORE DUP1 DUP5 MSTORE PUSH1 0x60 SWAP4 SWAP3 DUP4 ADD DUP3 DUP3 DUP1 ISZERO PUSH2 0x188 JUMPI PUSH1 0x20 MUL DUP3 ADD SWAP2 SWAP1 PUSH1 0x0 MSTORE PUSH1 0x20 PUSH1 0x0 KECCAK256 SWAP1 JUMPDEST DUP2 SLOAD PUSH20 0xFFFFFFFFFFFFFFFFFFFFFFFFFFFFFFFFFFFFFFFF AND DUP2 MSTORE PUSH1 0x1 SWAP1 SWAP2 ADD SWAP1 PUSH1 0x20 ADD DUP1 DUP4 GT PUSH2 0x15D JUMPI JUMPDEST POP POP POP POP POP SWAP1 POP SWAP2 SWAP1 POP JUMP JUMPDEST DUP1 CALLDATALOAD PUSH20 0xFFFFFFFFFFFFFFFFFFFFFFFFFFFFFFFFFFFFFFFF DUP2 AND DUP2 EQ PUSH2 0x1B8 JUMPI PUSH1 0x0 DUP1 REVERT JUMPDEST SWAP2 SWAP1 POP JUMP JUMPDEST PUSH1 0x0 DUP1 PUSH1 0x40 DUP4 DUP6 SUB SLT ISZERO PUSH2 0x1D0 JUMPI PUSH1 0x0 DUP1 REVERT JUMPDEST PUSH2 0x1D9 DUP4 PUSH2 0x194 JUMP JUMPDEST SWAP2 POP PUSH2 0x1E7 PUSH1 0x20 DUP5 ADD PUSH2 0x194 JUMP JUMPDEST SWAP1 POP SWAP3 POP SWAP3 SWAP1 POP JUMP JUMPDEST PUSH1 0x0 PUSH1 0x20 DUP3 DUP5 SUB SLT ISZERO PUSH2 0x202 JUMPI PUSH1 0x0 DUP1 REVERT JUMPDEST PUSH2 0x20B DUP3 PUSH2 0x194 JUMP JUMPDEST SWAP4 SWAP3 POP POP POP JUMP JUMPDEST PUSH1 0x20 DUP1 DUP3 MSTORE DUP3 MLOAD DUP3 DUP3 ADD DUP2 SWAP1 MSTORE PUSH1 0x0 SWAP2 SWAP1 DUP5 DUP3 ADD SWAP1 PUSH1 0x40 DUP6 ADD SWAP1 DUP5 JUMPDEST DUP2 DUP2 LT ISZERO PUSH2 0x260 JUMPI DUP4 MLOAD PUSH20 0xFFFFFFFFFFFFFFFFFFFFFFFFFFFFFFFFFFFFFFFF AND DUP4 MSTORE SWAP3 DUP5 ADD SWAP3 SWAP2 DUP5 ADD SWAP2 PUSH1 0x1 ADD PUSH2 0x22E JUMP JUMPDEST POP SWAP1 SWAP7 SWAP6 POP POP POP POP POP POP JUMP INVALID LOG1 PUSH5 0x736F6C6343 STOP ADDMOD ADDMOD STOP EXP "
        },
        "gasEstimates": {
          "creation": {
            "codeDepositCost": "126600",
            "executionCost": "171",
            "totalCost": "126771"
          },
          "external": {
            "lookupAddress(address)": "infinite",
            "registerAddress(address,address)": "infinite"
          }
        },
        "methodIdentifiers": {
          "lookupAddress(address)": "d79582f6",
          "registerAddress(address,address)": "31b0795c"
        }
      },
      "storageLayout": {
        "storage": [
          {
            "astId": 11,
            "contract": "contracts/ERC721Registry.sol:ERC721Registry",
            "label": "locations",
            "offset": 0,
            "slot": "0",
            "type": "t_mapping(t_address,t_struct(wallet)6_storage)"
          }
        ],
        "types": {
          "t_address": {
            "encoding": "inplace",
            "label": "address",
            "numberOfBytes": "20"
          },
          "t_array(t_address)dyn_storage": {
            "base": "t_address",
            "encoding": "dynamic_array",
            "label": "address[]",
            "numberOfBytes": "32"
          },
          "t_mapping(t_address,t_struct(wallet)6_storage)": {
            "encoding": "mapping",
            "key": "t_address",
            "label": "mapping(address => struct ERC721Registry.wallet)",
            "numberOfBytes": "32",
            "value": "t_struct(wallet)6_storage"
          },
          "t_struct(wallet)6_storage": {
            "encoding": "inplace",
            "label": "struct ERC721Registry.wallet",
            "members": [
              {
                "astId": 5,
                "contract": "contracts/ERC721Registry.sol:ERC721Registry",
                "label": "addresses",
                "offset": 0,
                "slot": "0",
                "type": "t_array(t_address)dyn_storage"
              }
            ],
            "numberOfBytes": "32"
          }
        }
      },
      "userdoc": {
        "kind": "user",
        "methods": {},
        "version": 1
      }
    }
  }
}