{
  "_format": "hh-sol-artifact-1",
  "contractName": "OVM_ChainStorageContainer",
  "sourceName": "contracts/optimistic-ethereum/OVM/chain/OVM_ChainStorageContainer.sol",
  "abi": [
    {
      "inputs": [
        {
          "internalType": "address",
          "name": "_libAddressManager",
          "type": "address"
        },
        {
          "internalType": "string",
          "name": "_owner",
          "type": "string"
        }
      ],
      "stateMutability": "nonpayable",
      "type": "constructor"
    },
    {
      "inputs": [
        {
          "internalType": "uint256",
          "name": "_index",
          "type": "uint256"
        },
        {
          "internalType": "bytes27",
          "name": "_globalMetadata",
          "type": "bytes27"
        }
      ],
      "name": "deleteElementsAfterInclusive",
      "outputs": [],
      "stateMutability": "nonpayable",
      "type": "function"
    },
    {
      "inputs": [
        {
          "internalType": "uint256",
          "name": "_index",
          "type": "uint256"
        }
      ],
      "name": "deleteElementsAfterInclusive",
      "outputs": [],
      "stateMutability": "nonpayable",
      "type": "function"
    },
    {
      "inputs": [
        {
          "internalType": "uint256",
          "name": "_index",
          "type": "uint256"
        }
      ],
      "name": "get",
      "outputs": [
        {
          "internalType": "bytes32",
          "name": "",
          "type": "bytes32"
        }
      ],
      "stateMutability": "view",
      "type": "function"
    },
    {
      "inputs": [],
      "name": "getGlobalMetadata",
      "outputs": [
        {
          "internalType": "bytes27",
          "name": "",
          "type": "bytes27"
        }
      ],
      "stateMutability": "view",
      "type": "function"
    },
    {
      "inputs": [],
      "name": "length",
      "outputs": [
        {
          "internalType": "uint256",
          "name": "",
          "type": "uint256"
        }
      ],
      "stateMutability": "view",
      "type": "function"
    },
    {
      "inputs": [],
      "name": "libAddressManager",
      "outputs": [
        {
          "internalType": "contract Lib_AddressManager",
          "name": "",
          "type": "address"
        }
      ],
      "stateMutability": "view",
      "type": "function"
    },
    {
      "inputs": [],
      "name": "owner",
      "outputs": [
        {
          "internalType": "string",
          "name": "",
          "type": "string"
        }
      ],
      "stateMutability": "view",
      "type": "function"
    },
    {
      "inputs": [
        {
          "internalType": "bytes32",
          "name": "_object",
          "type": "bytes32"
        },
        {
          "internalType": "bytes27",
          "name": "_globalMetadata",
          "type": "bytes27"
        }
      ],
      "name": "push",
      "outputs": [],
      "stateMutability": "nonpayable",
      "type": "function"
    },
    {
      "inputs": [
        {
          "internalType": "bytes32",
          "name": "_object",
          "type": "bytes32"
        }
      ],
      "name": "push",
      "outputs": [],
      "stateMutability": "nonpayable",
      "type": "function"
    },
    {
      "inputs": [
        {
          "internalType": "string",
          "name": "_name",
          "type": "string"
        }
      ],
      "name": "resolve",
      "outputs": [
        {
          "internalType": "address",
          "name": "",
          "type": "address"
        }
      ],
      "stateMutability": "view",
      "type": "function"
    },
    {
      "inputs": [
        {
          "internalType": "bytes27",
          "name": "_globalMetadata",
          "type": "bytes27"
        }
      ],
      "name": "setGlobalMetadata",
      "outputs": [],
      "stateMutability": "nonpayable",
      "type": "function"
    }
  ],
  "bytecode": "0x60806040525a6200000f62000190565b8015620000265760008062000023620001ec565b50505b50604051620014f7380380620014f783398181016040526040811015620000575760008062000054620001ec565b50505b810190808051929190602001805160405193929190846401000000008211156200008b5760008062000088620001ec565b50505b908301906020820185811115620000ac57600080620000a9620001ec565b50505b8251640100000000811182820188101715620000d257600080620000cf620001ec565b50505b825250602001908051906020019080838360005b8381101562000100578082015183820152602001620000e6565b50505050905090810190601f1680156200012e5780820380516001836020036101000a031916815260200191505b5060405250505081806000806101000a816200014962000259565b816001600160a01b0302191690836001600160a01b03160217906200016d620002a6565b5050505080600190805162000187929160200190620002f5565b505050620003da565b63a8c4c5ec598160e01b8152602081600483336000905af158600e01573d6000803e3d6000fd5b3d6001141558600a015760016000f35b8051935060005b6040811015620001e757600082820152602001620001ce565b505050565b632a2a7adb598160e01b8152600481016020815285602082015260005b868110156200022657808601518282016040015260200162000209565b506020828760640184336000905af158600e01573d6000803e3d6000fd5b3d6001141558600a015760016000f35b505050565b6303daa959598160e01b8152836004820152602081602483336000905af158600e01573d6000803e3d6000fd5b3d6001141558600a015760016000f35b80516000825293506020620001ce565b6322bd64c0598160e01b8152836004820152846024820152600081604483336000905af158600e01573d6000803e3d6000fd5b3d6001141558600a015760016000f35b600081526020620001ce565b82806200030162000259565b600181600116156101000203166002900490600052602060002090601f016020900481019282620003415760008562000339620002a6565b5050620003a5565b82601f106200035f57805160ff1916838001178562000339620002a6565b8280016001018562000370620002a6565b50508215620003a5579182015b82811115620003a55782518262000393620002a6565b5050916020019190600101906200037d565b50620003b3929150620003b7565b5090565b80821115620003b35760008082620003ce620002a6565b505050600101620003b7565b61110d80620003ea6000396000f3fe60806040525a61000d610dda565b80156100215760008061001e610e2f565b50505b50600436106100ba5760003560e01c8063461a447811610082578063461a44781461019e5780634651d91e146102675780638da5cb5b1461028d5780639507d39a1461030c578063b298e36b14610332578063ccf8f96914610358576100ba565b8063167fd681146100c85780631f7b6d32146100fe5780632015276c1461011857806329061de21461014c578063299ca4781461017a575b6000806100c5610e2f565b50505b6100fc600480360360408110156100e7576000806100e4610e2f565b50505b508035906020013564ffffffffff191661037b565b005b6101066104a9565b60405190815260200160405180910390f35b6100fc6004803603604081101561013757600080610134610e2f565b50505b508035906020013564ffffffffff19166104c1565b6100fc6004803603602081101561016b57600080610168610e2f565b50505b503564ffffffffff19166105d4565b6101826106e9565b6040516001600160a01b03909116815260200160405180910390f35b610182600480360360208110156101bd576000806101ba610e2f565b50505b8101906020810181356401000000008111156101e1576000806101de610e2f565b50505b8201836020820111156101fc576000806101f9610e2f565b50505b8035906020019184600183028401116401000000008311171561022757600080610224610e2f565b50505b91908080601f0160208091040260200160405190810160405281815292919060208401838380828437600092019190915250929550610707945050505050565b6100fc6004803603602081101561028657600080610283610e2f565b50505b503561082f565b610295610941565b60405160208082528190810183818151815260200191508051906020019080838360005b838110156102d15780820151838201526020016102b9565b50505050905090810190601f1680156102fe5780820380516001836020036101000a031916815260200191505b509250505060405180910390f35b6101066004803603602081101561032b57600080610328610e2f565b50505b50356109fa565b6100fc600480360360208110156103515760008061034e610e2f565b50505b5035610a14565b610360610b26565b60405164ffffffffff19909116815260200160405180910390f35b610439600180610389610e9a565b600181600116156101000203166002900480601f0160208091040260200160405190810160405281815291906020830182806103c3610e9a565b6001816001161561010002031660029004801561042f5780601f106103fd5761010080836103ef610e9a565b04028352916020019161042f565b820191906000526020600020905b81610414610e9a565b8152906001019060200180831161040b57829003601f168201915b5050505050610707565b6001600160a01b03165a61044b610ee6565b6001600160a01b0316146104995760405162461bcd60e51b81526004018080602001828103825260448152602001806110c96044913960600191505060405180910390610496610e2f565b50505b6104a560028383610b37565b5050565b60006104b56002610bce565b64ffffffffff16905090565b6105686001806104cf610e9a565b600181600116156101000203166002900480601f016020809104026020016040519081016040528181529190602083018280610509610e9a565b6001816001161561010002031660029004801561042f5780601f106105355761010080836103ef610e9a565b820191906000526020600020905b8161054c610e9a565b8152906001019060200180831161054357506107079350505050565b6001600160a01b03165a61057a610ee6565b6001600160a01b0316146105c85760405162461bcd60e51b81526004018080602001828103825260448152602001806110c960449139606001915050604051809103906105c5610e2f565b50505b6104a560028383610be5565b61067b6001806105e2610e9a565b600181600116156101000203166002900480601f01602080910402602001604051908101604052818152919060208301828061061c610e9a565b6001816001161561010002031660029004801561042f5780601f106106485761010080836103ef610e9a565b820191906000526020600020905b8161065f610e9a565b8152906001019060200180831161065657506107079350505050565b6001600160a01b03165a61068d610ee6565b6001600160a01b0316146106db5760405162461bcd60e51b81526004018080602001828103825260448152602001806110c960449139606001915050604051809103906106d8610e2f565b50505b6106e6600282610c47565b50565b6000806106f4610e9a565b906101000a90046001600160a01b031681565b60008080610713610e9a565b906101000a90046001600160a01b03166001600160a01b031663bf40fac1836040518263ffffffff1660e01b81526004018080602001828103825283818151815260200191508051906020019080838360005b8381101561077e578082015183820152602001610766565b50505050905090810190601f1680156107ab5780820380516001836020036101000a031916815260200191505b509250505060206040518083038186806107c3610f2c565b1580156107d8576000806107d5610e2f565b50505b505a6107e2610f78565b5050505050158015610801573d6000803e3d60006107fe610e2f565b50505b505050506040513d60208110156108205760008061081d610e2f565b50505b81019080805195945050505050565b6108d660018061083d610e9a565b600181600116156101000203166002900480601f016020809104026020016040519081016040528181529190602083018280610877610e9a565b6001816001161561010002031660029004801561042f5780601f106108a35761010080836103ef610e9a565b820191906000526020600020905b816108ba610e9a565b815290600101906020018083116108b157506107079350505050565b6001600160a01b03165a6108e8610ee6565b6001600160a01b0316146109365760405162461bcd60e51b81526004018080602001828103825260448152602001806110c96044913960600191505060405180910390610933610e2f565b50505b6106e6600282610c71565b60018061094c610e9a565b600181600116156101000203166002900480601f016020809104026020016040519081016040528181529190602083018280610986610e9a565b600181600116156101000203166002900480156109f25780601f106109c05761010080836109b2610e9a565b0402835291602001916109f2565b820191906000526020600020905b816109d7610e9a565b815290600101906020018083116109ce57829003601f168201915b505050505081565b6000610a0e600264ffffffffff8416610c8f565b92915050565b610abb600180610a22610e9a565b600181600116156101000203166002900480601f016020809104026020016040519081016040528181529190602083018280610a5c610e9a565b6001816001161561010002031660029004801561042f5780601f10610a885761010080836103ef610e9a565b820191906000526020600020905b81610a9f610e9a565b81529060010190602001808311610a9657506107079350505050565b6001600160a01b03165a610acd610ee6565b6001600160a01b031614610b1b5760405162461bcd60e51b81526004018080602001828103825260448152602001806110c96044913960600191505060405180910390610b18610e2f565b50505b6106e6600282610d18565b6000610b326002610d36565b905090565b6000610b4284610d50565b9050805164ffffffffff168364ffffffffff1610610ba65760405162461bcd60e51b815260206004820152601460248201527324b73232bc1037baba1037b3103137bab732399760611b604482015260640160405180910390610ba3610e2f565b50505b64ffffffffff8316815264ffffffffff1982166020820152610bc88482610da0565b50505050565b600080610bda83610d50565b905080519392505050565b6000610bf084610d50565b905082600185016000835164ffffffffff1681526020019081526020016000208190610c1a611063565b50505080600001805160010164ffffffffff16905264ffffffffff1982166020820152610bc88482610da0565b6000610c5283610d50565b64ffffffffff19831660208201529050610c6c8382610da0565b505050565b6000610c7c83610d50565b9050610c6c828260200151859190610b37565b600080610c9b84610d50565b9050805164ffffffffff168310610cf85760405162461bcd60e51b815260206004820152601460248201527324b73232bc1037baba1037b3103137bab732399760611b604482015260640160405180910390610cf5610e2f565b50505b60008381526001850160205260409020610d10610e9a565b949350505050565b6000610d2383610d50565b9050610c6c828260200151859190610be5565b600080610d4283610d50565b905080602001519392505050565b610d586110b1565b600082610d63610e9a565b905064ffffffffff811664ffffffffff1982166040516040808201905264ffffffffff909216825264ffffffffff19166020820152915050919050565b6000808251905060008360200151828117935090508285610dbf610e9a565b14610dd357828086610dcf611063565b5050505b5050505050565b63a8c4c5ec598160e01b8152602081600483336000905af158600e01573d6000803e3d6000fd5b3d6001141558600a015760016000f35b8051935060005b6040811015610c6c57600082820152602001610e18565b632a2a7adb598160e01b8152600481016020815285602082015260005b86811015610e67578086015182820160400152602001610e4c565b506020828760640184336000905af158600e01573d6000803e3d6000fd5b3d6001141558600a015760016000f35b505050565b6303daa959598160e01b8152836004820152602081602483336000905af158600e01573d6000803e3d6000fd5b3d6001141558600a015760016000f35b80516000825293506020610e18565b6373509064598160e01b8152602081600483336000905af158600e01573d6000803e3d6000fd5b3d6001141558600a015760016000f35b80516000825293506020610e18565b638435035b598160e01b8152836004820152602081602483336000905af158600e01573d6000803e3d6000fd5b3d6001141558600a015760016000f35b80516000825293506020610e18565b638540661f598160e01b8152610fa9565b8080831115610a0e575090919050565b8080831015610a0e575090919050565b836004820152846024820152606060448201528660648201526084810160005b88811015610fe1578088015182820152602001610fc9565b506060828960a40184336000905af158600e01573d6000803e3d6000fd5b3d6001141558600a015760016000f35b815160408301513d6000853e8b8b82606087013350600060045af150596110368d3d610f99565b8c016110428187610f89565b5b828110156110575760008152602001611043565b50929c50505050505050565b6322bd64c0598160e01b8152836004820152846024820152600081604483336000905af158600e01573d6000803e3d6000fd5b3d6001141558600a015760016000f35b600081526020610e18565b60405160408082019052600080825260208201529056fe4f564d5f436861696e53746f72616765436f6e7461696e65723a2046756e6374696f6e2063616e206f6e6c792062652063616c6c656420627920746865206f776e65722e",
  "linkReferences": {},
  "deployedLinkReferences": {}
}