{
  "_format": "hh-sol-artifact-1",
  "contractName": "L1StandardERC721",
  "sourceName": "contracts/standards/L1StandardERC721.sol",
  "abi": [
    {
      "inputs": [
        {
          "internalType": "address",
          "name": "_l1Bridge",
          "type": "address"
        },
        {
          "internalType": "address",
          "name": "_l2Contract",
          "type": "address"
        },
        {
          "internalType": "string",
          "name": "_name",
          "type": "string"
        },
        {
          "internalType": "string",
          "name": "_symbol",
          "type": "string"
        }
      ],
      "stateMutability": "nonpayable",
      "type": "constructor"
    },
    {
      "anonymous": false,
      "inputs": [
        {
          "indexed": true,
          "internalType": "address",
          "name": "owner",
          "type": "address"
        },
        {
          "indexed": true,
          "internalType": "address",
          "name": "approved",
          "type": "address"
        },
        {
          "indexed": true,
          "internalType": "uint256",
          "name": "tokenId",
          "type": "uint256"
        }
      ],
      "name": "Approval",
      "type": "event"
    },
    {
      "anonymous": false,
      "inputs": [
        {
          "indexed": true,
          "internalType": "address",
          "name": "owner",
          "type": "address"
        },
        {
          "indexed": true,
          "internalType": "address",
          "name": "operator",
          "type": "address"
        },
        {
          "indexed": false,
          "internalType": "bool",
          "name": "approved",
          "type": "bool"
        }
      ],
      "name": "ApprovalForAll",
      "type": "event"
    },
    {
      "anonymous": false,
      "inputs": [
        {
          "indexed": false,
          "internalType": "uint256",
          "name": "_tokenId",
          "type": "uint256"
        }
      ],
      "name": "Burn",
      "type": "event"
    },
    {
      "anonymous": false,
      "inputs": [
        {
          "indexed": true,
          "internalType": "address",
          "name": "_account",
          "type": "address"
        },
        {
          "indexed": false,
          "internalType": "uint256",
          "name": "_tokenId",
          "type": "uint256"
        }
      ],
      "name": "Mint",
      "type": "event"
    },
    {
      "anonymous": false,
      "inputs": [
        {
          "indexed": true,
          "internalType": "address",
          "name": "from",
          "type": "address"
        },
        {
          "indexed": true,
          "internalType": "address",
          "name": "to",
          "type": "address"
        },
        {
          "indexed": true,
          "internalType": "uint256",
          "name": "tokenId",
          "type": "uint256"
        }
      ],
      "name": "Transfer",
      "type": "event"
    },
    {
      "inputs": [
        {
          "internalType": "address",
          "name": "to",
          "type": "address"
        },
        {
          "internalType": "uint256",
          "name": "tokenId",
          "type": "uint256"
        }
      ],
      "name": "approve",
      "outputs": [],
      "stateMutability": "nonpayable",
      "type": "function"
    },
    {
      "inputs": [
        {
          "internalType": "address",
          "name": "owner",
          "type": "address"
        }
      ],
      "name": "balanceOf",
      "outputs": [
        {
          "internalType": "uint256",
          "name": "",
          "type": "uint256"
        }
      ],
      "stateMutability": "view",
      "type": "function"
    },
    {
      "inputs": [
        {
          "internalType": "uint256",
          "name": "_tokenId",
          "type": "uint256"
        }
      ],
      "name": "burn",
      "outputs": [],
      "stateMutability": "nonpayable",
      "type": "function"
    },
    {
      "inputs": [
        {
          "internalType": "uint256",
          "name": "tokenId",
          "type": "uint256"
        }
      ],
      "name": "getApproved",
      "outputs": [
        {
          "internalType": "address",
          "name": "",
          "type": "address"
        }
      ],
      "stateMutability": "view",
      "type": "function"
    },
    {
      "inputs": [
        {
          "internalType": "address",
          "name": "owner",
          "type": "address"
        },
        {
          "internalType": "address",
          "name": "operator",
          "type": "address"
        }
      ],
      "name": "isApprovedForAll",
      "outputs": [
        {
          "internalType": "bool",
          "name": "",
          "type": "bool"
        }
      ],
      "stateMutability": "view",
      "type": "function"
    },
    {
      "inputs": [],
      "name": "l1Bridge",
      "outputs": [
        {
          "internalType": "address",
          "name": "",
          "type": "address"
        }
      ],
      "stateMutability": "view",
      "type": "function"
    },
    {
      "inputs": [],
      "name": "l2Contract",
      "outputs": [
        {
          "internalType": "address",
          "name": "",
          "type": "address"
        }
      ],
      "stateMutability": "view",
      "type": "function"
    },
    {
      "inputs": [
        {
          "internalType": "address",
          "name": "_to",
          "type": "address"
        },
        {
          "internalType": "uint256",
          "name": "_tokenId",
          "type": "uint256"
        }
      ],
      "name": "mint",
      "outputs": [],
      "stateMutability": "nonpayable",
      "type": "function"
    },
    {
      "inputs": [],
      "name": "name",
      "outputs": [
        {
          "internalType": "string",
          "name": "",
          "type": "string"
        }
      ],
      "stateMutability": "view",
      "type": "function"
    },
    {
      "inputs": [
        {
          "internalType": "uint256",
          "name": "tokenId",
          "type": "uint256"
        }
      ],
      "name": "ownerOf",
      "outputs": [
        {
          "internalType": "address",
          "name": "",
          "type": "address"
        }
      ],
      "stateMutability": "view",
      "type": "function"
    },
    {
      "inputs": [
        {
          "internalType": "address",
          "name": "from",
          "type": "address"
        },
        {
          "internalType": "address",
          "name": "to",
          "type": "address"
        },
        {
          "internalType": "uint256",
          "name": "tokenId",
          "type": "uint256"
        }
      ],
      "name": "safeTransferFrom",
      "outputs": [],
      "stateMutability": "nonpayable",
      "type": "function"
    },
    {
      "inputs": [
        {
          "internalType": "address",
          "name": "from",
          "type": "address"
        },
        {
          "internalType": "address",
          "name": "to",
          "type": "address"
        },
        {
          "internalType": "uint256",
          "name": "tokenId",
          "type": "uint256"
        },
        {
          "internalType": "bytes",
          "name": "_data",
          "type": "bytes"
        }
      ],
      "name": "safeTransferFrom",
      "outputs": [],
      "stateMutability": "nonpayable",
      "type": "function"
    },
    {
      "inputs": [
        {
          "internalType": "address",
          "name": "operator",
          "type": "address"
        },
        {
          "internalType": "bool",
          "name": "approved",
          "type": "bool"
        }
      ],
      "name": "setApprovalForAll",
      "outputs": [],
      "stateMutability": "nonpayable",
      "type": "function"
    },
    {
      "inputs": [
        {
          "internalType": "bytes4",
          "name": "_interfaceId",
          "type": "bytes4"
        }
      ],
      "name": "supportsInterface",
      "outputs": [
        {
          "internalType": "bool",
          "name": "",
          "type": "bool"
        }
      ],
      "stateMutability": "pure",
      "type": "function"
    },
    {
      "inputs": [],
      "name": "symbol",
      "outputs": [
        {
          "internalType": "string",
          "name": "",
          "type": "string"
        }
      ],
      "stateMutability": "view",
      "type": "function"
    },
    {
      "inputs": [
        {
          "internalType": "uint256",
          "name": "tokenId",
          "type": "uint256"
        }
      ],
      "name": "tokenURI",
      "outputs": [
        {
          "internalType": "string",
          "name": "",
          "type": "string"
        }
      ],
      "stateMutability": "view",
      "type": "function"
    },
    {
      "inputs": [
        {
          "internalType": "address",
          "name": "from",
          "type": "address"
        },
        {
          "internalType": "address",
          "name": "to",
          "type": "address"
        },
        {
          "internalType": "uint256",
          "name": "tokenId",
          "type": "uint256"
        }
      ],
      "name": "transferFrom",
      "outputs": [],
      "stateMutability": "nonpayable",
      "type": "function"
    }
  ],
  "bytecode": "0x60806040523480156200001157600080fd5b50604051620020f7380380620020f783398101604081905262000034916200022f565b8151829082906200004d9060009060208501906200009f565b508051620000639060019060208401906200009f565b5050600780546001600160a01b039586166001600160a01b031991821617909155600880549690951695169490941790925550620002fc915050565b828054620000ad90620002bf565b90600052602060002090601f016020900481019282620000d157600085556200011c565b82601f10620000ec57805160ff19168380011785556200011c565b828001600101855582156200011c579182015b828111156200011c578251825591602001919060010190620000ff565b506200012a9291506200012e565b5090565b5b808211156200012a57600081556001016200012f565b80516001600160a01b03811681146200015d57600080fd5b919050565b634e487b7160e01b600052604160045260246000fd5b600082601f8301126200018a57600080fd5b81516001600160401b0380821115620001a757620001a762000162565b604051601f8301601f19908116603f01168101908282118183101715620001d257620001d262000162565b81604052838152602092508683858801011115620001ef57600080fd5b600091505b83821015620002135785820183015181830184015290820190620001f4565b83821115620002255760008385830101525b9695505050505050565b600080600080608085870312156200024657600080fd5b620002518562000145565b9350620002616020860162000145565b60408601519093506001600160401b03808211156200027f57600080fd5b6200028d8883890162000178565b93506060870151915080821115620002a457600080fd5b50620002b38782880162000178565b91505092959194509250565b600181811c90821680620002d457607f821691505b60208210811415620002f657634e487b7160e01b600052602260045260246000fd5b50919050565b611deb806200030c6000396000f3fe608060405234801561001057600080fd5b506004361061011b5760003560e01c806342966c68116100b2578063969b53da11610081578063b88d4fde11610066578063b88d4fde14610285578063c87b56dd14610298578063e985e9c5146102ab57600080fd5b8063969b53da14610252578063a22cb4651461027257600080fd5b806342966c68146102035780636352211e1461021657806370a082311461022957806395d89b411461024a57600080fd5b806323b872dd116100ee57806323b872dd146101aa5780633aced149146101bd57806340c10f19146101dd57806342842e0e146101f057600080fd5b806301ffc9a71461012057806306fdde0314610148578063081812fc1461015d578063095ea7b314610195575b600080fd5b61013361012e3660046118d7565b6102f4565b60405190151581526020015b60405180910390f35b6101506103b4565b60405161013f919061196a565b61017061016b36600461197d565b610446565b60405173ffffffffffffffffffffffffffffffffffffffff909116815260200161013f565b6101a86101a33660046119bf565b61050b565b005b6101a86101b83660046119e9565b610664565b6007546101709073ffffffffffffffffffffffffffffffffffffffff1681565b6101a86101eb3660046119bf565b6106eb565b6101a86101fe3660046119e9565b6107b0565b6101a861021136600461197d565b6107cb565b61017061022436600461197d565b610871565b61023c610237366004611a25565b61090f565b60405190815260200161013f565b6101506109c3565b6008546101709073ffffffffffffffffffffffffffffffffffffffff1681565b6101a8610280366004611a40565b6109d2565b6101a8610293366004611aab565b610acf565b6101506102a636600461197d565b610b5d565b6101336102b9366004611ba5565b73ffffffffffffffffffffffffffffffffffffffff918216600090815260056020908152604080832093909416825291909152205460ff1690565b60007f01ffc9a7a5cef8baa21ed3c5c0d7e23accb804b619e9333b597f47a0d84076e27f3899b238000000000000000000000000000000000000000000000000000000007fffffffff0000000000000000000000000000000000000000000000000000000084167f01ffc9a70000000000000000000000000000000000000000000000000000000014806103ac57507fffffffff00000000000000000000000000000000000000000000000000000000848116908216145b949350505050565b6060600080546103c390611bd8565b80601f01602080910402602001604051908101604052809291908181526020018280546103ef90611bd8565b801561043c5780601f106104115761010080835404028352916020019161043c565b820191906000526020600020905b81548152906001019060200180831161041f57829003601f168201915b5050505050905090565b60008181526002602052604081205473ffffffffffffffffffffffffffffffffffffffff166104e25760405162461bcd60e51b815260206004820152602c60248201527f4552433732313a20617070726f76656420717565727920666f72206e6f6e657860448201527f697374656e7420746f6b656e000000000000000000000000000000000000000060648201526084015b60405180910390fd5b5060009081526004602052604090205473ffffffffffffffffffffffffffffffffffffffff1690565b600061051682610871565b90508073ffffffffffffffffffffffffffffffffffffffff168373ffffffffffffffffffffffffffffffffffffffff1614156105ba5760405162461bcd60e51b815260206004820152602160248201527f4552433732313a20617070726f76616c20746f2063757272656e74206f776e6560448201527f720000000000000000000000000000000000000000000000000000000000000060648201526084016104d9565b3373ffffffffffffffffffffffffffffffffffffffff821614806105e357506105e381336102b9565b6106555760405162461bcd60e51b815260206004820152603860248201527f4552433732313a20617070726f76652063616c6c6572206973206e6f74206f7760448201527f6e6572206e6f7220617070726f76656420666f7220616c6c000000000000000060648201526084016104d9565b61065f8383610cf5565b505050565b61066e3382610d95565b6106e05760405162461bcd60e51b815260206004820152603160248201527f4552433732313a207472616e736665722063616c6c6572206973206e6f74206f60448201527f776e6572206e6f7220617070726f76656400000000000000000000000000000060648201526084016104d9565b61065f838383610ee7565b60085473ffffffffffffffffffffffffffffffffffffffff1633146107525760405162461bcd60e51b815260206004820181905260248201527f4f6e6c79204c31204272696467652063616e206d696e7420616e64206275726e60448201526064016104d9565b61075c828261111a565b8173ffffffffffffffffffffffffffffffffffffffff167f0f6798a560793a54c3bcfe86a93cde1e73087d944c0ea20544137d4121396885826040516107a491815260200190565b60405180910390a25050565b61065f83838360405180602001604052806000815250610acf565b60085473ffffffffffffffffffffffffffffffffffffffff1633146108325760405162461bcd60e51b815260206004820181905260248201527f4f6e6c79204c31204272696467652063616e206d696e7420616e64206275726e60448201526064016104d9565b61083b816112a8565b6040518181527fb90306ad06b2a6ff86ddc9327db583062895ef6540e62dc50add009db5b356eb9060200160405180910390a150565b60008181526002602052604081205473ffffffffffffffffffffffffffffffffffffffff16806109095760405162461bcd60e51b815260206004820152602960248201527f4552433732313a206f776e657220717565727920666f72206e6f6e657869737460448201527f656e7420746f6b656e000000000000000000000000000000000000000000000060648201526084016104d9565b92915050565b600073ffffffffffffffffffffffffffffffffffffffff821661099a5760405162461bcd60e51b815260206004820152602a60248201527f4552433732313a2062616c616e636520717565727920666f7220746865207a6560448201527f726f20616464726573730000000000000000000000000000000000000000000060648201526084016104d9565b5073ffffffffffffffffffffffffffffffffffffffff1660009081526003602052604090205490565b6060600180546103c390611bd8565b73ffffffffffffffffffffffffffffffffffffffff8216331415610a385760405162461bcd60e51b815260206004820152601960248201527f4552433732313a20617070726f766520746f2063616c6c65720000000000000060448201526064016104d9565b33600081815260056020908152604080832073ffffffffffffffffffffffffffffffffffffffff87168085529083529281902080547fffffffffffffffffffffffffffffffffffffffffffffffffffffffffffffff001686151590811790915590519081529192917f17307eab39ab6107e8899845ad3d59bd9653f200f220920489ca2b5937696c31910160405180910390a35050565b610ad93383610d95565b610b4b5760405162461bcd60e51b815260206004820152603160248201527f4552433732313a207472616e736665722063616c6c6572206973206e6f74206f60448201527f776e6572206e6f7220617070726f76656400000000000000000000000000000060648201526084016104d9565b610b57848484846112eb565b50505050565b60008181526002602052604090205460609073ffffffffffffffffffffffffffffffffffffffff16610bf75760405162461bcd60e51b815260206004820152603160248201527f45524337323155524953746f726167653a2055524920717565727920666f722060448201527f6e6f6e6578697374656e7420746f6b656e00000000000000000000000000000060648201526084016104d9565b60008281526006602052604081208054610c1090611bd8565b80601f0160208091040260200160405190810160405280929190818152602001828054610c3c90611bd8565b8015610c895780601f10610c5e57610100808354040283529160200191610c89565b820191906000526020600020905b815481529060010190602001808311610c6c57829003601f168201915b505050505090506000610ca760408051602081019091526000815290565b9050805160001415610cba575092915050565b815115610cec578082604051602001610cd4929190611c2c565b60405160208183030381529060405292505050919050565b6103ac84611374565b600081815260046020526040902080547fffffffffffffffffffffffff00000000000000000000000000000000000000001673ffffffffffffffffffffffffffffffffffffffff84169081179091558190610d4f82610871565b73ffffffffffffffffffffffffffffffffffffffff167f8c5be1e5ebec7d5bd14f71427d1e84f3dd0314c0f7b2291e5b200ac8c7c3b92560405160405180910390a45050565b60008181526002602052604081205473ffffffffffffffffffffffffffffffffffffffff16610e2c5760405162461bcd60e51b815260206004820152602c60248201527f4552433732313a206f70657261746f7220717565727920666f72206e6f6e657860448201527f697374656e7420746f6b656e000000000000000000000000000000000000000060648201526084016104d9565b6000610e3783610871565b90508073ffffffffffffffffffffffffffffffffffffffff168473ffffffffffffffffffffffffffffffffffffffff161480610ea657508373ffffffffffffffffffffffffffffffffffffffff16610e8e84610446565b73ffffffffffffffffffffffffffffffffffffffff16145b806103ac575073ffffffffffffffffffffffffffffffffffffffff80821660009081526005602090815260408083209388168352929052205460ff166103ac565b8273ffffffffffffffffffffffffffffffffffffffff16610f0782610871565b73ffffffffffffffffffffffffffffffffffffffff1614610f905760405162461bcd60e51b815260206004820152602960248201527f4552433732313a207472616e73666572206f6620746f6b656e2074686174206960448201527f73206e6f74206f776e000000000000000000000000000000000000000000000060648201526084016104d9565b73ffffffffffffffffffffffffffffffffffffffff82166110185760405162461bcd60e51b8152602060048201526024808201527f4552433732313a207472616e7366657220746f20746865207a65726f2061646460448201527f726573730000000000000000000000000000000000000000000000000000000060648201526084016104d9565b611023600082610cf5565b73ffffffffffffffffffffffffffffffffffffffff83166000908152600360205260408120805460019290611059908490611c8a565b909155505073ffffffffffffffffffffffffffffffffffffffff82166000908152600360205260408120805460019290611094908490611ca1565b909155505060008181526002602052604080822080547fffffffffffffffffffffffff00000000000000000000000000000000000000001673ffffffffffffffffffffffffffffffffffffffff86811691821790925591518493918716917fddf252ad1be2c89b69c2b068fc378daa952ba7f163c4a11628f55a4df523b3ef91a4505050565b73ffffffffffffffffffffffffffffffffffffffff821661117d5760405162461bcd60e51b815260206004820181905260248201527f4552433732313a206d696e7420746f20746865207a65726f206164647265737360448201526064016104d9565b60008181526002602052604090205473ffffffffffffffffffffffffffffffffffffffff16156111ef5760405162461bcd60e51b815260206004820152601c60248201527f4552433732313a20746f6b656e20616c7265616479206d696e7465640000000060448201526064016104d9565b73ffffffffffffffffffffffffffffffffffffffff82166000908152600360205260408120805460019290611225908490611ca1565b909155505060008181526002602052604080822080547fffffffffffffffffffffffff00000000000000000000000000000000000000001673ffffffffffffffffffffffffffffffffffffffff861690811790915590518392907fddf252ad1be2c89b69c2b068fc378daa952ba7f163c4a11628f55a4df523b3ef908290a45050565b6112b181611477565b600081815260066020526040902080546112ca90611bd8565b1590506112e85760008181526006602052604081206112e89161185b565b50565b6112f6848484610ee7565b61130284848484611544565b610b575760405162461bcd60e51b815260206004820152603260248201527f4552433732313a207472616e7366657220746f206e6f6e20455243373231526560448201527f63656976657220696d706c656d656e746572000000000000000000000000000060648201526084016104d9565b60008181526002602052604090205460609073ffffffffffffffffffffffffffffffffffffffff1661140e5760405162461bcd60e51b815260206004820152602f60248201527f4552433732314d657461646174613a2055524920717565727920666f72206e6f60448201527f6e6578697374656e7420746f6b656e000000000000000000000000000000000060648201526084016104d9565b600061142560408051602081019091526000815290565b905060008151116114455760405180602001604052806000815250611470565b8061144f84611729565b604051602001611460929190611c2c565b6040516020818303038152906040525b9392505050565b600061148282610871565b905061148f600083610cf5565b73ffffffffffffffffffffffffffffffffffffffff811660009081526003602052604081208054600192906114c5908490611c8a565b909155505060008281526002602052604080822080547fffffffffffffffffffffffff00000000000000000000000000000000000000001690555183919073ffffffffffffffffffffffffffffffffffffffff8416907fddf252ad1be2c89b69c2b068fc378daa952ba7f163c4a11628f55a4df523b3ef908390a45050565b600073ffffffffffffffffffffffffffffffffffffffff84163b1561171e576040517f150b7a0200000000000000000000000000000000000000000000000000000000815273ffffffffffffffffffffffffffffffffffffffff85169063150b7a02906115bb903390899088908890600401611cb9565b602060405180830381600087803b1580156115d557600080fd5b505af1925050508015611623575060408051601f3d9081017fffffffffffffffffffffffffffffffffffffffffffffffffffffffffffffffe016820190925261162091810190611d02565b60015b6116d3573d808015611651576040519150601f19603f3d011682016040523d82523d6000602084013e611656565b606091505b5080516116cb5760405162461bcd60e51b815260206004820152603260248201527f4552433732313a207472616e7366657220746f206e6f6e20455243373231526560448201527f63656976657220696d706c656d656e746572000000000000000000000000000060648201526084016104d9565b805181602001fd5b7fffffffff00000000000000000000000000000000000000000000000000000000167f150b7a02000000000000000000000000000000000000000000000000000000001490506103ac565b506001949350505050565b60608161176957505060408051808201909152600181527f3000000000000000000000000000000000000000000000000000000000000000602082015290565b8160005b8115611793578061177d81611d1f565b915061178c9050600a83611d87565b915061176d565b60008167ffffffffffffffff8111156117ae576117ae611a7c565b6040519080825280601f01601f1916602001820160405280156117d8576020820181803683370190505b5090505b84156103ac576117ed600183611c8a565b91506117fa600a86611d9b565b611805906030611ca1565b60f81b81838151811061181a5761181a611daf565b60200101907effffffffffffffffffffffffffffffffffffffffffffffffffffffffffffff1916908160001a905350611854600a86611d87565b94506117dc565b50805461186790611bd8565b6000825580601f10611877575050565b601f0160209004906000526020600020908101906112e891905b808211156118a55760008155600101611891565b5090565b7fffffffff00000000000000000000000000000000000000000000000000000000811681146112e857600080fd5b6000602082840312156118e957600080fd5b8135611470816118a9565b60005b8381101561190f5781810151838201526020016118f7565b83811115610b575750506000910152565b600081518084526119388160208601602086016118f4565b601f017fffffffffffffffffffffffffffffffffffffffffffffffffffffffffffffffe0169290920160200192915050565b6020815260006114706020830184611920565b60006020828403121561198f57600080fd5b5035919050565b803573ffffffffffffffffffffffffffffffffffffffff811681146119ba57600080fd5b919050565b600080604083850312156119d257600080fd5b6119db83611996565b946020939093013593505050565b6000806000606084860312156119fe57600080fd5b611a0784611996565b9250611a1560208501611996565b9150604084013590509250925092565b600060208284031215611a3757600080fd5b61147082611996565b60008060408385031215611a5357600080fd5b611a5c83611996565b915060208301358015158114611a7157600080fd5b809150509250929050565b7f4e487b7100000000000000000000000000000000000000000000000000000000600052604160045260246000fd5b60008060008060808587031215611ac157600080fd5b611aca85611996565b9350611ad860208601611996565b925060408501359150606085013567ffffffffffffffff80821115611afc57600080fd5b818701915087601f830112611b1057600080fd5b813581811115611b2257611b22611a7c565b604051601f82017fffffffffffffffffffffffffffffffffffffffffffffffffffffffffffffffe0908116603f01168101908382118183101715611b6857611b68611a7c565b816040528281528a6020848701011115611b8157600080fd5b82602086016020830137600060208483010152809550505050505092959194509250565b60008060408385031215611bb857600080fd5b611bc183611996565b9150611bcf60208401611996565b90509250929050565b600181811c90821680611bec57607f821691505b60208210811415611c26577f4e487b7100000000000000000000000000000000000000000000000000000000600052602260045260246000fd5b50919050565b60008351611c3e8184602088016118f4565b835190830190611c528183602088016118f4565b01949350505050565b7f4e487b7100000000000000000000000000000000000000000000000000000000600052601160045260246000fd5b600082821015611c9c57611c9c611c5b565b500390565b60008219821115611cb457611cb4611c5b565b500190565b600073ffffffffffffffffffffffffffffffffffffffff808716835280861660208401525083604083015260806060830152611cf86080830184611920565b9695505050505050565b600060208284031215611d1457600080fd5b8151611470816118a9565b60007fffffffffffffffffffffffffffffffffffffffffffffffffffffffffffffffff821415611d5157611d51611c5b565b5060010190565b7f4e487b7100000000000000000000000000000000000000000000000000000000600052601260045260246000fd5b600082611d9657611d96611d58565b500490565b600082611daa57611daa611d58565b500690565b7f4e487b7100000000000000000000000000000000000000000000000000000000600052603260045260246000fdfea164736f6c6343000809000a",
  "linkReferences": {},
  "deployedLinkReferences": {}
}