{
  "contracts/TuringHelper.sol": {
    "TuringHelper": {
      "abi": [
        {
          "inputs": [],
          "stateMutability": "nonpayable",
          "type": "constructor"
        },
        {
          "anonymous": false,
          "inputs": [
            {
              "indexed": false,
              "internalType": "address",
              "name": "_callerAddress",
              "type": "address"
            }
          ],
          "name": "AddPermittedCaller",
          "type": "event"
        },
        {
          "anonymous": false,
          "inputs": [
            {
              "indexed": false,
              "internalType": "address",
              "name": "_callerAddress",
              "type": "address"
            },
            {
              "indexed": false,
              "internalType": "bool",
              "name": "permitted",
              "type": "bool"
            }
          ],
          "name": "CheckPermittedCaller",
          "type": "event"
        },
        {
          "anonymous": false,
          "inputs": [
            {
              "indexed": false,
              "internalType": "uint256",
              "name": "version",
              "type": "uint256"
            },
            {
              "indexed": false,
              "internalType": "uint256",
              "name": "random",
              "type": "uint256"
            }
          ],
          "name": "Offchain42",
          "type": "event"
        },
        {
          "anonymous": false,
          "inputs": [
            {
              "indexed": false,
              "internalType": "uint256",
              "name": "version",
              "type": "uint256"
            },
            {
              "indexed": false,
              "internalType": "uint256",
              "name": "random",
              "type": "uint256"
            }
          ],
          "name": "OffchainRandom",
          "type": "event"
        },
        {
          "anonymous": false,
          "inputs": [
            {
              "indexed": false,
              "internalType": "uint256",
              "name": "version",
              "type": "uint256"
            },
            {
              "indexed": false,
              "internalType": "bytes",
              "name": "responseData",
              "type": "bytes"
            }
          ],
          "name": "OffchainResponse",
          "type": "event"
        },
        {
          "anonymous": false,
          "inputs": [
            {
              "indexed": true,
              "internalType": "address",
              "name": "previousOwner",
              "type": "address"
            },
            {
              "indexed": true,
              "internalType": "address",
              "name": "newOwner",
              "type": "address"
            }
          ],
          "name": "OwnershipTransferred",
          "type": "event"
        },
        {
          "anonymous": false,
          "inputs": [
            {
              "indexed": false,
              "internalType": "address",
              "name": "_callerAddress",
              "type": "address"
            }
          ],
          "name": "RemovePermittedCaller",
          "type": "event"
        },
        {
          "inputs": [
            {
              "internalType": "uint32",
              "name": "rType",
              "type": "uint32"
            },
            {
              "internalType": "uint256",
              "name": "_random",
              "type": "uint256"
            }
          ],
          "name": "Get42",
          "outputs": [
            {
              "internalType": "uint256",
              "name": "",
              "type": "uint256"
            }
          ],
          "stateMutability": "nonpayable",
          "type": "function"
        },
        {
          "inputs": [
            {
              "internalType": "uint32",
              "name": "rType",
              "type": "uint32"
            },
            {
              "internalType": "uint256",
              "name": "_random",
              "type": "uint256"
            }
          ],
          "name": "GetRandom",
          "outputs": [
            {
              "internalType": "uint256",
              "name": "",
              "type": "uint256"
            }
          ],
          "stateMutability": "nonpayable",
          "type": "function"
        },
        {
          "inputs": [
            {
              "internalType": "uint32",
              "name": "rType",
              "type": "uint32"
            },
            {
              "internalType": "string",
              "name": "_url",
              "type": "string"
            },
            {
              "internalType": "bytes",
              "name": "_payload",
              "type": "bytes"
            }
          ],
          "name": "GetResponse",
          "outputs": [
            {
              "internalType": "bytes",
              "name": "",
              "type": "bytes"
            }
          ],
          "stateMutability": "nonpayable",
          "type": "function"
        },
        {
          "inputs": [],
          "name": "Turing42",
          "outputs": [
            {
              "internalType": "uint256",
              "name": "",
              "type": "uint256"
            }
          ],
          "stateMutability": "nonpayable",
          "type": "function"
        },
        {
          "inputs": [],
          "name": "TuringRandom",
          "outputs": [
            {
              "internalType": "uint256",
              "name": "",
              "type": "uint256"
            }
          ],
          "stateMutability": "nonpayable",
          "type": "function"
        },
        {
          "inputs": [
            {
              "internalType": "string",
              "name": "_url",
              "type": "string"
            },
            {
              "internalType": "bytes",
              "name": "_payload",
              "type": "bytes"
            }
          ],
          "name": "TuringTx",
          "outputs": [
            {
              "internalType": "bytes",
              "name": "",
              "type": "bytes"
            }
          ],
          "stateMutability": "nonpayable",
          "type": "function"
        },
        {
          "inputs": [
            {
              "internalType": "address",
              "name": "_callerAddress",
              "type": "address"
            }
          ],
          "name": "addPermittedCaller",
          "outputs": [],
          "stateMutability": "nonpayable",
          "type": "function"
        },
        {
          "inputs": [
            {
              "internalType": "address",
              "name": "_callerAddress",
              "type": "address"
            }
          ],
          "name": "checkPermittedCaller",
          "outputs": [
            {
              "internalType": "bool",
              "name": "",
              "type": "bool"
            }
          ],
          "stateMutability": "nonpayable",
          "type": "function"
        },
        {
          "inputs": [],
          "name": "owner",
          "outputs": [
            {
              "internalType": "address",
              "name": "",
              "type": "address"
            }
          ],
          "stateMutability": "view",
          "type": "function"
        },
        {
          "inputs": [
            {
              "internalType": "address",
              "name": "",
              "type": "address"
            }
          ],
          "name": "permittedCaller",
          "outputs": [
            {
              "internalType": "bool",
              "name": "",
              "type": "bool"
            }
          ],
          "stateMutability": "view",
          "type": "function"
        },
        {
          "inputs": [
            {
              "internalType": "address",
              "name": "_callerAddress",
              "type": "address"
            }
          ],
          "name": "removePermittedCaller",
          "outputs": [],
          "stateMutability": "nonpayable",
          "type": "function"
        },
        {
          "inputs": [],
          "name": "renounceOwnership",
          "outputs": [],
          "stateMutability": "nonpayable",
          "type": "function"
        },
        {
          "inputs": [
            {
              "internalType": "bytes4",
              "name": "_interfaceId",
              "type": "bytes4"
            }
          ],
          "name": "supportsInterface",
          "outputs": [
            {
              "internalType": "bool",
              "name": "",
              "type": "bool"
            }
          ],
          "stateMutability": "pure",
          "type": "function"
        },
        {
          "inputs": [
            {
              "internalType": "address",
              "name": "newOwner",
              "type": "address"
            }
          ],
          "name": "transferOwnership",
          "outputs": [],
          "stateMutability": "nonpayable",
          "type": "function"
        }
      ],
      "evm": {
        "bytecode": {
          "linkReferences": {},
          "object": "608060405234801561001057600080fd5b5061001a33610031565b600180546001600160a01b03191630179055610081565b600080546001600160a01b038381166001600160a01b0319831681178455604051919092169283917f8be0079c531659141344cd1fd0a4f28419497f9722a3daafe3b4186f6b6457e09190a35050565b611478806100906000396000f3fe608060405234801561001057600080fd5b50600436106100ea5760003560e01c8063a432ee271161008c578063cbcd0c2c11610066578063cbcd0c2c146101d3578063e86f18991461014d578063f2f3fa07146101e6578063f2fde38b1461020957600080fd5b8063a432ee27146101a5578063aadebcb9146101b8578063b8d16056146101cb57600080fd5b8063493d57d6116100c8578063493d57d61461014d578063715018a6146101605780637d93616c1461016a5780638da5cb5b1461017d57600080fd5b806301ffc9a7146100ef5780632f7adf431461011757806345ff812a14610137575b600080fd5b6101026100fd366004611000565b61021c565b60405190151581526020015b60405180910390f35b61012a610125366004611163565b6102dc565b60405161010e9190611241565b61013f6104a8565b60405190815260200161010e565b61013f61015b366004611268565b6105fa565b6101686106aa565b005b61012a610178366004611292565b61071d565b60005460405173ffffffffffffffffffffffffffffffffffffffff909116815260200161010e565b6101686101b3366004611306565b61081f565b6101686101c6366004611306565b61090c565b61013f6109ef565b6101026101e1366004611306565b610b34565b6101026101f4366004611306565b60026020526000908152604090205460ff1681565b610168610217366004611306565b610ba4565b60007f01ffc9a7a5cef8baa21ed3c5c0d7e23accb804b619e9333b597f47a0d84076e27f2f7adf43000000000000000000000000000000000000000000000000000000007fffffffff0000000000000000000000000000000000000000000000000000000084167f01ffc9a70000000000000000000000000000000000000000000000000000000014806102d457507fffffffff00000000000000000000000000000000000000000000000000000000848116908216145b949350505050565b3360009081526002602052604090205460609060ff166103435760405162461bcd60e51b815260206004820152601660248201527f496e76616c69642043616c6c657220416464726573730000000000000000000060448201526064015b60405180910390fd5b60008251116103945760405162461bcd60e51b815260206004820152601a60248201527f547572696e673a547572696e6754783a6e6f207061796c6f6164000000000000604482015260640161033a565b600180546040517f7d93616c00000000000000000000000000000000000000000000000000000000815260009273ffffffffffffffffffffffffffffffffffffffff90921691637d93616c916103f191908890889060040161133c565b600060405180830381600087803b15801561040b57600080fd5b505af115801561041f573d6000803e3d6000fd5b505050506040513d6000823e601f3d9081017fffffffffffffffffffffffffffffffffffffffffffffffffffffffffffffffe01682016040526104659190810190611377565b90507ffde6d9b9b674fe8a495a825379378eb214e03439d12f342ac5e8af9768c1d85c6001826040516104999291906113ee565b60405180910390a19392505050565b3360009081526002602052604081205460ff166105075760405162461bcd60e51b815260206004820152601660248201527f496e76616c69642043616c6c6572204164647265737300000000000000000000604482015260640161033a565b600180546040517f493d57d600000000000000000000000000000000000000000000000000000000815260048101929092526000602483018190529173ffffffffffffffffffffffffffffffffffffffff9091169063493d57d690604401602060405180830381600087803b15801561057f57600080fd5b505af1158015610593573d6000803e3d6000fd5b505050506040513d601f19601f820116820180604052508101906105b79190611407565b6040805160018152602081018390529192507f450d62889c3a6e19c9586840ce9c21040b90d81950fe31f2ba982090adaf53e891015b60405180910390a1905090565b60003330146106715760405162461bcd60e51b815260206004820152602e60248201527f547572696e673a476574526573706f6e73653a6d73672e73656e64657220213d60448201527f2061646472657373287468697329000000000000000000000000000000000000606482015260840161033a565b8263ffffffff1660021461068484610ca0565b906106a25760405162461bcd60e51b815260040161033a9190611241565b509092915050565b60005473ffffffffffffffffffffffffffffffffffffffff1633146107115760405162461bcd60e51b815260206004820181905260248201527f4f776e61626c653a2063616c6c6572206973206e6f7420746865206f776e6572604482015260640161033a565b61071b6000610f8b565b565b60603330146107945760405162461bcd60e51b815260206004820152602e60248201527f547572696e673a476574526573706f6e73653a6d73672e73656e64657220213d60448201527f2061646472657373287468697329000000000000000000000000000000000000606482015260840161033a565b60008251116107e55760405162461bcd60e51b815260206004820152601d60248201527f547572696e673a476574526573706f6e73653a6e6f207061796c6f6164000000604482015260640161033a565b8363ffffffff166002146107f885610ca0565b906108165760405162461bcd60e51b815260040161033a9190611241565b50909392505050565b60005473ffffffffffffffffffffffffffffffffffffffff1633146108865760405162461bcd60e51b815260206004820181905260248201527f4f776e61626c653a2063616c6c6572206973206e6f7420746865206f776e6572604482015260640161033a565b73ffffffffffffffffffffffffffffffffffffffff811660008181526002602090815260409182902080547fffffffffffffffffffffffffffffffffffffffffffffffffffffffffffffff0016600117905590519182527f9ce84a7ab8065f5f6f23c19be05400b2edbabf71e4b29837f56a016c951b97d291015b60405180910390a150565b60005473ffffffffffffffffffffffffffffffffffffffff1633146109735760405162461bcd60e51b815260206004820181905260248201527f4f776e61626c653a2063616c6c6572206973206e6f7420746865206f776e6572604482015260640161033a565b73ffffffffffffffffffffffffffffffffffffffff811660008181526002602090815260409182902080547fffffffffffffffffffffffffffffffffffffffffffffffffffffffffffffff0016905590519182527feacddceebef9fdf16961c5dba55871a098bd93be9160335139bdeb226537c6ed9101610901565b3360009081526002602052604081205460ff16610a4e5760405162461bcd60e51b815260206004820152601660248201527f496e76616c69642043616c6c6572204164647265737300000000000000000000604482015260640161033a565b6001546040517fe86f189900000000000000000000000000000000000000000000000000000000815260026004820152602a602482015260009173ffffffffffffffffffffffffffffffffffffffff169063e86f189990604401602060405180830381600087803b158015610ac257600080fd5b505af1158015610ad6573d6000803e3d6000fd5b505050506040513d601f19601f82011682018060405250810190610afa9190611407565b6040805160018152602081018390529192507fcf56007112ef7f986f258f82114b449a536da425cefac3982f64e306b07c792191016105ed565b73ffffffffffffffffffffffffffffffffffffffff8116600081815260026020908152604080832054815194855260ff1680151592850192909252919290917fabf082f4a354a0ea137bf1c9b0f6660d1340b3f84e293fb4a4cb01c7602c3962910160405180910390a192915050565b60005473ffffffffffffffffffffffffffffffffffffffff163314610c0b5760405162461bcd60e51b815260206004820181905260248201527f4f776e61626c653a2063616c6c6572206973206e6f7420746865206f776e6572604482015260640161033a565b73ffffffffffffffffffffffffffffffffffffffff8116610c945760405162461bcd60e51b815260206004820152602660248201527f4f776e61626c653a206e6577206f776e657220697320746865207a65726f206160448201527f6464726573730000000000000000000000000000000000000000000000000000606482015260840161033a565b610c9d81610f8b565b50565b60608163ffffffff1660011415610cea57505060408051808201909152601e81527f545552494e473a204765746820696e74657263657074206661696c7572650000602082015290565b8163ffffffff16600a1415610d3257505060408051808201909152601d81527f545552494e473a20496e636f727265637420696e707574207374617465000000602082015290565b8163ffffffff16600b1415610d7a57505060408051808201909152601a81527f545552494e473a2043616c6c6461746120746f6f2073686f7274000000000000602082015290565b8163ffffffff16600c1415610dc257505060408051808201909152601581527f545552494e473a2055524c203e36342062797465730000000000000000000000602082015290565b8163ffffffff16600d1415610e0a57505060408051808201909152601481527f545552494e473a20536572766572206572726f72000000000000000000000000602082015290565b8163ffffffff16600e1415610e38576040518060600160405280602881526020016114216028913992915050565b8163ffffffff16600f1415610e66576040518060600160405280602381526020016114496023913992915050565b8163ffffffff1660101415610eae57505060408051808201909152601381527f545552494e473a20524e47206661696c75726500000000000000000000000000602082015290565b8163ffffffff1660111415610ef657505060408051808201909152601f81527f545552494e473a2041504920526573706f6e7365203e33323220636861727300602082015290565b8163ffffffff1660121415610f3e57505060408051808201909152601f81527f545552494e473a2041504920526573706f6e7365203e31363020627974657300602082015290565b8163ffffffff1660131415610f8657505060408051808201909152601b81527f545552494e473a20496e73756666696369656e74206372656469740000000000602082015290565b919050565b6000805473ffffffffffffffffffffffffffffffffffffffff8381167fffffffffffffffffffffffff0000000000000000000000000000000000000000831681178455604051919092169283917f8be0079c531659141344cd1fd0a4f28419497f9722a3daafe3b4186f6b6457e09190a35050565b60006020828403121561101257600080fd5b81357fffffffff000000000000000000000000000000000000000000000000000000008116811461104257600080fd5b9392505050565b7f4e487b7100000000000000000000000000000000000000000000000000000000600052604160045260246000fd5b604051601f82017fffffffffffffffffffffffffffffffffffffffffffffffffffffffffffffffe016810167ffffffffffffffff811182821017156110bf576110bf611049565b604052919050565b600067ffffffffffffffff8211156110e1576110e1611049565b50601f017fffffffffffffffffffffffffffffffffffffffffffffffffffffffffffffffe01660200190565b600082601f83011261111e57600080fd5b813561113161112c826110c7565b611078565b81815284602083860101111561114657600080fd5b816020850160208301376000918101602001919091529392505050565b6000806040838503121561117657600080fd5b823567ffffffffffffffff8082111561118e57600080fd5b61119a8683870161110d565b935060208501359150808211156111b057600080fd5b506111bd8582860161110d565b9150509250929050565b60005b838110156111e25781810151838201526020016111ca565b838111156111f1576000848401525b50505050565b6000815180845261120f8160208601602086016111c7565b601f017fffffffffffffffffffffffffffffffffffffffffffffffffffffffffffffffe0169290920160200192915050565b60208152600061104260208301846111f7565b803563ffffffff81168114610f8657600080fd5b6000806040838503121561127b57600080fd5b61128483611254565b946020939093013593505050565b6000806000606084860312156112a757600080fd5b6112b084611254565b9250602084013567ffffffffffffffff808211156112cd57600080fd5b6112d98783880161110d565b935060408601359150808211156112ef57600080fd5b506112fc8682870161110d565b9150509250925092565b60006020828403121561131857600080fd5b813573ffffffffffffffffffffffffffffffffffffffff8116811461104257600080fd5b63ffffffff8416815260606020820152600061135b60608301856111f7565b828103604084015261136d81856111f7565b9695505050505050565b60006020828403121561138957600080fd5b815167ffffffffffffffff8111156113a057600080fd5b8201601f810184136113b157600080fd5b80516113bf61112c826110c7565b8181528560208385010111156113d457600080fd5b6113e58260208301602086016111c7565b95945050505050565b8281526040602082015260006102d460408301846111f7565b60006020828403121561141957600080fd5b505191905056fe545552494e473a20436f756c64206e6f74206465636f64652073657276657220726573706f6e7365545552494e473a20436f756c64206e6f74206372656174652072706320636c69656e74a164736f6c6343000809000a",
          "opcodes": "PUSH1 0x80 PUSH1 0x40 MSTORE CALLVALUE DUP1 ISZERO PUSH2 0x10 JUMPI PUSH1 0x0 DUP1 REVERT JUMPDEST POP PUSH2 0x1A CALLER PUSH2 0x31 JUMP JUMPDEST PUSH1 0x1 DUP1 SLOAD PUSH1 0x1 PUSH1 0x1 PUSH1 0xA0 SHL SUB NOT AND ADDRESS OR SWAP1 SSTORE PUSH2 0x81 JUMP JUMPDEST PUSH1 0x0 DUP1 SLOAD PUSH1 0x1 PUSH1 0x1 PUSH1 0xA0 SHL SUB DUP4 DUP2 AND PUSH1 0x1 PUSH1 0x1 PUSH1 0xA0 SHL SUB NOT DUP4 AND DUP2 OR DUP5 SSTORE PUSH1 0x40 MLOAD SWAP2 SWAP1 SWAP3 AND SWAP3 DUP4 SWAP2 PUSH32 0x8BE0079C531659141344CD1FD0A4F28419497F9722A3DAAFE3B4186F6B6457E0 SWAP2 SWAP1 LOG3 POP POP JUMP JUMPDEST PUSH2 0x1478 DUP1 PUSH2 0x90 PUSH1 0x0 CODECOPY PUSH1 0x0 RETURN INVALID PUSH1 0x80 PUSH1 0x40 MSTORE CALLVALUE DUP1 ISZERO PUSH2 0x10 JUMPI PUSH1 0x0 DUP1 REVERT JUMPDEST POP PUSH1 0x4 CALLDATASIZE LT PUSH2 0xEA JUMPI PUSH1 0x0 CALLDATALOAD PUSH1 0xE0 SHR DUP1 PUSH4 0xA432EE27 GT PUSH2 0x8C JUMPI DUP1 PUSH4 0xCBCD0C2C GT PUSH2 0x66 JUMPI DUP1 PUSH4 0xCBCD0C2C EQ PUSH2 0x1D3 JUMPI DUP1 PUSH4 0xE86F1899 EQ PUSH2 0x14D JUMPI DUP1 PUSH4 0xF2F3FA07 EQ PUSH2 0x1E6 JUMPI DUP1 PUSH4 0xF2FDE38B EQ PUSH2 0x209 JUMPI PUSH1 0x0 DUP1 REVERT JUMPDEST DUP1 PUSH4 0xA432EE27 EQ PUSH2 0x1A5 JUMPI DUP1 PUSH4 0xAADEBCB9 EQ PUSH2 0x1B8 JUMPI DUP1 PUSH4 0xB8D16056 EQ PUSH2 0x1CB JUMPI PUSH1 0x0 DUP1 REVERT JUMPDEST DUP1 PUSH4 0x493D57D6 GT PUSH2 0xC8 JUMPI DUP1 PUSH4 0x493D57D6 EQ PUSH2 0x14D JUMPI DUP1 PUSH4 0x715018A6 EQ PUSH2 0x160 JUMPI DUP1 PUSH4 0x7D93616C EQ PUSH2 0x16A JUMPI DUP1 PUSH4 0x8DA5CB5B EQ PUSH2 0x17D JUMPI PUSH1 0x0 DUP1 REVERT JUMPDEST DUP1 PUSH4 0x1FFC9A7 EQ PUSH2 0xEF JUMPI DUP1 PUSH4 0x2F7ADF43 EQ PUSH2 0x117 JUMPI DUP1 PUSH4 0x45FF812A EQ PUSH2 0x137 JUMPI JUMPDEST PUSH1 0x0 DUP1 REVERT JUMPDEST PUSH2 0x102 PUSH2 0xFD CALLDATASIZE PUSH1 0x4 PUSH2 0x1000 JUMP JUMPDEST PUSH2 0x21C JUMP JUMPDEST PUSH1 0x40 MLOAD SWAP1 ISZERO ISZERO DUP2 MSTORE PUSH1 0x20 ADD JUMPDEST PUSH1 0x40 MLOAD DUP1 SWAP2 SUB SWAP1 RETURN JUMPDEST PUSH2 0x12A PUSH2 0x125 CALLDATASIZE PUSH1 0x4 PUSH2 0x1163 JUMP JUMPDEST PUSH2 0x2DC JUMP JUMPDEST PUSH1 0x40 MLOAD PUSH2 0x10E SWAP2 SWAP1 PUSH2 0x1241 JUMP JUMPDEST PUSH2 0x13F PUSH2 0x4A8 JUMP JUMPDEST PUSH1 0x40 MLOAD SWAP1 DUP2 MSTORE PUSH1 0x20 ADD PUSH2 0x10E JUMP JUMPDEST PUSH2 0x13F PUSH2 0x15B CALLDATASIZE PUSH1 0x4 PUSH2 0x1268 JUMP JUMPDEST PUSH2 0x5FA JUMP JUMPDEST PUSH2 0x168 PUSH2 0x6AA JUMP JUMPDEST STOP JUMPDEST PUSH2 0x12A PUSH2 0x178 CALLDATASIZE PUSH1 0x4 PUSH2 0x1292 JUMP JUMPDEST PUSH2 0x71D JUMP JUMPDEST PUSH1 0x0 SLOAD PUSH1 0x40 MLOAD PUSH20 0xFFFFFFFFFFFFFFFFFFFFFFFFFFFFFFFFFFFFFFFF SWAP1 SWAP2 AND DUP2 MSTORE PUSH1 0x20 ADD PUSH2 0x10E JUMP JUMPDEST PUSH2 0x168 PUSH2 0x1B3 CALLDATASIZE PUSH1 0x4 PUSH2 0x1306 JUMP JUMPDEST PUSH2 0x81F JUMP JUMPDEST PUSH2 0x168 PUSH2 0x1C6 CALLDATASIZE PUSH1 0x4 PUSH2 0x1306 JUMP JUMPDEST PUSH2 0x90C JUMP JUMPDEST PUSH2 0x13F PUSH2 0x9EF JUMP JUMPDEST PUSH2 0x102 PUSH2 0x1E1 CALLDATASIZE PUSH1 0x4 PUSH2 0x1306 JUMP JUMPDEST PUSH2 0xB34 JUMP JUMPDEST PUSH2 0x102 PUSH2 0x1F4 CALLDATASIZE PUSH1 0x4 PUSH2 0x1306 JUMP JUMPDEST PUSH1 0x2 PUSH1 0x20 MSTORE PUSH1 0x0 SWAP1 DUP2 MSTORE PUSH1 0x40 SWAP1 KECCAK256 SLOAD PUSH1 0xFF AND DUP2 JUMP JUMPDEST PUSH2 0x168 PUSH2 0x217 CALLDATASIZE PUSH1 0x4 PUSH2 0x1306 JUMP JUMPDEST PUSH2 0xBA4 JUMP JUMPDEST PUSH1 0x0 PUSH32 0x1FFC9A7A5CEF8BAA21ED3C5C0D7E23ACCB804B619E9333B597F47A0D84076E2 PUSH32 0x2F7ADF4300000000000000000000000000000000000000000000000000000000 PUSH32 0xFFFFFFFF00000000000000000000000000000000000000000000000000000000 DUP5 AND PUSH32 0x1FFC9A700000000000000000000000000000000000000000000000000000000 EQ DUP1 PUSH2 0x2D4 JUMPI POP PUSH32 0xFFFFFFFF00000000000000000000000000000000000000000000000000000000 DUP5 DUP2 AND SWAP1 DUP3 AND EQ JUMPDEST SWAP5 SWAP4 POP POP POP POP JUMP JUMPDEST CALLER PUSH1 0x0 SWAP1 DUP2 MSTORE PUSH1 0x2 PUSH1 0x20 MSTORE PUSH1 0x40 SWAP1 KECCAK256 SLOAD PUSH1 0x60 SWAP1 PUSH1 0xFF AND PUSH2 0x343 JUMPI PUSH1 0x40 MLOAD PUSH3 0x461BCD PUSH1 0xE5 SHL DUP2 MSTORE PUSH1 0x20 PUSH1 0x4 DUP3 ADD MSTORE PUSH1 0x16 PUSH1 0x24 DUP3 ADD MSTORE PUSH32 0x496E76616C69642043616C6C6572204164647265737300000000000000000000 PUSH1 0x44 DUP3 ADD MSTORE PUSH1 0x64 ADD JUMPDEST PUSH1 0x40 MLOAD DUP1 SWAP2 SUB SWAP1 REVERT JUMPDEST PUSH1 0x0 DUP3 MLOAD GT PUSH2 0x394 JUMPI PUSH1 0x40 MLOAD PUSH3 0x461BCD PUSH1 0xE5 SHL DUP2 MSTORE PUSH1 0x20 PUSH1 0x4 DUP3 ADD MSTORE PUSH1 0x1A PUSH1 0x24 DUP3 ADD MSTORE PUSH32 0x547572696E673A547572696E6754783A6E6F207061796C6F6164000000000000 PUSH1 0x44 DUP3 ADD MSTORE PUSH1 0x64 ADD PUSH2 0x33A JUMP JUMPDEST PUSH1 0x1 DUP1 SLOAD PUSH1 0x40 MLOAD PUSH32 0x7D93616C00000000000000000000000000000000000000000000000000000000 DUP2 MSTORE PUSH1 0x0 SWAP3 PUSH20 0xFFFFFFFFFFFFFFFFFFFFFFFFFFFFFFFFFFFFFFFF SWAP1 SWAP3 AND SWAP2 PUSH4 0x7D93616C SWAP2 PUSH2 0x3F1 SWAP2 SWAP1 DUP9 SWAP1 DUP9 SWAP1 PUSH1 0x4 ADD PUSH2 0x133C JUMP JUMPDEST PUSH1 0x0 PUSH1 0x40 MLOAD DUP1 DUP4 SUB DUP2 PUSH1 0x0 DUP8 DUP1 EXTCODESIZE ISZERO DUP1 ISZERO PUSH2 0x40B JUMPI PUSH1 0x0 DUP1 REVERT JUMPDEST POP GAS CALL ISZERO DUP1 ISZERO PUSH2 0x41F JUMPI RETURNDATASIZE PUSH1 0x0 DUP1 RETURNDATACOPY RETURNDATASIZE PUSH1 0x0 REVERT JUMPDEST POP POP POP POP PUSH1 0x40 MLOAD RETURNDATASIZE PUSH1 0x0 DUP3 RETURNDATACOPY PUSH1 0x1F RETURNDATASIZE SWAP1 DUP2 ADD PUSH32 0xFFFFFFFFFFFFFFFFFFFFFFFFFFFFFFFFFFFFFFFFFFFFFFFFFFFFFFFFFFFFFFE0 AND DUP3 ADD PUSH1 0x40 MSTORE PUSH2 0x465 SWAP2 SWAP1 DUP2 ADD SWAP1 PUSH2 0x1377 JUMP JUMPDEST SWAP1 POP PUSH32 0xFDE6D9B9B674FE8A495A825379378EB214E03439D12F342AC5E8AF9768C1D85C PUSH1 0x1 DUP3 PUSH1 0x40 MLOAD PUSH2 0x499 SWAP3 SWAP2 SWAP1 PUSH2 0x13EE JUMP JUMPDEST PUSH1 0x40 MLOAD DUP1 SWAP2 SUB SWAP1 LOG1 SWAP4 SWAP3 POP POP POP JUMP JUMPDEST CALLER PUSH1 0x0 SWAP1 DUP2 MSTORE PUSH1 0x2 PUSH1 0x20 MSTORE PUSH1 0x40 DUP2 KECCAK256 SLOAD PUSH1 0xFF AND PUSH2 0x507 JUMPI PUSH1 0x40 MLOAD PUSH3 0x461BCD PUSH1 0xE5 SHL DUP2 MSTORE PUSH1 0x20 PUSH1 0x4 DUP3 ADD MSTORE PUSH1 0x16 PUSH1 0x24 DUP3 ADD MSTORE PUSH32 0x496E76616C69642043616C6C6572204164647265737300000000000000000000 PUSH1 0x44 DUP3 ADD MSTORE PUSH1 0x64 ADD PUSH2 0x33A JUMP JUMPDEST PUSH1 0x1 DUP1 SLOAD PUSH1 0x40 MLOAD PUSH32 0x493D57D600000000000000000000000000000000000000000000000000000000 DUP2 MSTORE PUSH1 0x4 DUP2 ADD SWAP3 SWAP1 SWAP3 MSTORE PUSH1 0x0 PUSH1 0x24 DUP4 ADD DUP2 SWAP1 MSTORE SWAP2 PUSH20 0xFFFFFFFFFFFFFFFFFFFFFFFFFFFFFFFFFFFFFFFF SWAP1 SWAP2 AND SWAP1 PUSH4 0x493D57D6 SWAP1 PUSH1 0x44 ADD PUSH1 0x20 PUSH1 0x40 MLOAD DUP1 DUP4 SUB DUP2 PUSH1 0x0 DUP8 DUP1 EXTCODESIZE ISZERO DUP1 ISZERO PUSH2 0x57F JUMPI PUSH1 0x0 DUP1 REVERT JUMPDEST POP GAS CALL ISZERO DUP1 ISZERO PUSH2 0x593 JUMPI RETURNDATASIZE PUSH1 0x0 DUP1 RETURNDATACOPY RETURNDATASIZE PUSH1 0x0 REVERT JUMPDEST POP POP POP POP PUSH1 0x40 MLOAD RETURNDATASIZE PUSH1 0x1F NOT PUSH1 0x1F DUP3 ADD AND DUP3 ADD DUP1 PUSH1 0x40 MSTORE POP DUP2 ADD SWAP1 PUSH2 0x5B7 SWAP2 SWAP1 PUSH2 0x1407 JUMP JUMPDEST PUSH1 0x40 DUP1 MLOAD PUSH1 0x1 DUP2 MSTORE PUSH1 0x20 DUP2 ADD DUP4 SWAP1 MSTORE SWAP2 SWAP3 POP PUSH32 0x450D62889C3A6E19C9586840CE9C21040B90D81950FE31F2BA982090ADAF53E8 SWAP2 ADD JUMPDEST PUSH1 0x40 MLOAD DUP1 SWAP2 SUB SWAP1 LOG1 SWAP1 POP SWAP1 JUMP JUMPDEST PUSH1 0x0 CALLER ADDRESS EQ PUSH2 0x671 JUMPI PUSH1 0x40 MLOAD PUSH3 0x461BCD PUSH1 0xE5 SHL DUP2 MSTORE PUSH1 0x20 PUSH1 0x4 DUP3 ADD MSTORE PUSH1 0x2E PUSH1 0x24 DUP3 ADD MSTORE PUSH32 0x547572696E673A476574526573706F6E73653A6D73672E73656E64657220213D PUSH1 0x44 DUP3 ADD MSTORE PUSH32 0x2061646472657373287468697329000000000000000000000000000000000000 PUSH1 0x64 DUP3 ADD MSTORE PUSH1 0x84 ADD PUSH2 0x33A JUMP JUMPDEST DUP3 PUSH4 0xFFFFFFFF AND PUSH1 0x2 EQ PUSH2 0x684 DUP5 PUSH2 0xCA0 JUMP JUMPDEST SWAP1 PUSH2 0x6A2 JUMPI PUSH1 0x40 MLOAD PUSH3 0x461BCD PUSH1 0xE5 SHL DUP2 MSTORE PUSH1 0x4 ADD PUSH2 0x33A SWAP2 SWAP1 PUSH2 0x1241 JUMP JUMPDEST POP SWAP1 SWAP3 SWAP2 POP POP JUMP JUMPDEST PUSH1 0x0 SLOAD PUSH20 0xFFFFFFFFFFFFFFFFFFFFFFFFFFFFFFFFFFFFFFFF AND CALLER EQ PUSH2 0x711 JUMPI PUSH1 0x40 MLOAD PUSH3 0x461BCD PUSH1 0xE5 SHL DUP2 MSTORE PUSH1 0x20 PUSH1 0x4 DUP3 ADD DUP2 SWAP1 MSTORE PUSH1 0x24 DUP3 ADD MSTORE PUSH32 0x4F776E61626C653A2063616C6C6572206973206E6F7420746865206F776E6572 PUSH1 0x44 DUP3 ADD MSTORE PUSH1 0x64 ADD PUSH2 0x33A JUMP JUMPDEST PUSH2 0x71B PUSH1 0x0 PUSH2 0xF8B JUMP JUMPDEST JUMP JUMPDEST PUSH1 0x60 CALLER ADDRESS EQ PUSH2 0x794 JUMPI PUSH1 0x40 MLOAD PUSH3 0x461BCD PUSH1 0xE5 SHL DUP2 MSTORE PUSH1 0x20 PUSH1 0x4 DUP3 ADD MSTORE PUSH1 0x2E PUSH1 0x24 DUP3 ADD MSTORE PUSH32 0x547572696E673A476574526573706F6E73653A6D73672E73656E64657220213D PUSH1 0x44 DUP3 ADD MSTORE PUSH32 0x2061646472657373287468697329000000000000000000000000000000000000 PUSH1 0x64 DUP3 ADD MSTORE PUSH1 0x84 ADD PUSH2 0x33A JUMP JUMPDEST PUSH1 0x0 DUP3 MLOAD GT PUSH2 0x7E5 JUMPI PUSH1 0x40 MLOAD PUSH3 0x461BCD PUSH1 0xE5 SHL DUP2 MSTORE PUSH1 0x20 PUSH1 0x4 DUP3 ADD MSTORE PUSH1 0x1D PUSH1 0x24 DUP3 ADD MSTORE PUSH32 0x547572696E673A476574526573706F6E73653A6E6F207061796C6F6164000000 PUSH1 0x44 DUP3 ADD MSTORE PUSH1 0x64 ADD PUSH2 0x33A JUMP JUMPDEST DUP4 PUSH4 0xFFFFFFFF AND PUSH1 0x2 EQ PUSH2 0x7F8 DUP6 PUSH2 0xCA0 JUMP JUMPDEST SWAP1 PUSH2 0x816 JUMPI PUSH1 0x40 MLOAD PUSH3 0x461BCD PUSH1 0xE5 SHL DUP2 MSTORE PUSH1 0x4 ADD PUSH2 0x33A SWAP2 SWAP1 PUSH2 0x1241 JUMP JUMPDEST POP SWAP1 SWAP4 SWAP3 POP POP POP JUMP JUMPDEST PUSH1 0x0 SLOAD PUSH20 0xFFFFFFFFFFFFFFFFFFFFFFFFFFFFFFFFFFFFFFFF AND CALLER EQ PUSH2 0x886 JUMPI PUSH1 0x40 MLOAD PUSH3 0x461BCD PUSH1 0xE5 SHL DUP2 MSTORE PUSH1 0x20 PUSH1 0x4 DUP3 ADD DUP2 SWAP1 MSTORE PUSH1 0x24 DUP3 ADD MSTORE PUSH32 0x4F776E61626C653A2063616C6C6572206973206E6F7420746865206F776E6572 PUSH1 0x44 DUP3 ADD MSTORE PUSH1 0x64 ADD PUSH2 0x33A JUMP JUMPDEST PUSH20 0xFFFFFFFFFFFFFFFFFFFFFFFFFFFFFFFFFFFFFFFF DUP2 AND PUSH1 0x0 DUP2 DUP2 MSTORE PUSH1 0x2 PUSH1 0x20 SWAP1 DUP2 MSTORE PUSH1 0x40 SWAP2 DUP3 SWAP1 KECCAK256 DUP1 SLOAD PUSH32 0xFFFFFFFFFFFFFFFFFFFFFFFFFFFFFFFFFFFFFFFFFFFFFFFFFFFFFFFFFFFFFF00 AND PUSH1 0x1 OR SWAP1 SSTORE SWAP1 MLOAD SWAP2 DUP3 MSTORE PUSH32 0x9CE84A7AB8065F5F6F23C19BE05400B2EDBABF71E4B29837F56A016C951B97D2 SWAP2 ADD JUMPDEST PUSH1 0x40 MLOAD DUP1 SWAP2 SUB SWAP1 LOG1 POP JUMP JUMPDEST PUSH1 0x0 SLOAD PUSH20 0xFFFFFFFFFFFFFFFFFFFFFFFFFFFFFFFFFFFFFFFF AND CALLER EQ PUSH2 0x973 JUMPI PUSH1 0x40 MLOAD PUSH3 0x461BCD PUSH1 0xE5 SHL DUP2 MSTORE PUSH1 0x20 PUSH1 0x4 DUP3 ADD DUP2 SWAP1 MSTORE PUSH1 0x24 DUP3 ADD MSTORE PUSH32 0x4F776E61626C653A2063616C6C6572206973206E6F7420746865206F776E6572 PUSH1 0x44 DUP3 ADD MSTORE PUSH1 0x64 ADD PUSH2 0x33A JUMP JUMPDEST PUSH20 0xFFFFFFFFFFFFFFFFFFFFFFFFFFFFFFFFFFFFFFFF DUP2 AND PUSH1 0x0 DUP2 DUP2 MSTORE PUSH1 0x2 PUSH1 0x20 SWAP1 DUP2 MSTORE PUSH1 0x40 SWAP2 DUP3 SWAP1 KECCAK256 DUP1 SLOAD PUSH32 0xFFFFFFFFFFFFFFFFFFFFFFFFFFFFFFFFFFFFFFFFFFFFFFFFFFFFFFFFFFFFFF00 AND SWAP1 SSTORE SWAP1 MLOAD SWAP2 DUP3 MSTORE PUSH32 0xEACDDCEEBEF9FDF16961C5DBA55871A098BD93BE9160335139BDEB226537C6ED SWAP2 ADD PUSH2 0x901 JUMP JUMPDEST CALLER PUSH1 0x0 SWAP1 DUP2 MSTORE PUSH1 0x2 PUSH1 0x20 MSTORE PUSH1 0x40 DUP2 KECCAK256 SLOAD PUSH1 0xFF AND PUSH2 0xA4E JUMPI PUSH1 0x40 MLOAD PUSH3 0x461BCD PUSH1 0xE5 SHL DUP2 MSTORE PUSH1 0x20 PUSH1 0x4 DUP3 ADD MSTORE PUSH1 0x16 PUSH1 0x24 DUP3 ADD MSTORE PUSH32 0x496E76616C69642043616C6C6572204164647265737300000000000000000000 PUSH1 0x44 DUP3 ADD MSTORE PUSH1 0x64 ADD PUSH2 0x33A JUMP JUMPDEST PUSH1 0x1 SLOAD PUSH1 0x40 MLOAD PUSH32 0xE86F189900000000000000000000000000000000000000000000000000000000 DUP2 MSTORE PUSH1 0x2 PUSH1 0x4 DUP3 ADD MSTORE PUSH1 0x2A PUSH1 0x24 DUP3 ADD MSTORE PUSH1 0x0 SWAP2 PUSH20 0xFFFFFFFFFFFFFFFFFFFFFFFFFFFFFFFFFFFFFFFF AND SWAP1 PUSH4 0xE86F1899 SWAP1 PUSH1 0x44 ADD PUSH1 0x20 PUSH1 0x40 MLOAD DUP1 DUP4 SUB DUP2 PUSH1 0x0 DUP8 DUP1 EXTCODESIZE ISZERO DUP1 ISZERO PUSH2 0xAC2 JUMPI PUSH1 0x0 DUP1 REVERT JUMPDEST POP GAS CALL ISZERO DUP1 ISZERO PUSH2 0xAD6 JUMPI RETURNDATASIZE PUSH1 0x0 DUP1 RETURNDATACOPY RETURNDATASIZE PUSH1 0x0 REVERT JUMPDEST POP POP POP POP PUSH1 0x40 MLOAD RETURNDATASIZE PUSH1 0x1F NOT PUSH1 0x1F DUP3 ADD AND DUP3 ADD DUP1 PUSH1 0x40 MSTORE POP DUP2 ADD SWAP1 PUSH2 0xAFA SWAP2 SWAP1 PUSH2 0x1407 JUMP JUMPDEST PUSH1 0x40 DUP1 MLOAD PUSH1 0x1 DUP2 MSTORE PUSH1 0x20 DUP2 ADD DUP4 SWAP1 MSTORE SWAP2 SWAP3 POP PUSH32 0xCF56007112EF7F986F258F82114B449A536DA425CEFAC3982F64E306B07C7921 SWAP2 ADD PUSH2 0x5ED JUMP JUMPDEST PUSH20 0xFFFFFFFFFFFFFFFFFFFFFFFFFFFFFFFFFFFFFFFF DUP2 AND PUSH1 0x0 DUP2 DUP2 MSTORE PUSH1 0x2 PUSH1 0x20 SWAP1 DUP2 MSTORE PUSH1 0x40 DUP1 DUP4 KECCAK256 SLOAD DUP2 MLOAD SWAP5 DUP6 MSTORE PUSH1 0xFF AND DUP1 ISZERO ISZERO SWAP3 DUP6 ADD SWAP3 SWAP1 SWAP3 MSTORE SWAP2 SWAP3 SWAP1 SWAP2 PUSH32 0xABF082F4A354A0EA137BF1C9B0F6660D1340B3F84E293FB4A4CB01C7602C3962 SWAP2 ADD PUSH1 0x40 MLOAD DUP1 SWAP2 SUB SWAP1 LOG1 SWAP3 SWAP2 POP POP JUMP JUMPDEST PUSH1 0x0 SLOAD PUSH20 0xFFFFFFFFFFFFFFFFFFFFFFFFFFFFFFFFFFFFFFFF AND CALLER EQ PUSH2 0xC0B JUMPI PUSH1 0x40 MLOAD PUSH3 0x461BCD PUSH1 0xE5 SHL DUP2 MSTORE PUSH1 0x20 PUSH1 0x4 DUP3 ADD DUP2 SWAP1 MSTORE PUSH1 0x24 DUP3 ADD MSTORE PUSH32 0x4F776E61626C653A2063616C6C6572206973206E6F7420746865206F776E6572 PUSH1 0x44 DUP3 ADD MSTORE PUSH1 0x64 ADD PUSH2 0x33A JUMP JUMPDEST PUSH20 0xFFFFFFFFFFFFFFFFFFFFFFFFFFFFFFFFFFFFFFFF DUP2 AND PUSH2 0xC94 JUMPI PUSH1 0x40 MLOAD PUSH3 0x461BCD PUSH1 0xE5 SHL DUP2 MSTORE PUSH1 0x20 PUSH1 0x4 DUP3 ADD MSTORE PUSH1 0x26 PUSH1 0x24 DUP3 ADD MSTORE PUSH32 0x4F776E61626C653A206E6577206F776E657220697320746865207A65726F2061 PUSH1 0x44 DUP3 ADD MSTORE PUSH32 0x6464726573730000000000000000000000000000000000000000000000000000 PUSH1 0x64 DUP3 ADD MSTORE PUSH1 0x84 ADD PUSH2 0x33A JUMP JUMPDEST PUSH2 0xC9D DUP2 PUSH2 0xF8B JUMP JUMPDEST POP JUMP JUMPDEST PUSH1 0x60 DUP2 PUSH4 0xFFFFFFFF AND PUSH1 0x1 EQ ISZERO PUSH2 0xCEA JUMPI POP POP PUSH1 0x40 DUP1 MLOAD DUP1 DUP3 ADD SWAP1 SWAP2 MSTORE PUSH1 0x1E DUP2 MSTORE PUSH32 0x545552494E473A204765746820696E74657263657074206661696C7572650000 PUSH1 0x20 DUP3 ADD MSTORE SWAP1 JUMP JUMPDEST DUP2 PUSH4 0xFFFFFFFF AND PUSH1 0xA EQ ISZERO PUSH2 0xD32 JUMPI POP POP PUSH1 0x40 DUP1 MLOAD DUP1 DUP3 ADD SWAP1 SWAP2 MSTORE PUSH1 0x1D DUP2 MSTORE PUSH32 0x545552494E473A20496E636F727265637420696E707574207374617465000000 PUSH1 0x20 DUP3 ADD MSTORE SWAP1 JUMP JUMPDEST DUP2 PUSH4 0xFFFFFFFF AND PUSH1 0xB EQ ISZERO PUSH2 0xD7A JUMPI POP POP PUSH1 0x40 DUP1 MLOAD DUP1 DUP3 ADD SWAP1 SWAP2 MSTORE PUSH1 0x1A DUP2 MSTORE PUSH32 0x545552494E473A2043616C6C6461746120746F6F2073686F7274000000000000 PUSH1 0x20 DUP3 ADD MSTORE SWAP1 JUMP JUMPDEST DUP2 PUSH4 0xFFFFFFFF AND PUSH1 0xC EQ ISZERO PUSH2 0xDC2 JUMPI POP POP PUSH1 0x40 DUP1 MLOAD DUP1 DUP3 ADD SWAP1 SWAP2 MSTORE PUSH1 0x15 DUP2 MSTORE PUSH32 0x545552494E473A2055524C203E36342062797465730000000000000000000000 PUSH1 0x20 DUP3 ADD MSTORE SWAP1 JUMP JUMPDEST DUP2 PUSH4 0xFFFFFFFF AND PUSH1 0xD EQ ISZERO PUSH2 0xE0A JUMPI POP POP PUSH1 0x40 DUP1 MLOAD DUP1 DUP3 ADD SWAP1 SWAP2 MSTORE PUSH1 0x14 DUP2 MSTORE PUSH32 0x545552494E473A20536572766572206572726F72000000000000000000000000 PUSH1 0x20 DUP3 ADD MSTORE SWAP1 JUMP JUMPDEST DUP2 PUSH4 0xFFFFFFFF AND PUSH1 0xE EQ ISZERO PUSH2 0xE38 JUMPI PUSH1 0x40 MLOAD DUP1 PUSH1 0x60 ADD PUSH1 0x40 MSTORE DUP1 PUSH1 0x28 DUP2 MSTORE PUSH1 0x20 ADD PUSH2 0x1421 PUSH1 0x28 SWAP2 CODECOPY SWAP3 SWAP2 POP POP JUMP JUMPDEST DUP2 PUSH4 0xFFFFFFFF AND PUSH1 0xF EQ ISZERO PUSH2 0xE66 JUMPI PUSH1 0x40 MLOAD DUP1 PUSH1 0x60 ADD PUSH1 0x40 MSTORE DUP1 PUSH1 0x23 DUP2 MSTORE PUSH1 0x20 ADD PUSH2 0x1449 PUSH1 0x23 SWAP2 CODECOPY SWAP3 SWAP2 POP POP JUMP JUMPDEST DUP2 PUSH4 0xFFFFFFFF AND PUSH1 0x10 EQ ISZERO PUSH2 0xEAE JUMPI POP POP PUSH1 0x40 DUP1 MLOAD DUP1 DUP3 ADD SWAP1 SWAP2 MSTORE PUSH1 0x13 DUP2 MSTORE PUSH32 0x545552494E473A20524E47206661696C75726500000000000000000000000000 PUSH1 0x20 DUP3 ADD MSTORE SWAP1 JUMP JUMPDEST DUP2 PUSH4 0xFFFFFFFF AND PUSH1 0x11 EQ ISZERO PUSH2 0xEF6 JUMPI POP POP PUSH1 0x40 DUP1 MLOAD DUP1 DUP3 ADD SWAP1 SWAP2 MSTORE PUSH1 0x1F DUP2 MSTORE PUSH32 0x545552494E473A2041504920526573706F6E7365203E33323220636861727300 PUSH1 0x20 DUP3 ADD MSTORE SWAP1 JUMP JUMPDEST DUP2 PUSH4 0xFFFFFFFF AND PUSH1 0x12 EQ ISZERO PUSH2 0xF3E JUMPI POP POP PUSH1 0x40 DUP1 MLOAD DUP1 DUP3 ADD SWAP1 SWAP2 MSTORE PUSH1 0x1F DUP2 MSTORE PUSH32 0x545552494E473A2041504920526573706F6E7365203E31363020627974657300 PUSH1 0x20 DUP3 ADD MSTORE SWAP1 JUMP JUMPDEST DUP2 PUSH4 0xFFFFFFFF AND PUSH1 0x13 EQ ISZERO PUSH2 0xF86 JUMPI POP POP PUSH1 0x40 DUP1 MLOAD DUP1 DUP3 ADD SWAP1 SWAP2 MSTORE PUSH1 0x1B DUP2 MSTORE PUSH32 0x545552494E473A20496E73756666696369656E74206372656469740000000000 PUSH1 0x20 DUP3 ADD MSTORE SWAP1 JUMP JUMPDEST SWAP2 SWAP1 POP JUMP JUMPDEST PUSH1 0x0 DUP1 SLOAD PUSH20 0xFFFFFFFFFFFFFFFFFFFFFFFFFFFFFFFFFFFFFFFF DUP4 DUP2 AND PUSH32 0xFFFFFFFFFFFFFFFFFFFFFFFF0000000000000000000000000000000000000000 DUP4 AND DUP2 OR DUP5 SSTORE PUSH1 0x40 MLOAD SWAP2 SWAP1 SWAP3 AND SWAP3 DUP4 SWAP2 PUSH32 0x8BE0079C531659141344CD1FD0A4F28419497F9722A3DAAFE3B4186F6B6457E0 SWAP2 SWAP1 LOG3 POP POP JUMP JUMPDEST PUSH1 0x0 PUSH1 0x20 DUP3 DUP5 SUB SLT ISZERO PUSH2 0x1012 JUMPI PUSH1 0x0 DUP1 REVERT JUMPDEST DUP2 CALLDATALOAD PUSH32 0xFFFFFFFF00000000000000000000000000000000000000000000000000000000 DUP2 AND DUP2 EQ PUSH2 0x1042 JUMPI PUSH1 0x0 DUP1 REVERT JUMPDEST SWAP4 SWAP3 POP POP POP JUMP JUMPDEST PUSH32 0x4E487B7100000000000000000000000000000000000000000000000000000000 PUSH1 0x0 MSTORE PUSH1 0x41 PUSH1 0x4 MSTORE PUSH1 0x24 PUSH1 0x0 REVERT JUMPDEST PUSH1 0x40 MLOAD PUSH1 0x1F DUP3 ADD PUSH32 0xFFFFFFFFFFFFFFFFFFFFFFFFFFFFFFFFFFFFFFFFFFFFFFFFFFFFFFFFFFFFFFE0 AND DUP2 ADD PUSH8 0xFFFFFFFFFFFFFFFF DUP2 GT DUP3 DUP3 LT OR ISZERO PUSH2 0x10BF JUMPI PUSH2 0x10BF PUSH2 0x1049 JUMP JUMPDEST PUSH1 0x40 MSTORE SWAP2 SWAP1 POP JUMP JUMPDEST PUSH1 0x0 PUSH8 0xFFFFFFFFFFFFFFFF DUP3 GT ISZERO PUSH2 0x10E1 JUMPI PUSH2 0x10E1 PUSH2 0x1049 JUMP JUMPDEST POP PUSH1 0x1F ADD PUSH32 0xFFFFFFFFFFFFFFFFFFFFFFFFFFFFFFFFFFFFFFFFFFFFFFFFFFFFFFFFFFFFFFE0 AND PUSH1 0x20 ADD SWAP1 JUMP JUMPDEST PUSH1 0x0 DUP3 PUSH1 0x1F DUP4 ADD SLT PUSH2 0x111E JUMPI PUSH1 0x0 DUP1 REVERT JUMPDEST DUP2 CALLDATALOAD PUSH2 0x1131 PUSH2 0x112C DUP3 PUSH2 0x10C7 JUMP JUMPDEST PUSH2 0x1078 JUMP JUMPDEST DUP2 DUP2 MSTORE DUP5 PUSH1 0x20 DUP4 DUP7 ADD ADD GT ISZERO PUSH2 0x1146 JUMPI PUSH1 0x0 DUP1 REVERT JUMPDEST DUP2 PUSH1 0x20 DUP6 ADD PUSH1 0x20 DUP4 ADD CALLDATACOPY PUSH1 0x0 SWAP2 DUP2 ADD PUSH1 0x20 ADD SWAP2 SWAP1 SWAP2 MSTORE SWAP4 SWAP3 POP POP POP JUMP JUMPDEST PUSH1 0x0 DUP1 PUSH1 0x40 DUP4 DUP6 SUB SLT ISZERO PUSH2 0x1176 JUMPI PUSH1 0x0 DUP1 REVERT JUMPDEST DUP3 CALLDATALOAD PUSH8 0xFFFFFFFFFFFFFFFF DUP1 DUP3 GT ISZERO PUSH2 0x118E JUMPI PUSH1 0x0 DUP1 REVERT JUMPDEST PUSH2 0x119A DUP7 DUP4 DUP8 ADD PUSH2 0x110D JUMP JUMPDEST SWAP4 POP PUSH1 0x20 DUP6 ADD CALLDATALOAD SWAP2 POP DUP1 DUP3 GT ISZERO PUSH2 0x11B0 JUMPI PUSH1 0x0 DUP1 REVERT JUMPDEST POP PUSH2 0x11BD DUP6 DUP3 DUP7 ADD PUSH2 0x110D JUMP JUMPDEST SWAP2 POP POP SWAP3 POP SWAP3 SWAP1 POP JUMP JUMPDEST PUSH1 0x0 JUMPDEST DUP4 DUP2 LT ISZERO PUSH2 0x11E2 JUMPI DUP2 DUP2 ADD MLOAD DUP4 DUP3 ADD MSTORE PUSH1 0x20 ADD PUSH2 0x11CA JUMP JUMPDEST DUP4 DUP2 GT ISZERO PUSH2 0x11F1 JUMPI PUSH1 0x0 DUP5 DUP5 ADD MSTORE JUMPDEST POP POP POP POP JUMP JUMPDEST PUSH1 0x0 DUP2 MLOAD DUP1 DUP5 MSTORE PUSH2 0x120F DUP2 PUSH1 0x20 DUP7 ADD PUSH1 0x20 DUP7 ADD PUSH2 0x11C7 JUMP JUMPDEST PUSH1 0x1F ADD PUSH32 0xFFFFFFFFFFFFFFFFFFFFFFFFFFFFFFFFFFFFFFFFFFFFFFFFFFFFFFFFFFFFFFE0 AND SWAP3 SWAP1 SWAP3 ADD PUSH1 0x20 ADD SWAP3 SWAP2 POP POP JUMP JUMPDEST PUSH1 0x20 DUP2 MSTORE PUSH1 0x0 PUSH2 0x1042 PUSH1 0x20 DUP4 ADD DUP5 PUSH2 0x11F7 JUMP JUMPDEST DUP1 CALLDATALOAD PUSH4 0xFFFFFFFF DUP2 AND DUP2 EQ PUSH2 0xF86 JUMPI PUSH1 0x0 DUP1 REVERT JUMPDEST PUSH1 0x0 DUP1 PUSH1 0x40 DUP4 DUP6 SUB SLT ISZERO PUSH2 0x127B JUMPI PUSH1 0x0 DUP1 REVERT JUMPDEST PUSH2 0x1284 DUP4 PUSH2 0x1254 JUMP JUMPDEST SWAP5 PUSH1 0x20 SWAP4 SWAP1 SWAP4 ADD CALLDATALOAD SWAP4 POP POP POP JUMP JUMPDEST PUSH1 0x0 DUP1 PUSH1 0x0 PUSH1 0x60 DUP5 DUP7 SUB SLT ISZERO PUSH2 0x12A7 JUMPI PUSH1 0x0 DUP1 REVERT JUMPDEST PUSH2 0x12B0 DUP5 PUSH2 0x1254 JUMP JUMPDEST SWAP3 POP PUSH1 0x20 DUP5 ADD CALLDATALOAD PUSH8 0xFFFFFFFFFFFFFFFF DUP1 DUP3 GT ISZERO PUSH2 0x12CD JUMPI PUSH1 0x0 DUP1 REVERT JUMPDEST PUSH2 0x12D9 DUP8 DUP4 DUP9 ADD PUSH2 0x110D JUMP JUMPDEST SWAP4 POP PUSH1 0x40 DUP7 ADD CALLDATALOAD SWAP2 POP DUP1 DUP3 GT ISZERO PUSH2 0x12EF JUMPI PUSH1 0x0 DUP1 REVERT JUMPDEST POP PUSH2 0x12FC DUP7 DUP3 DUP8 ADD PUSH2 0x110D JUMP JUMPDEST SWAP2 POP POP SWAP3 POP SWAP3 POP SWAP3 JUMP JUMPDEST PUSH1 0x0 PUSH1 0x20 DUP3 DUP5 SUB SLT ISZERO PUSH2 0x1318 JUMPI PUSH1 0x0 DUP1 REVERT JUMPDEST DUP2 CALLDATALOAD PUSH20 0xFFFFFFFFFFFFFFFFFFFFFFFFFFFFFFFFFFFFFFFF DUP2 AND DUP2 EQ PUSH2 0x1042 JUMPI PUSH1 0x0 DUP1 REVERT JUMPDEST PUSH4 0xFFFFFFFF DUP5 AND DUP2 MSTORE PUSH1 0x60 PUSH1 0x20 DUP3 ADD MSTORE PUSH1 0x0 PUSH2 0x135B PUSH1 0x60 DUP4 ADD DUP6 PUSH2 0x11F7 JUMP JUMPDEST DUP3 DUP2 SUB PUSH1 0x40 DUP5 ADD MSTORE PUSH2 0x136D DUP2 DUP6 PUSH2 0x11F7 JUMP JUMPDEST SWAP7 SWAP6 POP POP POP POP POP POP JUMP JUMPDEST PUSH1 0x0 PUSH1 0x20 DUP3 DUP5 SUB SLT ISZERO PUSH2 0x1389 JUMPI PUSH1 0x0 DUP1 REVERT JUMPDEST DUP2 MLOAD PUSH8 0xFFFFFFFFFFFFFFFF DUP2 GT ISZERO PUSH2 0x13A0 JUMPI PUSH1 0x0 DUP1 REVERT JUMPDEST DUP3 ADD PUSH1 0x1F DUP2 ADD DUP5 SGT PUSH2 0x13B1 JUMPI PUSH1 0x0 DUP1 REVERT JUMPDEST DUP1 MLOAD PUSH2 0x13BF PUSH2 0x112C DUP3 PUSH2 0x10C7 JUMP JUMPDEST DUP2 DUP2 MSTORE DUP6 PUSH1 0x20 DUP4 DUP6 ADD ADD GT ISZERO PUSH2 0x13D4 JUMPI PUSH1 0x0 DUP1 REVERT JUMPDEST PUSH2 0x13E5 DUP3 PUSH1 0x20 DUP4 ADD PUSH1 0x20 DUP7 ADD PUSH2 0x11C7 JUMP JUMPDEST SWAP6 SWAP5 POP POP POP POP POP JUMP JUMPDEST DUP3 DUP2 MSTORE PUSH1 0x40 PUSH1 0x20 DUP3 ADD MSTORE PUSH1 0x0 PUSH2 0x2D4 PUSH1 0x40 DUP4 ADD DUP5 PUSH2 0x11F7 JUMP JUMPDEST PUSH1 0x0 PUSH1 0x20 DUP3 DUP5 SUB SLT ISZERO PUSH2 0x1419 JUMPI PUSH1 0x0 DUP1 REVERT JUMPDEST POP MLOAD SWAP2 SWAP1 POP JUMP INVALID SLOAD SSTORE MSTORE 0x49 0x4E SELFBALANCE GASPRICE KECCAK256 NUMBER PUSH16 0x756C64206E6F74206465636F64652073 PUSH6 0x727665722072 PUSH6 0x73706F6E7365 SLOAD SSTORE MSTORE 0x49 0x4E SELFBALANCE GASPRICE KECCAK256 NUMBER PUSH16 0x756C64206E6F74206372656174652072 PUSH17 0x6320636C69656E74A164736F6C63430008 MULMOD STOP EXP "
        },
        "methodIdentifiers": {
          "Get42(uint32,uint256)": "e86f1899",
          "GetRandom(uint32,uint256)": "493d57d6",
          "GetResponse(uint32,string,bytes)": "7d93616c",
          "Turing42()": "b8d16056",
          "TuringRandom()": "45ff812a",
          "TuringTx(string,bytes)": "2f7adf43",
          "addPermittedCaller(address)": "a432ee27",
          "checkPermittedCaller(address)": "cbcd0c2c",
          "owner()": "8da5cb5b",
          "permittedCaller(address)": "f2f3fa07",
          "removePermittedCaller(address)": "aadebcb9",
          "renounceOwnership()": "715018a6",
          "supportsInterface(bytes4)": "01ffc9a7",
          "transferOwnership(address)": "f2fde38b"
        }
      },
      "storageLayout": {
        "storage": [
          {
            "astId": 7,
            "contract": "contracts/TuringHelper.sol:TuringHelper",
            "label": "_owner",
            "offset": 0,
            "slot": "0",
            "type": "t_address"
          },
          {
            "astId": 1821,
            "contract": "contracts/TuringHelper.sol:TuringHelper",
            "label": "Self",
            "offset": 0,
            "slot": "1",
            "type": "t_contract(TuringHelper)2243"
          },
          {
            "astId": 1825,
            "contract": "contracts/TuringHelper.sol:TuringHelper",
            "label": "permittedCaller",
            "offset": 0,
            "slot": "2",
            "type": "t_mapping(t_address,t_bool)"
          }
        ],
        "types": {
          "t_address": {
            "encoding": "inplace",
            "label": "address",
            "numberOfBytes": "20"
          },
          "t_bool": {
            "encoding": "inplace",
            "label": "bool",
            "numberOfBytes": "1"
          },
          "t_contract(TuringHelper)2243": {
            "encoding": "inplace",
            "label": "contract TuringHelper",
            "numberOfBytes": "20"
          },
          "t_mapping(t_address,t_bool)": {
            "encoding": "mapping",
            "key": "t_address",
            "label": "mapping(address => bool)",
            "numberOfBytes": "32",
            "value": "t_bool"
          }
        }
      }
    }
  }
}