{
  "contracts/StableSwap.sol": {
    "StableSwap": {
      "abi": [
        {
          "inputs": [
            {
              "internalType": "address",
              "name": "_helper",
              "type": "address"
            },
            {
              "internalType": "uint256",
              "name": "_x",
              "type": "uint256"
            },
            {
              "internalType": "uint256",
              "name": "_y",
              "type": "uint256"
            }
          ],
          "stateMutability": "nonpayable",
          "type": "constructor"
        },
        {
          "anonymous": false,
          "inputs": [
            {
              "indexed": false,
              "internalType": "bytes",
              "name": "response",
              "type": "bytes"
            }
          ],
          "name": "Debug",
          "type": "event"
        },
        {
          "anonymous": false,
          "inputs": [
            {
              "indexed": false,
              "internalType": "uint256",
              "name": "x_in",
              "type": "uint256"
            },
            {
              "indexed": false,
              "internalType": "uint256",
              "name": "y_out",
              "type": "uint256"
            }
          ],
          "name": "SwapX",
          "type": "event"
        },
        {
          "anonymous": false,
          "inputs": [
            {
              "indexed": false,
              "internalType": "uint256",
              "name": "y_in",
              "type": "uint256"
            },
            {
              "indexed": false,
              "internalType": "uint256",
              "name": "x_out",
              "type": "uint256"
            }
          ],
          "name": "SwapY",
          "type": "event"
        },
        {
          "inputs": [],
          "name": "A",
          "outputs": [
            {
              "internalType": "uint256",
              "name": "",
              "type": "uint256"
            }
          ],
          "stateMutability": "view",
          "type": "function"
        },
        {
          "inputs": [
            {
              "internalType": "uint256",
              "name": "_x",
              "type": "uint256"
            },
            {
              "internalType": "uint256",
              "name": "_y",
              "type": "uint256"
            }
          ],
          "name": "addLiquidity",
          "outputs": [],
          "stateMutability": "nonpayable",
          "type": "function"
        },
        {
          "inputs": [
            {
              "internalType": "uint256",
              "name": "_A",
              "type": "uint256"
            }
          ],
          "name": "changeA",
          "outputs": [],
          "stateMutability": "nonpayable",
          "type": "function"
        },
        {
          "inputs": [],
          "name": "helperAddr",
          "outputs": [
            {
              "internalType": "address",
              "name": "",
              "type": "address"
            }
          ],
          "stateMutability": "view",
          "type": "function"
        },
        {
          "inputs": [],
          "name": "invariant",
          "outputs": [
            {
              "internalType": "bool",
              "name": "pass",
              "type": "bool"
            }
          ],
          "stateMutability": "nonpayable",
          "type": "function"
        },
        {
          "inputs": [
            {
              "internalType": "uint256",
              "name": "_x",
              "type": "uint256"
            },
            {
              "internalType": "uint256",
              "name": "_y",
              "type": "uint256"
            }
          ],
          "name": "invariant",
          "outputs": [
            {
              "internalType": "bool",
              "name": "pass",
              "type": "bool"
            }
          ],
          "stateMutability": "nonpayable",
          "type": "function"
        },
        {
          "inputs": [],
          "name": "k",
          "outputs": [
            {
              "internalType": "uint256",
              "name": "",
              "type": "uint256"
            }
          ],
          "stateMutability": "view",
          "type": "function"
        },
        {
          "inputs": [
            {
              "internalType": "int256",
              "name": "base",
              "type": "int256"
            },
            {
              "internalType": "int256",
              "name": "exponent",
              "type": "int256"
            }
          ],
          "name": "pow",
          "outputs": [
            {
              "internalType": "int256",
              "name": "",
              "type": "int256"
            }
          ],
          "stateMutability": "pure",
          "type": "function"
        },
        {
          "inputs": [
            {
              "internalType": "uint256",
              "name": "percOut",
              "type": "uint256"
            }
          ],
          "name": "removeLiquidity",
          "outputs": [
            {
              "internalType": "uint256",
              "name": "x_back",
              "type": "uint256"
            },
            {
              "internalType": "uint256",
              "name": "y_back",
              "type": "uint256"
            }
          ],
          "stateMutability": "nonpayable",
          "type": "function"
        },
        {
          "inputs": [
            {
              "internalType": "uint256",
              "name": "_x",
              "type": "uint256"
            },
            {
              "internalType": "uint256",
              "name": "_y",
              "type": "uint256"
            }
          ],
          "name": "setTo",
          "outputs": [],
          "stateMutability": "nonpayable",
          "type": "function"
        },
        {
          "inputs": [
            {
              "internalType": "uint256",
              "name": "a",
              "type": "uint256"
            }
          ],
          "name": "sqrt",
          "outputs": [
            {
              "internalType": "uint256",
              "name": "b",
              "type": "uint256"
            }
          ],
          "stateMutability": "nonpayable",
          "type": "function"
        },
        {
          "inputs": [
            {
              "internalType": "string",
              "name": "_url",
              "type": "string"
            },
            {
              "internalType": "uint256",
              "name": "x_in",
              "type": "uint256"
            }
          ],
          "name": "swap_x",
          "outputs": [
            {
              "internalType": "uint256",
              "name": "y_out",
              "type": "uint256"
            }
          ],
          "stateMutability": "nonpayable",
          "type": "function"
        },
        {
          "inputs": [
            {
              "internalType": "uint256",
              "name": "y_in",
              "type": "uint256"
            }
          ],
          "name": "swap_y",
          "outputs": [
            {
              "internalType": "uint256",
              "name": "x_out",
              "type": "uint256"
            }
          ],
          "stateMutability": "nonpayable",
          "type": "function"
        },
        {
          "inputs": [],
          "name": "x",
          "outputs": [
            {
              "internalType": "uint256",
              "name": "",
              "type": "uint256"
            }
          ],
          "stateMutability": "view",
          "type": "function"
        },
        {
          "inputs": [],
          "name": "y",
          "outputs": [
            {
              "internalType": "uint256",
              "name": "",
              "type": "uint256"
            }
          ],
          "stateMutability": "view",
          "type": "function"
        }
      ],
      "evm": {
        "bytecode": {
          "linkReferences": {},
          "object": "60806040523480156200001157600080fd5b5060405162001334380380620013348339810160408190526200003491620000f6565b600480546001600160a01b0385166001600160a01b0319918216811790925560058054909116909117905581158015906200006f5750600081115b620000ae5760405162461bcd60e51b815260206004820152600b60248201526a078206f72207920213e20360ac1b604482015260640160405180910390fd5b60008290556001819055620000d08282620000e1602090811b62000b0c17901c565b600255505060006003555062000169565b6000620000ef82846200013b565b9392505050565b6000806000606084860312156200010c57600080fd5b83516001600160a01b03811681146200012457600080fd5b602085015160409095015190969495509392505050565b60008160001904831182151516156200016457634e487b7160e01b600052601160045260246000fd5b500290565b6111bb80620001796000396000f3fe608060405234801561001057600080fd5b50600436106100f55760003560e01c80639cd441da11610097578063b4f40c6111610066578063b4f40c6114610218578063dec452dd14610221578063f446c1d014610234578063fcbfcc711461023d57600080fd5b80639cd441da146101d1578063a56dfe4a146101e4578063adde7b8b146101ed578063b03a9a051461020057600080fd5b8063677342ce116100d3578063677342ce1461017057806392b0c5b21461018357806394e6c7cb146101965780639c8f9f23146101a957600080fd5b80630c55699c146100fa5780631569f6151461011657806330dbd9db1461015b575b600080fd5b61010360005481565b6040519081526020015b60405180910390f35b6004546101369073ffffffffffffffffffffffffffffffffffffffff1681565b60405173ffffffffffffffffffffffffffffffffffffffff909116815260200161010d565b61016e610169366004610b8f565b610250565b005b61010361017e366004610bb1565b6102e6565b610103610191366004610b8f565b610354565b6101036101a4366004610c8e565b6103bf565b6101bc6101b7366004610bb1565b6105f5565b6040805192835260208301919091520161010d565b61016e6101df366004610b8f565b6106e0565b61010360015481565b6101036101fb366004610bb1565b610784565b610208610a29565b604051901515815260200161010d565b61010360025481565b61020861022f366004610b8f565b610a3e565b61010360035481565b61016e61024b366004610bb1565b600355565b6000821180156102605750600081115b6102cb576040517f08c379a000000000000000000000000000000000000000000000000000000000815260206004820152600b60248201527f78206f72207920213e203000000000000000000000000000000000000000000060448201526064015b60405180910390fd5b600082905560018190556102df8282610b0c565b6002555050565b6000816102f557506000919050565b6003821161030557506001919050565b600061031d6002610317856001610b1f565b90610b2b565b90508291505b8181101561034e579050806103476002610317836103418782610b2b565b90610b1f565b9050610323565b92915050565b6000816103635750600161034e565b816001141561037357508161034e565b8215801561038057508115155b1561038d5750600061034e565b8260015b838112156103b7576103a38286610b37565b9150806103af81610d3f565b915050610391565b509392505050565b6000805460015460035460408051602081019490945283810192909252606083015260808083018590528151808403909101815260a08301918290526005547f2f7adf430000000000000000000000000000000000000000000000000000000090925291839173ffffffffffffffffffffffffffffffffffffffff1690632f7adf4390610452908890869060a401610df2565b600060405180830381600087803b15801561046c57600080fd5b505af1158015610480573d6000803e3d6000fd5b505050506040513d6000823e601f3d9081017fffffffffffffffffffffffffffffffffffffffffffffffffffffffffffffffe01682016040526104c69190810190610e20565b90507f31fe5ce544784f2e2e62fd1c70cb1ebe6cd1f8e17a185909f82c430b6c7ec470816040516104f79190610e8e565b60405180910390a16000805461050d9086610b1f565b90506000828060200190518101906105259190610ea1565b90506105318282610a3e565b610597576040517f08c379a000000000000000000000000000000000000000000000000000000000815260206004820152600d60248201527f6e6f7420696e76617269616e740000000000000000000000000000000000000060448201526064016102c2565b6001546105a49082610b43565b60005460408051918252602082018390529196507f2959f72656d7839341ef20bd9259961ac6664616544abd2c125ea94a2076704f910160405180910390a160009190915560015550909392505050565b600080600083118015610609575060648311155b61066f576040517f08c379a000000000000000000000000000000000000000000000000000000000815260206004820152601960248201527f706572634f7574206e6f74203e2030206f72203c3d203130300000000000000060448201526064016102c2565b610689606461031785600054610b0c90919063ffffffff16565b91506106a5606461031785600154610b0c90919063ffffffff16565b6000549091506106b59083610b43565b6000556001546106c59082610b43565b60018190556000546106d691610b0c565b6002559092909150565b6000821180156106f05750600081115b610756576040517f08c379a000000000000000000000000000000000000000000000000000000000815260206004820152600b60248201527f78206f72207920213e203000000000000000000000000000000000000000000060448201526064016102c2565b6000546107639083610b1f565b6000556001546107739082610b1f565b60018190556000546102df91610b0c565b60008061079c83600154610b1f90919063ffffffff16565b905060006107b66004600354610b0c90919063ffffffff16565b905060006107d060026107ca6002546102e6565b90610b0c565b90506000806107e4856107ca866004610b0c565b905060006108336107fc876107ca87818a6004610b0c565b61082d61080e876107ca8b6004610b0c565b61082761081c8b6002610354565b6107ca8b6004610b0c565b90610b4f565b90610b5b565b90506000610842856003610354565b61084b90610eba565b9050600061087161086783610861876004610b37565b90610b37565b61082d8580610b37565b9050600061088161017e83610b67565b9050600082126109b95760006108ae61089b876002610b37565b6108a88461082789610eba565b90610b83565b905060006108cd6108c0886002610b37565b6108a88561082d8a610eba565b90506000821380156108e157506002548213155b6108eb57806108ed565b815b97506108f9888c610a3e565b61095f576040517f08c379a000000000000000000000000000000000000000000000000000000000815260206004820152600d60248201527f6e6f7420696e76617269616e740000000000000000000000000000000000000060448201526064016102c2565b60005461096c9089610b43565b600089905560018c9055604080518f815260208101839052919d507fe38925757fb32b04e8218979e360e1dfeb6311608b25955073d0971d3891ede1910160405180910390a15050610a1b565b6040517f08c379a000000000000000000000000000000000000000000000000000000000815260206004820152601a60248201527f57726f6e67207377617020616d6f756e742070726f766964656400000000000060448201526064016102c2565b505050505050505050919050565b6000610a39600054600154610a3e565b905090565b60008083118015610a5157506002548311155b610a5a57600080fd5b600082118015610a6c57506002548211155b610a7557600080fd5b6000610a826002546102e6565b90506000610aaf610a94836002610b0c565b610341610aa18888610b1f565b6003546107ca906004610b0c565b90506000610aeb610add610ac8876107ca8a6004610b0c565b610317610ad6876002610b0c565b6003610354565b610341610aa1866002610b0c565b90506032610b01610afc8385610ef3565b610b67565b129695505050505050565b6000610b188284610f67565b9392505050565b6000610b188284610fa4565b6000610b188284610feb565b6000610b188284610fff565b6000610b1882846110bb565b6000610b1882846110d2565b6000610b188284610ef3565b600080821215610b7f57610b7a82610eba565b61034e565b5090565b6000610b188284611146565b60008060408385031215610ba257600080fd5b50508035926020909101359150565b600060208284031215610bc357600080fd5b5035919050565b7f4e487b7100000000000000000000000000000000000000000000000000000000600052604160045260246000fd5b604051601f82017fffffffffffffffffffffffffffffffffffffffffffffffffffffffffffffffe016810167ffffffffffffffff81118282101715610c4057610c40610bca565b604052919050565b600067ffffffffffffffff821115610c6257610c62610bca565b50601f017fffffffffffffffffffffffffffffffffffffffffffffffffffffffffffffffe01660200190565b60008060408385031215610ca157600080fd5b823567ffffffffffffffff811115610cb857600080fd5b8301601f81018513610cc957600080fd5b8035610cdc610cd782610c48565b610bf9565b818152866020838501011115610cf157600080fd5b8160208401602083013760006020928201830152969401359450505050565b7f4e487b7100000000000000000000000000000000000000000000000000000000600052601160045260246000fd5b60007f7fffffffffffffffffffffffffffffffffffffffffffffffffffffffffffffff821415610d7157610d71610d10565b5060010190565b60005b83811015610d93578181015183820152602001610d7b565b83811115610da2576000848401525b50505050565b60008151808452610dc0816020860160208601610d78565b601f017fffffffffffffffffffffffffffffffffffffffffffffffffffffffffffffffe0169290920160200192915050565b604081526000610e056040830185610da8565b8281036020840152610e178185610da8565b95945050505050565b600060208284031215610e3257600080fd5b815167ffffffffffffffff811115610e4957600080fd5b8201601f81018413610e5a57600080fd5b8051610e68610cd782610c48565b818152856020838501011115610e7d57600080fd5b610e17826020830160208601610d78565b602081526000610b186020830184610da8565b600060208284031215610eb357600080fd5b5051919050565b60007f8000000000000000000000000000000000000000000000000000000000000000821415610eec57610eec610d10565b5060000390565b6000808312837f800000000000000000000000000000000000000000000000000000000000000001831281151615610f2d57610f2d610d10565b837f7fffffffffffffffffffffffffffffffffffffffffffffffffffffffffffffff018313811615610f6157610f61610d10565b50500390565b6000817fffffffffffffffffffffffffffffffffffffffffffffffffffffffffffffffff0483118215151615610f9f57610f9f610d10565b500290565b60008219821115610fb757610fb7610d10565b500190565b7f4e487b7100000000000000000000000000000000000000000000000000000000600052601260045260246000fd5b600082610ffa57610ffa610fbc565b500490565b60007f7fffffffffffffffffffffffffffffffffffffffffffffffffffffffffffffff60008413600084138583048511828216161561104057611040610d10565b7f8000000000000000000000000000000000000000000000000000000000000000600087128682058812818416161561107b5761107b610d10565b6000871292508782058712848416161561109757611097610d10565b878505871281841616156110ad576110ad610d10565b505050929093029392505050565b6000828210156110cd576110cd610d10565b500390565b6000808212827f7fffffffffffffffffffffffffffffffffffffffffffffffffffffffffffffff0384138115161561110c5761110c610d10565b827f800000000000000000000000000000000000000000000000000000000000000003841281161561114057611140610d10565b50500190565b60008261115557611155610fbc565b7fffffffffffffffffffffffffffffffffffffffffffffffffffffffffffffffff83147f8000000000000000000000000000000000000000000000000000000000000000831416156111a9576111a9610d10565b50059056fea164736f6c6343000809000a",
          "opcodes": "PUSH1 0x80 PUSH1 0x40 MSTORE CALLVALUE DUP1 ISZERO PUSH3 0x11 JUMPI PUSH1 0x0 DUP1 REVERT JUMPDEST POP PUSH1 0x40 MLOAD PUSH3 0x1334 CODESIZE SUB DUP1 PUSH3 0x1334 DUP4 CODECOPY DUP2 ADD PUSH1 0x40 DUP2 SWAP1 MSTORE PUSH3 0x34 SWAP2 PUSH3 0xF6 JUMP JUMPDEST PUSH1 0x4 DUP1 SLOAD PUSH1 0x1 PUSH1 0x1 PUSH1 0xA0 SHL SUB DUP6 AND PUSH1 0x1 PUSH1 0x1 PUSH1 0xA0 SHL SUB NOT SWAP2 DUP3 AND DUP2 OR SWAP1 SWAP3 SSTORE PUSH1 0x5 DUP1 SLOAD SWAP1 SWAP2 AND SWAP1 SWAP2 OR SWAP1 SSTORE DUP2 ISZERO DUP1 ISZERO SWAP1 PUSH3 0x6F JUMPI POP PUSH1 0x0 DUP2 GT JUMPDEST PUSH3 0xAE JUMPI PUSH1 0x40 MLOAD PUSH3 0x461BCD PUSH1 0xE5 SHL DUP2 MSTORE PUSH1 0x20 PUSH1 0x4 DUP3 ADD MSTORE PUSH1 0xB PUSH1 0x24 DUP3 ADD MSTORE PUSH11 0x78206F72207920213E203 PUSH1 0xAC SHL PUSH1 0x44 DUP3 ADD MSTORE PUSH1 0x64 ADD PUSH1 0x40 MLOAD DUP1 SWAP2 SUB SWAP1 REVERT JUMPDEST PUSH1 0x0 DUP3 SWAP1 SSTORE PUSH1 0x1 DUP2 SWAP1 SSTORE PUSH3 0xD0 DUP3 DUP3 PUSH3 0xE1 PUSH1 0x20 SWAP1 DUP2 SHL PUSH3 0xB0C OR SWAP1 SHR JUMP JUMPDEST PUSH1 0x2 SSTORE POP POP PUSH1 0x0 PUSH1 0x3 SSTORE POP PUSH3 0x169 JUMP JUMPDEST PUSH1 0x0 PUSH3 0xEF DUP3 DUP5 PUSH3 0x13B JUMP JUMPDEST SWAP4 SWAP3 POP POP POP JUMP JUMPDEST PUSH1 0x0 DUP1 PUSH1 0x0 PUSH1 0x60 DUP5 DUP7 SUB SLT ISZERO PUSH3 0x10C JUMPI PUSH1 0x0 DUP1 REVERT JUMPDEST DUP4 MLOAD PUSH1 0x1 PUSH1 0x1 PUSH1 0xA0 SHL SUB DUP2 AND DUP2 EQ PUSH3 0x124 JUMPI PUSH1 0x0 DUP1 REVERT JUMPDEST PUSH1 0x20 DUP6 ADD MLOAD PUSH1 0x40 SWAP1 SWAP6 ADD MLOAD SWAP1 SWAP7 SWAP5 SWAP6 POP SWAP4 SWAP3 POP POP POP JUMP JUMPDEST PUSH1 0x0 DUP2 PUSH1 0x0 NOT DIV DUP4 GT DUP3 ISZERO ISZERO AND ISZERO PUSH3 0x164 JUMPI PUSH4 0x4E487B71 PUSH1 0xE0 SHL PUSH1 0x0 MSTORE PUSH1 0x11 PUSH1 0x4 MSTORE PUSH1 0x24 PUSH1 0x0 REVERT JUMPDEST POP MUL SWAP1 JUMP JUMPDEST PUSH2 0x11BB DUP1 PUSH3 0x179 PUSH1 0x0 CODECOPY PUSH1 0x0 RETURN INVALID PUSH1 0x80 PUSH1 0x40 MSTORE CALLVALUE DUP1 ISZERO PUSH2 0x10 JUMPI PUSH1 0x0 DUP1 REVERT JUMPDEST POP PUSH1 0x4 CALLDATASIZE LT PUSH2 0xF5 JUMPI PUSH1 0x0 CALLDATALOAD PUSH1 0xE0 SHR DUP1 PUSH4 0x9CD441DA GT PUSH2 0x97 JUMPI DUP1 PUSH4 0xB4F40C61 GT PUSH2 0x66 JUMPI DUP1 PUSH4 0xB4F40C61 EQ PUSH2 0x218 JUMPI DUP1 PUSH4 0xDEC452DD EQ PUSH2 0x221 JUMPI DUP1 PUSH4 0xF446C1D0 EQ PUSH2 0x234 JUMPI DUP1 PUSH4 0xFCBFCC71 EQ PUSH2 0x23D JUMPI PUSH1 0x0 DUP1 REVERT JUMPDEST DUP1 PUSH4 0x9CD441DA EQ PUSH2 0x1D1 JUMPI DUP1 PUSH4 0xA56DFE4A EQ PUSH2 0x1E4 JUMPI DUP1 PUSH4 0xADDE7B8B EQ PUSH2 0x1ED JUMPI DUP1 PUSH4 0xB03A9A05 EQ PUSH2 0x200 JUMPI PUSH1 0x0 DUP1 REVERT JUMPDEST DUP1 PUSH4 0x677342CE GT PUSH2 0xD3 JUMPI DUP1 PUSH4 0x677342CE EQ PUSH2 0x170 JUMPI DUP1 PUSH4 0x92B0C5B2 EQ PUSH2 0x183 JUMPI DUP1 PUSH4 0x94E6C7CB EQ PUSH2 0x196 JUMPI DUP1 PUSH4 0x9C8F9F23 EQ PUSH2 0x1A9 JUMPI PUSH1 0x0 DUP1 REVERT JUMPDEST DUP1 PUSH4 0xC55699C EQ PUSH2 0xFA JUMPI DUP1 PUSH4 0x1569F615 EQ PUSH2 0x116 JUMPI DUP1 PUSH4 0x30DBD9DB EQ PUSH2 0x15B JUMPI JUMPDEST PUSH1 0x0 DUP1 REVERT JUMPDEST PUSH2 0x103 PUSH1 0x0 SLOAD DUP2 JUMP JUMPDEST PUSH1 0x40 MLOAD SWAP1 DUP2 MSTORE PUSH1 0x20 ADD JUMPDEST PUSH1 0x40 MLOAD DUP1 SWAP2 SUB SWAP1 RETURN JUMPDEST PUSH1 0x4 SLOAD PUSH2 0x136 SWAP1 PUSH20 0xFFFFFFFFFFFFFFFFFFFFFFFFFFFFFFFFFFFFFFFF AND DUP2 JUMP JUMPDEST PUSH1 0x40 MLOAD PUSH20 0xFFFFFFFFFFFFFFFFFFFFFFFFFFFFFFFFFFFFFFFF SWAP1 SWAP2 AND DUP2 MSTORE PUSH1 0x20 ADD PUSH2 0x10D JUMP JUMPDEST PUSH2 0x16E PUSH2 0x169 CALLDATASIZE PUSH1 0x4 PUSH2 0xB8F JUMP JUMPDEST PUSH2 0x250 JUMP JUMPDEST STOP JUMPDEST PUSH2 0x103 PUSH2 0x17E CALLDATASIZE PUSH1 0x4 PUSH2 0xBB1 JUMP JUMPDEST PUSH2 0x2E6 JUMP JUMPDEST PUSH2 0x103 PUSH2 0x191 CALLDATASIZE PUSH1 0x4 PUSH2 0xB8F JUMP JUMPDEST PUSH2 0x354 JUMP JUMPDEST PUSH2 0x103 PUSH2 0x1A4 CALLDATASIZE PUSH1 0x4 PUSH2 0xC8E JUMP JUMPDEST PUSH2 0x3BF JUMP JUMPDEST PUSH2 0x1BC PUSH2 0x1B7 CALLDATASIZE PUSH1 0x4 PUSH2 0xBB1 JUMP JUMPDEST PUSH2 0x5F5 JUMP JUMPDEST PUSH1 0x40 DUP1 MLOAD SWAP3 DUP4 MSTORE PUSH1 0x20 DUP4 ADD SWAP2 SWAP1 SWAP2 MSTORE ADD PUSH2 0x10D JUMP JUMPDEST PUSH2 0x16E PUSH2 0x1DF CALLDATASIZE PUSH1 0x4 PUSH2 0xB8F JUMP JUMPDEST PUSH2 0x6E0 JUMP JUMPDEST PUSH2 0x103 PUSH1 0x1 SLOAD DUP2 JUMP JUMPDEST PUSH2 0x103 PUSH2 0x1FB CALLDATASIZE PUSH1 0x4 PUSH2 0xBB1 JUMP JUMPDEST PUSH2 0x784 JUMP JUMPDEST PUSH2 0x208 PUSH2 0xA29 JUMP JUMPDEST PUSH1 0x40 MLOAD SWAP1 ISZERO ISZERO DUP2 MSTORE PUSH1 0x20 ADD PUSH2 0x10D JUMP JUMPDEST PUSH2 0x103 PUSH1 0x2 SLOAD DUP2 JUMP JUMPDEST PUSH2 0x208 PUSH2 0x22F CALLDATASIZE PUSH1 0x4 PUSH2 0xB8F JUMP JUMPDEST PUSH2 0xA3E JUMP JUMPDEST PUSH2 0x103 PUSH1 0x3 SLOAD DUP2 JUMP JUMPDEST PUSH2 0x16E PUSH2 0x24B CALLDATASIZE PUSH1 0x4 PUSH2 0xBB1 JUMP JUMPDEST PUSH1 0x3 SSTORE JUMP JUMPDEST PUSH1 0x0 DUP3 GT DUP1 ISZERO PUSH2 0x260 JUMPI POP PUSH1 0x0 DUP2 GT JUMPDEST PUSH2 0x2CB JUMPI PUSH1 0x40 MLOAD PUSH32 0x8C379A000000000000000000000000000000000000000000000000000000000 DUP2 MSTORE PUSH1 0x20 PUSH1 0x4 DUP3 ADD MSTORE PUSH1 0xB PUSH1 0x24 DUP3 ADD MSTORE PUSH32 0x78206F72207920213E2030000000000000000000000000000000000000000000 PUSH1 0x44 DUP3 ADD MSTORE PUSH1 0x64 ADD JUMPDEST PUSH1 0x40 MLOAD DUP1 SWAP2 SUB SWAP1 REVERT JUMPDEST PUSH1 0x0 DUP3 SWAP1 SSTORE PUSH1 0x1 DUP2 SWAP1 SSTORE PUSH2 0x2DF DUP3 DUP3 PUSH2 0xB0C JUMP JUMPDEST PUSH1 0x2 SSTORE POP POP JUMP JUMPDEST PUSH1 0x0 DUP2 PUSH2 0x2F5 JUMPI POP PUSH1 0x0 SWAP2 SWAP1 POP JUMP JUMPDEST PUSH1 0x3 DUP3 GT PUSH2 0x305 JUMPI POP PUSH1 0x1 SWAP2 SWAP1 POP JUMP JUMPDEST PUSH1 0x0 PUSH2 0x31D PUSH1 0x2 PUSH2 0x317 DUP6 PUSH1 0x1 PUSH2 0xB1F JUMP JUMPDEST SWAP1 PUSH2 0xB2B JUMP JUMPDEST SWAP1 POP DUP3 SWAP2 POP JUMPDEST DUP2 DUP2 LT ISZERO PUSH2 0x34E JUMPI SWAP1 POP DUP1 PUSH2 0x347 PUSH1 0x2 PUSH2 0x317 DUP4 PUSH2 0x341 DUP8 DUP3 PUSH2 0xB2B JUMP JUMPDEST SWAP1 PUSH2 0xB1F JUMP JUMPDEST SWAP1 POP PUSH2 0x323 JUMP JUMPDEST SWAP3 SWAP2 POP POP JUMP JUMPDEST PUSH1 0x0 DUP2 PUSH2 0x363 JUMPI POP PUSH1 0x1 PUSH2 0x34E JUMP JUMPDEST DUP2 PUSH1 0x1 EQ ISZERO PUSH2 0x373 JUMPI POP DUP2 PUSH2 0x34E JUMP JUMPDEST DUP3 ISZERO DUP1 ISZERO PUSH2 0x380 JUMPI POP DUP2 ISZERO ISZERO JUMPDEST ISZERO PUSH2 0x38D JUMPI POP PUSH1 0x0 PUSH2 0x34E JUMP JUMPDEST DUP3 PUSH1 0x1 JUMPDEST DUP4 DUP2 SLT ISZERO PUSH2 0x3B7 JUMPI PUSH2 0x3A3 DUP3 DUP7 PUSH2 0xB37 JUMP JUMPDEST SWAP2 POP DUP1 PUSH2 0x3AF DUP2 PUSH2 0xD3F JUMP JUMPDEST SWAP2 POP POP PUSH2 0x391 JUMP JUMPDEST POP SWAP4 SWAP3 POP POP POP JUMP JUMPDEST PUSH1 0x0 DUP1 SLOAD PUSH1 0x1 SLOAD PUSH1 0x3 SLOAD PUSH1 0x40 DUP1 MLOAD PUSH1 0x20 DUP2 ADD SWAP5 SWAP1 SWAP5 MSTORE DUP4 DUP2 ADD SWAP3 SWAP1 SWAP3 MSTORE PUSH1 0x60 DUP4 ADD MSTORE PUSH1 0x80 DUP1 DUP4 ADD DUP6 SWAP1 MSTORE DUP2 MLOAD DUP1 DUP5 SUB SWAP1 SWAP2 ADD DUP2 MSTORE PUSH1 0xA0 DUP4 ADD SWAP2 DUP3 SWAP1 MSTORE PUSH1 0x5 SLOAD PUSH32 0x2F7ADF4300000000000000000000000000000000000000000000000000000000 SWAP1 SWAP3 MSTORE SWAP2 DUP4 SWAP2 PUSH20 0xFFFFFFFFFFFFFFFFFFFFFFFFFFFFFFFFFFFFFFFF AND SWAP1 PUSH4 0x2F7ADF43 SWAP1 PUSH2 0x452 SWAP1 DUP9 SWAP1 DUP7 SWAP1 PUSH1 0xA4 ADD PUSH2 0xDF2 JUMP JUMPDEST PUSH1 0x0 PUSH1 0x40 MLOAD DUP1 DUP4 SUB DUP2 PUSH1 0x0 DUP8 DUP1 EXTCODESIZE ISZERO DUP1 ISZERO PUSH2 0x46C JUMPI PUSH1 0x0 DUP1 REVERT JUMPDEST POP GAS CALL ISZERO DUP1 ISZERO PUSH2 0x480 JUMPI RETURNDATASIZE PUSH1 0x0 DUP1 RETURNDATACOPY RETURNDATASIZE PUSH1 0x0 REVERT JUMPDEST POP POP POP POP PUSH1 0x40 MLOAD RETURNDATASIZE PUSH1 0x0 DUP3 RETURNDATACOPY PUSH1 0x1F RETURNDATASIZE SWAP1 DUP2 ADD PUSH32 0xFFFFFFFFFFFFFFFFFFFFFFFFFFFFFFFFFFFFFFFFFFFFFFFFFFFFFFFFFFFFFFE0 AND DUP3 ADD PUSH1 0x40 MSTORE PUSH2 0x4C6 SWAP2 SWAP1 DUP2 ADD SWAP1 PUSH2 0xE20 JUMP JUMPDEST SWAP1 POP PUSH32 0x31FE5CE544784F2E2E62FD1C70CB1EBE6CD1F8E17A185909F82C430B6C7EC470 DUP2 PUSH1 0x40 MLOAD PUSH2 0x4F7 SWAP2 SWAP1 PUSH2 0xE8E JUMP JUMPDEST PUSH1 0x40 MLOAD DUP1 SWAP2 SUB SWAP1 LOG1 PUSH1 0x0 DUP1 SLOAD PUSH2 0x50D SWAP1 DUP7 PUSH2 0xB1F JUMP JUMPDEST SWAP1 POP PUSH1 0x0 DUP3 DUP1 PUSH1 0x20 ADD SWAP1 MLOAD DUP2 ADD SWAP1 PUSH2 0x525 SWAP2 SWAP1 PUSH2 0xEA1 JUMP JUMPDEST SWAP1 POP PUSH2 0x531 DUP3 DUP3 PUSH2 0xA3E JUMP JUMPDEST PUSH2 0x597 JUMPI PUSH1 0x40 MLOAD PUSH32 0x8C379A000000000000000000000000000000000000000000000000000000000 DUP2 MSTORE PUSH1 0x20 PUSH1 0x4 DUP3 ADD MSTORE PUSH1 0xD PUSH1 0x24 DUP3 ADD MSTORE PUSH32 0x6E6F7420696E76617269616E7400000000000000000000000000000000000000 PUSH1 0x44 DUP3 ADD MSTORE PUSH1 0x64 ADD PUSH2 0x2C2 JUMP JUMPDEST PUSH1 0x1 SLOAD PUSH2 0x5A4 SWAP1 DUP3 PUSH2 0xB43 JUMP JUMPDEST PUSH1 0x0 SLOAD PUSH1 0x40 DUP1 MLOAD SWAP2 DUP3 MSTORE PUSH1 0x20 DUP3 ADD DUP4 SWAP1 MSTORE SWAP2 SWAP7 POP PUSH32 0x2959F72656D7839341EF20BD9259961AC6664616544ABD2C125EA94A2076704F SWAP2 ADD PUSH1 0x40 MLOAD DUP1 SWAP2 SUB SWAP1 LOG1 PUSH1 0x0 SWAP2 SWAP1 SWAP2 SSTORE PUSH1 0x1 SSTORE POP SWAP1 SWAP4 SWAP3 POP POP POP JUMP JUMPDEST PUSH1 0x0 DUP1 PUSH1 0x0 DUP4 GT DUP1 ISZERO PUSH2 0x609 JUMPI POP PUSH1 0x64 DUP4 GT ISZERO JUMPDEST PUSH2 0x66F JUMPI PUSH1 0x40 MLOAD PUSH32 0x8C379A000000000000000000000000000000000000000000000000000000000 DUP2 MSTORE PUSH1 0x20 PUSH1 0x4 DUP3 ADD MSTORE PUSH1 0x19 PUSH1 0x24 DUP3 ADD MSTORE PUSH32 0x706572634F7574206E6F74203E2030206F72203C3D2031303000000000000000 PUSH1 0x44 DUP3 ADD MSTORE PUSH1 0x64 ADD PUSH2 0x2C2 JUMP JUMPDEST PUSH2 0x689 PUSH1 0x64 PUSH2 0x317 DUP6 PUSH1 0x0 SLOAD PUSH2 0xB0C SWAP1 SWAP2 SWAP1 PUSH4 0xFFFFFFFF AND JUMP JUMPDEST SWAP2 POP PUSH2 0x6A5 PUSH1 0x64 PUSH2 0x317 DUP6 PUSH1 0x1 SLOAD PUSH2 0xB0C SWAP1 SWAP2 SWAP1 PUSH4 0xFFFFFFFF AND JUMP JUMPDEST PUSH1 0x0 SLOAD SWAP1 SWAP2 POP PUSH2 0x6B5 SWAP1 DUP4 PUSH2 0xB43 JUMP JUMPDEST PUSH1 0x0 SSTORE PUSH1 0x1 SLOAD PUSH2 0x6C5 SWAP1 DUP3 PUSH2 0xB43 JUMP JUMPDEST PUSH1 0x1 DUP2 SWAP1 SSTORE PUSH1 0x0 SLOAD PUSH2 0x6D6 SWAP2 PUSH2 0xB0C JUMP JUMPDEST PUSH1 0x2 SSTORE SWAP1 SWAP3 SWAP1 SWAP2 POP JUMP JUMPDEST PUSH1 0x0 DUP3 GT DUP1 ISZERO PUSH2 0x6F0 JUMPI POP PUSH1 0x0 DUP2 GT JUMPDEST PUSH2 0x756 JUMPI PUSH1 0x40 MLOAD PUSH32 0x8C379A000000000000000000000000000000000000000000000000000000000 DUP2 MSTORE PUSH1 0x20 PUSH1 0x4 DUP3 ADD MSTORE PUSH1 0xB PUSH1 0x24 DUP3 ADD MSTORE PUSH32 0x78206F72207920213E2030000000000000000000000000000000000000000000 PUSH1 0x44 DUP3 ADD MSTORE PUSH1 0x64 ADD PUSH2 0x2C2 JUMP JUMPDEST PUSH1 0x0 SLOAD PUSH2 0x763 SWAP1 DUP4 PUSH2 0xB1F JUMP JUMPDEST PUSH1 0x0 SSTORE PUSH1 0x1 SLOAD PUSH2 0x773 SWAP1 DUP3 PUSH2 0xB1F JUMP JUMPDEST PUSH1 0x1 DUP2 SWAP1 SSTORE PUSH1 0x0 SLOAD PUSH2 0x2DF SWAP2 PUSH2 0xB0C JUMP JUMPDEST PUSH1 0x0 DUP1 PUSH2 0x79C DUP4 PUSH1 0x1 SLOAD PUSH2 0xB1F SWAP1 SWAP2 SWAP1 PUSH4 0xFFFFFFFF AND JUMP JUMPDEST SWAP1 POP PUSH1 0x0 PUSH2 0x7B6 PUSH1 0x4 PUSH1 0x3 SLOAD PUSH2 0xB0C SWAP1 SWAP2 SWAP1 PUSH4 0xFFFFFFFF AND JUMP JUMPDEST SWAP1 POP PUSH1 0x0 PUSH2 0x7D0 PUSH1 0x2 PUSH2 0x7CA PUSH1 0x2 SLOAD PUSH2 0x2E6 JUMP JUMPDEST SWAP1 PUSH2 0xB0C JUMP JUMPDEST SWAP1 POP PUSH1 0x0 DUP1 PUSH2 0x7E4 DUP6 PUSH2 0x7CA DUP7 PUSH1 0x4 PUSH2 0xB0C JUMP JUMPDEST SWAP1 POP PUSH1 0x0 PUSH2 0x833 PUSH2 0x7FC DUP8 PUSH2 0x7CA DUP8 DUP2 DUP11 PUSH1 0x4 PUSH2 0xB0C JUMP JUMPDEST PUSH2 0x82D PUSH2 0x80E DUP8 PUSH2 0x7CA DUP12 PUSH1 0x4 PUSH2 0xB0C JUMP JUMPDEST PUSH2 0x827 PUSH2 0x81C DUP12 PUSH1 0x2 PUSH2 0x354 JUMP JUMPDEST PUSH2 0x7CA DUP12 PUSH1 0x4 PUSH2 0xB0C JUMP JUMPDEST SWAP1 PUSH2 0xB4F JUMP JUMPDEST SWAP1 PUSH2 0xB5B JUMP JUMPDEST SWAP1 POP PUSH1 0x0 PUSH2 0x842 DUP6 PUSH1 0x3 PUSH2 0x354 JUMP JUMPDEST PUSH2 0x84B SWAP1 PUSH2 0xEBA JUMP JUMPDEST SWAP1 POP PUSH1 0x0 PUSH2 0x871 PUSH2 0x867 DUP4 PUSH2 0x861 DUP8 PUSH1 0x4 PUSH2 0xB37 JUMP JUMPDEST SWAP1 PUSH2 0xB37 JUMP JUMPDEST PUSH2 0x82D DUP6 DUP1 PUSH2 0xB37 JUMP JUMPDEST SWAP1 POP PUSH1 0x0 PUSH2 0x881 PUSH2 0x17E DUP4 PUSH2 0xB67 JUMP JUMPDEST SWAP1 POP PUSH1 0x0 DUP3 SLT PUSH2 0x9B9 JUMPI PUSH1 0x0 PUSH2 0x8AE PUSH2 0x89B DUP8 PUSH1 0x2 PUSH2 0xB37 JUMP JUMPDEST PUSH2 0x8A8 DUP5 PUSH2 0x827 DUP10 PUSH2 0xEBA JUMP JUMPDEST SWAP1 PUSH2 0xB83 JUMP JUMPDEST SWAP1 POP PUSH1 0x0 PUSH2 0x8CD PUSH2 0x8C0 DUP9 PUSH1 0x2 PUSH2 0xB37 JUMP JUMPDEST PUSH2 0x8A8 DUP6 PUSH2 0x82D DUP11 PUSH2 0xEBA JUMP JUMPDEST SWAP1 POP PUSH1 0x0 DUP3 SGT DUP1 ISZERO PUSH2 0x8E1 JUMPI POP PUSH1 0x2 SLOAD DUP3 SGT ISZERO JUMPDEST PUSH2 0x8EB JUMPI DUP1 PUSH2 0x8ED JUMP JUMPDEST DUP2 JUMPDEST SWAP8 POP PUSH2 0x8F9 DUP9 DUP13 PUSH2 0xA3E JUMP JUMPDEST PUSH2 0x95F JUMPI PUSH1 0x40 MLOAD PUSH32 0x8C379A000000000000000000000000000000000000000000000000000000000 DUP2 MSTORE PUSH1 0x20 PUSH1 0x4 DUP3 ADD MSTORE PUSH1 0xD PUSH1 0x24 DUP3 ADD MSTORE PUSH32 0x6E6F7420696E76617269616E7400000000000000000000000000000000000000 PUSH1 0x44 DUP3 ADD MSTORE PUSH1 0x64 ADD PUSH2 0x2C2 JUMP JUMPDEST PUSH1 0x0 SLOAD PUSH2 0x96C SWAP1 DUP10 PUSH2 0xB43 JUMP JUMPDEST PUSH1 0x0 DUP10 SWAP1 SSTORE PUSH1 0x1 DUP13 SWAP1 SSTORE PUSH1 0x40 DUP1 MLOAD DUP16 DUP2 MSTORE PUSH1 0x20 DUP2 ADD DUP4 SWAP1 MSTORE SWAP2 SWAP14 POP PUSH32 0xE38925757FB32B04E8218979E360E1DFEB6311608B25955073D0971D3891EDE1 SWAP2 ADD PUSH1 0x40 MLOAD DUP1 SWAP2 SUB SWAP1 LOG1 POP POP PUSH2 0xA1B JUMP JUMPDEST PUSH1 0x40 MLOAD PUSH32 0x8C379A000000000000000000000000000000000000000000000000000000000 DUP2 MSTORE PUSH1 0x20 PUSH1 0x4 DUP3 ADD MSTORE PUSH1 0x1A PUSH1 0x24 DUP3 ADD MSTORE PUSH32 0x57726F6E67207377617020616D6F756E742070726F7669646564000000000000 PUSH1 0x44 DUP3 ADD MSTORE PUSH1 0x64 ADD PUSH2 0x2C2 JUMP JUMPDEST POP POP POP POP POP POP POP POP POP SWAP2 SWAP1 POP JUMP JUMPDEST PUSH1 0x0 PUSH2 0xA39 PUSH1 0x0 SLOAD PUSH1 0x1 SLOAD PUSH2 0xA3E JUMP JUMPDEST SWAP1 POP SWAP1 JUMP JUMPDEST PUSH1 0x0 DUP1 DUP4 GT DUP1 ISZERO PUSH2 0xA51 JUMPI POP PUSH1 0x2 SLOAD DUP4 GT ISZERO JUMPDEST PUSH2 0xA5A JUMPI PUSH1 0x0 DUP1 REVERT JUMPDEST PUSH1 0x0 DUP3 GT DUP1 ISZERO PUSH2 0xA6C JUMPI POP PUSH1 0x2 SLOAD DUP3 GT ISZERO JUMPDEST PUSH2 0xA75 JUMPI PUSH1 0x0 DUP1 REVERT JUMPDEST PUSH1 0x0 PUSH2 0xA82 PUSH1 0x2 SLOAD PUSH2 0x2E6 JUMP JUMPDEST SWAP1 POP PUSH1 0x0 PUSH2 0xAAF PUSH2 0xA94 DUP4 PUSH1 0x2 PUSH2 0xB0C JUMP JUMPDEST PUSH2 0x341 PUSH2 0xAA1 DUP9 DUP9 PUSH2 0xB1F JUMP JUMPDEST PUSH1 0x3 SLOAD PUSH2 0x7CA SWAP1 PUSH1 0x4 PUSH2 0xB0C JUMP JUMPDEST SWAP1 POP PUSH1 0x0 PUSH2 0xAEB PUSH2 0xADD PUSH2 0xAC8 DUP8 PUSH2 0x7CA DUP11 PUSH1 0x4 PUSH2 0xB0C JUMP JUMPDEST PUSH2 0x317 PUSH2 0xAD6 DUP8 PUSH1 0x2 PUSH2 0xB0C JUMP JUMPDEST PUSH1 0x3 PUSH2 0x354 JUMP JUMPDEST PUSH2 0x341 PUSH2 0xAA1 DUP7 PUSH1 0x2 PUSH2 0xB0C JUMP JUMPDEST SWAP1 POP PUSH1 0x32 PUSH2 0xB01 PUSH2 0xAFC DUP4 DUP6 PUSH2 0xEF3 JUMP JUMPDEST PUSH2 0xB67 JUMP JUMPDEST SLT SWAP7 SWAP6 POP POP POP POP POP POP JUMP JUMPDEST PUSH1 0x0 PUSH2 0xB18 DUP3 DUP5 PUSH2 0xF67 JUMP JUMPDEST SWAP4 SWAP3 POP POP POP JUMP JUMPDEST PUSH1 0x0 PUSH2 0xB18 DUP3 DUP5 PUSH2 0xFA4 JUMP JUMPDEST PUSH1 0x0 PUSH2 0xB18 DUP3 DUP5 PUSH2 0xFEB JUMP JUMPDEST PUSH1 0x0 PUSH2 0xB18 DUP3 DUP5 PUSH2 0xFFF JUMP JUMPDEST PUSH1 0x0 PUSH2 0xB18 DUP3 DUP5 PUSH2 0x10BB JUMP JUMPDEST PUSH1 0x0 PUSH2 0xB18 DUP3 DUP5 PUSH2 0x10D2 JUMP JUMPDEST PUSH1 0x0 PUSH2 0xB18 DUP3 DUP5 PUSH2 0xEF3 JUMP JUMPDEST PUSH1 0x0 DUP1 DUP3 SLT ISZERO PUSH2 0xB7F JUMPI PUSH2 0xB7A DUP3 PUSH2 0xEBA JUMP JUMPDEST PUSH2 0x34E JUMP JUMPDEST POP SWAP1 JUMP JUMPDEST PUSH1 0x0 PUSH2 0xB18 DUP3 DUP5 PUSH2 0x1146 JUMP JUMPDEST PUSH1 0x0 DUP1 PUSH1 0x40 DUP4 DUP6 SUB SLT ISZERO PUSH2 0xBA2 JUMPI PUSH1 0x0 DUP1 REVERT JUMPDEST POP POP DUP1 CALLDATALOAD SWAP3 PUSH1 0x20 SWAP1 SWAP2 ADD CALLDATALOAD SWAP2 POP JUMP JUMPDEST PUSH1 0x0 PUSH1 0x20 DUP3 DUP5 SUB SLT ISZERO PUSH2 0xBC3 JUMPI PUSH1 0x0 DUP1 REVERT JUMPDEST POP CALLDATALOAD SWAP2 SWAP1 POP JUMP JUMPDEST PUSH32 0x4E487B7100000000000000000000000000000000000000000000000000000000 PUSH1 0x0 MSTORE PUSH1 0x41 PUSH1 0x4 MSTORE PUSH1 0x24 PUSH1 0x0 REVERT JUMPDEST PUSH1 0x40 MLOAD PUSH1 0x1F DUP3 ADD PUSH32 0xFFFFFFFFFFFFFFFFFFFFFFFFFFFFFFFFFFFFFFFFFFFFFFFFFFFFFFFFFFFFFFE0 AND DUP2 ADD PUSH8 0xFFFFFFFFFFFFFFFF DUP2 GT DUP3 DUP3 LT OR ISZERO PUSH2 0xC40 JUMPI PUSH2 0xC40 PUSH2 0xBCA JUMP JUMPDEST PUSH1 0x40 MSTORE SWAP2 SWAP1 POP JUMP JUMPDEST PUSH1 0x0 PUSH8 0xFFFFFFFFFFFFFFFF DUP3 GT ISZERO PUSH2 0xC62 JUMPI PUSH2 0xC62 PUSH2 0xBCA JUMP JUMPDEST POP PUSH1 0x1F ADD PUSH32 0xFFFFFFFFFFFFFFFFFFFFFFFFFFFFFFFFFFFFFFFFFFFFFFFFFFFFFFFFFFFFFFE0 AND PUSH1 0x20 ADD SWAP1 JUMP JUMPDEST PUSH1 0x0 DUP1 PUSH1 0x40 DUP4 DUP6 SUB SLT ISZERO PUSH2 0xCA1 JUMPI PUSH1 0x0 DUP1 REVERT JUMPDEST DUP3 CALLDATALOAD PUSH8 0xFFFFFFFFFFFFFFFF DUP2 GT ISZERO PUSH2 0xCB8 JUMPI PUSH1 0x0 DUP1 REVERT JUMPDEST DUP4 ADD PUSH1 0x1F DUP2 ADD DUP6 SGT PUSH2 0xCC9 JUMPI PUSH1 0x0 DUP1 REVERT JUMPDEST DUP1 CALLDATALOAD PUSH2 0xCDC PUSH2 0xCD7 DUP3 PUSH2 0xC48 JUMP JUMPDEST PUSH2 0xBF9 JUMP JUMPDEST DUP2 DUP2 MSTORE DUP7 PUSH1 0x20 DUP4 DUP6 ADD ADD GT ISZERO PUSH2 0xCF1 JUMPI PUSH1 0x0 DUP1 REVERT JUMPDEST DUP2 PUSH1 0x20 DUP5 ADD PUSH1 0x20 DUP4 ADD CALLDATACOPY PUSH1 0x0 PUSH1 0x20 SWAP3 DUP3 ADD DUP4 ADD MSTORE SWAP7 SWAP5 ADD CALLDATALOAD SWAP5 POP POP POP POP JUMP JUMPDEST PUSH32 0x4E487B7100000000000000000000000000000000000000000000000000000000 PUSH1 0x0 MSTORE PUSH1 0x11 PUSH1 0x4 MSTORE PUSH1 0x24 PUSH1 0x0 REVERT JUMPDEST PUSH1 0x0 PUSH32 0x7FFFFFFFFFFFFFFFFFFFFFFFFFFFFFFFFFFFFFFFFFFFFFFFFFFFFFFFFFFFFFFF DUP3 EQ ISZERO PUSH2 0xD71 JUMPI PUSH2 0xD71 PUSH2 0xD10 JUMP JUMPDEST POP PUSH1 0x1 ADD SWAP1 JUMP JUMPDEST PUSH1 0x0 JUMPDEST DUP4 DUP2 LT ISZERO PUSH2 0xD93 JUMPI DUP2 DUP2 ADD MLOAD DUP4 DUP3 ADD MSTORE PUSH1 0x20 ADD PUSH2 0xD7B JUMP JUMPDEST DUP4 DUP2 GT ISZERO PUSH2 0xDA2 JUMPI PUSH1 0x0 DUP5 DUP5 ADD MSTORE JUMPDEST POP POP POP POP JUMP JUMPDEST PUSH1 0x0 DUP2 MLOAD DUP1 DUP5 MSTORE PUSH2 0xDC0 DUP2 PUSH1 0x20 DUP7 ADD PUSH1 0x20 DUP7 ADD PUSH2 0xD78 JUMP JUMPDEST PUSH1 0x1F ADD PUSH32 0xFFFFFFFFFFFFFFFFFFFFFFFFFFFFFFFFFFFFFFFFFFFFFFFFFFFFFFFFFFFFFFE0 AND SWAP3 SWAP1 SWAP3 ADD PUSH1 0x20 ADD SWAP3 SWAP2 POP POP JUMP JUMPDEST PUSH1 0x40 DUP2 MSTORE PUSH1 0x0 PUSH2 0xE05 PUSH1 0x40 DUP4 ADD DUP6 PUSH2 0xDA8 JUMP JUMPDEST DUP3 DUP2 SUB PUSH1 0x20 DUP5 ADD MSTORE PUSH2 0xE17 DUP2 DUP6 PUSH2 0xDA8 JUMP JUMPDEST SWAP6 SWAP5 POP POP POP POP POP JUMP JUMPDEST PUSH1 0x0 PUSH1 0x20 DUP3 DUP5 SUB SLT ISZERO PUSH2 0xE32 JUMPI PUSH1 0x0 DUP1 REVERT JUMPDEST DUP2 MLOAD PUSH8 0xFFFFFFFFFFFFFFFF DUP2 GT ISZERO PUSH2 0xE49 JUMPI PUSH1 0x0 DUP1 REVERT JUMPDEST DUP3 ADD PUSH1 0x1F DUP2 ADD DUP5 SGT PUSH2 0xE5A JUMPI PUSH1 0x0 DUP1 REVERT JUMPDEST DUP1 MLOAD PUSH2 0xE68 PUSH2 0xCD7 DUP3 PUSH2 0xC48 JUMP JUMPDEST DUP2 DUP2 MSTORE DUP6 PUSH1 0x20 DUP4 DUP6 ADD ADD GT ISZERO PUSH2 0xE7D JUMPI PUSH1 0x0 DUP1 REVERT JUMPDEST PUSH2 0xE17 DUP3 PUSH1 0x20 DUP4 ADD PUSH1 0x20 DUP7 ADD PUSH2 0xD78 JUMP JUMPDEST PUSH1 0x20 DUP2 MSTORE PUSH1 0x0 PUSH2 0xB18 PUSH1 0x20 DUP4 ADD DUP5 PUSH2 0xDA8 JUMP JUMPDEST PUSH1 0x0 PUSH1 0x20 DUP3 DUP5 SUB SLT ISZERO PUSH2 0xEB3 JUMPI PUSH1 0x0 DUP1 REVERT JUMPDEST POP MLOAD SWAP2 SWAP1 POP JUMP JUMPDEST PUSH1 0x0 PUSH32 0x8000000000000000000000000000000000000000000000000000000000000000 DUP3 EQ ISZERO PUSH2 0xEEC JUMPI PUSH2 0xEEC PUSH2 0xD10 JUMP JUMPDEST POP PUSH1 0x0 SUB SWAP1 JUMP JUMPDEST PUSH1 0x0 DUP1 DUP4 SLT DUP4 PUSH32 0x8000000000000000000000000000000000000000000000000000000000000000 ADD DUP4 SLT DUP2 ISZERO AND ISZERO PUSH2 0xF2D JUMPI PUSH2 0xF2D PUSH2 0xD10 JUMP JUMPDEST DUP4 PUSH32 0x7FFFFFFFFFFFFFFFFFFFFFFFFFFFFFFFFFFFFFFFFFFFFFFFFFFFFFFFFFFFFFFF ADD DUP4 SGT DUP2 AND ISZERO PUSH2 0xF61 JUMPI PUSH2 0xF61 PUSH2 0xD10 JUMP JUMPDEST POP POP SUB SWAP1 JUMP JUMPDEST PUSH1 0x0 DUP2 PUSH32 0xFFFFFFFFFFFFFFFFFFFFFFFFFFFFFFFFFFFFFFFFFFFFFFFFFFFFFFFFFFFFFFFF DIV DUP4 GT DUP3 ISZERO ISZERO AND ISZERO PUSH2 0xF9F JUMPI PUSH2 0xF9F PUSH2 0xD10 JUMP JUMPDEST POP MUL SWAP1 JUMP JUMPDEST PUSH1 0x0 DUP3 NOT DUP3 GT ISZERO PUSH2 0xFB7 JUMPI PUSH2 0xFB7 PUSH2 0xD10 JUMP JUMPDEST POP ADD SWAP1 JUMP JUMPDEST PUSH32 0x4E487B7100000000000000000000000000000000000000000000000000000000 PUSH1 0x0 MSTORE PUSH1 0x12 PUSH1 0x4 MSTORE PUSH1 0x24 PUSH1 0x0 REVERT JUMPDEST PUSH1 0x0 DUP3 PUSH2 0xFFA JUMPI PUSH2 0xFFA PUSH2 0xFBC JUMP JUMPDEST POP DIV SWAP1 JUMP JUMPDEST PUSH1 0x0 PUSH32 0x7FFFFFFFFFFFFFFFFFFFFFFFFFFFFFFFFFFFFFFFFFFFFFFFFFFFFFFFFFFFFFFF PUSH1 0x0 DUP5 SGT PUSH1 0x0 DUP5 SGT DUP6 DUP4 DIV DUP6 GT DUP3 DUP3 AND AND ISZERO PUSH2 0x1040 JUMPI PUSH2 0x1040 PUSH2 0xD10 JUMP JUMPDEST PUSH32 0x8000000000000000000000000000000000000000000000000000000000000000 PUSH1 0x0 DUP8 SLT DUP7 DUP3 SDIV DUP9 SLT DUP2 DUP5 AND AND ISZERO PUSH2 0x107B JUMPI PUSH2 0x107B PUSH2 0xD10 JUMP JUMPDEST PUSH1 0x0 DUP8 SLT SWAP3 POP DUP8 DUP3 SDIV DUP8 SLT DUP5 DUP5 AND AND ISZERO PUSH2 0x1097 JUMPI PUSH2 0x1097 PUSH2 0xD10 JUMP JUMPDEST DUP8 DUP6 SDIV DUP8 SLT DUP2 DUP5 AND AND ISZERO PUSH2 0x10AD JUMPI PUSH2 0x10AD PUSH2 0xD10 JUMP JUMPDEST POP POP POP SWAP3 SWAP1 SWAP4 MUL SWAP4 SWAP3 POP POP POP JUMP JUMPDEST PUSH1 0x0 DUP3 DUP3 LT ISZERO PUSH2 0x10CD JUMPI PUSH2 0x10CD PUSH2 0xD10 JUMP JUMPDEST POP SUB SWAP1 JUMP JUMPDEST PUSH1 0x0 DUP1 DUP3 SLT DUP3 PUSH32 0x7FFFFFFFFFFFFFFFFFFFFFFFFFFFFFFFFFFFFFFFFFFFFFFFFFFFFFFFFFFFFFFF SUB DUP5 SGT DUP2 ISZERO AND ISZERO PUSH2 0x110C JUMPI PUSH2 0x110C PUSH2 0xD10 JUMP JUMPDEST DUP3 PUSH32 0x8000000000000000000000000000000000000000000000000000000000000000 SUB DUP5 SLT DUP2 AND ISZERO PUSH2 0x1140 JUMPI PUSH2 0x1140 PUSH2 0xD10 JUMP JUMPDEST POP POP ADD SWAP1 JUMP JUMPDEST PUSH1 0x0 DUP3 PUSH2 0x1155 JUMPI PUSH2 0x1155 PUSH2 0xFBC JUMP JUMPDEST PUSH32 0xFFFFFFFFFFFFFFFFFFFFFFFFFFFFFFFFFFFFFFFFFFFFFFFFFFFFFFFFFFFFFFFF DUP4 EQ PUSH32 0x8000000000000000000000000000000000000000000000000000000000000000 DUP4 EQ AND ISZERO PUSH2 0x11A9 JUMPI PUSH2 0x11A9 PUSH2 0xD10 JUMP JUMPDEST POP SDIV SWAP1 JUMP INVALID LOG1 PUSH5 0x736F6C6343 STOP ADDMOD MULMOD STOP EXP "
        },
        "methodIdentifiers": {
          "A()": "f446c1d0",
          "addLiquidity(uint256,uint256)": "9cd441da",
          "changeA(uint256)": "fcbfcc71",
          "helperAddr()": "1569f615",
          "invariant()": "b03a9a05",
          "invariant(uint256,uint256)": "dec452dd",
          "k()": "b4f40c61",
          "pow(int256,int256)": "92b0c5b2",
          "removeLiquidity(uint256)": "9c8f9f23",
          "setTo(uint256,uint256)": "30dbd9db",
          "sqrt(uint256)": "677342ce",
          "swap_x(string,uint256)": "94e6c7cb",
          "swap_y(uint256)": "adde7b8b",
          "x()": "0c55699c",
          "y()": "a56dfe4a"
        }
      },
      "storageLayout": {
        "storage": [
          {
            "astId": 413,
            "contract": "contracts/StableSwap.sol:StableSwap",
            "label": "x",
            "offset": 0,
            "slot": "0",
            "type": "t_uint256"
          },
          {
            "astId": 415,
            "contract": "contracts/StableSwap.sol:StableSwap",
            "label": "y",
            "offset": 0,
            "slot": "1",
            "type": "t_uint256"
          },
          {
            "astId": 417,
            "contract": "contracts/StableSwap.sol:StableSwap",
            "label": "k",
            "offset": 0,
            "slot": "2",
            "type": "t_uint256"
          },
          {
            "astId": 419,
            "contract": "contracts/StableSwap.sol:StableSwap",
            "label": "A",
            "offset": 0,
            "slot": "3",
            "type": "t_uint256"
          },
          {
            "astId": 421,
            "contract": "contracts/StableSwap.sol:StableSwap",
            "label": "helperAddr",
            "offset": 0,
            "slot": "4",
            "type": "t_address"
          },
          {
            "astId": 424,
            "contract": "contracts/StableSwap.sol:StableSwap",
            "label": "myHelper",
            "offset": 0,
            "slot": "5",
            "type": "t_contract(Helper)389"
          }
        ],
        "types": {
          "t_address": {
            "encoding": "inplace",
            "label": "address",
            "numberOfBytes": "20"
          },
          "t_contract(Helper)389": {
            "encoding": "inplace",
            "label": "contract Helper",
            "numberOfBytes": "20"
          },
          "t_uint256": {
            "encoding": "inplace",
            "label": "uint256",
            "numberOfBytes": "32"
          }
        }
      }
    }
  }
}