{
  "_format": "hh-sol-artifact-1",
  "contractName": "MockL2CrossDomainMessenger",
  "sourceName": "test/test-contracts/MockL2CrossDomainMessenger.sol",
  "abi": [
    {
      "anonymous": false,
      "inputs": [
        {
          "indexed": true,
          "internalType": "address",
          "name": "target",
          "type": "address"
        },
        {
          "indexed": false,
          "internalType": "address",
          "name": "sender",
          "type": "address"
        },
        {
          "indexed": false,
          "internalType": "bytes",
          "name": "message",
          "type": "bytes"
        },
        {
          "indexed": false,
          "internalType": "uint256",
          "name": "messageNonce",
          "type": "uint256"
        },
        {
          "indexed": false,
          "internalType": "uint256",
          "name": "gasLimit",
          "type": "uint256"
        }
      ],
      "name": "SentMessage",
      "type": "event"
    },
    {
      "inputs": [],
      "name": "doNothing",
      "outputs": [],
      "stateMutability": "nonpayable",
      "type": "function"
    },
    {
      "inputs": [
        {
          "components": [
            {
              "internalType": "address",
              "name": "target",
              "type": "address"
            },
            {
              "internalType": "address",
              "name": "sender",
              "type": "address"
            },
            {
              "internalType": "bytes",
              "name": "message",
              "type": "bytes"
            },
            {
              "internalType": "uint256",
              "name": "messageNonce",
              "type": "uint256"
            }
          ],
          "internalType": "struct MockL2CrossDomainMessenger.MessageData[]",
          "name": "_messages",
          "type": "tuple[]"
        }
      ],
      "name": "emitMultipleSentMessageEvents",
      "outputs": [],
      "stateMutability": "nonpayable",
      "type": "function"
    },
    {
      "inputs": [
        {
          "components": [
            {
              "internalType": "address",
              "name": "target",
              "type": "address"
            },
            {
              "internalType": "address",
              "name": "sender",
              "type": "address"
            },
            {
              "internalType": "bytes",
              "name": "message",
              "type": "bytes"
            },
            {
              "internalType": "uint256",
              "name": "messageNonce",
              "type": "uint256"
            }
          ],
          "internalType": "struct MockL2CrossDomainMessenger.MessageData",
          "name": "_message",
          "type": "tuple"
        }
      ],
      "name": "emitSentMessageEvent",
      "outputs": [],
      "stateMutability": "nonpayable",
      "type": "function"
    }
  ],
  "bytecode": "0x608060405234801561001057600080fd5b50610424806100206000396000f3fe608060405234801561001057600080fd5b50600436106100415760003560e01c806326dda3ab146100465780632f576f2014610059578063f4d4ebc61461005b575b600080fd5b610059610054366004610264565b61006e565b005b610059610069366004610327565b6100b2565b60005b81518110156100ae5761009c82828151811061008f5761008f610364565b60200260200101516100b2565b806100a68161037a565b915050610071565b5050565b80600001516001600160a01b03167fcb0f7ffd78f9aee47a248fae8db181db6eee833039123e026dcbff529522e52a826020015183604001518460600151600060405161010294939291906103a3565b60405180910390a250565b634e487b7160e01b600052604160045260246000fd5b6040516080810167ffffffffffffffff811182821017156101465761014661010d565b60405290565b604051601f8201601f1916810167ffffffffffffffff811182821017156101755761017561010d565b604052919050565b80356001600160a01b038116811461019457600080fd5b919050565b6000608082840312156101ab57600080fd5b6101b3610123565b90506101be8261017d565b815260206101cd81840161017d565b81830152604083013567ffffffffffffffff808211156101ec57600080fd5b818501915085601f83011261020057600080fd5b8135818111156102125761021261010d565b610224601f8201601f1916850161014c565b9150808252868482850101111561023a57600080fd5b80848401858401376000848284010152508060408501525050506060820135606082015292915050565b6000602080838503121561027757600080fd5b823567ffffffffffffffff8082111561028f57600080fd5b818501915085601f8301126102a357600080fd5b8135818111156102b5576102b561010d565b8060051b6102c485820161014c565b91825283810185019185810190898411156102de57600080fd5b86860192505b8383101561031a578235858111156102fc5760008081fd5b61030a8b89838a0101610199565b83525091860191908601906102e4565b9998505050505050505050565b60006020828403121561033957600080fd5b813567ffffffffffffffff81111561035057600080fd5b61035c84828501610199565b949350505050565b634e487b7160e01b600052603260045260246000fd5b600060001982141561039c57634e487b7160e01b600052601160045260246000fd5b5060010190565b60018060a01b038516815260006020608081840152855180608085015260005b818110156103df5787810183015185820160a0015282016103c3565b818111156103f157600060a083870101525b5060408401959095525050606081019190915260a0601f909201601f191601019291505056fea164736f6c6343000808000a",
  "linkReferences": {},
  "deployedLinkReferences": {}
}