{
  "_format": "hh-sol-artifact-1",
  "contractName": "OVMContextStorage",
  "sourceName": "contracts/OVMContextStorage.sol",
  "abi": [
    {
      "stateMutability": "nonpayable",
      "type": "fallback"
    },
    {
      "inputs": [
        {
          "internalType": "uint256",
          "name": "",
          "type": "uint256"
        }
      ],
      "name": "blockNumbers",
      "outputs": [
        {
          "internalType": "uint256",
          "name": "",
          "type": "uint256"
        }
      ],
      "stateMutability": "view",
      "type": "function"
    },
    {
      "inputs": [
        {
          "internalType": "uint256",
          "name": "",
          "type": "uint256"
        }
      ],
      "name": "coinbases",
      "outputs": [
        {
          "internalType": "address",
          "name": "",
          "type": "address"
        }
      ],
      "stateMutability": "view",
      "type": "function"
    },
    {
      "inputs": [
        {
          "internalType": "uint256",
          "name": "",
          "type": "uint256"
        }
      ],
      "name": "difficulty",
      "outputs": [
        {
          "internalType": "uint256",
          "name": "",
          "type": "uint256"
        }
      ],
      "stateMutability": "view",
      "type": "function"
    },
    {
      "inputs": [],
      "name": "index",
      "outputs": [
        {
          "internalType": "uint256",
          "name": "",
          "type": "uint256"
        }
      ],
      "stateMutability": "view",
      "type": "function"
    },
    {
      "inputs": [
        {
          "internalType": "uint256",
          "name": "",
          "type": "uint256"
        }
      ],
      "name": "l1BlockNumbers",
      "outputs": [
        {
          "internalType": "uint256",
          "name": "",
          "type": "uint256"
        }
      ],
      "stateMutability": "view",
      "type": "function"
    },
    {
      "inputs": [
        {
          "internalType": "uint256",
          "name": "",
          "type": "uint256"
        }
      ],
      "name": "timestamps",
      "outputs": [
        {
          "internalType": "uint256",
          "name": "",
          "type": "uint256"
        }
      ],
      "stateMutability": "view",
      "type": "function"
    }
  ],
  "bytecode": "0x6080604052600060055534801561001557600080fd5b50610321806100256000396000f3fe608060405234801561001057600080fd5b50600436106100725760003560e01c80638bc33af3116100505780638bc33af314610222578063a054610514610242578063cd8bff331461026257610072565b80630ebf0de71461018b5780632986c0e5146101eb57806346cc92d914610202575b73420000000000000000000000000000000000001373ffffffffffffffffffffffffffffffffffffffff1663b9b3efe96040518163ffffffff1660e01b815260040160206040518083038186803b1580156100cc57600080fd5b505afa1580156100e0573d6000803e3d6000fd5b505050506040513d601f19601f820116820180604052508101906101049190610282565b6005805460009081526020818152604080832094909455825482526001815283822043905582548252600281528382204290558254825260038152838220449055825482526004905291822080547fffffffffffffffffffffffff000000000000000000000000000000000000000016411790558054916101848361029b565b9190505550005b6101c16101993660046102fb565b60046020526000908152604090205473ffffffffffffffffffffffffffffffffffffffff1681565b60405173ffffffffffffffffffffffffffffffffffffffff90911681526020015b60405180910390f35b6101f460055481565b6040519081526020016101e2565b6101f46102103660046102fb565b60036020526000908152604090205481565b6101f46102303660046102fb565b60026020526000908152604090205481565b6101f46102503660046102fb565b60006020819052908152604090205481565b6101f46102703660046102fb565b60016020526000908152604090205481565b60006020828403121561029457600080fd5b5051919050565b60007fffffffffffffffffffffffffffffffffffffffffffffffffffffffffffffffff8214156102f4577f4e487b7100000000000000000000000000000000000000000000000000000000600052601160045260246000fd5b5060010190565b60006020828403121561030d57600080fd5b503591905056fea164736f6c6343000809000a",
  "linkReferences": {},
  "deployedLinkReferences": {}
}