{
  "_format": "hh-sol-artifact-1",
  "contractName": "BobaFaucet",
  "sourceName": "contracts/BobaFaucet.sol",
  "abi": [
    {
      "inputs": [
        {
          "internalType": "address",
          "name": "_turingHelperAddress",
          "type": "address"
        },
        {
          "internalType": "string",
          "name": "_turingUrl",
          "type": "string"
        },
        {
          "internalType": "address",
          "name": "_BobaAddress",
          "type": "address"
        },
        {
          "internalType": "uint256",
          "name": "_waitingPeriod",
          "type": "uint256"
        },
        {
          "internalType": "uint256",
          "name": "_BobaFaucetAmount",
          "type": "uint256"
        },
        {
          "internalType": "uint256",
          "name": "_ETHFaucetAmount",
          "type": "uint256"
        }
      ],
      "stateMutability": "nonpayable",
      "type": "constructor"
    },
    {
      "anonymous": false,
      "inputs": [
        {
          "indexed": false,
          "internalType": "address",
          "name": "turingHelperAddress",
          "type": "address"
        },
        {
          "indexed": false,
          "internalType": "string",
          "name": "turingUrl",
          "type": "string"
        },
        {
          "indexed": false,
          "internalType": "uint256",
          "name": "waitingPeriod",
          "type": "uint256"
        },
        {
          "indexed": false,
          "internalType": "uint256",
          "name": "BobaFaucetAmount",
          "type": "uint256"
        },
        {
          "indexed": false,
          "internalType": "uint256",
          "name": "ETHFaucetAmount",
          "type": "uint256"
        }
      ],
      "name": "Configure",
      "type": "event"
    },
    {
      "anonymous": false,
      "inputs": [
        {
          "indexed": false,
          "internalType": "bytes32",
          "name": "uuid",
          "type": "bytes32"
        },
        {
          "indexed": false,
          "internalType": "bytes32",
          "name": "key",
          "type": "bytes32"
        },
        {
          "indexed": false,
          "internalType": "address",
          "name": "receiver",
          "type": "address"
        },
        {
          "indexed": false,
          "internalType": "uint256",
          "name": "amount",
          "type": "uint256"
        },
        {
          "indexed": false,
          "internalType": "uint256",
          "name": "timestamp",
          "type": "uint256"
        }
      ],
      "name": "GetBobaFaucet",
      "type": "event"
    },
    {
      "anonymous": false,
      "inputs": [
        {
          "indexed": false,
          "internalType": "bytes32",
          "name": "uuid",
          "type": "bytes32"
        },
        {
          "indexed": false,
          "internalType": "bytes32",
          "name": "key",
          "type": "bytes32"
        },
        {
          "indexed": false,
          "internalType": "address",
          "name": "receiver",
          "type": "address"
        },
        {
          "indexed": false,
          "internalType": "uint256",
          "name": "amount",
          "type": "uint256"
        },
        {
          "indexed": false,
          "internalType": "uint256",
          "name": "timestamp",
          "type": "uint256"
        }
      ],
      "name": "GetETHFaucet",
      "type": "event"
    },
    {
      "anonymous": false,
      "inputs": [
        {
          "indexed": true,
          "internalType": "address",
          "name": "previousOwner",
          "type": "address"
        },
        {
          "indexed": true,
          "internalType": "address",
          "name": "newOwner",
          "type": "address"
        }
      ],
      "name": "OwnershipTransferred",
      "type": "event"
    },
    {
      "anonymous": false,
      "inputs": [
        {
          "indexed": false,
          "internalType": "string",
          "name": "url",
          "type": "string"
        },
        {
          "indexed": false,
          "internalType": "bytes32",
          "name": "uuid",
          "type": "bytes32"
        },
        {
          "indexed": false,
          "internalType": "bytes32",
          "name": "key",
          "type": "bytes32"
        },
        {
          "indexed": false,
          "internalType": "uint256",
          "name": "result",
          "type": "uint256"
        }
      ],
      "name": "VerifyKey",
      "type": "event"
    },
    {
      "anonymous": false,
      "inputs": [
        {
          "indexed": false,
          "internalType": "address",
          "name": "receiver",
          "type": "address"
        },
        {
          "indexed": false,
          "internalType": "address",
          "name": "tokenAddress",
          "type": "address"
        },
        {
          "indexed": false,
          "internalType": "uint256",
          "name": "amount",
          "type": "uint256"
        }
      ],
      "name": "WithdrawToken",
      "type": "event"
    },
    {
      "inputs": [],
      "name": "BobaAddress",
      "outputs": [
        {
          "internalType": "address",
          "name": "",
          "type": "address"
        }
      ],
      "stateMutability": "view",
      "type": "function"
    },
    {
      "inputs": [],
      "name": "BobaFaucetAmount",
      "outputs": [
        {
          "internalType": "uint256",
          "name": "",
          "type": "uint256"
        }
      ],
      "stateMutability": "view",
      "type": "function"
    },
    {
      "inputs": [],
      "name": "ETHAddress",
      "outputs": [
        {
          "internalType": "address",
          "name": "",
          "type": "address"
        }
      ],
      "stateMutability": "view",
      "type": "function"
    },
    {
      "inputs": [],
      "name": "ETHFaucetAmount",
      "outputs": [
        {
          "internalType": "uint256",
          "name": "",
          "type": "uint256"
        }
      ],
      "stateMutability": "view",
      "type": "function"
    },
    {
      "inputs": [
        {
          "internalType": "bytes32",
          "name": "_uuid",
          "type": "bytes32"
        },
        {
          "internalType": "bytes32",
          "name": "_key",
          "type": "bytes32"
        }
      ],
      "name": "_verifyKey",
      "outputs": [
        {
          "internalType": "uint256",
          "name": "",
          "type": "uint256"
        }
      ],
      "stateMutability": "nonpayable",
      "type": "function"
    },
    {
      "inputs": [
        {
          "internalType": "address",
          "name": "_turingHelperAddress",
          "type": "address"
        },
        {
          "internalType": "string",
          "name": "_turingUrl",
          "type": "string"
        },
        {
          "internalType": "uint256",
          "name": "_waitingPeriod",
          "type": "uint256"
        },
        {
          "internalType": "uint256",
          "name": "_BobaFaucetAmount",
          "type": "uint256"
        },
        {
          "internalType": "uint256",
          "name": "_ETHFaucetAmount",
          "type": "uint256"
        }
      ],
      "name": "configure",
      "outputs": [],
      "stateMutability": "nonpayable",
      "type": "function"
    },
    {
      "inputs": [
        {
          "internalType": "bytes32",
          "name": "_uuid",
          "type": "bytes32"
        },
        {
          "internalType": "string",
          "name": "_key",
          "type": "string"
        }
      ],
      "name": "getBobaFaucet",
      "outputs": [],
      "stateMutability": "nonpayable",
      "type": "function"
    },
    {
      "inputs": [
        {
          "internalType": "bytes32",
          "name": "_uuid",
          "type": "bytes32"
        },
        {
          "internalType": "string",
          "name": "_key",
          "type": "string"
        }
      ],
      "name": "getETHFaucet",
      "outputs": [],
      "stateMutability": "nonpayable",
      "type": "function"
    },
    {
      "inputs": [],
      "name": "owner",
      "outputs": [
        {
          "internalType": "address",
          "name": "",
          "type": "address"
        }
      ],
      "stateMutability": "view",
      "type": "function"
    },
    {
      "inputs": [],
      "name": "renounceOwnership",
      "outputs": [],
      "stateMutability": "nonpayable",
      "type": "function"
    },
    {
      "inputs": [
        {
          "internalType": "address",
          "name": "newOwner",
          "type": "address"
        }
      ],
      "name": "transferOwnership",
      "outputs": [],
      "stateMutability": "nonpayable",
      "type": "function"
    },
    {
      "inputs": [],
      "name": "turing",
      "outputs": [
        {
          "internalType": "contract TuringHelper",
          "name": "",
          "type": "address"
        }
      ],
      "stateMutability": "view",
      "type": "function"
    },
    {
      "inputs": [],
      "name": "turingHelperAddress",
      "outputs": [
        {
          "internalType": "address",
          "name": "",
          "type": "address"
        }
      ],
      "stateMutability": "view",
      "type": "function"
    },
    {
      "inputs": [],
      "name": "turingUrl",
      "outputs": [
        {
          "internalType": "string",
          "name": "",
          "type": "string"
        }
      ],
      "stateMutability": "view",
      "type": "function"
    },
    {
      "inputs": [],
      "name": "waitingPeriod",
      "outputs": [
        {
          "internalType": "uint256",
          "name": "",
          "type": "uint256"
        }
      ],
      "stateMutability": "view",
      "type": "function"
    },
    {
      "inputs": [
        {
          "internalType": "address",
          "name": "_tokenAddress",
          "type": "address"
        },
        {
          "internalType": "uint256",
          "name": "_amount",
          "type": "uint256"
        }
      ],
      "name": "withdrawToken",
      "outputs": [],
      "stateMutability": "nonpayable",
      "type": "function"
    },
    {
      "stateMutability": "payable",
      "type": "receive"
    }
  ],
  "bytecode": "0x6080604052600280546001600160a01b0319167342000000000000000000000000000000000000061790553480156200003757600080fd5b5060405162001a8038038062001a808339810160408190526200005a9162000205565b6200006533620000dc565b600680546001600160a01b0388166001600160a01b031991821681179092556008805490911690911790558451620000a59060079060208801906200012c565b50600180546001600160a01b0319166001600160a01b03959095169490941790935560059190915560035560045550620003639050565b600080546001600160a01b038381166001600160a01b0319831681178455604051919092169283917f8be0079c531659141344cd1fd0a4f28419497f9722a3daafe3b4186f6b6457e09190a35050565b8280546200013a9062000326565b90600052602060002090601f0160209004810192826200015e5760008555620001a9565b82601f106200017957805160ff1916838001178555620001a9565b82800160010185558215620001a9579182015b82811115620001a95782518255916020019190600101906200018c565b50620001b7929150620001bb565b5090565b5b80821115620001b75760008155600101620001bc565b80516001600160a01b0381168114620001ea57600080fd5b919050565b634e487b7160e01b600052604160045260246000fd5b60008060008060008060c087890312156200021f57600080fd5b6200022a87620001d2565b602088810151919750906001600160401b03808211156200024a57600080fd5b818a0191508a601f8301126200025f57600080fd5b815181811115620002745762000274620001ef565b604051601f8201601f19908116603f011681019083821181831017156200029f576200029f620001ef565b816040528281528d86848701011115620002b857600080fd5b600093505b82841015620002dc5784840186015181850187015292850192620002bd565b82841115620002ee5760008684830101525b809a505050505050506200030560408801620001d2565b9350606087015192506080870151915060a087015190509295509295509295565b600181811c908216806200033b57607f821691505b602082108114156200035d57634e487b7160e01b600052602260045260246000fd5b50919050565b61170d80620003736000396000f3fe6080604052600436106100f75760003560e01c8063a108b33e1161008a578063da228a9b11610059578063da228a9b146102bb578063e98d2c9c146102e8578063f2fde38b14610308578063f68a95951461032857600080fd5b8063a108b33e1461022c578063a24a431a1461024c578063a3b2fce11461026c578063b02dc9681461029957600080fd5b8063715018a6116100c6578063715018a6146101b6578063716b719f146101cb5780638da5cb5b146101e15780639e281a981461020c57600080fd5b80633a2ef9df146101035780634b5d70ee1461012c57806350c897ba1461014e578063640c076a146101a057600080fd5b366100fe57005b600080fd5b34801561010f57600080fd5b5061011960055481565b6040519081526020015b60405180910390f35b34801561013857600080fd5b5061014c61014736600461125b565b610355565b005b34801561015a57600080fd5b5060085461017b9073ffffffffffffffffffffffffffffffffffffffff1681565b60405173ffffffffffffffffffffffffffffffffffffffff9091168152602001610123565b3480156101ac57600080fd5b5061011960035481565b3480156101c257600080fd5b5061014c6104dc565b3480156101d757600080fd5b5061011960045481565b3480156101ed57600080fd5b5060005473ffffffffffffffffffffffffffffffffffffffff1661017b565b34801561021857600080fd5b5061014c6102273660046112cb565b61054f565b34801561023857600080fd5b506101196102473660046112f5565b6106f7565b34801561025857600080fd5b5061014c61026736600461125b565b610876565b34801561027857600080fd5b5060065461017b9073ffffffffffffffffffffffffffffffffffffffff1681565b3480156102a557600080fd5b506102ae610a75565b6040516101239190611391565b3480156102c757600080fd5b5060025461017b9073ffffffffffffffffffffffffffffffffffffffff1681565b3480156102f457600080fd5b5061014c6103033660046113a4565b610b03565b34801561031457600080fd5b5061014c61032336600461140d565b610c15565b34801561033457600080fd5b5060015461017b9073ffffffffffffffffffffffffffffffffffffffff1681565b60055433600090815260096020526040902054429161037391611428565b106103c55760405162461bcd60e51b815260206004820152600f60248201527f496e76616c69642072657175657374000000000000000000000000000000000060448201526064015b60405180910390fd5b6000816040516020016103d89190611467565b60405160208183030381529060405280519060200120905060006103fc84836106f7565b90508060011461044e5760405162461bcd60e51b815260206004820152601460248201527f496e76616c6964206b657920616e64205555494400000000000000000000000060448201526064016103bc565b3360008181526009602052604090204290556003546001546104889273ffffffffffffffffffffffffffffffffffffffff90911691610d11565b600354604080518681526020810185905233818301526060810192909252426080830152517e3056eceafb45d8f778948755119406e47409a19bcbc364322027a8b57dcaf79181900360a00190a150505050565b60005473ffffffffffffffffffffffffffffffffffffffff1633146105435760405162461bcd60e51b815260206004820181905260248201527f4f776e61626c653a2063616c6c6572206973206e6f7420746865206f776e657260448201526064016103bc565b61054d6000610da3565b565b60005473ffffffffffffffffffffffffffffffffffffffff1633146105b65760405162461bcd60e51b815260206004820181905260248201527f4f776e61626c653a2063616c6c6572206973206e6f7420746865206f776e657260448201526064016103bc565b60025473ffffffffffffffffffffffffffffffffffffffff8381169116141561067c57604051600090339061177090849084818181858888f193505050503d8060008114610620576040519150601f19603f3d011682016040523d82523d6000602084013e610625565b606091505b50509050806106765760405162461bcd60e51b815260206004820152601360248201527f4661696c656420746f2073656e64206f4574680000000000000000000000000060448201526064016103bc565b5061069d565b61069d73ffffffffffffffffffffffffffffffffffffffff83163383610d11565b6040805133815273ffffffffffffffffffffffffffffffffffffffff841660208201529081018290527f037238854fe57fbf51f09946f854fc3916fe83938d6521f09bd05463839f13049060600160405180910390a15050565b6000808383604051602001610716929190918252602082015260400190565b604080517fffffffffffffffffffffffffffffffffffffffffffffffffffffffffffffffe0818403018152908290526008547f2f7adf4300000000000000000000000000000000000000000000000000000000835290925060009173ffffffffffffffffffffffffffffffffffffffff90911690632f7adf43906107a19060079086906004016115ae565b600060405180830381600087803b1580156107bb57600080fd5b505af11580156107cf573d6000803e3d6000fd5b505050506040513d6000823e601f3d9081017fffffffffffffffffffffffffffffffffffffffffffffffffffffffffffffffe016820160405261081591908101906115dc565b905060008180602001905181019061082d919061164a565b90507f2cb1dc95af0fef5dd225cdb6dfa0c910713d4e7905c210c08b8a9f81422aab2e60078787846040516108659493929190611663565b60405180910390a195945050505050565b600554336000908152600a6020526040902054429161089491611428565b106108e15760405162461bcd60e51b815260206004820152600f60248201527f496e76616c69642072657175657374000000000000000000000000000000000060448201526064016103bc565b6000816040516020016108f49190611467565b604051602081830303815290604052805190602001209050600061091884836106f7565b90508060011461096a5760405162461bcd60e51b815260206004820152601460248201527f496e76616c6964206b657920616e64205555494400000000000000000000000060448201526064016103bc565b336000818152600a60205260408082204290556004549051919291611770919084818181858888f193505050503d80600081146109c3576040519150601f19603f3d011682016040523d82523d6000602084013e6109c8565b606091505b5050905080610a195760405162461bcd60e51b815260206004820152601360248201527f4661696c656420746f2073656e64206f4574680000000000000000000000000060448201526064016103bc565b6003546040805187815260208101869052339181019190915260608101919091524260808201527f110bbfd6e16fd17456d5a7e34b7b08e601b964ea8d97cd9147572fad78a842039060a0015b60405180910390a15050505050565b60078054610a8290611483565b80601f0160208091040260200160405190810160405280929190818152602001828054610aae90611483565b8015610afb5780601f10610ad057610100808354040283529160200191610afb565b820191906000526020600020905b815481529060010190602001808311610ade57829003601f168201915b505050505081565b60005473ffffffffffffffffffffffffffffffffffffffff163314610b6a5760405162461bcd60e51b815260206004820181905260248201527f4f776e61626c653a2063616c6c6572206973206e6f7420746865206f776e657260448201526064016103bc565b6006805473ffffffffffffffffffffffffffffffffffffffff87167fffffffffffffffffffffffff000000000000000000000000000000000000000091821681179092556008805490911690911790558351610bcd9060079060208701906110a8565b506005839055600382905560048190556040517f3c44da52aaa8e8ebd41b9ce36af35c8c8ba250f1cd182451ae7d13d64c68740990610a669087908790879087908790611692565b60005473ffffffffffffffffffffffffffffffffffffffff163314610c7c5760405162461bcd60e51b815260206004820181905260248201527f4f776e61626c653a2063616c6c6572206973206e6f7420746865206f776e657260448201526064016103bc565b73ffffffffffffffffffffffffffffffffffffffff8116610d055760405162461bcd60e51b815260206004820152602660248201527f4f776e61626c653a206e6577206f776e657220697320746865207a65726f206160448201527f646472657373000000000000000000000000000000000000000000000000000060648201526084016103bc565b610d0e81610da3565b50565b6040805173ffffffffffffffffffffffffffffffffffffffff8416602482015260448082018490528251808303909101815260649091019091526020810180517bffffffffffffffffffffffffffffffffffffffffffffffffffffffff167fa9059cbb00000000000000000000000000000000000000000000000000000000179052610d9e908490610e18565b505050565b6000805473ffffffffffffffffffffffffffffffffffffffff8381167fffffffffffffffffffffffff0000000000000000000000000000000000000000831681178455604051919092169283917f8be0079c531659141344cd1fd0a4f28419497f9722a3daafe3b4186f6b6457e09190a35050565b6000610e7a826040518060400160405280602081526020017f5361666545524332303a206c6f772d6c6576656c2063616c6c206661696c65648152508573ffffffffffffffffffffffffffffffffffffffff16610f0a9092919063ffffffff16565b805190915015610d9e5780806020019051810190610e9891906116de565b610d9e5760405162461bcd60e51b815260206004820152602a60248201527f5361666545524332303a204552433230206f7065726174696f6e20646964206e60448201527f6f7420737563636565640000000000000000000000000000000000000000000060648201526084016103bc565b6060610f198484600085610f23565b90505b9392505050565b606082471015610f9b5760405162461bcd60e51b815260206004820152602660248201527f416464726573733a20696e73756666696369656e742062616c616e636520666f60448201527f722063616c6c000000000000000000000000000000000000000000000000000060648201526084016103bc565b843b610fe95760405162461bcd60e51b815260206004820152601d60248201527f416464726573733a2063616c6c20746f206e6f6e2d636f6e747261637400000060448201526064016103bc565b6000808673ffffffffffffffffffffffffffffffffffffffff1685876040516110129190611467565b60006040518083038185875af1925050503d806000811461104f576040519150601f19603f3d011682016040523d82523d6000602084013e611054565b606091505b509150915061106482828661106f565b979650505050505050565b6060831561107e575081610f1c565b82511561108e5782518084602001fd5b8160405162461bcd60e51b81526004016103bc9190611391565b8280546110b490611483565b90600052602060002090601f0160209004810192826110d6576000855561111c565b82601f106110ef57805160ff191683800117855561111c565b8280016001018555821561111c579182015b8281111561111c578251825591602001919060010190611101565b5061112892915061112c565b5090565b5b80821115611128576000815560010161112d565b7f4e487b7100000000000000000000000000000000000000000000000000000000600052604160045260246000fd5b604051601f82017fffffffffffffffffffffffffffffffffffffffffffffffffffffffffffffffe016810167ffffffffffffffff811182821017156111b7576111b7611141565b604052919050565b600067ffffffffffffffff8211156111d9576111d9611141565b50601f017fffffffffffffffffffffffffffffffffffffffffffffffffffffffffffffffe01660200190565b600082601f83011261121657600080fd5b8135611229611224826111bf565b611170565b81815284602083860101111561123e57600080fd5b816020850160208301376000918101602001919091529392505050565b6000806040838503121561126e57600080fd5b82359150602083013567ffffffffffffffff81111561128c57600080fd5b61129885828601611205565b9150509250929050565b803573ffffffffffffffffffffffffffffffffffffffff811681146112c657600080fd5b919050565b600080604083850312156112de57600080fd5b6112e7836112a2565b946020939093013593505050565b6000806040838503121561130857600080fd5b50508035926020909101359150565b60005b8381101561133257818101518382015260200161131a565b83811115611341576000848401525b50505050565b6000815180845261135f816020860160208601611317565b601f017fffffffffffffffffffffffffffffffffffffffffffffffffffffffffffffffe0169290920160200192915050565b602081526000610f1c6020830184611347565b600080600080600060a086880312156113bc57600080fd5b6113c5866112a2565b9450602086013567ffffffffffffffff8111156113e157600080fd5b6113ed88828901611205565b959895975050505060408401359360608101359360809091013592509050565b60006020828403121561141f57600080fd5b610f1c826112a2565b60008219821115611462577f4e487b7100000000000000000000000000000000000000000000000000000000600052601160045260246000fd5b500190565b60008251611479818460208701611317565b9190910192915050565b600181811c9082168061149757607f821691505b602082108114156114d1577f4e487b7100000000000000000000000000000000000000000000000000000000600052602260045260246000fd5b50919050565b8054600090600181811c90808316806114f157607f831692505b602080841082141561152c577f4e487b7100000000000000000000000000000000000000000000000000000000600052602260045260246000fd5b838852602088018280156115475760018114611576576115a1565b7fffffffffffffffffffffffffffffffffffffffffffffffffffffffffffffff008716825282820197506115a1565b60008981526020902060005b8781101561159b57815484820152908601908401611582565b83019850505b5050505050505092915050565b6040815260006115c160408301856114d7565b82810360208401526115d38185611347565b95945050505050565b6000602082840312156115ee57600080fd5b815167ffffffffffffffff81111561160557600080fd5b8201601f8101841361161657600080fd5b8051611624611224826111bf565b81815285602083850101111561163957600080fd5b6115d3826020830160208601611317565b60006020828403121561165c57600080fd5b5051919050565b60808152600061167660808301876114d7565b6020830195909552506040810192909252606090910152919050565b73ffffffffffffffffffffffffffffffffffffffff8616815260a0602082015260006116c160a0830187611347565b604083019590955250606081019290925260809091015292915050565b6000602082840312156116f057600080fd5b81518015158114610f1c57600080fdfea164736f6c6343000809000a",
  "linkReferences": {},
  "deployedLinkReferences": {}
}