{
  "_format": "hh-sol-artifact-1",
  "contractName": "BobaFixedSavings",
  "sourceName": "contracts/BobaFixedSavings.sol",
  "abi": [
    {
      "inputs": [],
      "stateMutability": "nonpayable",
      "type": "constructor"
    },
    {
      "anonymous": false,
      "inputs": [
        {
          "indexed": false,
          "internalType": "address",
          "name": "account",
          "type": "address"
        }
      ],
      "name": "Paused",
      "type": "event"
    },
    {
      "anonymous": false,
      "inputs": [
        {
          "indexed": false,
          "internalType": "address",
          "name": "account",
          "type": "address"
        }
      ],
      "name": "Unpaused",
      "type": "event"
    },
    {
      "inputs": [],
      "name": "FLAT_INTEREST_PER_PERIOD",
      "outputs": [
        {
          "internalType": "uint256",
          "name": "",
          "type": "uint256"
        }
      ],
      "stateMutability": "view",
      "type": "function"
    },
    {
      "inputs": [],
      "name": "LOCK_TIME",
      "outputs": [
        {
          "internalType": "uint256",
          "name": "",
          "type": "uint256"
        }
      ],
      "stateMutability": "view",
      "type": "function"
    },
    {
      "inputs": [],
      "name": "UNSTAKE_TIME",
      "outputs": [
        {
          "internalType": "uint256",
          "name": "",
          "type": "uint256"
        }
      ],
      "stateMutability": "view",
      "type": "function"
    },
    {
      "inputs": [
        {
          "internalType": "address",
          "name": "l2BobaAddress",
          "type": "address"
        },
        {
          "internalType": "address",
          "name": "xBobaAddress",
          "type": "address"
        }
      ],
      "name": "initialize",
      "outputs": [],
      "stateMutability": "nonpayable",
      "type": "function"
    },
    {
      "inputs": [],
      "name": "l2Boba",
      "outputs": [
        {
          "internalType": "address",
          "name": "",
          "type": "address"
        }
      ],
      "stateMutability": "view",
      "type": "function"
    },
    {
      "inputs": [],
      "name": "owner",
      "outputs": [
        {
          "internalType": "address",
          "name": "",
          "type": "address"
        }
      ],
      "stateMutability": "view",
      "type": "function"
    },
    {
      "inputs": [],
      "name": "pause",
      "outputs": [],
      "stateMutability": "nonpayable",
      "type": "function"
    },
    {
      "inputs": [],
      "name": "paused",
      "outputs": [
        {
          "internalType": "bool",
          "name": "",
          "type": "bool"
        }
      ],
      "stateMutability": "view",
      "type": "function"
    },
    {
      "inputs": [
        {
          "internalType": "address",
          "name": "",
          "type": "address"
        }
      ],
      "name": "personalStakeCount",
      "outputs": [
        {
          "internalType": "uint256",
          "name": "",
          "type": "uint256"
        }
      ],
      "stateMutability": "view",
      "type": "function"
    },
    {
      "inputs": [
        {
          "internalType": "address",
          "name": "",
          "type": "address"
        },
        {
          "internalType": "uint256",
          "name": "",
          "type": "uint256"
        }
      ],
      "name": "personalStakePos",
      "outputs": [
        {
          "internalType": "uint256",
          "name": "",
          "type": "uint256"
        }
      ],
      "stateMutability": "view",
      "type": "function"
    },
    {
      "inputs": [
        {
          "internalType": "uint256",
          "name": "_amount",
          "type": "uint256"
        }
      ],
      "name": "stake",
      "outputs": [],
      "stateMutability": "nonpayable",
      "type": "function"
    },
    {
      "inputs": [
        {
          "internalType": "uint256",
          "name": "",
          "type": "uint256"
        }
      ],
      "name": "stakeDataMap",
      "outputs": [
        {
          "internalType": "uint256",
          "name": "stakeId",
          "type": "uint256"
        },
        {
          "internalType": "address",
          "name": "account",
          "type": "address"
        },
        {
          "internalType": "uint256",
          "name": "depositAmount",
          "type": "uint256"
        },
        {
          "internalType": "uint256",
          "name": "depositTimestamp",
          "type": "uint256"
        },
        {
          "internalType": "bool",
          "name": "isActive",
          "type": "bool"
        }
      ],
      "stateMutability": "view",
      "type": "function"
    },
    {
      "inputs": [],
      "name": "stakingCloseTimestamp",
      "outputs": [
        {
          "internalType": "uint256",
          "name": "",
          "type": "uint256"
        }
      ],
      "stateMutability": "view",
      "type": "function"
    },
    {
      "inputs": [],
      "name": "stopStakingContract",
      "outputs": [],
      "stateMutability": "nonpayable",
      "type": "function"
    },
    {
      "inputs": [],
      "name": "totalStakeCount",
      "outputs": [
        {
          "internalType": "uint256",
          "name": "",
          "type": "uint256"
        }
      ],
      "stateMutability": "view",
      "type": "function"
    },
    {
      "inputs": [
        {
          "internalType": "address",
          "name": "_newOwner",
          "type": "address"
        }
      ],
      "name": "transferOwnership",
      "outputs": [],
      "stateMutability": "nonpayable",
      "type": "function"
    },
    {
      "inputs": [],
      "name": "unpause",
      "outputs": [],
      "stateMutability": "nonpayable",
      "type": "function"
    },
    {
      "inputs": [
        {
          "internalType": "uint256",
          "name": "stakeId",
          "type": "uint256"
        }
      ],
      "name": "unstake",
      "outputs": [],
      "stateMutability": "nonpayable",
      "type": "function"
    },
    {
      "inputs": [],
      "name": "xBoba",
      "outputs": [
        {
          "internalType": "address",
          "name": "",
          "type": "address"
        }
      ],
      "stateMutability": "view",
      "type": "function"
    }
  ],
  "bytecode": "0x608060405234801561001057600080fd5b50611832806100206000396000f3fe608060405234801561001057600080fd5b50600436106101515760003560e01c80636a75f83c116100cd5780638da5cb5b11610081578063a694fc3a11610066578063a694fc3a14610333578063b513b9ba14610346578063f2fde38b1461036657600080fd5b80638da5cb5b146102ce578063a065d7f01461031357600080fd5b80636f9de9a9116100b25780636f9de9a91461029c5780638456cb59146102a65780638654cd28146102ae57600080fd5b80636a75f83c1461028b5780636f2c2d631461029357600080fd5b80633f4ba83a11610124578063485cc95511610109578063485cc9551461025a578063564913f91461026d5780635c975abb1461027557600080fd5b80633f4ba83a14610248578063413d9c3a1461025057600080fd5b8063017cce4e146101565780630b68f07d146101f15780632e17de78146102085780632e8ddb491461021d575b600080fd5b6101ad610164366004611585565b606a6020526000908152604090208054600182015460028301546003840154600490940154929373ffffffffffffffffffffffffffffffffffffffff9092169290919060ff1685565b6040805195865273ffffffffffffffffffffffffffffffffffffffff90941660208601529284019190915260608301521515608082015260a0015b60405180910390f35b6101fa60695481565b6040519081526020016101e8565b61021b610216366004611585565b610379565b005b6101fa61022b3660046115c7565b606c60209081526000928352604080842090915290825290205481565b61021b6105ec565b6101fa6212750081565b61021b6102683660046115f1565b61067e565b6101fa601681565b60335460ff1660405190151581526020016101e8565b61021b6108da565b6101fa60685481565b6101fa6202a30081565b61021b610968565b6101fa6102bc366004611624565b606b6020526000908152604090205481565b6065546102ee9073ffffffffffffffffffffffffffffffffffffffff1681565b60405173ffffffffffffffffffffffffffffffffffffffff90911681526020016101e8565b6067546102ee9073ffffffffffffffffffffffffffffffffffffffff1681565b61021b610341366004611585565b6109f8565b6066546102ee9073ffffffffffffffffffffffffffffffffffffffff1681565b61021b610374366004611624565b610beb565b6000818152606a60205260409020600481015460ff166104065760405162461bcd60e51b815260206004820152602660248201527f5374616b65206973206e6f7420616374697665206f7220616c7265616479206360448201527f6c61696d6564000000000000000000000000000000000000000000000000000060648201526084015b60405180910390fd5b600181015473ffffffffffffffffffffffffffffffffffffffff16331461046f5760405162461bcd60e51b815260206004820152601d60248201527f53656e646572206e6f74206f776e6572206f66207468652066756e647300000060448201526064016103fd565b621275006104806202a3008261166e565b600383015461048f9042611686565b61049991906116cc565b116104e65760405162461bcd60e51b815260206004820152601760248201527f4e6f74206f6e20756e7374616b696e6720706572696f6400000000000000000060448201526064016103fd565b6004810180547fffffffffffffffffffffffffffffffffffffffffffffffffffffffffffffff001690556002810154610520903390610d42565b600281015460665461054c9173ffffffffffffffffffffffffffffffffffffffff909116903390610dd3565b60695442901561055b57506069545b600061056d6202a3006212750061166e565b600384015461057c9084611686565b61058691906116e0565b61059190600161166e565b9050600061271082601686600201546105aa91906116f4565b6105b491906116f4565b6105be91906116e0565b6066549091506105e59073ffffffffffffffffffffffffffffffffffffffff163383610dd3565b5050505050565b60655473ffffffffffffffffffffffffffffffffffffffff16331480610628575060655473ffffffffffffffffffffffffffffffffffffffff16155b6106745760405162461bcd60e51b815260206004820152601760248201527f43616c6c6572206973206e6f7420746865206f776e657200000000000000000060448201526064016103fd565b61067c610ea7565b565b60655473ffffffffffffffffffffffffffffffffffffffff163314806106ba575060655473ffffffffffffffffffffffffffffffffffffffff16155b6107065760405162461bcd60e51b815260206004820152601760248201527f43616c6c6572206973206e6f7420746865206f776e657200000000000000000060448201526064016103fd565b60665473ffffffffffffffffffffffffffffffffffffffff161561076c5760405162461bcd60e51b815260206004820152601d60248201527f436f6e747261637420686173206265656e20696e697469616c697a656400000060448201526064016103fd565b600054610100900460ff1680610785575060005460ff16155b6107f75760405162461bcd60e51b815260206004820152602e60248201527f496e697469616c697a61626c653a20636f6e747261637420697320616c72656160448201527f647920696e697469616c697a656400000000000000000000000000000000000060648201526084016103fd565b600054610100900460ff1615801561083657600080547fffffffffffffffffffffffffffffffffffffffffffffffffffffffffffff0000166101011790555b6066805473ffffffffffffffffffffffffffffffffffffffff8086167fffffffffffffffffffffffff0000000000000000000000000000000000000000928316179092556067805492851692821692909217909155606580549091163317905561089e610f6e565b6108a6611069565b80156108d557600080547fffffffffffffffffffffffffffffffffffffffffffffffffffffffffffff00ff1690555b505050565b60655473ffffffffffffffffffffffffffffffffffffffff16331480610916575060655473ffffffffffffffffffffffffffffffffffffffff16155b6109625760405162461bcd60e51b815260206004820152601760248201527f43616c6c6572206973206e6f7420746865206f776e657200000000000000000060448201526064016103fd565b42606955565b60655473ffffffffffffffffffffffffffffffffffffffff163314806109a4575060655473ffffffffffffffffffffffffffffffffffffffff16155b6109f05760405162461bcd60e51b815260206004820152601760248201527f43616c6c6572206973206e6f7420746865206f776e657200000000000000000060448201526064016103fd565b61067c61118c565b60335460ff1615610a4b5760405162461bcd60e51b815260206004820152601060248201527f5061757361626c653a207061757365640000000000000000000000000000000060448201526064016103fd565b60008111610a9b5760405162461bcd60e51b815260206004820152601e60248201527f416d6f756e7420746f207374616b652063616e6e6f74206265207a65726f000060448201526064016103fd565b606654610ac09073ffffffffffffffffffffffffffffffffffffffff16333084611232565b60688054906000610ad083611731565b90915550506040805160a0810182526068805480835233602080850182815285870188815242606088019081526001608089018181526000978852606a86528a882099518a55935189820180547fffffffffffffffffffffffff00000000000000000000000000000000000000001673ffffffffffffffffffffffffffffffffffffffff909216919091179055915160028901555160038801559051600490960180547fffffffffffffffffffffffffffffffffffffffffffffffffffffffffffffff0016961515969096179095559254818352606c8452858320606b8086528785208054865291865296842091909155908252939091528254919291610bd890849061166e565b90915550610be890503382611296565b50565b60655473ffffffffffffffffffffffffffffffffffffffff16331480610c27575060655473ffffffffffffffffffffffffffffffffffffffff16155b610c735760405162461bcd60e51b815260206004820152601760248201527f43616c6c6572206973206e6f7420746865206f776e657200000000000000000060448201526064016103fd565b73ffffffffffffffffffffffffffffffffffffffff8116610cfb5760405162461bcd60e51b8152602060048201526024808201527f4e6577206f776e65722063616e6e6f7420626520746865207a65726f2061646460448201527f726573730000000000000000000000000000000000000000000000000000000060648201526084016103fd565b606580547fffffffffffffffffffffffff00000000000000000000000000000000000000001673ffffffffffffffffffffffffffffffffffffffff92909216919091179055565b6067546040517f9dc29fac00000000000000000000000000000000000000000000000000000000815273ffffffffffffffffffffffffffffffffffffffff84811660048301526024820184905290911690639dc29fac906044015b600060405180830381600087803b158015610db757600080fd5b505af1158015610dcb573d6000803e3d6000fd5b505050505050565b60405173ffffffffffffffffffffffffffffffffffffffff83166024820152604481018290526108d59084907fa9059cbb00000000000000000000000000000000000000000000000000000000906064015b604080517fffffffffffffffffffffffffffffffffffffffffffffffffffffffffffffffe08184030181529190526020810180517bffffffffffffffffffffffffffffffffffffffffffffffffffffffff167fffffffff00000000000000000000000000000000000000000000000000000000909316929092179091526112f5565b60335460ff16610ef95760405162461bcd60e51b815260206004820152601460248201527f5061757361626c653a206e6f742070617573656400000000000000000000000060448201526064016103fd565b603380547fffffffffffffffffffffffffffffffffffffffffffffffffffffffffffffff001690557f5db9ee0a495bf2e6ff9c91a7834c1ba4fdd244a5e8aa4e537bd38aeae4b073aa335b60405173ffffffffffffffffffffffffffffffffffffffff909116815260200160405180910390a1565b600054610100900460ff1680610f87575060005460ff16155b610ff95760405162461bcd60e51b815260206004820152602e60248201527f496e697469616c697a61626c653a20636f6e747261637420697320616c72656160448201527f647920696e697469616c697a656400000000000000000000000000000000000060648201526084016103fd565b600054610100900460ff1615801561103857600080547fffffffffffffffffffffffffffffffffffffffffffffffffffffffffffff0000166101011790555b8015610be857600080547fffffffffffffffffffffffffffffffffffffffffffffffffffffffffffff00ff16905550565b600054610100900460ff1680611082575060005460ff16155b6110f45760405162461bcd60e51b815260206004820152602e60248201527f496e697469616c697a61626c653a20636f6e747261637420697320616c72656160448201527f647920696e697469616c697a656400000000000000000000000000000000000060648201526084016103fd565b600054610100900460ff1615801561113357600080547fffffffffffffffffffffffffffffffffffffffffffffffffffffffffffff0000166101011790555b603380547fffffffffffffffffffffffffffffffffffffffffffffffffffffffffffffff001690558015610be857600080547fffffffffffffffffffffffffffffffffffffffffffffffffffffffffffff00ff16905550565b60335460ff16156111df5760405162461bcd60e51b815260206004820152601060248201527f5061757361626c653a207061757365640000000000000000000000000000000060448201526064016103fd565b603380547fffffffffffffffffffffffffffffffffffffffffffffffffffffffffffffff001660011790557f62e78cea01bee320cd4e420270b5ea74000d11b0c9f74754ebdbfc544b05a258610f443390565b60405173ffffffffffffffffffffffffffffffffffffffff808516602483015283166044820152606481018290526112909085907f23b872dd0000000000000000000000000000000000000000000000000000000090608401610e25565b50505050565b6067546040517f40c10f1900000000000000000000000000000000000000000000000000000000815273ffffffffffffffffffffffffffffffffffffffff848116600483015260248201849052909116906340c10f1990604401610d9d565b6000611357826040518060400160405280602081526020017f5361666545524332303a206c6f772d6c6576656c2063616c6c206661696c65648152508573ffffffffffffffffffffffffffffffffffffffff166113e79092919063ffffffff16565b8051909150156108d55780806020019051810190611375919061176a565b6108d55760405162461bcd60e51b815260206004820152602a60248201527f5361666545524332303a204552433230206f7065726174696f6e20646964206e60448201527f6f7420737563636565640000000000000000000000000000000000000000000060648201526084016103fd565b60606113f68484600085611400565b90505b9392505050565b6060824710156114785760405162461bcd60e51b815260206004820152602660248201527f416464726573733a20696e73756666696369656e742062616c616e636520666f60448201527f722063616c6c000000000000000000000000000000000000000000000000000060648201526084016103fd565b843b6114c65760405162461bcd60e51b815260206004820152601d60248201527f416464726573733a2063616c6c20746f206e6f6e2d636f6e747261637400000060448201526064016103fd565b6000808673ffffffffffffffffffffffffffffffffffffffff1685876040516114ef91906117b8565b60006040518083038185875af1925050503d806000811461152c576040519150601f19603f3d011682016040523d82523d6000602084013e611531565b606091505b509150915061154182828661154c565b979650505050505050565b6060831561155b5750816113f9565b82511561156b5782518084602001fd5b8160405162461bcd60e51b81526004016103fd91906117d4565b60006020828403121561159757600080fd5b5035919050565b803573ffffffffffffffffffffffffffffffffffffffff811681146115c257600080fd5b919050565b600080604083850312156115da57600080fd5b6115e38361159e565b946020939093013593505050565b6000806040838503121561160457600080fd5b61160d8361159e565b915061161b6020840161159e565b90509250929050565b60006020828403121561163657600080fd5b6113f98261159e565b7f4e487b7100000000000000000000000000000000000000000000000000000000600052601160045260246000fd5b600082198211156116815761168161163f565b500190565b6000828210156116985761169861163f565b500390565b7f4e487b7100000000000000000000000000000000000000000000000000000000600052601260045260246000fd5b6000826116db576116db61169d565b500690565b6000826116ef576116ef61169d565b500490565b6000817fffffffffffffffffffffffffffffffffffffffffffffffffffffffffffffffff048311821515161561172c5761172c61163f565b500290565b60007fffffffffffffffffffffffffffffffffffffffffffffffffffffffffffffffff8214156117635761176361163f565b5060010190565b60006020828403121561177c57600080fd5b815180151581146113f957600080fd5b60005b838110156117a757818101518382015260200161178f565b838111156112905750506000910152565b600082516117ca81846020870161178c565b9190910192915050565b60208152600082518060208401526117f381604085016020870161178c565b601f017fffffffffffffffffffffffffffffffffffffffffffffffffffffffffffffffe016919091016040019291505056fea164736f6c6343000809000a",
  "linkReferences": {},
  "deployedLinkReferences": {}
}