{
  "_format": "hh-sol-artifact-1",
  "contractName": "OVM_L1CrossDomainMessenger",
  "sourceName": "contracts/optimistic-ethereum/OVM/bridge/messaging/OVM_L1CrossDomainMessenger.sol",
  "abi": [
    {
      "inputs": [],
      "stateMutability": "nonpayable",
      "type": "constructor"
    },
    {
      "anonymous": false,
      "inputs": [
        {
          "indexed": false,
          "internalType": "bytes32",
          "name": "msgHash",
          "type": "bytes32"
        }
      ],
      "name": "FailedRelayedMessage",
      "type": "event"
    },
    {
      "anonymous": false,
      "inputs": [
        {
          "indexed": true,
          "internalType": "bytes32",
          "name": "_xDomainCalldataHash",
          "type": "bytes32"
        }
      ],
      "name": "MessageAllowed",
      "type": "event"
    },
    {
      "anonymous": false,
      "inputs": [
        {
          "indexed": true,
          "internalType": "bytes32",
          "name": "_xDomainCalldataHash",
          "type": "bytes32"
        }
      ],
      "name": "MessageBlocked",
      "type": "event"
    },
    {
      "anonymous": false,
      "inputs": [
        {
          "indexed": true,
          "internalType": "address",
          "name": "previousOwner",
          "type": "address"
        },
        {
          "indexed": true,
          "internalType": "address",
          "name": "newOwner",
          "type": "address"
        }
      ],
      "name": "OwnershipTransferred",
      "type": "event"
    },
    {
      "anonymous": false,
      "inputs": [
        {
          "indexed": false,
          "internalType": "address",
          "name": "account",
          "type": "address"
        }
      ],
      "name": "Paused",
      "type": "event"
    },
    {
      "anonymous": false,
      "inputs": [
        {
          "indexed": false,
          "internalType": "bytes32",
          "name": "msgHash",
          "type": "bytes32"
        }
      ],
      "name": "RelayedMessage",
      "type": "event"
    },
    {
      "anonymous": false,
      "inputs": [
        {
          "indexed": false,
          "internalType": "bytes",
          "name": "message",
          "type": "bytes"
        }
      ],
      "name": "SentMessage",
      "type": "event"
    },
    {
      "anonymous": false,
      "inputs": [
        {
          "indexed": false,
          "internalType": "address",
          "name": "account",
          "type": "address"
        }
      ],
      "name": "Unpaused",
      "type": "event"
    },
    {
      "inputs": [
        {
          "internalType": "bytes32",
          "name": "_xDomainCalldataHash",
          "type": "bytes32"
        }
      ],
      "name": "allowMessage",
      "outputs": [],
      "stateMutability": "nonpayable",
      "type": "function"
    },
    {
      "inputs": [
        {
          "internalType": "bytes32",
          "name": "_xDomainCalldataHash",
          "type": "bytes32"
        }
      ],
      "name": "blockMessage",
      "outputs": [],
      "stateMutability": "nonpayable",
      "type": "function"
    },
    {
      "inputs": [
        {
          "internalType": "bytes32",
          "name": "",
          "type": "bytes32"
        }
      ],
      "name": "blockedMessages",
      "outputs": [
        {
          "internalType": "bool",
          "name": "",
          "type": "bool"
        }
      ],
      "stateMutability": "view",
      "type": "function"
    },
    {
      "inputs": [
        {
          "internalType": "address",
          "name": "_libAddressManager",
          "type": "address"
        }
      ],
      "name": "initialize",
      "outputs": [],
      "stateMutability": "nonpayable",
      "type": "function"
    },
    {
      "inputs": [],
      "name": "libAddressManager",
      "outputs": [
        {
          "internalType": "contract Lib_AddressManager",
          "name": "",
          "type": "address"
        }
      ],
      "stateMutability": "view",
      "type": "function"
    },
    {
      "inputs": [],
      "name": "owner",
      "outputs": [
        {
          "internalType": "address",
          "name": "",
          "type": "address"
        }
      ],
      "stateMutability": "view",
      "type": "function"
    },
    {
      "inputs": [],
      "name": "pause",
      "outputs": [],
      "stateMutability": "nonpayable",
      "type": "function"
    },
    {
      "inputs": [],
      "name": "paused",
      "outputs": [
        {
          "internalType": "bool",
          "name": "",
          "type": "bool"
        }
      ],
      "stateMutability": "view",
      "type": "function"
    },
    {
      "inputs": [
        {
          "internalType": "address",
          "name": "_target",
          "type": "address"
        },
        {
          "internalType": "address",
          "name": "_sender",
          "type": "address"
        },
        {
          "internalType": "bytes",
          "name": "_message",
          "type": "bytes"
        },
        {
          "internalType": "uint256",
          "name": "_messageNonce",
          "type": "uint256"
        },
        {
          "components": [
            {
              "internalType": "bytes32",
              "name": "stateRoot",
              "type": "bytes32"
            },
            {
              "components": [
                {
                  "internalType": "uint256",
                  "name": "batchIndex",
                  "type": "uint256"
                },
                {
                  "internalType": "bytes32",
                  "name": "batchRoot",
                  "type": "bytes32"
                },
                {
                  "internalType": "uint256",
                  "name": "batchSize",
                  "type": "uint256"
                },
                {
                  "internalType": "uint256",
                  "name": "prevTotalElements",
                  "type": "uint256"
                },
                {
                  "internalType": "bytes",
                  "name": "extraData",
                  "type": "bytes"
                }
              ],
              "internalType": "struct Lib_OVMCodec.ChainBatchHeader",
              "name": "stateRootBatchHeader",
              "type": "tuple"
            },
            {
              "components": [
                {
                  "internalType": "uint256",
                  "name": "index",
                  "type": "uint256"
                },
                {
                  "internalType": "bytes32[]",
                  "name": "siblings",
                  "type": "bytes32[]"
                }
              ],
              "internalType": "struct Lib_OVMCodec.ChainInclusionProof",
              "name": "stateRootProof",
              "type": "tuple"
            },
            {
              "internalType": "bytes",
              "name": "stateTrieWitness",
              "type": "bytes"
            },
            {
              "internalType": "bytes",
              "name": "storageTrieWitness",
              "type": "bytes"
            }
          ],
          "internalType": "struct iOVM_L1CrossDomainMessenger.L2MessageInclusionProof",
          "name": "_proof",
          "type": "tuple"
        }
      ],
      "name": "relayMessage",
      "outputs": [],
      "stateMutability": "nonpayable",
      "type": "function"
    },
    {
      "inputs": [
        {
          "internalType": "bytes32",
          "name": "",
          "type": "bytes32"
        }
      ],
      "name": "relayedMessages",
      "outputs": [
        {
          "internalType": "bool",
          "name": "",
          "type": "bool"
        }
      ],
      "stateMutability": "view",
      "type": "function"
    },
    {
      "inputs": [],
      "name": "renounceOwnership",
      "outputs": [],
      "stateMutability": "nonpayable",
      "type": "function"
    },
    {
      "inputs": [
        {
          "internalType": "address",
          "name": "_target",
          "type": "address"
        },
        {
          "internalType": "address",
          "name": "_sender",
          "type": "address"
        },
        {
          "internalType": "bytes",
          "name": "_message",
          "type": "bytes"
        },
        {
          "internalType": "uint256",
          "name": "_queueIndex",
          "type": "uint256"
        },
        {
          "internalType": "uint32",
          "name": "_gasLimit",
          "type": "uint32"
        }
      ],
      "name": "replayMessage",
      "outputs": [],
      "stateMutability": "nonpayable",
      "type": "function"
    },
    {
      "inputs": [
        {
          "internalType": "string",
          "name": "_name",
          "type": "string"
        }
      ],
      "name": "resolve",
      "outputs": [
        {
          "internalType": "address",
          "name": "",
          "type": "address"
        }
      ],
      "stateMutability": "view",
      "type": "function"
    },
    {
      "inputs": [
        {
          "internalType": "address",
          "name": "_target",
          "type": "address"
        },
        {
          "internalType": "bytes",
          "name": "_message",
          "type": "bytes"
        },
        {
          "internalType": "uint32",
          "name": "_gasLimit",
          "type": "uint32"
        }
      ],
      "name": "sendMessage",
      "outputs": [],
      "stateMutability": "nonpayable",
      "type": "function"
    },
    {
      "inputs": [
        {
          "internalType": "bytes32",
          "name": "",
          "type": "bytes32"
        }
      ],
      "name": "successfulMessages",
      "outputs": [
        {
          "internalType": "bool",
          "name": "",
          "type": "bool"
        }
      ],
      "stateMutability": "view",
      "type": "function"
    },
    {
      "inputs": [
        {
          "internalType": "address",
          "name": "newOwner",
          "type": "address"
        }
      ],
      "name": "transferOwnership",
      "outputs": [],
      "stateMutability": "nonpayable",
      "type": "function"
    },
    {
      "inputs": [],
      "name": "xDomainMessageSender",
      "outputs": [
        {
          "internalType": "address",
          "name": "",
          "type": "address"
        }
      ],
      "stateMutability": "view",
      "type": "function"
    }
  ],
  "bytecode": "0x608060405261dead60cc600181620000166200009f565b816001600160a01b0302191690836001600160a01b03160217906200003a62000101565b5050505a6200004862000150565b80156200005f576000806200005c62000197565b50505b5060008080600181620000716200009f565b816001600160a01b0302191690836001600160a01b03160217906200009562000101565b5050505062000204565b6303daa959598160e01b8152836004820152602081602483336000905af158600e01573d6000803e3d6000fd5b3d6001141558600a015760016000f35b8051935060005b6040811015620000fc57600082820152602001620000e3565b505050565b6322bd64c0598160e01b8152836004820152846024820152600081604483336000905af158600e01573d6000803e3d6000fd5b3d6001141558600a015760016000f35b600081526020620000e3565b63a8c4c5ec598160e01b8152602081600483336000905af158600e01573d6000803e3d6000fd5b3d6001141558600a015760016000f35b80516000825293506020620000e3565b632a2a7adb598160e01b8152600481016020815285602082015260005b86811015620001d1578086015182820160400152602001620001b4565b506020828760640184336000905af158600e01573d6000803e3d6000fd5b3d6001141558600a015760016000f35b505050565b61407f80620002146000396000f3fe60806040525a61000d612f9b565b80156100215760008061001e612ff0565b50505b506004361061011c5760003560e01c8063715018a6116100b3578063b1b1b20911610082578063b1b1b209146101f1578063c4d66de814610204578063c6b94ab014610217578063d7fd19dd1461022a578063f2fde38b1461023d5761011c565b8063715018a6146101c657806381ada46c146101ce5780638456cb59146101e15780638da5cb5b146101e95761011c565b8063461a4478116100ef578063461a4478146101905780635c975abb146101a35780636e296e45146101ab578063706ceab6146101b35761011c565b80630ecf2eea1461012a57806321d800ec1461013f578063299ca478146101685780633dbb202b1461017d575b600080610127612ff0565b50505b61013d61013836600461390a565b610250565b005b61015261014d36600461390a565b61031e565b60405161015f9190613c06565b60405180910390f35b610170610345565b60405161015f9190613b56565b61013d61018b366004613864565b610363565b61017061019e36600461392b565b6104ea565b610152610614565b610170610630565b61013d6101c13660046137db565b6106aa565b61013d6108b4565b61013d6101dc36600461390a565b6109a6565b61013d610a71565b610170610ae5565b6101526101ff36600461390a565b610af2565b61013d610212366004613641565b610b0c565b61015261022536600461390a565b610d1c565b61013d610238366004613664565b610d36565b61013d61024b366004613641565b611231565b61025861137a565b6001600160a01b0316610269610ae5565b6001600160a01b0316146102ba5760405162461bcd60e51b8152602060048201819052602482015260008051602061405f8339815191526044820152606401604051809103906102b7612ff0565b50505b600081815260c9602052600190604090206001816102d661305b565b8160ff021916908315150217906102eb6130a7565b505050807ff52508d5339edf0d7e5060a416df98db067af561bdc60872d29c0439eaa13a0260405160405180910390a250565b60ca6020528060005260406000206000915061033861305b565b906101000a900460ff1681565b60008061035061305b565b906101000a90046001600160a01b031681565b60006103a160405160408082019052601d81527f4f564d5f43616e6f6e6963616c5472616e73616374696f6e436861696e00000060208201526104ea565b90506000816001600160a01b031663b8f770056040518163ffffffff1660e01b815260040160206040518083038186806103d96130f5565b1580156103ee576000806103eb612ff0565b50505b505a6103f8613141565b5050505050158015610417573d6000803e3d6000610414612ff0565b50505b50505050604051601f3d908101601f1916820160405261043a91908101906139fb565b90506000610459865a61044b61322c565b878564ffffffffff1661138a565b9050600061049660405160408082019052601a81527927ab26afa61921b937b9b9a237b6b0b4b726b2b9b9b2b733b2b960311b60208201526104ea565b90506104aa8482848863ffffffff166113db565b7f0ee9ffdb2334d78de97ffb066b23a352a4d35180cefb36589d663fbb1eb6f326826040516104d99190613c88565b60405180910390a150505050505050565b600080806104f661305b565b906101000a90046001600160a01b03166001600160a01b031663bf40fac1836040518263ffffffff1660e01b81526004018080602001828103825283818151815260200191508051906020019080838360005b83811015610561578082015183820152602001610549565b50505050905090810190601f16801561058e5780820380516001836020036101000a031916815260200191505b509250505060206040518083038186806105a66130f5565b1580156105bb576000806105b8612ff0565b50505b505a6105c5613141565b50505050501580156105e4573d6000803e3d60006105e1612ff0565b50505b505050506040513d602081101561060357600080610600612ff0565b50505b81019080805193505050505b919050565b600080606561062161305b565b906101000a900460ff16905090565b600061dead8160cc61064061305b565b906101000a90046001600160a01b03166001600160a01b031614156106895760405162461bcd60e51b815260040161067790613c9b565b60405180910390610686612ff0565b50505b600060cc61069561305b565b906101000a90046001600160a01b0316905090565b60006106e860405160408082019052601d81527f4f564d5f43616e6f6e6963616c5472616e73616374696f6e436861696e00000060208201526104ea565b90506000816001600160a01b0316632a7f18be856040518263ffffffff1660e01b81526004016107189190613a9f565b606060405180830381868061072b6130f5565b1580156107405760008061073d612ff0565b50505b505a61074a613141565b5050505050158015610769573d6000803e3d6000610766612ff0565b50505b50505050604051601f3d908101601f1916820160405261078c9190810190613994565b905060006107c960405160408082019052601a81527927ab26afa61921b937b9b9a237b6b0b4b726b2b9b9b2b733b2b960311b60208201526104ea565b905060005a63996d79a5598160e01b8152602081600483336000905af158600e01573d6000803e3d6000fd5b3d6001141558600a015760016000f35b8051925060005b60408110156108235760008282015260200161080c565b50505082868960405160200161083c9493929190613ba7565b604051602081830303815290604052805190602001209050825181146108865760405162461bcd60e51b815260040161087490613f0c565b60405180910390610883612ff0565b50505b60006108948a8a8a8a61138a565b90506108a88584838963ffffffff166113db565b50505050505050505050565b6108bc61137a565b6001600160a01b03166108cd610ae5565b6001600160a01b03161461091e5760405162461bcd60e51b8152602060048201819052602482015260008051602061405f83398151915260448201526064016040518091039061091b612ff0565b50505b600080603361092b61305b565b906101000a90046001600160a01b03166001600160a01b03167f8be0079c531659141344cd1fd0a4f28419497f9722a3daafe3b4186f6b6457e060405160405180910390a36000603360018161097f61305b565b816001600160a01b0302191690836001600160a01b03160217906109a16130a7565b505050565b6109ae61137a565b6001600160a01b03166109bf610ae5565b6001600160a01b031614610a105760405162461bcd60e51b8152602060048201819052602482015260008051602061405f833981519152604482015260640160405180910390610a0d612ff0565b50505b600081815260c960205260408120600181610a2961305b565b8160ff02191690831515021790610a3e6130a7565b505050807f52c8a2680a9f4cc0ad0bf88f32096eadbebf0646ea611d93a0ce6a29a024040560405160405180910390a250565b610a7961137a565b6001600160a01b0316610a8a610ae5565b6001600160a01b031614610adb5760405162461bcd60e51b8152602060048201819052602482015260008051602061405f833981519152604482015260640160405180910390610ad8612ff0565b50505b610ae361145c565b565b600080603361069561305b565b60cb6020528060005260406000206000915061033861305b565b60156000610b1861305b565b906101000a900460ff1680610b305750610b3061151d565b80610b4e575060146000610b4261305b565b906101000a900460ff16155b610b925760405162461bcd60e51b815260040180806020018281038252602e81526020018061400b602e913960400191505060405180910390610b8f612ff0565b50505b6000601581610b9f61305b565b906101000a900460ff161590508015610c085760016000600160a81b81610bc461305b565b8160ff02191690831515021790610bd96130a7565b5050506001600060146101000a81610bef61305b565b8160ff02191690831515021790610c046130a7565b5050505b60008080610c1461305b565b906101000a90046001600160a01b03166001600160a01b031614610c5c5760405162461bcd60e51b8152600401610c4a90613e6f565b60405180910390610c59612ff0565b50505b816000600181610c6a61305b565b816001600160a01b0302191690836001600160a01b0316021790610c8c6130a7565b50505061dead60cc60006101000a81610ca361305b565b816001600160a01b0302191690836001600160a01b0316021790610cc56130a7565b505050610cd0611586565b610cd86116b1565b610ce061183c565b610ce8611947565b8015610d1857600080600160a81b81610cff61305b565b8160ff02191690831515021790610d146130a7565b5050505b5050565b60c96020528060005260406000206000915061033861305b565b60026097610d4261305b565b1415610d9d5760405162461bcd60e51b815260206004820152601f60248201527f5265656e7472616e637947756172643a207265656e7472616e742063616c6c00604482015260640160405180910390610d9a612ff0565b50505b6002806097610daa6130a7565b5050506000610de260405160408082019052601481527327ab26afa61926b2b9b9b0b3b2a932b630bcb2b960611b60208201526104ea565b90506001600160a01b03811615610e3e57806001600160a01b03165a610e0661322c565b6001600160a01b031614610e3e5760405162461bcd60e51b8152600401610e2c90613dd2565b60405180910390610e3b612ff0565b50505b610e46610614565b15610e935760405162461bcd60e51b815260206004820152601060248201526f14185d5cd8589b194e881c185d5cd95960821b604482015260640160405180910390610e90612ff0565b50505b6000610ea18787878761138a565b9050610ead8184611a50565b1515600114610ee05760405162461bcd60e51b8152600401610ece90613e28565b60405180910390610edd612ff0565b50505b60008180519060200120600081815260cb60205290915060409020600090610f0661305b565b60ff6101009290920a90041615610f415760405162461bcd60e51b8152600401610f2f90613cd2565b60405180910390610f3e612ff0565b50505b600081815260c960205260409020600090610f5a61305b565b60ff6101009290920a90041615610f955760405162461bcd60e51b8152600401610f8390613d90565b60405180910390610f92612ff0565b50505b610fd160405160408082019052601d81527f4f564d5f43616e6f6e6963616c5472616e73616374696f6e436861696e00000060208201526104ea565b6001600160a01b0316886001600160a01b031614156110145760405162461bcd60e51b815260040161100290613eb9565b60405180910390611011612ff0565b50505b8660cc60018161102261305b565b816001600160a01b0302191690836001600160a01b03160217906110446130a7565b5050506000886001600160a01b0316876040516110619190613ab6565b6000604051808303816000865a611076613272565b5050505050509150503d80600081146110ab576040513d603f01601f191681016040523d815291503d6000602084013e6110b0565b606091505b5050905061dead60cc60006101000a816110c861305b565b816001600160a01b0302191690836001600160a01b03160217906110ea6130a7565b5050506001811515141561116857600082815260cb6020526001906040902060018161111461305b565b8160ff021916908315150217906111296130a7565b5050507f4641df4a962071e12719d8c8c8e5ac7fc4d97b927346a3d7a335b1f7517e133c8260405161115b9190613a9f565b60405180910390a16111a0565b7f99d0e048484baa1b1540b1367cb128acd7ab2946d1ed91ec10e3c85e4bf51b8f826040516111979190613a9f565b60405180910390a15b6000835a6111ac61322c565b5a6111b561333e565b6040516020016111c793929190613b04565b60405160208183030381529060405280519060200120600081815260ca602052909150600190604090206001816111fc61305b565b8160ff021916908315150217906112116130a7565b50505050505050506001609781906112276130a7565b5050505050505050565b61123961137a565b6001600160a01b031661124a610ae5565b6001600160a01b03161461129b5760405162461bcd60e51b8152602060048201819052602482015260008051602061405f833981519152604482015260640160405180910390611298612ff0565b50505b6001600160a01b0381166112e95760405162461bcd60e51b8152600401808060200182810382526026815260200180613fbb60269139604001915050604051809103906112e6612ff0565b50505b6001600160a01b038116600060336112ff61305b565b906101000a90046001600160a01b03166001600160a01b03167f8be0079c531659141344cd1fd0a4f28419497f9722a3daafe3b4186f6b6457e060405160405180910390a380603360018161135261305b565b816001600160a01b0302191690836001600160a01b03160217906113746130a7565b50505050565b60005a61138561322c565b905090565b6060848484846040516024016113a39493929190613b6a565b604051601f1981830301815260409190915263cbd4ece960e01b6020820180516001600160e01b031690911790529050949350505050565b836001600160a01b0316636fee07e08483856040518463ffffffff1660e01b815260040161140b93929190613bdf565b600060405180830381600087806114206130f5565b15801561143557600080611432612ff0565b50505b505a61143f613272565b505050505050158015611227573d6000803e3d60006108a8612ff0565b611464610614565b156114b15760405162461bcd60e51b815260206004820152601060248201526f14185d5cd8589b194e881c185d5cd95960821b6044820152606401604051809103906114ae612ff0565b50505b6001606581816114bf61305b565b8160ff021916908315150217906114d46130a7565b5050507f62e78cea01bee320cd4e420270b5ea74000d11b0c9f74754ebdbfc544b05a25861150061137a565b6040516001600160a01b03909116815260200160405180910390a1565b60006115805a63996d79a5598160e01b8152602081600483336000905af158600e01573d6000803e3d6000fd5b3d6001141558600a015760016000f35b8051925060005b604081101561157857600082820152602001611561565b505050611a75565b15905090565b6015600061159261305b565b906101000a900460ff16806115aa57506115aa61151d565b806115c85750601460006115bc61305b565b906101000a900460ff16155b61160c5760405162461bcd60e51b815260040180806020018281038252602e81526020018061400b602e913960400191505060405180910390611609612ff0565b50505b600060158161161961305b565b906101000a900460ff1615905080156116825760016000600160a81b8161163e61305b565b8160ff021916908315150217906116536130a7565b5050506001600060146101000a8161166961305b565b8160ff0219169083151502179061167e6130a7565b5050505b80156116ae57600080600160a81b8161169961305b565b8160ff021916908315150217906113746130a7565b50565b601560006116bd61305b565b906101000a900460ff16806116d557506116d561151d565b806116f35750601460006116e761305b565b906101000a900460ff16155b6117375760405162461bcd60e51b815260040180806020018281038252602e81526020018061400b602e913960400191505060405180910390611734612ff0565b50505b600060158161174461305b565b906101000a900460ff1615905080156117ad5760016000600160a81b8161176961305b565b8160ff0219169083151502179061177e6130a7565b5050506001600060146101000a8161179461305b565b8160ff021916908315150217906117a96130a7565b5050505b60006117b761137a565b90508060336001816117c761305b565b816001600160a01b0302191690836001600160a01b03160217906117e96130a7565b5050506001600160a01b03811660007f8be0079c531659141344cd1fd0a4f28419497f9722a3daafe3b4186f6b6457e060405160405180910390a35080156116ae57600080600160a81b8161169961305b565b6015600061184861305b565b906101000a900460ff1680611860575061186061151d565b8061187e57506014600061187261305b565b906101000a900460ff16155b6118c25760405162461bcd60e51b815260040180806020018281038252602e81526020018061400b602e9139604001915050604051809103906118bf612ff0565b50505b60006015816118cf61305b565b906101000a900460ff1615905080156119385760016000600160a81b816118f461305b565b8160ff021916908315150217906119096130a7565b5050506001600060146101000a8161191f61305b565b8160ff021916908315150217906119346130a7565b5050505b6000606560018161166961305b565b6015600061195361305b565b906101000a900460ff168061196b575061196b61151d565b8061198957506014600061197d61305b565b906101000a900460ff16155b6119cd5760405162461bcd60e51b815260040180806020018281038252602e81526020018061400b602e9139604001915050604051809103906119ca612ff0565b50505b60006015816119da61305b565b906101000a900460ff161590508015611a435760016000600160a81b816119ff61305b565b8160ff02191690831515021790611a146130a7565b5050506001600060146101000a81611a2a61305b565b8160ff02191690831515021790611a3f6130a7565b5050505b600180609761167e6130a7565b6000611a5b82611a8a565b8015611a6c5750611a6c8383611c2b565b90505b92915050565b60008082611a816130f5565b15159392505050565b600080611ac960405160408082019052601881527f4f564d5f5374617465436f6d6d69746d656e74436861696e000000000000000060208201526104ea565b9050806001600160a01b0316639418bddd84602001516040518263ffffffff1660e01b8152600401611afb9190613f53565b6020604051808303818680611b0e6130f5565b158015611b2357600080611b20612ff0565b50505b505a611b2d613141565b5050505050158015611b4c573d6000803e3d6000611b49612ff0565b50505b50505050604051601f3d908101601f19168201604052611b6f91908101906138d2565b158015611c2457506001600160a01b038116634d69ee578451856020015186604001516040518463ffffffff1660e01b8152600401611bb093929190613c11565b6020604051808303818680611bc36130f5565b158015611bd857600080611bd5612ff0565b50505b505a611be2613141565b5050505050158015611c01573d6000803e3d6000611bfe612ff0565b50505b50505050604051601f3d908101601f19168201604052611c2491908101906138d2565b9392505050565b60008083611c6860405160408082019052601a81527927ab26afa61921b937b9b9a237b6b0b4b726b2b9b9b2b733b2b960311b60208201526104ea565b604051602001611c79929190613ad2565b604051602081830303815290604052805190602001206000604051602001611ca2929190613aa8565b604051602081830303815290604052805190602001209050600080611cf0602160991b604051602001611cd59190613a87565b60405160208183030381529060405286606001518751611d94565b9092509050600182151514611d295760405162461bcd60e51b8152600401611d1790613d1d565b60405180910390611d26612ff0565b50505b6000611d3482611dbd565b9050611d8984604051602001611d4a9190613a9f565b6040516020818303038152906040526001604051602001611d6b9190613b3e565b60405160208183030381529060405288608001518460400151611e4f565b979650505050505050565b600060606000611da386611e73565b9050611db0818686611ea3565b9250925050935093915050565b611dc5613384565b6000611dd083611f7e565b90506040518060800160405280611dfa83600081518110611ded57fe5b6020026020010151611f91565b8152602001611e0f83600181518110611ded57fe5b8152602001611e3183600281518110611e2457fe5b6020026020010151611f98565b8152602001611e4683600381518110611e2457fe5b90529392505050565b600080611e5b86611e73565b9050611e69818686866120a5565b9695505050505050565b60608180519060200120604051602001611e8d9190613a9f565b6040516020818303038152906040529050919050565b600060606000611eb2856120cb565b90506000806000611ec4848a896121aa565b925092509250600082511590508080611eda5750815b611f335760405162461bcd60e51b815260206004820152601a60248201527f50726f76696465642070726f6f6620697320696e76616c69642e000000000000604482015260640160405180910390611f30612ff0565b50505b600081611f4d576040516020810160405260008152611f6c565b611f6c866001870381518110611f5f57fe5b6020026020010151612571565b919b919a509098505050505050505050565b6060611a6f611f8c8361258e565b6125b6565b6000611a6f825b6000602182511115611ff95760405162461bcd60e51b815260206004820152601a60248201527f496e76616c696420524c5020627974657333322076616c75652e000000000000604482015260640160405180910390611ff6612ff0565b50505b600080600061200785612742565b91945092509050600081600181111561201c57fe5b146120765760405162461bcd60e51b815260206004820152601a60248201527f496e76616c696420524c5020627974657333322076616c75652e000000000000604482015260640160405180910390612073612ff0565b50505b60008386602001510190506000815190506020841015611e695760208490036101000a90049695505050505050565b60008060006120b5878686611ea3565b91509150818015611d895750611d898682612a9d565b606060006120d883611f7e565b90506000815167ffffffffffffffff811180156120fd576000806120fa612ff0565b50505b5060405190808252806020026020018201604052801561213757816020015b6121246133aa565b81526020019060019003908161211c5790505b50905060005b82518110156121a257600061216484838151811061215757fe5b6020026020010151612ab7565b9050604051806040016040528082815260200161218083611f7e565b905283838151811061218e57fe5b60209081029190910101525060010161213d565b509392505050565b600060608180806121ba87612b4e565b9050856000806121c86133aa565b60005b8c51811015612549578c81815181106121e057fe5b602002602001015160019790970196938301939150836122575784825180519060200120146122525760405162461bcd60e51b8152602060048201526011602482015270092dcecc2d8d2c840e4dedee840d0c2e6d607b1b60448201526064016040518091039061224f612ff0565b50505b612327565b6020825151106122c25784825180519060200120146122525760405162461bcd60e51b815260206004820152601b60248201527f496e76616c6964206c6172676520696e7465726e616c2068617368000000000060448201526064016040518091039061224f612ff0565b846122cd8351612c4e565b146123275760405162461bcd60e51b815260206004820152601a60248201527f496e76616c696420696e7465726e616c206e6f64652068617368000000000000604482015260640160405180910390612324612ff0565b50505b6011602083015151141561239057855184141561234357612549565b600086858151811061235157fe5b602001015160f81c9050600060208401518260ff168151811061237057fe5b6020026020010151905061238381612c84565b9650600194505050612541565b600282602001515114156124ec5760006123a983612cb7565b90506000816000815181106123ba57fe5b602001015160f81c90506001811660020360006123da8460ff8416612cd5565b905060006123e88b8a612cd5565b905060006123f68383612d02565b905060ff85166002148061240d575060ff85166003145b1561243f578083511480156124225750808251145b1561242c57988901985b50600160ff1b9950612549945050505050565b60ff85161580612452575060ff85166001145b156124a257825181146124725750600160ff1b9950612549945050505050565b612493886020015160018151811061248657fe5b6020026020010151612c84565b9a509750612541945050505050565b60405162461bcd60e51b815260040180806020018281038252602681526020018061403960269139604001915050604051809103906124df612ff0565b5050505050505050612541565b60405162461bcd60e51b815260206004820152601d60248201527f526563656976656420616e20756e706172736561626c65206e6f64652e00000060448201526064016040518091039061253e612ff0565b50505b6001016121cb565b50600160ff1b84148661255c8786612cd5565b909e909d50909b509950505050505050505050565b6060611a6f82602001516001846020015151038151811061215757fe5b6125966133c1565b602082016040518060400160405280845181526020019190915292915050565b60606000806125c484612742565b919350909150600190508160018111156125da57fe5b146126345760405162461bcd60e51b815260206004820152601760248201527f496e76616c696420524c50206c6973742076616c75652e000000000000000000604482015260640160405180910390612631612ff0565b50505b6000602060405190808252806020026020018201604052801561267157816020015b61265e6133c1565b8152602001906001900390816126565790505b5090506000835b865181101561273757602082106126c95760405162461bcd60e51b815260040180806020018281038252602a815260200180613fe1602a9139604001915050604051809103906126c6612ff0565b50505b6000806126f16040516040808201905280858c51038152602001858c60200151019052612742565b509150915060405180604001604052808383018152602001848b6020015101905285858151811061271e57fe5b6020908102919091010152600193909301920101612678565b508152949350505050565b60008080808451116127a35760405162461bcd60e51b815260206004820152601860248201527f524c50206974656d2063616e6e6f74206265206e756c6c2e00000000000000006044820152606401604051809103906127a0612ff0565b50505b6000846020015190506000815160001a9050607f81116127d0576000600160009450945094505050612a96565b60b7811161284c57607f1981018087511161283a5760405162461bcd60e51b815260206004820152601960248201527f496e76616c696420524c502073686f727420737472696e672e00000000000000604482015260640160405180910390612837612ff0565b50505b60019550935060009250612a96915050565b60bf811161293c5760b6198101808751116128b65760405162461bcd60e51b815260206004820152601f60248201527f496e76616c696420524c50206c6f6e6720737472696e67206c656e6774682e006044820152606401604051809103906128b3612ff0565b50505b6000816020036101000a60018501510490508181018851116129275760405162461bcd60e51b815260206004820152601860248201527f496e76616c696420524c50206c6f6e6720737472696e672e0000000000000000604482015260640160405180910390612924612ff0565b50505b60019091019550935060009250612a96915050565b60f781116129b75760bf198101808751116129a65760405162461bcd60e51b815260206004820152601760248201527f496e76616c696420524c502073686f7274206c6973742e0000000000000000006044820152606401604051809103906129a3612ff0565b50505b600195509350849250612a96915050565b60f619810180875111612a195760405162461bcd60e51b815260206004820152601d60248201527f496e76616c696420524c50206c6f6e67206c697374206c656e6774682e000000604482015260640160405180910390612a16612ff0565b50505b6000816020036101000a6001850151049050818101885111612a835760405162461bcd60e51b815260206004820152601660248201527524b73b30b634b210292628103637b733903634b9ba1760511b604482015260640160405180910390612a80612ff0565b50505b6001918201965094509250612a96915050565b9193909250565b600081805190602001208380519060200120149392505050565b60606000806000612ac785612742565b919450925090506000816001811115612adc57fe5b14612b365760405162461bcd60e51b815260206004820152601860248201527f496e76616c696420524c502062797465732076616c75652e0000000000000000604482015260640160405180910390612b33612ff0565b50505b612b4585602001518484612d62565b95945050505050565b60606000825160020267ffffffffffffffff81118015612b7657600080612b73612ff0565b50505b50604051818152601f19601f8301168101602001604052908015612ba1576020820181803683370190505b50905060005b8351811015612c47576004848281518110612bbe57fe5b60200101516001600160f81b031916901c826002830281518110612bde57fe5b60200101906001600160f81b031916908160001a9053506010848281518110612c0357fe5b602001015160f81c81612c1257fe5b0660f81b828260020260010181518110612c2857fe5b60200101906001600160f81b031916908160001a905350600101612ba7565b5092915050565b6000602082511015612c6a5760006020830151915061060f9050565b602082018251602081101561060357600080610600612ff0565b60006060602083511015612ca257612c9b83612e14565b9050612cae565b612cab83612ab7565b90505b611c2481612c4e565b6060611a6f612cd0836020015160008151811061215757fe5b612b4e565b606082518210612cf45760405160208101604052600081529050611a6f565b611a6c838384865103612e1f565b6000805b808451118015612d165750808351115b8015612d555750828181518110612d2957fe5b60200101516001600160f81b031916848281518110612d4457fe5b60200101516001600160f81b031916145b15611a6c57600101612d06565b606060008267ffffffffffffffff81118015612d8657600080612d83612ff0565b50505b50604051818152601f19601f8301168101602001604052908015612db1576020820181803683370190505b5090508051612dc1579050611c24565b8484016020820160005b60208604811015612dec578251825260209283019290910190600101612dcb565b50600019601f86166020036101000a0180825116811984511617909152509095945050505050565b6060611a6f82612f88565b60608182601f011015612e725760405162461bcd60e51b815260206004820152600e60248201526d736c6963655f6f766572666c6f7760901b604482015260640160405180910390612e6f612ff0565b50505b828284011015612ec25760405162461bcd60e51b815260206004820152600e60248201526d736c6963655f6f766572666c6f7760901b604482015260640160405180910390612ebf612ff0565b50505b81830184511015612f165760405162461bcd60e51b8152602060048201526011602482015270736c6963655f6f75744f66426f756e647360781b604482015260640160405180910390612f13612ff0565b50505b606082158015612f355760405191506000825260208201604052612f7f565b6040519150601f8416801560200281840101858101878315602002848b0101015b81831015612f6e578051835260209283019201612f56565b5050858452601f01601f1916604052505b50949350505050565b6060611a6f826020015160008451612d62565b63a8c4c5ec598160e01b8152602081600483336000905af158600e01573d6000803e3d6000fd5b3d6001141558600a015760016000f35b8051935060005b60408110156109a157600082820152602001612fd9565b632a2a7adb598160e01b8152600481016020815285602082015260005b8681101561302857808601518282016040015260200161300d565b506020828760640184336000905af158600e01573d6000803e3d6000fd5b3d6001141558600a015760016000f35b505050565b6303daa959598160e01b8152836004820152602081602483336000905af158600e01573d6000803e3d6000fd5b3d6001141558600a015760016000f35b80516000825293506020612fd9565b6322bd64c0598160e01b8152836004820152846024820152600081604483336000905af158600e01573d6000803e3d6000fd5b3d6001141558600a015760016000f35b600081526020612fd9565b638435035b598160e01b8152836004820152602081602483336000905af158600e01573d6000803e3d6000fd5b3d6001141558600a015760016000f35b80516000825293506020612fd9565b638540661f598160e01b8152613172565b8080831115611a6f575090919050565b8080831015611a6f575090919050565b836004820152846024820152606060448201528660648201526084810160005b888110156131aa578088015182820152602001613192565b506060828960a40184336000905af158600e01573d6000803e3d6000fd5b3d6001141558600a015760016000f35b815160408301513d6000853e8b8b82606087013350600060045af150596131ff8d3d613162565b8c0161320b8187613152565b5b82811015613220576000815260200161320c565b50929c50505050505050565b6373509064598160e01b8152602081600483336000905af158600e01573d6000803e3d6000fd5b3d6001141558600a015760016000f35b80516000825293506020612fd9565b635b99d1c5598160e01b81528360048201528460248201528560448201526080606482015287608482015260a4810160005b898110156132bc5780890151828201526020016132a4565b506060828a60c40184336000905af158600e01573d6000803e3d6000fd5b3d6001141558600a015760016000f35b815160408301513d6000853e8c8c82606087013350600060045af150596133118e3d613162565b8d0161331d8187613152565b5b82811015613332576000815260200161331e565b50929d50505050505050565b635a98c361598160e01b8152602081600483336000905af158600e01573d6000803e3d6000fd5b3d6001141558600a015760016000f35b80516000825293506020612fd9565b604051608081016040908152600080835260208301819052908201819052606082015290565b604051604080820190526060808252602082015290565b604051604080820190526000808252602082015290565b600067ffffffffffffffff8311156133ec57fe5b6133ff601f8401601f1916602001613f66565b905082815283838301111561341c57600080613419612ff0565b50505b828260208301376000602084830101529392505050565b80356001600160a01b038116811461060f57600080613450612ff0565b5050919050565b600082601f83011261347057808161346d612ff0565b50505b611a6c838335602085016133d8565b600060a08284031215613499578081613496612ff0565b50505b60405160a0810167ffffffffffffffff82821081831117156134b757fe5b816040528293508435835260208501356020840152604085013560408401526060850135606084015260808501359150808211156134fd576000806134fa612ff0565b50505b5061350a85828601613457565b6080830152505092915050565b60006040828403121561353157808161352e612ff0565b50505b6040516040810167ffffffffffffffff828210818311171561354f57fe5b816040528293508435835260209150818501358181111561357857600080613575612ff0565b50505b8501601f810187136135925760008061358f612ff0565b50505b80358281111561359e57fe5b83810292506135ae848401613f66565b8181528481019083860185850187018b10156135d2576000806135cf612ff0565b50505b600095505b838610156135f55780358352600195909501949186019186016135d7565b5080868801525050505050505092915050565b803563ffffffff8116811461060f57600080613450612ff0565b60008151905064ffffffffff8116811461060f57600080613450612ff0565b60006020828403121561365b578081613658612ff0565b50505b611a6c82613433565b600080600080600060a08688031215613684578081613681612ff0565b50505b61368d86613433565b945061369b60208701613433565b9350604086013567ffffffffffffffff808211156136c05782836136bd612ff0565b50505b6136cc89838a01613457565b94506060880135935060808801359150808211156136f15782836136ee612ff0565b50505b9087019060a0828a03121561370d57828361370a612ff0565b50505b61371760a0613f66565b82358152602083013582811115613735578485613732612ff0565b50505b6137418b82860161347f565b60208301525060408301358281111561376157848561375e612ff0565b50505b61376d8b828601613517565b60408301525060608301358281111561378d57848561378a612ff0565b50505b6137998b828601613457565b6060830152506080830135828111156137b95784856137b6612ff0565b50505b6137c58b828601613457565b6080830152508093505050509295509295909350565b600080600080600060a086880312156137fb5780816137f8612ff0565b50505b61380486613433565b945061381260208701613433565b9350604086013567ffffffffffffffff811115613836578182613833612ff0565b50505b61384288828901613457565b9350506060860135915061385860808701613608565b90509295509295909350565b60008060006060848603121561388157828361387e612ff0565b50505b61388a84613433565b9250602084013567ffffffffffffffff8111156138ae5782836138ab612ff0565b50505b6138ba86828701613457565b9250506138c960408501613608565b90509250925092565b6000602082840312156138ec5780816138e9612ff0565b50505b81518015158114611a6c578182613901612ff0565b50509392505050565b600060208284031215613924578081613921612ff0565b50505b5035919050565b600060208284031215613945578081613942612ff0565b50505b813567ffffffffffffffff811115613964578182613961612ff0565b50505b8201601f8101841361397d57818261397a612ff0565b50505b61398c848235602084016133d8565b949350505050565b6000606082840312156139ae5780816139ab612ff0565b50505b6040516060810181811067ffffffffffffffff821117156139cb57fe5b604052825181526139de60208401613622565b60208201526139ef60408401613622565b60408201529392505050565b600060208284031215613a15578081613a12612ff0565b50505b611a6c82613622565b60008151808452613a36816020860160208601613f8e565b601f01601f19169290920160200192915050565b600081518352602082015160208401526040820151604084015260608201516060840152608082015160a0608085015261398c60a0850182613a1e565b60609190911b6001600160601b031916815260140190565b90815260200190565b918252602082015260400190565b60008251613ac8818460208701613f8e565b9190910192915050565b60008351613ae4818460208801613f8e565b60609390931b6001600160601b0319169190920190815260140192915050565b60008451613b16818460208901613f8e565b60609490941b6001600160601b03191691909301908152601481019190915260340192915050565b60f89190911b6001600160f81b031916815260010190565b6001600160a01b0391909116815260200190565b6001600160a01b03858116825284166020820152608060408201819052600090613b9690830185613a1e565b905082606083015295945050505050565b6001600160a01b0385811682528416602082015263ffffffff83166040820152608060608201819052600090611e6990830184613a1e565b600060018060a01b038516825283602083015260606040830152612b456060830184613a1e565b901515815260200190565b60008482526020606081840152613c2b6060840186613a4a565b838103604085015260408101855182528286015160408484015281815180845260608501915085830194508693505b80841015613c7a5784518252938501936001939093019290850190613c5a565b509998505050505050505050565b600060208252611a6c6020830184613a1e565b6020808252601f908201527f78446f6d61696e4d65737361676553656e646572206973206e6f742073657400604082015260600190565b6020808252602b908201527f50726f7669646564206d6573736167652068617320616c72656164792062656560408201526a37103932b1b2b4bb32b21760a91b606082015260800190565b6020808252604d908201527f4d6573736167652070617373696e67207072656465706c6f7920686173206e6f60408201527f74206265656e20696e697469616c697a6564206f7220696e76616c696420707260608201526c37b7b310383937bb34b232b21760991b608082015260a00190565b60208082526022908201527f50726f7669646564206d65737361676520686173206265656e20626c6f636b65604082015261321760f11b606082015260800190565b60208082526036908201527f4f6e6c79204f564d5f4c324d65737361676552656c617965722063616e2072656040820152753630bc90261916ba3796a6189036b2b9b9b0b3b2b99760511b606082015260800190565b60208082526027908201527f50726f7669646564206d65737361676520636f756c64206e6f742062652076656040820152663934b334b2b21760c91b606082015260800190565b6020808252602a908201527f4c3143726f7373446f6d61696e4d657373656e67657220616c72656164792069604082015269373a34b0b634bd32b21760b11b606082015260800190565b60208082526033908201527f43616e6e6f742073656e64204c322d3e4c31206d6573736167657320746f204c604082015272189039bcb9ba32b69031b7b73a3930b1ba399760691b606082015260800190565b60208082526027908201527f50726f7669646564206d65737361676520686173206e6f74206265656e20656e60408201526638bab2bab2b21760c91b606082015260800190565b600060208252611a6c6020830184613a4a565b6000604051905081810181811067ffffffffffffffff82111715613f8657fe5b604052919050565b60005b83811015613fa9578082015183820152602001613f91565b83811115611374575050600091015256fe4f776e61626c653a206e6577206f776e657220697320746865207a65726f206164647265737350726f766964656420524c50206c6973742065786365656473206d6178206c697374206c656e6774682e496e697469616c697a61626c653a20636f6e747261637420697320616c726561647920696e697469616c697a656452656365697665642061206e6f6465207769746820616e20756e6b6e6f776e207072656669784f776e61626c653a2063616c6c6572206973206e6f7420746865206f776e6572",
  "linkReferences": {},
  "deployedLinkReferences": {}
}