{
  "contractName": "GovernorBravoDelegate",
  "abi": [
    {
      "anonymous": false,
      "inputs": [
        {
          "indexed": false,
          "internalType": "address",
          "name": "oldAdmin",
          "type": "address"
        },
        {
          "indexed": false,
          "internalType": "address",
          "name": "newAdmin",
          "type": "address"
        }
      ],
      "name": "NewAdmin",
      "type": "event"
    },
    {
      "anonymous": false,
      "inputs": [
        {
          "indexed": false,
          "internalType": "address",
          "name": "oldImplementation",
          "type": "address"
        },
        {
          "indexed": false,
          "internalType": "address",
          "name": "newImplementation",
          "type": "address"
        }
      ],
      "name": "NewImplementation",
      "type": "event"
    },
    {
      "anonymous": false,
      "inputs": [
        {
          "indexed": false,
          "internalType": "address",
          "name": "oldPendingAdmin",
          "type": "address"
        },
        {
          "indexed": false,
          "internalType": "address",
          "name": "newPendingAdmin",
          "type": "address"
        }
      ],
      "name": "NewPendingAdmin",
      "type": "event"
    },
    {
      "anonymous": false,
      "inputs": [
        {
          "indexed": false,
          "internalType": "uint256",
          "name": "id",
          "type": "uint256"
        }
      ],
      "name": "ProposalCanceled",
      "type": "event"
    },
    {
      "anonymous": false,
      "inputs": [
        {
          "indexed": false,
          "internalType": "uint256",
          "name": "id",
          "type": "uint256"
        },
        {
          "indexed": false,
          "internalType": "address",
          "name": "proposer",
          "type": "address"
        },
        {
          "indexed": false,
          "internalType": "address[]",
          "name": "targets",
          "type": "address[]"
        },
        {
          "indexed": false,
          "internalType": "uint256[]",
          "name": "values",
          "type": "uint256[]"
        },
        {
          "indexed": false,
          "internalType": "string[]",
          "name": "signatures",
          "type": "string[]"
        },
        {
          "indexed": false,
          "internalType": "bytes[]",
          "name": "calldatas",
          "type": "bytes[]"
        },
        {
          "indexed": false,
          "internalType": "uint256",
          "name": "startBlock",
          "type": "uint256"
        },
        {
          "indexed": false,
          "internalType": "uint256",
          "name": "endBlock",
          "type": "uint256"
        },
        {
          "indexed": false,
          "internalType": "string",
          "name": "description",
          "type": "string"
        }
      ],
      "name": "ProposalCreated",
      "type": "event"
    },
    {
      "anonymous": false,
      "inputs": [
        {
          "indexed": false,
          "internalType": "uint256",
          "name": "id",
          "type": "uint256"
        }
      ],
      "name": "ProposalExecuted",
      "type": "event"
    },
    {
      "anonymous": false,
      "inputs": [
        {
          "indexed": false,
          "internalType": "uint256",
          "name": "id",
          "type": "uint256"
        },
        {
          "indexed": false,
          "internalType": "uint256",
          "name": "eta",
          "type": "uint256"
        }
      ],
      "name": "ProposalQueued",
      "type": "event"
    },
    {
      "anonymous": false,
      "inputs": [
        {
          "indexed": false,
          "internalType": "uint256",
          "name": "oldProposalThreshold",
          "type": "uint256"
        },
        {
          "indexed": false,
          "internalType": "uint256",
          "name": "newProposalThreshold",
          "type": "uint256"
        }
      ],
      "name": "ProposalThresholdSet",
      "type": "event"
    },
    {
      "anonymous": false,
      "inputs": [
        {
          "indexed": true,
          "internalType": "address",
          "name": "voter",
          "type": "address"
        },
        {
          "indexed": false,
          "internalType": "uint256",
          "name": "proposalId",
          "type": "uint256"
        },
        {
          "indexed": false,
          "internalType": "uint8",
          "name": "support",
          "type": "uint8"
        },
        {
          "indexed": false,
          "internalType": "uint256",
          "name": "votes",
          "type": "uint256"
        },
        {
          "indexed": false,
          "internalType": "string",
          "name": "reason",
          "type": "string"
        }
      ],
      "name": "VoteCast",
      "type": "event"
    },
    {
      "anonymous": false,
      "inputs": [
        {
          "indexed": false,
          "internalType": "uint256",
          "name": "oldVotingDelay",
          "type": "uint256"
        },
        {
          "indexed": false,
          "internalType": "uint256",
          "name": "newVotingDelay",
          "type": "uint256"
        }
      ],
      "name": "VotingDelaySet",
      "type": "event"
    },
    {
      "anonymous": false,
      "inputs": [
        {
          "indexed": false,
          "internalType": "uint256",
          "name": "oldVotingPeriod",
          "type": "uint256"
        },
        {
          "indexed": false,
          "internalType": "uint256",
          "name": "newVotingPeriod",
          "type": "uint256"
        }
      ],
      "name": "VotingPeriodSet",
      "type": "event"
    },
    {
      "constant": true,
      "inputs": [],
      "name": "BALLOT_TYPEHASH",
      "outputs": [
        {
          "internalType": "bytes32",
          "name": "",
          "type": "bytes32"
        }
      ],
      "payable": false,
      "stateMutability": "view",
      "type": "function"
    },
    {
      "constant": true,
      "inputs": [],
      "name": "DOMAIN_TYPEHASH",
      "outputs": [
        {
          "internalType": "bytes32",
          "name": "",
          "type": "bytes32"
        }
      ],
      "payable": false,
      "stateMutability": "view",
      "type": "function"
    },
    {
      "constant": true,
      "inputs": [],
      "name": "MAX_PROPOSAL_THRESHOLD",
      "outputs": [
        {
          "internalType": "uint256",
          "name": "",
          "type": "uint256"
        }
      ],
      "payable": false,
      "stateMutability": "view",
      "type": "function"
    },
    {
      "constant": true,
      "inputs": [],
      "name": "MAX_VOTING_DELAY",
      "outputs": [
        {
          "internalType": "uint256",
          "name": "",
          "type": "uint256"
        }
      ],
      "payable": false,
      "stateMutability": "view",
      "type": "function"
    },
    {
      "constant": true,
      "inputs": [],
      "name": "MAX_VOTING_PERIOD",
      "outputs": [
        {
          "internalType": "uint256",
          "name": "",
          "type": "uint256"
        }
      ],
      "payable": false,
      "stateMutability": "view",
      "type": "function"
    },
    {
      "constant": true,
      "inputs": [],
      "name": "MIN_PROPOSAL_THRESHOLD",
      "outputs": [
        {
          "internalType": "uint256",
          "name": "",
          "type": "uint256"
        }
      ],
      "payable": false,
      "stateMutability": "view",
      "type": "function"
    },
    {
      "constant": true,
      "inputs": [],
      "name": "MIN_VOTING_DELAY",
      "outputs": [
        {
          "internalType": "uint256",
          "name": "",
          "type": "uint256"
        }
      ],
      "payable": false,
      "stateMutability": "view",
      "type": "function"
    },
    {
      "constant": true,
      "inputs": [],
      "name": "MIN_VOTING_PERIOD",
      "outputs": [
        {
          "internalType": "uint256",
          "name": "",
          "type": "uint256"
        }
      ],
      "payable": false,
      "stateMutability": "view",
      "type": "function"
    },
    {
      "constant": true,
      "inputs": [],
      "name": "admin",
      "outputs": [
        {
          "internalType": "address",
          "name": "",
          "type": "address"
        }
      ],
      "payable": false,
      "stateMutability": "view",
      "type": "function"
    },
    {
      "constant": true,
      "inputs": [],
      "name": "comp",
      "outputs": [
        {
          "internalType": "contract CompInterface",
          "name": "",
          "type": "address"
        }
      ],
      "payable": false,
      "stateMutability": "view",
      "type": "function"
    },
    {
      "constant": true,
      "inputs": [],
      "name": "implementation",
      "outputs": [
        {
          "internalType": "address",
          "name": "",
          "type": "address"
        }
      ],
      "payable": false,
      "stateMutability": "view",
      "type": "function"
    },
    {
      "constant": true,
      "inputs": [],
      "name": "initialProposalId",
      "outputs": [
        {
          "internalType": "uint256",
          "name": "",
          "type": "uint256"
        }
      ],
      "payable": false,
      "stateMutability": "view",
      "type": "function"
    },
    {
      "constant": true,
      "inputs": [
        {
          "internalType": "address",
          "name": "",
          "type": "address"
        }
      ],
      "name": "latestProposalIds",
      "outputs": [
        {
          "internalType": "uint256",
          "name": "",
          "type": "uint256"
        }
      ],
      "payable": false,
      "stateMutability": "view",
      "type": "function"
    },
    {
      "constant": true,
      "inputs": [],
      "name": "name",
      "outputs": [
        {
          "internalType": "string",
          "name": "",
          "type": "string"
        }
      ],
      "payable": false,
      "stateMutability": "view",
      "type": "function"
    },
    {
      "constant": true,
      "inputs": [],
      "name": "pendingAdmin",
      "outputs": [
        {
          "internalType": "address",
          "name": "",
          "type": "address"
        }
      ],
      "payable": false,
      "stateMutability": "view",
      "type": "function"
    },
    {
      "constant": true,
      "inputs": [],
      "name": "proposalCount",
      "outputs": [
        {
          "internalType": "uint256",
          "name": "",
          "type": "uint256"
        }
      ],
      "payable": false,
      "stateMutability": "view",
      "type": "function"
    },
    {
      "constant": true,
      "inputs": [],
      "name": "proposalMaxOperations",
      "outputs": [
        {
          "internalType": "uint256",
          "name": "",
          "type": "uint256"
        }
      ],
      "payable": false,
      "stateMutability": "view",
      "type": "function"
    },
    {
      "constant": true,
      "inputs": [],
      "name": "proposalThreshold",
      "outputs": [
        {
          "internalType": "uint256",
          "name": "",
          "type": "uint256"
        }
      ],
      "payable": false,
      "stateMutability": "view",
      "type": "function"
    },
    {
      "constant": true,
      "inputs": [
        {
          "internalType": "uint256",
          "name": "",
          "type": "uint256"
        }
      ],
      "name": "proposals",
      "outputs": [
        {
          "internalType": "uint256",
          "name": "id",
          "type": "uint256"
        },
        {
          "internalType": "address",
          "name": "proposer",
          "type": "address"
        },
        {
          "internalType": "uint256",
          "name": "eta",
          "type": "uint256"
        },
        {
          "internalType": "string",
          "name": "description",
          "type": "string"
        },
        {
          "internalType": "uint256",
          "name": "startBlock",
          "type": "uint256"
        },
        {
          "internalType": "uint256",
          "name": "endBlock",
          "type": "uint256"
        },
        {
          "internalType": "uint256",
          "name": "forVotes",
          "type": "uint256"
        },
        {
          "internalType": "uint256",
          "name": "againstVotes",
          "type": "uint256"
        },
        {
          "internalType": "uint256",
          "name": "abstainVotes",
          "type": "uint256"
        },
        {
          "internalType": "bool",
          "name": "canceled",
          "type": "bool"
        },
        {
          "internalType": "bool",
          "name": "executed",
          "type": "bool"
        }
      ],
      "payable": false,
      "stateMutability": "view",
      "type": "function"
    },
    {
      "constant": true,
      "inputs": [],
      "name": "quorumVotes",
      "outputs": [
        {
          "internalType": "uint256",
          "name": "",
          "type": "uint256"
        }
      ],
      "payable": false,
      "stateMutability": "view",
      "type": "function"
    },
    {
      "constant": true,
      "inputs": [],
      "name": "timelock",
      "outputs": [
        {
          "internalType": "contract TimelockInterface",
          "name": "",
          "type": "address"
        }
      ],
      "payable": false,
      "stateMutability": "view",
      "type": "function"
    },
    {
      "constant": true,
      "inputs": [],
      "name": "votingDelay",
      "outputs": [
        {
          "internalType": "uint256",
          "name": "",
          "type": "uint256"
        }
      ],
      "payable": false,
      "stateMutability": "view",
      "type": "function"
    },
    {
      "constant": true,
      "inputs": [],
      "name": "votingPeriod",
      "outputs": [
        {
          "internalType": "uint256",
          "name": "",
          "type": "uint256"
        }
      ],
      "payable": false,
      "stateMutability": "view",
      "type": "function"
    },
    {
      "constant": false,
      "inputs": [
        {
          "internalType": "address",
          "name": "timelock_",
          "type": "address"
        },
        {
          "internalType": "address",
          "name": "comp_",
          "type": "address"
        },
        {
          "internalType": "uint256",
          "name": "votingPeriod_",
          "type": "uint256"
        },
        {
          "internalType": "uint256",
          "name": "votingDelay_",
          "type": "uint256"
        },
        {
          "internalType": "uint256",
          "name": "proposalThreshold_",
          "type": "uint256"
        }
      ],
      "name": "initialize",
      "outputs": [],
      "payable": false,
      "stateMutability": "nonpayable",
      "type": "function"
    },
    {
      "constant": false,
      "inputs": [
        {
          "internalType": "address[]",
          "name": "targets",
          "type": "address[]"
        },
        {
          "internalType": "uint256[]",
          "name": "values",
          "type": "uint256[]"
        },
        {
          "internalType": "string[]",
          "name": "signatures",
          "type": "string[]"
        },
        {
          "internalType": "bytes[]",
          "name": "calldatas",
          "type": "bytes[]"
        },
        {
          "internalType": "string",
          "name": "description",
          "type": "string"
        }
      ],
      "name": "propose",
      "outputs": [
        {
          "internalType": "uint256",
          "name": "",
          "type": "uint256"
        }
      ],
      "payable": false,
      "stateMutability": "nonpayable",
      "type": "function"
    },
    {
      "constant": false,
      "inputs": [
        {
          "internalType": "uint256",
          "name": "proposalId",
          "type": "uint256"
        }
      ],
      "name": "queue",
      "outputs": [],
      "payable": false,
      "stateMutability": "nonpayable",
      "type": "function"
    },
    {
      "constant": false,
      "inputs": [
        {
          "internalType": "uint256",
          "name": "proposalId",
          "type": "uint256"
        }
      ],
      "name": "execute",
      "outputs": [],
      "payable": true,
      "stateMutability": "payable",
      "type": "function"
    },
    {
      "constant": false,
      "inputs": [
        {
          "internalType": "uint256",
          "name": "proposalId",
          "type": "uint256"
        }
      ],
      "name": "cancel",
      "outputs": [],
      "payable": false,
      "stateMutability": "nonpayable",
      "type": "function"
    },
    {
      "constant": true,
      "inputs": [
        {
          "internalType": "uint256",
          "name": "proposalId",
          "type": "uint256"
        }
      ],
      "name": "getActions",
      "outputs": [
        {
          "internalType": "address[]",
          "name": "targets",
          "type": "address[]"
        },
        {
          "internalType": "uint256[]",
          "name": "values",
          "type": "uint256[]"
        },
        {
          "internalType": "string[]",
          "name": "signatures",
          "type": "string[]"
        },
        {
          "internalType": "bytes[]",
          "name": "calldatas",
          "type": "bytes[]"
        }
      ],
      "payable": false,
      "stateMutability": "view",
      "type": "function"
    },
    {
      "constant": true,
      "inputs": [
        {
          "internalType": "uint256",
          "name": "proposalId",
          "type": "uint256"
        },
        {
          "internalType": "address",
          "name": "voter",
          "type": "address"
        }
      ],
      "name": "getReceipt",
      "outputs": [
        {
          "components": [
            {
              "internalType": "bool",
              "name": "hasVoted",
              "type": "bool"
            },
            {
              "internalType": "uint8",
              "name": "support",
              "type": "uint8"
            },
            {
              "internalType": "uint96",
              "name": "votes",
              "type": "uint96"
            }
          ],
          "internalType": "struct GovernorBravoDelegateStorageV1.Receipt",
          "name": "",
          "type": "tuple"
        }
      ],
      "payable": false,
      "stateMutability": "view",
      "type": "function"
    },
    {
      "constant": true,
      "inputs": [
        {
          "internalType": "uint256",
          "name": "proposalId",
          "type": "uint256"
        }
      ],
      "name": "state",
      "outputs": [
        {
          "internalType": "enum GovernorBravoDelegateStorageV1.ProposalState",
          "name": "",
          "type": "uint8"
        }
      ],
      "payable": false,
      "stateMutability": "view",
      "type": "function"
    },
    {
      "constant": false,
      "inputs": [
        {
          "internalType": "uint256",
          "name": "proposalId",
          "type": "uint256"
        },
        {
          "internalType": "uint8",
          "name": "support",
          "type": "uint8"
        }
      ],
      "name": "castVote",
      "outputs": [],
      "payable": false,
      "stateMutability": "nonpayable",
      "type": "function"
    },
    {
      "constant": false,
      "inputs": [
        {
          "internalType": "uint256",
          "name": "proposalId",
          "type": "uint256"
        },
        {
          "internalType": "uint8",
          "name": "support",
          "type": "uint8"
        },
        {
          "internalType": "string",
          "name": "reason",
          "type": "string"
        }
      ],
      "name": "castVoteWithReason",
      "outputs": [],
      "payable": false,
      "stateMutability": "nonpayable",
      "type": "function"
    },
    {
      "constant": false,
      "inputs": [
        {
          "internalType": "uint256",
          "name": "proposalId",
          "type": "uint256"
        },
        {
          "internalType": "uint8",
          "name": "support",
          "type": "uint8"
        },
        {
          "internalType": "uint8",
          "name": "v",
          "type": "uint8"
        },
        {
          "internalType": "bytes32",
          "name": "r",
          "type": "bytes32"
        },
        {
          "internalType": "bytes32",
          "name": "s",
          "type": "bytes32"
        }
      ],
      "name": "castVoteBySig",
      "outputs": [],
      "payable": false,
      "stateMutability": "nonpayable",
      "type": "function"
    },
    {
      "constant": false,
      "inputs": [
        {
          "internalType": "uint256",
          "name": "newVotingDelay",
          "type": "uint256"
        }
      ],
      "name": "_setVotingDelay",
      "outputs": [],
      "payable": false,
      "stateMutability": "nonpayable",
      "type": "function"
    },
    {
      "constant": false,
      "inputs": [
        {
          "internalType": "uint256",
          "name": "newVotingPeriod",
          "type": "uint256"
        }
      ],
      "name": "_setVotingPeriod",
      "outputs": [],
      "payable": false,
      "stateMutability": "nonpayable",
      "type": "function"
    },
    {
      "constant": false,
      "inputs": [
        {
          "internalType": "uint256",
          "name": "newProposalThreshold",
          "type": "uint256"
        }
      ],
      "name": "_setProposalThreshold",
      "outputs": [],
      "payable": false,
      "stateMutability": "nonpayable",
      "type": "function"
    },
    {
      "constant": false,
      "inputs": [],
      "name": "_initiate",
      "outputs": [],
      "payable": false,
      "stateMutability": "nonpayable",
      "type": "function"
    },
    {
      "constant": false,
      "inputs": [
        {
          "internalType": "address",
          "name": "newPendingAdmin",
          "type": "address"
        }
      ],
      "name": "_setPendingAdmin",
      "outputs": [],
      "payable": false,
      "stateMutability": "nonpayable",
      "type": "function"
    },
    {
      "constant": false,
      "inputs": [],
      "name": "_acceptAdmin",
      "outputs": [],
      "payable": false,
      "stateMutability": "nonpayable",
      "type": "function"
    }
  ],
  "bytecode": "0x608060405234801561001057600080fd5b506144df806100206000396000f3fe60806040526004361061023b5760003560e01c8063791f5d231161012e578063da35c664116100ab578063e48083fe1161006f578063e48083fe1461037d578063e9c714f21461063a578063f851a4401461064f578063fc4eee4214610664578063fe0d94c1146106795761023b565b8063da35c664146105a3578063da95691a146105b8578063ddf0b009146105d8578063deaaa7cc146105f8578063e23a9a521461060d5761023b565b8063b1126263116100f2578063b112626314610524578063b58131b014610539578063b71d1a0c1461054e578063d13f90b41461056e578063d33219b41461058e5761023b565b8063791f5d23146104c55780637b3c71d3146104da5780637bdbe4d0146104fa578063878f14821461050f578063a64e024a146105245761023b565b806324bc1a64116101bc5780633bccf4fd116101805780633bccf4fd146104235780633e4f49e61461044357806340e58ee51461047057806356781388146104905780635c60da1b146104b05761023b565b806324bc1a641461039257806325fd935a146103a757806326782247146103bc578063328dd982146103de5780633932abb11461040e5761023b565b806317977c611161020357806317977c611461030857806317ba1b8b146103285780631dfb1b5a1461034857806320606b7014610368578063215809ca1461037d5761023b565b8063013cf08b1461024057806302a251a31461028057806306fdde03146102a25780630ea2d98c146102c4578063109d0af8146102e6575b600080fd5b34801561024c57600080fd5b5061026061025b366004612b70565b61068c565b6040516102779b9a999897969594939291906141d1565b60405180910390f35b34801561028c57600080fd5b5061029561077d565b6040516102779190613e0e565b3480156102ae57600080fd5b506102b7610783565b6040516102779190613eca565b3480156102d057600080fd5b506102e46102df366004612b70565b6107b6565b005b3480156102f257600080fd5b506102fb61085f565b6040516102779190613eae565b34801561031457600080fd5b50610295610323366004612985565b61086e565b34801561033457600080fd5b506102e4610343366004612b70565b610880565b34801561035457600080fd5b506102e4610363366004612b70565b610924565b34801561037457600080fd5b506102956109b8565b34801561038957600080fd5b506102956109cf565b34801561039e57600080fd5b506102956109d4565b3480156103b357600080fd5b506102956109e2565b3480156103c857600080fd5b506103d16109f0565b6040516102779190613cd4565b3480156103ea57600080fd5b506103fe6103f9366004612b70565b6109ff565b6040516102779493929190613dc1565b34801561041a57600080fd5b50610295610c8e565b34801561042f57600080fd5b506102e461043e366004612c60565b610c94565b34801561044f57600080fd5b5061046361045e366004612b70565b610e6f565b6040516102779190613ebc565b34801561047c57600080fd5b506102e461048b366004612b70565b610ff5565b34801561049c57600080fd5b506102e46104ab366004612bc8565b611249565b3480156104bc57600080fd5b506103d1611293565b3480156104d157600080fd5b506102956112a2565b3480156104e657600080fd5b506102e46104f5366004612bf8565b6112b0565b34801561050657600080fd5b50610295611300565b34801561051b57600080fd5b506102e4611305565b34801561053057600080fd5b506102956113b9565b34801561054557600080fd5b506102956113c0565b34801561055a57600080fd5b506102e4610569366004612985565b6113c6565b34801561057a57600080fd5b506102e46105893660046129ab565b611443565b34801561059a57600080fd5b506102fb6115c0565b3480156105af57600080fd5b506102956115cf565b3480156105c457600080fd5b506102956105d3366004612a20565b6115d5565b3480156105e457600080fd5b506102e46105f3366004612b70565b611a40565b34801561060457600080fd5b50610295611cbc565b34801561061957600080fd5b5061062d610628366004612b8e565b611cc8565b604051610277919061411b565b34801561064657600080fd5b506102e4611d35565b34801561065b57600080fd5b506103d1611e13565b34801561067057600080fd5b50610295611e22565b6102e4610687366004612b70565b611e28565b600a60209081526000918252604091829020805460018083015460028085015460078601805489516101009682161596909602600019011692909204601f810188900488028501880190985287845293966001600160a01b03909216959394939091908301828280156107405780601f1061071557610100808354040283529160200191610740565b820191906000526020600020905b81548152906001019060200180831161072357829003601f168201915b50505060088401546009850154600a860154600b870154600c880154600d9098015496979396929550909350919060ff808216916101009004168b565b60045481565b60405180604001604052806017815260200176436f6d706f756e6420476f7665726e6f7220427261766f60481b81525081565b6000546001600160a01b031633146107e95760405162461bcd60e51b81526004016107e090613f1b565b60405180910390fd5b600181101580156107fd5750620151808111155b6108195760405162461bcd60e51b81526004016107e090613f5b565b60048054908290556040517f7e3f7f0708a84de9203036abaa450dccc85ad5ff52f78c170f3edb55cf5e882890610853908390859061427c565b60405180910390a15050565b6009546001600160a01b031681565b600b6020526000908152604090205481565b6000546001600160a01b031633146108aa5760405162461bcd60e51b81526004016107e0906140db565b690a968163f0a57b40000081101580156108ce575069152d02c7e14af68000008111155b6108ea5760405162461bcd60e51b81526004016107e090613ffb565b60058054908290556040517fccb45da8d5717e6c4544694297c4ba5cf151d455c9bb0ed4fc7a38411bc0546190610853908390859061427c565b6000546001600160a01b0316331461094e5760405162461bcd60e51b81526004016107e090613f3b565b600181101580156109625750620151808111155b61097e5760405162461bcd60e51b81526004016107e090613f8b565b60038054908290556040517fc565b045403dc03c2eea82b81a0465edad9e2e7fc4d97e11421c209da93d7a9390610853908390859061427c565b6040516109c490613cc9565b604051809103902081565b600181565b6954b40b1f852bda00000081565b69152d02c7e14af680000081565b6001546001600160a01b031681565b6060806060806000600a600087815260200190815260200160002090508060030181600401826005018360060183805480602002602001604051908101604052809291908181526020018280548015610a8157602002820191906000526020600020905b81546001600160a01b03168152600190910190602001808311610a63575b5050505050935082805480602002602001604051908101604052809291908181526020018280548015610ad357602002820191906000526020600020905b815481526020019060010190808311610abf575b5050505050925081805480602002602001604051908101604052809291908181526020016000905b82821015610ba65760008481526020908190208301805460408051601f6002600019610100600187161502019094169390930492830185900485028101850190915281815292830182828015610b925780601f10610b6757610100808354040283529160200191610b92565b820191906000526020600020905b815481529060010190602001808311610b7557829003601f168201915b505050505081526020019060010190610afb565b50505050915080805480602002602001604051908101604052809291908181526020016000905b82821015610c785760008481526020908190208301805460408051601f6002600019610100600187161502019094169390930492830185900485028101850190915281815292830182828015610c645780601f10610c3957610100808354040283529160200191610c64565b820191906000526020600020905b815481529060010190602001808311610c4757829003601f168201915b505050505081526020019060010190610bcd565b5050505090509450945094509450509193509193565b60035481565b6000604051610ca290613cc9565b604080519182900382208282019091526017825276436f6d706f756e6420476f7665726e6f7220427261766f60481b6020909201919091527f3d9e905142ff365fb68ce863f26a44f5583cf7ec11bcde450555f50b7e1b5614610d03611fe1565b30604051602001610d179493929190613e1c565b6040516020818303038152906040528051906020012090506000604051610d3d90613c8d565b604051908190038120610d569189908990602001613e51565b60405160208183030381529060405280519060200120905060008282604051602001610d83929190613c98565b604051602081830303815290604052805190602001209050600060018288888860405160008152602001604052604051610dc09493929190613e79565b6020604051602081039080840390855afa158015610de2573d6000803e3d6000fd5b5050604051601f1901519150506001600160a01b038116610e155760405162461bcd60e51b81526004016107e090613fbb565b806001600160a01b03167fb8e138887d0aa13bab447e82de9d5c1777041ecd21ca36ba824ff1e6c07ddda48a8a610e4d858e8e611fe6565b604051610e5c939291906142d0565b60405180910390a2505050505050505050565b60008160075410158015610e84575060065482115b610ea05760405162461bcd60e51b81526004016107e0906140eb565b6000828152600a60205260409020600d81015460ff1615610ec5576002915050610ff0565b80600801544311610eda576000915050610ff0565b80600901544311610eef576001915050610ff0565b80600b015481600a0154111580610f1357506954b40b1f852bda00000081600a0154105b15610f22576003915050610ff0565b6002810154610f35576004915050610ff0565b600d810154610100900460ff1615610f51576007915050610ff0565b6002810154600854604080516360d143f160e11b81529051610fda93926001600160a01b03169163c1a287e2916004808301926020929190829003018186803b158015610f9d57600080fd5b505afa158015610fb1573d6000803e3d6000fd5b505050506040513d601f19601f82011682018060405250610fd59190810190612b1d565b6121d7565b4210610fea576006915050610ff0565b60059150505b919050565b600761100082610e6f565b600781111561100b57fe5b14156110295760405162461bcd60e51b81526004016107e0906140cb565b6000818152600a6020526040902060018101546001600160a01b03163314806110f157506005546009546001838101546001600160a01b039283169263782d6fe1929116906110799043906121fc565b6040518363ffffffff1660e01b8152600401611096929190613d18565b60206040518083038186803b1580156110ae57600080fd5b505afa1580156110c2573d6000803e3d6000fd5b505050506040513d601f19601f820116820180604052506110e69190810190612ca6565b6001600160601b0316105b61110d5760405162461bcd60e51b81526004016107e09061406b565b600d8101805460ff1916600117905560005b6003820154811015611219576008546003830180546001600160a01b039092169163591fcdfe91908490811061115157fe5b6000918252602090912001546004850180546001600160a01b03909216918590811061117957fe5b906000526020600020015485600501858154811061119357fe5b906000526020600020018660060186815481106111ac57fe5b9060005260206000200187600201546040518663ffffffff1660e01b81526004016111db959493929190613d80565b600060405180830381600087803b1580156111f557600080fd5b505af1158015611209573d6000803e3d6000fd5b50506001909201915061111f9050565b507f789cf55be980739dad1d0699b93b58e806b51c9d96619bfa8fe0a28abaa7b30c826040516108539190613e0e565b337fb8e138887d0aa13bab447e82de9d5c1777041ecd21ca36ba824ff1e6c07ddda48383611278848383611fe6565b604051611287939291906142d0565b60405180910390a25050565b6002546001600160a01b031681565b690a968163f0a57b40000081565b337fb8e138887d0aa13bab447e82de9d5c1777041ecd21ca36ba824ff1e6c07ddda485856112df848383611fe6565b86866040516112f295949392919061428a565b60405180910390a250505050565b600a81565b6000546001600160a01b0316331461132f5760405162461bcd60e51b81526004016107e0906140ab565b6006541561134f5760405162461bcd60e51b81526004016107e09061402b565b6001600781905560065560085460408051630e18b68160e01b815290516001600160a01b0390921691630e18b6819160048082019260009290919082900301818387803b15801561139f57600080fd5b505af11580156113b3573d6000803e3d6000fd5b50505050565b6201518081565b60055481565b6000546001600160a01b031633146113f05760405162461bcd60e51b81526004016107e090613efb565b600180546001600160a01b038381166001600160a01b03198316179092556040519116907fca4f2f25d0898edd99413412fb94012f9e54ec8142f9b093e7720646a95b16a9906108539083908590613cfd565b6008546001600160a01b03161561146c5760405162461bcd60e51b81526004016107e090613eeb565b6000546001600160a01b031633146114965760405162461bcd60e51b81526004016107e090613feb565b6001600160a01b0385166114bc5760405162461bcd60e51b81526004016107e090613f2b565b6001600160a01b0384166114e25760405162461bcd60e51b81526004016107e09061405b565b600183101580156114f65750620151808311155b6115125760405162461bcd60e51b81526004016107e0906140fb565b600182101580156115265750620151808211155b6115425760405162461bcd60e51b81526004016107e090613fcb565b690a968163f0a57b4000008110158015611566575069152d02c7e14af68000008111155b6115825760405162461bcd60e51b81526004016107e090613f9b565b600880546001600160a01b039687166001600160a01b0319918216179091556009805495909616941693909317909355600455600391909155600555565b6008546001600160a01b031681565b60075481565b6000600654600014156115fa5760405162461bcd60e51b81526004016107e090613f4b565b6005546009546001600160a01b031663782d6fe13361161a4360016121fc565b6040518363ffffffff1660e01b8152600401611637929190613ce2565b60206040518083038186803b15801561164f57600080fd5b505afa158015611663573d6000803e3d6000fd5b505050506040513d601f19601f820116820180604052506116879190810190612ca6565b6001600160601b0316116116ad5760405162461bcd60e51b81526004016107e0906140bb565b845186511480156116bf575083518651145b80156116cc575082518651145b6116e85760405162461bcd60e51b81526004016107e090613fdb565b85516117065760405162461bcd60e51b81526004016107e09061403b565b600a865111156117285760405162461bcd60e51b81526004016107e09061407b565b336000908152600b602052604090205480156117a557600061174982610e6f565b9050600181600781111561175957fe5b14156117775760405162461bcd60e51b81526004016107e09061409b565b600081600781111561178557fe5b14156117a35760405162461bcd60e51b81526004016107e09061408b565b505b60006117b3436003546121d7565b905060006117c3826004546121d7565b60078054600101905590506117d6612383565b604051806101e001604052806007548152602001336001600160a01b03168152602001600081526020018b81526020018a815260200189815260200188815260200187815260200184815260200183815260200160008152602001600081526020016000815260200160001515815260200160001515815250905080600a6000836000015181526020019081526020016000206000820151816000015560208201518160010160006101000a8154816001600160a01b0302191690836001600160a01b031602179055506040820151816002015560608201518160030190805190602001906118c6929190612406565b50608082015180516118e291600484019160209091019061246b565b5060a082015180516118fe9160058401916020909101906124b2565b5060c0820151805161191a91600684019160209091019061250b565b5060e08201518051611936916007840191602090910190612564565b506101008201518160080155610120820151816009015561014082015181600a015561016082015181600b015561018082015181600c01556101a082015181600d0160006101000a81548160ff0219169083151502179055506101c082015181600d0160016101000a81548160ff0219169083151502179055509050508060000151600b600083602001516001600160a01b03166001600160a01b03168152602001908152602001600020819055507f7d84a6263ae0d98d3329bd7b46bb4e8d6f98cd35a7adb45c274c8b7fd5ebd5e08160000151338c8c8c8c89898e604051611a2899989796959493929190614129565b60405180910390a15193505050505b95945050505050565b6004611a4b82610e6f565b6007811115611a5657fe5b14611a735760405162461bcd60e51b81526004016107e09061400b565b6000818152600a602090815260408083206008548251630d48571f60e31b81529251919493611acd9342936001600160a01b0390931692636a42b8f892600480840193919291829003018186803b158015610f9d57600080fd5b905060005b6003830154811015611c7557611c6d836003018281548110611af057fe5b6000918252602090912001546004850180546001600160a01b039092169184908110611b1857fe5b9060005260206000200154856005018481548110611b3257fe5b600091825260209182902001805460408051601f6002600019610100600187161502019094169390930492830185900485028101850190915281815292830182828015611bc05780601f10611b9557610100808354040283529160200191611bc0565b820191906000526020600020905b815481529060010190602001808311611ba357829003601f168201915b5050505050866006018581548110611bd457fe5b600091825260209182902001805460408051601f6002600019610100600187161502019094169390930492830185900485028101850190915281815292830182828015611c625780601f10611c3757610100808354040283529160200191611c62565b820191906000526020600020905b815481529060010190602001808311611c4557829003601f168201915b505050505086612224565b600101611ad2565b50600282018190556040517f9a2e42fd6722813d69113e7d0079d3d940171428df7373df9c7f7617cfda289290611caf908590849061427c565b60405180910390a1505050565b6040516109c490613c8d565b611cd06125d1565b506000828152600a602090815260408083206001600160a01b0385168452600e018252918290208251606081018452905460ff8082161515835261010082041692820192909252620100009091046001600160601b0316918101919091525b92915050565b6001546001600160a01b031633148015611d4e57503315155b611d6a5760405162461bcd60e51b81526004016107e09061404b565b60008054600180546001600160a01b038082166001600160a01b03198086168217968790559092169092556040519282169390927ff9ffabca9c8276e99321725bcb43fb076a6c66a54b7f21c4e8146d8519b417dc92611dce928692911690613cfd565b60405180910390a16001546040517fca4f2f25d0898edd99413412fb94012f9e54ec8142f9b093e7720646a95b16a9916108539184916001600160a01b031690613cfd565b6000546001600160a01b031681565b60065481565b6005611e3382610e6f565b6007811115611e3e57fe5b14611e5b5760405162461bcd60e51b81526004016107e090613fab565b6000818152600a60205260408120600d8101805461ff001916610100179055905b6003820154811015611fb1576008546004830180546001600160a01b0390921691630825f38f919084908110611eae57fe5b9060005260206000200154846003018481548110611ec857fe5b6000918252602090912001546004860180546001600160a01b039092169186908110611ef057fe5b9060005260206000200154866005018681548110611f0a57fe5b90600052602060002001876006018781548110611f2357fe5b9060005260206000200188600201546040518763ffffffff1660e01b8152600401611f52959493929190613d80565b6000604051808303818588803b158015611f6b57600080fd5b505af1158015611f7f573d6000803e3d6000fd5b50505050506040513d6000823e601f3d908101601f19168201604052611fa89190810190612b3b565b50600101611e7c565b507f712ae1383f79ac853f8d882153778e0260ef8f03b504e2866e0593e04d2b291f826040516108539190613e0e565b465b90565b60006001611ff384610e6f565b6007811115611ffe57fe5b1461201b5760405162461bcd60e51b81526004016107e090613f6b565b60028260ff16111561203f5760405162461bcd60e51b81526004016107e090613edb565b6000838152600a602090815260408083206001600160a01b0388168452600e8101909252909120805460ff16156120885760405162461bcd60e51b81526004016107e090613f7b565b600954600883015460405163782d6fe160e01b81526000926001600160a01b03169163782d6fe1916120be918b91600401613d18565b60206040518083038186803b1580156120d657600080fd5b505afa1580156120ea573d6000803e3d6000fd5b505050506040513d601f19601f8201168201806040525061210e9190810190612ca6565b905060ff85166121395761212f83600b0154826001600160601b03166121d7565b600b84015561218f565b8460ff16600114156121665761215c83600a0154826001600160601b03166121d7565b600a84015561218f565b8460ff166002141561218f5761218983600c0154826001600160601b03166121d7565b600c8401555b8154600160ff199091161761ff00191661010060ff871602176dffffffffffffffffffffffff00001916620100006001600160601b03831602179091559150505b9392505050565b6000828201838110156121d05760405162461bcd60e51b81526004016107e09061401b565b60008282111561221e5760405162461bcd60e51b81526004016107e09061410b565b50900390565b6008546040516001600160a01b039091169063f2b06537906122529088908890889088908890602001613d26565b604051602081830303815290604052805190602001206040518263ffffffff1660e01b81526004016122849190613e0e565b60206040518083038186803b15801561229c57600080fd5b505afa1580156122b0573d6000803e3d6000fd5b505050506040513d601f19601f820116820180604052506122d49190810190612aff565b156122f15760405162461bcd60e51b81526004016107e090613f0b565b600854604051633a66f90160e01b81526001600160a01b0390911690633a66f901906123299088908890889088908890600401613d26565b602060405180830381600087803b15801561234357600080fd5b505af1158015612357573d6000803e3d6000fd5b505050506040513d601f19601f8201168201806040525061237b9190810190612b1d565b505050505050565b604051806101e001604052806000815260200160006001600160a01b0316815260200160008152602001606081526020016060815260200160608152602001606081526020016060815260200160008152602001600081526020016000815260200160008152602001600081526020016000151581526020016000151581525090565b82805482825590600052602060002090810192821561245b579160200282015b8281111561245b57825182546001600160a01b0319166001600160a01b03909116178255602090920191600190910190612426565b506124679291506125f1565b5090565b8280548282559060005260206000209081019282156124a6579160200282015b828111156124a657825182559160200191906001019061248b565b50612467929150612615565b8280548282559060005260206000209081019282156124ff579160200282015b828111156124ff57825180516124ef918491602090910190612564565b50916020019190600101906124d2565b5061246792915061262f565b828054828255906000526020600020908101928215612558579160200282015b828111156125585782518051612548918491602090910190612564565b509160200191906001019061252b565b50612467929150612652565b828054600181600116156101000203166002900490600052602060002090601f016020900481019282601f106125a557805160ff19168380011785556124a6565b828001600101855582156124a657918201828111156124a657825182559160200191906001019061248b565b604080516060810182526000808252602082018190529181019190915290565b611fe391905b808211156124675780546001600160a01b03191681556001016125f7565b611fe391905b80821115612467576000815560010161261b565b611fe391905b808211156124675760006126498282612675565b50600101612635565b611fe391905b8082111561246757600061266c8282612675565b50600101612658565b50805460018160011615610100020316600290046000825580601f1061269b57506126b9565b601f0160209004906000526020600020908101906126b99190612615565b50565b8035611d2f81614444565b600082601f8301126126d857600080fd5b81356126eb6126e682614330565b614309565b9150818183526020840193506020810190508385602084028201111561271057600080fd5b60005b8381101561273c578161272688826126bc565b8452506020928301929190910190600101612713565b5050505092915050565b600082601f83011261275757600080fd5b81356127656126e682614330565b81815260209384019390925082018360005b8381101561273c578135860161278d8882612891565b8452506020928301929190910190600101612777565b600082601f8301126127b457600080fd5b81356127c26126e682614330565b81815260209384019390925082018360005b8381101561273c57813586016127ea8882612891565b84525060209283019291909101906001016127d4565b600082601f83011261281157600080fd5b813561281f6126e682614330565b9150818183526020840193506020810190508385602084028201111561284457600080fd5b60005b8381101561273c578161285a888261287b565b8452506020928301929190910190600101612847565b8051611d2f81614458565b8035611d2f81614461565b8051611d2f81614461565b600082601f8301126128a257600080fd5b81356128b06126e682614351565b915080825260208301602083018583830111156128cc57600080fd5b6128d78382846143f8565b50505092915050565b600082601f8301126128f157600080fd5b81516128ff6126e682614351565b9150808252602083016020830185838301111561291b57600080fd5b6128d7838284614404565b60008083601f84011261293857600080fd5b50813567ffffffffffffffff81111561295057600080fd5b60208301915083600182028301111561296857600080fd5b9250929050565b8035611d2f8161446a565b8051611d2f81614473565b60006020828403121561299757600080fd5b60006129a384846126bc565b949350505050565b600080600080600060a086880312156129c357600080fd5b60006129cf88886126bc565b95505060206129e0888289016126bc565b94505060406129f18882890161287b565b9350506060612a028882890161287b565b9250506080612a138882890161287b565b9150509295509295909350565b600080600080600060a08688031215612a3857600080fd5b853567ffffffffffffffff811115612a4f57600080fd5b612a5b888289016126c7565b955050602086013567ffffffffffffffff811115612a7857600080fd5b612a8488828901612800565b945050604086013567ffffffffffffffff811115612aa157600080fd5b612aad888289016127a3565b935050606086013567ffffffffffffffff811115612aca57600080fd5b612ad688828901612746565b925050608086013567ffffffffffffffff811115612af357600080fd5b612a1388828901612891565b600060208284031215612b1157600080fd5b60006129a38484612870565b600060208284031215612b2f57600080fd5b60006129a38484612886565b600060208284031215612b4d57600080fd5b815167ffffffffffffffff811115612b6457600080fd5b6129a3848285016128e0565b600060208284031215612b8257600080fd5b60006129a3848461287b565b60008060408385031215612ba157600080fd5b6000612bad858561287b565b9250506020612bbe858286016126bc565b9150509250929050565b60008060408385031215612bdb57600080fd5b6000612be7858561287b565b9250506020612bbe8582860161296f565b60008060008060608587031215612c0e57600080fd5b6000612c1a878761287b565b9450506020612c2b8782880161296f565b935050604085013567ffffffffffffffff811115612c4857600080fd5b612c5487828801612926565b95989497509550505050565b600080600080600060a08688031215612c7857600080fd5b6000612c84888861287b565b9550506020612c958882890161296f565b94505060406129f18882890161296f565b600060208284031215612cb857600080fd5b60006129a3848461297a565b6000612cd08383612cff565b505060200190565b60006121d08383612ea1565b6000612cd08383612e87565b612cf9816143d0565b82525050565b612cf981614398565b6000612d138261438b565b612d1d818561438f565b9350612d2883614379565b8060005b83811015612d56578151612d408882612cc4565b9750612d4b83614379565b925050600101612d2c565b509495945050505050565b6000612d6c8261438b565b612d76818561438f565b935083602082028501612d8885614379565b8060005b85811015612dc25784840389528151612da58582612cd8565b9450612db083614379565b60209a909a0199925050600101612d8c565b5091979650505050505050565b6000612dda8261438b565b612de4818561438f565b935083602082028501612df685614379565b8060005b85811015612dc25784840389528151612e138582612cd8565b9450612e1e83614379565b60209a909a0199925050600101612dfa565b6000612e3b8261438b565b612e45818561438f565b9350612e5083614379565b8060005b83811015612d56578151612e688882612ce4565b9750612e7383614379565b925050600101612e54565b612cf9816143a3565b612cf981611fe3565b612cf9612e9c82611fe3565b611fe3565b6000612eac8261438b565b612eb6818561438f565b9350612ec6818560208601614404565b612ecf81614430565b9093019392505050565b600081546001811660008114612ef65760018114612f1c57612f5b565b607f6002830416612f07818761438f565b60ff1984168152955050602085019250612f5b565b60028204612f2a818761438f565b9550612f358561437f565b60005b82811015612f5457815488820152600190910190602001612f38565b8701945050505b505092915050565b612cf9816143d7565b612cf9816143e2565b6000612f81838561438f565b9350612f8e8385846143f8565b612ecf83614430565b6000612fa460328361438f565b7f476f7665726e6f72427261766f3a3a63617374566f7465496e7465726e616c3a81527120696e76616c696420766f7465207479706560701b602082015260400192915050565b6000612ff8602883610ff0565b7f42616c6c6f742875696e743235362070726f706f73616c49642c75696e743820815267737570706f72742960c01b602082015260280192915050565b600061304260338361438f565b7f476f7665726e6f72427261766f3a3a696e697469616c697a653a2063616e206f8152726e6c7920696e697469616c697a65206f6e636560681b602082015260400192915050565b6000613097602a8361438f565b7f476f7665726e6f72427261766f3a5f73657450656e64696e6741646d696e3a2081526961646d696e206f6e6c7960b01b602082015260400192915050565b60006130e360558361438f565b7f476f7665726e6f72427261766f3a3a71756575654f72526576657274496e746581527f726e616c3a206964656e746963616c2070726f706f73616c20616374696f6e20602082015274616c7265616479207175657565642061742065746160581b604082015260600192915050565b6000613160602b8361438f565b7f476f7665726e6f72427261766f3a3a5f736574566f74696e67506572696f643a81526a2061646d696e206f6e6c7960a81b602082015260400192915050565b60006131ad60338361438f565b60008051602061447d83398151915281527269642074696d656c6f636b206164647265737360681b602082015260400192915050565b60006131f0602a8361438f565b7f476f7665726e6f72427261766f3a3a5f736574566f74696e6744656c61793a2081526961646d696e206f6e6c7960b01b602082015260400192915050565b600061323c60318361438f565b7f476f7665726e6f72427261766f3a3a70726f706f73653a20476f7665726e6f7281527020427261766f206e6f742061637469766560781b602082015260400192915050565b600061328f600283610ff0565b61190160f01b815260020192915050565b60006132ad60368361438f565b7f476f7665726e6f72427261766f3a3a5f736574566f74696e67506572696f643a815275081a5b9d985b1a59081d9bdd1a5b99c81c195c9a5bd960521b602082015260400192915050565b600061330560318361438f565b7f476f7665726e6f72427261766f3a3a63617374566f7465496e7465726e616c3a815270081d9bdd1a5b99c81a5cc818db1bdcd959607a1b602082015260400192915050565b600061335860348361438f565b7f476f7665726e6f72427261766f3a3a63617374566f7465496e7465726e616c3a815273081d9bdd195c88185b1c9958591e481d9bdd195960621b602082015260400192915050565b60006133ae60348361438f565b7f476f7665726e6f72427261766f3a3a5f736574566f74696e6744656c61793a20815273696e76616c696420766f74696e672064656c617960601b602082015260400192915050565b600061340460358361438f565b60008051602061447d8339815191528152741a59081c1c9bdc1bdcd85b081d1a1c995cda1bdb19605a1b602082015260400192915050565b600061344960458361438f565b7f476f7665726e6f72427261766f3a3a657865637574653a2070726f706f73616c81527f2063616e206f6e6c7920626520657865637574656420696620697420697320716020820152641d595d595960da1b604082015260600192915050565b60006134b6602f8361438f565b7f476f7665726e6f72427261766f3a3a63617374566f746542795369673a20696e81526e76616c6964207369676e617475726560881b602082015260400192915050565b6000613507602f8361438f565b60008051602061447d83398151915281526e696420766f74696e672064656c617960881b602082015260400192915050565b600061354660448361438f565b7f476f7665726e6f72427261766f3a3a70726f706f73653a2070726f706f73616c81527f2066756e6374696f6e20696e666f726d6174696f6e206172697479206d69736d6020820152630c2e8c6d60e31b604082015260600192915050565b60006135b260258361438f565b7f476f7665726e6f72427261766f3a3a696e697469616c697a653a2061646d696e815264206f6e6c7960d81b602082015260400192915050565b60006135f960408361438f565b7f476f7665726e6f72427261766f3a3a5f73657450726f706f73616c546872657381527f686f6c643a20696e76616c69642070726f706f73616c207468726573686f6c64602082015260400192915050565b600061365860448361438f565b7f476f7665726e6f72427261766f3a3a71756575653a2070726f706f73616c206381527f616e206f6e6c79206265207175657565642069662069742069732073756363656020820152631959195960e21b604082015260600192915050565b60006136c460118361438f565b706164646974696f6e206f766572666c6f7760781b815260200192915050565b60006136f1604383610ff0565b7f454950373132446f6d61696e28737472696e67206e616d652c75696e7432353681527f20636861696e49642c6164647265737320766572696679696e67436f6e74726160208201526263742960e81b604082015260430192915050565b600061375c60308361438f565b7f476f7665726e6f72427261766f3a3a5f696e6974696174653a2063616e206f6e81526f6c7920696e697469617465206f6e636560801b602082015260400192915050565b60006137ae602c8361438f565b7f476f7665726e6f72427261766f3a3a70726f706f73653a206d7573742070726f81526b7669646520616374696f6e7360a01b602082015260400192915050565b60006137fc602e8361438f565b7f476f7665726e6f72427261766f3a5f61636365707441646d696e3a2070656e6481526d696e672061646d696e206f6e6c7960901b602082015260400192915050565b600061384c602f8361438f565b60008051602061447d83398151915281526e696420636f6d70206164647265737360881b602082015260400192915050565b600061388b602f8361438f565b7f476f7665726e6f72427261766f3a3a63616e63656c3a2070726f706f7365722081526e18589bdd99481d1a1c995cda1bdb19608a1b602082015260400192915050565b60006138dc60288361438f565b7f476f7665726e6f72427261766f3a3a70726f706f73653a20746f6f206d616e7981526720616374696f6e7360c01b602082015260400192915050565b600061392660598361438f565b7f476f7665726e6f72427261766f3a3a70726f706f73653a206f6e65206c69766581527f2070726f706f73616c207065722070726f706f7365722c20666f756e6420616e60208201527f20616c72656164792070656e64696e672070726f706f73616c00000000000000604082015260600192915050565b60006139ab60588361438f565b7f476f7665726e6f72427261766f3a3a70726f706f73653a206f6e65206c69766581527f2070726f706f73616c207065722070726f706f7365722c20666f756e6420616e60208201527f20616c7265616479206163746976652070726f706f73616c0000000000000000604082015260600192915050565b6000611d2f60008361438f565b6000613a3d60248361438f565b7f476f7665726e6f72427261766f3a3a5f696e6974696174653a2061646d696e208152636f6e6c7960e01b602082015260400192915050565b6000613a83603f8361438f565b7f476f7665726e6f72427261766f3a3a70726f706f73653a2070726f706f73657281527f20766f7465732062656c6f772070726f706f73616c207468726573686f6c6400602082015260400192915050565b6000613ae260368361438f565b7f476f7665726e6f72427261766f3a3a63616e63656c3a2063616e6e6f742063618152751b98d95b08195e1958dd5d1959081c1c9bdc1bdcd85b60521b602082015260400192915050565b6000613b3a60308361438f565b7f476f7665726e6f72427261766f3a3a5f73657450726f706f73616c546872657381526f686f6c643a2061646d696e206f6e6c7960801b602082015260400192915050565b6000613b8c60298361438f565b7f476f7665726e6f72427261766f3a3a73746174653a20696e76616c69642070728152681bdc1bdcd85b081a5960ba1b602082015260400192915050565b6000613bd760308361438f565b60008051602061447d83398151915281526f1a59081d9bdd1a5b99c81c195c9a5bd960821b602082015260400192915050565b6000613c1760158361438f565b747375627472616374696f6e20756e646572666c6f7760581b815260200192915050565b80516060830190613c4c8482612e7e565b506020820151613c5f6020850182613c72565b5060408201516113b36040850182613c84565b612cf9816143be565b612cf9816143ed565b612cf9816143c4565b6000611d2f82612feb565b6000613ca382613282565b9150613caf8285612e90565b602082019150613cbf8284612e90565b5060200192915050565b6000611d2f826136e4565b60208101611d2f8284612cff565b60408101613cf08285612cf0565b6121d06020830184612e87565b60408101613d0b8285612cff565b6121d06020830184612cff565b60408101613cf08285612cff565b60a08101613d348288612cff565b613d416020830187612e87565b8181036040830152613d538186612ea1565b90508181036060830152613d678185612ea1565b9050613d766080830184612e87565b9695505050505050565b60a08101613d8e8288612cff565b613d9b6020830187612e87565b8181036040830152613dad8186612ed9565b90508181036060830152613d678185612ed9565b60808082528101613dd28187612d08565b90508181036020830152613de68186612e30565b90508181036040830152613dfa8185612dcf565b90508181036060830152613d768184612d61565b60208101611d2f8284612e87565b60808101613e2a8287612e87565b613e376020830186612e87565b613e446040830185612e87565b611a376060830184612cff565b60608101613e5f8286612e87565b613e6c6020830185612e87565b6129a36040830184613c72565b60808101613e878287612e87565b613e946020830186613c72565b613ea16040830185612e87565b611a376060830184612e87565b60208101611d2f8284612f63565b60208101611d2f8284612f6c565b602080825281016121d08184612ea1565b60208082528101611d2f81612f97565b60208082528101611d2f81613035565b60208082528101611d2f8161308a565b60208082528101611d2f816130d6565b60208082528101611d2f81613153565b60208082528101611d2f816131a0565b60208082528101611d2f816131e3565b60208082528101611d2f8161322f565b60208082528101611d2f816132a0565b60208082528101611d2f816132f8565b60208082528101611d2f8161334b565b60208082528101611d2f816133a1565b60208082528101611d2f816133f7565b60208082528101611d2f8161343c565b60208082528101611d2f816134a9565b60208082528101611d2f816134fa565b60208082528101611d2f81613539565b60208082528101611d2f816135a5565b60208082528101611d2f816135ec565b60208082528101611d2f8161364b565b60208082528101611d2f816136b7565b60208082528101611d2f8161374f565b60208082528101611d2f816137a1565b60208082528101611d2f816137ef565b60208082528101611d2f8161383f565b60208082528101611d2f8161387e565b60208082528101611d2f816138cf565b60208082528101611d2f81613919565b60208082528101611d2f8161399e565b60208082528101611d2f81613a30565b60208082528101611d2f81613a76565b60208082528101611d2f81613ad5565b60208082528101611d2f81613b2d565b60208082528101611d2f81613b7f565b60208082528101611d2f81613bca565b60208082528101611d2f81613c0a565b60608101611d2f8284613c3b565b6101208101614138828c612e87565b614145602083018b612cf0565b8181036040830152614157818a612d08565b9050818103606083015261416b8189612e30565b9050818103608083015261417f8188612dcf565b905081810360a08301526141938187612d61565b90506141a260c0830186612e87565b6141af60e0830185612e87565b8181036101008301526141c28184612ea1565b9b9a5050505050505050505050565b61016081016141e0828e612e87565b6141ed602083018d612cff565b6141fa604083018c612e87565b818103606083015261420c818b612ea1565b905061421b608083018a612e87565b61422860a0830189612e87565b61423560c0830188612e87565b61424260e0830187612e87565b614250610100830186612e87565b61425e610120830185612e7e565b61426c610140830184612e7e565b9c9b505050505050505050505050565b60408101613cf08285612e87565b608081016142988288612e87565b6142a56020830187613c72565b6142b26040830186613c7b565b81810360608301526142c5818486612f75565b979650505050505050565b608081016142de8286612e87565b6142eb6020830185613c72565b6142f86040830184613c7b565b8181036060830152611a3781613a23565b60405181810167ffffffffffffffff8111828210171561432857600080fd5b604052919050565b600067ffffffffffffffff82111561434757600080fd5b5060209081020190565b600067ffffffffffffffff82111561436857600080fd5b506020601f91909101601f19160190565b60200190565b60009081526020902090565b5190565b90815260200190565b6000611d2f826143b2565b151590565b80610ff08161443a565b6001600160a01b031690565b60ff1690565b6001600160601b031690565b6000611d2f825b6000611d2f82614398565b6000611d2f826143a8565b6000611d2f826143c4565b82818337506000910152565b60005b8381101561441f578181015183820152602001614407565b838111156113b35750506000910152565b601f01601f191690565b600881106126b957fe5b61444d81614398565b81146126b957600080fd5b61444d816143a3565b61444d81611fe3565b61444d816143be565b61444d816143c456fe476f7665726e6f72427261766f3a3a696e697469616c697a653a20696e76616ca365627a7a7231582069977556301c4405c946772e7f440b0c2ccc79cc042902c48665c74b76fb767f6c6578706572696d656e74616cf564736f6c63430005110040",
  "source": "pragma solidity ^0.5.16;\npragma experimental ABIEncoderV2;\n\nimport \"./GovernorBravoInterfaces.sol\";\n\ncontract GovernorBravoDelegate is GovernorBravoDelegateStorageV1, GovernorBravoEvents {\n\n    /// @notice The name of this contract\n    string public constant name = \"Compound Governor Bravo\";\n\n    /// @notice The minimum setable proposal threshold\n    uint public constant MIN_PROPOSAL_THRESHOLD = 50000e18; // 50,000 Comp\n\n    /// @notice The maximum setable proposal threshold\n    uint public constant MAX_PROPOSAL_THRESHOLD = 100000e18; //100,000 Comp\n\n    /// @notice The minimum setable voting period\n    uint public constant MIN_VOTING_PERIOD = 1; // seconds\n\n    /// @notice The max setable voting period\n    uint public constant MAX_VOTING_PERIOD = 1 * 24 * 60 * 60; // 1 day\n\n    /// @notice The min setable voting delay\n    uint public constant MIN_VOTING_DELAY = 1;\n\n    /// @notice The max setable voting delay (time before proposal goes votable)\n    uint public constant MAX_VOTING_DELAY = 1 * 24 * 60 * 60; // 1 day;\n\n    /// @notice The number of votes in support of a proposal required in order for a quorum to be reached and for a vote to succeed\n    uint public constant quorumVotes = 400000e18; // 400,000 = 4% of Comp\n\n    /// @notice The maximum number of actions that can be included in a proposal\n    uint public constant proposalMaxOperations = 10; // 10 actions\n\n    /// @notice The EIP-712 typehash for the contract's domain\n    bytes32 public constant DOMAIN_TYPEHASH = keccak256(\"EIP712Domain(string name,uint256 chainId,address verifyingContract)\");\n\n    /// @notice The EIP-712 typehash for the ballot struct used by the contract\n    bytes32 public constant BALLOT_TYPEHASH = keccak256(\"Ballot(uint256 proposalId,uint8 support)\");\n\n    /**\n      * @notice Used to initialize the contract during delegator contructor\n      * @param timelock_ The address of the Timelock\n      * @param comp_ The address of the COMP token\n      * @param votingPeriod_ The initial voting period\n      * @param votingDelay_ The initial voting delay\n      * @param proposalThreshold_ The initial proposal threshold\n      */\n    function initialize(address timelock_, address comp_, uint votingPeriod_, uint votingDelay_, uint proposalThreshold_) public {\n        require(address(timelock) == address(0), \"GovernorBravo::initialize: can only initialize once\");\n        require(msg.sender == admin, \"GovernorBravo::initialize: admin only\");\n        require(timelock_ != address(0), \"GovernorBravo::initialize: invalid timelock address\");\n        require(comp_ != address(0), \"GovernorBravo::initialize: invalid comp address\");\n        require(votingPeriod_ >= MIN_VOTING_PERIOD && votingPeriod_ <= MAX_VOTING_PERIOD, \"GovernorBravo::initialize: invalid voting period\");\n        require(votingDelay_ >= MIN_VOTING_DELAY && votingDelay_ <= MAX_VOTING_DELAY, \"GovernorBravo::initialize: invalid voting delay\");\n        require(proposalThreshold_ >= MIN_PROPOSAL_THRESHOLD && proposalThreshold_ <= MAX_PROPOSAL_THRESHOLD, \"GovernorBravo::initialize: invalid proposal threshold\");\n\n        timelock = TimelockInterface(timelock_);\n        comp = CompInterface(comp_);\n        votingPeriod = votingPeriod_;\n        votingDelay = votingDelay_;\n        proposalThreshold = proposalThreshold_;\n    }\n\n    /**\n      * @notice Function used to propose a new proposal. Sender must have delegates above the proposal threshold\n      * @param targets Target addresses for proposal calls\n      * @param values Eth values for proposal calls\n      * @param signatures Function signatures for proposal calls\n      * @param calldatas Calldatas for proposal calls\n      * @param description String description of the proposal\n      * @return Proposal id of new proposal\n      */\n    function propose(address[] memory targets, uint[] memory values, string[] memory signatures, bytes[] memory calldatas, string memory description) public returns (uint) {\n        // Reject proposals before initiating as Governor\n        require(initialProposalId != 0, \"GovernorBravo::propose: Governor Bravo not active\");\n        require(comp.getPriorVotes(msg.sender, sub256(block.number, 1)) > proposalThreshold, \"GovernorBravo::propose: proposer votes below proposal threshold\");\n        require(targets.length == values.length && targets.length == signatures.length && targets.length == calldatas.length, \"GovernorBravo::propose: proposal function information arity mismatch\");\n        require(targets.length != 0, \"GovernorBravo::propose: must provide actions\");\n        require(targets.length <= proposalMaxOperations, \"GovernorBravo::propose: too many actions\");\n\n        uint latestProposalId = latestProposalIds[msg.sender];\n        if (latestProposalId != 0) {\n          ProposalState proposersLatestProposalState = state(latestProposalId);\n          require(proposersLatestProposalState != ProposalState.Active, \"GovernorBravo::propose: one live proposal per proposer, found an already active proposal\");\n          require(proposersLatestProposalState != ProposalState.Pending, \"GovernorBravo::propose: one live proposal per proposer, found an already pending proposal\");\n        }\n\n        uint startBlock = add256(block.number, votingDelay);\n        uint endBlock = add256(startBlock, votingPeriod);\n\n        proposalCount++;\n\n        Proposal memory newProposal = Proposal({\n            id: proposalCount,\n            proposer: msg.sender,\n            eta: 0,\n            targets: targets,\n            values: values,\n            signatures: signatures,\n            calldatas: calldatas,\n            description: description,\n            startBlock: startBlock,\n            endBlock: endBlock,\n            forVotes: 0,\n            againstVotes: 0,\n            abstainVotes: 0,\n            canceled: false,\n            executed: false\n        });\n\n        proposals[newProposal.id] = newProposal;\n        latestProposalIds[newProposal.proposer] = newProposal.id;\n\n        emit ProposalCreated(newProposal.id, msg.sender, targets, values, signatures, calldatas, startBlock, endBlock, description);\n        return newProposal.id;\n    }\n\n    /**\n      * @notice Queues a proposal of state succeeded\n      * @param proposalId The id of the proposal to queue\n      */\n    function queue(uint proposalId) external {\n        require(state(proposalId) == ProposalState.Succeeded, \"GovernorBravo::queue: proposal can only be queued if it is succeeded\");\n        Proposal storage proposal = proposals[proposalId];\n        uint eta = add256(block.timestamp, timelock.delay());\n        for (uint i = 0; i < proposal.targets.length; i++) {\n            queueOrRevertInternal(proposal.targets[i], proposal.values[i], proposal.signatures[i], proposal.calldatas[i], eta);\n        }\n        proposal.eta = eta;\n        emit ProposalQueued(proposalId, eta);\n    }\n\n    function queueOrRevertInternal(address target, uint value, string memory signature, bytes memory data, uint eta) internal {\n        require(!timelock.queuedTransactions(keccak256(abi.encode(target, value, signature, data, eta))), \"GovernorBravo::queueOrRevertInternal: identical proposal action already queued at eta\");\n        timelock.queueTransaction(target, value, signature, data, eta);\n    }\n\n    /**\n      * @notice Executes a queued proposal if eta has passed\n      * @param proposalId The id of the proposal to execute\n      */\n    function execute(uint proposalId) external payable {\n        require(state(proposalId) == ProposalState.Queued, \"GovernorBravo::execute: proposal can only be executed if it is queued\");\n        Proposal storage proposal = proposals[proposalId];\n        proposal.executed = true;\n        for (uint i = 0; i < proposal.targets.length; i++) {\n            timelock.executeTransaction.value(proposal.values[i])(proposal.targets[i], proposal.values[i], proposal.signatures[i], proposal.calldatas[i], proposal.eta);\n        }\n        emit ProposalExecuted(proposalId);\n    }\n\n    /**\n      * @notice Cancels a proposal only if sender is the proposer, or proposer delegates dropped below proposal threshold\n      * @param proposalId The id of the proposal to cancel\n      */\n    function cancel(uint proposalId) external {\n        require(state(proposalId) != ProposalState.Executed, \"GovernorBravo::cancel: cannot cancel executed proposal\");\n\n        Proposal storage proposal = proposals[proposalId];\n        require(msg.sender == proposal.proposer || comp.getPriorVotes(proposal.proposer, sub256(block.number, 1)) < proposalThreshold, \"GovernorBravo::cancel: proposer above threshold\");\n\n        proposal.canceled = true;\n        for (uint i = 0; i < proposal.targets.length; i++) {\n            timelock.cancelTransaction(proposal.targets[i], proposal.values[i], proposal.signatures[i], proposal.calldatas[i], proposal.eta);\n        }\n\n        emit ProposalCanceled(proposalId);\n    }\n\n    /**\n      * @notice Gets actions of a proposal\n      * @param proposalId the id of the proposal\n      * @return Targets, values, signatures, and calldatas of the proposal actions\n      */\n    function getActions(uint proposalId) external view returns (address[] memory targets, uint[] memory values, string[] memory signatures, bytes[] memory calldatas) {\n        Proposal storage p = proposals[proposalId];\n        return (p.targets, p.values, p.signatures, p.calldatas);\n    }\n\n    /**\n      * @notice Gets the receipt for a voter on a given proposal\n      * @param proposalId the id of proposal\n      * @param voter The address of the voter\n      * @return The voting receipt\n      */\n    function getReceipt(uint proposalId, address voter) external view returns (Receipt memory) {\n        return proposals[proposalId].receipts[voter];\n    }\n\n    /**\n      * @notice Gets the state of a proposal\n      * @param proposalId The id of the proposal\n      * @return Proposal state\n      */\n    function state(uint proposalId) public view returns (ProposalState) {\n        require(proposalCount >= proposalId && proposalId > initialProposalId, \"GovernorBravo::state: invalid proposal id\");\n        Proposal storage proposal = proposals[proposalId];\n        if (proposal.canceled) {\n            return ProposalState.Canceled;\n        } else if (block.number <= proposal.startBlock) {\n            return ProposalState.Pending;\n        } else if (block.number <= proposal.endBlock) {\n            return ProposalState.Active;\n        } else if (proposal.forVotes <= proposal.againstVotes || proposal.forVotes < quorumVotes) {\n            return ProposalState.Defeated;\n        } else if (proposal.eta == 0) {\n            return ProposalState.Succeeded;\n        } else if (proposal.executed) {\n            return ProposalState.Executed;\n        } else if (block.timestamp >= add256(proposal.eta, timelock.GRACE_PERIOD())) {\n            return ProposalState.Expired;\n        } else {\n            return ProposalState.Queued;\n        }\n    }\n\n    /**\n      * @notice Cast a vote for a proposal\n      * @param proposalId The id of the proposal to vote on\n      * @param support The support value for the vote. 0=against, 1=for, 2=abstain\n      */\n    function castVote(uint proposalId, uint8 support) external {\n        emit VoteCast(msg.sender, proposalId, support, castVoteInternal(msg.sender, proposalId, support), \"\");\n    }\n\n    /**\n      * @notice Cast a vote for a proposal with a reason\n      * @param proposalId The id of the proposal to vote on\n      * @param support The support value for the vote. 0=against, 1=for, 2=abstain\n      * @param reason The reason given for the vote by the voter\n      */\n    function castVoteWithReason(uint proposalId, uint8 support, string calldata reason) external {\n        emit VoteCast(msg.sender, proposalId, support, castVoteInternal(msg.sender, proposalId, support), reason);\n    }\n\n    /**\n      * @notice Cast a vote for a proposal by signature\n      * @dev External function that accepts EIP-712 signatures for voting on proposals.\n      */\n    function castVoteBySig(uint proposalId, uint8 support, uint8 v, bytes32 r, bytes32 s) external {\n        bytes32 domainSeparator = keccak256(abi.encode(DOMAIN_TYPEHASH, keccak256(bytes(name)), getChainIdInternal(), address(this)));\n        bytes32 structHash = keccak256(abi.encode(BALLOT_TYPEHASH, proposalId, support));\n        bytes32 digest = keccak256(abi.encodePacked(\"\\x19\\x01\", domainSeparator, structHash));\n        address signatory = ecrecover(digest, v, r, s);\n        require(signatory != address(0), \"GovernorBravo::castVoteBySig: invalid signature\");\n        emit VoteCast(signatory, proposalId, support, castVoteInternal(signatory, proposalId, support), \"\");\n    }\n\n    /**\n      * @notice Internal function that caries out voting logic\n      * @param voter The voter that is casting their vote\n      * @param proposalId The id of the proposal to vote on\n      * @param support The support value for the vote. 0=against, 1=for, 2=abstain\n      * @return The number of votes cast\n      */\n    function castVoteInternal(address voter, uint proposalId, uint8 support) internal returns (uint96) {\n        require(state(proposalId) == ProposalState.Active, \"GovernorBravo::castVoteInternal: voting is closed\");\n        require(support <= 2, \"GovernorBravo::castVoteInternal: invalid vote type\");\n        Proposal storage proposal = proposals[proposalId];\n        Receipt storage receipt = proposal.receipts[voter];\n        require(receipt.hasVoted == false, \"GovernorBravo::castVoteInternal: voter already voted\");\n        uint96 votes = comp.getPriorVotes(voter, proposal.startBlock);\n\n        if (support == 0) {\n            proposal.againstVotes = add256(proposal.againstVotes, votes);\n        } else if (support == 1) {\n            proposal.forVotes = add256(proposal.forVotes, votes);\n        } else if (support == 2) {\n            proposal.abstainVotes = add256(proposal.abstainVotes, votes);\n        }\n\n        receipt.hasVoted = true;\n        receipt.support = support;\n        receipt.votes = votes;\n\n        return votes;\n    }\n\n    /**\n      * @notice Admin function for setting the voting delay\n      * @param newVotingDelay new voting delay, in blocks\n      */\n    function _setVotingDelay(uint newVotingDelay) external {\n        require(msg.sender == admin, \"GovernorBravo::_setVotingDelay: admin only\");\n        require(newVotingDelay >= MIN_VOTING_DELAY && newVotingDelay <= MAX_VOTING_DELAY, \"GovernorBravo::_setVotingDelay: invalid voting delay\");\n        uint oldVotingDelay = votingDelay;\n        votingDelay = newVotingDelay;\n\n        emit VotingDelaySet(oldVotingDelay,votingDelay);\n    }\n\n    /**\n      * @notice Admin function for setting the voting period\n      * @param newVotingPeriod new voting period, in blocks\n      */\n    function _setVotingPeriod(uint newVotingPeriod) external {\n        require(msg.sender == admin, \"GovernorBravo::_setVotingPeriod: admin only\");\n        require(newVotingPeriod >= MIN_VOTING_PERIOD && newVotingPeriod <= MAX_VOTING_PERIOD, \"GovernorBravo::_setVotingPeriod: invalid voting period\");\n        uint oldVotingPeriod = votingPeriod;\n        votingPeriod = newVotingPeriod;\n\n        emit VotingPeriodSet(oldVotingPeriod, votingPeriod);\n    }\n\n    /**\n      * @notice Admin function for setting the proposal threshold\n      * @dev newProposalThreshold must be greater than the hardcoded min\n      * @param newProposalThreshold new proposal threshold\n      */\n    function _setProposalThreshold(uint newProposalThreshold) external {\n        require(msg.sender == admin, \"GovernorBravo::_setProposalThreshold: admin only\");\n        require(newProposalThreshold >= MIN_PROPOSAL_THRESHOLD && newProposalThreshold <= MAX_PROPOSAL_THRESHOLD, \"GovernorBravo::_setProposalThreshold: invalid proposal threshold\");\n        uint oldProposalThreshold = proposalThreshold;\n        proposalThreshold = newProposalThreshold;\n\n        emit ProposalThresholdSet(oldProposalThreshold, proposalThreshold);\n    }\n\n    /**\n      * @notice Initiate the GovernorBravo contract\n      * @dev Admin only. Sets initial proposal id which initiates the contract, ensuring a continuous proposal id count\n      */\n    function _initiate() external {\n        require(msg.sender == admin, \"GovernorBravo::_initiate: admin only\");\n        require(initialProposalId == 0, \"GovernorBravo::_initiate: can only initiate once\");\n        proposalCount = 1;\n        initialProposalId = proposalCount;\n        timelock.acceptAdmin();\n    }\n\n    /**\n      * @notice Begins transfer of admin rights. The newPendingAdmin must call `_acceptAdmin` to finalize the transfer.\n      * @dev Admin function to begin change of admin. The newPendingAdmin must call `_acceptAdmin` to finalize the transfer.\n      * @param newPendingAdmin New pending admin.\n      */\n    function _setPendingAdmin(address newPendingAdmin) external {\n        // Check caller = admin\n        require(msg.sender == admin, \"GovernorBravo:_setPendingAdmin: admin only\");\n\n        // Save current value, if any, for inclusion in log\n        address oldPendingAdmin = pendingAdmin;\n\n        // Store pendingAdmin with value newPendingAdmin\n        pendingAdmin = newPendingAdmin;\n\n        // Emit NewPendingAdmin(oldPendingAdmin, newPendingAdmin)\n        emit NewPendingAdmin(oldPendingAdmin, newPendingAdmin);\n    }\n\n    /**\n      * @notice Accepts transfer of admin rights. msg.sender must be pendingAdmin\n      * @dev Admin function for pending admin to accept role and update admin\n      */\n    function _acceptAdmin() external {\n        // Check caller is pendingAdmin and pendingAdmin  address(0)\n        require(msg.sender == pendingAdmin && msg.sender != address(0), \"GovernorBravo:_acceptAdmin: pending admin only\");\n\n        // Save current values for inclusion in log\n        address oldAdmin = admin;\n        address oldPendingAdmin = pendingAdmin;\n\n        // Store admin with value pendingAdmin\n        admin = pendingAdmin;\n\n        // Clear the pending value\n        pendingAdmin = address(0);\n\n        emit NewAdmin(oldAdmin, admin);\n        emit NewPendingAdmin(oldPendingAdmin, pendingAdmin);\n    }\n\n    function add256(uint256 a, uint256 b) internal pure returns (uint) {\n        uint c = a + b;\n        require(c >= a, \"addition overflow\");\n        return c;\n    }\n\n    function sub256(uint256 a, uint256 b) internal pure returns (uint) {\n        require(b <= a, \"subtraction underflow\");\n        return a - b;\n    }\n\n    function getChainIdInternal() internal pure returns (uint) {\n        uint chainId;\n        assembly { chainId := chainid() }\n        return chainId;\n    }\n}",
  "sourcePath": "/Users/janliphardt/Documents/GitHub/optimism-v2/boba_community/governance/contracts/GovernorBravoDelegate.sol",
  "compiler": {
    "name": "solc",
    "version": "0.5.17+commit.d19bba13.Emscripten.clang"
  },
  "schemaVersion": "3.4.3",
  "updatedAt": "2021-10-12T19:34:05.767Z",
  "networkType": "ethereum",
  "devdoc": {
    "methods": {
      "_acceptAdmin()": {
        "details": "Admin function for pending admin to accept role and update admin"
      },
      "_initiate()": {
        "details": "Admin only. Sets initial proposal id which initiates the contract, ensuring a continuous proposal id count"
      },
      "_setPendingAdmin(address)": {
        "details": "Admin function to begin change of admin. The newPendingAdmin must call `_acceptAdmin` to finalize the transfer.",
        "params": {
          "newPendingAdmin": "New pending admin."
        }
      },
      "_setProposalThreshold(uint256)": {
        "details": "newProposalThreshold must be greater than the hardcoded min",
        "params": {
          "newProposalThreshold": "new proposal threshold"
        }
      },
      "_setVotingDelay(uint256)": {
        "params": {
          "newVotingDelay": "new voting delay, in blocks"
        }
      },
      "_setVotingPeriod(uint256)": {
        "params": {
          "newVotingPeriod": "new voting period, in blocks"
        }
      },
      "cancel(uint256)": {
        "params": {
          "proposalId": "The id of the proposal to cancel"
        }
      },
      "castVote(uint256,uint8)": {
        "params": {
          "proposalId": "The id of the proposal to vote on",
          "support": "The support value for the vote. 0=against, 1=for, 2=abstain"
        }
      },
      "castVoteBySig(uint256,uint8,uint8,bytes32,bytes32)": {
        "details": "External function that accepts EIP-712 signatures for voting on proposals."
      },
      "castVoteWithReason(uint256,uint8,string)": {
        "params": {
          "proposalId": "The id of the proposal to vote on",
          "reason": "The reason given for the vote by the voter",
          "support": "The support value for the vote. 0=against, 1=for, 2=abstain"
        }
      },
      "execute(uint256)": {
        "params": {
          "proposalId": "The id of the proposal to execute"
        }
      },
      "getActions(uint256)": {
        "params": {
          "proposalId": "the id of the proposal"
        },
        "return": "Targets, values, signatures, and calldatas of the proposal actions"
      },
      "getReceipt(uint256,address)": {
        "params": {
          "proposalId": "the id of proposal",
          "voter": "The address of the voter"
        },
        "return": "The voting receipt"
      },
      "initialize(address,address,uint256,uint256,uint256)": {
        "params": {
          "comp_": "The address of the COMP token",
          "proposalThreshold_": "The initial proposal threshold",
          "timelock_": "The address of the Timelock",
          "votingDelay_": "The initial voting delay",
          "votingPeriod_": "The initial voting period"
        }
      },
      "propose(address[],uint256[],string[],bytes[],string)": {
        "params": {
          "calldatas": "Calldatas for proposal calls",
          "description": "String description of the proposal",
          "signatures": "Function signatures for proposal calls",
          "targets": "Target addresses for proposal calls",
          "values": "Eth values for proposal calls"
        },
        "return": "Proposal id of new proposal"
      },
      "queue(uint256)": {
        "params": {
          "proposalId": "The id of the proposal to queue"
        }
      },
      "state(uint256)": {
        "params": {
          "proposalId": "The id of the proposal"
        },
        "return": "Proposal state"
      }
    }
  },
  "userdoc": {
    "methods": {
      "_acceptAdmin()": {
        "notice": "Accepts transfer of admin rights. msg.sender must be pendingAdmin"
      },
      "_initiate()": {
        "notice": "Initiate the GovernorBravo contract"
      },
      "_setPendingAdmin(address)": {
        "notice": "Begins transfer of admin rights. The newPendingAdmin must call `_acceptAdmin` to finalize the transfer."
      },
      "_setProposalThreshold(uint256)": {
        "notice": "Admin function for setting the proposal threshold"
      },
      "_setVotingDelay(uint256)": {
        "notice": "Admin function for setting the voting delay"
      },
      "_setVotingPeriod(uint256)": {
        "notice": "Admin function for setting the voting period"
      },
      "cancel(uint256)": {
        "notice": "Cancels a proposal only if sender is the proposer, or proposer delegates dropped below proposal threshold"
      },
      "castVote(uint256,uint8)": {
        "notice": "Cast a vote for a proposal"
      },
      "castVoteBySig(uint256,uint8,uint8,bytes32,bytes32)": {
        "notice": "Cast a vote for a proposal by signature"
      },
      "castVoteWithReason(uint256,uint8,string)": {
        "notice": "Cast a vote for a proposal with a reason"
      },
      "execute(uint256)": {
        "notice": "Executes a queued proposal if eta has passed"
      },
      "getActions(uint256)": {
        "notice": "Gets actions of a proposal"
      },
      "getReceipt(uint256,address)": {
        "notice": "Gets the receipt for a voter on a given proposal"
      },
      "initialize(address,address,uint256,uint256,uint256)": {
        "notice": "Used to initialize the contract during delegator contructor"
      },
      "propose(address[],uint256[],string[],bytes[],string)": {
        "notice": "Function used to propose a new proposal. Sender must have delegates above the proposal threshold"
      },
      "queue(uint256)": {
        "notice": "Queues a proposal of state succeeded"
      },
      "state(uint256)": {
        "notice": "Gets the state of a proposal"
      }
    }
  }
}