{
  "_format": "hh-sol-artifact-1",
  "contractName": "ERC721Genesis",
  "sourceName": "contracts/ERC721Genesis.sol",
  "abi": [
    {
      "inputs": [
        {
          "internalType": "string",
          "name": "name",
          "type": "string"
        },
        {
          "internalType": "string",
          "name": "symbol",
          "type": "string"
        },
        {
          "internalType": "uint256",
          "name": "tID_start",
          "type": "uint256"
        },
        {
          "internalType": "address",
          "name": "origin_cAddress",
          "type": "address"
        },
        {
          "internalType": "string",
          "name": "origin_id",
          "type": "string"
        },
        {
          "internalType": "string",
          "name": "origin_chain",
          "type": "string"
        }
      ],
      "stateMutability": "nonpayable",
      "type": "constructor"
    },
    {
      "anonymous": false,
      "inputs": [
        {
          "indexed": true,
          "internalType": "address",
          "name": "owner",
          "type": "address"
        },
        {
          "indexed": true,
          "internalType": "address",
          "name": "approved",
          "type": "address"
        },
        {
          "indexed": true,
          "internalType": "uint256",
          "name": "tokenId",
          "type": "uint256"
        }
      ],
      "name": "Approval",
      "type": "event"
    },
    {
      "anonymous": false,
      "inputs": [
        {
          "indexed": true,
          "internalType": "address",
          "name": "owner",
          "type": "address"
        },
        {
          "indexed": true,
          "internalType": "address",
          "name": "operator",
          "type": "address"
        },
        {
          "indexed": false,
          "internalType": "bool",
          "name": "approved",
          "type": "bool"
        }
      ],
      "name": "ApprovalForAll",
      "type": "event"
    },
    {
      "anonymous": false,
      "inputs": [
        {
          "indexed": true,
          "internalType": "address",
          "name": "previousOwner",
          "type": "address"
        },
        {
          "indexed": true,
          "internalType": "address",
          "name": "newOwner",
          "type": "address"
        }
      ],
      "name": "OwnershipTransferred",
      "type": "event"
    },
    {
      "anonymous": false,
      "inputs": [
        {
          "indexed": true,
          "internalType": "address",
          "name": "from",
          "type": "address"
        },
        {
          "indexed": true,
          "internalType": "address",
          "name": "to",
          "type": "address"
        },
        {
          "indexed": true,
          "internalType": "uint256",
          "name": "tokenId",
          "type": "uint256"
        }
      ],
      "name": "Transfer",
      "type": "event"
    },
    {
      "inputs": [
        {
          "internalType": "address",
          "name": "to",
          "type": "address"
        },
        {
          "internalType": "uint256",
          "name": "tokenId",
          "type": "uint256"
        }
      ],
      "name": "approve",
      "outputs": [],
      "stateMutability": "nonpayable",
      "type": "function"
    },
    {
      "inputs": [
        {
          "internalType": "address",
          "name": "owner",
          "type": "address"
        }
      ],
      "name": "balanceOf",
      "outputs": [
        {
          "internalType": "uint256",
          "name": "",
          "type": "uint256"
        }
      ],
      "stateMutability": "view",
      "type": "function"
    },
    {
      "inputs": [
        {
          "internalType": "uint256",
          "name": "tokenId",
          "type": "uint256"
        }
      ],
      "name": "burn",
      "outputs": [],
      "stateMutability": "nonpayable",
      "type": "function"
    },
    {
      "inputs": [
        {
          "internalType": "uint256",
          "name": "tokenId",
          "type": "uint256"
        }
      ],
      "name": "exists",
      "outputs": [
        {
          "internalType": "bool",
          "name": "",
          "type": "bool"
        }
      ],
      "stateMutability": "view",
      "type": "function"
    },
    {
      "inputs": [
        {
          "internalType": "uint256",
          "name": "tokenId",
          "type": "uint256"
        }
      ],
      "name": "getApproved",
      "outputs": [
        {
          "internalType": "address",
          "name": "",
          "type": "address"
        }
      ],
      "stateMutability": "view",
      "type": "function"
    },
    {
      "inputs": [],
      "name": "getGenesis",
      "outputs": [
        {
          "internalType": "address",
          "name": "",
          "type": "address"
        },
        {
          "internalType": "string",
          "name": "",
          "type": "string"
        },
        {
          "internalType": "string",
          "name": "",
          "type": "string"
        }
      ],
      "stateMutability": "view",
      "type": "function"
    },
    {
      "inputs": [],
      "name": "getLastTID",
      "outputs": [
        {
          "internalType": "uint256",
          "name": "",
          "type": "uint256"
        }
      ],
      "stateMutability": "view",
      "type": "function"
    },
    {
      "inputs": [
        {
          "internalType": "address",
          "name": "owner",
          "type": "address"
        },
        {
          "internalType": "address",
          "name": "operator",
          "type": "address"
        }
      ],
      "name": "isApprovedForAll",
      "outputs": [
        {
          "internalType": "bool",
          "name": "",
          "type": "bool"
        }
      ],
      "stateMutability": "view",
      "type": "function"
    },
    {
      "inputs": [
        {
          "internalType": "address",
          "name": "recipient",
          "type": "address"
        },
        {
          "internalType": "string",
          "name": "tokenURIArg",
          "type": "string"
        }
      ],
      "name": "mintNFT",
      "outputs": [
        {
          "internalType": "uint256",
          "name": "",
          "type": "uint256"
        }
      ],
      "stateMutability": "nonpayable",
      "type": "function"
    },
    {
      "inputs": [],
      "name": "name",
      "outputs": [
        {
          "internalType": "string",
          "name": "",
          "type": "string"
        }
      ],
      "stateMutability": "view",
      "type": "function"
    },
    {
      "inputs": [],
      "name": "owner",
      "outputs": [
        {
          "internalType": "address",
          "name": "",
          "type": "address"
        }
      ],
      "stateMutability": "view",
      "type": "function"
    },
    {
      "inputs": [
        {
          "internalType": "uint256",
          "name": "tokenId",
          "type": "uint256"
        }
      ],
      "name": "ownerOf",
      "outputs": [
        {
          "internalType": "address",
          "name": "",
          "type": "address"
        }
      ],
      "stateMutability": "view",
      "type": "function"
    },
    {
      "inputs": [],
      "name": "renounceOwnership",
      "outputs": [],
      "stateMutability": "nonpayable",
      "type": "function"
    },
    {
      "inputs": [
        {
          "internalType": "address",
          "name": "to",
          "type": "address"
        },
        {
          "internalType": "uint256",
          "name": "tokenId",
          "type": "uint256"
        },
        {
          "internalType": "bytes",
          "name": "_data",
          "type": "bytes"
        }
      ],
      "name": "safeMint",
      "outputs": [],
      "stateMutability": "nonpayable",
      "type": "function"
    },
    {
      "inputs": [
        {
          "internalType": "address",
          "name": "from",
          "type": "address"
        },
        {
          "internalType": "address",
          "name": "to",
          "type": "address"
        },
        {
          "internalType": "uint256",
          "name": "tokenId",
          "type": "uint256"
        }
      ],
      "name": "safeTransferFrom",
      "outputs": [],
      "stateMutability": "nonpayable",
      "type": "function"
    },
    {
      "inputs": [
        {
          "internalType": "address",
          "name": "from",
          "type": "address"
        },
        {
          "internalType": "address",
          "name": "to",
          "type": "address"
        },
        {
          "internalType": "uint256",
          "name": "tokenId",
          "type": "uint256"
        },
        {
          "internalType": "bytes",
          "name": "_data",
          "type": "bytes"
        }
      ],
      "name": "safeTransferFrom",
      "outputs": [],
      "stateMutability": "nonpayable",
      "type": "function"
    },
    {
      "inputs": [
        {
          "internalType": "address",
          "name": "operator",
          "type": "address"
        },
        {
          "internalType": "bool",
          "name": "approved",
          "type": "bool"
        }
      ],
      "name": "setApprovalForAll",
      "outputs": [],
      "stateMutability": "nonpayable",
      "type": "function"
    },
    {
      "inputs": [
        {
          "internalType": "bytes4",
          "name": "interfaceId",
          "type": "bytes4"
        }
      ],
      "name": "supportsInterface",
      "outputs": [
        {
          "internalType": "bool",
          "name": "",
          "type": "bool"
        }
      ],
      "stateMutability": "view",
      "type": "function"
    },
    {
      "inputs": [],
      "name": "symbol",
      "outputs": [
        {
          "internalType": "string",
          "name": "",
          "type": "string"
        }
      ],
      "stateMutability": "view",
      "type": "function"
    },
    {
      "inputs": [
        {
          "internalType": "uint256",
          "name": "index",
          "type": "uint256"
        }
      ],
      "name": "tokenByIndex",
      "outputs": [
        {
          "internalType": "uint256",
          "name": "",
          "type": "uint256"
        }
      ],
      "stateMutability": "view",
      "type": "function"
    },
    {
      "inputs": [
        {
          "internalType": "address",
          "name": "owner",
          "type": "address"
        },
        {
          "internalType": "uint256",
          "name": "index",
          "type": "uint256"
        }
      ],
      "name": "tokenOfOwnerByIndex",
      "outputs": [
        {
          "internalType": "uint256",
          "name": "",
          "type": "uint256"
        }
      ],
      "stateMutability": "view",
      "type": "function"
    },
    {
      "inputs": [
        {
          "internalType": "uint256",
          "name": "tokenId",
          "type": "uint256"
        }
      ],
      "name": "tokenURI",
      "outputs": [
        {
          "internalType": "string",
          "name": "",
          "type": "string"
        }
      ],
      "stateMutability": "view",
      "type": "function"
    },
    {
      "inputs": [],
      "name": "totalSupply",
      "outputs": [
        {
          "internalType": "uint256",
          "name": "",
          "type": "uint256"
        }
      ],
      "stateMutability": "view",
      "type": "function"
    },
    {
      "inputs": [
        {
          "internalType": "address",
          "name": "from",
          "type": "address"
        },
        {
          "internalType": "address",
          "name": "to",
          "type": "address"
        },
        {
          "internalType": "uint256",
          "name": "tokenId",
          "type": "uint256"
        }
      ],
      "name": "transferFrom",
      "outputs": [],
      "stateMutability": "nonpayable",
      "type": "function"
    },
    {
      "inputs": [
        {
          "internalType": "address",
          "name": "newOwner",
          "type": "address"
        }
      ],
      "name": "transferOwnership",
      "outputs": [],
      "stateMutability": "nonpayable",
      "type": "function"
    }
  ],
  "bytecode": "0x60806040523480156200001157600080fd5b5060405162002b1838038062002b188339810160408190526200003491620002d2565b85856200004133620000f2565b81516200005690600190602085019062000142565b5080516200006c90600290602084019062000142565b505050600c849055604080516060810182526001600160a01b0385168082526020808301869052928201849052600d80546001600160a01b0319169091178155845191929091620000c491600e919087019062000142565b5060408201518051620000e291600284019160209091019062000142565b50905050505050505050620003e3565b600080546001600160a01b038381166001600160a01b0319831681178455604051919092169283917f8be0079c531659141344cd1fd0a4f28419497f9722a3daafe3b4186f6b6457e09190a35050565b8280546200015090620003a6565b90600052602060002090601f016020900481019282620001745760008555620001bf565b82601f106200018f57805160ff1916838001178555620001bf565b82800160010185558215620001bf579182015b82811115620001bf578251825591602001919060010190620001a2565b50620001cd929150620001d1565b5090565b5b80821115620001cd5760008155600101620001d2565b634e487b7160e01b600052604160045260246000fd5b600082601f8301126200021057600080fd5b81516001600160401b03808211156200022d576200022d620001e8565b604051601f8301601f19908116603f01168101908282118183101715620002585762000258620001e8565b816040528381526020925086838588010111156200027557600080fd5b600091505b838210156200029957858201830151818301840152908201906200027a565b83821115620002ab5760008385830101525b9695505050505050565b80516001600160a01b0381168114620002cd57600080fd5b919050565b60008060008060008060c08789031215620002ec57600080fd5b86516001600160401b03808211156200030457600080fd5b620003128a838b01620001fe565b975060208901519150808211156200032957600080fd5b620003378a838b01620001fe565b9650604089015195506200034e60608a01620002b5565b945060808901519150808211156200036557600080fd5b620003738a838b01620001fe565b935060a08901519150808211156200038a57600080fd5b506200039989828a01620001fe565b9150509295509295509295565b600181811c90821680620003bb57607f821691505b60208210811415620003dd57634e487b7160e01b600052602260045260246000fd5b50919050565b61272580620003f36000396000f3fe608060405234801561001057600080fd5b50600436106101a35760003560e01c80636352211e116100ee578063a22cb46511610097578063dd690c9311610071578063dd690c9314610353578063e985e9c51461035b578063eacabe1414610397578063f2fde38b146103aa57600080fd5b8063a22cb4651461031a578063b88d4fde1461032d578063c87b56dd1461034057600080fd5b80638832e6e3116100c85780638832e6e3146102ee5780638da5cb5b1461030157806395d89b411461031257600080fd5b80636352211e146102c057806370a08231146102d3578063715018a6146102e657600080fd5b806323b872dd1161015057806342966c681161012a57806342966c68146102875780634f558e791461029a5780634f6ccce7146102ad57600080fd5b806323b872dd1461024e5780632f745c591461026157806342842e0e1461027457600080fd5b8063095ea7b311610181578063095ea7b31461021057806318160ddd146102255780631a43bcb51461023757600080fd5b806301ffc9a7146101a857806306fdde03146101d0578063081812fc146101e5575b600080fd5b6101bb6101b63660046120f3565b6103bd565b60405190151581526020015b60405180910390f35b6101d86103ce565b6040516101c79190612186565b6101f86101f3366004612199565b610460565b6040516001600160a01b0390911681526020016101c7565b61022361021e3660046121ce565b61050b565b005b6009545b6040519081526020016101c7565b61023f61063d565b6040516101c7939291906121f8565b61022361025c366004612236565b61077d565b61022961026f3660046121ce565b610805565b610223610282366004612236565b6108ad565b610223610295366004612199565b6108c8565b6101bb6102a8366004612199565b610929565b6102296102bb366004612199565b61094a565b6101f86102ce366004612199565b6109ee565b6102296102e1366004612272565b610a79565b610223610b13565b6102236102fc366004612370565b610b79565b6000546001600160a01b03166101f8565b6101d8610bde565b6102236103283660046123c7565b610bed565b61022361033b366004612403565b610cd0565b6101d861034e366004612199565b610d5e565b600c54610229565b6101bb61036936600461246b565b6001600160a01b03918216600090815260066020908152604080832093909416825291909152205460ff1690565b6102296103a536600461249e565b610d69565b6102236103b8366004612272565b610dfe565b60006103c882610edd565b50919050565b6060600180546103dd90612500565b80601f016020809104026020016040519081016040528092919081815260200182805461040990612500565b80156104565780601f1061042b57610100808354040283529160200191610456565b820191906000526020600020905b81548152906001019060200180831161043957829003601f168201915b5050505050905090565b6000818152600360205260408120546001600160a01b03166104ef5760405162461bcd60e51b815260206004820152602c60248201527f4552433732313a20617070726f76656420717565727920666f72206e6f6e657860448201527f697374656e7420746f6b656e000000000000000000000000000000000000000060648201526084015b60405180910390fd5b506000908152600560205260409020546001600160a01b031690565b6000610516826109ee565b9050806001600160a01b0316836001600160a01b031614156105a05760405162461bcd60e51b815260206004820152602160248201527f4552433732313a20617070726f76616c20746f2063757272656e74206f776e6560448201527f720000000000000000000000000000000000000000000000000000000000000060648201526084016104e6565b336001600160a01b03821614806105bc57506105bc8133610369565b61062e5760405162461bcd60e51b815260206004820152603860248201527f4552433732313a20617070726f76652063616c6c6572206973206e6f74206f7760448201527f6e6572206e6f7220617070726f76656420666f7220616c6c000000000000000060648201526084016104e6565b6106388383610f33565b505050565b600d54600e805460009260609283926001600160a01b0390921691600f90829061066690612500565b80601f016020809104026020016040519081016040528092919081815260200182805461069290612500565b80156106df5780601f106106b4576101008083540402835291602001916106df565b820191906000526020600020905b8154815290600101906020018083116106c257829003601f168201915b505050505091508080546106f290612500565b80601f016020809104026020016040519081016040528092919081815260200182805461071e90612500565b801561076b5780601f106107405761010080835404028352916020019161076b565b820191906000526020600020905b81548152906001019060200180831161074e57829003601f168201915b50505050509050925092509250909192565b610788335b82610fb9565b6107fa5760405162461bcd60e51b815260206004820152603160248201527f4552433732313a207472616e736665722063616c6c6572206973206e6f74206f60448201527f776e6572206e6f7220617070726f76656400000000000000000000000000000060648201526084016104e6565b6106388383836110c1565b600061081083610a79565b82106108845760405162461bcd60e51b815260206004820152602b60248201527f455243373231456e756d657261626c653a206f776e657220696e646578206f7560448201527f74206f6620626f756e647300000000000000000000000000000000000000000060648201526084016104e6565b506001600160a01b03919091166000908152600760209081526040808320938352929052205490565b61063883838360405180602001604052806000815250610cd0565b6108d133610782565b61091d5760405162461bcd60e51b815260206004820181905260248201527f43616c6c6572206973206e6f74206f776e6572206e6f7220617070726f76656460448201526064016104e6565b610926816112b1565b50565b6000818152600360205260408120546001600160a01b031615155b92915050565b600061095560095490565b82106109c95760405162461bcd60e51b815260206004820152602c60248201527f455243373231456e756d657261626c653a20676c6f62616c20696e646578206f60448201527f7574206f6620626f756e6473000000000000000000000000000000000000000060648201526084016104e6565b600982815481106109dc576109dc61254e565b90600052602060002001549050919050565b6000818152600360205260408120546001600160a01b0316806109445760405162461bcd60e51b815260206004820152602960248201527f4552433732313a206f776e657220717565727920666f72206e6f6e657869737460448201527f656e7420746f6b656e000000000000000000000000000000000000000000000060648201526084016104e6565b60006001600160a01b038216610af75760405162461bcd60e51b815260206004820152602a60248201527f4552433732313a2062616c616e636520717565727920666f7220746865207a6560448201527f726f20616464726573730000000000000000000000000000000000000000000060648201526084016104e6565b506001600160a01b031660009081526004602052604090205490565b6000546001600160a01b03163314610b6d5760405162461bcd60e51b815260206004820181905260248201527f4f776e61626c653a2063616c6c6572206973206e6f7420746865206f776e657260448201526064016104e6565b610b7760006112ba565b565b6000546001600160a01b03163314610bd35760405162461bcd60e51b815260206004820181905260248201527f4f776e61626c653a2063616c6c6572206973206e6f7420746865206f776e657260448201526064016104e6565b610638838383611322565b6060600280546103dd90612500565b6001600160a01b038216331415610c465760405162461bcd60e51b815260206004820152601960248201527f4552433732313a20617070726f766520746f2063616c6c65720000000000000060448201526064016104e6565b3360008181526006602090815260408083206001600160a01b0387168085529083529281902080547fffffffffffffffffffffffffffffffffffffffffffffffffffffffffffffff001686151590811790915590519081529192917f17307eab39ab6107e8899845ad3d59bd9653f200f220920489ca2b5937696c31910160405180910390a35050565b610cda3383610fb9565b610d4c5760405162461bcd60e51b815260206004820152603160248201527f4552433732313a207472616e736665722063616c6c6572206973206e6f74206f60448201527f776e6572206e6f7220617070726f76656400000000000000000000000000000060648201526084016104e6565b610d58848484846113ab565b50505050565b606061094482611434565b600080546001600160a01b03163314610dc45760405162461bcd60e51b815260206004820181905260248201527f4f776e61626c653a2063616c6c6572206973206e6f7420746865206f776e657260448201526064016104e6565b610dd083600c546115bf565b610ddc600c5483611725565b6001600c6000828254610def91906125ac565b9091555050600c549392505050565b6000546001600160a01b03163314610e585760405162461bcd60e51b815260206004820181905260248201527f4f776e61626c653a2063616c6c6572206973206e6f7420746865206f776e657260448201526064016104e6565b6001600160a01b038116610ed45760405162461bcd60e51b815260206004820152602660248201527f4f776e61626c653a206e6577206f776e657220697320746865207a65726f206160448201527f646472657373000000000000000000000000000000000000000000000000000060648201526084016104e6565b610926816112ba565b60007fffffffff0000000000000000000000000000000000000000000000000000000082167f780e9d630000000000000000000000000000000000000000000000000000000014806109445750610944826117ce565b600081815260056020526040902080547fffffffffffffffffffffffff0000000000000000000000000000000000000000166001600160a01b0384169081179091558190610f80826109ee565b6001600160a01b03167f8c5be1e5ebec7d5bd14f71427d1e84f3dd0314c0f7b2291e5b200ac8c7c3b92560405160405180910390a45050565b6000818152600360205260408120546001600160a01b03166110435760405162461bcd60e51b815260206004820152602c60248201527f4552433732313a206f70657261746f7220717565727920666f72206e6f6e657860448201527f697374656e7420746f6b656e000000000000000000000000000000000000000060648201526084016104e6565b600061104e836109ee565b9050806001600160a01b0316846001600160a01b031614806110895750836001600160a01b031661107e84610460565b6001600160a01b0316145b806110b957506001600160a01b0380821660009081526006602090815260408083209388168352929052205460ff165b949350505050565b826001600160a01b03166110d4826109ee565b6001600160a01b0316146111505760405162461bcd60e51b815260206004820152602960248201527f4552433732313a207472616e73666572206f6620746f6b656e2074686174206960448201527f73206e6f74206f776e000000000000000000000000000000000000000000000060648201526084016104e6565b6001600160a01b0382166111cb5760405162461bcd60e51b8152602060048201526024808201527f4552433732313a207472616e7366657220746f20746865207a65726f2061646460448201527f726573730000000000000000000000000000000000000000000000000000000060648201526084016104e6565b6111d68383836118b1565b6111e1600082610f33565b6001600160a01b038316600090815260046020526040812080546001929061120a9084906125c4565b90915550506001600160a01b03821660009081526004602052604081208054600192906112389084906125ac565b909155505060008181526003602052604080822080547fffffffffffffffffffffffff0000000000000000000000000000000000000000166001600160a01b0386811691821790925591518493918716917fddf252ad1be2c89b69c2b068fc378daa952ba7f163c4a11628f55a4df523b3ef91a4505050565b610926816118bc565b600080546001600160a01b038381167fffffffffffffffffffffffff0000000000000000000000000000000000000000831681178455604051919092169283917f8be0079c531659141344cd1fd0a4f28419497f9722a3daafe3b4186f6b6457e09190a35050565b61132c83836115bf565b61133960008484846118fc565b6106385760405162461bcd60e51b815260206004820152603260248201527f4552433732313a207472616e7366657220746f206e6f6e20455243373231526560448201527f63656976657220696d706c656d656e746572000000000000000000000000000060648201526084016104e6565b6113b68484846110c1565b6113c2848484846118fc565b610d585760405162461bcd60e51b815260206004820152603260248201527f4552433732313a207472616e7366657220746f206e6f6e20455243373231526560448201527f63656976657220696d706c656d656e746572000000000000000000000000000060648201526084016104e6565b6000818152600360205260409020546060906001600160a01b03166114c15760405162461bcd60e51b815260206004820152603160248201527f45524337323155524953746f726167653a2055524920717565727920666f722060448201527f6e6f6e6578697374656e7420746f6b656e00000000000000000000000000000060648201526084016104e6565b6000828152600b6020526040812080546114da90612500565b80601f016020809104026020016040519081016040528092919081815260200182805461150690612500565b80156115535780601f1061152857610100808354040283529160200191611553565b820191906000526020600020905b81548152906001019060200180831161153657829003601f168201915b50505050509050600061157160408051602081019091526000815290565b9050805160001415611584575092915050565b8151156115b657808260405160200161159e9291906125db565b60405160208183030381529060405292505050919050565b6110b984611ac7565b6001600160a01b0382166116155760405162461bcd60e51b815260206004820181905260248201527f4552433732313a206d696e7420746f20746865207a65726f206164647265737360448201526064016104e6565b6000818152600360205260409020546001600160a01b03161561167a5760405162461bcd60e51b815260206004820152601c60248201527f4552433732313a20746f6b656e20616c7265616479206d696e7465640000000060448201526064016104e6565b611686600083836118b1565b6001600160a01b03821660009081526004602052604081208054600192906116af9084906125ac565b909155505060008181526003602052604080822080547fffffffffffffffffffffffff0000000000000000000000000000000000000000166001600160a01b03861690811790915590518392907fddf252ad1be2c89b69c2b068fc378daa952ba7f163c4a11628f55a4df523b3ef908290a45050565b6000828152600360205260409020546001600160a01b03166117af5760405162461bcd60e51b815260206004820152602e60248201527f45524337323155524953746f726167653a2055524920736574206f66206e6f6e60448201527f6578697374656e7420746f6b656e00000000000000000000000000000000000060648201526084016104e6565b6000828152600b60209081526040909120825161063892840190611ff6565b60007fffffffff0000000000000000000000000000000000000000000000000000000082167f80ac58cd00000000000000000000000000000000000000000000000000000000148061186157507fffffffff0000000000000000000000000000000000000000000000000000000082167f5b5e139f00000000000000000000000000000000000000000000000000000000145b8061094457507f01ffc9a7000000000000000000000000000000000000000000000000000000007fffffffff00000000000000000000000000000000000000000000000000000000831614610944565b610638838383611bbd565b6118c581611c75565b6000818152600b6020526040902080546118de90612500565b159050610926576000818152600b602052604081206109269161207a565b60006001600160a01b0384163b15611abc576040517f150b7a020000000000000000000000000000000000000000000000000000000081526001600160a01b0385169063150b7a029061195990339089908890889060040161260a565b602060405180830381600087803b15801561197357600080fd5b505af19250505080156119c1575060408051601f3d9081017fffffffffffffffffffffffffffffffffffffffffffffffffffffffffffffffe01682019092526119be9181019061263c565b60015b611a71573d8080156119ef576040519150601f19603f3d011682016040523d82523d6000602084013e6119f4565b606091505b508051611a695760405162461bcd60e51b815260206004820152603260248201527f4552433732313a207472616e7366657220746f206e6f6e20455243373231526560448201527f63656976657220696d706c656d656e746572000000000000000000000000000060648201526084016104e6565b805181602001fd5b7fffffffff00000000000000000000000000000000000000000000000000000000167f150b7a02000000000000000000000000000000000000000000000000000000001490506110b9565b506001949350505050565b6000818152600360205260409020546060906001600160a01b0316611b545760405162461bcd60e51b815260206004820152602f60248201527f4552433732314d657461646174613a2055524920717565727920666f72206e6f60448201527f6e6578697374656e7420746f6b656e000000000000000000000000000000000060648201526084016104e6565b6000611b6b60408051602081019091526000815290565b90506000815111611b8b5760405180602001604052806000815250611bb6565b80611b9584611d34565b604051602001611ba69291906125db565b6040516020818303038152906040525b9392505050565b6001600160a01b038316611c1857611c1381600980546000838152600a60205260408120829055600182018355919091527f6e1540171b6c0c960b71a7020d9f60077f6af931a8bbf590da0223dacf75c7af0155565b611c3b565b816001600160a01b0316836001600160a01b031614611c3b57611c3b8382611e66565b6001600160a01b038216611c525761063881611f03565b826001600160a01b0316826001600160a01b031614610638576106388282611fb2565b6000611c80826109ee565b9050611c8e816000846118b1565b611c99600083610f33565b6001600160a01b0381166000908152600460205260408120805460019290611cc29084906125c4565b909155505060008281526003602052604080822080547fffffffffffffffffffffffff0000000000000000000000000000000000000000169055518391906001600160a01b038416907fddf252ad1be2c89b69c2b068fc378daa952ba7f163c4a11628f55a4df523b3ef908390a45050565b606081611d7457505060408051808201909152600181527f3000000000000000000000000000000000000000000000000000000000000000602082015290565b8160005b8115611d9e5780611d8881612659565b9150611d979050600a836126c1565b9150611d78565b60008167ffffffffffffffff811115611db957611db961228d565b6040519080825280601f01601f191660200182016040528015611de3576020820181803683370190505b5090505b84156110b957611df86001836125c4565b9150611e05600a866126d5565b611e109060306125ac565b60f81b818381518110611e2557611e2561254e565b60200101907effffffffffffffffffffffffffffffffffffffffffffffffffffffffffffff1916908160001a905350611e5f600a866126c1565b9450611de7565b60006001611e7384610a79565b611e7d91906125c4565b600083815260086020526040902054909150808214611ed0576001600160a01b03841660009081526007602090815260408083208584528252808320548484528184208190558352600890915290208190555b5060009182526008602090815260408084208490556001600160a01b039094168352600781528383209183525290812055565b600954600090611f15906001906125c4565b6000838152600a602052604081205460098054939450909284908110611f3d57611f3d61254e565b906000526020600020015490508060098381548110611f5e57611f5e61254e565b6000918252602080832090910192909255828152600a90915260408082208490558582528120556009805480611f9657611f966126e9565b6001900381819060005260206000200160009055905550505050565b6000611fbd83610a79565b6001600160a01b039093166000908152600760209081526040808320868452825280832085905593825260089052919091209190915550565b82805461200290612500565b90600052602060002090601f016020900481019282612024576000855561206a565b82601f1061203d57805160ff191683800117855561206a565b8280016001018555821561206a579182015b8281111561206a57825182559160200191906001019061204f565b506120769291506120b0565b5090565b50805461208690612500565b6000825580601f10612096575050565b601f01602090049060005260206000209081019061092691905b5b8082111561207657600081556001016120b1565b7fffffffff000000000000000000000000000000000000000000000000000000008116811461092657600080fd5b60006020828403121561210557600080fd5b8135611bb6816120c5565b60005b8381101561212b578181015183820152602001612113565b83811115610d585750506000910152565b60008151808452612154816020860160208601612110565b601f017fffffffffffffffffffffffffffffffffffffffffffffffffffffffffffffffe0169290920160200192915050565b602081526000611bb6602083018461213c565b6000602082840312156121ab57600080fd5b5035919050565b80356001600160a01b03811681146121c957600080fd5b919050565b600080604083850312156121e157600080fd5b6121ea836121b2565b946020939093013593505050565b6001600160a01b038416815260606020820152600061221a606083018561213c565b828103604084015261222c818561213c565b9695505050505050565b60008060006060848603121561224b57600080fd5b612254846121b2565b9250612262602085016121b2565b9150604084013590509250925092565b60006020828403121561228457600080fd5b611bb6826121b2565b7f4e487b7100000000000000000000000000000000000000000000000000000000600052604160045260246000fd5b600067ffffffffffffffff808411156122d7576122d761228d565b604051601f85017fffffffffffffffffffffffffffffffffffffffffffffffffffffffffffffffe0908116603f0116810190828211818310171561231d5761231d61228d565b8160405280935085815286868601111561233657600080fd5b858560208301376000602087830101525050509392505050565b600082601f83011261236157600080fd5b611bb6838335602085016122bc565b60008060006060848603121561238557600080fd5b61238e846121b2565b925060208401359150604084013567ffffffffffffffff8111156123b157600080fd5b6123bd86828701612350565b9150509250925092565b600080604083850312156123da57600080fd5b6123e3836121b2565b9150602083013580151581146123f857600080fd5b809150509250929050565b6000806000806080858703121561241957600080fd5b612422856121b2565b9350612430602086016121b2565b925060408501359150606085013567ffffffffffffffff81111561245357600080fd5b61245f87828801612350565b91505092959194509250565b6000806040838503121561247e57600080fd5b612487836121b2565b9150612495602084016121b2565b90509250929050565b600080604083850312156124b157600080fd5b6124ba836121b2565b9150602083013567ffffffffffffffff8111156124d657600080fd5b8301601f810185136124e757600080fd5b6124f6858235602084016122bc565b9150509250929050565b600181811c9082168061251457607f821691505b602082108114156103c8577f4e487b7100000000000000000000000000000000000000000000000000000000600052602260045260246000fd5b7f4e487b7100000000000000000000000000000000000000000000000000000000600052603260045260246000fd5b7f4e487b7100000000000000000000000000000000000000000000000000000000600052601160045260246000fd5b600082198211156125bf576125bf61257d565b500190565b6000828210156125d6576125d661257d565b500390565b600083516125ed818460208801612110565b835190830190612601818360208801612110565b01949350505050565b60006001600160a01b0380871683528086166020840152508360408301526080606083015261222c608083018461213c565b60006020828403121561264e57600080fd5b8151611bb6816120c5565b60007fffffffffffffffffffffffffffffffffffffffffffffffffffffffffffffffff82141561268b5761268b61257d565b5060010190565b7f4e487b7100000000000000000000000000000000000000000000000000000000600052601260045260246000fd5b6000826126d0576126d0612692565b500490565b6000826126e4576126e4612692565b500690565b7f4e487b7100000000000000000000000000000000000000000000000000000000600052603160045260246000fdfea164736f6c6343000809000a",
  "linkReferences": {},
  "deployedLinkReferences": {}
}