{
  "_format": "hh-sol-artifact-1",
  "contractName": "AltL1Bridge",
  "sourceName": "contracts/lzTokenBridge/AltL1Bridge.sol",
  "abi": [
    {
      "anonymous": false,
      "inputs": [
        {
          "indexed": true,
          "internalType": "address",
          "name": "_l1Token",
          "type": "address"
        },
        {
          "indexed": true,
          "internalType": "address",
          "name": "_l2Token",
          "type": "address"
        },
        {
          "indexed": true,
          "internalType": "address",
          "name": "_from",
          "type": "address"
        },
        {
          "indexed": false,
          "internalType": "address",
          "name": "_to",
          "type": "address"
        },
        {
          "indexed": false,
          "internalType": "uint256",
          "name": "_amount",
          "type": "uint256"
        },
        {
          "indexed": false,
          "internalType": "bytes",
          "name": "_data",
          "type": "bytes"
        }
      ],
      "name": "DepositFinalized",
      "type": "event"
    },
    {
      "anonymous": false,
      "inputs": [
        {
          "indexed": false,
          "internalType": "uint16",
          "name": "_srcChainId",
          "type": "uint16"
        },
        {
          "indexed": false,
          "internalType": "bytes",
          "name": "_srcAddress",
          "type": "bytes"
        },
        {
          "indexed": false,
          "internalType": "uint64",
          "name": "_nonce",
          "type": "uint64"
        },
        {
          "indexed": false,
          "internalType": "bytes",
          "name": "_payload",
          "type": "bytes"
        }
      ],
      "name": "MessageFailed",
      "type": "event"
    },
    {
      "anonymous": false,
      "inputs": [
        {
          "indexed": true,
          "internalType": "address",
          "name": "previousOwner",
          "type": "address"
        },
        {
          "indexed": true,
          "internalType": "address",
          "name": "newOwner",
          "type": "address"
        }
      ],
      "name": "OwnershipTransferred",
      "type": "event"
    },
    {
      "anonymous": false,
      "inputs": [
        {
          "indexed": false,
          "internalType": "uint16",
          "name": "_srcChainId",
          "type": "uint16"
        },
        {
          "indexed": false,
          "internalType": "bytes",
          "name": "_srcAddress",
          "type": "bytes"
        }
      ],
      "name": "SetTrustedRemote",
      "type": "event"
    },
    {
      "anonymous": false,
      "inputs": [
        {
          "indexed": true,
          "internalType": "address",
          "name": "_l1Token",
          "type": "address"
        },
        {
          "indexed": true,
          "internalType": "address",
          "name": "_l2Token",
          "type": "address"
        },
        {
          "indexed": true,
          "internalType": "address",
          "name": "_from",
          "type": "address"
        },
        {
          "indexed": false,
          "internalType": "address",
          "name": "_to",
          "type": "address"
        },
        {
          "indexed": false,
          "internalType": "uint256",
          "name": "_amount",
          "type": "uint256"
        },
        {
          "indexed": false,
          "internalType": "bytes",
          "name": "_data",
          "type": "bytes"
        }
      ],
      "name": "WithdrawalInitiated",
      "type": "event"
    },
    {
      "inputs": [],
      "name": "FUNCTION_TYPE_SEND",
      "outputs": [
        {
          "internalType": "uint256",
          "name": "",
          "type": "uint256"
        }
      ],
      "stateMutability": "view",
      "type": "function"
    },
    {
      "inputs": [],
      "name": "NO_EXTRA_GAS",
      "outputs": [
        {
          "internalType": "uint256",
          "name": "",
          "type": "uint256"
        }
      ],
      "stateMutability": "view",
      "type": "function"
    },
    {
      "inputs": [],
      "name": "dstChainId",
      "outputs": [
        {
          "internalType": "uint16",
          "name": "",
          "type": "uint16"
        }
      ],
      "stateMutability": "view",
      "type": "function"
    },
    {
      "inputs": [
        {
          "internalType": "uint16",
          "name": "",
          "type": "uint16"
        },
        {
          "internalType": "bytes",
          "name": "",
          "type": "bytes"
        },
        {
          "internalType": "uint64",
          "name": "",
          "type": "uint64"
        }
      ],
      "name": "failedMessages",
      "outputs": [
        {
          "internalType": "bytes32",
          "name": "",
          "type": "bytes32"
        }
      ],
      "stateMutability": "view",
      "type": "function"
    },
    {
      "inputs": [
        {
          "internalType": "uint16",
          "name": "_srcChainId",
          "type": "uint16"
        },
        {
          "internalType": "bytes",
          "name": "_srcAddress",
          "type": "bytes"
        }
      ],
      "name": "forceResumeReceive",
      "outputs": [],
      "stateMutability": "nonpayable",
      "type": "function"
    },
    {
      "inputs": [
        {
          "internalType": "uint16",
          "name": "_version",
          "type": "uint16"
        },
        {
          "internalType": "uint16",
          "name": "_chainId",
          "type": "uint16"
        },
        {
          "internalType": "address",
          "name": "",
          "type": "address"
        },
        {
          "internalType": "uint256",
          "name": "_configType",
          "type": "uint256"
        }
      ],
      "name": "getConfig",
      "outputs": [
        {
          "internalType": "bytes",
          "name": "",
          "type": "bytes"
        }
      ],
      "stateMutability": "view",
      "type": "function"
    },
    {
      "inputs": [
        {
          "internalType": "address",
          "name": "_lzEndpoint",
          "type": "address"
        },
        {
          "internalType": "uint16",
          "name": "_dstChainId",
          "type": "uint16"
        },
        {
          "internalType": "address",
          "name": "_ethBridgeAddress",
          "type": "address"
        }
      ],
      "name": "initialize",
      "outputs": [],
      "stateMutability": "nonpayable",
      "type": "function"
    },
    {
      "inputs": [
        {
          "internalType": "uint16",
          "name": "_srcChainId",
          "type": "uint16"
        },
        {
          "internalType": "bytes",
          "name": "_srcAddress",
          "type": "bytes"
        }
      ],
      "name": "isTrustedRemote",
      "outputs": [
        {
          "internalType": "bool",
          "name": "",
          "type": "bool"
        }
      ],
      "stateMutability": "view",
      "type": "function"
    },
    {
      "inputs": [],
      "name": "lzEndpoint",
      "outputs": [
        {
          "internalType": "contract ILayerZeroEndpoint",
          "name": "",
          "type": "address"
        }
      ],
      "stateMutability": "view",
      "type": "function"
    },
    {
      "inputs": [
        {
          "internalType": "uint16",
          "name": "_srcChainId",
          "type": "uint16"
        },
        {
          "internalType": "bytes",
          "name": "_srcAddress",
          "type": "bytes"
        },
        {
          "internalType": "uint64",
          "name": "_nonce",
          "type": "uint64"
        },
        {
          "internalType": "bytes",
          "name": "_payload",
          "type": "bytes"
        }
      ],
      "name": "lzReceive",
      "outputs": [],
      "stateMutability": "nonpayable",
      "type": "function"
    },
    {
      "inputs": [],
      "name": "maxTransferAmountPerDay",
      "outputs": [
        {
          "internalType": "uint256",
          "name": "",
          "type": "uint256"
        }
      ],
      "stateMutability": "view",
      "type": "function"
    },
    {
      "inputs": [
        {
          "internalType": "uint16",
          "name": "",
          "type": "uint16"
        },
        {
          "internalType": "uint256",
          "name": "",
          "type": "uint256"
        }
      ],
      "name": "minDstGasLookup",
      "outputs": [
        {
          "internalType": "uint256",
          "name": "",
          "type": "uint256"
        }
      ],
      "stateMutability": "view",
      "type": "function"
    },
    {
      "inputs": [
        {
          "internalType": "uint16",
          "name": "_srcChainId",
          "type": "uint16"
        },
        {
          "internalType": "bytes",
          "name": "_srcAddress",
          "type": "bytes"
        },
        {
          "internalType": "uint64",
          "name": "_nonce",
          "type": "uint64"
        },
        {
          "internalType": "bytes",
          "name": "_payload",
          "type": "bytes"
        }
      ],
      "name": "nonblockingLzReceive",
      "outputs": [],
      "stateMutability": "nonpayable",
      "type": "function"
    },
    {
      "inputs": [],
      "name": "owner",
      "outputs": [
        {
          "internalType": "address",
          "name": "",
          "type": "address"
        }
      ],
      "stateMutability": "view",
      "type": "function"
    },
    {
      "inputs": [],
      "name": "renounceOwnership",
      "outputs": [],
      "stateMutability": "nonpayable",
      "type": "function"
    },
    {
      "inputs": [
        {
          "internalType": "uint16",
          "name": "_srcChainId",
          "type": "uint16"
        },
        {
          "internalType": "bytes",
          "name": "_srcAddress",
          "type": "bytes"
        },
        {
          "internalType": "uint64",
          "name": "_nonce",
          "type": "uint64"
        },
        {
          "internalType": "bytes",
          "name": "_payload",
          "type": "bytes"
        }
      ],
      "name": "retryMessage",
      "outputs": [],
      "stateMutability": "payable",
      "type": "function"
    },
    {
      "inputs": [
        {
          "internalType": "uint16",
          "name": "_version",
          "type": "uint16"
        },
        {
          "internalType": "uint16",
          "name": "_chainId",
          "type": "uint16"
        },
        {
          "internalType": "uint256",
          "name": "_configType",
          "type": "uint256"
        },
        {
          "internalType": "bytes",
          "name": "_config",
          "type": "bytes"
        }
      ],
      "name": "setConfig",
      "outputs": [],
      "stateMutability": "nonpayable",
      "type": "function"
    },
    {
      "inputs": [
        {
          "internalType": "uint256",
          "name": "_maxTransferAmountPerDay",
          "type": "uint256"
        }
      ],
      "name": "setMaxTransferAmountPerDay",
      "outputs": [],
      "stateMutability": "nonpayable",
      "type": "function"
    },
    {
      "inputs": [
        {
          "internalType": "uint16",
          "name": "_dstChainId",
          "type": "uint16"
        },
        {
          "internalType": "uint256",
          "name": "_type",
          "type": "uint256"
        },
        {
          "internalType": "uint256",
          "name": "_dstGasAmount",
          "type": "uint256"
        }
      ],
      "name": "setMinDstGasLookup",
      "outputs": [],
      "stateMutability": "nonpayable",
      "type": "function"
    },
    {
      "inputs": [
        {
          "internalType": "uint16",
          "name": "_version",
          "type": "uint16"
        }
      ],
      "name": "setReceiveVersion",
      "outputs": [],
      "stateMutability": "nonpayable",
      "type": "function"
    },
    {
      "inputs": [
        {
          "internalType": "uint16",
          "name": "_version",
          "type": "uint16"
        }
      ],
      "name": "setSendVersion",
      "outputs": [],
      "stateMutability": "nonpayable",
      "type": "function"
    },
    {
      "inputs": [
        {
          "internalType": "uint16",
          "name": "_srcChainId",
          "type": "uint16"
        },
        {
          "internalType": "bytes",
          "name": "_srcAddress",
          "type": "bytes"
        }
      ],
      "name": "setTrustedRemote",
      "outputs": [],
      "stateMutability": "nonpayable",
      "type": "function"
    },
    {
      "inputs": [
        {
          "internalType": "bool",
          "name": "_useCustomAdapterParams",
          "type": "bool"
        },
        {
          "internalType": "uint256",
          "name": "_dstGasAmount",
          "type": "uint256"
        }
      ],
      "name": "setUseCustomAdapterParams",
      "outputs": [],
      "stateMutability": "nonpayable",
      "type": "function"
    },
    {
      "inputs": [
        {
          "internalType": "address",
          "name": "newOwner",
          "type": "address"
        }
      ],
      "name": "transferOwnership",
      "outputs": [],
      "stateMutability": "nonpayable",
      "type": "function"
    },
    {
      "inputs": [],
      "name": "transferTimestampCheckPoint",
      "outputs": [
        {
          "internalType": "uint256",
          "name": "",
          "type": "uint256"
        }
      ],
      "stateMutability": "view",
      "type": "function"
    },
    {
      "inputs": [],
      "name": "transferredAmount",
      "outputs": [
        {
          "internalType": "uint256",
          "name": "",
          "type": "uint256"
        }
      ],
      "stateMutability": "view",
      "type": "function"
    },
    {
      "inputs": [
        {
          "internalType": "uint16",
          "name": "",
          "type": "uint16"
        }
      ],
      "name": "trustedRemoteLookup",
      "outputs": [
        {
          "internalType": "bytes",
          "name": "",
          "type": "bytes"
        }
      ],
      "stateMutability": "view",
      "type": "function"
    },
    {
      "inputs": [],
      "name": "useCustomAdapterParams",
      "outputs": [
        {
          "internalType": "bool",
          "name": "",
          "type": "bool"
        }
      ],
      "stateMutability": "view",
      "type": "function"
    },
    {
      "inputs": [
        {
          "internalType": "address",
          "name": "_l2Token",
          "type": "address"
        },
        {
          "internalType": "uint256",
          "name": "_amount",
          "type": "uint256"
        },
        {
          "internalType": "address",
          "name": "_zroPaymentAddress",
          "type": "address"
        },
        {
          "internalType": "bytes",
          "name": "_adapterParams",
          "type": "bytes"
        },
        {
          "internalType": "bytes",
          "name": "_data",
          "type": "bytes"
        }
      ],
      "name": "withdraw",
      "outputs": [],
      "stateMutability": "payable",
      "type": "function"
    },
    {
      "inputs": [
        {
          "internalType": "address",
          "name": "_l2Token",
          "type": "address"
        },
        {
          "internalType": "address",
          "name": "_to",
          "type": "address"
        },
        {
          "internalType": "uint256",
          "name": "_amount",
          "type": "uint256"
        },
        {
          "internalType": "address",
          "name": "_zroPaymentAddress",
          "type": "address"
        },
        {
          "internalType": "bytes",
          "name": "_adapterParams",
          "type": "bytes"
        },
        {
          "internalType": "bytes",
          "name": "_data",
          "type": "bytes"
        }
      ],
      "name": "withdrawTo",
      "outputs": [],
      "stateMutability": "payable",
      "type": "function"
    }
  ],
  "bytecode": "0x608060405234801561001057600080fd5b506132b0806100206000396000f3fe6080604052600436106101cc5760003560e01c80637533d788116100f7578063c8ed191011610095578063ed629c5c11610064578063ed629c5c14610578578063ede75eca14610598578063f2fde38b146105ab578063f5ecbdbc146105cb57600080fd5b8063c8ed19101461050f578063cbed8b9c14610525578063d1deba1f14610545578063eb8d72b71461055857600080fd5b8063901eec16116100d1578063901eec16146104975780639b57db5f146104ad578063af3fb21c146104cd578063b353aaa7146104e257600080fd5b80637533d788146103fe5780637e0ced091461042b5780638da5cb5b1461044b57600080fd5b806342d65a8d1161016f57806366ad5c8a1161013e57806366ad5c8a146103965780636fb2be6d146103b6578063708c0db9146103c9578063715018a6146103e957600080fd5b806342d65a8d146102fc578063447705151461031c578063512afd89146103315780635b8c41e61461034757600080fd5b806310ddb137116101ab57806310ddb1371461025e57806330c593f71461027e5780633496a68e146102ac5780633d8b38f6146102cc57600080fd5b80621d3567146101d157806307810867146101f357806307e0db171461023e575b600080fd5b3480156101dd57600080fd5b506101f16101ec3660046128a7565b6105eb565b005b3480156101ff57600080fd5b5061022b61020e36600461292c565b606760209081526000928352604080842090915290825290205481565b6040519081526020015b60405180910390f35b34801561024a57600080fd5b506101f1610259366004612956565b6107ae565b34801561026a57600080fd5b506101f1610279366004612956565b610899565b34801561028a57600080fd5b5060cd546102999061ffff1681565b60405161ffff9091168152602001610235565b3480156102b857600080fd5b506101f16102c7366004612971565b61095a565b3480156102d857600080fd5b506102ec6102e73660046129d3565b6109c6565b6040519015158152602001610235565b34801561030857600080fd5b506101f16103173660046129d3565b610a92565b34801561032857600080fd5b5061022b600081565b34801561033d57600080fd5b5061022b60ce5481565b34801561035357600080fd5b5061022b610362366004612a26565b609a602090815260009384526040808520845180860184018051928152908401958401959095209452929052825290205481565b3480156103a257600080fd5b506101f16103b13660046128a7565b610b8a565b6101f16103c4366004612aa6565b610c11565b3480156103d557600080fd5b506101f16103e4366004612b3f565b610c29565b3480156103f557600080fd5b506101f1610e0b565b34801561040a57600080fd5b5061041e610419366004612956565b610e7e565b6040516102359190612be0565b34801561043757600080fd5b506101f1610446366004612c01565b610f18565b34801561045757600080fd5b5060335473ffffffffffffffffffffffffffffffffffffffff165b60405173ffffffffffffffffffffffffffffffffffffffff9091168152602001610235565b3480156104a357600080fd5b5061022b60d05481565b3480156104b957600080fd5b506101f16104c8366004612c1f565b610fcc565b3480156104d957600080fd5b5061022b600181565b3480156104ee57600080fd5b506065546104729073ffffffffffffffffffffffffffffffffffffffff1681565b34801561051b57600080fd5b5061022b60cf5481565b34801561053157600080fd5b506101f1610540366004612c52565b6110a4565b6101f16105533660046128a7565b6111a2565b34801561056457600080fd5b506101f1610573366004612cc1565b61132c565b34801561058457600080fd5b5060cd546102ec9062010000900460ff1681565b6101f16105a6366004612d0f565b6113f5565b3480156105b757600080fd5b506101f16105c6366004612dbb565b611405565b3480156105d757600080fd5b5061041e6105e6366004612ddf565b611501565b60655473ffffffffffffffffffffffffffffffffffffffff163373ffffffffffffffffffffffffffffffffffffffff161461066d5760405162461bcd60e51b815260206004820152601e60248201527f4c7a4170703a20696e76616c696420656e64706f696e742063616c6c6572000060448201526064015b60405180910390fd5b61ffff84166000908152606660205260408120805461068b90612e2c565b80601f01602080910402602001604051908101604052809291908181526020018280546106b790612e2c565b80156107045780601f106106d957610100808354040283529160200191610704565b820191906000526020600020905b8154815290600101906020018083116106e757829003601f168201915b5050505050905080518451148015610729575080805190602001208480519060200120145b61079b5760405162461bcd60e51b815260206004820152602660248201527f4c7a4170703a20696e76616c696420736f757263652073656e64696e6720636f60448201527f6e747261637400000000000000000000000000000000000000000000000000006064820152608401610664565b6107a7858585856115c9565b5050505050565b60335473ffffffffffffffffffffffffffffffffffffffff1633146108155760405162461bcd60e51b815260206004820181905260248201527f4f776e61626c653a2063616c6c6572206973206e6f7420746865206f776e65726044820152606401610664565b6065546040517f07e0db1700000000000000000000000000000000000000000000000000000000815261ffff8316600482015273ffffffffffffffffffffffffffffffffffffffff909116906307e0db17906024015b600060405180830381600087803b15801561088557600080fd5b505af11580156107a7573d6000803e3d6000fd5b60335473ffffffffffffffffffffffffffffffffffffffff1633146109005760405162461bcd60e51b815260206004820181905260248201527f4f776e61626c653a2063616c6c6572206973206e6f7420746865206f776e65726044820152606401610664565b6065546040517f10ddb13700000000000000000000000000000000000000000000000000000000815261ffff8316600482015273ffffffffffffffffffffffffffffffffffffffff909116906310ddb1379060240161086b565b60335473ffffffffffffffffffffffffffffffffffffffff1633146109c15760405162461bcd60e51b815260206004820181905260248201527f4f776e61626c653a2063616c6c6572206973206e6f7420746865206f776e65726044820152606401610664565b60ce55565b61ffff8316600090815260666020526040812080548291906109e790612e2c565b80601f0160208091040260200160405190810160405280929190818152602001828054610a1390612e2c565b8015610a605780601f10610a3557610100808354040283529160200191610a60565b820191906000526020600020905b815481529060010190602001808311610a4357829003601f168201915b505050505090508383604051610a77929190612e80565b60405180910390208180519060200120149150509392505050565b60335473ffffffffffffffffffffffffffffffffffffffff163314610af95760405162461bcd60e51b815260206004820181905260248201527f4f776e61626c653a2063616c6c6572206973206e6f7420746865206f776e65726044820152606401610664565b6065546040517f42d65a8d00000000000000000000000000000000000000000000000000000000815273ffffffffffffffffffffffffffffffffffffffff909116906342d65a8d90610b5390869086908690600401612ebb565b600060405180830381600087803b158015610b6d57600080fd5b505af1158015610b81573d6000803e3d6000fd5b50505050505050565b333014610bff5760405162461bcd60e51b815260206004820152602660248201527f4e6f6e626c6f636b696e674c7a4170703a2063616c6c6572206d75737420626560448201527f204c7a41707000000000000000000000000000000000000000000000000000006064820152608401610664565b610c0b848484846116d4565b50505050565b610c21863333888888888861198c565b505050505050565b600054610100900460ff1680610c42575060005460ff16155b610cb45760405162461bcd60e51b815260206004820152602e60248201527f496e697469616c697a61626c653a20636f6e747261637420697320616c72656160448201527f647920696e697469616c697a65640000000000000000000000000000000000006064820152608401610664565b600054610100900460ff16158015610cd6576000805461ffff19166101011790555b73ffffffffffffffffffffffffffffffffffffffff8416610d5f5760405162461bcd60e51b815260206004820152602260248201527f6c7a20656e64706f696e742063616e6e6f74206265207a65726f20616464726560448201527f73730000000000000000000000000000000000000000000000000000000000006064820152608401610664565b610d6884611cfd565b60cd805461ffff191661ffff85161790556040517fffffffffffffffffffffffffffffffffffffffff000000000000000000000000606084901b166020820152610dc590849060340160405160208183030381529060405261132c565b4260d0556969e10de76676d080000060ce558015610c0b57600080547fffffffffffffffffffffffffffffffffffffffffffffffffffffffffffff00ff16905550505050565b60335473ffffffffffffffffffffffffffffffffffffffff163314610e725760405162461bcd60e51b815260206004820181905260248201527f4f776e61626c653a2063616c6c6572206973206e6f7420746865206f776e65726044820152606401610664565b610e7c6000611de5565b565b60666020526000908152604090208054610e9790612e2c565b80601f0160208091040260200160405190810160405280929190818152602001828054610ec390612e2c565b8015610f105780601f10610ee557610100808354040283529160200191610f10565b820191906000526020600020905b815481529060010190602001808311610ef357829003601f168201915b505050505081565b60335473ffffffffffffffffffffffffffffffffffffffff163314610f7f5760405162461bcd60e51b815260206004820181905260248201527f4f776e61626c653a2063616c6c6572206973206e6f7420746865206f776e65726044820152606401610664565b60cd805483151562010000027fffffffffffffffffffffffffffffffffffffffffffffffffffffffffff00ffff82168117909255610fc89161ffff908116911617600183610fcc565b5050565b60335473ffffffffffffffffffffffffffffffffffffffff1633146110335760405162461bcd60e51b815260206004820181905260248201527f4f776e61626c653a2063616c6c6572206973206e6f7420746865206f776e65726044820152606401610664565b600081116110835760405162461bcd60e51b815260206004820152601c60248201527f4c7a4170703a20696e76616c6964205f647374476173416d6f756e74000000006044820152606401610664565b61ffff90921660009081526067602090815260408083209383529290522055565b60335473ffffffffffffffffffffffffffffffffffffffff16331461110b5760405162461bcd60e51b815260206004820181905260248201527f4f776e61626c653a2063616c6c6572206973206e6f7420746865206f776e65726044820152606401610664565b6065546040517fcbed8b9c00000000000000000000000000000000000000000000000000000000815273ffffffffffffffffffffffffffffffffffffffff9091169063cbed8b9c906111699088908890889088908890600401612ed9565b600060405180830381600087803b15801561118357600080fd5b505af1158015611197573d6000803e3d6000fd5b505050505050505050565b61ffff84166000908152609a602052604080822090516111c3908690612f12565b908152604080516020928190038301902067ffffffffffffffff86166000908152925290205490508061125e5760405162461bcd60e51b815260206004820152602360248201527f4e6f6e626c6f636b696e674c7a4170703a206e6f2073746f726564206d65737360448201527f61676500000000000000000000000000000000000000000000000000000000006064820152608401610664565b8151602083012081146112d95760405162461bcd60e51b815260206004820152602160248201527f4e6f6e626c6f636b696e674c7a4170703a20696e76616c6964207061796c6f6160448201527f64000000000000000000000000000000000000000000000000000000000000006064820152608401610664565b61ffff85166000908152609a602052604080822090516112fa908790612f12565b908152604080516020928190038301902067ffffffffffffffff8716600090815292529020556107a7858585856116d4565b60335473ffffffffffffffffffffffffffffffffffffffff1633146113935760405162461bcd60e51b815260206004820181905260248201527f4f776e61626c653a2063616c6c6572206973206e6f7420746865206f776e65726044820152606401610664565b61ffff8216600090815260666020908152604090912082516113b792840190612701565b507ffa41487ad5d6728f0b19276fa1eddc16558578f5109fc39d2dc33c3230470dab82826040516113e9929190612f2e565b60405180910390a15050565b610b81873388888888888861198c565b60335473ffffffffffffffffffffffffffffffffffffffff16331461146c5760405162461bcd60e51b815260206004820181905260248201527f4f776e61626c653a2063616c6c6572206973206e6f7420746865206f776e65726044820152606401610664565b73ffffffffffffffffffffffffffffffffffffffff81166114f55760405162461bcd60e51b815260206004820152602660248201527f4f776e61626c653a206e6577206f776e657220697320746865207a65726f206160448201527f64647265737300000000000000000000000000000000000000000000000000006064820152608401610664565b6114fe81611de5565b50565b6065546040517ff5ecbdbc00000000000000000000000000000000000000000000000000000000815261ffff8087166004830152851660248201523060448201526064810183905260609173ffffffffffffffffffffffffffffffffffffffff169063f5ecbdbc9060840160006040518083038186803b15801561158457600080fd5b505afa158015611598573d6000803e3d6000fd5b505050506040513d6000823e601f3d908101601f191682016040526115c09190810190612f98565b95945050505050565b6040517f66ad5c8a00000000000000000000000000000000000000000000000000000000815230906366ad5c8a9061160b908790879087908790600401612fcd565b600060405180830381600087803b15801561162557600080fd5b505af1925050508015611636575060015b610c0b578080519060200120609a60008661ffff1661ffff1681526020019081526020016000208460405161166b9190612f12565b90815260408051918290036020908101832067ffffffffffffffff87166000908152915220919091557fe6f254030bcb01ffd20558175c13fcaed6d1520be7becee4c961b65f79243b0d906116c7908690869086908690612fcd565b60405180910390a1610c0b565b60cd5461ffff85811691161461172c5760405162461bcd60e51b815260206004820152601660248201527f496e76616c696420736f7572636520636861696e4964000000000000000000006044820152606401610664565b60008060008060008086806020019051810190611749919061300c565b95509550955095509550955061176685631d1d8b6360e01b611e5c565b801561181c57508473ffffffffffffffffffffffffffffffffffffffff1663c01e1bd66040518163ffffffff1660e01b8152600401602060405180830381600087803b1580156117b557600080fd5b505af11580156117c9573d6000803e3d6000fd5b505050506040513d601f19601f820116820180604052508101906117ed91906130a0565b73ffffffffffffffffffffffffffffffffffffffff168673ffffffffffffffffffffffffffffffffffffffff16145b1561192e576040517f40c10f1900000000000000000000000000000000000000000000000000000000815273ffffffffffffffffffffffffffffffffffffffff8481166004830152602482018490528616906340c10f1990604401600060405180830381600087803b15801561189157600080fd5b505af11580156118a5573d6000803e3d6000fd5b505050508373ffffffffffffffffffffffffffffffffffffffff168573ffffffffffffffffffffffffffffffffffffffff168773ffffffffffffffffffffffffffffffffffffffff167fb0444523268717a02698be47d0803aa7468c00acbed2f8bd93a0459cde61dd89868686604051611921939291906130bd565b60405180910390a4611980565b600086868587868660405160200161194b969594939291906130f2565b60408051601f1981840301815260cd5460208401909252600080845290935061197e9261ffff9092169184913391611e81565b505b50505050505050505050565b73ffffffffffffffffffffffffffffffffffffffff86166119ef5760405162461bcd60e51b815260206004820152601a60248201527f5f746f2063616e6e6f74206265207a65726f20616464726573730000000000006044820152606401610664565b60d0546119ff906201518061314d565b421015611a76578460cf6000828254611a18919061314d565b909155505060ce5460cf541115611a715760405162461bcd60e51b815260206004820152601b60248201527f6d617820616d6f756e74207065722064617920657863656564656400000000006044820152606401610664565b611a80565b60cf8590554260d0555b6040517f9dc29fac0000000000000000000000000000000000000000000000000000000081523360048201526024810186905273ffffffffffffffffffffffffffffffffffffffff891690639dc29fac90604401600060405180830381600087803b158015611aee57600080fd5b505af1158015611b02573d6000803e3d6000fd5b5050505060008873ffffffffffffffffffffffffffffffffffffffff1663c01e1bd66040518163ffffffff1660e01b8152600401602060405180830381600087803b158015611b5057600080fd5b505af1158015611b64573d6000803e3d6000fd5b505050506040513d601f19601f82011682018060405250810190611b8891906130a0565b90506000818a8a8a8a8888604051602001611ba9979695949392919061318c565b60408051808303601f1901815291905260cd5490915062010000900460ff1615611be75760cd54611be29061ffff166001876000612026565b611c5b565b845115611c5b5760405162461bcd60e51b8152602060048201526024808201527f4c7a4170703a205f61646170746572506172616d73206d75737420626520656d60448201527f7074792e000000000000000000000000000000000000000000000000000000006064820152608401610664565b60cd54611c6f9061ffff1682338989611e81565b3373ffffffffffffffffffffffffffffffffffffffff168a73ffffffffffffffffffffffffffffffffffffffff168373ffffffffffffffffffffffffffffffffffffffff167f73d170910aba9e6d50b102db522b1dbcd796216f5128b445aa2135272886497e8b8b8989604051611ce994939291906131e9565b60405180910390a450505050505050505050565b600054610100900460ff1680611d16575060005460ff16155b611d885760405162461bcd60e51b815260206004820152602e60248201527f496e697469616c697a61626c653a20636f6e747261637420697320616c72656160448201527f647920696e697469616c697a65640000000000000000000000000000000000006064820152608401610664565b600054610100900460ff16158015611daa576000805461ffff19166101011790555b611db382612103565b8015610fc857600080547fffffffffffffffffffffffffffffffffffffffffffffffffffffffffffff00ff1690555050565b6033805473ffffffffffffffffffffffffffffffffffffffff8381167fffffffffffffffffffffffff0000000000000000000000000000000000000000831681179093556040519116919082907f8be0079c531659141344cd1fd0a4f28419497f9722a3daafe3b4186f6b6457e090600090a35050565b6000611e67836121c1565b8015611e785750611e788383612225565b90505b92915050565b61ffff851660009081526066602052604081208054611e9f90612e2c565b80601f0160208091040260200160405190810160405280929190818152602001828054611ecb90612e2c565b8015611f185780601f10611eed57610100808354040283529160200191611f18565b820191906000526020600020905b815481529060010190602001808311611efb57829003601f168201915b50505050509050805160001415611f975760405162461bcd60e51b815260206004820152603060248201527f4c7a4170703a2064657374696e6174696f6e20636861696e206973206e6f742060448201527f61207472757374656420736f75726365000000000000000000000000000000006064820152608401610664565b6065546040517fc580310000000000000000000000000000000000000000000000000000000000815273ffffffffffffffffffffffffffffffffffffffff9091169063c5803100903490611ff9908a9086908b908b908b908b9060040161321f565b6000604051808303818588803b15801561201257600080fd5b505af115801561197e573d6000803e3d6000fd5b6000612033836022015190565b61ffff861660009081526067602090815260408083208884529091528120549192509061206190849061314d565b9050600081116120b35760405162461bcd60e51b815260206004820152601a60248201527f4c7a4170703a206d696e4761734c696d6974206e6f74207365740000000000006044820152606401610664565b80821015610c215760405162461bcd60e51b815260206004820152601b60248201527f4c7a4170703a20676173206c696d697420697320746f6f206c6f7700000000006044820152606401610664565b600054610100900460ff168061211c575060005460ff16155b61218e5760405162461bcd60e51b815260206004820152602e60248201527f496e697469616c697a61626c653a20636f6e747261637420697320616c72656160448201527f647920696e697469616c697a65640000000000000000000000000000000000006064820152608401610664565b600054610100900460ff161580156121b0576000805461ffff19166101011790555b6121b8612361565b611db38261244f565b60006121ed827f01ffc9a700000000000000000000000000000000000000000000000000000000612225565b8015611e7b575061221e827fffffffff00000000000000000000000000000000000000000000000000000000612225565b1592915050565b604080517fffffffff00000000000000000000000000000000000000000000000000000000831660248083019190915282518083039091018152604490910182526020810180517bffffffffffffffffffffffffffffffffffffffffffffffffffffffff167f01ffc9a7000000000000000000000000000000000000000000000000000000001790529051600091908290819073ffffffffffffffffffffffffffffffffffffffff871690617530906122df908690612f12565b6000604051808303818686fa925050503d806000811461231b576040519150601f19603f3d011682016040523d82523d6000602084013e612320565b606091505b509150915060208151101561233b5760009350505050611e7b565b8180156123575750808060200190518101906123579190613286565b9695505050505050565b600054610100900460ff168061237a575060005460ff16155b6123ec5760405162461bcd60e51b815260206004820152602e60248201527f496e697469616c697a61626c653a20636f6e747261637420697320616c72656160448201527f647920696e697469616c697a65640000000000000000000000000000000000006064820152608401610664565b600054610100900460ff1615801561240e576000805461ffff19166101011790555b61241661256e565b61241e61264b565b80156114fe57600080547fffffffffffffffffffffffffffffffffffffffffffffffffffffffffffff00ff16905550565b600054610100900460ff1680612468575060005460ff16155b6124da5760405162461bcd60e51b815260206004820152602e60248201527f496e697469616c697a61626c653a20636f6e747261637420697320616c72656160448201527f647920696e697469616c697a65640000000000000000000000000000000000006064820152608401610664565b600054610100900460ff161580156124fc576000805461ffff19166101011790555b606580547fffffffffffffffffffffffff00000000000000000000000000000000000000001673ffffffffffffffffffffffffffffffffffffffff84161790558015610fc857600080547fffffffffffffffffffffffffffffffffffffffffffffffffffffffffffff00ff1690555050565b600054610100900460ff1680612587575060005460ff16155b6125f95760405162461bcd60e51b815260206004820152602e60248201527f496e697469616c697a61626c653a20636f6e747261637420697320616c72656160448201527f647920696e697469616c697a65640000000000000000000000000000000000006064820152608401610664565b600054610100900460ff1615801561241e576000805461ffff191661010117905580156114fe57600080547fffffffffffffffffffffffffffffffffffffffffffffffffffffffffffff00ff16905550565b600054610100900460ff1680612664575060005460ff16155b6126d65760405162461bcd60e51b815260206004820152602e60248201527f496e697469616c697a61626c653a20636f6e747261637420697320616c72656160448201527f647920696e697469616c697a65640000000000000000000000000000000000006064820152608401610664565b600054610100900460ff161580156126f8576000805461ffff19166101011790555b61241e33611de5565b82805461270d90612e2c565b90600052602060002090601f01602090048101928261272f5760008555612775565b82601f1061274857805160ff1916838001178555612775565b82800160010185558215612775579182015b8281111561277557825182559160200191906001019061275a565b50612781929150612785565b5090565b5b808211156127815760008155600101612786565b803561ffff811681146127ac57600080fd5b919050565b7f4e487b7100000000000000000000000000000000000000000000000000000000600052604160045260246000fd5b604051601f8201601f1916810167ffffffffffffffff81118282101715612809576128096127b1565b604052919050565b600067ffffffffffffffff82111561282b5761282b6127b1565b50601f01601f191660200190565b600082601f83011261284a57600080fd5b813561285d61285882612811565b6127e0565b81815284602083860101111561287257600080fd5b816020850160208301376000918101602001919091529392505050565b803567ffffffffffffffff811681146127ac57600080fd5b600080600080608085870312156128bd57600080fd5b6128c68561279a565b9350602085013567ffffffffffffffff808211156128e357600080fd5b6128ef88838901612839565b94506128fd6040880161288f565b9350606087013591508082111561291357600080fd5b5061292087828801612839565b91505092959194509250565b6000806040838503121561293f57600080fd5b6129488361279a565b946020939093013593505050565b60006020828403121561296857600080fd5b611e788261279a565b60006020828403121561298357600080fd5b5035919050565b60008083601f84011261299c57600080fd5b50813567ffffffffffffffff8111156129b457600080fd5b6020830191508360208285010111156129cc57600080fd5b9250929050565b6000806000604084860312156129e857600080fd5b6129f18461279a565b9250602084013567ffffffffffffffff811115612a0d57600080fd5b612a198682870161298a565b9497909650939450505050565b600080600060608486031215612a3b57600080fd5b612a448461279a565b9250602084013567ffffffffffffffff811115612a6057600080fd5b612a6c86828701612839565b925050612a7b6040850161288f565b90509250925092565b73ffffffffffffffffffffffffffffffffffffffff811681146114fe57600080fd5b60008060008060008060a08789031215612abf57600080fd5b8635612aca81612a84565b9550602087013594506040870135612ae181612a84565b9350606087013567ffffffffffffffff80821115612afe57600080fd5b612b0a8a838b01612839565b94506080890135915080821115612b2057600080fd5b50612b2d89828a0161298a565b979a9699509497509295939492505050565b600080600060608486031215612b5457600080fd5b8335612b5f81612a84565b9250612b6d6020850161279a565b91506040840135612b7d81612a84565b809150509250925092565b60005b83811015612ba3578181015183820152602001612b8b565b83811115610c0b5750506000910152565b60008151808452612bcc816020860160208601612b88565b601f01601f19169290920160200192915050565b602081526000611e786020830184612bb4565b80151581146114fe57600080fd5b60008060408385031215612c1457600080fd5b823561294881612bf3565b600080600060608486031215612c3457600080fd5b612c3d8461279a565b95602085013595506040909401359392505050565b600080600080600060808688031215612c6a57600080fd5b612c738661279a565b9450612c816020870161279a565b935060408601359250606086013567ffffffffffffffff811115612ca457600080fd5b612cb08882890161298a565b969995985093965092949392505050565b60008060408385031215612cd457600080fd5b612cdd8361279a565b9150602083013567ffffffffffffffff811115612cf957600080fd5b612d0585828601612839565b9150509250929050565b600080600080600080600060c0888a031215612d2a57600080fd5b8735612d3581612a84565b96506020880135612d4581612a84565b9550604088013594506060880135612d5c81612a84565b9350608088013567ffffffffffffffff80821115612d7957600080fd5b612d858b838c01612839565b945060a08a0135915080821115612d9b57600080fd5b50612da88a828b0161298a565b989b979a50959850939692959293505050565b600060208284031215612dcd57600080fd5b8135612dd881612a84565b9392505050565b60008060008060808587031215612df557600080fd5b612dfe8561279a565b9350612e0c6020860161279a565b92506040850135612e1c81612a84565b9396929550929360600135925050565b600181811c90821680612e4057607f821691505b60208210811415612e7a577f4e487b7100000000000000000000000000000000000000000000000000000000600052602260045260246000fd5b50919050565b8183823760009101908152919050565b818352818160208501375060006020828401015260006020601f19601f840116840101905092915050565b61ffff841681526040602082015260006115c0604083018486612e90565b600061ffff808816835280871660208401525084604083015260806060830152612f07608083018486612e90565b979650505050505050565b60008251612f24818460208701612b88565b9190910192915050565b61ffff83168152604060208201526000612f4b6040830184612bb4565b949350505050565b600082601f830112612f6457600080fd5b8151612f7261285882612811565b818152846020838601011115612f8757600080fd5b612f4b826020830160208701612b88565b600060208284031215612faa57600080fd5b815167ffffffffffffffff811115612fc157600080fd5b612f4b84828501612f53565b61ffff85168152608060208201526000612fea6080830186612bb4565b67ffffffffffffffff851660408401528281036060840152612f078185612bb4565b60008060008060008060c0878903121561302557600080fd5b865161303081612a84565b602088015190965061304181612a84565b604088015190955061305281612a84565b606088015190945061306381612a84565b608088015160a0890151919450925067ffffffffffffffff81111561308757600080fd5b61309389828a01612f53565b9150509295509295509295565b6000602082840312156130b257600080fd5b8151612dd881612a84565b73ffffffffffffffffffffffffffffffffffffffff841681528260208201526060604082015260006115c06060830184612bb4565b600073ffffffffffffffffffffffffffffffffffffffff80891683528088166020840152808716604084015280861660608401525083608083015260c060a083015261314160c0830184612bb4565b98975050505050505050565b60008219821115613187577f4e487b7100000000000000000000000000000000000000000000000000000000600052601160045260246000fd5b500190565b600073ffffffffffffffffffffffffffffffffffffffff808a1683528089166020840152808816604084015280871660608401525084608083015260c060a08301526131dc60c083018486612e90565b9998505050505050505050565b73ffffffffffffffffffffffffffffffffffffffff85168152836020820152606060408201526000612357606083018486612e90565b61ffff8716815260c06020820152600061323c60c0830188612bb4565b828103604084015261324e8188612bb4565b73ffffffffffffffffffffffffffffffffffffffff87811660608601528616608085015283810360a085015290506131dc8185612bb4565b60006020828403121561329857600080fd5b8151612dd881612bf356fea164736f6c6343000809000a",
  "linkReferences": {},
  "deployedLinkReferences": {}
}