{
  "_format": "hh-sol-artifact-1",
  "contractName": "EthBridge",
  "sourceName": "contracts/lzTokenBridge/EthBridge.sol",
  "abi": [
    {
      "anonymous": false,
      "inputs": [
        {
          "indexed": true,
          "internalType": "address",
          "name": "_l1Token",
          "type": "address"
        },
        {
          "indexed": true,
          "internalType": "address",
          "name": "_l2Token",
          "type": "address"
        },
        {
          "indexed": true,
          "internalType": "address",
          "name": "_from",
          "type": "address"
        },
        {
          "indexed": false,
          "internalType": "address",
          "name": "_to",
          "type": "address"
        },
        {
          "indexed": false,
          "internalType": "uint256",
          "name": "_amount",
          "type": "uint256"
        },
        {
          "indexed": false,
          "internalType": "bytes",
          "name": "_data",
          "type": "bytes"
        }
      ],
      "name": "ERC20DepositInitiated",
      "type": "event"
    },
    {
      "anonymous": false,
      "inputs": [
        {
          "indexed": true,
          "internalType": "address",
          "name": "_l1Token",
          "type": "address"
        },
        {
          "indexed": true,
          "internalType": "address",
          "name": "_l2Token",
          "type": "address"
        },
        {
          "indexed": true,
          "internalType": "address",
          "name": "_from",
          "type": "address"
        },
        {
          "indexed": false,
          "internalType": "address",
          "name": "_to",
          "type": "address"
        },
        {
          "indexed": false,
          "internalType": "uint256",
          "name": "_amount",
          "type": "uint256"
        },
        {
          "indexed": false,
          "internalType": "bytes",
          "name": "_data",
          "type": "bytes"
        }
      ],
      "name": "ERC20WithdrawalFinalized",
      "type": "event"
    },
    {
      "anonymous": false,
      "inputs": [
        {
          "indexed": false,
          "internalType": "uint16",
          "name": "_srcChainId",
          "type": "uint16"
        },
        {
          "indexed": false,
          "internalType": "bytes",
          "name": "_srcAddress",
          "type": "bytes"
        },
        {
          "indexed": false,
          "internalType": "uint64",
          "name": "_nonce",
          "type": "uint64"
        },
        {
          "indexed": false,
          "internalType": "bytes",
          "name": "_payload",
          "type": "bytes"
        }
      ],
      "name": "MessageFailed",
      "type": "event"
    },
    {
      "anonymous": false,
      "inputs": [
        {
          "indexed": true,
          "internalType": "address",
          "name": "previousOwner",
          "type": "address"
        },
        {
          "indexed": true,
          "internalType": "address",
          "name": "newOwner",
          "type": "address"
        }
      ],
      "name": "OwnershipTransferred",
      "type": "event"
    },
    {
      "anonymous": false,
      "inputs": [
        {
          "indexed": false,
          "internalType": "uint16",
          "name": "_srcChainId",
          "type": "uint16"
        },
        {
          "indexed": false,
          "internalType": "bytes",
          "name": "_srcAddress",
          "type": "bytes"
        }
      ],
      "name": "SetTrustedRemote",
      "type": "event"
    },
    {
      "inputs": [],
      "name": "FUNCTION_TYPE_SEND",
      "outputs": [
        {
          "internalType": "uint256",
          "name": "",
          "type": "uint256"
        }
      ],
      "stateMutability": "view",
      "type": "function"
    },
    {
      "inputs": [],
      "name": "NO_EXTRA_GAS",
      "outputs": [
        {
          "internalType": "uint256",
          "name": "",
          "type": "uint256"
        }
      ],
      "stateMutability": "view",
      "type": "function"
    },
    {
      "inputs": [
        {
          "internalType": "address",
          "name": "_l1Token",
          "type": "address"
        },
        {
          "internalType": "address",
          "name": "_l2Token",
          "type": "address"
        },
        {
          "internalType": "uint256",
          "name": "_amount",
          "type": "uint256"
        },
        {
          "internalType": "address",
          "name": "_zroPaymentAddress",
          "type": "address"
        },
        {
          "internalType": "bytes",
          "name": "_adapterParams",
          "type": "bytes"
        },
        {
          "internalType": "bytes",
          "name": "_data",
          "type": "bytes"
        }
      ],
      "name": "depositERC20",
      "outputs": [],
      "stateMutability": "payable",
      "type": "function"
    },
    {
      "inputs": [
        {
          "internalType": "address",
          "name": "_l1Token",
          "type": "address"
        },
        {
          "internalType": "address",
          "name": "_l2Token",
          "type": "address"
        },
        {
          "internalType": "address",
          "name": "_to",
          "type": "address"
        },
        {
          "internalType": "uint256",
          "name": "_amount",
          "type": "uint256"
        },
        {
          "internalType": "address",
          "name": "_zroPaymentAddress",
          "type": "address"
        },
        {
          "internalType": "bytes",
          "name": "_adapterParams",
          "type": "bytes"
        },
        {
          "internalType": "bytes",
          "name": "_data",
          "type": "bytes"
        }
      ],
      "name": "depositERC20To",
      "outputs": [],
      "stateMutability": "payable",
      "type": "function"
    },
    {
      "inputs": [
        {
          "internalType": "address",
          "name": "",
          "type": "address"
        },
        {
          "internalType": "address",
          "name": "",
          "type": "address"
        }
      ],
      "name": "deposits",
      "outputs": [
        {
          "internalType": "uint256",
          "name": "",
          "type": "uint256"
        }
      ],
      "stateMutability": "view",
      "type": "function"
    },
    {
      "inputs": [],
      "name": "dstChainId",
      "outputs": [
        {
          "internalType": "uint16",
          "name": "",
          "type": "uint16"
        }
      ],
      "stateMutability": "view",
      "type": "function"
    },
    {
      "inputs": [
        {
          "internalType": "uint16",
          "name": "",
          "type": "uint16"
        },
        {
          "internalType": "bytes",
          "name": "",
          "type": "bytes"
        },
        {
          "internalType": "uint64",
          "name": "",
          "type": "uint64"
        }
      ],
      "name": "failedMessages",
      "outputs": [
        {
          "internalType": "bytes32",
          "name": "",
          "type": "bytes32"
        }
      ],
      "stateMutability": "view",
      "type": "function"
    },
    {
      "inputs": [
        {
          "internalType": "uint16",
          "name": "_srcChainId",
          "type": "uint16"
        },
        {
          "internalType": "bytes",
          "name": "_srcAddress",
          "type": "bytes"
        }
      ],
      "name": "forceResumeReceive",
      "outputs": [],
      "stateMutability": "nonpayable",
      "type": "function"
    },
    {
      "inputs": [
        {
          "internalType": "uint16",
          "name": "_version",
          "type": "uint16"
        },
        {
          "internalType": "uint16",
          "name": "_chainId",
          "type": "uint16"
        },
        {
          "internalType": "address",
          "name": "",
          "type": "address"
        },
        {
          "internalType": "uint256",
          "name": "_configType",
          "type": "uint256"
        }
      ],
      "name": "getConfig",
      "outputs": [
        {
          "internalType": "bytes",
          "name": "",
          "type": "bytes"
        }
      ],
      "stateMutability": "view",
      "type": "function"
    },
    {
      "inputs": [
        {
          "internalType": "address",
          "name": "_lzEndpoint",
          "type": "address"
        },
        {
          "internalType": "uint16",
          "name": "_dstChainId",
          "type": "uint16"
        },
        {
          "internalType": "address",
          "name": "_altL1BridgeAddress",
          "type": "address"
        }
      ],
      "name": "initialize",
      "outputs": [],
      "stateMutability": "nonpayable",
      "type": "function"
    },
    {
      "inputs": [
        {
          "internalType": "uint16",
          "name": "_srcChainId",
          "type": "uint16"
        },
        {
          "internalType": "bytes",
          "name": "_srcAddress",
          "type": "bytes"
        }
      ],
      "name": "isTrustedRemote",
      "outputs": [
        {
          "internalType": "bool",
          "name": "",
          "type": "bool"
        }
      ],
      "stateMutability": "view",
      "type": "function"
    },
    {
      "inputs": [],
      "name": "lzEndpoint",
      "outputs": [
        {
          "internalType": "contract ILayerZeroEndpoint",
          "name": "",
          "type": "address"
        }
      ],
      "stateMutability": "view",
      "type": "function"
    },
    {
      "inputs": [
        {
          "internalType": "uint16",
          "name": "_srcChainId",
          "type": "uint16"
        },
        {
          "internalType": "bytes",
          "name": "_srcAddress",
          "type": "bytes"
        },
        {
          "internalType": "uint64",
          "name": "_nonce",
          "type": "uint64"
        },
        {
          "internalType": "bytes",
          "name": "_payload",
          "type": "bytes"
        }
      ],
      "name": "lzReceive",
      "outputs": [],
      "stateMutability": "nonpayable",
      "type": "function"
    },
    {
      "inputs": [],
      "name": "maxTransferAmountPerDay",
      "outputs": [
        {
          "internalType": "uint256",
          "name": "",
          "type": "uint256"
        }
      ],
      "stateMutability": "view",
      "type": "function"
    },
    {
      "inputs": [
        {
          "internalType": "uint16",
          "name": "",
          "type": "uint16"
        },
        {
          "internalType": "uint256",
          "name": "",
          "type": "uint256"
        }
      ],
      "name": "minDstGasLookup",
      "outputs": [
        {
          "internalType": "uint256",
          "name": "",
          "type": "uint256"
        }
      ],
      "stateMutability": "view",
      "type": "function"
    },
    {
      "inputs": [
        {
          "internalType": "uint16",
          "name": "_srcChainId",
          "type": "uint16"
        },
        {
          "internalType": "bytes",
          "name": "_srcAddress",
          "type": "bytes"
        },
        {
          "internalType": "uint64",
          "name": "_nonce",
          "type": "uint64"
        },
        {
          "internalType": "bytes",
          "name": "_payload",
          "type": "bytes"
        }
      ],
      "name": "nonblockingLzReceive",
      "outputs": [],
      "stateMutability": "nonpayable",
      "type": "function"
    },
    {
      "inputs": [],
      "name": "owner",
      "outputs": [
        {
          "internalType": "address",
          "name": "",
          "type": "address"
        }
      ],
      "stateMutability": "view",
      "type": "function"
    },
    {
      "inputs": [],
      "name": "renounceOwnership",
      "outputs": [],
      "stateMutability": "nonpayable",
      "type": "function"
    },
    {
      "inputs": [
        {
          "internalType": "uint16",
          "name": "_srcChainId",
          "type": "uint16"
        },
        {
          "internalType": "bytes",
          "name": "_srcAddress",
          "type": "bytes"
        },
        {
          "internalType": "uint64",
          "name": "_nonce",
          "type": "uint64"
        },
        {
          "internalType": "bytes",
          "name": "_payload",
          "type": "bytes"
        }
      ],
      "name": "retryMessage",
      "outputs": [],
      "stateMutability": "payable",
      "type": "function"
    },
    {
      "inputs": [
        {
          "internalType": "uint16",
          "name": "_version",
          "type": "uint16"
        },
        {
          "internalType": "uint16",
          "name": "_chainId",
          "type": "uint16"
        },
        {
          "internalType": "uint256",
          "name": "_configType",
          "type": "uint256"
        },
        {
          "internalType": "bytes",
          "name": "_config",
          "type": "bytes"
        }
      ],
      "name": "setConfig",
      "outputs": [],
      "stateMutability": "nonpayable",
      "type": "function"
    },
    {
      "inputs": [
        {
          "internalType": "uint256",
          "name": "_maxTransferAmountPerDay",
          "type": "uint256"
        }
      ],
      "name": "setMaxTransferAmountPerDay",
      "outputs": [],
      "stateMutability": "nonpayable",
      "type": "function"
    },
    {
      "inputs": [
        {
          "internalType": "uint16",
          "name": "_dstChainId",
          "type": "uint16"
        },
        {
          "internalType": "uint256",
          "name": "_type",
          "type": "uint256"
        },
        {
          "internalType": "uint256",
          "name": "_dstGasAmount",
          "type": "uint256"
        }
      ],
      "name": "setMinDstGasLookup",
      "outputs": [],
      "stateMutability": "nonpayable",
      "type": "function"
    },
    {
      "inputs": [
        {
          "internalType": "uint16",
          "name": "_version",
          "type": "uint16"
        }
      ],
      "name": "setReceiveVersion",
      "outputs": [],
      "stateMutability": "nonpayable",
      "type": "function"
    },
    {
      "inputs": [
        {
          "internalType": "uint16",
          "name": "_version",
          "type": "uint16"
        }
      ],
      "name": "setSendVersion",
      "outputs": [],
      "stateMutability": "nonpayable",
      "type": "function"
    },
    {
      "inputs": [
        {
          "internalType": "uint16",
          "name": "_srcChainId",
          "type": "uint16"
        },
        {
          "internalType": "bytes",
          "name": "_srcAddress",
          "type": "bytes"
        }
      ],
      "name": "setTrustedRemote",
      "outputs": [],
      "stateMutability": "nonpayable",
      "type": "function"
    },
    {
      "inputs": [
        {
          "internalType": "bool",
          "name": "_useCustomAdapterParams",
          "type": "bool"
        },
        {
          "internalType": "uint256",
          "name": "_dstGasAmount",
          "type": "uint256"
        }
      ],
      "name": "setUseCustomAdapterParams",
      "outputs": [],
      "stateMutability": "nonpayable",
      "type": "function"
    },
    {
      "inputs": [
        {
          "internalType": "address",
          "name": "newOwner",
          "type": "address"
        }
      ],
      "name": "transferOwnership",
      "outputs": [],
      "stateMutability": "nonpayable",
      "type": "function"
    },
    {
      "inputs": [],
      "name": "transferTimestampCheckPoint",
      "outputs": [
        {
          "internalType": "uint256",
          "name": "",
          "type": "uint256"
        }
      ],
      "stateMutability": "view",
      "type": "function"
    },
    {
      "inputs": [],
      "name": "transferredAmount",
      "outputs": [
        {
          "internalType": "uint256",
          "name": "",
          "type": "uint256"
        }
      ],
      "stateMutability": "view",
      "type": "function"
    },
    {
      "inputs": [
        {
          "internalType": "uint16",
          "name": "",
          "type": "uint16"
        }
      ],
      "name": "trustedRemoteLookup",
      "outputs": [
        {
          "internalType": "bytes",
          "name": "",
          "type": "bytes"
        }
      ],
      "stateMutability": "view",
      "type": "function"
    },
    {
      "inputs": [],
      "name": "useCustomAdapterParams",
      "outputs": [
        {
          "internalType": "bool",
          "name": "",
          "type": "bool"
        }
      ],
      "stateMutability": "view",
      "type": "function"
    }
  ],
  "bytecode": "0x608060405234801561001057600080fd5b50613382806100206000396000f3fe6080604052600436106101d75760003560e01c8063715018a611610102578063b353aaa711610095578063eb8d72b711610064578063eb8d72b7146105ae578063ed629c5c146105ce578063f2fde38b146105ee578063f5ecbdbc1461060e57600080fd5b8063b353aaa714610538578063c8ed191014610565578063cbed8b9c1461057b578063d1deba1f1461059b57600080fd5b80638f601f66116100d15780638f601f66146104b5578063901eec16146104ed5780639b57db5f14610503578063af3fb21c1461052357600080fd5b8063715018a6146104075780637533d7881461041c5780637e0ced09146104495780638da5cb5b1461046957600080fd5b80633d8b38f61161017a5780635b8c41e6116101495780635b8c41e61461036557806365f77189146103b457806366ad5c8a146103c7578063708c0db9146103e757600080fd5b80633d8b38f6146102ea57806342d65a8d1461031a578063447705151461033a578063512afd891461034f57600080fd5b80630d265fdb116101b65780630d265fdb1461026957806310ddb1371461027c57806330c593f71461029c5780633496a68e146102ca57600080fd5b80621d3567146101dc57806307810867146101fe57806307e0db1714610249575b600080fd5b3480156101e857600080fd5b506101fc6101f7366004612984565b61062e565b005b34801561020a57600080fd5b50610236610219366004612a09565b606760209081526000928352604080842090915290825290205481565b6040519081526020015b60405180910390f35b34801561025557600080fd5b506101fc610264366004612a33565b6107f1565b6101fc610277366004612ab9565b6108dc565b34801561028857600080fd5b506101fc610297366004612a33565b610945565b3480156102a857600080fd5b5060cd546102b79061ffff1681565b60405161ffff9091168152602001610240565b3480156102d657600080fd5b506101fc6102e5366004612b65565b610a06565b3480156102f657600080fd5b5061030a610305366004612b7e565b610a72565b6040519015158152602001610240565b34801561032657600080fd5b506101fc610335366004612b7e565b610b3f565b34801561034657600080fd5b50610236600081565b34801561035b57600080fd5b5061023660ce5481565b34801561037157600080fd5b50610236610380366004612bd1565b609a602090815260009384526040808520845180860184018051928152908401958401959095209452929052825290205481565b6101fc6103c2366004612c2f565b610c2e565b3480156103d357600080fd5b506101fc6103e2366004612984565b610c49565b3480156103f357600080fd5b506101fc610402366004612ced565b610cd0565b34801561041357600080fd5b506101fc610eb2565b34801561042857600080fd5b5061043c610437366004612a33565b610f25565b6040516102409190612d8e565b34801561045557600080fd5b506101fc610464366004612daf565b610fbf565b34801561047557600080fd5b5060335473ffffffffffffffffffffffffffffffffffffffff165b60405173ffffffffffffffffffffffffffffffffffffffff9091168152602001610240565b3480156104c157600080fd5b506102366104d0366004612dcd565b60d160209081526000928352604080842090915290825290205481565b3480156104f957600080fd5b5061023660d05481565b34801561050f57600080fd5b506101fc61051e366004612e06565b611073565b34801561052f57600080fd5b50610236600181565b34801561054457600080fd5b506065546104909073ffffffffffffffffffffffffffffffffffffffff1681565b34801561057157600080fd5b5061023660cf5481565b34801561058757600080fd5b506101fc610596366004612e39565b61114b565b6101fc6105a9366004612984565b611249565b3480156105ba57600080fd5b506101fc6105c9366004612ea8565b6113d3565b3480156105da57600080fd5b5060cd5461030a9062010000900460ff1681565b3480156105fa57600080fd5b506101fc610609366004612ef6565b61149c565b34801561061a57600080fd5b5061043c610629366004612f13565b611598565b60655473ffffffffffffffffffffffffffffffffffffffff163373ffffffffffffffffffffffffffffffffffffffff16146106b05760405162461bcd60e51b815260206004820152601e60248201527f4c7a4170703a20696e76616c696420656e64706f696e742063616c6c6572000060448201526064015b60405180910390fd5b61ffff8416600090815260666020526040812080546106ce90612f60565b80601f01602080910402602001604051908101604052809291908181526020018280546106fa90612f60565b80156107475780601f1061071c57610100808354040283529160200191610747565b820191906000526020600020905b81548152906001019060200180831161072a57829003601f168201915b505050505090508051845114801561076c575080805190602001208480519060200120145b6107de5760405162461bcd60e51b815260206004820152602660248201527f4c7a4170703a20696e76616c696420736f757263652073656e64696e6720636f60448201527f6e7472616374000000000000000000000000000000000000000000000000000060648201526084016106a7565b6107ea85858585611660565b5050505050565b60335473ffffffffffffffffffffffffffffffffffffffff1633146108585760405162461bcd60e51b815260206004820181905260248201527f4f776e61626c653a2063616c6c6572206973206e6f7420746865206f776e657260448201526064016106a7565b6065546040517f07e0db1700000000000000000000000000000000000000000000000000000000815261ffff8316600482015273ffffffffffffffffffffffffffffffffffffffff909116906307e0db17906024015b600060405180830381600087803b1580156108c857600080fd5b505af11580156107ea573d6000803e3d6000fd5b333b1561092b5760405162461bcd60e51b815260206004820152600f60248201527f4163636f756e74206e6f7420454f41000000000000000000000000000000000060448201526064016106a7565b61093c87873333898989898961176b565b50505050505050565b60335473ffffffffffffffffffffffffffffffffffffffff1633146109ac5760405162461bcd60e51b815260206004820181905260248201527f4f776e61626c653a2063616c6c6572206973206e6f7420746865206f776e657260448201526064016106a7565b6065546040517f10ddb13700000000000000000000000000000000000000000000000000000000815261ffff8316600482015273ffffffffffffffffffffffffffffffffffffffff909116906310ddb137906024016108ae565b60335473ffffffffffffffffffffffffffffffffffffffff163314610a6d5760405162461bcd60e51b815260206004820181905260248201527f4f776e61626c653a2063616c6c6572206973206e6f7420746865206f776e657260448201526064016106a7565b60ce55565b61ffff831660009081526066602052604081208054829190610a9390612f60565b80601f0160208091040260200160405190810160405280929190818152602001828054610abf90612f60565b8015610b0c5780601f10610ae157610100808354040283529160200191610b0c565b820191906000526020600020905b815481529060010190602001808311610aef57829003601f168201915b505050505090508383604051610b23929190612fb4565b60405180910390208180519060200120149150505b9392505050565b60335473ffffffffffffffffffffffffffffffffffffffff163314610ba65760405162461bcd60e51b815260206004820181905260248201527f4f776e61626c653a2063616c6c6572206973206e6f7420746865206f776e657260448201526064016106a7565b6065546040517f42d65a8d00000000000000000000000000000000000000000000000000000000815273ffffffffffffffffffffffffffffffffffffffff909116906342d65a8d90610c0090869086908690600401612fef565b600060405180830381600087803b158015610c1a57600080fd5b505af115801561093c573d6000803e3d6000fd5b610c3f88883389898989898961176b565b5050505050505050565b333014610cbe5760405162461bcd60e51b815260206004820152602660248201527f4e6f6e626c6f636b696e674c7a4170703a2063616c6c6572206d75737420626560448201527f204c7a417070000000000000000000000000000000000000000000000000000060648201526084016106a7565b610cca84848484611a65565b50505050565b600054610100900460ff1680610ce9575060005460ff16155b610d5b5760405162461bcd60e51b815260206004820152602e60248201527f496e697469616c697a61626c653a20636f6e747261637420697320616c72656160448201527f647920696e697469616c697a656400000000000000000000000000000000000060648201526084016106a7565b600054610100900460ff16158015610d7d576000805461ffff19166101011790555b73ffffffffffffffffffffffffffffffffffffffff8416610e065760405162461bcd60e51b815260206004820152602260248201527f6c7a20656e64706f696e742063616e6e6f74206265207a65726f20616464726560448201527f737300000000000000000000000000000000000000000000000000000000000060648201526084016106a7565b610e0f84611be3565b60cd805461ffff191661ffff85161790556040517fffffffffffffffffffffffffffffffffffffffff000000000000000000000000606084901b166020820152610e6c9084906034016040516020818303038152906040526113d3565b4260d0556969e10de76676d080000060ce558015610cca57600080547fffffffffffffffffffffffffffffffffffffffffffffffffffffffffffff00ff16905550505050565b60335473ffffffffffffffffffffffffffffffffffffffff163314610f195760405162461bcd60e51b815260206004820181905260248201527f4f776e61626c653a2063616c6c6572206973206e6f7420746865206f776e657260448201526064016106a7565b610f236000611ccb565b565b60666020526000908152604090208054610f3e90612f60565b80601f0160208091040260200160405190810160405280929190818152602001828054610f6a90612f60565b8015610fb75780601f10610f8c57610100808354040283529160200191610fb7565b820191906000526020600020905b815481529060010190602001808311610f9a57829003601f168201915b505050505081565b60335473ffffffffffffffffffffffffffffffffffffffff1633146110265760405162461bcd60e51b815260206004820181905260248201527f4f776e61626c653a2063616c6c6572206973206e6f7420746865206f776e657260448201526064016106a7565b60cd805483151562010000027fffffffffffffffffffffffffffffffffffffffffffffffffffffffffff00ffff8216811790925561106f9161ffff908116911617600183611073565b5050565b60335473ffffffffffffffffffffffffffffffffffffffff1633146110da5760405162461bcd60e51b815260206004820181905260248201527f4f776e61626c653a2063616c6c6572206973206e6f7420746865206f776e657260448201526064016106a7565b6000811161112a5760405162461bcd60e51b815260206004820152601c60248201527f4c7a4170703a20696e76616c6964205f647374476173416d6f756e740000000060448201526064016106a7565b61ffff90921660009081526067602090815260408083209383529290522055565b60335473ffffffffffffffffffffffffffffffffffffffff1633146111b25760405162461bcd60e51b815260206004820181905260248201527f4f776e61626c653a2063616c6c6572206973206e6f7420746865206f776e657260448201526064016106a7565b6065546040517fcbed8b9c00000000000000000000000000000000000000000000000000000000815273ffffffffffffffffffffffffffffffffffffffff9091169063cbed8b9c90611210908890889088908890889060040161300d565b600060405180830381600087803b15801561122a57600080fd5b505af115801561123e573d6000803e3d6000fd5b505050505050505050565b61ffff84166000908152609a6020526040808220905161126a90869061303b565b908152604080516020928190038301902067ffffffffffffffff8616600090815292529020549050806113055760405162461bcd60e51b815260206004820152602360248201527f4e6f6e626c6f636b696e674c7a4170703a206e6f2073746f726564206d65737360448201527f616765000000000000000000000000000000000000000000000000000000000060648201526084016106a7565b8151602083012081146113805760405162461bcd60e51b815260206004820152602160248201527f4e6f6e626c6f636b696e674c7a4170703a20696e76616c6964207061796c6f6160448201527f640000000000000000000000000000000000000000000000000000000000000060648201526084016106a7565b61ffff85166000908152609a602052604080822090516113a190879061303b565b908152604080516020928190038301902067ffffffffffffffff8716600090815292529020556107ea85858585611a65565b60335473ffffffffffffffffffffffffffffffffffffffff16331461143a5760405162461bcd60e51b815260206004820181905260248201527f4f776e61626c653a2063616c6c6572206973206e6f7420746865206f776e657260448201526064016106a7565b61ffff82166000908152606660209081526040909120825161145e928401906127de565b507ffa41487ad5d6728f0b19276fa1eddc16558578f5109fc39d2dc33c3230470dab8282604051611490929190613057565b60405180910390a15050565b60335473ffffffffffffffffffffffffffffffffffffffff1633146115035760405162461bcd60e51b815260206004820181905260248201527f4f776e61626c653a2063616c6c6572206973206e6f7420746865206f776e657260448201526064016106a7565b73ffffffffffffffffffffffffffffffffffffffff811661158c5760405162461bcd60e51b815260206004820152602660248201527f4f776e61626c653a206e6577206f776e657220697320746865207a65726f206160448201527f646472657373000000000000000000000000000000000000000000000000000060648201526084016106a7565b61159581611ccb565b50565b6065546040517ff5ecbdbc00000000000000000000000000000000000000000000000000000000815261ffff8087166004830152851660248201523060448201526064810183905260609173ffffffffffffffffffffffffffffffffffffffff169063f5ecbdbc9060840160006040518083038186803b15801561161b57600080fd5b505afa15801561162f573d6000803e3d6000fd5b505050506040513d6000823e601f3d908101601f1916820160405261165791908101906130b9565b95945050505050565b6040517f66ad5c8a00000000000000000000000000000000000000000000000000000000815230906366ad5c8a906116a29087908790879087906004016130ee565b600060405180830381600087803b1580156116bc57600080fd5b505af19250505080156116cd575060015b610cca578080519060200120609a60008661ffff1661ffff16815260200190815260200160002084604051611702919061303b565b90815260408051918290036020908101832067ffffffffffffffff87166000908152915220919091557fe6f254030bcb01ffd20558175c13fcaed6d1520be7becee4c961b65f79243b0d9061175e9086908690869086906130ee565b60405180910390a1610cca565b73ffffffffffffffffffffffffffffffffffffffff86166117ce5760405162461bcd60e51b815260206004820152601a60248201527f5f746f2063616e6e6f74206265207a65726f206164647265737300000000000060448201526064016106a7565b60d0546117de906201518061315c565b421015611855578460cf60008282546117f7919061315c565b909155505060ce5460cf5411156118505760405162461bcd60e51b815260206004820152601b60248201527f6d617820616d6f756e742070657220646179206578636565646564000000000060448201526064016106a7565b61185f565b60cf8590554260d0555b61188173ffffffffffffffffffffffffffffffffffffffff8a16883088611d42565b6000898989898987876040516020016118a09796959493929190613174565b60408051808303601f1901815291905260cd5490915062010000900460ff16156118de5760cd546118d99061ffff166001866000611e00565b611952565b8351156119525760405162461bcd60e51b8152602060048201526024808201527f4c7a4170703a205f61646170746572506172616d73206d75737420626520656d60448201527f7074792e0000000000000000000000000000000000000000000000000000000060648201526084016106a7565b73ffffffffffffffffffffffffffffffffffffffff808b16600090815260d160209081526040808320938d168352929052205461199090879061315c565b73ffffffffffffffffffffffffffffffffffffffff808c16600090815260d160209081526040808320938e168352929052205560cd546119d79061ffff1682338888611ee5565b8773ffffffffffffffffffffffffffffffffffffffff168973ffffffffffffffffffffffffffffffffffffffff168b73ffffffffffffffffffffffffffffffffffffffff167f718594027abd4eaed59f95162563e0cc6d0e8d5b86b1c7be8b1b0ac3343d03968a8a8888604051611a5194939291906131d1565b60405180910390a450505050505050505050565b60cd5461ffff858116911614611abd5760405162461bcd60e51b815260206004820152601660248201527f496e76616c696420736f7572636520636861696e49640000000000000000000060448201526064016106a7565b60008060008060008086806020019051810190611ada9190613211565b73ffffffffffffffffffffffffffffffffffffffff808716600090815260d16020908152604080832093891683529290522054959b50939950919750955093509150611b279083906132a5565b73ffffffffffffffffffffffffffffffffffffffff808816600081815260d160209081526040808320948b1683529390529190912091909155611b6b908484612097565b8373ffffffffffffffffffffffffffffffffffffffff168573ffffffffffffffffffffffffffffffffffffffff168773ffffffffffffffffffffffffffffffffffffffff167f3ceee06c1e37648fcbb6ed52e17b3e1f275a1f8c7b22a84b2b84732431e046b3868686604051611a51939291906132bc565b600054610100900460ff1680611bfc575060005460ff16155b611c6e5760405162461bcd60e51b815260206004820152602e60248201527f496e697469616c697a61626c653a20636f6e747261637420697320616c72656160448201527f647920696e697469616c697a656400000000000000000000000000000000000060648201526084016106a7565b600054610100900460ff16158015611c90576000805461ffff19166101011790555b611c99826120f2565b801561106f57600080547fffffffffffffffffffffffffffffffffffffffffffffffffffffffffffff00ff1690555050565b6033805473ffffffffffffffffffffffffffffffffffffffff8381167fffffffffffffffffffffffff0000000000000000000000000000000000000000831681179093556040519116919082907f8be0079c531659141344cd1fd0a4f28419497f9722a3daafe3b4186f6b6457e090600090a35050565b60405173ffffffffffffffffffffffffffffffffffffffff80851660248301528316604482015260648101829052610cca9085907f23b872dd00000000000000000000000000000000000000000000000000000000906084015b60408051601f198184030181529190526020810180517bffffffffffffffffffffffffffffffffffffffffffffffffffffffff167fffffffff00000000000000000000000000000000000000000000000000000000909316929092179091526121b0565b6000611e0d836022015190565b61ffff8616600090815260676020908152604080832088845290915281205491925090611e3b90849061315c565b905060008111611e8d5760405162461bcd60e51b815260206004820152601a60248201527f4c7a4170703a206d696e4761734c696d6974206e6f742073657400000000000060448201526064016106a7565b80821015611edd5760405162461bcd60e51b815260206004820152601b60248201527f4c7a4170703a20676173206c696d697420697320746f6f206c6f77000000000060448201526064016106a7565b505050505050565b61ffff851660009081526066602052604081208054611f0390612f60565b80601f0160208091040260200160405190810160405280929190818152602001828054611f2f90612f60565b8015611f7c5780601f10611f5157610100808354040283529160200191611f7c565b820191906000526020600020905b815481529060010190602001808311611f5f57829003601f168201915b50505050509050805160001415611ffb5760405162461bcd60e51b815260206004820152603060248201527f4c7a4170703a2064657374696e6174696f6e20636861696e206973206e6f742060448201527f61207472757374656420736f757263650000000000000000000000000000000060648201526084016106a7565b6065546040517fc580310000000000000000000000000000000000000000000000000000000000815273ffffffffffffffffffffffffffffffffffffffff9091169063c580310090349061205d908a9086908b908b908b908b906004016132f1565b6000604051808303818588803b15801561207657600080fd5b505af115801561208a573d6000803e3d6000fd5b5050505050505050505050565b60405173ffffffffffffffffffffffffffffffffffffffff83166024820152604481018290526120ed9084907fa9059cbb0000000000000000000000000000000000000000000000000000000090606401611d9c565b505050565b600054610100900460ff168061210b575060005460ff16155b61217d5760405162461bcd60e51b815260206004820152602e60248201527f496e697469616c697a61626c653a20636f6e747261637420697320616c72656160448201527f647920696e697469616c697a656400000000000000000000000000000000000060648201526084016106a7565b600054610100900460ff1615801561219f576000805461ffff19166101011790555b6121a76122a2565b611c9982612390565b6000612212826040518060400160405280602081526020017f5361666545524332303a206c6f772d6c6576656c2063616c6c206661696c65648152508573ffffffffffffffffffffffffffffffffffffffff166124af9092919063ffffffff16565b8051909150156120ed57808060200190518101906122309190613358565b6120ed5760405162461bcd60e51b815260206004820152602a60248201527f5361666545524332303a204552433230206f7065726174696f6e20646964206e60448201527f6f7420737563636565640000000000000000000000000000000000000000000060648201526084016106a7565b600054610100900460ff16806122bb575060005460ff16155b61232d5760405162461bcd60e51b815260206004820152602e60248201527f496e697469616c697a61626c653a20636f6e747261637420697320616c72656160448201527f647920696e697469616c697a656400000000000000000000000000000000000060648201526084016106a7565b600054610100900460ff1615801561234f576000805461ffff19166101011790555b6123576124c6565b61235f6125a3565b801561159557600080547fffffffffffffffffffffffffffffffffffffffffffffffffffffffffffff00ff16905550565b600054610100900460ff16806123a9575060005460ff16155b61241b5760405162461bcd60e51b815260206004820152602e60248201527f496e697469616c697a61626c653a20636f6e747261637420697320616c72656160448201527f647920696e697469616c697a656400000000000000000000000000000000000060648201526084016106a7565b600054610100900460ff1615801561243d576000805461ffff19166101011790555b606580547fffffffffffffffffffffffff00000000000000000000000000000000000000001673ffffffffffffffffffffffffffffffffffffffff8416179055801561106f57600080547fffffffffffffffffffffffffffffffffffffffffffffffffffffffffffff00ff1690555050565b60606124be8484600085612659565b949350505050565b600054610100900460ff16806124df575060005460ff16155b6125515760405162461bcd60e51b815260206004820152602e60248201527f496e697469616c697a61626c653a20636f6e747261637420697320616c72656160448201527f647920696e697469616c697a656400000000000000000000000000000000000060648201526084016106a7565b600054610100900460ff1615801561235f576000805461ffff1916610101179055801561159557600080547fffffffffffffffffffffffffffffffffffffffffffffffffffffffffffff00ff16905550565b600054610100900460ff16806125bc575060005460ff16155b61262e5760405162461bcd60e51b815260206004820152602e60248201527f496e697469616c697a61626c653a20636f6e747261637420697320616c72656160448201527f647920696e697469616c697a656400000000000000000000000000000000000060648201526084016106a7565b600054610100900460ff16158015612650576000805461ffff19166101011790555b61235f33611ccb565b6060824710156126d15760405162461bcd60e51b815260206004820152602660248201527f416464726573733a20696e73756666696369656e742062616c616e636520666f60448201527f722063616c6c000000000000000000000000000000000000000000000000000060648201526084016106a7565b843b61271f5760405162461bcd60e51b815260206004820152601d60248201527f416464726573733a2063616c6c20746f206e6f6e2d636f6e747261637400000060448201526064016106a7565b6000808673ffffffffffffffffffffffffffffffffffffffff168587604051612748919061303b565b60006040518083038185875af1925050503d8060008114612785576040519150601f19603f3d011682016040523d82523d6000602084013e61278a565b606091505b509150915061279a8282866127a5565b979650505050505050565b606083156127b4575081610b38565b8251156127c45782518084602001fd5b8160405162461bcd60e51b81526004016106a79190612d8e565b8280546127ea90612f60565b90600052602060002090601f01602090048101928261280c5760008555612852565b82601f1061282557805160ff1916838001178555612852565b82800160010185558215612852579182015b82811115612852578251825591602001919060010190612837565b5061285e929150612862565b5090565b5b8082111561285e5760008155600101612863565b803561ffff8116811461288957600080fd5b919050565b7f4e487b7100000000000000000000000000000000000000000000000000000000600052604160045260246000fd5b604051601f8201601f1916810167ffffffffffffffff811182821017156128e6576128e661288e565b604052919050565b600067ffffffffffffffff8211156129085761290861288e565b50601f01601f191660200190565b600082601f83011261292757600080fd5b813561293a612935826128ee565b6128bd565b81815284602083860101111561294f57600080fd5b816020850160208301376000918101602001919091529392505050565b803567ffffffffffffffff8116811461288957600080fd5b6000806000806080858703121561299a57600080fd5b6129a385612877565b9350602085013567ffffffffffffffff808211156129c057600080fd5b6129cc88838901612916565b94506129da6040880161296c565b935060608701359150808211156129f057600080fd5b506129fd87828801612916565b91505092959194509250565b60008060408385031215612a1c57600080fd5b612a2583612877565b946020939093013593505050565b600060208284031215612a4557600080fd5b610b3882612877565b73ffffffffffffffffffffffffffffffffffffffff8116811461159557600080fd5b60008083601f840112612a8257600080fd5b50813567ffffffffffffffff811115612a9a57600080fd5b602083019150836020828501011115612ab257600080fd5b9250929050565b600080600080600080600060c0888a031215612ad457600080fd5b8735612adf81612a4e565b96506020880135612aef81612a4e565b9550604088013594506060880135612b0681612a4e565b9350608088013567ffffffffffffffff80821115612b2357600080fd5b612b2f8b838c01612916565b945060a08a0135915080821115612b4557600080fd5b50612b528a828b01612a70565b989b979a50959850939692959293505050565b600060208284031215612b7757600080fd5b5035919050565b600080600060408486031215612b9357600080fd5b612b9c84612877565b9250602084013567ffffffffffffffff811115612bb857600080fd5b612bc486828701612a70565b9497909650939450505050565b600080600060608486031215612be657600080fd5b612bef84612877565b9250602084013567ffffffffffffffff811115612c0b57600080fd5b612c1786828701612916565b925050612c266040850161296c565b90509250925092565b60008060008060008060008060e0898b031215612c4b57600080fd5b8835612c5681612a4e565b97506020890135612c6681612a4e565b96506040890135612c7681612a4e565b9550606089013594506080890135612c8d81612a4e565b935060a089013567ffffffffffffffff80821115612caa57600080fd5b612cb68c838d01612916565b945060c08b0135915080821115612ccc57600080fd5b50612cd98b828c01612a70565b999c989b5096995094979396929594505050565b600080600060608486031215612d0257600080fd5b8335612d0d81612a4e565b9250612d1b60208501612877565b91506040840135612d2b81612a4e565b809150509250925092565b60005b83811015612d51578181015183820152602001612d39565b83811115610cca5750506000910152565b60008151808452612d7a816020860160208601612d36565b601f01601f19169290920160200192915050565b602081526000610b386020830184612d62565b801515811461159557600080fd5b60008060408385031215612dc257600080fd5b8235612a2581612da1565b60008060408385031215612de057600080fd5b8235612deb81612a4e565b91506020830135612dfb81612a4e565b809150509250929050565b600080600060608486031215612e1b57600080fd5b612e2484612877565b95602085013595506040909401359392505050565b600080600080600060808688031215612e5157600080fd5b612e5a86612877565b9450612e6860208701612877565b935060408601359250606086013567ffffffffffffffff811115612e8b57600080fd5b612e9788828901612a70565b969995985093965092949392505050565b60008060408385031215612ebb57600080fd5b612ec483612877565b9150602083013567ffffffffffffffff811115612ee057600080fd5b612eec85828601612916565b9150509250929050565b600060208284031215612f0857600080fd5b8135610b3881612a4e565b60008060008060808587031215612f2957600080fd5b612f3285612877565b9350612f4060208601612877565b92506040850135612f5081612a4e565b9396929550929360600135925050565b600181811c90821680612f7457607f821691505b60208210811415612fae577f4e487b7100000000000000000000000000000000000000000000000000000000600052602260045260246000fd5b50919050565b8183823760009101908152919050565b818352818160208501375060006020828401015260006020601f19601f840116840101905092915050565b61ffff84168152604060208201526000611657604083018486612fc4565b600061ffff80881683528087166020840152508460408301526080606083015261279a608083018486612fc4565b6000825161304d818460208701612d36565b9190910192915050565b61ffff831681526040602082015260006124be6040830184612d62565b600082601f83011261308557600080fd5b8151613093612935826128ee565b8181528460208386010111156130a857600080fd5b6124be826020830160208701612d36565b6000602082840312156130cb57600080fd5b815167ffffffffffffffff8111156130e257600080fd5b6124be84828501613074565b61ffff8516815260806020820152600061310b6080830186612d62565b67ffffffffffffffff85166040840152828103606084015261279a8185612d62565b7f4e487b7100000000000000000000000000000000000000000000000000000000600052601160045260246000fd5b6000821982111561316f5761316f61312d565b500190565b600073ffffffffffffffffffffffffffffffffffffffff808a1683528089166020840152808816604084015280871660608401525084608083015260c060a08301526131c460c083018486612fc4565b9998505050505050505050565b73ffffffffffffffffffffffffffffffffffffffff85168152836020820152606060408201526000613207606083018486612fc4565b9695505050505050565b60008060008060008060c0878903121561322a57600080fd5b865161323581612a4e565b602088015190965061324681612a4e565b604088015190955061325781612a4e565b606088015190945061326881612a4e565b608088015160a0890151919450925067ffffffffffffffff81111561328c57600080fd5b61329889828a01613074565b9150509295509295509295565b6000828210156132b7576132b761312d565b500390565b73ffffffffffffffffffffffffffffffffffffffff841681528260208201526060604082015260006116576060830184612d62565b61ffff8716815260c06020820152600061330e60c0830188612d62565b82810360408401526133208188612d62565b73ffffffffffffffffffffffffffffffffffffffff87811660608601528616608085015283810360a085015290506131c48185612d62565b60006020828403121561336a57600080fd5b8151610b3881612da156fea164736f6c6343000809000a",
  "linkReferences": {},
  "deployedLinkReferences": {}
}