{
  "_format": "hh-sol-artifact-1",
  "contractName": "LZEndpointMock",
  "sourceName": "contracts/test-helpers/mocks/LZEndpointMock.sol",
  "abi": [
    {
      "inputs": [
        {
          "internalType": "uint16",
          "name": "_chainId",
          "type": "uint16"
        }
      ],
      "stateMutability": "nonpayable",
      "type": "constructor"
    },
    {
      "anonymous": false,
      "inputs": [
        {
          "indexed": false,
          "internalType": "uint16",
          "name": "srcChainId",
          "type": "uint16"
        },
        {
          "indexed": false,
          "internalType": "bytes",
          "name": "srcAddress",
          "type": "bytes"
        },
        {
          "indexed": false,
          "internalType": "uint64",
          "name": "nonce",
          "type": "uint64"
        },
        {
          "indexed": false,
          "internalType": "address",
          "name": "dstAddress",
          "type": "address"
        }
      ],
      "name": "PayloadCleared",
      "type": "event"
    },
    {
      "anonymous": false,
      "inputs": [
        {
          "indexed": false,
          "internalType": "uint16",
          "name": "srcChainId",
          "type": "uint16"
        },
        {
          "indexed": false,
          "internalType": "bytes",
          "name": "srcAddress",
          "type": "bytes"
        },
        {
          "indexed": false,
          "internalType": "address",
          "name": "dstAddress",
          "type": "address"
        },
        {
          "indexed": false,
          "internalType": "uint64",
          "name": "nonce",
          "type": "uint64"
        },
        {
          "indexed": false,
          "internalType": "bytes",
          "name": "payload",
          "type": "bytes"
        },
        {
          "indexed": false,
          "internalType": "bytes",
          "name": "reason",
          "type": "bytes"
        }
      ],
      "name": "PayloadStored",
      "type": "event"
    },
    {
      "anonymous": false,
      "inputs": [
        {
          "indexed": false,
          "internalType": "uint16",
          "name": "chainId",
          "type": "uint16"
        },
        {
          "indexed": false,
          "internalType": "bytes",
          "name": "srcAddress",
          "type": "bytes"
        }
      ],
      "name": "UaForceResumeReceive",
      "type": "event"
    },
    {
      "inputs": [
        {
          "internalType": "address",
          "name": "_a",
          "type": "address"
        }
      ],
      "name": "addrToPackedBytes",
      "outputs": [
        {
          "internalType": "bytes",
          "name": "",
          "type": "bytes"
        }
      ],
      "stateMutability": "pure",
      "type": "function"
    },
    {
      "inputs": [],
      "name": "blockNextMsg",
      "outputs": [],
      "stateMutability": "nonpayable",
      "type": "function"
    },
    {
      "inputs": [
        {
          "internalType": "uint16",
          "name": "",
          "type": "uint16"
        },
        {
          "internalType": "address",
          "name": "",
          "type": "address"
        },
        {
          "internalType": "bytes",
          "name": "_payload",
          "type": "bytes"
        },
        {
          "internalType": "bool",
          "name": "",
          "type": "bool"
        },
        {
          "internalType": "bytes",
          "name": "",
          "type": "bytes"
        }
      ],
      "name": "estimateFees",
      "outputs": [
        {
          "internalType": "uint256",
          "name": "_nativeFee",
          "type": "uint256"
        },
        {
          "internalType": "uint256",
          "name": "_zroFee",
          "type": "uint256"
        }
      ],
      "stateMutability": "view",
      "type": "function"
    },
    {
      "inputs": [
        {
          "internalType": "uint16",
          "name": "_srcChainId",
          "type": "uint16"
        },
        {
          "internalType": "bytes",
          "name": "_srcAddress",
          "type": "bytes"
        }
      ],
      "name": "forceResumeReceive",
      "outputs": [],
      "stateMutability": "nonpayable",
      "type": "function"
    },
    {
      "inputs": [],
      "name": "getChainId",
      "outputs": [
        {
          "internalType": "uint16",
          "name": "",
          "type": "uint16"
        }
      ],
      "stateMutability": "view",
      "type": "function"
    },
    {
      "inputs": [
        {
          "internalType": "uint16",
          "name": "",
          "type": "uint16"
        },
        {
          "internalType": "uint16",
          "name": "",
          "type": "uint16"
        },
        {
          "internalType": "address",
          "name": "",
          "type": "address"
        },
        {
          "internalType": "uint256",
          "name": "",
          "type": "uint256"
        }
      ],
      "name": "getConfig",
      "outputs": [
        {
          "internalType": "bytes",
          "name": "",
          "type": "bytes"
        }
      ],
      "stateMutability": "pure",
      "type": "function"
    },
    {
      "inputs": [
        {
          "internalType": "uint16",
          "name": "_chainID",
          "type": "uint16"
        },
        {
          "internalType": "bytes",
          "name": "_srcAddress",
          "type": "bytes"
        }
      ],
      "name": "getInboundNonce",
      "outputs": [
        {
          "internalType": "uint64",
          "name": "",
          "type": "uint64"
        }
      ],
      "stateMutability": "view",
      "type": "function"
    },
    {
      "inputs": [
        {
          "internalType": "uint16",
          "name": "_srcChainId",
          "type": "uint16"
        },
        {
          "internalType": "bytes",
          "name": "_srcAddress",
          "type": "bytes"
        }
      ],
      "name": "getLengthOfQueue",
      "outputs": [
        {
          "internalType": "uint256",
          "name": "",
          "type": "uint256"
        }
      ],
      "stateMutability": "view",
      "type": "function"
    },
    {
      "inputs": [
        {
          "internalType": "uint16",
          "name": "_chainID",
          "type": "uint16"
        },
        {
          "internalType": "address",
          "name": "_srcAddress",
          "type": "address"
        }
      ],
      "name": "getOutboundNonce",
      "outputs": [
        {
          "internalType": "uint64",
          "name": "",
          "type": "uint64"
        }
      ],
      "stateMutability": "view",
      "type": "function"
    },
    {
      "inputs": [
        {
          "internalType": "address",
          "name": "",
          "type": "address"
        }
      ],
      "name": "getReceiveLibraryAddress",
      "outputs": [
        {
          "internalType": "address",
          "name": "",
          "type": "address"
        }
      ],
      "stateMutability": "view",
      "type": "function"
    },
    {
      "inputs": [
        {
          "internalType": "address",
          "name": "",
          "type": "address"
        }
      ],
      "name": "getReceiveVersion",
      "outputs": [
        {
          "internalType": "uint16",
          "name": "",
          "type": "uint16"
        }
      ],
      "stateMutability": "pure",
      "type": "function"
    },
    {
      "inputs": [
        {
          "internalType": "address",
          "name": "",
          "type": "address"
        }
      ],
      "name": "getSendLibraryAddress",
      "outputs": [
        {
          "internalType": "address",
          "name": "",
          "type": "address"
        }
      ],
      "stateMutability": "view",
      "type": "function"
    },
    {
      "inputs": [
        {
          "internalType": "address",
          "name": "",
          "type": "address"
        }
      ],
      "name": "getSendVersion",
      "outputs": [
        {
          "internalType": "uint16",
          "name": "",
          "type": "uint16"
        }
      ],
      "stateMutability": "pure",
      "type": "function"
    },
    {
      "inputs": [
        {
          "internalType": "uint16",
          "name": "_srcChainId",
          "type": "uint16"
        },
        {
          "internalType": "bytes",
          "name": "_srcAddress",
          "type": "bytes"
        }
      ],
      "name": "hasStoredPayload",
      "outputs": [
        {
          "internalType": "bool",
          "name": "",
          "type": "bool"
        }
      ],
      "stateMutability": "view",
      "type": "function"
    },
    {
      "inputs": [
        {
          "internalType": "uint16",
          "name": "",
          "type": "uint16"
        },
        {
          "internalType": "bytes",
          "name": "",
          "type": "bytes"
        }
      ],
      "name": "inboundNonce",
      "outputs": [
        {
          "internalType": "uint64",
          "name": "",
          "type": "uint64"
        }
      ],
      "stateMutability": "view",
      "type": "function"
    },
    {
      "inputs": [],
      "name": "isReceivingPayload",
      "outputs": [
        {
          "internalType": "bool",
          "name": "",
          "type": "bool"
        }
      ],
      "stateMutability": "pure",
      "type": "function"
    },
    {
      "inputs": [],
      "name": "isSendingPayload",
      "outputs": [
        {
          "internalType": "bool",
          "name": "",
          "type": "bool"
        }
      ],
      "stateMutability": "pure",
      "type": "function"
    },
    {
      "inputs": [
        {
          "internalType": "address",
          "name": "",
          "type": "address"
        }
      ],
      "name": "lzEndpointLookup",
      "outputs": [
        {
          "internalType": "address",
          "name": "",
          "type": "address"
        }
      ],
      "stateMutability": "view",
      "type": "function"
    },
    {
      "inputs": [],
      "name": "mockBlockConfirmations",
      "outputs": [
        {
          "internalType": "uint256",
          "name": "",
          "type": "uint256"
        }
      ],
      "stateMutability": "view",
      "type": "function"
    },
    {
      "inputs": [],
      "name": "mockChainId",
      "outputs": [
        {
          "internalType": "uint16",
          "name": "",
          "type": "uint16"
        }
      ],
      "stateMutability": "view",
      "type": "function"
    },
    {
      "inputs": [],
      "name": "mockLayerZeroVersion",
      "outputs": [
        {
          "internalType": "uint16",
          "name": "",
          "type": "uint16"
        }
      ],
      "stateMutability": "view",
      "type": "function"
    },
    {
      "inputs": [],
      "name": "mockLibraryVersion",
      "outputs": [
        {
          "internalType": "uint16",
          "name": "",
          "type": "uint16"
        }
      ],
      "stateMutability": "view",
      "type": "function"
    },
    {
      "inputs": [],
      "name": "mockOracle",
      "outputs": [
        {
          "internalType": "address payable",
          "name": "",
          "type": "address"
        }
      ],
      "stateMutability": "view",
      "type": "function"
    },
    {
      "inputs": [],
      "name": "mockRelayer",
      "outputs": [
        {
          "internalType": "address payable",
          "name": "",
          "type": "address"
        }
      ],
      "stateMutability": "view",
      "type": "function"
    },
    {
      "inputs": [],
      "name": "mockStaticNativeFee",
      "outputs": [
        {
          "internalType": "uint256",
          "name": "",
          "type": "uint256"
        }
      ],
      "stateMutability": "view",
      "type": "function"
    },
    {
      "inputs": [
        {
          "internalType": "uint16",
          "name": "",
          "type": "uint16"
        },
        {
          "internalType": "bytes",
          "name": "",
          "type": "bytes"
        },
        {
          "internalType": "uint256",
          "name": "",
          "type": "uint256"
        }
      ],
      "name": "msgsToDeliver",
      "outputs": [
        {
          "internalType": "address",
          "name": "dstAddress",
          "type": "address"
        },
        {
          "internalType": "uint64",
          "name": "nonce",
          "type": "uint64"
        },
        {
          "internalType": "bytes",
          "name": "payload",
          "type": "bytes"
        }
      ],
      "stateMutability": "view",
      "type": "function"
    },
    {
      "inputs": [],
      "name": "nativeFee",
      "outputs": [
        {
          "internalType": "uint256",
          "name": "",
          "type": "uint256"
        }
      ],
      "stateMutability": "view",
      "type": "function"
    },
    {
      "inputs": [
        {
          "internalType": "uint16",
          "name": "",
          "type": "uint16"
        },
        {
          "internalType": "address",
          "name": "",
          "type": "address"
        }
      ],
      "name": "outboundNonce",
      "outputs": [
        {
          "internalType": "uint64",
          "name": "",
          "type": "uint64"
        }
      ],
      "stateMutability": "view",
      "type": "function"
    },
    {
      "inputs": [
        {
          "internalType": "bytes",
          "name": "_b",
          "type": "bytes"
        }
      ],
      "name": "packedBytesToAddr",
      "outputs": [
        {
          "internalType": "address",
          "name": "",
          "type": "address"
        }
      ],
      "stateMutability": "pure",
      "type": "function"
    },
    {
      "inputs": [
        {
          "internalType": "uint16",
          "name": "_srcChainId",
          "type": "uint16"
        },
        {
          "internalType": "bytes",
          "name": "_srcAddress",
          "type": "bytes"
        },
        {
          "internalType": "address",
          "name": "_dstAddress",
          "type": "address"
        },
        {
          "internalType": "uint64",
          "name": "_nonce",
          "type": "uint64"
        },
        {
          "internalType": "uint256",
          "name": "",
          "type": "uint256"
        },
        {
          "internalType": "bytes",
          "name": "_payload",
          "type": "bytes"
        }
      ],
      "name": "receivePayload",
      "outputs": [],
      "stateMutability": "nonpayable",
      "type": "function"
    },
    {
      "inputs": [
        {
          "internalType": "uint16",
          "name": "_srcChainId",
          "type": "uint16"
        },
        {
          "internalType": "bytes",
          "name": "_srcAddress",
          "type": "bytes"
        },
        {
          "internalType": "bytes",
          "name": "_payload",
          "type": "bytes"
        }
      ],
      "name": "retryPayload",
      "outputs": [],
      "stateMutability": "nonpayable",
      "type": "function"
    },
    {
      "inputs": [
        {
          "internalType": "uint16",
          "name": "_chainId",
          "type": "uint16"
        },
        {
          "internalType": "bytes",
          "name": "_destination",
          "type": "bytes"
        },
        {
          "internalType": "bytes",
          "name": "_payload",
          "type": "bytes"
        },
        {
          "internalType": "address payable",
          "name": "",
          "type": "address"
        },
        {
          "internalType": "address",
          "name": "",
          "type": "address"
        },
        {
          "internalType": "bytes",
          "name": "_adapterParams",
          "type": "bytes"
        }
      ],
      "name": "send",
      "outputs": [],
      "stateMutability": "payable",
      "type": "function"
    },
    {
      "inputs": [
        {
          "internalType": "uint16",
          "name": "",
          "type": "uint16"
        },
        {
          "internalType": "uint16",
          "name": "",
          "type": "uint16"
        },
        {
          "internalType": "uint256",
          "name": "",
          "type": "uint256"
        },
        {
          "internalType": "bytes",
          "name": "",
          "type": "bytes"
        }
      ],
      "name": "setConfig",
      "outputs": [],
      "stateMutability": "nonpayable",
      "type": "function"
    },
    {
      "inputs": [
        {
          "internalType": "address",
          "name": "destAddr",
          "type": "address"
        },
        {
          "internalType": "address",
          "name": "lzEndpointAddr",
          "type": "address"
        }
      ],
      "name": "setDestLzEndpoint",
      "outputs": [],
      "stateMutability": "nonpayable",
      "type": "function"
    },
    {
      "inputs": [
        {
          "internalType": "uint256",
          "name": "_nativeFee",
          "type": "uint256"
        },
        {
          "internalType": "uint256",
          "name": "_zroFee",
          "type": "uint256"
        }
      ],
      "name": "setEstimatedFees",
      "outputs": [],
      "stateMutability": "nonpayable",
      "type": "function"
    },
    {
      "inputs": [
        {
          "internalType": "uint16",
          "name": "",
          "type": "uint16"
        }
      ],
      "name": "setReceiveVersion",
      "outputs": [],
      "stateMutability": "nonpayable",
      "type": "function"
    },
    {
      "inputs": [
        {
          "internalType": "uint16",
          "name": "",
          "type": "uint16"
        }
      ],
      "name": "setSendVersion",
      "outputs": [],
      "stateMutability": "nonpayable",
      "type": "function"
    },
    {
      "inputs": [
        {
          "internalType": "uint16",
          "name": "",
          "type": "uint16"
        },
        {
          "internalType": "bytes",
          "name": "",
          "type": "bytes"
        }
      ],
      "name": "storedPayload",
      "outputs": [
        {
          "internalType": "uint64",
          "name": "payloadLength",
          "type": "uint64"
        },
        {
          "internalType": "address",
          "name": "dstAddress",
          "type": "address"
        },
        {
          "internalType": "bytes32",
          "name": "payloadHash",
          "type": "bytes32"
        }
      ],
      "stateMutability": "view",
      "type": "function"
    },
    {
      "inputs": [],
      "name": "zroFee",
      "outputs": [
        {
          "internalType": "uint256",
          "name": "",
          "type": "uint256"
        }
      ],
      "stateMutability": "view",
      "type": "function"
    }
  ],
  "bytecode": "0x60806040523480156200001157600080fd5b506040516200299138038062002991833981016040819052620000349162000061565b602a60055560068054600161ffff19918216811790925581541661ffff929092169190911790556200008e565b6000602082840312156200007457600080fd5b815161ffff811681146200008757600080fd5b9392505050565b6128f3806200009e6000396000f3fe6080604052600436106102a05760003560e01c8063996f79c01161016e578063ca066b35116100cb578063db14f3051161007f578063e97a448a11610064578063e97a448a14610862578063f5ecbdbc14610938578063fdc07c701461096a57600080fd5b8063db14f30514610907578063e961a9521461092257600080fd5b8063d23104f1116100b0578063d23104f114610897578063da1a7c9a146102f8578063dab31277146108d457600080fd5b8063ca066b3514610862578063cbed8b9c1461087657600080fd5b8063b208649911610122578063c2fa481311610107578063c2fa4813146107ec578063c58031001461080c578063c81b383a1461081f57600080fd5b8063b20864991461073c578063c08f15a11461077e57600080fd5b8063aaff5f1611610153578063aaff5f16146106eb578063af406aa51461070b578063b12107701461072157600080fd5b8063996f79c0146106d55780639c729da11461050f57600080fd5b806340a7bb101161021c57806371ba2fd6116101d05780637a145748116101b55780637a145748146105e95780637f6df8e6146106625780639924d33b1461068257600080fd5b806371ba2fd61461050f57806376a386dc1461052f57600080fd5b80634f055b04116102015780634f055b04146104515780635952c4ec1461047e5780635b301135146104a257600080fd5b806340a7bb10146103fc57806342d65a8d1461043157600080fd5b80630eaf6ea61161027357806312a9ee6b1161025857806312a9ee6b1461038e5780632646af08146103bd5780633408e470146103e357600080fd5b80630eaf6ea61461035e57806310ddb137146102d857600080fd5b806305bc710f146102a557806307e0db17146102d8578063096568f6146102f857806309eddf5414610319575b600080fd5b3480156102b157600080fd5b506004546102c09061ffff1681565b60405161ffff90911681526020015b60405180910390f35b3480156102e457600080fd5b506102f66102f3366004611d8a565b50565b005b34801561030457600080fd5b506102c0610313366004611dce565b50600190565b34801561032557600080fd5b50610339610334366004611e34565b61098a565b60405173ffffffffffffffffffffffffffffffffffffffff90911681526020016102cf565b34801561036a57600080fd5b5061037e610379366004611e76565b6109c5565b60405190151581526020016102cf565b34801561039a57600080fd5b506103ae6103a9366004611fa3565b610a0a565b6040516102cf93929190612065565b3480156103c957600080fd5b506102f66103d83660046120ad565b600791909155600855565b3480156103ef57600080fd5b5060015461ffff166102c0565b34801561040857600080fd5b5061041c6104173660046120cf565b610b26565b604080519283526020830191909152016102cf565b34801561043d57600080fd5b506102f661044c366004611e76565b610b49565b34801561045d57600080fd5b506002546103399073ffffffffffffffffffffffffffffffffffffffff1681565b34801561048a57600080fd5b5061049460035481565b6040519081526020016102cf565b3480156104ae57600080fd5b506105026104bd366004611dce565b6040805160609290921b7fffffffffffffffffffffffffffffffffffffffff000000000000000000000000166020830152805180830360140181526034909201905290565b6040516102cf9190612170565b34801561051b57600080fd5b5061033961052a366004611dce565b503090565b34801561053b57600080fd5b506105ae61054a366004612183565b600c60209081526000928352604090922081518083018401805192815290840192909301919091209152805460019091015467ffffffffffffffff82169168010000000000000000900473ffffffffffffffffffffffffffffffffffffffff169083565b6040805167ffffffffffffffff909416845273ffffffffffffffffffffffffffffffffffffffff9092166020840152908201526060016102cf565b3480156105f557600080fd5b506106496106043660046121d1565b61ffff82166000908152600b6020908152604080832073ffffffffffffffffffffffffffffffffffffffff8516845290915290205467ffffffffffffffff1692915050565b60405167ffffffffffffffff90911681526020016102cf565b34801561066e57600080fd5b5061049461067d366004611e76565b610cee565b34801561068e57600080fd5b5061064961069d366004612183565b600a602090815260009283526040909220815180830184018051928152908401929093019190912091525467ffffffffffffffff1681565b3480156106e157600080fd5b5061049460075481565b3480156106f757600080fd5b506102f6610706366004612208565b610d2a565b34801561071757600080fd5b5061049460085481565b34801561072d57600080fd5b506006546102c09061ffff1681565b34801561074857600080fd5b506106496107573660046121d1565b600b60209081526000928352604080842090915290825290205467ffffffffffffffff1681565b34801561078a57600080fd5b506102f6610799366004612289565b73ffffffffffffffffffffffffffffffffffffffff918216600090815260208190526040902080547fffffffffffffffffffffffff00000000000000000000000000000000000000001691909216179055565b3480156107f857600080fd5b506102f66108073660046122a7565b610fc6565b6102f661081a36600461235f565b6116f7565b34801561082b57600080fd5b5061033961083a366004611dce565b60006020819052908152604090205473ffffffffffffffffffffffffffffffffffffffff1681565b34801561086e57600080fd5b50600061037e565b34801561088257600080fd5b506102f661089136600461242c565b50505050565b3480156108a357600080fd5b506102f6600980547fffffffffffffffffffffffffffffffffffffffffffffffffffffffffffffff00166001179055565b3480156108e057600080fd5b506001546103399062010000900473ffffffffffffffffffffffffffffffffffffffff1681565b34801561091357600080fd5b506001546102c09061ffff1681565b34801561092e57600080fd5b5061049460055481565b34801561094457600080fd5b50610502610953366004612494565b604080516020810190915260008152949350505050565b34801561097657600080fd5b50610649610985366004611e76565b61198a565b600080604051600284016002860382377ffffffffffffffffffffffffffffffffffffffffffffffffffffffffffffffff60151949350505050565b61ffff83166000908152600c602052604080822090518291906109eb90869086906124e1565b9081526040519081900360200190206001015415159150509392505050565b600d6020908152600084815260409020835180850183018051928152908301928501929092209152805482908110610a4157600080fd5b60009182526020909120600290910201805460018201805473ffffffffffffffffffffffffffffffffffffffff831696507401000000000000000000000000000000000000000090920467ffffffffffffffff169450919250610aa3906124f1565b80601f0160208091040260200160405190810160405280929190818152602001828054610acf906124f1565b8015610b1c5780601f10610af157610100808354040283529160200191610b1c565b820191906000526020600020905b815481529060010190602001808311610aff57829003601f168201915b5050505050905083565b6000808451600754610b389190612574565b915060085490509550959350505050565b61ffff83166000908152600c60205260408082209051610b6c90859085906124e1565b9081526040519081900360200190206001810154909150610bee576040517f08c379a000000000000000000000000000000000000000000000000000000000815260206004820152601c60248201527f4c617965725a65726f3a206e6f2073746f726564207061796c6f61640000000060448201526064015b60405180910390fd5b805468010000000000000000900473ffffffffffffffffffffffffffffffffffffffff163314610c7a576040517f08c379a000000000000000000000000000000000000000000000000000000000815260206004820152601960248201527f4c617965725a65726f3a20696e76616c69642063616c6c6572000000000000006044820152606401610be5565b80547fffffffff00000000000000000000000000000000000000000000000000000000168155600060018201556040517f23d2684f396e92a6e2ff2d16f98e6fea00d50cb27a64b531bc0748f730211f9890610cdb908690869086906125fa565b60405180910390a16108918484846119d0565b61ffff83166000908152600d60205260408082209051610d1190859085906124e1565b9081526040519081900360200190205490509392505050565b61ffff85166000908152600c60205260408082209051610d4d90879087906124e1565b9081526040519081900360200190206001810154909150610dca576040517f08c379a000000000000000000000000000000000000000000000000000000000815260206004820152601c60248201527f4c617965725a65726f3a206e6f2073746f726564207061796c6f6164000000006044820152606401610be5565b805467ffffffffffffffff1682148015610dfe575080600101548383604051610df49291906124e1565b6040518091039020145b610e64576040517f08c379a000000000000000000000000000000000000000000000000000000000815260206004820152601a60248201527f4c617965725a65726f3a20696e76616c6964207061796c6f61640000000000006044820152606401610be5565b80547fffffffff000000000000000000000000000000000000000000000000000000008116825560006001830181905561ffff88168152600a602052604080822090516801000000000000000090930473ffffffffffffffffffffffffffffffffffffffff1692610ed890899089906124e1565b908152604051908190036020018120547e1d356700000000000000000000000000000000000000000000000000000000825267ffffffffffffffff16915073ffffffffffffffffffffffffffffffffffffffff831690621d356790610f4b908b908b908b9087908c908c90600401612618565b600060405180830381600087803b158015610f6557600080fd5b505af1158015610f79573d6000803e3d6000fd5b505050507f612434f39581c8e7d99746c9c20c6eb0ce8c0eb99f007c5719d620841370957d8888888486604051610fb4959493929190612666565b60405180910390a15050505050505050565b61ffff88166000908152600c60205260408082209051610fe9908a908a906124e1565b90815260200160405180910390209050600a60008a61ffff1661ffff16815260200190815260200160002088886040516110249291906124e1565b908152604051908190036020019020805460009061104b9067ffffffffffffffff166126bc565b91906101000a81548167ffffffffffffffff021916908367ffffffffffffffff160217905567ffffffffffffffff168567ffffffffffffffff16146110ec576040517f08c379a000000000000000000000000000000000000000000000000000000000815260206004820152601660248201527f4c617965725a65726f3a2077726f6e67206e6f6e6365000000000000000000006044820152606401610be5565b6001810154156114e25761ffff89166000908152600d60205260408082209051611119908b908b906124e1565b90815260200160405180910390209050600060405180606001604052808973ffffffffffffffffffffffffffffffffffffffff1681526020018867ffffffffffffffff16815260200186868080601f0160208091040260200160405190810160405280939291908181526020018383808284376000920191909152505050915250825490915015611435578154600181810184556000848152602090819020845160029094020180548286015167ffffffffffffffff1674010000000000000000000000000000000000000000027fffffffff0000000000000000000000000000000000000000000000000000000090911673ffffffffffffffffffffffffffffffffffffffff909516949094179390931783556040840151805185949361124693908501920190611c29565b50505060005b825461125a906001906126e4565b81101561137c57828181548110611273576112736126fb565b90600052602060002090600202018382600161128f919061272a565b8154811061129f5761129f6126fb565b600091825260209091208254600290920201805473ffffffffffffffffffffffffffffffffffffffff9092167fffffffffffffffffffffffff000000000000000000000000000000000000000083168117825583547fffffffff0000000000000000000000000000000000000000000000000000000090931617740100000000000000000000000000000000000000009283900467ffffffffffffffff16909202919091178155600180830180549183019161135a906124f1565b611365929190611cad565b50905050808061137490612742565b91505061124c565b508082600081548110611391576113916126fb565b6000918252602091829020835160029092020180548484015167ffffffffffffffff1674010000000000000000000000000000000000000000027fffffffff0000000000000000000000000000000000000000000000000000000090911673ffffffffffffffffffffffffffffffffffffffff9093169290921791909117815560408301518051919261142c92600185019290910190611c29565b509050506114db565b8154600181810184556000848152602090819020845160029094020180548286015167ffffffffffffffff1674010000000000000000000000000000000000000000027fffffffff0000000000000000000000000000000000000000000000000000000090911673ffffffffffffffffffffffffffffffffffffffff90951694909417939093178355604084015180518594936114d793908501920190611c29565b5050505b50506116ec565b60095460ff161561165f5760405180606001604052808484905067ffffffffffffffff1681526020018773ffffffffffffffffffffffffffffffffffffffff16815260200184846040516115379291906124e1565b604080519182900390912090915261ffff8b166000908152600c6020528190209051611566908b908b906124e1565b908152604080519182900360209081018320845181548684015173ffffffffffffffffffffffffffffffffffffffff1668010000000000000000027fffffffff0000000000000000000000000000000000000000000000000000000090911667ffffffffffffffff909216919091171781559382015160019094019390935591810182526000815290517f0f9e4d95b62f08222d612b5ab92039cd8fbbbea550a95e8df9f927436bbdf5db9161162a918c918c918c918c918c918b918b919061277b565b60405180910390a1600980547fffffffffffffffffffffffffffffffffffffffffffffffffffffffffffffff001690556116ec565b6040517e1d356700000000000000000000000000000000000000000000000000000000815273ffffffffffffffffffffffffffffffffffffffff871690621d3567906116b9908c908c908c908b908a908a90600401612618565b600060405180830381600087803b1580156116d357600080fd5b505af11580156116e7573d6000803e3d6000fd5b505050505b505050505050505050565b6000611703888861098a565b73ffffffffffffffffffffffffffffffffffffffff80821660009081526020819052604090205491925016806117bb576040517f08c379a000000000000000000000000000000000000000000000000000000000815260206004820152603760248201527f4c617965725a65726f4d6f636b3a2064657374696e6174696f6e204c6179657260448201527f5a65726f20456e64706f696e74206e6f7420666f756e640000000000000000006064820152608401610be5565b6007546117c9908790612574565b341015611858576040517f08c379a000000000000000000000000000000000000000000000000000000000815260206004820152602960248201527f4c617965725a65726f4d6f636b3a206e6f7420656e6f756768206e617469766560448201527f20666f72206665657300000000000000000000000000000000000000000000006064820152608401610be5565b61ffff8a166000908152600b6020908152604080832033845290915281208054829061188d9067ffffffffffffffff166126bc565b825467ffffffffffffffff8281166101009490940a9384029302191691909117909155604080517fffffffffffffffffffffffffffffffffffffffff0000000000000000000000003360601b1660208201528151601481830301815260349091019091529091508273ffffffffffffffffffffffffffffffffffffffff1663c2fa4813600160009054906101000a900461ffff1683878660008f8f6040518863ffffffff1660e01b815260040161194a97969594939291906127fb565b600060405180830381600087803b15801561196457600080fd5b505af1158015611978573d6000803e3d6000fd5b50505050505050505050505050505050565b61ffff83166000908152600a602052604080822090516119ad90859085906124e1565b9081526040519081900360200190205467ffffffffffffffff1690509392505050565b61ffff83166000908152600d602052604080822090516119f390859085906124e1565b908152602001604051809103902090505b8054156108915780546000908290611a1e906001906126e4565b81548110611a2e57611a2e6126fb565b6000918252602091829020604080516060810182526002909302909101805473ffffffffffffffffffffffffffffffffffffffff8116845267ffffffffffffffff74010000000000000000000000000000000000000000909104169383019390935260018301805492939291840191611aa6906124f1565b80601f0160208091040260200160405190810160405280929190818152602001828054611ad2906124f1565b8015611b1f5780601f10611af457610100808354040283529160200191611b1f565b820191906000526020600020905b815481529060010190602001808311611b0257829003601f168201915b5050505050815250509050806000015173ffffffffffffffffffffffffffffffffffffffff16621d3567868686856020015186604001516040518663ffffffff1660e01b8152600401611b7695949392919061286b565b600060405180830381600087803b158015611b9057600080fd5b505af1158015611ba4573d6000803e3d6000fd5b5050505081805480611bb857611bb86128b7565b60008281526020812060027fffffffffffffffffffffffffffffffffffffffffffffffffffffffffffffffff9093019283020180547fffffffff0000000000000000000000000000000000000000000000000000000016815590611c1f6001830182611d28565b5050905550611a04565b828054611c35906124f1565b90600052602060002090601f016020900481019282611c575760008555611c9d565b82601f10611c7057805160ff1916838001178555611c9d565b82800160010185558215611c9d579182015b82811115611c9d578251825591602001919060010190611c82565b50611ca9929150611d5e565b5090565b828054611cb9906124f1565b90600052602060002090601f016020900481019282611cdb5760008555611c9d565b82601f10611cec5780548555611c9d565b82800160010185558215611c9d57600052602060002091601f016020900482015b82811115611c9d578254825591600101919060010190611d0d565b508054611d34906124f1565b6000825580601f10611d44575050565b601f0160209004906000526020600020908101906102f391905b5b80821115611ca95760008155600101611d5f565b803561ffff81168114611d8557600080fd5b919050565b600060208284031215611d9c57600080fd5b611da582611d73565b9392505050565b73ffffffffffffffffffffffffffffffffffffffff811681146102f357600080fd5b600060208284031215611de057600080fd5b8135611da581611dac565b60008083601f840112611dfd57600080fd5b50813567ffffffffffffffff811115611e1557600080fd5b602083019150836020828501011115611e2d57600080fd5b9250929050565b60008060208385031215611e4757600080fd5b823567ffffffffffffffff811115611e5e57600080fd5b611e6a85828601611deb565b90969095509350505050565b600080600060408486031215611e8b57600080fd5b611e9484611d73565b9250602084013567ffffffffffffffff811115611eb057600080fd5b611ebc86828701611deb565b9497909650939450505050565b7f4e487b7100000000000000000000000000000000000000000000000000000000600052604160045260246000fd5b600082601f830112611f0957600080fd5b813567ffffffffffffffff80821115611f2457611f24611ec9565b604051601f83017fffffffffffffffffffffffffffffffffffffffffffffffffffffffffffffffe0908116603f01168101908282118183101715611f6a57611f6a611ec9565b81604052838152866020858801011115611f8357600080fd5b836020870160208301376000602085830101528094505050505092915050565b600080600060608486031215611fb857600080fd5b611fc184611d73565b9250602084013567ffffffffffffffff811115611fdd57600080fd5b611fe986828701611ef8565b925050604084013590509250925092565b6000815180845260005b8181101561202057602081850181015186830182015201612004565b81811115612032576000602083870101525b50601f017fffffffffffffffffffffffffffffffffffffffffffffffffffffffffffffffe0169290920160200192915050565b73ffffffffffffffffffffffffffffffffffffffff8416815267ffffffffffffffff831660208201526060604082015260006120a46060830184611ffa565b95945050505050565b600080604083850312156120c057600080fd5b50508035926020909101359150565b600080600080600060a086880312156120e757600080fd5b6120f086611d73565b9450602086013561210081611dac565b9350604086013567ffffffffffffffff8082111561211d57600080fd5b61212989838a01611ef8565b945060608801359150811515821461214057600080fd5b9092506080870135908082111561215657600080fd5b5061216388828901611ef8565b9150509295509295909350565b602081526000611da56020830184611ffa565b6000806040838503121561219657600080fd5b61219f83611d73565b9150602083013567ffffffffffffffff8111156121bb57600080fd5b6121c785828601611ef8565b9150509250929050565b600080604083850312156121e457600080fd5b6121ed83611d73565b915060208301356121fd81611dac565b809150509250929050565b60008060008060006060868803121561222057600080fd5b61222986611d73565b9450602086013567ffffffffffffffff8082111561224657600080fd5b61225289838a01611deb565b9096509450604088013591508082111561226b57600080fd5b5061227888828901611deb565b969995985093965092949392505050565b6000806040838503121561229c57600080fd5b82356121ed81611dac565b60008060008060008060008060c0898b0312156122c357600080fd5b6122cc89611d73565b9750602089013567ffffffffffffffff808211156122e957600080fd5b6122f58c838d01611deb565b909950975060408b0135915061230a82611dac565b90955060608a013590808216821461232157600080fd5b90945060808a0135935060a08a0135908082111561233e57600080fd5b5061234b8b828c01611deb565b999c989b5096995094979396929594505050565b60008060008060008060008060c0898b03121561237b57600080fd5b61238489611d73565b9750602089013567ffffffffffffffff808211156123a157600080fd5b6123ad8c838d01611deb565b909950975060408b01359150808211156123c657600080fd5b6123d28c838d01611deb565b909750955060608b013591506123e782611dac565b90935060808a0135906123f982611dac565b90925060a08a0135908082111561240f57600080fd5b5061241c8b828c01611ef8565b9150509295985092959890939650565b6000806000806080858703121561244257600080fd5b61244b85611d73565b935061245960208601611d73565b925060408501359150606085013567ffffffffffffffff81111561247c57600080fd5b61248887828801611ef8565b91505092959194509250565b600080600080608085870312156124aa57600080fd5b6124b385611d73565b93506124c160208601611d73565b925060408501356124d181611dac565b9396929550929360600135925050565b8183823760009101908152919050565b600181811c9082168061250557607f821691505b6020821081141561253f577f4e487b7100000000000000000000000000000000000000000000000000000000600052602260045260246000fd5b50919050565b7f4e487b7100000000000000000000000000000000000000000000000000000000600052601160045260246000fd5b6000817fffffffffffffffffffffffffffffffffffffffffffffffffffffffffffffffff04831182151516156125ac576125ac612545565b500290565b8183528181602085013750600060208284010152600060207fffffffffffffffffffffffffffffffffffffffffffffffffffffffffffffffe0601f840116840101905092915050565b61ffff841681526040602082015260006120a46040830184866125b1565b61ffff871681526080602082015260006126366080830187896125b1565b67ffffffffffffffff8616604084015282810360608401526126598185876125b1565b9998505050505050505050565b61ffff861681526080602082015260006126846080830186886125b1565b905067ffffffffffffffff8416604083015273ffffffffffffffffffffffffffffffffffffffff831660608301529695505050505050565b600067ffffffffffffffff808316818114156126da576126da612545565b6001019392505050565b6000828210156126f6576126f6612545565b500390565b7f4e487b7100000000000000000000000000000000000000000000000000000000600052603260045260246000fd5b6000821982111561273d5761273d612545565b500190565b60007fffffffffffffffffffffffffffffffffffffffffffffffffffffffffffffffff82141561277457612774612545565b5060010190565b61ffff8916815260c06020820152600061279960c08301898b6125b1565b73ffffffffffffffffffffffffffffffffffffffff8816604084015267ffffffffffffffff8716606084015282810360808401526127d88186886125b1565b905082810360a08401526127ec8185611ffa565b9b9a5050505050505050505050565b61ffff8816815260c06020820152600061281860c0830189611ffa565b73ffffffffffffffffffffffffffffffffffffffff8816604084015267ffffffffffffffff8716606084015285608084015282810360a084015261285d8185876125b1565b9a9950505050505050505050565b61ffff861681526080602082015260006128896080830186886125b1565b67ffffffffffffffff8516604084015282810360608401526128ab8185611ffa565b98975050505050505050565b7f4e487b7100000000000000000000000000000000000000000000000000000000600052603160045260246000fdfea164736f6c6343000809000a",
  "linkReferences": {},
  "deployedLinkReferences": {}
}