{
  "_format": "hh-sol-artifact-1",
  "contractName": "L1NFTBridge",
  "sourceName": "contracts/bridges/L1NFTBridge.sol",
  "abi": [
    {
      "inputs": [],
      "stateMutability": "nonpayable",
      "type": "constructor"
    },
    {
      "anonymous": false,
      "inputs": [
        {
          "indexed": true,
          "internalType": "address",
          "name": "_l1Contract",
          "type": "address"
        },
        {
          "indexed": true,
          "internalType": "address",
          "name": "_l2Contract",
          "type": "address"
        },
        {
          "indexed": true,
          "internalType": "address",
          "name": "_from",
          "type": "address"
        },
        {
          "indexed": false,
          "internalType": "address",
          "name": "_to",
          "type": "address"
        },
        {
          "indexed": false,
          "internalType": "uint256",
          "name": "_tokenId",
          "type": "uint256"
        },
        {
          "indexed": false,
          "internalType": "bytes",
          "name": "_data",
          "type": "bytes"
        }
      ],
      "name": "NFTDepositInitiated",
      "type": "event"
    },
    {
      "anonymous": false,
      "inputs": [
        {
          "indexed": true,
          "internalType": "address",
          "name": "_l1Contract",
          "type": "address"
        },
        {
          "indexed": true,
          "internalType": "address",
          "name": "_l2Contract",
          "type": "address"
        },
        {
          "indexed": true,
          "internalType": "address",
          "name": "_from",
          "type": "address"
        },
        {
          "indexed": false,
          "internalType": "address",
          "name": "_to",
          "type": "address"
        },
        {
          "indexed": false,
          "internalType": "uint256",
          "name": "_tokenId",
          "type": "uint256"
        },
        {
          "indexed": false,
          "internalType": "bytes",
          "name": "_data",
          "type": "bytes"
        }
      ],
      "name": "NFTWithdrawalFinalized",
      "type": "event"
    },
    {
      "inputs": [
        {
          "internalType": "address",
          "name": "_l1Contract",
          "type": "address"
        },
        {
          "internalType": "address",
          "name": "_l2Contract",
          "type": "address"
        },
        {
          "internalType": "uint256",
          "name": "_tokenId",
          "type": "uint256"
        },
        {
          "internalType": "uint32",
          "name": "_l2Gas",
          "type": "uint32"
        },
        {
          "internalType": "bytes",
          "name": "_data",
          "type": "bytes"
        }
      ],
      "name": "depositNFT",
      "outputs": [],
      "stateMutability": "nonpayable",
      "type": "function"
    },
    {
      "inputs": [
        {
          "internalType": "address",
          "name": "_l1Contract",
          "type": "address"
        },
        {
          "internalType": "address",
          "name": "_l2Contract",
          "type": "address"
        },
        {
          "internalType": "address",
          "name": "_to",
          "type": "address"
        },
        {
          "internalType": "uint256",
          "name": "_tokenId",
          "type": "uint256"
        },
        {
          "internalType": "uint32",
          "name": "_l2Gas",
          "type": "uint32"
        },
        {
          "internalType": "bytes",
          "name": "_data",
          "type": "bytes"
        }
      ],
      "name": "depositNFTTo",
      "outputs": [],
      "stateMutability": "nonpayable",
      "type": "function"
    },
    {
      "inputs": [
        {
          "internalType": "address",
          "name": "",
          "type": "address"
        },
        {
          "internalType": "uint256",
          "name": "",
          "type": "uint256"
        }
      ],
      "name": "deposits",
      "outputs": [
        {
          "internalType": "address",
          "name": "",
          "type": "address"
        }
      ],
      "stateMutability": "view",
      "type": "function"
    },
    {
      "inputs": [
        {
          "internalType": "address",
          "name": "_l1Contract",
          "type": "address"
        },
        {
          "internalType": "address",
          "name": "_l2Contract",
          "type": "address"
        },
        {
          "internalType": "address",
          "name": "_from",
          "type": "address"
        },
        {
          "internalType": "address",
          "name": "_to",
          "type": "address"
        },
        {
          "internalType": "uint256",
          "name": "_tokenId",
          "type": "uint256"
        },
        {
          "internalType": "bytes",
          "name": "_data",
          "type": "bytes"
        }
      ],
      "name": "finalizeNFTWithdrawal",
      "outputs": [],
      "stateMutability": "nonpayable",
      "type": "function"
    },
    {
      "inputs": [
        {
          "internalType": "address",
          "name": "_l1messenger",
          "type": "address"
        },
        {
          "internalType": "address",
          "name": "_l2NFTBridge",
          "type": "address"
        }
      ],
      "name": "initialize",
      "outputs": [],
      "stateMutability": "nonpayable",
      "type": "function"
    },
    {
      "inputs": [],
      "name": "l2NFTBridge",
      "outputs": [
        {
          "internalType": "address",
          "name": "",
          "type": "address"
        }
      ],
      "stateMutability": "view",
      "type": "function"
    },
    {
      "inputs": [],
      "name": "messenger",
      "outputs": [
        {
          "internalType": "address",
          "name": "",
          "type": "address"
        }
      ],
      "stateMutability": "view",
      "type": "function"
    },
    {
      "inputs": [
        {
          "internalType": "address",
          "name": "",
          "type": "address"
        },
        {
          "internalType": "address",
          "name": "",
          "type": "address"
        },
        {
          "internalType": "uint256",
          "name": "",
          "type": "uint256"
        },
        {
          "internalType": "bytes",
          "name": "",
          "type": "bytes"
        }
      ],
      "name": "onERC721Received",
      "outputs": [
        {
          "internalType": "bytes4",
          "name": "",
          "type": "bytes4"
        }
      ],
      "stateMutability": "nonpayable",
      "type": "function"
    }
  ],
  "bytecode": "0x608060405234801561001057600080fd5b50600080546001600160a01b0319169055610f77806100306000396000f3fe608060405234801561001057600080fd5b50600436106100885760003560e01c806363e05d9b1161005b57806363e05d9b14610174578063b3f5a94114610187578063bb13116b1461019a578063d6d68177146101ad57600080fd5b8063150b7a021461008d5780632f1eddae146100fa5780633cb747bf1461013f578063485cc9551461015f575b600080fd5b6100c461009b366004610a6a565b7f150b7a0200000000000000000000000000000000000000000000000000000000949350505050565b6040517fffffffff0000000000000000000000000000000000000000000000000000000090911681526020015b60405180910390f35b60015461011a9073ffffffffffffffffffffffffffffffffffffffff1681565b60405173ffffffffffffffffffffffffffffffffffffffff90911681526020016100f1565b60005461011a9073ffffffffffffffffffffffffffffffffffffffff1681565b61017261016d366004610b68565b6101ee565b005b610172610182366004610bea565b6102ec565b610172610195366004610c9b565b6106ec565b6101726101a8366004610d1e565b61076d565b61011a6101bb366004610d95565b600260209081526000928352604080842090915290825290205473ffffffffffffffffffffffffffffffffffffffff1681565b60005473ffffffffffffffffffffffffffffffffffffffff1615610299576040517f08c379a000000000000000000000000000000000000000000000000000000000815260206004820152602660248201527f436f6e74726163742068617320616c7265616479206265656e20696e6974696160448201527f6c697a65642e000000000000000000000000000000000000000000000000000060648201526084015b60405180910390fd5b6000805473ffffffffffffffffffffffffffffffffffffffff9384167fffffffffffffffffffffffff00000000000000000000000000000000000000009182161790915560018054929093169116179055565b60015473ffffffffffffffffffffffffffffffffffffffff1661032460005473ffffffffffffffffffffffffffffffffffffffff1690565b73ffffffffffffffffffffffffffffffffffffffff163373ffffffffffffffffffffffffffffffffffffffff16146103de576040517f08c379a000000000000000000000000000000000000000000000000000000000815260206004820152602e60248201527f4f564d5f58434841494e3a206d657373656e67657220636f6e7472616374207560448201527f6e61757468656e746963617465640000000000000000000000000000000000006064820152608401610290565b8073ffffffffffffffffffffffffffffffffffffffff1661041460005473ffffffffffffffffffffffffffffffffffffffff1690565b73ffffffffffffffffffffffffffffffffffffffff16636e296e456040518163ffffffff1660e01b815260040160206040518083038186803b15801561045957600080fd5b505afa15801561046d573d6000803e3d6000fd5b505050506040513d601f19601f820116820180604052508101906104919190610dc1565b73ffffffffffffffffffffffffffffffffffffffff1614610534576040517f08c379a000000000000000000000000000000000000000000000000000000000815260206004820152603060248201527f4f564d5f58434841494e3a2077726f6e672073656e646572206f662063726f7360448201527f732d646f6d61696e206d657373616765000000000000000000000000000000006064820152608401610290565b73ffffffffffffffffffffffffffffffffffffffff88811660009081526002602090815260408083208884529091529020548116908816146105d2576040517f08c379a000000000000000000000000000000000000000000000000000000000815260206004820152600e60248201527f496e636f7272656374204275726e0000000000000000000000000000000000006044820152606401610290565b6040517f42842e0e00000000000000000000000000000000000000000000000000000000815230600482015273ffffffffffffffffffffffffffffffffffffffff8681166024830152604482018690528916906342842e0e90606401600060405180830381600087803b15801561064857600080fd5b505af115801561065c573d6000803e3d6000fd5b505050508573ffffffffffffffffffffffffffffffffffffffff168773ffffffffffffffffffffffffffffffffffffffff168973ffffffffffffffffffffffffffffffffffffffff167fa8fc058dbc32a74bc50223d04151a850089427ff0a88781cb37b7b47649398b0888888886040516106da9493929190610e2e565b60405180910390a45050505050505050565b333b15610755576040517f08c379a000000000000000000000000000000000000000000000000000000000815260206004820152600f60248201527f4163636f756e74206e6f7420454f4100000000000000000000000000000000006044820152606401610290565b6107658686333388888888610786565b505050505050565b61077d8787338888888888610786565b50505050505050565b6040517f42842e0e00000000000000000000000000000000000000000000000000000000815273ffffffffffffffffffffffffffffffffffffffff8781166004830152306024830152604482018690528916906342842e0e90606401600060405180830381600087803b1580156107fc57600080fd5b505af1158015610810573d6000803e3d6000fd5b50505050600063662a633a60e01b8989898989888860405160240161083b9796959493929190610e6e565b604080517fffffffffffffffffffffffffffffffffffffffffffffffffffffffffffffffe08184030181529190526020810180517bffffffffffffffffffffffffffffffffffffffffffffffffffffffff167fffffffff00000000000000000000000000000000000000000000000000000000909316929092179091526001549091506108df9073ffffffffffffffffffffffffffffffffffffffff16858361098e565b73ffffffffffffffffffffffffffffffffffffffff89811660008181526002602090815260408083208a84529091529081902080547fffffffffffffffffffffffff0000000000000000000000000000000000000000168c85169081179091559051928a16929091907fdd3575932b39da2c2d3bcf8e7d48d27ccd25839997780073277f46760bc15cac9061097b908b908b908a908a90610e2e565b60405180910390a4505050505050505050565b6000546040517f3dbb202b00000000000000000000000000000000000000000000000000000000815273ffffffffffffffffffffffffffffffffffffffff90911690633dbb202b906109e890869085908790600401610ecb565b600060405180830381600087803b158015610a0257600080fd5b505af115801561077d573d6000803e3d6000fd5b73ffffffffffffffffffffffffffffffffffffffff81168114610a3857600080fd5b50565b7f4e487b7100000000000000000000000000000000000000000000000000000000600052604160045260246000fd5b60008060008060808587031215610a8057600080fd5b8435610a8b81610a16565b93506020850135610a9b81610a16565b925060408501359150606085013567ffffffffffffffff80821115610abf57600080fd5b818701915087601f830112610ad357600080fd5b813581811115610ae557610ae5610a3b565b604051601f82017fffffffffffffffffffffffffffffffffffffffffffffffffffffffffffffffe0908116603f01168101908382118183101715610b2b57610b2b610a3b565b816040528281528a6020848701011115610b4457600080fd5b82602086016020830137600060208483010152809550505050505092959194509250565b60008060408385031215610b7b57600080fd5b8235610b8681610a16565b91506020830135610b9681610a16565b809150509250929050565b60008083601f840112610bb357600080fd5b50813567ffffffffffffffff811115610bcb57600080fd5b602083019150836020828501011115610be357600080fd5b9250929050565b600080600080600080600060c0888a031215610c0557600080fd5b8735610c1081610a16565b96506020880135610c2081610a16565b95506040880135610c3081610a16565b94506060880135610c4081610a16565b93506080880135925060a088013567ffffffffffffffff811115610c6357600080fd5b610c6f8a828b01610ba1565b989b979a50959850939692959293505050565b803563ffffffff81168114610c9657600080fd5b919050565b60008060008060008060a08789031215610cb457600080fd5b8635610cbf81610a16565b95506020870135610ccf81610a16565b945060408701359350610ce460608801610c82565b9250608087013567ffffffffffffffff811115610d0057600080fd5b610d0c89828a01610ba1565b979a9699509497509295939492505050565b600080600080600080600060c0888a031215610d3957600080fd5b8735610d4481610a16565b96506020880135610d5481610a16565b95506040880135610d6481610a16565b945060608801359350610d7960808901610c82565b925060a088013567ffffffffffffffff811115610c6357600080fd5b60008060408385031215610da857600080fd5b8235610db381610a16565b946020939093013593505050565b600060208284031215610dd357600080fd5b8151610dde81610a16565b9392505050565b8183528181602085013750600060208284010152600060207fffffffffffffffffffffffffffffffffffffffffffffffffffffffffffffffe0601f840116840101905092915050565b73ffffffffffffffffffffffffffffffffffffffff85168152836020820152606060408201526000610e64606083018486610de5565b9695505050505050565b600073ffffffffffffffffffffffffffffffffffffffff808a1683528089166020840152808816604084015280871660608401525084608083015260c060a0830152610ebe60c083018486610de5565b9998505050505050505050565b73ffffffffffffffffffffffffffffffffffffffff8416815260006020606081840152845180606085015260005b81811015610f1557868101830151858201608001528201610ef9565b81811115610f27576000608083870101525b5063ffffffff9490941660408401525050601f919091017fffffffffffffffffffffffffffffffffffffffffffffffffffffffffffffffe016016080019291505056fea164736f6c6343000808000a",
  "linkReferences": {},
  "deployedLinkReferences": {}
}