{
  "_format": "hh-sol-artifact-1",
  "contractName": "L1NFTBridge",
  "sourceName": "contracts/bridges/L1NFTBridge.sol",
  "abi": [
    {
      "inputs": [],
      "stateMutability": "nonpayable",
      "type": "constructor"
    },
    {
      "anonymous": false,
      "inputs": [
        {
          "indexed": true,
          "internalType": "address",
          "name": "_l1Contract",
          "type": "address"
        },
        {
          "indexed": true,
          "internalType": "address",
          "name": "_l2Contract",
          "type": "address"
        },
        {
          "indexed": true,
          "internalType": "address",
          "name": "_from",
          "type": "address"
        },
        {
          "indexed": false,
          "internalType": "address",
          "name": "_to",
          "type": "address"
        },
        {
          "indexed": false,
          "internalType": "uint256",
          "name": "_tokenId",
          "type": "uint256"
        },
        {
          "indexed": false,
          "internalType": "bytes",
          "name": "_data",
          "type": "bytes"
        }
      ],
      "name": "NFTDepositInitiated",
      "type": "event"
    },
    {
      "anonymous": false,
      "inputs": [
        {
          "indexed": true,
          "internalType": "address",
          "name": "_l1Contract",
          "type": "address"
        },
        {
          "indexed": true,
          "internalType": "address",
          "name": "_l2Contract",
          "type": "address"
        },
        {
          "indexed": true,
          "internalType": "address",
          "name": "_from",
          "type": "address"
        },
        {
          "indexed": false,
          "internalType": "address",
          "name": "_to",
          "type": "address"
        },
        {
          "indexed": false,
          "internalType": "uint256",
          "name": "_tokenId",
          "type": "uint256"
        },
        {
          "indexed": false,
          "internalType": "bytes",
          "name": "_data",
          "type": "bytes"
        }
      ],
      "name": "NFTWithdrawalFailed",
      "type": "event"
    },
    {
      "anonymous": false,
      "inputs": [
        {
          "indexed": true,
          "internalType": "address",
          "name": "_l1Contract",
          "type": "address"
        },
        {
          "indexed": true,
          "internalType": "address",
          "name": "_l2Contract",
          "type": "address"
        },
        {
          "indexed": true,
          "internalType": "address",
          "name": "_from",
          "type": "address"
        },
        {
          "indexed": false,
          "internalType": "address",
          "name": "_to",
          "type": "address"
        },
        {
          "indexed": false,
          "internalType": "uint256",
          "name": "_tokenId",
          "type": "uint256"
        },
        {
          "indexed": false,
          "internalType": "bytes",
          "name": "_data",
          "type": "bytes"
        }
      ],
      "name": "NFTWithdrawalFinalized",
      "type": "event"
    },
    {
      "anonymous": false,
      "inputs": [
        {
          "indexed": false,
          "internalType": "address",
          "name": "account",
          "type": "address"
        }
      ],
      "name": "Paused",
      "type": "event"
    },
    {
      "anonymous": false,
      "inputs": [
        {
          "indexed": false,
          "internalType": "address",
          "name": "account",
          "type": "address"
        }
      ],
      "name": "Unpaused",
      "type": "event"
    },
    {
      "inputs": [
        {
          "internalType": "uint32",
          "name": "_depositL2Gas",
          "type": "uint32"
        }
      ],
      "name": "configureGas",
      "outputs": [],
      "stateMutability": "nonpayable",
      "type": "function"
    },
    {
      "inputs": [],
      "name": "depositL2Gas",
      "outputs": [
        {
          "internalType": "uint32",
          "name": "",
          "type": "uint32"
        }
      ],
      "stateMutability": "view",
      "type": "function"
    },
    {
      "inputs": [
        {
          "internalType": "address",
          "name": "_l1Contract",
          "type": "address"
        },
        {
          "internalType": "uint256",
          "name": "_tokenId",
          "type": "uint256"
        },
        {
          "internalType": "uint32",
          "name": "_l2Gas",
          "type": "uint32"
        },
        {
          "internalType": "bytes",
          "name": "_data",
          "type": "bytes"
        }
      ],
      "name": "depositNFT",
      "outputs": [],
      "stateMutability": "nonpayable",
      "type": "function"
    },
    {
      "inputs": [
        {
          "internalType": "address",
          "name": "_l1Contract",
          "type": "address"
        },
        {
          "internalType": "address",
          "name": "_to",
          "type": "address"
        },
        {
          "internalType": "uint256",
          "name": "_tokenId",
          "type": "uint256"
        },
        {
          "internalType": "uint32",
          "name": "_l2Gas",
          "type": "uint32"
        },
        {
          "internalType": "bytes",
          "name": "_data",
          "type": "bytes"
        }
      ],
      "name": "depositNFTTo",
      "outputs": [],
      "stateMutability": "nonpayable",
      "type": "function"
    },
    {
      "inputs": [
        {
          "internalType": "address",
          "name": "",
          "type": "address"
        },
        {
          "internalType": "uint256",
          "name": "",
          "type": "uint256"
        }
      ],
      "name": "deposits",
      "outputs": [
        {
          "internalType": "address",
          "name": "",
          "type": "address"
        }
      ],
      "stateMutability": "view",
      "type": "function"
    },
    {
      "inputs": [
        {
          "internalType": "address",
          "name": "_l1Contract",
          "type": "address"
        },
        {
          "internalType": "address",
          "name": "_l2Contract",
          "type": "address"
        },
        {
          "internalType": "address",
          "name": "_from",
          "type": "address"
        },
        {
          "internalType": "address",
          "name": "_to",
          "type": "address"
        },
        {
          "internalType": "uint256",
          "name": "_tokenId",
          "type": "uint256"
        },
        {
          "internalType": "bytes",
          "name": "_data",
          "type": "bytes"
        }
      ],
      "name": "finalizeNFTWithdrawal",
      "outputs": [],
      "stateMutability": "nonpayable",
      "type": "function"
    },
    {
      "inputs": [
        {
          "internalType": "address",
          "name": "_l1messenger",
          "type": "address"
        },
        {
          "internalType": "address",
          "name": "_l2NFTBridge",
          "type": "address"
        }
      ],
      "name": "initialize",
      "outputs": [],
      "stateMutability": "nonpayable",
      "type": "function"
    },
    {
      "inputs": [],
      "name": "l2NFTBridge",
      "outputs": [
        {
          "internalType": "address",
          "name": "",
          "type": "address"
        }
      ],
      "stateMutability": "view",
      "type": "function"
    },
    {
      "inputs": [],
      "name": "messenger",
      "outputs": [
        {
          "internalType": "address",
          "name": "",
          "type": "address"
        }
      ],
      "stateMutability": "view",
      "type": "function"
    },
    {
      "inputs": [
        {
          "internalType": "address",
          "name": "",
          "type": "address"
        },
        {
          "internalType": "address",
          "name": "",
          "type": "address"
        },
        {
          "internalType": "uint256",
          "name": "",
          "type": "uint256"
        },
        {
          "internalType": "bytes",
          "name": "",
          "type": "bytes"
        }
      ],
      "name": "onERC721Received",
      "outputs": [
        {
          "internalType": "bytes4",
          "name": "",
          "type": "bytes4"
        }
      ],
      "stateMutability": "nonpayable",
      "type": "function"
    },
    {
      "inputs": [],
      "name": "owner",
      "outputs": [
        {
          "internalType": "address",
          "name": "",
          "type": "address"
        }
      ],
      "stateMutability": "view",
      "type": "function"
    },
    {
      "inputs": [
        {
          "internalType": "address",
          "name": "",
          "type": "address"
        }
      ],
      "name": "pairNFTInfo",
      "outputs": [
        {
          "internalType": "address",
          "name": "l1Contract",
          "type": "address"
        },
        {
          "internalType": "address",
          "name": "l2Contract",
          "type": "address"
        },
        {
          "internalType": "enum L1NFTBridge.Network",
          "name": "baseNetwork",
          "type": "uint8"
        }
      ],
      "stateMutability": "view",
      "type": "function"
    },
    {
      "inputs": [],
      "name": "pause",
      "outputs": [],
      "stateMutability": "nonpayable",
      "type": "function"
    },
    {
      "inputs": [],
      "name": "paused",
      "outputs": [
        {
          "internalType": "bool",
          "name": "",
          "type": "bool"
        }
      ],
      "stateMutability": "view",
      "type": "function"
    },
    {
      "inputs": [
        {
          "internalType": "address",
          "name": "_l1Contract",
          "type": "address"
        },
        {
          "internalType": "address",
          "name": "_l2Contract",
          "type": "address"
        },
        {
          "internalType": "string",
          "name": "_baseNetwork",
          "type": "string"
        }
      ],
      "name": "registerNFTPair",
      "outputs": [],
      "stateMutability": "nonpayable",
      "type": "function"
    },
    {
      "inputs": [
        {
          "internalType": "address",
          "name": "_newOwner",
          "type": "address"
        }
      ],
      "name": "transferOwnership",
      "outputs": [],
      "stateMutability": "nonpayable",
      "type": "function"
    },
    {
      "inputs": [],
      "name": "unpause",
      "outputs": [],
      "stateMutability": "nonpayable",
      "type": "function"
    }
  ],
  "bytecode": "0x608060405234801561001057600080fd5b50600080546001600160a01b0319169055612891806100306000396000f3fe608060405234801561001057600080fd5b506004361061011b5760003560e01c80635c975abb116100b2578063863081dd11610081578063d6d6817711610066578063d6d6817714610302578063e9b4409f14610336578063f2fde38b1461034957600080fd5b8063863081dd1461028f5780638da5cb5b146102ef57600080fd5b80635c975abb1461024b57806363e05d9b146102615780638456cb591461027457806384d904881461027c57600080fd5b806334636648116100ee578063346366481461020a5780633cb747bf1461021d5780633f4ba83a14610230578063485cc9551461023857600080fd5b8063150b7a021461012057806324f036ae1461018d5780632ecef742146101a25780632f1eddae146101df575b600080fd5b61015761012e3660046122f0565b7f150b7a0200000000000000000000000000000000000000000000000000000000949350505050565b6040517fffffffff0000000000000000000000000000000000000000000000000000000090911681526020015b60405180910390f35b6101a061019b3660046123d2565b61035c565b005b6098546101ca9074010000000000000000000000000000000000000000900463ffffffff1681565b60405163ffffffff9091168152602001610184565b6098546101f2906001600160a01b031681565b6040516001600160a01b039091168152602001610184565b6101a0610218366004612455565b610427565b6000546101f2906001600160a01b031681565b6101a0610562565b6101a0610246366004612470565b6105da565b60655460ff166040519015158152602001610184565b6101a061026f3660046124a9565b610890565b6101a0610e19565b6101a061028a366004612541565b610e8f565b6102e061029d3660046125b7565b609a60205260009081526040902080546001909101546001600160a01b039182169181169074010000000000000000000000000000000000000000900460ff1683565b6040516101849392919061260a565b6097546101f2906001600160a01b031681565b6101f2610310366004612667565b60996020908152600092835260408084209091529082529020546001600160a01b031681565b6101a0610344366004612693565b61123a565b6101a06103573660046125b7565b6112ff565b600260015414156103b45760405162461bcd60e51b815260206004820152601f60248201527f5265656e7472616e637947756172643a207265656e7472616e742063616c6c0060448201526064015b60405180910390fd5b600260015560655460ff161561040c5760405162461bcd60e51b815260206004820152601060248201527f5061757361626c653a207061757365640000000000000000000000000000000060448201526064016103ab565b61041b863387878787876113a7565b50506001805550505050565b6097546001600160a01b031633148061044957506097546001600160a01b0316155b6104955760405162461bcd60e51b815260206004820152601760248201527f43616c6c6572206973206e6f7420746865206f776e657200000000000000000060448201526064016103ab565b6000546001600160a01b03166105135760405162461bcd60e51b815260206004820152602560248201527f436f6e747261637420686173206e6f7420796574206265656e20696e6974696160448201527f6c697a656400000000000000000000000000000000000000000000000000000060648201526084016103ab565b6098805463ffffffff90921674010000000000000000000000000000000000000000027fffffffffffffffff00000000ffffffffffffffffffffffffffffffffffffffff909216919091179055565b6097546001600160a01b031633148061058457506097546001600160a01b0316155b6105d05760405162461bcd60e51b815260206004820152601760248201527f43616c6c6572206973206e6f7420746865206f776e657200000000000000000060448201526064016103ab565b6105d8611a80565b565b6097546001600160a01b03163314806105fc57506097546001600160a01b0316155b6106485760405162461bcd60e51b815260206004820152601760248201527f43616c6c6572206973206e6f7420746865206f776e657200000000000000000060448201526064016103ab565b6000547501000000000000000000000000000000000000000000900460ff168061068d575060005474010000000000000000000000000000000000000000900460ff16155b6106ff5760405162461bcd60e51b815260206004820152602e60248201527f496e697469616c697a61626c653a20636f6e747261637420697320616c72656160448201527f647920696e697469616c697a656400000000000000000000000000000000000060648201526084016103ab565b6000547501000000000000000000000000000000000000000000900460ff1615801561076657600080547fffffffffffffffffffff0000ffffffffffffffffffffffffffffffffffffffff1675010100000000000000000000000000000000000000001790555b6000546001600160a01b0316156107e55760405162461bcd60e51b815260206004820152602660248201527f436f6e74726163742068617320616c7265616479206265656e20696e6974696160448201527f6c697a65642e000000000000000000000000000000000000000000000000000060648201526084016103ab565b600080546001600160a01b038086167fffffffffffffffffffffffff0000000000000000000000000000000000000000928316179092556098805492851692821692909217909155609780549091163317905561084462155cc0610427565b61084c611b3a565b610854611c8a565b61085c611e01565b801561088b57600080547fffffffffffffffffffff00ffffffffffffffffffffffffffffffffffffffffff1690555b505050565b6098546001600160a01b03166108ae6000546001600160a01b031690565b6001600160a01b0316336001600160a01b0316146109345760405162461bcd60e51b815260206004820152602e60248201527f4f564d5f58434841494e3a206d657373656e67657220636f6e7472616374207560448201527f6e61757468656e7469636174656400000000000000000000000000000000000060648201526084016103ab565b806001600160a01b03166109506000546001600160a01b031690565b6001600160a01b0316636e296e456040518163ffffffff1660e01b815260040160206040518083038186803b15801561098857600080fd5b505afa15801561099c573d6000803e3d6000fd5b505050506040513d601f19601f820116820180604052508101906109c09190612704565b6001600160a01b031614610a3c5760405162461bcd60e51b815260206004820152603060248201527f4f564d5f58434841494e3a2077726f6e672073656e646572206f662063726f7360448201527f732d646f6d61696e206d6573736167650000000000000000000000000000000060648201526084016103ab565b6001600160a01b0388166000908152609a602052604081209060018281015474010000000000000000000000000000000000000000900460ff1690811115610a8657610a866125db565b1415610be5576001600160a01b038981166000908152609960209081526040808320898452909152902054811690891614610b035760405162461bcd60e51b815260206004820152600e60248201527f496e636f7272656374204275726e00000000000000000000000000000000000060448201526064016103ab565b6040517f42842e0e0000000000000000000000000000000000000000000000000000000081523060048201526001600160a01b038781166024830152604482018790528a16906342842e0e906064015b600060405180830381600087803b158015610b6d57600080fd5b505af1158015610b81573d6000803e3d6000fd5b50505050866001600160a01b0316886001600160a01b03168a6001600160a01b03167fa8fc058dbc32a74bc50223d04151a850089427ff0a88781cb37b7b47649398b089898989604051610bd8949392919061274c565b60405180910390a4610e0e565b610c0f897f3899b23800000000000000000000000000000000000000000000000000000000611f54565b8015610c9e5750886001600160a01b0316633aced1496040518163ffffffff1660e01b8152600401602060405180830381600087803b158015610c5157600080fd5b505af1158015610c65573d6000803e3d6000fd5b505050506040513d601f19601f82011682018060405250810190610c899190612704565b6001600160a01b0316886001600160a01b0316145b15610cf1576040517f40c10f190000000000000000000000000000000000000000000000000000000081526001600160a01b038781166004830152602482018790528a16906340c10f1990604401610b53565b600063662a633a60e01b8a8a898b8a8a8a604051602401610d189796959493929190612775565b60408051601f198184030181529190526020810180517bffffffffffffffffffffffffffffffffffffffffffffffffffffffff167fffffffff0000000000000000000000000000000000000000000000000000000090931692909217909152609854909150610db1906001600160a01b0381169063ffffffff740100000000000000000000000000000000000000009091041683611f79565b876001600160a01b0316896001600160a01b03168b6001600160a01b03167f0827c8c54f3afb487c77436375971699d52dcbb2fcc5444d5aa7ca8ebe38279c8a8a8a8a604051610e04949392919061274c565b60405180910390a4505b505050505050505050565b6097546001600160a01b0316331480610e3b57506097546001600160a01b0316155b610e875760405162461bcd60e51b815260206004820152601760248201527f43616c6c6572206973206e6f7420746865206f776e657200000000000000000060448201526064016103ab565b6105d8611ffd565b6097546001600160a01b0316331480610eb157506097546001600160a01b0316155b610efd5760405162461bcd60e51b815260206004820152601760248201527f43616c6c6572206973206e6f7420746865206f776e657200000000000000000060448201526064016103ab565b6001600160a01b038084166000908152609a60205260409020600181015490911615610f915760405162461bcd60e51b815260206004820152602160248201527f4c32204e4654204164647265737320416c72656164792052656769737465726560448201527f640000000000000000000000000000000000000000000000000000000000000060648201526084016103ab565b6040517f4c3100000000000000000000000000000000000000000000000000000000000060208201526022016040516020818303038152906040528051906020012082604051602001610fe491906127f5565b60405160208183030381529060405280519060200120148061106c57506040517f4c320000000000000000000000000000000000000000000000000000000000006020820152602201604051602081830303815290604052805190602001208260405160200161105491906127f5565b60405160208183030381529060405280519060200120145b6110b85760405162461bcd60e51b815260206004820152600f60248201527f496e76616c6964204e6574776f726b000000000000000000000000000000000060448201526064016103ab565b6040517f4c310000000000000000000000000000000000000000000000000000000000006020820152600090602201604051602081830303815290604052805190602001208360405160200161110e91906127f5565b60405160208183030381529060405280519060200120141561113257506000611136565b5060015b6040518060600160405280866001600160a01b03168152602001856001600160a01b03168152602001826001811115611171576111716125db565b90526001600160a01b038087166000908152609a6020908152604091829020845181549085167fffffffffffffffffffffffff000000000000000000000000000000000000000091821617825591850151600180830180549290961693821684178655938601519194919391927fffffffffffffffffffffff00000000000000000000000000000000000000000090911617907401000000000000000000000000000000000000000090849081111561122c5761122c6125db565b021790555050505050505050565b6002600154141561128d5760405162461bcd60e51b815260206004820152601f60248201527f5265656e7472616e637947756172643a207265656e7472616e742063616c6c0060448201526064016103ab565b600260015560655460ff16156112e55760405162461bcd60e51b815260206004820152601060248201527f5061757361626c653a207061757365640000000000000000000000000000000060448201526064016103ab565b6112f4853333878787876113a7565b505060018055505050565b6097546001600160a01b031633148061132157506097546001600160a01b0316155b61136d5760405162461bcd60e51b815260206004820152601760248201527f43616c6c6572206973206e6f7420746865206f776e657200000000000000000060448201526064016103ab565b609780547fffffffffffffffffffffffff0000000000000000000000000000000000000000166001600160a01b0392909216919091179055565b6001600160a01b038088166000908152609a6020526040902060018101549091166114145760405162461bcd60e51b815260206004820152601a60248201527f43616e27742046696e64204c32204e465420436f6e747261637400000000000060448201526064016103ab565b600060018281015474010000000000000000000000000000000000000000900460ff1690811115611447576114476125db565b141561163f57333b1561149c5760405162461bcd60e51b815260206004820152600f60248201527f4163636f756e74206e6f7420454f41000000000000000000000000000000000060448201526064016103ab565b6040517f42842e0e0000000000000000000000000000000000000000000000000000000081526001600160a01b038881166004830152306024830152604482018790528916906342842e0e90606401600060405180830381600087803b15801561150557600080fd5b505af1158015611519573d6000803e3d6000fd5b5050506001820154604051600092507f662a633a000000000000000000000000000000000000000000000000000000009161156c918c916001600160a01b0316908c908c908c908b908b90602401612775565b60408051601f198184030181529190526020810180517bffffffffffffffffffffffffffffffffffffffffffffffffffffffff167fffffffff00000000000000000000000000000000000000000000000000000000909316929092179091526098549091506115e5906001600160a01b03168683611f79565b5060018101546001600160a01b0389811660009081526099602090815260408083208a8452909152902080547fffffffffffffffffffffffff00000000000000000000000000000000000000001691909216179055611a20565b6000886001600160a01b0316633aced1496040518163ffffffff1660e01b8152600401602060405180830381600087803b15801561167c57600080fd5b505af1158015611690573d6000803e3d6000fd5b505050506040513d601f19601f820116820180604052508101906116b49190612704565b60018301549091506001600160a01b038083169116146117165760405162461bcd60e51b815260206004820152601d60248201527f4c32204e465420436f6e74726163742041646472657373204572726f7200000060448201526064016103ab565b6040517f6352211e000000000000000000000000000000000000000000000000000000008152600481018790526000906001600160a01b038b1690636352211e9060240160206040518083038186803b15801561177257600080fd5b505afa158015611786573d6000803e3d6000fd5b505050506040513d601f19601f820116820180604052508101906117aa9190612704565b9050336001600160a01b038216148061185c57506040517f081812fc0000000000000000000000000000000000000000000000000000000081526004810188905233906001600160a01b038c169063081812fc9060240160206040518083038186803b15801561181957600080fd5b505afa15801561182d573d6000803e3d6000fd5b505050506040513d601f19601f820116820180604052508101906118519190612704565b6001600160a01b0316145b80611900575060018301546040517fe985e9c50000000000000000000000000000000000000000000000000000000081526001600160a01b0383811660048301523360248301529091169063e985e9c59060440160206040518083038186803b1580156118c857600080fd5b505afa1580156118dc573d6000803e3d6000fd5b505050506040513d601f19601f820116820180604052508101906119009190612811565b61190957600080fd5b6040517f42966c68000000000000000000000000000000000000000000000000000000008152600481018890526001600160a01b038b16906342966c6890602401600060405180830381600087803b15801561196457600080fd5b505af1158015611978573d6000803e3d6000fd5b50505050606063662a633a60e01b8b848c8c8c8b8b6040516024016119a39796959493929190612775565b60408051601f198184030181529190526020810180517bffffffffffffffffffffffffffffffffffffffffffffffffffffffff167fffffffff0000000000000000000000000000000000000000000000000000000090931692909217909152609854909150611a1c906001600160a01b03168883611f79565b5050505b60018101546040516001600160a01b03808a1692811691908b16907fdd3575932b39da2c2d3bcf8e7d48d27ccd25839997780073277f46760bc15cac90611a6e908b908b908a908a9061274c565b60405180910390a45050505050505050565b60655460ff16611ad25760405162461bcd60e51b815260206004820152601460248201527f5061757361626c653a206e6f742070617573656400000000000000000000000060448201526064016103ab565b606580547fffffffffffffffffffffffffffffffffffffffffffffffffffffffffffffff001690557f5db9ee0a495bf2e6ff9c91a7834c1ba4fdd244a5e8aa4e537bd38aeae4b073aa335b6040516001600160a01b03909116815260200160405180910390a1565b6000547501000000000000000000000000000000000000000000900460ff1680611b7f575060005474010000000000000000000000000000000000000000900460ff16155b611bf15760405162461bcd60e51b815260206004820152602e60248201527f496e697469616c697a61626c653a20636f6e747261637420697320616c72656160448201527f647920696e697469616c697a656400000000000000000000000000000000000060648201526084016103ab565b6000547501000000000000000000000000000000000000000000900460ff16158015611c5857600080547fffffffffffffffffffff0000ffffffffffffffffffffffffffffffffffffffff1675010100000000000000000000000000000000000000001790555b8015611c8757600080547fffffffffffffffffffff00ffffffffffffffffffffffffffffffffffffffffff1690555b50565b6000547501000000000000000000000000000000000000000000900460ff1680611ccf575060005474010000000000000000000000000000000000000000900460ff16155b611d415760405162461bcd60e51b815260206004820152602e60248201527f496e697469616c697a61626c653a20636f6e747261637420697320616c72656160448201527f647920696e697469616c697a656400000000000000000000000000000000000060648201526084016103ab565b6000547501000000000000000000000000000000000000000000900460ff16158015611da857600080547fffffffffffffffffffff0000ffffffffffffffffffffffffffffffffffffffff1675010100000000000000000000000000000000000000001790555b606580547fffffffffffffffffffffffffffffffffffffffffffffffffffffffffffffff001690558015611c8757600080547fffffffffffffffffffff00ffffffffffffffffffffffffffffffffffffffffff16905550565b6000547501000000000000000000000000000000000000000000900460ff1680611e46575060005474010000000000000000000000000000000000000000900460ff16155b611eb85760405162461bcd60e51b815260206004820152602e60248201527f496e697469616c697a61626c653a20636f6e747261637420697320616c72656160448201527f647920696e697469616c697a656400000000000000000000000000000000000060648201526084016103ab565b6000547501000000000000000000000000000000000000000000900460ff16158015611f1f57600080547fffffffffffffffffffff0000ffffffffffffffffffffffffffffffffffffffff1675010100000000000000000000000000000000000000001790555b600180558015611c8757600080547fffffffffffffffffffff00ffffffffffffffffffffffffffffffffffffffffff16905550565b6000611f5f836120a3565b8015611f705750611f708383612107565b90505b92915050565b6000546040517f3dbb202b0000000000000000000000000000000000000000000000000000000081526001600160a01b0390911690633dbb202b90611fc690869085908790600401612833565b600060405180830381600087803b158015611fe057600080fd5b505af1158015611ff4573d6000803e3d6000fd5b50505050505050565b60655460ff16156120505760405162461bcd60e51b815260206004820152601060248201527f5061757361626c653a207061757365640000000000000000000000000000000060448201526064016103ab565b606580547fffffffffffffffffffffffffffffffffffffffffffffffffffffffffffffff001660011790557f62e78cea01bee320cd4e420270b5ea74000d11b0c9f74754ebdbfc544b05a258611b1d3390565b60006120cf827f01ffc9a700000000000000000000000000000000000000000000000000000000612107565b8015611f735750612100827fffffffff00000000000000000000000000000000000000000000000000000000612107565b1592915050565b604080517fffffffff00000000000000000000000000000000000000000000000000000000831660248083019190915282518083039091018152604490910182526020810180517bffffffffffffffffffffffffffffffffffffffffffffffffffffffff167f01ffc9a700000000000000000000000000000000000000000000000000000000179052905160009190829081906001600160a01b03871690617530906121b49086906127f5565b6000604051808303818686fa925050503d80600081146121f0576040519150601f19603f3d011682016040523d82523d6000602084013e6121f5565b606091505b50915091506020815110156122105760009350505050611f73565b81801561222c57508080602001905181019061222c9190612811565b9695505050505050565b6001600160a01b0381168114611c8757600080fd5b7f4e487b7100000000000000000000000000000000000000000000000000000000600052604160045260246000fd5b600067ffffffffffffffff808411156122955761229561224b565b604051601f8501601f19908116603f011681019082821181831017156122bd576122bd61224b565b816040528093508581528686860111156122d657600080fd5b858560208301376000602087830101525050509392505050565b6000806000806080858703121561230657600080fd5b843561231181612236565b9350602085013561232181612236565b925060408501359150606085013567ffffffffffffffff81111561234457600080fd5b8501601f8101871361235557600080fd5b6123648782356020840161227a565b91505092959194509250565b803563ffffffff8116811461238457600080fd5b919050565b60008083601f84011261239b57600080fd5b50813567ffffffffffffffff8111156123b357600080fd5b6020830191508360208285010111156123cb57600080fd5b9250929050565b60008060008060008060a087890312156123eb57600080fd5b86356123f681612236565b9550602087013561240681612236565b94506040870135935061241b60608801612370565b9250608087013567ffffffffffffffff81111561243757600080fd5b61244389828a01612389565b979a9699509497509295939492505050565b60006020828403121561246757600080fd5b611f7082612370565b6000806040838503121561248357600080fd5b823561248e81612236565b9150602083013561249e81612236565b809150509250929050565b600080600080600080600060c0888a0312156124c457600080fd5b87356124cf81612236565b965060208801356124df81612236565b955060408801356124ef81612236565b945060608801356124ff81612236565b93506080880135925060a088013567ffffffffffffffff81111561252257600080fd5b61252e8a828b01612389565b989b979a50959850939692959293505050565b60008060006060848603121561255657600080fd5b833561256181612236565b9250602084013561257181612236565b9150604084013567ffffffffffffffff81111561258d57600080fd5b8401601f8101861361259e57600080fd5b6125ad8682356020840161227a565b9150509250925092565b6000602082840312156125c957600080fd5b81356125d481612236565b9392505050565b7f4e487b7100000000000000000000000000000000000000000000000000000000600052602160045260246000fd5b6001600160a01b038481168252831660208201526060810160028310612659577f4e487b7100000000000000000000000000000000000000000000000000000000600052602160045260246000fd5b826040830152949350505050565b6000806040838503121561267a57600080fd5b823561268581612236565b946020939093013593505050565b6000806000806000608086880312156126ab57600080fd5b85356126b681612236565b9450602086013593506126cb60408701612370565b9250606086013567ffffffffffffffff8111156126e757600080fd5b6126f388828901612389565b969995985093965092949392505050565b60006020828403121561271657600080fd5b81516125d481612236565b818352818160208501375060006020828401015260006020601f19601f840116840101905092915050565b6001600160a01b038516815283602082015260606040820152600061222c606083018486612721565b60006001600160a01b03808a1683528089166020840152808816604084015280871660608401525084608083015260c060a08301526127b860c083018486612721565b9998505050505050505050565b60005b838110156127e05781810151838201526020016127c8565b838111156127ef576000848401525b50505050565b600082516128078184602087016127c5565b9190910192915050565b60006020828403121561282357600080fd5b815180151581146125d457600080fd5b6001600160a01b038416815260606020820152600083518060608401526128618160808501602088016127c5565b63ffffffff93909316604083015250601f91909101601f1916016080019291505056fea164736f6c6343000809000a",
  "linkReferences": {},
  "deployedLinkReferences": {}
}