{
  "_format": "hh-sol-artifact-1",
  "contractName": "OVM_ETH",
  "sourceName": "contracts/optimistic-ethereum/OVM/predeploys/OVM_ETH.sol",
  "abi": [
    {
      "inputs": [],
      "stateMutability": "nonpayable",
      "type": "constructor"
    },
    {
      "anonymous": false,
      "inputs": [
        {
          "indexed": true,
          "internalType": "address",
          "name": "owner",
          "type": "address"
        },
        {
          "indexed": true,
          "internalType": "address",
          "name": "spender",
          "type": "address"
        },
        {
          "indexed": false,
          "internalType": "uint256",
          "name": "value",
          "type": "uint256"
        }
      ],
      "name": "Approval",
      "type": "event"
    },
    {
      "anonymous": false,
      "inputs": [
        {
          "indexed": true,
          "internalType": "address",
          "name": "_account",
          "type": "address"
        },
        {
          "indexed": false,
          "internalType": "uint256",
          "name": "_amount",
          "type": "uint256"
        }
      ],
      "name": "Burn",
      "type": "event"
    },
    {
      "anonymous": false,
      "inputs": [
        {
          "indexed": true,
          "internalType": "address",
          "name": "dst",
          "type": "address"
        },
        {
          "indexed": false,
          "internalType": "uint256",
          "name": "wad",
          "type": "uint256"
        }
      ],
      "name": "Deposit",
      "type": "event"
    },
    {
      "anonymous": false,
      "inputs": [
        {
          "indexed": true,
          "internalType": "address",
          "name": "_account",
          "type": "address"
        },
        {
          "indexed": false,
          "internalType": "uint256",
          "name": "_amount",
          "type": "uint256"
        }
      ],
      "name": "Mint",
      "type": "event"
    },
    {
      "anonymous": false,
      "inputs": [
        {
          "indexed": true,
          "internalType": "address",
          "name": "from",
          "type": "address"
        },
        {
          "indexed": true,
          "internalType": "address",
          "name": "to",
          "type": "address"
        },
        {
          "indexed": false,
          "internalType": "uint256",
          "name": "value",
          "type": "uint256"
        }
      ],
      "name": "Transfer",
      "type": "event"
    },
    {
      "anonymous": false,
      "inputs": [
        {
          "indexed": true,
          "internalType": "address",
          "name": "src",
          "type": "address"
        },
        {
          "indexed": false,
          "internalType": "uint256",
          "name": "wad",
          "type": "uint256"
        }
      ],
      "name": "Withdrawal",
      "type": "event"
    },
    {
      "stateMutability": "payable",
      "type": "fallback"
    },
    {
      "inputs": [
        {
          "internalType": "address",
          "name": "owner",
          "type": "address"
        },
        {
          "internalType": "address",
          "name": "spender",
          "type": "address"
        }
      ],
      "name": "allowance",
      "outputs": [
        {
          "internalType": "uint256",
          "name": "",
          "type": "uint256"
        }
      ],
      "stateMutability": "view",
      "type": "function"
    },
    {
      "inputs": [
        {
          "internalType": "address",
          "name": "spender",
          "type": "address"
        },
        {
          "internalType": "uint256",
          "name": "amount",
          "type": "uint256"
        }
      ],
      "name": "approve",
      "outputs": [
        {
          "internalType": "bool",
          "name": "",
          "type": "bool"
        }
      ],
      "stateMutability": "nonpayable",
      "type": "function"
    },
    {
      "inputs": [
        {
          "internalType": "address",
          "name": "account",
          "type": "address"
        }
      ],
      "name": "balanceOf",
      "outputs": [
        {
          "internalType": "uint256",
          "name": "",
          "type": "uint256"
        }
      ],
      "stateMutability": "view",
      "type": "function"
    },
    {
      "inputs": [
        {
          "internalType": "address",
          "name": "_from",
          "type": "address"
        },
        {
          "internalType": "uint256",
          "name": "_amount",
          "type": "uint256"
        }
      ],
      "name": "burn",
      "outputs": [],
      "stateMutability": "nonpayable",
      "type": "function"
    },
    {
      "inputs": [],
      "name": "decimals",
      "outputs": [
        {
          "internalType": "uint8",
          "name": "",
          "type": "uint8"
        }
      ],
      "stateMutability": "view",
      "type": "function"
    },
    {
      "inputs": [
        {
          "internalType": "address",
          "name": "spender",
          "type": "address"
        },
        {
          "internalType": "uint256",
          "name": "subtractedValue",
          "type": "uint256"
        }
      ],
      "name": "decreaseAllowance",
      "outputs": [
        {
          "internalType": "bool",
          "name": "",
          "type": "bool"
        }
      ],
      "stateMutability": "nonpayable",
      "type": "function"
    },
    {
      "inputs": [],
      "name": "deposit",
      "outputs": [],
      "stateMutability": "payable",
      "type": "function"
    },
    {
      "inputs": [
        {
          "internalType": "address",
          "name": "spender",
          "type": "address"
        },
        {
          "internalType": "uint256",
          "name": "addedValue",
          "type": "uint256"
        }
      ],
      "name": "increaseAllowance",
      "outputs": [
        {
          "internalType": "bool",
          "name": "",
          "type": "bool"
        }
      ],
      "stateMutability": "nonpayable",
      "type": "function"
    },
    {
      "inputs": [],
      "name": "l1Token",
      "outputs": [
        {
          "internalType": "address",
          "name": "",
          "type": "address"
        }
      ],
      "stateMutability": "view",
      "type": "function"
    },
    {
      "inputs": [],
      "name": "l2Bridge",
      "outputs": [
        {
          "internalType": "address",
          "name": "",
          "type": "address"
        }
      ],
      "stateMutability": "view",
      "type": "function"
    },
    {
      "inputs": [
        {
          "internalType": "address",
          "name": "_to",
          "type": "address"
        },
        {
          "internalType": "uint256",
          "name": "_amount",
          "type": "uint256"
        }
      ],
      "name": "mint",
      "outputs": [],
      "stateMutability": "nonpayable",
      "type": "function"
    },
    {
      "inputs": [],
      "name": "name",
      "outputs": [
        {
          "internalType": "string",
          "name": "",
          "type": "string"
        }
      ],
      "stateMutability": "view",
      "type": "function"
    },
    {
      "inputs": [
        {
          "internalType": "bytes4",
          "name": "_interfaceId",
          "type": "bytes4"
        }
      ],
      "name": "supportsInterface",
      "outputs": [
        {
          "internalType": "bool",
          "name": "",
          "type": "bool"
        }
      ],
      "stateMutability": "pure",
      "type": "function"
    },
    {
      "inputs": [],
      "name": "symbol",
      "outputs": [
        {
          "internalType": "string",
          "name": "",
          "type": "string"
        }
      ],
      "stateMutability": "view",
      "type": "function"
    },
    {
      "inputs": [],
      "name": "totalSupply",
      "outputs": [
        {
          "internalType": "uint256",
          "name": "",
          "type": "uint256"
        }
      ],
      "stateMutability": "view",
      "type": "function"
    },
    {
      "inputs": [
        {
          "internalType": "address",
          "name": "recipient",
          "type": "address"
        },
        {
          "internalType": "uint256",
          "name": "amount",
          "type": "uint256"
        }
      ],
      "name": "transfer",
      "outputs": [
        {
          "internalType": "bool",
          "name": "",
          "type": "bool"
        }
      ],
      "stateMutability": "nonpayable",
      "type": "function"
    },
    {
      "inputs": [
        {
          "internalType": "address",
          "name": "sender",
          "type": "address"
        },
        {
          "internalType": "address",
          "name": "recipient",
          "type": "address"
        },
        {
          "internalType": "uint256",
          "name": "amount",
          "type": "uint256"
        }
      ],
      "name": "transferFrom",
      "outputs": [
        {
          "internalType": "bool",
          "name": "",
          "type": "bool"
        }
      ],
      "stateMutability": "nonpayable",
      "type": "function"
    },
    {
      "inputs": [
        {
          "internalType": "uint256",
          "name": "_wad",
          "type": "uint256"
        }
      ],
      "name": "withdraw",
      "outputs": [],
      "stateMutability": "nonpayable",
      "type": "function"
    }
  ],
  "bytecode": "0x60806040525a6200000f62000151565b8015620000265760008062000023620001ad565b50505b50734200000000000000000000000000000000000010600060405160408082018152600582526422ba3432b960d91b6020830152518060400160405280600381526020016208aa8960eb1b81525081818160039080516200008c9291602001906200021a565b506004818051620000a29291602001906200021a565b5060126005600181620000b4620002dc565b8160ff021916908360ff16021790620000cc62000329565b505050505082600560016101000a81620000e5620002dc565b816001600160a01b0302191690836001600160a01b03160217906200010962000329565b50505083600660006101000a8162000120620002dc565b816001600160a01b0302191690836001600160a01b03160217906200014462000329565b505050505050506200039b565b63a8c4c5ec598160e01b8152602081600483336000905af158600e01573d6000803e3d6000fd5b3d6001141558600a015760016000f35b8051935060005b6040811015620001a8576000828201526020016200018f565b505050565b632a2a7adb598160e01b8152600481016020815285602082015260005b86811015620001e7578086015182820160400152602001620001ca565b506020828760640184336000905af158600e01573d6000803e3d6000fd5b3d6001141558600a015760016000f35b505050565b828062000226620002dc565b600181600116156101000203166002900490600052602060002090601f01602090048101928262000266576000856200025e62000329565b5050620002ca565b82601f106200028457805160ff191683800117856200025e62000329565b828001600101856200029562000329565b50508215620002ca579182015b82811115620002ca57825182620002b862000329565b505091602001919060010190620002a2565b50620002d892915062000378565b5090565b6303daa959598160e01b8152836004820152602081602483336000905af158600e01573d6000803e3d6000fd5b3d6001141558600a015760016000f35b805160008252935060206200018f565b6322bd64c0598160e01b8152836004820152846024820152600081604483336000905af158600e01573d6000803e3d6000fd5b3d6001141558600a015760016000f35b6000815260206200018f565b80821115620002d857600080826200038f62000329565b50505060010162000378565b6116ae80620003ab6000396000f3fe6080604052600436106101095760003560e01c806370a0823111610095578063a9059cbb11610064578063a9059cbb14610539578063ae1f6aaf1461058c578063c01e1bd6146105ce578063d0e30db014610109578063dd62ed3e146105f457610109565b806370a082311461042057806395d89b411461046d5780639dc29fac14610493578063a457c2d7146104e657610109565b806323b872dd116100dc57806323b872dd1461029d5780632e1a7d4d146102fa578063313ce5671461033e578063395093511461037a57806340c10f19146103cd57610109565b806301ffc9a71461011357806306fdde0314610175578063095ea7b31461021257806318160ddd14610265575b610111610649565b005b5a61011c6113c9565b80156101305760008061012d61141e565b50505b50610161600480360360208110156101505760008061014d61141e565b50505b50356001600160e01b03191661070b565b604051901515815260200160405180910390f35b5a61017e6113c9565b80156101925760008061018f61141e565b50505b5061019b610769565b60405160208082528190810183818151815260200191508051906020019080838360005b838110156101d75780820151838201526020016101bf565b50505050905090810190601f1680156102045780820380516001836020036101000a031916815260200191505b509250505060405180910390f35b5a61021b6113c9565b801561022f5760008061022c61141e565b50505b506101616004803603604081101561024f5760008061024c61141e565b50505b506001600160a01b038135169060200135610826565b5a61026e6113c9565b80156102825760008061027f61141e565b50505b5061028b610843565b60405190815260200160405180910390f35b5a6102a66113c9565b80156102ba576000806102b761141e565b50505b50610161600480360360608110156102da576000806102d761141e565b50505b506001600160a01b03813581169160208101359091169060400135610854565b5a6103036113c9565b80156103175760008061031461141e565b50505b50610111600480360360208110156103375760008061033461141e565b50505b50356108e8565b5a6103476113c9565b801561035b5760008061035861141e565b50505b50610364610956565b60405160ff909116815260200160405180910390f35b5a6103836113c9565b80156103975760008061039461141e565b50505b50610161600480360360408110156103b7576000806103b461141e565b50505b506001600160a01b038135169060200135610972565b5a6103d66113c9565b80156103ea576000806103e761141e565b50505b506101116004803603604081101561040a5760008061040761141e565b50505b506001600160a01b0381351690602001356109d7565b5a6104296113c9565b801561043d5760008061043a61141e565b50505b5061028b6004803603602081101561045d5760008061045a61141e565b50505b50356001600160a01b0316610ab3565b5a6104766113c9565b801561048a5760008061048761141e565b50505b5061019b610ad9565b5a61049c6113c9565b80156104b0576000806104ad61141e565b50505b50610111600480360360408110156104d0576000806104cd61141e565b50505b506001600160a01b038135169060200135610b7f565b5a6104ef6113c9565b80156105035760008061050061141e565b50505b50610161600480360360408110156105235760008061052061141e565b50505b506001600160a01b038135169060200135610c5b565b5a6105426113c9565b80156105565760008061055361141e565b50505b50610161600480360360408110156105765760008061057361141e565b50505b506001600160a01b038135169060200135610cd1565b5a6105956113c9565b80156105a9576000806105a661141e565b50505b506105b2610ce5565b6040516001600160a01b03909116815260200160405180910390f35b5a6105d76113c9565b80156105eb576000806105e861141e565b50505b506105b2610d04565b5a6105fd6113c9565b80156106115760008061060e61141e565b50505b5061028b600480360360408110156106315760008061062e61141e565b50505b506001600160a01b0381358116916020013516610d10565b6106bc5a63996d79a5598160e01b8152602081600483336000905af158600e01573d6000803e3d6000fd5b3d6001141558600a015760016000f35b8051925060005b60408110156106a25760008282015260200161068b565b5050505a6106ae611489565b5a6106b76113c9565b610d50565b5a6106c5611489565b6001600160a01b03167fe1fffcc4923d04b559f4d29a8bfc6cda04eb5b0d3c460751c2402c5c5cc9109c5a6106f86113c9565b60405190815260200160405180910390a2565b60007f01ffc9a7a5cef8baa21ed3c5c0d7e23accb804b619e9333b597f47a0d84076e2631d1d8b6360e01b6001600160e01b031984166301ffc9a760e01b148061076157506001600160e01b0319848116908216145b949350505050565b60606003806107766114cf565b600181600116156101000203166002900480601f0160208091040260200160405190810160405281815291906020830182806107b06114cf565b6001816001161561010002031660029004801561081c5780601f106107ea5761010080836107dc6114cf565b04028352916020019161081c565b820191906000526020600020905b816108016114cf565b815290600101906020018083116107f857829003601f168201915b5050505050905090565b600061083a610833610eee565b8484610ef9565b50600192915050565b6000600261084f6114cf565b905090565b6000610861848484610d50565b6108de8461086d610eee565b6108d9856040516060810160405260288082526115f760208301396001600160a01b038a16600090815260016020526040902060006108aa610eee565b6001600160a01b03166001600160a01b031681526020019081526020016000206108d26114cf565b9190611021565b610ef9565b5060019392505050565b806108fa5a6108f5611489565b610ab3565b101561090e5760008061090b61141e565b50505b5a610917611489565b6001600160a01b03167f7fcf532c15f0a6db0bd6d0e038bea71d30d808c7d98cb3bf7268a95bf5081b658260405190815260200160405180910390a250565b60008060056109636114cf565b906101000a900460ff16905090565b600061083a61097f610eee565b846108d98560016000610990610eee565b6001600160a01b03166001600160a01b031681526020019081526020016000206001600160a01b0389166000908152602091909152604090206109d16114cf565b906110c1565b600060066109e36114cf565b906101000a90046001600160a01b03166001600160a01b03165a610a05611489565b6001600160a01b031614610a685760405162461bcd60e51b815260206004820181905260248201527f4f6e6c79204c32204272696467652063616e206d696e7420616e64206275726e604482015260640160405180910390610a6561141e565b50505b610a728282611129565b816001600160a01b03167f0f6798a560793a54c3bcfe86a93cde1e73087d944c0ea20544137d41213968858260405190815260200160405180910390a25050565b6001600160a01b0381166000908152602081905260408120610ad36114cf565b92915050565b6060600480610ae66114cf565b600181600116156101000203166002900480601f016020809104026020016040519081016040528181529190602083018280610b206114cf565b6001816001161561010002031660029004801561081c5780601f10610b4c5761010080836107dc6114cf565b820191906000526020600020905b81610b636114cf565b81529060010190602001808311610b5a57509395945050505050565b60006006610b8b6114cf565b906101000a90046001600160a01b03166001600160a01b03165a610bad611489565b6001600160a01b031614610c105760405162461bcd60e51b815260206004820181905260248201527f4f6e6c79204c32204272696467652063616e206d696e7420616e64206275726e604482015260640160405180910390610c0d61141e565b50505b610c1a8282611242565b816001600160a01b03167fcc16f5dbb4873280815c1ee09dbd06736cffcc184412cf7a71a0fdb75d397ca58260405190815260200160405180910390a25050565b600061083a610c68610eee565b846108d985604051606081016040526025808252611689602083013960016000610c90610eee565b6001600160a01b03166001600160a01b031681526020019081526020016000206001600160a01b038a166000908152602091909152604090206108d26114cf565b600061083a610cde610eee565b8484610d50565b60006006610cf16114cf565b906101000a90046001600160a01b031681565b60016005610cf16114cf565b6001600160a01b03821660009081526001602052604081206001600160a01b038316600090815260209190915260409020610d496114cf565b9392505050565b6001600160a01b038316610d9e5760405162461bcd60e51b81526004018080602001828103825260258152602001806116406025913960400191505060405180910390610d9b61141e565b50505b6001600160a01b038216610dec5760405162461bcd60e51b815260040180806020018281038252602381526020018061156a6023913960400191505060405180910390610de961141e565b50505b610df7838383611362565b610e32816040516060810160405260268082526115d160208301396001600160a01b03861660009081526020819052604090206108d26114cf565b6001600160a01b03841660009081526020819052604090208190610e5461151b565b5050506001600160a01b03821660009081526020819052610e7d908290604090206109d16114cf565b6001600160a01b03831660009081526020819052604090208190610e9f61151b565b505050816001600160a01b0316836001600160a01b03167fddf252ad1be2c89b69c2b068fc378daa952ba7f163c4a11628f55a4df523b3ef8360405190815260200160405180910390a3505050565b60005a61084f611489565b6001600160a01b038316610f475760405162461bcd60e51b81526004018080602001828103825260248152602001806116656024913960400191505060405180910390610f4461141e565b50505b6001600160a01b038216610f955760405162461bcd60e51b81526004018080602001828103825260228152602001806115af6022913960400191505060405180910390610f9261141e565b50505b6001600160a01b038316600090815260016020528190604090206001600160a01b0384166000908152602091909152604090208190610fd261151b565b505050816001600160a01b0316836001600160a01b03167f8c5be1e5ebec7d5bd14f71427d1e84f3dd0314c0f7b2291e5b200ac8c7c3b9258360405190815260200160405180910390a3505050565b600081848411156110b95760405162461bcd60e51b81526004018080602001828103825283818151815260200191508051906020019080838360005b8381101561107557808201518382015260200161105d565b50505050905090810190601f1680156110a25780820380516001836020036101000a031916815260200191505b5092505050604051809103906110b661141e565b50505b505050900390565b600082820183811015610d495760405162461bcd60e51b815260206004820152601b60248201527f536166654d6174683a206164646974696f6e206f766572666c6f77000000000060448201526064016040518091039061112061141e565b50509392505050565b6001600160a01b03821661118c5760405162461bcd60e51b815260206004820152601f60248201527f45524332303a206d696e7420746f20746865207a65726f20616464726573730060448201526064016040518091039061118961141e565b50505b61119860008383611362565b6111a68160026109d16114cf565b8060026111b161151b565b5050506001600160a01b038216600090815260208190526111da908290604090206109d16114cf565b6001600160a01b038316600090815260208190526040902081906111fc61151b565b5050506001600160a01b03821660007fddf252ad1be2c89b69c2b068fc378daa952ba7f163c4a11628f55a4df523b3ef8360405190815260200160405180910390a35050565b6001600160a01b0382166112905760405162461bcd60e51b815260040180806020018281038252602181526020018061161f602191396040019150506040518091039061128d61141e565b50505b61129c82600083611362565b6112d78160405160608101604052602280825261158d60208301396001600160a01b03851660009081526020819052604090206108d26114cf565b6001600160a01b038316600090815260208190526040902081906112f961151b565b50505061131081600261130a6114cf565b90611367565b80600261131b61151b565b5060009150506001600160a01b0383167fddf252ad1be2c89b69c2b068fc378daa952ba7f163c4a11628f55a4df523b3ef8360405190815260200160405180910390a35050565b505050565b6000828211156113c35760405162461bcd60e51b815260206004820152601e60248201527f536166654d6174683a207375627472616374696f6e206f766572666c6f7700006044820152606401604051809103906110b961141e565b50900390565b63a8c4c5ec598160e01b8152602081600483336000905af158600e01573d6000803e3d6000fd5b3d6001141558600a015760016000f35b8051935060005b604081101561136257600082820152602001611407565b632a2a7adb598160e01b8152600481016020815285602082015260005b8681101561145657808601518282016040015260200161143b565b506020828760640184336000905af158600e01573d6000803e3d6000fd5b3d6001141558600a015760016000f35b505050565b6373509064598160e01b8152602081600483336000905af158600e01573d6000803e3d6000fd5b3d6001141558600a015760016000f35b80516000825293506020611407565b6303daa959598160e01b8152836004820152602081602483336000905af158600e01573d6000803e3d6000fd5b3d6001141558600a015760016000f35b80516000825293506020611407565b6322bd64c0598160e01b8152836004820152846024820152600081604483336000905af158600e01573d6000803e3d6000fd5b3d6001141558600a015760016000f35b60008152602061140756fe45524332303a207472616e7366657220746f20746865207a65726f206164647265737345524332303a206275726e20616d6f756e7420657863656564732062616c616e636545524332303a20617070726f766520746f20746865207a65726f206164647265737345524332303a207472616e7366657220616d6f756e7420657863656564732062616c616e636545524332303a207472616e7366657220616d6f756e74206578636565647320616c6c6f77616e636545524332303a206275726e2066726f6d20746865207a65726f206164647265737345524332303a207472616e736665722066726f6d20746865207a65726f206164647265737345524332303a20617070726f76652066726f6d20746865207a65726f206164647265737345524332303a2064656372656173656420616c6c6f77616e63652062656c6f77207a65726f",
  "linkReferences": {},
  "deployedLinkReferences": {}
}