{
  "_format": "hh-sol-artifact-1",
  "contractName": "BobaVerifyingPaymaster",
  "sourceName": "contracts/samples/BobaVerifyingPaymaster.sol",
  "abi": [
    {
      "inputs": [
        {
          "internalType": "contract IEntryPoint",
          "name": "_entryPoint",
          "type": "address"
        },
        {
          "internalType": "address",
          "name": "_verifyingSigner",
          "type": "address"
        },
        {
          "internalType": "address",
          "name": "_bobaDepositPaymaster",
          "type": "address"
        },
        {
          "internalType": "address",
          "name": "_approvedToken",
          "type": "address"
        }
      ],
      "stateMutability": "nonpayable",
      "type": "constructor"
    },
    {
      "anonymous": false,
      "inputs": [
        {
          "indexed": true,
          "internalType": "address",
          "name": "previousOwner",
          "type": "address"
        },
        {
          "indexed": true,
          "internalType": "address",
          "name": "newOwner",
          "type": "address"
        }
      ],
      "name": "OwnershipTransferred",
      "type": "event"
    },
    {
      "inputs": [],
      "name": "APPROVE_FUNCTION_SELECTOR",
      "outputs": [
        {
          "internalType": "bytes4",
          "name": "",
          "type": "bytes4"
        }
      ],
      "stateMutability": "view",
      "type": "function"
    },
    {
      "inputs": [],
      "name": "DEPOSIT_FOR_FUNCTION_SELECTOR",
      "outputs": [
        {
          "internalType": "bytes4",
          "name": "",
          "type": "bytes4"
        }
      ],
      "stateMutability": "view",
      "type": "function"
    },
    {
      "inputs": [
        {
          "internalType": "uint32",
          "name": "unstakeDelaySec",
          "type": "uint32"
        }
      ],
      "name": "addStake",
      "outputs": [],
      "stateMutability": "payable",
      "type": "function"
    },
    {
      "inputs": [],
      "name": "approvedToken",
      "outputs": [
        {
          "internalType": "address",
          "name": "",
          "type": "address"
        }
      ],
      "stateMutability": "view",
      "type": "function"
    },
    {
      "inputs": [],
      "name": "bobaDepositPaymaster",
      "outputs": [
        {
          "internalType": "address",
          "name": "",
          "type": "address"
        }
      ],
      "stateMutability": "view",
      "type": "function"
    },
    {
      "inputs": [],
      "name": "deposit",
      "outputs": [],
      "stateMutability": "payable",
      "type": "function"
    },
    {
      "inputs": [],
      "name": "entryPoint",
      "outputs": [
        {
          "internalType": "contract IEntryPoint",
          "name": "",
          "type": "address"
        }
      ],
      "stateMutability": "view",
      "type": "function"
    },
    {
      "inputs": [],
      "name": "getDeposit",
      "outputs": [
        {
          "internalType": "uint256",
          "name": "",
          "type": "uint256"
        }
      ],
      "stateMutability": "view",
      "type": "function"
    },
    {
      "inputs": [
        {
          "components": [
            {
              "internalType": "address",
              "name": "sender",
              "type": "address"
            },
            {
              "internalType": "uint256",
              "name": "nonce",
              "type": "uint256"
            },
            {
              "internalType": "bytes",
              "name": "initCode",
              "type": "bytes"
            },
            {
              "internalType": "bytes",
              "name": "callData",
              "type": "bytes"
            },
            {
              "internalType": "uint256",
              "name": "callGasLimit",
              "type": "uint256"
            },
            {
              "internalType": "uint256",
              "name": "verificationGasLimit",
              "type": "uint256"
            },
            {
              "internalType": "uint256",
              "name": "preVerificationGas",
              "type": "uint256"
            },
            {
              "internalType": "uint256",
              "name": "maxFeePerGas",
              "type": "uint256"
            },
            {
              "internalType": "uint256",
              "name": "maxPriorityFeePerGas",
              "type": "uint256"
            },
            {
              "internalType": "bytes",
              "name": "paymasterAndData",
              "type": "bytes"
            },
            {
              "internalType": "bytes",
              "name": "signature",
              "type": "bytes"
            }
          ],
          "internalType": "struct UserOperation",
          "name": "userOp",
          "type": "tuple"
        },
        {
          "internalType": "uint48",
          "name": "validUntil",
          "type": "uint48"
        },
        {
          "internalType": "uint48",
          "name": "validAfter",
          "type": "uint48"
        }
      ],
      "name": "getHash",
      "outputs": [
        {
          "internalType": "bytes32",
          "name": "",
          "type": "bytes32"
        }
      ],
      "stateMutability": "view",
      "type": "function"
    },
    {
      "inputs": [],
      "name": "owner",
      "outputs": [
        {
          "internalType": "address",
          "name": "",
          "type": "address"
        }
      ],
      "stateMutability": "view",
      "type": "function"
    },
    {
      "inputs": [
        {
          "internalType": "bytes",
          "name": "paymasterAndData",
          "type": "bytes"
        }
      ],
      "name": "parsePaymasterAndData",
      "outputs": [
        {
          "internalType": "uint48",
          "name": "validUntil",
          "type": "uint48"
        },
        {
          "internalType": "uint48",
          "name": "validAfter",
          "type": "uint48"
        },
        {
          "internalType": "bytes",
          "name": "signature",
          "type": "bytes"
        }
      ],
      "stateMutability": "pure",
      "type": "function"
    },
    {
      "inputs": [
        {
          "internalType": "enum IPaymaster.PostOpMode",
          "name": "mode",
          "type": "uint8"
        },
        {
          "internalType": "bytes",
          "name": "context",
          "type": "bytes"
        },
        {
          "internalType": "uint256",
          "name": "actualGasCost",
          "type": "uint256"
        }
      ],
      "name": "postOp",
      "outputs": [],
      "stateMutability": "nonpayable",
      "type": "function"
    },
    {
      "inputs": [],
      "name": "renounceOwnership",
      "outputs": [],
      "stateMutability": "nonpayable",
      "type": "function"
    },
    {
      "inputs": [
        {
          "internalType": "address",
          "name": "",
          "type": "address"
        }
      ],
      "name": "senderNonce",
      "outputs": [
        {
          "internalType": "uint256",
          "name": "",
          "type": "uint256"
        }
      ],
      "stateMutability": "view",
      "type": "function"
    },
    {
      "inputs": [
        {
          "internalType": "address",
          "name": "newOwner",
          "type": "address"
        }
      ],
      "name": "transferOwnership",
      "outputs": [],
      "stateMutability": "nonpayable",
      "type": "function"
    },
    {
      "inputs": [],
      "name": "unlockStake",
      "outputs": [],
      "stateMutability": "nonpayable",
      "type": "function"
    },
    {
      "inputs": [
        {
          "components": [
            {
              "internalType": "address",
              "name": "sender",
              "type": "address"
            },
            {
              "internalType": "uint256",
              "name": "nonce",
              "type": "uint256"
            },
            {
              "internalType": "bytes",
              "name": "initCode",
              "type": "bytes"
            },
            {
              "internalType": "bytes",
              "name": "callData",
              "type": "bytes"
            },
            {
              "internalType": "uint256",
              "name": "callGasLimit",
              "type": "uint256"
            },
            {
              "internalType": "uint256",
              "name": "verificationGasLimit",
              "type": "uint256"
            },
            {
              "internalType": "uint256",
              "name": "preVerificationGas",
              "type": "uint256"
            },
            {
              "internalType": "uint256",
              "name": "maxFeePerGas",
              "type": "uint256"
            },
            {
              "internalType": "uint256",
              "name": "maxPriorityFeePerGas",
              "type": "uint256"
            },
            {
              "internalType": "bytes",
              "name": "paymasterAndData",
              "type": "bytes"
            },
            {
              "internalType": "bytes",
              "name": "signature",
              "type": "bytes"
            }
          ],
          "internalType": "struct UserOperation",
          "name": "userOp",
          "type": "tuple"
        },
        {
          "internalType": "bytes32",
          "name": "userOpHash",
          "type": "bytes32"
        },
        {
          "internalType": "uint256",
          "name": "maxCost",
          "type": "uint256"
        }
      ],
      "name": "validatePaymasterUserOp",
      "outputs": [
        {
          "internalType": "bytes",
          "name": "context",
          "type": "bytes"
        },
        {
          "internalType": "uint256",
          "name": "validationData",
          "type": "uint256"
        }
      ],
      "stateMutability": "nonpayable",
      "type": "function"
    },
    {
      "inputs": [],
      "name": "verifyingSigner",
      "outputs": [
        {
          "internalType": "address",
          "name": "",
          "type": "address"
        }
      ],
      "stateMutability": "view",
      "type": "function"
    },
    {
      "inputs": [
        {
          "internalType": "address payable",
          "name": "withdrawAddress",
          "type": "address"
        }
      ],
      "name": "withdrawStake",
      "outputs": [],
      "stateMutability": "nonpayable",
      "type": "function"
    },
    {
      "inputs": [
        {
          "internalType": "address payable",
          "name": "withdrawAddress",
          "type": "address"
        },
        {
          "internalType": "uint256",
          "name": "amount",
          "type": "uint256"
        }
      ],
      "name": "withdrawTo",
      "outputs": [],
      "stateMutability": "nonpayable",
      "type": "function"
    }
  ],
  "bytecode": "0x60c06040523480156200001157600080fd5b5060405162001d1b38038062001d1b8339810160408190526200003491620000e7565b8362000040336200007e565b6001600160a01b0390811660805292831660a052600180549284166001600160a01b031993841617905560028054919093169116179055506200014f565b600080546001600160a01b038381166001600160a01b0319831681178455604051919092169283917f8be0079c531659141344cd1fd0a4f28419497f9722a3daafe3b4186f6b6457e09190a35050565b6001600160a01b0381168114620000e457600080fd5b50565b60008060008060808587031215620000fe57600080fd5b84516200010b81620000ce565b60208601519094506200011e81620000ce565b60408601519093506200013181620000ce565b60608601519092506200014481620000ce565b939692955090935050565b60805160a051611b6e620001ad600039600081816101ab0152610e010152600081816103ba015281816104e5015281816105af015281816106d20152818161079901528181610829015281816108dc0152610b630152611b6e6000f3fe60806040526004361061015f5760003560e01c8063a9a23409116100c0578063c23a5cea11610074578063d0e30db011610059578063d0e30db014610453578063f2fde38b1461045b578063f465c77e1461047b57600080fd5b8063c23a5cea1461041e578063c399ec881461043e57600080fd5b8063b0d691fe116100a5578063b0d691fe146103a8578063bab46259146103dc578063bb9fe6bf1461040957600080fd5b8063a9a2340914610354578063b02f786e1461037457600080fd5b80637d3c11621161011757806394d4ad60116100fc57806394d4ad60146102c957806394e1fc19146102f95780639c90b4431461032757600080fd5b80637d3c1162146102715780638da5cb5b1461029e57600080fd5b806323d9ac9b1161014857806323d9ac9b1461019957806356fd76da146101f7578063715018a61461025c57600080fd5b80630396cb6014610164578063205c287814610179575b600080fd5b610177610172366004611566565b6104a9565b005b34801561018557600080fd5b506101776101943660046115b5565b61055b565b3480156101a557600080fd5b506101cd7f000000000000000000000000000000000000000000000000000000000000000081565b60405173ffffffffffffffffffffffffffffffffffffffff90911681526020015b60405180910390f35b34801561020357600080fd5b5061022b7f382edd9e648c4175cda8acdb1eb9c5d40f12d588410c9b3779d25b1aea56abbf81565b6040517fffffffff0000000000000000000000000000000000000000000000000000000090911681526020016101ee565b34801561026857600080fd5b506101776105f3565b34801561027d57600080fd5b506001546101cd9073ffffffffffffffffffffffffffffffffffffffff1681565b3480156102aa57600080fd5b5060005473ffffffffffffffffffffffffffffffffffffffff166101cd565b3480156102d557600080fd5b506102e96102e4366004611623565b610607565b6040516101ee9493929190611665565b34801561030557600080fd5b50610319610314366004611703565b610644565b6040519081526020016101ee565b34801561033357600080fd5b50610319610342366004611761565b60036020526000908152604090205481565b34801561036057600080fd5b5061017761036f36600461177e565b6106ae565b34801561038057600080fd5b5061022b7f095ea7b334ae44009aa867bfb386f5c3b4b443ac6f0ee573fa91c4608fbadfba81565b3480156103b457600080fd5b506101cd7f000000000000000000000000000000000000000000000000000000000000000081565b3480156103e857600080fd5b506002546101cd9073ffffffffffffffffffffffffffffffffffffffff1681565b34801561041557600080fd5b506101776106c8565b34801561042a57600080fd5b50610177610439366004611761565b61074c565b34801561044a57600080fd5b506103196107f8565b6101776108ae565b34801561046757600080fd5b50610177610476366004611761565b610936565b34801561048757600080fd5b5061049b6104963660046117de565b6109f2565b6040516101ee929190611897565b6104b1610a16565b6040517f0396cb6000000000000000000000000000000000000000000000000000000000815263ffffffff821660048201527f000000000000000000000000000000000000000000000000000000000000000073ffffffffffffffffffffffffffffffffffffffff1690630396cb609034906024016000604051808303818588803b15801561053f57600080fd5b505af1158015610553573d6000803e3d6000fd5b505050505050565b610563610a16565b6040517f205c287800000000000000000000000000000000000000000000000000000000815273ffffffffffffffffffffffffffffffffffffffff8381166004830152602482018390527f0000000000000000000000000000000000000000000000000000000000000000169063205c287890604401600060405180830381600087803b15801561053f57600080fd5b6105fb610a16565b6106056000610a97565b565b600080368161061a6054601487896118b9565b81019061062791906118e3565b909450925061063985605481896118b9565b949793965094505050565b600061064f84610b0c565b73ffffffffffffffffffffffffffffffffffffffff85351660009081526003602090815260409182902054915161068f9392469230928991899101611916565b6040516020818303038152906040528051906020012090509392505050565b6106b6610b4b565b6106c284848484610bea565b50505050565b6106d0610a16565b7f000000000000000000000000000000000000000000000000000000000000000073ffffffffffffffffffffffffffffffffffffffff1663bb9fe6bf6040518163ffffffff1660e01b8152600401600060405180830381600087803b15801561073857600080fd5b505af11580156106c2573d6000803e3d6000fd5b610754610a16565b6040517fc23a5cea00000000000000000000000000000000000000000000000000000000815273ffffffffffffffffffffffffffffffffffffffff82811660048301527f0000000000000000000000000000000000000000000000000000000000000000169063c23a5cea90602401600060405180830381600087803b1580156107dd57600080fd5b505af11580156107f1573d6000803e3d6000fd5b5050505050565b6040517f70a082310000000000000000000000000000000000000000000000000000000081523060048201526000907f000000000000000000000000000000000000000000000000000000000000000073ffffffffffffffffffffffffffffffffffffffff16906370a0823190602401602060405180830381865afa158015610885573d6000803e3d6000fd5b505050506040513d601f19601f820116820180604052508101906108a99190611973565b905090565b6040517fb760faf90000000000000000000000000000000000000000000000000000000081523060048201527f000000000000000000000000000000000000000000000000000000000000000073ffffffffffffffffffffffffffffffffffffffff169063b760faf99034906024016000604051808303818588803b1580156107dd57600080fd5b61093e610a16565b73ffffffffffffffffffffffffffffffffffffffff81166109e6576040517f08c379a000000000000000000000000000000000000000000000000000000000815260206004820152602660248201527f4f776e61626c653a206e6577206f776e657220697320746865207a65726f206160448201527f646472657373000000000000000000000000000000000000000000000000000060648201526084015b60405180910390fd5b6109ef81610a97565b50565b606060006109fe610b4b565b610a09858585610c4c565b915091505b935093915050565b60005473ffffffffffffffffffffffffffffffffffffffff163314610605576040517f08c379a000000000000000000000000000000000000000000000000000000000815260206004820181905260248201527f4f776e61626c653a2063616c6c6572206973206e6f7420746865206f776e657260448201526064016109dd565b6000805473ffffffffffffffffffffffffffffffffffffffff8381167fffffffffffffffffffffffff0000000000000000000000000000000000000000831681178455604051919092169283917f8be0079c531659141344cd1fd0a4f28419497f9722a3daafe3b4186f6b6457e09190a35050565b6060366000610b1f61012085018561198c565b915091508360208184030360405194506020810185016040528085528082602087013750505050919050565b3373ffffffffffffffffffffffffffffffffffffffff7f00000000000000000000000000000000000000000000000000000000000000001614610605576040517f08c379a000000000000000000000000000000000000000000000000000000000815260206004820152601560248201527f53656e646572206e6f7420456e747279506f696e74000000000000000000000060448201526064016109dd565b6040517f08c379a000000000000000000000000000000000000000000000000000000000815260206004820152600d60248201527f6d757374206f766572726964650000000000000000000000000000000000000060448201526064016109dd565b6060600080803681610c656102e46101208b018b61198c565b929650909450925090506040811480610c7e5750604181145b610d0c57604080517f08c379a00000000000000000000000000000000000000000000000000000000081526020600482015260248101919091527f566572696679696e675061796d61737465723a20696e76616c6964207369676e60448201527f6174757265206c656e67746820696e207061796d6173746572416e644461746160648201526084016109dd565b6000610d6f610d1c8b8787610644565b6040517f19457468657265756d205369676e6564204d6573736167653a0a3332000000006020820152603c8101829052600090605c01604051602081830303815290604052805190602001209050919050565b73ffffffffffffffffffffffffffffffffffffffff8b35166000908152600360205260408120805492935090610da4836119f1565b9190505550610de98184848080601f016020809104026020016040519081016040528093929190818152602001838380828437600092019190915250610f4d92505050565b73ffffffffffffffffffffffffffffffffffffffff167f000000000000000000000000000000000000000000000000000000000000000073ffffffffffffffffffffffffffffffffffffffff1614610e6657610e4760018686610f73565b6040518060200160405280600081525090965096505050505050610a0e565b610e7b610e7660608c018c61198c565b610fab565b80610e965750610e96610e9160608c018c61198c565b61111c565b610f22576040517f08c379a000000000000000000000000000000000000000000000000000000000815260206004820152602560248201527f566572696679696e675061796d61737465723a20696e76616c6964206f70657260448201527f6174696f6e00000000000000000000000000000000000000000000000000000060648201526084016109dd565b610f2e60008686610f73565b6040805160208101909152600081529b909a5098505050505050505050565b6000806000610f5c858561127f565b91509150610f69816112c4565b5090505b92915050565b600060d08265ffffffffffff16901b60a08465ffffffffffff16901b85610f9b576000610f9e565b60015b60ff161717949350505050565b600060e48214610fbd57506000610f6d565b6000610fcd6088608485876118b9565b610fd691611a50565b9050366000610fe96024600487896118b9565b90925090506000610ffc83830184611761565b60025490915073ffffffffffffffffffffffffffffffffffffffff80831691161461102e576000945050505050610f6d565b600061103e60c86088898b6118b9565b8080601f016020809104026020016040519081016040528093929190818152602001838380828437600092018290525084519495509361108b935085016020908101925085019050611a98565b5090507fffffffff0000000000000000000000000000000000000000000000000000000086167f095ea7b3000000000000000000000000000000000000000000000000000000001480156110f9575060015473ffffffffffffffffffffffffffffffffffffffff8281169116145b1561110d5760019650505050505050610f6d565b50600098975050505050505050565b6000610104821461112f57506000610f6d565b600061113f6088608485876118b9565b61114891611a50565b905036600061115b6024600487896118b9565b9092509050600061116e83830184611761565b60015490915073ffffffffffffffffffffffffffffffffffffffff8083169116146111a0576000945050505050610f6d565b60006111b060e86088898b6118b9565b8080601f01602080910402602001604051908101604052809392919081815260200183838082843760009201829052508451949550936111fd935085016020908101925085019050611ac6565b50909150507fffffffff0000000000000000000000000000000000000000000000000000000086167f382edd9e000000000000000000000000000000000000000000000000000000001480156110f9575060025473ffffffffffffffffffffffffffffffffffffffff82811691160361110d5760019650505050505050610f6d565b60008082516041036112b55760208301516040840151606085015160001a6112a987828585611477565b945094505050506112bd565b506000905060025b9250929050565b60008160048111156112d8576112d8611b09565b036112e05750565b60018160048111156112f4576112f4611b09565b0361135b576040517f08c379a000000000000000000000000000000000000000000000000000000000815260206004820152601860248201527f45434453413a20696e76616c6964207369676e6174757265000000000000000060448201526064016109dd565b600281600481111561136f5761136f611b09565b036113d6576040517f08c379a000000000000000000000000000000000000000000000000000000000815260206004820152601f60248201527f45434453413a20696e76616c6964207369676e6174757265206c656e6774680060448201526064016109dd565b60038160048111156113ea576113ea611b09565b036109ef576040517f08c379a000000000000000000000000000000000000000000000000000000000815260206004820152602260248201527f45434453413a20696e76616c6964207369676e6174757265202773272076616c60448201527f756500000000000000000000000000000000000000000000000000000000000060648201526084016109dd565b6000807f7fffffffffffffffffffffffffffffff5d576e7357a4501ddfe92f46681b20a08311156114ae575060009050600361155d565b6040805160008082526020820180845289905260ff881692820192909252606081018690526080810185905260019060a0016020604051602081039080840390855afa158015611502573d6000803e3d6000fd5b50506040517fffffffffffffffffffffffffffffffffffffffffffffffffffffffffffffffe0015191505073ffffffffffffffffffffffffffffffffffffffff81166115565760006001925092505061155d565b9150600090505b94509492505050565b60006020828403121561157857600080fd5b813563ffffffff8116811461158c57600080fd5b9392505050565b73ffffffffffffffffffffffffffffffffffffffff811681146109ef57600080fd5b600080604083850312156115c857600080fd5b82356115d381611593565b946020939093013593505050565b60008083601f8401126115f357600080fd5b50813567ffffffffffffffff81111561160b57600080fd5b6020830191508360208285010111156112bd57600080fd5b6000806020838503121561163657600080fd5b823567ffffffffffffffff81111561164d57600080fd5b611659858286016115e1565b90969095509350505050565b600065ffffffffffff8087168352808616602084015250606060408301528260608301528284608084013760006080848401015260807fffffffffffffffffffffffffffffffffffffffffffffffffffffffffffffffe0601f850116830101905095945050505050565b600061016082840312156116e257600080fd5b50919050565b803565ffffffffffff811681146116fe57600080fd5b919050565b60008060006060848603121561171857600080fd5b833567ffffffffffffffff81111561172f57600080fd5b61173b868287016116cf565b93505061174a602085016116e8565b9150611758604085016116e8565b90509250925092565b60006020828403121561177357600080fd5b813561158c81611593565b6000806000806060858703121561179457600080fd5b8435600381106117a357600080fd5b9350602085013567ffffffffffffffff8111156117bf57600080fd5b6117cb878288016115e1565b9598909750949560400135949350505050565b6000806000606084860312156117f357600080fd5b833567ffffffffffffffff81111561180a57600080fd5b611816868287016116cf565b9660208601359650604090950135949350505050565b6000815180845260005b8181101561185257602081850181015186830182015201611836565b81811115611864576000602083870101525b50601f017fffffffffffffffffffffffffffffffffffffffffffffffffffffffffffffffe0169290920160200192915050565b6040815260006118aa604083018561182c565b90508260208301529392505050565b600080858511156118c957600080fd5b838611156118d657600080fd5b5050820193919092039150565b600080604083850312156118f657600080fd5b6118ff836116e8565b915061190d602084016116e8565b90509250929050565b60c08152600061192960c083018961182c565b60208301979097525073ffffffffffffffffffffffffffffffffffffffff949094166040850152606084019290925265ffffffffffff90811660808401521660a090910152919050565b60006020828403121561198557600080fd5b5051919050565b60008083357fffffffffffffffffffffffffffffffffffffffffffffffffffffffffffffffe18436030181126119c157600080fd5b83018035915067ffffffffffffffff8211156119dc57600080fd5b6020019150368190038213156112bd57600080fd5b60007fffffffffffffffffffffffffffffffffffffffffffffffffffffffffffffffff8203611a49577f4e487b7100000000000000000000000000000000000000000000000000000000600052601160045260246000fd5b5060010190565b7fffffffff000000000000000000000000000000000000000000000000000000008135818116916004851015611a905780818660040360031b1b83161692505b505092915050565b60008060408385031215611aab57600080fd5b8251611ab681611593565b6020939093015192949293505050565b600080600060608486031215611adb57600080fd5b8351611ae681611593565b6020850151909350611af781611593565b80925050604084015190509250925092565b7f4e487b7100000000000000000000000000000000000000000000000000000000600052602160045260246000fdfea2646970667358221220008fcb302fb6ec149df4a9d2191ed74ed9cf53f9fcae24ea6f33f25f9d3975ba64736f6c634300080f0033",
  "linkReferences": {},
  "deployedLinkReferences": {}
}