{
  "_format": "hh-sol-artifact-1",
  "contractName": "BobaDepositPaymaster",
  "sourceName": "contracts/samples/BobaDepositPaymaster.sol",
  "abi": [
    {
      "inputs": [
        {
          "internalType": "contract IEntryPoint",
          "name": "_entryPoint",
          "type": "address"
        },
        {
          "internalType": "contract IBobaStraw",
          "name": "ethPriceOracle",
          "type": "address"
        }
      ],
      "stateMutability": "nonpayable",
      "type": "constructor"
    },
    {
      "anonymous": false,
      "inputs": [
        {
          "indexed": true,
          "internalType": "address",
          "name": "previousOwner",
          "type": "address"
        },
        {
          "indexed": true,
          "internalType": "address",
          "name": "newOwner",
          "type": "address"
        }
      ],
      "name": "OwnershipTransferred",
      "type": "event"
    },
    {
      "inputs": [],
      "name": "COST_OF_POST",
      "outputs": [
        {
          "internalType": "uint256",
          "name": "",
          "type": "uint256"
        }
      ],
      "stateMutability": "view",
      "type": "function"
    },
    {
      "inputs": [],
      "name": "L2_ETH",
      "outputs": [
        {
          "internalType": "contract IERC20",
          "name": "",
          "type": "address"
        }
      ],
      "stateMutability": "view",
      "type": "function"
    },
    {
      "inputs": [],
      "name": "L2_ETH_ADDRESS",
      "outputs": [
        {
          "internalType": "address",
          "name": "",
          "type": "address"
        }
      ],
      "stateMutability": "view",
      "type": "function"
    },
    {
      "inputs": [],
      "name": "QUOTE_USD",
      "outputs": [
        {
          "internalType": "address",
          "name": "",
          "type": "address"
        }
      ],
      "stateMutability": "view",
      "type": "function"
    },
    {
      "inputs": [
        {
          "internalType": "contract IERC20",
          "name": "token",
          "type": "address"
        },
        {
          "internalType": "address",
          "name": "account",
          "type": "address"
        },
        {
          "internalType": "uint256",
          "name": "amount",
          "type": "uint256"
        }
      ],
      "name": "addDepositFor",
      "outputs": [],
      "stateMutability": "nonpayable",
      "type": "function"
    },
    {
      "inputs": [
        {
          "internalType": "uint32",
          "name": "unstakeDelaySec",
          "type": "uint32"
        }
      ],
      "name": "addStake",
      "outputs": [],
      "stateMutability": "payable",
      "type": "function"
    },
    {
      "inputs": [
        {
          "internalType": "contract IERC20",
          "name": "token",
          "type": "address"
        },
        {
          "internalType": "contract IBobaStraw",
          "name": "tokenPriceOracle",
          "type": "address"
        },
        {
          "internalType": "address",
          "name": "base",
          "type": "address"
        },
        {
          "internalType": "uint8",
          "name": "tokenDecimals",
          "type": "uint8"
        }
      ],
      "name": "addToken",
      "outputs": [],
      "stateMutability": "nonpayable",
      "type": "function"
    },
    {
      "inputs": [
        {
          "internalType": "contract IERC20",
          "name": "",
          "type": "address"
        },
        {
          "internalType": "address",
          "name": "",
          "type": "address"
        }
      ],
      "name": "balances",
      "outputs": [
        {
          "internalType": "uint256",
          "name": "",
          "type": "uint256"
        }
      ],
      "stateMutability": "view",
      "type": "function"
    },
    {
      "inputs": [],
      "name": "deposit",
      "outputs": [],
      "stateMutability": "payable",
      "type": "function"
    },
    {
      "inputs": [
        {
          "internalType": "contract IERC20",
          "name": "token",
          "type": "address"
        },
        {
          "internalType": "address",
          "name": "account",
          "type": "address"
        }
      ],
      "name": "depositInfo",
      "outputs": [
        {
          "internalType": "uint256",
          "name": "amount",
          "type": "uint256"
        },
        {
          "internalType": "uint256",
          "name": "_unlockBlock",
          "type": "uint256"
        }
      ],
      "stateMutability": "view",
      "type": "function"
    },
    {
      "inputs": [],
      "name": "entryPoint",
      "outputs": [
        {
          "internalType": "contract IEntryPoint",
          "name": "",
          "type": "address"
        }
      ],
      "stateMutability": "view",
      "type": "function"
    },
    {
      "inputs": [],
      "name": "getDeposit",
      "outputs": [
        {
          "internalType": "uint256",
          "name": "",
          "type": "uint256"
        }
      ],
      "stateMutability": "view",
      "type": "function"
    },
    {
      "inputs": [],
      "name": "lockTokenDeposit",
      "outputs": [],
      "stateMutability": "nonpayable",
      "type": "function"
    },
    {
      "inputs": [
        {
          "internalType": "contract IERC20",
          "name": "",
          "type": "address"
        }
      ],
      "name": "oracles",
      "outputs": [
        {
          "internalType": "contract IBobaStraw",
          "name": "feedRegistry",
          "type": "address"
        },
        {
          "internalType": "address",
          "name": "tokenBase",
          "type": "address"
        },
        {
          "internalType": "uint8",
          "name": "tokenDecimals",
          "type": "uint8"
        }
      ],
      "stateMutability": "view",
      "type": "function"
    },
    {
      "inputs": [],
      "name": "owner",
      "outputs": [
        {
          "internalType": "address",
          "name": "",
          "type": "address"
        }
      ],
      "stateMutability": "view",
      "type": "function"
    },
    {
      "inputs": [
        {
          "internalType": "enum IPaymaster.PostOpMode",
          "name": "mode",
          "type": "uint8"
        },
        {
          "internalType": "bytes",
          "name": "context",
          "type": "bytes"
        },
        {
          "internalType": "uint256",
          "name": "actualGasCost",
          "type": "uint256"
        }
      ],
      "name": "postOp",
      "outputs": [],
      "stateMutability": "nonpayable",
      "type": "function"
    },
    {
      "inputs": [],
      "name": "renounceOwnership",
      "outputs": [],
      "stateMutability": "nonpayable",
      "type": "function"
    },
    {
      "inputs": [
        {
          "internalType": "address",
          "name": "newOwner",
          "type": "address"
        }
      ],
      "name": "transferOwnership",
      "outputs": [],
      "stateMutability": "nonpayable",
      "type": "function"
    },
    {
      "inputs": [
        {
          "internalType": "address",
          "name": "",
          "type": "address"
        }
      ],
      "name": "unlockBlock",
      "outputs": [
        {
          "internalType": "uint256",
          "name": "",
          "type": "uint256"
        }
      ],
      "stateMutability": "view",
      "type": "function"
    },
    {
      "inputs": [],
      "name": "unlockStake",
      "outputs": [],
      "stateMutability": "nonpayable",
      "type": "function"
    },
    {
      "inputs": [],
      "name": "unlockTokenDeposit",
      "outputs": [],
      "stateMutability": "nonpayable",
      "type": "function"
    },
    {
      "inputs": [
        {
          "components": [
            {
              "internalType": "address",
              "name": "sender",
              "type": "address"
            },
            {
              "internalType": "uint256",
              "name": "nonce",
              "type": "uint256"
            },
            {
              "internalType": "bytes",
              "name": "initCode",
              "type": "bytes"
            },
            {
              "internalType": "bytes",
              "name": "callData",
              "type": "bytes"
            },
            {
              "internalType": "uint256",
              "name": "callGasLimit",
              "type": "uint256"
            },
            {
              "internalType": "uint256",
              "name": "verificationGasLimit",
              "type": "uint256"
            },
            {
              "internalType": "uint256",
              "name": "preVerificationGas",
              "type": "uint256"
            },
            {
              "internalType": "uint256",
              "name": "maxFeePerGas",
              "type": "uint256"
            },
            {
              "internalType": "uint256",
              "name": "maxPriorityFeePerGas",
              "type": "uint256"
            },
            {
              "internalType": "bytes",
              "name": "paymasterAndData",
              "type": "bytes"
            },
            {
              "internalType": "bytes",
              "name": "signature",
              "type": "bytes"
            }
          ],
          "internalType": "struct UserOperation",
          "name": "userOp",
          "type": "tuple"
        },
        {
          "internalType": "bytes32",
          "name": "userOpHash",
          "type": "bytes32"
        },
        {
          "internalType": "uint256",
          "name": "maxCost",
          "type": "uint256"
        }
      ],
      "name": "validatePaymasterUserOp",
      "outputs": [
        {
          "internalType": "bytes",
          "name": "context",
          "type": "bytes"
        },
        {
          "internalType": "uint256",
          "name": "validationData",
          "type": "uint256"
        }
      ],
      "stateMutability": "nonpayable",
      "type": "function"
    },
    {
      "inputs": [
        {
          "internalType": "address payable",
          "name": "withdrawAddress",
          "type": "address"
        }
      ],
      "name": "withdrawStake",
      "outputs": [],
      "stateMutability": "nonpayable",
      "type": "function"
    },
    {
      "inputs": [
        {
          "internalType": "address payable",
          "name": "withdrawAddress",
          "type": "address"
        },
        {
          "internalType": "uint256",
          "name": "amount",
          "type": "uint256"
        }
      ],
      "name": "withdrawTo",
      "outputs": [],
      "stateMutability": "nonpayable",
      "type": "function"
    },
    {
      "inputs": [
        {
          "internalType": "contract IERC20",
          "name": "token",
          "type": "address"
        },
        {
          "internalType": "address",
          "name": "target",
          "type": "address"
        },
        {
          "internalType": "uint256",
          "name": "amount",
          "type": "uint256"
        }
      ],
      "name": "withdrawTokensTo",
      "outputs": [],
      "stateMutability": "nonpayable",
      "type": "function"
    }
  ],
  "bytecode": "0x60a06040523480156200001157600080fd5b50604051620026b7380380620026b78339810160408190526200003491620001fb565b81620000403362000192565b6001600160a01b039081166080528116620000b05760405162461bcd60e51b815260206004820152602660248201527f4465706f7369745061796d61737465723a20496e636f727265637420657468206044820152656f7261636c6560d01b606482015260840160405180910390fd5b620000c8336000908152600360205260409020439055565b604080516060810182526001600160a01b039283168152734200000000000000000000000000000000000006602080830182815260129484019485526000929092526001905290517fad59d8b039d0a49adcf8b040c0a328357753589ae2102d254712da0d90d1731880549185166001600160a01b0319909216919091179055517fad59d8b039d0a49adcf8b040c0a328357753589ae2102d254712da0d90d173198054925160ff16600160a01b026001600160a81b03199093169190931617179055506200023a565b600080546001600160a01b038381166001600160a01b0319831681178455604051919092169283917f8be0079c531659141344cd1fd0a4f28419497f9722a3daafe3b4186f6b6457e09190a35050565b6001600160a01b0381168114620001f857600080fd5b50565b600080604083850312156200020f57600080fd5b82516200021c81620001e2565b60208401519092506200022f81620001e2565b809150509250929050565b6080516124306200028760003960008181610474015281816105ec0152818161084a01528181610a0201528181610ac901528181610b5901528181610d110152610ffb01526124306000f3fe6080604052600436106101965760003560e01c80639ed0fb68116100e1578063c23f001f1161008a578063cd8f80c211610064578063cd8f80c214610538578063d0e30db01461055a578063f2fde38b14610562578063f465c77e1461058257600080fd5b8063c23f001f146104cb578063c399ec8814610503578063cc9c837c1461051857600080fd5b8063b0d691fe116100bb578063b0d691fe14610462578063bb9fe6bf14610496578063c23a5cea146104ab57600080fd5b80639ed0fb681461037d578063a9a23409146103a1578063addd5099146103c157600080fd5b8063493b017011610143578063796d43711161011d578063796d43711461033c5780637b775d4d146102305780638da5cb5b1461035257600080fd5b8063493b0170146102785780634a6f84cf146102ec578063715018a61461032757600080fd5b80632f3e96a7116101745780632f3e96a7146101f057806333032ec414610230578063382edd9e1461025857600080fd5b80630396cb601461019b5780631a02ef76146101b0578063205c2878146101d0575b600080fd5b6101ae6101a9366004611d13565b6105b0565b005b3480156101bc57600080fd5b506101ae6101cb366004611d6a565b610662565b3480156101dc57600080fd5b506101ae6101eb366004611dc6565b6107f6565b3480156101fc57600080fd5b5061020661034881565b60405173ffffffffffffffffffffffffffffffffffffffff90911681526020015b60405180910390f35b34801561023c57600080fd5b5061020673420000000000000000000000000000000000000681565b34801561026457600080fd5b506101ae610273366004611df2565b61088e565b34801561028457600080fd5b506102d7610293366004611e33565b73ffffffffffffffffffffffffffffffffffffffff918216600090815260026020908152604080832093909416825291825282812054600390925291909120549091565b60408051928352602083019190915201610227565b3480156102f857600080fd5b50610319610307366004611e6c565b60036020526000908152604090205481565b604051908152602001610227565b34801561033357600080fd5b506101ae6109ca565b34801561034857600080fd5b506103196188b881565b34801561035e57600080fd5b5060005473ffffffffffffffffffffffffffffffffffffffff16610206565b34801561038957600080fd5b506101ae336000908152600360205260409020439055565b3480156103ad57600080fd5b506101ae6103bc366004611e89565b6109de565b3480156103cd57600080fd5b5061042c6103dc366004611e6c565b6001602081905260009182526040909120805491015473ffffffffffffffffffffffffffffffffffffffff9182169181169074010000000000000000000000000000000000000000900460ff1683565b6040805173ffffffffffffffffffffffffffffffffffffffff948516815293909216602084015260ff1690820152606001610227565b34801561046e57600080fd5b506102067f000000000000000000000000000000000000000000000000000000000000000081565b3480156104a257600080fd5b506101ae6109f8565b3480156104b757600080fd5b506101ae6104c6366004611e6c565b610a7c565b3480156104d757600080fd5b506103196104e6366004611e33565b600260209081526000928352604080842090915290825290205481565b34801561050f57600080fd5b50610319610b28565b34801561052457600080fd5b506101ae610533366004611df2565b610bde565b34801561054457600080fd5b506101ae33600090815260036020526040812055565b6101ae610ce3565b34801561056e57600080fd5b506101ae61057d366004611e6c565b610d6b565b34801561058e57600080fd5b506105a261059d366004611f18565b610e08565b604051610227929190611fe2565b6105b8610e2b565b6040517f0396cb6000000000000000000000000000000000000000000000000000000000815263ffffffff821660048201527f000000000000000000000000000000000000000000000000000000000000000073ffffffffffffffffffffffffffffffffffffffff1690630396cb609034906024016000604051808303818588803b15801561064657600080fd5b505af115801561065a573d6000803e3d6000fd5b505050505050565b61066a610e2b565b73ffffffffffffffffffffffffffffffffffffffff83166106f85760405162461bcd60e51b815260206004820152602860248201527f4465706f7369745061796d61737465723a20496e636f727265637420746f6b6560448201527f6e206f7261636c6500000000000000000000000000000000000000000000000060648201526084015b60405180910390fd5b73ffffffffffffffffffffffffffffffffffffffff848116600090815260016020526040902054161561072a57600080fd5b6040805160608101825273ffffffffffffffffffffffffffffffffffffffff9485168152928416602080850191825260ff938416858401908152968616600090815260019182905292909220935184549086167fffffffffffffffffffffffff00000000000000000000000000000000000000009091161784555192018054945190911674010000000000000000000000000000000000000000027fffffffffffffffffffffff0000000000000000000000000000000000000000009094169190921617919091179055565b6107fe610e2b565b6040517f205c287800000000000000000000000000000000000000000000000000000000815273ffffffffffffffffffffffffffffffffffffffff8381166004830152602482018390527f0000000000000000000000000000000000000000000000000000000000000000169063205c287890604401600060405180830381600087803b15801561064657600080fd5b6108b073ffffffffffffffffffffffffffffffffffffffff8416333084610e92565b73ffffffffffffffffffffffffffffffffffffffff8381166000908152600160205260409020541661094a5760405162461bcd60e51b815260206004820152602360248201527f4465706f7369745061796d61737465723a20756e737570706f7274656420746f60448201527f6b656e000000000000000000000000000000000000000000000000000000000060648201526084016106ef565b73ffffffffffffffffffffffffffffffffffffffff80841660009081526002602090815260408083209386168352929052908120805483929061098e908490612033565b909155505073ffffffffffffffffffffffffffffffffffffffff821633036109c5576109c533600090815260036020526040812055565b505050565b6109d2610e2b565b6109dc6000610f6e565b565b6109e6610fe3565b6109f284848484611068565b50505050565b610a00610e2b565b7f000000000000000000000000000000000000000000000000000000000000000073ffffffffffffffffffffffffffffffffffffffff1663bb9fe6bf6040518163ffffffff1660e01b8152600401600060405180830381600087803b158015610a6857600080fd5b505af11580156109f2573d6000803e3d6000fd5b610a84610e2b565b6040517fc23a5cea00000000000000000000000000000000000000000000000000000000815273ffffffffffffffffffffffffffffffffffffffff82811660048301527f0000000000000000000000000000000000000000000000000000000000000000169063c23a5cea90602401600060405180830381600087803b158015610b0d57600080fd5b505af1158015610b21573d6000803e3d6000fd5b5050505050565b6040517f70a082310000000000000000000000000000000000000000000000000000000081523060048201526000907f000000000000000000000000000000000000000000000000000000000000000073ffffffffffffffffffffffffffffffffffffffff16906370a0823190602401602060405180830381865afa158015610bb5573d6000803e3d6000fd5b505050506040513d601f19601f82011682018060405250810190610bd9919061204b565b905090565b3360009081526003602052604090205415801590610c0a57503360009081526003602052604090205443115b610c7c5760405162461bcd60e51b815260206004820152602960248201527f4465706f7369745061796d61737465723a206d75737420756e6c6f636b546f6b60448201527f656e4465706f736974000000000000000000000000000000000000000000000060648201526084016106ef565b73ffffffffffffffffffffffffffffffffffffffff8316600090815260026020908152604080832033845290915281208054839290610cbc908490612064565b909155506109c5905073ffffffffffffffffffffffffffffffffffffffff841683836111e0565b6040517fb760faf90000000000000000000000000000000000000000000000000000000081523060048201527f000000000000000000000000000000000000000000000000000000000000000073ffffffffffffffffffffffffffffffffffffffff169063b760faf99034906024016000604051808303818588803b158015610b0d57600080fd5b610d73610e2b565b73ffffffffffffffffffffffffffffffffffffffff8116610dfc5760405162461bcd60e51b815260206004820152602660248201527f4f776e61626c653a206e6577206f776e657220697320746865207a65726f206160448201527f646472657373000000000000000000000000000000000000000000000000000060648201526084016106ef565b610e0581610f6e565b50565b60606000610e14610fe3565b610e1f858585611236565b91509150935093915050565b60005473ffffffffffffffffffffffffffffffffffffffff1633146109dc5760405162461bcd60e51b815260206004820181905260248201527f4f776e61626c653a2063616c6c6572206973206e6f7420746865206f776e657260448201526064016106ef565b60405173ffffffffffffffffffffffffffffffffffffffff808516602483015283166044820152606481018290526109f29085907f23b872dd00000000000000000000000000000000000000000000000000000000906084015b604080517fffffffffffffffffffffffffffffffffffffffffffffffffffffffffffffffe08184030181529190526020810180517bffffffffffffffffffffffffffffffffffffffffffffffffffffffff167fffffffff0000000000000000000000000000000000000000000000000000000090931692909217909152611517565b6000805473ffffffffffffffffffffffffffffffffffffffff8381167fffffffffffffffffffffffff0000000000000000000000000000000000000000831681178455604051919092169283917f8be0079c531659141344cd1fd0a4f28419497f9722a3daafe3b4186f6b6457e09190a35050565b3373ffffffffffffffffffffffffffffffffffffffff7f000000000000000000000000000000000000000000000000000000000000000016146109dc5760405162461bcd60e51b815260206004820152601560248201527f53656e646572206e6f7420456e747279506f696e74000000000000000000000060448201526064016106ef565b60008080808061107a8789018961207b565b9450945094509450945060008183856188b861109691906120cc565b6110a0908a612033565b6110aa91906120cc565b6110b49190612109565b905060028a60028111156110ca576110ca612144565b146110f6576110f173ffffffffffffffffffffffffffffffffffffffff8616873084610e92565b611140565b73ffffffffffffffffffffffffffffffffffffffff8086166000908152600260209081526040808320938a168352929052908120805483929061113a908490612064565b90915550505b73ffffffffffffffffffffffffffffffffffffffff85166000908152600260205260408120829161118660005473ffffffffffffffffffffffffffffffffffffffff1690565b73ffffffffffffffffffffffffffffffffffffffff1673ffffffffffffffffffffffffffffffffffffffff16815260200190815260200160002060008282546111cf9190612033565b909155505050505050505050505050565b60405173ffffffffffffffffffffffffffffffffffffffff83166024820152604481018290526109c59084907fa9059cbb0000000000000000000000000000000000000000000000000000000090606401610eec565b606060006188b88560a00135116112b55760405162461bcd60e51b815260206004820152602860248201527f4465706f7369745061796d61737465723a2067617320746f6f206c6f7720666f60448201527f7220706f73744f7000000000000000000000000000000000000000000000000060648201526084016106ef565b3660006112c6610120880188612173565b9092509050602881146113415760405162461bcd60e51b815260206004820152603560248201527f4465706f7369745061796d61737465723a207061796d6173746572416e64446160448201527f7461206d757374207370656369667920746f6b656e000000000000000000000060648201526084016106ef565b600061135082601481866121df565b61135991612209565b60601c90508735600061136c8389611609565b905060006113798b611b13565b73ffffffffffffffffffffffffffffffffffffffff8416600090815260036020526040902054909150156114145760405162461bcd60e51b8152602060048201526024808201527f4465706f7369745061796d61737465723a206465706f736974206e6f74206c6f60448201527f636b65640000000000000000000000000000000000000000000000000000000060648201526084016106ef565b73ffffffffffffffffffffffffffffffffffffffff8085166000908152600260209081526040808320938716835292905220548211156114bc5760405162461bcd60e51b815260206004820152602160248201527f4465706f7369745061796d61737465723a206465706f73697420746f6f206c6f60448201527f770000000000000000000000000000000000000000000000000000000000000060648201526084016106ef565b6040805173ffffffffffffffffffffffffffffffffffffffff948516602082015294909316848401526060840152608083015260a0808301979097528051808303909701875260c09091019052509295600095509350505050565b6000611579826040518060400160405280602081526020017f5361666545524332303a206c6f772d6c6576656c2063616c6c206661696c65648152508573ffffffffffffffffffffffffffffffffffffffff16611b429092919063ffffffff16565b8051909150156109c557808060200190518101906115979190612251565b6109c55760405162461bcd60e51b815260206004820152602a60248201527f5361666545524332303a204552433230206f7065726174696f6e20646964206e60448201527f6f7420737563636565640000000000000000000000000000000000000000000060648201526084016106ef565b73ffffffffffffffffffffffffffffffffffffffff82811660009081526001602081815260408084208151606081018352815487168082529190940154958616928401929092527401000000000000000000000000000000000000000090940460ff169382019390935290916116e75760405162461bcd60e51b815260206004820152602360248201527f4465706f7369745061796d61737465723a20756e737570706f7274656420746f60448201527f6b656e000000000000000000000000000000000000000000000000000000000060648201526084016106ef565b602081810151734200000000000000000000000000000000000006600090815260019092527fad59d8b039d0a49adcf8b040c0a328357753589ae2102d254712da0d90d17318547fad59d8b039d0a49adcf8b040c0a328357753589ae2102d254712da0d90d17319546040517fd4c282a300000000000000000000000000000000000000000000000000000000815273ffffffffffffffffffffffffffffffffffffffff9182166004820152610348602482015292939291169063d4c282a390604401602060405180830381865afa1580156117c7573d6000803e3d6000fd5b505050506040513d601f19601f820116820180604052508101906117eb919061204b565b83516040517fd4c282a300000000000000000000000000000000000000000000000000000000815273ffffffffffffffffffffffffffffffffffffffff858116600483015261034860248301529293506000929091169063d4c282a390604401602060405180830381865afa158015611868573d6000803e3d6000fd5b505050506040513d601f19601f8201168201806040525081019061188c919061204b565b734200000000000000000000000000000000000006600090815260016020527fad59d8b039d0a49adcf8b040c0a328357753589ae2102d254712da0d90d17318547fad59d8b039d0a49adcf8b040c0a328357753589ae2102d254712da0d90d17319546040517f58e2d3a800000000000000000000000000000000000000000000000000000000815273ffffffffffffffffffffffffffffffffffffffff9182166004820152610348602482015293945091929116906358e2d3a890604401602060405180830381865afa158015611968573d6000803e3d6000fd5b505050506040513d601f19601f8201168201806040525081019061198c9190612273565b85516040517f58e2d3a800000000000000000000000000000000000000000000000000000000815273ffffffffffffffffffffffffffffffffffffffff8781166004830152610348602483015260ff939093169350600092909116906358e2d3a890604401602060405180830381865afa158015611a0e573d6000803e3d6000fd5b505050506040513d601f19601f82011682018060405250810190611a329190612273565b60ff1690506000611a4483600a6123b0565b611a4e90856120cc565b611a5983600a6123b0565b611a63878c6120cc565b611a6d91906120cc565b611a779190612109565b73420000000000000000000000000000000000000660005260016020527fad59d8b039d0a49adcf8b040c0a328357753589ae2102d254712da0d90d1731954909150611adf9074010000000000000000000000000000000000000000900460ff16600a6123bc565b6040880151611aef90600a6123bc565b611af990836120cc565b611b039190612109565b9750505050505050505b92915050565b600060e0820135610100830135808203611b2e575092915050565b611b3a82488301611b51565b949350505050565b6060611b3a8484600085611b69565b6000818310611b605781611b62565b825b9392505050565b606082471015611be15760405162461bcd60e51b815260206004820152602660248201527f416464726573733a20696e73756666696369656e742062616c616e636520666f60448201527f722063616c6c000000000000000000000000000000000000000000000000000060648201526084016106ef565b6000808673ffffffffffffffffffffffffffffffffffffffff168587604051611c0a91906123cb565b60006040518083038185875af1925050503d8060008114611c47576040519150601f19603f3d011682016040523d82523d6000602084013e611c4c565b606091505b5091509150611c5d87838387611c68565b979650505050505050565b60608315611ce4578251600003611cdd5773ffffffffffffffffffffffffffffffffffffffff85163b611cdd5760405162461bcd60e51b815260206004820152601d60248201527f416464726573733a2063616c6c20746f206e6f6e2d636f6e747261637400000060448201526064016106ef565b5081611b3a565b611b3a8383815115611cf95781518083602001fd5b8060405162461bcd60e51b81526004016106ef91906123e7565b600060208284031215611d2557600080fd5b813563ffffffff81168114611b6257600080fd5b73ffffffffffffffffffffffffffffffffffffffff81168114610e0557600080fd5b60ff81168114610e0557600080fd5b60008060008060808587031215611d8057600080fd5b8435611d8b81611d39565b93506020850135611d9b81611d39565b92506040850135611dab81611d39565b91506060850135611dbb81611d5b565b939692955090935050565b60008060408385031215611dd957600080fd5b8235611de481611d39565b946020939093013593505050565b600080600060608486031215611e0757600080fd5b8335611e1281611d39565b92506020840135611e2281611d39565b929592945050506040919091013590565b60008060408385031215611e4657600080fd5b8235611e5181611d39565b91506020830135611e6181611d39565b809150509250929050565b600060208284031215611e7e57600080fd5b8135611b6281611d39565b60008060008060608587031215611e9f57600080fd5b843560038110611eae57600080fd5b9350602085013567ffffffffffffffff80821115611ecb57600080fd5b818701915087601f830112611edf57600080fd5b813581811115611eee57600080fd5b886020828501011115611f0057600080fd5b95986020929092019750949560400135945092505050565b600080600060608486031215611f2d57600080fd5b833567ffffffffffffffff811115611f4457600080fd5b84016101608187031215611f5757600080fd5b95602085013595506040909401359392505050565b60005b83811015611f87578181015183820152602001611f6f565b838111156109f25750506000910152565b60008151808452611fb0816020860160208601611f6c565b601f017fffffffffffffffffffffffffffffffffffffffffffffffffffffffffffffffe0169290920160200192915050565b604081526000611ff56040830185611f98565b90508260208301529392505050565b7f4e487b7100000000000000000000000000000000000000000000000000000000600052601160045260246000fd5b6000821982111561204657612046612004565b500190565b60006020828403121561205d57600080fd5b5051919050565b60008282101561207657612076612004565b500390565b600080600080600060a0868803121561209357600080fd5b853561209e81611d39565b945060208601356120ae81611d39565b94979496505050506040830135926060810135926080909101359150565b6000817fffffffffffffffffffffffffffffffffffffffffffffffffffffffffffffffff048311821515161561210457612104612004565b500290565b60008261213f577f4e487b7100000000000000000000000000000000000000000000000000000000600052601260045260246000fd5b500490565b7f4e487b7100000000000000000000000000000000000000000000000000000000600052602160045260246000fd5b60008083357fffffffffffffffffffffffffffffffffffffffffffffffffffffffffffffffe18436030181126121a857600080fd5b83018035915067ffffffffffffffff8211156121c357600080fd5b6020019150368190038213156121d857600080fd5b9250929050565b600080858511156121ef57600080fd5b838611156121fc57600080fd5b5050820193919092039150565b7fffffffffffffffffffffffffffffffffffffffff00000000000000000000000081358181169160148510156122495780818660140360031b1b83161692505b505092915050565b60006020828403121561226357600080fd5b81518015158114611b6257600080fd5b60006020828403121561228557600080fd5b8151611b6281611d5b565b600181815b808511156122e957817fffffffffffffffffffffffffffffffffffffffffffffffffffffffffffffffff048211156122cf576122cf612004565b808516156122dc57918102915b93841c9390800290612295565b509250929050565b60008261230057506001611b0d565b8161230d57506000611b0d565b8160018114612323576002811461232d57612349565b6001915050611b0d565b60ff84111561233e5761233e612004565b50506001821b611b0d565b5060208310610133831016604e8410600b841016171561236c575081810a611b0d565b6123768383612290565b807fffffffffffffffffffffffffffffffffffffffffffffffffffffffffffffffff048211156123a8576123a8612004565b029392505050565b6000611b6283836122f1565b6000611b6260ff8416836122f1565b600082516123dd818460208701611f6c565b9190910192915050565b602081526000611b626020830184611f9856fea26469706673582212208a9cab613294aeef7047a8205015d7b3471fa40b68142b67434d61f70707bbe764736f6c634300080f0033",
  "linkReferences": {},
  "deployedLinkReferences": {}
}