{
  "_format": "hh-sol-artifact-1",
  "contractName": "EntryPointWrapper",
  "sourceName": "contracts/bundler/EntryPointWrapper.sol",
  "abi": [
    {
      "inputs": [
        {
          "internalType": "contract IEntryPoint",
          "name": "_entryPoint",
          "type": "address"
        }
      ],
      "stateMutability": "nonpayable",
      "type": "constructor"
    },
    {
      "inputs": [
        {
          "internalType": "uint256",
          "name": "opIndex",
          "type": "uint256"
        },
        {
          "internalType": "string",
          "name": "reason",
          "type": "string"
        }
      ],
      "name": "FailedOp",
      "type": "error"
    },
    {
      "inputs": [
        {
          "internalType": "address",
          "name": "sender",
          "type": "address"
        }
      ],
      "name": "SenderAddressResult",
      "type": "error"
    },
    {
      "inputs": [
        {
          "components": [
            {
              "internalType": "uint256",
              "name": "preOpGas",
              "type": "uint256"
            },
            {
              "internalType": "uint256",
              "name": "prefund",
              "type": "uint256"
            },
            {
              "internalType": "bool",
              "name": "sigFailed",
              "type": "bool"
            },
            {
              "internalType": "uint48",
              "name": "validAfter",
              "type": "uint48"
            },
            {
              "internalType": "uint48",
              "name": "validUntil",
              "type": "uint48"
            },
            {
              "internalType": "bytes",
              "name": "paymasterContext",
              "type": "bytes"
            }
          ],
          "internalType": "struct EntryPointWrapper.ReturnInfo",
          "name": "returnInfo",
          "type": "tuple"
        },
        {
          "components": [
            {
              "internalType": "uint256",
              "name": "stake",
              "type": "uint256"
            },
            {
              "internalType": "uint256",
              "name": "unstakeDelaySec",
              "type": "uint256"
            }
          ],
          "internalType": "struct EntryPointWrapper.StakeInfo",
          "name": "senderInfo",
          "type": "tuple"
        },
        {
          "components": [
            {
              "internalType": "uint256",
              "name": "stake",
              "type": "uint256"
            },
            {
              "internalType": "uint256",
              "name": "unstakeDelaySec",
              "type": "uint256"
            }
          ],
          "internalType": "struct EntryPointWrapper.StakeInfo",
          "name": "factoryInfo",
          "type": "tuple"
        },
        {
          "components": [
            {
              "internalType": "uint256",
              "name": "stake",
              "type": "uint256"
            },
            {
              "internalType": "uint256",
              "name": "unstakeDelaySec",
              "type": "uint256"
            }
          ],
          "internalType": "struct EntryPointWrapper.StakeInfo",
          "name": "paymasterInfo",
          "type": "tuple"
        }
      ],
      "name": "ValidationResult",
      "type": "error"
    },
    {
      "inputs": [
        {
          "components": [
            {
              "internalType": "uint256",
              "name": "preOpGas",
              "type": "uint256"
            },
            {
              "internalType": "uint256",
              "name": "prefund",
              "type": "uint256"
            },
            {
              "internalType": "bool",
              "name": "sigFailed",
              "type": "bool"
            },
            {
              "internalType": "uint48",
              "name": "validAfter",
              "type": "uint48"
            },
            {
              "internalType": "uint48",
              "name": "validUntil",
              "type": "uint48"
            },
            {
              "internalType": "bytes",
              "name": "paymasterContext",
              "type": "bytes"
            }
          ],
          "internalType": "struct EntryPointWrapper.ReturnInfo",
          "name": "returnInfo",
          "type": "tuple"
        },
        {
          "components": [
            {
              "internalType": "uint256",
              "name": "stake",
              "type": "uint256"
            },
            {
              "internalType": "uint256",
              "name": "unstakeDelaySec",
              "type": "uint256"
            }
          ],
          "internalType": "struct EntryPointWrapper.StakeInfo",
          "name": "senderInfo",
          "type": "tuple"
        },
        {
          "components": [
            {
              "internalType": "uint256",
              "name": "stake",
              "type": "uint256"
            },
            {
              "internalType": "uint256",
              "name": "unstakeDelaySec",
              "type": "uint256"
            }
          ],
          "internalType": "struct EntryPointWrapper.StakeInfo",
          "name": "factoryInfo",
          "type": "tuple"
        },
        {
          "components": [
            {
              "internalType": "uint256",
              "name": "stake",
              "type": "uint256"
            },
            {
              "internalType": "uint256",
              "name": "unstakeDelaySec",
              "type": "uint256"
            }
          ],
          "internalType": "struct EntryPointWrapper.StakeInfo",
          "name": "paymasterInfo",
          "type": "tuple"
        },
        {
          "components": [
            {
              "internalType": "address",
              "name": "aggregator",
              "type": "address"
            },
            {
              "components": [
                {
                  "internalType": "uint256",
                  "name": "stake",
                  "type": "uint256"
                },
                {
                  "internalType": "uint256",
                  "name": "unstakeDelaySec",
                  "type": "uint256"
                }
              ],
              "internalType": "struct EntryPointWrapper.StakeInfo",
              "name": "stakeInfo",
              "type": "tuple"
            }
          ],
          "internalType": "struct EntryPointWrapper.AggregatorStakeInfo",
          "name": "aggregatorInfo",
          "type": "tuple"
        }
      ],
      "name": "ValidationResultWithAggregation",
      "type": "error"
    },
    {
      "inputs": [],
      "name": "entryPoint",
      "outputs": [
        {
          "internalType": "contract IEntryPoint",
          "name": "",
          "type": "address"
        }
      ],
      "stateMutability": "view",
      "type": "function"
    },
    {
      "inputs": [
        {
          "internalType": "address[]",
          "name": "addresses",
          "type": "address[]"
        }
      ],
      "name": "getCodeHashes",
      "outputs": [
        {
          "internalType": "bytes32",
          "name": "",
          "type": "bytes32"
        }
      ],
      "stateMutability": "view",
      "type": "function"
    },
    {
      "inputs": [
        {
          "internalType": "bytes",
          "name": "initCode",
          "type": "bytes"
        }
      ],
      "name": "getSenderAddress",
      "outputs": [
        {
          "internalType": "address",
          "name": "",
          "type": "address"
        }
      ],
      "stateMutability": "nonpayable",
      "type": "function"
    },
    {
      "inputs": [
        {
          "internalType": "contract IEntryPoint",
          "name": "entryPoint",
          "type": "address"
        },
        {
          "components": [
            {
              "internalType": "address",
              "name": "sender",
              "type": "address"
            },
            {
              "internalType": "uint256",
              "name": "nonce",
              "type": "uint256"
            },
            {
              "internalType": "bytes",
              "name": "initCode",
              "type": "bytes"
            },
            {
              "internalType": "bytes",
              "name": "callData",
              "type": "bytes"
            },
            {
              "internalType": "uint256",
              "name": "callGasLimit",
              "type": "uint256"
            },
            {
              "internalType": "uint256",
              "name": "verificationGasLimit",
              "type": "uint256"
            },
            {
              "internalType": "uint256",
              "name": "preVerificationGas",
              "type": "uint256"
            },
            {
              "internalType": "uint256",
              "name": "maxFeePerGas",
              "type": "uint256"
            },
            {
              "internalType": "uint256",
              "name": "maxPriorityFeePerGas",
              "type": "uint256"
            },
            {
              "internalType": "bytes",
              "name": "paymasterAndData",
              "type": "bytes"
            },
            {
              "internalType": "bytes",
              "name": "signature",
              "type": "bytes"
            }
          ],
          "internalType": "struct UserOperation[]",
          "name": "userOps",
          "type": "tuple[]"
        }
      ],
      "name": "getUserOpHashes",
      "outputs": [
        {
          "internalType": "bytes32[]",
          "name": "ret",
          "type": "bytes32[]"
        }
      ],
      "stateMutability": "view",
      "type": "function"
    },
    {
      "inputs": [
        {
          "components": [
            {
              "internalType": "address",
              "name": "sender",
              "type": "address"
            },
            {
              "internalType": "uint256",
              "name": "nonce",
              "type": "uint256"
            },
            {
              "internalType": "bytes",
              "name": "initCode",
              "type": "bytes"
            },
            {
              "internalType": "bytes",
              "name": "callData",
              "type": "bytes"
            },
            {
              "internalType": "uint256",
              "name": "callGasLimit",
              "type": "uint256"
            },
            {
              "internalType": "uint256",
              "name": "verificationGasLimit",
              "type": "uint256"
            },
            {
              "internalType": "uint256",
              "name": "preVerificationGas",
              "type": "uint256"
            },
            {
              "internalType": "uint256",
              "name": "maxFeePerGas",
              "type": "uint256"
            },
            {
              "internalType": "uint256",
              "name": "maxPriorityFeePerGas",
              "type": "uint256"
            },
            {
              "internalType": "bytes",
              "name": "paymasterAndData",
              "type": "bytes"
            },
            {
              "internalType": "bytes",
              "name": "signature",
              "type": "bytes"
            }
          ],
          "internalType": "struct UserOperation",
          "name": "userOp",
          "type": "tuple"
        }
      ],
      "name": "simulateValidation",
      "outputs": [
        {
          "components": [
            {
              "internalType": "bool",
              "name": "status",
              "type": "bool"
            },
            {
              "internalType": "uint256",
              "name": "opIndex",
              "type": "uint256"
            },
            {
              "internalType": "string",
              "name": "reason",
              "type": "string"
            }
          ],
          "internalType": "struct EntryPointWrapper.FailedOpStatus",
          "name": "",
          "type": "tuple"
        },
        {
          "components": [
            {
              "internalType": "string",
              "name": "selectorType",
              "type": "string"
            },
            {
              "components": [
                {
                  "internalType": "uint256",
                  "name": "preOpGas",
                  "type": "uint256"
                },
                {
                  "internalType": "uint256",
                  "name": "prefund",
                  "type": "uint256"
                },
                {
                  "internalType": "bool",
                  "name": "sigFailed",
                  "type": "bool"
                },
                {
                  "internalType": "uint48",
                  "name": "validAfter",
                  "type": "uint48"
                },
                {
                  "internalType": "uint48",
                  "name": "validUntil",
                  "type": "uint48"
                },
                {
                  "internalType": "bytes",
                  "name": "paymasterContext",
                  "type": "bytes"
                }
              ],
              "internalType": "struct EntryPointWrapper.ReturnInfo",
              "name": "returnInfo",
              "type": "tuple"
            },
            {
              "components": [
                {
                  "internalType": "uint256",
                  "name": "stake",
                  "type": "uint256"
                },
                {
                  "internalType": "uint256",
                  "name": "unstakeDelaySec",
                  "type": "uint256"
                }
              ],
              "internalType": "struct EntryPointWrapper.StakeInfo",
              "name": "senderInfo",
              "type": "tuple"
            },
            {
              "components": [
                {
                  "internalType": "uint256",
                  "name": "stake",
                  "type": "uint256"
                },
                {
                  "internalType": "uint256",
                  "name": "unstakeDelaySec",
                  "type": "uint256"
                }
              ],
              "internalType": "struct EntryPointWrapper.StakeInfo",
              "name": "factoryInfo",
              "type": "tuple"
            },
            {
              "components": [
                {
                  "internalType": "uint256",
                  "name": "stake",
                  "type": "uint256"
                },
                {
                  "internalType": "uint256",
                  "name": "unstakeDelaySec",
                  "type": "uint256"
                }
              ],
              "internalType": "struct EntryPointWrapper.StakeInfo",
              "name": "paymasterInfo",
              "type": "tuple"
            },
            {
              "components": [
                {
                  "internalType": "address",
                  "name": "aggregator",
                  "type": "address"
                },
                {
                  "components": [
                    {
                      "internalType": "uint256",
                      "name": "stake",
                      "type": "uint256"
                    },
                    {
                      "internalType": "uint256",
                      "name": "unstakeDelaySec",
                      "type": "uint256"
                    }
                  ],
                  "internalType": "struct EntryPointWrapper.StakeInfo",
                  "name": "stakeInfo",
                  "type": "tuple"
                }
              ],
              "internalType": "struct EntryPointWrapper.AggregatorStakeInfo",
              "name": "aggregatorInfo",
              "type": "tuple"
            }
          ],
          "internalType": "struct EntryPointWrapper.Response",
          "name": "",
          "type": "tuple"
        }
      ],
      "stateMutability": "nonpayable",
      "type": "function"
    }
  ],
  "bytecode": "0x6000608081905260a08190526001819055600281905560c081905261010081815261012082905260e052600380546001600160a01b0319169055600481905560058190556101408181526101608290526101808290526101a08290526101c08290526102008281526102206040526101e08190526006838155600793909355600880546001600160681b0319169055909190600990620000a09082620004a5565b50506040805160e081018252600060c08083019182529082528251908101835260068054825260075460208381019190915260085460ff811615159584019590955265ffffffffffff610100860481166060850152670100000000000000909504909416608083015260098054939550938501939192909160a0840191620001289062000416565b80601f0160208091040260200160405190810160405280929190818152602001828054620001569062000416565b8015620001a75780601f106200017b57610100808354040283529160200191620001a7565b820191906000526020600020905b8154815290600101906020018083116200018957829003601f168201915b505050919092525050508152604080518082018252600154808252600254602083810182905280860193909352835180850185528281528084018290528486015283518085018552918252818301526060840152815180830183526003546001600160a01b031681528251808401909352600454835260055483830152908101919091526080909101528051600a908190620002449082620004a5565b5060208281015180516001840190815591810151600284015560408101516003840180546060840151608085015166ffffffffffffff1990921693151566ffffffffffff0019169390931761010065ffffffffffff948516021765ffffffffffff60381b1916670100000000000000939091169290920291909117905560a08101519091906004840190620002da9082620004a5565b505050604082810151805160058401556020908101516006840155606080850151805160078601558201516008850155608085015180516009860155820151600a85015560a0909401518051600b850180546001600160a01b0319166001600160a01b039092169190911790558101518051600c850155810151600d909301929092558051928301815260008084528383018181528251938401835290835290830182905282516018805460ff1916911515919091178155905160195590601a90620003a79082620004a5565b505050348015620003b757600080fd5b506040516200223438038062002234833981016040819052620003da9162000571565b600080546001600160a01b0319166001600160a01b0392909216919091179055620005a3565b634e487b7160e01b600052604160045260246000fd5b600181811c908216806200042b57607f821691505b6020821081036200044c57634e487b7160e01b600052602260045260246000fd5b50919050565b601f821115620004a057600081815260208120601f850160051c810160208610156200047b5750805b601f850160051c820191505b818110156200049c5782815560010162000487565b5050505b505050565b81516001600160401b03811115620004c157620004c162000400565b620004d981620004d2845462000416565b8462000452565b602080601f831160018114620005115760008415620004f85750858301515b600019600386901b1c1916600185901b1785556200049c565b600085815260208120601f198616915b82811015620005425788860151825594840194600190910190840162000521565b5085821015620005615787850151600019600388901b60f8161c191681555b5050505050600190811b01905550565b6000602082840312156200058457600080fd5b81516001600160a01b03811681146200059c57600080fd5b9392505050565b611c8180620005b36000396000f3fe608060405234801561001057600080fd5b50600436106100675760003560e01c80639b249f69116100505780639b249f69146100b6578063b0d691fe146100ee578063ee2194231461010e57600080fd5b80633024e00c1461006c5780637b34b62114610095575b600080fd5b61007f61007a36600461103a565b61012f565b60405161008c91906111f9565b60405180910390f35b6100a86100a336600461123d565b61024d565b60405190815260200161008c565b6100c96100c43660046112d7565b610336565b60405173ffffffffffffffffffffffffffffffffffffffff909116815260200161008c565b6000546100c99073ffffffffffffffffffffffffffffffffffffffff1681565b61012161011c366004611349565b6104e3565b60405161008c9291906113e1565b6060815167ffffffffffffffff81111561014b5761014b610eb8565b604051908082528060200260200182016040528015610174578160200160208202803683370190505b50905060005b8251811015610245578373ffffffffffffffffffffffffffffffffffffffff1663a61935318483815181106101b1576101b161152b565b60200260200101516040518263ffffffff1660e01b81526004016101d5919061155a565b602060405180830381865afa1580156101f2573d6000803e3d6000fd5b505050506040513d601f19601f820116820180604052508101906102169190611648565b8282815181106102285761022861152b565b60209081029190910101528061023d81611690565b91505061017a565b505b92915050565b600080825167ffffffffffffffff81111561026a5761026a610eb8565b604051908082528060200260200182016040528015610293578160200160208202803683370190505b50905060005b8351811015610302578381815181106102b4576102b461152b565b602002602001015173ffffffffffffffffffffffffffffffffffffffff163f8282815181106102e5576102e561152b565b6020908102919091010152806102fa81611690565b915050610299565b5060008160405160200161031691906111f9565b60408051601f198184030181529190528051602090910120949350505050565b600080546040517f9b249f6900000000000000000000000000000000000000000000000000000000815273ffffffffffffffffffffffffffffffffffffffff90911690639b249f699061038f90869086906004016116f3565b600060405180830381600087803b1580156103a957600080fd5b505af19250505080156103ba575060015b610247573d8080156103e8576040519150601f19603f3d011682016040523d82523d6000602084013e6103ed565b606091505b5060006103f98261170f565b90507f935847fa000000000000000000000000000000000000000000000000000000007fffffffff0000000000000000000000000000000000000000000000000000000082160161047c57600061045e836004808651610459919061175f565b610c39565b8060200190518101906104719190611776565b935061024792505050565b6040517f08c379a000000000000000000000000000000000000000000000000000000000815260206004820152601060248201527f496e76616c696420696e6974436f64650000000000000000000000000000000060448201526064015b60405180910390fd5b60408051606080820183526000808352602083015291810191909152610507610d97565b6000546040517fee21942300000000000000000000000000000000000000000000000000000000815273ffffffffffffffffffffffffffffffffffffffff9091169063ee2194239061055d9086906004016117fe565b600060405180830381600087803b15801561057757600080fd5b505af1925050508015610588575060015b610c34573d8080156105b6576040519150601f19603f3d011682016040523d82523d6000602084013e6105bb565b606091505b5060006105c78261170f565b90507f1f300fa1000000000000000000000000000000000000000000000000000000007fffffffff000000000000000000000000000000000000000000000000000000008216016107a75760008060008061062b866004808951610459919061175f565b80602001905181019061063e9190611a3c565b6040805161010081018252601060c082019081527f56616c69646174696f6e526573756c740000000000000000000000000000000060e0830152815260208082018790528183018690526060808301869052608083018590528351808501855260035473ffffffffffffffffffffffffffffffffffffffff168152845180860186526004548152600554818501528184015260a0840152835190810184526018805460ff161515825260195492820192909252601a8054989c50969a509498509296509194919385929184019161071490611aae565b80601f016020809104026020016040519081016040528092919081815260200182805461074090611aae565b801561078d5780601f106107625761010080835404028352916020019161078d565b820191906000526020600020905b81548152906001019060200180831161077057829003601f168201915b505050505081525050915097509750505050505050915091565b7f05134b1c000000000000000000000000000000000000000000000000000000007fffffffff0000000000000000000000000000000000000000000000000000000082160161095357600080600080600061080b876004808a51610459919061175f565b80602001905181019061081e9190611b01565b6040805161010081018252601f60c082019081527f56616c69646174696f6e526573756c74576974684167677265676174696f6e0060e08301528152602080820188905281830187905260608083018790526080830186905260a08301859052835190810184526018805460ff161515825260195492820192909252601a8054999e50979c50959a509398509196509194909385928401916108bf90611aae565b80601f01602080910402602001604051908101604052809291908181526020018280546108eb90611aae565b80156109385780601f1061090d57610100808354040283529160200191610938565b820191906000526020600020905b81548152906001019060200180831161091b57829003601f168201915b50505050508152505091509850985050505050505050915091565b7fddfd994a000000000000000000000000000000000000000000000000000000007fffffffff00000000000000000000000000000000000000000000000000000000821601610c31576000806109b2846004808751610459919061175f565b8060200190518101906109c59190611bd8565b91509150604051806060016040528060011515815260200183815260200182815250600a806040518060c0016040529081600082018054610a0590611aae565b80601f0160208091040260200160405190810160405280929190818152602001828054610a3190611aae565b8015610a7e5780601f10610a5357610100808354040283529160200191610a7e565b820191906000526020600020905b815481529060010190602001808311610a6157829003601f168201915b50505091835250506040805160c08101825260018401805482526002850154602083810191909152600386015460ff811615159484019490945265ffffffffffff610100850481166060850152670100000000000000909404909316608083015260048501805493909401939192909160a0840191610afc90611aae565b80601f0160208091040260200160405190810160405280929190818152602001828054610b2890611aae565b8015610b755780601f10610b4a57610100808354040283529160200191610b75565b820191906000526020600020905b815481529060010190602001808311610b5857829003601f168201915b505050919092525050508152604080518082018252600584015481526006840154602082810191909152808401919091528151808301835260078501548152600885015481830152828401528151808301835260098501548152600a85015481830152606084015281518083018352600b85015473ffffffffffffffffffffffffffffffffffffffff1681528251808401909352600c8501548352600d9094015482820152830152608001529199919850909650505050505050565b50505b915091565b606081610c4781601f611c33565b1015610caf576040517f08c379a000000000000000000000000000000000000000000000000000000000815260206004820152600e60248201527f736c6963655f6f766572666c6f7700000000000000000000000000000000000060448201526064016104da565b610cb98284611c33565b84511015610d23576040517f08c379a000000000000000000000000000000000000000000000000000000000815260206004820152601160248201527f736c6963655f6f75744f66426f756e647300000000000000000000000000000060448201526064016104da565b606082158015610d425760405191506000825260208201604052610d8c565b6040519150601f8416801560200281840101858101878315602002848b0101015b81831015610d7b578051835260209283019201610d63565b5050858452601f01601f1916604052505b5090505b9392505050565b6040805160c0808201835260608083528351918201845260008083526020838101829052948301819052828201819052608083015260a082015290918201908152602001610df8604051806040016040528060008152602001600081525090565b8152602001610e1a604051806040016040528060008152602001600081525090565b8152602001610e3c604051806040016040528060008152602001600081525090565b8152602001610e49610e4e565b905290565b6040518060400160405280600073ffffffffffffffffffffffffffffffffffffffff168152602001610e49604051806040016040528060008152602001600081525090565b73ffffffffffffffffffffffffffffffffffffffff81168114610eb557600080fd5b50565b7f4e487b7100000000000000000000000000000000000000000000000000000000600052604160045260246000fd5b604051610160810167ffffffffffffffff81118282101715610f0b57610f0b610eb8565b60405290565b60405160c0810167ffffffffffffffff81118282101715610f0b57610f0b610eb8565b6040805190810167ffffffffffffffff81118282101715610f0b57610f0b610eb8565b604051601f8201601f1916810167ffffffffffffffff81118282101715610f8057610f80610eb8565b604052919050565b600067ffffffffffffffff821115610fa257610fa2610eb8565b5060051b60200190565b8035610fb781610e93565b919050565b600067ffffffffffffffff821115610fd657610fd6610eb8565b50601f01601f191660200190565b600082601f830112610ff557600080fd5b813561100861100382610fbc565b610f57565b81815284602083860101111561101d57600080fd5b816020850160208301376000918101602001919091529392505050565b6000806040838503121561104d57600080fd5b823561105881610e93565b915060208381013567ffffffffffffffff8082111561107657600080fd5b818601915086601f83011261108a57600080fd5b813561109861100382610f88565b81815260059190911b830184019084810190898311156110b757600080fd5b8585015b838110156111e8578035858111156110d257600080fd5b8601610160818d03601f190112156110e957600080fd5b6110f1610ee7565b6110fc898301610fac565b815260408201358982015260608201358781111561111957600080fd5b6111278e8b83860101610fe4565b60408301525060808201358781111561113f57600080fd5b61114d8e8b83860101610fe4565b60608301525060a0820135608082015260c082013560a082015260e082013560c082015261010082013560e0820152610120820135610100820152610140808301358881111561119c57600080fd5b6111aa8f8c83870101610fe4565b61012084015250610160830135888111156111c457600080fd5b6111d28f8c83870101610fe4565b91830191909152508452509186019186016110bb565b508096505050505050509250929050565b6020808252825182820181905260009190848201906040850190845b8181101561123157835183529284019291840191600101611215565b50909695505050505050565b6000602080838503121561125057600080fd5b823567ffffffffffffffff81111561126757600080fd5b8301601f8101851361127857600080fd5b803561128661100382610f88565b81815260059190911b820183019083810190878311156112a557600080fd5b928401925b828410156112cc5783356112bd81610e93565b825292840192908401906112aa565b979650505050505050565b600080602083850312156112ea57600080fd5b823567ffffffffffffffff8082111561130257600080fd5b818501915085601f83011261131657600080fd5b81358181111561132557600080fd5b86602082850101111561133757600080fd5b60209290920196919550909350505050565b60006020828403121561135b57600080fd5b813567ffffffffffffffff81111561137257600080fd5b82016101608185031215610d9057600080fd5b60005b838110156113a0578181015183820152602001611388565b838111156113af576000848401525b50505050565b600081518084526113cd816020860160208601611385565b601f01601f19169290920160200192915050565b6000604080835284511515818401526020808601516060850152818601516060608086015261141360a08601826113b5565b9050848103828601526101608651818352611430828401826113b5565b9150508287015182820384840152805182528381015184830152848101511515858301526060810151935065ffffffffffff80851660608401528060808301511660808401525060a081015193505060c060a082015261149360c08201846113b5565b925050828601516114b08483018280518252602090810151910152565b50606086015180516080830152602081015160a083015292506080860151805160c0830152602081015160e0830152925060a08601519250611521610100820184805173ffffffffffffffffffffffffffffffffffffffff1682526020908101518051828401520151604090910152565b5095945050505050565b7f4e487b7100000000000000000000000000000000000000000000000000000000600052603260045260246000fd5b6020815261158160208201835173ffffffffffffffffffffffffffffffffffffffff169052565b60208201516040820152600060408301516101608060608501526115a96101808501836113b5565b91506060850151601f19808685030160808701526115c784836113b5565b9350608087015160a087015260a087015160c087015260c087015160e087015260e0870151915061010082818801528088015192505061012082818801528088015192505061014081878603018188015261162285846113b5565b90880151878203909201848801529350905061163e83826113b5565b9695505050505050565b60006020828403121561165a57600080fd5b5051919050565b7f4e487b7100000000000000000000000000000000000000000000000000000000600052601160045260246000fd5b60007fffffffffffffffffffffffffffffffffffffffffffffffffffffffffffffffff82036116c1576116c1611661565b5060010190565b818352818160208501375060006020828401015260006020601f19601f840116840101905092915050565b6020815260006117076020830184866116c8565b949350505050565b6000815160208301517fffffffff00000000000000000000000000000000000000000000000000000000808216935060048310156117575780818460040360031b1b83161693505b505050919050565b60008282101561177157611771611661565b500390565b60006020828403121561178857600080fd5b8151610d9081610e93565b60008083357fffffffffffffffffffffffffffffffffffffffffffffffffffffffffffffffe18436030181126117c857600080fd5b830160208101925035905067ffffffffffffffff8111156117e857600080fd5b8036038213156117f757600080fd5b9250929050565b6020815261182c6020820161181284610fac565b73ffffffffffffffffffffffffffffffffffffffff169052565b6020820135604082015260006118456040840184611793565b61016080606086015261185d610180860183856116c8565b925061186c6060870187611793565b9250601f19808786030160808801526118868585846116c8565b9450608088013560a088015260a088013560c088015260c088013560e0880152610100935060e088013584880152610120915083880135828801526118cd82890189611793565b945091506101408188870301818901526118e88686856116c8565b95506118f6818a018a611793565b9550925050808786030183880152506112cc8484836116c8565b805165ffffffffffff81168114610fb757600080fd5b600061193461100384610fbc565b905082815283838301111561194857600080fd5b610d90836020830184611385565b600082601f83011261196757600080fd5b610d9083835160208501611926565b600060c0828403121561198857600080fd5b611990610f11565b90508151815260208201516020820152604082015180151581146119b357600080fd5b60408201526119c460608301611910565b60608201526119d560808301611910565b608082015260a082015167ffffffffffffffff8111156119f457600080fd5b611a0084828501611956565b60a08301525092915050565b600060408284031215611a1e57600080fd5b611a26610f34565b9050815181526020820151602082015292915050565b60008060008060e08587031215611a5257600080fd5b845167ffffffffffffffff811115611a6957600080fd5b611a7587828801611976565b945050611a858660208701611a0c565b9250611a948660608701611a0c565b9150611aa38660a08701611a0c565b905092959194509250565b600181811c90821680611ac257607f821691505b602082108103611afb577f4e487b7100000000000000000000000000000000000000000000000000000000600052602260045260246000fd5b50919050565b6000806000806000858703610140811215611b1b57600080fd5b865167ffffffffffffffff811115611b3257600080fd5b611b3e89828a01611976565b965050611b4e8860208901611a0c565b9450611b5d8860608901611a0c565b9350611b6c8860a08901611a0c565b925060607fffffffffffffffffffffffffffffffffffffffffffffffffffffffffffffff2082011215611b9e57600080fd5b50611ba7610f34565b60e0870151611bb581610e93565b8152611bc5886101008901611a0c565b6020820152809150509295509295909350565b60008060408385031215611beb57600080fd5b82519150602083015167ffffffffffffffff811115611c0957600080fd5b8301601f81018513611c1a57600080fd5b611c2985825160208401611926565b9150509250929050565b60008219821115611c4657611c46611661565b50019056fea26469706673582212209a1c7252e82e84056f2a73f6c8f87a6651303771a673fe8cebe2dbe5467b390664736f6c634300080f0033",
  "linkReferences": {},
  "deployedLinkReferences": {}
}