{
  "_format": "hh-sol-artifact-1",
  "contractName": "EntryPoint",
  "sourceName": "contracts/core/EntryPoint.sol",
  "abi": [
    {
      "inputs": [
        {
          "internalType": "uint256",
          "name": "preOpGas",
          "type": "uint256"
        },
        {
          "internalType": "uint256",
          "name": "paid",
          "type": "uint256"
        },
        {
          "internalType": "uint48",
          "name": "validAfter",
          "type": "uint48"
        },
        {
          "internalType": "uint48",
          "name": "validUntil",
          "type": "uint48"
        },
        {
          "internalType": "bool",
          "name": "targetSuccess",
          "type": "bool"
        },
        {
          "internalType": "bytes",
          "name": "targetResult",
          "type": "bytes"
        }
      ],
      "name": "ExecutionResult",
      "type": "error"
    },
    {
      "inputs": [
        {
          "internalType": "uint256",
          "name": "opIndex",
          "type": "uint256"
        },
        {
          "internalType": "string",
          "name": "reason",
          "type": "string"
        }
      ],
      "name": "FailedOp",
      "type": "error"
    },
    {
      "inputs": [
        {
          "internalType": "address",
          "name": "sender",
          "type": "address"
        }
      ],
      "name": "SenderAddressResult",
      "type": "error"
    },
    {
      "inputs": [
        {
          "internalType": "address",
          "name": "aggregator",
          "type": "address"
        }
      ],
      "name": "SignatureValidationFailed",
      "type": "error"
    },
    {
      "inputs": [
        {
          "components": [
            {
              "internalType": "uint256",
              "name": "preOpGas",
              "type": "uint256"
            },
            {
              "internalType": "uint256",
              "name": "prefund",
              "type": "uint256"
            },
            {
              "internalType": "bool",
              "name": "sigFailed",
              "type": "bool"
            },
            {
              "internalType": "uint48",
              "name": "validAfter",
              "type": "uint48"
            },
            {
              "internalType": "uint48",
              "name": "validUntil",
              "type": "uint48"
            },
            {
              "internalType": "bytes",
              "name": "paymasterContext",
              "type": "bytes"
            }
          ],
          "internalType": "struct IEntryPoint.ReturnInfo",
          "name": "returnInfo",
          "type": "tuple"
        },
        {
          "components": [
            {
              "internalType": "uint256",
              "name": "stake",
              "type": "uint256"
            },
            {
              "internalType": "uint256",
              "name": "unstakeDelaySec",
              "type": "uint256"
            }
          ],
          "internalType": "struct IStakeManager.StakeInfo",
          "name": "senderInfo",
          "type": "tuple"
        },
        {
          "components": [
            {
              "internalType": "uint256",
              "name": "stake",
              "type": "uint256"
            },
            {
              "internalType": "uint256",
              "name": "unstakeDelaySec",
              "type": "uint256"
            }
          ],
          "internalType": "struct IStakeManager.StakeInfo",
          "name": "factoryInfo",
          "type": "tuple"
        },
        {
          "components": [
            {
              "internalType": "uint256",
              "name": "stake",
              "type": "uint256"
            },
            {
              "internalType": "uint256",
              "name": "unstakeDelaySec",
              "type": "uint256"
            }
          ],
          "internalType": "struct IStakeManager.StakeInfo",
          "name": "paymasterInfo",
          "type": "tuple"
        }
      ],
      "name": "ValidationResult",
      "type": "error"
    },
    {
      "inputs": [
        {
          "components": [
            {
              "internalType": "uint256",
              "name": "preOpGas",
              "type": "uint256"
            },
            {
              "internalType": "uint256",
              "name": "prefund",
              "type": "uint256"
            },
            {
              "internalType": "bool",
              "name": "sigFailed",
              "type": "bool"
            },
            {
              "internalType": "uint48",
              "name": "validAfter",
              "type": "uint48"
            },
            {
              "internalType": "uint48",
              "name": "validUntil",
              "type": "uint48"
            },
            {
              "internalType": "bytes",
              "name": "paymasterContext",
              "type": "bytes"
            }
          ],
          "internalType": "struct IEntryPoint.ReturnInfo",
          "name": "returnInfo",
          "type": "tuple"
        },
        {
          "components": [
            {
              "internalType": "uint256",
              "name": "stake",
              "type": "uint256"
            },
            {
              "internalType": "uint256",
              "name": "unstakeDelaySec",
              "type": "uint256"
            }
          ],
          "internalType": "struct IStakeManager.StakeInfo",
          "name": "senderInfo",
          "type": "tuple"
        },
        {
          "components": [
            {
              "internalType": "uint256",
              "name": "stake",
              "type": "uint256"
            },
            {
              "internalType": "uint256",
              "name": "unstakeDelaySec",
              "type": "uint256"
            }
          ],
          "internalType": "struct IStakeManager.StakeInfo",
          "name": "factoryInfo",
          "type": "tuple"
        },
        {
          "components": [
            {
              "internalType": "uint256",
              "name": "stake",
              "type": "uint256"
            },
            {
              "internalType": "uint256",
              "name": "unstakeDelaySec",
              "type": "uint256"
            }
          ],
          "internalType": "struct IStakeManager.StakeInfo",
          "name": "paymasterInfo",
          "type": "tuple"
        },
        {
          "components": [
            {
              "internalType": "address",
              "name": "aggregator",
              "type": "address"
            },
            {
              "components": [
                {
                  "internalType": "uint256",
                  "name": "stake",
                  "type": "uint256"
                },
                {
                  "internalType": "uint256",
                  "name": "unstakeDelaySec",
                  "type": "uint256"
                }
              ],
              "internalType": "struct IStakeManager.StakeInfo",
              "name": "stakeInfo",
              "type": "tuple"
            }
          ],
          "internalType": "struct IEntryPoint.AggregatorStakeInfo",
          "name": "aggregatorInfo",
          "type": "tuple"
        }
      ],
      "name": "ValidationResultWithAggregation",
      "type": "error"
    },
    {
      "anonymous": false,
      "inputs": [
        {
          "indexed": true,
          "internalType": "bytes32",
          "name": "userOpHash",
          "type": "bytes32"
        },
        {
          "indexed": true,
          "internalType": "address",
          "name": "sender",
          "type": "address"
        },
        {
          "indexed": false,
          "internalType": "address",
          "name": "factory",
          "type": "address"
        },
        {
          "indexed": false,
          "internalType": "address",
          "name": "paymaster",
          "type": "address"
        }
      ],
      "name": "AccountDeployed",
      "type": "event"
    },
    {
      "anonymous": false,
      "inputs": [],
      "name": "BeforeExecution",
      "type": "event"
    },
    {
      "anonymous": false,
      "inputs": [
        {
          "indexed": true,
          "internalType": "address",
          "name": "account",
          "type": "address"
        },
        {
          "indexed": false,
          "internalType": "uint256",
          "name": "totalDeposit",
          "type": "uint256"
        }
      ],
      "name": "Deposited",
      "type": "event"
    },
    {
      "anonymous": false,
      "inputs": [
        {
          "indexed": true,
          "internalType": "address",
          "name": "aggregator",
          "type": "address"
        }
      ],
      "name": "SignatureAggregatorChanged",
      "type": "event"
    },
    {
      "anonymous": false,
      "inputs": [
        {
          "indexed": true,
          "internalType": "address",
          "name": "account",
          "type": "address"
        },
        {
          "indexed": false,
          "internalType": "uint256",
          "name": "totalStaked",
          "type": "uint256"
        },
        {
          "indexed": false,
          "internalType": "uint256",
          "name": "unstakeDelaySec",
          "type": "uint256"
        }
      ],
      "name": "StakeLocked",
      "type": "event"
    },
    {
      "anonymous": false,
      "inputs": [
        {
          "indexed": true,
          "internalType": "address",
          "name": "account",
          "type": "address"
        },
        {
          "indexed": false,
          "internalType": "uint256",
          "name": "withdrawTime",
          "type": "uint256"
        }
      ],
      "name": "StakeUnlocked",
      "type": "event"
    },
    {
      "anonymous": false,
      "inputs": [
        {
          "indexed": true,
          "internalType": "address",
          "name": "account",
          "type": "address"
        },
        {
          "indexed": false,
          "internalType": "address",
          "name": "withdrawAddress",
          "type": "address"
        },
        {
          "indexed": false,
          "internalType": "uint256",
          "name": "amount",
          "type": "uint256"
        }
      ],
      "name": "StakeWithdrawn",
      "type": "event"
    },
    {
      "anonymous": false,
      "inputs": [
        {
          "indexed": true,
          "internalType": "bytes32",
          "name": "userOpHash",
          "type": "bytes32"
        },
        {
          "indexed": true,
          "internalType": "address",
          "name": "sender",
          "type": "address"
        },
        {
          "indexed": true,
          "internalType": "address",
          "name": "paymaster",
          "type": "address"
        },
        {
          "indexed": false,
          "internalType": "uint256",
          "name": "nonce",
          "type": "uint256"
        },
        {
          "indexed": false,
          "internalType": "bool",
          "name": "success",
          "type": "bool"
        },
        {
          "indexed": false,
          "internalType": "uint256",
          "name": "actualGasCost",
          "type": "uint256"
        },
        {
          "indexed": false,
          "internalType": "uint256",
          "name": "actualGasUsed",
          "type": "uint256"
        }
      ],
      "name": "UserOperationEvent",
      "type": "event"
    },
    {
      "anonymous": false,
      "inputs": [
        {
          "indexed": true,
          "internalType": "bytes32",
          "name": "userOpHash",
          "type": "bytes32"
        },
        {
          "indexed": true,
          "internalType": "address",
          "name": "sender",
          "type": "address"
        },
        {
          "indexed": false,
          "internalType": "uint256",
          "name": "nonce",
          "type": "uint256"
        },
        {
          "indexed": false,
          "internalType": "bytes",
          "name": "revertReason",
          "type": "bytes"
        }
      ],
      "name": "UserOperationRevertReason",
      "type": "event"
    },
    {
      "anonymous": false,
      "inputs": [
        {
          "indexed": true,
          "internalType": "address",
          "name": "account",
          "type": "address"
        },
        {
          "indexed": false,
          "internalType": "address",
          "name": "withdrawAddress",
          "type": "address"
        },
        {
          "indexed": false,
          "internalType": "uint256",
          "name": "amount",
          "type": "uint256"
        }
      ],
      "name": "Withdrawn",
      "type": "event"
    },
    {
      "inputs": [],
      "name": "SIG_VALIDATION_FAILED",
      "outputs": [
        {
          "internalType": "uint256",
          "name": "",
          "type": "uint256"
        }
      ],
      "stateMutability": "view",
      "type": "function"
    },
    {
      "inputs": [
        {
          "internalType": "bytes",
          "name": "initCode",
          "type": "bytes"
        },
        {
          "internalType": "address",
          "name": "sender",
          "type": "address"
        },
        {
          "internalType": "bytes",
          "name": "paymasterAndData",
          "type": "bytes"
        }
      ],
      "name": "_validateSenderAndPaymaster",
      "outputs": [],
      "stateMutability": "view",
      "type": "function"
    },
    {
      "inputs": [
        {
          "internalType": "uint32",
          "name": "unstakeDelaySec",
          "type": "uint32"
        }
      ],
      "name": "addStake",
      "outputs": [],
      "stateMutability": "payable",
      "type": "function"
    },
    {
      "inputs": [
        {
          "internalType": "address",
          "name": "account",
          "type": "address"
        }
      ],
      "name": "balanceOf",
      "outputs": [
        {
          "internalType": "uint256",
          "name": "",
          "type": "uint256"
        }
      ],
      "stateMutability": "view",
      "type": "function"
    },
    {
      "inputs": [
        {
          "internalType": "address",
          "name": "account",
          "type": "address"
        }
      ],
      "name": "depositTo",
      "outputs": [],
      "stateMutability": "payable",
      "type": "function"
    },
    {
      "inputs": [
        {
          "internalType": "address",
          "name": "",
          "type": "address"
        }
      ],
      "name": "deposits",
      "outputs": [
        {
          "internalType": "uint112",
          "name": "deposit",
          "type": "uint112"
        },
        {
          "internalType": "bool",
          "name": "staked",
          "type": "bool"
        },
        {
          "internalType": "uint112",
          "name": "stake",
          "type": "uint112"
        },
        {
          "internalType": "uint32",
          "name": "unstakeDelaySec",
          "type": "uint32"
        },
        {
          "internalType": "uint48",
          "name": "withdrawTime",
          "type": "uint48"
        }
      ],
      "stateMutability": "view",
      "type": "function"
    },
    {
      "inputs": [
        {
          "internalType": "address",
          "name": "account",
          "type": "address"
        }
      ],
      "name": "getDepositInfo",
      "outputs": [
        {
          "components": [
            {
              "internalType": "uint112",
              "name": "deposit",
              "type": "uint112"
            },
            {
              "internalType": "bool",
              "name": "staked",
              "type": "bool"
            },
            {
              "internalType": "uint112",
              "name": "stake",
              "type": "uint112"
            },
            {
              "internalType": "uint32",
              "name": "unstakeDelaySec",
              "type": "uint32"
            },
            {
              "internalType": "uint48",
              "name": "withdrawTime",
              "type": "uint48"
            }
          ],
          "internalType": "struct IStakeManager.DepositInfo",
          "name": "info",
          "type": "tuple"
        }
      ],
      "stateMutability": "view",
      "type": "function"
    },
    {
      "inputs": [
        {
          "internalType": "address",
          "name": "sender",
          "type": "address"
        },
        {
          "internalType": "uint192",
          "name": "key",
          "type": "uint192"
        }
      ],
      "name": "getNonce",
      "outputs": [
        {
          "internalType": "uint256",
          "name": "nonce",
          "type": "uint256"
        }
      ],
      "stateMutability": "view",
      "type": "function"
    },
    {
      "inputs": [
        {
          "internalType": "bytes",
          "name": "initCode",
          "type": "bytes"
        }
      ],
      "name": "getSenderAddress",
      "outputs": [],
      "stateMutability": "nonpayable",
      "type": "function"
    },
    {
      "inputs": [
        {
          "components": [
            {
              "internalType": "address",
              "name": "sender",
              "type": "address"
            },
            {
              "internalType": "uint256",
              "name": "nonce",
              "type": "uint256"
            },
            {
              "internalType": "bytes",
              "name": "initCode",
              "type": "bytes"
            },
            {
              "internalType": "bytes",
              "name": "callData",
              "type": "bytes"
            },
            {
              "internalType": "uint256",
              "name": "callGasLimit",
              "type": "uint256"
            },
            {
              "internalType": "uint256",
              "name": "verificationGasLimit",
              "type": "uint256"
            },
            {
              "internalType": "uint256",
              "name": "preVerificationGas",
              "type": "uint256"
            },
            {
              "internalType": "uint256",
              "name": "maxFeePerGas",
              "type": "uint256"
            },
            {
              "internalType": "uint256",
              "name": "maxPriorityFeePerGas",
              "type": "uint256"
            },
            {
              "internalType": "bytes",
              "name": "paymasterAndData",
              "type": "bytes"
            },
            {
              "internalType": "bytes",
              "name": "signature",
              "type": "bytes"
            }
          ],
          "internalType": "struct UserOperation",
          "name": "userOp",
          "type": "tuple"
        }
      ],
      "name": "getUserOpHash",
      "outputs": [
        {
          "internalType": "bytes32",
          "name": "",
          "type": "bytes32"
        }
      ],
      "stateMutability": "view",
      "type": "function"
    },
    {
      "inputs": [
        {
          "components": [
            {
              "components": [
                {
                  "internalType": "address",
                  "name": "sender",
                  "type": "address"
                },
                {
                  "internalType": "uint256",
                  "name": "nonce",
                  "type": "uint256"
                },
                {
                  "internalType": "bytes",
                  "name": "initCode",
                  "type": "bytes"
                },
                {
                  "internalType": "bytes",
                  "name": "callData",
                  "type": "bytes"
                },
                {
                  "internalType": "uint256",
                  "name": "callGasLimit",
                  "type": "uint256"
                },
                {
                  "internalType": "uint256",
                  "name": "verificationGasLimit",
                  "type": "uint256"
                },
                {
                  "internalType": "uint256",
                  "name": "preVerificationGas",
                  "type": "uint256"
                },
                {
                  "internalType": "uint256",
                  "name": "maxFeePerGas",
                  "type": "uint256"
                },
                {
                  "internalType": "uint256",
                  "name": "maxPriorityFeePerGas",
                  "type": "uint256"
                },
                {
                  "internalType": "bytes",
                  "name": "paymasterAndData",
                  "type": "bytes"
                },
                {
                  "internalType": "bytes",
                  "name": "signature",
                  "type": "bytes"
                }
              ],
              "internalType": "struct UserOperation[]",
              "name": "userOps",
              "type": "tuple[]"
            },
            {
              "internalType": "contract IAggregator",
              "name": "aggregator",
              "type": "address"
            },
            {
              "internalType": "bytes",
              "name": "signature",
              "type": "bytes"
            }
          ],
          "internalType": "struct IEntryPoint.UserOpsPerAggregator[]",
          "name": "opsPerAggregator",
          "type": "tuple[]"
        },
        {
          "internalType": "address payable",
          "name": "beneficiary",
          "type": "address"
        }
      ],
      "name": "handleAggregatedOps",
      "outputs": [],
      "stateMutability": "nonpayable",
      "type": "function"
    },
    {
      "inputs": [
        {
          "components": [
            {
              "internalType": "address",
              "name": "sender",
              "type": "address"
            },
            {
              "internalType": "uint256",
              "name": "nonce",
              "type": "uint256"
            },
            {
              "internalType": "bytes",
              "name": "initCode",
              "type": "bytes"
            },
            {
              "internalType": "bytes",
              "name": "callData",
              "type": "bytes"
            },
            {
              "internalType": "uint256",
              "name": "callGasLimit",
              "type": "uint256"
            },
            {
              "internalType": "uint256",
              "name": "verificationGasLimit",
              "type": "uint256"
            },
            {
              "internalType": "uint256",
              "name": "preVerificationGas",
              "type": "uint256"
            },
            {
              "internalType": "uint256",
              "name": "maxFeePerGas",
              "type": "uint256"
            },
            {
              "internalType": "uint256",
              "name": "maxPriorityFeePerGas",
              "type": "uint256"
            },
            {
              "internalType": "bytes",
              "name": "paymasterAndData",
              "type": "bytes"
            },
            {
              "internalType": "bytes",
              "name": "signature",
              "type": "bytes"
            }
          ],
          "internalType": "struct UserOperation[]",
          "name": "ops",
          "type": "tuple[]"
        },
        {
          "internalType": "address payable",
          "name": "beneficiary",
          "type": "address"
        }
      ],
      "name": "handleOps",
      "outputs": [],
      "stateMutability": "nonpayable",
      "type": "function"
    },
    {
      "inputs": [
        {
          "internalType": "uint192",
          "name": "key",
          "type": "uint192"
        }
      ],
      "name": "incrementNonce",
      "outputs": [],
      "stateMutability": "nonpayable",
      "type": "function"
    },
    {
      "inputs": [
        {
          "internalType": "bytes",
          "name": "callData",
          "type": "bytes"
        },
        {
          "components": [
            {
              "components": [
                {
                  "internalType": "address",
                  "name": "sender",
                  "type": "address"
                },
                {
                  "internalType": "uint256",
                  "name": "nonce",
                  "type": "uint256"
                },
                {
                  "internalType": "uint256",
                  "name": "callGasLimit",
                  "type": "uint256"
                },
                {
                  "internalType": "uint256",
                  "name": "verificationGasLimit",
                  "type": "uint256"
                },
                {
                  "internalType": "uint256",
                  "name": "preVerificationGas",
                  "type": "uint256"
                },
                {
                  "internalType": "address",
                  "name": "paymaster",
                  "type": "address"
                },
                {
                  "internalType": "uint256",
                  "name": "maxFeePerGas",
                  "type": "uint256"
                },
                {
                  "internalType": "uint256",
                  "name": "maxPriorityFeePerGas",
                  "type": "uint256"
                }
              ],
              "internalType": "struct EntryPoint.MemoryUserOp",
              "name": "mUserOp",
              "type": "tuple"
            },
            {
              "internalType": "bytes32",
              "name": "userOpHash",
              "type": "bytes32"
            },
            {
              "internalType": "uint256",
              "name": "prefund",
              "type": "uint256"
            },
            {
              "internalType": "uint256",
              "name": "contextOffset",
              "type": "uint256"
            },
            {
              "internalType": "uint256",
              "name": "preOpGas",
              "type": "uint256"
            }
          ],
          "internalType": "struct EntryPoint.UserOpInfo",
          "name": "opInfo",
          "type": "tuple"
        },
        {
          "internalType": "bytes",
          "name": "context",
          "type": "bytes"
        }
      ],
      "name": "innerHandleOp",
      "outputs": [
        {
          "internalType": "uint256",
          "name": "actualGasCost",
          "type": "uint256"
        }
      ],
      "stateMutability": "nonpayable",
      "type": "function"
    },
    {
      "inputs": [
        {
          "internalType": "address",
          "name": "",
          "type": "address"
        },
        {
          "internalType": "uint192",
          "name": "",
          "type": "uint192"
        }
      ],
      "name": "nonceSequenceNumber",
      "outputs": [
        {
          "internalType": "uint256",
          "name": "",
          "type": "uint256"
        }
      ],
      "stateMutability": "view",
      "type": "function"
    },
    {
      "inputs": [
        {
          "components": [
            {
              "internalType": "address",
              "name": "sender",
              "type": "address"
            },
            {
              "internalType": "uint256",
              "name": "nonce",
              "type": "uint256"
            },
            {
              "internalType": "bytes",
              "name": "initCode",
              "type": "bytes"
            },
            {
              "internalType": "bytes",
              "name": "callData",
              "type": "bytes"
            },
            {
              "internalType": "uint256",
              "name": "callGasLimit",
              "type": "uint256"
            },
            {
              "internalType": "uint256",
              "name": "verificationGasLimit",
              "type": "uint256"
            },
            {
              "internalType": "uint256",
              "name": "preVerificationGas",
              "type": "uint256"
            },
            {
              "internalType": "uint256",
              "name": "maxFeePerGas",
              "type": "uint256"
            },
            {
              "internalType": "uint256",
              "name": "maxPriorityFeePerGas",
              "type": "uint256"
            },
            {
              "internalType": "bytes",
              "name": "paymasterAndData",
              "type": "bytes"
            },
            {
              "internalType": "bytes",
              "name": "signature",
              "type": "bytes"
            }
          ],
          "internalType": "struct UserOperation",
          "name": "op",
          "type": "tuple"
        },
        {
          "internalType": "address",
          "name": "target",
          "type": "address"
        },
        {
          "internalType": "bytes",
          "name": "targetCallData",
          "type": "bytes"
        }
      ],
      "name": "simulateHandleOp",
      "outputs": [],
      "stateMutability": "nonpayable",
      "type": "function"
    },
    {
      "inputs": [
        {
          "components": [
            {
              "internalType": "address",
              "name": "sender",
              "type": "address"
            },
            {
              "internalType": "uint256",
              "name": "nonce",
              "type": "uint256"
            },
            {
              "internalType": "bytes",
              "name": "initCode",
              "type": "bytes"
            },
            {
              "internalType": "bytes",
              "name": "callData",
              "type": "bytes"
            },
            {
              "internalType": "uint256",
              "name": "callGasLimit",
              "type": "uint256"
            },
            {
              "internalType": "uint256",
              "name": "verificationGasLimit",
              "type": "uint256"
            },
            {
              "internalType": "uint256",
              "name": "preVerificationGas",
              "type": "uint256"
            },
            {
              "internalType": "uint256",
              "name": "maxFeePerGas",
              "type": "uint256"
            },
            {
              "internalType": "uint256",
              "name": "maxPriorityFeePerGas",
              "type": "uint256"
            },
            {
              "internalType": "bytes",
              "name": "paymasterAndData",
              "type": "bytes"
            },
            {
              "internalType": "bytes",
              "name": "signature",
              "type": "bytes"
            }
          ],
          "internalType": "struct UserOperation",
          "name": "userOp",
          "type": "tuple"
        }
      ],
      "name": "simulateValidation",
      "outputs": [],
      "stateMutability": "nonpayable",
      "type": "function"
    },
    {
      "inputs": [],
      "name": "unlockStake",
      "outputs": [],
      "stateMutability": "nonpayable",
      "type": "function"
    },
    {
      "inputs": [
        {
          "internalType": "address payable",
          "name": "withdrawAddress",
          "type": "address"
        }
      ],
      "name": "withdrawStake",
      "outputs": [],
      "stateMutability": "nonpayable",
      "type": "function"
    },
    {
      "inputs": [
        {
          "internalType": "address payable",
          "name": "withdrawAddress",
          "type": "address"
        },
        {
          "internalType": "uint256",
          "name": "withdrawAmount",
          "type": "uint256"
        }
      ],
      "name": "withdrawTo",
      "outputs": [],
      "stateMutability": "nonpayable",
      "type": "function"
    },
    {
      "stateMutability": "payable",
      "type": "receive"
    }
  ],
  "bytecode": "0x60a080604052346200008957600160025561022c8181016001600160401b03811183821017620000735782916200503e833903906000f080156200006757608052604051614faf90816200008f823960805181818161111d015281816135fb01526138910152f35b6040513d6000823e3d90fd5b634e487b7160e01b600052604160045260246000fd5b600080fdfe60806040526004361015610023575b361561001957600080fd5b61002161498f565b005b60003560e01c80630396cb60146101b35780630bd28e3b146101aa5780631b2e01b8146101a15780631d732756146101985780631fad948c1461018f578063205c28781461018657806335567e1a1461017d5780634b1d7cf5146101745780635287ce121461016b57806370a08231146101625780638f41ec5a14610159578063957122ab146101505780639b249f6914610147578063a61935311461013e578063b760faf914610135578063bb9fe6bf1461012c578063c23a5cea14610123578063d6383f941461011a578063ee219423146101115763fc7e286d0361000e5761010c6117e6565b61000e565b5061010c61160f565b5061010c6114d2565b5061010c61137e565b5061010c611238565b5061010c611217565b5061010c6111f6565b5061010c6110a0565b5061010c610f39565b5061010c610f1c565b5061010c610ec2565b5061010c610d9d565b5061010c610a75565b5061010c6109db565b5061010c61088e565b5061010c6107b4565b5061010c61061d565b5061010c610404565b5061010c61034d565b5060206003193601126103215760043563ffffffff81168082036103215761031c7fa5ae833d0bb1dcd632d98a8b70973e8516812898e19bf27b70071ebc8dc52c0191610246610216336001600160a01b03166000526000602052604060002090565b91610222811515614ac1565b61023f610236600185015463ffffffff1690565b63ffffffff1690565b1115614b0c565b54926102fe6dffffffffffffffffffffffffffff946102c961026d34888460781c16611d01565b96610279881515614b57565b61028581891115614ba2565b6102a981610291610540565b941684906dffffffffffffffffffffffffffff169052565b6001602084015287166dffffffffffffffffffffffffffff166040830152565b63ffffffff83166060820152600060808201526102f9336001600160a01b03166000526000602052604060002090565b614bed565b6040805194855263ffffffff90911660208501523393918291820190565b0390a2005b600080fd5b6024359077ffffffffffffffffffffffffffffffffffffffffffffffff8216820361032157565b50346103215760206003193601126103215760043577ffffffffffffffffffffffffffffffffffffffffffffffff81168103610321576103be9033600052600160205260406000209077ffffffffffffffffffffffffffffffffffffffffffffffff16600052602052604060002090565b6103c88154611f8b565b9055005b6001600160a01b0381160361032157565b602435906103ea826103cc565b565b60c435906103ea826103cc565b35906103ea826103cc565b503461032157604060031936011261032157602061046e600435610427816103cc565b6001600160a01b03610437610326565b91166000526001835260406000209077ffffffffffffffffffffffffffffffffffffffffffffffff16600052602052604060002090565b54604051908152f35b507f4e487b7100000000000000000000000000000000000000000000000000000000600052604160045260246000fd5b60a0810190811067ffffffffffffffff8211176104c357604052565b6104cb610477565b604052565b610100810190811067ffffffffffffffff8211176104c357604052565b67ffffffffffffffff81116104c357604052565b6060810190811067ffffffffffffffff8211176104c357604052565b90601f601f19910116810190811067ffffffffffffffff8211176104c357604052565b604051906103ea826104a7565b6040519060c0820182811067ffffffffffffffff8211176104c357604052565b604051906040820182811067ffffffffffffffff8211176104c357604052565b601f19601f60209267ffffffffffffffff81116105ab575b01160190565b6105b3610477565b6105a5565b9291926105c48261058d565b916105d2604051938461051d565b829481845281830111610321578281602093846000960137010152565b9181601f840112156103215782359167ffffffffffffffff8311610321576020838186019501011161032157565b5034610321576101c06003193601126103215767ffffffffffffffff6004358181116103215736602382011215610321576106629036906024816004013591016105b8565b907fffffffffffffffffffffffffffffffffffffffffffffffffffffffffffffffdc36016101808112610321576101006040519161069f836104a7565b12610321576040516106b0816104d0565b6106b86103dd565b815260443560208201526064356040820152608435606082015260a43560808201526106e26103ec565b60a082015260e43560c08201526101043560e082015281526101243560208201526101443560408201526101643560608201526101843560808201526101a435918211610321576107569261073e6107469336906004016105ef565b92909161236a565b6040519081529081906020820190565b0390f35b9060406003198301126103215760043567ffffffffffffffff9283821161032157806023830112156103215781600401359384116103215760248460051b830101116103215760240191906024356107b1816103cc565b90565b5034610321576107c33661075a565b6107ce929192611a0a565b6107d78361191b565b60005b84811061085757506000927fbb47ee3e183a558b1a2ff0874b079f3fc5478b7454eacf2bfc5af2ff5878f9728480a183915b8583106108275761081d8585611a8d565b6100216001600255565b90919360019061084d61083b8789876119bc565b610845888661199a565b519088611e52565b019401919061080c565b8061088561087e61086c60019486989661199a565b51610878848a886119bc565b84612d53565b9083612939565b019290926107da565b5034610321576040600319360112610321576004356108ac816103cc565b6024359060009133835282602052604083206dffffffffffffffffffffffffffff815416928383116109975784836001600160a01b03829593610947849661090e6108fb87986109949c611cec565b6dffffffffffffffffffffffffffff1690565b6dffffffffffffffffffffffffffff167fffffffffffffffffffffffffffffffffffff0000000000000000000000000000825416179055565b604080516001600160a01b03831681526020810185905233917fd1c19fbcd4551a5edfb66d43d2e337c04837afda3482b42bdf569a8fccdae5fb91a2165af161098e611a5d565b50614ee2565b80f35b606460405162461bcd60e51b815260206004820152601960248201527f576974686472617720616d6f756e7420746f6f206c61726765000000000000006044820152fd5b50346103215760406003193601126103215760206004356109fb816103cc565b6001600160a01b03610a0b610326565b911660005260018252610a468160406000209077ffffffffffffffffffffffffffffffffffffffffffffffff16600052602052604060002090565b547fffffffffffffffffffffffffffffffffffffffffffffffff00000000000000006040519260401b16178152f35b503461032157610a843661075a565b610a8c611a0a565b6000805b838210610c5957610aa1915061191b565b7fbb47ee3e183a558b1a2ff0874b079f3fc5478b7454eacf2bfc5af2ff5878f972600080a16000805b848110610bcc57505060008093815b818110610b105761081d868660007f575ff3acadd5ab348fe1855e217e0f3678f8d767d7494c9f9fefbee2e17cca4d8180a2611a8d565b610b67610b1e82848a611fc5565b610b3c610b30610b3060208401612067565b6001600160a01b031690565b7f575ff3acadd5ab348fe1855e217e0f3678f8d767d7494c9f9fefbee2e17cca4d600080a280612013565b906000915b808310610b8457505050610b7f90611f8b565b610ad9565b90919497610bbf610bb9610bc592610bb38c8b610bac82610ba68e8b8d6119bc565b9261199a565b5191611e52565b90611d01565b99611f8b565b95611f8b565b9190610b6c565b610bd7818688611fc5565b6020610bef610be68380612013565b92909301612067565b916001600160a01b0360009316905b828410610c175750505050610c1290611f8b565b610aca565b90919294610bbf81610c4c85610c45610c33610c51968d61199a565b51610c3f8c8b8a6119bc565b85612d53565b908b612ae0565b611f8b565b929190610bfe565b610c64828587611fc5565b90610c6f8280612013565b92610c7f610b3060208301612067565b916001600160a01b038316610c976001821415612071565b610cb8575b505050610cb291610cac91611d01565b91611f8b565b90610a90565b909592610cd16040999693999895989788810190611b3d565b92908a3b156103215789938b918a5193849283927fe3563a4f00000000000000000000000000000000000000000000000000000000845260049e8f850193610d18946121e4565b03815a93600094fa9081610d84575b50610d6e5786517f86a9f7500000000000000000000000000000000000000000000000000000000081526001600160a01b038a16818a0190815281906020010390fd5b0390fd5b9497509295509093509181610cac610cb2610c9c565b80610d91610d97926104ed565b80610f11565b38610d27565b5034610321576020600319360112610321576107566001600160a01b03600435610dc6816103cc565b608060409283928351610dd8816104a7565b600093818580935282602082015282878201528260608201520152168152806020522090610e6765ffffffffffff6001835194610e14866104a7565b80546dffffffffffffffffffffffffffff8082168852607082901c60ff161515602089015260789190911c1685870152015463ffffffff8116606086015260201c16608084019065ffffffffffff169052565b5191829182919091608065ffffffffffff8160a08401956dffffffffffffffffffffffffffff808251168652602082015115156020870152604082015116604086015263ffffffff6060820151166060860152015116910152565b5034610321576020600319360112610321576001600160a01b03600435610ee8816103cc565b16600052600060205260206dffffffffffffffffffffffffffff60406000205416604051908152f35b600091031261032157565b503461032157600060031936011261032157602060405160018152f35b503461032157606060031936011261032157600467ffffffffffffffff813581811161032157610f6c90369084016105ef565b905060243591610f7b836103cc565b60443590811161032157610f9290369085016105ef565b929091159081611096575b50611049576014821015610fd3575b610d6a8360405191829162461bcd60e51b8352820160409060208152600060208201520190565b610fe3610fef92610fe9926125e2565b906125f0565b60601c90565b3b15610ffc573880610fac565b610d6a9060405191829162461bcd60e51b8352820160609060208152601b60208201527f41413330207061796d6173746572206e6f74206465706c6f796564000000000060408201520190565b610d6a8360405191829162461bcd60e51b8352820160609060208152601960208201527f41413230206163636f756e74206e6f74206465706c6f7965640000000000000060408201520190565b90503b1538610f9d565b50346103215760206003193601126103215760043567ffffffffffffffff8111610321576110d460249136906004016105ef565b9061110a6040519283927f570e1a3600000000000000000000000000000000000000000000000000000000845260048401612779565b036020826001600160a01b0392816000857f0000000000000000000000000000000000000000000000000000000000000000165af19182156111af575b60009261117f575b50604051917f6ca7b806000000000000000000000000000000000000000000000000000000008352166004820152fd5b6111a191925060203d81116111a8575b611199818361051d565b810190612764565b903861114f565b503d61118f565b6111b7611caf565b611147565b90816101609103126103215790565b6020600319820112610321576004359067ffffffffffffffff8211610321576107b1916004016111bc565b503461032157602061120f61120a366111cb565b61249e565b604051908152f35b50602060031936011261032157610021600435611233816103cc565b614a62565b50346103215760008060031936011261137b573381528060205260408120600181019063ffffffff825416908115611337576112d46112996112fc9361128b611286855460ff9060701c1690565b614d51565b65ffffffffffff4216614d9c565b84547fffffffffffffffffffffffffffffffffffffffffffff000000000000ffffffff16602082901b69ffffffffffff000000001617909455565b7fffffffffffffffffffffffffffffffffff00ffffffffffffffffffffffffffff8154169055565b60405165ffffffffffff91909116815233907ffa9b3c14cc825c412c9ed81b3ba365a5b459439403f18829e572ed53a4180f0a90602090a280f35b606460405162461bcd60e51b815260206004820152600a60248201527f6e6f74207374616b6564000000000000000000000000000000000000000000006044820152fd5b80fd5b50346103215760206003193601126103215760043561139c816103cc565b6109946001600160a01b036113c4336001600160a01b03166000526000602052604060002090565b9261147c6113e76108fb86546dffffffffffffffffffffffffffff9060781c1690565b946113f3861515614db6565b6114546001820161142c65ffffffffffff611418835465ffffffffffff9060201c1690565b16611424811515614e01565b421015614e4c565b80547fffffffffffffffffffffffffffffffffffffffffffff00000000000000000000169055565b7fffffff0000000000000000000000000000ffffffffffffffffffffffffffffff8154169055565b604080516001600160a01b03831681526020810186905233917fb7c918e0e249f999e965cafeb6c664271b3f4317d296461500e71da39f0cbda391a2600080809581948294165af16114cc611a5d565b50614e97565b50346103215760606003193601126103215767ffffffffffffffff600435818111610321576115059036906004016111bc565b60243591611512836103cc565b6044359081116103215761152d610d6a9136906004016105ef565b611535611898565b61153e8561284d565b61155161154b8287612ba4565b9061483f565b9461156182600092438452611d0e565b9643825281936060956001600160a01b0383166115db575b5050505060800151936115a8604061159a602084015165ffffffffffff1690565b92015165ffffffffffff1690565b906040519687967f8b7ac980000000000000000000000000000000000000000000000000000000008852600488016122b4565b839550839496506115f560409492939451809481936122a6565b03925af1906080611604611a5d565b929190388080611579565b50346103215761161e366111cb565b611626611898565b61162f8261284d565b6116398183612ba4565b825160a00151919391611659906001600160a01b0316614947565b614947565b9061167061165485516001600160a01b0390511690565b946116796125aa565b506116a861168c60409586810190611b3d565b906000601483106117de5750610fe361165492610fe9926125e2565b916116b29161483f565b80516001600160a01b0316906001600160a01b038216600181149160808801519787810151918860208201516116ed9065ffffffffffff1690565b91015165ffffffffffff1691606001519261170661054d565b9a8b5260208b0152841515898b015265ffffffffffff1660608a015265ffffffffffff16608089015260a0880152151590816117d5575b506117775750610d6a92519485947fe0cff05f0000000000000000000000000000000000000000000000000000000086526004860161270a565b9190610d6a9361178684614947565b6117a061179161056d565b6001600160a01b039096168652565b6020850152519586957ffaecb4e400000000000000000000000000000000000000000000000000000000875260048701612685565b9050153861173d565b915050614947565b5034610321576020600319360112610321576001600160a01b0360043561180c816103cc565b16600052600060205260a0604060002065ffffffffffff60018254920154604051926dffffffffffffffffffffffffffff90818116855260ff8160701c161515602086015260781c16604084015263ffffffff8116606084015260201c166080820152f35b60209067ffffffffffffffff811161188b575b60051b0190565b611893610477565b611884565b604051906118a5826104a7565b604051608083610100830167ffffffffffffffff81118482101761190e575b60405260009283815283602082015283604082015283606082015283838201528360a08201528360c08201528360e082015281528260208201528260408201528260608201520152565b611916610477565b6118c4565b9061192582611871565b611932604051918261051d565b828152601f196119428294611871565b019060005b82811061195357505050565b60209061195e611898565b82828501015201611947565b507f4e487b7100000000000000000000000000000000000000000000000000000000600052603260045260246000fd5b60209181518110156119af575b60051b010190565b6119b761196a565b6119a7565b91908110156119fd575b60051b810135907ffffffffffffffffffffffffffffffffffffffffffffffffffffffffffffffea181360301821215610321570190565b611a0561196a565b6119c6565b6002805414611a195760028055565b606460405162461bcd60e51b815260206004820152601f60248201527f5265656e7472616e637947756172643a207265656e7472616e742063616c6c006044820152fd5b3d15611a88573d90611a6e8261058d565b91611a7c604051938461051d565b82523d6000602084013e565b606090565b6001600160a01b03168015611af957600080809381935af1611aad611a5d565b5015611ab557565b606460405162461bcd60e51b815260206004820152601f60248201527f41413931206661696c65642073656e6420746f2062656e6566696369617279006044820152fd5b606460405162461bcd60e51b815260206004820152601860248201527f4141393020696e76616c69642062656e656669636961727900000000000000006044820152fd5b9035907fffffffffffffffffffffffffffffffffffffffffffffffffffffffffffffffe181360301821215610321570180359067ffffffffffffffff82116103215760200191813603831361032157565b90816020910312610321575190565b601f8260209493601f19938186528686013760008582860101520116010190565b60005b838110611bd15750506000910152565b8181015183820152602001611bc1565b90601f19601f602093611bff81518092818752878088019101611bbe565b0116010190565b90611c206080916107b196946101c0808652850191611b9d565b9360e081516001600160a01b0380825116602087015260208201516040870152604082015160608701526060820151858701528482015160a087015260a08201511660c086015260c081015182860152015161010084015260208101516101208401526040810151610140840152606081015161016084015201516101808201526101a0818403910152611be1565b506040513d6000823e3d90fd5b507f4e487b7100000000000000000000000000000000000000000000000000000000600052601160045260246000fd5b91908203918211611cf957565b6103ea611cbc565b91908201809211611cf957565b905a91816020611d276060830151936060810190611b3d565b90611d608560405195869485947f1d73275600000000000000000000000000000000000000000000000000000000865260048601611c06565b03816000305af160009181611e22575b50611e1b575060206000803e7fdeaddead0000000000000000000000000000000000000000000000000000000060005114611dc757611dc1611db66107b1945a90611cec565b608084015190611d01565b916140a7565b604051631101335b60e11b815280610d6a600482016080906000815260406020820152600f60408201527f41413935206f7574206f6620676173000000000000000000000000000000000060608201520190565b9250505090565b611e4491925060203d8111611e4b575b611e3c818361051d565b810190611b8e565b9038611d70565b503d611e32565b909291925a93806020611e6e6060830151946060810190611b3d565b90611ea78660405195869485947f1d73275600000000000000000000000000000000000000000000000000000000865260048601611c06565b03816000305af160009181611f6b575b50611f64575060206000803e7fdeaddead0000000000000000000000000000000000000000000000000000000060005114611f0f57611f09611efe6107b195965a90611cec565b608083015190611d01565b92614317565b610d6a83604051918291631101335b60e11b835260048301608091815260406020820152600f60408201527f41413935206f7574206f6620676173000000000000000000000000000000000060608201520190565b9450505050565b611f8491925060203d8111611e4b57611e3c818361051d565b9038611eb7565b6001907fffffffffffffffffffffffffffffffffffffffffffffffffffffffffffffffff8114611fb9570190565b611fc1611cbc565b0190565b9190811015612006575b60051b810135907fffffffffffffffffffffffffffffffffffffffffffffffffffffffffffffffa181360301821215610321570190565b61200e61196a565b611fcf565b9035907fffffffffffffffffffffffffffffffffffffffffffffffffffffffffffffffe181360301821215610321570180359067ffffffffffffffff821161032157602001918160051b3603831361032157565b356107b1816103cc565b1561207857565b606460405162461bcd60e51b815260206004820152601760248201527f4141393620696e76616c69642061676772656761746f720000000000000000006044820152fd5b90357fffffffffffffffffffffffffffffffffffffffffffffffffffffffffffffffe18236030181121561032157016020813591019167ffffffffffffffff821161032157813603831361032157565b6107b19161212a8161211d846103f9565b6001600160a01b03169052565b602082013560208201526121c561217661215b61214a60408601866120bc565b610160806040880152860191611b9d565b61216860608601866120bc565b908583036060870152611b9d565b6080840135608084015260a084013560a084015260c084013560c084015260e084013560e084015261010080850135908401526101206121b8818601866120bc565b9185840390860152611b9d565b916121d661014091828101906120bc565b929091818503910152611b9d565b949391929083604087016040885252606086019360608160051b8801019482600090815b848310612227575050505050508460206107b195968503910152611b9d565b9091929394977fffffffffffffffffffffffffffffffffffffffffffffffffffffffffffffffa08b820301855288357ffffffffffffffffffffffffffffffffffffffffffffffffffffffffffffffea1843603018112156122a25760019184612290920161210c565b98602090810196950193019190612208565b8280fd5b908092918237016000815290565b9290936107b196959260c0958552602085015265ffffffffffff8092166040850152166060830152151560808201528160a08201520190611be1565b156122f757565b606460405162461bcd60e51b815260206004820152601760248201527f4141393220696e7465726e616c2063616c6c206f6e6c790000000000000000006044820152fd5b9060406107b192600081528160208201520190611be1565b6040906107b1939281528160208201520190611be1565b909291925a9361237b3033146122f0565b8151946040860151955a611388606083015189010111612474576107b19660009580516123c2575b505050906123bc915a90036080840151019436916105b8565b91614526565b6123e4916123e0916123db85516001600160a01b031690565b614f38565b1590565b6123f0575b80806123a3565b6123bc929194506123ff614f4a565b908151612413575b505060019390916123e9565b7f1c4fada7374c0a9ee8841fc38afe82932dc0f8e69012e927f061a8bae611a2016001600160a01b0360208701519261246a602061245883516001600160a01b031690565b92015195604051938493169683612353565b0390a33880612407565b7fdeaddead0000000000000000000000000000000000000000000000000000000060005260206000fd5b6124b46124ae6040830183611b3d565b90614f2d565b906124c56124ae6060830183611b3d565b906125616124da6124ae610120840184611b3d565b60405194859360208501956101008201359260e08301359260c08101359260a0820135926080830135926001600160a01b0360208201359135168c9693909a999895926101209895926001600160a01b036101408a019d168952602089015260408801526060870152608086015260a085015260c084015260e08301526101008201520152565b0391612575601f199384810183528261051d565b519020604080516020810192835230918101919091524660608201526080928301815290916125a4908261051d565b51902090565b604051906040820182811067ffffffffffffffff8211176125d5575b60405260006020838281520152565b6125dd610477565b6125c6565b906014116103215790601490565b7fffffffffffffffffffffffffffffffffffffffff000000000000000000000000903581811693926014811061262557505050565b60140360031b82901b16169150565b9060c060a06107b193805184526020810151602085015260408101511515604085015265ffffffffffff80606083015116606086015260808201511660808501520151918160a08201520190611be1565b92946126e66103ea956126d46101009599986126c26126ae602097610140808c528b0190612634565b9b878a019060208091805184520151910152565b80516060890152602001516080880152565b805160a08701526020015160c0860152565b6001600160a01b0381511660e0850152015191019060208091805184520151910152565b6127536103ea9461274161272c60a0959998969960e0865260e0860190612634565b98602085019060208091805184520151910152565b80516060840152602001516080830152565b019060208091805184520151910152565b9081602091031261032157516107b1816103cc565b9160206107b1938181520191611b9d565b906127ac6001600160a01b03916107b197959694606085526060850191611b9d565b941660208201526040818503910152611b9d565b60009060033d116127cd57565b905060046000803e60005160e01c90565b600060443d106107b15760405160031991823d016004833e815167ffffffffffffffff918282113d60248401111761283c57818401948551938411612844573d8501016020848701011161283c57506107b19291016020019061051d565b949350505050565b50949350505050565b61285a6040820182611b3d565b61287261286684612067565b93610120810190611b3d565b9290303b15610321576000936128b69160405196879586957f957122ab0000000000000000000000000000000000000000000000000000000087526004870161278a565b0381305afa9081612926575b506103ea5760016128d16127c0565b6308c379a0146128ea575b6128e257565b6103ea611caf565b6128f26127de565b806128fe575b506128dc565b805160009250156128f857610d6a90604051918291631101335b60e11b83526004830161233b565b80610d91612933926104ed565b386128c2565b919061294490612b0a565b6001600160a01b0392918316612a8b57612a365761296190612b0a565b91166129e15761296e5750565b60408051631101335b60e11b815260048101929092526024820152602160448201527f41413332207061796d61737465722065787069726564206f72206e6f7420647560648201527f6500000000000000000000000000000000000000000000000000000000000000608482015260a490fd5b610d6a82604051918291631101335b60e11b835260048301608091815260406020820152601460408201527f41413334207369676e6174757265206572726f7200000000000000000000000060608201520190565b610d6a83604051918291631101335b60e11b835260048301608091815260406020820152601760408201527f414132322065787069726564206f72206e6f742064756500000000000000000060608201520190565b610d6a84604051918291631101335b60e11b835260048301608091815260406020820152601460408201527f41413234207369676e6174757265206572726f7200000000000000000000000060608201520190565b929190612aec90612b0a565b90926001600160a01b0380809516911603612a8b57612a3657612961905b8015612b5057612b19906147f1565b6001600160a01b0365ffffffffffff806040840151164211908115612b40575b5091511691565b9050602083015116421038612b39565b50600090600090565b15612b6057565b606460405162461bcd60e51b815260206004820152601860248201527f41413934206761732076616c756573206f766572666c6f7700000000000000006044820152fd5b916000915a93815190612bb78282612f4b565b612bc08161249e565b6020840152612bfe6effffffffffffffffffffffffffffff60808401516060850151176040850151176101008401359060e085013517171115612b59565b612c0782612ff3565b612c128185846130a7565b9790612c366123e0612c2b87516001600160a01b031690565b6020880151906148e4565b612cff57612c4343600052565b6001600160a01b03612c6160a060609701516001600160a01b031690565b16612ce5575b505a810360a084013510612c915760809360c092604087015260608601525a900391013501910152565b604051631101335b60e11b815280610d6a600482016080906000815260406020820152601e60408201527f41413430206f76657220766572696669636174696f6e4761734c696d6974000060608201520190565b90935081612cf69297508584613bac565b95909238612c67565b604051631101335b60e11b815280610d6a600482016080906000815260406020820152601a60408201527f4141323520696e76616c6964206163636f756e74206e6f6e636500000000000060608201520190565b9290916000925a8251612d668184612f4b565b612d6f8361249e565b6020850152612dad6effffffffffffffffffffffffffffff60808301516060840151176040840151176101008601359060e087013517171115612b59565b612db681612ff3565b612dc28186868b613387565b9890612de66123e0612ddb86516001600160a01b031690565b6020870151906148e4565b612eab57612df343600052565b6001600160a01b03612e1160a060609601516001600160a01b031690565b16612e90575b505a840360a086013510612e435750604085015260608401526080919060c0905a900391013501910152565b60408051631101335b60e11b815260048101929092526024820152601e60448201527f41413430206f76657220766572696669636174696f6e4761734c696d697400006064820152608490fd5b90925081612ea2929850868685613de6565b96909138612e17565b610d6a82604051918291631101335b60e11b835260048301608091815260406020820152601a60408201527f4141323520696e76616c6964206163636f756e74206e6f6e636500000000000060608201520190565b15612f0757565b606460405162461bcd60e51b815260206004820152601d60248201527f4141393320696e76616c6964207061796d6173746572416e64446174610000006044820152fd5b612fb090612f68612f5b82612067565b6001600160a01b03168452565b602081013560208401526080810135604084015260a0810135606084015260c0810135608084015260e081013560c084015261010081013560e0840152610120810190611b3d565b908115612fe857612fda610fe9610fe38460a094612fd560146103ea99981015612f00565b6125e2565b6001600160a01b0316910152565b505060a06000910152565b60a08101516001600160a01b0316156130285760c060035b60ff60408401519116606084015102016080830151019101510290565b60c0600161300b565b6130496040929594939560608352606083019061210c565b9460208201520152565b906103ea602f60405180947f414132332072657665727465643a20000000000000000000000000000000000060208301526130978151809260208686019101611bbe565b810103600f81018552018361051d565b916000926000925a9361314e60208351936130c985516001600160a01b031690565b956130e16130da6040830183611b3d565b908461358d565b60a08601516001600160a01b0316906130f943600052565b8580936001600160a01b0380941615988961332c575b60600151908601516040517f3a871cdd000000000000000000000000000000000000000000000000000000008152978896879586939060048501613031565b03938a1690f182918161330c575b50613303575060019061316d6127c0565b6308c379a0146132c8575b50613274575b61318b575b50505a900391565b6131a8906001600160a01b03166000526000602052604060002090565b6131c36108fb82546dffffffffffffffffffffffffffff1690565b80831161322057613219926dffffffffffffffffffffffffffff9103166dffffffffffffffffffffffffffff167fffffffffffffffffffffffffffffffffffff0000000000000000000000000000825416179055565b3880613183565b604051631101335b60e11b815280610d6a600482016080906000815260406020820152601760408201527f41413231206469646e2774207061792070726566756e6400000000000000000060608201520190565b604051631101335b60e11b815280610d6a600482016080906000815260406020820152601660408201527f4141323320726576657274656420286f72204f4f47290000000000000000000060608201520190565b6132d06127de565b90816132dc5750613178565b610d6a916132ea9150613053565b604051918291631101335b60e11b83526004830161233b565b955061317e9050565b61332591925060203d8111611e4b57611e3c818361051d565b903861315c565b94506133656108fb6133518c6001600160a01b03166000526000602052604060002090565b546dffffffffffffffffffffffffffff1690565b8b81111561337c5750856060835b9691505061310f565b606087918d03613373565b90926000936000935a946133c360208351936133aa85516001600160a01b031690565b956130e16133bb6040830183611b3d565b90848c613820565b03938a1690f182918161356d575b5061356457506001906133e26127c0565b6308c379a014613527575b506134d2575b613401575b5050505a900391565b61341e906001600160a01b03166000526000602052604060002090565b9161343a6108fb84546dffffffffffffffffffffffffffff1690565b90818311613485575082547fffffffffffffffffffffffffffffffffffff0000000000000000000000000000169190036dffffffffffffffffffffffffffff161790553880806133f8565b60408051631101335b60e11b815260048101929092526024820152601760448201527f41413231206469646e2774207061792070726566756e640000000000000000006064820152608490fd5b610d6a84604051918291631101335b60e11b835260048301608091815260406020820152601660408201527f4141323320726576657274656420286f72204f4f47290000000000000000000060608201520190565b61352f6127de565b908161353b57506133ed565b86916135479150613053565b90610d6a604051928392631101335b60e11b845260048401612353565b96506133f39050565b61358691925060203d8111611e4b57611e3c818361051d565b90386133d1565b90918061359957505050565b8151516001600160a01b031692833b6137cc57606083510151604051907f570e1a36000000000000000000000000000000000000000000000000000000008252602082806135eb878760048401612779565b038160006001600160a01b0395867f00000000000000000000000000000000000000000000000000000000000000001690f19182156137bf575b60009261379f575b5080821695861561374b57168095036136f7573b156136a357610fe9610fe37fd51a9c61267aa6196961883ecf5ff2da6619c37dac0fa92122513fb32c032d2d93613677936125e2565b602083810151935160a00151604080516001600160a01b039485168152939091169183019190915290a3565b604051631101335b60e11b815280610d6a600482016080906000815260406020820152602060408201527f4141313520696e6974436f6465206d757374206372656174652073656e64657260608201520190565b604051631101335b60e11b815280610d6a600482016080906000815260406020820152602060408201527f4141313420696e6974436f6465206d7573742072657475726e2073656e64657260608201520190565b604051631101335b60e11b815280610d6a600482016080906000815260406020820152601b60408201527f4141313320696e6974436f6465206661696c6564206f72204f4f47000000000060608201520190565b6137b891925060203d81116111a857611199818361051d565b903861362d565b6137c7611caf565b613625565b604051631101335b60e11b815280610d6a600482016080906000815260406020820152601f60408201527f414131302073656e64657220616c726561647920636f6e73747275637465640060608201520190565b9290918161382f575b50505050565b8251516001600160a01b031693843b613a6557606084510151604051907f570e1a3600000000000000000000000000000000000000000000000000000000825260208280613881888860048401612779565b038160006001600160a01b0395867f00000000000000000000000000000000000000000000000000000000000000001690f1918215613a58575b600092613a38575b508082169687156139e3571680960361398e573b156139415750610fe9610fe37fd51a9c61267aa6196961883ecf5ff2da6619c37dac0fa92122513fb32c032d2d9361390e936125e2565b602083810151935160a00151604080516001600160a01b039485168152939091169183019190915290a338808080613829565b60408051631101335b60e11b815260048101929092526024820152602060448201527f4141313520696e6974436f6465206d757374206372656174652073656e6465726064820152608490fd5b610d6a82604051918291631101335b60e11b835260048301608091815260406020820152602060408201527f4141313420696e6974436f6465206d7573742072657475726e2073656e64657260608201520190565b610d6a84604051918291631101335b60e11b835260048301608091815260406020820152601b60408201527f4141313320696e6974436f6465206661696c6564206f72204f4f47000000000060608201520190565b613a5191925060203d81116111a857611199818361051d565b90386138c3565b613a60611caf565b6138bb565b60408051631101335b60e11b815260048101929092526024820152601f60448201527f414131302073656e64657220616c726561647920636f6e7374727563746564006064820152608490fd5b15613ab957565b606460405162461bcd60e51b815260206004820152601f60248201527f4141343120746f6f206c6974746c6520766572696669636174696f6e476173006044820152fd5b919060408382031261032157825167ffffffffffffffff81116103215783019080601f8301121561032157815191613b348361058d565b91613b42604051938461051d565b8383526020848301011161032157602092613b6291848085019101611bbe565b92015190565b906103ea602f60405180947f414133332072657665727465643a20000000000000000000000000000000000060208301526130978151809260208686019101611bbe565b939192606094600094600093805192613bde60a08a86015195613bd0888811613ab2565b01516001600160a01b031690565b91613bfc836001600160a01b03166000526000602052604060002090565b94613c186108fb87546dffffffffffffffffffffffffffff1690565b96858810613d92576001600160a01b0360208a9894613c818a966dffffffffffffffffffffffffffff8b613cba9e03166dffffffffffffffffffffffffffff167fffffffffffffffffffffffffffffffffffff0000000000000000000000000000825416179055565b015194604051998a98899788937ff465c77e00000000000000000000000000000000000000000000000000000000855260048501613031565b0395169103f1908183918493613d6c575b50613d65575050600190613cdd6127c0565b6308c379a014613d43575b50613cef57565b604051631101335b60e11b815280610d6a600482016080906000815260406020820152601660408201527f4141333320726576657274656420286f72204f4f47290000000000000000000060608201520190565b613d4b6127de565b9081613d575750613ce8565b610d6a916132ea9150613b68565b9450925050565b909250613d8b91503d8085833e613d83818361051d565b810190613afd565b9138613ccb565b604051631101335b60e11b815280610d6a600482016080906000815260406020820152601e60408201527f41413331207061796d6173746572206465706f73697420746f6f206c6f77000060608201520190565b919492939093606095600095600093825190613e0d60a08b84015193613bd0848611613ab2565b93613e2b856001600160a01b03166000526000602052604060002090565b613e466108fb82546dffffffffffffffffffffffffffff1690565b878110613f7b57926001600160a01b0360208a98969394613c818a966dffffffffffffffffffffffffffff8d613eb39e9c9a03166dffffffffffffffffffffffffffff167fffffffffffffffffffffffffffffffffffff0000000000000000000000000000825416179055565b0395169103f1908183918493613f5d575b50613f55575050600190613ed66127c0565b6308c379a014613f36575b50613ee95750565b60408051631101335b60e11b815260048101929092526024820152601660448201527f4141333320726576657274656420286f72204f4f4729000000000000000000006064820152608490fd5b613f3e6127de565b9081613f4a5750613ee1565b613547925050613b68565b955093505050565b909250613f7491503d8085833e613d83818361051d565b9138613ec4565b610d6a8a604051918291631101335b60e11b835260048301608091815260406020820152601e60408201527f41413331207061796d6173746572206465706f73697420746f6f206c6f77000060608201520190565b60031115613fda57565b7f4e487b7100000000000000000000000000000000000000000000000000000000600052602160045260246000fd5b92919061402760409160028652606060208701526060860190611be1565b930152565b939291906003811015613fda57604091614027918652606060208701526060860190611be1565b906103ea603660405180947f4141353020706f73744f702072657665727465643a200000000000000000000060208301526140978151809260208686019101611bbe565b810103601681018552018361051d565b929190925a936000918051916140bc836147aa565b9260a08101956140d387516001600160a01b031690565b6001600160a01b03939084811690816141f5575050506140fa82516001600160a01b031690565b985b5a900301938402976040840190898251106141a1577f49628fd1471006c1482da88028e9ce4dbb080b815c9b0344d39e5a8e6ec1419f946141466020928c61419c95510390614998565b01519489602061416e61416086516001600160a01b031690565b9a516001600160a01b031690565b9401519785604051968796169a16988590949392606092608083019683521515602083015260408201520152565b0390a4565b604051631101335b60e11b815280610d6a600482016080906000815260406020820152602060408201527f414135312070726566756e642062656c6f772061637475616c476173436f737460608201520190565b9a918051614205575b50506140fc565b6060850151600099509091803b15614313579189918983614258956040518097819682957fa9a234090000000000000000000000000000000000000000000000000000000084528c029060048401614009565b0393f19081614300575b506142fb5760016142716127c0565b6308c379a0146142dc575b614288575b38806141fe565b604051631101335b60e11b815280610d6a600482016080906000815260406020820152601260408201527f4141353020706f73744f7020726576657274000000000000000000000000000060608201520190565b6142e46127de565b806142ef575061427c565b6132ea610d6a91614053565b614281565b80610d9161430d926104ed565b38614262565b8980fd5b9392915a9060009280519061432b826147aa565b9360a083019661434288516001600160a01b031690565b6001600160a01b03959086811690816144055750505061436984516001600160a01b031690565b915b5a9003019485029860408301908a8251106143b857507f49628fd1471006c1482da88028e9ce4dbb080b815c9b0344d39e5a8e6ec1419f94939261414661419c938c602094510390614998565b60408051631101335b60e11b815260048101929092526024820152602060448201527f414135312070726566756e642062656c6f772061637475616c476173436f73746064820152608490fd5b93918051614415575b505061436b565b606087015160009a509091803b1561452257918a918a83614468956040518097819682957fa9a234090000000000000000000000000000000000000000000000000000000084528c029060048401614009565b0393f1908161450f575b5061450a5760016144816127c0565b6308c379a0146144ed575b614498575b388061440e565b610d6a8b604051918291631101335b60e11b835260048301608091815260406020820152601260408201527f4141353020706f73744f7020726576657274000000000000000000000000000060608201520190565b6144f56127de565b80614500575061448c565b6135478d91614053565b614491565b80610d9161451c926104ed565b38614472565b8a80fd5b909392915a94805191614538836147aa565b9260a081019561454f87516001600160a01b031690565b6001600160a01b039381851691826146105750505061457582516001600160a01b031690565b985b5a900301938402976040840190898251106141a1577f49628fd1471006c1482da88028e9ce4dbb080b815c9b0344d39e5a8e6ec1419f946145c16020928c61419c95510390614998565b6145ca88613fd0565b0151948960206145e461416086516001600160a01b031690565b940151604080519182529815602082015297880152606087015290821695909116939081906080820190565b9a918151614620575b5050614577565b87840261462c8a613fd0565b60028a146146b7576060860151823b156103215761467f93600080948d604051978896879586937fa9a234090000000000000000000000000000000000000000000000000000000085526004850161402c565b0393f180156146aa575b614697575b505b3880614619565b80610d916146a4926104ed565b3861468e565b6146b2611caf565b614689565b6060860151823b156103215761470293600080948d604051978896879586937fa9a234090000000000000000000000000000000000000000000000000000000085526004850161402c565b0393f19081614797575b5061479257600161471b6127c0565b6308c379a01461477f575b1561469057604051631101335b60e11b815280610d6a600482016080906000815260406020820152601260408201527f4141353020706f73744f7020726576657274000000000000000000000000000060608201520190565b6147876127de565b806142ef5750614726565b614690565b80610d916147a4926104ed565b3861470c565b60e060c08201519101518082146147ce574801808210156147c9575090565b905090565b5090565b604051906147df82610501565b60006040838281528260208201520152565b6147f96147d2565b5065ffffffffffff808260a01c168015614838575b6040519261481b84610501565b6001600160a01b038116845260d01c602084015216604082015290565b508061480e565b61485461485a9161484e6147d2565b506147f1565b916147f1565b906001600160a01b0391828251169283156148d9575b65ffffffffffff9283918260408160208501511693015116938360408160208401511692015116908084106148d1575b508085116148c9575b50604051956148b787610501565b16855216602084015216604082015290565b9350386148a9565b9250386148a0565b815181169350614870565b6001600160a01b0316600052600160205267ffffffffffffffff6149338260401c60406000209077ffffffffffffffffffffffffffffffffffffffffffffffff16600052602052604060002090565b9182549261494084611f8b565b9055161490565b906001600160a01b036149586125aa565b9216600052600060205263ffffffff600160406000206dffffffffffffffffffffffffffff815460781c1685520154166020830152565b6103ea33614a62565b6001600160a01b0316600052600060205260406000206dffffffffffffffffffffffffffff80825416928301809311614a55575b808311614a11576103ea92166dffffffffffffffffffffffffffff167fffffffffffffffffffffffffffffffffffff0000000000000000000000000000825416179055565b606460405162461bcd60e51b815260206004820152601060248201527f6465706f736974206f766572666c6f77000000000000000000000000000000006044820152fd5b614a5d611cbc565b6149cc565b6001600160a01b0390614a753482614998565b168060005260006020527f2da466a7b24304f47e87fa2e1e5a81b9831ce54fec19055ce277ca2f39ba42c460206dffffffffffffffffffffffffffff60406000205416604051908152a2565b15614ac857565b606460405162461bcd60e51b815260206004820152601a60248201527f6d757374207370656369667920756e7374616b652064656c61790000000000006044820152fd5b15614b1357565b606460405162461bcd60e51b815260206004820152601c60248201527f63616e6e6f7420646563726561736520756e7374616b652074696d65000000006044820152fd5b15614b5e57565b606460405162461bcd60e51b815260206004820152601260248201527f6e6f207374616b652073706563696669656400000000000000000000000000006044820152fd5b15614ba957565b606460405162461bcd60e51b815260206004820152600e60248201527f7374616b65206f766572666c6f770000000000000000000000000000000000006044820152fd5b9065ffffffffffff608060016103ea94614c4d6dffffffffffffffffffffffffffff86511682906dffffffffffffffffffffffffffff167fffffffffffffffffffffffffffffffffffff0000000000000000000000000000825416179055565b602085015115156eff000000000000000000000000000082549160701b16807fffffffffffffffffffffffffffffffffff00ffffffffffffffffffffffffffff83161783557fffffff000000000000000000000000000000ffffffffffffffffffffffffffff7cffffffffffffffffffffffffffff000000000000000000000000000000604089015160781b16921617178155019263ffffffff6060820151167fffffffffffffffffffffffffffffffffffffffffffffffffffffffff000000008554161784550151167fffffffffffffffffffffffffffffffffffffffffffff000000000000ffffffff69ffffffffffff0000000083549260201b169116179055565b15614d5857565b606460405162461bcd60e51b815260206004820152601160248201527f616c726561647920756e7374616b696e670000000000000000000000000000006044820152fd5b91909165ffffffffffff80809416911601918211611cf957565b15614dbd57565b606460405162461bcd60e51b815260206004820152601460248201527f4e6f207374616b6520746f2077697468647261770000000000000000000000006044820152fd5b15614e0857565b606460405162461bcd60e51b815260206004820152601d60248201527f6d7573742063616c6c20756e6c6f636b5374616b6528292066697273740000006044820152fd5b15614e5357565b606460405162461bcd60e51b815260206004820152601b60248201527f5374616b65207769746864726177616c206973206e6f742064756500000000006044820152fd5b15614e9e57565b606460405162461bcd60e51b815260206004820152601860248201527f6661696c656420746f207769746864726177207374616b6500000000000000006044820152fd5b15614ee957565b606460405162461bcd60e51b815260206004820152601260248201527f6661696c656420746f20776974686472617700000000000000000000000000006044820152fd5b816040519182372090565b9060009283809360208451940192f190565b3d610800808211614f71575b50604051906020818301016040528082526000602083013e90565b905038614f5656fea2646970667358221220b97d7aa061056a5e9c6ad974ba3ad5c6b5a83463963e9d403739fd7b4356401664736f6c634300081100336080806040523461001657610210908161001c8239f35b600080fdfe6080604052600436101561001257600080fd5b6000803560e01c63570e1a361461002857600080fd5b346100c95760207ffffffffffffffffffffffffffffffffffffffffffffffffffffffffffffffffc3601126100c95760043567ffffffffffffffff918282116100c957366023830112156100c95781600401359283116100c95736602484840101116100c9576100c561009e84602485016100fc565b60405173ffffffffffffffffffffffffffffffffffffffff90911681529081906020820190565b0390f35b80fd5b507f4e487b7100000000000000000000000000000000000000000000000000000000600052604160045260246000fd5b90806014116101bb5767ffffffffffffffff917fffffffffffffffffffffffffffffffffffffffffffffffffffffffffffffffec82018381116101cd575b604051937fffffffffffffffffffffffffffffffffffffffffffffffffffffffffffffffe0603f81600b8701160116850190858210908211176101c0575b604052808452602084019036848401116101bb576020946000600c819682946014880187378301015251923560601c5af19060005191156101b557565b60009150565b600080fd5b6101c86100cc565b610178565b6101d56100cc565b61013a56fea264697066735822122036a5a8d538d88359007715214f81c5bd42079bac3c4d3005ea4a12098b5b92e964736f6c63430008110033",
  "linkReferences": {},
  "deployedLinkReferences": {}
}