{
  "_format": "hh-sol-artifact-1",
  "contractName": "OVM_SequencerFeeVault",
  "sourceName": "contracts/optimistic-ethereum/OVM/predeploys/OVM_SequencerFeeVault.sol",
  "abi": [
    {
      "inputs": [
        {
          "internalType": "address",
          "name": "_l1FeeWallet",
          "type": "address"
        }
      ],
      "stateMutability": "nonpayable",
      "type": "constructor"
    },
    {
      "inputs": [],
      "name": "MIN_WITHDRAWAL_AMOUNT",
      "outputs": [
        {
          "internalType": "uint256",
          "name": "",
          "type": "uint256"
        }
      ],
      "stateMutability": "view",
      "type": "function"
    },
    {
      "inputs": [],
      "name": "l1FeeWallet",
      "outputs": [
        {
          "internalType": "address",
          "name": "",
          "type": "address"
        }
      ],
      "stateMutability": "view",
      "type": "function"
    },
    {
      "inputs": [],
      "name": "withdraw",
      "outputs": [],
      "stateMutability": "nonpayable",
      "type": "function"
    }
  ],
  "bytecode": "0x60806040525a61000d610092565b80156100215760008061001e6100ec565b50505b506040516108e33803806108e38339818101604052602081101561004d5760008061004a6100ec565b50505b810190808051925082915060009050600181610067610157565b816001600160a01b0302191690836001600160a01b03160217906100896101a3565b505050506101f1565b63a8c4c5ec598160e01b8152602081600483336000905af158600e01573d6000803e3d6000fd5b3d6001141558600a015760016000f35b8051935060005b60408110156100e7576000828201526020016100d0565b505050565b632a2a7adb598160e01b8152600481016020815285602082015260005b86811015610124578086015182820160400152602001610109565b506020828760640184336000905af158600e01573d6000803e3d6000fd5b3d6001141558600a015760016000f35b505050565b6303daa959598160e01b8152836004820152602081602483336000905af158600e01573d6000803e3d6000fd5b3d6001141558600a015760016000f35b805160008252935060206100d0565b6322bd64c0598160e01b8152836004820152846024820152600081604483336000905af158600e01573d6000803e3d6000fd5b3d6001141558600a015760016000f35b6000815260206100d0565b6106e3806102006000396000f3fe60806040525a61000d610375565b80156100215760008061001e6103cf565b50505b50600436106100525760003560e01c80633ccfd60b14610060578063d3e5792b1461006a578063d4ff921814610084575b60008061005d6103cf565b50505b6100686100a8565b005b61007261034b565b60405190815260200160405180910390f35b61008c610357565b6040516001600160a01b03909116815260200160405180910390f35b60006006602160991b016370a082315a63996d79a5598160e01b8152602081600483336000905af158600e01573d6000803e3d6000fd5b3d6001141558600a015760016000f35b8051925060005b604081101561010d576000828201526020016100f6565b5050506040516001600160e01b031960e084901b1681526001600160a01b039091166004820152602401602060405180830381868061014a61043a565b15801561015f5760008061015c6103cf565b50505b505a610169610486565b5050505050158015610188573d6000803e3d60006101856103cf565b50505b505050506040513d60208110156101a7576000806101a46103cf565b50505b8101908080519350505067d02ab486cedc000082101590506102035760405162461bcd60e51b815260040180806020018281038252605781526020018061068c60579139606001915050604051809103906102006103cf565b50505b6010602160991b0163a3a795486006602160991b01600080610223610573565b906101000a90046001600160a01b031684600060405160208101604090815260008252518663ffffffff1660e01b815260040180866001600160a01b03168152602001856001600160a01b0316815260200184815260200183815260200180602001828103825283818151815260200191508051906020019080838360005b838110156102ba5780820151838201526020016102a2565b50505050905090810190601f1680156102e75780820380516001836020036101000a031916815260200191505b5096505050505050506000604051808303816000878061030561043a565b15801561031a576000806103176103cf565b50505b505a6103246105bf565b505050505050158015610344573d6000803e3d60006103416103cf565b50505b5050505050565b67d02ab486cedc000081565b600080610362610573565b906101000a90046001600160a01b031681565b63a8c4c5ec598160e01b8152602081600483336000905af158600e01573d6000803e3d6000fd5b3d6001141558600a015760016000f35b8051935060005b60408110156103ca576000828201526020016103b3565b505050565b632a2a7adb598160e01b8152600481016020815285602082015260005b868110156104075780860151828201604001526020016103ec565b506020828760640184336000905af158600e01573d6000803e3d6000fd5b3d6001141558600a015760016000f35b505050565b638435035b598160e01b8152836004820152602081602483336000905af158600e01573d6000803e3d6000fd5b3d6001141558600a015760016000f35b805160008252935060206103b3565b638540661f598160e01b81526104b9565b80808311156104a35750815b92915050565b80808310156104a3575090919050565b836004820152846024820152606060448201528660648201526084810160005b888110156104f15780880151828201526020016104d9565b506060828960a40184336000905af158600e01573d6000803e3d6000fd5b3d6001141558600a015760016000f35b815160408301513d6000853e8b8b82606087013350600060045af150596105468d3d6104a9565b8c016105528187610497565b5b828110156105675760008152602001610553565b50929c50505050505050565b6303daa959598160e01b8152836004820152602081602483336000905af158600e01573d6000803e3d6000fd5b3d6001141558600a015760016000f35b805160008252935060206103b3565b635b99d1c5598160e01b81528360048201528460248201528560448201526080606482015287608482015260a4810160005b898110156106095780890151828201526020016105f1565b506060828a60c40184336000905af158600e01573d6000803e3d6000fd5b3d6001141558600a015760016000f35b815160408301513d6000853e8c8c82606087013350600060045af1505961065e8e3d6104a9565b8d0161066a8187610497565b5b8281101561067f576000815260200161066b565b50929d5050505050505056fe4f564d5f53657175656e6365724665655661756c743a207769746864726177616c20616d6f756e74206d7573742062652067726561746572207468616e206d696e696d756d207769746864726177616c20616d6f756e74",
  "linkReferences": {},
  "deployedLinkReferences": {}
}