{
  "_format": "hh-sol-artifact-1",
  "contractName": "Lib_ResolvedDelegateProxy",
  "sourceName": "contracts/libraries/Lib_ResolvedDelegateProxy.sol",
  "abi": [
    {
      "inputs": [
        {
          "internalType": "address",
          "name": "_proxyTarget",
          "type": "address"
        }
      ],
      "stateMutability": "nonpayable",
      "type": "constructor"
    },
    {
      "stateMutability": "payable",
      "type": "fallback"
    },
    {
      "inputs": [
        {
          "internalType": "string",
          "name": "",
          "type": "string"
        }
      ],
      "name": "addressManager",
      "outputs": [
        {
          "internalType": "address",
          "name": "",
          "type": "address"
        }
      ],
      "stateMutability": "view",
      "type": "function"
    },
    {
      "inputs": [
        {
          "internalType": "address",
          "name": "_proxyTarget",
          "type": "address"
        }
      ],
      "name": "setTargetContract",
      "outputs": [],
      "stateMutability": "nonpayable",
      "type": "function"
    },
    {
      "inputs": [],
      "name": "transferProxyOwnership",
      "outputs": [],
      "stateMutability": "nonpayable",
      "type": "function"
    }
  ],
  "bytecode": "0x608060405234801561001057600080fd5b506040516106bf3803806106bf83398101604081905261002f916100af565b806000604051610050906a1c1c9bde1e55185c99d95d60aa1b8152600b0190565b9081526040805191829003602001822080546001600160a01b03949094166001600160a01b031994851617905569383937bc3ca7bbb732b960b11b82526000600a8301525190819003602a0190208054339216919091179055506100df565b6000602082840312156100c157600080fd5b81516001600160a01b03811681146100d857600080fd5b9392505050565b6105d1806100ee6000396000f3fe6080604052600436106100345760003560e01c806312762d5e1461003e5780632fa8ad53146100b557806347fc822f146100ca575b61003c6100ea565b005b34801561004a57600080fd5b5061008c6100593660046104a8565b805160208183018101805160008252928201919093012091525473ffffffffffffffffffffffffffffffffffffffff1681565b60405173ffffffffffffffffffffffffffffffffffffffff909116815260200160405180910390f35b3480156100c157600080fd5b5061003c61029b565b3480156100d657600080fd5b5061003c6100e5366004610577565b610389565b6040517f70726f78794f776e65720000000000000000000000000000000000000000000081526000908190600a019081526040519081900360200190205473ffffffffffffffffffffffffffffffffffffffff1614156101d0576040517f08c379a000000000000000000000000000000000000000000000000000000000815260206004820152602360248201527f5461726765742061646472657373206d75737420626520696e697469616c697a60448201527f65642e0000000000000000000000000000000000000000000000000000000000606482015260840160405180910390fd5b6000806000604051610205907f70726f78795461726765740000000000000000000000000000000000000000008152600b0190565b9081526040519081900360200181205473ffffffffffffffffffffffffffffffffffffffff169061023a9060009036906105b4565b600060405180830381855af49150503d8060008114610275576040519150601f19603f3d011682016040523d82523d6000602084013e61027a565b606091505b5090925090506001821515141561029357805160208201f35b805160208201fd5b6040517f70726f78794f776e6572000000000000000000000000000000000000000000008152600090600a01908152604051908190036020019020543373ffffffffffffffffffffffffffffffffffffffff909116141561037f57336000604051610329907f70726f78794f776e6572000000000000000000000000000000000000000000008152600a0190565b908152604051908190036020019020805473ffffffffffffffffffffffffffffffffffffffff929092167fffffffffffffffffffffffff0000000000000000000000000000000000000000909216919091179055565b6103876100ea565b565b6040517f70726f78794f776e6572000000000000000000000000000000000000000000008152600090600a01908152604051908190036020019020543373ffffffffffffffffffffffffffffffffffffffff909116141561046e57806000604051610417907f70726f78795461726765740000000000000000000000000000000000000000008152600b0190565b908152604051908190036020019020805473ffffffffffffffffffffffffffffffffffffffff929092167fffffffffffffffffffffffff000000000000000000000000000000000000000090921691909117905550565b6104766100ea565b50565b7f4e487b7100000000000000000000000000000000000000000000000000000000600052604160045260246000fd5b6000602082840312156104ba57600080fd5b813567ffffffffffffffff808211156104d257600080fd5b818401915084601f8301126104e657600080fd5b8135818111156104f8576104f8610479565b604051601f82017fffffffffffffffffffffffffffffffffffffffffffffffffffffffffffffffe0908116603f0116810190838211818310171561053e5761053e610479565b8160405282815287602084870101111561055757600080fd5b826020860160208301376000928101602001929092525095945050505050565b60006020828403121561058957600080fd5b813573ffffffffffffffffffffffffffffffffffffffff811681146105ad57600080fd5b9392505050565b818382376000910190815291905056fea164736f6c6343000808000a",
  "linkReferences": {},
  "deployedLinkReferences": {}
}