{
  "_format": "hh-sol-artifact-1",
  "contractName": "TokenPool",
  "sourceName": "contracts/TokenPool.sol",
  "abi": [
    {
      "anonymous": false,
      "inputs": [
        {
          "indexed": true,
          "internalType": "address",
          "name": "previousOwner",
          "type": "address"
        },
        {
          "indexed": true,
          "internalType": "address",
          "name": "newOwner",
          "type": "address"
        }
      ],
      "name": "OwnershipTransferred",
      "type": "event"
    },
    {
      "anonymous": false,
      "inputs": [
        {
          "indexed": false,
          "internalType": "address",
          "name": "_requestAddress",
          "type": "address"
        },
        {
          "indexed": false,
          "internalType": "uint256",
          "name": "_timestamp",
          "type": "uint256"
        },
        {
          "indexed": false,
          "internalType": "uint256",
          "name": "_amount",
          "type": "uint256"
        }
      ],
      "name": "RequestToken",
      "type": "event"
    },
    {
      "inputs": [
        {
          "internalType": "address",
          "name": "",
          "type": "address"
        }
      ],
      "name": "lastRequest",
      "outputs": [
        {
          "internalType": "uint256",
          "name": "",
          "type": "uint256"
        }
      ],
      "stateMutability": "view",
      "type": "function"
    },
    {
      "inputs": [],
      "name": "owner",
      "outputs": [
        {
          "internalType": "address",
          "name": "",
          "type": "address"
        }
      ],
      "stateMutability": "view",
      "type": "function"
    },
    {
      "inputs": [
        {
          "internalType": "address",
          "name": "_tokenAddress",
          "type": "address"
        }
      ],
      "name": "registerTokenAddress",
      "outputs": [],
      "stateMutability": "nonpayable",
      "type": "function"
    },
    {
      "inputs": [],
      "name": "renounceOwnership",
      "outputs": [],
      "stateMutability": "nonpayable",
      "type": "function"
    },
    {
      "inputs": [],
      "name": "requestToken",
      "outputs": [],
      "stateMutability": "nonpayable",
      "type": "function"
    },
    {
      "inputs": [],
      "name": "tokenAddress",
      "outputs": [
        {
          "internalType": "address",
          "name": "",
          "type": "address"
        }
      ],
      "stateMutability": "view",
      "type": "function"
    },
    {
      "inputs": [
        {
          "internalType": "address",
          "name": "newOwner",
          "type": "address"
        }
      ],
      "name": "transferOwnership",
      "outputs": [],
      "stateMutability": "nonpayable",
      "type": "function"
    }
  ],
  "bytecode": "0x608060405234801561001057600080fd5b5061001a3361001f565b61006f565b600080546001600160a01b038381166001600160a01b0319831681178455604051919092169283917f8be0079c531659141344cd1fd0a4f28419497f9722a3daafe3b4186f6b6457e09190a35050565b6107128061007e6000396000f3fe608060405234801561001057600080fd5b506004361061007d5760003560e01c80638786df6a1161005b5780638786df6a146100c75780638da5cb5b146100da5780639d76ea5814610119578063f2fde38b1461013957600080fd5b80634d7ec628146100825780636fb9584f1461008c578063715018a6146100bf575b600080fd5b61008a61014c565b005b6100ac61009a36600461066e565b60016020526000908152604090205481565b6040519081526020015b60405180910390f35b61008a6102e4565b61008a6100d536600461066e565b610371565b60005473ffffffffffffffffffffffffffffffffffffffff165b60405173ffffffffffffffffffffffffffffffffffffffff90911681526020016100b6565b6002546100f49073ffffffffffffffffffffffffffffffffffffffff1681565b61008a61014736600461066e565b6104b6565b33600090815260016020526040902054429061016a90610e106105e6565b11156101d7576040517f08c379a000000000000000000000000000000000000000000000000000000000815260206004820152600d60248201527f52657175657374206c696d69740000000000000000000000000000000000000060448201526064015b60405180910390fd5b336000818152600160205260409081902042905560025490517fa9059cbb0000000000000000000000000000000000000000000000000000000081526004810192909252678ac7230489e80000602483015273ffffffffffffffffffffffffffffffffffffffff169063a9059cbb90604401602060405180830381600087803b15801561026357600080fd5b505af1158015610277573d6000803e3d6000fd5b505050506040513d601f19601f8201168201806040525081019061029b91906106a4565b5060408051338152426020820152678ac7230489e800008183015290517fd6d54531500b6efc955a0f92c86d0a299db8d76a01386154404eb0969203b0699181900360600190a1565b60005473ffffffffffffffffffffffffffffffffffffffff163314610365576040517f08c379a000000000000000000000000000000000000000000000000000000000815260206004820181905260248201527f4f776e61626c653a2063616c6c6572206973206e6f7420746865206f776e657260448201526064016101ce565b61036f60006105f9565b565b60005473ffffffffffffffffffffffffffffffffffffffff1633146103f2576040517f08c379a000000000000000000000000000000000000000000000000000000000815260206004820181905260248201527f4f776e61626c653a2063616c6c6572206973206e6f7420746865206f776e657260448201526064016101ce565b73ffffffffffffffffffffffffffffffffffffffff811661046f576040517f08c379a000000000000000000000000000000000000000000000000000000000815260206004820152601c60248201527f746f6b656e20616464726573732063616e6e6f74206265207a65726f0000000060448201526064016101ce565b600280547fffffffffffffffffffffffff00000000000000000000000000000000000000001673ffffffffffffffffffffffffffffffffffffffff92909216919091179055565b60005473ffffffffffffffffffffffffffffffffffffffff163314610537576040517f08c379a000000000000000000000000000000000000000000000000000000000815260206004820181905260248201527f4f776e61626c653a2063616c6c6572206973206e6f7420746865206f776e657260448201526064016101ce565b73ffffffffffffffffffffffffffffffffffffffff81166105da576040517f08c379a000000000000000000000000000000000000000000000000000000000815260206004820152602660248201527f4f776e61626c653a206e6577206f776e657220697320746865207a65726f206160448201527f646472657373000000000000000000000000000000000000000000000000000060648201526084016101ce565b6105e3816105f9565b50565b60006105f282846106c6565b9392505050565b6000805473ffffffffffffffffffffffffffffffffffffffff8381167fffffffffffffffffffffffff0000000000000000000000000000000000000000831681178455604051919092169283917f8be0079c531659141344cd1fd0a4f28419497f9722a3daafe3b4186f6b6457e09190a35050565b60006020828403121561068057600080fd5b813573ffffffffffffffffffffffffffffffffffffffff811681146105f257600080fd5b6000602082840312156106b657600080fd5b815180151581146105f257600080fd5b60008219821115610700577f4e487b7100000000000000000000000000000000000000000000000000000000600052601160045260246000fd5b50019056fea164736f6c6343000809000a",
  "linkReferences": {},
  "deployedLinkReferences": {}
}