{
  "_format": "hh-sol-artifact-1",
  "contractName": "OVM_FraudVerifier",
  "sourceName": "contracts/optimistic-ethereum/OVM/verification/OVM_FraudVerifier.sol",
  "abi": [
    {
      "inputs": [
        {
          "internalType": "address",
          "name": "_libAddressManager",
          "type": "address"
        }
      ],
      "stateMutability": "nonpayable",
      "type": "constructor"
    },
    {
      "anonymous": false,
      "inputs": [
        {
          "indexed": false,
          "internalType": "bytes32",
          "name": "_preStateRoot",
          "type": "bytes32"
        },
        {
          "indexed": false,
          "internalType": "uint256",
          "name": "_preStateRootIndex",
          "type": "uint256"
        },
        {
          "indexed": false,
          "internalType": "bytes32",
          "name": "_transactionHash",
          "type": "bytes32"
        },
        {
          "indexed": false,
          "internalType": "address",
          "name": "_who",
          "type": "address"
        }
      ],
      "name": "FraudProofFinalized",
      "type": "event"
    },
    {
      "anonymous": false,
      "inputs": [
        {
          "indexed": false,
          "internalType": "bytes32",
          "name": "_preStateRoot",
          "type": "bytes32"
        },
        {
          "indexed": false,
          "internalType": "uint256",
          "name": "_preStateRootIndex",
          "type": "uint256"
        },
        {
          "indexed": false,
          "internalType": "bytes32",
          "name": "_transactionHash",
          "type": "bytes32"
        },
        {
          "indexed": false,
          "internalType": "address",
          "name": "_who",
          "type": "address"
        }
      ],
      "name": "FraudProofInitialized",
      "type": "event"
    },
    {
      "inputs": [
        {
          "internalType": "bytes32",
          "name": "_preStateRoot",
          "type": "bytes32"
        },
        {
          "components": [
            {
              "internalType": "uint256",
              "name": "batchIndex",
              "type": "uint256"
            },
            {
              "internalType": "bytes32",
              "name": "batchRoot",
              "type": "bytes32"
            },
            {
              "internalType": "uint256",
              "name": "batchSize",
              "type": "uint256"
            },
            {
              "internalType": "uint256",
              "name": "prevTotalElements",
              "type": "uint256"
            },
            {
              "internalType": "bytes",
              "name": "extraData",
              "type": "bytes"
            }
          ],
          "internalType": "struct Lib_OVMCodec.ChainBatchHeader",
          "name": "_preStateRootBatchHeader",
          "type": "tuple"
        },
        {
          "components": [
            {
              "internalType": "uint256",
              "name": "index",
              "type": "uint256"
            },
            {
              "internalType": "bytes32[]",
              "name": "siblings",
              "type": "bytes32[]"
            }
          ],
          "internalType": "struct Lib_OVMCodec.ChainInclusionProof",
          "name": "_preStateRootProof",
          "type": "tuple"
        },
        {
          "internalType": "bytes32",
          "name": "_txHash",
          "type": "bytes32"
        },
        {
          "internalType": "bytes32",
          "name": "_postStateRoot",
          "type": "bytes32"
        },
        {
          "components": [
            {
              "internalType": "uint256",
              "name": "batchIndex",
              "type": "uint256"
            },
            {
              "internalType": "bytes32",
              "name": "batchRoot",
              "type": "bytes32"
            },
            {
              "internalType": "uint256",
              "name": "batchSize",
              "type": "uint256"
            },
            {
              "internalType": "uint256",
              "name": "prevTotalElements",
              "type": "uint256"
            },
            {
              "internalType": "bytes",
              "name": "extraData",
              "type": "bytes"
            }
          ],
          "internalType": "struct Lib_OVMCodec.ChainBatchHeader",
          "name": "_postStateRootBatchHeader",
          "type": "tuple"
        },
        {
          "components": [
            {
              "internalType": "uint256",
              "name": "index",
              "type": "uint256"
            },
            {
              "internalType": "bytes32[]",
              "name": "siblings",
              "type": "bytes32[]"
            }
          ],
          "internalType": "struct Lib_OVMCodec.ChainInclusionProof",
          "name": "_postStateRootProof",
          "type": "tuple"
        }
      ],
      "name": "finalizeFraudVerification",
      "outputs": [],
      "stateMutability": "nonpayable",
      "type": "function"
    },
    {
      "inputs": [
        {
          "internalType": "bytes32",
          "name": "_preStateRoot",
          "type": "bytes32"
        },
        {
          "internalType": "bytes32",
          "name": "_txHash",
          "type": "bytes32"
        }
      ],
      "name": "getStateTransitioner",
      "outputs": [
        {
          "internalType": "contract iOVM_StateTransitioner",
          "name": "_transitioner",
          "type": "address"
        }
      ],
      "stateMutability": "view",
      "type": "function"
    },
    {
      "inputs": [
        {
          "internalType": "bytes32",
          "name": "_preStateRoot",
          "type": "bytes32"
        },
        {
          "components": [
            {
              "internalType": "uint256",
              "name": "batchIndex",
              "type": "uint256"
            },
            {
              "internalType": "bytes32",
              "name": "batchRoot",
              "type": "bytes32"
            },
            {
              "internalType": "uint256",
              "name": "batchSize",
              "type": "uint256"
            },
            {
              "internalType": "uint256",
              "name": "prevTotalElements",
              "type": "uint256"
            },
            {
              "internalType": "bytes",
              "name": "extraData",
              "type": "bytes"
            }
          ],
          "internalType": "struct Lib_OVMCodec.ChainBatchHeader",
          "name": "_preStateRootBatchHeader",
          "type": "tuple"
        },
        {
          "components": [
            {
              "internalType": "uint256",
              "name": "index",
              "type": "uint256"
            },
            {
              "internalType": "bytes32[]",
              "name": "siblings",
              "type": "bytes32[]"
            }
          ],
          "internalType": "struct Lib_OVMCodec.ChainInclusionProof",
          "name": "_preStateRootProof",
          "type": "tuple"
        },
        {
          "components": [
            {
              "internalType": "uint256",
              "name": "timestamp",
              "type": "uint256"
            },
            {
              "internalType": "uint256",
              "name": "blockNumber",
              "type": "uint256"
            },
            {
              "internalType": "enum Lib_OVMCodec.QueueOrigin",
              "name": "l1QueueOrigin",
              "type": "uint8"
            },
            {
              "internalType": "address",
              "name": "l1TxOrigin",
              "type": "address"
            },
            {
              "internalType": "address",
              "name": "entrypoint",
              "type": "address"
            },
            {
              "internalType": "uint256",
              "name": "gasLimit",
              "type": "uint256"
            },
            {
              "internalType": "bytes",
              "name": "data",
              "type": "bytes"
            }
          ],
          "internalType": "struct Lib_OVMCodec.Transaction",
          "name": "_transaction",
          "type": "tuple"
        },
        {
          "components": [
            {
              "internalType": "bool",
              "name": "isSequenced",
              "type": "bool"
            },
            {
              "internalType": "uint256",
              "name": "queueIndex",
              "type": "uint256"
            },
            {
              "internalType": "uint256",
              "name": "timestamp",
              "type": "uint256"
            },
            {
              "internalType": "uint256",
              "name": "blockNumber",
              "type": "uint256"
            },
            {
              "internalType": "bytes",
              "name": "txData",
              "type": "bytes"
            }
          ],
          "internalType": "struct Lib_OVMCodec.TransactionChainElement",
          "name": "_txChainElement",
          "type": "tuple"
        },
        {
          "components": [
            {
              "internalType": "uint256",
              "name": "batchIndex",
              "type": "uint256"
            },
            {
              "internalType": "bytes32",
              "name": "batchRoot",
              "type": "bytes32"
            },
            {
              "internalType": "uint256",
              "name": "batchSize",
              "type": "uint256"
            },
            {
              "internalType": "uint256",
              "name": "prevTotalElements",
              "type": "uint256"
            },
            {
              "internalType": "bytes",
              "name": "extraData",
              "type": "bytes"
            }
          ],
          "internalType": "struct Lib_OVMCodec.ChainBatchHeader",
          "name": "_transactionBatchHeader",
          "type": "tuple"
        },
        {
          "components": [
            {
              "internalType": "uint256",
              "name": "index",
              "type": "uint256"
            },
            {
              "internalType": "bytes32[]",
              "name": "siblings",
              "type": "bytes32[]"
            }
          ],
          "internalType": "struct Lib_OVMCodec.ChainInclusionProof",
          "name": "_transactionProof",
          "type": "tuple"
        }
      ],
      "name": "initializeFraudVerification",
      "outputs": [],
      "stateMutability": "nonpayable",
      "type": "function"
    },
    {
      "inputs": [],
      "name": "libAddressManager",
      "outputs": [
        {
          "internalType": "contract Lib_AddressManager",
          "name": "",
          "type": "address"
        }
      ],
      "stateMutability": "view",
      "type": "function"
    },
    {
      "inputs": [
        {
          "internalType": "string",
          "name": "_name",
          "type": "string"
        }
      ],
      "name": "resolve",
      "outputs": [
        {
          "internalType": "address",
          "name": "",
          "type": "address"
        }
      ],
      "stateMutability": "view",
      "type": "function"
    }
  ],
  "bytecode": "0x60806040525a6200000f62000089565b8015620000265760008062000023620000e5565b50505b506040516200212d3803806200212d8339810160408190526200004991620001ee565b808060006001816200005a62000152565b816001600160a01b0302191690836001600160a01b03160217906200007e6200019f565b505050505062000234565b63a8c4c5ec598160e01b8152602081600483336000905af158600e01573d6000803e3d6000fd5b3d6001141558600a015760016000f35b8051935060005b6040811015620000e057600082820152602001620000c7565b505050565b632a2a7adb598160e01b8152600481016020815285602082015260005b868110156200011f57808601518282016040015260200162000102565b506020828760640184336000905af158600e01573d6000803e3d6000fd5b3d6001141558600a015760016000f35b505050565b6303daa959598160e01b8152836004820152602081602483336000905af158600e01573d6000803e3d6000fd5b3d6001141558600a015760016000f35b80516000825293506020620000c7565b6322bd64c0598160e01b8152836004820152846024820152600081604483336000905af158600e01573d6000803e3d6000fd5b3d6001141558600a015760016000f35b600081526020620000c7565b6000602082840312156200020b57808162000208620000e5565b50505b81516001600160a01b03811681146200022d5781826200022a620000e5565b50505b9392505050565b611ee980620002446000396000f3fe60806040525a61000d610eb1565b80156100215760008061001e610f0b565b50505b50600436106100685760003560e01c8063299ca47814610076578063461a44781461009457806398d8867d146100a7578063a286ba1c146100bc578063b48ec820146100cf575b600080610073610f0b565b50505b61007e6100e2565b60405161008b9190611a65565b60405180910390f35b61007e6100a236600461183e565b610100565b6100ba6100b536600461172a565b61022a565b005b6100ba6100ca366004611638565b610602565b61007e6100dd36600461160e565b610abd565b6000806100ed610f76565b906101000a90046001600160a01b031681565b6000808061010c610f76565b906101000a90046001600160a01b03166001600160a01b031663bf40fac1836040518263ffffffff1660e01b81526004018080602001828103825283818151815260200191508051906020019080838360005b8381101561017757808201518382015260200161015f565b50505050905090810190601f1680156101a45780820380516001836020036101000a031916815260200191505b509250505060206040518083038186806101bc610fc2565b1580156101d1576000806101ce610f0b565b50505b505a6101db61100e565b50505050501580156101fa573d6000803e3d60006101f7610f0b565b50505b505050506040513d602081101561021957600080610216610f0b565b50505b81019080805193505050505b919050565b8661023485610b1e565b60005a9050600061024488610b1e565b90506102508b82610b36565b1561025b5750610514565b600061029460405160408082019052601881527727ab26afa9ba30ba32a1b7b6b6b4ba36b2b73a21b430b4b760411b6020820152610100565b905060006102d460405160408082019052601d81527f4f564d5f43616e6f6e6963616c5472616e73616374696f6e436861696e0000006020820152610100565b9050816001600160a01b0316634d69ee578e8e8e6040518463ffffffff1660e01b815260040161030693929190611abe565b6020604051808303818680610319610fc2565b15801561032e5760008061032b610f0b565b50505b505a61033861100e565b5050505050158015610357573d6000803e3d6000610354610f0b565b50505b50505050604051601f3d908101601f1916820160405261037a91908101906115c6565b6103a85760405162461bcd60e51b815260040161039690611d46565b604051809103906103a5610f0b565b50505b806001600160a01b0316634de569ce8b8b8b8b6040518563ffffffff1660e01b81526004016103da9493929190611da0565b60206040518083038186806103ed610fc2565b158015610402576000806103ff610f0b565b50505b505a61040c61100e565b505050505015801561042b573d6000803e3d6000610428610f0b565b50505b50505050604051601f3d908101601f1916820160405261044e91908101906115c6565b61047c5760405162461bcd60e51b815260040161046a90611bf8565b60405180910390610479610f0b565b50505b86518860600151018b518d6060015101600101146104be5760405162461bcd60e51b81526004016104ac90611c84565b604051809103906104bb610f0b565b50505b6104ca8d848d51610b55565b7f41a48bde2468fac6f670f39b66d7b91f311053e1f28eab9d75056546e6eaac958d8c51855a6104f86110f9565b6040516105089493929190611af3565b60405180910390a15050505b60005a8203905061054960405160408082019052600f81526e27ab26afa137b73226b0b730b3b2b960891b6020820152610100565b6001600160a01b0316631e16e92f85855a6105626110f9565b856040516001600160e01b031960e087901b168152600481019490945260248401929092526001600160a01b031660448301526064820152608401600060405180830381600087806105b2610fc2565b1580156105c7576000806105c4610f0b565b50505b505a6105d161113f565b5050505050501580156105f1573d6000803e3d60006105ee610f0b565b50505b505050505050505050505050505050565b868460005a905060006106158b89610abd565b9050600061065060405160408082019052601881527727ab26afa9ba30ba32a1b7b6b6b4ba36b2b73a21b430b4b760411b6020820152610100565b9050816001600160a01b031663b2fa1c9e6040518163ffffffff1660e01b81526004016020604051808303818680610686610fc2565b15801561069b57600080610698610f0b565b50505b505a6106a561100e565b50505050501580156106c4573d6000803e3d60006106c1610f0b565b50505b50505050604051601f3d908101601f191682016040526106e791908101906115c6565b151560011461071a5760405162461bcd60e51b815260040161070890611b17565b60405180910390610717610f0b565b50505b89518b606001510160010186518860600151011461075c5760405162461bcd60e51b815260040161074a90611b7e565b60405180910390610759610f0b565b50505b806001600160a01b0316634d69ee578d8d8d6040518463ffffffff1660e01b815260040161078c93929190611abe565b602060405180830381868061079f610fc2565b1580156107b4576000806107b1610f0b565b50505b505a6107be61100e565b50505050501580156107dd573d6000803e3d60006107da610f0b565b50505b50505050604051601f3d908101601f1916820160405261080091908101906115c6565b61082e5760405162461bcd60e51b815260040161081c90611d46565b6040518091039061082b610f0b565b50505b806001600160a01b0316634d69ee578989896040518463ffffffff1660e01b815260040161085e93929190611abe565b6020604051808303818680610871610fc2565b15801561088657600080610883610f0b565b50505b505a61089061100e565b50505050501580156108af573d6000803e3d60006108ac610f0b565b50505b50505050604051601f3d908101601f191682016040526108d291908101906115c6565b6109005760405162461bcd60e51b81526004016108ee90611c3c565b604051809103906108fd610f0b565b50505b816001600160a01b031663c1c618b86040518163ffffffff1660e01b81526004016020604051808303818680610934610fc2565b15801561094957600080610946610f0b565b50505b505a61095361100e565b5050505050158015610972573d6000803e3d600061096f610f0b565b50505b50505050604051601f3d908101601f1916820160405261099591908101906115eb565b8814156109c65760405162461bcd60e51b81526004016109b490611cf6565b604051809103906109c3610f0b565b50505b6109d0878d610cc3565b6000600160008e8c6040516020016109e99291906119e8565b604051602081830303815290604052805190602001208152602001908152602001600020600181610a18610f76565b816001600160a01b0302191690836001600160a01b0316021790610a3a61120b565b5050507f1e5fff3c23daf51ea67aaa3bbc738bcedaa98be5a5503f0e63a336a004b075b18c8b600001518b5a610a6e6110f9565b604051610a7e9493929190611af3565b60405180910390a1505060005a8203905061054960405160408082019052600f81526e27ab26afa137b73226b0b730b3b2b960891b6020820152610100565b6000600160008484604051602001610ad69291906119e8565b604051602081830303815290604052805190602001208152602001908152602001600020600090610b05610f76565b906101000a90046001600160a01b031690505b92915050565b6000610b2982610e63565b8051906020012092915050565b600080610b438484610abd565b6001600160a01b031614159392505050565b610b9160405160408082019052601c81527f4f564d5f53746174655472616e736974696f6e6572466163746f7279000000006020820152610100565b6001600160a01b03166322d14702600080610baa610f76565b906101000a90046001600160a01b03168386866040518563ffffffff1660e01b8152600401610bdc9493929190611a79565b60206040518083038160008780610bf1610fc2565b158015610c0657600080610c03610f0b565b50505b505a610c1061113f565b505050505050158015610c30573d6000803e3d6000610c2d610f0b565b50505b50505050604051601f3d908101601f19168201604052610c539190810190611819565b600160008585604051602001610c6a9291906119e8565b604051602081830303815290604052805190602001208152602001908152602001600020600181610c99610f76565b816001600160a01b0302191690836001600160a01b0316021790610cbb61120b565b505050505050565b6000610cfc60405160408082019052601881527727ab26afa9ba30ba32a1b7b6b6b4ba36b2b73a21b430b4b760411b6020820152610100565b90506000610d2e60405160408082019052600f81526e27ab26afa137b73226b0b730b3b2b960891b6020820152610100565b9050816001600160a01b031663b8e189ac856040518263ffffffff1660e01b8152600401610d5c9190611d8d565b60006040518083038160008780610d71610fc2565b158015610d8657600080610d83610f0b565b50505b505a610d9061113f565b505050505050158015610db0573d6000803e3d6000610dad610f0b565b50505b505050506000808560800151806020019051810190610dcf91906118a7565b91509150826001600160a01b031663abfbbe138683856040518463ffffffff1660e01b8152600401610e0393929190611a9f565b60006040518083038160008780610e18610fc2565b158015610e2d57600080610e2a610f0b565b50505b505a610e3761113f565b505050505050158015610e57573d6000803e3d6000610e54610f0b565b50505b50505050505050505050565b6060815182602001518360400151846060015185608001518660a001518760c00151604051602001610e9b97969594939291906119f6565b6040516020818303038152906040529050919050565b63a8c4c5ec598160e01b8152602081600483336000905af158600e01573d6000803e3d6000fd5b3d6001141558600a015760016000f35b8051935060005b6040811015610f0657600082820152602001610eef565b505050565b632a2a7adb598160e01b8152600481016020815285602082015260005b86811015610f43578086015182820160400152602001610f28565b506020828760640184336000905af158600e01573d6000803e3d6000fd5b3d6001141558600a015760016000f35b505050565b6303daa959598160e01b8152836004820152602081602483336000905af158600e01573d6000803e3d6000fd5b3d6001141558600a015760016000f35b80516000825293506020610eef565b638435035b598160e01b8152836004820152602081602483336000905af158600e01573d6000803e3d6000fd5b3d6001141558600a015760016000f35b80516000825293506020610eef565b638540661f598160e01b815261103f565b8080831115610b18575090919050565b8080831015610b18575090919050565b836004820152846024820152606060448201528660648201526084810160005b8881101561107757808801518282015260200161105f565b506060828960a40184336000905af158600e01573d6000803e3d6000fd5b3d6001141558600a015760016000f35b815160408301513d6000853e8b8b82606087013350600060045af150596110cc8d3d61102f565b8c016110d8818761101f565b5b828110156110ed57600081526020016110d9565b50929c50505050505050565b6373509064598160e01b8152602081600483336000905af158600e01573d6000803e3d6000fd5b3d6001141558600a015760016000f35b80516000825293506020610eef565b635b99d1c5598160e01b81528360048201528460248201528560448201526080606482015287608482015260a4810160005b89811015611189578089015182820152602001611171565b506060828a60c40184336000905af158600e01573d6000803e3d6000fd5b3d6001141558600a015760016000f35b815160408301513d6000853e8c8c82606087013350600060045af150596111de8e3d61102f565b8d016111ea818761101f565b5b828110156111ff57600081526020016111eb565b50929d50505050505050565b6322bd64c0598160e01b8152836004820152846024820152600081604483336000905af158600e01573d6000803e3d6000fd5b3d6001141558600a015760016000f35b600081526020610eef565b600067ffffffffffffffff83111561126d57fe5b611280601f8401601f1916602001611e5f565b905082815283838301111561129d5760008061129a610f0b565b50505b828260208301376000602084830101529392505050565b803561022581611eb7565b600082601f8301126112d85780816112d5610f0b565b50505b6112e783833560208501611259565b9392505050565b80356002811061022557600080611303610f0b565b5050919050565b600060a08284031215611324578081611321610f0b565b50505b60405160a0810167ffffffffffffffff828210818311171561134257fe5b8160405282935084358352602085013560208401526040850135604084015260608501356060840152608085013591508082111561138857600080611385610f0b565b50505b50611395858286016112bf565b6080830152505092915050565b6000604082840312156113bc5780816113b9610f0b565b50505b6040516040810167ffffffffffffffff82821081831117156113da57fe5b816040528293508435835260209150818501358181111561140357600080611400610f0b565b50505b8501601f8101871361141d5760008061141a610f0b565b50505b80358281111561142957fe5b8381029250611439848401611e5f565b8181528481019083860185850187018b101561145d5760008061145a610f0b565b50505b600095505b83861015611480578035835260019590950194918601918601611462565b5080868801525050505050505092915050565b600060a082840312156114ad5780816114aa610f0b565b50505b60405160a0810167ffffffffffffffff82821081831117156114cb57fe5b81604052829350843591506114df82611ed5565b818352602085013560208401526040850135604084015260608501356060840152608085013591508082111561138857600080611385610f0b565b600060e08284031215611534578081611531610f0b565b50505b61153e60e0611e5f565b9050813581526020820135602082015261155a604083016112ee565b604082015261156b606083016112b4565b606082015261157c608083016112b4565b608082015260a082013560a082015260c082013567ffffffffffffffff8111156115ae576000806115ab610f0b565b50505b6115ba848285016112bf565b60c08301525092915050565b6000602082840312156115e05780816115dd610f0b565b50505b81516112e781611ed5565b600060208284031215611605578081611602610f0b565b50505b81519392505050565b60008060408385031215611629578081611626610f0b565b50505b50508035926020909101359150565b600080600080600080600060e0888a03121561165b578283611658610f0b565b50505b87359650602088013567ffffffffffffffff8082111561168257848561167f610f0b565b50505b61168e8b838c0161130a565b975060408a01359150808211156116ac5784856116a9610f0b565b50505b6116b88b838c016113a2565b965060608a0135955060808a0135945060a08a01359150808211156116e45783846116e1610f0b565b50505b6116f08b838c0161130a565b935060c08a013591508082111561170e57828361170b610f0b565b50505b5061171b8a828b016113a2565b91505092959891949750929550565b600080600080600080600060e0888a03121561174d57808161174a610f0b565b50505b87359650602088013567ffffffffffffffff80821115611774578283611771610f0b565b50505b6117808b838c0161130a565b975060408a013591508082111561179e57828361179b610f0b565b50505b6117aa8b838c016113a2565b965060608a01359150808211156117c85782836117c5610f0b565b50505b6117d48b838c0161151a565b955060808a01359150808211156117f25782836117ef610f0b565b50505b6117fe8b838c01611493565b945060a08a01359150808211156116e45782836116e1610f0b565b600060208284031215611833578081611830610f0b565b50505b81516112e781611eb7565b600060208284031215611858578081611855610f0b565b50505b813567ffffffffffffffff811115611877578182611874610f0b565b50505b8201601f8101841361189057818261188d610f0b565b50505b61189f84823560208401611259565b949350505050565b600080604083850312156118c25781826118bf610f0b565b50505b8251915060208301516118d481611eb7565b809150509250929050565b6001600160a01b03169052565b60008151808452611904816020860160208601611e87565b601f01601f19169290920160200192915050565b600081518352602082015160208401526040820151604084015260608201516060840152608082015160a0608085015261189f60a08501826118ec565b600060408301825184526020808401516040828701528281519384905250810191839060608701905b8083101561199e578451825293830193600192909201919083019061197e565b509695505050505050565b6000815115158352602082015160208401526040820151604084015260608201516060840152608082015160a0608085015261189f60a08501826118ec565b918252602082015260400190565b600088825287602083015260028710611a0b57fe5b8660f81b60408301526bffffffffffffffffffffffff19808760601b166041840152808660601b166055840152508360698301528251611a52816089850160208701611e87565b9190910160890198975050505050505050565b6001600160a01b0391909116815260200190565b6001600160a01b0394909416845260208401929092526040830152606082015260800190565b9283526001600160a01b03919091166020830152604082015260600190565b600084825260606020830152611ad76060830185611918565b8281036040840152611ae98185611955565b9695505050505050565b938452602084019290925260408301526001600160a01b0316606082015260800190565b60208082526041908201527f5374617465207472616e736974696f6e2070726f63657373206d75737420626560408201527f20636f6d706c65746564207072696f7220746f2066696e616c697a6174696f6e6060820152601760f91b608082015260a00190565b60208082526054908201527f506f73742d737461746520726f6f7420676c6f62616c20696e646578206d757360408201527f7420657175616c20746f207468652070726520737461746520726f6f7420676c60608201527337b130b61034b73232bc1038363ab99037b7329760611b608082015260a00190565b60208082526024908201527f496e76616c6964207472616e73616374696f6e20696e636c7573696f6e20707260408201526337b7b31760e11b606082015260800190565b60208082526028908201527f496e76616c696420706f73742d737461746520726f6f7420696e636c7573696f6040820152673710383937b7b31760c11b606082015260800190565b6020808252604c908201527f5072652d737461746520726f6f7420676c6f62616c20696e646578206d75737460408201527f20657175616c20746f20746865207472616e73616374696f6e20726f6f74206760608201526b3637b130b61034b73232bc1760a11b608082015260a00190565b60208082526030908201527f5374617465207472616e736974696f6e20686173206e6f74206265656e20707260408201526f37bb32b710333930bab23ab632b73a1760811b606082015260800190565b60208082526027908201527f496e76616c6964207072652d737461746520726f6f7420696e636c7573696f6e60408201526610383937b7b31760c91b606082015260800190565b6000602082526112e76020830184611918565b60006080825285516080830152602086015160a0830152604086015160028110611dc657fe5b60c08301526001600160a01b0360608701511660e08301526080860151611df16101008401826118df565b5060a086015161012083015260c086015160e0610140840152611e186101608401826118ec565b90508281036020840152611e2c81876119a9565b90508281036040840152611e408186611918565b90508281036060840152611e548185611955565b979650505050505050565b6000604051905081810181811067ffffffffffffffff82111715611e7f57fe5b604052919050565b60005b83811015611ea2578082015183820152602001611e8a565b83811115611eb1576000848401525b50505050565b6001600160a01b0381168114611ed257600080610f06610f0b565b50565b8015158114611ed257600080610f06610f0b56",
  "linkReferences": {},
  "deployedLinkReferences": {}
}