{
  "_format": "hh-sol-artifact-1",
  "contractName": "L1CrossDomainMessengerFast",
  "sourceName": "contracts/L1CrossDomainMessengerFast.sol",
  "abi": [
    {
      "inputs": [],
      "stateMutability": "nonpayable",
      "type": "constructor"
    },
    {
      "anonymous": false,
      "inputs": [
        {
          "indexed": true,
          "internalType": "bytes32",
          "name": "msgHash",
          "type": "bytes32"
        }
      ],
      "name": "FailedRelayedMessage",
      "type": "event"
    },
    {
      "anonymous": false,
      "inputs": [
        {
          "indexed": true,
          "internalType": "bytes32",
          "name": "_xDomainCalldataHash",
          "type": "bytes32"
        }
      ],
      "name": "MessageAllowed",
      "type": "event"
    },
    {
      "anonymous": false,
      "inputs": [
        {
          "indexed": true,
          "internalType": "bytes32",
          "name": "_xDomainCalldataHash",
          "type": "bytes32"
        }
      ],
      "name": "MessageBlocked",
      "type": "event"
    },
    {
      "anonymous": false,
      "inputs": [
        {
          "indexed": true,
          "internalType": "address",
          "name": "previousOwner",
          "type": "address"
        },
        {
          "indexed": true,
          "internalType": "address",
          "name": "newOwner",
          "type": "address"
        }
      ],
      "name": "OwnershipTransferred",
      "type": "event"
    },
    {
      "anonymous": false,
      "inputs": [
        {
          "indexed": false,
          "internalType": "address",
          "name": "account",
          "type": "address"
        }
      ],
      "name": "Paused",
      "type": "event"
    },
    {
      "anonymous": false,
      "inputs": [
        {
          "indexed": true,
          "internalType": "bytes32",
          "name": "msgHash",
          "type": "bytes32"
        }
      ],
      "name": "RelayedMessage",
      "type": "event"
    },
    {
      "anonymous": false,
      "inputs": [
        {
          "indexed": true,
          "internalType": "address",
          "name": "target",
          "type": "address"
        },
        {
          "indexed": false,
          "internalType": "address",
          "name": "sender",
          "type": "address"
        },
        {
          "indexed": false,
          "internalType": "bytes",
          "name": "message",
          "type": "bytes"
        },
        {
          "indexed": false,
          "internalType": "uint256",
          "name": "messageNonce",
          "type": "uint256"
        },
        {
          "indexed": false,
          "internalType": "uint256",
          "name": "gasLimit",
          "type": "uint256"
        }
      ],
      "name": "SentMessage",
      "type": "event"
    },
    {
      "anonymous": false,
      "inputs": [
        {
          "indexed": false,
          "internalType": "address",
          "name": "account",
          "type": "address"
        }
      ],
      "name": "Unpaused",
      "type": "event"
    },
    {
      "inputs": [
        {
          "internalType": "bytes32",
          "name": "_xDomainCalldataHash",
          "type": "bytes32"
        }
      ],
      "name": "allowMessage",
      "outputs": [],
      "stateMutability": "nonpayable",
      "type": "function"
    },
    {
      "inputs": [
        {
          "internalType": "bytes32",
          "name": "_xDomainCalldataHash",
          "type": "bytes32"
        }
      ],
      "name": "blockMessage",
      "outputs": [],
      "stateMutability": "nonpayable",
      "type": "function"
    },
    {
      "inputs": [
        {
          "internalType": "bytes32",
          "name": "",
          "type": "bytes32"
        }
      ],
      "name": "blockedMessages",
      "outputs": [
        {
          "internalType": "bool",
          "name": "",
          "type": "bool"
        }
      ],
      "stateMutability": "view",
      "type": "function"
    },
    {
      "inputs": [
        {
          "internalType": "bytes32",
          "name": "",
          "type": "bytes32"
        }
      ],
      "name": "failedMessages",
      "outputs": [
        {
          "internalType": "bool",
          "name": "",
          "type": "bool"
        }
      ],
      "stateMutability": "view",
      "type": "function"
    },
    {
      "inputs": [
        {
          "internalType": "address",
          "name": "_libAddressManager",
          "type": "address"
        }
      ],
      "name": "initialize",
      "outputs": [],
      "stateMutability": "nonpayable",
      "type": "function"
    },
    {
      "inputs": [],
      "name": "libAddressManager",
      "outputs": [
        {
          "internalType": "contract Lib_AddressManager",
          "name": "",
          "type": "address"
        }
      ],
      "stateMutability": "view",
      "type": "function"
    },
    {
      "inputs": [],
      "name": "owner",
      "outputs": [
        {
          "internalType": "address",
          "name": "",
          "type": "address"
        }
      ],
      "stateMutability": "view",
      "type": "function"
    },
    {
      "inputs": [],
      "name": "pause",
      "outputs": [],
      "stateMutability": "nonpayable",
      "type": "function"
    },
    {
      "inputs": [],
      "name": "paused",
      "outputs": [
        {
          "internalType": "bool",
          "name": "",
          "type": "bool"
        }
      ],
      "stateMutability": "view",
      "type": "function"
    },
    {
      "inputs": [
        {
          "internalType": "address",
          "name": "_target",
          "type": "address"
        },
        {
          "internalType": "address",
          "name": "_sender",
          "type": "address"
        },
        {
          "internalType": "bytes",
          "name": "_message",
          "type": "bytes"
        },
        {
          "internalType": "uint256",
          "name": "_messageNonce",
          "type": "uint256"
        },
        {
          "components": [
            {
              "internalType": "bytes32",
              "name": "stateRoot",
              "type": "bytes32"
            },
            {
              "components": [
                {
                  "internalType": "uint256",
                  "name": "batchIndex",
                  "type": "uint256"
                },
                {
                  "internalType": "bytes32",
                  "name": "batchRoot",
                  "type": "bytes32"
                },
                {
                  "internalType": "uint256",
                  "name": "batchSize",
                  "type": "uint256"
                },
                {
                  "internalType": "uint256",
                  "name": "prevTotalElements",
                  "type": "uint256"
                },
                {
                  "internalType": "bytes",
                  "name": "extraData",
                  "type": "bytes"
                }
              ],
              "internalType": "struct Lib_OVMCodec.ChainBatchHeader",
              "name": "stateRootBatchHeader",
              "type": "tuple"
            },
            {
              "components": [
                {
                  "internalType": "uint256",
                  "name": "index",
                  "type": "uint256"
                },
                {
                  "internalType": "bytes32[]",
                  "name": "siblings",
                  "type": "bytes32[]"
                }
              ],
              "internalType": "struct Lib_OVMCodec.ChainInclusionProof",
              "name": "stateRootProof",
              "type": "tuple"
            },
            {
              "internalType": "bytes",
              "name": "stateTrieWitness",
              "type": "bytes"
            },
            {
              "internalType": "bytes",
              "name": "storageTrieWitness",
              "type": "bytes"
            }
          ],
          "internalType": "struct IL1CrossDomainMessenger.L2MessageInclusionProof",
          "name": "_proof",
          "type": "tuple"
        },
        {
          "internalType": "bytes32",
          "name": "_standardBridgeDepositHash",
          "type": "bytes32"
        },
        {
          "internalType": "bytes32",
          "name": "_lpDepositHash",
          "type": "bytes32"
        }
      ],
      "name": "relayMessage",
      "outputs": [],
      "stateMutability": "nonpayable",
      "type": "function"
    },
    {
      "inputs": [
        {
          "internalType": "address",
          "name": "_target",
          "type": "address"
        },
        {
          "internalType": "address",
          "name": "_sender",
          "type": "address"
        },
        {
          "internalType": "bytes",
          "name": "_message",
          "type": "bytes"
        },
        {
          "internalType": "uint256",
          "name": "_messageNonce",
          "type": "uint256"
        },
        {
          "components": [
            {
              "internalType": "bytes32",
              "name": "stateRoot",
              "type": "bytes32"
            },
            {
              "components": [
                {
                  "internalType": "uint256",
                  "name": "batchIndex",
                  "type": "uint256"
                },
                {
                  "internalType": "bytes32",
                  "name": "batchRoot",
                  "type": "bytes32"
                },
                {
                  "internalType": "uint256",
                  "name": "batchSize",
                  "type": "uint256"
                },
                {
                  "internalType": "uint256",
                  "name": "prevTotalElements",
                  "type": "uint256"
                },
                {
                  "internalType": "bytes",
                  "name": "extraData",
                  "type": "bytes"
                }
              ],
              "internalType": "struct Lib_OVMCodec.ChainBatchHeader",
              "name": "stateRootBatchHeader",
              "type": "tuple"
            },
            {
              "components": [
                {
                  "internalType": "uint256",
                  "name": "index",
                  "type": "uint256"
                },
                {
                  "internalType": "bytes32[]",
                  "name": "siblings",
                  "type": "bytes32[]"
                }
              ],
              "internalType": "struct Lib_OVMCodec.ChainInclusionProof",
              "name": "stateRootProof",
              "type": "tuple"
            },
            {
              "internalType": "bytes",
              "name": "stateTrieWitness",
              "type": "bytes"
            },
            {
              "internalType": "bytes",
              "name": "storageTrieWitness",
              "type": "bytes"
            }
          ],
          "internalType": "struct IL1CrossDomainMessenger.L2MessageInclusionProof",
          "name": "_proof",
          "type": "tuple"
        }
      ],
      "name": "relayMessage",
      "outputs": [],
      "stateMutability": "nonpayable",
      "type": "function"
    },
    {
      "inputs": [
        {
          "internalType": "bytes32",
          "name": "",
          "type": "bytes32"
        }
      ],
      "name": "relayedMessages",
      "outputs": [
        {
          "internalType": "bool",
          "name": "",
          "type": "bool"
        }
      ],
      "stateMutability": "view",
      "type": "function"
    },
    {
      "inputs": [],
      "name": "renounceOwnership",
      "outputs": [],
      "stateMutability": "nonpayable",
      "type": "function"
    },
    {
      "inputs": [
        {
          "internalType": "address",
          "name": "_target",
          "type": "address"
        },
        {
          "internalType": "address",
          "name": "_sender",
          "type": "address"
        },
        {
          "internalType": "bytes",
          "name": "_message",
          "type": "bytes"
        },
        {
          "internalType": "uint256",
          "name": "_queueIndex",
          "type": "uint256"
        },
        {
          "internalType": "uint32",
          "name": "_oldGasLimit",
          "type": "uint32"
        },
        {
          "internalType": "uint32",
          "name": "_newGasLimit",
          "type": "uint32"
        }
      ],
      "name": "replayMessage",
      "outputs": [],
      "stateMutability": "nonpayable",
      "type": "function"
    },
    {
      "inputs": [
        {
          "internalType": "string",
          "name": "_name",
          "type": "string"
        }
      ],
      "name": "resolve",
      "outputs": [
        {
          "internalType": "address",
          "name": "",
          "type": "address"
        }
      ],
      "stateMutability": "view",
      "type": "function"
    },
    {
      "inputs": [
        {
          "internalType": "address",
          "name": "_target",
          "type": "address"
        },
        {
          "internalType": "bytes",
          "name": "_message",
          "type": "bytes"
        },
        {
          "internalType": "uint32",
          "name": "_gasLimit",
          "type": "uint32"
        }
      ],
      "name": "sendMessage",
      "outputs": [],
      "stateMutability": "nonpayable",
      "type": "function"
    },
    {
      "inputs": [
        {
          "internalType": "bytes32",
          "name": "",
          "type": "bytes32"
        }
      ],
      "name": "successfulMessages",
      "outputs": [
        {
          "internalType": "bool",
          "name": "",
          "type": "bool"
        }
      ],
      "stateMutability": "view",
      "type": "function"
    },
    {
      "inputs": [
        {
          "internalType": "address",
          "name": "newOwner",
          "type": "address"
        }
      ],
      "name": "transferOwnership",
      "outputs": [],
      "stateMutability": "nonpayable",
      "type": "function"
    },
    {
      "inputs": [],
      "name": "unpause",
      "outputs": [],
      "stateMutability": "nonpayable",
      "type": "function"
    },
    {
      "inputs": [],
      "name": "xDomainMessageSender",
      "outputs": [
        {
          "internalType": "address",
          "name": "",
          "type": "address"
        }
      ],
      "stateMutability": "view",
      "type": "function"
    }
  ],
  "bytecode": "0x608060405260cd80546001600160a01b03191661dead17905534801561002457600080fd5b50600080546001600160a01b0319169055613f91806100446000396000f3fe608060405234801561001057600080fd5b506004361061016c5760003560e01c8063715018a6116100cd578063b1b1b20911610081578063c6b94ab011610066578063c6b94ab0146102ff578063d7fd19dd14610322578063f2fde38b1461033557600080fd5b8063b1b1b209146102c9578063c4d66de8146102ec57600080fd5b80638456cb59116100b25780638456cb59146102805780638da5cb5b14610288578063a4e7f8bd146102a657600080fd5b8063715018a61461026557806381ada46c1461026d57600080fd5b8063461a44781161012457806369fdb52d1161010957806369fdb52d1461023c5780636e296e451461024f5780636f1c8d471461025757600080fd5b8063461a44781461021e5780635c975abb1461023157600080fd5b8063299ca47811610155578063299ca478146101be5780633dbb202b146102035780633f4ba83a1461021657600080fd5b80630ecf2eea1461017157806321d800ec14610186575b600080fd5b61018461017f36600461356c565b610348565b005b6101a961019436600461356c565b60ca6020526000908152604090205460ff1681565b60405190151581526020015b60405180910390f35b6000546101de9073ffffffffffffffffffffffffffffffffffffffff1681565b60405173ffffffffffffffffffffffffffffffffffffffff90911681526020016101b5565b6101846102113660046136e4565b6103f7565b610184610465565b6101de61022c366004613744565b6104d6565b60655460ff166101a9565b61018461024a366004613978565b610583565b6101de610653565b610184610211366004613a1e565b6101846106dd565b61018461027b36600461356c565b61074e565b6101846107f5565b60335473ffffffffffffffffffffffffffffffffffffffff166101de565b6101a96102b436600461356c565b60cc6020526000908152604090205460ff1681565b6101a96102d736600461356c565b60cb6020526000908152604090205460ff1681565b6101846102fa366004613aaa565b610864565b6101a961030d36600461356c565b60c96020526000908152604090205460ff1681565b610184610330366004613ac7565b610ab1565b610184610343366004613aaa565b611071565b60335473ffffffffffffffffffffffffffffffffffffffff1633146103b45760405162461bcd60e51b815260206004820181905260248201527f4f776e61626c653a2063616c6c6572206973206e6f7420746865206f776e657260448201526064015b60405180910390fd5b600081815260c96020526040808220805460ff191660011790555182917ff52508d5339edf0d7e5060a416df98db067af561bdc60872d29c0439eaa13a0291a250565b60405162461bcd60e51b815260206004820152602660248201527f53656e64696e67207669612074686973206d657373656e67657220697320646960448201527f7361626c6564000000000000000000000000000000000000000000000000000060648201526084016103ab565b60335473ffffffffffffffffffffffffffffffffffffffff1633146104cc5760405162461bcd60e51b815260206004820181905260248201527f4f776e61626c653a2063616c6c6572206973206e6f7420746865206f776e657260448201526064016103ab565b6104d461116d565b565b600080546040517fbf40fac100000000000000000000000000000000000000000000000000000000815273ffffffffffffffffffffffffffffffffffffffff9091169063bf40fac19061052d908590600401613bb2565b60206040518083038186803b15801561054557600080fd5b505afa158015610559573d6000803e3d6000fd5b505050506040513d601f19601f8201168201806040525081019061057d9190613bc5565b92915050565b600260975414156105d65760405162461bcd60e51b815260206004820152601f60248201527f5265656e7472616e637947756172643a207265656e7472616e742063616c6c0060448201526064016103ab565b600260975560655460ff161561062e5760405162461bcd60e51b815260206004820152601060248201527f5061757361626c653a207061757365640000000000000000000000000000000060448201526064016103ab565b6106388282611216565b6106458787878787610ab1565b505060016097555050505050565b60cd5460009073ffffffffffffffffffffffffffffffffffffffff1661dead14156106c05760405162461bcd60e51b815260206004820152601f60248201527f78446f6d61696e4d65737361676553656e646572206973206e6f74207365740060448201526064016103ab565b5060cd5473ffffffffffffffffffffffffffffffffffffffff1690565b60335473ffffffffffffffffffffffffffffffffffffffff1633146107445760405162461bcd60e51b815260206004820181905260248201527f4f776e61626c653a2063616c6c6572206973206e6f7420746865206f776e657260448201526064016103ab565b6104d4600061173c565b60335473ffffffffffffffffffffffffffffffffffffffff1633146107b55760405162461bcd60e51b815260206004820181905260248201527f4f776e61626c653a2063616c6c6572206973206e6f7420746865206f776e657260448201526064016103ab565b600081815260c96020526040808220805460ff191690555182917f52c8a2680a9f4cc0ad0bf88f32096eadbebf0646ea611d93a0ce6a29a024040591a250565b60335473ffffffffffffffffffffffffffffffffffffffff16331461085c5760405162461bcd60e51b815260206004820181905260248201527f4f776e61626c653a2063616c6c6572206973206e6f7420746865206f776e657260448201526064016103ab565b6104d46117b3565b6000547501000000000000000000000000000000000000000000900460ff16806108a9575060005474010000000000000000000000000000000000000000900460ff16155b61091b5760405162461bcd60e51b815260206004820152602e60248201527f496e697469616c697a61626c653a20636f6e747261637420697320616c72656160448201527f647920696e697469616c697a656400000000000000000000000000000000000060648201526084016103ab565b6000547501000000000000000000000000000000000000000000900460ff1615801561098257600080547fffffffffffffffffffff0000ffffffffffffffffffffffffffffffffffffffff1675010100000000000000000000000000000000000000001790555b60005473ffffffffffffffffffffffffffffffffffffffff1615610a0e5760405162461bcd60e51b815260206004820152602a60248201527f4c3143726f7373446f6d61696e4d657373656e67657220616c7265616479206960448201527f6e7469616c697a65642e0000000000000000000000000000000000000000000060648201526084016103ab565b6000805473ffffffffffffffffffffffffffffffffffffffff84167fffffffffffffffffffffffff00000000000000000000000000000000000000009182161790915560cd805490911661dead179055610a6661183b565b610a6e61198a565b610a76611ab1565b610a7e611c0a565b8015610aad57600080547fffffffffffffffffffff00ffffffffffffffffffffffffffffffffffffffffff1690555b5050565b6000610af16040518060400160405280601481526020017f4f564d5f4c324d65737361676552656c617965720000000000000000000000008152506104d6565b905073ffffffffffffffffffffffffffffffffffffffff811615610b9a573373ffffffffffffffffffffffffffffffffffffffff821614610b9a5760405162461bcd60e51b815260206004820152603660248201527f4f6e6c79204f564d5f4c324d65737361676552656c617965722063616e20726560448201527f6c6179204c322d746f2d4c31206d657373616765732e0000000000000000000060648201526084016103ab565b60026097541415610bed5760405162461bcd60e51b815260206004820152601f60248201527f5265656e7472616e637947756172643a207265656e7472616e742063616c6c0060448201526064016103ab565b600260975560655460ff1615610c455760405162461bcd60e51b815260206004820152601060248201527f5061757361626c653a207061757365640000000000000000000000000000000060448201526064016103ab565b6000610c5387878787611d5e565b9050610c5f8184611dd9565b1515600114610cd65760405162461bcd60e51b815260206004820152602760248201527f50726f7669646564206d65737361676520636f756c64206e6f7420626520766560448201527f7269666965642e0000000000000000000000000000000000000000000000000060648201526084016103ab565b8051602080830191909120600081815260cb90925260409091205460ff1615610d675760405162461bcd60e51b815260206004820152602b60248201527f50726f7669646564206d6573736167652068617320616c72656164792062656560448201527f6e2072656365697665642e00000000000000000000000000000000000000000060648201526084016103ab565b600081815260c9602052604090205460ff1615610dec5760405162461bcd60e51b815260206004820152602260248201527f50726f7669646564206d65737361676520686173206265656e20626c6f636b6560448201527f642e00000000000000000000000000000000000000000000000000000000000060648201526084016103ab565b610e2a6040518060400160405280601981526020017f43616e6f6e6963616c5472616e73616374696f6e436861696e000000000000008152506104d6565b73ffffffffffffffffffffffffffffffffffffffff168873ffffffffffffffffffffffffffffffffffffffff161415610ecb5760405162461bcd60e51b815260206004820152603360248201527f43616e6e6f742073656e64204c322d3e4c31206d6573736167657320746f204c60448201527f312073797374656d20636f6e7472616374732e0000000000000000000000000060648201526084016103ab565b60cd80547fffffffffffffffffffffffff00000000000000000000000000000000000000001673ffffffffffffffffffffffffffffffffffffffff898116919091179091556040516000918a1690610f24908990613be2565b6000604051808303816000865af19150503d8060008114610f61576040519150601f19603f3d011682016040523d82523d6000602084013e610f66565b606091505b505060cd80547fffffffffffffffffffffffff00000000000000000000000000000000000000001661dead179055905080151560011415610fe657600082815260cb6020526040808220805460ff191660011790555183917f4641df4a962071e12719d8c8c8e5ac7fc4d97b927346a3d7a335b1f7517e133c91a2611019565b600082815260cc60205260405183917f99d0e048484baa1b1540b1367cb128acd7ab2946d1ed91ec10e3c85e4bf51b8f91a25b600083334360405160200161103093929190613bfe565b60408051601f198184030181529181528151602092830120600090815260ca9092529020805460ff1916600190811790915560975550505050505050505050565b60335473ffffffffffffffffffffffffffffffffffffffff1633146110d85760405162461bcd60e51b815260206004820181905260248201527f4f776e61626c653a2063616c6c6572206973206e6f7420746865206f776e657260448201526064016103ab565b73ffffffffffffffffffffffffffffffffffffffff81166111615760405162461bcd60e51b815260206004820152602660248201527f4f776e61626c653a206e6577206f776e657220697320746865207a65726f206160448201527f646472657373000000000000000000000000000000000000000000000000000060648201526084016103ab565b61116a8161173c565b50565b60655460ff166111bf5760405162461bcd60e51b815260206004820152601460248201527f5061757361626c653a206e6f742070617573656400000000000000000000000060448201526064016103ab565b6065805460ff191690557f5db9ee0a495bf2e6ff9c91a7834c1ba4fdd244a5e8aa4e537bd38aeae4b073aa335b60405173ffffffffffffffffffffffffffffffffffffffff909116815260200160405180910390a1565b60006112566040518060400160405280601781526020017f50726f78795f5f4c315374616e646172644272696467650000000000000000008152506104d6565b905060006112986040518060400160405280601681526020017f50726f78795f5f4c314c6971756964697479506f6f6c000000000000000000008152506104d6565b90508173ffffffffffffffffffffffffffffffffffffffff166359326e6f6040518163ffffffff1660e01b8152600401602060405180830381600087803b1580156112e257600080fd5b505af11580156112f6573d6000803e3d6000fd5b505050506040513d601f19601f8201168201806040525081019061131a9190613c50565b43141561141a578173ffffffffffffffffffffffffffffffffffffffff1663f8fe09a36040518163ffffffff1660e01b8152600401602060405180830381600087803b15801561136957600080fd5b505af115801561137d573d6000803e3d6000fd5b505050506040513d601f19601f820116820180604052508101906113a19190613c50565b84146114155760405162461bcd60e51b815260206004820152602360248201527f5374616e64617264204272696467652068617368657320646f206e6f74206d6160448201527f746368000000000000000000000000000000000000000000000000000000000060648201526084016103ab565b61150e565b8173ffffffffffffffffffffffffffffffffffffffff1663a5ab61906040518163ffffffff1660e01b8152600401602060405180830381600087803b15801561146257600080fd5b505af1158015611476573d6000803e3d6000fd5b505050506040513d601f19601f8201168201806040525081019061149a9190613c50565b841461150e5760405162461bcd60e51b815260206004820152602360248201527f5374616e64617264204272696467652068617368657320646f206e6f74206d6160448201527f746368000000000000000000000000000000000000000000000000000000000060648201526084016103ab565b8073ffffffffffffffffffffffffffffffffffffffff166359326e6f6040518163ffffffff1660e01b8152600401602060405180830381600087803b15801561155657600080fd5b505af115801561156a573d6000803e3d6000fd5b505050506040513d601f19601f8201168201806040525081019061158e9190613c50565b431415611668578073ffffffffffffffffffffffffffffffffffffffff1663f8fe09a36040518163ffffffff1660e01b8152600401602060405180830381600087803b1580156115dd57600080fd5b505af11580156115f1573d6000803e3d6000fd5b505050506040513d601f19601f820116820180604052508101906116159190613c50565b83146116635760405162461bcd60e51b815260206004820152601760248201527f4c50312068617368657320646f206e6f74206d6174636800000000000000000060448201526064016103ab565b611736565b8073ffffffffffffffffffffffffffffffffffffffff1663a5ab61906040518163ffffffff1660e01b8152600401602060405180830381600087803b1580156116b057600080fd5b505af11580156116c4573d6000803e3d6000fd5b505050506040513d601f19601f820116820180604052508101906116e89190613c50565b83146117365760405162461bcd60e51b815260206004820152601760248201527f4c50312068617368657320646f206e6f74206d6174636800000000000000000060448201526064016103ab565b50505050565b6033805473ffffffffffffffffffffffffffffffffffffffff8381167fffffffffffffffffffffffff0000000000000000000000000000000000000000831681179093556040519116919082907f8be0079c531659141344cd1fd0a4f28419497f9722a3daafe3b4186f6b6457e090600090a35050565b60655460ff16156118065760405162461bcd60e51b815260206004820152601060248201527f5061757361626c653a207061757365640000000000000000000000000000000060448201526064016103ab565b6065805460ff191660011790557f62e78cea01bee320cd4e420270b5ea74000d11b0c9f74754ebdbfc544b05a2586111ec3390565b6000547501000000000000000000000000000000000000000000900460ff1680611880575060005474010000000000000000000000000000000000000000900460ff16155b6118f25760405162461bcd60e51b815260206004820152602e60248201527f496e697469616c697a61626c653a20636f6e747261637420697320616c72656160448201527f647920696e697469616c697a656400000000000000000000000000000000000060648201526084016103ab565b6000547501000000000000000000000000000000000000000000900460ff1615801561195957600080547fffffffffffffffffffff0000ffffffffffffffffffffffffffffffffffffffff1675010100000000000000000000000000000000000000001790555b801561116a57600080547fffffffffffffffffffff00ffffffffffffffffffffffffffffffffffffffffff16905550565b6000547501000000000000000000000000000000000000000000900460ff16806119cf575060005474010000000000000000000000000000000000000000900460ff16155b611a415760405162461bcd60e51b815260206004820152602e60248201527f496e697469616c697a61626c653a20636f6e747261637420697320616c72656160448201527f647920696e697469616c697a656400000000000000000000000000000000000060648201526084016103ab565b6000547501000000000000000000000000000000000000000000900460ff16158015611aa857600080547fffffffffffffffffffff0000ffffffffffffffffffffffffffffffffffffffff1675010100000000000000000000000000000000000000001790555b6119593361173c565b6000547501000000000000000000000000000000000000000000900460ff1680611af6575060005474010000000000000000000000000000000000000000900460ff16155b611b685760405162461bcd60e51b815260206004820152602e60248201527f496e697469616c697a61626c653a20636f6e747261637420697320616c72656160448201527f647920696e697469616c697a656400000000000000000000000000000000000060648201526084016103ab565b6000547501000000000000000000000000000000000000000000900460ff16158015611bcf57600080547fffffffffffffffffffff0000ffffffffffffffffffffffffffffffffffffffff1675010100000000000000000000000000000000000000001790555b6065805460ff19169055801561116a57600080547fffffffffffffffffffff00ffffffffffffffffffffffffffffffffffffffffff16905550565b6000547501000000000000000000000000000000000000000000900460ff1680611c4f575060005474010000000000000000000000000000000000000000900460ff16155b611cc15760405162461bcd60e51b815260206004820152602e60248201527f496e697469616c697a61626c653a20636f6e747261637420697320616c72656160448201527f647920696e697469616c697a656400000000000000000000000000000000000060648201526084016103ab565b6000547501000000000000000000000000000000000000000000900460ff16158015611d2857600080547fffffffffffffffffffff0000ffffffffffffffffffffffffffffffffffffffff1675010100000000000000000000000000000000000000001790555b6001609755801561116a57600080547fffffffffffffffffffff00ffffffffffffffffffffffffffffffffffffffffff16905550565b606084848484604051602401611d779493929190613c69565b60408051601f198184030181529190526020810180517bffffffffffffffffffffffffffffffffffffffffffffffffffffffff167fcbd4ece9000000000000000000000000000000000000000000000000000000001790529050949350505050565b6000611de482611dfc565b8015611df55750611df58383611ef0565b9392505050565b600080611e3d6040518060400160405280601481526020017f5374617465436f6d6d69746d656e74436861696e0000000000000000000000008152506104d6565b8351602085015160408087015190517f4d69ee5700000000000000000000000000000000000000000000000000000000815293945073ffffffffffffffffffffffffffffffffffffffff851693634d69ee5793611ea09390929091600401613cb3565b60206040518083038186803b158015611eb857600080fd5b505afa158015611ecc573d6000803e3d6000fd5b505050506040513d601f19601f82011682018060405250810190611df59190613d5e565b60008083734200000000000000000000000000000000000007604051602001611f1a929190613d80565b60408051601f1981840301815282825280516020918201209083015260009082015260600160408051601f198184030181529082905280516020918201207f42000000000000000000000000000000000000000000000000000000000000009183019190915291506000908190611faa9060340160408051601f19818403018152919052606087015187516120d4565b909250905060018215151461204d5760405162461bcd60e51b815260206004820152604d60248201527f4d6573736167652070617373696e67207072656465706c6f7920686173206e6f60448201527f74206265656e20696e697469616c697a6564206f7220696e76616c696420707260648201527f6f6f662070726f76696465642e00000000000000000000000000000000000000608482015260a4016103ab565b6000612058826120fd565b90506120c98460405160200161207091815260200190565b60408051601f19818403018152908290527f0100000000000000000000000000000000000000000000000000000000000000602083015290602101604051602081830303815290604052886080015184604001516121c1565b979650505050505050565b6000606060006120e3866121e5565b90506120f0818686612217565b9250925050935093915050565b60408051608081018252600080825260208201819052918101829052606081018290529061212a836122f2565b9050604051806080016040528061215a8360008151811061214d5761214d613dca565b6020026020010151612325565b81526020016121758360018151811061214d5761214d613dca565b815260200161219d8360028151811061219057612190613dca565b602002602001015161232c565b81526020016121b88360038151811061219057612190613dca565b90529392505050565b6000806121cd866121e5565b90506121db8186868661242e565b9695505050505050565b6060818051906020012060405160200161220191815260200190565b6040516020818303038152906040529050919050565b60006060600061222685612464565b90506000806000612238848a8961255f565b8151929550909350915015808061224c5750815b6122985760405162461bcd60e51b815260206004820152601a60248201527f50726f76696465642070726f6f6620697320696e76616c69642e00000000000060448201526064016103ab565b6000816122b457604051806020016040528060008152506122e0565b6122e0866122c3600188613e28565b815181106122d3576122d3613dca565b60200260200101516129fa565b919b919a509098505050505050505050565b60408051808201825260008082526020918201528151808301909252825182528083019082015260609061057d90612a24565b600061057d825b60006021826000015111156123835760405162461bcd60e51b815260206004820152601a60248201527f496e76616c696420524c5020627974657333322076616c75652e00000000000060448201526064016103ab565b600080600061239185612c23565b9194509250905060008160018111156123ac576123ac613e3f565b146123f95760405162461bcd60e51b815260206004820152601a60248201527f496e76616c696420524c5020627974657333322076616c75652e00000000000060448201526064016103ab565b600083866020015161240b9190613e6e565b805190915060208410156121db5760208490036101000a90049695505050505050565b600080600061243e878686612217565b915091508180156120c957508051602080830191909120875191880191909120146120c9565b60606000612471836122f2565b90506000815167ffffffffffffffff81111561248f5761248f6135a7565b6040519080825280602002602001820160405280156124d457816020015b60408051808201909152606080825260208201528152602001906001900390816124ad5790505b50905060005b82518110156125575760006125078483815181106124fa576124fa613dca565b6020026020010151612f74565b90506040518060400160405280828152602001612523836122f2565b81525083838151811061253857612538613dca565b602002602001018190525050808061254f90613e86565b9150506124da565b509392505050565b6000606081808061256f87613004565b90506000869050600080612596604051806040016040528060608152602001606081525090565b60005b8c518110156129b6578c81815181106125b4576125b4613dca565b6020026020010151915082846125ca9190613e6e565b93506125d7600188613e6e565b96508361263b578151805160209091012085146126365760405162461bcd60e51b815260206004820152601160248201527f496e76616c696420726f6f74206861736800000000000000000000000000000060448201526064016103ab565b6126f8565b81515160201161269d578151805160209091012085146126365760405162461bcd60e51b815260206004820152601b60248201527f496e76616c6964206c6172676520696e7465726e616c2068617368000000000060448201526064016103ab565b846126ab8360000151613187565b146126f85760405162461bcd60e51b815260206004820152601a60248201527f496e76616c696420696e7465726e616c206e6f6465206861736800000000000060448201526064016103ab565b61270460106001613e6e565b826020015151141561277d57855184141561271e576129b6565b600086858151811061273257612732613dca565b602001015160f81c60f81b60f81c9050600083602001518260ff168151811061275d5761275d613dca565b60200260200101519050612770816131af565b96506001945050506129a4565b6002826020015151141561295c576000612796836131e5565b90506000816000815181106127ad576127ad613dca565b016020015160f81c905060006127c4600283613eee565b6127cf906002613f10565b905060006127e0848360ff16613209565b905060006127ee8b8a613209565b905060006127fc838361323f565b905060ff851660021480612813575060ff85166003145b15612869578083511480156128285750808251145b1561283a57612837818b613e6e565b99505b507f800000000000000000000000000000000000000000000000000000000000000099506129b6945050505050565b60ff8516158061287c575060ff85166001145b156128ee57825181146128b857507f800000000000000000000000000000000000000000000000000000000000000099506129b6945050505050565b6128df88602001516001815181106128d2576128d2613dca565b60200260200101516131af565b9a5097506129a4945050505050565b60405162461bcd60e51b815260206004820152602660248201527f52656365697665642061206e6f6465207769746820616e20756e6b6e6f776e2060448201527f707265666978000000000000000000000000000000000000000000000000000060648201526084016103ab565b60405162461bcd60e51b815260206004820152601d60248201527f526563656976656420616e20756e706172736561626c65206e6f64652e00000060448201526064016103ab565b806129ae81613e86565b915050612599565b507f80000000000000000000000000000000000000000000000000000000000000008414866129e58786613209565b909e909d50909b509950505050505050505050565b6020810151805160609161057d91612a1490600190613e28565b815181106124fa576124fa613dca565b6060600080612a3284612c23565b91935090915060019050816001811115612a4e57612a4e613e3f565b14612a9b5760405162461bcd60e51b815260206004820152601760248201527f496e76616c696420524c50206c6973742076616c75652e00000000000000000060448201526064016103ab565b6040805160208082526104208201909252600091816020015b6040805180820190915260008082526020820152815260200190600190039081612ab45790505090506000835b8651811015612c185760208210612b605760405162461bcd60e51b815260206004820152602a60248201527f50726f766964656420524c50206c6973742065786365656473206d6178206c6960448201527f7374206c656e6774682e0000000000000000000000000000000000000000000060648201526084016103ab565b600080612b9d6040518060400160405280858c60000151612b819190613e28565b8152602001858c60200151612b969190613e6e565b9052612c23565b509150915060405180604001604052808383612bb99190613e6e565b8152602001848b60200151612bce9190613e6e565b815250858581518110612be357612be3613dca565b6020908102919091010152612bf9600185613e6e565b9350612c058183613e6e565b612c0f9084613e6e565b92505050612ae1565b508152949350505050565b600080600080846000015111612c7b5760405162461bcd60e51b815260206004820152601860248201527f524c50206974656d2063616e6e6f74206265206e756c6c2e000000000000000060448201526064016103ab565b6020840151805160001a607f8111612ca0576000600160009450945094505050612f6d565b60b78111612d1c576000612cb5608083613e28565b905080876000015111612d0a5760405162461bcd60e51b815260206004820152601960248201527f496e76616c696420524c502073686f727420737472696e672e0000000000000060448201526064016103ab565b60019550935060009250612f6d915050565b60bf8111612e0b576000612d3160b783613e28565b905080876000015111612d865760405162461bcd60e51b815260206004820152601f60248201527f496e76616c696420524c50206c6f6e6720737472696e67206c656e6774682e0060448201526064016103ab565b600183015160208290036101000a9004612da08183613e6e565b885111612def5760405162461bcd60e51b815260206004820152601860248201527f496e76616c696420524c50206c6f6e6720737472696e672e000000000000000060448201526064016103ab565b612dfa826001613e6e565b9650945060009350612f6d92505050565b60f78111612e86576000612e2060c083613e28565b905080876000015111612e755760405162461bcd60e51b815260206004820152601760248201527f496e76616c696420524c502073686f7274206c6973742e00000000000000000060448201526064016103ab565b600195509350849250612f6d915050565b6000612e9360f783613e28565b905080876000015111612ee85760405162461bcd60e51b815260206004820152601d60248201527f496e76616c696420524c50206c6f6e67206c697374206c656e6774682e00000060448201526064016103ab565b600183015160208290036101000a9004612f028183613e6e565b885111612f515760405162461bcd60e51b815260206004820152601660248201527f496e76616c696420524c50206c6f6e67206c6973742e0000000000000000000060448201526064016103ab565b612f5c826001613e6e565b9650945060019350612f6d92505050565b9193909250565b60606000806000612f8485612c23565b919450925090506000816001811115612f9f57612f9f613e3f565b14612fec5760405162461bcd60e51b815260206004820152601860248201527f496e76616c696420524c502062797465732076616c75652e000000000000000060448201526064016103ab565b612ffb856020015184846132eb565b95945050505050565b60606000825160026130169190613f33565b67ffffffffffffffff81111561302e5761302e6135a7565b6040519080825280601f01601f191660200182016040528015613058576020820181803683370190505b50905060005b835181101561318057600484828151811061307b5761307b613dca565b01602001517fff0000000000000000000000000000000000000000000000000000000000000016901c826130b0836002613f33565b815181106130c0576130c0613dca565b60200101907effffffffffffffffffffffffffffffffffffffffffffffffffffffffffffff1916908160001a905350601084828151811061310357613103613dca565b0160200151613115919060f81c613eee565b60f81b82613124836002613f33565b61312f906001613e6e565b8151811061313f5761313f613dca565b60200101907effffffffffffffffffffffffffffffffffffffffffffffffffffffffffffff1916908160001a9053508061317881613e86565b91505061305e565b5092915050565b600060208251101561319b57506020015190565b8180602001905181019061057d9190613c50565b600060606020836000015110156131d0576131c9836133ca565b90506131dc565b6131d983612f74565b90505b611df581613187565b606061057d61320483602001516000815181106124fa576124fa613dca565b613004565b606082518210613228575060408051602081019091526000815261057d565b611df5838384865161323a9190613e28565b6133d5565b6000805b8084511180156132535750808351115b80156132d4575082818151811061326c5761326c613dca565b602001015160f81c60f81b7effffffffffffffffffffffffffffffffffffffffffffffffffffffffffffff19168482815181106132ab576132ab613dca565b01602001517fff0000000000000000000000000000000000000000000000000000000000000016145b15611df557806132e381613e86565b915050613243565b606060008267ffffffffffffffff811115613308576133086135a7565b6040519080825280601f01601f191660200182016040528015613332576020820181803683370190505b509050805160001415613346579050611df5565b60006133528587613e6e565b90506020820160005b613366602087613f70565b81101561339d578251825261337c602084613e6e565b9250613389602083613e6e565b91508061339581613e86565b91505061335b565b5060006001602087066020036101000a039050808251168119845116178252839450505050509392505050565b606061057d82613556565b6060816133e381601f613e6e565b10156134315760405162461bcd60e51b815260206004820152600e60248201527f736c6963655f6f766572666c6f7700000000000000000000000000000000000060448201526064016103ab565b8261343c8382613e6e565b101561348a5760405162461bcd60e51b815260206004820152600e60248201527f736c6963655f6f766572666c6f7700000000000000000000000000000000000060448201526064016103ab565b6134948284613e6e565b845110156134e45760405162461bcd60e51b815260206004820152601160248201527f736c6963655f6f75744f66426f756e647300000000000000000000000000000060448201526064016103ab565b606082158015613503576040519150600082526020820160405261354d565b6040519150601f8416801560200281840101858101878315602002848b0101015b8183101561353c578051835260209283019201613524565b5050858452601f01601f1916604052505b50949350505050565b606061057d8260200151600084600001516132eb565b60006020828403121561357e57600080fd5b5035919050565b73ffffffffffffffffffffffffffffffffffffffff8116811461116a57600080fd5b7f4e487b7100000000000000000000000000000000000000000000000000000000600052604160045260246000fd5b60405160a0810167ffffffffffffffff811182821017156135f9576135f96135a7565b60405290565b6040805190810167ffffffffffffffff811182821017156135f9576135f96135a7565b604051601f8201601f1916810167ffffffffffffffff8111828210171561364b5761364b6135a7565b604052919050565b600067ffffffffffffffff83111561366d5761366d6135a7565b6136806020601f19601f86011601613622565b905082815283838301111561369457600080fd5b828260208301376000602084830101529392505050565b600082601f8301126136bc57600080fd5b611df583833560208501613653565b803563ffffffff811681146136df57600080fd5b919050565b6000806000606084860312156136f957600080fd5b833561370481613585565b9250602084013567ffffffffffffffff81111561372057600080fd5b61372c868287016136ab565b92505061373b604085016136cb565b90509250925092565b60006020828403121561375657600080fd5b813567ffffffffffffffff81111561376d57600080fd5b8201601f8101841361377e57600080fd5b61378d84823560208401613653565b949350505050565b600060a082840312156137a757600080fd5b6137af6135d6565b905081358152602082013560208201526040820135604082015260608201356060820152608082013567ffffffffffffffff8111156137ed57600080fd5b6137f9848285016136ab565b60808301525092915050565b60006040828403121561381757600080fd5b61381f6135ff565b90508135815260208083013567ffffffffffffffff8082111561384157600080fd5b818501915085601f83011261385557600080fd5b813581811115613867576138676135a7565b8060051b9150613878848301613622565b818152918301840191848101908884111561389257600080fd5b938501935b838510156138b057843582529385019390850190613897565b808688015250505050505092915050565b600060a082840312156138d357600080fd5b6138db6135d6565b905081358152602082013567ffffffffffffffff808211156138fc57600080fd5b61390885838601613795565b6020840152604084013591508082111561392157600080fd5b61392d85838601613805565b6040840152606084013591508082111561394657600080fd5b613952858386016136ab565b6060840152608084013591508082111561396b57600080fd5b506137f9848285016136ab565b600080600080600080600060e0888a03121561399357600080fd5b873561399e81613585565b965060208801356139ae81613585565b9550604088013567ffffffffffffffff808211156139cb57600080fd5b6139d78b838c016136ab565b965060608a0135955060808a01359150808211156139f457600080fd5b50613a018a828b016138c1565b93505060a0880135915060c0880135905092959891949750929550565b60008060008060008060c08789031215613a3757600080fd5b8635613a4281613585565b95506020870135613a5281613585565b9450604087013567ffffffffffffffff811115613a6e57600080fd5b613a7a89828a016136ab565b94505060608701359250613a90608088016136cb565b9150613a9e60a088016136cb565b90509295509295509295565b600060208284031215613abc57600080fd5b8135611df581613585565b600080600080600060a08688031215613adf57600080fd5b8535613aea81613585565b94506020860135613afa81613585565b9350604086013567ffffffffffffffff80821115613b1757600080fd5b613b2389838a016136ab565b9450606088013593506080880135915080821115613b4057600080fd5b50613b4d888289016138c1565b9150509295509295909350565b60005b83811015613b75578181015183820152602001613b5d565b838111156117365750506000910152565b60008151808452613b9e816020860160208601613b5a565b601f01601f19169290920160200192915050565b602081526000611df56020830184613b86565b600060208284031215613bd757600080fd5b8151611df581613585565b60008251613bf4818460208701613b5a565b9190910192915050565b60008451613c10818460208901613b5a565b60609490941b7fffffffffffffffffffffffffffffffffffffffff0000000000000000000000001691909301908152601481019190915260340192915050565b600060208284031215613c6257600080fd5b5051919050565b600073ffffffffffffffffffffffffffffffffffffffff808716835280861660208401525060806040830152613ca26080830185613b86565b905082606083015295945050505050565b8381526000602060608184015284516060840152808501516080840152604085015160a0840152606085015160c0840152608085015160a060e0850152613cfe610100850182613b86565b905083810360408501526040810185518252828601516040848401528181518084526060850191508583019450600093505b80841015613d505784518252938501936001939093019290850190613d30565b509998505050505050505050565b600060208284031215613d7057600080fd5b81518015158114611df557600080fd5b60008351613d92818460208801613b5a565b60609390931b7fffffffffffffffffffffffffffffffffffffffff000000000000000000000000169190920190815260140192915050565b7f4e487b7100000000000000000000000000000000000000000000000000000000600052603260045260246000fd5b7f4e487b7100000000000000000000000000000000000000000000000000000000600052601160045260246000fd5b600082821015613e3a57613e3a613df9565b500390565b7f4e487b7100000000000000000000000000000000000000000000000000000000600052602160045260246000fd5b60008219821115613e8157613e81613df9565b500190565b60007fffffffffffffffffffffffffffffffffffffffffffffffffffffffffffffffff821415613eb857613eb8613df9565b5060010190565b7f4e487b7100000000000000000000000000000000000000000000000000000000600052601260045260246000fd5b600060ff831680613f0157613f01613ebf565b8060ff84160691505092915050565b600060ff821660ff841680821015613f2a57613f2a613df9565b90039392505050565b6000817fffffffffffffffffffffffffffffffffffffffffffffffffffffffffffffffff0483118215151615613f6b57613f6b613df9565b500290565b600082613f7f57613f7f613ebf565b50049056fea164736f6c6343000809000a",
  "linkReferences": {},
  "deployedLinkReferences": {}
}