{
  "contractName": "Comp",
  "abi": [
    {
      "inputs": [
        {
          "internalType": "address",
          "name": "account",
          "type": "address"
        }
      ],
      "payable": false,
      "stateMutability": "nonpayable",
      "type": "constructor"
    },
    {
      "anonymous": false,
      "inputs": [
        {
          "indexed": true,
          "internalType": "address",
          "name": "owner",
          "type": "address"
        },
        {
          "indexed": true,
          "internalType": "address",
          "name": "spender",
          "type": "address"
        },
        {
          "indexed": false,
          "internalType": "uint256",
          "name": "amount",
          "type": "uint256"
        }
      ],
      "name": "Approval",
      "type": "event"
    },
    {
      "anonymous": false,
      "inputs": [
        {
          "indexed": true,
          "internalType": "address",
          "name": "delegator",
          "type": "address"
        },
        {
          "indexed": true,
          "internalType": "address",
          "name": "fromDelegate",
          "type": "address"
        },
        {
          "indexed": true,
          "internalType": "address",
          "name": "toDelegate",
          "type": "address"
        }
      ],
      "name": "DelegateChanged",
      "type": "event"
    },
    {
      "anonymous": false,
      "inputs": [
        {
          "indexed": true,
          "internalType": "address",
          "name": "delegate",
          "type": "address"
        },
        {
          "indexed": false,
          "internalType": "uint256",
          "name": "previousBalance",
          "type": "uint256"
        },
        {
          "indexed": false,
          "internalType": "uint256",
          "name": "newBalance",
          "type": "uint256"
        }
      ],
      "name": "DelegateVotesChanged",
      "type": "event"
    },
    {
      "anonymous": false,
      "inputs": [
        {
          "indexed": true,
          "internalType": "address",
          "name": "from",
          "type": "address"
        },
        {
          "indexed": true,
          "internalType": "address",
          "name": "to",
          "type": "address"
        },
        {
          "indexed": false,
          "internalType": "uint256",
          "name": "amount",
          "type": "uint256"
        }
      ],
      "name": "Transfer",
      "type": "event"
    },
    {
      "constant": true,
      "inputs": [],
      "name": "DELEGATION_TYPEHASH",
      "outputs": [
        {
          "internalType": "bytes32",
          "name": "",
          "type": "bytes32"
        }
      ],
      "payable": false,
      "stateMutability": "view",
      "type": "function"
    },
    {
      "constant": true,
      "inputs": [],
      "name": "DOMAIN_TYPEHASH",
      "outputs": [
        {
          "internalType": "bytes32",
          "name": "",
          "type": "bytes32"
        }
      ],
      "payable": false,
      "stateMutability": "view",
      "type": "function"
    },
    {
      "constant": true,
      "inputs": [
        {
          "internalType": "address",
          "name": "",
          "type": "address"
        },
        {
          "internalType": "uint32",
          "name": "",
          "type": "uint32"
        }
      ],
      "name": "checkpoints",
      "outputs": [
        {
          "internalType": "uint32",
          "name": "fromBlock",
          "type": "uint32"
        },
        {
          "internalType": "uint96",
          "name": "votes",
          "type": "uint96"
        }
      ],
      "payable": false,
      "stateMutability": "view",
      "type": "function"
    },
    {
      "constant": true,
      "inputs": [],
      "name": "decimals",
      "outputs": [
        {
          "internalType": "uint8",
          "name": "",
          "type": "uint8"
        }
      ],
      "payable": false,
      "stateMutability": "view",
      "type": "function"
    },
    {
      "constant": true,
      "inputs": [
        {
          "internalType": "address",
          "name": "",
          "type": "address"
        }
      ],
      "name": "delegates",
      "outputs": [
        {
          "internalType": "address",
          "name": "",
          "type": "address"
        }
      ],
      "payable": false,
      "stateMutability": "view",
      "type": "function"
    },
    {
      "constant": true,
      "inputs": [],
      "name": "name",
      "outputs": [
        {
          "internalType": "string",
          "name": "",
          "type": "string"
        }
      ],
      "payable": false,
      "stateMutability": "view",
      "type": "function"
    },
    {
      "constant": true,
      "inputs": [
        {
          "internalType": "address",
          "name": "",
          "type": "address"
        }
      ],
      "name": "nonces",
      "outputs": [
        {
          "internalType": "uint256",
          "name": "",
          "type": "uint256"
        }
      ],
      "payable": false,
      "stateMutability": "view",
      "type": "function"
    },
    {
      "constant": true,
      "inputs": [
        {
          "internalType": "address",
          "name": "",
          "type": "address"
        }
      ],
      "name": "numCheckpoints",
      "outputs": [
        {
          "internalType": "uint32",
          "name": "",
          "type": "uint32"
        }
      ],
      "payable": false,
      "stateMutability": "view",
      "type": "function"
    },
    {
      "constant": true,
      "inputs": [],
      "name": "symbol",
      "outputs": [
        {
          "internalType": "string",
          "name": "",
          "type": "string"
        }
      ],
      "payable": false,
      "stateMutability": "view",
      "type": "function"
    },
    {
      "constant": true,
      "inputs": [],
      "name": "totalSupply",
      "outputs": [
        {
          "internalType": "uint256",
          "name": "",
          "type": "uint256"
        }
      ],
      "payable": false,
      "stateMutability": "view",
      "type": "function"
    },
    {
      "constant": true,
      "inputs": [
        {
          "internalType": "address",
          "name": "account",
          "type": "address"
        },
        {
          "internalType": "address",
          "name": "spender",
          "type": "address"
        }
      ],
      "name": "allowance",
      "outputs": [
        {
          "internalType": "uint256",
          "name": "",
          "type": "uint256"
        }
      ],
      "payable": false,
      "stateMutability": "view",
      "type": "function"
    },
    {
      "constant": false,
      "inputs": [
        {
          "internalType": "address",
          "name": "spender",
          "type": "address"
        },
        {
          "internalType": "uint256",
          "name": "rawAmount",
          "type": "uint256"
        }
      ],
      "name": "approve",
      "outputs": [
        {
          "internalType": "bool",
          "name": "",
          "type": "bool"
        }
      ],
      "payable": false,
      "stateMutability": "nonpayable",
      "type": "function"
    },
    {
      "constant": true,
      "inputs": [
        {
          "internalType": "address",
          "name": "account",
          "type": "address"
        }
      ],
      "name": "balanceOf",
      "outputs": [
        {
          "internalType": "uint256",
          "name": "",
          "type": "uint256"
        }
      ],
      "payable": false,
      "stateMutability": "view",
      "type": "function"
    },
    {
      "constant": false,
      "inputs": [
        {
          "internalType": "address",
          "name": "dst",
          "type": "address"
        },
        {
          "internalType": "uint256",
          "name": "rawAmount",
          "type": "uint256"
        }
      ],
      "name": "transfer",
      "outputs": [
        {
          "internalType": "bool",
          "name": "",
          "type": "bool"
        }
      ],
      "payable": false,
      "stateMutability": "nonpayable",
      "type": "function"
    },
    {
      "constant": false,
      "inputs": [
        {
          "internalType": "address",
          "name": "src",
          "type": "address"
        },
        {
          "internalType": "address",
          "name": "dst",
          "type": "address"
        },
        {
          "internalType": "uint256",
          "name": "rawAmount",
          "type": "uint256"
        }
      ],
      "name": "transferFrom",
      "outputs": [
        {
          "internalType": "bool",
          "name": "",
          "type": "bool"
        }
      ],
      "payable": false,
      "stateMutability": "nonpayable",
      "type": "function"
    },
    {
      "constant": false,
      "inputs": [
        {
          "internalType": "address",
          "name": "delegatee",
          "type": "address"
        }
      ],
      "name": "delegate",
      "outputs": [],
      "payable": false,
      "stateMutability": "nonpayable",
      "type": "function"
    },
    {
      "constant": false,
      "inputs": [
        {
          "internalType": "address",
          "name": "delegatee",
          "type": "address"
        },
        {
          "internalType": "uint256",
          "name": "nonce",
          "type": "uint256"
        },
        {
          "internalType": "uint256",
          "name": "expiry",
          "type": "uint256"
        },
        {
          "internalType": "uint8",
          "name": "v",
          "type": "uint8"
        },
        {
          "internalType": "bytes32",
          "name": "r",
          "type": "bytes32"
        },
        {
          "internalType": "bytes32",
          "name": "s",
          "type": "bytes32"
        }
      ],
      "name": "delegateBySig",
      "outputs": [],
      "payable": false,
      "stateMutability": "nonpayable",
      "type": "function"
    },
    {
      "constant": true,
      "inputs": [
        {
          "internalType": "address",
          "name": "account",
          "type": "address"
        }
      ],
      "name": "getCurrentVotes",
      "outputs": [
        {
          "internalType": "uint96",
          "name": "",
          "type": "uint96"
        }
      ],
      "payable": false,
      "stateMutability": "view",
      "type": "function"
    },
    {
      "constant": true,
      "inputs": [
        {
          "internalType": "address",
          "name": "account",
          "type": "address"
        },
        {
          "internalType": "uint256",
          "name": "blockNumber",
          "type": "uint256"
        }
      ],
      "name": "getPriorVotes",
      "outputs": [
        {
          "internalType": "uint96",
          "name": "",
          "type": "uint96"
        }
      ],
      "payable": false,
      "stateMutability": "view",
      "type": "function"
    }
  ],
  "bytecode": "0x60806040523480156200001c5760008062000019620000ef565b50505b5060405162002509380380620025098339810160408190526200003f9162000224565b6001600160a01b038116600090815260016020526a084595161401484a0000009060409020600181620000716200015c565b816001600160601b0302191690836001600160601b031602179062000095620001be565b5050506001600160a01b03811660007fddf252ad1be2c89b69c2b068fc378daa952ba7f163c4a11628f55a4df523b3ef6a084595161401484a000000604051620000e0919062000269565b60405180910390a350620002b0565b632a2a7adb598160e01b8152600481016020815285602082015260005b86811015620001295780860151828201604001526020016200010c565b506020828760640184336000905af158600e01573d6000803e3d6000fd5b3d6001141558600a015760016000f35b505050565b6303daa959598160e01b8152836004820152602081602483336000905af158600e01573d6000803e3d6000fd5b3d6001141558600a015760016000f35b8051935060005b6040811015620001b957600082820152602001620001a0565b505050565b6322bd64c0598160e01b8152836004820152846024820152600081604483336000905af158600e01573d6000803e3d6000fd5b3d6001141558600a015760016000f35b600081526020620001a0565b6000815190506200021e816200028e565b92915050565b60006020828403121562000242576000806200023f620000ef565b50505b60006200025084846200020d565b949350505050565b62000263816200028b565b82525050565b602081016200021e828462000258565b60006001600160a01b0382166200021e565b90565b620002998162000279565b8114620002ad57600080620001b9620000ef565b50565b61224980620002c06000396000f3fe6080604052348015610019576000806100166115e2565b50505b50600436106100fa5760003560e01c806306fdde0314610108578063095ea7b31461012657806318160ddd1461014657806320606b701461015b57806323b872dd14610163578063313ce56714610176578063587cde1e1461018b5780635c19a95c146101ab5780636fcfff45146101c057806370a08231146101e0578063782d6fe1146101f35780637ecebe001461021357806395d89b4114610108578063a9059cbb14610226578063b4b5ea5714610239578063c3cda5201461024c578063dd62ed3e1461025f578063e7a324dc14610272578063f1127ed81461027a575b6000806101056115e2565b50505b61011061029b565b60405161011d9190611ef0565b60405180910390f35b6101396101343660046119c9565b6102b9565b60405161011d9190611e46565b61014e6103b5565b60405161011d9190611e54565b61014e6103c4565b610139610171366004611973565b6103db565b61017e61056a565b60405161011d9190611f8a565b61019e610199366004611901565b61056f565b60405161011d9190611e38565b6101be6101b9366004611901565b61059c565b005b6101d36101ce366004611901565b6105b1565b60405161011d9190611f61565b61014e6101ee366004611901565b6105db565b6102066102013660046119c9565b610616565b60405161011d9190611fa6565b61014e610221366004611901565b6108dd565b6101396102343660046119c9565b6108f8565b610206610247366004611901565b61093a565b6101be61025a366004611a02565b6109d6565b61014e61026d366004611930565b610c60565b61014e610cb5565b61028d610288366004611a92565b610cc1565b60405161011d929190611f6f565b604051604080820190526004815263424f424160e01b602082015281565b6000806000198314156102cf57506000196102f2565b6102ef836040516060810160405260258082526120ce6020830139610d1a565b90505b806000805a6102ff61164d565b6001600160a01b03166001600160a01b031681526020019081526020016000206001600160a01b0386166000908152602091909152604090206001816103436116a2565b816001600160601b0302191690836001600160601b03160217906103656116ee565b505050836001600160a01b03165a61037b61164d565b6001600160a01b0316600080516020612202833981519152836040516103a19190611f98565b60405180910390a360019150505b92915050565b6a084595161401484a00000081565b6040516103d090611e22565b604051809103902081565b6000805a6103e761164d565b6001600160a01b03861660009081526020819052909150604081206001600160a01b0383166000908152602091909152604090206000906104266116a2565b906101000a90046001600160601b03169050600061045a856040516060810160405260258082526120ce6020830139610d1a565b9050866001600160a01b0316836001600160a01b03161415801561048757506001600160601b0382811614155b156105505760006104af838360405160608101604052603d8082526121c56020830139610d5b565b6001600160a01b038916600090815260208190529091508190604090206001600160a01b0386166000908152602091909152604090206001816104f06116a2565b816001600160601b0302191690836001600160601b03160217906105126116ee565b505050836001600160a01b0316886001600160a01b0316600080516020612202833981519152836040516105469190611f98565b60405180910390a3505b61055b878783610dac565b600193505050505b9392505050565b601281565b6002602052806000526040600020600091506105896116a2565b906101000a90046001600160a01b031681565b6105ae5a6105a861164d565b82611011565b50565b6004602052806000526040600020600091506105cb6116a2565b906101000a900463ffffffff1681565b6001600160a01b03811660009081526001602052604081206000906105fe6116a2565b6001600160601b036101009290920a90041692915050565b60005a61062161173c565b82106106515760405162461bcd60e51b815260040161063f90611f21565b6040518091039061064e6115e2565b50505b6001600160a01b03831660009081526004602052604081206000906106746116a2565b63ffffffff6101009290920a9004169050806106945760009150506103af565b6001600160a01b0384166000908152600360205283906040902063ffffffff6000198401166000908152602091909152604090206000906106d36116a2565b906101000a900463ffffffff1663ffffffff1611610740576001600160a01b038416600090815260036020526040902063ffffffff6000198301166000908152602091909152604090206004906107286116a2565b906101000a90046001600160601b03169150506103af565b6001600160a01b038416600090815260036020528390604090206000808052602091909152604090206000906107746116a2565b906101000a900463ffffffff1663ffffffff1611156107975760009150506103af565b600060001982015b8163ffffffff168163ffffffff16111561088957600282820363ffffffff160481036107c9611782565b6001600160a01b038816600090815260036020526040902063ffffffff831660009081526020919091526040902060405160408082019052908160008261080e6116a2565b63ffffffff6101009290920a900416815260200160048261082d6116a2565b6001600160601b036101009290920a900416905250905086815163ffffffff161415610864578060200151955050505050506103af565b86815163ffffffff16101561087b57819350610882565b6001820392505b505061079f565b6001600160a01b038616600090815260036020526040902063ffffffff83166000908152602091909152604090206004906108c26116a2565b906101000a90046001600160601b0316935050505092915050565b600560205280600052604060002090506108f56116a2565b81565b60008061091b836040516060810160405260268082526121136020830139610d1a565b90506109305a61092961164d565b8583610dac565b5060019392505050565b6001600160a01b03811660009081526004602052806040812060009061095e6116a2565b906101000a900463ffffffff16905060008163ffffffff1611610982576000610563565b6001600160a01b038316600090815260036020526040902063ffffffff6000198301166000908152602091909152604090206004906109bf6116a2565b906101000a90046001600160601b03169392505050565b60006040516109e490611e22565b6040518091039020604051604080820190526004815263424f424160e01b602082015280519060200120610a16611128565b5a63996d79a5598160e01b8152602081600483336000905af158600e01573d6000803e3d6000fd5b3d6001141558600a015760016000f35b8051925060005b6040811015610a6c57600082820152602001610a55565b505050604051602001610a829493929190611ea0565b6040516020818303038152906040528051906020012090506000604051610aa890611e2d565b6040518091039020888888604051602001610ac69493929190611e62565b60405160208183030381529060405280519060200120905060008282604051602001610af3929190611df1565b604051602081830303815290604052805190602001209050600060018288888860405160008152602001604052604051610b309493929190611ed5565b6020604051602081039080840390855a610b48611799565b5050505050158015610b67573d6000803e3d6000610b646115e2565b50505b5050506020604051035190506001600160a01b038116610bab5760405162461bcd60e51b8152600401610b9990611f01565b60405180910390610ba86115e2565b50505b6001600160a01b0381166000908152600560205260409020600081610bce6116a2565b91600183019150610bdd6116ee565b50508914610c0f5760405162461bcd60e51b8152600401610bfd90611f31565b60405180910390610c0c6115e2565b50505b875a610c19611849565b1115610c495760405162461bcd60e51b8152600401610c3790611f11565b60405180910390610c466115e2565b50505b610c53818b611011565b505050505b505050505050565b6001600160a01b03821660009081526020819052604081206001600160a01b038316600090815260209190915260409020600090610c9c6116a2565b6001600160601b036101009290920a9004169392505050565b6040516103d090611e2d565b600360205281600052604060002060205280600052604060002091506000905081610cea6116a2565b63ffffffff6101009290920a90041690600481610d056116a2565b906101000a90046001600160601b0316905082565b600081600160601b8410610d535760405162461bcd60e51b8152600401610d419190611ef0565b60405180910390610d506115e2565b50505b509192915050565b6000836001600160601b0316836001600160601b031611158290610da45760405162461bcd60e51b8152600401610d929190611ef0565b60405180910390610da16115e2565b50505b505050900390565b6001600160a01b038316610de45760405162461bcd60e51b8152600401610dd290611f51565b60405180910390610de16115e2565b50505b6001600160a01b038216610e1c5760405162461bcd60e51b8152600401610e0a90611f41565b60405180910390610e196115e2565b50505b6001600160a01b03831660009081526001602052610e709060409020600090610e436116a2565b906101000a90046001600160601b0316826040516060810160405260368082526120986020830139610d5b565b6001600160a01b0384166000908152600160205260409020600181610e936116a2565b816001600160601b0302191690836001600160601b0316021790610eb56116ee565b5050506001600160a01b03821660009081526001602052610f0c9060409020600090610edf6116a2565b906101000a90046001600160601b031682604051606081016040526030808252612195602083013961113a565b6001600160a01b0383166000908152600160205260409020600181610f2f6116a2565b816001600160601b0302191690836001600160601b0316021790610f516116ee565b505050816001600160a01b0316836001600160a01b03167fddf252ad1be2c89b69c2b068fc378daa952ba7f163c4a11628f55a4df523b3ef83604051610f979190611f98565b60405180910390a36001600160a01b0383166000908152600260205261100c9060409020600090610fc66116a2565b6001600160a01b03858116600090815260026020526101009390930a909104169060409020600090610ff66116a2565b906101000a90046001600160a01b031683611188565b505050565b6001600160a01b03821660009081526002602052604081206000906110346116a2565b6001600160a01b03858116600090815260016020526101009390930a909104169150604081206000906110656116a2565b906101000a90046001600160601b031690508260026000866001600160a01b03166001600160a01b031681526020019081526020016000206001816110a86116a2565b816001600160a01b0302191690836001600160a01b03160217906110ca6116ee565b505050826001600160a01b0316826001600160a01b0316856001600160a01b03167f3134e8a2e6d97e929a7e54011ea5485d7d196dd5f0ba4d4ef95803e8e3fc257f60405160405180910390a4611122828483611188565b50505050565b6000805a61113461188f565b91505090565b6000838301826001600160601b03808716908316101561117f5760405162461bcd60e51b815260040161116d9190611ef0565b6040518091039061117c6115e2565b50505b50949350505050565b816001600160a01b0316836001600160a01b0316141580156111b357506000816001600160601b0316115b1561100c576001600160a01b03831615611294576001600160a01b03831660009081526004602052604081206000906111ea6116a2565b906101000a900463ffffffff1690506000808263ffffffff161161120f57600061125d565b6001600160a01b038516600090815260036020526040902063ffffffff60001984011660009081526020919091526040902060049061124c6116a2565b906101000a90046001600160601b03165b90506000611282828560405160608101604052602880825261216d6020830139610d5b565b905061129086848484611368565b5050505b6001600160a01b0382161561100c576001600160a01b03821660009081526004602052604081206000906112c66116a2565b906101000a900463ffffffff1690506000808263ffffffff16116112eb576000611339565b6001600160a01b038416600090815260036020526040902063ffffffff6000198401166000908152602091909152604090206004906113286116a2565b906101000a90046001600160601b03165b9050600061135e8285604051606081016040526027808252612222602083013961113a565b9050610c58858484845b60006113925a61137661173c565b60405160608101604052603480825261213960208301396115bb565b905060008463ffffffff161180156113ff57506001600160a01b0385166000908152600360205263ffffffff8216906040902063ffffffff6000198701166000908152602091909152604090206000906113ea6116a2565b906101000a900463ffffffff1663ffffffff16145b15611470576001600160a01b0385166000908152600360205282906040902063ffffffff600019870116600090815260209190915260409020600160201b816114466116a2565b816001600160601b0302191690836001600160601b03160217906114686116ee565b505050611571565b6040516040808201815263ffffffff831682526001600160601b0384166020808401919091526001600160a01b038816600090815260039091522063ffffffff86166000908152602091909152604090208151816001816114cf6116a2565b8163ffffffff021916908363ffffffff160217906114eb6116ee565b505050602082015181600160201b816115026116a2565b816001600160601b0302191690836001600160601b03160217906115246116ee565b5050506001600160a01b0387166000908152600460205260018701925060409150206001816115516116a2565b8163ffffffff021916908363ffffffff1602179061156d6116ee565b5050505b846001600160a01b03167fdec2bacdd2f05b59de34da9b523dff8be42e5e38e818c82fdb0bae774387a72484846040516115ac929190611fb4565b60405180910390a25050505050565b600081600160201b8410610d535760405162461bcd60e51b8152600401610d419190611ef0565b632a2a7adb598160e01b8152600481016020815285602082015260005b8681101561161a5780860151828201604001526020016115ff565b506020828760640184336000905af158600e01573d6000803e3d6000fd5b3d6001141558600a015760016000f35b505050565b6373509064598160e01b8152602081600483336000905af158600e01573d6000803e3d6000fd5b3d6001141558600a015760016000f35b8051935060005b604081101561100c5760008282015260200161168b565b6303daa959598160e01b8152836004820152602081602483336000905af158600e01573d6000803e3d6000fd5b3d6001141558600a015760016000f35b8051600082529350602061168b565b6322bd64c0598160e01b8152836004820152846024820152600081604483336000905af158600e01573d6000803e3d6000fd5b3d6001141558600a015760016000f35b60008152602061168b565b635a98c361598160e01b8152602081600483336000905af158600e01573d6000803e3d6000fd5b3d6001141558600a015760016000f35b8051600082529350602061168b565b604051604080820190526000808252602082015290565b638540661f598160e01b8152836004820152846024820152606060448201528660648201526084810160005b888110156117dd5780880151828201526020016117c5565b506060828960a40184336000905af158600e01573d6000803e3d6000fd5b3d6001141558600a015760016000f35b815160408301513d6000853e8b8b82606087013350600060045af15059845b8181101561183e576000815260200161182a565b50919b505050505050565b63bdbf8c36598160e01b8152602081600483336000905af158600e01573d6000803e3d6000fd5b3d6001141558600a015760016000f35b8051600082529350602061168b565b6390580256598160e01b8152602081600483336000905af158600e01573d6000803e3d6000fd5b3d6001141558600a015760016000f35b8051600082529350602061168b565b80356103af81612062565b80356103af8161207c565b80356103af81612085565b80356103af8161208e565b60006020828403121561191c576000806119196115e2565b50505b600061192884846118d5565b949350505050565b6000806040838503121561194c576000806119496115e2565b50505b600061195885856118d5565b9250506020611969858286016118d5565b9150509250929050565b6000806000606084860312156119915760008061198e6115e2565b50505b600061199d86866118d5565b93505060206119ae868287016118d5565b92505060406119bf868287016118e0565b9150509250925092565b600080604083850312156119e5576000806119e26115e2565b50505b60006119f185856118d5565b9250506020611969858286016118e0565b60008060008060008060c08789031215611a2457600080611a216115e2565b50505b6000611a3089896118d5565b9650506020611a4189828a016118e0565b9550506040611a5289828a016118e0565b9450506060611a6389828a016118f6565b9350506080611a7489828a016118e0565b92505060a0611a8589828a016118e0565b9150509295509295509295565b60008060408385031215611aae57600080611aab6115e2565b50505b6000611aba85856118d5565b9250506020611969858286016118eb565b611ad481611fe7565b82525050565b611ad481611ff2565b611ad481611ff7565b611ad4611af882611ff7565b611ff7565b6000611b0882611fcf565b611b128185611fd9565b9350611b2281856020860161202c565b611b2b81612058565b9093019392505050565b6000611b42602683611fd9565b7f436f6d703a3a64656c656761746542795369673a20696e76616c6964207369678152656e617475726560d01b602082015260400192915050565b6000611b8a602683611fd9565b7f436f6d703a3a64656c656761746542795369673a207369676e617475726520658152651e1c1a5c995960d21b602082015260400192915050565b6000611bd2600283611fe2565b61190160f01b815260020192915050565b6000611bf0602783611fd9565b7f436f6d703a3a6765745072696f72566f7465733a206e6f742079657420646574815266195c9b5a5b995960ca1b602082015260400192915050565b6000611c39602283611fd9565b7f436f6d703a3a64656c656761746542795369673a20696e76616c6964206e6f6e815261636560f01b602082015260400192915050565b6000611c7d603a83611fd9565b6000805160206120f3833981519152815279616e7366657220746f20746865207a65726f206164647265737360301b602082015260400192915050565b6000611cc7604383611fe2565b7f454950373132446f6d61696e28737472696e67206e616d652c75696e7432353681527f20636861696e49642c6164647265737320766572696679696e67436f6e74726160208201526263742960e81b604082015260430192915050565b6000611d32603c83611fd9565b6000805160206120f383398151915281527b616e736665722066726f6d20746865207a65726f206164647265737360201b602082015260400192915050565b6000611d7e603a83611fe2565b7f44656c65676174696f6e28616464726573732064656c6567617465652c75696e81527974323536206e6f6e63652c75696e74323536206578706972792960301b6020820152603a0192915050565b611ad481612006565b611ad48161200f565b611ad481612021565b611ad481612015565b6000611dfc82611bc5565b9150611e088285611aec565b602082019150611e188284611aec565b5060200192915050565b60006103af82611cba565b60006103af82611d71565b602081016103af8284611acb565b602081016103af8284611ada565b602081016103af8284611ae3565b60808101611e708287611ae3565b611e7d6020830186611acb565b611e8a6040830185611ae3565b611e976060830184611ae3565b95945050505050565b60808101611eae8287611ae3565b611ebb6020830186611ae3565b611ec86040830185611ae3565b611e976060830184611acb565b60808101611ee38287611ae3565b611e7d6020830186611dd6565b602080825281016105638184611afd565b602080825281016103af81611b35565b602080825281016103af81611b7d565b602080825281016103af81611be3565b602080825281016103af81611c2c565b602080825281016103af81611c70565b602080825281016103af81611d25565b602081016103af8284611dcd565b60408101611f7d8285611dcd565b6105636020830184611de8565b602081016103af8284611dd6565b602081016103af8284611ddf565b602081016103af8284611de8565b60408101611fc28285611ddf565b6105636020830184611ddf565b6000815192915050565b90815260200190565b919050565b60006103af82611ffa565b151590565b90565b6001600160a01b031690565b63ffffffff1690565b60ff1690565b6001600160601b031690565b60006103af82612015565b60005b8381101561204757808201518382015260200161202f565b838111156111225750506000910152565b601f01601f191690565b61206b81611fe7565b81146105ae5760008061100c6115e2565b61206b81611ff7565b61206b81612006565b61206b8161200f56fe436f6d703a3a5f7472616e73666572546f6b656e733a207472616e7366657220616d6f756e7420657863656564732062616c616e6365436f6d703a3a617070726f76653a20616d6f756e7420657863656564732039362062697473436f6d703a3a5f7472616e73666572546f6b656e733a2063616e6e6f74207472436f6d703a3a7472616e736665723a20616d6f756e7420657863656564732039362062697473436f6d703a3a5f7772697465436865636b706f696e743a20626c6f636b206e756d62657220657863656564732033322062697473436f6d703a3a5f6d6f7665566f7465733a20766f746520616d6f756e7420756e646572666c6f7773436f6d703a3a5f7472616e73666572546f6b656e733a207472616e7366657220616d6f756e74206f766572666c6f7773436f6d703a3a7472616e7366657246726f6d3a207472616e7366657220616d6f756e742065786365656473207370656e64657220616c6c6f77616e63658c5be1e5ebec7d5bd14f71427d1e84f3dd0314c0f7b2291e5b200ac8c7c3b925436f6d703a3a5f6d6f7665566f7465733a20766f746520616d6f756e74206f766572666c6f7773",
  "deployedBytecode": "0x6080604052348015610019576000806100166115e2565b50505b50600436106100fa5760003560e01c806306fdde0314610108578063095ea7b31461012657806318160ddd1461014657806320606b701461015b57806323b872dd14610163578063313ce56714610176578063587cde1e1461018b5780635c19a95c146101ab5780636fcfff45146101c057806370a08231146101e0578063782d6fe1146101f35780637ecebe001461021357806395d89b4114610108578063a9059cbb14610226578063b4b5ea5714610239578063c3cda5201461024c578063dd62ed3e1461025f578063e7a324dc14610272578063f1127ed81461027a575b6000806101056115e2565b50505b61011061029b565b60405161011d9190611ef0565b60405180910390f35b6101396101343660046119c9565b6102b9565b60405161011d9190611e46565b61014e6103b5565b60405161011d9190611e54565b61014e6103c4565b610139610171366004611973565b6103db565b61017e61056a565b60405161011d9190611f8a565b61019e610199366004611901565b61056f565b60405161011d9190611e38565b6101be6101b9366004611901565b61059c565b005b6101d36101ce366004611901565b6105b1565b60405161011d9190611f61565b61014e6101ee366004611901565b6105db565b6102066102013660046119c9565b610616565b60405161011d9190611fa6565b61014e610221366004611901565b6108dd565b6101396102343660046119c9565b6108f8565b610206610247366004611901565b61093a565b6101be61025a366004611a02565b6109d6565b61014e61026d366004611930565b610c60565b61014e610cb5565b61028d610288366004611a92565b610cc1565b60405161011d929190611f6f565b604051604080820190526004815263424f424160e01b602082015281565b6000806000198314156102cf57506000196102f2565b6102ef836040516060810160405260258082526120ce6020830139610d1a565b90505b806000805a6102ff61164d565b6001600160a01b03166001600160a01b031681526020019081526020016000206001600160a01b0386166000908152602091909152604090206001816103436116a2565b816001600160601b0302191690836001600160601b03160217906103656116ee565b505050836001600160a01b03165a61037b61164d565b6001600160a01b0316600080516020612202833981519152836040516103a19190611f98565b60405180910390a360019150505b92915050565b6a084595161401484a00000081565b6040516103d090611e22565b604051809103902081565b6000805a6103e761164d565b6001600160a01b03861660009081526020819052909150604081206001600160a01b0383166000908152602091909152604090206000906104266116a2565b906101000a90046001600160601b03169050600061045a856040516060810160405260258082526120ce6020830139610d1a565b9050866001600160a01b0316836001600160a01b03161415801561048757506001600160601b0382811614155b156105505760006104af838360405160608101604052603d8082526121c56020830139610d5b565b6001600160a01b038916600090815260208190529091508190604090206001600160a01b0386166000908152602091909152604090206001816104f06116a2565b816001600160601b0302191690836001600160601b03160217906105126116ee565b505050836001600160a01b0316886001600160a01b0316600080516020612202833981519152836040516105469190611f98565b60405180910390a3505b61055b878783610dac565b600193505050505b9392505050565b601281565b6002602052806000526040600020600091506105896116a2565b906101000a90046001600160a01b031681565b6105ae5a6105a861164d565b82611011565b50565b6004602052806000526040600020600091506105cb6116a2565b906101000a900463ffffffff1681565b6001600160a01b03811660009081526001602052604081206000906105fe6116a2565b6001600160601b036101009290920a90041692915050565b60005a61062161173c565b82106106515760405162461bcd60e51b815260040161063f90611f21565b6040518091039061064e6115e2565b50505b6001600160a01b03831660009081526004602052604081206000906106746116a2565b63ffffffff6101009290920a9004169050806106945760009150506103af565b6001600160a01b0384166000908152600360205283906040902063ffffffff6000198401166000908152602091909152604090206000906106d36116a2565b906101000a900463ffffffff1663ffffffff1611610740576001600160a01b038416600090815260036020526040902063ffffffff6000198301166000908152602091909152604090206004906107286116a2565b906101000a90046001600160601b03169150506103af565b6001600160a01b038416600090815260036020528390604090206000808052602091909152604090206000906107746116a2565b906101000a900463ffffffff1663ffffffff1611156107975760009150506103af565b600060001982015b8163ffffffff168163ffffffff16111561088957600282820363ffffffff160481036107c9611782565b6001600160a01b038816600090815260036020526040902063ffffffff831660009081526020919091526040902060405160408082019052908160008261080e6116a2565b63ffffffff6101009290920a900416815260200160048261082d6116a2565b6001600160601b036101009290920a900416905250905086815163ffffffff161415610864578060200151955050505050506103af565b86815163ffffffff16101561087b57819350610882565b6001820392505b505061079f565b6001600160a01b038616600090815260036020526040902063ffffffff83166000908152602091909152604090206004906108c26116a2565b906101000a90046001600160601b0316935050505092915050565b600560205280600052604060002090506108f56116a2565b81565b60008061091b836040516060810160405260268082526121136020830139610d1a565b90506109305a61092961164d565b8583610dac565b5060019392505050565b6001600160a01b03811660009081526004602052806040812060009061095e6116a2565b906101000a900463ffffffff16905060008163ffffffff1611610982576000610563565b6001600160a01b038316600090815260036020526040902063ffffffff6000198301166000908152602091909152604090206004906109bf6116a2565b906101000a90046001600160601b03169392505050565b60006040516109e490611e22565b6040518091039020604051604080820190526004815263424f424160e01b602082015280519060200120610a16611128565b5a63996d79a5598160e01b8152602081600483336000905af158601d01573d60011458600c01573d6000803e3d621234565260ea61109c528051925060005b6040811015610a6c57600082820152602001610a55565b505050604051602001610a829493929190611ea0565b6040516020818303038152906040528051906020012090506000604051610aa890611e2d565b6040518091039020888888604051602001610ac69493929190611e62565b60405160208183030381529060405280519060200120905060008282604051602001610af3929190611df1565b604051602081830303815290604052805190602001209050600060018288888860405160008152602001604052604051610b309493929190611ed5565b6020604051602081039080840390855a610b48611799565b5050505050158015610b67573d6000803e3d6000610b646115e2565b50505b5050506020604051035190506001600160a01b038116610bab5760405162461bcd60e51b8152600401610b9990611f01565b60405180910390610ba86115e2565b50505b6001600160a01b0381166000908152600560205260409020600081610bce6116a2565b91600183019150610bdd6116ee565b50508914610c0f5760405162461bcd60e51b8152600401610bfd90611f31565b60405180910390610c0c6115e2565b50505b875a610c19611849565b1115610c495760405162461bcd60e51b8152600401610c3790611f11565b60405180910390610c466115e2565b50505b610c53818b611011565b505050505b505050505050565b6001600160a01b03821660009081526020819052604081206001600160a01b038316600090815260209190915260409020600090610c9c6116a2565b6001600160601b036101009290920a9004169392505050565b6040516103d090611e2d565b600360205281600052604060002060205280600052604060002091506000905081610cea6116a2565b63ffffffff6101009290920a90041690600481610d056116a2565b906101000a90046001600160601b0316905082565b600081600160601b8410610d535760405162461bcd60e51b8152600401610d419190611ef0565b60405180910390610d506115e2565b50505b509192915050565b6000836001600160601b0316836001600160601b031611158290610da45760405162461bcd60e51b8152600401610d929190611ef0565b60405180910390610da16115e2565b50505b505050900390565b6001600160a01b038316610de45760405162461bcd60e51b8152600401610dd290611f51565b60405180910390610de16115e2565b50505b6001600160a01b038216610e1c5760405162461bcd60e51b8152600401610e0a90611f41565b60405180910390610e196115e2565b50505b6001600160a01b03831660009081526001602052610e709060409020600090610e436116a2565b906101000a90046001600160601b0316826040516060810160405260368082526120986020830139610d5b565b6001600160a01b0384166000908152600160205260409020600181610e936116a2565b816001600160601b0302191690836001600160601b0316021790610eb56116ee565b5050506001600160a01b03821660009081526001602052610f0c9060409020600090610edf6116a2565b906101000a90046001600160601b031682604051606081016040526030808252612195602083013961113a565b6001600160a01b0383166000908152600160205260409020600181610f2f6116a2565b816001600160601b0302191690836001600160601b0316021790610f516116ee565b505050816001600160a01b0316836001600160a01b03167fddf252ad1be2c89b69c2b068fc378daa952ba7f163c4a11628f55a4df523b3ef83604051610f979190611f98565b60405180910390a36001600160a01b0383166000908152600260205261100c9060409020600090610fc66116a2565b6001600160a01b03858116600090815260026020526101009390930a909104169060409020600090610ff66116a2565b906101000a90046001600160a01b031683611188565b505050565b6001600160a01b03821660009081526002602052604081206000906110346116a2565b6001600160a01b03858116600090815260016020526101009390930a909104169150604081206000906110656116a2565b906101000a90046001600160601b031690508260026000866001600160a01b03166001600160a01b031681526020019081526020016000206001816110a86116a2565b816001600160a01b0302191690836001600160a01b03160217906110ca6116ee565b505050826001600160a01b0316826001600160a01b0316856001600160a01b03167f3134e8a2e6d97e929a7e54011ea5485d7d196dd5f0ba4d4ef95803e8e3fc257f60405160405180910390a4611122828483611188565b50505050565b6000805a61113461188f565b91505090565b6000838301826001600160601b03808716908316101561117f5760405162461bcd60e51b815260040161116d9190611ef0565b6040518091039061117c6115e2565b50505b50949350505050565b816001600160a01b0316836001600160a01b0316141580156111b357506000816001600160601b0316115b1561100c576001600160a01b03831615611294576001600160a01b03831660009081526004602052604081206000906111ea6116a2565b906101000a900463ffffffff1690506000808263ffffffff161161120f57600061125d565b6001600160a01b038516600090815260036020526040902063ffffffff60001984011660009081526020919091526040902060049061124c6116a2565b906101000a90046001600160601b03165b90506000611282828560405160608101604052602880825261216d6020830139610d5b565b905061129086848484611368565b5050505b6001600160a01b0382161561100c576001600160a01b03821660009081526004602052604081206000906112c66116a2565b906101000a900463ffffffff1690506000808263ffffffff16116112eb576000611339565b6001600160a01b038416600090815260036020526040902063ffffffff6000198401166000908152602091909152604090206004906113286116a2565b906101000a90046001600160601b03165b9050600061135e8285604051606081016040526027808252612222602083013961113a565b9050610c58858484845b60006113925a61137661173c565b60405160608101604052603480825261213960208301396115bb565b905060008463ffffffff161180156113ff57506001600160a01b0385166000908152600360205263ffffffff8216906040902063ffffffff6000198701166000908152602091909152604090206000906113ea6116a2565b906101000a900463ffffffff1663ffffffff16145b15611470576001600160a01b0385166000908152600360205282906040902063ffffffff600019870116600090815260209190915260409020600160201b816114466116a2565b816001600160601b0302191690836001600160601b03160217906114686116ee565b505050611571565b6040516040808201815263ffffffff831682526001600160601b0384166020808401919091526001600160a01b038816600090815260039091522063ffffffff86166000908152602091909152604090208151816001816114cf6116a2565b8163ffffffff021916908363ffffffff160217906114eb6116ee565b505050602082015181600160201b816115026116a2565b816001600160601b0302191690836001600160601b03160217906115246116ee565b5050506001600160a01b0387166000908152600460205260018701925060409150206001816115516116a2565b8163ffffffff021916908363ffffffff1602179061156d6116ee565b5050505b846001600160a01b03167fdec2bacdd2f05b59de34da9b523dff8be42e5e38e818c82fdb0bae774387a72484846040516115ac929190611fb4565b60405180910390a25050505050565b600081600160201b8410610d535760405162461bcd60e51b8152600401610d419190611ef0565b632a2a7adb598160e01b8152600481016020815285602082015260005b8681101561161a5780860151828201604001526020016115ff565b506020828760640184336000905af158601d01573d60011458600c01573d6000803e3d621234565260ea61109c52505050565b6373509064598160e01b8152602081600483336000905af158601d01573d60011458600c01573d6000803e3d621234565260ea61109c528051935060005b604081101561100c5760008282015260200161168b565b6303daa959598160e01b8152836004820152602081602483336000905af158601d01573d60011458600c01573d6000803e3d621234565260ea61109c528051600082529350602061168b565b6322bd64c0598160e01b8152836004820152846024820152600081604483336000905af158601d01573d60011458600c01573d6000803e3d621234565260ea61109c5260008152602061168b565b635a98c361598160e01b8152602081600483336000905af158601d01573d60011458600c01573d6000803e3d621234565260ea61109c528051600082529350602061168b565b604051604080820190526000808252602082015290565b638540661f598160e01b8152836004820152846024820152606060448201528660648201526084810160005b888110156117dd5780880151828201526020016117c5565b506060828960a40184336000905af158601d01573d60011458600c01573d6000803e3d621234565260ea61109c52815160408301513d6000853e8b8b82606087013350600060045af15059845b8181101561183e576000815260200161182a565b50919b505050505050565b63bdbf8c36598160e01b8152602081600483336000905af158601d01573d60011458600c01573d6000803e3d621234565260ea61109c528051600082529350602061168b565b6390580256598160e01b8152602081600483336000905af158601d01573d60011458600c01573d6000803e3d621234565260ea61109c528051600082529350602061168b565b80356103af81612062565b80356103af8161207c565b80356103af81612085565b80356103af8161208e565b60006020828403121561191c576000806119196115e2565b50505b600061192884846118d5565b949350505050565b6000806040838503121561194c576000806119496115e2565b50505b600061195885856118d5565b9250506020611969858286016118d5565b9150509250929050565b6000806000606084860312156119915760008061198e6115e2565b50505b600061199d86866118d5565b93505060206119ae868287016118d5565b92505060406119bf868287016118e0565b9150509250925092565b600080604083850312156119e5576000806119e26115e2565b50505b60006119f185856118d5565b9250506020611969858286016118e0565b60008060008060008060c08789031215611a2457600080611a216115e2565b50505b6000611a3089896118d5565b9650506020611a4189828a016118e0565b9550506040611a5289828a016118e0565b9450506060611a6389828a016118f6565b9350506080611a7489828a016118e0565b92505060a0611a8589828a016118e0565b9150509295509295509295565b60008060408385031215611aae57600080611aab6115e2565b50505b6000611aba85856118d5565b9250506020611969858286016118eb565b611ad481611fe7565b82525050565b611ad481611ff2565b611ad481611ff7565b611ad4611af882611ff7565b611ff7565b6000611b0882611fcf565b611b128185611fd9565b9350611b2281856020860161202c565b611b2b81612058565b9093019392505050565b6000611b42602683611fd9565b7f436f6d703a3a64656c656761746542795369673a20696e76616c6964207369678152656e617475726560d01b602082015260400192915050565b6000611b8a602683611fd9565b7f436f6d703a3a64656c656761746542795369673a207369676e617475726520658152651e1c1a5c995960d21b602082015260400192915050565b6000611bd2600283611fe2565b61190160f01b815260020192915050565b6000611bf0602783611fd9565b7f436f6d703a3a6765745072696f72566f7465733a206e6f742079657420646574815266195c9b5a5b995960ca1b602082015260400192915050565b6000611c39602283611fd9565b7f436f6d703a3a64656c656761746542795369673a20696e76616c6964206e6f6e815261636560f01b602082015260400192915050565b6000611c7d603a83611fd9565b6000805160206120f3833981519152815279616e7366657220746f20746865207a65726f206164647265737360301b602082015260400192915050565b6000611cc7604383611fe2565b7f454950373132446f6d61696e28737472696e67206e616d652c75696e7432353681527f20636861696e49642c6164647265737320766572696679696e67436f6e74726160208201526263742960e81b604082015260430192915050565b6000611d32603c83611fd9565b6000805160206120f383398151915281527b616e736665722066726f6d20746865207a65726f206164647265737360201b602082015260400192915050565b6000611d7e603a83611fe2565b7f44656c65676174696f6e28616464726573732064656c6567617465652c75696e81527974323536206e6f6e63652c75696e74323536206578706972792960301b6020820152603a0192915050565b611ad481612006565b611ad48161200f565b611ad481612021565b611ad481612015565b6000611dfc82611bc5565b9150611e088285611aec565b602082019150611e188284611aec565b5060200192915050565b60006103af82611cba565b60006103af82611d71565b602081016103af8284611acb565b602081016103af8284611ada565b602081016103af8284611ae3565b60808101611e708287611ae3565b611e7d6020830186611acb565b611e8a6040830185611ae3565b611e976060830184611ae3565b95945050505050565b60808101611eae8287611ae3565b611ebb6020830186611ae3565b611ec86040830185611ae3565b611e976060830184611acb565b60808101611ee38287611ae3565b611e7d6020830186611dd6565b602080825281016105638184611afd565b602080825281016103af81611b35565b602080825281016103af81611b7d565b602080825281016103af81611be3565b602080825281016103af81611c2c565b602080825281016103af81611c70565b602080825281016103af81611d25565b602081016103af8284611dcd565b60408101611f7d8285611dcd565b6105636020830184611de8565b602081016103af8284611dd6565b602081016103af8284611ddf565b602081016103af8284611de8565b60408101611fc28285611ddf565b6105636020830184611ddf565b6000815192915050565b90815260200190565b919050565b60006103af82611ffa565b151590565b90565b6001600160a01b031690565b63ffffffff1690565b60ff1690565b6001600160601b031690565b60006103af82612015565b60005b8381101561204757808201518382015260200161202f565b838111156111225750506000910152565b601f01601f191690565b61206b81611fe7565b81146105ae5760008061100c6115e2565b61206b81611ff7565b61206b81612006565b61206b8161200f56fe436f6d703a3a5f7472616e73666572546f6b656e733a207472616e7366657220616d6f756e7420657863656564732062616c616e6365436f6d703a3a617070726f76653a20616d6f756e7420657863656564732039362062697473436f6d703a3a5f7472616e73666572546f6b656e733a2063616e6e6f74207472436f6d703a3a7472616e736665723a20616d6f756e7420657863656564732039362062697473436f6d703a3a5f7772697465436865636b706f696e743a20626c6f636b206e756d62657220657863656564732033322062697473436f6d703a3a5f6d6f7665566f7465733a20766f746520616d6f756e7420756e646572666c6f7773436f6d703a3a5f7472616e73666572546f6b656e733a207472616e7366657220616d6f756e74206f766572666c6f7773436f6d703a3a7472616e7366657246726f6d3a207472616e7366657220616d6f756e742065786365656473207370656e64657220616c6c6f77616e63658c5be1e5ebec7d5bd14f71427d1e84f3dd0314c0f7b2291e5b200ac8c7c3b925436f6d703a3a5f6d6f7665566f7465733a20766f746520616d6f756e74206f766572666c6f7773",
  "source": "pragma solidity ^0.5.16;\npragma experimental ABIEncoderV2;\n\ncontract Comp {\n    /// @notice EIP-20 token name for this token\n    string public constant name = \"BOBA\";\n\n    /// @notice EIP-20 token symbol for this token\n    string public constant symbol = \"BOBA\";\n\n    /// @notice EIP-20 token decimals for this token\n    uint8 public constant decimals = 18;\n\n    /// @notice Total number of tokens in circulation\n    uint public constant totalSupply = 10000000e18; // 10 million Comp\n\n    /// @notice Allowance amounts on behalf of others\n    mapping (address => mapping (address => uint96)) internal allowances;\n\n    /// @notice Official record of token balances for each account\n    mapping (address => uint96) internal balances;\n\n    /// @notice A record of each accounts delegate\n    mapping (address => address) public delegates;\n\n    /// @notice A checkpoint for marking number of votes from a given block\n    struct Checkpoint {\n        uint32 fromBlock;\n        uint96 votes;\n    }\n\n    /// @notice A record of votes checkpoints for each account, by index\n    mapping (address => mapping (uint32 => Checkpoint)) public checkpoints;\n\n    /// @notice The number of checkpoints for each account\n    mapping (address => uint32) public numCheckpoints;\n\n    /// @notice The EIP-712 typehash for the contract's domain\n    bytes32 public constant DOMAIN_TYPEHASH = keccak256(\"EIP712Domain(string name,uint256 chainId,address verifyingContract)\");\n\n    /// @notice The EIP-712 typehash for the delegation struct used by the contract\n    bytes32 public constant DELEGATION_TYPEHASH = keccak256(\"Delegation(address delegatee,uint256 nonce,uint256 expiry)\");\n\n    /// @notice A record of states for signing / validating signatures\n    mapping (address => uint) public nonces;\n\n    /// @notice An event thats emitted when an account changes its delegate\n    event DelegateChanged(address indexed delegator, address indexed fromDelegate, address indexed toDelegate);\n\n    /// @notice An event thats emitted when a delegate account's vote balance changes\n    event DelegateVotesChanged(address indexed delegate, uint previousBalance, uint newBalance);\n\n    /// @notice The standard EIP-20 transfer event\n    event Transfer(address indexed from, address indexed to, uint256 amount);\n\n    /// @notice The standard EIP-20 approval event\n    event Approval(address indexed owner, address indexed spender, uint256 amount);\n\n    /**\n     * @notice Construct a new Comp token\n     * @param account The initial account to grant all the tokens\n     */\n    constructor(address account) public {\n        balances[account] = uint96(totalSupply);\n        emit Transfer(address(0), account, totalSupply);\n    }\n\n    /**\n     * @notice Get the number of tokens `spender` is approved to spend on behalf of `account`\n     * @param account The address of the account holding the funds\n     * @param spender The address of the account spending the funds\n     * @return The number of tokens approved\n     */\n    function allowance(address account, address spender) external view returns (uint) {\n        return allowances[account][spender];\n    }\n\n    /**\n     * @notice Approve `spender` to transfer up to `amount` from `src`\n     * @dev This will overwrite the approval amount for `spender`\n     *  and is subject to issues noted [here](https://eips.ethereum.org/EIPS/eip-20#approve)\n     * @param spender The address of the account which may transfer tokens\n     * @param rawAmount The number of tokens that are approved (2^256-1 means infinite)\n     * @return Whether or not the approval succeeded\n     */\n    function approve(address spender, uint rawAmount) external returns (bool) {\n        uint96 amount;\n        if (rawAmount == uint(-1)) {\n            amount = uint96(-1);\n        } else {\n            amount = safe96(rawAmount, \"Comp::approve: amount exceeds 96 bits\");\n        }\n\n        allowances[msg.sender][spender] = amount;\n\n        emit Approval(msg.sender, spender, amount);\n        return true;\n    }\n\n    /**\n     * @notice Get the number of tokens held by the `account`\n     * @param account The address of the account to get the balance of\n     * @return The number of tokens held\n     */\n    function balanceOf(address account) external view returns (uint) {\n        return balances[account];\n    }\n\n    /**\n     * @notice Transfer `amount` tokens from `msg.sender` to `dst`\n     * @param dst The address of the destination account\n     * @param rawAmount The number of tokens to transfer\n     * @return Whether or not the transfer succeeded\n     */\n    function transfer(address dst, uint rawAmount) external returns (bool) {\n        uint96 amount = safe96(rawAmount, \"Comp::transfer: amount exceeds 96 bits\");\n        _transferTokens(msg.sender, dst, amount);\n        return true;\n    }\n\n    /**\n     * @notice Transfer `amount` tokens from `src` to `dst`\n     * @param src The address of the source account\n     * @param dst The address of the destination account\n     * @param rawAmount The number of tokens to transfer\n     * @return Whether or not the transfer succeeded\n     */\n    function transferFrom(address src, address dst, uint rawAmount) external returns (bool) {\n        address spender = msg.sender;\n        uint96 spenderAllowance = allowances[src][spender];\n        uint96 amount = safe96(rawAmount, \"Comp::approve: amount exceeds 96 bits\");\n\n        if (spender != src && spenderAllowance != uint96(-1)) {\n            uint96 newAllowance = sub96(spenderAllowance, amount, \"Comp::transferFrom: transfer amount exceeds spender allowance\");\n            allowances[src][spender] = newAllowance;\n\n            emit Approval(src, spender, newAllowance);\n        }\n\n        _transferTokens(src, dst, amount);\n        return true;\n    }\n\n    /**\n     * @notice Delegate votes from `msg.sender` to `delegatee`\n     * @param delegatee The address to delegate votes to\n     */\n    function delegate(address delegatee) public {\n        return _delegate(msg.sender, delegatee);\n    }\n\n    /**\n     * @notice Delegates votes from signatory to `delegatee`\n     * @param delegatee The address to delegate votes to\n     * @param nonce The contract state required to match the signature\n     * @param expiry The time at which to expire the signature\n     * @param v The recovery byte of the signature\n     * @param r Half of the ECDSA signature pair\n     * @param s Half of the ECDSA signature pair\n     */\n    function delegateBySig(address delegatee, uint nonce, uint expiry, uint8 v, bytes32 r, bytes32 s) public {\n        bytes32 domainSeparator = keccak256(abi.encode(DOMAIN_TYPEHASH, keccak256(bytes(name)), getChainId(), address(this)));\n        bytes32 structHash = keccak256(abi.encode(DELEGATION_TYPEHASH, delegatee, nonce, expiry));\n        bytes32 digest = keccak256(abi.encodePacked(\"\\x19\\x01\", domainSeparator, structHash));\n        address signatory = ecrecover(digest, v, r, s);\n        require(signatory != address(0), \"Comp::delegateBySig: invalid signature\");\n        require(nonce == nonces[signatory]++, \"Comp::delegateBySig: invalid nonce\");\n        require(now <= expiry, \"Comp::delegateBySig: signature expired\");\n        return _delegate(signatory, delegatee);\n    }\n\n    /**\n     * @notice Gets the current votes balance for `account`\n     * @param account The address to get votes balance\n     * @return The number of current votes for `account`\n     */\n    function getCurrentVotes(address account) external view returns (uint96) {\n        uint32 nCheckpoints = numCheckpoints[account];\n        return nCheckpoints > 0 ? checkpoints[account][nCheckpoints - 1].votes : 0;\n    }\n\n    /**\n     * @notice Determine the prior number of votes for an account as of a block number\n     * @dev Block number must be a finalized block or else this function will revert to prevent misinformation.\n     * @param account The address of the account to check\n     * @param blockNumber The block number to get the vote balance at\n     * @return The number of votes the account had as of the given block\n     */\n    function getPriorVotes(address account, uint blockNumber) public view returns (uint96) {\n        require(blockNumber < block.number, \"Comp::getPriorVotes: not yet determined\");\n\n        uint32 nCheckpoints = numCheckpoints[account];\n        if (nCheckpoints == 0) {\n            return 0;\n        }\n\n        // First check most recent balance\n        if (checkpoints[account][nCheckpoints - 1].fromBlock <= blockNumber) {\n            return checkpoints[account][nCheckpoints - 1].votes;\n        }\n\n        // Next check implicit zero balance\n        if (checkpoints[account][0].fromBlock > blockNumber) {\n            return 0;\n        }\n\n        uint32 lower = 0;\n        uint32 upper = nCheckpoints - 1;\n        while (upper > lower) {\n            uint32 center = upper - (upper - lower) / 2; // ceil, avoiding overflow\n            Checkpoint memory cp = checkpoints[account][center];\n            if (cp.fromBlock == blockNumber) {\n                return cp.votes;\n            } else if (cp.fromBlock < blockNumber) {\n                lower = center;\n            } else {\n                upper = center - 1;\n            }\n        }\n        return checkpoints[account][lower].votes;\n    }\n\n    function _delegate(address delegator, address delegatee) internal {\n        address currentDelegate = delegates[delegator];\n        uint96 delegatorBalance = balances[delegator];\n        delegates[delegator] = delegatee;\n\n        emit DelegateChanged(delegator, currentDelegate, delegatee);\n\n        _moveDelegates(currentDelegate, delegatee, delegatorBalance);\n    }\n\n    function _transferTokens(address src, address dst, uint96 amount) internal {\n        require(src != address(0), \"Comp::_transferTokens: cannot transfer from the zero address\");\n        require(dst != address(0), \"Comp::_transferTokens: cannot transfer to the zero address\");\n\n        balances[src] = sub96(balances[src], amount, \"Comp::_transferTokens: transfer amount exceeds balance\");\n        balances[dst] = add96(balances[dst], amount, \"Comp::_transferTokens: transfer amount overflows\");\n        emit Transfer(src, dst, amount);\n\n        _moveDelegates(delegates[src], delegates[dst], amount);\n    }\n\n    function _moveDelegates(address srcRep, address dstRep, uint96 amount) internal {\n        if (srcRep != dstRep && amount > 0) {\n            if (srcRep != address(0)) {\n                uint32 srcRepNum = numCheckpoints[srcRep];\n                uint96 srcRepOld = srcRepNum > 0 ? checkpoints[srcRep][srcRepNum - 1].votes : 0;\n                uint96 srcRepNew = sub96(srcRepOld, amount, \"Comp::_moveVotes: vote amount underflows\");\n                _writeCheckpoint(srcRep, srcRepNum, srcRepOld, srcRepNew);\n            }\n\n            if (dstRep != address(0)) {\n                uint32 dstRepNum = numCheckpoints[dstRep];\n                uint96 dstRepOld = dstRepNum > 0 ? checkpoints[dstRep][dstRepNum - 1].votes : 0;\n                uint96 dstRepNew = add96(dstRepOld, amount, \"Comp::_moveVotes: vote amount overflows\");\n                _writeCheckpoint(dstRep, dstRepNum, dstRepOld, dstRepNew);\n            }\n        }\n    }\n\n    function _writeCheckpoint(address delegatee, uint32 nCheckpoints, uint96 oldVotes, uint96 newVotes) internal {\n      uint32 blockNumber = safe32(block.number, \"Comp::_writeCheckpoint: block number exceeds 32 bits\");\n\n      if (nCheckpoints > 0 && checkpoints[delegatee][nCheckpoints - 1].fromBlock == blockNumber) {\n          checkpoints[delegatee][nCheckpoints - 1].votes = newVotes;\n      } else {\n          checkpoints[delegatee][nCheckpoints] = Checkpoint(blockNumber, newVotes);\n          numCheckpoints[delegatee] = nCheckpoints + 1;\n      }\n\n      emit DelegateVotesChanged(delegatee, oldVotes, newVotes);\n    }\n\n    function safe32(uint n, string memory errorMessage) internal pure returns (uint32) {\n        require(n < 2**32, errorMessage);\n        return uint32(n);\n    }\n\n    function safe96(uint n, string memory errorMessage) internal pure returns (uint96) {\n        require(n < 2**96, errorMessage);\n        return uint96(n);\n    }\n\n    function add96(uint96 a, uint96 b, string memory errorMessage) internal pure returns (uint96) {\n        uint96 c = a + b;\n        require(c >= a, errorMessage);\n        return c;\n    }\n\n    function sub96(uint96 a, uint96 b, string memory errorMessage) internal pure returns (uint96) {\n        require(b <= a, errorMessage);\n        return a - b;\n    }\n\n    function getChainId() internal pure returns (uint) {\n        uint256 chainId;\n        assembly { chainId := chainid() }\n        return chainId;\n    }\n}\n",
  "sourcePath": "/home/ecambronero/Developer/Enya/optimism/omgx_examples/compound-protocol/contracts/Governance/Comp.sol",
  "compiler": {
    "name": "solc",
    "version": "0.5.16"
  },
  "schemaVersion": "3.4.2",
  "updatedAt": "2021-08-02T17:26:50.001Z",
  "networkType": "ethereum",
  "devdoc": {
    "methods": {
      "allowance(address,address)": {
        "params": {
          "account": "The address of the account holding the funds",
          "spender": "The address of the account spending the funds"
        },
        "return": "The number of tokens approved"
      },
      "approve(address,uint256)": {
        "details": "This will overwrite the approval amount for `spender` and is subject to issues noted [here](https://eips.ethereum.org/EIPS/eip-20#approve)",
        "params": {
          "rawAmount": "The number of tokens that are approved (2^256-1 means infinite)",
          "spender": "The address of the account which may transfer tokens"
        },
        "return": "Whether or not the approval succeeded"
      },
      "balanceOf(address)": {
        "params": {
          "account": "The address of the account to get the balance of"
        },
        "return": "The number of tokens held"
      },
      "constructor": {
        "params": {
          "account": "The initial account to grant all the tokens"
        }
      },
      "delegate(address)": {
        "params": {
          "delegatee": "The address to delegate votes to"
        }
      },
      "delegateBySig(address,uint256,uint256,uint8,bytes32,bytes32)": {
        "params": {
          "delegatee": "The address to delegate votes to",
          "expiry": "The time at which to expire the signature",
          "nonce": "The contract state required to match the signature",
          "r": "Half of the ECDSA signature pair",
          "s": "Half of the ECDSA signature pair",
          "v": "The recovery byte of the signature"
        }
      },
      "getCurrentVotes(address)": {
        "params": {
          "account": "The address to get votes balance"
        },
        "return": "The number of current votes for `account`"
      },
      "getPriorVotes(address,uint256)": {
        "details": "Block number must be a finalized block or else this function will revert to prevent misinformation.",
        "params": {
          "account": "The address of the account to check",
          "blockNumber": "The block number to get the vote balance at"
        },
        "return": "The number of votes the account had as of the given block"
      },
      "transfer(address,uint256)": {
        "params": {
          "dst": "The address of the destination account",
          "rawAmount": "The number of tokens to transfer"
        },
        "return": "Whether or not the transfer succeeded"
      },
      "transferFrom(address,address,uint256)": {
        "params": {
          "dst": "The address of the destination account",
          "rawAmount": "The number of tokens to transfer",
          "src": "The address of the source account"
        },
        "return": "Whether or not the transfer succeeded"
      }
    }
  },
  "userdoc": {
    "methods": {
      "allowance(address,address)": {
        "notice": "Get the number of tokens `spender` is approved to spend on behalf of `account`"
      },
      "approve(address,uint256)": {
        "notice": "Approve `spender` to transfer up to `amount` from `src`"
      },
      "balanceOf(address)": {
        "notice": "Get the number of tokens held by the `account`"
      },
      "constructor": "Construct a new Comp token",
      "delegate(address)": {
        "notice": "Delegate votes from `msg.sender` to `delegatee`"
      },
      "delegateBySig(address,uint256,uint256,uint8,bytes32,bytes32)": {
        "notice": "Delegates votes from signatory to `delegatee`"
      },
      "getCurrentVotes(address)": {
        "notice": "Gets the current votes balance for `account`"
      },
      "getPriorVotes(address,uint256)": {
        "notice": "Determine the prior number of votes for an account as of a block number"
      },
      "transfer(address,uint256)": {
        "notice": "Transfer `amount` tokens from `msg.sender` to `dst`"
      },
      "transferFrom(address,address,uint256)": {
        "notice": "Transfer `amount` tokens from `src` to `dst`"
      }
    }
  }
}