{
  "_format": "hh-sol-artifact-1",
  "contractName": "CanonicalTransactionChain",
  "sourceName": "contracts/L1/rollup/CanonicalTransactionChain.sol",
  "abi": [
    {
      "inputs": [
        {
          "internalType": "address",
          "name": "_libAddressManager",
          "type": "address"
        },
        {
          "internalType": "uint256",
          "name": "_maxTransactionGasLimit",
          "type": "uint256"
        },
        {
          "internalType": "uint256",
          "name": "_l2GasDiscountDivisor",
          "type": "uint256"
        },
        {
          "internalType": "uint256",
          "name": "_enqueueGasCost",
          "type": "uint256"
        }
      ],
      "stateMutability": "nonpayable",
      "type": "constructor"
    },
    {
      "anonymous": false,
      "inputs": [
        {
          "indexed": false,
          "internalType": "uint256",
          "name": "_startingQueueIndex",
          "type": "uint256"
        },
        {
          "indexed": false,
          "internalType": "uint256",
          "name": "_numQueueElements",
          "type": "uint256"
        },
        {
          "indexed": false,
          "internalType": "uint256",
          "name": "_totalElements",
          "type": "uint256"
        }
      ],
      "name": "QueueBatchAppended",
      "type": "event"
    },
    {
      "anonymous": false,
      "inputs": [
        {
          "indexed": false,
          "internalType": "uint256",
          "name": "_startingQueueIndex",
          "type": "uint256"
        },
        {
          "indexed": false,
          "internalType": "uint256",
          "name": "_numQueueElements",
          "type": "uint256"
        },
        {
          "indexed": false,
          "internalType": "uint256",
          "name": "_totalElements",
          "type": "uint256"
        }
      ],
      "name": "SequencerBatchAppended",
      "type": "event"
    },
    {
      "anonymous": false,
      "inputs": [
        {
          "indexed": true,
          "internalType": "uint256",
          "name": "_batchIndex",
          "type": "uint256"
        },
        {
          "indexed": false,
          "internalType": "bytes32",
          "name": "_batchRoot",
          "type": "bytes32"
        },
        {
          "indexed": false,
          "internalType": "uint256",
          "name": "_batchSize",
          "type": "uint256"
        },
        {
          "indexed": false,
          "internalType": "uint256",
          "name": "_prevTotalElements",
          "type": "uint256"
        },
        {
          "indexed": false,
          "internalType": "bytes",
          "name": "_extraData",
          "type": "bytes"
        }
      ],
      "name": "TransactionBatchAppended",
      "type": "event"
    },
    {
      "anonymous": false,
      "inputs": [
        {
          "indexed": true,
          "internalType": "address",
          "name": "_l1TxOrigin",
          "type": "address"
        },
        {
          "indexed": true,
          "internalType": "address",
          "name": "_target",
          "type": "address"
        },
        {
          "indexed": false,
          "internalType": "uint256",
          "name": "_gasLimit",
          "type": "uint256"
        },
        {
          "indexed": false,
          "internalType": "bytes",
          "name": "_data",
          "type": "bytes"
        },
        {
          "indexed": true,
          "internalType": "uint256",
          "name": "_queueIndex",
          "type": "uint256"
        },
        {
          "indexed": false,
          "internalType": "uint256",
          "name": "_timestamp",
          "type": "uint256"
        }
      ],
      "name": "TransactionEnqueued",
      "type": "event"
    },
    {
      "inputs": [],
      "name": "ENQUEUE_GAS_COST",
      "outputs": [
        {
          "internalType": "uint256",
          "name": "",
          "type": "uint256"
        }
      ],
      "stateMutability": "view",
      "type": "function"
    },
    {
      "inputs": [],
      "name": "ENQUEUE_L2_GAS_PREPAID",
      "outputs": [
        {
          "internalType": "uint256",
          "name": "",
          "type": "uint256"
        }
      ],
      "stateMutability": "view",
      "type": "function"
    },
    {
      "inputs": [],
      "name": "L2_GAS_DISCOUNT_DIVISOR",
      "outputs": [
        {
          "internalType": "uint256",
          "name": "",
          "type": "uint256"
        }
      ],
      "stateMutability": "view",
      "type": "function"
    },
    {
      "inputs": [],
      "name": "MAX_ROLLUP_TX_SIZE",
      "outputs": [
        {
          "internalType": "uint256",
          "name": "",
          "type": "uint256"
        }
      ],
      "stateMutability": "view",
      "type": "function"
    },
    {
      "inputs": [],
      "name": "MIN_ROLLUP_TX_GAS",
      "outputs": [
        {
          "internalType": "uint256",
          "name": "",
          "type": "uint256"
        }
      ],
      "stateMutability": "view",
      "type": "function"
    },
    {
      "inputs": [],
      "name": "appendSequencerBatch",
      "outputs": [],
      "stateMutability": "nonpayable",
      "type": "function"
    },
    {
      "inputs": [],
      "name": "batches",
      "outputs": [
        {
          "internalType": "contract IChainStorageContainer",
          "name": "",
          "type": "address"
        }
      ],
      "stateMutability": "view",
      "type": "function"
    },
    {
      "inputs": [
        {
          "internalType": "address",
          "name": "_target",
          "type": "address"
        },
        {
          "internalType": "uint256",
          "name": "_gasLimit",
          "type": "uint256"
        },
        {
          "internalType": "bytes",
          "name": "_data",
          "type": "bytes"
        }
      ],
      "name": "enqueue",
      "outputs": [],
      "stateMutability": "nonpayable",
      "type": "function"
    },
    {
      "inputs": [],
      "name": "getLastBlockNumber",
      "outputs": [
        {
          "internalType": "uint40",
          "name": "",
          "type": "uint40"
        }
      ],
      "stateMutability": "view",
      "type": "function"
    },
    {
      "inputs": [],
      "name": "getLastTimestamp",
      "outputs": [
        {
          "internalType": "uint40",
          "name": "",
          "type": "uint40"
        }
      ],
      "stateMutability": "view",
      "type": "function"
    },
    {
      "inputs": [],
      "name": "getNextQueueIndex",
      "outputs": [
        {
          "internalType": "uint40",
          "name": "",
          "type": "uint40"
        }
      ],
      "stateMutability": "view",
      "type": "function"
    },
    {
      "inputs": [],
      "name": "getNumPendingQueueElements",
      "outputs": [
        {
          "internalType": "uint40",
          "name": "",
          "type": "uint40"
        }
      ],
      "stateMutability": "view",
      "type": "function"
    },
    {
      "inputs": [
        {
          "internalType": "uint256",
          "name": "_index",
          "type": "uint256"
        }
      ],
      "name": "getQueueElement",
      "outputs": [
        {
          "components": [
            {
              "internalType": "bytes32",
              "name": "transactionHash",
              "type": "bytes32"
            },
            {
              "internalType": "uint40",
              "name": "timestamp",
              "type": "uint40"
            },
            {
              "internalType": "uint40",
              "name": "blockNumber",
              "type": "uint40"
            }
          ],
          "internalType": "struct Lib_OVMCodec.QueueElement",
          "name": "_element",
          "type": "tuple"
        }
      ],
      "stateMutability": "view",
      "type": "function"
    },
    {
      "inputs": [],
      "name": "getQueueLength",
      "outputs": [
        {
          "internalType": "uint40",
          "name": "",
          "type": "uint40"
        }
      ],
      "stateMutability": "view",
      "type": "function"
    },
    {
      "inputs": [],
      "name": "getTotalBatches",
      "outputs": [
        {
          "internalType": "uint256",
          "name": "_totalBatches",
          "type": "uint256"
        }
      ],
      "stateMutability": "view",
      "type": "function"
    },
    {
      "inputs": [],
      "name": "getTotalElements",
      "outputs": [
        {
          "internalType": "uint256",
          "name": "_totalElements",
          "type": "uint256"
        }
      ],
      "stateMutability": "view",
      "type": "function"
    },
    {
      "inputs": [],
      "name": "libAddressManager",
      "outputs": [
        {
          "internalType": "contract Lib_AddressManager",
          "name": "",
          "type": "address"
        }
      ],
      "stateMutability": "view",
      "type": "function"
    },
    {
      "inputs": [],
      "name": "maxTransactionGasLimit",
      "outputs": [
        {
          "internalType": "uint256",
          "name": "",
          "type": "uint256"
        }
      ],
      "stateMutability": "view",
      "type": "function"
    },
    {
      "inputs": [],
      "name": "queue",
      "outputs": [
        {
          "internalType": "contract IChainStorageContainer",
          "name": "",
          "type": "address"
        }
      ],
      "stateMutability": "view",
      "type": "function"
    },
    {
      "inputs": [
        {
          "internalType": "string",
          "name": "_name",
          "type": "string"
        }
      ],
      "name": "resolve",
      "outputs": [
        {
          "internalType": "address",
          "name": "",
          "type": "address"
        }
      ],
      "stateMutability": "view",
      "type": "function"
    }
  ],
  "bytecode": "0x60e06040523480156200001157600080fd5b5060405162001c2738038062001c27833981016040819052620000349162000078565b600080546001600160a01b0319166001600160a01b0386161790556001839055608082905260a08190526200006a8183620000c5565b60c05250620000f392505050565b600080600080608085870312156200008f57600080fd5b84516001600160a01b0381168114620000a757600080fd5b60208601516040870151606090970151919890975090945092505050565b6000816000190483118215151615620000ee57634e487b7160e01b600052601160045260246000fd5b500290565b60805160a05160c051611aef6200013860003960008181610235015281816105ee015261063c015260006102870152600081816102e201526106180152611aef6000f3fe608060405234801561001057600080fd5b506004361061016c5760003560e01c80637aa63a86116100cd578063cfdf677e11610081578063e10d29ee11610066578063e10d29ee14610314578063e561dddc1461031c578063f722b41a1461032457600080fd5b8063cfdf677e14610304578063d0f893441461030c57600080fd5b80638d38c6c1116100b25780638d38c6c1146102cc578063b8f77005146102d5578063c2cf696f146102dd57600080fd5b80637aa63a86146102bb578063876ed5cb146102c357600080fd5b80635ae6256d116101245780637350d2b6116101095780637350d2b61461028257806378f4b2f2146102a95780637a167a8a146102b357600080fd5b80635ae6256d146102655780636fee07e01461026d57600080fd5b8063378997701161015557806337899770146101ff578063461a44781461021d57806346a8d4db1461023057600080fd5b8063299ca478146101715780632a7f18be146101bb575b600080fd5b6000546101919073ffffffffffffffffffffffffffffffffffffffff1681565b60405173ffffffffffffffffffffffffffffffffffffffff90911681526020015b60405180910390f35b6101ce6101c93660046115b0565b61032c565b604080518251815260208084015164ffffffffff9081169183019190915292820151909216908201526060016101b2565b610207610360565b60405164ffffffffff90911681526020016101b2565b61019161022b36600461168c565b610374565b6102577f000000000000000000000000000000000000000000000000000000000000000081565b6040519081526020016101b2565b61020761041b565b61028061027b366004611702565b61042f565b005b6102577f000000000000000000000000000000000000000000000000000000000000000081565b610257620186a081565b61020761099d565b6102576109b2565b61025761c35081565b61025760015481565b6102076109cd565b6102577f000000000000000000000000000000000000000000000000000000000000000081565b6101916109e4565b610280610a07565b610191610ed3565b610257610f13565b610207610f9a565b604080516060810182526000808252602082018190529181019190915261035a82610355610ed3565b610fb6565b92915050565b60008061036b611171565b50949350505050565b600080546040517fbf40fac100000000000000000000000000000000000000000000000000000000815273ffffffffffffffffffffffffffffffffffffffff9091169063bf40fac1906103cb9085906004016117da565b60206040518083038186803b1580156103e357600080fd5b505afa1580156103f7573d6000803e3d6000fd5b505050506040513d601f19601f8201168201806040525081019061035a91906117f4565b600080610426611171565b95945050505050565b61c350815111156104c7576040517f08c379a000000000000000000000000000000000000000000000000000000000815260206004820152603d60248201527f5472616e73616374696f6e20646174612073697a652065786365656473206d6160448201527f78696d756d20666f7220726f6c6c7570207472616e73616374696f6e2e00000060648201526084015b60405180910390fd5b600154821115610559576040517f08c379a000000000000000000000000000000000000000000000000000000000815260206004820152603d60248201527f5472616e73616374696f6e20676173206c696d69742065786365656473206d6160448201527f78696d756d20666f7220726f6c6c7570207472616e73616374696f6e2e00000060648201526084016104be565b620186a08210156105ec576040517f08c379a000000000000000000000000000000000000000000000000000000000815260206004820152602960248201527f5472616e73616374696f6e20676173206c696d697420746f6f206c6f7720746f60448201527f20656e71756575652e000000000000000000000000000000000000000000000060648201526084016104be565b7f000000000000000000000000000000000000000000000000000000000000000082111561072c5760007f00000000000000000000000000000000000000000000000000000000000000006106617f000000000000000000000000000000000000000000000000000000000000000085611840565b61066b9190611857565b905060005a9050818111610701576040517f08c379a000000000000000000000000000000000000000000000000000000000815260206004820152602b60248201527f496e73756666696369656e742067617320666f72204c322072617465206c696d60448201527f6974696e67206275726e2e00000000000000000000000000000000000000000060648201526084016104be565b60005b825a6107109084611840565b1015610728578061072081611892565b915050610704565b5050505b60003384848460405160200161074594939291906118cb565b604080517fffffffffffffffffffffffffffffffffffffffffffffffffffffffffffffffe0818403018152919052805160209091012090504360281b4217600061078d610ed3565b6040517fb298e36b0000000000000000000000000000000000000000000000000000000081526004810185905290915073ffffffffffffffffffffffffffffffffffffffff82169063b298e36b90602401600060405180830381600087803b1580156107f857600080fd5b505af115801561080c573d6000803e3d6000fd5b50506040517fb298e36b0000000000000000000000000000000000000000000000000000000081526004810185905273ffffffffffffffffffffffffffffffffffffffff8416925063b298e36b9150602401600060405180830381600087803b15801561087857600080fd5b505af115801561088c573d6000803e3d6000fd5b505050506000600160028373ffffffffffffffffffffffffffffffffffffffff16631f7b6d326040518163ffffffff1660e01b815260040160206040518083038186803b1580156108dc57600080fd5b505afa1580156108f0573d6000803e3d6000fd5b505050506040513d601f19601f820116820180604052508101906109149190611914565b61091e9190611857565b6109289190611840565b9050808773ffffffffffffffffffffffffffffffffffffffff163373ffffffffffffffffffffffffffffffffffffffff167f4b388aecf9fa6cc92253704e5975a6129a4f735bdbd99567df4ed0094ee4ceb589894260405161098c9392919061192d565b60405180910390a450505050505050565b6000806109a8611171565b5090949350505050565b6000806109bd611171565b50505064ffffffffff1692915050565b60006109df6109da610ed3565b61122c565b905090565b60006109df604051806060016040528060218152602001611ac260219139610374565b60043560d81c60093560e890811c90600c35901c610a236109b2565b8364ffffffffff1614610ab8576040517f08c379a000000000000000000000000000000000000000000000000000000000815260206004820152603d60248201527f41637475616c20626174636820737461727420696e64657820646f6573206e6f60448201527f74206d6174636820657870656374656420737461727420696e6465782e00000060648201526084016104be565b610af66040518060400160405280600d81526020017f4f564d5f53657175656e63657200000000000000000000000000000000000000815250610374565b73ffffffffffffffffffffffffffffffffffffffff163373ffffffffffffffffffffffffffffffffffffffff1614610bb0576040517f08c379a000000000000000000000000000000000000000000000000000000000815260206004820152602d60248201527f46756e6374696f6e2063616e206f6e6c792062652063616c6c6564206279207460448201527f68652053657175656e6365722e0000000000000000000000000000000000000060648201526084016104be565b6000610bc262ffffff83166010611956565b610bcd90600f611993565b905064ffffffffff8116361015610c66576040517f08c379a000000000000000000000000000000000000000000000000000000000815260206004820152602260248201527f4e6f7420656e6f756768204261746368436f6e74657874732070726f7669646560448201527f642e00000000000000000000000000000000000000000000000000000000000060648201526084016104be565b6000610c70610ed3565b90506000610c7d8261122c565b9050600080610c8a61099d565b9050610cb76040518060800160405280600081526020016000815260200160008152602001600081525090565b60005b8762ffffff168163ffffffff161015610d18576000610cde8263ffffffff166112b8565b8051909350839150610cf090866119ab565b9450826020015184610d0291906119d3565b9350508080610d10906119f3565b915050610cba565b508364ffffffffff168264ffffffffff161115610ddd576040517f08c379a000000000000000000000000000000000000000000000000000000000815260206004820152604260248201527f417474656d7074656420746f20617070656e64206d6f726520656c656d656e7460448201527f73207468616e2061726520617661696c61626c6520696e20746865207175657560648201527f652e000000000000000000000000000000000000000000000000000000000000608482015260a4016104be565b6000610dee8462ffffff8b16611a17565b63ffffffff169050600080836020015160001415610e1757505060408201516060830151610e46565b6000610e34610e27600188611a3c565b64ffffffffff168a610fb6565b90508060200151925080604001519150505b610e6a610e54600143611840565b408c62ffffff168564ffffffffff16858561133f565b7f602f1aeac0ca2e7a13e281a9ef0ad7838542712ce16780fa2ecffd351f05f899610e958487611a3c565b84610e9e6109b2565b6040805164ffffffffff94851681529390921660208401529082015260600160405180910390a1505050505050505050505050565b60006109df6040518060400160405280601f81526020017f436861696e53746f72616765436f6e7461696e65722d4354432d717565756500815250610374565b6000610f1d6109e4565b73ffffffffffffffffffffffffffffffffffffffff16631f7b6d326040518163ffffffff1660e01b815260040160206040518083038186803b158015610f6257600080fd5b505afa158015610f76573d6000803e3d6000fd5b505050506040513d601f19601f820116820180604052508101906109df9190611914565b6000610fa461099d565b610fac6109cd565b6109df9190611a3c565b6040805160608101825260008082526020820181905291810182905290610fde846002611956565b6040517f9507d39a00000000000000000000000000000000000000000000000000000000815264ffffffffff8216600482015290915060009073ffffffffffffffffffffffffffffffffffffffff851690639507d39a9060240160206040518083038186803b15801561105057600080fd5b505afa158015611064573d6000803e3d6000fd5b505050506040513d601f19601f820116820180604052508101906110889190611914565b9050600073ffffffffffffffffffffffffffffffffffffffff8516639507d39a6110b38560016119d3565b6040517fffffffff0000000000000000000000000000000000000000000000000000000060e084901b16815264ffffffffff909116600482015260240160206040518083038186803b15801561110857600080fd5b505afa15801561111c573d6000803e3d6000fd5b505050506040513d601f19601f820116820180604052508101906111409190611914565b6040805160608101825293845264ffffffffff828116602086015260289290921c9091169083015250949350505050565b60008060008060006111816109e4565b73ffffffffffffffffffffffffffffffffffffffff1663ccf8f9696040518163ffffffff1660e01b815260040160206040518083038186803b1580156111c657600080fd5b505afa1580156111da573d6000803e3d6000fd5b505050506040513d601f19601f820116820180604052508101906111fe9190611a5a565b64ffffffffff602882901c811697605083901c82169750607883901c8216965060a09290921c169350915050565b600060028273ffffffffffffffffffffffffffffffffffffffff16631f7b6d326040518163ffffffff1660e01b815260040160206040518083038186803b15801561127657600080fd5b505afa15801561128a573d6000803e3d6000fd5b505050506040513d601f19601f820116820180604052508101906112ae9190611914565b61035a9190611857565b6112e36040518060800160405280600081526020016000815260200160008152602001600081525090565b60006112f0601084611956565b6112fb90600f611993565b60408051608081018252823560e890811c82526003840135901c6020820152600683013560d890811c92820192909252600b90920135901c60608201529392505050565b60006113496109e4565b9050600080611356611171565b50509150915060006040518060a001604052808573ffffffffffffffffffffffffffffffffffffffff16631f7b6d326040518163ffffffff1660e01b815260040160206040518083038186803b1580156113af57600080fd5b505afa1580156113c3573d6000803e3d6000fd5b505050506040513d601f19601f820116820180604052508101906113e79190611914565b81526020018a81526020018981526020018464ffffffffff16815260200160405180602001604052806000815250815250905080600001517f127186556e7be68c7e31263195225b4de02820707889540969f62c05cf73525e82602001518360400151846060015185608001516040516114649493929190611a9c565b60405180910390a260006114778261156a565b905060006114b283604001518661148e91906119d3565b6114988b876119d3565b602890811b9190911760508b901b1760788a901b17901b90565b6040517f2015276c000000000000000000000000000000000000000000000000000000008152600481018490527fffffffffffffffffffffffffffffffffffffffffffffffffffffff00000000008216602482015290915073ffffffffffffffffffffffffffffffffffffffff871690632015276c90604401600060405180830381600087803b15801561154557600080fd5b505af1158015611559573d6000803e3d6000fd5b505050505050505050505050505050565b600081602001518260400151836060015184608001516040516020016115939493929190611a9c565b604051602081830303815290604052805190602001209050919050565b6000602082840312156115c257600080fd5b5035919050565b7f4e487b7100000000000000000000000000000000000000000000000000000000600052604160045260246000fd5b600067ffffffffffffffff80841115611613576116136115c9565b604051601f85017fffffffffffffffffffffffffffffffffffffffffffffffffffffffffffffffe0908116603f01168101908282118183101715611659576116596115c9565b8160405280935085815286868601111561167257600080fd5b858560208301376000602087830101525050509392505050565b60006020828403121561169e57600080fd5b813567ffffffffffffffff8111156116b557600080fd5b8201601f810184136116c657600080fd5b6116d5848235602084016115f8565b949350505050565b73ffffffffffffffffffffffffffffffffffffffff811681146116ff57600080fd5b50565b60008060006060848603121561171757600080fd5b8335611722816116dd565b925060208401359150604084013567ffffffffffffffff81111561174557600080fd5b8401601f8101861361175657600080fd5b611765868235602084016115f8565b9150509250925092565b6000815180845260005b8181101561179557602081850181015186830182015201611779565b818111156117a7576000602083870101525b50601f017fffffffffffffffffffffffffffffffffffffffffffffffffffffffffffffffe0169290920160200192915050565b6020815260006117ed602083018461176f565b9392505050565b60006020828403121561180657600080fd5b81516117ed816116dd565b7f4e487b7100000000000000000000000000000000000000000000000000000000600052601160045260246000fd5b60008282101561185257611852611811565b500390565b60008261188d577f4e487b7100000000000000000000000000000000000000000000000000000000600052601260045260246000fd5b500490565b60007fffffffffffffffffffffffffffffffffffffffffffffffffffffffffffffffff8214156118c4576118c4611811565b5060010190565b600073ffffffffffffffffffffffffffffffffffffffff80871683528086166020840152508360408301526080606083015261190a608083018461176f565b9695505050505050565b60006020828403121561192657600080fd5b5051919050565b838152606060208201526000611946606083018561176f565b9050826040830152949350505050565b6000817fffffffffffffffffffffffffffffffffffffffffffffffffffffffffffffffff048311821515161561198e5761198e611811565b500290565b600082198211156119a6576119a6611811565b500190565b600063ffffffff8083168185168083038211156119ca576119ca611811565b01949350505050565b600064ffffffffff8083168185168083038211156119ca576119ca611811565b600063ffffffff80831681811415611a0d57611a0d611811565b6001019392505050565b600063ffffffff83811690831681811015611a3457611a34611811565b039392505050565b600064ffffffffff83811690831681811015611a3457611a34611811565b600060208284031215611a6c57600080fd5b81517fffffffffffffffffffffffffffffffffffffffffffffffffffffff0000000000811681146117ed57600080fd5b84815283602082015282604082015260806060820152600061190a608083018461176f56fe436861696e53746f72616765436f6e7461696e65722d4354432d62617463686573a164736f6c6343000808000a",
  "linkReferences": {},
  "deployedLinkReferences": {}
}