{
  "_format": "hh-sol-artifact-1",
  "contractName": "OVM_CrossDomainEnabled",
  "sourceName": "contracts/optimistic-ethereum/libraries/bridge/OVM_CrossDomainEnabled.sol",
  "abi": [
    {
      "inputs": [
        {
          "internalType": "address",
          "name": "_messenger",
          "type": "address"
        }
      ],
      "stateMutability": "nonpayable",
      "type": "constructor"
    },
    {
      "inputs": [],
      "name": "messenger",
      "outputs": [
        {
          "internalType": "address",
          "name": "",
          "type": "address"
        }
      ],
      "stateMutability": "view",
      "type": "function"
    }
  ],
  "bytecode": "0x60806040525a61000d610092565b80156100215760008061001e6100ec565b50505b5060405161039d38038061039d8339818101604052602081101561004d5760008061004a6100ec565b50505b810190808051925082915060009050600181610067610157565b816001600160a01b0302191690836001600160a01b03160217906100896101a3565b505050506101f1565b63a8c4c5ec598160e01b8152602081600483336000905af158600e01573d6000803e3d6000fd5b3d6001141558600a015760016000f35b8051935060005b60408110156100e7576000828201526020016100d0565b505050565b632a2a7adb598160e01b8152600481016020815285602082015260005b86811015610124578086015182820160400152602001610109565b506020828760640184336000905af158600e01573d6000803e3d6000fd5b3d6001141558600a015760016000f35b505050565b6303daa959598160e01b8152836004820152602081602483336000905af158600e01573d6000803e3d6000fd5b3d6001141558600a015760016000f35b805160008252935060206100d0565b6322bd64c0598160e01b8152836004820152846024820152600081604483336000905af158600e01573d6000803e3d6000fd5b3d6001141558600a015760016000f35b6000815260206100d0565b61019d806102006000396000f3fe60806040525a61000d61008c565b80156100215760008061001e6100e6565b50505b506004361061003c5760003560e01c80633cb747bf1461004a575b6000806100476100e6565b50505b61005261006e565b6040516001600160a01b03909116815260200160405180910390f35b600080610079610151565b906101000a90046001600160a01b031681565b63a8c4c5ec598160e01b8152602081600483336000905af158600e01573d6000803e3d6000fd5b3d6001141558600a015760016000f35b8051935060005b60408110156100e1576000828201526020016100ca565b505050565b632a2a7adb598160e01b8152600481016020815285602082015260005b8681101561011e578086015182820160400152602001610103565b506020828760640184336000905af158600e01573d6000803e3d6000fd5b3d6001141558600a015760016000f35b505050565b6303daa959598160e01b8152836004820152602081602483336000905af158600e01573d6000803e3d6000fd5b3d6001141558600a015760016000f35b805160008252935060206100ca56",
  "linkReferences": {},
  "deployedLinkReferences": {}
}