{
  "_format": "hh-sol-artifact-1",
  "contractName": "ERC721Registry",
  "sourceName": "contracts/ERC721Registry.sol",
  "abi": [
    {
      "inputs": [],
      "stateMutability": "nonpayable",
      "type": "constructor"
    },
    {
      "anonymous": false,
      "inputs": [
        {
          "indexed": true,
          "internalType": "address",
          "name": "walletAddress",
          "type": "address"
        },
        {
          "indexed": true,
          "internalType": "address",
          "name": "NFTContractAddress",
          "type": "address"
        }
      ],
      "name": "AddressRegistered",
      "type": "event"
    },
    {
      "inputs": [
        {
          "internalType": "address",
          "name": "walletAddress",
          "type": "address"
        }
      ],
      "name": "lookupAddress",
      "outputs": [
        {
          "internalType": "address[]",
          "name": "",
          "type": "address[]"
        }
      ],
      "stateMutability": "view",
      "type": "function"
    },
    {
      "inputs": [
        {
          "internalType": "address",
          "name": "walletAddress",
          "type": "address"
        },
        {
          "internalType": "address",
          "name": "NFTContractAddress",
          "type": "address"
        }
      ],
      "name": "registerAddress",
      "outputs": [],
      "stateMutability": "nonpayable",
      "type": "function"
    }
  ],
  "bytecode": "0x608060405234801561001057600080fd5b50610279806100206000396000f3fe608060405234801561001057600080fd5b50600436106100365760003560e01c806331b0795c1461003b578063d79582f614610050575b600080fd5b61004e6100493660046101bd565b610079565b005b61006361005e3660046101f0565b610106565b6040516100709190610212565b60405180910390f35b73ffffffffffffffffffffffffffffffffffffffff828116600081815260208181526040808320805460018101825590845291832090910180547fffffffffffffffffffffffff0000000000000000000000000000000000000000169486169485179055517f72b627b4904fa8a0160a923aa5b142eb19f6e56dc75017884162206f8886df099190a35050565b73ffffffffffffffffffffffffffffffffffffffff81166000908152602081815260409182902080548351818402810184019094528084526060939283018282801561018857602002820191906000526020600020905b815473ffffffffffffffffffffffffffffffffffffffff16815260019091019060200180831161015d575b50505050509050919050565b803573ffffffffffffffffffffffffffffffffffffffff811681146101b857600080fd5b919050565b600080604083850312156101d057600080fd5b6101d983610194565b91506101e760208401610194565b90509250929050565b60006020828403121561020257600080fd5b61020b82610194565b9392505050565b6020808252825182820181905260009190848201906040850190845b8181101561026057835173ffffffffffffffffffffffffffffffffffffffff168352928401929184019160010161022e565b5090969550505050505056fea164736f6c6343000808000a",
  "linkReferences": {},
  "deployedLinkReferences": {}
}