{
  "_format": "hh-sol-artifact-1",
  "contractName": "L1CrossDomainMessengerFast",
  "sourceName": "contracts/L1CrossDomainMessengerFast.sol",
  "abi": [
    {
      "inputs": [],
      "stateMutability": "nonpayable",
      "type": "constructor"
    },
    {
      "anonymous": false,
      "inputs": [
        {
          "indexed": true,
          "internalType": "bytes32",
          "name": "msgHash",
          "type": "bytes32"
        }
      ],
      "name": "FailedRelayedMessage",
      "type": "event"
    },
    {
      "anonymous": false,
      "inputs": [
        {
          "indexed": true,
          "internalType": "bytes32",
          "name": "_xDomainCalldataHash",
          "type": "bytes32"
        }
      ],
      "name": "MessageAllowed",
      "type": "event"
    },
    {
      "anonymous": false,
      "inputs": [
        {
          "indexed": true,
          "internalType": "bytes32",
          "name": "_xDomainCalldataHash",
          "type": "bytes32"
        }
      ],
      "name": "MessageBlocked",
      "type": "event"
    },
    {
      "anonymous": false,
      "inputs": [
        {
          "indexed": true,
          "internalType": "address",
          "name": "previousOwner",
          "type": "address"
        },
        {
          "indexed": true,
          "internalType": "address",
          "name": "newOwner",
          "type": "address"
        }
      ],
      "name": "OwnershipTransferred",
      "type": "event"
    },
    {
      "anonymous": false,
      "inputs": [
        {
          "indexed": false,
          "internalType": "address",
          "name": "account",
          "type": "address"
        }
      ],
      "name": "Paused",
      "type": "event"
    },
    {
      "anonymous": false,
      "inputs": [
        {
          "indexed": true,
          "internalType": "bytes32",
          "name": "msgHash",
          "type": "bytes32"
        }
      ],
      "name": "RelayedMessage",
      "type": "event"
    },
    {
      "anonymous": false,
      "inputs": [
        {
          "indexed": true,
          "internalType": "address",
          "name": "target",
          "type": "address"
        },
        {
          "indexed": false,
          "internalType": "address",
          "name": "sender",
          "type": "address"
        },
        {
          "indexed": false,
          "internalType": "bytes",
          "name": "message",
          "type": "bytes"
        },
        {
          "indexed": false,
          "internalType": "uint256",
          "name": "messageNonce",
          "type": "uint256"
        },
        {
          "indexed": false,
          "internalType": "uint256",
          "name": "gasLimit",
          "type": "uint256"
        }
      ],
      "name": "SentMessage",
      "type": "event"
    },
    {
      "anonymous": false,
      "inputs": [
        {
          "indexed": false,
          "internalType": "address",
          "name": "account",
          "type": "address"
        }
      ],
      "name": "Unpaused",
      "type": "event"
    },
    {
      "inputs": [
        {
          "internalType": "bytes32",
          "name": "_xDomainCalldataHash",
          "type": "bytes32"
        }
      ],
      "name": "allowMessage",
      "outputs": [],
      "stateMutability": "nonpayable",
      "type": "function"
    },
    {
      "inputs": [
        {
          "internalType": "bytes32",
          "name": "_xDomainCalldataHash",
          "type": "bytes32"
        }
      ],
      "name": "blockMessage",
      "outputs": [],
      "stateMutability": "nonpayable",
      "type": "function"
    },
    {
      "inputs": [
        {
          "internalType": "bytes32",
          "name": "",
          "type": "bytes32"
        }
      ],
      "name": "blockedMessages",
      "outputs": [
        {
          "internalType": "bool",
          "name": "",
          "type": "bool"
        }
      ],
      "stateMutability": "view",
      "type": "function"
    },
    {
      "inputs": [
        {
          "internalType": "bytes32",
          "name": "",
          "type": "bytes32"
        }
      ],
      "name": "failedMessages",
      "outputs": [
        {
          "internalType": "bool",
          "name": "",
          "type": "bool"
        }
      ],
      "stateMutability": "view",
      "type": "function"
    },
    {
      "inputs": [
        {
          "internalType": "address",
          "name": "_libAddressManager",
          "type": "address"
        }
      ],
      "name": "initialize",
      "outputs": [],
      "stateMutability": "nonpayable",
      "type": "function"
    },
    {
      "inputs": [],
      "name": "libAddressManager",
      "outputs": [
        {
          "internalType": "contract Lib_AddressManager",
          "name": "",
          "type": "address"
        }
      ],
      "stateMutability": "view",
      "type": "function"
    },
    {
      "inputs": [],
      "name": "owner",
      "outputs": [
        {
          "internalType": "address",
          "name": "",
          "type": "address"
        }
      ],
      "stateMutability": "view",
      "type": "function"
    },
    {
      "inputs": [],
      "name": "pause",
      "outputs": [],
      "stateMutability": "nonpayable",
      "type": "function"
    },
    {
      "inputs": [],
      "name": "paused",
      "outputs": [
        {
          "internalType": "bool",
          "name": "",
          "type": "bool"
        }
      ],
      "stateMutability": "view",
      "type": "function"
    },
    {
      "inputs": [
        {
          "internalType": "address",
          "name": "_target",
          "type": "address"
        },
        {
          "internalType": "address",
          "name": "_sender",
          "type": "address"
        },
        {
          "internalType": "bytes",
          "name": "_message",
          "type": "bytes"
        },
        {
          "internalType": "uint256",
          "name": "_messageNonce",
          "type": "uint256"
        },
        {
          "components": [
            {
              "internalType": "bytes32",
              "name": "stateRoot",
              "type": "bytes32"
            },
            {
              "components": [
                {
                  "internalType": "uint256",
                  "name": "batchIndex",
                  "type": "uint256"
                },
                {
                  "internalType": "bytes32",
                  "name": "batchRoot",
                  "type": "bytes32"
                },
                {
                  "internalType": "uint256",
                  "name": "batchSize",
                  "type": "uint256"
                },
                {
                  "internalType": "uint256",
                  "name": "prevTotalElements",
                  "type": "uint256"
                },
                {
                  "internalType": "bytes",
                  "name": "extraData",
                  "type": "bytes"
                }
              ],
              "internalType": "struct Lib_OVMCodec.ChainBatchHeader",
              "name": "stateRootBatchHeader",
              "type": "tuple"
            },
            {
              "components": [
                {
                  "internalType": "uint256",
                  "name": "index",
                  "type": "uint256"
                },
                {
                  "internalType": "bytes32[]",
                  "name": "siblings",
                  "type": "bytes32[]"
                }
              ],
              "internalType": "struct Lib_OVMCodec.ChainInclusionProof",
              "name": "stateRootProof",
              "type": "tuple"
            },
            {
              "internalType": "bytes",
              "name": "stateTrieWitness",
              "type": "bytes"
            },
            {
              "internalType": "bytes",
              "name": "storageTrieWitness",
              "type": "bytes"
            }
          ],
          "internalType": "struct IL1CrossDomainMessenger.L2MessageInclusionProof",
          "name": "_proof",
          "type": "tuple"
        }
      ],
      "name": "relayMessage",
      "outputs": [],
      "stateMutability": "nonpayable",
      "type": "function"
    },
    {
      "inputs": [
        {
          "internalType": "bytes32",
          "name": "",
          "type": "bytes32"
        }
      ],
      "name": "relayedMessages",
      "outputs": [
        {
          "internalType": "bool",
          "name": "",
          "type": "bool"
        }
      ],
      "stateMutability": "view",
      "type": "function"
    },
    {
      "inputs": [],
      "name": "renounceOwnership",
      "outputs": [],
      "stateMutability": "nonpayable",
      "type": "function"
    },
    {
      "inputs": [
        {
          "internalType": "address",
          "name": "_target",
          "type": "address"
        },
        {
          "internalType": "address",
          "name": "_sender",
          "type": "address"
        },
        {
          "internalType": "bytes",
          "name": "_message",
          "type": "bytes"
        },
        {
          "internalType": "uint256",
          "name": "_queueIndex",
          "type": "uint256"
        },
        {
          "internalType": "uint32",
          "name": "_oldGasLimit",
          "type": "uint32"
        },
        {
          "internalType": "uint32",
          "name": "_newGasLimit",
          "type": "uint32"
        }
      ],
      "name": "replayMessage",
      "outputs": [],
      "stateMutability": "nonpayable",
      "type": "function"
    },
    {
      "inputs": [
        {
          "internalType": "string",
          "name": "_name",
          "type": "string"
        }
      ],
      "name": "resolve",
      "outputs": [
        {
          "internalType": "address",
          "name": "",
          "type": "address"
        }
      ],
      "stateMutability": "view",
      "type": "function"
    },
    {
      "inputs": [
        {
          "internalType": "address",
          "name": "_target",
          "type": "address"
        },
        {
          "internalType": "bytes",
          "name": "_message",
          "type": "bytes"
        },
        {
          "internalType": "uint32",
          "name": "_gasLimit",
          "type": "uint32"
        }
      ],
      "name": "sendMessage",
      "outputs": [],
      "stateMutability": "nonpayable",
      "type": "function"
    },
    {
      "inputs": [
        {
          "internalType": "bytes32",
          "name": "",
          "type": "bytes32"
        }
      ],
      "name": "successfulMessages",
      "outputs": [
        {
          "internalType": "bool",
          "name": "",
          "type": "bool"
        }
      ],
      "stateMutability": "view",
      "type": "function"
    },
    {
      "inputs": [
        {
          "internalType": "address",
          "name": "newOwner",
          "type": "address"
        }
      ],
      "name": "transferOwnership",
      "outputs": [],
      "stateMutability": "nonpayable",
      "type": "function"
    },
    {
      "inputs": [],
      "name": "unpause",
      "outputs": [],
      "stateMutability": "nonpayable",
      "type": "function"
    },
    {
      "inputs": [],
      "name": "xDomainMessageSender",
      "outputs": [
        {
          "internalType": "address",
          "name": "",
          "type": "address"
        }
      ],
      "stateMutability": "view",
      "type": "function"
    }
  ],
  "bytecode": "0x608060405260cd80546001600160a01b03191661dead17905534801561002457600080fd5b50600080546001600160a01b0319169055613a98806100446000396000f3fe608060405234801561001057600080fd5b50600436106101515760003560e01c8063715018a6116100cd578063b1b1b20911610081578063c6b94ab011610066578063c6b94ab0146102d6578063d7fd19dd146102f9578063f2fde38b1461030c57600080fd5b8063b1b1b209146102a0578063c4d66de8146102c357600080fd5b80638456cb59116100b25780638456cb59146102575780638da5cb5b1461025f578063a4e7f8bd1461027d57600080fd5b8063715018a61461023c57806381ada46c1461024457600080fd5b80633f4ba83a116101245780635c975abb116101095780635c975abb146102165780636e296e45146102215780636f1c8d471461022957600080fd5b80633f4ba83a146101fb578063461a44781461020357600080fd5b80630ecf2eea1461015657806321d800ec1461016b578063299ca478146101a35780633dbb202b146101e8575b600080fd5b61016961016436600461304a565b61031f565b005b61018e61017936600461304a565b60ca6020526000908152604090205460ff1681565b60405190151581526020015b60405180910390f35b6000546101c39073ffffffffffffffffffffffffffffffffffffffff1681565b60405173ffffffffffffffffffffffffffffffffffffffff909116815260200161019a565b6101696101f63660046131c2565b6103ce565b61016961043c565b6101c3610211366004613222565b6104ad565b60655460ff1661018e565b6101c361055a565b610169610237366004613273565b6105e4565b6101696107cb565b61016961025236600461304a565b61083c565b6101696108e3565b60335473ffffffffffffffffffffffffffffffffffffffff166101c3565b61018e61028b36600461304a565b60cc6020526000908152604090205460ff1681565b61018e6102ae36600461304a565b60cb6020526000908152604090205460ff1681565b6101696102d13660046132ff565b610952565b61018e6102e436600461304a565b60c96020526000908152604090205460ff1681565b610169610307366004613465565b610b9f565b61016961031a3660046132ff565b611075565b60335473ffffffffffffffffffffffffffffffffffffffff16331461038b5760405162461bcd60e51b815260206004820181905260248201527f4f776e61626c653a2063616c6c6572206973206e6f7420746865206f776e657260448201526064015b60405180910390fd5b600081815260c96020526040808220805460ff191660011790555182917ff52508d5339edf0d7e5060a416df98db067af561bdc60872d29c0439eaa13a0291a250565b60405162461bcd60e51b815260206004820152602660248201527f53656e64696e67207669612074686973206d657373656e67657220697320646960448201527f7361626c656400000000000000000000000000000000000000000000000000006064820152608401610382565b60335473ffffffffffffffffffffffffffffffffffffffff1633146104a35760405162461bcd60e51b815260206004820181905260248201527f4f776e61626c653a2063616c6c6572206973206e6f7420746865206f776e65726044820152606401610382565b6104ab611171565b565b600080546040517fbf40fac100000000000000000000000000000000000000000000000000000000815273ffffffffffffffffffffffffffffffffffffffff9091169063bf40fac1906105049085906004016135fa565b60206040518083038186803b15801561051c57600080fd5b505afa158015610530573d6000803e3d6000fd5b505050506040513d601f19601f82011682018060405250810190610554919061360d565b92915050565b60cd5460009073ffffffffffffffffffffffffffffffffffffffff1661dead14156105c75760405162461bcd60e51b815260206004820152601f60248201527f78446f6d61696e4d65737361676553656e646572206973206e6f7420736574006044820152606401610382565b5060cd5473ffffffffffffffffffffffffffffffffffffffff1690565b60006106246040518060400160405280601981526020017f43616e6f6e6963616c5472616e73616374696f6e436861696e000000000000008152506104ad565b6040517f2a7f18be0000000000000000000000000000000000000000000000000000000081526004810186905290915060009073ffffffffffffffffffffffffffffffffffffffff831690632a7f18be9060240160606040518083038186803b15801561069057600080fd5b505afa1580156106a4573d6000803e3d6000fd5b505050506040513d601f19601f820116820180604052508101906106c8919061363f565b905060006106d88989898961121a565b905060007311110000000000000000000000000000000011113001734200000000000000000000000000000000000007878a60405160200161071d94939291906136a4565b604051602081830303815290604052805190602001209050826000015181146107ae5760405162461bcd60e51b815260206004820152602760248201527f50726f7669646564206d65737361676520686173206e6f74206265656e20656e60448201527f7175657565642e000000000000000000000000000000000000000000000000006064820152608401610382565b6107bf84838763ffffffff166103ce565b50505050505050505050565b60335473ffffffffffffffffffffffffffffffffffffffff1633146108325760405162461bcd60e51b815260206004820181905260248201527f4f776e61626c653a2063616c6c6572206973206e6f7420746865206f776e65726044820152606401610382565b6104ab6000611295565b60335473ffffffffffffffffffffffffffffffffffffffff1633146108a35760405162461bcd60e51b815260206004820181905260248201527f4f776e61626c653a2063616c6c6572206973206e6f7420746865206f776e65726044820152606401610382565b600081815260c96020526040808220805460ff191690555182917f52c8a2680a9f4cc0ad0bf88f32096eadbebf0646ea611d93a0ce6a29a024040591a250565b60335473ffffffffffffffffffffffffffffffffffffffff16331461094a5760405162461bcd60e51b815260206004820181905260248201527f4f776e61626c653a2063616c6c6572206973206e6f7420746865206f776e65726044820152606401610382565b6104ab61130c565b6000547501000000000000000000000000000000000000000000900460ff1680610997575060005474010000000000000000000000000000000000000000900460ff16155b610a095760405162461bcd60e51b815260206004820152602e60248201527f496e697469616c697a61626c653a20636f6e747261637420697320616c72656160448201527f647920696e697469616c697a65640000000000000000000000000000000000006064820152608401610382565b6000547501000000000000000000000000000000000000000000900460ff16158015610a7057600080547fffffffffffffffffffff0000ffffffffffffffffffffffffffffffffffffffff1675010100000000000000000000000000000000000000001790555b60005473ffffffffffffffffffffffffffffffffffffffff1615610afc5760405162461bcd60e51b815260206004820152602a60248201527f4c3143726f7373446f6d61696e4d657373656e67657220616c7265616479206960448201527f6e7469616c697a65642e000000000000000000000000000000000000000000006064820152608401610382565b6000805473ffffffffffffffffffffffffffffffffffffffff84167fffffffffffffffffffffffff00000000000000000000000000000000000000009182161790915560cd805490911661dead179055610b54611394565b610b5c6114e3565b610b6461160a565b610b6c611763565b8015610b9b57600080547fffffffffffffffffffff00ffffffffffffffffffffffffffffffffffffffffff1690555b5050565b60026097541415610bf25760405162461bcd60e51b815260206004820152601f60248201527f5265656e7472616e637947756172643a207265656e7472616e742063616c6c006044820152606401610382565b600260975560655460ff1615610c4a5760405162461bcd60e51b815260206004820152601060248201527f5061757361626c653a20706175736564000000000000000000000000000000006044820152606401610382565b6000610c588686868661121a565b9050610c6481836118b7565b1515600114610cdb5760405162461bcd60e51b815260206004820152602760248201527f50726f7669646564206d65737361676520636f756c64206e6f7420626520766560448201527f7269666965642e000000000000000000000000000000000000000000000000006064820152608401610382565b8051602080830191909120600081815260cb90925260409091205460ff1615610d6c5760405162461bcd60e51b815260206004820152602b60248201527f50726f7669646564206d6573736167652068617320616c72656164792062656560448201527f6e2072656365697665642e0000000000000000000000000000000000000000006064820152608401610382565b600081815260c9602052604090205460ff1615610df15760405162461bcd60e51b815260206004820152602260248201527f50726f7669646564206d65737361676520686173206265656e20626c6f636b6560448201527f642e0000000000000000000000000000000000000000000000000000000000006064820152608401610382565b610e2f6040518060400160405280601981526020017f43616e6f6e6963616c5472616e73616374696f6e436861696e000000000000008152506104ad565b73ffffffffffffffffffffffffffffffffffffffff168773ffffffffffffffffffffffffffffffffffffffff161415610ed05760405162461bcd60e51b815260206004820152603360248201527f43616e6e6f742073656e64204c322d3e4c31206d6573736167657320746f204c60448201527f312073797374656d20636f6e7472616374732e000000000000000000000000006064820152608401610382565b60cd80547fffffffffffffffffffffffff00000000000000000000000000000000000000001673ffffffffffffffffffffffffffffffffffffffff88811691909117909155604051600091891690610f299088906136e9565b6000604051808303816000865af19150503d8060008114610f66576040519150601f19603f3d011682016040523d82523d6000602084013e610f6b565b606091505b505060cd80547fffffffffffffffffffffffff00000000000000000000000000000000000000001661dead179055905080151560011415610feb57600082815260cb6020526040808220805460ff191660011790555183917f4641df4a962071e12719d8c8c8e5ac7fc4d97b927346a3d7a335b1f7517e133c91a261101e565b600082815260cc60205260405183917f99d0e048484baa1b1540b1367cb128acd7ab2946d1ed91ec10e3c85e4bf51b8f91a25b600083334360405160200161103593929190613705565b60408051601f198184030181529181528151602092830120600090815260ca9092529020805460ff19166001908117909155609755505050505050505050565b60335473ffffffffffffffffffffffffffffffffffffffff1633146110dc5760405162461bcd60e51b815260206004820181905260248201527f4f776e61626c653a2063616c6c6572206973206e6f7420746865206f776e65726044820152606401610382565b73ffffffffffffffffffffffffffffffffffffffff81166111655760405162461bcd60e51b815260206004820152602660248201527f4f776e61626c653a206e6577206f776e657220697320746865207a65726f206160448201527f64647265737300000000000000000000000000000000000000000000000000006064820152608401610382565b61116e81611295565b50565b60655460ff166111c35760405162461bcd60e51b815260206004820152601460248201527f5061757361626c653a206e6f74207061757365640000000000000000000000006044820152606401610382565b6065805460ff191690557f5db9ee0a495bf2e6ff9c91a7834c1ba4fdd244a5e8aa4e537bd38aeae4b073aa335b60405173ffffffffffffffffffffffffffffffffffffffff909116815260200160405180910390a1565b6060848484846040516024016112339493929190613757565b60408051601f198184030181529190526020810180517bffffffffffffffffffffffffffffffffffffffffffffffffffffffff167fcbd4ece9000000000000000000000000000000000000000000000000000000001790529050949350505050565b6033805473ffffffffffffffffffffffffffffffffffffffff8381167fffffffffffffffffffffffff0000000000000000000000000000000000000000831681179093556040519116919082907f8be0079c531659141344cd1fd0a4f28419497f9722a3daafe3b4186f6b6457e090600090a35050565b60655460ff161561135f5760405162461bcd60e51b815260206004820152601060248201527f5061757361626c653a20706175736564000000000000000000000000000000006044820152606401610382565b6065805460ff191660011790557f62e78cea01bee320cd4e420270b5ea74000d11b0c9f74754ebdbfc544b05a2586111f03390565b6000547501000000000000000000000000000000000000000000900460ff16806113d9575060005474010000000000000000000000000000000000000000900460ff16155b61144b5760405162461bcd60e51b815260206004820152602e60248201527f496e697469616c697a61626c653a20636f6e747261637420697320616c72656160448201527f647920696e697469616c697a65640000000000000000000000000000000000006064820152608401610382565b6000547501000000000000000000000000000000000000000000900460ff161580156114b257600080547fffffffffffffffffffff0000ffffffffffffffffffffffffffffffffffffffff1675010100000000000000000000000000000000000000001790555b801561116e57600080547fffffffffffffffffffff00ffffffffffffffffffffffffffffffffffffffffff16905550565b6000547501000000000000000000000000000000000000000000900460ff1680611528575060005474010000000000000000000000000000000000000000900460ff16155b61159a5760405162461bcd60e51b815260206004820152602e60248201527f496e697469616c697a61626c653a20636f6e747261637420697320616c72656160448201527f647920696e697469616c697a65640000000000000000000000000000000000006064820152608401610382565b6000547501000000000000000000000000000000000000000000900460ff1615801561160157600080547fffffffffffffffffffff0000ffffffffffffffffffffffffffffffffffffffff1675010100000000000000000000000000000000000000001790555b6114b233611295565b6000547501000000000000000000000000000000000000000000900460ff168061164f575060005474010000000000000000000000000000000000000000900460ff16155b6116c15760405162461bcd60e51b815260206004820152602e60248201527f496e697469616c697a61626c653a20636f6e747261637420697320616c72656160448201527f647920696e697469616c697a65640000000000000000000000000000000000006064820152608401610382565b6000547501000000000000000000000000000000000000000000900460ff1615801561172857600080547fffffffffffffffffffff0000ffffffffffffffffffffffffffffffffffffffff1675010100000000000000000000000000000000000000001790555b6065805460ff19169055801561116e57600080547fffffffffffffffffffff00ffffffffffffffffffffffffffffffffffffffffff16905550565b6000547501000000000000000000000000000000000000000000900460ff16806117a8575060005474010000000000000000000000000000000000000000900460ff16155b61181a5760405162461bcd60e51b815260206004820152602e60248201527f496e697469616c697a61626c653a20636f6e747261637420697320616c72656160448201527f647920696e697469616c697a65640000000000000000000000000000000000006064820152608401610382565b6000547501000000000000000000000000000000000000000000900460ff1615801561188157600080547fffffffffffffffffffff0000ffffffffffffffffffffffffffffffffffffffff1675010100000000000000000000000000000000000000001790555b6001609755801561116e57600080547fffffffffffffffffffff00ffffffffffffffffffffffffffffffffffffffffff16905550565b60006118c2826118da565b80156118d357506118d383836119ce565b9392505050565b60008061191b6040518060400160405280601481526020017f5374617465436f6d6d69746d656e74436861696e0000000000000000000000008152506104ad565b8351602085015160408087015190517f4d69ee5700000000000000000000000000000000000000000000000000000000815293945073ffffffffffffffffffffffffffffffffffffffff851693634d69ee579361197e93909290916004016137a1565b60206040518083038186803b15801561199657600080fd5b505afa1580156119aa573d6000803e3d6000fd5b505050506040513d601f19601f820116820180604052508101906118d3919061384c565b600080837342000000000000000000000000000000000000076040516020016119f892919061386e565b60408051601f1981840301815282825280516020918201209083015260009082015260600160408051601f198184030181529082905280516020918201207f42000000000000000000000000000000000000000000000000000000000000009183019190915291506000908190611a889060340160408051601f1981840301815291905260608701518751611bb2565b9092509050600182151514611b2b5760405162461bcd60e51b815260206004820152604d60248201527f4d6573736167652070617373696e67207072656465706c6f7920686173206e6f60448201527f74206265656e20696e697469616c697a6564206f7220696e76616c696420707260648201527f6f6f662070726f76696465642e00000000000000000000000000000000000000608482015260a401610382565b6000611b3682611bdb565b9050611ba784604051602001611b4e91815260200190565b60408051601f19818403018152908290527f010000000000000000000000000000000000000000000000000000000000000060208301529060210160405160208183030381529060405288608001518460400151611c9f565b979650505050505050565b600060606000611bc186611cc3565b9050611bce818686611cf5565b9250925050935093915050565b604080516080810182526000808252602082018190529181018290526060810182905290611c0883611dd0565b90506040518060800160405280611c3883600081518110611c2b57611c2b6138b8565b6020026020010151611e03565b8152602001611c5383600181518110611c2b57611c2b6138b8565b8152602001611c7b83600281518110611c6e57611c6e6138b8565b6020026020010151611e0a565b8152602001611c9683600381518110611c6e57611c6e6138b8565b90529392505050565b600080611cab86611cc3565b9050611cb981868686611f0c565b9695505050505050565b60608180519060200120604051602001611cdf91815260200190565b6040516020818303038152906040529050919050565b600060606000611d0485611f42565b90506000806000611d16848a8961203d565b81519295509093509150158080611d2a5750815b611d765760405162461bcd60e51b815260206004820152601a60248201527f50726f76696465642070726f6f6620697320696e76616c69642e0000000000006044820152606401610382565b600081611d925760405180602001604052806000815250611dbe565b611dbe86611da1600188613916565b81518110611db157611db16138b8565b60200260200101516124d8565b919b919a509098505050505050505050565b60408051808201825260008082526020918201528151808301909252825182528083019082015260609061055490612502565b6000610554825b6000602182600001511115611e615760405162461bcd60e51b815260206004820152601a60248201527f496e76616c696420524c5020627974657333322076616c75652e0000000000006044820152606401610382565b6000806000611e6f85612701565b919450925090506000816001811115611e8a57611e8a61392d565b14611ed75760405162461bcd60e51b815260206004820152601a60248201527f496e76616c696420524c5020627974657333322076616c75652e0000000000006044820152606401610382565b6000838660200151611ee9919061395c565b80519091506020841015611cb95760208490036101000a90049695505050505050565b6000806000611f1c878686611cf5565b91509150818015611ba75750805160208083019190912087519188019190912014611ba7565b60606000611f4f83611dd0565b90506000815167ffffffffffffffff811115611f6d57611f6d613085565b604051908082528060200260200182016040528015611fb257816020015b6040805180820190915260608082526020820152815260200190600190039081611f8b5790505b50905060005b8251811015612035576000611fe5848381518110611fd857611fd86138b8565b6020026020010151612a52565b9050604051806040016040528082815260200161200183611dd0565b815250838381518110612016576120166138b8565b602002602001018190525050808061202d90613974565b915050611fb8565b509392505050565b6000606081808061204d87612ae2565b90506000869050600080612074604051806040016040528060608152602001606081525090565b60005b8c51811015612494578c8181518110612092576120926138b8565b6020026020010151915082846120a8919061395c565b93506120b560018861395c565b965083612119578151805160209091012085146121145760405162461bcd60e51b815260206004820152601160248201527f496e76616c696420726f6f7420686173680000000000000000000000000000006044820152606401610382565b6121d6565b81515160201161217b578151805160209091012085146121145760405162461bcd60e51b815260206004820152601b60248201527f496e76616c6964206c6172676520696e7465726e616c206861736800000000006044820152606401610382565b846121898360000151612c65565b146121d65760405162461bcd60e51b815260206004820152601a60248201527f496e76616c696420696e7465726e616c206e6f646520686173680000000000006044820152606401610382565b6121e26010600161395c565b826020015151141561225b5785518414156121fc57612494565b6000868581518110612210576122106138b8565b602001015160f81c60f81b60f81c9050600083602001518260ff168151811061223b5761223b6138b8565b6020026020010151905061224e81612c8d565b9650600194505050612482565b6002826020015151141561243a57600061227483612cc3565b905060008160008151811061228b5761228b6138b8565b016020015160f81c905060006122a26002836139dc565b6122ad9060026139fe565b905060006122be848360ff16612ce7565b905060006122cc8b8a612ce7565b905060006122da8383612d1d565b905060ff8516600214806122f1575060ff85166003145b15612347578083511480156123065750808251145b1561231857612315818b61395c565b99505b507f80000000000000000000000000000000000000000000000000000000000000009950612494945050505050565b60ff8516158061235a575060ff85166001145b156123cc578251811461239657507f80000000000000000000000000000000000000000000000000000000000000009950612494945050505050565b6123bd88602001516001815181106123b0576123b06138b8565b6020026020010151612c8d565b9a509750612482945050505050565b60405162461bcd60e51b815260206004820152602660248201527f52656365697665642061206e6f6465207769746820616e20756e6b6e6f776e2060448201527f70726566697800000000000000000000000000000000000000000000000000006064820152608401610382565b60405162461bcd60e51b815260206004820152601d60248201527f526563656976656420616e20756e706172736561626c65206e6f64652e0000006044820152606401610382565b8061248c81613974565b915050612077565b507f80000000000000000000000000000000000000000000000000000000000000008414866124c38786612ce7565b909e909d50909b509950505050505050505050565b60208101518051606091610554916124f290600190613916565b81518110611fd857611fd86138b8565b606060008061251084612701565b9193509091506001905081600181111561252c5761252c61392d565b146125795760405162461bcd60e51b815260206004820152601760248201527f496e76616c696420524c50206c6973742076616c75652e0000000000000000006044820152606401610382565b6040805160208082526104208201909252600091816020015b60408051808201909152600080825260208201528152602001906001900390816125925790505090506000835b86518110156126f6576020821061263e5760405162461bcd60e51b815260206004820152602a60248201527f50726f766964656420524c50206c6973742065786365656473206d6178206c6960448201527f7374206c656e6774682e000000000000000000000000000000000000000000006064820152608401610382565b60008061267b6040518060400160405280858c6000015161265f9190613916565b8152602001858c60200151612674919061395c565b9052612701565b509150915060405180604001604052808383612697919061395c565b8152602001848b602001516126ac919061395c565b8152508585815181106126c1576126c16138b8565b60209081029190910101526126d760018561395c565b93506126e3818361395c565b6126ed908461395c565b925050506125bf565b508152949350505050565b6000806000808460000151116127595760405162461bcd60e51b815260206004820152601860248201527f524c50206974656d2063616e6e6f74206265206e756c6c2e00000000000000006044820152606401610382565b6020840151805160001a607f811161277e576000600160009450945094505050612a4b565b60b781116127fa576000612793608083613916565b9050808760000151116127e85760405162461bcd60e51b815260206004820152601960248201527f496e76616c696420524c502073686f727420737472696e672e000000000000006044820152606401610382565b60019550935060009250612a4b915050565b60bf81116128e957600061280f60b783613916565b9050808760000151116128645760405162461bcd60e51b815260206004820152601f60248201527f496e76616c696420524c50206c6f6e6720737472696e67206c656e6774682e006044820152606401610382565b600183015160208290036101000a900461287e818361395c565b8851116128cd5760405162461bcd60e51b815260206004820152601860248201527f496e76616c696420524c50206c6f6e6720737472696e672e00000000000000006044820152606401610382565b6128d882600161395c565b9650945060009350612a4b92505050565b60f781116129645760006128fe60c083613916565b9050808760000151116129535760405162461bcd60e51b815260206004820152601760248201527f496e76616c696420524c502073686f7274206c6973742e0000000000000000006044820152606401610382565b600195509350849250612a4b915050565b600061297160f783613916565b9050808760000151116129c65760405162461bcd60e51b815260206004820152601d60248201527f496e76616c696420524c50206c6f6e67206c697374206c656e6774682e0000006044820152606401610382565b600183015160208290036101000a90046129e0818361395c565b885111612a2f5760405162461bcd60e51b815260206004820152601660248201527f496e76616c696420524c50206c6f6e67206c6973742e000000000000000000006044820152606401610382565b612a3a82600161395c565b9650945060019350612a4b92505050565b9193909250565b60606000806000612a6285612701565b919450925090506000816001811115612a7d57612a7d61392d565b14612aca5760405162461bcd60e51b815260206004820152601860248201527f496e76616c696420524c502062797465732076616c75652e00000000000000006044820152606401610382565b612ad985602001518484612dc9565b95945050505050565b6060600082516002612af49190613a21565b67ffffffffffffffff811115612b0c57612b0c613085565b6040519080825280601f01601f191660200182016040528015612b36576020820181803683370190505b50905060005b8351811015612c5e576004848281518110612b5957612b596138b8565b01602001517fff0000000000000000000000000000000000000000000000000000000000000016901c82612b8e836002613a21565b81518110612b9e57612b9e6138b8565b60200101907effffffffffffffffffffffffffffffffffffffffffffffffffffffffffffff1916908160001a9053506010848281518110612be157612be16138b8565b0160200151612bf3919060f81c6139dc565b60f81b82612c02836002613a21565b612c0d90600161395c565b81518110612c1d57612c1d6138b8565b60200101907effffffffffffffffffffffffffffffffffffffffffffffffffffffffffffff1916908160001a90535080612c5681613974565b915050612b3c565b5092915050565b6000602082511015612c7957506020015190565b818060200190518101906105549190613a5e565b60006060602083600001511015612cae57612ca783612ea8565b9050612cba565b612cb783612a52565b90505b6118d381612c65565b6060610554612ce28360200151600081518110611fd857611fd86138b8565b612ae2565b606082518210612d065750604080516020810190915260008152610554565b6118d38383848651612d189190613916565b612eb3565b6000805b808451118015612d315750808351115b8015612db25750828181518110612d4a57612d4a6138b8565b602001015160f81c60f81b7effffffffffffffffffffffffffffffffffffffffffffffffffffffffffffff1916848281518110612d8957612d896138b8565b01602001517fff0000000000000000000000000000000000000000000000000000000000000016145b156118d35780612dc181613974565b915050612d21565b606060008267ffffffffffffffff811115612de657612de6613085565b6040519080825280601f01601f191660200182016040528015612e10576020820181803683370190505b509050805160001415612e245790506118d3565b6000612e30858761395c565b90506020820160005b612e44602087613a77565b811015612e7b5782518252612e5a60208461395c565b9250612e6760208361395c565b915080612e7381613974565b915050612e39565b5060006001602087066020036101000a039050808251168119845116178252839450505050509392505050565b606061055482613034565b606081612ec181601f61395c565b1015612f0f5760405162461bcd60e51b815260206004820152600e60248201527f736c6963655f6f766572666c6f770000000000000000000000000000000000006044820152606401610382565b82612f1a838261395c565b1015612f685760405162461bcd60e51b815260206004820152600e60248201527f736c6963655f6f766572666c6f770000000000000000000000000000000000006044820152606401610382565b612f72828461395c565b84511015612fc25760405162461bcd60e51b815260206004820152601160248201527f736c6963655f6f75744f66426f756e64730000000000000000000000000000006044820152606401610382565b606082158015612fe1576040519150600082526020820160405261302b565b6040519150601f8416801560200281840101858101878315602002848b0101015b8183101561301a578051835260209283019201613002565b5050858452601f01601f1916604052505b50949350505050565b6060610554826020015160008460000151612dc9565b60006020828403121561305c57600080fd5b5035919050565b73ffffffffffffffffffffffffffffffffffffffff8116811461116e57600080fd5b7f4e487b7100000000000000000000000000000000000000000000000000000000600052604160045260246000fd5b6040805190810167ffffffffffffffff811182821017156130d7576130d7613085565b60405290565b60405160a0810167ffffffffffffffff811182821017156130d7576130d7613085565b604051601f8201601f1916810167ffffffffffffffff8111828210171561312957613129613085565b604052919050565b600067ffffffffffffffff83111561314b5761314b613085565b61315e6020601f19601f86011601613100565b905082815283838301111561317257600080fd5b828260208301376000602084830101529392505050565b600082601f83011261319a57600080fd5b6118d383833560208501613131565b803563ffffffff811681146131bd57600080fd5b919050565b6000806000606084860312156131d757600080fd5b83356131e281613063565b9250602084013567ffffffffffffffff8111156131fe57600080fd5b61320a86828701613189565b925050613219604085016131a9565b90509250925092565b60006020828403121561323457600080fd5b813567ffffffffffffffff81111561324b57600080fd5b8201601f8101841361325c57600080fd5b61326b84823560208401613131565b949350505050565b60008060008060008060c0878903121561328c57600080fd5b863561329781613063565b955060208701356132a781613063565b9450604087013567ffffffffffffffff8111156132c357600080fd5b6132cf89828a01613189565b945050606087013592506132e5608088016131a9565b91506132f360a088016131a9565b90509295509295509295565b60006020828403121561331157600080fd5b81356118d381613063565b600060a0828403121561332e57600080fd5b60405160a0810167ffffffffffffffff828210818311171561335257613352613085565b8160405282935084358352602085013560208401526040850135604084015260608501356060840152608085013591508082111561338f57600080fd5b5061339c85828601613189565b6080830152505092915050565b6000604082840312156133bb57600080fd5b6133c36130b4565b90508135815260208083013567ffffffffffffffff808211156133e557600080fd5b818501915085601f8301126133f957600080fd5b81358181111561340b5761340b613085565b8060051b915061341c848301613100565b818152918301840191848101908884111561343657600080fd5b938501935b838510156134545784358252938501939085019061343b565b808688015250505050505092915050565b600080600080600060a0868803121561347d57600080fd5b853561348881613063565b9450602086013561349881613063565b9350604086013567ffffffffffffffff808211156134b557600080fd5b6134c189838a01613189565b94506060880135935060808801359150808211156134de57600080fd5b9087019060a0828a0312156134f257600080fd5b6134fa6130dd565b8235815260208301358281111561351057600080fd5b61351c8b82860161331c565b60208301525060408301358281111561353457600080fd5b6135408b8286016133a9565b60408301525060608301358281111561355857600080fd5b6135648b828601613189565b60608301525060808301358281111561357c57600080fd5b6135888b828601613189565b6080830152508093505050509295509295909350565b60005b838110156135b95781810151838201526020016135a1565b838111156135c8576000848401525b50505050565b600081518084526135e681602086016020860161359e565b601f01601f19169290920160200192915050565b6020815260006118d360208301846135ce565b60006020828403121561361f57600080fd5b81516118d381613063565b805164ffffffffff811681146131bd57600080fd5b60006060828403121561365157600080fd5b6040516060810181811067ffffffffffffffff8211171561367457613674613085565b604052825181526136876020840161362a565b60208201526136986040840161362a565b60408201529392505050565b600073ffffffffffffffffffffffffffffffffffffffff808716835280861660208401525063ffffffff8416604083015260806060830152611cb960808301846135ce565b600082516136fb81846020870161359e565b9190910192915050565b6000845161371781846020890161359e565b60609490941b7fffffffffffffffffffffffffffffffffffffffff0000000000000000000000001691909301908152601481019190915260340192915050565b600073ffffffffffffffffffffffffffffffffffffffff80871683528086166020840152506080604083015261379060808301856135ce565b905082606083015295945050505050565b8381526000602060608184015284516060840152808501516080840152604085015160a0840152606085015160c0840152608085015160a060e08501526137ec6101008501826135ce565b905083810360408501526040810185518252828601516040848401528181518084526060850191508583019450600093505b8084101561383e578451825293850193600193909301929085019061381e565b509998505050505050505050565b60006020828403121561385e57600080fd5b815180151581146118d357600080fd5b6000835161388081846020880161359e565b60609390931b7fffffffffffffffffffffffffffffffffffffffff000000000000000000000000169190920190815260140192915050565b7f4e487b7100000000000000000000000000000000000000000000000000000000600052603260045260246000fd5b7f4e487b7100000000000000000000000000000000000000000000000000000000600052601160045260246000fd5b600082821015613928576139286138e7565b500390565b7f4e487b7100000000000000000000000000000000000000000000000000000000600052602160045260246000fd5b6000821982111561396f5761396f6138e7565b500190565b60007fffffffffffffffffffffffffffffffffffffffffffffffffffffffffffffffff8214156139a6576139a66138e7565b5060010190565b7f4e487b7100000000000000000000000000000000000000000000000000000000600052601260045260246000fd5b600060ff8316806139ef576139ef6139ad565b8060ff84160691505092915050565b600060ff821660ff841680821015613a1857613a186138e7565b90039392505050565b6000817fffffffffffffffffffffffffffffffffffffffffffffffffffffffffffffffff0483118215151615613a5957613a596138e7565b500290565b600060208284031215613a7057600080fd5b5051919050565b600082613a8657613a866139ad565b50049056fea164736f6c6343000809000a",
  "linkReferences": {},
  "deployedLinkReferences": {}
}