{
  "_format": "hh-sol-artifact-1",
  "contractName": "L1CrossDomainMessengerFast",
  "sourceName": "contracts/L1CrossDomainMessengerFast.sol",
  "abi": [
    {
      "inputs": [],
      "stateMutability": "nonpayable",
      "type": "constructor"
    },
    {
      "anonymous": false,
      "inputs": [
        {
          "indexed": true,
          "internalType": "bytes32",
          "name": "msgHash",
          "type": "bytes32"
        }
      ],
      "name": "FailedRelayedMessage",
      "type": "event"
    },
    {
      "anonymous": false,
      "inputs": [
        {
          "indexed": true,
          "internalType": "bytes32",
          "name": "_xDomainCalldataHash",
          "type": "bytes32"
        }
      ],
      "name": "MessageAllowed",
      "type": "event"
    },
    {
      "anonymous": false,
      "inputs": [
        {
          "indexed": true,
          "internalType": "bytes32",
          "name": "_xDomainCalldataHash",
          "type": "bytes32"
        }
      ],
      "name": "MessageBlocked",
      "type": "event"
    },
    {
      "anonymous": false,
      "inputs": [
        {
          "indexed": true,
          "internalType": "address",
          "name": "previousOwner",
          "type": "address"
        },
        {
          "indexed": true,
          "internalType": "address",
          "name": "newOwner",
          "type": "address"
        }
      ],
      "name": "OwnershipTransferred",
      "type": "event"
    },
    {
      "anonymous": false,
      "inputs": [
        {
          "indexed": false,
          "internalType": "address",
          "name": "account",
          "type": "address"
        }
      ],
      "name": "Paused",
      "type": "event"
    },
    {
      "anonymous": false,
      "inputs": [
        {
          "indexed": true,
          "internalType": "bytes32",
          "name": "msgHash",
          "type": "bytes32"
        }
      ],
      "name": "RelayedMessage",
      "type": "event"
    },
    {
      "anonymous": false,
      "inputs": [
        {
          "indexed": true,
          "internalType": "address",
          "name": "target",
          "type": "address"
        },
        {
          "indexed": false,
          "internalType": "address",
          "name": "sender",
          "type": "address"
        },
        {
          "indexed": false,
          "internalType": "bytes",
          "name": "message",
          "type": "bytes"
        },
        {
          "indexed": false,
          "internalType": "uint256",
          "name": "messageNonce",
          "type": "uint256"
        },
        {
          "indexed": false,
          "internalType": "uint256",
          "name": "gasLimit",
          "type": "uint256"
        }
      ],
      "name": "SentMessage",
      "type": "event"
    },
    {
      "anonymous": false,
      "inputs": [
        {
          "indexed": false,
          "internalType": "address",
          "name": "account",
          "type": "address"
        }
      ],
      "name": "Unpaused",
      "type": "event"
    },
    {
      "inputs": [
        {
          "internalType": "bytes32",
          "name": "_xDomainCalldataHash",
          "type": "bytes32"
        }
      ],
      "name": "allowMessage",
      "outputs": [],
      "stateMutability": "nonpayable",
      "type": "function"
    },
    {
      "inputs": [
        {
          "internalType": "bytes32",
          "name": "_xDomainCalldataHash",
          "type": "bytes32"
        }
      ],
      "name": "blockMessage",
      "outputs": [],
      "stateMutability": "nonpayable",
      "type": "function"
    },
    {
      "inputs": [
        {
          "internalType": "bytes32",
          "name": "",
          "type": "bytes32"
        }
      ],
      "name": "blockedMessages",
      "outputs": [
        {
          "internalType": "bool",
          "name": "",
          "type": "bool"
        }
      ],
      "stateMutability": "view",
      "type": "function"
    },
    {
      "inputs": [
        {
          "internalType": "bytes32",
          "name": "",
          "type": "bytes32"
        }
      ],
      "name": "failedMessages",
      "outputs": [
        {
          "internalType": "bool",
          "name": "",
          "type": "bool"
        }
      ],
      "stateMutability": "view",
      "type": "function"
    },
    {
      "inputs": [
        {
          "internalType": "address",
          "name": "_libAddressManager",
          "type": "address"
        }
      ],
      "name": "initialize",
      "outputs": [],
      "stateMutability": "nonpayable",
      "type": "function"
    },
    {
      "inputs": [],
      "name": "libAddressManager",
      "outputs": [
        {
          "internalType": "contract Lib_AddressManager",
          "name": "",
          "type": "address"
        }
      ],
      "stateMutability": "view",
      "type": "function"
    },
    {
      "inputs": [],
      "name": "owner",
      "outputs": [
        {
          "internalType": "address",
          "name": "",
          "type": "address"
        }
      ],
      "stateMutability": "view",
      "type": "function"
    },
    {
      "inputs": [],
      "name": "pause",
      "outputs": [],
      "stateMutability": "nonpayable",
      "type": "function"
    },
    {
      "inputs": [],
      "name": "paused",
      "outputs": [
        {
          "internalType": "bool",
          "name": "",
          "type": "bool"
        }
      ],
      "stateMutability": "view",
      "type": "function"
    },
    {
      "inputs": [
        {
          "internalType": "address",
          "name": "_target",
          "type": "address"
        },
        {
          "internalType": "address",
          "name": "_sender",
          "type": "address"
        },
        {
          "internalType": "bytes",
          "name": "_message",
          "type": "bytes"
        },
        {
          "internalType": "uint256",
          "name": "_messageNonce",
          "type": "uint256"
        },
        {
          "components": [
            {
              "internalType": "bytes32",
              "name": "stateRoot",
              "type": "bytes32"
            },
            {
              "components": [
                {
                  "internalType": "uint256",
                  "name": "batchIndex",
                  "type": "uint256"
                },
                {
                  "internalType": "bytes32",
                  "name": "batchRoot",
                  "type": "bytes32"
                },
                {
                  "internalType": "uint256",
                  "name": "batchSize",
                  "type": "uint256"
                },
                {
                  "internalType": "uint256",
                  "name": "prevTotalElements",
                  "type": "uint256"
                },
                {
                  "internalType": "bytes",
                  "name": "extraData",
                  "type": "bytes"
                }
              ],
              "internalType": "struct Lib_OVMCodec.ChainBatchHeader",
              "name": "stateRootBatchHeader",
              "type": "tuple"
            },
            {
              "components": [
                {
                  "internalType": "uint256",
                  "name": "index",
                  "type": "uint256"
                },
                {
                  "internalType": "bytes32[]",
                  "name": "siblings",
                  "type": "bytes32[]"
                }
              ],
              "internalType": "struct Lib_OVMCodec.ChainInclusionProof",
              "name": "stateRootProof",
              "type": "tuple"
            },
            {
              "internalType": "bytes",
              "name": "stateTrieWitness",
              "type": "bytes"
            },
            {
              "internalType": "bytes",
              "name": "storageTrieWitness",
              "type": "bytes"
            }
          ],
          "internalType": "struct IL1CrossDomainMessenger.L2MessageInclusionProof",
          "name": "_proof",
          "type": "tuple"
        }
      ],
      "name": "relayMessage",
      "outputs": [],
      "stateMutability": "nonpayable",
      "type": "function"
    },
    {
      "inputs": [
        {
          "internalType": "bytes32",
          "name": "",
          "type": "bytes32"
        }
      ],
      "name": "relayedMessages",
      "outputs": [
        {
          "internalType": "bool",
          "name": "",
          "type": "bool"
        }
      ],
      "stateMutability": "view",
      "type": "function"
    },
    {
      "inputs": [],
      "name": "renounceOwnership",
      "outputs": [],
      "stateMutability": "nonpayable",
      "type": "function"
    },
    {
      "inputs": [
        {
          "internalType": "address",
          "name": "_target",
          "type": "address"
        },
        {
          "internalType": "address",
          "name": "_sender",
          "type": "address"
        },
        {
          "internalType": "bytes",
          "name": "_message",
          "type": "bytes"
        },
        {
          "internalType": "uint256",
          "name": "_queueIndex",
          "type": "uint256"
        },
        {
          "internalType": "uint32",
          "name": "_gasLimit",
          "type": "uint32"
        }
      ],
      "name": "replayMessage",
      "outputs": [],
      "stateMutability": "nonpayable",
      "type": "function"
    },
    {
      "inputs": [
        {
          "internalType": "string",
          "name": "_name",
          "type": "string"
        }
      ],
      "name": "resolve",
      "outputs": [
        {
          "internalType": "address",
          "name": "",
          "type": "address"
        }
      ],
      "stateMutability": "view",
      "type": "function"
    },
    {
      "inputs": [
        {
          "internalType": "address",
          "name": "_target",
          "type": "address"
        },
        {
          "internalType": "bytes",
          "name": "_message",
          "type": "bytes"
        },
        {
          "internalType": "uint32",
          "name": "_gasLimit",
          "type": "uint32"
        }
      ],
      "name": "sendMessage",
      "outputs": [],
      "stateMutability": "nonpayable",
      "type": "function"
    },
    {
      "inputs": [
        {
          "internalType": "bytes32",
          "name": "",
          "type": "bytes32"
        }
      ],
      "name": "successfulMessages",
      "outputs": [
        {
          "internalType": "bool",
          "name": "",
          "type": "bool"
        }
      ],
      "stateMutability": "view",
      "type": "function"
    },
    {
      "inputs": [
        {
          "internalType": "address",
          "name": "newOwner",
          "type": "address"
        }
      ],
      "name": "transferOwnership",
      "outputs": [],
      "stateMutability": "nonpayable",
      "type": "function"
    },
    {
      "inputs": [],
      "name": "unpause",
      "outputs": [],
      "stateMutability": "nonpayable",
      "type": "function"
    },
    {
      "inputs": [],
      "name": "xDomainMessageSender",
      "outputs": [
        {
          "internalType": "address",
          "name": "",
          "type": "address"
        }
      ],
      "stateMutability": "view",
      "type": "function"
    }
  ],
  "bytecode": "0x608060405260cd80546001600160a01b03191661dead17905534801561002457600080fd5b50600080546001600160a01b0319169055613b5c806100446000396000f3fe608060405234801561001057600080fd5b50600436106101515760003560e01c8063715018a6116100cd578063b1b1b20911610081578063c6b94ab011610066578063c6b94ab0146102d6578063d7fd19dd146102f9578063f2fde38b1461030c57600080fd5b8063b1b1b209146102a0578063c4d66de8146102c357600080fd5b80638456cb59116100b25780638456cb59146102575780638da5cb5b1461025f578063a4e7f8bd1461027d57600080fd5b8063715018a61461023c57806381ada46c1461024457600080fd5b80633f4ba83a116101245780635c975abb116101095780635c975abb146102165780636e296e4514610221578063706ceab61461022957600080fd5b80633f4ba83a146101fb578063461a44781461020357600080fd5b80630ecf2eea1461015657806321d800ec1461016b578063299ca478146101a35780633dbb202b146101e8575b600080fd5b61016961016436600461311d565b61031f565b005b61018e61017936600461311d565b60ca6020526000908152604090205460ff1681565b60405190151581526020015b60405180910390f35b6000546101c39073ffffffffffffffffffffffffffffffffffffffff1681565b60405173ffffffffffffffffffffffffffffffffffffffff909116815260200161019a565b6101696101f6366004613295565b6103ce565b61016961043c565b6101c36102113660046132f5565b6104ad565b60655460ff1661018e565b6101c361055a565b610169610237366004613346565b6105e4565b6101696107b4565b61016961025236600461311d565b610825565b6101696108cc565b60335473ffffffffffffffffffffffffffffffffffffffff166101c3565b61018e61028b36600461311d565b60cc6020526000908152604090205460ff1681565b61018e6102ae36600461311d565b60cb6020526000908152604090205460ff1681565b6101696102d13660046133c3565b61093b565b61018e6102e436600461311d565b60c96020526000908152604090205460ff1681565b610169610307366004613529565b610b88565b61016961031a3660046133c3565b611148565b60335473ffffffffffffffffffffffffffffffffffffffff16331461038b5760405162461bcd60e51b815260206004820181905260248201527f4f776e61626c653a2063616c6c6572206973206e6f7420746865206f776e657260448201526064015b60405180910390fd5b600081815260c96020526040808220805460ff191660011790555182917ff52508d5339edf0d7e5060a416df98db067af561bdc60872d29c0439eaa13a0291a250565b60405162461bcd60e51b815260206004820152602660248201527f53656e64696e67207669612074686973206d657373656e67657220697320646960448201527f7361626c656400000000000000000000000000000000000000000000000000006064820152608401610382565b60335473ffffffffffffffffffffffffffffffffffffffff1633146104a35760405162461bcd60e51b815260206004820181905260248201527f4f776e61626c653a2063616c6c6572206973206e6f7420746865206f776e65726044820152606401610382565b6104ab611244565b565b600080546040517fbf40fac100000000000000000000000000000000000000000000000000000000815273ffffffffffffffffffffffffffffffffffffffff9091169063bf40fac1906105049085906004016136be565b60206040518083038186803b15801561051c57600080fd5b505afa158015610530573d6000803e3d6000fd5b505050506040513d601f19601f8201168201806040525081019061055491906136d1565b92915050565b60cd5460009073ffffffffffffffffffffffffffffffffffffffff1661dead14156105c75760405162461bcd60e51b815260206004820152601f60248201527f78446f6d61696e4d65737361676553656e646572206973206e6f7420736574006044820152606401610382565b5060cd5473ffffffffffffffffffffffffffffffffffffffff1690565b60006106246040518060400160405280601981526020017f43616e6f6e6963616c5472616e73616374696f6e436861696e000000000000008152506104ad565b6040517f2a7f18be0000000000000000000000000000000000000000000000000000000081526004810185905290915060009073ffffffffffffffffffffffffffffffffffffffff831690632a7f18be9060240160606040518083038186803b15801561069057600080fd5b505afa1580156106a4573d6000803e3d6000fd5b505050506040513d601f19601f820116820180604052508101906106c89190613703565b905060003073420000000000000000000000000000000000000785886040516020016106f79493929190613768565b604051602081830303815290604052805190602001209050816000015181146107885760405162461bcd60e51b815260206004820152602760248201527f50726f7669646564206d65737361676520686173206e6f74206265656e20656e60448201527f7175657565642e000000000000000000000000000000000000000000000000006064820152608401610382565b6000610796898989896112ed565b90506107a984828763ffffffff166103ce565b505050505050505050565b60335473ffffffffffffffffffffffffffffffffffffffff16331461081b5760405162461bcd60e51b815260206004820181905260248201527f4f776e61626c653a2063616c6c6572206973206e6f7420746865206f776e65726044820152606401610382565b6104ab6000611368565b60335473ffffffffffffffffffffffffffffffffffffffff16331461088c5760405162461bcd60e51b815260206004820181905260248201527f4f776e61626c653a2063616c6c6572206973206e6f7420746865206f776e65726044820152606401610382565b600081815260c96020526040808220805460ff191690555182917f52c8a2680a9f4cc0ad0bf88f32096eadbebf0646ea611d93a0ce6a29a024040591a250565b60335473ffffffffffffffffffffffffffffffffffffffff1633146109335760405162461bcd60e51b815260206004820181905260248201527f4f776e61626c653a2063616c6c6572206973206e6f7420746865206f776e65726044820152606401610382565b6104ab6113df565b6000547501000000000000000000000000000000000000000000900460ff1680610980575060005474010000000000000000000000000000000000000000900460ff16155b6109f25760405162461bcd60e51b815260206004820152602e60248201527f496e697469616c697a61626c653a20636f6e747261637420697320616c72656160448201527f647920696e697469616c697a65640000000000000000000000000000000000006064820152608401610382565b6000547501000000000000000000000000000000000000000000900460ff16158015610a5957600080547fffffffffffffffffffff0000ffffffffffffffffffffffffffffffffffffffff1675010100000000000000000000000000000000000000001790555b60005473ffffffffffffffffffffffffffffffffffffffff1615610ae55760405162461bcd60e51b815260206004820152602a60248201527f4c3143726f7373446f6d61696e4d657373656e67657220616c7265616479206960448201527f6e7469616c697a65642e000000000000000000000000000000000000000000006064820152608401610382565b6000805473ffffffffffffffffffffffffffffffffffffffff84167fffffffffffffffffffffffff00000000000000000000000000000000000000009182161790915560cd805490911661dead179055610b3d611467565b610b456115b6565b610b4d6116dd565b610b55611836565b8015610b8457600080547fffffffffffffffffffff00ffffffffffffffffffffffffffffffffffffffffff1690555b5050565b6000610bc86040518060400160405280601481526020017f4f564d5f4c324d65737361676552656c617965720000000000000000000000008152506104ad565b905073ffffffffffffffffffffffffffffffffffffffff811615610c71573373ffffffffffffffffffffffffffffffffffffffff821614610c715760405162461bcd60e51b815260206004820152603660248201527f4f6e6c79204f564d5f4c324d65737361676552656c617965722063616e20726560448201527f6c6179204c322d746f2d4c31206d657373616765732e000000000000000000006064820152608401610382565b60026097541415610cc45760405162461bcd60e51b815260206004820152601f60248201527f5265656e7472616e637947756172643a207265656e7472616e742063616c6c006044820152606401610382565b600260975560655460ff1615610d1c5760405162461bcd60e51b815260206004820152601060248201527f5061757361626c653a20706175736564000000000000000000000000000000006044820152606401610382565b6000610d2a878787876112ed565b9050610d36818461198a565b1515600114610dad5760405162461bcd60e51b815260206004820152602760248201527f50726f7669646564206d65737361676520636f756c64206e6f7420626520766560448201527f7269666965642e000000000000000000000000000000000000000000000000006064820152608401610382565b8051602080830191909120600081815260cb90925260409091205460ff1615610e3e5760405162461bcd60e51b815260206004820152602b60248201527f50726f7669646564206d6573736167652068617320616c72656164792062656560448201527f6e2072656365697665642e0000000000000000000000000000000000000000006064820152608401610382565b600081815260c9602052604090205460ff1615610ec35760405162461bcd60e51b815260206004820152602260248201527f50726f7669646564206d65737361676520686173206265656e20626c6f636b6560448201527f642e0000000000000000000000000000000000000000000000000000000000006064820152608401610382565b610f016040518060400160405280601981526020017f43616e6f6e6963616c5472616e73616374696f6e436861696e000000000000008152506104ad565b73ffffffffffffffffffffffffffffffffffffffff168873ffffffffffffffffffffffffffffffffffffffff161415610fa25760405162461bcd60e51b815260206004820152603360248201527f43616e6e6f742073656e64204c322d3e4c31206d6573736167657320746f204c60448201527f312073797374656d20636f6e7472616374732e000000000000000000000000006064820152608401610382565b60cd80547fffffffffffffffffffffffff00000000000000000000000000000000000000001673ffffffffffffffffffffffffffffffffffffffff898116919091179091556040516000918a1690610ffb9089906137ad565b6000604051808303816000865af19150503d8060008114611038576040519150601f19603f3d011682016040523d82523d6000602084013e61103d565b606091505b505060cd80547fffffffffffffffffffffffff00000000000000000000000000000000000000001661dead1790559050801515600114156110bd57600082815260cb6020526040808220805460ff191660011790555183917f4641df4a962071e12719d8c8c8e5ac7fc4d97b927346a3d7a335b1f7517e133c91a26110f0565b600082815260cc60205260405183917f99d0e048484baa1b1540b1367cb128acd7ab2946d1ed91ec10e3c85e4bf51b8f91a25b6000833343604051602001611107939291906137c9565b60408051601f198184030181529181528151602092830120600090815260ca9092529020805460ff1916600190811790915560975550505050505050505050565b60335473ffffffffffffffffffffffffffffffffffffffff1633146111af5760405162461bcd60e51b815260206004820181905260248201527f4f776e61626c653a2063616c6c6572206973206e6f7420746865206f776e65726044820152606401610382565b73ffffffffffffffffffffffffffffffffffffffff81166112385760405162461bcd60e51b815260206004820152602660248201527f4f776e61626c653a206e6577206f776e657220697320746865207a65726f206160448201527f64647265737300000000000000000000000000000000000000000000000000006064820152608401610382565b61124181611368565b50565b60655460ff166112965760405162461bcd60e51b815260206004820152601460248201527f5061757361626c653a206e6f74207061757365640000000000000000000000006044820152606401610382565b6065805460ff191690557f5db9ee0a495bf2e6ff9c91a7834c1ba4fdd244a5e8aa4e537bd38aeae4b073aa335b60405173ffffffffffffffffffffffffffffffffffffffff909116815260200160405180910390a1565b606084848484604051602401611306949392919061381b565b60408051601f198184030181529190526020810180517bffffffffffffffffffffffffffffffffffffffffffffffffffffffff167fcbd4ece9000000000000000000000000000000000000000000000000000000001790529050949350505050565b6033805473ffffffffffffffffffffffffffffffffffffffff8381167fffffffffffffffffffffffff0000000000000000000000000000000000000000831681179093556040519116919082907f8be0079c531659141344cd1fd0a4f28419497f9722a3daafe3b4186f6b6457e090600090a35050565b60655460ff16156114325760405162461bcd60e51b815260206004820152601060248201527f5061757361626c653a20706175736564000000000000000000000000000000006044820152606401610382565b6065805460ff191660011790557f62e78cea01bee320cd4e420270b5ea74000d11b0c9f74754ebdbfc544b05a2586112c33390565b6000547501000000000000000000000000000000000000000000900460ff16806114ac575060005474010000000000000000000000000000000000000000900460ff16155b61151e5760405162461bcd60e51b815260206004820152602e60248201527f496e697469616c697a61626c653a20636f6e747261637420697320616c72656160448201527f647920696e697469616c697a65640000000000000000000000000000000000006064820152608401610382565b6000547501000000000000000000000000000000000000000000900460ff1615801561158557600080547fffffffffffffffffffff0000ffffffffffffffffffffffffffffffffffffffff1675010100000000000000000000000000000000000000001790555b801561124157600080547fffffffffffffffffffff00ffffffffffffffffffffffffffffffffffffffffff16905550565b6000547501000000000000000000000000000000000000000000900460ff16806115fb575060005474010000000000000000000000000000000000000000900460ff16155b61166d5760405162461bcd60e51b815260206004820152602e60248201527f496e697469616c697a61626c653a20636f6e747261637420697320616c72656160448201527f647920696e697469616c697a65640000000000000000000000000000000000006064820152608401610382565b6000547501000000000000000000000000000000000000000000900460ff161580156116d457600080547fffffffffffffffffffff0000ffffffffffffffffffffffffffffffffffffffff1675010100000000000000000000000000000000000000001790555b61158533611368565b6000547501000000000000000000000000000000000000000000900460ff1680611722575060005474010000000000000000000000000000000000000000900460ff16155b6117945760405162461bcd60e51b815260206004820152602e60248201527f496e697469616c697a61626c653a20636f6e747261637420697320616c72656160448201527f647920696e697469616c697a65640000000000000000000000000000000000006064820152608401610382565b6000547501000000000000000000000000000000000000000000900460ff161580156117fb57600080547fffffffffffffffffffff0000ffffffffffffffffffffffffffffffffffffffff1675010100000000000000000000000000000000000000001790555b6065805460ff19169055801561124157600080547fffffffffffffffffffff00ffffffffffffffffffffffffffffffffffffffffff16905550565b6000547501000000000000000000000000000000000000000000900460ff168061187b575060005474010000000000000000000000000000000000000000900460ff16155b6118ed5760405162461bcd60e51b815260206004820152602e60248201527f496e697469616c697a61626c653a20636f6e747261637420697320616c72656160448201527f647920696e697469616c697a65640000000000000000000000000000000000006064820152608401610382565b6000547501000000000000000000000000000000000000000000900460ff1615801561195457600080547fffffffffffffffffffff0000ffffffffffffffffffffffffffffffffffffffff1675010100000000000000000000000000000000000000001790555b6001609755801561124157600080547fffffffffffffffffffff00ffffffffffffffffffffffffffffffffffffffffff16905550565b6000611995826119ad565b80156119a657506119a68383611aa1565b9392505050565b6000806119ee6040518060400160405280601481526020017f5374617465436f6d6d69746d656e74436861696e0000000000000000000000008152506104ad565b8351602085015160408087015190517f4d69ee5700000000000000000000000000000000000000000000000000000000815293945073ffffffffffffffffffffffffffffffffffffffff851693634d69ee5793611a519390929091600401613865565b60206040518083038186803b158015611a6957600080fd5b505afa158015611a7d573d6000803e3d6000fd5b505050506040513d601f19601f820116820180604052508101906119a69190613910565b60008083734200000000000000000000000000000000000007604051602001611acb929190613932565b60408051601f1981840301815282825280516020918201209083015260009082015260600160408051601f198184030181529082905280516020918201207f42000000000000000000000000000000000000000000000000000000000000009183019190915291506000908190611b5b9060340160408051601f1981840301815291905260608701518751611c85565b9092509050600182151514611bfe5760405162461bcd60e51b815260206004820152604d60248201527f4d6573736167652070617373696e67207072656465706c6f7920686173206e6f60448201527f74206265656e20696e697469616c697a6564206f7220696e76616c696420707260648201527f6f6f662070726f76696465642e00000000000000000000000000000000000000608482015260a401610382565b6000611c0982611cae565b9050611c7a84604051602001611c2191815260200190565b60408051601f19818403018152908290527f010000000000000000000000000000000000000000000000000000000000000060208301529060210160405160208183030381529060405288608001518460400151611d72565b979650505050505050565b600060606000611c9486611d96565b9050611ca1818686611dc8565b9250925050935093915050565b604080516080810182526000808252602082018190529181018290526060810182905290611cdb83611ea3565b90506040518060800160405280611d0b83600081518110611cfe57611cfe61397c565b6020026020010151611ed6565b8152602001611d2683600181518110611cfe57611cfe61397c565b8152602001611d4e83600281518110611d4157611d4161397c565b6020026020010151611edd565b8152602001611d6983600381518110611d4157611d4161397c565b90529392505050565b600080611d7e86611d96565b9050611d8c81868686611fdf565b9695505050505050565b60608180519060200120604051602001611db291815260200190565b6040516020818303038152906040529050919050565b600060606000611dd785612015565b90506000806000611de9848a89612110565b81519295509093509150158080611dfd5750815b611e495760405162461bcd60e51b815260206004820152601a60248201527f50726f76696465642070726f6f6620697320696e76616c69642e0000000000006044820152606401610382565b600081611e655760405180602001604052806000815250611e91565b611e9186611e746001886139da565b81518110611e8457611e8461397c565b60200260200101516125ab565b919b919a509098505050505050505050565b604080518082018252600080825260209182015281518083019092528251825280830190820152606090610554906125d5565b6000610554825b6000602182600001511115611f345760405162461bcd60e51b815260206004820152601a60248201527f496e76616c696420524c5020627974657333322076616c75652e0000000000006044820152606401610382565b6000806000611f42856127d4565b919450925090506000816001811115611f5d57611f5d6139f1565b14611faa5760405162461bcd60e51b815260206004820152601a60248201527f496e76616c696420524c5020627974657333322076616c75652e0000000000006044820152606401610382565b6000838660200151611fbc9190613a20565b80519091506020841015611d8c5760208490036101000a90049695505050505050565b6000806000611fef878686611dc8565b91509150818015611c7a5750805160208083019190912087519188019190912014611c7a565b6060600061202283611ea3565b90506000815167ffffffffffffffff81111561204057612040613158565b60405190808252806020026020018201604052801561208557816020015b604080518082019091526060808252602082015281526020019060019003908161205e5790505b50905060005b82518110156121085760006120b88483815181106120ab576120ab61397c565b6020026020010151612b25565b905060405180604001604052808281526020016120d483611ea3565b8152508383815181106120e9576120e961397c565b602002602001018190525050808061210090613a38565b91505061208b565b509392505050565b6000606081808061212087612bb5565b90506000869050600080612147604051806040016040528060608152602001606081525090565b60005b8c51811015612567578c81815181106121655761216561397c565b60200260200101519150828461217b9190613a20565b9350612188600188613a20565b9650836121ec578151805160209091012085146121e75760405162461bcd60e51b815260206004820152601160248201527f496e76616c696420726f6f7420686173680000000000000000000000000000006044820152606401610382565b6122a9565b81515160201161224e578151805160209091012085146121e75760405162461bcd60e51b815260206004820152601b60248201527f496e76616c6964206c6172676520696e7465726e616c206861736800000000006044820152606401610382565b8461225c8360000151612d38565b146122a95760405162461bcd60e51b815260206004820152601a60248201527f496e76616c696420696e7465726e616c206e6f646520686173680000000000006044820152606401610382565b6122b560106001613a20565b826020015151141561232e5785518414156122cf57612567565b60008685815181106122e3576122e361397c565b602001015160f81c60f81b60f81c9050600083602001518260ff168151811061230e5761230e61397c565b6020026020010151905061232181612d60565b9650600194505050612555565b6002826020015151141561250d57600061234783612d96565b905060008160008151811061235e5761235e61397c565b016020015160f81c90506000612375600283613aa0565b612380906002613ac2565b90506000612391848360ff16612dba565b9050600061239f8b8a612dba565b905060006123ad8383612df0565b905060ff8516600214806123c4575060ff85166003145b1561241a578083511480156123d95750808251145b156123eb576123e8818b613a20565b99505b507f80000000000000000000000000000000000000000000000000000000000000009950612567945050505050565b60ff8516158061242d575060ff85166001145b1561249f578251811461246957507f80000000000000000000000000000000000000000000000000000000000000009950612567945050505050565b61249088602001516001815181106124835761248361397c565b6020026020010151612d60565b9a509750612555945050505050565b60405162461bcd60e51b815260206004820152602660248201527f52656365697665642061206e6f6465207769746820616e20756e6b6e6f776e2060448201527f70726566697800000000000000000000000000000000000000000000000000006064820152608401610382565b60405162461bcd60e51b815260206004820152601d60248201527f526563656976656420616e20756e706172736561626c65206e6f64652e0000006044820152606401610382565b8061255f81613a38565b91505061214a565b507f80000000000000000000000000000000000000000000000000000000000000008414866125968786612dba565b909e909d50909b509950505050505050505050565b60208101518051606091610554916125c5906001906139da565b815181106120ab576120ab61397c565b60606000806125e3846127d4565b919350909150600190508160018111156125ff576125ff6139f1565b1461264c5760405162461bcd60e51b815260206004820152601760248201527f496e76616c696420524c50206c6973742076616c75652e0000000000000000006044820152606401610382565b6040805160208082526104208201909252600091816020015b60408051808201909152600080825260208201528152602001906001900390816126655790505090506000835b86518110156127c957602082106127115760405162461bcd60e51b815260206004820152602a60248201527f50726f766964656420524c50206c6973742065786365656473206d6178206c6960448201527f7374206c656e6774682e000000000000000000000000000000000000000000006064820152608401610382565b60008061274e6040518060400160405280858c6000015161273291906139da565b8152602001858c602001516127479190613a20565b90526127d4565b50915091506040518060400160405280838361276a9190613a20565b8152602001848b6020015161277f9190613a20565b8152508585815181106127945761279461397c565b60209081029190910101526127aa600185613a20565b93506127b68183613a20565b6127c09084613a20565b92505050612692565b508152949350505050565b60008060008084600001511161282c5760405162461bcd60e51b815260206004820152601860248201527f524c50206974656d2063616e6e6f74206265206e756c6c2e00000000000000006044820152606401610382565b6020840151805160001a607f8111612851576000600160009450945094505050612b1e565b60b781116128cd5760006128666080836139da565b9050808760000151116128bb5760405162461bcd60e51b815260206004820152601960248201527f496e76616c696420524c502073686f727420737472696e672e000000000000006044820152606401610382565b60019550935060009250612b1e915050565b60bf81116129bc5760006128e260b7836139da565b9050808760000151116129375760405162461bcd60e51b815260206004820152601f60248201527f496e76616c696420524c50206c6f6e6720737472696e67206c656e6774682e006044820152606401610382565b600183015160208290036101000a90046129518183613a20565b8851116129a05760405162461bcd60e51b815260206004820152601860248201527f496e76616c696420524c50206c6f6e6720737472696e672e00000000000000006044820152606401610382565b6129ab826001613a20565b9650945060009350612b1e92505050565b60f78111612a375760006129d160c0836139da565b905080876000015111612a265760405162461bcd60e51b815260206004820152601760248201527f496e76616c696420524c502073686f7274206c6973742e0000000000000000006044820152606401610382565b600195509350849250612b1e915050565b6000612a4460f7836139da565b905080876000015111612a995760405162461bcd60e51b815260206004820152601d60248201527f496e76616c696420524c50206c6f6e67206c697374206c656e6774682e0000006044820152606401610382565b600183015160208290036101000a9004612ab38183613a20565b885111612b025760405162461bcd60e51b815260206004820152601660248201527f496e76616c696420524c50206c6f6e67206c6973742e000000000000000000006044820152606401610382565b612b0d826001613a20565b9650945060019350612b1e92505050565b9193909250565b60606000806000612b35856127d4565b919450925090506000816001811115612b5057612b506139f1565b14612b9d5760405162461bcd60e51b815260206004820152601860248201527f496e76616c696420524c502062797465732076616c75652e00000000000000006044820152606401610382565b612bac85602001518484612e9c565b95945050505050565b6060600082516002612bc79190613ae5565b67ffffffffffffffff811115612bdf57612bdf613158565b6040519080825280601f01601f191660200182016040528015612c09576020820181803683370190505b50905060005b8351811015612d31576004848281518110612c2c57612c2c61397c565b01602001517fff0000000000000000000000000000000000000000000000000000000000000016901c82612c61836002613ae5565b81518110612c7157612c7161397c565b60200101907effffffffffffffffffffffffffffffffffffffffffffffffffffffffffffff1916908160001a9053506010848281518110612cb457612cb461397c565b0160200151612cc6919060f81c613aa0565b60f81b82612cd5836002613ae5565b612ce0906001613a20565b81518110612cf057612cf061397c565b60200101907effffffffffffffffffffffffffffffffffffffffffffffffffffffffffffff1916908160001a90535080612d2981613a38565b915050612c0f565b5092915050565b6000602082511015612d4c57506020015190565b818060200190518101906105549190613b22565b60006060602083600001511015612d8157612d7a83612f7b565b9050612d8d565b612d8a83612b25565b90505b6119a681612d38565b6060610554612db583602001516000815181106120ab576120ab61397c565b612bb5565b606082518210612dd95750604080516020810190915260008152610554565b6119a68383848651612deb91906139da565b612f86565b6000805b808451118015612e045750808351115b8015612e855750828181518110612e1d57612e1d61397c565b602001015160f81c60f81b7effffffffffffffffffffffffffffffffffffffffffffffffffffffffffffff1916848281518110612e5c57612e5c61397c565b01602001517fff0000000000000000000000000000000000000000000000000000000000000016145b156119a65780612e9481613a38565b915050612df4565b606060008267ffffffffffffffff811115612eb957612eb9613158565b6040519080825280601f01601f191660200182016040528015612ee3576020820181803683370190505b509050805160001415612ef75790506119a6565b6000612f038587613a20565b90506020820160005b612f17602087613b3b565b811015612f4e5782518252612f2d602084613a20565b9250612f3a602083613a20565b915080612f4681613a38565b915050612f0c565b5060006001602087066020036101000a039050808251168119845116178252839450505050509392505050565b606061055482613107565b606081612f9481601f613a20565b1015612fe25760405162461bcd60e51b815260206004820152600e60248201527f736c6963655f6f766572666c6f770000000000000000000000000000000000006044820152606401610382565b82612fed8382613a20565b101561303b5760405162461bcd60e51b815260206004820152600e60248201527f736c6963655f6f766572666c6f770000000000000000000000000000000000006044820152606401610382565b6130458284613a20565b845110156130955760405162461bcd60e51b815260206004820152601160248201527f736c6963655f6f75744f66426f756e64730000000000000000000000000000006044820152606401610382565b6060821580156130b457604051915060008252602082016040526130fe565b6040519150601f8416801560200281840101858101878315602002848b0101015b818310156130ed5780518352602092830192016130d5565b5050858452601f01601f1916604052505b50949350505050565b6060610554826020015160008460000151612e9c565b60006020828403121561312f57600080fd5b5035919050565b73ffffffffffffffffffffffffffffffffffffffff8116811461124157600080fd5b7f4e487b7100000000000000000000000000000000000000000000000000000000600052604160045260246000fd5b6040805190810167ffffffffffffffff811182821017156131aa576131aa613158565b60405290565b60405160a0810167ffffffffffffffff811182821017156131aa576131aa613158565b604051601f8201601f1916810167ffffffffffffffff811182821017156131fc576131fc613158565b604052919050565b600067ffffffffffffffff83111561321e5761321e613158565b6132316020601f19601f860116016131d3565b905082815283838301111561324557600080fd5b828260208301376000602084830101529392505050565b600082601f83011261326d57600080fd5b6119a683833560208501613204565b803563ffffffff8116811461329057600080fd5b919050565b6000806000606084860312156132aa57600080fd5b83356132b581613136565b9250602084013567ffffffffffffffff8111156132d157600080fd5b6132dd8682870161325c565b9250506132ec6040850161327c565b90509250925092565b60006020828403121561330757600080fd5b813567ffffffffffffffff81111561331e57600080fd5b8201601f8101841361332f57600080fd5b61333e84823560208401613204565b949350505050565b600080600080600060a0868803121561335e57600080fd5b853561336981613136565b9450602086013561337981613136565b9350604086013567ffffffffffffffff81111561339557600080fd5b6133a18882890161325c565b935050606086013591506133b76080870161327c565b90509295509295909350565b6000602082840312156133d557600080fd5b81356119a681613136565b600060a082840312156133f257600080fd5b60405160a0810167ffffffffffffffff828210818311171561341657613416613158565b8160405282935084358352602085013560208401526040850135604084015260608501356060840152608085013591508082111561345357600080fd5b506134608582860161325c565b6080830152505092915050565b60006040828403121561347f57600080fd5b613487613187565b90508135815260208083013567ffffffffffffffff808211156134a957600080fd5b818501915085601f8301126134bd57600080fd5b8135818111156134cf576134cf613158565b8060051b91506134e08483016131d3565b81815291830184019184810190888411156134fa57600080fd5b938501935b83851015613518578435825293850193908501906134ff565b808688015250505050505092915050565b600080600080600060a0868803121561354157600080fd5b853561354c81613136565b9450602086013561355c81613136565b9350604086013567ffffffffffffffff8082111561357957600080fd5b61358589838a0161325c565b94506060880135935060808801359150808211156135a257600080fd5b9087019060a0828a0312156135b657600080fd5b6135be6131b0565b823581526020830135828111156135d457600080fd5b6135e08b8286016133e0565b6020830152506040830135828111156135f857600080fd5b6136048b82860161346d565b60408301525060608301358281111561361c57600080fd5b6136288b82860161325c565b60608301525060808301358281111561364057600080fd5b61364c8b82860161325c565b6080830152508093505050509295509295909350565b60005b8381101561367d578181015183820152602001613665565b8381111561368c576000848401525b50505050565b600081518084526136aa816020860160208601613662565b601f01601f19169290920160200192915050565b6020815260006119a66020830184613692565b6000602082840312156136e357600080fd5b81516119a681613136565b805164ffffffffff8116811461329057600080fd5b60006060828403121561371557600080fd5b6040516060810181811067ffffffffffffffff8211171561373857613738613158565b6040528251815261374b602084016136ee565b602082015261375c604084016136ee565b60408201529392505050565b600073ffffffffffffffffffffffffffffffffffffffff808716835280861660208401525063ffffffff8416604083015260806060830152611d8c6080830184613692565b600082516137bf818460208701613662565b9190910192915050565b600084516137db818460208901613662565b60609490941b7fffffffffffffffffffffffffffffffffffffffff0000000000000000000000001691909301908152601481019190915260340192915050565b600073ffffffffffffffffffffffffffffffffffffffff8087168352808616602084015250608060408301526138546080830185613692565b905082606083015295945050505050565b8381526000602060608184015284516060840152808501516080840152604085015160a0840152606085015160c0840152608085015160a060e08501526138b0610100850182613692565b905083810360408501526040810185518252828601516040848401528181518084526060850191508583019450600093505b8084101561390257845182529385019360019390930192908501906138e2565b509998505050505050505050565b60006020828403121561392257600080fd5b815180151581146119a657600080fd5b60008351613944818460208801613662565b60609390931b7fffffffffffffffffffffffffffffffffffffffff000000000000000000000000169190920190815260140192915050565b7f4e487b7100000000000000000000000000000000000000000000000000000000600052603260045260246000fd5b7f4e487b7100000000000000000000000000000000000000000000000000000000600052601160045260246000fd5b6000828210156139ec576139ec6139ab565b500390565b7f4e487b7100000000000000000000000000000000000000000000000000000000600052602160045260246000fd5b60008219821115613a3357613a336139ab565b500190565b60007fffffffffffffffffffffffffffffffffffffffffffffffffffffffffffffffff821415613a6a57613a6a6139ab565b5060010190565b7f4e487b7100000000000000000000000000000000000000000000000000000000600052601260045260246000fd5b600060ff831680613ab357613ab3613a71565b8060ff84160691505092915050565b600060ff821660ff841680821015613adc57613adc6139ab565b90039392505050565b6000817fffffffffffffffffffffffffffffffffffffffffffffffffffffffffffffffff0483118215151615613b1d57613b1d6139ab565b500290565b600060208284031215613b3457600080fd5b5051919050565b600082613b4a57613b4a613a71565b50049056fea164736f6c6343000808000a",
  "linkReferences": {},
  "deployedLinkReferences": {}
}