{
  "_format": "hh-sol-artifact-1",
  "contractName": "TuringTest",
  "sourceName": "contracts/TuringTest.sol",
  "abi": [
    {
      "inputs": [
        {
          "internalType": "string",
          "name": "_url",
          "type": "string"
        },
        {
          "internalType": "bytes",
          "name": "_payload",
          "type": "bytes"
        }
      ],
      "name": "TuringTx",
      "outputs": [
        {
          "internalType": "bytes",
          "name": "",
          "type": "bytes"
        }
      ],
      "stateMutability": "nonpayable",
      "type": "function"
    },
    {
      "inputs": [],
      "name": "payload",
      "outputs": [
        {
          "internalType": "bytes",
          "name": "",
          "type": "bytes"
        }
      ],
      "stateMutability": "view",
      "type": "function"
    },
    {
      "inputs": [
        {
          "internalType": "bytes4",
          "name": "_interfaceId",
          "type": "bytes4"
        }
      ],
      "name": "supportsInterface",
      "outputs": [
        {
          "internalType": "bool",
          "name": "",
          "type": "bool"
        }
      ],
      "stateMutability": "pure",
      "type": "function"
    },
    {
      "inputs": [],
      "name": "url",
      "outputs": [
        {
          "internalType": "string",
          "name": "",
          "type": "string"
        }
      ],
      "stateMutability": "view",
      "type": "function"
    }
  ],
  "bytecode": "0x608060405234801561001057600080fd5b50610549806100206000396000f3fe608060405234801561001057600080fd5b506004361061004c5760003560e01c806301ffc9a7146100515780632f7adf43146100795780635600f04f14610099578063a878f858146100a1575b600080fd5b61006461005f3660046102cf565b6100a9565b60405190151581526020015b60405180910390f35b61008c6100873660046103db565b610169565b60405161007091906104d5565b61008c61019b565b61008c610229565b60007f01ffc9a7a5cef8baa21ed3c5c0d7e23accb804b619e9333b597f47a0d84076e27f2f7adf43000000000000000000000000000000000000000000000000000000007fffffffff0000000000000000000000000000000000000000000000000000000084167f01ffc9a700000000000000000000000000000000000000000000000000000000148061016157507fffffffff00000000000000000000000000000000000000000000000000000000848116908216145b949350505050565b815160609061017f906000906020860190610236565b508151610193906001906020850190610236565b509092915050565b600080546101a8906104e8565b80601f01602080910402602001604051908101604052809291908181526020018280546101d4906104e8565b80156102215780601f106101f657610100808354040283529160200191610221565b820191906000526020600020905b81548152906001019060200180831161020457829003601f168201915b505050505081565b600180546101a8906104e8565b828054610242906104e8565b90600052602060002090601f01602090048101928261026457600085556102aa565b82601f1061027d57805160ff19168380011785556102aa565b828001600101855582156102aa579182015b828111156102aa57825182559160200191906001019061028f565b506102b69291506102ba565b5090565b5b808211156102b657600081556001016102bb565b6000602082840312156102e157600080fd5b81357fffffffff000000000000000000000000000000000000000000000000000000008116811461031157600080fd5b9392505050565b7f4e487b7100000000000000000000000000000000000000000000000000000000600052604160045260246000fd5b600067ffffffffffffffff8084111561036257610362610318565b604051601f85017fffffffffffffffffffffffffffffffffffffffffffffffffffffffffffffffe0908116603f011681019082821181831017156103a8576103a8610318565b816040528093508581528686860111156103c157600080fd5b858560208301376000602087830101525050509392505050565b600080604083850312156103ee57600080fd5b823567ffffffffffffffff8082111561040657600080fd5b818501915085601f83011261041a57600080fd5b61042986833560208501610347565b9350602085013591508082111561043f57600080fd5b508301601f8101851361045157600080fd5b61046085823560208401610347565b9150509250929050565b6000815180845260005b8181101561049057602081850181015186830182015201610474565b818111156104a2576000602083870101525b50601f017fffffffffffffffffffffffffffffffffffffffffffffffffffffffffffffffe0169290920160200192915050565b602081526000610311602083018461046a565b600181811c908216806104fc57607f821691505b60208210811415610536577f4e487b7100000000000000000000000000000000000000000000000000000000600052602260045260246000fd5b5091905056fea164736f6c6343000809000a",
  "linkReferences": {},
  "deployedLinkReferences": {}
}