{
  "_format": "hh-sol-artifact-1",
  "contractName": "L1LiquidityPool",
  "sourceName": "contracts/LP/L1LiquidityPool.sol",
  "abi": [
    {
      "inputs": [],
      "stateMutability": "nonpayable",
      "type": "constructor"
    },
    {
      "anonymous": false,
      "inputs": [
        {
          "indexed": false,
          "internalType": "address",
          "name": "sender",
          "type": "address"
        },
        {
          "indexed": false,
          "internalType": "uint256",
          "name": "amount",
          "type": "uint256"
        },
        {
          "indexed": false,
          "internalType": "address",
          "name": "tokenAddress",
          "type": "address"
        }
      ],
      "name": "AddLiquidity",
      "type": "event"
    },
    {
      "anonymous": false,
      "inputs": [
        {
          "indexed": false,
          "internalType": "address",
          "name": "sender",
          "type": "address"
        },
        {
          "indexed": false,
          "internalType": "uint256",
          "name": "receivedAmount",
          "type": "uint256"
        },
        {
          "indexed": false,
          "internalType": "address",
          "name": "tokenAddress",
          "type": "address"
        }
      ],
      "name": "ClientDepositL1",
      "type": "event"
    },
    {
      "anonymous": false,
      "inputs": [
        {
          "indexed": false,
          "internalType": "address",
          "name": "sender",
          "type": "address"
        },
        {
          "indexed": false,
          "internalType": "uint256",
          "name": "amount",
          "type": "uint256"
        },
        {
          "indexed": false,
          "internalType": "uint256",
          "name": "userRewardFee",
          "type": "uint256"
        },
        {
          "indexed": false,
          "internalType": "uint256",
          "name": "ownerRewardFee",
          "type": "uint256"
        },
        {
          "indexed": false,
          "internalType": "uint256",
          "name": "totalFee",
          "type": "uint256"
        },
        {
          "indexed": false,
          "internalType": "address",
          "name": "tokenAddress",
          "type": "address"
        }
      ],
      "name": "ClientPayL1",
      "type": "event"
    },
    {
      "anonymous": false,
      "inputs": [
        {
          "indexed": false,
          "internalType": "address",
          "name": "sender",
          "type": "address"
        },
        {
          "indexed": false,
          "internalType": "uint256",
          "name": "amount",
          "type": "uint256"
        },
        {
          "indexed": false,
          "internalType": "uint256",
          "name": "userRewardFee",
          "type": "uint256"
        },
        {
          "indexed": false,
          "internalType": "uint256",
          "name": "ownerRewardFee",
          "type": "uint256"
        },
        {
          "indexed": false,
          "internalType": "uint256",
          "name": "totalFee",
          "type": "uint256"
        },
        {
          "indexed": false,
          "internalType": "address",
          "name": "tokenAddress",
          "type": "address"
        }
      ],
      "name": "ClientPayL1Settlement",
      "type": "event"
    },
    {
      "anonymous": false,
      "inputs": [
        {
          "indexed": false,
          "internalType": "address",
          "name": "sender",
          "type": "address"
        },
        {
          "indexed": false,
          "internalType": "address",
          "name": "receiver",
          "type": "address"
        },
        {
          "indexed": false,
          "internalType": "uint256",
          "name": "amount",
          "type": "uint256"
        },
        {
          "indexed": false,
          "internalType": "address",
          "name": "tokenAddress",
          "type": "address"
        }
      ],
      "name": "OwnerRecoverFee",
      "type": "event"
    },
    {
      "anonymous": false,
      "inputs": [
        {
          "indexed": false,
          "internalType": "address",
          "name": "account",
          "type": "address"
        }
      ],
      "name": "Paused",
      "type": "event"
    },
    {
      "anonymous": false,
      "inputs": [
        {
          "indexed": false,
          "internalType": "uint256",
          "name": "amount",
          "type": "uint256"
        },
        {
          "indexed": false,
          "internalType": "address",
          "name": "tokenAddress",
          "type": "address"
        }
      ],
      "name": "RebalanceLP",
      "type": "event"
    },
    {
      "anonymous": false,
      "inputs": [
        {
          "indexed": false,
          "internalType": "address",
          "name": "account",
          "type": "address"
        }
      ],
      "name": "Unpaused",
      "type": "event"
    },
    {
      "anonymous": false,
      "inputs": [
        {
          "indexed": false,
          "internalType": "address",
          "name": "sender",
          "type": "address"
        },
        {
          "indexed": false,
          "internalType": "address",
          "name": "receiver",
          "type": "address"
        },
        {
          "indexed": false,
          "internalType": "uint256",
          "name": "amount",
          "type": "uint256"
        },
        {
          "indexed": false,
          "internalType": "address",
          "name": "tokenAddress",
          "type": "address"
        }
      ],
      "name": "WithdrawLiquidity",
      "type": "event"
    },
    {
      "anonymous": false,
      "inputs": [
        {
          "indexed": false,
          "internalType": "address",
          "name": "sender",
          "type": "address"
        },
        {
          "indexed": false,
          "internalType": "address",
          "name": "receiver",
          "type": "address"
        },
        {
          "indexed": false,
          "internalType": "uint256",
          "name": "amount",
          "type": "uint256"
        },
        {
          "indexed": false,
          "internalType": "address",
          "name": "tokenAddress",
          "type": "address"
        }
      ],
      "name": "WithdrawReward",
      "type": "event"
    },
    {
      "inputs": [],
      "name": "L1StandardBridgeAddress",
      "outputs": [
        {
          "internalType": "address payable",
          "name": "",
          "type": "address"
        }
      ],
      "stateMutability": "view",
      "type": "function"
    },
    {
      "inputs": [],
      "name": "L2LiquidityPoolAddress",
      "outputs": [
        {
          "internalType": "address",
          "name": "",
          "type": "address"
        }
      ],
      "stateMutability": "view",
      "type": "function"
    },
    {
      "inputs": [],
      "name": "SAFE_GAS_STIPEND",
      "outputs": [
        {
          "internalType": "uint256",
          "name": "",
          "type": "uint256"
        }
      ],
      "stateMutability": "view",
      "type": "function"
    },
    {
      "inputs": [],
      "name": "SETTLEMENT_L2_GAS",
      "outputs": [
        {
          "internalType": "uint32",
          "name": "",
          "type": "uint32"
        }
      ],
      "stateMutability": "view",
      "type": "function"
    },
    {
      "inputs": [
        {
          "internalType": "uint256",
          "name": "_amount",
          "type": "uint256"
        },
        {
          "internalType": "address",
          "name": "_tokenAddress",
          "type": "address"
        }
      ],
      "name": "addLiquidity",
      "outputs": [],
      "stateMutability": "payable",
      "type": "function"
    },
    {
      "inputs": [
        {
          "internalType": "uint256",
          "name": "_amount",
          "type": "uint256"
        },
        {
          "internalType": "address",
          "name": "_tokenAddress",
          "type": "address"
        }
      ],
      "name": "clientDepositL1",
      "outputs": [],
      "stateMutability": "payable",
      "type": "function"
    },
    {
      "inputs": [
        {
          "internalType": "address payable",
          "name": "_to",
          "type": "address"
        },
        {
          "internalType": "uint256",
          "name": "_amount",
          "type": "uint256"
        },
        {
          "internalType": "address",
          "name": "_tokenAddress",
          "type": "address"
        }
      ],
      "name": "clientPayL1",
      "outputs": [],
      "stateMutability": "nonpayable",
      "type": "function"
    },
    {
      "inputs": [
        {
          "internalType": "address payable",
          "name": "_to",
          "type": "address"
        },
        {
          "internalType": "uint256",
          "name": "_amount",
          "type": "uint256"
        },
        {
          "internalType": "address",
          "name": "_tokenAddress",
          "type": "address"
        }
      ],
      "name": "clientPayL1Settlement",
      "outputs": [],
      "stateMutability": "nonpayable",
      "type": "function"
    },
    {
      "inputs": [
        {
          "internalType": "uint256",
          "name": "_userRewardFeeRate",
          "type": "uint256"
        },
        {
          "internalType": "uint256",
          "name": "_ownerRewardFeeRate",
          "type": "uint256"
        }
      ],
      "name": "configureFee",
      "outputs": [],
      "stateMutability": "nonpayable",
      "type": "function"
    },
    {
      "inputs": [
        {
          "internalType": "uint32",
          "name": "_l2GasFee",
          "type": "uint32"
        },
        {
          "internalType": "uint256",
          "name": "_safeGas",
          "type": "uint256"
        }
      ],
      "name": "configureGas",
      "outputs": [],
      "stateMutability": "nonpayable",
      "type": "function"
    },
    {
      "inputs": [
        {
          "internalType": "address",
          "name": "_l1CrossDomainMessenger",
          "type": "address"
        },
        {
          "internalType": "address",
          "name": "_l1CrossDomainMessengerFast",
          "type": "address"
        },
        {
          "internalType": "address",
          "name": "_L2LiquidityPoolAddress",
          "type": "address"
        },
        {
          "internalType": "address payable",
          "name": "_L1StandardBridgeAddress",
          "type": "address"
        }
      ],
      "name": "initialize",
      "outputs": [],
      "stateMutability": "nonpayable",
      "type": "function"
    },
    {
      "inputs": [],
      "name": "l1CrossDomainMessenger",
      "outputs": [
        {
          "internalType": "address",
          "name": "",
          "type": "address"
        }
      ],
      "stateMutability": "view",
      "type": "function"
    },
    {
      "inputs": [],
      "name": "owner",
      "outputs": [
        {
          "internalType": "address",
          "name": "",
          "type": "address"
        }
      ],
      "stateMutability": "view",
      "type": "function"
    },
    {
      "inputs": [
        {
          "internalType": "uint256",
          "name": "_amount",
          "type": "uint256"
        },
        {
          "internalType": "address",
          "name": "_tokenAddress",
          "type": "address"
        },
        {
          "internalType": "address",
          "name": "_to",
          "type": "address"
        }
      ],
      "name": "ownerRecoverFee",
      "outputs": [],
      "stateMutability": "nonpayable",
      "type": "function"
    },
    {
      "inputs": [],
      "name": "ownerRewardFeeRate",
      "outputs": [
        {
          "internalType": "uint256",
          "name": "",
          "type": "uint256"
        }
      ],
      "stateMutability": "view",
      "type": "function"
    },
    {
      "inputs": [],
      "name": "pause",
      "outputs": [],
      "stateMutability": "nonpayable",
      "type": "function"
    },
    {
      "inputs": [],
      "name": "paused",
      "outputs": [
        {
          "internalType": "bool",
          "name": "",
          "type": "bool"
        }
      ],
      "stateMutability": "view",
      "type": "function"
    },
    {
      "inputs": [
        {
          "internalType": "address",
          "name": "",
          "type": "address"
        }
      ],
      "name": "poolInfo",
      "outputs": [
        {
          "internalType": "address",
          "name": "l1TokenAddress",
          "type": "address"
        },
        {
          "internalType": "address",
          "name": "l2TokenAddress",
          "type": "address"
        },
        {
          "internalType": "uint256",
          "name": "userDepositAmount",
          "type": "uint256"
        },
        {
          "internalType": "uint256",
          "name": "lastAccUserReward",
          "type": "uint256"
        },
        {
          "internalType": "uint256",
          "name": "accUserReward",
          "type": "uint256"
        },
        {
          "internalType": "uint256",
          "name": "accUserRewardPerShare",
          "type": "uint256"
        },
        {
          "internalType": "uint256",
          "name": "accOwnerReward",
          "type": "uint256"
        },
        {
          "internalType": "uint256",
          "name": "startTime",
          "type": "uint256"
        }
      ],
      "stateMutability": "view",
      "type": "function"
    },
    {
      "inputs": [
        {
          "internalType": "uint256",
          "name": "_amount",
          "type": "uint256"
        },
        {
          "internalType": "address",
          "name": "_tokenAddress",
          "type": "address"
        }
      ],
      "name": "rebalanceLP",
      "outputs": [],
      "stateMutability": "nonpayable",
      "type": "function"
    },
    {
      "inputs": [
        {
          "internalType": "address",
          "name": "_l1TokenAddress",
          "type": "address"
        },
        {
          "internalType": "address",
          "name": "_l2TokenAddress",
          "type": "address"
        }
      ],
      "name": "registerPool",
      "outputs": [],
      "stateMutability": "nonpayable",
      "type": "function"
    },
    {
      "inputs": [],
      "name": "relayerMessenger",
      "outputs": [
        {
          "internalType": "address",
          "name": "",
          "type": "address"
        }
      ],
      "stateMutability": "view",
      "type": "function"
    },
    {
      "inputs": [],
      "name": "senderMessenger",
      "outputs": [
        {
          "internalType": "address",
          "name": "",
          "type": "address"
        }
      ],
      "stateMutability": "view",
      "type": "function"
    },
    {
      "inputs": [
        {
          "internalType": "address",
          "name": "_newOwner",
          "type": "address"
        }
      ],
      "name": "transferOwnership",
      "outputs": [],
      "stateMutability": "nonpayable",
      "type": "function"
    },
    {
      "inputs": [],
      "name": "unpause",
      "outputs": [],
      "stateMutability": "nonpayable",
      "type": "function"
    },
    {
      "inputs": [
        {
          "internalType": "address",
          "name": "_tokenAddress",
          "type": "address"
        }
      ],
      "name": "updateUserRewardPerShare",
      "outputs": [],
      "stateMutability": "nonpayable",
      "type": "function"
    },
    {
      "inputs": [
        {
          "internalType": "address",
          "name": "",
          "type": "address"
        },
        {
          "internalType": "address",
          "name": "",
          "type": "address"
        }
      ],
      "name": "userInfo",
      "outputs": [
        {
          "internalType": "uint256",
          "name": "amount",
          "type": "uint256"
        },
        {
          "internalType": "uint256",
          "name": "rewardDebt",
          "type": "uint256"
        },
        {
          "internalType": "uint256",
          "name": "pendingReward",
          "type": "uint256"
        }
      ],
      "stateMutability": "view",
      "type": "function"
    },
    {
      "inputs": [],
      "name": "userRewardFeeRate",
      "outputs": [
        {
          "internalType": "uint256",
          "name": "",
          "type": "uint256"
        }
      ],
      "stateMutability": "view",
      "type": "function"
    },
    {
      "inputs": [
        {
          "internalType": "uint256",
          "name": "_amount",
          "type": "uint256"
        },
        {
          "internalType": "address",
          "name": "_tokenAddress",
          "type": "address"
        },
        {
          "internalType": "address payable",
          "name": "_to",
          "type": "address"
        }
      ],
      "name": "withdrawLiquidity",
      "outputs": [],
      "stateMutability": "nonpayable",
      "type": "function"
    },
    {
      "inputs": [
        {
          "internalType": "uint256",
          "name": "_amount",
          "type": "uint256"
        },
        {
          "internalType": "address",
          "name": "_tokenAddress",
          "type": "address"
        },
        {
          "internalType": "address",
          "name": "_to",
          "type": "address"
        }
      ],
      "name": "withdrawReward",
      "outputs": [],
      "stateMutability": "nonpayable",
      "type": "function"
    }
  ],
  "bytecode": "0x608060405234801561001057600080fd5b50600080546001600160a01b0319908116909155600180549091169055613ab08061003c6000396000f3fe6080604052600436106101c25760003560e01c8063818c021e116100f7578063c95f9d0e11610095578063f2fde38b11610064578063f2fde38b146105bb578063f64b5f44146105db578063f72e5aa0146105ee578063f8c8765e1461060e57600080fd5b8063c95f9d0e14610536578063cf26fb1b14610549578063d04a966a14610569578063d1dd871a1461059b57600080fd5b80638cac7893116100d15780638cac7893146104255780638da5cb5b146104455780639a7b5f1114610465578063a71198691461051657600080fd5b8063818c021e146103d057806381e6bdac146103f05780638456cb591461041057600080fd5b806349561dc41161016457806353174cc11161013e57806353174cc11461034d5780635c975abb1461036d57806368be42ca146103905780637286e5e5146103b057600080fd5b806349561dc4146102df578063508e01c4146102ff578063513f31321461033757600080fd5b8063369fd102116101a0578063369fd102146102745780633f4ba83a146102945780633f89e952146102a9578063435fd571146102c957600080fd5b80630f208beb146101c757806312f54c1a1461022e578063358fc07e14610250575b600080fd5b3480156101d357600080fd5b5061020e6101e23660046136f1565b609960209081526000928352604080842090915290825290208054600182015460029092015490919083565b604080519384526020840192909252908201526060015b60405180910390f35b34801561023a57600080fd5b5061024e61024936600461372a565b61062e565b005b34801561025c57600080fd5b50610266609d5481565b604051908152602001610225565b34801561028057600080fd5b5061024e61028f366004613747565b6106c4565b3480156102a057600080fd5b5061024e6107f0565b3480156102b557600080fd5b5061024e6102c436600461377c565b610868565b3480156102d557600080fd5b50610266609c5481565b3480156102eb57600080fd5b5061024e6102fa3660046137a1565b610d2a565b34801561030b57600080fd5b5060005461031f906001600160a01b031681565b6040516001600160a01b039091168152602001610225565b34801561034357600080fd5b50610266609f5481565b34801561035957600080fd5b5061024e6103683660046137e3565b610feb565b34801561037957600080fd5b5060665460ff166040519015158152602001610225565b34801561039c57600080fd5b5061024e6103ab3660046137a1565b6113bc565b3480156103bc57600080fd5b5061024e6103cb3660046136f1565b611694565b3480156103dc57600080fd5b5060015461031f906001600160a01b031681565b3480156103fc57600080fd5b5061024e61040b3660046137a1565b6118c4565b34801561041c57600080fd5b5061024e611b31565b34801561043157600080fd5b5060a15461031f906001600160a01b031681565b34801561045157600080fd5b50609a5461031f906001600160a01b031681565b34801561047157600080fd5b506104d061048036600461372a565b609860205260009081526040902080546001820154600283015460038401546004850154600586015460068701546007909701546001600160a01b03968716979590961695939492939192909188565b604080516001600160a01b03998a168152989097166020890152958701949094526060860192909252608085015260a084015260c083015260e082015261010001610225565b34801561052257600080fd5b5060a05461031f906001600160a01b031681565b61024e61054436600461377c565b611ba7565b34801561055557600080fd5b5061024e6105643660046137e3565b611e75565b34801561057557600080fd5b50609e546105869063ffffffff1681565b60405163ffffffff9091168152602001610225565b3480156105a757600080fd5b5061024e6105b636600461381a565b6123ca565b3480156105c757600080fd5b5061024e6105d636600461372a565b612605565b61024e6105e936600461377c565b6126ad565b3480156105fa57600080fd5b50609b5461031f906001600160a01b031681565b34801561061a57600080fd5b5061024e61062936600461383c565b6128e8565b6001600160a01b03811660009081526098602052604090206004810154600382015410156106c057600061067382600301548360040154612c2190919063ffffffff16565b905081600201546000146106b45760028201546106ae906106a39061069d8464e8d4a51000612c34565b90612c40565b600584015490612c4c565b60058301555b50600481015460038201555b5050565b609a546001600160a01b03163314806106e65750609a546001600160a01b0316155b6107375760405162461bcd60e51b815260206004820152601760248201527f63616c6c6572206973206e6f7420746865206f776e657200000000000000000060448201526064015b60405180910390fd5b609b546001600160a01b03166107b55760405162461bcd60e51b815260206004820152602560248201527f436f6e747261637420686173206e6f7420796574206265656e20696e6974696160448201527f6c697a6564000000000000000000000000000000000000000000000000000000606482015260840161072e565b609e80547fffffffffffffffffffffffffffffffffffffffffffffffffffffffff000000001663ffffffff9390931692909217909155609f55565b609a546001600160a01b03163314806108125750609a546001600160a01b0316155b61085e5760405162461bcd60e51b815260206004820152601760248201527f63616c6c6572206973206e6f7420746865206f776e6572000000000000000000604482015260640161072e565b610866612c58565b565b609a546001600160a01b031633148061088a5750609a546001600160a01b0316155b6108d65760405162461bcd60e51b815260206004820152601760248201527f63616c6c6572206973206e6f7420746865206f776e6572000000000000000000604482015260640161072e565b60665460ff16156109295760405162461bcd60e51b815260206004820152601060248201527f5061757361626c653a2070617573656400000000000000000000000000000000604482015260640161072e565b816109765760405162461bcd60e51b815260206004820152601060248201527f416d6f756e7420496e636f727265637400000000000000000000000000000000604482015260640161072e565b6001600160a01b038082166000908152609860205260409020609b549091166109e15760405162461bcd60e51b815260206004820152601e60248201527f4c32204c697175696469747920506f6f6c204e6f742052656769737465720000604482015260640161072e565b60018101546001600160a01b0316610a3b5760405162461bcd60e51b815260206004820152601a60248201527f546f6b656e2041646472657373204e6f74205265676973746572000000000000604482015260640161072e565b6001600160a01b038216610b385747831115610a995760405162461bcd60e51b815260206004820152601660248201527f4661696c656420746f20526562616c616e6365204c5000000000000000000000604482015260640161072e565b60a154609b54609e546040517f9a2ac6d50000000000000000000000000000000000000000000000000000000081526001600160a01b03928316600482015263ffffffff90911660248201526060604482015260006064820152911690639a2ac6d59085906084016000604051808303818588803b158015610b1a57600080fd5b505af1158015610b2e573d6000803e3d6000fd5b5050505050610ce4565b6040517f70a082310000000000000000000000000000000000000000000000000000000081523060048201526001600160a01b038316906370a082319060240160206040518083038186803b158015610b9057600080fd5b505afa158015610ba4573d6000803e3d6000fd5b505050506040513d601f19601f82011682018060405250810190610bc89190613898565b831115610c175760405162461bcd60e51b815260206004820152601660248201527f4661696c656420746f20526562616c616e6365204c5000000000000000000000604482015260640161072e565b60a154610c31906001600160a01b03848116911685612d12565b60a1546001820154609b54609e546040517f838b25200000000000000000000000000000000000000000000000000000000081526001600160a01b038781166004830152938416602482015291831660448301526064820187905263ffffffff16608482015260c060a4820152600060c482015291169063838b25209060e401600060405180830381600087803b158015610ccb57600080fd5b505af1158015610cdf573d6000803e3d6000fd5b505050505b604080518481526001600160a01b03841660208201527f40637a7e139eeb28b936b8decebe78604164b2ade81ce7f4c70deb132e7614c2910160405180910390a1505050565b60665460ff1615610d7d5760405162461bcd60e51b815260206004820152601060248201527f5061757361626c653a2070617573656400000000000000000000000000000000604482015260640161072e565b6001600160a01b0380831660009081526098602090815260408083206099835281842033855290925290912060018201549192909116610dff5760405162461bcd60e51b815260206004820152601a60248201527f546f6b656e2041646472657373204e6f74205265676973746572000000000000604482015260640161072e565b6000610e41610e368360010154610e3064e8d4a5100061069d88600501548860000154612c3490919063ffffffff16565b90612c21565b600284015490612c4c565b905085811015610e935760405162461bcd60e51b815260206004820152601560248201527f576974686472617720526577617264204572726f720000000000000000000000604482015260640161072e565b610e9d8187612c21565b600283015560058301548254610ebd9164e8d4a510009161069d91612c34565b60018301556001600160a01b03851615610eea57610ee56001600160a01b0386168588612e89565b610f93565b6000846001600160a01b0316609f5488604051600060405180830381858888f193505050503d8060008114610f3b576040519150601f19603f3d011682016040523d82523d6000602084013e610f40565b606091505b5050905080610f915760405162461bcd60e51b815260206004820152601460248201527f4661696c656420746f2073656e64204574686572000000000000000000000000604482015260640161072e565b505b604080513381526001600160a01b0386811660208301528183018990528716606082015290517f3cb7cb475a33eda02ee6e719b6c2fc0c899157cfc6f098daf545354dbbce41ec9181900360800190a1505050505050565b609b546001600160a01b03166110096001546001600160a01b031690565b6001600160a01b0316336001600160a01b03161461108f5760405162461bcd60e51b815260206004820152602a60248201527f58434841494e3a206d657373656e67657220636f6e747261637420756e61757460448201527f68656e7469636174656400000000000000000000000000000000000000000000606482015260840161072e565b806001600160a01b03166110ab6001546001600160a01b031690565b6001600160a01b0316636e296e456040518163ffffffff1660e01b815260040160206040518083038186803b1580156110e357600080fd5b505afa1580156110f7573d6000803e3d6000fd5b505050506040513d601f19601f8201168201806040525081019061111b91906138b1565b6001600160a01b0316146111975760405162461bcd60e51b815260206004820152602c60248201527f58434841494e3a2077726f6e672073656e646572206f662063726f73732d646f60448201527f6d61696e206d6573736167650000000000000000000000000000000000000000606482015260840161072e565b60665460ff16156111ea5760405162461bcd60e51b815260206004820152601060248201527f5061757361626c653a2070617573656400000000000000000000000000000000604482015260640161072e565b6001600160a01b0382166000908152609860205260408120609c5490919061121b906103e89061069d908890612c34565b9050600061123a6103e861069d609d5489612c3490919063ffffffff16565b905060006112488383612c4c565b905060006112568883612c21565b60048601549091506112689085612c4c565b6004860155600685015461127c9084612c4c565b60068601556001600160a01b038716156112a9576112a46001600160a01b0388168a83612e89565b611352565b6000896001600160a01b0316609f5483604051600060405180830381858888f193505050503d80600081146112fa576040519150601f19603f3d011682016040523d82523d6000602084013e6112ff565b606091505b50509050806113505760405162461bcd60e51b815260206004820152601460248201527f4661696c656420746f2073656e64204574686572000000000000000000000000604482015260640161072e565b505b604080516001600160a01b038b81168252602082018490528183018790526060820186905260808201859052891660a082015290517fe42a885e97ef72aed483b57141e41f9d64499b43411f58b60a0e07fcdb6e824a9181900360c00190a1505050505050505050565b60665460ff161561140f5760405162461bcd60e51b815260206004820152601060248201527f5061757361626c653a2070617573656400000000000000000000000000000000604482015260640161072e565b6001600160a01b03808316600090815260986020908152604080832060998352818420338552909252909120600182015491929091166114915760405162461bcd60e51b815260206004820152601a60248201527f546f6b656e2041646472657373204e6f74205265676973746572000000000000604482015260640161072e565b80548511156114e25760405162461bcd60e51b815260206004820152600e60248201527f5769746864726177204572726f72000000000000000000000000000000000000604482015260640161072e565b6114eb8461062e565b61152561151a8260010154610e3064e8d4a5100061069d87600501548760000154612c3490919063ffffffff16565b600283015490612c4c565b600282015580546115369086612c21565b80825560058301546115539164e8d4a510009161069d9190612c34565b600182015560028201546115679086612c21565b60028301556001600160a01b038416156115945761158f6001600160a01b0385168487612e89565b61163d565b6000836001600160a01b0316609f5487604051600060405180830381858888f193505050503d80600081146115e5576040519150601f19603f3d011682016040523d82523d6000602084013e6115ea565b606091505b505090508061163b5760405162461bcd60e51b815260206004820152601460248201527f4661696c656420746f2073656e64204574686572000000000000000000000000604482015260640161072e565b505b604080513381526001600160a01b0385811660208301528183018890528616606082015290517ffa2e8fcf14fd6ea11b6ebe7caf7de210198b8fe1eaf0e06d19f8d87c73860c469181900360800190a15050505050565b609a546001600160a01b03163314806116b65750609a546001600160a01b0316155b6117025760405162461bcd60e51b815260206004820152601760248201527f63616c6c6572206973206e6f7420746865206f776e6572000000000000000000604482015260640161072e565b806001600160a01b0316826001600160a01b0316141561178a5760405162461bcd60e51b815260206004820152602860248201527f6c3120616e64206c3220746f6b656e206164647265737365732063616e6e6f7460448201527f2062652073616d65000000000000000000000000000000000000000000000000606482015260840161072e565b6001600160a01b0380831660009081526098602052604090206001810154909116156117f85760405162461bcd60e51b815260206004820181905260248201527f546f6b656e204164647265737320416c72656164792052656769737465726564604482015260640161072e565b5060408051610100810182526001600160a01b0393841680825292841660208083019182526000838501818152606085018281526080860183815260a0870184815260c088018581524260e08a019081529a865260989096529790932095518654908a167fffffffffffffffffffffffff0000000000000000000000000000000000000000918216178755945160018701805491909a16951694909417909755955160028401559051600383015593516004820155905160058201559151600683015551600790910155565b609a546001600160a01b03163314806118e65750609a546001600160a01b0316155b6119325760405162461bcd60e51b815260206004820152601760248201527f63616c6c6572206973206e6f7420746865206f776e6572000000000000000000604482015260640161072e565b6001600160a01b038083166000908152609860205260409020600181015490911661199f5760405162461bcd60e51b815260206004820152601a60248201527f546f6b656e2041646472657373204e6f74205265676973746572000000000000604482015260640161072e565b83816006015410156119f35760405162461bcd60e51b815260206004820152601b60248201527f4f776e657220526577617264205769746864726177204572726f720000000000604482015260640161072e565b6006810154611a029085612c21565b60068201556001600160a01b03831615611a2f57611a2a6001600160a01b0384168386612e89565b611ad8565b6000826001600160a01b0316609f5486604051600060405180830381858888f193505050503d8060008114611a80576040519150601f19603f3d011682016040523d82523d6000602084013e611a85565b606091505b5050905080611ad65760405162461bcd60e51b815260206004820152601460248201527f4661696c656420746f2073656e64204574686572000000000000000000000000604482015260640161072e565b505b604080513381526001600160a01b03808516602083015291810186905290841660608201527f3cb71b9a1fb601579f96812b9f86ab5e914fc3e54c98d5f84d95581b2b9884f3906080015b60405180910390a150505050565b609a546001600160a01b0316331480611b535750609a546001600160a01b0316155b611b9f5760405162461bcd60e51b815260206004820152601760248201527f63616c6c6572206973206e6f7420746865206f776e6572000000000000000000604482015260640161072e565b610866612ed2565b600280541415611bf95760405162461bcd60e51b815260206004820152601f60248201527f5265656e7472616e637947756172643a207265656e7472616e742063616c6c00604482015260640161072e565b6002805560665460ff1615611c505760405162461bcd60e51b815260206004820152601060248201527f5061757361626c653a2070617573656400000000000000000000000000000000604482015260640161072e565b34151580611c6657506001600160a01b03811615155b611cb25760405162461bcd60e51b815260206004820152601060248201527f416d6f756e7420496e636f727265637400000000000000000000000000000000604482015260640161072e565b3415611cbf575034905060005b6001600160a01b0380821660009081526098602090815260408083206099835281842033855290925290912060018201549192909116611d415760405162461bcd60e51b815260206004820152601a60248201527f546f6b656e2041646472657373204e6f74205265676973746572000000000000604482015260640161072e565b611d4a8361062e565b805415611db657611d8061151a8260010154610e3064e8d4a5100061069d87600501548760000154612c3490919063ffffffff16565b600282015560058201548154611dac9164e8d4a510009161069d9190611da69089612c4c565b90612c34565b6001820155611ddc565b611dd664e8d4a5100061069d846005015487612c3490919063ffffffff16565b60018201555b6001600160a01b03831615611e0057611e006001600160a01b038416333087612f78565b8054611e0c9085612c4c565b81556002820154611e1d9085612c4c565b600283015560408051338152602081018690526001600160a01b0385168183015290517f5852d1d46e583f7e92c2a572221de0e681d82ef71f489847e056b9445c0147369181900360600190a1505060016002555050565b609b546001600160a01b0316611e936001546001600160a01b031690565b6001600160a01b0316336001600160a01b031614611f195760405162461bcd60e51b815260206004820152602a60248201527f58434841494e3a206d657373656e67657220636f6e747261637420756e61757460448201527f68656e7469636174656400000000000000000000000000000000000000000000606482015260840161072e565b806001600160a01b0316611f356001546001600160a01b031690565b6001600160a01b0316636e296e456040518163ffffffff1660e01b815260040160206040518083038186803b158015611f6d57600080fd5b505afa158015611f81573d6000803e3d6000fd5b505050506040513d601f19601f82011682018060405250810190611fa591906138b1565b6001600160a01b0316146120215760405162461bcd60e51b815260206004820152602c60248201527f58434841494e3a2077726f6e672073656e646572206f662063726f73732d646f60448201527f6d61696e206d6573736167650000000000000000000000000000000000000000606482015260840161072e565b60665460ff16156120745760405162461bcd60e51b815260206004820152601060248201527f5061757361626c653a2070617573656400000000000000000000000000000000604482015260640161072e565b6001600160a01b0382166000908152609860205260408120609c5482906120a4906103e89061069d908990612c34565b905060006120c36103e861069d609d548a612c3490919063ffffffff16565b905060006120d18383612c4c565b905060006120df8983612c21565b90506001600160a01b038816156121d1576040517f70a082310000000000000000000000000000000000000000000000000000000081523060048201526001600160a01b038916906370a082319060240160206040518083038186803b15801561214857600080fd5b505afa15801561215c573d6000803e3d6000fd5b505050506040513d601f19601f820116820180604052508101906121809190613898565b81111561219057600195506122b1565b600485015461219f9085612c4c565b600486015560068501546121b39084612c4c565b60068601556121cc6001600160a01b0389168b83612e89565b6122b1565b478111156121e257600195506122b1565b60048501546121f19085612c4c565b600486015560068501546122059084612c4c565b6006860155609f546040516000916001600160a01b038d1691849084818181858888f193505050503d8060008114612259576040519150601f19603f3d011682016040523d82523d6000602084013e61225e565b606091505b50509050806122af5760405162461bcd60e51b815260206004820152601460248201527f4661696c656420746f2073656e64204574686572000000000000000000000000604482015260640161072e565b505b851561235e576001850154604080516001600160a01b038d81166024830152604482018d90529283166064808301919091528251808303909101815260849091019091526020810180517bffffffffffffffffffffffffffffffffffffffffffffffffffffffff167f650a767b00000000000000000000000000000000000000000000000000000000179052609b54609e5491926123589291169063ffffffff1683612fc9565b506123be565b604080516001600160a01b038c811682526020820184905281830187905260608201869052608082018590528a1660a082015290517ffe1f8646fcb202e48551fbfd19085116c64b291c60cede7dce3665a57c05e3819181900360c00190a15b50505050505050505050565b609b546001600160a01b03166123e86001546001600160a01b031690565b6001600160a01b0316336001600160a01b03161461246e5760405162461bcd60e51b815260206004820152602a60248201527f58434841494e3a206d657373656e67657220636f6e747261637420756e61757460448201527f68656e7469636174656400000000000000000000000000000000000000000000606482015260840161072e565b806001600160a01b031661248a6001546001600160a01b031690565b6001600160a01b0316636e296e456040518163ffffffff1660e01b815260040160206040518083038186803b1580156124c257600080fd5b505afa1580156124d6573d6000803e3d6000fd5b505050506040513d601f19601f820116820180604052508101906124fa91906138b1565b6001600160a01b0316146125765760405162461bcd60e51b815260206004820152602c60248201527f58434841494e3a2077726f6e672073656e646572206f662063726f73732d646f60448201527f6d61696e206d6573736167650000000000000000000000000000000000000000606482015260840161072e565b609b546001600160a01b03166125f45760405162461bcd60e51b815260206004820152602560248201527f436f6e747261637420686173206e6f7420796574206265656e20696e6974696160448201527f6c697a6564000000000000000000000000000000000000000000000000000000606482015260840161072e565b50609c91909155609d55565b505050565b609a546001600160a01b03163314806126275750609a546001600160a01b0316155b6126735760405162461bcd60e51b815260206004820152601760248201527f63616c6c6572206973206e6f7420746865206f776e6572000000000000000000604482015260640161072e565b609a80547fffffffffffffffffffffffff0000000000000000000000000000000000000000166001600160a01b0392909216919091179055565b60665460ff16156127005760405162461bcd60e51b815260206004820152601060248201527f5061757361626c653a2070617573656400000000000000000000000000000000604482015260640161072e565b3415158061271657506001600160a01b03811615155b6127625760405162461bcd60e51b815260206004820152601060248201527f416d6f756e7420496e636f727265637400000000000000000000000000000000604482015260640161072e565b341561276f575034905060005b6001600160a01b03808216600090815260986020526040902060018101549091166127dc5760405162461bcd60e51b815260206004820152601a60248201527f546f6b656e2041646472657373204e6f74205265676973746572000000000000604482015260640161072e565b6001600160a01b03821615612800576128006001600160a01b038316333086612f78565b600181015460408051336024820152604481018690526001600160a01b039283166064808301919091528251808303909101815260849091019091526020810180517bffffffffffffffffffffffffffffffffffffffffffffffffffffffff167fbd2d1cab00000000000000000000000000000000000000000000000000000000179052609b54609e54919261289f9291169063ffffffff1683612fc9565b60408051338152602081018690526001600160a01b038516918101919091527f860e25c3d48fb81f0b272550dd125a5a6ab20ee7511dd3e250d04964bd37a7a990606001611b23565b609a546001600160a01b031633148061290a5750609a546001600160a01b0316155b6129565760405162461bcd60e51b815260206004820152601760248201527f63616c6c6572206973206e6f7420746865206f776e6572000000000000000000604482015260640161072e565b609b546001600160a01b0316156129af5760405162461bcd60e51b815260206004820152601d60248201527f436f6e747261637420686173206265656e20696e697469616c697a6564000000604482015260640161072e565b6001547501000000000000000000000000000000000000000000900460ff16806129f4575060015474010000000000000000000000000000000000000000900460ff16155b612a665760405162461bcd60e51b815260206004820152602e60248201527f496e697469616c697a61626c653a20636f6e747261637420697320616c72656160448201527f647920696e697469616c697a6564000000000000000000000000000000000000606482015260840161072e565b6001547501000000000000000000000000000000000000000000900460ff16158015612acd57600180547fffffffffffffffffffff0000ffffffffffffffffffffffffffffffffffffffff1675010100000000000000000000000000000000000000001790555b6001600160a01b03851615801590612aed57506001600160a01b03841615155b8015612b0157506001600160a01b03831615155b612b4d5760405162461bcd60e51b815260206004820152601860248201527f7a65726f2061646472657373206e6f7420616c6c6f7765640000000000000000604482015260640161072e565b600080546001600160a01b038781167fffffffffffffffffffffffff00000000000000000000000000000000000000009283161790925560018054878416908316179055609b805486841690831617905560a1805492851692821692909217909155609a8054909116331790556023609c55600f609d55612bd362155cc06108fc6106c4565b612bdb61304d565b612be361319d565b612beb613314565b8015612c1a57600180547fffffffffffffffffffff00ffffffffffffffffffffffffffffffffffffffffff1690555b5050505050565b6000612c2d82846138fd565b9392505050565b6000612c2d8284613914565b6000612c2d8284613951565b6000612c2d828461398c565b60665460ff16612caa5760405162461bcd60e51b815260206004820152601460248201527f5061757361626c653a206e6f7420706175736564000000000000000000000000604482015260640161072e565b606680547fffffffffffffffffffffffffffffffffffffffffffffffffffffffffffffff001690557f5db9ee0a495bf2e6ff9c91a7834c1ba4fdd244a5e8aa4e537bd38aeae4b073aa335b6040516001600160a01b03909116815260200160405180910390a1565b6040517fdd62ed3e0000000000000000000000000000000000000000000000000000000081523060048201526001600160a01b038381166024830152600091839186169063dd62ed3e9060440160206040518083038186803b158015612d7757600080fd5b505afa158015612d8b573d6000803e3d6000fd5b505050506040513d601f19601f82011682018060405250810190612daf9190613898565b612db9919061398c565b6040516001600160a01b038516602482015260448101829052909150612e839085907f095ea7b300000000000000000000000000000000000000000000000000000000906064015b604080517fffffffffffffffffffffffffffffffffffffffffffffffffffffffffffffffe08184030181529190526020810180517bffffffffffffffffffffffffffffffffffffffffffffffffffffffff167fffffffff0000000000000000000000000000000000000000000000000000000090931692909217909152613468565b50505050565b6040516001600160a01b0383166024820152604481018290526126009084907fa9059cbb0000000000000000000000000000000000000000000000000000000090606401612e01565b60665460ff1615612f255760405162461bcd60e51b815260206004820152601060248201527f5061757361626c653a2070617573656400000000000000000000000000000000604482015260640161072e565b606680547fffffffffffffffffffffffffffffffffffffffffffffffffffffffffffffff001660011790557f62e78cea01bee320cd4e420270b5ea74000d11b0c9f74754ebdbfc544b05a258612cf53390565b6040516001600160a01b0380851660248301528316604482015260648101829052612e839085907f23b872dd0000000000000000000000000000000000000000000000000000000090608401612e01565b6000546040517f3dbb202b0000000000000000000000000000000000000000000000000000000081526001600160a01b0390911690633dbb202b9061301690869085908790600401613a1a565b600060405180830381600087803b15801561303057600080fd5b505af1158015613044573d6000803e3d6000fd5b50505050505050565b6001547501000000000000000000000000000000000000000000900460ff1680613092575060015474010000000000000000000000000000000000000000900460ff16155b6131045760405162461bcd60e51b815260206004820152602e60248201527f496e697469616c697a61626c653a20636f6e747261637420697320616c72656160448201527f647920696e697469616c697a6564000000000000000000000000000000000000606482015260840161072e565b6001547501000000000000000000000000000000000000000000900460ff1615801561316b57600180547fffffffffffffffffffff0000ffffffffffffffffffffffffffffffffffffffff1675010100000000000000000000000000000000000000001790555b801561319a57600180547fffffffffffffffffffff00ffffffffffffffffffffffffffffffffffffffffff1690555b50565b6001547501000000000000000000000000000000000000000000900460ff16806131e2575060015474010000000000000000000000000000000000000000900460ff16155b6132545760405162461bcd60e51b815260206004820152602e60248201527f496e697469616c697a61626c653a20636f6e747261637420697320616c72656160448201527f647920696e697469616c697a6564000000000000000000000000000000000000606482015260840161072e565b6001547501000000000000000000000000000000000000000000900460ff161580156132bb57600180547fffffffffffffffffffff0000ffffffffffffffffffffffffffffffffffffffff1675010100000000000000000000000000000000000000001790555b606680547fffffffffffffffffffffffffffffffffffffffffffffffffffffffffffffff00169055801561319a57600180547fffffffffffffffffffff00ffffffffffffffffffffffffffffffffffffffffff16905550565b6001547501000000000000000000000000000000000000000000900460ff1680613359575060015474010000000000000000000000000000000000000000900460ff16155b6133cb5760405162461bcd60e51b815260206004820152602e60248201527f496e697469616c697a61626c653a20636f6e747261637420697320616c72656160448201527f647920696e697469616c697a6564000000000000000000000000000000000000606482015260840161072e565b6001547501000000000000000000000000000000000000000000900460ff1615801561343257600180547fffffffffffffffffffff0000ffffffffffffffffffffffffffffffffffffffff1675010100000000000000000000000000000000000000001790555b6001600255801561319a57600180547fffffffffffffffffffff00ffffffffffffffffffffffffffffffffffffffffff16905550565b60006134bd826040518060400160405280602081526020017f5361666545524332303a206c6f772d6c6576656c2063616c6c206661696c6564815250856001600160a01b031661354d9092919063ffffffff16565b80519091501561260057808060200190518101906134db9190613a52565b6126005760405162461bcd60e51b815260206004820152602a60248201527f5361666545524332303a204552433230206f7065726174696f6e20646964206e60448201527f6f74207375636365656400000000000000000000000000000000000000000000606482015260840161072e565b606061355c8484600085613564565b949350505050565b6060824710156135dc5760405162461bcd60e51b815260206004820152602660248201527f416464726573733a20696e73756666696369656e742062616c616e636520666f60448201527f722063616c6c0000000000000000000000000000000000000000000000000000606482015260840161072e565b843b61362a5760405162461bcd60e51b815260206004820152601d60248201527f416464726573733a2063616c6c20746f206e6f6e2d636f6e7472616374000000604482015260640161072e565b600080866001600160a01b031685876040516136469190613a74565b60006040518083038185875af1925050503d8060008114613683576040519150601f19603f3d011682016040523d82523d6000602084013e613688565b606091505b50915091506136988282866136a3565b979650505050505050565b606083156136b2575081612c2d565b8251156136c25782518084602001fd5b8160405162461bcd60e51b815260040161072e9190613a90565b6001600160a01b038116811461319a57600080fd5b6000806040838503121561370457600080fd5b823561370f816136dc565b9150602083013561371f816136dc565b809150509250929050565b60006020828403121561373c57600080fd5b8135612c2d816136dc565b6000806040838503121561375a57600080fd5b823563ffffffff8116811461376e57600080fd5b946020939093013593505050565b6000806040838503121561378f57600080fd5b82359150602083013561371f816136dc565b6000806000606084860312156137b657600080fd5b8335925060208401356137c8816136dc565b915060408401356137d8816136dc565b809150509250925092565b6000806000606084860312156137f857600080fd5b8335613803816136dc565b92506020840135915060408401356137d8816136dc565b6000806040838503121561382d57600080fd5b50508035926020909101359150565b6000806000806080858703121561385257600080fd5b843561385d816136dc565b9350602085013561386d816136dc565b9250604085013561387d816136dc565b9150606085013561388d816136dc565b939692955090935050565b6000602082840312156138aa57600080fd5b5051919050565b6000602082840312156138c357600080fd5b8151612c2d816136dc565b7f4e487b7100000000000000000000000000000000000000000000000000000000600052601160045260246000fd5b60008282101561390f5761390f6138ce565b500390565b6000817fffffffffffffffffffffffffffffffffffffffffffffffffffffffffffffffff048311821515161561394c5761394c6138ce565b500290565b600082613987577f4e487b7100000000000000000000000000000000000000000000000000000000600052601260045260246000fd5b500490565b6000821982111561399f5761399f6138ce565b500190565b60005b838110156139bf5781810151838201526020016139a7565b83811115612e835750506000910152565b600081518084526139e88160208601602086016139a4565b601f017fffffffffffffffffffffffffffffffffffffffffffffffffffffffffffffffe0169290920160200192915050565b6001600160a01b0384168152606060208201526000613a3c60608301856139d0565b905063ffffffff83166040830152949350505050565b600060208284031215613a6457600080fd5b81518015158114612c2d57600080fd5b60008251613a868184602087016139a4565b9190910192915050565b602081526000612c2d60208301846139d056fea164736f6c6343000809000a",
  "linkReferences": {},
  "deployedLinkReferences": {}
}