{
  "_format": "hh-sol-artifact-1",
  "contractName": "L2LiquidityPool",
  "sourceName": "contracts/LP/L2LiquidityPool.sol",
  "abi": [
    {
      "inputs": [],
      "stateMutability": "nonpayable",
      "type": "constructor"
    },
    {
      "anonymous": false,
      "inputs": [
        {
          "indexed": false,
          "internalType": "address",
          "name": "sender",
          "type": "address"
        },
        {
          "indexed": false,
          "internalType": "uint256",
          "name": "amount",
          "type": "uint256"
        },
        {
          "indexed": false,
          "internalType": "address",
          "name": "tokenAddress",
          "type": "address"
        }
      ],
      "name": "AddLiquidity",
      "type": "event"
    },
    {
      "anonymous": false,
      "inputs": [
        {
          "indexed": false,
          "internalType": "address",
          "name": "sender",
          "type": "address"
        },
        {
          "indexed": false,
          "internalType": "uint256",
          "name": "receivedAmount",
          "type": "uint256"
        },
        {
          "indexed": false,
          "internalType": "address",
          "name": "tokenAddress",
          "type": "address"
        }
      ],
      "name": "ClientDepositL2",
      "type": "event"
    },
    {
      "anonymous": false,
      "inputs": [
        {
          "indexed": false,
          "internalType": "address",
          "name": "sender",
          "type": "address"
        },
        {
          "indexed": false,
          "internalType": "uint256",
          "name": "amount",
          "type": "uint256"
        },
        {
          "indexed": false,
          "internalType": "uint256",
          "name": "userRewardFee",
          "type": "uint256"
        },
        {
          "indexed": false,
          "internalType": "uint256",
          "name": "ownerRewardFee",
          "type": "uint256"
        },
        {
          "indexed": false,
          "internalType": "uint256",
          "name": "totalFee",
          "type": "uint256"
        },
        {
          "indexed": false,
          "internalType": "address",
          "name": "tokenAddress",
          "type": "address"
        }
      ],
      "name": "ClientPayL2",
      "type": "event"
    },
    {
      "anonymous": false,
      "inputs": [
        {
          "indexed": false,
          "internalType": "address",
          "name": "sender",
          "type": "address"
        },
        {
          "indexed": false,
          "internalType": "uint256",
          "name": "amount",
          "type": "uint256"
        },
        {
          "indexed": false,
          "internalType": "uint256",
          "name": "userRewardFee",
          "type": "uint256"
        },
        {
          "indexed": false,
          "internalType": "uint256",
          "name": "ownerRewardFee",
          "type": "uint256"
        },
        {
          "indexed": false,
          "internalType": "uint256",
          "name": "totalFee",
          "type": "uint256"
        },
        {
          "indexed": false,
          "internalType": "address",
          "name": "tokenAddress",
          "type": "address"
        }
      ],
      "name": "ClientPayL2Settlement",
      "type": "event"
    },
    {
      "anonymous": false,
      "inputs": [
        {
          "indexed": false,
          "internalType": "address",
          "name": "sender",
          "type": "address"
        },
        {
          "indexed": false,
          "internalType": "address",
          "name": "receiver",
          "type": "address"
        },
        {
          "indexed": false,
          "internalType": "uint256",
          "name": "amount",
          "type": "uint256"
        },
        {
          "indexed": false,
          "internalType": "address",
          "name": "tokenAddress",
          "type": "address"
        }
      ],
      "name": "OwnerRecoverFee",
      "type": "event"
    },
    {
      "anonymous": false,
      "inputs": [
        {
          "indexed": false,
          "internalType": "address",
          "name": "account",
          "type": "address"
        }
      ],
      "name": "Paused",
      "type": "event"
    },
    {
      "anonymous": false,
      "inputs": [
        {
          "indexed": false,
          "internalType": "address",
          "name": "account",
          "type": "address"
        }
      ],
      "name": "Unpaused",
      "type": "event"
    },
    {
      "anonymous": false,
      "inputs": [
        {
          "indexed": false,
          "internalType": "address",
          "name": "sender",
          "type": "address"
        },
        {
          "indexed": false,
          "internalType": "address",
          "name": "receiver",
          "type": "address"
        },
        {
          "indexed": false,
          "internalType": "uint256",
          "name": "amount",
          "type": "uint256"
        },
        {
          "indexed": false,
          "internalType": "address",
          "name": "tokenAddress",
          "type": "address"
        }
      ],
      "name": "WithdrawLiquidity",
      "type": "event"
    },
    {
      "anonymous": false,
      "inputs": [
        {
          "indexed": false,
          "internalType": "address",
          "name": "sender",
          "type": "address"
        },
        {
          "indexed": false,
          "internalType": "address",
          "name": "receiver",
          "type": "address"
        },
        {
          "indexed": false,
          "internalType": "uint256",
          "name": "amount",
          "type": "uint256"
        },
        {
          "indexed": false,
          "internalType": "address",
          "name": "tokenAddress",
          "type": "address"
        }
      ],
      "name": "WithdrawReward",
      "type": "event"
    },
    {
      "inputs": [],
      "name": "DAO",
      "outputs": [
        {
          "internalType": "address",
          "name": "",
          "type": "address"
        }
      ],
      "stateMutability": "view",
      "type": "function"
    },
    {
      "inputs": [],
      "name": "DEFAULT_FINALIZE_WITHDRAWAL_L1_GAS",
      "outputs": [
        {
          "internalType": "uint32",
          "name": "",
          "type": "uint32"
        }
      ],
      "stateMutability": "view",
      "type": "function"
    },
    {
      "inputs": [],
      "name": "L1LiquidityPoolAddress",
      "outputs": [
        {
          "internalType": "address",
          "name": "",
          "type": "address"
        }
      ],
      "stateMutability": "view",
      "type": "function"
    },
    {
      "inputs": [
        {
          "internalType": "uint256",
          "name": "_amount",
          "type": "uint256"
        },
        {
          "internalType": "address",
          "name": "_tokenAddress",
          "type": "address"
        }
      ],
      "name": "addLiquidity",
      "outputs": [],
      "stateMutability": "payable",
      "type": "function"
    },
    {
      "inputs": [
        {
          "internalType": "uint256",
          "name": "_amount",
          "type": "uint256"
        },
        {
          "internalType": "address",
          "name": "_tokenAddress",
          "type": "address"
        }
      ],
      "name": "clientDepositL2",
      "outputs": [],
      "stateMutability": "payable",
      "type": "function"
    },
    {
      "inputs": [
        {
          "internalType": "address payable",
          "name": "_to",
          "type": "address"
        },
        {
          "internalType": "uint256",
          "name": "_amount",
          "type": "uint256"
        },
        {
          "internalType": "address",
          "name": "_tokenAddress",
          "type": "address"
        }
      ],
      "name": "clientPayL2",
      "outputs": [],
      "stateMutability": "nonpayable",
      "type": "function"
    },
    {
      "inputs": [
        {
          "internalType": "address payable",
          "name": "_to",
          "type": "address"
        },
        {
          "internalType": "uint256",
          "name": "_amount",
          "type": "uint256"
        },
        {
          "internalType": "address",
          "name": "_tokenAddress",
          "type": "address"
        }
      ],
      "name": "clientPayL2Settlement",
      "outputs": [],
      "stateMutability": "nonpayable",
      "type": "function"
    },
    {
      "inputs": [
        {
          "internalType": "uint256",
          "name": "_extraGas",
          "type": "uint256"
        }
      ],
      "name": "configureExtraGasRelay",
      "outputs": [],
      "stateMutability": "nonpayable",
      "type": "function"
    },
    {
      "inputs": [
        {
          "internalType": "uint256",
          "name": "_userRewardFeeRate",
          "type": "uint256"
        },
        {
          "internalType": "uint256",
          "name": "_ownerRewardFeeRate",
          "type": "uint256"
        }
      ],
      "name": "configureFee",
      "outputs": [],
      "stateMutability": "nonpayable",
      "type": "function"
    },
    {
      "inputs": [
        {
          "internalType": "uint256",
          "name": "_userRewardFeeRate",
          "type": "uint256"
        },
        {
          "internalType": "uint256",
          "name": "_ownerRewardFeeRate",
          "type": "uint256"
        }
      ],
      "name": "configureFeeExits",
      "outputs": [],
      "stateMutability": "nonpayable",
      "type": "function"
    },
    {
      "inputs": [
        {
          "internalType": "uint32",
          "name": "_l1GasFee",
          "type": "uint32"
        }
      ],
      "name": "configureGas",
      "outputs": [],
      "stateMutability": "nonpayable",
      "type": "function"
    },
    {
      "inputs": [],
      "name": "extraGasRelay",
      "outputs": [
        {
          "internalType": "uint256",
          "name": "",
          "type": "uint256"
        }
      ],
      "stateMutability": "view",
      "type": "function"
    },
    {
      "inputs": [],
      "name": "getFinalizeDepositL1Gas",
      "outputs": [
        {
          "internalType": "uint32",
          "name": "",
          "type": "uint32"
        }
      ],
      "stateMutability": "view",
      "type": "function"
    },
    {
      "inputs": [
        {
          "internalType": "address",
          "name": "_l2CrossDomainMessenger",
          "type": "address"
        },
        {
          "internalType": "address",
          "name": "_L1LiquidityPoolAddress",
          "type": "address"
        }
      ],
      "name": "initialize",
      "outputs": [],
      "stateMutability": "nonpayable",
      "type": "function"
    },
    {
      "inputs": [],
      "name": "messenger",
      "outputs": [
        {
          "internalType": "address",
          "name": "",
          "type": "address"
        }
      ],
      "stateMutability": "view",
      "type": "function"
    },
    {
      "inputs": [],
      "name": "owner",
      "outputs": [
        {
          "internalType": "address",
          "name": "",
          "type": "address"
        }
      ],
      "stateMutability": "view",
      "type": "function"
    },
    {
      "inputs": [
        {
          "internalType": "uint256",
          "name": "_amount",
          "type": "uint256"
        },
        {
          "internalType": "address",
          "name": "_tokenAddress",
          "type": "address"
        },
        {
          "internalType": "address",
          "name": "_to",
          "type": "address"
        }
      ],
      "name": "ownerRecoverFee",
      "outputs": [],
      "stateMutability": "nonpayable",
      "type": "function"
    },
    {
      "inputs": [],
      "name": "ownerRewardFeeRate",
      "outputs": [
        {
          "internalType": "uint256",
          "name": "",
          "type": "uint256"
        }
      ],
      "stateMutability": "view",
      "type": "function"
    },
    {
      "inputs": [],
      "name": "pause",
      "outputs": [],
      "stateMutability": "nonpayable",
      "type": "function"
    },
    {
      "inputs": [],
      "name": "paused",
      "outputs": [
        {
          "internalType": "bool",
          "name": "",
          "type": "bool"
        }
      ],
      "stateMutability": "view",
      "type": "function"
    },
    {
      "inputs": [
        {
          "internalType": "address",
          "name": "",
          "type": "address"
        }
      ],
      "name": "poolInfo",
      "outputs": [
        {
          "internalType": "address",
          "name": "l1TokenAddress",
          "type": "address"
        },
        {
          "internalType": "address",
          "name": "l2TokenAddress",
          "type": "address"
        },
        {
          "internalType": "uint256",
          "name": "userDepositAmount",
          "type": "uint256"
        },
        {
          "internalType": "uint256",
          "name": "lastAccUserReward",
          "type": "uint256"
        },
        {
          "internalType": "uint256",
          "name": "accUserReward",
          "type": "uint256"
        },
        {
          "internalType": "uint256",
          "name": "accUserRewardPerShare",
          "type": "uint256"
        },
        {
          "internalType": "uint256",
          "name": "accOwnerReward",
          "type": "uint256"
        },
        {
          "internalType": "uint256",
          "name": "startTime",
          "type": "uint256"
        }
      ],
      "stateMutability": "view",
      "type": "function"
    },
    {
      "inputs": [
        {
          "internalType": "address",
          "name": "_l1TokenAddress",
          "type": "address"
        },
        {
          "internalType": "address",
          "name": "_l2TokenAddress",
          "type": "address"
        }
      ],
      "name": "registerPool",
      "outputs": [],
      "stateMutability": "nonpayable",
      "type": "function"
    },
    {
      "inputs": [
        {
          "internalType": "address",
          "name": "_newDAO",
          "type": "address"
        }
      ],
      "name": "transferDAORole",
      "outputs": [],
      "stateMutability": "nonpayable",
      "type": "function"
    },
    {
      "inputs": [
        {
          "internalType": "address",
          "name": "_newOwner",
          "type": "address"
        }
      ],
      "name": "transferOwnership",
      "outputs": [],
      "stateMutability": "nonpayable",
      "type": "function"
    },
    {
      "inputs": [],
      "name": "unpause",
      "outputs": [],
      "stateMutability": "nonpayable",
      "type": "function"
    },
    {
      "inputs": [
        {
          "internalType": "address",
          "name": "_tokenAddress",
          "type": "address"
        }
      ],
      "name": "updateUserRewardPerShare",
      "outputs": [],
      "stateMutability": "nonpayable",
      "type": "function"
    },
    {
      "inputs": [
        {
          "internalType": "address",
          "name": "",
          "type": "address"
        },
        {
          "internalType": "address",
          "name": "",
          "type": "address"
        }
      ],
      "name": "userInfo",
      "outputs": [
        {
          "internalType": "uint256",
          "name": "amount",
          "type": "uint256"
        },
        {
          "internalType": "uint256",
          "name": "rewardDebt",
          "type": "uint256"
        },
        {
          "internalType": "uint256",
          "name": "pendingReward",
          "type": "uint256"
        }
      ],
      "stateMutability": "view",
      "type": "function"
    },
    {
      "inputs": [],
      "name": "userRewardFeeRate",
      "outputs": [
        {
          "internalType": "uint256",
          "name": "",
          "type": "uint256"
        }
      ],
      "stateMutability": "view",
      "type": "function"
    },
    {
      "inputs": [
        {
          "internalType": "uint256",
          "name": "_amount",
          "type": "uint256"
        },
        {
          "internalType": "address",
          "name": "_tokenAddress",
          "type": "address"
        },
        {
          "internalType": "address payable",
          "name": "_to",
          "type": "address"
        }
      ],
      "name": "withdrawLiquidity",
      "outputs": [],
      "stateMutability": "nonpayable",
      "type": "function"
    },
    {
      "inputs": [
        {
          "internalType": "uint256",
          "name": "_amount",
          "type": "uint256"
        },
        {
          "internalType": "address",
          "name": "_tokenAddress",
          "type": "address"
        },
        {
          "internalType": "address",
          "name": "_to",
          "type": "address"
        }
      ],
      "name": "withdrawReward",
      "outputs": [],
      "stateMutability": "nonpayable",
      "type": "function"
    }
  ],
  "bytecode": "0x608060405234801561001057600080fd5b50600080546001600160a01b0319169055613ae7806100306000396000f3fe6080604052600436106101cd5760003560e01c806368be42ca116100f7578063997d73df11610095578063c95f9d0e11610064578063c95f9d0e146105e9578063d1dd871a146105fc578063f2fde38b1461061c578063f48712681461063c57600080fd5b8063997d73df146104dd5780639a7b5f11146104f8578063b5e241f1146105a9578063bd2d1cab146105c957600080fd5b806381e6bdac116100d157806381e6bdac146104605780638456cb59146104805780638da5cb5b1461049557806398fabd3a146104b557600080fd5b806368be42ca1461040a57806370ac31801461042a5780637286e5e51461044057600080fd5b80633f4ba83a1161016f5780634c7d0def1161013e5780634c7d0def146103755780635c975abb14610395578063650a767b146103b85780636854e22b146103d857600080fd5b80633f4ba83a1461030a578063435fd5711461031f578063485cc9551461033557806349561dc41461035557600080fd5b80631d00a771116101ab5780631d00a7711461029357806334636648146102a6578063358fc07e146102c65780633cb747bf146102ea57600080fd5b80630f208beb146101d257806312f54c1a1461023957806316a8dda71461025b575b600080fd5b3480156101de57600080fd5b506102196101ed366004613741565b609860209081526000928352604080842090915290825290208054600182015460029092015490919083565b604080519384526020840192909252908201526060015b60405180910390f35b34801561024557600080fd5b5061025961025436600461377a565b61065c565b005b34801561026757600080fd5b50609a5461027b906001600160a01b031681565b6040516001600160a01b039091168152602001610230565b6102596102a1366004613797565b6106f2565b3480156102b257600080fd5b506102596102c13660046137bc565b610a28565b3480156102d257600080fd5b506102dc609c5481565b604051908152602001610230565b3480156102f657600080fd5b5060005461027b906001600160a01b031681565b34801561031657600080fd5b50610259610b4b565b34801561032b57600080fd5b506102dc609b5481565b34801561034157600080fd5b50610259610350366004613741565b610bc3565b34801561036157600080fd5b506102596103703660046137e2565b610e96565b34801561038157600080fd5b50610259610390366004613824565b61116c565b3480156103a157600080fd5b5060655460ff166040519015158152602001610230565b3480156103c457600080fd5b506102596103d3366004613846565b61135c565b3480156103e457600080fd5b50609d546103f59063ffffffff1681565b60405163ffffffff9091168152602001610230565b34801561041657600080fd5b506102596104253660046137e2565b6117c0565b34801561043657600080fd5b506102dc609e5481565b34801561044c57600080fd5b5061025961045b366004613741565b611aad565b34801561046c57600080fd5b5061025961047b3660046137e2565b611cdc565b34801561048c57600080fd5b50610259611f5b565b3480156104a157600080fd5b5060995461027b906001600160a01b031681565b3480156104c157600080fd5b50609d5461027b9064010000000090046001600160a01b031681565b3480156104e957600080fd5b50609d5463ffffffff166103f5565b34801561050457600080fd5b5061056361051336600461377a565b609760205260009081526040902080546001820154600283015460038401546004850154600586015460068701546007909701546001600160a01b03968716979590961695939492939192909188565b604080516001600160a01b03998a168152989097166020890152958701949094526060860192909252608085015260a084015260c083015260e082015261010001610230565b3480156105b557600080fd5b506102596105c436600461387d565b611fd1565b3480156105d557600080fd5b506102596105e4366004613846565b6120c2565b6102596105f7366004613797565b6126a7565b34801561060857600080fd5b50610259610617366004613824565b6129b3565b34801561062857600080fd5b5061025961063736600461377a565b612b22565b34801561064857600080fd5b5061025961065736600461377a565b612c45565b6001600160a01b03811660009081526097602052604090206004810154600382015410156106ee5760006106a182600301548360040154612d6590919063ffffffff16565b905081600201546000146106e25760028201546106dc906106d1906106cb8464e8d4a51000612d78565b90612d84565b600584015490612d90565b60058301555b50600481015460038201555b5050565b60655460ff161561074a5760405162461bcd60e51b815260206004820152601060248201527f5061757361626c653a207061757365640000000000000000000000000000000060448201526064015b60405180910390fd5b60005a9050609e5481116107c65760405162461bcd60e51b815260206004820152602860248201527f496e73756666696369656e742047617320466f7220612052656c61792054726160448201527f6e73616374696f6e0000000000000000000000000000000000000000000000006064820152608401610741565b60006107dd609e5483612d6590919063ffffffff16565b905060005b815a11156107fc57806107f4816138c5565b9150506107e2565b3415158061082757506001600160a01b03841673420000000000000000000000000000000000000614155b6108735760405162461bcd60e51b815260206004820152601060248201527f416d6f756e7420496e636f7272656374000000000000000000000000000000006044820152606401610741565b34156108945734945073420000000000000000000000000000000000000693505b6001600160a01b03808516600090815260976020526040902060018101549091166109015760405162461bcd60e51b815260206004820152601c60248201527f546f6b656e2041646472657373204e6f742052656769737465726564000000006044820152606401610741565b6001600160a01b0385167342000000000000000000000000000000000000061461093a5761093a6001600160a01b038616333089612d9c565b805460408051336024820152604481018990526001600160a01b039283166064808301919091528251808303909101815260849091019091526020810180517bffffffffffffffffffffffffffffffffffffffffffffffffffffffff167fcf26fb1b00000000000000000000000000000000000000000000000000000000179052609a54609d5491926109d79291169063ffffffff165b83612e71565b60408051338152602081018990526001600160a01b0388168183015290517fe57500de6b6dcf76b201fef514aca6501809e3b700c9fbd5e803567c66edf54c9181900360600190a150505050505050565b6099546001600160a01b0316331480610a4a57506099546001600160a01b0316155b610a965760405162461bcd60e51b815260206004820152601760248201527f63616c6c6572206973206e6f7420746865206f776e65720000000000000000006044820152606401610741565b609a546001600160a01b0316610b145760405162461bcd60e51b815260206004820152602560248201527f436f6e747261637420686173206e6f7420796574206265656e20696e6974696160448201527f6c697a65640000000000000000000000000000000000000000000000000000006064820152608401610741565b609d80547fffffffffffffffffffffffffffffffffffffffffffffffffffffffff000000001663ffffffff92909216919091179055565b6099546001600160a01b0316331480610b6d57506099546001600160a01b0316155b610bb95760405162461bcd60e51b815260206004820152601760248201527f63616c6c6572206973206e6f7420746865206f776e65720000000000000000006044820152606401610741565b610bc1612ef5565b565b6099546001600160a01b0316331480610be557506099546001600160a01b0316155b610c315760405162461bcd60e51b815260206004820152601760248201527f63616c6c6572206973206e6f7420746865206f776e65720000000000000000006044820152606401610741565b609a546001600160a01b031615610c8a5760405162461bcd60e51b815260206004820152601d60248201527f436f6e747261637420686173206265656e20696e697469616c697a65640000006044820152606401610741565b6000547501000000000000000000000000000000000000000000900460ff1680610ccf575060005474010000000000000000000000000000000000000000900460ff16155b610d415760405162461bcd60e51b815260206004820152602e60248201527f496e697469616c697a61626c653a20636f6e747261637420697320616c72656160448201527f647920696e697469616c697a65640000000000000000000000000000000000006064820152608401610741565b6000547501000000000000000000000000000000000000000000900460ff16158015610da857600080547fffffffffffffffffffff0000ffffffffffffffffffffffffffffffffffffffff1675010100000000000000000000000000000000000000001790555b600080547fffffffffffffffffffffffff00000000000000000000000000000000000000009081166001600160a01b0386811691909117909255609a80548216928516929092179091556099805433921682179055609d80547fffffffffffffffff0000000000000000000000000000000000000000ffffffff16640100000000909202919091179055610e3e6023600f6129b3565b610e4a620186a0610a28565b610e52612faf565b610e5a6130ff565b610e62613276565b8015610e9157600080547fffffffffffffffffffff00ffffffffffffffffffffffffffffffffffffffffff1690555b505050565b60655460ff1615610ee95760405162461bcd60e51b815260206004820152601060248201527f5061757361626c653a20706175736564000000000000000000000000000000006044820152606401610741565b6001600160a01b0380831660009081526097602090815260408083206098835281842033855290925290912060018201549192909116610f6b5760405162461bcd60e51b815260206004820152601c60248201527f546f6b656e2041646472657373204e6f742052656769737465726564000000006044820152606401610741565b6000610fad610fa28360010154610f9c64e8d4a510006106cb88600501548860000154612d7890919063ffffffff16565b90612d65565b600284015490612d90565b905085811015610fff5760405162461bcd60e51b815260206004820152601560248201527f576974686472617720526577617264204572726f7200000000000000000000006044820152606401610741565b6110098187612d65565b6002830155600583015482546110299164e8d4a51000916106cb91612d78565b60018301556001600160a01b0385167342000000000000000000000000000000000000061461106b576110666001600160a01b03861685886133c9565b611114565b6000846001600160a01b03166108fc88604051600060405180830381858888f193505050503d80600081146110bc576040519150601f19603f3d011682016040523d82523d6000602084013e6110c1565b606091505b50509050806111125760405162461bcd60e51b815260206004820152601660248201527f4661696c656420746f2073656e64206f766d5f457468000000000000000000006044820152606401610741565b505b604080513381526001600160a01b0386811660208301528183018990528716606082015290517f3cb7cb475a33eda02ee6e719b6c2fc0c899157cfc6f098daf545354dbbce41ec9181900360800190a1505050505050565b609d5464010000000090046001600160a01b031633146111ce5760405162461bcd60e51b815260206004820152601560248201527f63616c6c6572206973206e6f74207468652044414f00000000000000000000006044820152606401610741565b609a546001600160a01b031661124c5760405162461bcd60e51b815260206004820152602560248201527f436f6e747261637420686173206e6f7420796574206265656e20696e6974696160448201527f6c697a65640000000000000000000000000000000000000000000000000000006064820152608401610741565b6032821115801561125e575060328111155b6112d05760405162461bcd60e51b815260206004820152603c60248201527f7573657220616e64206f776e6572206665652072617465732073686f756c642060448201527f6265206c6f776572207468616e20352070657263656e742065616368000000006064820152608401610741565b604080516024810184905260448082018490528251808303909101815260649091019091526020810180517bffffffffffffffffffffffffffffffffffffffffffffffffffffffff167fd1dd871a00000000000000000000000000000000000000000000000000000000179052609a54609d54610e91916001600160a01b03169063ffffffff166109d1565b609a546001600160a01b03166113da5760405162461bcd60e51b815260206004820152602560248201527f436f6e747261637420686173206e6f7420796574206265656e20696e6974696160448201527f6c697a65640000000000000000000000000000000000000000000000000000006064820152608401610741565b609a546001600160a01b03166113f86000546001600160a01b031690565b6001600160a01b0316336001600160a01b03161461147e5760405162461bcd60e51b815260206004820152602e60248201527f4f564d5f58434841494e3a206d657373656e67657220636f6e7472616374207560448201527f6e61757468656e746963617465640000000000000000000000000000000000006064820152608401610741565b806001600160a01b031661149a6000546001600160a01b031690565b6001600160a01b0316636e296e456040518163ffffffff1660e01b815260040160206040518083038186803b1580156114d257600080fd5b505afa1580156114e6573d6000803e3d6000fd5b505050506040513d601f19601f8201168201806040525081019061150a91906138fe565b6001600160a01b0316146115865760405162461bcd60e51b815260206004820152603060248201527f4f564d5f58434841494e3a2077726f6e672073656e646572206f662063726f7360448201527f732d646f6d61696e206d657373616765000000000000000000000000000000006064820152608401610741565b60655460ff16156115d95760405162461bcd60e51b815260206004820152601060248201527f5061757361626c653a20706175736564000000000000000000000000000000006044820152606401610741565b6001600160a01b0382166000908152609760205260408120609b5490919061160a906103e8906106cb908890612d78565b905060006116296103e86106cb609c5489612d7890919063ffffffff16565b905060006116378383612d90565b905060006116458883612d65565b60048601549091506116579085612d90565b6004860155600685015461166b9084612d90565b60068601556001600160a01b038716734200000000000000000000000000000000000006146116ad576116a86001600160a01b0388168a836133c9565b611756565b6000896001600160a01b03166108fc83604051600060405180830381858888f193505050503d80600081146116fe576040519150601f19603f3d011682016040523d82523d6000602084013e611703565b606091505b50509050806117545760405162461bcd60e51b815260206004820152601660248201527f4661696c656420746f2073656e64206f766d5f457468000000000000000000006044820152606401610741565b505b604080516001600160a01b038b81168252602082018490528183018790526060820186905260808201859052891660a082015290517ff1068421680e00dfc2c4f3fc20c7f565bf1ec365420e7544365bae13d5cbc8c89181900360c00190a1505050505050505050565b60655460ff16156118135760405162461bcd60e51b815260206004820152601060248201527f5061757361626c653a20706175736564000000000000000000000000000000006044820152606401610741565b6001600160a01b03808316600090815260976020908152604080832060988352818420338552909252909120600182015491929091166118955760405162461bcd60e51b815260206004820152601c60248201527f546f6b656e2041646472657373204e6f742052656769737465726564000000006044820152606401610741565b80548511156118e65760405162461bcd60e51b815260206004820152600e60248201527f5769746864726177204572726f720000000000000000000000000000000000006044820152606401610741565b6118ef8461065c565b61192961191e8260010154610f9c64e8d4a510006106cb87600501548760000154612d7890919063ffffffff16565b600283015490612d90565b6002820155805461193a9086612d65565b80825560058301546119579164e8d4a51000916106cb9190612d78565b6001820155600282015461196b9086612d65565b60028301556001600160a01b038416734200000000000000000000000000000000000006146119ad576119a86001600160a01b03851684876133c9565b611a56565b6000836001600160a01b03166108fc87604051600060405180830381858888f193505050503d80600081146119fe576040519150601f19603f3d011682016040523d82523d6000602084013e611a03565b606091505b5050905080611a545760405162461bcd60e51b815260206004820152601660248201527f4661696c656420746f2073656e64206f766d5f457468000000000000000000006044820152606401610741565b505b604080513381526001600160a01b0385811660208301528183018890528616606082015290517ffa2e8fcf14fd6ea11b6ebe7caf7de210198b8fe1eaf0e06d19f8d87c73860c469181900360800190a15050505050565b6099546001600160a01b0316331480611acf57506099546001600160a01b0316155b611b1b5760405162461bcd60e51b815260206004820152601760248201527f63616c6c6572206973206e6f7420746865206f776e65720000000000000000006044820152606401610741565b806001600160a01b0316826001600160a01b03161415611ba35760405162461bcd60e51b815260206004820152602860248201527f6c3120616e64206c3220746f6b656e206164647265737365732063616e6e6f7460448201527f2062652073616d650000000000000000000000000000000000000000000000006064820152608401610741565b6001600160a01b038082166000908152609760205260409020600181015490911615611c115760405162461bcd60e51b815260206004820152601f60248201527f546f6b656e204164647265737320416c726561647920526567697374657264006044820152606401610741565b5060408051610100810182526001600160a01b03938416815291831660208084018281526000858501818152606087018281526080880183815260a0890184815260c08a018581524260e08c0190815298865260979097529790932097518854908a167fffffffffffffffffffffffff0000000000000000000000000000000000000000918216178955935160018901805491909a16941693909317909755955160028601555160038501559351600484015590516005830155915160068201559051600790910155565b6099546001600160a01b0316331480611cfe57506099546001600160a01b0316155b611d4a5760405162461bcd60e51b815260206004820152601760248201527f63616c6c6572206973206e6f7420746865206f776e65720000000000000000006044820152606401610741565b6001600160a01b0380831660009081526097602052604090206001810154909116611db75760405162461bcd60e51b815260206004820152601a60248201527f546f6b656e2041646472657373204e6f742052656769737465720000000000006044820152606401610741565b8381600601541015611e0b5760405162461bcd60e51b815260206004820152601b60248201527f4f776e657220526577617264205769746864726177204572726f7200000000006044820152606401610741565b6006810154611e1a9085612d65565b60068201556001600160a01b03831673420000000000000000000000000000000000000614611e5c57611e576001600160a01b03841683866133c9565b611f05565b6000826001600160a01b03166108fc86604051600060405180830381858888f193505050503d8060008114611ead576040519150601f19603f3d011682016040523d82523d6000602084013e611eb2565b606091505b5050905080611f035760405162461bcd60e51b815260206004820152601660248201527f4661696c656420746f2073656e64206f766d5f457468000000000000000000006044820152606401610741565b505b604080513381526001600160a01b0384811660208301528183018790528516606082015290517f3cb71b9a1fb601579f96812b9f86ab5e914fc3e54c98d5f84d95581b2b9884f39181900360800190a150505050565b6099546001600160a01b0316331480611f7d57506099546001600160a01b0316155b611fc95760405162461bcd60e51b815260206004820152601760248201527f63616c6c6572206973206e6f7420746865206f776e65720000000000000000006044820152606401610741565b610bc1613412565b6099546001600160a01b0316331480611ff357506099546001600160a01b0316155b61203f5760405162461bcd60e51b815260206004820152601760248201527f63616c6c6572206973206e6f7420746865206f776e65720000000000000000006044820152606401610741565b609a546001600160a01b03166120bd5760405162461bcd60e51b815260206004820152602560248201527f436f6e747261637420686173206e6f7420796574206265656e20696e6974696160448201527f6c697a65640000000000000000000000000000000000000000000000000000006064820152608401610741565b609e55565b609a546001600160a01b03166121405760405162461bcd60e51b815260206004820152602560248201527f436f6e747261637420686173206e6f7420796574206265656e20696e6974696160448201527f6c697a65640000000000000000000000000000000000000000000000000000006064820152608401610741565b609a546001600160a01b031661215e6000546001600160a01b031690565b6001600160a01b0316336001600160a01b0316146121e45760405162461bcd60e51b815260206004820152602e60248201527f4f564d5f58434841494e3a206d657373656e67657220636f6e7472616374207560448201527f6e61757468656e746963617465640000000000000000000000000000000000006064820152608401610741565b806001600160a01b03166122006000546001600160a01b031690565b6001600160a01b0316636e296e456040518163ffffffff1660e01b815260040160206040518083038186803b15801561223857600080fd5b505afa15801561224c573d6000803e3d6000fd5b505050506040513d601f19601f8201168201806040525081019061227091906138fe565b6001600160a01b0316146122ec5760405162461bcd60e51b815260206004820152603060248201527f4f564d5f58434841494e3a2077726f6e672073656e646572206f662063726f7360448201527f732d646f6d61696e206d657373616765000000000000000000000000000000006064820152608401610741565b60655460ff161561233f5760405162461bcd60e51b815260206004820152601060248201527f5061757361626c653a20706175736564000000000000000000000000000000006044820152606401610741565b6001600160a01b0382166000908152609760205260408120609b54829061236f906103e8906106cb908990612d78565b9050600061238e6103e86106cb609c548a612d7890919063ffffffff16565b9050600061239c8383612d90565b905060006123aa8983612d65565b90506001600160a01b038816734200000000000000000000000000000000000006146124b1576040517f70a082310000000000000000000000000000000000000000000000000000000081523060048201526001600160a01b038916906370a082319060240160206040518083038186803b15801561242857600080fd5b505afa15801561243c573d6000803e3d6000fd5b505050506040513d601f19601f82011682018060405250810190612460919061391b565b8111156124705760019550612592565b600485015461247f9085612d90565b600486015560068501546124939084612d90565b60068601556124ac6001600160a01b0389168b836133c9565b612592565b478111156124c25760019550612592565b60048501546124d19085612d90565b600486015560068501546124e59084612d90565b60068601556040516000906001600160a01b038c16906108fc90849084818181858888f193505050503d806000811461253a576040519150601f19603f3d011682016040523d82523d6000602084013e61253f565b606091505b50509050806125905760405162461bcd60e51b815260206004820152601660248201527f4661696c656420746f2073656e64206f766d5f457468000000000000000000006044820152606401610741565b505b851561263b578454604080516001600160a01b038d81166024830152604482018d90529283166064808301919091528251808303909101815260849091019091526020810180517bffffffffffffffffffffffffffffffffffffffffffffffffffffffff167f53174cc100000000000000000000000000000000000000000000000000000000179052609a54609d5491926126359291169063ffffffff166109d1565b5061269b565b604080516001600160a01b038c811682526020820184905281830187905260608201869052608082018590528a1660a082015290517fedb4d3b4b55168608412f15db11c00859915842963c31b1f08d910a38e1d6aa49181900360c00190a15b50505050505050505050565b600260015414156126fa5760405162461bcd60e51b815260206004820152601f60248201527f5265656e7472616e637947756172643a207265656e7472616e742063616c6c006044820152606401610741565b600260015560655460ff16156127525760405162461bcd60e51b815260206004820152601060248201527f5061757361626c653a20706175736564000000000000000000000000000000006044820152606401610741565b3415158061277d57506001600160a01b03811673420000000000000000000000000000000000000614155b6127c95760405162461bcd60e51b815260206004820152601060248201527f416d6f756e7420496e636f7272656374000000000000000000000000000000006044820152606401610741565b34156127e957503490507342000000000000000000000000000000000000065b6001600160a01b038082166000908152609760209081526040808320609883528184203385529092529091206001820154919290911661286b5760405162461bcd60e51b815260206004820152601c60248201527f546f6b656e2041646472657373204e6f742052656769737465726564000000006044820152606401610741565b6128748361065c565b8054156128e0576128aa61191e8260010154610f9c64e8d4a510006106cb87600501548760000154612d7890919063ffffffff16565b6002820155600582015481546128d69164e8d4a51000916106cb91906128d09089612d90565b90612d78565b6001820155612906565b61290064e8d4a510006106cb846005015487612d7890919063ffffffff16565b60018201555b6001600160a01b0383167342000000000000000000000000000000000000061461293f5761293f6001600160a01b038416333087612d9c565b805461294b9085612d90565b8155600282015461295c9085612d90565b600283015560408051338152602081018690526001600160a01b0385168183015290517f5852d1d46e583f7e92c2a572221de0e681d82ef71f489847e056b9445c0147369181900360600190a15050600180555050565b609d5464010000000090046001600160a01b03163314612a155760405162461bcd60e51b815260206004820152601560248201527f63616c6c6572206973206e6f74207468652044414f00000000000000000000006044820152606401610741565b609a546001600160a01b0316612a935760405162461bcd60e51b815260206004820152602560248201527f436f6e747261637420686173206e6f7420796574206265656e20696e6974696160448201527f6c697a65640000000000000000000000000000000000000000000000000000006064820152608401610741565b60328211158015612aa5575060328111155b612b175760405162461bcd60e51b815260206004820152603c60248201527f7573657220616e64206f776e6572206665652072617465732073686f756c642060448201527f6265206c6f776572207468616e20352070657263656e742065616368000000006064820152608401610741565b609b91909155609c55565b6099546001600160a01b0316331480612b4457506099546001600160a01b0316155b612b905760405162461bcd60e51b815260206004820152601760248201527f63616c6c6572206973206e6f7420746865206f776e65720000000000000000006044820152606401610741565b6001600160a01b038116612c0b5760405162461bcd60e51b8152602060048201526024808201527f4e6577206f776e65722063616e6e6f7420626520746865207a65726f2061646460448201527f72657373000000000000000000000000000000000000000000000000000000006064820152608401610741565b609980547fffffffffffffffffffffffff0000000000000000000000000000000000000000166001600160a01b0392909216919091179055565b609d5464010000000090046001600160a01b03163314612ca75760405162461bcd60e51b815260206004820152601560248201527f63616c6c6572206973206e6f74207468652044414f00000000000000000000006044820152606401610741565b6001600160a01b038116612d235760405162461bcd60e51b815260206004820152602a60248201527f4e65772044414f20616464726573732063616e6e6f7420626520746865207a6560448201527f726f2061646472657373000000000000000000000000000000000000000000006064820152608401610741565b609d80546001600160a01b03909216640100000000027fffffffffffffffff0000000000000000000000000000000000000000ffffffff909216919091179055565b6000612d718284613934565b9392505050565b6000612d71828461394b565b6000612d718284613988565b6000612d7182846139c3565b6040516001600160a01b0380851660248301528316604482015260648101829052612e6b9085907f23b872dd00000000000000000000000000000000000000000000000000000000906084015b604080517fffffffffffffffffffffffffffffffffffffffffffffffffffffffffffffffe08184030181529190526020810180517bffffffffffffffffffffffffffffffffffffffffffffffffffffffff167fffffffff00000000000000000000000000000000000000000000000000000000909316929092179091526134b8565b50505050565b6000546040517f3dbb202b0000000000000000000000000000000000000000000000000000000081526001600160a01b0390911690633dbb202b90612ebe90869085908790600401613a51565b600060405180830381600087803b158015612ed857600080fd5b505af1158015612eec573d6000803e3d6000fd5b50505050505050565b60655460ff16612f475760405162461bcd60e51b815260206004820152601460248201527f5061757361626c653a206e6f74207061757365640000000000000000000000006044820152606401610741565b606580547fffffffffffffffffffffffffffffffffffffffffffffffffffffffffffffff001690557f5db9ee0a495bf2e6ff9c91a7834c1ba4fdd244a5e8aa4e537bd38aeae4b073aa335b6040516001600160a01b03909116815260200160405180910390a1565b6000547501000000000000000000000000000000000000000000900460ff1680612ff4575060005474010000000000000000000000000000000000000000900460ff16155b6130665760405162461bcd60e51b815260206004820152602e60248201527f496e697469616c697a61626c653a20636f6e747261637420697320616c72656160448201527f647920696e697469616c697a65640000000000000000000000000000000000006064820152608401610741565b6000547501000000000000000000000000000000000000000000900460ff161580156130cd57600080547fffffffffffffffffffff0000ffffffffffffffffffffffffffffffffffffffff1675010100000000000000000000000000000000000000001790555b80156130fc57600080547fffffffffffffffffffff00ffffffffffffffffffffffffffffffffffffffffff1690555b50565b6000547501000000000000000000000000000000000000000000900460ff1680613144575060005474010000000000000000000000000000000000000000900460ff16155b6131b65760405162461bcd60e51b815260206004820152602e60248201527f496e697469616c697a61626c653a20636f6e747261637420697320616c72656160448201527f647920696e697469616c697a65640000000000000000000000000000000000006064820152608401610741565b6000547501000000000000000000000000000000000000000000900460ff1615801561321d57600080547fffffffffffffffffffff0000ffffffffffffffffffffffffffffffffffffffff1675010100000000000000000000000000000000000000001790555b606580547fffffffffffffffffffffffffffffffffffffffffffffffffffffffffffffff0016905580156130fc57600080547fffffffffffffffffffff00ffffffffffffffffffffffffffffffffffffffffff16905550565b6000547501000000000000000000000000000000000000000000900460ff16806132bb575060005474010000000000000000000000000000000000000000900460ff16155b61332d5760405162461bcd60e51b815260206004820152602e60248201527f496e697469616c697a61626c653a20636f6e747261637420697320616c72656160448201527f647920696e697469616c697a65640000000000000000000000000000000000006064820152608401610741565b6000547501000000000000000000000000000000000000000000900460ff1615801561339457600080547fffffffffffffffffffff0000ffffffffffffffffffffffffffffffffffffffff1675010100000000000000000000000000000000000000001790555b6001805580156130fc57600080547fffffffffffffffffffff00ffffffffffffffffffffffffffffffffffffffffff16905550565b6040516001600160a01b038316602482015260448101829052610e919084907fa9059cbb0000000000000000000000000000000000000000000000000000000090606401612de9565b60655460ff16156134655760405162461bcd60e51b815260206004820152601060248201527f5061757361626c653a20706175736564000000000000000000000000000000006044820152606401610741565b606580547fffffffffffffffffffffffffffffffffffffffffffffffffffffffffffffff001660011790557f62e78cea01bee320cd4e420270b5ea74000d11b0c9f74754ebdbfc544b05a258612f923390565b600061350d826040518060400160405280602081526020017f5361666545524332303a206c6f772d6c6576656c2063616c6c206661696c6564815250856001600160a01b031661359d9092919063ffffffff16565b805190915015610e91578080602001905181019061352b9190613a89565b610e915760405162461bcd60e51b815260206004820152602a60248201527f5361666545524332303a204552433230206f7065726174696f6e20646964206e60448201527f6f742073756363656564000000000000000000000000000000000000000000006064820152608401610741565b60606135ac84846000856135b4565b949350505050565b60608247101561362c5760405162461bcd60e51b815260206004820152602660248201527f416464726573733a20696e73756666696369656e742062616c616e636520666f60448201527f722063616c6c00000000000000000000000000000000000000000000000000006064820152608401610741565b843b61367a5760405162461bcd60e51b815260206004820152601d60248201527f416464726573733a2063616c6c20746f206e6f6e2d636f6e74726163740000006044820152606401610741565b600080866001600160a01b031685876040516136969190613aab565b60006040518083038185875af1925050503d80600081146136d3576040519150601f19603f3d011682016040523d82523d6000602084013e6136d8565b606091505b50915091506136e88282866136f3565b979650505050505050565b60608315613702575081612d71565b8251156137125782518084602001fd5b8160405162461bcd60e51b81526004016107419190613ac7565b6001600160a01b03811681146130fc57600080fd5b6000806040838503121561375457600080fd5b823561375f8161372c565b9150602083013561376f8161372c565b809150509250929050565b60006020828403121561378c57600080fd5b8135612d718161372c565b600080604083850312156137aa57600080fd5b82359150602083013561376f8161372c565b6000602082840312156137ce57600080fd5b813563ffffffff81168114612d7157600080fd5b6000806000606084860312156137f757600080fd5b8335925060208401356138098161372c565b915060408401356138198161372c565b809150509250925092565b6000806040838503121561383757600080fd5b50508035926020909101359150565b60008060006060848603121561385b57600080fd5b83356138668161372c565b92506020840135915060408401356138198161372c565b60006020828403121561388f57600080fd5b5035919050565b7f4e487b7100000000000000000000000000000000000000000000000000000000600052601160045260246000fd5b60007fffffffffffffffffffffffffffffffffffffffffffffffffffffffffffffffff8214156138f7576138f7613896565b5060010190565b60006020828403121561391057600080fd5b8151612d718161372c565b60006020828403121561392d57600080fd5b5051919050565b60008282101561394657613946613896565b500390565b6000817fffffffffffffffffffffffffffffffffffffffffffffffffffffffffffffffff048311821515161561398357613983613896565b500290565b6000826139be577f4e487b7100000000000000000000000000000000000000000000000000000000600052601260045260246000fd5b500490565b600082198211156139d6576139d6613896565b500190565b60005b838110156139f65781810151838201526020016139de565b83811115612e6b5750506000910152565b60008151808452613a1f8160208601602086016139db565b601f017fffffffffffffffffffffffffffffffffffffffffffffffffffffffffffffffe0169290920160200192915050565b6001600160a01b0384168152606060208201526000613a736060830185613a07565b905063ffffffff83166040830152949350505050565b600060208284031215613a9b57600080fd5b81518015158114612d7157600080fd5b60008251613abd8184602087016139db565b9190910192915050565b602081526000612d716020830184613a0756fea164736f6c6343000809000a",
  "linkReferences": {},
  "deployedLinkReferences": {}
}