{
  "_format": "hh-sol-artifact-1",
  "contractName": "AtomicSwap",
  "sourceName": "contracts/AtomicSwap.sol",
  "abi": [
    {
      "anonymous": false,
      "inputs": [
        {
          "indexed": false,
          "internalType": "bytes32",
          "name": "_swapID",
          "type": "bytes32"
        }
      ],
      "name": "Close",
      "type": "event"
    },
    {
      "anonymous": false,
      "inputs": [
        {
          "indexed": false,
          "internalType": "bytes32",
          "name": "_swapID",
          "type": "bytes32"
        }
      ],
      "name": "Expire",
      "type": "event"
    },
    {
      "anonymous": false,
      "inputs": [
        {
          "indexed": false,
          "internalType": "bytes32",
          "name": "_swapID",
          "type": "bytes32"
        },
        {
          "indexed": false,
          "internalType": "address",
          "name": "_closeTrader",
          "type": "address"
        }
      ],
      "name": "Open",
      "type": "event"
    },
    {
      "inputs": [
        {
          "internalType": "bytes32",
          "name": "_swapID",
          "type": "bytes32"
        }
      ],
      "name": "check",
      "outputs": [
        {
          "internalType": "uint256",
          "name": "openValue",
          "type": "uint256"
        },
        {
          "internalType": "address",
          "name": "openContractAddress",
          "type": "address"
        },
        {
          "internalType": "uint256",
          "name": "closeValue",
          "type": "uint256"
        },
        {
          "internalType": "address",
          "name": "closeTrader",
          "type": "address"
        },
        {
          "internalType": "address",
          "name": "closeContractAddress",
          "type": "address"
        }
      ],
      "stateMutability": "view",
      "type": "function"
    },
    {
      "inputs": [
        {
          "internalType": "bytes32",
          "name": "_swapID",
          "type": "bytes32"
        }
      ],
      "name": "close",
      "outputs": [],
      "stateMutability": "nonpayable",
      "type": "function"
    },
    {
      "inputs": [
        {
          "internalType": "bytes32",
          "name": "_swapID",
          "type": "bytes32"
        }
      ],
      "name": "expire",
      "outputs": [],
      "stateMutability": "nonpayable",
      "type": "function"
    },
    {
      "inputs": [
        {
          "internalType": "bytes32",
          "name": "_swapID",
          "type": "bytes32"
        },
        {
          "internalType": "uint256",
          "name": "_openValue",
          "type": "uint256"
        },
        {
          "internalType": "address",
          "name": "_openContractAddress",
          "type": "address"
        },
        {
          "internalType": "uint256",
          "name": "_closeValue",
          "type": "uint256"
        },
        {
          "internalType": "address",
          "name": "_closeTrader",
          "type": "address"
        },
        {
          "internalType": "address",
          "name": "_closeContractAddress",
          "type": "address"
        }
      ],
      "name": "open",
      "outputs": [],
      "stateMutability": "nonpayable",
      "type": "function"
    }
  ],
  "bytecode": "0x608060405234801561001057600080fd5b50610f8d806100206000396000f3fe608060405234801561001057600080fd5b506004361061004c5760003560e01c8063399e07921461005157806339c79e0c1461011e5780635454a43814610133578063c644179814610146575b600080fd5b6100db61005f366004610df5565b60009081526020818152604091829020825160c0810184528154808252600183015473ffffffffffffffffffffffffffffffffffffffff9081169483019490945260028301548416948201859052600383015460608301819052600484015485166080840181905260059094015490941660a090920182905294565b6040805195865273ffffffffffffffffffffffffffffffffffffffff94851660208701528501929092528216606084015216608082015260a00160405180910390f35b61013161012c366004610df5565b610159565b005b610131610141366004610e37565b610421565b610131610154366004610df5565b610849565b80600160008281526001602052604090205460ff16600381111561017f5761017f610e96565b146101eb576040517f08c379a000000000000000000000000000000000000000000000000000000000815260206004820152601360248201527f53776170204964206973206e6f74206f70656e0000000000000000000000000060448201526064015b60405180910390fd5b60008281526020818152604091829020825160c08101845281548152600182015473ffffffffffffffffffffffffffffffffffffffff90811693820193909352600282015483169381019390935260038101546060840152600481015482166080840181905260059091015490911660a083015283919033146102f0576040517f08c379a000000000000000000000000000000000000000000000000000000000815260206004820152602260248201527f43616c6c6572206e6f7420617574686f72697a656420636c6f7365205472616460448201527f657200000000000000000000000000000000000000000000000000000000000060648201526084016101e2565b600084815260208181526040808320815160c0810183528154815260018083015473ffffffffffffffffffffffffffffffffffffffff9081168387019081526002808601548316858801526003860154606086019081526004870154841660808701908152600590970154841660a087019081528e8b52949098529590972080547fffffffffffffffffffffffffffffffffffffffffffffffffffffffffffffff0016909517909455915194519351915190946103b294919093169291610a5d565b60208101516080820151825160408401516103e79373ffffffffffffffffffffffffffffffffffffffff909116929091610a5d565b6040518581527fc9d8209586aca26a4f59cc70108e4cf2f637da8cb4133c78a3946bc50581ea289060200160405180910390a15050505050565b856000808281526001602052604090205460ff16600381111561044657610446610e96565b146104ad576040517f08c379a000000000000000000000000000000000000000000000000000000000815260206004820152601460248201527f53776170204964206973206e6f7420667265736800000000000000000000000060448201526064016101e2565b73ffffffffffffffffffffffffffffffffffffffff8516158015906104e7575073ffffffffffffffffffffffffffffffffffffffff821615155b61054d576040517f08c379a000000000000000000000000000000000000000000000000000000000815260206004820152601a60248201527f416464726573732073686f756c64206265206e6f6e207a65726f00000000000060448201526064016101e2565b73ffffffffffffffffffffffffffffffffffffffff831615801590610588575073ffffffffffffffffffffffffffffffffffffffff83163314155b6105ee576040517f08c379a000000000000000000000000000000000000000000000000000000000815260206004820152601660248201527f436c6f73652074726164657220696e636f72726563740000000000000000000060448201526064016101e2565b6040518060c001604052808781526020013373ffffffffffffffffffffffffffffffffffffffff1681526020018673ffffffffffffffffffffffffffffffffffffffff1681526020018581526020018473ffffffffffffffffffffffffffffffffffffffff1681526020018373ffffffffffffffffffffffffffffffffffffffff168152506000808981526020019081526020016000206000820151816000015560208201518160010160006101000a81548173ffffffffffffffffffffffffffffffffffffffff021916908373ffffffffffffffffffffffffffffffffffffffff16021790555060408201518160020160006101000a81548173ffffffffffffffffffffffffffffffffffffffff021916908373ffffffffffffffffffffffffffffffffffffffff1602179055506060820151816003015560808201518160040160006101000a81548173ffffffffffffffffffffffffffffffffffffffff021916908373ffffffffffffffffffffffffffffffffffffffff16021790555060a08201518160050160006101000a81548173ffffffffffffffffffffffffffffffffffffffff021916908373ffffffffffffffffffffffffffffffffffffffff160217905550905050600180600089815260200190815260200160002060006101000a81548160ff021916908360038111156107ed576107ed610e96565b02179055506040805188815273ffffffffffffffffffffffffffffffffffffffff851660208201527fb5894ff5a344c5160302de0b2027c5b55f4914e9d8e8c11b377b559e5ec789eb910160405180910390a150505050505050565b80600160008281526001602052604090205460ff16600381111561086f5761086f610e96565b146108d6576040517f08c379a000000000000000000000000000000000000000000000000000000000815260206004820152601360248201527f53776170204964206973206e6f74206f70656e0000000000000000000000000060448201526064016101e2565b60008281526020818152604091829020825160c08101845281548152600182015473ffffffffffffffffffffffffffffffffffffffff90811693820184905260028301548116948201949094526003820154606082015260048201548416608082015260059091015490921660a08301528391903314806109865750806080015173ffffffffffffffffffffffffffffffffffffffff163373ffffffffffffffffffffffffffffffffffffffff16145b6109ec576040517f08c379a000000000000000000000000000000000000000000000000000000000815260206004820152601e60248201527f43616c6c6572206e6f7420617574686f72697a656420666f722073776170000060448201526064016101e2565b60008481526001602090815260409182902080547fffffffffffffffffffffffffffffffffffffffffffffffffffffffffffffff0016600317905590518581527fbddd9b693ea862fad6ecf78fd51c065be26fda94d1f3cad3a7d691453a38a735910160405180910390a150505050565b6040805173ffffffffffffffffffffffffffffffffffffffff85811660248301528416604482015260648082018490528251808303909101815260849091019091526020810180517bffffffffffffffffffffffffffffffffffffffffffffffffffffffff167f23b872dd00000000000000000000000000000000000000000000000000000000179052610af2908590610af8565b50505050565b6000610b5a826040518060400160405280602081526020017f5361666545524332303a206c6f772d6c6576656c2063616c6c206661696c65648152508573ffffffffffffffffffffffffffffffffffffffff16610c099092919063ffffffff16565b805190915015610c045780806020019051810190610b789190610ec5565b610c04576040517f08c379a000000000000000000000000000000000000000000000000000000000815260206004820152602a60248201527f5361666545524332303a204552433230206f7065726174696f6e20646964206e60448201527f6f7420737563636565640000000000000000000000000000000000000000000060648201526084016101e2565b505050565b6060610c188484600085610c22565b90505b9392505050565b606082471015610cb4576040517f08c379a000000000000000000000000000000000000000000000000000000000815260206004820152602660248201527f416464726573733a20696e73756666696369656e742062616c616e636520666f60448201527f722063616c6c000000000000000000000000000000000000000000000000000060648201526084016101e2565b843b610d1c576040517f08c379a000000000000000000000000000000000000000000000000000000000815260206004820152601d60248201527f416464726573733a2063616c6c20746f206e6f6e2d636f6e747261637400000060448201526064016101e2565b6000808673ffffffffffffffffffffffffffffffffffffffff168587604051610d459190610f13565b60006040518083038185875af1925050503d8060008114610d82576040519150601f19603f3d011682016040523d82523d6000602084013e610d87565b606091505b5091509150610d97828286610da2565b979650505050505050565b60608315610db1575081610c1b565b825115610dc15782518084602001fd5b816040517f08c379a00000000000000000000000000000000000000000000000000000000081526004016101e29190610f2f565b600060208284031215610e0757600080fd5b5035919050565b803573ffffffffffffffffffffffffffffffffffffffff81168114610e3257600080fd5b919050565b60008060008060008060c08789031215610e5057600080fd5b8635955060208701359450610e6760408801610e0e565b935060608701359250610e7c60808801610e0e565b9150610e8a60a08801610e0e565b90509295509295509295565b7f4e487b7100000000000000000000000000000000000000000000000000000000600052602160045260246000fd5b600060208284031215610ed757600080fd5b81518015158114610c1b57600080fd5b60005b83811015610f02578181015183820152602001610eea565b83811115610af25750506000910152565b60008251610f25818460208701610ee7565b9190910192915050565b6020815260008251806020840152610f4e816040850160208701610ee7565b601f017fffffffffffffffffffffffffffffffffffffffffffffffffffffffffffffffe016919091016040019291505056fea164736f6c6343000809000a",
  "linkReferences": {},
  "deployedLinkReferences": {}
}