{
  "test/test-contracts/MockL2CrossDomainMessenger.sol": {
    "MockL2CrossDomainMessenger": {
      "abi": [
        {
          "anonymous": false,
          "inputs": [
            {
              "indexed": true,
              "internalType": "address",
              "name": "target",
              "type": "address"
            },
            {
              "indexed": false,
              "internalType": "address",
              "name": "sender",
              "type": "address"
            },
            {
              "indexed": false,
              "internalType": "bytes",
              "name": "message",
              "type": "bytes"
            },
            {
              "indexed": false,
              "internalType": "uint256",
              "name": "messageNonce",
              "type": "uint256"
            },
            {
              "indexed": false,
              "internalType": "uint256",
              "name": "gasLimit",
              "type": "uint256"
            }
          ],
          "name": "SentMessage",
          "type": "event"
        },
        {
          "inputs": [],
          "name": "doNothing",
          "outputs": [],
          "stateMutability": "nonpayable",
          "type": "function"
        },
        {
          "inputs": [
            {
              "components": [
                {
                  "internalType": "address",
                  "name": "target",
                  "type": "address"
                },
                {
                  "internalType": "address",
                  "name": "sender",
                  "type": "address"
                },
                {
                  "internalType": "bytes",
                  "name": "message",
                  "type": "bytes"
                },
                {
                  "internalType": "uint256",
                  "name": "messageNonce",
                  "type": "uint256"
                }
              ],
              "internalType": "struct MockL2CrossDomainMessenger.MessageData[]",
              "name": "_messages",
              "type": "tuple[]"
            }
          ],
          "name": "emitMultipleSentMessageEvents",
          "outputs": [],
          "stateMutability": "nonpayable",
          "type": "function"
        },
        {
          "inputs": [
            {
              "components": [
                {
                  "internalType": "address",
                  "name": "target",
                  "type": "address"
                },
                {
                  "internalType": "address",
                  "name": "sender",
                  "type": "address"
                },
                {
                  "internalType": "bytes",
                  "name": "message",
                  "type": "bytes"
                },
                {
                  "internalType": "uint256",
                  "name": "messageNonce",
                  "type": "uint256"
                }
              ],
              "internalType": "struct MockL2CrossDomainMessenger.MessageData",
              "name": "_message",
              "type": "tuple"
            }
          ],
          "name": "emitSentMessageEvent",
          "outputs": [],
          "stateMutability": "nonpayable",
          "type": "function"
        }
      ],
      "evm": {
        "bytecode": {
          "linkReferences": {},
          "object": "608060405234801561001057600080fd5b50610424806100206000396000f3fe608060405234801561001057600080fd5b50600436106100415760003560e01c806326dda3ab146100465780632f576f2014610059578063f4d4ebc61461005b575b600080fd5b610059610054366004610264565b61006e565b005b610059610069366004610327565b6100b2565b60005b81518110156100ae5761009c82828151811061008f5761008f610364565b60200260200101516100b2565b806100a68161037a565b915050610071565b5050565b80600001516001600160a01b03167fcb0f7ffd78f9aee47a248fae8db181db6eee833039123e026dcbff529522e52a826020015183604001518460600151600060405161010294939291906103a3565b60405180910390a250565b634e487b7160e01b600052604160045260246000fd5b6040516080810167ffffffffffffffff811182821017156101465761014661010d565b60405290565b604051601f8201601f1916810167ffffffffffffffff811182821017156101755761017561010d565b604052919050565b80356001600160a01b038116811461019457600080fd5b919050565b6000608082840312156101ab57600080fd5b6101b3610123565b90506101be8261017d565b815260206101cd81840161017d565b81830152604083013567ffffffffffffffff808211156101ec57600080fd5b818501915085601f83011261020057600080fd5b8135818111156102125761021261010d565b610224601f8201601f1916850161014c565b9150808252868482850101111561023a57600080fd5b80848401858401376000848284010152508060408501525050506060820135606082015292915050565b6000602080838503121561027757600080fd5b823567ffffffffffffffff8082111561028f57600080fd5b818501915085601f8301126102a357600080fd5b8135818111156102b5576102b561010d565b8060051b6102c485820161014c565b91825283810185019185810190898411156102de57600080fd5b86860192505b8383101561031a578235858111156102fc5760008081fd5b61030a8b89838a0101610199565b83525091860191908601906102e4565b9998505050505050505050565b60006020828403121561033957600080fd5b813567ffffffffffffffff81111561035057600080fd5b61035c84828501610199565b949350505050565b634e487b7160e01b600052603260045260246000fd5b600060001982141561039c57634e487b7160e01b600052601160045260246000fd5b5060010190565b60018060a01b038516815260006020608081840152855180608085015260005b818110156103df5787810183015185820160a0015282016103c3565b818111156103f157600060a083870101525b5060408401959095525050606081019190915260a0601f909201601f191601019291505056fea164736f6c6343000808000a",
          "opcodes": "PUSH1 0x80 PUSH1 0x40 MSTORE CALLVALUE DUP1 ISZERO PUSH2 0x10 JUMPI PUSH1 0x0 DUP1 REVERT JUMPDEST POP PUSH2 0x424 DUP1 PUSH2 0x20 PUSH1 0x0 CODECOPY PUSH1 0x0 RETURN INVALID PUSH1 0x80 PUSH1 0x40 MSTORE CALLVALUE DUP1 ISZERO PUSH2 0x10 JUMPI PUSH1 0x0 DUP1 REVERT JUMPDEST POP PUSH1 0x4 CALLDATASIZE LT PUSH2 0x41 JUMPI PUSH1 0x0 CALLDATALOAD PUSH1 0xE0 SHR DUP1 PUSH4 0x26DDA3AB EQ PUSH2 0x46 JUMPI DUP1 PUSH4 0x2F576F20 EQ PUSH2 0x59 JUMPI DUP1 PUSH4 0xF4D4EBC6 EQ PUSH2 0x5B JUMPI JUMPDEST PUSH1 0x0 DUP1 REVERT JUMPDEST PUSH2 0x59 PUSH2 0x54 CALLDATASIZE PUSH1 0x4 PUSH2 0x264 JUMP JUMPDEST PUSH2 0x6E JUMP JUMPDEST STOP JUMPDEST PUSH2 0x59 PUSH2 0x69 CALLDATASIZE PUSH1 0x4 PUSH2 0x327 JUMP JUMPDEST PUSH2 0xB2 JUMP JUMPDEST PUSH1 0x0 JUMPDEST DUP2 MLOAD DUP2 LT ISZERO PUSH2 0xAE JUMPI PUSH2 0x9C DUP3 DUP3 DUP2 MLOAD DUP2 LT PUSH2 0x8F JUMPI PUSH2 0x8F PUSH2 0x364 JUMP JUMPDEST PUSH1 0x20 MUL PUSH1 0x20 ADD ADD MLOAD PUSH2 0xB2 JUMP JUMPDEST DUP1 PUSH2 0xA6 DUP2 PUSH2 0x37A JUMP JUMPDEST SWAP2 POP POP PUSH2 0x71 JUMP JUMPDEST POP POP JUMP JUMPDEST DUP1 PUSH1 0x0 ADD MLOAD PUSH1 0x1 PUSH1 0x1 PUSH1 0xA0 SHL SUB AND PUSH32 0xCB0F7FFD78F9AEE47A248FAE8DB181DB6EEE833039123E026DCBFF529522E52A DUP3 PUSH1 0x20 ADD MLOAD DUP4 PUSH1 0x40 ADD MLOAD DUP5 PUSH1 0x60 ADD MLOAD PUSH1 0x0 PUSH1 0x40 MLOAD PUSH2 0x102 SWAP5 SWAP4 SWAP3 SWAP2 SWAP1 PUSH2 0x3A3 JUMP JUMPDEST PUSH1 0x40 MLOAD DUP1 SWAP2 SUB SWAP1 LOG2 POP JUMP JUMPDEST PUSH4 0x4E487B71 PUSH1 0xE0 SHL PUSH1 0x0 MSTORE PUSH1 0x41 PUSH1 0x4 MSTORE PUSH1 0x24 PUSH1 0x0 REVERT JUMPDEST PUSH1 0x40 MLOAD PUSH1 0x80 DUP2 ADD PUSH8 0xFFFFFFFFFFFFFFFF DUP2 GT DUP3 DUP3 LT OR ISZERO PUSH2 0x146 JUMPI PUSH2 0x146 PUSH2 0x10D JUMP JUMPDEST PUSH1 0x40 MSTORE SWAP1 JUMP JUMPDEST PUSH1 0x40 MLOAD PUSH1 0x1F DUP3 ADD PUSH1 0x1F NOT AND DUP2 ADD PUSH8 0xFFFFFFFFFFFFFFFF DUP2 GT DUP3 DUP3 LT OR ISZERO PUSH2 0x175 JUMPI PUSH2 0x175 PUSH2 0x10D JUMP JUMPDEST PUSH1 0x40 MSTORE SWAP2 SWAP1 POP JUMP JUMPDEST DUP1 CALLDATALOAD PUSH1 0x1 PUSH1 0x1 PUSH1 0xA0 SHL SUB DUP2 AND DUP2 EQ PUSH2 0x194 JUMPI PUSH1 0x0 DUP1 REVERT JUMPDEST SWAP2 SWAP1 POP JUMP JUMPDEST PUSH1 0x0 PUSH1 0x80 DUP3 DUP5 SUB SLT ISZERO PUSH2 0x1AB JUMPI PUSH1 0x0 DUP1 REVERT JUMPDEST PUSH2 0x1B3 PUSH2 0x123 JUMP JUMPDEST SWAP1 POP PUSH2 0x1BE DUP3 PUSH2 0x17D JUMP JUMPDEST DUP2 MSTORE PUSH1 0x20 PUSH2 0x1CD DUP2 DUP5 ADD PUSH2 0x17D JUMP JUMPDEST DUP2 DUP4 ADD MSTORE PUSH1 0x40 DUP4 ADD CALLDATALOAD PUSH8 0xFFFFFFFFFFFFFFFF DUP1 DUP3 GT ISZERO PUSH2 0x1EC JUMPI PUSH1 0x0 DUP1 REVERT JUMPDEST DUP2 DUP6 ADD SWAP2 POP DUP6 PUSH1 0x1F DUP4 ADD SLT PUSH2 0x200 JUMPI PUSH1 0x0 DUP1 REVERT JUMPDEST DUP2 CALLDATALOAD DUP2 DUP2 GT ISZERO PUSH2 0x212 JUMPI PUSH2 0x212 PUSH2 0x10D JUMP JUMPDEST PUSH2 0x224 PUSH1 0x1F DUP3 ADD PUSH1 0x1F NOT AND DUP6 ADD PUSH2 0x14C JUMP JUMPDEST SWAP2 POP DUP1 DUP3 MSTORE DUP7 DUP5 DUP3 DUP6 ADD ADD GT ISZERO PUSH2 0x23A JUMPI PUSH1 0x0 DUP1 REVERT JUMPDEST DUP1 DUP5 DUP5 ADD DUP6 DUP5 ADD CALLDATACOPY PUSH1 0x0 DUP5 DUP3 DUP5 ADD ADD MSTORE POP DUP1 PUSH1 0x40 DUP6 ADD MSTORE POP POP POP PUSH1 0x60 DUP3 ADD CALLDATALOAD PUSH1 0x60 DUP3 ADD MSTORE SWAP3 SWAP2 POP POP JUMP JUMPDEST PUSH1 0x0 PUSH1 0x20 DUP1 DUP4 DUP6 SUB SLT ISZERO PUSH2 0x277 JUMPI PUSH1 0x0 DUP1 REVERT JUMPDEST DUP3 CALLDATALOAD PUSH8 0xFFFFFFFFFFFFFFFF DUP1 DUP3 GT ISZERO PUSH2 0x28F JUMPI PUSH1 0x0 DUP1 REVERT JUMPDEST DUP2 DUP6 ADD SWAP2 POP DUP6 PUSH1 0x1F DUP4 ADD SLT PUSH2 0x2A3 JUMPI PUSH1 0x0 DUP1 REVERT JUMPDEST DUP2 CALLDATALOAD DUP2 DUP2 GT ISZERO PUSH2 0x2B5 JUMPI PUSH2 0x2B5 PUSH2 0x10D JUMP JUMPDEST DUP1 PUSH1 0x5 SHL PUSH2 0x2C4 DUP6 DUP3 ADD PUSH2 0x14C JUMP JUMPDEST SWAP2 DUP3 MSTORE DUP4 DUP2 ADD DUP6 ADD SWAP2 DUP6 DUP2 ADD SWAP1 DUP10 DUP5 GT ISZERO PUSH2 0x2DE JUMPI PUSH1 0x0 DUP1 REVERT JUMPDEST DUP7 DUP7 ADD SWAP3 POP JUMPDEST DUP4 DUP4 LT ISZERO PUSH2 0x31A JUMPI DUP3 CALLDATALOAD DUP6 DUP2 GT ISZERO PUSH2 0x2FC JUMPI PUSH1 0x0 DUP1 DUP2 REVERT JUMPDEST PUSH2 0x30A DUP12 DUP10 DUP4 DUP11 ADD ADD PUSH2 0x199 JUMP JUMPDEST DUP4 MSTORE POP SWAP2 DUP7 ADD SWAP2 SWAP1 DUP7 ADD SWAP1 PUSH2 0x2E4 JUMP JUMPDEST SWAP10 SWAP9 POP POP POP POP POP POP POP POP POP JUMP JUMPDEST PUSH1 0x0 PUSH1 0x20 DUP3 DUP5 SUB SLT ISZERO PUSH2 0x339 JUMPI PUSH1 0x0 DUP1 REVERT JUMPDEST DUP2 CALLDATALOAD PUSH8 0xFFFFFFFFFFFFFFFF DUP2 GT ISZERO PUSH2 0x350 JUMPI PUSH1 0x0 DUP1 REVERT JUMPDEST PUSH2 0x35C DUP5 DUP3 DUP6 ADD PUSH2 0x199 JUMP JUMPDEST SWAP5 SWAP4 POP POP POP POP JUMP JUMPDEST PUSH4 0x4E487B71 PUSH1 0xE0 SHL PUSH1 0x0 MSTORE PUSH1 0x32 PUSH1 0x4 MSTORE PUSH1 0x24 PUSH1 0x0 REVERT JUMPDEST PUSH1 0x0 PUSH1 0x0 NOT DUP3 EQ ISZERO PUSH2 0x39C JUMPI PUSH4 0x4E487B71 PUSH1 0xE0 SHL PUSH1 0x0 MSTORE PUSH1 0x11 PUSH1 0x4 MSTORE PUSH1 0x24 PUSH1 0x0 REVERT JUMPDEST POP PUSH1 0x1 ADD SWAP1 JUMP JUMPDEST PUSH1 0x1 DUP1 PUSH1 0xA0 SHL SUB DUP6 AND DUP2 MSTORE PUSH1 0x0 PUSH1 0x20 PUSH1 0x80 DUP2 DUP5 ADD MSTORE DUP6 MLOAD DUP1 PUSH1 0x80 DUP6 ADD MSTORE PUSH1 0x0 JUMPDEST DUP2 DUP2 LT ISZERO PUSH2 0x3DF JUMPI DUP8 DUP2 ADD DUP4 ADD MLOAD DUP6 DUP3 ADD PUSH1 0xA0 ADD MSTORE DUP3 ADD PUSH2 0x3C3 JUMP JUMPDEST DUP2 DUP2 GT ISZERO PUSH2 0x3F1 JUMPI PUSH1 0x0 PUSH1 0xA0 DUP4 DUP8 ADD ADD MSTORE JUMPDEST POP PUSH1 0x40 DUP5 ADD SWAP6 SWAP1 SWAP6 MSTORE POP POP PUSH1 0x60 DUP2 ADD SWAP2 SWAP1 SWAP2 MSTORE PUSH1 0xA0 PUSH1 0x1F SWAP1 SWAP3 ADD PUSH1 0x1F NOT AND ADD ADD SWAP3 SWAP2 POP POP JUMP INVALID LOG1 PUSH5 0x736F6C6343 STOP ADDMOD ADDMOD STOP EXP "
        },
        "methodIdentifiers": {
          "doNothing()": "2f576f20",
          "emitMultipleSentMessageEvents((address,address,bytes,uint256)[])": "26dda3ab",
          "emitSentMessageEvent((address,address,bytes,uint256))": "f4d4ebc6"
        }
      },
      "storageLayout": {
        "storage": [],
        "types": null
      }
    }
  }
}