{
  "_format": "hh-sol-artifact-1",
  "contractName": "L2Message",
  "sourceName": "contracts/test-helpers/Message/L2Message.sol",
  "abi": [
    {
      "inputs": [
        {
          "internalType": "address",
          "name": "_l2CrossDomainMessenger",
          "type": "address"
        }
      ],
      "stateMutability": "nonpayable",
      "type": "constructor"
    },
    {
      "anonymous": false,
      "inputs": [
        {
          "indexed": false,
          "internalType": "string",
          "name": "_message",
          "type": "string"
        }
      ],
      "name": "ReceiveL1Message",
      "type": "event"
    },
    {
      "inputs": [
        {
          "internalType": "address",
          "name": "_L1MessageAddress",
          "type": "address"
        }
      ],
      "name": "init",
      "outputs": [],
      "stateMutability": "nonpayable",
      "type": "function"
    },
    {
      "inputs": [],
      "name": "messenger",
      "outputs": [
        {
          "internalType": "address",
          "name": "",
          "type": "address"
        }
      ],
      "stateMutability": "view",
      "type": "function"
    },
    {
      "inputs": [
        {
          "internalType": "string",
          "name": "_message",
          "type": "string"
        }
      ],
      "name": "receiveL1Message",
      "outputs": [],
      "stateMutability": "nonpayable",
      "type": "function"
    },
    {
      "inputs": [],
      "name": "sendMessageL2ToL1",
      "outputs": [],
      "stateMutability": "nonpayable",
      "type": "function"
    }
  ],
  "bytecode": "0x608060405234801561001057600080fd5b506040516108ab3803806108ab83398101604081905261002f91610054565b600080546001600160a01b0319166001600160a01b0392909216919091179055610084565b60006020828403121561006657600080fd5b81516001600160a01b038116811461007d57600080fd5b9392505050565b610818806100936000396000f3fe608060405234801561001057600080fd5b506004361061004c5760003560e01c806319ab453c146100515780633cb747bf146100a857806356d2d7af146100f1578063d630acf414610104575b600080fd5b6100a661005f3660046105b5565b600180547fffffffffffffffffffffffff00000000000000000000000000000000000000001673ffffffffffffffffffffffffffffffffffffffff92909216919091179055565b005b6000546100c89073ffffffffffffffffffffffffffffffffffffffff1681565b60405173ffffffffffffffffffffffffffffffffffffffff909116815260200160405180910390f35b6100a66100ff366004610608565b61010c565b6100a66103a8565b60015473ffffffffffffffffffffffffffffffffffffffff1661014460005473ffffffffffffffffffffffffffffffffffffffff1690565b73ffffffffffffffffffffffffffffffffffffffff163373ffffffffffffffffffffffffffffffffffffffff1614610203576040517f08c379a000000000000000000000000000000000000000000000000000000000815260206004820152602e60248201527f4f564d5f58434841494e3a206d657373656e67657220636f6e7472616374207560448201527f6e61757468656e7469636174656400000000000000000000000000000000000060648201526084015b60405180910390fd5b8073ffffffffffffffffffffffffffffffffffffffff1661023960005473ffffffffffffffffffffffffffffffffffffffff1690565b73ffffffffffffffffffffffffffffffffffffffff16636e296e456040518163ffffffff1660e01b815260040160206040518083038186803b15801561027e57600080fd5b505afa158015610292573d6000803e3d6000fd5b505050506040513d601f19601f820116820180604052508101906102b691906106d7565b73ffffffffffffffffffffffffffffffffffffffff1614610359576040517f08c379a000000000000000000000000000000000000000000000000000000000815260206004820152603060248201527f4f564d5f58434841494e3a2077726f6e672073656e646572206f662063726f7360448201527f732d646f6d61696e206d6573736167650000000000000000000000000000000060648201526084016101fa565b815161036c9060029060208501906104fa565b507f31ce201957b6b0c971f2700b4785ae8d2577932c8ebb2dd7bac0018332f3f41a8260405161039c919061075f565b60405180910390a15050565b60408051602060248201819052600d60448301527f6d65737361676546726f6d4c320000000000000000000000000000000000000060648084019190915283518084039091018152608490920190925290810180517bffffffffffffffffffffffffffffffffffffffffffffffffffffffff167f86d4fe00000000000000000000000000000000000000000000000000000000001790526001546104669073ffffffffffffffffffffffffffffffffffffffff16620186a083610469565b50565b6000546040517f3dbb202b00000000000000000000000000000000000000000000000000000000815273ffffffffffffffffffffffffffffffffffffffff90911690633dbb202b906104c390869085908790600401610772565b600060405180830381600087803b1580156104dd57600080fd5b505af11580156104f1573d6000803e3d6000fd5b50505050505050565b828054610506906107b7565b90600052602060002090601f016020900481019282610528576000855561056e565b82601f1061054157805160ff191683800117855561056e565b8280016001018555821561056e579182015b8281111561056e578251825591602001919060010190610553565b5061057a92915061057e565b5090565b5b8082111561057a576000815560010161057f565b73ffffffffffffffffffffffffffffffffffffffff8116811461046657600080fd5b6000602082840312156105c757600080fd5b81356105d281610593565b9392505050565b7f4e487b7100000000000000000000000000000000000000000000000000000000600052604160045260246000fd5b60006020828403121561061a57600080fd5b813567ffffffffffffffff8082111561063257600080fd5b818401915084601f83011261064657600080fd5b813581811115610658576106586105d9565b604051601f82017fffffffffffffffffffffffffffffffffffffffffffffffffffffffffffffffe0908116603f0116810190838211818310171561069e5761069e6105d9565b816040528281528760208487010111156106b757600080fd5b826020860160208301376000928101602001929092525095945050505050565b6000602082840312156106e957600080fd5b81516105d281610593565b6000815180845260005b8181101561071a576020818501810151868301820152016106fe565b8181111561072c576000602083870101525b50601f017fffffffffffffffffffffffffffffffffffffffffffffffffffffffffffffffe0169290920160200192915050565b6020815260006105d260208301846106f4565b73ffffffffffffffffffffffffffffffffffffffff841681526060602082015260006107a160608301856106f4565b905063ffffffff83166040830152949350505050565b600181811c908216806107cb57607f821691505b60208210811415610805577f4e487b7100000000000000000000000000000000000000000000000000000000600052602260045260246000fd5b5091905056fea164736f6c6343000809000a",
  "linkReferences": {},
  "deployedLinkReferences": {}
}