{
  "_format": "hh-sol-artifact-1",
  "contractName": "OVM_L2ToL1MessagePasser",
  "sourceName": "contracts/optimistic-ethereum/OVM/predeploys/OVM_L2ToL1MessagePasser.sol",
  "abi": [
    {
      "anonymous": false,
      "inputs": [
        {
          "indexed": false,
          "internalType": "uint256",
          "name": "_nonce",
          "type": "uint256"
        },
        {
          "indexed": false,
          "internalType": "address",
          "name": "_sender",
          "type": "address"
        },
        {
          "indexed": false,
          "internalType": "bytes",
          "name": "_data",
          "type": "bytes"
        }
      ],
      "name": "L2ToL1Message",
      "type": "event"
    },
    {
      "inputs": [
        {
          "internalType": "bytes",
          "name": "_message",
          "type": "bytes"
        }
      ],
      "name": "passMessageToL1",
      "outputs": [],
      "stateMutability": "nonpayable",
      "type": "function"
    },
    {
      "inputs": [
        {
          "internalType": "bytes32",
          "name": "",
          "type": "bytes32"
        }
      ],
      "name": "sentMessages",
      "outputs": [
        {
          "internalType": "bool",
          "name": "",
          "type": "bool"
        }
      ],
      "stateMutability": "view",
      "type": "function"
    }
  ],
  "bytecode": "0x60806040525a61000d610027565b80156100215760008061001e610081565b50505b506100ec565b63a8c4c5ec598160e01b8152602081600483336000905af158600e01573d6000803e3d6000fd5b3d6001141558600a015760016000f35b8051935060005b604081101561007c57600082820152602001610065565b505050565b632a2a7adb598160e01b8152600481016020815285602082015260005b868110156100b957808601518282016040015260200161009e565b506020828760640184336000905af158600e01573d6000803e3d6000fd5b3d6001141558600a015760016000f35b505050565b6103e9806100fb6000396000f3fe60806040525a61000d610244565b80156100215760008061001e61029e565b50505b50600436106100475760003560e01c806382e3702d14610055578063cafa81dc1461008f575b60008061005261029e565b50505b61007b600480360360208110156100745760008061007161029e565b50505b503561015a565b604051901515815260200160405180910390f35b610158600480360360208110156100ae576000806100ab61029e565b50505b8101906020810181356401000000008111156100d2576000806100cf61029e565b50505b8201836020820111156100ed576000806100ea61029e565b50505b803590602001918460018302840111640100000000831117156101185760008061011561029e565b50505b91908080601f0160208091040260200160405190810160405281815292919060208401838380828437600092019190915250929550610181945050505050565b005b600060205280600052604060002060009150610174610309565b906101000a900460ff1681565b6001600080835a610190610355565b6040516020018083805190602001908083835b602083106101c25780518252601f1990920191602091820191016101a3565b6001836020036101000a038019825116818451168082178552505050505050905001826001600160a01b031660601b815260140192505050604051602081830303815290604052805190602001208152602001908152602001600020600181610229610309565b8160ff0219169083151502179061023e61039b565b50505050565b63a8c4c5ec598160e01b8152602081600483336000905af158600e01573d6000803e3d6000fd5b3d6001141558600a015760016000f35b8051935060005b604081101561029957600082820152602001610282565b505050565b632a2a7adb598160e01b8152600481016020815285602082015260005b868110156102d65780860151828201604001526020016102bb565b506020828760640184336000905af158600e01573d6000803e3d6000fd5b3d6001141558600a015760016000f35b505050565b6303daa959598160e01b8152836004820152602081602483336000905af158600e01573d6000803e3d6000fd5b3d6001141558600a015760016000f35b80516000825293506020610282565b6373509064598160e01b8152602081600483336000905af158600e01573d6000803e3d6000fd5b3d6001141558600a015760016000f35b80516000825293506020610282565b6322bd64c0598160e01b8152836004820152846024820152600081604483336000905af158600e01573d6000803e3d6000fd5b3d6001141558600a015760016000f35b60008152602061028256",
  "linkReferences": {},
  "deployedLinkReferences": {}
}