{
  "_format": "hh-sol-artifact-1",
  "contractName": "OVM_BondManager",
  "sourceName": "contracts/optimistic-ethereum/OVM/verification/OVM_BondManager.sol",
  "abi": [
    {
      "inputs": [
        {
          "internalType": "contract ERC20",
          "name": "_token",
          "type": "address"
        },
        {
          "internalType": "address",
          "name": "_libAddressManager",
          "type": "address"
        }
      ],
      "stateMutability": "nonpayable",
      "type": "constructor"
    },
    {
      "inputs": [
        {
          "internalType": "address",
          "name": "",
          "type": "address"
        }
      ],
      "name": "bonds",
      "outputs": [
        {
          "internalType": "enum iOVM_BondManager.State",
          "name": "state",
          "type": "uint8"
        },
        {
          "internalType": "uint32",
          "name": "withdrawalTimestamp",
          "type": "uint32"
        },
        {
          "internalType": "uint256",
          "name": "firstDisputeAt",
          "type": "uint256"
        },
        {
          "internalType": "bytes32",
          "name": "earliestDisputedStateRoot",
          "type": "bytes32"
        },
        {
          "internalType": "uint256",
          "name": "earliestTimestamp",
          "type": "uint256"
        }
      ],
      "stateMutability": "view",
      "type": "function"
    },
    {
      "inputs": [
        {
          "internalType": "address",
          "name": "who",
          "type": "address"
        }
      ],
      "name": "claim",
      "outputs": [],
      "stateMutability": "nonpayable",
      "type": "function"
    },
    {
      "inputs": [],
      "name": "deposit",
      "outputs": [],
      "stateMutability": "nonpayable",
      "type": "function"
    },
    {
      "inputs": [],
      "name": "disputePeriodSeconds",
      "outputs": [
        {
          "internalType": "uint256",
          "name": "",
          "type": "uint256"
        }
      ],
      "stateMutability": "view",
      "type": "function"
    },
    {
      "inputs": [
        {
          "internalType": "bytes32",
          "name": "_preStateRoot",
          "type": "bytes32"
        },
        {
          "internalType": "address",
          "name": "publisher",
          "type": "address"
        },
        {
          "internalType": "uint256",
          "name": "timestamp",
          "type": "uint256"
        }
      ],
      "name": "finalize",
      "outputs": [],
      "stateMutability": "nonpayable",
      "type": "function"
    },
    {
      "inputs": [],
      "name": "finalizeWithdrawal",
      "outputs": [],
      "stateMutability": "nonpayable",
      "type": "function"
    },
    {
      "inputs": [
        {
          "internalType": "bytes32",
          "name": "preStateRoot",
          "type": "bytes32"
        },
        {
          "internalType": "address",
          "name": "who",
          "type": "address"
        }
      ],
      "name": "getGasSpent",
      "outputs": [
        {
          "internalType": "uint256",
          "name": "",
          "type": "uint256"
        }
      ],
      "stateMutability": "view",
      "type": "function"
    },
    {
      "inputs": [
        {
          "internalType": "address",
          "name": "who",
          "type": "address"
        }
      ],
      "name": "isCollateralized",
      "outputs": [
        {
          "internalType": "bool",
          "name": "",
          "type": "bool"
        }
      ],
      "stateMutability": "view",
      "type": "function"
    },
    {
      "inputs": [],
      "name": "libAddressManager",
      "outputs": [
        {
          "internalType": "contract Lib_AddressManager",
          "name": "",
          "type": "address"
        }
      ],
      "stateMutability": "view",
      "type": "function"
    },
    {
      "inputs": [],
      "name": "multiFraudProofPeriod",
      "outputs": [
        {
          "internalType": "uint256",
          "name": "",
          "type": "uint256"
        }
      ],
      "stateMutability": "view",
      "type": "function"
    },
    {
      "inputs": [
        {
          "internalType": "bytes32",
          "name": "_preStateRoot",
          "type": "bytes32"
        },
        {
          "internalType": "bytes32",
          "name": "_txHash",
          "type": "bytes32"
        },
        {
          "internalType": "address",
          "name": "who",
          "type": "address"
        },
        {
          "internalType": "uint256",
          "name": "gasSpent",
          "type": "uint256"
        }
      ],
      "name": "recordGasSpent",
      "outputs": [],
      "stateMutability": "nonpayable",
      "type": "function"
    },
    {
      "inputs": [],
      "name": "requiredCollateral",
      "outputs": [
        {
          "internalType": "uint256",
          "name": "",
          "type": "uint256"
        }
      ],
      "stateMutability": "view",
      "type": "function"
    },
    {
      "inputs": [
        {
          "internalType": "string",
          "name": "_name",
          "type": "string"
        }
      ],
      "name": "resolve",
      "outputs": [
        {
          "internalType": "address",
          "name": "",
          "type": "address"
        }
      ],
      "stateMutability": "view",
      "type": "function"
    },
    {
      "inputs": [],
      "name": "startWithdrawal",
      "outputs": [],
      "stateMutability": "nonpayable",
      "type": "function"
    },
    {
      "inputs": [],
      "name": "token",
      "outputs": [
        {
          "internalType": "contract ERC20",
          "name": "",
          "type": "address"
        }
      ],
      "stateMutability": "view",
      "type": "function"
    },
    {
      "inputs": [
        {
          "internalType": "bytes32",
          "name": "",
          "type": "bytes32"
        }
      ],
      "name": "witnessProviders",
      "outputs": [
        {
          "internalType": "bool",
          "name": "canClaim",
          "type": "bool"
        },
        {
          "internalType": "uint256",
          "name": "total",
          "type": "uint256"
        }
      ],
      "stateMutability": "view",
      "type": "function"
    }
  ],
  "bytecode": "0x60a06040525a6200000f620000bb565b801562000026576000806200002362000117565b50505b506040516200212b3803806200212b8339818101604052604081101562000057576000806200005462000117565b50505b8101908080519291906020018051925082915081905060006001816200007c62000184565b816001600160a01b0302191690836001600160a01b0316021790620000a0620001d1565b505050505060601b6001600160601b03191660805262000220565b63a8c4c5ec598160e01b8152602081600483336000905af158600e01573d6000803e3d6000fd5b3d6001141558600a015760016000f35b8051935060005b60408110156200011257600082820152602001620000f9565b505050565b632a2a7adb598160e01b8152600481016020815285602082015260005b868110156200015157808601518282016040015260200162000134565b506020828760640184336000905af158600e01573d6000803e3d6000fd5b3d6001141558600a015760016000f35b505050565b6303daa959598160e01b8152836004820152602081602483336000905af158600e01573d6000803e3d6000fd5b3d6001141558600a015760016000f35b80516000825293506020620000f9565b6322bd64c0598160e01b8152836004820152846024820152600081604483336000905af158600e01573d6000803e3d6000fd5b3d6001141558600a015760016000f35b600081526020620000f9565b60805160601c611ede6200024d600039806108f3528061140052806115b4528061185f5250611ede6000f3fe60806040525a61000d6118ed565b80156100215760008061001e611942565b50505b50600436106101115760003560e01c8063abfbbe13116100a8578063d0e30db011610077578063d0e30db01461036e578063dc6453dc14610376578063fc0c546a146103ab578063fe10d774146103b357610111565b8063abfbbe131461031b578063b53105a314610356578063bc2f8dd81461035e578063c5b6aa2f1461036657610111565b80631e83409a116100e45780631e83409a146101bf578063299ca478146101ee578063461a4478146102125780635b7c615f146102db57610111565b806302ad4d2a1461011f5780630756183b146101625780631e0983bd146101625780631e16e92f1461017c575b60008061011c611942565b50505b61014e6004803603602081101561013e5760008061013b611942565b50505b50356001600160a01b0316610425565b604051901515815260200160405180910390f35b61016a610468565b60405190815260200160405180910390f35b6101bd6004803603608081101561019b57600080610198611942565b50505b508035906020810135906001600160a01b03604082013516906060013561046f565b005b6101bd600480360360208110156101de576000806101db611942565b50505b50356001600160a01b0316610697565b6101f6610aa1565b6040516001600160a01b03909116815260200160405180910390f35b6101f6600480360360208110156102315760008061022e611942565b50505b81019060208101813564010000000081111561025557600080610252611942565b50505b8201836020820111156102705760008061026d611942565b50505b8035906020019184600183028401116401000000008311171561029b57600080610298611942565b50505b91908080601f0160208091040260200160405190810160405281815292919060208401838380828437600092019190915250929550610abf945050505050565b610301600480360360208110156102fa576000806102f7611942565b50505b5035610be7565b604051911515825260208201526040908101905180910390f35b6101bd6004803603606081101561033a57600080610337611942565b50505b508035906001600160a01b036020820135169060400135610c1e565b61016a610f93565b6101bd610f9f565b6101bd6111c9565b6101bd6115b2565b61016a6004803603604081101561039557600080610392611942565b50505b50803590602001356001600160a01b0316611822565b6101f661185d565b6103e2600480360360208110156103d2576000806103cf611942565b50505b50356001600160a01b0316611881565b604051808660028111156103f257fe5b81526020018563ffffffff1681526020018481526020018381526020018281526020019550505050505060405180910390f35b600060016001600160a01b038316600090815260016020526040902060009061044c6119ad565b906101000a900460ff16600281111561046157fe5b1492915050565b62093a8081565b60006104a160405160408082019052601181527027ab26afa33930bab22b32b934b334b2b960791b6020820152610abf565b6001600160a01b031663b48ec82086866040516001600160e01b031960e085901b1681526004810192909252602482015260440160206040518083038186806104e86119f9565b1580156104fd576000806104fa611942565b50505b505a610507611a45565b5050505050158015610526573d6000803e3d6000610523611942565b50505b505050506040513d602081101561054557600080610542611942565b50505b81019080805193505050505a610559611b30565b6001600160a01b0316816001600160a01b031614604051608081016040526051808252611dc86020830139906106165760405162461bcd60e51b81526004018080602001828103825283818151815260200191508051906020019080838360005b838110156105d25780820151838201526020016105ba565b50505050905090810190601f1680156105ff5780820380516001836020036101000a031916815260200191505b509250505060405180910390610613611942565b50505b5060008581526002602052829060409020600101600082826106366119ad565b019250508190610644611b76565b505050600085815260026020528290604090206001600160a01b0385166000908152600291909101602052604090206000828261067f6119ad565b01925050819061068d611b76565b5050505050505050565b6001600160a01b0381166000908152600160205260408120905062093a80816001016106c16119ad565b015a6106cb611bc4565b101560405160608101604052602e808252611e4b6020830139906107765760405162461bcd60e51b81526004018080602001828103825283818151815260200191508051906020019080838360005b8381101561073257808201518382015260200161071a565b50505050905090810190601f16801561075f5780820380516001836020036101000a031916815260200191505b509250505060405180910390610773611942565b50505b506000816002016107856119ad565b600081815260026020529091506040812090506000816107a36119ad565b906101000a900460ff1660405160608101604052603e808252611cd76020830139906108565760405162461bcd60e51b81526004018080602001828103825283818151815260200191508051906020019080838360005b838110156108125780820151838201526020016107fa565b50505050905090810190601f16801561083f5780820380516001836020036101000a031916815260200191505b509250505060405180910390610853611942565b50505b506000816001016108656119ad565b6002028260020160005a610877611b30565b6001600160a01b03166001600160a01b0316815260200190815260200160002061089f6119ad565b670de0b6b3a764000002816108b057fe5b04905060008260020160005a6108c4611b30565b6001600160a01b03166001600160a01b0316815260200190815260200160002081906108ee611b76565b5050507f00000000000000000000000000000000000000000000000000000000000000006001600160a01b031663a9059cbb5a610929611b30565b836040516001600160e01b031960e085901b1681526001600160a01b03909216600483015260248201526044016020604051808303816000878061096b6119f9565b1580156109805760008061097d611942565b50505b505a61098a611c0a565b5050505050501580156109aa573d6000803e3d60006109a7611942565b50505b505050506040513d60208110156109c9576000806109c6611942565b50505b81019080805192506040915050518060400160405280602081526020017f426f6e644d616e616765723a20436f756c64206e6f7420706f737420626f6e6481525090610a995760405162461bcd60e51b81526004018080602001828103825283818151815260200191508051906020019080838360005b83811015610a58578082015183820152602001610a40565b50505050905090810190601f168015610a855780820380516001836020036101000a031916815260200191505b50925050506040518091039061068d611942565b505050505050565b600080610aac6119ad565b906101000a90046001600160a01b031681565b60008080610acb6119ad565b906101000a90046001600160a01b03166001600160a01b031663bf40fac1836040518263ffffffff1660e01b81526004018080602001828103825283818151815260200191508051906020019080838360005b83811015610b36578082015183820152602001610b1e565b50505050905090810190601f168015610b635780820380516001836020036101000a031916815260200191505b50925050506020604051808303818680610b7b6119f9565b158015610b9057600080610b8d611942565b50505b505a610b9a611a45565b5050505050158015610bb9573d6000803e3d6000610bb6611942565b50505b505050506040513d6020811015610bd857600080610bd5611942565b50505b81019080805195945050505050565b60026020528060005260406000209050600081610c026119ad565b906101000a900460ff169080600101610c196119ad565b905082565b610c4e60405160408082019052601181527027ab26afa33930bab22b32b934b334b2b960791b6020820152610abf565b6001600160a01b03165a610c60611b30565b6001600160a01b03161460405160608101604052603b808252611ea3602083013990610d135760405162461bcd60e51b81526004018080602001828103825283818151815260200191508051906020019080838360005b83811015610ccf578082015183820152602001610cb7565b50505050905090810190601f168015610cfc5780820380516001836020036101000a031916815260200191505b509250505060405180910390610d10611942565b50505b506000838152600260205260409020600090610d2d6119ad565b60ff6101009290920a9004161560405160808101604052604b808252611d56602083013990610de35760405162461bcd60e51b81526004018080602001828103825283818151815260200191508051906020019080838360005b83811015610d9f578082015183820152602001610d87565b50505050905090810190601f168015610dcc5780820380516001836020036101000a031916815260200191505b509250505060405180910390610de0611942565b50505b506000838152600260205260019060409020600181610e006119ad565b8160ff02191690831515021790610e15611b76565b5050506001600160a01b0382166000908152600160205260408120905080600101610e3e6119ad565b610e84575a610e4b611bc4565b8060018301610e58611b76565b50505083816002018190610e6a611b76565b50505081816003018190610e7c611b76565b505050610ede565b62093a8081600101610e946119ad565b015a610e9e611bc4565b108015610eb5575080600301610eb26119ad565b82105b15610ede57838060028301610ec8611b76565b50505081816003018190610eda611b76565b5050505b600181610ee96119ad565b63ffffffff6101009290920a90041615801590610f27575062093a808201600182610f126119ad565b906101000a900463ffffffff1663ffffffff16115b8015610f5257506002600082610f3b6119ad565b906101000a900460ff166002811115610f5057fe5b145b15610f5d5750610f8e565b600081600181610f6b6119ad565b8160ff02191690836002811115610f7e57fe5b021790610f89611b76565b505050505b505050565b670de0b6b3a764000081565b6000600160005a610fae611b30565b6001600160a01b03166001600160a01b031681526020019081526020016000209050600181610fdb6119ad565b63ffffffff6101009290920a90041615604051606081016040526027808252611da16020830139906110945760405162461bcd60e51b81526004018080602001828103825283818151815260200191508051906020019080838360005b83811015611050578082015183820152602001611038565b50505050905090810190601f16801561107d5780820380516001836020036101000a031916815260200191505b509250505060405180910390611091611942565b50505b5060016000826110a26119ad565b906101000a900460ff1660028111156110b757fe5b1460405160608101604052602a808252611e796020830139906111615760405162461bcd60e51b81526004018080602001828103825283818151815260200191508051906020019080838360005b8381101561111d578082015183820152602001611105565b50505050905090810190601f16801561114a5780820380516001836020036101000a031916815260200191505b50925050506040518091039061115e611942565b50505b506002816001816111706119ad565b8160ff0219169083600281111561118357fe5b02179061118e611b76565b5050505a61119a611bc4565b81610100816111a76119ad565b8163ffffffff021916908363ffffffff160217906111c3611b76565b50505050565b6000600160005a6111d8611b30565b6001600160a01b03166001600160a01b03168152602001908152602001600020905062093a806001826112096119ad565b906101000a900463ffffffff1663ffffffff16015a611226611bc4565b1015604051606081016040526032808252611e196020830139906112d15760405162461bcd60e51b81526004018080602001828103825283818151815260200191508051906020019080838360005b8381101561128d578082015183820152602001611275565b50505050905090810190601f1680156112ba5780820380516001836020036101000a031916815260200191505b5092505050604051809103906112ce611942565b50505b5060026000826112df6119ad565b906101000a900460ff1660028111156112f457fe5b14604051608081016040526041808252611d1560208301399061139e5760405162461bcd60e51b81526004018080602001828103825283818151815260200191508051906020019080838360005b8381101561135a578082015183820152602001611342565b50505050905090810190601f1680156113875780820380516001836020036101000a031916815260200191505b50925050506040518091039061139b611942565b50505b506000816001816113ad6119ad565b8160ff021916908360028111156113c057fe5b0217906113cb611b76565b5060009150829050610100816113df6119ad565b8163ffffffff021916908363ffffffff160217906113fb611b76565b5050507f00000000000000000000000000000000000000000000000000000000000000006001600160a01b031663a9059cbb5a611436611b30565b670de0b6b3a76400006040516001600160e01b031960e085901b1681526001600160a01b0390921660048301526024820152604401602060405180830381600087806114806119f9565b15801561149557600080611492611942565b50505b505a61149f611c0a565b5050505050501580156114bf573d6000803e3d60006114bc611942565b50505b505050506040513d60208110156114de576000806114db611942565b50505b81019080805192506040915050518060400160405280602081526020017f426f6e644d616e616765723a20436f756c64206e6f7420706f737420626f6e64815250906115ae5760405162461bcd60e51b81526004018080602001828103825283818151815260200191508051906020019080838360005b8381101561156d578082015183820152602001611555565b50505050905090810190601f16801561159a5780820380516001836020036101000a031916815260200191505b5092505050604051809103906111c3611942565b5050565b7f00000000000000000000000000000000000000000000000000000000000000006001600160a01b03166323b872dd5a6115ea611b30565b5a63996d79a5598160e01b8152602081600483336000905af158600e01573d6000803e3d6000fd5b3d6001141558600a015760016000f35b8051925060005b604081101561164057600082820152602001611629565b505050670de0b6b3a76400006040516001600160e01b031960e086901b1681526001600160a01b0393841660048201529190921660248201526044810191909152606401602060405180830381600087806116996119f9565b1580156116ae576000806116ab611942565b50505b505a6116b8611c0a565b5050505050501580156116d8573d6000803e3d60006116d5611942565b50505b505050506040513d60208110156116f7576000806116f4611942565b50505b81019080805192506040915050518060400160405280602081526020017f426f6e644d616e616765723a20436f756c64206e6f7420706f737420626f6e64815250906117ca5760405162461bcd60e51b81526004018080602001828103825283818151815260200191508051906020019080838360005b8381101561178657808201518382015260200161176e565b50505050905090810190601f1680156117b35780820380516001836020036101000a031916815260200191505b5092505050604051809103906117c7611942565b50505b5060018060005a6117d9611b30565b6001600160a01b03166001600160a01b031681526020019081526020016000206001816118046119ad565b8160ff0219169083600281111561181757fe5b021790610f8e611b76565b60008281526002602052604081206001600160a01b0383166000908152600291909101602052604090206118546119ad565b90505b92915050565b7f000000000000000000000000000000000000000000000000000000000000000081565b6001602052806000526040600020905060008161189c6119ad565b60ff6101009290920a900416906001816118b46119ad565b906101000a900463ffffffff1690806001016118ce6119ad565b90806002016118db6119ad565b90806003016118e86119ad565b905085565b63a8c4c5ec598160e01b8152602081600483336000905af158600e01573d6000803e3d6000fd5b3d6001141558600a015760016000f35b8051935060005b6040811015610f8e5760008282015260200161192b565b632a2a7adb598160e01b8152600481016020815285602082015260005b8681101561197a57808601518282016040015260200161195f565b506020828760640184336000905af158600e01573d6000803e3d6000fd5b3d6001141558600a015760016000f35b505050565b6303daa959598160e01b8152836004820152602081602483336000905af158600e01573d6000803e3d6000fd5b3d6001141558600a015760016000f35b8051600082529350602061192b565b638435035b598160e01b8152836004820152602081602483336000905af158600e01573d6000803e3d6000fd5b3d6001141558600a015760016000f35b8051600082529350602061192b565b638540661f598160e01b8152611a76565b8080831115611857575090919050565b8080831015611857575090919050565b836004820152846024820152606060448201528660648201526084810160005b88811015611aae578088015182820152602001611a96565b506060828960a40184336000905af158600e01573d6000803e3d6000fd5b3d6001141558600a015760016000f35b815160408301513d6000853e8b8b82606087013350600060045af15059611b038d3d611a66565b8c01611b0f8187611a56565b5b82811015611b245760008152602001611b10565b50929c50505050505050565b6373509064598160e01b8152602081600483336000905af158600e01573d6000803e3d6000fd5b3d6001141558600a015760016000f35b8051600082529350602061192b565b6322bd64c0598160e01b8152836004820152846024820152600081604483336000905af158600e01573d6000803e3d6000fd5b3d6001141558600a015760016000f35b60008152602061192b565b63bdbf8c36598160e01b8152602081600483336000905af158600e01573d6000803e3d6000fd5b3d6001141558600a015760016000f35b8051600082529350602061192b565b635b99d1c5598160e01b81528360048201528460248201528560448201526080606482015287608482015260a4810160005b89811015611c54578089015182820152602001611c3c565b506060828a60c40184336000905af158600e01573d6000803e3d6000fd5b3d6001141558600a015760016000f35b815160408301513d6000853e8c8c82606087013350600060045af15059611ca98e3d611a66565b8d01611cb58187611a56565b5b82811015611cca5760008152602001611cb6565b50929d5050505050505056fe426f6e644d616e616765723a2043616e6e6f7420636c61696d207965742e2044697370757465206d7573742062652066696e616c697a6564206669727374426f6e644d616e616765723a2043616e6e6f742066696e616c697a65207769746864726177616c2c20796f752070726f6261626c7920676f7420736c6173686564426f6e644d616e616765723a2046726175642070726f6f6620666f722074686973207072652d737461746520726f6f742068617320616c7265616479206265656e2066696e616c697a6564426f6e644d616e616765723a205769746864726177616c20616c72656164792070656e64696e67426f6e644d616e616765723a204f6e6c7920746865207472616e736974696f6e657220666f722074686973207072652d737461746520726f6f74206d61792063616c6c20746869732066756e6374696f6e426f6e644d616e616765723a20546f6f206561726c7920746f2066696e616c697a6520796f7572207769746864726177616c426f6e644d616e616765723a205761697420666f72206f7468657220706f74656e7469616c206469737075746573426f6e644d616e616765723a2057726f6e6720626f6e6420737461746520666f722070726f706f736572426f6e644d616e616765723a204f6e6c7920746865206672617564207665726966696572206d61792063616c6c20746869732066756e6374696f6e",
  "linkReferences": {},
  "deployedLinkReferences": {}
}