{
  "_format": "hh-sol-artifact-1",
  "contractName": "L2StandardERC20",
  "sourceName": "contracts/optimistic-ethereum/libraries/standards/L2StandardERC20.sol",
  "abi": [
    {
      "inputs": [
        {
          "internalType": "address",
          "name": "_l2Bridge",
          "type": "address"
        },
        {
          "internalType": "address",
          "name": "_l1Token",
          "type": "address"
        },
        {
          "internalType": "string",
          "name": "_name",
          "type": "string"
        },
        {
          "internalType": "string",
          "name": "_symbol",
          "type": "string"
        }
      ],
      "stateMutability": "nonpayable",
      "type": "constructor"
    },
    {
      "anonymous": false,
      "inputs": [
        {
          "indexed": true,
          "internalType": "address",
          "name": "owner",
          "type": "address"
        },
        {
          "indexed": true,
          "internalType": "address",
          "name": "spender",
          "type": "address"
        },
        {
          "indexed": false,
          "internalType": "uint256",
          "name": "value",
          "type": "uint256"
        }
      ],
      "name": "Approval",
      "type": "event"
    },
    {
      "anonymous": false,
      "inputs": [
        {
          "indexed": true,
          "internalType": "address",
          "name": "_account",
          "type": "address"
        },
        {
          "indexed": false,
          "internalType": "uint256",
          "name": "_amount",
          "type": "uint256"
        }
      ],
      "name": "Burn",
      "type": "event"
    },
    {
      "anonymous": false,
      "inputs": [
        {
          "indexed": true,
          "internalType": "address",
          "name": "_account",
          "type": "address"
        },
        {
          "indexed": false,
          "internalType": "uint256",
          "name": "_amount",
          "type": "uint256"
        }
      ],
      "name": "Mint",
      "type": "event"
    },
    {
      "anonymous": false,
      "inputs": [
        {
          "indexed": true,
          "internalType": "address",
          "name": "from",
          "type": "address"
        },
        {
          "indexed": true,
          "internalType": "address",
          "name": "to",
          "type": "address"
        },
        {
          "indexed": false,
          "internalType": "uint256",
          "name": "value",
          "type": "uint256"
        }
      ],
      "name": "Transfer",
      "type": "event"
    },
    {
      "inputs": [
        {
          "internalType": "address",
          "name": "owner",
          "type": "address"
        },
        {
          "internalType": "address",
          "name": "spender",
          "type": "address"
        }
      ],
      "name": "allowance",
      "outputs": [
        {
          "internalType": "uint256",
          "name": "",
          "type": "uint256"
        }
      ],
      "stateMutability": "view",
      "type": "function"
    },
    {
      "inputs": [
        {
          "internalType": "address",
          "name": "spender",
          "type": "address"
        },
        {
          "internalType": "uint256",
          "name": "amount",
          "type": "uint256"
        }
      ],
      "name": "approve",
      "outputs": [
        {
          "internalType": "bool",
          "name": "",
          "type": "bool"
        }
      ],
      "stateMutability": "nonpayable",
      "type": "function"
    },
    {
      "inputs": [
        {
          "internalType": "address",
          "name": "account",
          "type": "address"
        }
      ],
      "name": "balanceOf",
      "outputs": [
        {
          "internalType": "uint256",
          "name": "",
          "type": "uint256"
        }
      ],
      "stateMutability": "view",
      "type": "function"
    },
    {
      "inputs": [
        {
          "internalType": "address",
          "name": "_from",
          "type": "address"
        },
        {
          "internalType": "uint256",
          "name": "_amount",
          "type": "uint256"
        }
      ],
      "name": "burn",
      "outputs": [],
      "stateMutability": "nonpayable",
      "type": "function"
    },
    {
      "inputs": [],
      "name": "decimals",
      "outputs": [
        {
          "internalType": "uint8",
          "name": "",
          "type": "uint8"
        }
      ],
      "stateMutability": "view",
      "type": "function"
    },
    {
      "inputs": [
        {
          "internalType": "address",
          "name": "spender",
          "type": "address"
        },
        {
          "internalType": "uint256",
          "name": "subtractedValue",
          "type": "uint256"
        }
      ],
      "name": "decreaseAllowance",
      "outputs": [
        {
          "internalType": "bool",
          "name": "",
          "type": "bool"
        }
      ],
      "stateMutability": "nonpayable",
      "type": "function"
    },
    {
      "inputs": [
        {
          "internalType": "address",
          "name": "spender",
          "type": "address"
        },
        {
          "internalType": "uint256",
          "name": "addedValue",
          "type": "uint256"
        }
      ],
      "name": "increaseAllowance",
      "outputs": [
        {
          "internalType": "bool",
          "name": "",
          "type": "bool"
        }
      ],
      "stateMutability": "nonpayable",
      "type": "function"
    },
    {
      "inputs": [],
      "name": "l1Token",
      "outputs": [
        {
          "internalType": "address",
          "name": "",
          "type": "address"
        }
      ],
      "stateMutability": "view",
      "type": "function"
    },
    {
      "inputs": [],
      "name": "l2Bridge",
      "outputs": [
        {
          "internalType": "address",
          "name": "",
          "type": "address"
        }
      ],
      "stateMutability": "view",
      "type": "function"
    },
    {
      "inputs": [
        {
          "internalType": "address",
          "name": "_to",
          "type": "address"
        },
        {
          "internalType": "uint256",
          "name": "_amount",
          "type": "uint256"
        }
      ],
      "name": "mint",
      "outputs": [],
      "stateMutability": "nonpayable",
      "type": "function"
    },
    {
      "inputs": [],
      "name": "name",
      "outputs": [
        {
          "internalType": "string",
          "name": "",
          "type": "string"
        }
      ],
      "stateMutability": "view",
      "type": "function"
    },
    {
      "inputs": [
        {
          "internalType": "bytes4",
          "name": "_interfaceId",
          "type": "bytes4"
        }
      ],
      "name": "supportsInterface",
      "outputs": [
        {
          "internalType": "bool",
          "name": "",
          "type": "bool"
        }
      ],
      "stateMutability": "pure",
      "type": "function"
    },
    {
      "inputs": [],
      "name": "symbol",
      "outputs": [
        {
          "internalType": "string",
          "name": "",
          "type": "string"
        }
      ],
      "stateMutability": "view",
      "type": "function"
    },
    {
      "inputs": [],
      "name": "totalSupply",
      "outputs": [
        {
          "internalType": "uint256",
          "name": "",
          "type": "uint256"
        }
      ],
      "stateMutability": "view",
      "type": "function"
    },
    {
      "inputs": [
        {
          "internalType": "address",
          "name": "recipient",
          "type": "address"
        },
        {
          "internalType": "uint256",
          "name": "amount",
          "type": "uint256"
        }
      ],
      "name": "transfer",
      "outputs": [
        {
          "internalType": "bool",
          "name": "",
          "type": "bool"
        }
      ],
      "stateMutability": "nonpayable",
      "type": "function"
    },
    {
      "inputs": [
        {
          "internalType": "address",
          "name": "sender",
          "type": "address"
        },
        {
          "internalType": "address",
          "name": "recipient",
          "type": "address"
        },
        {
          "internalType": "uint256",
          "name": "amount",
          "type": "uint256"
        }
      ],
      "name": "transferFrom",
      "outputs": [
        {
          "internalType": "bool",
          "name": "",
          "type": "bool"
        }
      ],
      "stateMutability": "nonpayable",
      "type": "function"
    }
  ],
  "bytecode": "0x60806040525a6200000f620002ec565b801562000026576000806200002362000348565b50505b50604051620018ae380380620018ae8339818101604052608081101562000057576000806200005462000348565b50505b81019080805192919060200180519291906020018051604051939291908464010000000082111562000093576000806200009062000348565b50505b908301906020820185811115620000b457600080620000b162000348565b50505b8251640100000000811182820188101715620000da57600080620000d762000348565b50505b825250602001908051906020019080838360005b8381101562000108578082015183820152602001620000ee565b50505050905090810190601f168015620001365780820380516001836020036101000a031916815260200191505b506040526020018051604051939291908464010000000082111562000165576000806200016262000348565b50505b90830190602082018581111562000186576000806200018362000348565b50505b8251640100000000811182820188101715620001ac57600080620001a962000348565b50505b825250602001908051906020019080838360005b83811015620001da578082015183820152602001620001c0565b50505050905090810190601f168015620002085780820380516001836020036101000a031916815260200191505b50604052505050818181600390805162000227929160200190620003b5565b5060048180516200023d929160200190620003b5565b50601260056001816200024f62000477565b8160ff021916908360ff1602179062000267620004c4565b505050505082600560016101000a816200028062000477565b816001600160a01b0302191690836001600160a01b0316021790620002a4620004c4565b50505083600660006101000a81620002bb62000477565b816001600160a01b0302191690836001600160a01b0316021790620002df620004c4565b5050505050505062000536565b63a8c4c5ec598160e01b8152602081600483336000905af158600e01573d6000803e3d6000fd5b3d6001141558600a015760016000f35b8051935060005b604081101562000343576000828201526020016200032a565b505050565b632a2a7adb598160e01b8152600481016020815285602082015260005b868110156200038257808601518282016040015260200162000365565b506020828760640184336000905af158600e01573d6000803e3d6000fd5b3d6001141558600a015760016000f35b505050565b8280620003c162000477565b600181600116156101000203166002900490600052602060002090601f0160209004810192826200040157600085620003f9620004c4565b505062000465565b82601f106200041f57805160ff19168380011785620003f9620004c4565b8280016001018562000430620004c4565b5050821562000465579182015b82811115620004655782518262000453620004c4565b5050916020019190600101906200043d565b506200047392915062000513565b5090565b6303daa959598160e01b8152836004820152602081602483336000905af158600e01573d6000803e3d6000fd5b3d6001141558600a015760016000f35b805160008252935060206200032a565b6322bd64c0598160e01b8152836004820152846024820152600081604483336000905af158600e01573d6000803e3d6000fd5b3d6001141558600a015760016000f35b6000815260206200032a565b808211156200047357600080826200052a620004c4565b50505060010162000513565b61136880620005466000396000f3fe60806040525a61000d611083565b80156100215760008061001e6110d8565b50505b50600436106101115760003560e01c806370a08231116100a8578063a9059cbb11610077578063a9059cbb1461039b578063ae1f6aaf146103d0578063c01e1bd6146103f4578063dd62ed3e146103fc57610111565b806370a08231146102fa57806395d89b41146103295780639dc29fac14610331578063a457c2d71461036657610111565b806323b872dd116100e457806323b872dd14610231578063313ce56714610270578063395093511461028e57806340c10f19146102c357610111565b806301ffc9a71461011f57806306fdde0314610163578063095ea7b3146101e257806318160ddd14610217575b60008061011c6110d8565b50505b61014f6004803603602081101561013e5760008061013b6110d8565b50505b50356001600160e01b031916610433565b604051901515815260200160405180910390f35b61016b610491565b60405160208082528190810183818151815260200191508051906020019080838360005b838110156101a757808201518382015260200161018f565b50505050905090810190601f1680156101d45780820380516001836020036101000a031916815260200191505b509250505060405180910390f35b61014f60048036036040811015610201576000806101fe6110d8565b50505b506001600160a01b03813516906020013561054e565b61021f61056b565b60405190815260200160405180910390f35b61014f600480360360608110156102505760008061024d6110d8565b50505b506001600160a01b0381358116916020810135909116906040013561057c565b610278610610565b60405160ff909116815260200160405180910390f35b61014f600480360360408110156102ad576000806102aa6110d8565b50505b506001600160a01b03813516906020013561062c565b6102f8600480360360408110156102e2576000806102df6110d8565b50505b506001600160a01b038135169060200135610691565b005b61021f60048036036020811015610319576000806103166110d8565b50505b50356001600160a01b031661076d565b61016b610793565b6102f8600480360360408110156103505760008061034d6110d8565b50505b506001600160a01b038135169060200135610839565b61014f60048036036040811015610385576000806103826110d8565b50505b506001600160a01b038135169060200135610915565b61014f600480360360408110156103ba576000806103b76110d8565b50505b506001600160a01b03813516906020013561098b565b6103d861099f565b6040516001600160a01b03909116815260200160405180910390f35b6103d86109be565b61021f6004803603604081101561041b576000806104186110d8565b50505b506001600160a01b03813581169160200135166109ca565b60007f01ffc9a7a5cef8baa21ed3c5c0d7e23accb804b619e9333b597f47a0d84076e2631d1d8b6360e01b6001600160e01b031984166301ffc9a760e01b148061048957506001600160e01b0319848116908216145b949350505050565b606060038061049e611143565b600181600116156101000203166002900480601f0160208091040260200160405190810160405281815291906020830182806104d8611143565b600181600116156101000203166002900480156105445780601f10610512576101008083610504611143565b040283529160200191610544565b820191906000526020600020905b81610529611143565b8152906001019060200180831161052057829003601f168201915b5050505050905090565b600061056261055b610a0a565b8484610a15565b50600192915050565b60006002610577611143565b905090565b6000610589848484610b3d565b61060684610595610a0a565b610601856040516060810160405260288082526112b160208301396001600160a01b038a16600090815260016020526040902060006105d2610a0a565b6001600160a01b03166001600160a01b031681526020019081526020016000206105fa611143565b9190610cdb565b610a15565b5060019392505050565b600080600561061d611143565b906101000a900460ff16905090565b6000610562610639610a0a565b84610601856001600061064a610a0a565b6001600160a01b03166001600160a01b031681526020019081526020016000206001600160a01b03891660009081526020919091526040902061068b611143565b90610d7b565b6000600661069d611143565b906101000a90046001600160a01b03166001600160a01b03165a6106bf61118f565b6001600160a01b0316146107225760405162461bcd60e51b815260206004820181905260248201527f4f6e6c79204c32204272696467652063616e206d696e7420616e64206275726e60448201526064016040518091039061071f6110d8565b50505b61072c8282610de3565b816001600160a01b03167f0f6798a560793a54c3bcfe86a93cde1e73087d944c0ea20544137d41213968858260405190815260200160405180910390a25050565b6001600160a01b038116600090815260208190526040812061078d611143565b92915050565b60606004806107a0611143565b600181600116156101000203166002900480601f0160208091040260200160405190810160405281815291906020830182806107da611143565b600181600116156101000203166002900480156105445780601f10610806576101008083610504611143565b820191906000526020600020905b8161081d611143565b8152906001019060200180831161081457509395945050505050565b60006006610845611143565b906101000a90046001600160a01b03166001600160a01b03165a61086761118f565b6001600160a01b0316146108ca5760405162461bcd60e51b815260206004820181905260248201527f4f6e6c79204c32204272696467652063616e206d696e7420616e64206275726e6044820152606401604051809103906108c76110d8565b50505b6108d48282610efc565b816001600160a01b03167fcc16f5dbb4873280815c1ee09dbd06736cffcc184412cf7a71a0fdb75d397ca58260405190815260200160405180910390a25050565b6000610562610922610a0a565b846106018560405160608101604052602580825261134360208301396001600061094a610a0a565b6001600160a01b03166001600160a01b031681526020019081526020016000206001600160a01b038a166000908152602091909152604090206105fa611143565b6000610562610998610a0a565b8484610b3d565b600060066109ab611143565b906101000a90046001600160a01b031681565b600160056109ab611143565b6001600160a01b03821660009081526001602052604081206001600160a01b038316600090815260209190915260409020610a03611143565b9392505050565b60005a61057761118f565b6001600160a01b038316610a635760405162461bcd60e51b815260040180806020018281038252602481526020018061131f6024913960400191505060405180910390610a606110d8565b50505b6001600160a01b038216610ab15760405162461bcd60e51b81526004018080602001828103825260228152602001806112696022913960400191505060405180910390610aae6110d8565b50505b6001600160a01b038316600090815260016020528190604090206001600160a01b0384166000908152602091909152604090208190610aee6111d5565b505050816001600160a01b0316836001600160a01b03167f8c5be1e5ebec7d5bd14f71427d1e84f3dd0314c0f7b2291e5b200ac8c7c3b9258360405190815260200160405180910390a3505050565b6001600160a01b038316610b8b5760405162461bcd60e51b81526004018080602001828103825260258152602001806112fa6025913960400191505060405180910390610b886110d8565b50505b6001600160a01b038216610bd95760405162461bcd60e51b81526004018080602001828103825260238152602001806112246023913960400191505060405180910390610bd66110d8565b50505b610be483838361101c565b610c1f8160405160608101604052602680825261128b60208301396001600160a01b03861660009081526020819052604090206105fa611143565b6001600160a01b03841660009081526020819052604090208190610c416111d5565b5050506001600160a01b03821660009081526020819052610c6a9082906040902061068b611143565b6001600160a01b03831660009081526020819052604090208190610c8c6111d5565b505050816001600160a01b0316836001600160a01b03167fddf252ad1be2c89b69c2b068fc378daa952ba7f163c4a11628f55a4df523b3ef8360405190815260200160405180910390a3505050565b60008184841115610d735760405162461bcd60e51b81526004018080602001828103825283818151815260200191508051906020019080838360005b83811015610d2f578082015183820152602001610d17565b50505050905090810190601f168015610d5c5780820380516001836020036101000a031916815260200191505b509250505060405180910390610d706110d8565b50505b505050900390565b600082820183811015610a035760405162461bcd60e51b815260206004820152601b60248201527f536166654d6174683a206164646974696f6e206f766572666c6f770000000000604482015260640160405180910390610dda6110d8565b50509392505050565b6001600160a01b038216610e465760405162461bcd60e51b815260206004820152601f60248201527f45524332303a206d696e7420746f20746865207a65726f206164647265737300604482015260640160405180910390610e436110d8565b50505b610e526000838361101c565b610e6081600261068b611143565b806002610e6b6111d5565b5050506001600160a01b03821660009081526020819052610e949082906040902061068b611143565b6001600160a01b03831660009081526020819052604090208190610eb66111d5565b5050506001600160a01b03821660007fddf252ad1be2c89b69c2b068fc378daa952ba7f163c4a11628f55a4df523b3ef8360405190815260200160405180910390a35050565b6001600160a01b038216610f4a5760405162461bcd60e51b81526004018080602001828103825260218152602001806112d96021913960400191505060405180910390610f476110d8565b50505b610f568260008361101c565b610f918160405160608101604052602280825261124760208301396001600160a01b03851660009081526020819052604090206105fa611143565b6001600160a01b03831660009081526020819052604090208190610fb36111d5565b505050610fca816002610fc4611143565b90611021565b806002610fd56111d5565b5060009150506001600160a01b0383167fddf252ad1be2c89b69c2b068fc378daa952ba7f163c4a11628f55a4df523b3ef8360405190815260200160405180910390a35050565b505050565b60008282111561107d5760405162461bcd60e51b815260206004820152601e60248201527f536166654d6174683a207375627472616374696f6e206f766572666c6f770000604482015260640160405180910390610d736110d8565b50900390565b63a8c4c5ec598160e01b8152602081600483336000905af158600e01573d6000803e3d6000fd5b3d6001141558600a015760016000f35b8051935060005b604081101561101c576000828201526020016110c1565b632a2a7adb598160e01b8152600481016020815285602082015260005b868110156111105780860151828201604001526020016110f5565b506020828760640184336000905af158600e01573d6000803e3d6000fd5b3d6001141558600a015760016000f35b505050565b6303daa959598160e01b8152836004820152602081602483336000905af158600e01573d6000803e3d6000fd5b3d6001141558600a015760016000f35b805160008252935060206110c1565b6373509064598160e01b8152602081600483336000905af158600e01573d6000803e3d6000fd5b3d6001141558600a015760016000f35b805160008252935060206110c1565b6322bd64c0598160e01b8152836004820152846024820152600081604483336000905af158600e01573d6000803e3d6000fd5b3d6001141558600a015760016000f35b6000815260206110c156fe45524332303a207472616e7366657220746f20746865207a65726f206164647265737345524332303a206275726e20616d6f756e7420657863656564732062616c616e636545524332303a20617070726f766520746f20746865207a65726f206164647265737345524332303a207472616e7366657220616d6f756e7420657863656564732062616c616e636545524332303a207472616e7366657220616d6f756e74206578636565647320616c6c6f77616e636545524332303a206275726e2066726f6d20746865207a65726f206164647265737345524332303a207472616e736665722066726f6d20746865207a65726f206164647265737345524332303a20617070726f76652066726f6d20746865207a65726f206164647265737345524332303a2064656372656173656420616c6c6f77616e63652062656c6f77207a65726f",
  "linkReferences": {},
  "deployedLinkReferences": {}
}