{
  "_format": "hh-sol-artifact-1",
  "contractName": "OVM_L2CrossDomainMessenger",
  "sourceName": "contracts/optimistic-ethereum/OVM/bridge/messaging/OVM_L2CrossDomainMessenger.sol",
  "abi": [
    {
      "inputs": [
        {
          "internalType": "address",
          "name": "_libAddressManager",
          "type": "address"
        }
      ],
      "stateMutability": "nonpayable",
      "type": "constructor"
    },
    {
      "anonymous": false,
      "inputs": [
        {
          "indexed": false,
          "internalType": "bytes32",
          "name": "msgHash",
          "type": "bytes32"
        }
      ],
      "name": "FailedRelayedMessage",
      "type": "event"
    },
    {
      "anonymous": false,
      "inputs": [
        {
          "indexed": false,
          "internalType": "bytes32",
          "name": "msgHash",
          "type": "bytes32"
        }
      ],
      "name": "RelayedMessage",
      "type": "event"
    },
    {
      "anonymous": false,
      "inputs": [
        {
          "indexed": false,
          "internalType": "bytes",
          "name": "message",
          "type": "bytes"
        }
      ],
      "name": "SentMessage",
      "type": "event"
    },
    {
      "inputs": [],
      "name": "libAddressManager",
      "outputs": [
        {
          "internalType": "contract Lib_AddressManager",
          "name": "",
          "type": "address"
        }
      ],
      "stateMutability": "view",
      "type": "function"
    },
    {
      "inputs": [],
      "name": "messageNonce",
      "outputs": [
        {
          "internalType": "uint256",
          "name": "",
          "type": "uint256"
        }
      ],
      "stateMutability": "view",
      "type": "function"
    },
    {
      "inputs": [
        {
          "internalType": "address",
          "name": "_target",
          "type": "address"
        },
        {
          "internalType": "address",
          "name": "_sender",
          "type": "address"
        },
        {
          "internalType": "bytes",
          "name": "_message",
          "type": "bytes"
        },
        {
          "internalType": "uint256",
          "name": "_messageNonce",
          "type": "uint256"
        }
      ],
      "name": "relayMessage",
      "outputs": [],
      "stateMutability": "nonpayable",
      "type": "function"
    },
    {
      "inputs": [
        {
          "internalType": "bytes32",
          "name": "",
          "type": "bytes32"
        }
      ],
      "name": "relayedMessages",
      "outputs": [
        {
          "internalType": "bool",
          "name": "",
          "type": "bool"
        }
      ],
      "stateMutability": "view",
      "type": "function"
    },
    {
      "inputs": [
        {
          "internalType": "string",
          "name": "_name",
          "type": "string"
        }
      ],
      "name": "resolve",
      "outputs": [
        {
          "internalType": "address",
          "name": "",
          "type": "address"
        }
      ],
      "stateMutability": "view",
      "type": "function"
    },
    {
      "inputs": [
        {
          "internalType": "address",
          "name": "_target",
          "type": "address"
        },
        {
          "internalType": "bytes",
          "name": "_message",
          "type": "bytes"
        },
        {
          "internalType": "uint32",
          "name": "_gasLimit",
          "type": "uint32"
        }
      ],
      "name": "sendMessage",
      "outputs": [],
      "stateMutability": "nonpayable",
      "type": "function"
    },
    {
      "inputs": [
        {
          "internalType": "bytes32",
          "name": "",
          "type": "bytes32"
        }
      ],
      "name": "sentMessages",
      "outputs": [
        {
          "internalType": "bool",
          "name": "",
          "type": "bool"
        }
      ],
      "stateMutability": "view",
      "type": "function"
    },
    {
      "inputs": [
        {
          "internalType": "bytes32",
          "name": "",
          "type": "bytes32"
        }
      ],
      "name": "successfulMessages",
      "outputs": [
        {
          "internalType": "bool",
          "name": "",
          "type": "bool"
        }
      ],
      "stateMutability": "view",
      "type": "function"
    },
    {
      "inputs": [],
      "name": "xDomainMessageSender",
      "outputs": [
        {
          "internalType": "address",
          "name": "",
          "type": "address"
        }
      ],
      "stateMutability": "view",
      "type": "function"
    }
  ],
  "bytecode": "0x608060405261dead600660018162000016620000d4565b816001600160a01b0302191690836001600160a01b03160217906200003a62000136565b5050505a6200004862000185565b80156200005f576000806200005c620001cc565b50505b506040516200153438038062001534833981016040819052620000829162000239565b8080600060018162000093620000d4565b816001600160a01b0302191690836001600160a01b0316021790620000b762000136565b505050506001808190620000ca62000136565b505050506200027f565b6303daa959598160e01b8152836004820152602081602483336000905af158600e01573d6000803e3d6000fd5b3d6001141558600a015760016000f35b8051935060005b6040811015620001315760008282015260200162000118565b505050565b6322bd64c0598160e01b8152836004820152846024820152600081604483336000905af158600e01573d6000803e3d6000fd5b3d6001141558600a015760016000f35b60008152602062000118565b63a8c4c5ec598160e01b8152602081600483336000905af158600e01573d6000803e3d6000fd5b3d6001141558600a015760016000f35b8051600082529350602062000118565b632a2a7adb598160e01b8152600481016020815285602082015260005b8681101562000206578086015182820160400152602001620001e9565b506020828760640184336000905af158600e01573d6000803e3d6000fd5b3d6001141558600a015760016000f35b505050565b6000602082840312156200025657808162000253620001cc565b50505b81516001600160a01b03811681146200027857818262000275620001cc565b50505b9392505050565b6112a5806200028f6000396000f3fe60806040525a61000d610a55565b80156100215760008061001e610aaf565b50505b50600436106100a45760003560e01c80636e296e45116100775780636e296e451461011857806382e3702d14610120578063b1b1b20914610133578063cbd4ece914610146578063ecc7042814610159576100a4565b806321d800ec146100b2578063299ca478146100db5780633dbb202b146100f0578063461a447814610105575b6000806100af610aaf565b50505b6100c56100c0366004611005565b61016e565b6040516100d29190611167565b60405180910390f35b6100e3610195565b6040516100d29190611116565b6101036100fe366004610f80565b6101b3565b005b6100e3610113366004611026565b610281565b6100e36103a9565b6100c561012e366004611005565b610423565b6100c5610141366004611005565b61043d565b610103610154366004610f06565b610457565b61016161081e565b6040516100d29190611172565b600260205280600052604060002060009150610188610b1a565b906101000a900460ff1681565b6000806101a0610b1a565b906101000a90046001600160a01b031681565b60006101d2845a6101c2610b66565b8560056101cd610b1a565b61082b565b905060016005600082826101e4610b1a565b0192505081906101f2610bac565b5050506001600460008380519060200120815260200190815260200160002060018161021c610b1a565b8160ff02191690831515021790610231610bac565b505050610244818363ffffffff1661087c565b7f0ee9ffdb2334d78de97ffb066b23a352a4d35180cefb36589d663fbb1eb6f32681604051610273919061117b565b60405180910390a150505050565b6000808061028d610b1a565b906101000a90046001600160a01b03166001600160a01b031663bf40fac1836040518263ffffffff1660e01b81526004018080602001828103825283818151815260200191508051906020019080838360005b838110156102f85780820151838201526020016102e0565b50505050905090810190601f1680156103255780820380516001836020036101000a031916815260200191505b5092505050602060405180830381868061033d610bfa565b1580156103525760008061034f610aaf565b50505b505a61035c610c46565b505050505015801561037b573d6000803e3d6000610378610aaf565b50505b505050506040513d602081101561039a57600080610397610aaf565b50505b81019080805195945050505050565b600061dead8160066103b9610b1a565b906101000a90046001600160a01b03166001600160a01b031614156104025760405162461bcd60e51b81526004016103f09061118e565b604051809103906103ff610aaf565b50505b6000600661040e610b1a565b906101000a90046001600160a01b0316905090565b600460205280600052604060002060009150610188610b1a565b600360205280600052604060002060009150610188610b1a565b60026001610463610b1a565b14156104be5760405162461bcd60e51b815260206004820152601f60248201527f5265656e7472616e637947756172643a207265656e7472616e742063616c6c006044820152606401604051809103906104bb610aaf565b50505b60028060016104cb610bac565b5050506104d6610939565b15156001146105095760405162461bcd60e51b81526004016104f790611210565b60405180910390610506610aaf565b50505b60006105178585858561082b565b905060008180519060200120600081815260036020529091506040902060009061053f610b1a565b60ff6101009290920a9004161561057a5760405162461bcd60e51b8152600401610568906111c5565b60405180910390610577610aaf565b50505b6105b060405160408082019052601781527627ab26afa6192a37a618a6b2b9b9b0b3b2a830b9b9b2b960491b6020820152610281565b6001600160a01b0316866001600160a01b031614156106045760008181526003602052600190604090206001816105e5610b1a565b8160ff021916908315150217906105fa610bac565b5050505050610809565b846006600181610612610b1a565b816001600160a01b0302191690836001600160a01b0316021790610634610bac565b5050506000866001600160a01b03168560405161065191906110bb565b6000604051808303816000865a610666610d33565b5050505050509150503d806000811461069b576040513d603f01601f191681016040523d815291503d6000602084013e6106a0565b606091505b5050905061dead600660006101000a816106b8610b1a565b816001600160a01b0302191690836001600160a01b03160217906106da610bac565b50505060018115151415610758576000828152600360205260019060409020600181610704610b1a565b8160ff02191690831515021790610719610bac565b5050507f4641df4a962071e12719d8c8c8e5ac7fc4d97b927346a3d7a335b1f7517e133c8260405161074b9190611172565b60405180910390a1610790565b7f99d0e048484baa1b1540b1367cb128acd7ab2946d1ed91ec10e3c85e4bf51b8f826040516107879190611172565b60405180910390a15b6000835a61079c610b66565b5a6107a5610dff565b6040516020016107b7939291906110d7565b6040516020818303038152906040528051906020012060008181526002602052909150600190604090206001816107ec610b1a565b8160ff02191690831515021790610801610bac565b505050505050505b60018080610815610bac565b50505050505050565b6005610828610b1a565b81565b606084848484604051602401610844949392919061112a565b604051601f1981830301815260409190915263cbd4ece960e01b6020820180516001600160e01b031690911790529050949350505050565b6108b260405160408082019052601781527627ab26afa6192a37a618a6b2b9b9b0b3b2a830b9b9b2b960491b6020820152610281565b6001600160a01b031663cafa81dc836040518263ffffffff1660e01b81526004016108dd919061117b565b600060405180830381600087806108f2610bfa565b15801561090757600080610904610aaf565b50505b505a610911610d33565b505050505050158015610931573d6000803e3d600061092e610aaf565b50505b505050505050565b600061097760405160408082019052601a81527f4f564d5f4c3143726f7373446f6d61696e4d657373656e6765720000000000006020820152610281565b6001600160a01b03166109b260405160408082019052601381527227ab26afa618a6b2b9b9b0b3b2a9b2b73232b960691b6020820152610281565b6001600160a01b031663d20341066040518163ffffffff1660e01b815260040160206040518083038186806109e5610bfa565b1580156109fa576000806109f7610aaf565b50505b505a610a04610c46565b5050505050158015610a23573d6000803e3d6000610a20610aaf565b50505b50505050604051601f3d908101601f19168201604052610a469190810190610ee1565b6001600160a01b031614905090565b63a8c4c5ec598160e01b8152602081600483336000905af158600e01573d6000803e3d6000fd5b3d6001141558600a015760016000f35b8051935060005b6040811015610aaa57600082820152602001610a93565b505050565b632a2a7adb598160e01b8152600481016020815285602082015260005b86811015610ae7578086015182820160400152602001610acc565b506020828760640184336000905af158600e01573d6000803e3d6000fd5b3d6001141558600a015760016000f35b505050565b6303daa959598160e01b8152836004820152602081602483336000905af158600e01573d6000803e3d6000fd5b3d6001141558600a015760016000f35b80516000825293506020610a93565b6373509064598160e01b8152602081600483336000905af158600e01573d6000803e3d6000fd5b3d6001141558600a015760016000f35b80516000825293506020610a93565b6322bd64c0598160e01b8152836004820152846024820152600081604483336000905af158600e01573d6000803e3d6000fd5b3d6001141558600a015760016000f35b600081526020610a93565b638435035b598160e01b8152836004820152602081602483336000905af158600e01573d6000803e3d6000fd5b3d6001141558600a015760016000f35b80516000825293506020610a93565b638540661f598160e01b8152610c79565b8080831115610c635750815b92915050565b8080831015610c63575090919050565b836004820152846024820152606060448201528660648201526084810160005b88811015610cb1578088015182820152602001610c99565b506060828960a40184336000905af158600e01573d6000803e3d6000fd5b3d6001141558600a015760016000f35b815160408301513d6000853e8b8b82606087013350600060045af15059610d068d3d610c69565b8c01610d128187610c57565b5b82811015610d275760008152602001610d13565b50929c50505050505050565b635b99d1c5598160e01b81528360048201528460248201528560448201526080606482015287608482015260a4810160005b89811015610d7d578089015182820152602001610d65565b506060828a60c40184336000905af158600e01573d6000803e3d6000fd5b3d6001141558600a015760016000f35b815160408301513d6000853e8c8c82606087013350600060045af15059610dd28e3d610c69565b8d01610dde8187610c57565b5b82811015610df35760008152602001610ddf565b50929d50505050505050565b635a98c361598160e01b8152602081600483336000905af158600e01573d6000803e3d6000fd5b3d6001141558600a015760016000f35b80516000825293506020610a93565b600067ffffffffffffffff80841115610e5a57fe5b604051601f8501601f191681016020018281118282101715610e7857fe5b604052848152915081838501861015610e9957600080610e96610aaf565b50505b8484602083013760006020868301015250509392505050565b600082601f830112610ecb578081610ec8610aaf565b50505b610eda83833560208501610e45565b9392505050565b600060208284031215610efb578081610ef8610aaf565b50505b8151610eda81611287565b60008060008060808587031215610f24578283610f21610aaf565b50505b8435610f2f81611287565b93506020850135610f3f81611287565b9250604085013567ffffffffffffffff811115610f63578283610f60610aaf565b50505b610f6f87828801610eb2565b949793965093946060013593505050565b600080600060608486031215610f9d578283610f9a610aaf565b50505b8335610fa881611287565b9250602084013567ffffffffffffffff811115610fcc578283610fc9610aaf565b50505b610fd886828701610eb2565b925050604084013563ffffffff81168114610ffa578182610ff7610aaf565b50505b809150509250925092565b60006020828403121561101f57808161101c610aaf565b50505b5035919050565b60006020828403121561104057808161103d610aaf565b50505b813567ffffffffffffffff81111561105f57818261105c610aaf565b50505b8201601f81018413611078578182611075610aaf565b50505b61108784823560208401610e45565b949350505050565b600081518084526110a7816020860160208601611257565b601f01601f19169290920160200192915050565b600082516110cd818460208701611257565b9190910192915050565b600084516110e9818460208901611257565b60609490941b6bffffffffffffffffffffffff191691909301908152601481019190915260340192915050565b6001600160a01b0391909116815260200190565b6001600160a01b038581168252841660208201526080604082018190526000906111569083018561108f565b905082606083015295945050505050565b901515815260200190565b90815260200190565b600060208252610eda602083018461108f565b6020808252601f908201527f78446f6d61696e4d65737361676553656e646572206973206e6f742073657400604082015260600190565b6020808252602b908201527f50726f7669646564206d6573736167652068617320616c72656164792062656560408201526a37103932b1b2b4bb32b21760a91b606082015260800190565b60208082526027908201527f50726f7669646564206d65737361676520636f756c64206e6f742062652076656040820152663934b334b2b21760c91b606082015260800190565b60005b8381101561127257808201518382015260200161125a565b83811115611281576000848401525b50505050565b6001600160a01b03811681146112a257600080610aaa610aaf565b5056",
  "linkReferences": {},
  "deployedLinkReferences": {}
}