{
  "_format": "hh-sol-artifact-1",
  "contractName": "L2LiquidityPool",
  "sourceName": "contracts/LP/L2LiquidityPool.sol",
  "abi": [
    {
      "inputs": [],
      "stateMutability": "nonpayable",
      "type": "constructor"
    },
    {
      "anonymous": false,
      "inputs": [
        {
          "indexed": false,
          "internalType": "address",
          "name": "sender",
          "type": "address"
        },
        {
          "indexed": false,
          "internalType": "uint256",
          "name": "amount",
          "type": "uint256"
        },
        {
          "indexed": false,
          "internalType": "address",
          "name": "tokenAddress",
          "type": "address"
        }
      ],
      "name": "AddLiquidity",
      "type": "event"
    },
    {
      "anonymous": false,
      "inputs": [
        {
          "indexed": false,
          "internalType": "address",
          "name": "sender",
          "type": "address"
        },
        {
          "indexed": false,
          "internalType": "uint256",
          "name": "receivedAmount",
          "type": "uint256"
        },
        {
          "indexed": false,
          "internalType": "address",
          "name": "tokenAddress",
          "type": "address"
        }
      ],
      "name": "ClientDepositL2",
      "type": "event"
    },
    {
      "anonymous": false,
      "inputs": [
        {
          "indexed": false,
          "internalType": "address",
          "name": "sender",
          "type": "address"
        },
        {
          "indexed": false,
          "internalType": "uint256",
          "name": "amount",
          "type": "uint256"
        },
        {
          "indexed": false,
          "internalType": "uint256",
          "name": "userRewardFee",
          "type": "uint256"
        },
        {
          "indexed": false,
          "internalType": "uint256",
          "name": "ownerRewardFee",
          "type": "uint256"
        },
        {
          "indexed": false,
          "internalType": "uint256",
          "name": "totalFee",
          "type": "uint256"
        },
        {
          "indexed": false,
          "internalType": "address",
          "name": "tokenAddress",
          "type": "address"
        }
      ],
      "name": "ClientPayL2",
      "type": "event"
    },
    {
      "anonymous": false,
      "inputs": [
        {
          "indexed": false,
          "internalType": "address",
          "name": "sender",
          "type": "address"
        },
        {
          "indexed": false,
          "internalType": "uint256",
          "name": "amount",
          "type": "uint256"
        },
        {
          "indexed": false,
          "internalType": "uint256",
          "name": "userRewardFee",
          "type": "uint256"
        },
        {
          "indexed": false,
          "internalType": "uint256",
          "name": "ownerRewardFee",
          "type": "uint256"
        },
        {
          "indexed": false,
          "internalType": "uint256",
          "name": "totalFee",
          "type": "uint256"
        },
        {
          "indexed": false,
          "internalType": "address",
          "name": "tokenAddress",
          "type": "address"
        }
      ],
      "name": "ClientPayL2Settlement",
      "type": "event"
    },
    {
      "anonymous": false,
      "inputs": [
        {
          "indexed": false,
          "internalType": "address",
          "name": "newDao",
          "type": "address"
        }
      ],
      "name": "DaoRoleTransferred",
      "type": "event"
    },
    {
      "anonymous": false,
      "inputs": [
        {
          "indexed": false,
          "internalType": "address",
          "name": "sender",
          "type": "address"
        },
        {
          "indexed": false,
          "internalType": "address",
          "name": "receiver",
          "type": "address"
        },
        {
          "indexed": false,
          "internalType": "uint256",
          "name": "amount",
          "type": "uint256"
        },
        {
          "indexed": false,
          "internalType": "address",
          "name": "tokenAddress",
          "type": "address"
        }
      ],
      "name": "OwnerRecoverFee",
      "type": "event"
    },
    {
      "anonymous": false,
      "inputs": [
        {
          "indexed": false,
          "internalType": "address",
          "name": "newOwner",
          "type": "address"
        }
      ],
      "name": "OwnershipTransferred",
      "type": "event"
    },
    {
      "anonymous": false,
      "inputs": [
        {
          "indexed": false,
          "internalType": "address",
          "name": "account",
          "type": "address"
        }
      ],
      "name": "Paused",
      "type": "event"
    },
    {
      "anonymous": false,
      "inputs": [
        {
          "indexed": false,
          "internalType": "uint256",
          "name": "amount",
          "type": "uint256"
        },
        {
          "indexed": false,
          "internalType": "address",
          "name": "tokenAddress",
          "type": "address"
        }
      ],
      "name": "RebalanceLP",
      "type": "event"
    },
    {
      "anonymous": false,
      "inputs": [
        {
          "indexed": false,
          "internalType": "address",
          "name": "account",
          "type": "address"
        }
      ],
      "name": "Unpaused",
      "type": "event"
    },
    {
      "anonymous": false,
      "inputs": [
        {
          "indexed": false,
          "internalType": "address",
          "name": "sender",
          "type": "address"
        },
        {
          "indexed": false,
          "internalType": "address",
          "name": "receiver",
          "type": "address"
        },
        {
          "indexed": false,
          "internalType": "uint256",
          "name": "amount",
          "type": "uint256"
        },
        {
          "indexed": false,
          "internalType": "address",
          "name": "tokenAddress",
          "type": "address"
        }
      ],
      "name": "WithdrawLiquidity",
      "type": "event"
    },
    {
      "anonymous": false,
      "inputs": [
        {
          "indexed": false,
          "internalType": "address",
          "name": "sender",
          "type": "address"
        },
        {
          "indexed": false,
          "internalType": "address",
          "name": "receiver",
          "type": "address"
        },
        {
          "indexed": false,
          "internalType": "uint256",
          "name": "amount",
          "type": "uint256"
        },
        {
          "indexed": false,
          "internalType": "address",
          "name": "tokenAddress",
          "type": "address"
        }
      ],
      "name": "WithdrawReward",
      "type": "event"
    },
    {
      "inputs": [],
      "name": "BOBAAddress",
      "outputs": [
        {
          "internalType": "address",
          "name": "",
          "type": "address"
        }
      ],
      "stateMutability": "view",
      "type": "function"
    },
    {
      "inputs": [],
      "name": "DAO",
      "outputs": [
        {
          "internalType": "address",
          "name": "",
          "type": "address"
        }
      ],
      "stateMutability": "view",
      "type": "function"
    },
    {
      "inputs": [],
      "name": "DEFAULT_FINALIZE_WITHDRAWAL_L1_GAS",
      "outputs": [
        {
          "internalType": "uint32",
          "name": "",
          "type": "uint32"
        }
      ],
      "stateMutability": "view",
      "type": "function"
    },
    {
      "inputs": [],
      "name": "L1LiquidityPoolAddress",
      "outputs": [
        {
          "internalType": "address",
          "name": "",
          "type": "address"
        }
      ],
      "stateMutability": "view",
      "type": "function"
    },
    {
      "inputs": [
        {
          "internalType": "uint256",
          "name": "_amount",
          "type": "uint256"
        },
        {
          "internalType": "address",
          "name": "_tokenAddress",
          "type": "address"
        }
      ],
      "name": "addLiquidity",
      "outputs": [],
      "stateMutability": "payable",
      "type": "function"
    },
    {
      "inputs": [
        {
          "internalType": "uint256",
          "name": "_amount",
          "type": "uint256"
        },
        {
          "internalType": "address",
          "name": "_tokenAddress",
          "type": "address"
        }
      ],
      "name": "clientDepositL2",
      "outputs": [],
      "stateMutability": "payable",
      "type": "function"
    },
    {
      "inputs": [
        {
          "internalType": "address payable",
          "name": "_to",
          "type": "address"
        },
        {
          "internalType": "uint256",
          "name": "_amount",
          "type": "uint256"
        },
        {
          "internalType": "address",
          "name": "_tokenAddress",
          "type": "address"
        }
      ],
      "name": "clientPayL2",
      "outputs": [],
      "stateMutability": "nonpayable",
      "type": "function"
    },
    {
      "inputs": [
        {
          "components": [
            {
              "internalType": "address payable",
              "name": "to",
              "type": "address"
            },
            {
              "internalType": "address",
              "name": "l2TokenAddress",
              "type": "address"
            },
            {
              "internalType": "uint256",
              "name": "amount",
              "type": "uint256"
            }
          ],
          "internalType": "struct L2LiquidityPool.ClientPayToken[]",
          "name": "_tokens",
          "type": "tuple[]"
        }
      ],
      "name": "clientPayL2Batch",
      "outputs": [],
      "stateMutability": "nonpayable",
      "type": "function"
    },
    {
      "inputs": [
        {
          "internalType": "address payable",
          "name": "_to",
          "type": "address"
        },
        {
          "internalType": "uint256",
          "name": "_amount",
          "type": "uint256"
        },
        {
          "internalType": "address",
          "name": "_tokenAddress",
          "type": "address"
        }
      ],
      "name": "clientPayL2Settlement",
      "outputs": [],
      "stateMutability": "nonpayable",
      "type": "function"
    },
    {
      "inputs": [
        {
          "internalType": "uint256",
          "name": "_extraGas",
          "type": "uint256"
        }
      ],
      "name": "configureExtraGasRelay",
      "outputs": [],
      "stateMutability": "nonpayable",
      "type": "function"
    },
    {
      "inputs": [
        {
          "internalType": "uint256",
          "name": "_userRewardMinFeeRate",
          "type": "uint256"
        },
        {
          "internalType": "uint256",
          "name": "_userRewardMaxFeeRate",
          "type": "uint256"
        },
        {
          "internalType": "uint256",
          "name": "_ownerRewardFeeRate",
          "type": "uint256"
        }
      ],
      "name": "configureFee",
      "outputs": [],
      "stateMutability": "nonpayable",
      "type": "function"
    },
    {
      "inputs": [
        {
          "internalType": "uint256",
          "name": "_userRewardMinFeeRate",
          "type": "uint256"
        },
        {
          "internalType": "uint256",
          "name": "_userRewardMaxFeeRate",
          "type": "uint256"
        },
        {
          "internalType": "uint256",
          "name": "_ownerRewardFeeRate",
          "type": "uint256"
        }
      ],
      "name": "configureFeeExits",
      "outputs": [],
      "stateMutability": "nonpayable",
      "type": "function"
    },
    {
      "inputs": [
        {
          "internalType": "uint32",
          "name": "_l1GasFee",
          "type": "uint32"
        }
      ],
      "name": "configureGas",
      "outputs": [],
      "stateMutability": "nonpayable",
      "type": "function"
    },
    {
      "inputs": [],
      "name": "extraGasRelay",
      "outputs": [
        {
          "internalType": "uint256",
          "name": "",
          "type": "uint256"
        }
      ],
      "stateMutability": "view",
      "type": "function"
    },
    {
      "inputs": [],
      "name": "getFinalizeDepositL1Gas",
      "outputs": [
        {
          "internalType": "uint32",
          "name": "",
          "type": "uint32"
        }
      ],
      "stateMutability": "view",
      "type": "function"
    },
    {
      "inputs": [
        {
          "internalType": "address",
          "name": "_l2TokenAddress",
          "type": "address"
        }
      ],
      "name": "getUserRewardFeeRate",
      "outputs": [
        {
          "internalType": "uint256",
          "name": "userRewardFeeRate",
          "type": "uint256"
        }
      ],
      "stateMutability": "view",
      "type": "function"
    },
    {
      "inputs": [
        {
          "internalType": "address",
          "name": "_l2CrossDomainMessenger",
          "type": "address"
        },
        {
          "internalType": "address",
          "name": "_L1LiquidityPoolAddress",
          "type": "address"
        }
      ],
      "name": "initialize",
      "outputs": [],
      "stateMutability": "nonpayable",
      "type": "function"
    },
    {
      "inputs": [],
      "name": "messenger",
      "outputs": [
        {
          "internalType": "address",
          "name": "",
          "type": "address"
        }
      ],
      "stateMutability": "view",
      "type": "function"
    },
    {
      "inputs": [],
      "name": "owner",
      "outputs": [
        {
          "internalType": "address",
          "name": "",
          "type": "address"
        }
      ],
      "stateMutability": "view",
      "type": "function"
    },
    {
      "inputs": [
        {
          "internalType": "uint256",
          "name": "_amount",
          "type": "uint256"
        },
        {
          "internalType": "address",
          "name": "_tokenAddress",
          "type": "address"
        },
        {
          "internalType": "address",
          "name": "_to",
          "type": "address"
        }
      ],
      "name": "ownerRecoverFee",
      "outputs": [],
      "stateMutability": "nonpayable",
      "type": "function"
    },
    {
      "inputs": [],
      "name": "ownerRewardFeeRate",
      "outputs": [
        {
          "internalType": "uint256",
          "name": "",
          "type": "uint256"
        }
      ],
      "stateMutability": "view",
      "type": "function"
    },
    {
      "inputs": [],
      "name": "pause",
      "outputs": [],
      "stateMutability": "nonpayable",
      "type": "function"
    },
    {
      "inputs": [],
      "name": "paused",
      "outputs": [
        {
          "internalType": "bool",
          "name": "",
          "type": "bool"
        }
      ],
      "stateMutability": "view",
      "type": "function"
    },
    {
      "inputs": [
        {
          "internalType": "address",
          "name": "",
          "type": "address"
        }
      ],
      "name": "poolInfo",
      "outputs": [
        {
          "internalType": "address",
          "name": "l1TokenAddress",
          "type": "address"
        },
        {
          "internalType": "address",
          "name": "l2TokenAddress",
          "type": "address"
        },
        {
          "internalType": "uint256",
          "name": "userDepositAmount",
          "type": "uint256"
        },
        {
          "internalType": "uint256",
          "name": "lastAccUserReward",
          "type": "uint256"
        },
        {
          "internalType": "uint256",
          "name": "accUserReward",
          "type": "uint256"
        },
        {
          "internalType": "uint256",
          "name": "accUserRewardPerShare",
          "type": "uint256"
        },
        {
          "internalType": "uint256",
          "name": "accOwnerReward",
          "type": "uint256"
        },
        {
          "internalType": "uint256",
          "name": "startTime",
          "type": "uint256"
        }
      ],
      "stateMutability": "view",
      "type": "function"
    },
    {
      "inputs": [
        {
          "internalType": "uint256",
          "name": "_amount",
          "type": "uint256"
        },
        {
          "internalType": "address",
          "name": "_tokenAddress",
          "type": "address"
        }
      ],
      "name": "rebalanceLP",
      "outputs": [],
      "stateMutability": "nonpayable",
      "type": "function"
    },
    {
      "inputs": [
        {
          "internalType": "address",
          "name": "_BOBAAddress",
          "type": "address"
        },
        {
          "internalType": "address",
          "name": "_xBOBAAddress",
          "type": "address"
        }
      ],
      "name": "registerBOBA",
      "outputs": [],
      "stateMutability": "nonpayable",
      "type": "function"
    },
    {
      "inputs": [
        {
          "internalType": "address",
          "name": "_l1TokenAddress",
          "type": "address"
        },
        {
          "internalType": "address",
          "name": "_l2TokenAddress",
          "type": "address"
        }
      ],
      "name": "registerPool",
      "outputs": [],
      "stateMutability": "nonpayable",
      "type": "function"
    },
    {
      "inputs": [
        {
          "internalType": "address",
          "name": "_newDAO",
          "type": "address"
        }
      ],
      "name": "transferDAORole",
      "outputs": [],
      "stateMutability": "nonpayable",
      "type": "function"
    },
    {
      "inputs": [
        {
          "internalType": "address",
          "name": "_newOwner",
          "type": "address"
        }
      ],
      "name": "transferOwnership",
      "outputs": [],
      "stateMutability": "nonpayable",
      "type": "function"
    },
    {
      "inputs": [],
      "name": "unpause",
      "outputs": [],
      "stateMutability": "nonpayable",
      "type": "function"
    },
    {
      "inputs": [
        {
          "internalType": "address",
          "name": "_tokenAddress",
          "type": "address"
        }
      ],
      "name": "updateUserRewardPerShare",
      "outputs": [],
      "stateMutability": "nonpayable",
      "type": "function"
    },
    {
      "inputs": [
        {
          "internalType": "address",
          "name": "",
          "type": "address"
        },
        {
          "internalType": "address",
          "name": "",
          "type": "address"
        }
      ],
      "name": "userInfo",
      "outputs": [
        {
          "internalType": "uint256",
          "name": "amount",
          "type": "uint256"
        },
        {
          "internalType": "uint256",
          "name": "rewardDebt",
          "type": "uint256"
        },
        {
          "internalType": "uint256",
          "name": "pendingReward",
          "type": "uint256"
        }
      ],
      "stateMutability": "view",
      "type": "function"
    },
    {
      "inputs": [],
      "name": "userRewardMaxFeeRate",
      "outputs": [
        {
          "internalType": "uint256",
          "name": "",
          "type": "uint256"
        }
      ],
      "stateMutability": "view",
      "type": "function"
    },
    {
      "inputs": [],
      "name": "userRewardMinFeeRate",
      "outputs": [
        {
          "internalType": "uint256",
          "name": "",
          "type": "uint256"
        }
      ],
      "stateMutability": "view",
      "type": "function"
    },
    {
      "inputs": [
        {
          "internalType": "uint256",
          "name": "_amount",
          "type": "uint256"
        },
        {
          "internalType": "address",
          "name": "_tokenAddress",
          "type": "address"
        },
        {
          "internalType": "address payable",
          "name": "_to",
          "type": "address"
        }
      ],
      "name": "withdrawLiquidity",
      "outputs": [],
      "stateMutability": "nonpayable",
      "type": "function"
    },
    {
      "inputs": [
        {
          "internalType": "uint256",
          "name": "_amount",
          "type": "uint256"
        },
        {
          "internalType": "address",
          "name": "_tokenAddress",
          "type": "address"
        },
        {
          "internalType": "address",
          "name": "_to",
          "type": "address"
        }
      ],
      "name": "withdrawReward",
      "outputs": [],
      "stateMutability": "nonpayable",
      "type": "function"
    },
    {
      "inputs": [],
      "name": "xBOBAAddress",
      "outputs": [
        {
          "internalType": "address",
          "name": "",
          "type": "address"
        }
      ],
      "stateMutability": "view",
      "type": "function"
    },
    {
      "inputs": [
        {
          "internalType": "address",
          "name": "",
          "type": "address"
        }
      ],
      "name": "xBOBAStatus",
      "outputs": [
        {
          "internalType": "bool",
          "name": "",
          "type": "bool"
        }
      ],
      "stateMutability": "view",
      "type": "function"
    }
  ],
  "bytecode": "0x608060405234801561001057600080fd5b50600080546001600160a01b0319169055614fb3806100306000396000f3fe6080604052600436106102855760003560e01c806368be42ca11610153578063997d73df116100cb578063c58827ea1161007f578063ecb12db011610064578063ecb12db0146107bf578063f2fde38b146107df578063f4871268146107ff57600080fd5b8063c58827ea1461078c578063c95f9d0e146107ac57600080fd5b8063b4eeb988116100b0578063b4eeb9881461072c578063b5e241f11461074c578063bd2d1cab1461076c57600080fd5b8063997d73df146106605780639a7b5f111461067b57600080fd5b806377b594a2116101225780638456cb59116101075780638456cb59146106035780638da5cb5b1461061857806398fabd3a1461063857600080fd5b806377b594a2146105cd57806381e6bdac146105e357600080fd5b806368be42ca1461056157806370ac3180146105815780637286e5e514610597578063744a5aa2146105b757600080fd5b80633cb747bf1161020157806349561dc4116101b55780635c975abb1161019a5780635c975abb146104f7578063650a767b1461050f5780636854e22b1461052f57600080fd5b806349561dc4146104b7578063531645cb146104d757600080fd5b80633f89e952116101e65780633f89e9521461045757806341132e4c14610477578063485cc9551461049757600080fd5b80633cb747bf146104225780633f4ba83a1461044257600080fd5b80631786e46d116102585780631f0bfb8c1161023d5780631f0bfb8c1461039e57806334636648146103de578063358fc07e146103fe57600080fd5b80631786e46d1461036b5780631d00a7711461038b57600080fd5b8063067b2dcb1461028a5780630f208beb146102ac57806312f54c1a1461031357806316a8dda714610333575b600080fd5b34801561029657600080fd5b506102aa6102a5366004614acd565b61081f565b005b3480156102b857600080fd5b506102f36102c7366004614acd565b609860209081526000928352604080842090915290825290208054600182015460029092015490919083565b604080519384526020840192909252908201526060015b60405180910390f35b34801561031f57600080fd5b506102aa61032e366004614b06565b610959565b34801561033f57600080fd5b50609a54610353906001600160a01b031681565b6040516001600160a01b03909116815260200161030a565b34801561037757600080fd5b5060a154610353906001600160a01b031681565b6102aa610399366004614b23565b6109ef565b3480156103aa57600080fd5b506103ce6103b9366004614b06565b60a26020526000908152604090205460ff1681565b604051901515815260200161030a565b3480156103ea57600080fd5b506102aa6103f9366004614b48565b610de5565b34801561040a57600080fd5b50610414609c5481565b60405190815260200161030a565b34801561042e57600080fd5b50600054610353906001600160a01b031681565b34801561044e57600080fd5b506102aa610f08565b34801561046357600080fd5b506102aa610472366004614b23565b610f80565b34801561048357600080fd5b506102aa610492366004614b6e565b6114a8565b3480156104a357600080fd5b506102aa6104b2366004614acd565b6116bd565b3480156104c357600080fd5b506102aa6104d2366004614b9a565b6119fe565b3480156104e357600080fd5b5060a054610353906001600160a01b031681565b34801561050357600080fd5b5060655460ff166103ce565b34801561051b57600080fd5b506102aa61052a366004614bdc565b611cf8565b34801561053b57600080fd5b50609d5461054c9063ffffffff1681565b60405163ffffffff909116815260200161030a565b34801561056d57600080fd5b506102aa61057c366004614b9a565b612162565b34801561058d57600080fd5b50610414609e5481565b3480156105a357600080fd5b506102aa6105b2366004614acd565b612488565b3480156105c357600080fd5b50610414609f5481565b3480156105d957600080fd5b50610414609b5481565b3480156105ef57600080fd5b506102aa6105fe366004614b9a565b612733565b34801561060f57600080fd5b506102aa6129aa565b34801561062457600080fd5b50609954610353906001600160a01b031681565b34801561064457600080fd5b50609d546103539064010000000090046001600160a01b031681565b34801561066c57600080fd5b50609d5463ffffffff1661054c565b34801561068757600080fd5b506106e6610696366004614b06565b609760205260009081526040902080546001820154600283015460038401546004850154600586015460068701546007909701546001600160a01b03968716979590961695939492939192909188565b604080516001600160a01b03998a168152989097166020890152958701949094526060860192909252608085015260a084015260c083015260e08201526101000161030a565b34801561073857600080fd5b506102aa610747366004614c13565b612a20565b34801561075857600080fd5b506102aa610767366004614c88565b612cfe565b34801561077857600080fd5b506102aa610787366004614bdc565b612e8c565b34801561079857600080fd5b506102aa6107a7366004614b6e565b613114565b6102aa6107ba366004614b23565b61329e565b3480156107cb57600080fd5b506104146107da366004614b06565b613682565b3480156107eb57600080fd5b506102aa6107fa366004614b06565b613846565b34801561080b57600080fd5b506102aa61081a366004614b06565b61399c565b6099546001600160a01b031633148061084157506099546001600160a01b0316155b6108925760405162461bcd60e51b815260206004820152601760248201527f43616c6c6572206973206e6f7420746865206f776e657200000000000000000060448201526064015b60405180910390fd5b60a1546001600160a01b03161580156108b357506001600160a01b03821615155b80156108c757506001600160a01b03811615155b6109135760405162461bcd60e51b815260206004820152601460248201527f496e76616c696420424f424120616464726573730000000000000000000000006044820152606401610889565b60a180546001600160a01b039384167fffffffffffffffffffffffff00000000000000000000000000000000000000009182161790915560a08054929093169116179055565b6001600160a01b03811660009081526097602052604090206004810154600382015410156109eb57600061099e82600301548360040154613aea90919063ffffffff16565b905081600201546000146109df5760028201546109d9906109ce906109c88464e8d4a51000613afd565b90613b09565b600584015490613b15565b60058301555b50600481015460038201555b5050565b60655460ff1615610a425760405162461bcd60e51b815260206004820152601060248201527f5061757361626c653a20706175736564000000000000000000000000000000006044820152606401610889565b60005a9050609e548111610abe5760405162461bcd60e51b815260206004820152602860248201527f496e73756666696369656e742047617320466f7220612052656c61792054726160448201527f6e73616374696f6e0000000000000000000000000000000000000000000000006064820152608401610889565b6000610ad5609e5483613aea90919063ffffffff16565b905060005b815a1115610af45780610aec81614cd0565b915050610ada565b34151580610b1f57506001600160a01b03841673420000000000000000000000000000000000000614155b610b915760405162461bcd60e51b815260206004820152603260248201527f45697468657220416d6f756e7420496e636f7272656374206f7220546f6b656e60448201527f204164647265737320496e636f727265637400000000000000000000000000006064820152608401610889565b3415801590610bbd57506001600160a01b03841673420000000000000000000000000000000000000614155b15610c305760405162461bcd60e51b815260206004820152603260248201527f45697468657220416d6f756e7420496e636f7272656374206f7220546f6b656e60448201527f204164647265737320496e636f727265637400000000000000000000000000006064820152608401610889565b3415610c515734945073420000000000000000000000000000000000000693505b6001600160a01b0380851660009081526097602052604090206001810154909116610cbe5760405162461bcd60e51b815260206004820152601c60248201527f546f6b656e2041646472657373204e6f742052656769737465726564000000006044820152606401610889565b60408051338152602081018890526001600160a01b0387168183015290517fe57500de6b6dcf76b201fef514aca6501809e3b700c9fbd5e803567c66edf54c9181900360600190a16001600160a01b03851673420000000000000000000000000000000000000614610d3f57610d3f6001600160a01b038616333089613b21565b805460408051336024820152604481018990526001600160a01b039283166064808301919091528251808303909101815260849091019091526020810180517bffffffffffffffffffffffffffffffffffffffffffffffffffffffff167fcf26fb1b00000000000000000000000000000000000000000000000000000000179052609a54609d549192610ddc9291169063ffffffff165b83613bf0565b50505050505050565b6099546001600160a01b0316331480610e0757506099546001600160a01b0316155b610e535760405162461bcd60e51b815260206004820152601760248201527f43616c6c6572206973206e6f7420746865206f776e65720000000000000000006044820152606401610889565b609a546001600160a01b0316610ed15760405162461bcd60e51b815260206004820152602560248201527f436f6e747261637420686173206e6f7420796574206265656e20696e6974696160448201527f6c697a65640000000000000000000000000000000000000000000000000000006064820152608401610889565b609d80547fffffffffffffffffffffffffffffffffffffffffffffffffffffffff000000001663ffffffff92909216919091179055565b6099546001600160a01b0316331480610f2a57506099546001600160a01b0316155b610f765760405162461bcd60e51b815260206004820152601760248201527f43616c6c6572206973206e6f7420746865206f776e65720000000000000000006044820152606401610889565b610f7e613c6b565b565b6099546001600160a01b0316331480610fa257506099546001600160a01b0316155b610fee5760405162461bcd60e51b815260206004820152601760248201527f43616c6c6572206973206e6f7420746865206f776e65720000000000000000006044820152606401610889565b60655460ff16156110415760405162461bcd60e51b815260206004820152601060248201527f5061757361626c653a20706175736564000000000000000000000000000000006044820152606401610889565b8161108e5760405162461bcd60e51b815260206004820152601260248201527f416d6f756e742063616e6e6f74206265203000000000000000000000000000006044820152606401610889565b6001600160a01b038082166000908152609760205260409020609a549091166110f95760405162461bcd60e51b815260206004820181905260248201527f4c31204c697175696469747920506f6f6c204e6f7420526567697374657265646044820152606401610889565b60018101546001600160a01b03166111535760405162461bcd60e51b815260206004820152601c60248201527f546f6b656e2041646472657373204e6f742052656769737465726564000000006044820152606401610889565b6001600160a01b03821673420000000000000000000000000000000000000614156112a857478311156111ee5760405162461bcd60e51b815260206004820152602260248201527f52657175657374656420455448206578636565647320706f6f6c2062616c616e60448201527f63650000000000000000000000000000000000000000000000000000000000006064820152608401610889565b609a54609d546040517fa3a795480000000000000000000000000000000000000000000000000000000081526001600160a01b03808616600483015290921660248301526044820185905263ffffffff16606482015260a06084820152600060a48201527342000000000000000000000000000000000000109063a3a795489060c401600060405180830381600087803b15801561128b57600080fd5b505af115801561129f573d6000803e3d6000fd5b50505050611462565b6040517f70a082310000000000000000000000000000000000000000000000000000000081523060048201526001600160a01b038316906370a082319060240160206040518083038186803b15801561130057600080fd5b505afa158015611314573d6000803e3d6000fd5b505050506040513d601f19601f820116820180604052508101906113389190614d09565b8311156113ac5760405162461bcd60e51b8152602060048201526024808201527f526571756573746564204552433230206578636565647320706f6f6c2062616c60448201527f616e6365000000000000000000000000000000000000000000000000000000006064820152608401610889565b609a54609d546040517fa3a795480000000000000000000000000000000000000000000000000000000081526001600160a01b03808616600483015290921660248301526044820185905263ffffffff16606482015260a06084820152600060a48201527342000000000000000000000000000000000000109063a3a795489060c401600060405180830381600087803b15801561144957600080fd5b505af115801561145d573d6000803e3d6000fd5b505050505b604080518481526001600160a01b03841660208201527f40637a7e139eeb28b936b8decebe78604164b2ade81ce7f4c70deb132e7614c2910160405180910390a1505050565b609d5464010000000090046001600160a01b0316331461150a5760405162461bcd60e51b815260206004820152601560248201527f43616c6c6572206973206e6f74207468652044414f00000000000000000000006044820152606401610889565b609a546001600160a01b03166115885760405162461bcd60e51b815260206004820152602560248201527f436f6e747261637420686173206e6f7420796574206265656e20696e6974696160448201527f6c697a65640000000000000000000000000000000000000000000000000000006064820152608401610889565b8183111580156115985750600083115b80156115a5575060328211155b80156115b2575060328111155b6116245760405162461bcd60e51b815260206004820152603c60248201527f7573657220616e64206f776e6572206665652072617465732073686f756c642060448201527f6265206c6f776572207468616e20352070657263656e742065616368000000006064820152608401610889565b60408051602481018590526044810184905260648082018490528251808303909101815260849091019091526020810180517bffffffffffffffffffffffffffffffffffffffffffffffffffffffff167fc58827ea00000000000000000000000000000000000000000000000000000000179052609a54609d546116b7916001600160a01b03169063ffffffff16610dd6565b50505050565b6099546001600160a01b03163314806116df57506099546001600160a01b0316155b61172b5760405162461bcd60e51b815260206004820152601760248201527f43616c6c6572206973206e6f7420746865206f776e65720000000000000000006044820152606401610889565b609a546001600160a01b0316156117845760405162461bcd60e51b815260206004820152601d60248201527f436f6e747261637420686173206265656e20696e697469616c697a65640000006044820152606401610889565b6000547501000000000000000000000000000000000000000000900460ff16806117c9575060005474010000000000000000000000000000000000000000900460ff16155b61183b5760405162461bcd60e51b815260206004820152602e60248201527f496e697469616c697a61626c653a20636f6e747261637420697320616c72656160448201527f647920696e697469616c697a65640000000000000000000000000000000000006064820152608401610889565b6000547501000000000000000000000000000000000000000000900460ff161580156118a257600080547fffffffffffffffffffff0000ffffffffffffffffffffffffffffffffffffffff1675010100000000000000000000000000000000000000001790555b6001600160a01b038316158015906118c257506001600160a01b03821615155b61190e5760405162461bcd60e51b815260206004820152601860248201527f7a65726f2061646472657373206e6f7420616c6c6f77656400000000000000006044820152606401610889565b600080547fffffffffffffffffffffffff00000000000000000000000000000000000000009081166001600160a01b0386811691909117909255609a80548216928516929092179091556099805433921682179055609d80547fffffffffffffffff0000000000000000000000000000000000000000ffffffff166401000000009092029190911790556119a66001600a600f613114565b6119b2620186a0610de5565b6119ba613d25565b6119c2613e75565b6119ca613fec565b80156119f957600080547fffffffffffffffffffff00ffffffffffffffffffffffffffffffffffffffffff1690555b505050565b60655460ff1615611a515760405162461bcd60e51b815260206004820152601060248201527f5061757361626c653a20706175736564000000000000000000000000000000006044820152606401610889565b6001600160a01b0380831660009081526097602090815260408083206098835281842033855290925290912060018201549192909116611ad35760405162461bcd60e51b815260206004820152601c60248201527f546f6b656e2041646472657373204e6f742052656769737465726564000000006044820152606401610889565b6000611b15611b0a8360010154611b0464e8d4a510006109c888600501548860000154613afd90919063ffffffff16565b90613aea565b600284015490613b15565b905085811015611b8d5760405162461bcd60e51b815260206004820152602660248201527f52657175657374656420616d6f756e7420657863656564732070656e64696e6760448201527f52657761726400000000000000000000000000000000000000000000000000006064820152608401610889565b611b978187613aea565b600283015560058301548254611bb79164e8d4a51000916109c891613afd565b6001830155604080513381526001600160a01b0386811660208301528183018990528716606082015290517f3cb7cb475a33eda02ee6e719b6c2fc0c899157cfc6f098daf545354dbbce41ec9181900360800190a16001600160a01b03851673420000000000000000000000000000000000000614611c4957611c446001600160a01b038616858861413f565b611cf0565b6000846001600160a01b03166108fc88604051600060405180830381858888f193505050503d8060008114611c9a576040519150601f19603f3d011682016040523d82523d6000602084013e611c9f565b606091505b5050905080610ddc5760405162461bcd60e51b815260206004820152601660248201527f4661696c656420746f2073656e64206f766d5f457468000000000000000000006044820152606401610889565b505050505050565b609a546001600160a01b0316611d765760405162461bcd60e51b815260206004820152602560248201527f436f6e747261637420686173206e6f7420796574206265656e20696e6974696160448201527f6c697a65640000000000000000000000000000000000000000000000000000006064820152608401610889565b609a546001600160a01b0316611d946000546001600160a01b031690565b6001600160a01b0316336001600160a01b031614611e1a5760405162461bcd60e51b815260206004820152602e60248201527f4f564d5f58434841494e3a206d657373656e67657220636f6e7472616374207560448201527f6e61757468656e746963617465640000000000000000000000000000000000006064820152608401610889565b806001600160a01b0316611e366000546001600160a01b031690565b6001600160a01b0316636e296e456040518163ffffffff1660e01b815260040160206040518083038186803b158015611e6e57600080fd5b505afa158015611e82573d6000803e3d6000fd5b505050506040513d601f19601f82011682018060405250810190611ea69190614d22565b6001600160a01b031614611f225760405162461bcd60e51b815260206004820152603060248201527f4f564d5f58434841494e3a2077726f6e672073656e646572206f662063726f7360448201527f732d646f6d61696e206d657373616765000000000000000000000000000000006064820152608401610889565b60655460ff1615611f755760405162461bcd60e51b815260206004820152601060248201527f5061757361626c653a20706175736564000000000000000000000000000000006044820152606401610889565b6001600160a01b038216600090815260976020526040812090611f9784613682565b90506000611fab6103e86109c88885613afd565b90506000611fca6103e86109c8609c548a613afd90919063ffffffff16565b90506000611fd88383613b15565b90506000611fe68983613aea565b6004870154909150611ff89085613b15565b6004870155600686015461200c9084613b15565b6006870155604080516001600160a01b038c811682526020820184905281830187905260608201869052608082018590528a1660a082015290517ff1068421680e00dfc2c4f3fc20c7f565bf1ec365420e7544365bae13d5cbc8c89181900360c00190a16001600160a01b038816734200000000000000000000000000000000000006146120ad576120a86001600160a01b0389168b8361413f565b612156565b60008a6001600160a01b03166108fc83604051600060405180830381858888f193505050503d80600081146120fe576040519150601f19603f3d011682016040523d82523d6000602084013e612103565b606091505b50509050806121545760405162461bcd60e51b815260206004820152601660248201527f4661696c656420746f2073656e64206f766d5f457468000000000000000000006044820152606401610889565b505b50505050505050505050565b60655460ff16156121b55760405162461bcd60e51b815260206004820152601060248201527f5061757361626c653a20706175736564000000000000000000000000000000006044820152606401610889565b6001600160a01b03808316600090815260976020908152604080832060988352818420338552909252909120600182015491929091166122375760405162461bcd60e51b815260206004820152601c60248201527f546f6b656e2041646472657373204e6f742052656769737465726564000000006044820152606401610889565b80548511156122ae5760405162461bcd60e51b815260206004820152602660248201527f52657175657374656420616d6f756e74206578636565647320616d6f756e742060448201527f7374616b656400000000000000000000000000000000000000000000000000006064820152608401610889565b6122b784614188565b6122c084610959565b6122fa6122ef8260010154611b0464e8d4a510006109c887600501548760000154613afd90919063ffffffff16565b600283015490613b15565b6002820155805461230b9086613aea565b80825560058301546123289164e8d4a51000916109c89190613afd565b6001820155600282015461233c9086613aea565b6002830155604080513381526001600160a01b0385811660208301528183018890528616606082015290517ffa2e8fcf14fd6ea11b6ebe7caf7de210198b8fe1eaf0e06d19f8d87c73860c469181900360800190a16001600160a01b038416734200000000000000000000000000000000000006146123ce576123c96001600160a01b038516848761413f565b612477565b6000836001600160a01b03166108fc87604051600060405180830381858888f193505050503d806000811461241f576040519150601f19603f3d011682016040523d82523d6000602084013e612424565b606091505b50509050806124755760405162461bcd60e51b815260206004820152601660248201527f4661696c656420746f2073656e64206f766d5f457468000000000000000000006044820152606401610889565b505b61248185856142b7565b5050505050565b6099546001600160a01b03163314806124aa57506099546001600160a01b0316155b6124f65760405162461bcd60e51b815260206004820152601760248201527f43616c6c6572206973206e6f7420746865206f776e65720000000000000000006044820152606401610889565b806001600160a01b0316826001600160a01b0316141561257e5760405162461bcd60e51b815260206004820152602860248201527f6c3120616e64206c3220746f6b656e206164647265737365732063616e6e6f7460448201527f2062652073616d650000000000000000000000000000000000000000000000006064820152608401610889565b6001600160a01b0381166125fa5760405162461bcd60e51b815260206004820152602760248201527f6c3220746f6b656e20616464726573732063616e6e6f74206265207a65726f2060448201527f61646472657373000000000000000000000000000000000000000000000000006064820152608401610889565b6001600160a01b0380821660009081526097602052604090206001810154909116156126685760405162461bcd60e51b815260206004820181905260248201527f546f6b656e204164647265737320416c726561647920526567697374657265646044820152606401610889565b5060408051610100810182526001600160a01b03938416815291831660208084018281526000858501818152606087018281526080880183815260a0890184815260c08a018581524260e08c0190815298865260979097529790932097518854908a167fffffffffffffffffffffffff0000000000000000000000000000000000000000918216178955935160018901805491909a16941693909317909755955160028601555160038501559351600484015590516005830155915160068201559051600790910155565b6099546001600160a01b031633148061275557506099546001600160a01b0316155b6127a15760405162461bcd60e51b815260206004820152601760248201527f43616c6c6572206973206e6f7420746865206f776e65720000000000000000006044820152606401610889565b6001600160a01b038083166000908152609760205260409020600181015490911661280e5760405162461bcd60e51b815260206004820152601c60248201527f546f6b656e2041646472657373204e6f742052656769737465726564000000006044820152606401610889565b83816006015410156128625760405162461bcd60e51b815260206004820152601f60248201527f52657175657374656420616d6f756e74206578636565647320726577617264006044820152606401610889565b60068101546128719085613aea565b6006820155604080513381526001600160a01b0384811660208301528183018790528516606082015290517f3cb71b9a1fb601579f96812b9f86ab5e914fc3e54c98d5f84d95581b2b9884f39181900360800190a16001600160a01b03831673420000000000000000000000000000000000000614612903576128fe6001600160a01b038416838661413f565b6116b7565b6000826001600160a01b03166108fc86604051600060405180830381858888f193505050503d8060008114612954576040519150601f19603f3d011682016040523d82523d6000602084013e612959565b606091505b50509050806124815760405162461bcd60e51b815260206004820152601660248201527f4661696c656420746f2073656e64206f766d5f457468000000000000000000006044820152606401610889565b6099546001600160a01b03163314806129cc57506099546001600160a01b0316155b612a185760405162461bcd60e51b815260206004820152601760248201527f43616c6c6572206973206e6f7420746865206f776e65720000000000000000006044820152606401610889565b610f7e61435d565b609a546001600160a01b0316612a9e5760405162461bcd60e51b815260206004820152602560248201527f436f6e747261637420686173206e6f7420796574206265656e20696e6974696160448201527f6c697a65640000000000000000000000000000000000000000000000000000006064820152608401610889565b609a546001600160a01b0316612abc6000546001600160a01b031690565b6001600160a01b0316336001600160a01b031614612b425760405162461bcd60e51b815260206004820152602e60248201527f4f564d5f58434841494e3a206d657373656e67657220636f6e7472616374207560448201527f6e61757468656e746963617465640000000000000000000000000000000000006064820152608401610889565b806001600160a01b0316612b5e6000546001600160a01b031690565b6001600160a01b0316636e296e456040518163ffffffff1660e01b815260040160206040518083038186803b158015612b9657600080fd5b505afa158015612baa573d6000803e3d6000fd5b505050506040513d601f19601f82011682018060405250810190612bce9190614d22565b6001600160a01b031614612c4a5760405162461bcd60e51b815260206004820152603060248201527f4f564d5f58434841494e3a2077726f6e672073656e646572206f662063726f7360448201527f732d646f6d61696e206d657373616765000000000000000000000000000000006064820152608401610889565b60655460ff1615612c9d5760405162461bcd60e51b815260206004820152601060248201527f5061757361626c653a20706175736564000000000000000000000000000000006044820152606401610889565b60005b828110156116b7576000848483818110612cbc57612cbc614d3f565b905060600201803603810190612cd29190614d6e565b9050612ceb816000015182604001518360200151614403565b5080612cf681614cd0565b915050612ca0565b73420000000000000000000000000000000000000f6001600160a01b0316638da5cb5b6040518163ffffffff1660e01b815260040160206040518083038186803b158015612d4b57600080fd5b505afa158015612d5f573d6000803e3d6000fd5b505050506040513d601f19601f82011682018060405250810190612d839190614d22565b6001600160a01b0316336001600160a01b031614612e095760405162461bcd60e51b815260206004820152602660248201527f43616c6c6572206973206e6f74207468652067617350726963654f7261636c6560448201527f206f776e657200000000000000000000000000000000000000000000000000006064820152608401610889565b609a546001600160a01b0316612e875760405162461bcd60e51b815260206004820152602560248201527f436f6e747261637420686173206e6f7420796574206265656e20696e6974696160448201527f6c697a65640000000000000000000000000000000000000000000000000000006064820152608401610889565b609e55565b609a546001600160a01b0316612f0a5760405162461bcd60e51b815260206004820152602560248201527f436f6e747261637420686173206e6f7420796574206265656e20696e6974696160448201527f6c697a65640000000000000000000000000000000000000000000000000000006064820152608401610889565b609a546001600160a01b0316612f286000546001600160a01b031690565b6001600160a01b0316336001600160a01b031614612fae5760405162461bcd60e51b815260206004820152602e60248201527f4f564d5f58434841494e3a206d657373656e67657220636f6e7472616374207560448201527f6e61757468656e746963617465640000000000000000000000000000000000006064820152608401610889565b806001600160a01b0316612fca6000546001600160a01b031690565b6001600160a01b0316636e296e456040518163ffffffff1660e01b815260040160206040518083038186803b15801561300257600080fd5b505afa158015613016573d6000803e3d6000fd5b505050506040513d601f19601f8201168201806040525081019061303a9190614d22565b6001600160a01b0316146130b65760405162461bcd60e51b815260206004820152603060248201527f4f564d5f58434841494e3a2077726f6e672073656e646572206f662063726f7360448201527f732d646f6d61696e206d657373616765000000000000000000000000000000006064820152608401610889565b60655460ff16156131095760405162461bcd60e51b815260206004820152601060248201527f5061757361626c653a20706175736564000000000000000000000000000000006044820152606401610889565b6116b7848484614403565b609d5464010000000090046001600160a01b031633146131765760405162461bcd60e51b815260206004820152601560248201527f43616c6c6572206973206e6f74207468652044414f00000000000000000000006044820152606401610889565b609a546001600160a01b03166131f45760405162461bcd60e51b815260206004820152602560248201527f436f6e747261637420686173206e6f7420796574206265656e20696e6974696160448201527f6c697a65640000000000000000000000000000000000000000000000000000006064820152608401610889565b8183111580156132045750600083115b8015613211575060328211155b801561321e575060328111155b6132905760405162461bcd60e51b815260206004820152603c60248201527f7573657220616e64206f776e6572206665652072617465732073686f756c642060448201527f6265206c6f776572207468616e20352070657263656e742065616368000000006064820152608401610889565b609b92909255609f55609c55565b600260015414156132f15760405162461bcd60e51b815260206004820152601f60248201527f5265656e7472616e637947756172643a207265656e7472616e742063616c6c006044820152606401610889565b600260015560655460ff16156133495760405162461bcd60e51b815260206004820152601060248201527f5061757361626c653a20706175736564000000000000000000000000000000006044820152606401610889565b3415158061337457506001600160a01b03811673420000000000000000000000000000000000000614155b6133e65760405162461bcd60e51b815260206004820152603260248201527f45697468657220416d6f756e7420496e636f7272656374206f7220546f6b656e60448201527f204164647265737320496e636f727265637400000000000000000000000000006064820152608401610889565b341580159061341257506001600160a01b03811673420000000000000000000000000000000000000614155b156134855760405162461bcd60e51b815260206004820152603260248201527f45697468657220416d6f756e7420496e636f7272656374206f7220546f6b656e60448201527f204164647265737320496e636f727265637400000000000000000000000000006064820152608401610889565b34156134a557503490507342000000000000000000000000000000000000065b6001600160a01b03808216600090815260976020908152604080832060988352818420338552909252909120600182015491929091166135275760405162461bcd60e51b815260206004820152601c60248201527f546f6b656e2041646472657373204e6f742052656769737465726564000000006044820152606401610889565b61353083614188565b61353983610959565b8054156135a55761356f6122ef8260010154611b0464e8d4a510006109c887600501548760000154613afd90919063ffffffff16565b60028201556005820154815461359b9164e8d4a51000916109c891906135959089613b15565b90613afd565b60018201556135cb565b6135c564e8d4a510006109c8846005015487613afd90919063ffffffff16565b60018201555b80546135d79085613b15565b815560028201546135e89085613b15565b600283015560408051338152602081018690526001600160a01b0385168183015290517f5852d1d46e583f7e92c2a572221de0e681d82ef71f489847e056b9445c0147369181900360600190a16001600160a01b0383167342000000000000000000000000000000000000061461366e5761366e6001600160a01b038416333087613b21565b61367884846147c8565b5050600180555050565b609a546000906001600160a01b03166137035760405162461bcd60e51b815260206004820152602560248201527f436f6e747261637420686173206e6f7420796574206265656e20696e6974696160448201527f6c697a65640000000000000000000000000000000000000000000000000000006064820152608401610889565b6001600160a01b03821660008181526097602052604081206002810154909290919073420000000000000000000000000000000000000614156137475750476137da565b6040517f70a082310000000000000000000000000000000000000000000000000000000081523060048201526001600160a01b038616906370a082319060240160206040518083038186803b15801561379f57600080fd5b505afa1580156137b3573d6000803e3d6000fd5b505050506040513d601f19601f820116820180604052508101906137d79190614d09565b90505b806137eb575050609f549392505050565b60008183609b546137fc9190614e00565b6138069190614e3d565b905080609b54111561381f575050609b54949350505050565b80609f541015613836575050609f54949350505050565b935061384192505050565b919050565b6099546001600160a01b031633148061386857506099546001600160a01b0316155b6138b45760405162461bcd60e51b815260206004820152601760248201527f43616c6c6572206973206e6f7420746865206f776e65720000000000000000006044820152606401610889565b6001600160a01b03811661392f5760405162461bcd60e51b8152602060048201526024808201527f4e6577206f776e65722063616e6e6f7420626520746865207a65726f2061646460448201527f72657373000000000000000000000000000000000000000000000000000000006064820152608401610889565b609980547fffffffffffffffffffffffff0000000000000000000000000000000000000000166001600160a01b0383169081179091556040519081527f04dba622d284ed0014ee4b9a6a68386be1a4c08a4913ae272de89199cc686163906020015b60405180910390a150565b609d5464010000000090046001600160a01b031633146139fe5760405162461bcd60e51b815260206004820152601560248201527f43616c6c6572206973206e6f74207468652044414f00000000000000000000006044820152606401610889565b6001600160a01b038116613a7a5760405162461bcd60e51b815260206004820152602a60248201527f4e65772044414f20616464726573732063616e6e6f7420626520746865207a6560448201527f726f2061646472657373000000000000000000000000000000000000000000006064820152608401610889565b609d80547fffffffffffffffff0000000000000000000000000000000000000000ffffffff166401000000006001600160a01b038416908102919091179091556040519081527fcbd426f7d93b6fa3ff268c099102ab716488e9831c27880216aea6c689da297d90602001613991565b6000613af68284614e78565b9392505050565b6000613af68284614e00565b6000613af68284614e3d565b6000613af68284614e8f565b6040516001600160a01b03808516602483015283166044820152606481018290526116b79085907f23b872dd00000000000000000000000000000000000000000000000000000000906084015b604080517fffffffffffffffffffffffffffffffffffffffffffffffffffffffffffffffe08184030181529190526020810180517bffffffffffffffffffffffffffffffffffffffffffffffffffffffff167fffffffff0000000000000000000000000000000000000000000000000000000090931692909217909152614844565b6000546040517f3dbb202b0000000000000000000000000000000000000000000000000000000081526001600160a01b0390911690633dbb202b90613c3d90869085908790600401614f1d565b600060405180830381600087803b158015613c5757600080fd5b505af1158015610ddc573d6000803e3d6000fd5b60655460ff16613cbd5760405162461bcd60e51b815260206004820152601460248201527f5061757361626c653a206e6f74207061757365640000000000000000000000006044820152606401610889565b606580547fffffffffffffffffffffffffffffffffffffffffffffffffffffffffffffff001690557f5db9ee0a495bf2e6ff9c91a7834c1ba4fdd244a5e8aa4e537bd38aeae4b073aa335b6040516001600160a01b03909116815260200160405180910390a1565b6000547501000000000000000000000000000000000000000000900460ff1680613d6a575060005474010000000000000000000000000000000000000000900460ff16155b613ddc5760405162461bcd60e51b815260206004820152602e60248201527f496e697469616c697a61626c653a20636f6e747261637420697320616c72656160448201527f647920696e697469616c697a65640000000000000000000000000000000000006064820152608401610889565b6000547501000000000000000000000000000000000000000000900460ff16158015613e4357600080547fffffffffffffffffffff0000ffffffffffffffffffffffffffffffffffffffff1675010100000000000000000000000000000000000000001790555b8015613e7257600080547fffffffffffffffffffff00ffffffffffffffffffffffffffffffffffffffffff1690555b50565b6000547501000000000000000000000000000000000000000000900460ff1680613eba575060005474010000000000000000000000000000000000000000900460ff16155b613f2c5760405162461bcd60e51b815260206004820152602e60248201527f496e697469616c697a61626c653a20636f6e747261637420697320616c72656160448201527f647920696e697469616c697a65640000000000000000000000000000000000006064820152608401610889565b6000547501000000000000000000000000000000000000000000900460ff16158015613f9357600080547fffffffffffffffffffff0000ffffffffffffffffffffffffffffffffffffffff1675010100000000000000000000000000000000000000001790555b606580547fffffffffffffffffffffffffffffffffffffffffffffffffffffffffffffff001690558015613e7257600080547fffffffffffffffffffff00ffffffffffffffffffffffffffffffffffffffffff16905550565b6000547501000000000000000000000000000000000000000000900460ff1680614031575060005474010000000000000000000000000000000000000000900460ff16155b6140a35760405162461bcd60e51b815260206004820152602e60248201527f496e697469616c697a61626c653a20636f6e747261637420697320616c72656160448201527f647920696e697469616c697a65640000000000000000000000000000000000006064820152608401610889565b6000547501000000000000000000000000000000000000000000900460ff1615801561410a57600080547fffffffffffffffffffff0000ffffffffffffffffffffffffffffffffffffffff1675010100000000000000000000000000000000000000001790555b600180558015613e7257600080547fffffffffffffffffffff00ffffffffffffffffffffffffffffffffffffffffff16905550565b6040516001600160a01b0383166024820152604481018290526119f99084907fa9059cbb0000000000000000000000000000000000000000000000000000000090606401613b6e565b33600090815260a2602052604090205460ff161580156141b5575060a1546001600160a01b038281169116145b80156141cb575060a1546001600160a01b031615155b15613e72576001600160a01b0381166000908152609860209081526040808320338452909152902080541561427b5760a05481546040517f40c10f1900000000000000000000000000000000000000000000000000000000815233600482015260248101919091526001600160a01b03909116906340c10f1990604401600060405180830381600087803b15801561426257600080fd5b505af1158015614276573d6000803e3d6000fd5b505050505b5033600090815260a26020526040902080547fffffffffffffffffffffffffffffffffffffffffffffffffffffffffffffff0016600117905550565b60a1546001600160a01b0382811691161480156142de575060a1546001600160a01b031615155b156109eb5760a0546040517f9dc29fac000000000000000000000000000000000000000000000000000000008152336004820152602481018490526001600160a01b0390911690639dc29fac906044015b600060405180830381600087803b15801561434957600080fd5b505af1158015611cf0573d6000803e3d6000fd5b60655460ff16156143b05760405162461bcd60e51b815260206004820152601060248201527f5061757361626c653a20706175736564000000000000000000000000000000006044820152606401610889565b606580547fffffffffffffffffffffffffffffffffffffffffffffffffffffffffffffff001660011790557f62e78cea01bee320cd4e420270b5ea74000d11b0c9f74754ebdbfc544b05a258613d083390565b6001600160a01b038082166000908152609760205260408120600181015491929091166144725760405162461bcd60e51b815260206004820152601c60248201527f546f6b656e2041646472657373204e6f742052656769737465726564000000006044820152606401610889565b600061447d84613682565b905060006144916103e86109c88885613afd565b905060006144b06103e86109c8609c548a613afd90919063ffffffff16565b905060006144be8383613b15565b905060006144cc8983613aea565b90506001600160a01b038816734200000000000000000000000000000000000006146145d3576040517f70a082310000000000000000000000000000000000000000000000000000000081523060048201526001600160a01b038916906370a082319060240160206040518083038186803b15801561454a57600080fd5b505afa15801561455e573d6000803e3d6000fd5b505050506040513d601f19601f820116820180604052508101906145829190614d09565b81111561459257600196506146b4565b60048601546145a19085613b15565b600487015560068601546145b59084613b15565b60068701556145ce6001600160a01b0389168b8361413f565b6146b4565b478111156145e457600196506146b4565b60048601546145f39085613b15565b600487015560068601546146079084613b15565b60068701556040516000906001600160a01b038c16906108fc90849084818181858888f193505050503d806000811461465c576040519150601f19603f3d011682016040523d82523d6000602084013e614661565b606091505b50509050806146b25760405162461bcd60e51b815260206004820152601660248201527f4661696c656420746f2073656e64206f766d5f457468000000000000000000006044820152606401610889565b505b861561475d578554604080516001600160a01b038d81166024830152604482018d90529283166064808301919091528251808303909101815260849091019091526020810180517bffffffffffffffffffffffffffffffffffffffffffffffffffffffff167f53174cc100000000000000000000000000000000000000000000000000000000179052609a54609d5491926147579291169063ffffffff16610dd6565b50612156565b604080516001600160a01b038c811682526020820184905281830187905260608201869052608082018590528a1660a082015290517fedb4d3b4b55168608412f15db11c00859915842963c31b1f08d910a38e1d6aa49181900360c00190a150505050505050505050565b60a1546001600160a01b0382811691161480156147ef575060a1546001600160a01b031615155b156109eb5760a0546040517f40c10f19000000000000000000000000000000000000000000000000000000008152336004820152602481018490526001600160a01b03909116906340c10f199060440161432f565b6000614899826040518060400160405280602081526020017f5361666545524332303a206c6f772d6c6576656c2063616c6c206661696c6564815250856001600160a01b03166149299092919063ffffffff16565b8051909150156119f957808060200190518101906148b79190614f55565b6119f95760405162461bcd60e51b815260206004820152602a60248201527f5361666545524332303a204552433230206f7065726174696f6e20646964206e60448201527f6f742073756363656564000000000000000000000000000000000000000000006064820152608401610889565b60606149388484600085614940565b949350505050565b6060824710156149b85760405162461bcd60e51b815260206004820152602660248201527f416464726573733a20696e73756666696369656e742062616c616e636520666f60448201527f722063616c6c00000000000000000000000000000000000000000000000000006064820152608401610889565b843b614a065760405162461bcd60e51b815260206004820152601d60248201527f416464726573733a2063616c6c20746f206e6f6e2d636f6e74726163740000006044820152606401610889565b600080866001600160a01b03168587604051614a229190614f77565b60006040518083038185875af1925050503d8060008114614a5f576040519150601f19603f3d011682016040523d82523d6000602084013e614a64565b606091505b5091509150614a74828286614a7f565b979650505050505050565b60608315614a8e575081613af6565b825115614a9e5782518084602001fd5b8160405162461bcd60e51b81526004016108899190614f93565b6001600160a01b0381168114613e7257600080fd5b60008060408385031215614ae057600080fd5b8235614aeb81614ab8565b91506020830135614afb81614ab8565b809150509250929050565b600060208284031215614b1857600080fd5b8135613af681614ab8565b60008060408385031215614b3657600080fd5b823591506020830135614afb81614ab8565b600060208284031215614b5a57600080fd5b813563ffffffff81168114613af657600080fd5b600080600060608486031215614b8357600080fd5b505081359360208301359350604090920135919050565b600080600060608486031215614baf57600080fd5b833592506020840135614bc181614ab8565b91506040840135614bd181614ab8565b809150509250925092565b600080600060608486031215614bf157600080fd5b8335614bfc81614ab8565b9250602084013591506040840135614bd181614ab8565b60008060208385031215614c2657600080fd5b823567ffffffffffffffff80821115614c3e57600080fd5b818501915085601f830112614c5257600080fd5b813581811115614c6157600080fd5b866020606083028501011115614c7657600080fd5b60209290920196919550909350505050565b600060208284031215614c9a57600080fd5b5035919050565b7f4e487b7100000000000000000000000000000000000000000000000000000000600052601160045260246000fd5b60007fffffffffffffffffffffffffffffffffffffffffffffffffffffffffffffffff821415614d0257614d02614ca1565b5060010190565b600060208284031215614d1b57600080fd5b5051919050565b600060208284031215614d3457600080fd5b8151613af681614ab8565b7f4e487b7100000000000000000000000000000000000000000000000000000000600052603260045260246000fd5b600060608284031215614d8057600080fd5b6040516060810181811067ffffffffffffffff82111715614dca577f4e487b7100000000000000000000000000000000000000000000000000000000600052604160045260246000fd5b6040528235614dd881614ab8565b81526020830135614de881614ab8565b60208201526040928301359281019290925250919050565b6000817fffffffffffffffffffffffffffffffffffffffffffffffffffffffffffffffff0483118215151615614e3857614e38614ca1565b500290565b600082614e73577f4e487b7100000000000000000000000000000000000000000000000000000000600052601260045260246000fd5b500490565b600082821015614e8a57614e8a614ca1565b500390565b60008219821115614ea257614ea2614ca1565b500190565b60005b83811015614ec2578181015183820152602001614eaa565b838111156116b75750506000910152565b60008151808452614eeb816020860160208601614ea7565b601f017fffffffffffffffffffffffffffffffffffffffffffffffffffffffffffffffe0169290920160200192915050565b6001600160a01b0384168152606060208201526000614f3f6060830185614ed3565b905063ffffffff83166040830152949350505050565b600060208284031215614f6757600080fd5b81518015158114613af657600080fd5b60008251614f89818460208701614ea7565b9190910192915050565b602081526000613af66020830184614ed356fea164736f6c6343000809000a",
  "linkReferences": {},
  "deployedLinkReferences": {}
}