{
  "_format": "hh-sol-artifact-1",
  "contractName": "Helper_GasMeasurer",
  "sourceName": "contracts/test-helpers/Helper_GasMeasurer.sol",
  "abi": [
    {
      "inputs": [
        {
          "internalType": "address",
          "name": "_target",
          "type": "address"
        },
        {
          "internalType": "bytes",
          "name": "_data",
          "type": "bytes"
        }
      ],
      "name": "measureCallGas",
      "outputs": [
        {
          "internalType": "uint256",
          "name": "",
          "type": "uint256"
        }
      ],
      "stateMutability": "nonpayable",
      "type": "function"
    }
  ],
  "bytecode": "0x608060405234801561001057600080fd5b506102b8806100206000396000f3fe608060405234801561001057600080fd5b506004361061002b5760003560e01c8063df0495a114610030575b600080fd5b61004361003e366004610172565b610055565b60405190815260200160405180910390f35b8051600090819081906020850190825a9450600080838560008c5af190505a93508061012d576040517f08c379a000000000000000000000000000000000000000000000000000000000815260206004820152604160248201527f43616c6c206661696c65642c206275742063616c6c732077652077616e74207460448201527f6f206d6561737572652067617320666f722073686f756c64207375636365656460648201527f2100000000000000000000000000000000000000000000000000000000000000608482015260a40160405180910390fd5b610137848661026d565b98975050505050505050565b7f4e487b7100000000000000000000000000000000000000000000000000000000600052604160045260246000fd5b6000806040838503121561018557600080fd5b823573ffffffffffffffffffffffffffffffffffffffff811681146101a957600080fd5b9150602083013567ffffffffffffffff808211156101c657600080fd5b818501915085601f8301126101da57600080fd5b8135818111156101ec576101ec610143565b604051601f82017fffffffffffffffffffffffffffffffffffffffffffffffffffffffffffffffe0908116603f0116810190838211818310171561023257610232610143565b8160405282815288602084870101111561024b57600080fd5b8260208601602083013760006020848301015280955050505050509250929050565b6000828210156102a6577f4e487b7100000000000000000000000000000000000000000000000000000000600052601160045260246000fd5b50039056fea164736f6c6343000808000a",
  "linkReferences": {},
  "deployedLinkReferences": {}
}