{
  "_format": "hh-sol-artifact-1",
  "contractName": "L2LiquidityPool",
  "sourceName": "contracts/LP/L2LiquidityPool.sol",
  "abi": [
    {
      "inputs": [],
      "stateMutability": "nonpayable",
      "type": "constructor"
    },
    {
      "anonymous": false,
      "inputs": [
        {
          "indexed": false,
          "internalType": "address",
          "name": "sender",
          "type": "address"
        },
        {
          "indexed": false,
          "internalType": "uint256",
          "name": "amount",
          "type": "uint256"
        },
        {
          "indexed": false,
          "internalType": "address",
          "name": "tokenAddress",
          "type": "address"
        }
      ],
      "name": "AddLiquidity",
      "type": "event"
    },
    {
      "anonymous": false,
      "inputs": [
        {
          "indexed": false,
          "internalType": "address",
          "name": "sender",
          "type": "address"
        },
        {
          "indexed": false,
          "internalType": "uint256",
          "name": "receivedAmount",
          "type": "uint256"
        },
        {
          "indexed": false,
          "internalType": "address",
          "name": "tokenAddress",
          "type": "address"
        }
      ],
      "name": "ClientDepositL2",
      "type": "event"
    },
    {
      "anonymous": false,
      "inputs": [
        {
          "indexed": false,
          "internalType": "address",
          "name": "sender",
          "type": "address"
        },
        {
          "indexed": false,
          "internalType": "uint256",
          "name": "amount",
          "type": "uint256"
        },
        {
          "indexed": false,
          "internalType": "uint256",
          "name": "userRewardFee",
          "type": "uint256"
        },
        {
          "indexed": false,
          "internalType": "uint256",
          "name": "ownerRewardFee",
          "type": "uint256"
        },
        {
          "indexed": false,
          "internalType": "uint256",
          "name": "totalFee",
          "type": "uint256"
        },
        {
          "indexed": false,
          "internalType": "address",
          "name": "tokenAddress",
          "type": "address"
        }
      ],
      "name": "ClientPayL2",
      "type": "event"
    },
    {
      "anonymous": false,
      "inputs": [
        {
          "indexed": false,
          "internalType": "address",
          "name": "sender",
          "type": "address"
        },
        {
          "indexed": false,
          "internalType": "uint256",
          "name": "amount",
          "type": "uint256"
        },
        {
          "indexed": false,
          "internalType": "uint256",
          "name": "userRewardFee",
          "type": "uint256"
        },
        {
          "indexed": false,
          "internalType": "uint256",
          "name": "ownerRewardFee",
          "type": "uint256"
        },
        {
          "indexed": false,
          "internalType": "uint256",
          "name": "totalFee",
          "type": "uint256"
        },
        {
          "indexed": false,
          "internalType": "address",
          "name": "tokenAddress",
          "type": "address"
        }
      ],
      "name": "ClientPayL2Settlement",
      "type": "event"
    },
    {
      "anonymous": false,
      "inputs": [
        {
          "indexed": false,
          "internalType": "address",
          "name": "sender",
          "type": "address"
        },
        {
          "indexed": false,
          "internalType": "address",
          "name": "receiver",
          "type": "address"
        },
        {
          "indexed": false,
          "internalType": "uint256",
          "name": "amount",
          "type": "uint256"
        },
        {
          "indexed": false,
          "internalType": "address",
          "name": "tokenAddress",
          "type": "address"
        }
      ],
      "name": "OwnerRecoverFee",
      "type": "event"
    },
    {
      "anonymous": false,
      "inputs": [
        {
          "indexed": false,
          "internalType": "address",
          "name": "account",
          "type": "address"
        }
      ],
      "name": "Paused",
      "type": "event"
    },
    {
      "anonymous": false,
      "inputs": [
        {
          "indexed": false,
          "internalType": "uint256",
          "name": "amount",
          "type": "uint256"
        },
        {
          "indexed": false,
          "internalType": "address",
          "name": "tokenAddress",
          "type": "address"
        }
      ],
      "name": "RebalanceLP",
      "type": "event"
    },
    {
      "anonymous": false,
      "inputs": [
        {
          "indexed": false,
          "internalType": "address",
          "name": "account",
          "type": "address"
        }
      ],
      "name": "Unpaused",
      "type": "event"
    },
    {
      "anonymous": false,
      "inputs": [
        {
          "indexed": false,
          "internalType": "address",
          "name": "sender",
          "type": "address"
        },
        {
          "indexed": false,
          "internalType": "address",
          "name": "receiver",
          "type": "address"
        },
        {
          "indexed": false,
          "internalType": "uint256",
          "name": "amount",
          "type": "uint256"
        },
        {
          "indexed": false,
          "internalType": "address",
          "name": "tokenAddress",
          "type": "address"
        }
      ],
      "name": "WithdrawLiquidity",
      "type": "event"
    },
    {
      "anonymous": false,
      "inputs": [
        {
          "indexed": false,
          "internalType": "address",
          "name": "sender",
          "type": "address"
        },
        {
          "indexed": false,
          "internalType": "address",
          "name": "receiver",
          "type": "address"
        },
        {
          "indexed": false,
          "internalType": "uint256",
          "name": "amount",
          "type": "uint256"
        },
        {
          "indexed": false,
          "internalType": "address",
          "name": "tokenAddress",
          "type": "address"
        }
      ],
      "name": "WithdrawReward",
      "type": "event"
    },
    {
      "inputs": [],
      "name": "DAO",
      "outputs": [
        {
          "internalType": "address",
          "name": "",
          "type": "address"
        }
      ],
      "stateMutability": "view",
      "type": "function"
    },
    {
      "inputs": [],
      "name": "DEFAULT_FINALIZE_WITHDRAWAL_L1_GAS",
      "outputs": [
        {
          "internalType": "uint32",
          "name": "",
          "type": "uint32"
        }
      ],
      "stateMutability": "view",
      "type": "function"
    },
    {
      "inputs": [],
      "name": "L1LiquidityPoolAddress",
      "outputs": [
        {
          "internalType": "address",
          "name": "",
          "type": "address"
        }
      ],
      "stateMutability": "view",
      "type": "function"
    },
    {
      "inputs": [
        {
          "internalType": "uint256",
          "name": "_amount",
          "type": "uint256"
        },
        {
          "internalType": "address",
          "name": "_tokenAddress",
          "type": "address"
        }
      ],
      "name": "addLiquidity",
      "outputs": [],
      "stateMutability": "payable",
      "type": "function"
    },
    {
      "inputs": [
        {
          "internalType": "uint256",
          "name": "_amount",
          "type": "uint256"
        },
        {
          "internalType": "address",
          "name": "_tokenAddress",
          "type": "address"
        }
      ],
      "name": "clientDepositL2",
      "outputs": [],
      "stateMutability": "payable",
      "type": "function"
    },
    {
      "inputs": [
        {
          "internalType": "address payable",
          "name": "_to",
          "type": "address"
        },
        {
          "internalType": "uint256",
          "name": "_amount",
          "type": "uint256"
        },
        {
          "internalType": "address",
          "name": "_tokenAddress",
          "type": "address"
        }
      ],
      "name": "clientPayL2",
      "outputs": [],
      "stateMutability": "nonpayable",
      "type": "function"
    },
    {
      "inputs": [
        {
          "internalType": "address payable",
          "name": "_to",
          "type": "address"
        },
        {
          "internalType": "uint256",
          "name": "_amount",
          "type": "uint256"
        },
        {
          "internalType": "address",
          "name": "_tokenAddress",
          "type": "address"
        }
      ],
      "name": "clientPayL2Settlement",
      "outputs": [],
      "stateMutability": "nonpayable",
      "type": "function"
    },
    {
      "inputs": [
        {
          "internalType": "uint256",
          "name": "_extraGas",
          "type": "uint256"
        }
      ],
      "name": "configureExtraGasRelay",
      "outputs": [],
      "stateMutability": "nonpayable",
      "type": "function"
    },
    {
      "inputs": [
        {
          "internalType": "uint256",
          "name": "_userRewardMinFeeRate",
          "type": "uint256"
        },
        {
          "internalType": "uint256",
          "name": "_userRewardMaxFeeRate",
          "type": "uint256"
        },
        {
          "internalType": "uint256",
          "name": "_ownerRewardFeeRate",
          "type": "uint256"
        }
      ],
      "name": "configureFee",
      "outputs": [],
      "stateMutability": "nonpayable",
      "type": "function"
    },
    {
      "inputs": [
        {
          "internalType": "uint256",
          "name": "_userRewardMinFeeRate",
          "type": "uint256"
        },
        {
          "internalType": "uint256",
          "name": "_userRewardMaxFeeRate",
          "type": "uint256"
        },
        {
          "internalType": "uint256",
          "name": "_ownerRewardFeeRate",
          "type": "uint256"
        }
      ],
      "name": "configureFeeExits",
      "outputs": [],
      "stateMutability": "nonpayable",
      "type": "function"
    },
    {
      "inputs": [
        {
          "internalType": "uint32",
          "name": "_l1GasFee",
          "type": "uint32"
        }
      ],
      "name": "configureGas",
      "outputs": [],
      "stateMutability": "nonpayable",
      "type": "function"
    },
    {
      "inputs": [],
      "name": "extraGasRelay",
      "outputs": [
        {
          "internalType": "uint256",
          "name": "",
          "type": "uint256"
        }
      ],
      "stateMutability": "view",
      "type": "function"
    },
    {
      "inputs": [],
      "name": "getFinalizeDepositL1Gas",
      "outputs": [
        {
          "internalType": "uint32",
          "name": "",
          "type": "uint32"
        }
      ],
      "stateMutability": "view",
      "type": "function"
    },
    {
      "inputs": [
        {
          "internalType": "address",
          "name": "_l2TokenAddress",
          "type": "address"
        }
      ],
      "name": "getUserRewardFeeRate",
      "outputs": [
        {
          "internalType": "uint256",
          "name": "userRewardFeeRate",
          "type": "uint256"
        }
      ],
      "stateMutability": "view",
      "type": "function"
    },
    {
      "inputs": [
        {
          "internalType": "address",
          "name": "_l2CrossDomainMessenger",
          "type": "address"
        },
        {
          "internalType": "address",
          "name": "_L1LiquidityPoolAddress",
          "type": "address"
        }
      ],
      "name": "initialize",
      "outputs": [],
      "stateMutability": "nonpayable",
      "type": "function"
    },
    {
      "inputs": [],
      "name": "messenger",
      "outputs": [
        {
          "internalType": "address",
          "name": "",
          "type": "address"
        }
      ],
      "stateMutability": "view",
      "type": "function"
    },
    {
      "inputs": [],
      "name": "owner",
      "outputs": [
        {
          "internalType": "address",
          "name": "",
          "type": "address"
        }
      ],
      "stateMutability": "view",
      "type": "function"
    },
    {
      "inputs": [
        {
          "internalType": "uint256",
          "name": "_amount",
          "type": "uint256"
        },
        {
          "internalType": "address",
          "name": "_tokenAddress",
          "type": "address"
        },
        {
          "internalType": "address",
          "name": "_to",
          "type": "address"
        }
      ],
      "name": "ownerRecoverFee",
      "outputs": [],
      "stateMutability": "nonpayable",
      "type": "function"
    },
    {
      "inputs": [],
      "name": "ownerRewardFeeRate",
      "outputs": [
        {
          "internalType": "uint256",
          "name": "",
          "type": "uint256"
        }
      ],
      "stateMutability": "view",
      "type": "function"
    },
    {
      "inputs": [],
      "name": "pause",
      "outputs": [],
      "stateMutability": "nonpayable",
      "type": "function"
    },
    {
      "inputs": [],
      "name": "paused",
      "outputs": [
        {
          "internalType": "bool",
          "name": "",
          "type": "bool"
        }
      ],
      "stateMutability": "view",
      "type": "function"
    },
    {
      "inputs": [
        {
          "internalType": "address",
          "name": "",
          "type": "address"
        }
      ],
      "name": "poolInfo",
      "outputs": [
        {
          "internalType": "address",
          "name": "l1TokenAddress",
          "type": "address"
        },
        {
          "internalType": "address",
          "name": "l2TokenAddress",
          "type": "address"
        },
        {
          "internalType": "uint256",
          "name": "userDepositAmount",
          "type": "uint256"
        },
        {
          "internalType": "uint256",
          "name": "lastAccUserReward",
          "type": "uint256"
        },
        {
          "internalType": "uint256",
          "name": "accUserReward",
          "type": "uint256"
        },
        {
          "internalType": "uint256",
          "name": "accUserRewardPerShare",
          "type": "uint256"
        },
        {
          "internalType": "uint256",
          "name": "accOwnerReward",
          "type": "uint256"
        },
        {
          "internalType": "uint256",
          "name": "startTime",
          "type": "uint256"
        }
      ],
      "stateMutability": "view",
      "type": "function"
    },
    {
      "inputs": [
        {
          "internalType": "uint256",
          "name": "_amount",
          "type": "uint256"
        },
        {
          "internalType": "address",
          "name": "_tokenAddress",
          "type": "address"
        }
      ],
      "name": "rebalanceLP",
      "outputs": [],
      "stateMutability": "nonpayable",
      "type": "function"
    },
    {
      "inputs": [
        {
          "internalType": "address",
          "name": "_l1TokenAddress",
          "type": "address"
        },
        {
          "internalType": "address",
          "name": "_l2TokenAddress",
          "type": "address"
        }
      ],
      "name": "registerPool",
      "outputs": [],
      "stateMutability": "nonpayable",
      "type": "function"
    },
    {
      "inputs": [
        {
          "internalType": "address",
          "name": "_newDAO",
          "type": "address"
        }
      ],
      "name": "transferDAORole",
      "outputs": [],
      "stateMutability": "nonpayable",
      "type": "function"
    },
    {
      "inputs": [
        {
          "internalType": "address",
          "name": "_newOwner",
          "type": "address"
        }
      ],
      "name": "transferOwnership",
      "outputs": [],
      "stateMutability": "nonpayable",
      "type": "function"
    },
    {
      "inputs": [],
      "name": "unpause",
      "outputs": [],
      "stateMutability": "nonpayable",
      "type": "function"
    },
    {
      "inputs": [
        {
          "internalType": "address",
          "name": "_tokenAddress",
          "type": "address"
        }
      ],
      "name": "updateUserRewardPerShare",
      "outputs": [],
      "stateMutability": "nonpayable",
      "type": "function"
    },
    {
      "inputs": [
        {
          "internalType": "address",
          "name": "",
          "type": "address"
        },
        {
          "internalType": "address",
          "name": "",
          "type": "address"
        }
      ],
      "name": "userInfo",
      "outputs": [
        {
          "internalType": "uint256",
          "name": "amount",
          "type": "uint256"
        },
        {
          "internalType": "uint256",
          "name": "rewardDebt",
          "type": "uint256"
        },
        {
          "internalType": "uint256",
          "name": "pendingReward",
          "type": "uint256"
        }
      ],
      "stateMutability": "view",
      "type": "function"
    },
    {
      "inputs": [],
      "name": "userRewardMaxFeeRate",
      "outputs": [
        {
          "internalType": "uint256",
          "name": "",
          "type": "uint256"
        }
      ],
      "stateMutability": "view",
      "type": "function"
    },
    {
      "inputs": [],
      "name": "userRewardMinFeeRate",
      "outputs": [
        {
          "internalType": "uint256",
          "name": "",
          "type": "uint256"
        }
      ],
      "stateMutability": "view",
      "type": "function"
    },
    {
      "inputs": [
        {
          "internalType": "uint256",
          "name": "_amount",
          "type": "uint256"
        },
        {
          "internalType": "address",
          "name": "_tokenAddress",
          "type": "address"
        },
        {
          "internalType": "address payable",
          "name": "_to",
          "type": "address"
        }
      ],
      "name": "withdrawLiquidity",
      "outputs": [],
      "stateMutability": "nonpayable",
      "type": "function"
    },
    {
      "inputs": [
        {
          "internalType": "uint256",
          "name": "_amount",
          "type": "uint256"
        },
        {
          "internalType": "address",
          "name": "_tokenAddress",
          "type": "address"
        },
        {
          "internalType": "address",
          "name": "_to",
          "type": "address"
        }
      ],
      "name": "withdrawReward",
      "outputs": [],
      "stateMutability": "nonpayable",
      "type": "function"
    }
  ],
  "bytecode": "0x608060405234801561001057600080fd5b50600080546001600160a01b0319169055614396806100306000396000f3fe6080604052600436106101fe5760003560e01c806370ac31801161011d578063997d73df116100b0578063c58827ea1161007f578063ecb12db011610064578063ecb12db014610683578063f2fde38b146106a3578063f4871268146106c357600080fd5b8063c58827ea14610650578063c95f9d0e1461067057600080fd5b8063997d73df146105445780639a7b5f111461055f578063b5e241f114610610578063bd2d1cab1461063057600080fd5b806381e6bdac116100ec57806381e6bdac146104c75780638456cb59146104e75780638da5cb5b146104fc57806398fabd3a1461051c57600080fd5b806370ac3180146104655780637286e5e51461047b578063744a5aa21461049b57806377b594a2146104b157600080fd5b80633f89e952116101955780635c975abb116101645780635c975abb146103d0578063650a767b146103f35780636854e22b1461041357806368be42ca1461044557600080fd5b80633f89e9521461035057806341132e4c14610370578063485cc9551461039057806349561dc4146103b057600080fd5b806334636648116101d157806334636648146102d7578063358fc07e146102f75780633cb747bf1461031b5780633f4ba83a1461033b57600080fd5b80630f208beb1461020357806312f54c1a1461026a57806316a8dda71461028c5780631d00a771146102c4575b600080fd5b34801561020f57600080fd5b5061024a61021e366004613fe6565b609860209081526000928352604080842090915290825290208054600182015460029092015490919083565b604080519384526020840192909252908201526060015b60405180910390f35b34801561027657600080fd5b5061028a61028536600461401f565b6106e3565b005b34801561029857600080fd5b50609a546102ac906001600160a01b031681565b6040516001600160a01b039091168152602001610261565b61028a6102d236600461403c565b610779565b3480156102e357600080fd5b5061028a6102f2366004614061565b610aaf565b34801561030357600080fd5b5061030d609c5481565b604051908152602001610261565b34801561032757600080fd5b506000546102ac906001600160a01b031681565b34801561034757600080fd5b5061028a610bd2565b34801561035c57600080fd5b5061028a61036b36600461403c565b610c4a565b34801561037c57600080fd5b5061028a61038b366004614087565b611172565b34801561039c57600080fd5b5061028a6103ab366004613fe6565b611387565b3480156103bc57600080fd5b5061028a6103cb3660046140b3565b61165c565b3480156103dc57600080fd5b5060655460ff166040519015158152602001610261565b3480156103ff57600080fd5b5061028a61040e3660046140f5565b611958565b34801561041f57600080fd5b50609d546104309063ffffffff1681565b60405163ffffffff9091168152602001610261565b34801561045157600080fd5b5061028a6104603660046140b3565b611dc2565b34801561047157600080fd5b5061030d609e5481565b34801561048757600080fd5b5061028a610496366004613fe6565b6120d5565b3480156104a757600080fd5b5061030d609f5481565b3480156104bd57600080fd5b5061030d609b5481565b3480156104d357600080fd5b5061028a6104e23660046140b3565b612304565b3480156104f357600080fd5b5061028a612583565b34801561050857600080fd5b506099546102ac906001600160a01b031681565b34801561052857600080fd5b50609d546102ac9064010000000090046001600160a01b031681565b34801561055057600080fd5b50609d5463ffffffff16610430565b34801561056b57600080fd5b506105ca61057a36600461401f565b609760205260009081526040902080546001820154600283015460038401546004850154600586015460068701546007909701546001600160a01b03968716979590961695939492939192909188565b604080516001600160a01b03998a168152989097166020890152958701949094526060860192909252608085015260a084015260c083015260e082015261010001610261565b34801561061c57600080fd5b5061028a61062b36600461412c565b6125f9565b34801561063c57600080fd5b5061028a61064b3660046140f5565b612787565b34801561065c57600080fd5b5061028a61066b366004614087565b612d73565b61028a61067e36600461403c565b612efd565b34801561068f57600080fd5b5061030d61069e36600461401f565b613209565b3480156106af57600080fd5b5061028a6106be36600461401f565b6133cd565b3480156106cf57600080fd5b5061028a6106de36600461401f565b6134f0565b6001600160a01b03811660009081526097602052604090206004810154600382015410156107755760006107288260030154836004015461361090919063ffffffff16565b9050816002015460001461076957600282015461076390610758906107528464e8d4a51000613623565b9061362f565b60058401549061363b565b60058301555b50600481015460038201555b5050565b60655460ff16156107d15760405162461bcd60e51b815260206004820152601060248201527f5061757361626c653a207061757365640000000000000000000000000000000060448201526064015b60405180910390fd5b60005a9050609e54811161084d5760405162461bcd60e51b815260206004820152602860248201527f496e73756666696369656e742047617320466f7220612052656c61792054726160448201527f6e73616374696f6e00000000000000000000000000000000000000000000000060648201526084016107c8565b6000610864609e548361361090919063ffffffff16565b905060005b815a1115610883578061087b81614174565b915050610869565b341515806108ae57506001600160a01b03841673420000000000000000000000000000000000000614155b6108fa5760405162461bcd60e51b815260206004820152601060248201527f416d6f756e7420496e636f72726563740000000000000000000000000000000060448201526064016107c8565b341561091b5734945073420000000000000000000000000000000000000693505b6001600160a01b03808516600090815260976020526040902060018101549091166109885760405162461bcd60e51b815260206004820152601c60248201527f546f6b656e2041646472657373204e6f7420526567697374657265640000000060448201526064016107c8565b6001600160a01b038516734200000000000000000000000000000000000006146109c1576109c16001600160a01b038616333089613647565b805460408051336024820152604481018990526001600160a01b039283166064808301919091528251808303909101815260849091019091526020810180517bffffffffffffffffffffffffffffffffffffffffffffffffffffffff167fcf26fb1b00000000000000000000000000000000000000000000000000000000179052609a54609d549192610a5e9291169063ffffffff165b83613716565b60408051338152602081018990526001600160a01b0388168183015290517fe57500de6b6dcf76b201fef514aca6501809e3b700c9fbd5e803567c66edf54c9181900360600190a150505050505050565b6099546001600160a01b0316331480610ad157506099546001600160a01b0316155b610b1d5760405162461bcd60e51b815260206004820152601760248201527f43616c6c6572206973206e6f7420746865206f776e657200000000000000000060448201526064016107c8565b609a546001600160a01b0316610b9b5760405162461bcd60e51b815260206004820152602560248201527f436f6e747261637420686173206e6f7420796574206265656e20696e6974696160448201527f6c697a656400000000000000000000000000000000000000000000000000000060648201526084016107c8565b609d80547fffffffffffffffffffffffffffffffffffffffffffffffffffffffff000000001663ffffffff92909216919091179055565b6099546001600160a01b0316331480610bf457506099546001600160a01b0316155b610c405760405162461bcd60e51b815260206004820152601760248201527f43616c6c6572206973206e6f7420746865206f776e657200000000000000000060448201526064016107c8565b610c4861379a565b565b6099546001600160a01b0316331480610c6c57506099546001600160a01b0316155b610cb85760405162461bcd60e51b815260206004820152601760248201527f43616c6c6572206973206e6f7420746865206f776e657200000000000000000060448201526064016107c8565b60655460ff1615610d0b5760405162461bcd60e51b815260206004820152601060248201527f5061757361626c653a207061757365640000000000000000000000000000000060448201526064016107c8565b81610d585760405162461bcd60e51b815260206004820152601260248201527f416d6f756e742063616e6e6f742062652030000000000000000000000000000060448201526064016107c8565b6001600160a01b038082166000908152609760205260409020609a54909116610dc35760405162461bcd60e51b815260206004820181905260248201527f4c31204c697175696469747920506f6f6c204e6f74205265676973746572656460448201526064016107c8565b60018101546001600160a01b0316610e1d5760405162461bcd60e51b815260206004820152601c60248201527f546f6b656e2041646472657373204e6f7420526567697374657265640000000060448201526064016107c8565b6001600160a01b0382167342000000000000000000000000000000000000061415610f725747831115610eb85760405162461bcd60e51b815260206004820152602260248201527f52657175657374656420455448206578636565647320706f6f6c2062616c616e60448201527f636500000000000000000000000000000000000000000000000000000000000060648201526084016107c8565b609a54609d546040517fa3a795480000000000000000000000000000000000000000000000000000000081526001600160a01b03808616600483015290921660248301526044820185905263ffffffff16606482015260a06084820152600060a48201527342000000000000000000000000000000000000109063a3a795489060c401600060405180830381600087803b158015610f5557600080fd5b505af1158015610f69573d6000803e3d6000fd5b5050505061112c565b6040517f70a082310000000000000000000000000000000000000000000000000000000081523060048201526001600160a01b038316906370a082319060240160206040518083038186803b158015610fca57600080fd5b505afa158015610fde573d6000803e3d6000fd5b505050506040513d601f19601f8201168201806040525081019061100291906141ad565b8311156110765760405162461bcd60e51b8152602060048201526024808201527f526571756573746564204552433230206578636565647320706f6f6c2062616c60448201527f616e63650000000000000000000000000000000000000000000000000000000060648201526084016107c8565b609a54609d546040517fa3a795480000000000000000000000000000000000000000000000000000000081526001600160a01b03808616600483015290921660248301526044820185905263ffffffff16606482015260a06084820152600060a48201527342000000000000000000000000000000000000109063a3a795489060c401600060405180830381600087803b15801561111357600080fd5b505af1158015611127573d6000803e3d6000fd5b505050505b604080518481526001600160a01b03841660208201527f40637a7e139eeb28b936b8decebe78604164b2ade81ce7f4c70deb132e7614c2910160405180910390a1505050565b609d5464010000000090046001600160a01b031633146111d45760405162461bcd60e51b815260206004820152601560248201527f43616c6c6572206973206e6f74207468652044414f000000000000000000000060448201526064016107c8565b609a546001600160a01b03166112525760405162461bcd60e51b815260206004820152602560248201527f436f6e747261637420686173206e6f7420796574206265656e20696e6974696160448201527f6c697a656400000000000000000000000000000000000000000000000000000060648201526084016107c8565b8183111580156112625750600083115b801561126f575060328211155b801561127c575060328111155b6112ee5760405162461bcd60e51b815260206004820152603c60248201527f7573657220616e64206f776e6572206665652072617465732073686f756c642060448201527f6265206c6f776572207468616e20352070657263656e7420656163680000000060648201526084016107c8565b60408051602481018590526044810184905260648082018490528251808303909101815260849091019091526020810180517bffffffffffffffffffffffffffffffffffffffffffffffffffffffff167fc58827ea00000000000000000000000000000000000000000000000000000000179052609a54609d54611381916001600160a01b03169063ffffffff16610a58565b50505050565b6099546001600160a01b03163314806113a957506099546001600160a01b0316155b6113f55760405162461bcd60e51b815260206004820152601760248201527f43616c6c6572206973206e6f7420746865206f776e657200000000000000000060448201526064016107c8565b609a546001600160a01b03161561144e5760405162461bcd60e51b815260206004820152601d60248201527f436f6e747261637420686173206265656e20696e697469616c697a656400000060448201526064016107c8565b6000547501000000000000000000000000000000000000000000900460ff1680611493575060005474010000000000000000000000000000000000000000900460ff16155b6115055760405162461bcd60e51b815260206004820152602e60248201527f496e697469616c697a61626c653a20636f6e747261637420697320616c72656160448201527f647920696e697469616c697a656400000000000000000000000000000000000060648201526084016107c8565b6000547501000000000000000000000000000000000000000000900460ff1615801561156c57600080547fffffffffffffffffffff0000ffffffffffffffffffffffffffffffffffffffff1675010100000000000000000000000000000000000000001790555b600080547fffffffffffffffffffffffff00000000000000000000000000000000000000009081166001600160a01b0386811691909117909255609a80548216928516929092179091556099805433921682179055609d80547fffffffffffffffff0000000000000000000000000000000000000000ffffffff166401000000009092029190911790556116046001600a600f612d73565b611610620186a0610aaf565b611618613854565b6116206139a4565b611628613b1b565b801561165757600080547fffffffffffffffffffff00ffffffffffffffffffffffffffffffffffffffffff1690555b505050565b60655460ff16156116af5760405162461bcd60e51b815260206004820152601060248201527f5061757361626c653a207061757365640000000000000000000000000000000060448201526064016107c8565b6001600160a01b03808316600090815260976020908152604080832060988352818420338552909252909120600182015491929091166117315760405162461bcd60e51b815260206004820152601c60248201527f546f6b656e2041646472657373204e6f7420526567697374657265640000000060448201526064016107c8565b6000611773611768836001015461176264e8d4a510006107528860050154886000015461362390919063ffffffff16565b90613610565b60028401549061363b565b9050858110156117eb5760405162461bcd60e51b815260206004820152602660248201527f52657175657374656420616d6f756e7420657863656564732070656e64696e6760448201527f526577617264000000000000000000000000000000000000000000000000000060648201526084016107c8565b6117f58187613610565b6002830155600583015482546118159164e8d4a510009161075291613623565b60018301556001600160a01b03851673420000000000000000000000000000000000000614611857576118526001600160a01b0386168588613c6e565b611900565b6000846001600160a01b03166108fc88604051600060405180830381858888f193505050503d80600081146118a8576040519150601f19603f3d011682016040523d82523d6000602084013e6118ad565b606091505b50509050806118fe5760405162461bcd60e51b815260206004820152601660248201527f4661696c656420746f2073656e64206f766d5f4574680000000000000000000060448201526064016107c8565b505b604080513381526001600160a01b0386811660208301528183018990528716606082015290517f3cb7cb475a33eda02ee6e719b6c2fc0c899157cfc6f098daf545354dbbce41ec9181900360800190a1505050505050565b609a546001600160a01b03166119d65760405162461bcd60e51b815260206004820152602560248201527f436f6e747261637420686173206e6f7420796574206265656e20696e6974696160448201527f6c697a656400000000000000000000000000000000000000000000000000000060648201526084016107c8565b609a546001600160a01b03166119f46000546001600160a01b031690565b6001600160a01b0316336001600160a01b031614611a7a5760405162461bcd60e51b815260206004820152602e60248201527f4f564d5f58434841494e3a206d657373656e67657220636f6e7472616374207560448201527f6e61757468656e7469636174656400000000000000000000000000000000000060648201526084016107c8565b806001600160a01b0316611a966000546001600160a01b031690565b6001600160a01b0316636e296e456040518163ffffffff1660e01b815260040160206040518083038186803b158015611ace57600080fd5b505afa158015611ae2573d6000803e3d6000fd5b505050506040513d601f19601f82011682018060405250810190611b0691906141c6565b6001600160a01b031614611b825760405162461bcd60e51b815260206004820152603060248201527f4f564d5f58434841494e3a2077726f6e672073656e646572206f662063726f7360448201527f732d646f6d61696e206d6573736167650000000000000000000000000000000060648201526084016107c8565b60655460ff1615611bd55760405162461bcd60e51b815260206004820152601060248201527f5061757361626c653a207061757365640000000000000000000000000000000060448201526064016107c8565b6001600160a01b038216600090815260976020526040812090611bf784613209565b90506000611c0b6103e86107528885613623565b90506000611c2a6103e8610752609c548a61362390919063ffffffff16565b90506000611c38838361363b565b90506000611c468983613610565b6004870154909150611c58908561363b565b60048701556006860154611c6c908461363b565b60068701556001600160a01b03881673420000000000000000000000000000000000000614611cae57611ca96001600160a01b0389168b83613c6e565b611d57565b60008a6001600160a01b03166108fc83604051600060405180830381858888f193505050503d8060008114611cff576040519150601f19603f3d011682016040523d82523d6000602084013e611d04565b606091505b5050905080611d555760405162461bcd60e51b815260206004820152601660248201527f4661696c656420746f2073656e64206f766d5f4574680000000000000000000060448201526064016107c8565b505b604080516001600160a01b038c811682526020820184905281830187905260608201869052608082018590528a1660a082015290517ff1068421680e00dfc2c4f3fc20c7f565bf1ec365420e7544365bae13d5cbc8c89181900360c00190a150505050505050505050565b60655460ff1615611e155760405162461bcd60e51b815260206004820152601060248201527f5061757361626c653a207061757365640000000000000000000000000000000060448201526064016107c8565b6001600160a01b0380831660009081526097602090815260408083206098835281842033855290925290912060018201549192909116611e975760405162461bcd60e51b815260206004820152601c60248201527f546f6b656e2041646472657373204e6f7420526567697374657265640000000060448201526064016107c8565b8054851115611f0e5760405162461bcd60e51b815260206004820152602660248201527f52657175657374656420616d6f756e74206578636565647320616d6f756e742060448201527f7374616b6564000000000000000000000000000000000000000000000000000060648201526084016107c8565b611f17846106e3565b611f51611f46826001015461176264e8d4a510006107528760050154876000015461362390919063ffffffff16565b60028301549061363b565b60028201558054611f629086613610565b8082556005830154611f7f9164e8d4a51000916107529190613623565b60018201556002820154611f939086613610565b60028301556001600160a01b03841673420000000000000000000000000000000000000614611fd557611fd06001600160a01b0385168487613c6e565b61207e565b6000836001600160a01b03166108fc87604051600060405180830381858888f193505050503d8060008114612026576040519150601f19603f3d011682016040523d82523d6000602084013e61202b565b606091505b505090508061207c5760405162461bcd60e51b815260206004820152601660248201527f4661696c656420746f2073656e64206f766d5f4574680000000000000000000060448201526064016107c8565b505b604080513381526001600160a01b0385811660208301528183018890528616606082015290517ffa2e8fcf14fd6ea11b6ebe7caf7de210198b8fe1eaf0e06d19f8d87c73860c469181900360800190a15050505050565b6099546001600160a01b03163314806120f757506099546001600160a01b0316155b6121435760405162461bcd60e51b815260206004820152601760248201527f43616c6c6572206973206e6f7420746865206f776e657200000000000000000060448201526064016107c8565b806001600160a01b0316826001600160a01b031614156121cb5760405162461bcd60e51b815260206004820152602860248201527f6c3120616e64206c3220746f6b656e206164647265737365732063616e6e6f7460448201527f2062652073616d6500000000000000000000000000000000000000000000000060648201526084016107c8565b6001600160a01b0380821660009081526097602052604090206001810154909116156122395760405162461bcd60e51b815260206004820181905260248201527f546f6b656e204164647265737320416c7265616479205265676973746572656460448201526064016107c8565b5060408051610100810182526001600160a01b03938416815291831660208084018281526000858501818152606087018281526080880183815260a0890184815260c08a018581524260e08c0190815298865260979097529790932097518854908a167fffffffffffffffffffffffff0000000000000000000000000000000000000000918216178955935160018901805491909a16941693909317909755955160028601555160038501559351600484015590516005830155915160068201559051600790910155565b6099546001600160a01b031633148061232657506099546001600160a01b0316155b6123725760405162461bcd60e51b815260206004820152601760248201527f43616c6c6572206973206e6f7420746865206f776e657200000000000000000060448201526064016107c8565b6001600160a01b03808316600090815260976020526040902060018101549091166123df5760405162461bcd60e51b815260206004820152601c60248201527f546f6b656e2041646472657373204e6f7420526567697374657265640000000060448201526064016107c8565b83816006015410156124335760405162461bcd60e51b815260206004820152601f60248201527f52657175657374656420616d6f756e742065786365656473207265776172640060448201526064016107c8565b60068101546124429085613610565b60068201556001600160a01b038316734200000000000000000000000000000000000006146124845761247f6001600160a01b0384168386613c6e565b61252d565b6000826001600160a01b03166108fc86604051600060405180830381858888f193505050503d80600081146124d5576040519150601f19603f3d011682016040523d82523d6000602084013e6124da565b606091505b505090508061252b5760405162461bcd60e51b815260206004820152601660248201527f4661696c656420746f2073656e64206f766d5f4574680000000000000000000060448201526064016107c8565b505b604080513381526001600160a01b0384811660208301528183018790528516606082015290517f3cb71b9a1fb601579f96812b9f86ab5e914fc3e54c98d5f84d95581b2b9884f39181900360800190a150505050565b6099546001600160a01b03163314806125a557506099546001600160a01b0316155b6125f15760405162461bcd60e51b815260206004820152601760248201527f43616c6c6572206973206e6f7420746865206f776e657200000000000000000060448201526064016107c8565b610c48613cb7565b73420000000000000000000000000000000000000f6001600160a01b0316638da5cb5b6040518163ffffffff1660e01b815260040160206040518083038186803b15801561264657600080fd5b505afa15801561265a573d6000803e3d6000fd5b505050506040513d601f19601f8201168201806040525081019061267e91906141c6565b6001600160a01b0316336001600160a01b0316146127045760405162461bcd60e51b815260206004820152602660248201527f43616c6c6572206973206e6f74207468652067617350726963654f7261636c6560448201527f206f776e6572000000000000000000000000000000000000000000000000000060648201526084016107c8565b609a546001600160a01b03166127825760405162461bcd60e51b815260206004820152602560248201527f436f6e747261637420686173206e6f7420796574206265656e20696e6974696160448201527f6c697a656400000000000000000000000000000000000000000000000000000060648201526084016107c8565b609e55565b609a546001600160a01b03166128055760405162461bcd60e51b815260206004820152602560248201527f436f6e747261637420686173206e6f7420796574206265656e20696e6974696160448201527f6c697a656400000000000000000000000000000000000000000000000000000060648201526084016107c8565b609a546001600160a01b03166128236000546001600160a01b031690565b6001600160a01b0316336001600160a01b0316146128a95760405162461bcd60e51b815260206004820152602e60248201527f4f564d5f58434841494e3a206d657373656e67657220636f6e7472616374207560448201527f6e61757468656e7469636174656400000000000000000000000000000000000060648201526084016107c8565b806001600160a01b03166128c56000546001600160a01b031690565b6001600160a01b0316636e296e456040518163ffffffff1660e01b815260040160206040518083038186803b1580156128fd57600080fd5b505afa158015612911573d6000803e3d6000fd5b505050506040513d601f19601f8201168201806040525081019061293591906141c6565b6001600160a01b0316146129b15760405162461bcd60e51b815260206004820152603060248201527f4f564d5f58434841494e3a2077726f6e672073656e646572206f662063726f7360448201527f732d646f6d61696e206d6573736167650000000000000000000000000000000060648201526084016107c8565b60655460ff1615612a045760405162461bcd60e51b815260206004820152601060248201527f5061757361626c653a207061757365640000000000000000000000000000000060448201526064016107c8565b6001600160a01b038216600090815260976020526040812081612a2685613209565b90506000612a3a6103e86107528985613623565b90506000612a596103e8610752609c548b61362390919063ffffffff16565b90506000612a67838361363b565b90506000612a758a83613610565b90506001600160a01b03891673420000000000000000000000000000000000000614612b7c576040517f70a082310000000000000000000000000000000000000000000000000000000081523060048201526001600160a01b038a16906370a082319060240160206040518083038186803b158015612af357600080fd5b505afa158015612b07573d6000803e3d6000fd5b505050506040513d601f19601f82011682018060405250810190612b2b91906141ad565b811115612b3b5760019650612c5d565b6004860154612b4a908561363b565b60048701556006860154612b5e908461363b565b6006870155612b776001600160a01b038a168c83613c6e565b612c5d565b47811115612b8d5760019650612c5d565b6004860154612b9c908561363b565b60048701556006860154612bb0908461363b565b60068701556040516000906001600160a01b038d16906108fc90849084818181858888f193505050503d8060008114612c05576040519150601f19603f3d011682016040523d82523d6000602084013e612c0a565b606091505b5050905080612c5b5760405162461bcd60e51b815260206004820152601660248201527f4661696c656420746f2073656e64206f766d5f4574680000000000000000000060448201526064016107c8565b505b8615612d06578554604080516001600160a01b038e81166024830152604482018e90529283166064808301919091528251808303909101815260849091019091526020810180517bffffffffffffffffffffffffffffffffffffffffffffffffffffffff167f53174cc100000000000000000000000000000000000000000000000000000000179052609a54609d549192612d009291169063ffffffff16610a58565b50612d66565b604080516001600160a01b038d811682526020820184905281830187905260608201869052608082018590528b1660a082015290517fedb4d3b4b55168608412f15db11c00859915842963c31b1f08d910a38e1d6aa49181900360c00190a15b5050505050505050505050565b609d5464010000000090046001600160a01b03163314612dd55760405162461bcd60e51b815260206004820152601560248201527f43616c6c6572206973206e6f74207468652044414f000000000000000000000060448201526064016107c8565b609a546001600160a01b0316612e535760405162461bcd60e51b815260206004820152602560248201527f436f6e747261637420686173206e6f7420796574206265656e20696e6974696160448201527f6c697a656400000000000000000000000000000000000000000000000000000060648201526084016107c8565b818311158015612e635750600083115b8015612e70575060328211155b8015612e7d575060328111155b612eef5760405162461bcd60e51b815260206004820152603c60248201527f7573657220616e64206f776e6572206665652072617465732073686f756c642060448201527f6265206c6f776572207468616e20352070657263656e7420656163680000000060648201526084016107c8565b609b92909255609f55609c55565b60026001541415612f505760405162461bcd60e51b815260206004820152601f60248201527f5265656e7472616e637947756172643a207265656e7472616e742063616c6c0060448201526064016107c8565b600260015560655460ff1615612fa85760405162461bcd60e51b815260206004820152601060248201527f5061757361626c653a207061757365640000000000000000000000000000000060448201526064016107c8565b34151580612fd357506001600160a01b03811673420000000000000000000000000000000000000614155b61301f5760405162461bcd60e51b815260206004820152601060248201527f416d6f756e7420496e636f72726563740000000000000000000000000000000060448201526064016107c8565b341561303f57503490507342000000000000000000000000000000000000065b6001600160a01b03808216600090815260976020908152604080832060988352818420338552909252909120600182015491929091166130c15760405162461bcd60e51b815260206004820152601c60248201527f546f6b656e2041646472657373204e6f7420526567697374657265640000000060448201526064016107c8565b6130ca836106e3565b80541561313657613100611f46826001015461176264e8d4a510006107528760050154876000015461362390919063ffffffff16565b60028201556005820154815461312c9164e8d4a51000916107529190613126908961363b565b90613623565b600182015561315c565b61315664e8d4a5100061075284600501548761362390919063ffffffff16565b60018201555b6001600160a01b03831673420000000000000000000000000000000000000614613195576131956001600160a01b038416333087613647565b80546131a1908561363b565b815560028201546131b2908561363b565b600283015560408051338152602081018690526001600160a01b0385168183015290517f5852d1d46e583f7e92c2a572221de0e681d82ef71f489847e056b9445c0147369181900360600190a15050600180555050565b609a546000906001600160a01b031661328a5760405162461bcd60e51b815260206004820152602560248201527f436f6e747261637420686173206e6f7420796574206265656e20696e6974696160448201527f6c697a656400000000000000000000000000000000000000000000000000000060648201526084016107c8565b6001600160a01b03821660008181526097602052604081206002810154909290919073420000000000000000000000000000000000000614156132ce575047613361565b6040517f70a082310000000000000000000000000000000000000000000000000000000081523060048201526001600160a01b038616906370a082319060240160206040518083038186803b15801561332657600080fd5b505afa15801561333a573d6000803e3d6000fd5b505050506040513d601f19601f8201168201806040525081019061335e91906141ad565b90505b80613372575050609f549392505050565b60008183609b5461338391906141e3565b61338d9190614220565b905080609b5411156133a6575050609b54949350505050565b80609f5410156133bd575050609f54949350505050565b93506133c892505050565b919050565b6099546001600160a01b03163314806133ef57506099546001600160a01b0316155b61343b5760405162461bcd60e51b815260206004820152601760248201527f43616c6c6572206973206e6f7420746865206f776e657200000000000000000060448201526064016107c8565b6001600160a01b0381166134b65760405162461bcd60e51b8152602060048201526024808201527f4e6577206f776e65722063616e6e6f7420626520746865207a65726f2061646460448201527f726573730000000000000000000000000000000000000000000000000000000060648201526084016107c8565b609980547fffffffffffffffffffffffff0000000000000000000000000000000000000000166001600160a01b0392909216919091179055565b609d5464010000000090046001600160a01b031633146135525760405162461bcd60e51b815260206004820152601560248201527f43616c6c6572206973206e6f74207468652044414f000000000000000000000060448201526064016107c8565b6001600160a01b0381166135ce5760405162461bcd60e51b815260206004820152602a60248201527f4e65772044414f20616464726573732063616e6e6f7420626520746865207a6560448201527f726f20616464726573730000000000000000000000000000000000000000000060648201526084016107c8565b609d80546001600160a01b03909216640100000000027fffffffffffffffff0000000000000000000000000000000000000000ffffffff909216919091179055565b600061361c828461425b565b9392505050565b600061361c82846141e3565b600061361c8284614220565b600061361c8284614272565b6040516001600160a01b03808516602483015283166044820152606481018290526113819085907f23b872dd00000000000000000000000000000000000000000000000000000000906084015b604080517fffffffffffffffffffffffffffffffffffffffffffffffffffffffffffffffe08184030181529190526020810180517bffffffffffffffffffffffffffffffffffffffffffffffffffffffff167fffffffff0000000000000000000000000000000000000000000000000000000090931692909217909152613d5d565b6000546040517f3dbb202b0000000000000000000000000000000000000000000000000000000081526001600160a01b0390911690633dbb202b9061376390869085908790600401614300565b600060405180830381600087803b15801561377d57600080fd5b505af1158015613791573d6000803e3d6000fd5b50505050505050565b60655460ff166137ec5760405162461bcd60e51b815260206004820152601460248201527f5061757361626c653a206e6f742070617573656400000000000000000000000060448201526064016107c8565b606580547fffffffffffffffffffffffffffffffffffffffffffffffffffffffffffffff001690557f5db9ee0a495bf2e6ff9c91a7834c1ba4fdd244a5e8aa4e537bd38aeae4b073aa335b6040516001600160a01b03909116815260200160405180910390a1565b6000547501000000000000000000000000000000000000000000900460ff1680613899575060005474010000000000000000000000000000000000000000900460ff16155b61390b5760405162461bcd60e51b815260206004820152602e60248201527f496e697469616c697a61626c653a20636f6e747261637420697320616c72656160448201527f647920696e697469616c697a656400000000000000000000000000000000000060648201526084016107c8565b6000547501000000000000000000000000000000000000000000900460ff1615801561397257600080547fffffffffffffffffffff0000ffffffffffffffffffffffffffffffffffffffff1675010100000000000000000000000000000000000000001790555b80156139a157600080547fffffffffffffffffffff00ffffffffffffffffffffffffffffffffffffffffff1690555b50565b6000547501000000000000000000000000000000000000000000900460ff16806139e9575060005474010000000000000000000000000000000000000000900460ff16155b613a5b5760405162461bcd60e51b815260206004820152602e60248201527f496e697469616c697a61626c653a20636f6e747261637420697320616c72656160448201527f647920696e697469616c697a656400000000000000000000000000000000000060648201526084016107c8565b6000547501000000000000000000000000000000000000000000900460ff16158015613ac257600080547fffffffffffffffffffff0000ffffffffffffffffffffffffffffffffffffffff1675010100000000000000000000000000000000000000001790555b606580547fffffffffffffffffffffffffffffffffffffffffffffffffffffffffffffff0016905580156139a157600080547fffffffffffffffffffff00ffffffffffffffffffffffffffffffffffffffffff16905550565b6000547501000000000000000000000000000000000000000000900460ff1680613b60575060005474010000000000000000000000000000000000000000900460ff16155b613bd25760405162461bcd60e51b815260206004820152602e60248201527f496e697469616c697a61626c653a20636f6e747261637420697320616c72656160448201527f647920696e697469616c697a656400000000000000000000000000000000000060648201526084016107c8565b6000547501000000000000000000000000000000000000000000900460ff16158015613c3957600080547fffffffffffffffffffff0000ffffffffffffffffffffffffffffffffffffffff1675010100000000000000000000000000000000000000001790555b6001805580156139a157600080547fffffffffffffffffffff00ffffffffffffffffffffffffffffffffffffffffff16905550565b6040516001600160a01b0383166024820152604481018290526116579084907fa9059cbb0000000000000000000000000000000000000000000000000000000090606401613694565b60655460ff1615613d0a5760405162461bcd60e51b815260206004820152601060248201527f5061757361626c653a207061757365640000000000000000000000000000000060448201526064016107c8565b606580547fffffffffffffffffffffffffffffffffffffffffffffffffffffffffffffff001660011790557f62e78cea01bee320cd4e420270b5ea74000d11b0c9f74754ebdbfc544b05a2586138373390565b6000613db2826040518060400160405280602081526020017f5361666545524332303a206c6f772d6c6576656c2063616c6c206661696c6564815250856001600160a01b0316613e429092919063ffffffff16565b8051909150156116575780806020019051810190613dd09190614338565b6116575760405162461bcd60e51b815260206004820152602a60248201527f5361666545524332303a204552433230206f7065726174696f6e20646964206e60448201527f6f7420737563636565640000000000000000000000000000000000000000000060648201526084016107c8565b6060613e518484600085613e59565b949350505050565b606082471015613ed15760405162461bcd60e51b815260206004820152602660248201527f416464726573733a20696e73756666696369656e742062616c616e636520666f60448201527f722063616c6c000000000000000000000000000000000000000000000000000060648201526084016107c8565b843b613f1f5760405162461bcd60e51b815260206004820152601d60248201527f416464726573733a2063616c6c20746f206e6f6e2d636f6e747261637400000060448201526064016107c8565b600080866001600160a01b03168587604051613f3b919061435a565b60006040518083038185875af1925050503d8060008114613f78576040519150601f19603f3d011682016040523d82523d6000602084013e613f7d565b606091505b5091509150613f8d828286613f98565b979650505050505050565b60608315613fa757508161361c565b825115613fb75782518084602001fd5b8160405162461bcd60e51b81526004016107c89190614376565b6001600160a01b03811681146139a157600080fd5b60008060408385031215613ff957600080fd5b823561400481613fd1565b9150602083013561401481613fd1565b809150509250929050565b60006020828403121561403157600080fd5b813561361c81613fd1565b6000806040838503121561404f57600080fd5b82359150602083013561401481613fd1565b60006020828403121561407357600080fd5b813563ffffffff8116811461361c57600080fd5b60008060006060848603121561409c57600080fd5b505081359360208301359350604090920135919050565b6000806000606084860312156140c857600080fd5b8335925060208401356140da81613fd1565b915060408401356140ea81613fd1565b809150509250925092565b60008060006060848603121561410a57600080fd5b833561411581613fd1565b92506020840135915060408401356140ea81613fd1565b60006020828403121561413e57600080fd5b5035919050565b7f4e487b7100000000000000000000000000000000000000000000000000000000600052601160045260246000fd5b60007fffffffffffffffffffffffffffffffffffffffffffffffffffffffffffffffff8214156141a6576141a6614145565b5060010190565b6000602082840312156141bf57600080fd5b5051919050565b6000602082840312156141d857600080fd5b815161361c81613fd1565b6000817fffffffffffffffffffffffffffffffffffffffffffffffffffffffffffffffff048311821515161561421b5761421b614145565b500290565b600082614256577f4e487b7100000000000000000000000000000000000000000000000000000000600052601260045260246000fd5b500490565b60008282101561426d5761426d614145565b500390565b6000821982111561428557614285614145565b500190565b60005b838110156142a557818101518382015260200161428d565b838111156113815750506000910152565b600081518084526142ce81602086016020860161428a565b601f017fffffffffffffffffffffffffffffffffffffffffffffffffffffffffffffffe0169290920160200192915050565b6001600160a01b038416815260606020820152600061432260608301856142b6565b905063ffffffff83166040830152949350505050565b60006020828403121561434a57600080fd5b8151801515811461361c57600080fd5b6000825161436c81846020870161428a565b9190910192915050565b60208152600061361c60208301846142b656fea164736f6c6343000809000a",
  "linkReferences": {},
  "deployedLinkReferences": {}
}