{
  "_format": "hh-sol-artifact-1",
  "contractName": "L2LiquidityPool",
  "sourceName": "contracts/LP/L2LiquidityPool.sol",
  "abi": [
    {
      "inputs": [],
      "stateMutability": "nonpayable",
      "type": "constructor"
    },
    {
      "anonymous": false,
      "inputs": [
        {
          "indexed": false,
          "internalType": "address",
          "name": "sender",
          "type": "address"
        },
        {
          "indexed": false,
          "internalType": "uint256",
          "name": "amount",
          "type": "uint256"
        },
        {
          "indexed": false,
          "internalType": "address",
          "name": "tokenAddress",
          "type": "address"
        }
      ],
      "name": "AddLiquidity",
      "type": "event"
    },
    {
      "anonymous": false,
      "inputs": [
        {
          "indexed": false,
          "internalType": "address",
          "name": "sender",
          "type": "address"
        },
        {
          "indexed": false,
          "internalType": "uint256",
          "name": "receivedAmount",
          "type": "uint256"
        },
        {
          "indexed": false,
          "internalType": "address",
          "name": "tokenAddress",
          "type": "address"
        }
      ],
      "name": "ClientDepositL2",
      "type": "event"
    },
    {
      "anonymous": false,
      "inputs": [
        {
          "indexed": false,
          "internalType": "address",
          "name": "sender",
          "type": "address"
        },
        {
          "indexed": false,
          "internalType": "uint256",
          "name": "amount",
          "type": "uint256"
        },
        {
          "indexed": false,
          "internalType": "uint256",
          "name": "userRewardFee",
          "type": "uint256"
        },
        {
          "indexed": false,
          "internalType": "uint256",
          "name": "ownerRewardFee",
          "type": "uint256"
        },
        {
          "indexed": false,
          "internalType": "uint256",
          "name": "totalFee",
          "type": "uint256"
        },
        {
          "indexed": false,
          "internalType": "address",
          "name": "tokenAddress",
          "type": "address"
        }
      ],
      "name": "ClientPayL2",
      "type": "event"
    },
    {
      "anonymous": false,
      "inputs": [
        {
          "indexed": false,
          "internalType": "address",
          "name": "sender",
          "type": "address"
        },
        {
          "indexed": false,
          "internalType": "uint256",
          "name": "amount",
          "type": "uint256"
        },
        {
          "indexed": false,
          "internalType": "uint256",
          "name": "userRewardFee",
          "type": "uint256"
        },
        {
          "indexed": false,
          "internalType": "uint256",
          "name": "ownerRewardFee",
          "type": "uint256"
        },
        {
          "indexed": false,
          "internalType": "uint256",
          "name": "totalFee",
          "type": "uint256"
        },
        {
          "indexed": false,
          "internalType": "address",
          "name": "tokenAddress",
          "type": "address"
        }
      ],
      "name": "ClientPayL2Settlement",
      "type": "event"
    },
    {
      "anonymous": false,
      "inputs": [
        {
          "indexed": false,
          "internalType": "address",
          "name": "sender",
          "type": "address"
        },
        {
          "indexed": false,
          "internalType": "address",
          "name": "receiver",
          "type": "address"
        },
        {
          "indexed": false,
          "internalType": "uint256",
          "name": "amount",
          "type": "uint256"
        },
        {
          "indexed": false,
          "internalType": "address",
          "name": "tokenAddress",
          "type": "address"
        }
      ],
      "name": "OwnerRecoverFee",
      "type": "event"
    },
    {
      "anonymous": false,
      "inputs": [
        {
          "indexed": false,
          "internalType": "address",
          "name": "account",
          "type": "address"
        }
      ],
      "name": "Paused",
      "type": "event"
    },
    {
      "anonymous": false,
      "inputs": [
        {
          "indexed": false,
          "internalType": "address",
          "name": "account",
          "type": "address"
        }
      ],
      "name": "Unpaused",
      "type": "event"
    },
    {
      "anonymous": false,
      "inputs": [
        {
          "indexed": false,
          "internalType": "address",
          "name": "sender",
          "type": "address"
        },
        {
          "indexed": false,
          "internalType": "address",
          "name": "receiver",
          "type": "address"
        },
        {
          "indexed": false,
          "internalType": "uint256",
          "name": "amount",
          "type": "uint256"
        },
        {
          "indexed": false,
          "internalType": "address",
          "name": "tokenAddress",
          "type": "address"
        }
      ],
      "name": "WithdrawLiquidity",
      "type": "event"
    },
    {
      "anonymous": false,
      "inputs": [
        {
          "indexed": false,
          "internalType": "address",
          "name": "sender",
          "type": "address"
        },
        {
          "indexed": false,
          "internalType": "address",
          "name": "receiver",
          "type": "address"
        },
        {
          "indexed": false,
          "internalType": "uint256",
          "name": "amount",
          "type": "uint256"
        },
        {
          "indexed": false,
          "internalType": "address",
          "name": "tokenAddress",
          "type": "address"
        }
      ],
      "name": "WithdrawReward",
      "type": "event"
    },
    {
      "inputs": [],
      "name": "DEFAULT_FINALIZE_WITHDRAWAL_L1_GAS",
      "outputs": [
        {
          "internalType": "uint32",
          "name": "",
          "type": "uint32"
        }
      ],
      "stateMutability": "view",
      "type": "function"
    },
    {
      "inputs": [],
      "name": "L1LiquidityPoolAddress",
      "outputs": [
        {
          "internalType": "address",
          "name": "",
          "type": "address"
        }
      ],
      "stateMutability": "view",
      "type": "function"
    },
    {
      "inputs": [
        {
          "internalType": "uint256",
          "name": "_amount",
          "type": "uint256"
        },
        {
          "internalType": "address",
          "name": "_tokenAddress",
          "type": "address"
        }
      ],
      "name": "addLiquidity",
      "outputs": [],
      "stateMutability": "payable",
      "type": "function"
    },
    {
      "inputs": [
        {
          "internalType": "uint256",
          "name": "_amount",
          "type": "uint256"
        },
        {
          "internalType": "address",
          "name": "_tokenAddress",
          "type": "address"
        }
      ],
      "name": "clientDepositL2",
      "outputs": [],
      "stateMutability": "payable",
      "type": "function"
    },
    {
      "inputs": [
        {
          "internalType": "address payable",
          "name": "_to",
          "type": "address"
        },
        {
          "internalType": "uint256",
          "name": "_amount",
          "type": "uint256"
        },
        {
          "internalType": "address",
          "name": "_tokenAddress",
          "type": "address"
        }
      ],
      "name": "clientPayL2",
      "outputs": [],
      "stateMutability": "nonpayable",
      "type": "function"
    },
    {
      "inputs": [
        {
          "internalType": "address payable",
          "name": "_to",
          "type": "address"
        },
        {
          "internalType": "uint256",
          "name": "_amount",
          "type": "uint256"
        },
        {
          "internalType": "address",
          "name": "_tokenAddress",
          "type": "address"
        }
      ],
      "name": "clientPayL2Settlement",
      "outputs": [],
      "stateMutability": "nonpayable",
      "type": "function"
    },
    {
      "inputs": [
        {
          "internalType": "uint256",
          "name": "_userRewardFeeRate",
          "type": "uint256"
        },
        {
          "internalType": "uint256",
          "name": "_ownerRewardFeeRate",
          "type": "uint256"
        }
      ],
      "name": "configureFee",
      "outputs": [],
      "stateMutability": "nonpayable",
      "type": "function"
    },
    {
      "inputs": [
        {
          "internalType": "uint32",
          "name": "_l1GasFee",
          "type": "uint32"
        }
      ],
      "name": "configureGas",
      "outputs": [],
      "stateMutability": "nonpayable",
      "type": "function"
    },
    {
      "inputs": [],
      "name": "getFinalizeDepositL1Gas",
      "outputs": [
        {
          "internalType": "uint32",
          "name": "",
          "type": "uint32"
        }
      ],
      "stateMutability": "view",
      "type": "function"
    },
    {
      "inputs": [
        {
          "internalType": "address",
          "name": "_l2CrossDomainMessenger",
          "type": "address"
        },
        {
          "internalType": "address",
          "name": "_L1LiquidityPoolAddress",
          "type": "address"
        }
      ],
      "name": "initialize",
      "outputs": [],
      "stateMutability": "nonpayable",
      "type": "function"
    },
    {
      "inputs": [],
      "name": "messenger",
      "outputs": [
        {
          "internalType": "address",
          "name": "",
          "type": "address"
        }
      ],
      "stateMutability": "view",
      "type": "function"
    },
    {
      "inputs": [],
      "name": "owner",
      "outputs": [
        {
          "internalType": "address",
          "name": "",
          "type": "address"
        }
      ],
      "stateMutability": "view",
      "type": "function"
    },
    {
      "inputs": [
        {
          "internalType": "uint256",
          "name": "_amount",
          "type": "uint256"
        },
        {
          "internalType": "address",
          "name": "_tokenAddress",
          "type": "address"
        },
        {
          "internalType": "address",
          "name": "_to",
          "type": "address"
        }
      ],
      "name": "ownerRecoverFee",
      "outputs": [],
      "stateMutability": "nonpayable",
      "type": "function"
    },
    {
      "inputs": [],
      "name": "ownerRewardFeeRate",
      "outputs": [
        {
          "internalType": "uint256",
          "name": "",
          "type": "uint256"
        }
      ],
      "stateMutability": "view",
      "type": "function"
    },
    {
      "inputs": [],
      "name": "pause",
      "outputs": [],
      "stateMutability": "nonpayable",
      "type": "function"
    },
    {
      "inputs": [],
      "name": "paused",
      "outputs": [
        {
          "internalType": "bool",
          "name": "",
          "type": "bool"
        }
      ],
      "stateMutability": "view",
      "type": "function"
    },
    {
      "inputs": [
        {
          "internalType": "address",
          "name": "",
          "type": "address"
        }
      ],
      "name": "poolInfo",
      "outputs": [
        {
          "internalType": "address",
          "name": "l1TokenAddress",
          "type": "address"
        },
        {
          "internalType": "address",
          "name": "l2TokenAddress",
          "type": "address"
        },
        {
          "internalType": "uint256",
          "name": "userDepositAmount",
          "type": "uint256"
        },
        {
          "internalType": "uint256",
          "name": "lastAccUserReward",
          "type": "uint256"
        },
        {
          "internalType": "uint256",
          "name": "accUserReward",
          "type": "uint256"
        },
        {
          "internalType": "uint256",
          "name": "accUserRewardPerShare",
          "type": "uint256"
        },
        {
          "internalType": "uint256",
          "name": "accOwnerReward",
          "type": "uint256"
        },
        {
          "internalType": "uint256",
          "name": "startTime",
          "type": "uint256"
        }
      ],
      "stateMutability": "view",
      "type": "function"
    },
    {
      "inputs": [
        {
          "internalType": "address",
          "name": "_l1TokenAddress",
          "type": "address"
        },
        {
          "internalType": "address",
          "name": "_l2TokenAddress",
          "type": "address"
        }
      ],
      "name": "registerPool",
      "outputs": [],
      "stateMutability": "nonpayable",
      "type": "function"
    },
    {
      "inputs": [
        {
          "internalType": "address",
          "name": "_newOwner",
          "type": "address"
        }
      ],
      "name": "transferOwnership",
      "outputs": [],
      "stateMutability": "nonpayable",
      "type": "function"
    },
    {
      "inputs": [],
      "name": "unpause",
      "outputs": [],
      "stateMutability": "nonpayable",
      "type": "function"
    },
    {
      "inputs": [
        {
          "internalType": "address",
          "name": "_tokenAddress",
          "type": "address"
        }
      ],
      "name": "updateUserRewardPerShare",
      "outputs": [],
      "stateMutability": "nonpayable",
      "type": "function"
    },
    {
      "inputs": [
        {
          "internalType": "address",
          "name": "",
          "type": "address"
        },
        {
          "internalType": "address",
          "name": "",
          "type": "address"
        }
      ],
      "name": "userInfo",
      "outputs": [
        {
          "internalType": "uint256",
          "name": "amount",
          "type": "uint256"
        },
        {
          "internalType": "uint256",
          "name": "rewardDebt",
          "type": "uint256"
        },
        {
          "internalType": "uint256",
          "name": "pendingReward",
          "type": "uint256"
        }
      ],
      "stateMutability": "view",
      "type": "function"
    },
    {
      "inputs": [],
      "name": "userRewardFeeRate",
      "outputs": [
        {
          "internalType": "uint256",
          "name": "",
          "type": "uint256"
        }
      ],
      "stateMutability": "view",
      "type": "function"
    },
    {
      "inputs": [
        {
          "internalType": "uint256",
          "name": "_amount",
          "type": "uint256"
        },
        {
          "internalType": "address",
          "name": "_tokenAddress",
          "type": "address"
        },
        {
          "internalType": "address payable",
          "name": "_to",
          "type": "address"
        }
      ],
      "name": "withdrawLiquidity",
      "outputs": [],
      "stateMutability": "nonpayable",
      "type": "function"
    },
    {
      "inputs": [
        {
          "internalType": "uint256",
          "name": "_amount",
          "type": "uint256"
        },
        {
          "internalType": "address",
          "name": "_tokenAddress",
          "type": "address"
        },
        {
          "internalType": "address",
          "name": "_to",
          "type": "address"
        }
      ],
      "name": "withdrawReward",
      "outputs": [],
      "stateMutability": "nonpayable",
      "type": "function"
    }
  ],
  "bytecode": "0x608060405234801561001057600080fd5b50600080546001600160a01b03191690556133dd806100306000396000f3fe6080604052600436106101965760003560e01c8063650a767b116100e15780638da5cb5b1161008a578063bd2d1cab11610064578063bd2d1cab14610514578063c95f9d0e14610534578063d1dd871a14610547578063f2fde38b1461056757600080fd5b80638da5cb5b14610428578063997d73df146104485780639a7b5f111461046357600080fd5b80637286e5e5116100bb5780637286e5e5146103d357806381e6bdac146103f35780638456cb591461041357600080fd5b8063650a767b146103615780636854e22b1461038157806368be42ca146103b357600080fd5b80633cb747bf11610143578063485cc9551161011d578063485cc955146102fe57806349561dc41461031e5780635c975abb1461033e57600080fd5b80633cb747bf146102b35780633f4ba83a146102d3578063435fd571146102e857600080fd5b80631d00a771116101745780631d00a7711461025c578063346366481461026f578063358fc07e1461028f57600080fd5b80630f208beb1461019b57806312f54c1a1461020257806316a8dda714610224575b600080fd5b3480156101a757600080fd5b506101e26101b6366004613089565b609860209081526000928352604080842090915290825290208054600182015460029092015490919083565b604080519384526020840192909252908201526060015b60405180910390f35b34801561020e57600080fd5b5061022261021d3660046130c2565b610587565b005b34801561023057600080fd5b50609a54610244906001600160a01b031681565b6040516001600160a01b0390911681526020016101f9565b61022261026a3660046130df565b61061d565b34801561027b57600080fd5b5061022261028a366004613104565b6108a2565b34801561029b57600080fd5b506102a5609c5481565b6040519081526020016101f9565b3480156102bf57600080fd5b50600054610244906001600160a01b031681565b3480156102df57600080fd5b506102226109c5565b3480156102f457600080fd5b506102a5609b5481565b34801561030a57600080fd5b50610222610319366004613089565b610a3d565b34801561032a57600080fd5b5061022261033936600461312a565b610cd9565b34801561034a57600080fd5b5060655460ff1660405190151581526020016101f9565b34801561036d57600080fd5b5061022261037c36600461316c565b610faf565b34801561038d57600080fd5b50609d5461039e9063ffffffff1681565b60405163ffffffff90911681526020016101f9565b3480156103bf57600080fd5b506102226103ce36600461312a565b611413565b3480156103df57600080fd5b506102226103ee366004613089565b611700565b3480156103ff57600080fd5b5061022261040e36600461312a565b61192f565b34801561041f57600080fd5b50610222611ba7565b34801561043457600080fd5b50609954610244906001600160a01b031681565b34801561045457600080fd5b50609d5463ffffffff1661039e565b34801561046f57600080fd5b506104ce61047e3660046130c2565b609760205260009081526040902080546001820154600283015460038401546004850154600586015460068701546007909701546001600160a01b03968716979590961695939492939192909188565b604080516001600160a01b03998a168152989097166020890152958701949094526060860192909252608085015260a084015260c083015260e0820152610100016101f9565b34801561052057600080fd5b5061022261052f36600461316c565b611c1d565b6102226105423660046130df565b612202565b34801561055357600080fd5b506102226105623660046131a3565b61250e565b34801561057357600080fd5b506102226105823660046130c2565b612605565b6001600160a01b03811660009081526097602052604090206004810154600382015410156106195760006105cc826003015483600401546126ad90919063ffffffff16565b9050816002015460001461060d576002820154610607906105fc906105f68464e8d4a510006126c0565b906126cc565b6005840154906126d8565b60058301555b50600481015460038201555b5050565b60655460ff16156106755760405162461bcd60e51b815260206004820152601060248201527f5061757361626c653a207061757365640000000000000000000000000000000060448201526064015b60405180910390fd5b341515806106a057506001600160a01b03811673420000000000000000000000000000000000000614155b6106ec5760405162461bcd60e51b815260206004820152601060248201527f416d6f756e7420496e636f727265637400000000000000000000000000000000604482015260640161066c565b341561070c57503490507342000000000000000000000000000000000000065b6001600160a01b03808216600090815260976020526040902060018101549091166107795760405162461bcd60e51b815260206004820152601c60248201527f546f6b656e2041646472657373204e6f74205265676973746572656400000000604482015260640161066c565b6001600160a01b038216734200000000000000000000000000000000000006146107b2576107b26001600160a01b0383163330866126e4565b805460408051336024820152604481018690526001600160a01b039283166064808301919091528251808303909101815260849091019091526020810180517bffffffffffffffffffffffffffffffffffffffffffffffffffffffff167fcf26fb1b00000000000000000000000000000000000000000000000000000000179052609a54609d54919261084f9291169063ffffffff165b836127b9565b60408051338152602081018690526001600160a01b038516918101919091527fe57500de6b6dcf76b201fef514aca6501809e3b700c9fbd5e803567c66edf54c906060015b60405180910390a150505050565b6099546001600160a01b03163314806108c457506099546001600160a01b0316155b6109105760405162461bcd60e51b815260206004820152601760248201527f63616c6c6572206973206e6f7420746865206f776e6572000000000000000000604482015260640161066c565b609a546001600160a01b031661098e5760405162461bcd60e51b815260206004820152602560248201527f436f6e747261637420686173206e6f7420796574206265656e20696e6974696160448201527f6c697a6564000000000000000000000000000000000000000000000000000000606482015260840161066c565b609d80547fffffffffffffffffffffffffffffffffffffffffffffffffffffffff000000001663ffffffff92909216919091179055565b6099546001600160a01b03163314806109e757506099546001600160a01b0316155b610a335760405162461bcd60e51b815260206004820152601760248201527f63616c6c6572206973206e6f7420746865206f776e6572000000000000000000604482015260640161066c565b610a3b61283d565b565b6099546001600160a01b0316331480610a5f57506099546001600160a01b0316155b610aab5760405162461bcd60e51b815260206004820152601760248201527f63616c6c6572206973206e6f7420746865206f776e6572000000000000000000604482015260640161066c565b609a546001600160a01b031615610b045760405162461bcd60e51b815260206004820152601d60248201527f436f6e747261637420686173206265656e20696e697469616c697a6564000000604482015260640161066c565b6000547501000000000000000000000000000000000000000000900460ff1680610b49575060005474010000000000000000000000000000000000000000900460ff16155b610bbb5760405162461bcd60e51b815260206004820152602e60248201527f496e697469616c697a61626c653a20636f6e747261637420697320616c72656160448201527f647920696e697469616c697a6564000000000000000000000000000000000000606482015260840161066c565b6000547501000000000000000000000000000000000000000000900460ff16158015610c2257600080547fffffffffffffffffffff0000ffffffffffffffffffffffffffffffffffffffff1675010100000000000000000000000000000000000000001790555b600080546001600160a01b038086167fffffffffffffffffffffffff000000000000000000000000000000000000000092831617909255609a8054928516928216929092179091556099805490911633179055610c816023600f61250e565b610c8d620186a06108a2565b610c956128f7565b610c9d612a47565b610ca5612bbe565b8015610cd457600080547fffffffffffffffffffff00ffffffffffffffffffffffffffffffffffffffffff1690555b505050565b60655460ff1615610d2c5760405162461bcd60e51b815260206004820152601060248201527f5061757361626c653a2070617573656400000000000000000000000000000000604482015260640161066c565b6001600160a01b0380831660009081526097602090815260408083206098835281842033855290925290912060018201549192909116610dae5760405162461bcd60e51b815260206004820152601c60248201527f546f6b656e2041646472657373204e6f74205265676973746572656400000000604482015260640161066c565b6000610df0610de58360010154610ddf64e8d4a510006105f6886005015488600001546126c090919063ffffffff16565b906126ad565b6002840154906126d8565b905085811015610e425760405162461bcd60e51b815260206004820152601560248201527f576974686472617720526577617264204572726f720000000000000000000000604482015260640161066c565b610e4c81876126ad565b600283015560058301548254610e6c9164e8d4a51000916105f6916126c0565b60018301556001600160a01b03851673420000000000000000000000000000000000000614610eae57610ea96001600160a01b0386168588612d11565b610f57565b6000846001600160a01b03166108fc88604051600060405180830381858888f193505050503d8060008114610eff576040519150601f19603f3d011682016040523d82523d6000602084013e610f04565b606091505b5050905080610f555760405162461bcd60e51b815260206004820152601660248201527f4661696c656420746f2073656e64206f766d5f45746800000000000000000000604482015260640161066c565b505b604080513381526001600160a01b0386811660208301528183018990528716606082015290517f3cb7cb475a33eda02ee6e719b6c2fc0c899157cfc6f098daf545354dbbce41ec9181900360800190a1505050505050565b609a546001600160a01b031661102d5760405162461bcd60e51b815260206004820152602560248201527f436f6e747261637420686173206e6f7420796574206265656e20696e6974696160448201527f6c697a6564000000000000000000000000000000000000000000000000000000606482015260840161066c565b609a546001600160a01b031661104b6000546001600160a01b031690565b6001600160a01b0316336001600160a01b0316146110d15760405162461bcd60e51b815260206004820152602e60248201527f4f564d5f58434841494e3a206d657373656e67657220636f6e7472616374207560448201527f6e61757468656e74696361746564000000000000000000000000000000000000606482015260840161066c565b806001600160a01b03166110ed6000546001600160a01b031690565b6001600160a01b0316636e296e456040518163ffffffff1660e01b815260040160206040518083038186803b15801561112557600080fd5b505afa158015611139573d6000803e3d6000fd5b505050506040513d601f19601f8201168201806040525081019061115d91906131c5565b6001600160a01b0316146111d95760405162461bcd60e51b815260206004820152603060248201527f4f564d5f58434841494e3a2077726f6e672073656e646572206f662063726f7360448201527f732d646f6d61696e206d65737361676500000000000000000000000000000000606482015260840161066c565b60655460ff161561122c5760405162461bcd60e51b815260206004820152601060248201527f5061757361626c653a2070617573656400000000000000000000000000000000604482015260640161066c565b6001600160a01b0382166000908152609760205260408120609b5490919061125d906103e8906105f69088906126c0565b9050600061127c6103e86105f6609c54896126c090919063ffffffff16565b9050600061128a83836126d8565b9050600061129888836126ad565b60048601549091506112aa90856126d8565b600486015560068501546112be90846126d8565b60068601556001600160a01b03871673420000000000000000000000000000000000000614611300576112fb6001600160a01b0388168a83612d11565b6113a9565b6000896001600160a01b03166108fc83604051600060405180830381858888f193505050503d8060008114611351576040519150601f19603f3d011682016040523d82523d6000602084013e611356565b606091505b50509050806113a75760405162461bcd60e51b815260206004820152601660248201527f4661696c656420746f2073656e64206f766d5f45746800000000000000000000604482015260640161066c565b505b604080516001600160a01b038b81168252602082018490528183018790526060820186905260808201859052891660a082015290517ff1068421680e00dfc2c4f3fc20c7f565bf1ec365420e7544365bae13d5cbc8c89181900360c00190a1505050505050505050565b60655460ff16156114665760405162461bcd60e51b815260206004820152601060248201527f5061757361626c653a2070617573656400000000000000000000000000000000604482015260640161066c565b6001600160a01b03808316600090815260976020908152604080832060988352818420338552909252909120600182015491929091166114e85760405162461bcd60e51b815260206004820152601c60248201527f546f6b656e2041646472657373204e6f74205265676973746572656400000000604482015260640161066c565b80548511156115395760405162461bcd60e51b815260206004820152600e60248201527f5769746864726177204572726f72000000000000000000000000000000000000604482015260640161066c565b61154284610587565b61157c6115718260010154610ddf64e8d4a510006105f6876005015487600001546126c090919063ffffffff16565b6002830154906126d8565b6002820155805461158d90866126ad565b80825560058301546115aa9164e8d4a51000916105f691906126c0565b600182015560028201546115be90866126ad565b60028301556001600160a01b03841673420000000000000000000000000000000000000614611600576115fb6001600160a01b0385168487612d11565b6116a9565b6000836001600160a01b03166108fc87604051600060405180830381858888f193505050503d8060008114611651576040519150601f19603f3d011682016040523d82523d6000602084013e611656565b606091505b50509050806116a75760405162461bcd60e51b815260206004820152601660248201527f4661696c656420746f2073656e64206f766d5f45746800000000000000000000604482015260640161066c565b505b604080513381526001600160a01b0385811660208301528183018890528616606082015290517ffa2e8fcf14fd6ea11b6ebe7caf7de210198b8fe1eaf0e06d19f8d87c73860c469181900360800190a15050505050565b6099546001600160a01b031633148061172257506099546001600160a01b0316155b61176e5760405162461bcd60e51b815260206004820152601760248201527f63616c6c6572206973206e6f7420746865206f776e6572000000000000000000604482015260640161066c565b806001600160a01b0316826001600160a01b031614156117f65760405162461bcd60e51b815260206004820152602860248201527f6c3120616e64206c3220746f6b656e206164647265737365732063616e6e6f7460448201527f2062652073616d65000000000000000000000000000000000000000000000000606482015260840161066c565b6001600160a01b0380821660009081526097602052604090206001810154909116156118645760405162461bcd60e51b815260206004820152601f60248201527f546f6b656e204164647265737320416c72656164792052656769737465726400604482015260640161066c565b5060408051610100810182526001600160a01b03938416815291831660208084018281526000858501818152606087018281526080880183815260a0890184815260c08a018581524260e08c0190815298865260979097529790932097518854908a167fffffffffffffffffffffffff0000000000000000000000000000000000000000918216178955935160018901805491909a16941693909317909755955160028601555160038501559351600484015590516005830155915160068201559051600790910155565b6099546001600160a01b031633148061195157506099546001600160a01b0316155b61199d5760405162461bcd60e51b815260206004820152601760248201527f63616c6c6572206973206e6f7420746865206f776e6572000000000000000000604482015260640161066c565b6001600160a01b0380831660009081526097602052604090206001810154909116611a0a5760405162461bcd60e51b815260206004820152601a60248201527f546f6b656e2041646472657373204e6f74205265676973746572000000000000604482015260640161066c565b8381600601541015611a5e5760405162461bcd60e51b815260206004820152601b60248201527f4f776e657220526577617264205769746864726177204572726f720000000000604482015260640161066c565b6006810154611a6d90856126ad565b60068201556001600160a01b03831673420000000000000000000000000000000000000614611aaf57611aaa6001600160a01b0384168386612d11565b611b58565b6000826001600160a01b03166108fc86604051600060405180830381858888f193505050503d8060008114611b00576040519150601f19603f3d011682016040523d82523d6000602084013e611b05565b606091505b5050905080611b565760405162461bcd60e51b815260206004820152601660248201527f4661696c656420746f2073656e64206f766d5f45746800000000000000000000604482015260640161066c565b505b604080513381526001600160a01b03808516602083015291810186905290841660608201527f3cb71b9a1fb601579f96812b9f86ab5e914fc3e54c98d5f84d95581b2b9884f390608001610894565b6099546001600160a01b0316331480611bc957506099546001600160a01b0316155b611c155760405162461bcd60e51b815260206004820152601760248201527f63616c6c6572206973206e6f7420746865206f776e6572000000000000000000604482015260640161066c565b610a3b612d5a565b609a546001600160a01b0316611c9b5760405162461bcd60e51b815260206004820152602560248201527f436f6e747261637420686173206e6f7420796574206265656e20696e6974696160448201527f6c697a6564000000000000000000000000000000000000000000000000000000606482015260840161066c565b609a546001600160a01b0316611cb96000546001600160a01b031690565b6001600160a01b0316336001600160a01b031614611d3f5760405162461bcd60e51b815260206004820152602e60248201527f4f564d5f58434841494e3a206d657373656e67657220636f6e7472616374207560448201527f6e61757468656e74696361746564000000000000000000000000000000000000606482015260840161066c565b806001600160a01b0316611d5b6000546001600160a01b031690565b6001600160a01b0316636e296e456040518163ffffffff1660e01b815260040160206040518083038186803b158015611d9357600080fd5b505afa158015611da7573d6000803e3d6000fd5b505050506040513d601f19601f82011682018060405250810190611dcb91906131c5565b6001600160a01b031614611e475760405162461bcd60e51b815260206004820152603060248201527f4f564d5f58434841494e3a2077726f6e672073656e646572206f662063726f7360448201527f732d646f6d61696e206d65737361676500000000000000000000000000000000606482015260840161066c565b60655460ff1615611e9a5760405162461bcd60e51b815260206004820152601060248201527f5061757361626c653a2070617573656400000000000000000000000000000000604482015260640161066c565b6001600160a01b0382166000908152609760205260408120609b548290611eca906103e8906105f69089906126c0565b90506000611ee96103e86105f6609c548a6126c090919063ffffffff16565b90506000611ef783836126d8565b90506000611f0589836126ad565b90506001600160a01b0388167342000000000000000000000000000000000000061461200c576040517f70a082310000000000000000000000000000000000000000000000000000000081523060048201526001600160a01b038916906370a082319060240160206040518083038186803b158015611f8357600080fd5b505afa158015611f97573d6000803e3d6000fd5b505050506040513d601f19601f82011682018060405250810190611fbb91906131e2565b811115611fcb57600195506120ed565b6004850154611fda90856126d8565b60048601556006850154611fee90846126d8565b60068601556120076001600160a01b0389168b83612d11565b6120ed565b4781111561201d57600195506120ed565b600485015461202c90856126d8565b6004860155600685015461204090846126d8565b60068601556040516000906001600160a01b038c16906108fc90849084818181858888f193505050503d8060008114612095576040519150601f19603f3d011682016040523d82523d6000602084013e61209a565b606091505b50509050806120eb5760405162461bcd60e51b815260206004820152601660248201527f4661696c656420746f2073656e64206f766d5f45746800000000000000000000604482015260640161066c565b505b8515612196578454604080516001600160a01b038d81166024830152604482018d90529283166064808301919091528251808303909101815260849091019091526020810180517bffffffffffffffffffffffffffffffffffffffffffffffffffffffff167f53174cc100000000000000000000000000000000000000000000000000000000179052609a54609d5491926121909291169063ffffffff16610849565b506121f6565b604080516001600160a01b038c811682526020820184905281830187905260608201869052608082018590528a1660a082015290517fedb4d3b4b55168608412f15db11c00859915842963c31b1f08d910a38e1d6aa49181900360c00190a15b50505050505050505050565b600260015414156122555760405162461bcd60e51b815260206004820152601f60248201527f5265656e7472616e637947756172643a207265656e7472616e742063616c6c00604482015260640161066c565b600260015560655460ff16156122ad5760405162461bcd60e51b815260206004820152601060248201527f5061757361626c653a2070617573656400000000000000000000000000000000604482015260640161066c565b341515806122d857506001600160a01b03811673420000000000000000000000000000000000000614155b6123245760405162461bcd60e51b815260206004820152601060248201527f416d6f756e7420496e636f727265637400000000000000000000000000000000604482015260640161066c565b341561234457503490507342000000000000000000000000000000000000065b6001600160a01b03808216600090815260976020908152604080832060988352818420338552909252909120600182015491929091166123c65760405162461bcd60e51b815260206004820152601c60248201527f546f6b656e2041646472657373204e6f74205265676973746572656400000000604482015260640161066c565b6123cf83610587565b80541561243b576124056115718260010154610ddf64e8d4a510006105f6876005015487600001546126c090919063ffffffff16565b6002820155600582015481546124319164e8d4a51000916105f6919061242b90896126d8565b906126c0565b6001820155612461565b61245b64e8d4a510006105f68460050154876126c090919063ffffffff16565b60018201555b6001600160a01b0383167342000000000000000000000000000000000000061461249a5761249a6001600160a01b0384163330876126e4565b80546124a690856126d8565b815560028201546124b790856126d8565b600283015560408051338152602081018690526001600160a01b0385168183015290517f5852d1d46e583f7e92c2a572221de0e681d82ef71f489847e056b9445c0147369181900360600190a15050600180555050565b6099546001600160a01b031633148061253057506099546001600160a01b0316155b61257c5760405162461bcd60e51b815260206004820152601760248201527f63616c6c6572206973206e6f7420746865206f776e6572000000000000000000604482015260640161066c565b609a546001600160a01b03166125fa5760405162461bcd60e51b815260206004820152602560248201527f436f6e747261637420686173206e6f7420796574206265656e20696e6974696160448201527f6c697a6564000000000000000000000000000000000000000000000000000000606482015260840161066c565b609b91909155609c55565b6099546001600160a01b031633148061262757506099546001600160a01b0316155b6126735760405162461bcd60e51b815260206004820152601760248201527f63616c6c6572206973206e6f7420746865206f776e6572000000000000000000604482015260640161066c565b609980547fffffffffffffffffffffffff0000000000000000000000000000000000000000166001600160a01b0392909216919091179055565b60006126b9828461322a565b9392505050565b60006126b98284613241565b60006126b9828461327e565b60006126b982846132b9565b6040516001600160a01b03808516602483015283166044820152606481018290526127b39085907f23b872dd00000000000000000000000000000000000000000000000000000000906084015b604080517fffffffffffffffffffffffffffffffffffffffffffffffffffffffffffffffe08184030181529190526020810180517bffffffffffffffffffffffffffffffffffffffffffffffffffffffff167fffffffff0000000000000000000000000000000000000000000000000000000090931692909217909152612e00565b50505050565b6000546040517f3dbb202b0000000000000000000000000000000000000000000000000000000081526001600160a01b0390911690633dbb202b9061280690869085908790600401613347565b600060405180830381600087803b15801561282057600080fd5b505af1158015612834573d6000803e3d6000fd5b50505050505050565b60655460ff1661288f5760405162461bcd60e51b815260206004820152601460248201527f5061757361626c653a206e6f7420706175736564000000000000000000000000604482015260640161066c565b606580547fffffffffffffffffffffffffffffffffffffffffffffffffffffffffffffff001690557f5db9ee0a495bf2e6ff9c91a7834c1ba4fdd244a5e8aa4e537bd38aeae4b073aa335b6040516001600160a01b03909116815260200160405180910390a1565b6000547501000000000000000000000000000000000000000000900460ff168061293c575060005474010000000000000000000000000000000000000000900460ff16155b6129ae5760405162461bcd60e51b815260206004820152602e60248201527f496e697469616c697a61626c653a20636f6e747261637420697320616c72656160448201527f647920696e697469616c697a6564000000000000000000000000000000000000606482015260840161066c565b6000547501000000000000000000000000000000000000000000900460ff16158015612a1557600080547fffffffffffffffffffff0000ffffffffffffffffffffffffffffffffffffffff1675010100000000000000000000000000000000000000001790555b8015612a4457600080547fffffffffffffffffffff00ffffffffffffffffffffffffffffffffffffffffff1690555b50565b6000547501000000000000000000000000000000000000000000900460ff1680612a8c575060005474010000000000000000000000000000000000000000900460ff16155b612afe5760405162461bcd60e51b815260206004820152602e60248201527f496e697469616c697a61626c653a20636f6e747261637420697320616c72656160448201527f647920696e697469616c697a6564000000000000000000000000000000000000606482015260840161066c565b6000547501000000000000000000000000000000000000000000900460ff16158015612b6557600080547fffffffffffffffffffff0000ffffffffffffffffffffffffffffffffffffffff1675010100000000000000000000000000000000000000001790555b606580547fffffffffffffffffffffffffffffffffffffffffffffffffffffffffffffff001690558015612a4457600080547fffffffffffffffffffff00ffffffffffffffffffffffffffffffffffffffffff16905550565b6000547501000000000000000000000000000000000000000000900460ff1680612c03575060005474010000000000000000000000000000000000000000900460ff16155b612c755760405162461bcd60e51b815260206004820152602e60248201527f496e697469616c697a61626c653a20636f6e747261637420697320616c72656160448201527f647920696e697469616c697a6564000000000000000000000000000000000000606482015260840161066c565b6000547501000000000000000000000000000000000000000000900460ff16158015612cdc57600080547fffffffffffffffffffff0000ffffffffffffffffffffffffffffffffffffffff1675010100000000000000000000000000000000000000001790555b600180558015612a4457600080547fffffffffffffffffffff00ffffffffffffffffffffffffffffffffffffffffff16905550565b6040516001600160a01b038316602482015260448101829052610cd49084907fa9059cbb0000000000000000000000000000000000000000000000000000000090606401612731565b60655460ff1615612dad5760405162461bcd60e51b815260206004820152601060248201527f5061757361626c653a2070617573656400000000000000000000000000000000604482015260640161066c565b606580547fffffffffffffffffffffffffffffffffffffffffffffffffffffffffffffff001660011790557f62e78cea01bee320cd4e420270b5ea74000d11b0c9f74754ebdbfc544b05a2586128da3390565b6000612e55826040518060400160405280602081526020017f5361666545524332303a206c6f772d6c6576656c2063616c6c206661696c6564815250856001600160a01b0316612ee59092919063ffffffff16565b805190915015610cd45780806020019051810190612e73919061337f565b610cd45760405162461bcd60e51b815260206004820152602a60248201527f5361666545524332303a204552433230206f7065726174696f6e20646964206e60448201527f6f74207375636365656400000000000000000000000000000000000000000000606482015260840161066c565b6060612ef48484600085612efc565b949350505050565b606082471015612f745760405162461bcd60e51b815260206004820152602660248201527f416464726573733a20696e73756666696369656e742062616c616e636520666f60448201527f722063616c6c0000000000000000000000000000000000000000000000000000606482015260840161066c565b843b612fc25760405162461bcd60e51b815260206004820152601d60248201527f416464726573733a2063616c6c20746f206e6f6e2d636f6e7472616374000000604482015260640161066c565b600080866001600160a01b03168587604051612fde91906133a1565b60006040518083038185875af1925050503d806000811461301b576040519150601f19603f3d011682016040523d82523d6000602084013e613020565b606091505b509150915061303082828661303b565b979650505050505050565b6060831561304a5750816126b9565b82511561305a5782518084602001fd5b8160405162461bcd60e51b815260040161066c91906133bd565b6001600160a01b0381168114612a4457600080fd5b6000806040838503121561309c57600080fd5b82356130a781613074565b915060208301356130b781613074565b809150509250929050565b6000602082840312156130d457600080fd5b81356126b981613074565b600080604083850312156130f257600080fd5b8235915060208301356130b781613074565b60006020828403121561311657600080fd5b813563ffffffff811681146126b957600080fd5b60008060006060848603121561313f57600080fd5b83359250602084013561315181613074565b9150604084013561316181613074565b809150509250925092565b60008060006060848603121561318157600080fd5b833561318c81613074565b925060208401359150604084013561316181613074565b600080604083850312156131b657600080fd5b50508035926020909101359150565b6000602082840312156131d757600080fd5b81516126b981613074565b6000602082840312156131f457600080fd5b5051919050565b7f4e487b7100000000000000000000000000000000000000000000000000000000600052601160045260246000fd5b60008282101561323c5761323c6131fb565b500390565b6000817fffffffffffffffffffffffffffffffffffffffffffffffffffffffffffffffff0483118215151615613279576132796131fb565b500290565b6000826132b4577f4e487b7100000000000000000000000000000000000000000000000000000000600052601260045260246000fd5b500490565b600082198211156132cc576132cc6131fb565b500190565b60005b838110156132ec5781810151838201526020016132d4565b838111156127b35750506000910152565b600081518084526133158160208601602086016132d1565b601f017fffffffffffffffffffffffffffffffffffffffffffffffffffffffffffffffe0169290920160200192915050565b6001600160a01b038416815260606020820152600061336960608301856132fd565b905063ffffffff83166040830152949350505050565b60006020828403121561339157600080fd5b815180151581146126b957600080fd5b600082516133b38184602087016132d1565b9190910192915050565b6020815260006126b960208301846132fd56fea164736f6c6343000808000a",
  "linkReferences": {},
  "deployedLinkReferences": {}
}