{
  "_format": "hh-sol-artifact-1",
  "contractName": "L2LiquidityPool",
  "sourceName": "contracts/LP/L2LiquidityPool.sol",
  "abi": [
    {
      "inputs": [],
      "stateMutability": "nonpayable",
      "type": "constructor"
    },
    {
      "anonymous": false,
      "inputs": [
        {
          "indexed": false,
          "internalType": "address",
          "name": "sender",
          "type": "address"
        },
        {
          "indexed": false,
          "internalType": "uint256",
          "name": "amount",
          "type": "uint256"
        },
        {
          "indexed": false,
          "internalType": "address",
          "name": "tokenAddress",
          "type": "address"
        }
      ],
      "name": "AddLiquidity",
      "type": "event"
    },
    {
      "anonymous": false,
      "inputs": [
        {
          "indexed": false,
          "internalType": "address",
          "name": "sender",
          "type": "address"
        },
        {
          "indexed": false,
          "internalType": "uint256",
          "name": "receivedAmount",
          "type": "uint256"
        },
        {
          "indexed": false,
          "internalType": "address",
          "name": "tokenAddress",
          "type": "address"
        }
      ],
      "name": "ClientDepositL2",
      "type": "event"
    },
    {
      "anonymous": false,
      "inputs": [
        {
          "indexed": false,
          "internalType": "address",
          "name": "sender",
          "type": "address"
        },
        {
          "indexed": false,
          "internalType": "uint256",
          "name": "amount",
          "type": "uint256"
        },
        {
          "indexed": false,
          "internalType": "uint256",
          "name": "userRewardFee",
          "type": "uint256"
        },
        {
          "indexed": false,
          "internalType": "uint256",
          "name": "ownerRewardFee",
          "type": "uint256"
        },
        {
          "indexed": false,
          "internalType": "uint256",
          "name": "totalFee",
          "type": "uint256"
        },
        {
          "indexed": false,
          "internalType": "address",
          "name": "tokenAddress",
          "type": "address"
        }
      ],
      "name": "ClientPayL2",
      "type": "event"
    },
    {
      "anonymous": false,
      "inputs": [
        {
          "indexed": false,
          "internalType": "address",
          "name": "sender",
          "type": "address"
        },
        {
          "indexed": false,
          "internalType": "uint256",
          "name": "amount",
          "type": "uint256"
        },
        {
          "indexed": false,
          "internalType": "uint256",
          "name": "userRewardFee",
          "type": "uint256"
        },
        {
          "indexed": false,
          "internalType": "uint256",
          "name": "ownerRewardFee",
          "type": "uint256"
        },
        {
          "indexed": false,
          "internalType": "uint256",
          "name": "totalFee",
          "type": "uint256"
        },
        {
          "indexed": false,
          "internalType": "address",
          "name": "tokenAddress",
          "type": "address"
        }
      ],
      "name": "ClientPayL2Settlement",
      "type": "event"
    },
    {
      "anonymous": false,
      "inputs": [
        {
          "indexed": false,
          "internalType": "address",
          "name": "sender",
          "type": "address"
        },
        {
          "indexed": false,
          "internalType": "address",
          "name": "receiver",
          "type": "address"
        },
        {
          "indexed": false,
          "internalType": "uint256",
          "name": "amount",
          "type": "uint256"
        },
        {
          "indexed": false,
          "internalType": "address",
          "name": "tokenAddress",
          "type": "address"
        }
      ],
      "name": "OwnerRecoverFee",
      "type": "event"
    },
    {
      "anonymous": false,
      "inputs": [
        {
          "indexed": false,
          "internalType": "address",
          "name": "account",
          "type": "address"
        }
      ],
      "name": "Paused",
      "type": "event"
    },
    {
      "anonymous": false,
      "inputs": [
        {
          "indexed": false,
          "internalType": "uint256",
          "name": "amount",
          "type": "uint256"
        },
        {
          "indexed": false,
          "internalType": "address",
          "name": "tokenAddress",
          "type": "address"
        }
      ],
      "name": "RebalanceLP",
      "type": "event"
    },
    {
      "anonymous": false,
      "inputs": [
        {
          "indexed": false,
          "internalType": "address",
          "name": "account",
          "type": "address"
        }
      ],
      "name": "Unpaused",
      "type": "event"
    },
    {
      "anonymous": false,
      "inputs": [
        {
          "indexed": false,
          "internalType": "address",
          "name": "sender",
          "type": "address"
        },
        {
          "indexed": false,
          "internalType": "address",
          "name": "receiver",
          "type": "address"
        },
        {
          "indexed": false,
          "internalType": "uint256",
          "name": "amount",
          "type": "uint256"
        },
        {
          "indexed": false,
          "internalType": "address",
          "name": "tokenAddress",
          "type": "address"
        }
      ],
      "name": "WithdrawLiquidity",
      "type": "event"
    },
    {
      "anonymous": false,
      "inputs": [
        {
          "indexed": false,
          "internalType": "address",
          "name": "sender",
          "type": "address"
        },
        {
          "indexed": false,
          "internalType": "address",
          "name": "receiver",
          "type": "address"
        },
        {
          "indexed": false,
          "internalType": "uint256",
          "name": "amount",
          "type": "uint256"
        },
        {
          "indexed": false,
          "internalType": "address",
          "name": "tokenAddress",
          "type": "address"
        }
      ],
      "name": "WithdrawReward",
      "type": "event"
    },
    {
      "inputs": [],
      "name": "BOBAAddress",
      "outputs": [
        {
          "internalType": "address",
          "name": "",
          "type": "address"
        }
      ],
      "stateMutability": "view",
      "type": "function"
    },
    {
      "inputs": [],
      "name": "DAO",
      "outputs": [
        {
          "internalType": "address",
          "name": "",
          "type": "address"
        }
      ],
      "stateMutability": "view",
      "type": "function"
    },
    {
      "inputs": [],
      "name": "DEFAULT_FINALIZE_WITHDRAWAL_L1_GAS",
      "outputs": [
        {
          "internalType": "uint32",
          "name": "",
          "type": "uint32"
        }
      ],
      "stateMutability": "view",
      "type": "function"
    },
    {
      "inputs": [],
      "name": "L1LiquidityPoolAddress",
      "outputs": [
        {
          "internalType": "address",
          "name": "",
          "type": "address"
        }
      ],
      "stateMutability": "view",
      "type": "function"
    },
    {
      "inputs": [
        {
          "internalType": "uint256",
          "name": "_amount",
          "type": "uint256"
        },
        {
          "internalType": "address",
          "name": "_tokenAddress",
          "type": "address"
        }
      ],
      "name": "addLiquidity",
      "outputs": [],
      "stateMutability": "payable",
      "type": "function"
    },
    {
      "inputs": [
        {
          "internalType": "uint256",
          "name": "_amount",
          "type": "uint256"
        },
        {
          "internalType": "address",
          "name": "_tokenAddress",
          "type": "address"
        }
      ],
      "name": "clientDepositL2",
      "outputs": [],
      "stateMutability": "payable",
      "type": "function"
    },
    {
      "inputs": [
        {
          "internalType": "address payable",
          "name": "_to",
          "type": "address"
        },
        {
          "internalType": "uint256",
          "name": "_amount",
          "type": "uint256"
        },
        {
          "internalType": "address",
          "name": "_tokenAddress",
          "type": "address"
        }
      ],
      "name": "clientPayL2",
      "outputs": [],
      "stateMutability": "nonpayable",
      "type": "function"
    },
    {
      "inputs": [
        {
          "internalType": "address payable",
          "name": "_to",
          "type": "address"
        },
        {
          "internalType": "uint256",
          "name": "_amount",
          "type": "uint256"
        },
        {
          "internalType": "address",
          "name": "_tokenAddress",
          "type": "address"
        }
      ],
      "name": "clientPayL2Settlement",
      "outputs": [],
      "stateMutability": "nonpayable",
      "type": "function"
    },
    {
      "inputs": [
        {
          "internalType": "uint256",
          "name": "_extraGas",
          "type": "uint256"
        }
      ],
      "name": "configureExtraGasRelay",
      "outputs": [],
      "stateMutability": "nonpayable",
      "type": "function"
    },
    {
      "inputs": [
        {
          "internalType": "uint256",
          "name": "_userRewardMinFeeRate",
          "type": "uint256"
        },
        {
          "internalType": "uint256",
          "name": "_userRewardMaxFeeRate",
          "type": "uint256"
        },
        {
          "internalType": "uint256",
          "name": "_ownerRewardFeeRate",
          "type": "uint256"
        }
      ],
      "name": "configureFee",
      "outputs": [],
      "stateMutability": "nonpayable",
      "type": "function"
    },
    {
      "inputs": [
        {
          "internalType": "uint256",
          "name": "_userRewardMinFeeRate",
          "type": "uint256"
        },
        {
          "internalType": "uint256",
          "name": "_userRewardMaxFeeRate",
          "type": "uint256"
        },
        {
          "internalType": "uint256",
          "name": "_ownerRewardFeeRate",
          "type": "uint256"
        }
      ],
      "name": "configureFeeExits",
      "outputs": [],
      "stateMutability": "nonpayable",
      "type": "function"
    },
    {
      "inputs": [
        {
          "internalType": "uint32",
          "name": "_l1GasFee",
          "type": "uint32"
        }
      ],
      "name": "configureGas",
      "outputs": [],
      "stateMutability": "nonpayable",
      "type": "function"
    },
    {
      "inputs": [],
      "name": "extraGasRelay",
      "outputs": [
        {
          "internalType": "uint256",
          "name": "",
          "type": "uint256"
        }
      ],
      "stateMutability": "view",
      "type": "function"
    },
    {
      "inputs": [],
      "name": "getFinalizeDepositL1Gas",
      "outputs": [
        {
          "internalType": "uint32",
          "name": "",
          "type": "uint32"
        }
      ],
      "stateMutability": "view",
      "type": "function"
    },
    {
      "inputs": [
        {
          "internalType": "address",
          "name": "_l2TokenAddress",
          "type": "address"
        }
      ],
      "name": "getUserRewardFeeRate",
      "outputs": [
        {
          "internalType": "uint256",
          "name": "userRewardFeeRate",
          "type": "uint256"
        }
      ],
      "stateMutability": "view",
      "type": "function"
    },
    {
      "inputs": [
        {
          "internalType": "address",
          "name": "_l2CrossDomainMessenger",
          "type": "address"
        },
        {
          "internalType": "address",
          "name": "_L1LiquidityPoolAddress",
          "type": "address"
        }
      ],
      "name": "initialize",
      "outputs": [],
      "stateMutability": "nonpayable",
      "type": "function"
    },
    {
      "inputs": [],
      "name": "messenger",
      "outputs": [
        {
          "internalType": "address",
          "name": "",
          "type": "address"
        }
      ],
      "stateMutability": "view",
      "type": "function"
    },
    {
      "inputs": [],
      "name": "owner",
      "outputs": [
        {
          "internalType": "address",
          "name": "",
          "type": "address"
        }
      ],
      "stateMutability": "view",
      "type": "function"
    },
    {
      "inputs": [
        {
          "internalType": "uint256",
          "name": "_amount",
          "type": "uint256"
        },
        {
          "internalType": "address",
          "name": "_tokenAddress",
          "type": "address"
        },
        {
          "internalType": "address",
          "name": "_to",
          "type": "address"
        }
      ],
      "name": "ownerRecoverFee",
      "outputs": [],
      "stateMutability": "nonpayable",
      "type": "function"
    },
    {
      "inputs": [],
      "name": "ownerRewardFeeRate",
      "outputs": [
        {
          "internalType": "uint256",
          "name": "",
          "type": "uint256"
        }
      ],
      "stateMutability": "view",
      "type": "function"
    },
    {
      "inputs": [],
      "name": "pause",
      "outputs": [],
      "stateMutability": "nonpayable",
      "type": "function"
    },
    {
      "inputs": [],
      "name": "paused",
      "outputs": [
        {
          "internalType": "bool",
          "name": "",
          "type": "bool"
        }
      ],
      "stateMutability": "view",
      "type": "function"
    },
    {
      "inputs": [
        {
          "internalType": "address",
          "name": "",
          "type": "address"
        }
      ],
      "name": "poolInfo",
      "outputs": [
        {
          "internalType": "address",
          "name": "l1TokenAddress",
          "type": "address"
        },
        {
          "internalType": "address",
          "name": "l2TokenAddress",
          "type": "address"
        },
        {
          "internalType": "uint256",
          "name": "userDepositAmount",
          "type": "uint256"
        },
        {
          "internalType": "uint256",
          "name": "lastAccUserReward",
          "type": "uint256"
        },
        {
          "internalType": "uint256",
          "name": "accUserReward",
          "type": "uint256"
        },
        {
          "internalType": "uint256",
          "name": "accUserRewardPerShare",
          "type": "uint256"
        },
        {
          "internalType": "uint256",
          "name": "accOwnerReward",
          "type": "uint256"
        },
        {
          "internalType": "uint256",
          "name": "startTime",
          "type": "uint256"
        }
      ],
      "stateMutability": "view",
      "type": "function"
    },
    {
      "inputs": [
        {
          "internalType": "uint256",
          "name": "_amount",
          "type": "uint256"
        },
        {
          "internalType": "address",
          "name": "_tokenAddress",
          "type": "address"
        }
      ],
      "name": "rebalanceLP",
      "outputs": [],
      "stateMutability": "nonpayable",
      "type": "function"
    },
    {
      "inputs": [
        {
          "internalType": "address",
          "name": "_BOBAAddress",
          "type": "address"
        },
        {
          "internalType": "address",
          "name": "_xBOBAAddress",
          "type": "address"
        }
      ],
      "name": "registerBOBA",
      "outputs": [],
      "stateMutability": "nonpayable",
      "type": "function"
    },
    {
      "inputs": [
        {
          "internalType": "address",
          "name": "_l1TokenAddress",
          "type": "address"
        },
        {
          "internalType": "address",
          "name": "_l2TokenAddress",
          "type": "address"
        }
      ],
      "name": "registerPool",
      "outputs": [],
      "stateMutability": "nonpayable",
      "type": "function"
    },
    {
      "inputs": [
        {
          "internalType": "address",
          "name": "_newDAO",
          "type": "address"
        }
      ],
      "name": "transferDAORole",
      "outputs": [],
      "stateMutability": "nonpayable",
      "type": "function"
    },
    {
      "inputs": [
        {
          "internalType": "address",
          "name": "_newOwner",
          "type": "address"
        }
      ],
      "name": "transferOwnership",
      "outputs": [],
      "stateMutability": "nonpayable",
      "type": "function"
    },
    {
      "inputs": [],
      "name": "unpause",
      "outputs": [],
      "stateMutability": "nonpayable",
      "type": "function"
    },
    {
      "inputs": [
        {
          "internalType": "address",
          "name": "_tokenAddress",
          "type": "address"
        }
      ],
      "name": "updateUserRewardPerShare",
      "outputs": [],
      "stateMutability": "nonpayable",
      "type": "function"
    },
    {
      "inputs": [
        {
          "internalType": "address",
          "name": "",
          "type": "address"
        },
        {
          "internalType": "address",
          "name": "",
          "type": "address"
        }
      ],
      "name": "userInfo",
      "outputs": [
        {
          "internalType": "uint256",
          "name": "amount",
          "type": "uint256"
        },
        {
          "internalType": "uint256",
          "name": "rewardDebt",
          "type": "uint256"
        },
        {
          "internalType": "uint256",
          "name": "pendingReward",
          "type": "uint256"
        }
      ],
      "stateMutability": "view",
      "type": "function"
    },
    {
      "inputs": [],
      "name": "userRewardMaxFeeRate",
      "outputs": [
        {
          "internalType": "uint256",
          "name": "",
          "type": "uint256"
        }
      ],
      "stateMutability": "view",
      "type": "function"
    },
    {
      "inputs": [],
      "name": "userRewardMinFeeRate",
      "outputs": [
        {
          "internalType": "uint256",
          "name": "",
          "type": "uint256"
        }
      ],
      "stateMutability": "view",
      "type": "function"
    },
    {
      "inputs": [
        {
          "internalType": "uint256",
          "name": "_amount",
          "type": "uint256"
        },
        {
          "internalType": "address",
          "name": "_tokenAddress",
          "type": "address"
        },
        {
          "internalType": "address payable",
          "name": "_to",
          "type": "address"
        }
      ],
      "name": "withdrawLiquidity",
      "outputs": [],
      "stateMutability": "nonpayable",
      "type": "function"
    },
    {
      "inputs": [
        {
          "internalType": "uint256",
          "name": "_amount",
          "type": "uint256"
        },
        {
          "internalType": "address",
          "name": "_tokenAddress",
          "type": "address"
        },
        {
          "internalType": "address",
          "name": "_to",
          "type": "address"
        }
      ],
      "name": "withdrawReward",
      "outputs": [],
      "stateMutability": "nonpayable",
      "type": "function"
    },
    {
      "inputs": [],
      "name": "xBOBAAddress",
      "outputs": [
        {
          "internalType": "address",
          "name": "",
          "type": "address"
        }
      ],
      "stateMutability": "view",
      "type": "function"
    },
    {
      "inputs": [
        {
          "internalType": "address",
          "name": "",
          "type": "address"
        }
      ],
      "name": "xBOBAStatus",
      "outputs": [
        {
          "internalType": "bool",
          "name": "",
          "type": "bool"
        }
      ],
      "stateMutability": "view",
      "type": "function"
    }
  ],
  "bytecode": "0x608060405234801561001057600080fd5b50600080546001600160a01b031916905561484b806100306000396000f3fe60806040526004361061026a5760003560e01c80636854e22b1161015357806398fabd3a116100cb578063c58827ea1161007f578063ecb12db011610064578063ecb12db014610784578063f2fde38b146107a4578063f4871268146107c457600080fd5b8063c58827ea14610751578063c95f9d0e1461077157600080fd5b80639a7b5f11116100b05780639a7b5f1114610660578063b5e241f114610711578063bd2d1cab1461073157600080fd5b806398fabd3a1461061d578063997d73df1461064557600080fd5b8063744a5aa21161012257806381e6bdac1161010757806381e6bdac146105c85780638456cb59146105e85780638da5cb5b146105fd57600080fd5b8063744a5aa21461059c57806377b594a2146105b257600080fd5b80636854e22b1461051457806368be42ca1461054657806370ac3180146105665780637286e5e51461057c57600080fd5b80633cb747bf116101e6578063485cc955116101b5578063531645cb1161019a578063531645cb146104bc5780635c975abb146104dc578063650a767b146104f457600080fd5b8063485cc9551461047c57806349561dc41461049c57600080fd5b80633cb747bf146104075780633f4ba83a146104275780633f89e9521461043c57806341132e4c1461045c57600080fd5b80631786e46d1161023d5780631f0bfb8c116102225780631f0bfb8c1461038357806334636648146103c3578063358fc07e146103e357600080fd5b80631786e46d146103505780631d00a7711461037057600080fd5b8063067b2dcb1461026f5780630f208beb1461029157806312f54c1a146102f857806316a8dda714610318575b600080fd5b34801561027b57600080fd5b5061028f61028a36600461449b565b6107e4565b005b34801561029d57600080fd5b506102d86102ac36600461449b565b609860209081526000928352604080842090915290825290208054600182015460029092015490919083565b604080519384526020840192909252908201526060015b60405180910390f35b34801561030457600080fd5b5061028f6103133660046144d4565b61091e565b34801561032457600080fd5b50609a54610338906001600160a01b031681565b6040516001600160a01b0390911681526020016102ef565b34801561035c57600080fd5b5060a154610338906001600160a01b031681565b61028f61037e3660046144f1565b6109b4565b34801561038f57600080fd5b506103b361039e3660046144d4565b60a26020526000908152604090205460ff1681565b60405190151581526020016102ef565b3480156103cf57600080fd5b5061028f6103de366004614516565b610ce5565b3480156103ef57600080fd5b506103f9609c5481565b6040519081526020016102ef565b34801561041357600080fd5b50600054610338906001600160a01b031681565b34801561043357600080fd5b5061028f610e08565b34801561044857600080fd5b5061028f6104573660046144f1565b610e80565b34801561046857600080fd5b5061028f61047736600461453c565b6113a8565b34801561048857600080fd5b5061028f61049736600461449b565b6115bd565b3480156104a857600080fd5b5061028f6104b7366004614568565b611892565b3480156104c857600080fd5b5060a054610338906001600160a01b031681565b3480156104e857600080fd5b5060655460ff166103b3565b34801561050057600080fd5b5061028f61050f3660046145aa565b611b8e565b34801561052057600080fd5b50609d546105319063ffffffff1681565b60405163ffffffff90911681526020016102ef565b34801561055257600080fd5b5061028f610561366004614568565b611ff8565b34801561057257600080fd5b506103f9609e5481565b34801561058857600080fd5b5061028f61059736600461449b565b61231e565b3480156105a857600080fd5b506103f9609f5481565b3480156105be57600080fd5b506103f9609b5481565b3480156105d457600080fd5b5061028f6105e3366004614568565b61254d565b3480156105f457600080fd5b5061028f6127cc565b34801561060957600080fd5b50609954610338906001600160a01b031681565b34801561062957600080fd5b50609d546103389064010000000090046001600160a01b031681565b34801561065157600080fd5b50609d5463ffffffff16610531565b34801561066c57600080fd5b506106cb61067b3660046144d4565b609760205260009081526040902080546001820154600283015460038401546004850154600586015460068701546007909701546001600160a01b03968716979590961695939492939192909188565b604080516001600160a01b03998a168152989097166020890152958701949094526060860192909252608085015260a084015260c083015260e0820152610100016102ef565b34801561071d57600080fd5b5061028f61072c3660046145e1565b612842565b34801561073d57600080fd5b5061028f61074c3660046145aa565b6129d0565b34801561075d57600080fd5b5061028f61076c36600461453c565b612fbc565b61028f61077f3660046144f1565b613146565b34801561079057600080fd5b506103f961079f3660046144d4565b613465565b3480156107b057600080fd5b5061028f6107bf3660046144d4565b613629565b3480156107d057600080fd5b5061028f6107df3660046144d4565b61374c565b6099546001600160a01b031633148061080657506099546001600160a01b0316155b6108575760405162461bcd60e51b815260206004820152601760248201527f43616c6c6572206973206e6f7420746865206f776e657200000000000000000060448201526064015b60405180910390fd5b60a1546001600160a01b031615801561087857506001600160a01b03821615155b801561088c57506001600160a01b03811615155b6108d85760405162461bcd60e51b815260206004820152601460248201527f496e76616c696420424f42412061646472657373000000000000000000000000604482015260640161084e565b60a180546001600160a01b039384167fffffffffffffffffffffffff00000000000000000000000000000000000000009182161790915560a08054929093169116179055565b6001600160a01b03811660009081526097602052604090206004810154600382015410156109b05760006109638260030154836004015461386c90919063ffffffff16565b905081600201546000146109a457600282015461099e906109939061098d8464e8d4a5100061387f565b9061388b565b600584015490613897565b60058301555b50600481015460038201555b5050565b60655460ff1615610a075760405162461bcd60e51b815260206004820152601060248201527f5061757361626c653a2070617573656400000000000000000000000000000000604482015260640161084e565b60005a9050609e548111610a835760405162461bcd60e51b815260206004820152602860248201527f496e73756666696369656e742047617320466f7220612052656c61792054726160448201527f6e73616374696f6e000000000000000000000000000000000000000000000000606482015260840161084e565b6000610a9a609e548361386c90919063ffffffff16565b905060005b815a1115610ab95780610ab181614629565b915050610a9f565b34151580610ae457506001600160a01b03841673420000000000000000000000000000000000000614155b610b305760405162461bcd60e51b815260206004820152601060248201527f416d6f756e7420496e636f727265637400000000000000000000000000000000604482015260640161084e565b3415610b515734945073420000000000000000000000000000000000000693505b6001600160a01b0380851660009081526097602052604090206001810154909116610bbe5760405162461bcd60e51b815260206004820152601c60248201527f546f6b656e2041646472657373204e6f74205265676973746572656400000000604482015260640161084e565b6001600160a01b03851673420000000000000000000000000000000000000614610bf757610bf76001600160a01b0386163330896138a3565b805460408051336024820152604481018990526001600160a01b039283166064808301919091528251808303909101815260849091019091526020810180517bffffffffffffffffffffffffffffffffffffffffffffffffffffffff167fcf26fb1b00000000000000000000000000000000000000000000000000000000179052609a54609d549192610c949291169063ffffffff165b83613972565b60408051338152602081018990526001600160a01b0388168183015290517fe57500de6b6dcf76b201fef514aca6501809e3b700c9fbd5e803567c66edf54c9181900360600190a150505050505050565b6099546001600160a01b0316331480610d0757506099546001600160a01b0316155b610d535760405162461bcd60e51b815260206004820152601760248201527f43616c6c6572206973206e6f7420746865206f776e6572000000000000000000604482015260640161084e565b609a546001600160a01b0316610dd15760405162461bcd60e51b815260206004820152602560248201527f436f6e747261637420686173206e6f7420796574206265656e20696e6974696160448201527f6c697a6564000000000000000000000000000000000000000000000000000000606482015260840161084e565b609d80547fffffffffffffffffffffffffffffffffffffffffffffffffffffffff000000001663ffffffff92909216919091179055565b6099546001600160a01b0316331480610e2a57506099546001600160a01b0316155b610e765760405162461bcd60e51b815260206004820152601760248201527f43616c6c6572206973206e6f7420746865206f776e6572000000000000000000604482015260640161084e565b610e7e6139f6565b565b6099546001600160a01b0316331480610ea257506099546001600160a01b0316155b610eee5760405162461bcd60e51b815260206004820152601760248201527f43616c6c6572206973206e6f7420746865206f776e6572000000000000000000604482015260640161084e565b60655460ff1615610f415760405162461bcd60e51b815260206004820152601060248201527f5061757361626c653a2070617573656400000000000000000000000000000000604482015260640161084e565b81610f8e5760405162461bcd60e51b815260206004820152601260248201527f416d6f756e742063616e6e6f7420626520300000000000000000000000000000604482015260640161084e565b6001600160a01b038082166000908152609760205260409020609a54909116610ff95760405162461bcd60e51b815260206004820181905260248201527f4c31204c697175696469747920506f6f6c204e6f742052656769737465726564604482015260640161084e565b60018101546001600160a01b03166110535760405162461bcd60e51b815260206004820152601c60248201527f546f6b656e2041646472657373204e6f74205265676973746572656400000000604482015260640161084e565b6001600160a01b03821673420000000000000000000000000000000000000614156111a857478311156110ee5760405162461bcd60e51b815260206004820152602260248201527f52657175657374656420455448206578636565647320706f6f6c2062616c616e60448201527f6365000000000000000000000000000000000000000000000000000000000000606482015260840161084e565b609a54609d546040517fa3a795480000000000000000000000000000000000000000000000000000000081526001600160a01b03808616600483015290921660248301526044820185905263ffffffff16606482015260a06084820152600060a48201527342000000000000000000000000000000000000109063a3a795489060c401600060405180830381600087803b15801561118b57600080fd5b505af115801561119f573d6000803e3d6000fd5b50505050611362565b6040517f70a082310000000000000000000000000000000000000000000000000000000081523060048201526001600160a01b038316906370a082319060240160206040518083038186803b15801561120057600080fd5b505afa158015611214573d6000803e3d6000fd5b505050506040513d601f19601f820116820180604052508101906112389190614662565b8311156112ac5760405162461bcd60e51b8152602060048201526024808201527f526571756573746564204552433230206578636565647320706f6f6c2062616c60448201527f616e636500000000000000000000000000000000000000000000000000000000606482015260840161084e565b609a54609d546040517fa3a795480000000000000000000000000000000000000000000000000000000081526001600160a01b03808616600483015290921660248301526044820185905263ffffffff16606482015260a06084820152600060a48201527342000000000000000000000000000000000000109063a3a795489060c401600060405180830381600087803b15801561134957600080fd5b505af115801561135d573d6000803e3d6000fd5b505050505b604080518481526001600160a01b03841660208201527f40637a7e139eeb28b936b8decebe78604164b2ade81ce7f4c70deb132e7614c2910160405180910390a1505050565b609d5464010000000090046001600160a01b0316331461140a5760405162461bcd60e51b815260206004820152601560248201527f43616c6c6572206973206e6f74207468652044414f0000000000000000000000604482015260640161084e565b609a546001600160a01b03166114885760405162461bcd60e51b815260206004820152602560248201527f436f6e747261637420686173206e6f7420796574206265656e20696e6974696160448201527f6c697a6564000000000000000000000000000000000000000000000000000000606482015260840161084e565b8183111580156114985750600083115b80156114a5575060328211155b80156114b2575060328111155b6115245760405162461bcd60e51b815260206004820152603c60248201527f7573657220616e64206f776e6572206665652072617465732073686f756c642060448201527f6265206c6f776572207468616e20352070657263656e74206561636800000000606482015260840161084e565b60408051602481018590526044810184905260648082018490528251808303909101815260849091019091526020810180517bffffffffffffffffffffffffffffffffffffffffffffffffffffffff167fc58827ea00000000000000000000000000000000000000000000000000000000179052609a54609d546115b7916001600160a01b03169063ffffffff16610c8e565b50505050565b6099546001600160a01b03163314806115df57506099546001600160a01b0316155b61162b5760405162461bcd60e51b815260206004820152601760248201527f43616c6c6572206973206e6f7420746865206f776e6572000000000000000000604482015260640161084e565b609a546001600160a01b0316156116845760405162461bcd60e51b815260206004820152601d60248201527f436f6e747261637420686173206265656e20696e697469616c697a6564000000604482015260640161084e565b6000547501000000000000000000000000000000000000000000900460ff16806116c9575060005474010000000000000000000000000000000000000000900460ff16155b61173b5760405162461bcd60e51b815260206004820152602e60248201527f496e697469616c697a61626c653a20636f6e747261637420697320616c72656160448201527f647920696e697469616c697a6564000000000000000000000000000000000000606482015260840161084e565b6000547501000000000000000000000000000000000000000000900460ff161580156117a257600080547fffffffffffffffffffff0000ffffffffffffffffffffffffffffffffffffffff1675010100000000000000000000000000000000000000001790555b600080547fffffffffffffffffffffffff00000000000000000000000000000000000000009081166001600160a01b0386811691909117909255609a80548216928516929092179091556099805433921682179055609d80547fffffffffffffffff0000000000000000000000000000000000000000ffffffff1664010000000090920291909117905561183a6001600a600f612fbc565b611846620186a0610ce5565b61184e613ab0565b611856613c00565b61185e613d77565b801561188d57600080547fffffffffffffffffffff00ffffffffffffffffffffffffffffffffffffffffff1690555b505050565b60655460ff16156118e55760405162461bcd60e51b815260206004820152601060248201527f5061757361626c653a2070617573656400000000000000000000000000000000604482015260640161084e565b6001600160a01b03808316600090815260976020908152604080832060988352818420338552909252909120600182015491929091166119675760405162461bcd60e51b815260206004820152601c60248201527f546f6b656e2041646472657373204e6f74205265676973746572656400000000604482015260640161084e565b60006119a961199e836001015461199864e8d4a5100061098d8860050154886000015461387f90919063ffffffff16565b9061386c565b600284015490613897565b905085811015611a215760405162461bcd60e51b815260206004820152602660248201527f52657175657374656420616d6f756e7420657863656564732070656e64696e6760448201527f5265776172640000000000000000000000000000000000000000000000000000606482015260840161084e565b611a2b818761386c565b600283015560058301548254611a4b9164e8d4a510009161098d9161387f565b60018301556001600160a01b03851673420000000000000000000000000000000000000614611a8d57611a886001600160a01b0386168588613eca565b611b36565b6000846001600160a01b03166108fc88604051600060405180830381858888f193505050503d8060008114611ade576040519150601f19603f3d011682016040523d82523d6000602084013e611ae3565b606091505b5050905080611b345760405162461bcd60e51b815260206004820152601660248201527f4661696c656420746f2073656e64206f766d5f45746800000000000000000000604482015260640161084e565b505b604080513381526001600160a01b0386811660208301528183018990528716606082015290517f3cb7cb475a33eda02ee6e719b6c2fc0c899157cfc6f098daf545354dbbce41ec9181900360800190a1505050505050565b609a546001600160a01b0316611c0c5760405162461bcd60e51b815260206004820152602560248201527f436f6e747261637420686173206e6f7420796574206265656e20696e6974696160448201527f6c697a6564000000000000000000000000000000000000000000000000000000606482015260840161084e565b609a546001600160a01b0316611c2a6000546001600160a01b031690565b6001600160a01b0316336001600160a01b031614611cb05760405162461bcd60e51b815260206004820152602e60248201527f4f564d5f58434841494e3a206d657373656e67657220636f6e7472616374207560448201527f6e61757468656e74696361746564000000000000000000000000000000000000606482015260840161084e565b806001600160a01b0316611ccc6000546001600160a01b031690565b6001600160a01b0316636e296e456040518163ffffffff1660e01b815260040160206040518083038186803b158015611d0457600080fd5b505afa158015611d18573d6000803e3d6000fd5b505050506040513d601f19601f82011682018060405250810190611d3c919061467b565b6001600160a01b031614611db85760405162461bcd60e51b815260206004820152603060248201527f4f564d5f58434841494e3a2077726f6e672073656e646572206f662063726f7360448201527f732d646f6d61696e206d65737361676500000000000000000000000000000000606482015260840161084e565b60655460ff1615611e0b5760405162461bcd60e51b815260206004820152601060248201527f5061757361626c653a2070617573656400000000000000000000000000000000604482015260640161084e565b6001600160a01b038216600090815260976020526040812090611e2d84613465565b90506000611e416103e861098d888561387f565b90506000611e606103e861098d609c548a61387f90919063ffffffff16565b90506000611e6e8383613897565b90506000611e7c898361386c565b6004870154909150611e8e9085613897565b60048701556006860154611ea29084613897565b60068701556001600160a01b03881673420000000000000000000000000000000000000614611ee457611edf6001600160a01b0389168b83613eca565b611f8d565b60008a6001600160a01b03166108fc83604051600060405180830381858888f193505050503d8060008114611f35576040519150601f19603f3d011682016040523d82523d6000602084013e611f3a565b606091505b5050905080611f8b5760405162461bcd60e51b815260206004820152601660248201527f4661696c656420746f2073656e64206f766d5f45746800000000000000000000604482015260640161084e565b505b604080516001600160a01b038c811682526020820184905281830187905260608201869052608082018590528a1660a082015290517ff1068421680e00dfc2c4f3fc20c7f565bf1ec365420e7544365bae13d5cbc8c89181900360c00190a150505050505050505050565b60655460ff161561204b5760405162461bcd60e51b815260206004820152601060248201527f5061757361626c653a2070617573656400000000000000000000000000000000604482015260640161084e565b6001600160a01b03808316600090815260976020908152604080832060988352818420338552909252909120600182015491929091166120cd5760405162461bcd60e51b815260206004820152601c60248201527f546f6b656e2041646472657373204e6f74205265676973746572656400000000604482015260640161084e565b80548511156121445760405162461bcd60e51b815260206004820152602660248201527f52657175657374656420616d6f756e74206578636565647320616d6f756e742060448201527f7374616b65640000000000000000000000000000000000000000000000000000606482015260840161084e565b61214d84613f13565b6121568461091e565b612190612185826001015461199864e8d4a5100061098d8760050154876000015461387f90919063ffffffff16565b600283015490613897565b600282015580546121a1908661386c565b80825560058301546121be9164e8d4a510009161098d919061387f565b600182015560028201546121d2908661386c565b60028301556001600160a01b038416734200000000000000000000000000000000000006146122145761220f6001600160a01b0385168487613eca565b6122bd565b6000836001600160a01b03166108fc87604051600060405180830381858888f193505050503d8060008114612265576040519150601f19603f3d011682016040523d82523d6000602084013e61226a565b606091505b50509050806122bb5760405162461bcd60e51b815260206004820152601660248201527f4661696c656420746f2073656e64206f766d5f45746800000000000000000000604482015260640161084e565b505b6122c78585614042565b604080513381526001600160a01b0385811660208301528183018890528616606082015290517ffa2e8fcf14fd6ea11b6ebe7caf7de210198b8fe1eaf0e06d19f8d87c73860c469181900360800190a15050505050565b6099546001600160a01b031633148061234057506099546001600160a01b0316155b61238c5760405162461bcd60e51b815260206004820152601760248201527f43616c6c6572206973206e6f7420746865206f776e6572000000000000000000604482015260640161084e565b806001600160a01b0316826001600160a01b031614156124145760405162461bcd60e51b815260206004820152602860248201527f6c3120616e64206c3220746f6b656e206164647265737365732063616e6e6f7460448201527f2062652073616d65000000000000000000000000000000000000000000000000606482015260840161084e565b6001600160a01b0380821660009081526097602052604090206001810154909116156124825760405162461bcd60e51b815260206004820181905260248201527f546f6b656e204164647265737320416c72656164792052656769737465726564604482015260640161084e565b5060408051610100810182526001600160a01b03938416815291831660208084018281526000858501818152606087018281526080880183815260a0890184815260c08a018581524260e08c0190815298865260979097529790932097518854908a167fffffffffffffffffffffffff0000000000000000000000000000000000000000918216178955935160018901805491909a16941693909317909755955160028601555160038501559351600484015590516005830155915160068201559051600790910155565b6099546001600160a01b031633148061256f57506099546001600160a01b0316155b6125bb5760405162461bcd60e51b815260206004820152601760248201527f43616c6c6572206973206e6f7420746865206f776e6572000000000000000000604482015260640161084e565b6001600160a01b03808316600090815260976020526040902060018101549091166126285760405162461bcd60e51b815260206004820152601c60248201527f546f6b656e2041646472657373204e6f74205265676973746572656400000000604482015260640161084e565b838160060154101561267c5760405162461bcd60e51b815260206004820152601f60248201527f52657175657374656420616d6f756e7420657863656564732072657761726400604482015260640161084e565b600681015461268b908561386c565b60068201556001600160a01b038316734200000000000000000000000000000000000006146126cd576126c86001600160a01b0384168386613eca565b612776565b6000826001600160a01b03166108fc86604051600060405180830381858888f193505050503d806000811461271e576040519150601f19603f3d011682016040523d82523d6000602084013e612723565b606091505b50509050806127745760405162461bcd60e51b815260206004820152601660248201527f4661696c656420746f2073656e64206f766d5f45746800000000000000000000604482015260640161084e565b505b604080513381526001600160a01b0384811660208301528183018790528516606082015290517f3cb71b9a1fb601579f96812b9f86ab5e914fc3e54c98d5f84d95581b2b9884f39181900360800190a150505050565b6099546001600160a01b03163314806127ee57506099546001600160a01b0316155b61283a5760405162461bcd60e51b815260206004820152601760248201527f43616c6c6572206973206e6f7420746865206f776e6572000000000000000000604482015260640161084e565b610e7e6140f0565b73420000000000000000000000000000000000000f6001600160a01b0316638da5cb5b6040518163ffffffff1660e01b815260040160206040518083038186803b15801561288f57600080fd5b505afa1580156128a3573d6000803e3d6000fd5b505050506040513d601f19601f820116820180604052508101906128c7919061467b565b6001600160a01b0316336001600160a01b03161461294d5760405162461bcd60e51b815260206004820152602660248201527f43616c6c6572206973206e6f74207468652067617350726963654f7261636c6560448201527f206f776e65720000000000000000000000000000000000000000000000000000606482015260840161084e565b609a546001600160a01b03166129cb5760405162461bcd60e51b815260206004820152602560248201527f436f6e747261637420686173206e6f7420796574206265656e20696e6974696160448201527f6c697a6564000000000000000000000000000000000000000000000000000000606482015260840161084e565b609e55565b609a546001600160a01b0316612a4e5760405162461bcd60e51b815260206004820152602560248201527f436f6e747261637420686173206e6f7420796574206265656e20696e6974696160448201527f6c697a6564000000000000000000000000000000000000000000000000000000606482015260840161084e565b609a546001600160a01b0316612a6c6000546001600160a01b031690565b6001600160a01b0316336001600160a01b031614612af25760405162461bcd60e51b815260206004820152602e60248201527f4f564d5f58434841494e3a206d657373656e67657220636f6e7472616374207560448201527f6e61757468656e74696361746564000000000000000000000000000000000000606482015260840161084e565b806001600160a01b0316612b0e6000546001600160a01b031690565b6001600160a01b0316636e296e456040518163ffffffff1660e01b815260040160206040518083038186803b158015612b4657600080fd5b505afa158015612b5a573d6000803e3d6000fd5b505050506040513d601f19601f82011682018060405250810190612b7e919061467b565b6001600160a01b031614612bfa5760405162461bcd60e51b815260206004820152603060248201527f4f564d5f58434841494e3a2077726f6e672073656e646572206f662063726f7360448201527f732d646f6d61696e206d65737361676500000000000000000000000000000000606482015260840161084e565b60655460ff1615612c4d5760405162461bcd60e51b815260206004820152601060248201527f5061757361626c653a2070617573656400000000000000000000000000000000604482015260640161084e565b6001600160a01b038216600090815260976020526040812081612c6f85613465565b90506000612c836103e861098d898561387f565b90506000612ca26103e861098d609c548b61387f90919063ffffffff16565b90506000612cb08383613897565b90506000612cbe8a8361386c565b90506001600160a01b03891673420000000000000000000000000000000000000614612dc5576040517f70a082310000000000000000000000000000000000000000000000000000000081523060048201526001600160a01b038a16906370a082319060240160206040518083038186803b158015612d3c57600080fd5b505afa158015612d50573d6000803e3d6000fd5b505050506040513d601f19601f82011682018060405250810190612d749190614662565b811115612d845760019650612ea6565b6004860154612d939085613897565b60048701556006860154612da79084613897565b6006870155612dc06001600160a01b038a168c83613eca565b612ea6565b47811115612dd65760019650612ea6565b6004860154612de59085613897565b60048701556006860154612df99084613897565b60068701556040516000906001600160a01b038d16906108fc90849084818181858888f193505050503d8060008114612e4e576040519150601f19603f3d011682016040523d82523d6000602084013e612e53565b606091505b5050905080612ea45760405162461bcd60e51b815260206004820152601660248201527f4661696c656420746f2073656e64206f766d5f45746800000000000000000000604482015260640161084e565b505b8615612f4f578554604080516001600160a01b038e81166024830152604482018e90529283166064808301919091528251808303909101815260849091019091526020810180517bffffffffffffffffffffffffffffffffffffffffffffffffffffffff167f53174cc100000000000000000000000000000000000000000000000000000000179052609a54609d549192612f499291169063ffffffff16610c8e565b50612faf565b604080516001600160a01b038d811682526020820184905281830187905260608201869052608082018590528b1660a082015290517fedb4d3b4b55168608412f15db11c00859915842963c31b1f08d910a38e1d6aa49181900360c00190a15b5050505050505050505050565b609d5464010000000090046001600160a01b0316331461301e5760405162461bcd60e51b815260206004820152601560248201527f43616c6c6572206973206e6f74207468652044414f0000000000000000000000604482015260640161084e565b609a546001600160a01b031661309c5760405162461bcd60e51b815260206004820152602560248201527f436f6e747261637420686173206e6f7420796574206265656e20696e6974696160448201527f6c697a6564000000000000000000000000000000000000000000000000000000606482015260840161084e565b8183111580156130ac5750600083115b80156130b9575060328211155b80156130c6575060328111155b6131385760405162461bcd60e51b815260206004820152603c60248201527f7573657220616e64206f776e6572206665652072617465732073686f756c642060448201527f6265206c6f776572207468616e20352070657263656e74206561636800000000606482015260840161084e565b609b92909255609f55609c55565b600260015414156131995760405162461bcd60e51b815260206004820152601f60248201527f5265656e7472616e637947756172643a207265656e7472616e742063616c6c00604482015260640161084e565b600260015560655460ff16156131f15760405162461bcd60e51b815260206004820152601060248201527f5061757361626c653a2070617573656400000000000000000000000000000000604482015260640161084e565b3415158061321c57506001600160a01b03811673420000000000000000000000000000000000000614155b6132685760405162461bcd60e51b815260206004820152601060248201527f416d6f756e7420496e636f727265637400000000000000000000000000000000604482015260640161084e565b341561328857503490507342000000000000000000000000000000000000065b6001600160a01b038082166000908152609760209081526040808320609883528184203385529092529091206001820154919290911661330a5760405162461bcd60e51b815260206004820152601c60248201527f546f6b656e2041646472657373204e6f74205265676973746572656400000000604482015260640161084e565b61331383613f13565b61331c8361091e565b80541561338857613352612185826001015461199864e8d4a5100061098d8760050154876000015461387f90919063ffffffff16565b60028201556005820154815461337e9164e8d4a510009161098d91906133789089613897565b9061387f565b60018201556133ae565b6133a864e8d4a5100061098d84600501548761387f90919063ffffffff16565b60018201555b6001600160a01b038316734200000000000000000000000000000000000006146133e7576133e76001600160a01b0384163330876138a3565b80546133f39085613897565b815560028201546134049085613897565b60028301556134138484614196565b60408051338152602081018690526001600160a01b0385168183015290517f5852d1d46e583f7e92c2a572221de0e681d82ef71f489847e056b9445c0147369181900360600190a15050600180555050565b609a546000906001600160a01b03166134e65760405162461bcd60e51b815260206004820152602560248201527f436f6e747261637420686173206e6f7420796574206265656e20696e6974696160448201527f6c697a6564000000000000000000000000000000000000000000000000000000606482015260840161084e565b6001600160a01b038216600081815260976020526040812060028101549092909190734200000000000000000000000000000000000006141561352a5750476135bd565b6040517f70a082310000000000000000000000000000000000000000000000000000000081523060048201526001600160a01b038616906370a082319060240160206040518083038186803b15801561358257600080fd5b505afa158015613596573d6000803e3d6000fd5b505050506040513d601f19601f820116820180604052508101906135ba9190614662565b90505b806135ce575050609f549392505050565b60008183609b546135df9190614698565b6135e991906146d5565b905080609b541115613602575050609b54949350505050565b80609f541015613619575050609f54949350505050565b935061362492505050565b919050565b6099546001600160a01b031633148061364b57506099546001600160a01b0316155b6136975760405162461bcd60e51b815260206004820152601760248201527f43616c6c6572206973206e6f7420746865206f776e6572000000000000000000604482015260640161084e565b6001600160a01b0381166137125760405162461bcd60e51b8152602060048201526024808201527f4e6577206f776e65722063616e6e6f7420626520746865207a65726f2061646460448201527f7265737300000000000000000000000000000000000000000000000000000000606482015260840161084e565b609980547fffffffffffffffffffffffff0000000000000000000000000000000000000000166001600160a01b0392909216919091179055565b609d5464010000000090046001600160a01b031633146137ae5760405162461bcd60e51b815260206004820152601560248201527f43616c6c6572206973206e6f74207468652044414f0000000000000000000000604482015260640161084e565b6001600160a01b03811661382a5760405162461bcd60e51b815260206004820152602a60248201527f4e65772044414f20616464726573732063616e6e6f7420626520746865207a6560448201527f726f206164647265737300000000000000000000000000000000000000000000606482015260840161084e565b609d80546001600160a01b03909216640100000000027fffffffffffffffff0000000000000000000000000000000000000000ffffffff909216919091179055565b60006138788284614710565b9392505050565b60006138788284614698565b600061387882846146d5565b60006138788284614727565b6040516001600160a01b03808516602483015283166044820152606481018290526115b79085907f23b872dd00000000000000000000000000000000000000000000000000000000906084015b604080517fffffffffffffffffffffffffffffffffffffffffffffffffffffffffffffffe08184030181529190526020810180517bffffffffffffffffffffffffffffffffffffffffffffffffffffffff167fffffffff0000000000000000000000000000000000000000000000000000000090931692909217909152614212565b6000546040517f3dbb202b0000000000000000000000000000000000000000000000000000000081526001600160a01b0390911690633dbb202b906139bf908690859087906004016147b5565b600060405180830381600087803b1580156139d957600080fd5b505af11580156139ed573d6000803e3d6000fd5b50505050505050565b60655460ff16613a485760405162461bcd60e51b815260206004820152601460248201527f5061757361626c653a206e6f7420706175736564000000000000000000000000604482015260640161084e565b606580547fffffffffffffffffffffffffffffffffffffffffffffffffffffffffffffff001690557f5db9ee0a495bf2e6ff9c91a7834c1ba4fdd244a5e8aa4e537bd38aeae4b073aa335b6040516001600160a01b03909116815260200160405180910390a1565b6000547501000000000000000000000000000000000000000000900460ff1680613af5575060005474010000000000000000000000000000000000000000900460ff16155b613b675760405162461bcd60e51b815260206004820152602e60248201527f496e697469616c697a61626c653a20636f6e747261637420697320616c72656160448201527f647920696e697469616c697a6564000000000000000000000000000000000000606482015260840161084e565b6000547501000000000000000000000000000000000000000000900460ff16158015613bce57600080547fffffffffffffffffffff0000ffffffffffffffffffffffffffffffffffffffff1675010100000000000000000000000000000000000000001790555b8015613bfd57600080547fffffffffffffffffffff00ffffffffffffffffffffffffffffffffffffffffff1690555b50565b6000547501000000000000000000000000000000000000000000900460ff1680613c45575060005474010000000000000000000000000000000000000000900460ff16155b613cb75760405162461bcd60e51b815260206004820152602e60248201527f496e697469616c697a61626c653a20636f6e747261637420697320616c72656160448201527f647920696e697469616c697a6564000000000000000000000000000000000000606482015260840161084e565b6000547501000000000000000000000000000000000000000000900460ff16158015613d1e57600080547fffffffffffffffffffff0000ffffffffffffffffffffffffffffffffffffffff1675010100000000000000000000000000000000000000001790555b606580547fffffffffffffffffffffffffffffffffffffffffffffffffffffffffffffff001690558015613bfd57600080547fffffffffffffffffffff00ffffffffffffffffffffffffffffffffffffffffff16905550565b6000547501000000000000000000000000000000000000000000900460ff1680613dbc575060005474010000000000000000000000000000000000000000900460ff16155b613e2e5760405162461bcd60e51b815260206004820152602e60248201527f496e697469616c697a61626c653a20636f6e747261637420697320616c72656160448201527f647920696e697469616c697a6564000000000000000000000000000000000000606482015260840161084e565b6000547501000000000000000000000000000000000000000000900460ff16158015613e9557600080547fffffffffffffffffffff0000ffffffffffffffffffffffffffffffffffffffff1675010100000000000000000000000000000000000000001790555b600180558015613bfd57600080547fffffffffffffffffffff00ffffffffffffffffffffffffffffffffffffffffff16905550565b6040516001600160a01b03831660248201526044810182905261188d9084907fa9059cbb00000000000000000000000000000000000000000000000000000000906064016138f0565b33600090815260a2602052604090205460ff16158015613f40575060a1546001600160a01b038281169116145b8015613f56575060a1546001600160a01b031615155b15613bfd576001600160a01b038116600090815260986020908152604080832033845290915290208054156140065760a05481546040517f40c10f1900000000000000000000000000000000000000000000000000000000815233600482015260248101919091526001600160a01b03909116906340c10f1990604401600060405180830381600087803b158015613fed57600080fd5b505af1158015614001573d6000803e3d6000fd5b505050505b5033600090815260a26020526040902080547fffffffffffffffffffffffffffffffffffffffffffffffffffffffffffffff0016600117905550565b60a1546001600160a01b038281169116148015614069575060a1546001600160a01b031615155b156109b05760a0546040517f9dc29fac000000000000000000000000000000000000000000000000000000008152336004820152602481018490526001600160a01b0390911690639dc29fac906044015b600060405180830381600087803b1580156140d457600080fd5b505af11580156140e8573d6000803e3d6000fd5b505050505050565b60655460ff16156141435760405162461bcd60e51b815260206004820152601060248201527f5061757361626c653a2070617573656400000000000000000000000000000000604482015260640161084e565b606580547fffffffffffffffffffffffffffffffffffffffffffffffffffffffffffffff001660011790557f62e78cea01bee320cd4e420270b5ea74000d11b0c9f74754ebdbfc544b05a258613a933390565b60a1546001600160a01b0382811691161480156141bd575060a1546001600160a01b031615155b156109b05760a0546040517f40c10f19000000000000000000000000000000000000000000000000000000008152336004820152602481018490526001600160a01b03909116906340c10f19906044016140ba565b6000614267826040518060400160405280602081526020017f5361666545524332303a206c6f772d6c6576656c2063616c6c206661696c6564815250856001600160a01b03166142f79092919063ffffffff16565b80519091501561188d578080602001905181019061428591906147ed565b61188d5760405162461bcd60e51b815260206004820152602a60248201527f5361666545524332303a204552433230206f7065726174696f6e20646964206e60448201527f6f74207375636365656400000000000000000000000000000000000000000000606482015260840161084e565b6060614306848460008561430e565b949350505050565b6060824710156143865760405162461bcd60e51b815260206004820152602660248201527f416464726573733a20696e73756666696369656e742062616c616e636520666f60448201527f722063616c6c0000000000000000000000000000000000000000000000000000606482015260840161084e565b843b6143d45760405162461bcd60e51b815260206004820152601d60248201527f416464726573733a2063616c6c20746f206e6f6e2d636f6e7472616374000000604482015260640161084e565b600080866001600160a01b031685876040516143f0919061480f565b60006040518083038185875af1925050503d806000811461442d576040519150601f19603f3d011682016040523d82523d6000602084013e614432565b606091505b509150915061444282828661444d565b979650505050505050565b6060831561445c575081613878565b82511561446c5782518084602001fd5b8160405162461bcd60e51b815260040161084e919061482b565b6001600160a01b0381168114613bfd57600080fd5b600080604083850312156144ae57600080fd5b82356144b981614486565b915060208301356144c981614486565b809150509250929050565b6000602082840312156144e657600080fd5b813561387881614486565b6000806040838503121561450457600080fd5b8235915060208301356144c981614486565b60006020828403121561452857600080fd5b813563ffffffff8116811461387857600080fd5b60008060006060848603121561455157600080fd5b505081359360208301359350604090920135919050565b60008060006060848603121561457d57600080fd5b83359250602084013561458f81614486565b9150604084013561459f81614486565b809150509250925092565b6000806000606084860312156145bf57600080fd5b83356145ca81614486565b925060208401359150604084013561459f81614486565b6000602082840312156145f357600080fd5b5035919050565b7f4e487b7100000000000000000000000000000000000000000000000000000000600052601160045260246000fd5b60007fffffffffffffffffffffffffffffffffffffffffffffffffffffffffffffffff82141561465b5761465b6145fa565b5060010190565b60006020828403121561467457600080fd5b5051919050565b60006020828403121561468d57600080fd5b815161387881614486565b6000817fffffffffffffffffffffffffffffffffffffffffffffffffffffffffffffffff04831182151516156146d0576146d06145fa565b500290565b60008261470b577f4e487b7100000000000000000000000000000000000000000000000000000000600052601260045260246000fd5b500490565b600082821015614722576147226145fa565b500390565b6000821982111561473a5761473a6145fa565b500190565b60005b8381101561475a578181015183820152602001614742565b838111156115b75750506000910152565b6000815180845261478381602086016020860161473f565b601f017fffffffffffffffffffffffffffffffffffffffffffffffffffffffffffffffe0169290920160200192915050565b6001600160a01b03841681526060602082015260006147d7606083018561476b565b905063ffffffff83166040830152949350505050565b6000602082840312156147ff57600080fd5b8151801515811461387857600080fd5b6000825161482181846020870161473f565b9190910192915050565b602081526000613878602083018461476b56fea164736f6c6343000809000a",
  "linkReferences": {},
  "deployedLinkReferences": {}
}